{
  "_format": "hh-sol-artifact-1",
  "contractName": "ProcessRegistry",
  "sourceName": "src/non-proxy/ProcessRegistry.sol",
  "abi": [
    {
      "inputs": [
        {
          "internalType": "string",
          "name": "_chainID",
          "type": "string"
        },
        {
          "internalType": "address",
          "name": "_organizationRegistryAddress",
          "type": "address"
        },
        {
          "internalType": "address",
          "name": "_stVerifier",
          "type": "address"
        },
        {
          "internalType": "address",
          "name": "_rVerifier",
          "type": "address"
        }
      ],
      "stateMutability": "nonpayable",
      "type": "constructor"
    },
    {
      "inputs": [],
      "name": "InvalidCensus",
      "type": "error"
    },
    {
      "inputs": [],
      "name": "InvalidDuration",
      "type": "error"
    },
    {
      "inputs": [],
      "name": "InvalidMaxCount",
      "type": "error"
    },
    {
      "inputs": [],
      "name": "InvalidMaxValue",
      "type": "error"
    },
    {
      "inputs": [],
      "name": "InvalidStartTime",
      "type": "error"
    },
    {
      "inputs": [],
      "name": "InvalidStateRoot",
      "type": "error"
    },
    {
      "inputs": [],
      "name": "InvalidStatus",
      "type": "error"
    },
    {
      "inputs": [],
      "name": "NotOrganizationAdministrator",
      "type": "error"
    },
    {
      "inputs": [],
      "name": "OrganizationNotFound",
      "type": "error"
    },
    {
      "inputs": [],
      "name": "ProcessAlreadyExists",
      "type": "error"
    },
    {
      "inputs": [],
      "name": "ProcessNotFound",
      "type": "error"
    },
    {
      "anonymous": false,
      "inputs": [
        {
          "indexed": true,
          "internalType": "bytes32",
          "name": "processId",
          "type": "bytes32"
        },
        {
          "indexed": false,
          "internalType": "bytes32",
          "name": "censusRoot",
          "type": "bytes32"
        },
        {
          "indexed": false,
          "internalType": "string",
          "name": "censusURI",
          "type": "string"
        },
        {
          "indexed": false,
          "internalType": "uint256",
          "name": "maxVotes",
          "type": "uint256"
        }
      ],
      "name": "CensusUpdated",
      "type": "event"
    },
    {
      "anonymous": false,
      "inputs": [
        {
          "indexed": true,
          "internalType": "bytes32",
          "name": "processId",
          "type": "bytes32"
        },
        {
          "indexed": true,
          "internalType": "address",
          "name": "creator",
          "type": "address"
        }
      ],
      "name": "ProcessCreated",
      "type": "event"
    },
    {
      "anonymous": false,
      "inputs": [
        {
          "indexed": true,
          "internalType": "bytes32",
          "name": "processId",
          "type": "bytes32"
        },
        {
          "indexed": false,
          "internalType": "uint256",
          "name": "duration",
          "type": "uint256"
        }
      ],
      "name": "ProcessDurationChanged",
      "type": "event"
    },
    {
      "anonymous": false,
      "inputs": [
        {
          "indexed": true,
          "internalType": "bytes32",
          "name": "processId",
          "type": "bytes32"
        },
        {
          "indexed": false,
          "internalType": "uint256[]",
          "name": "result",
          "type": "uint256[]"
        }
      ],
      "name": "ProcessResultsSet",
      "type": "event"
    },
    {
      "anonymous": false,
      "inputs": [
        {
          "indexed": true,
          "internalType": "bytes32",
          "name": "processId",
          "type": "bytes32"
        },
        {
          "indexed": false,
          "internalType": "uint256",
          "name": "newStateRoot",
          "type": "uint256"
        }
      ],
      "name": "ProcessStateRootUpdated",
      "type": "event"
    },
    {
      "anonymous": false,
      "inputs": [
        {
          "indexed": true,
          "internalType": "bytes32",
          "name": "processId",
          "type": "bytes32"
        },
        {
          "indexed": false,
          "internalType": "enum IProcessRegistry.ProcessStatus",
          "name": "newStatus",
          "type": "uint8"
        }
      ],
      "name": "ProcessStatusChanged",
      "type": "event"
    },
    {
      "inputs": [],
      "name": "MAX_CENSUS_ORIGIN",
      "outputs": [
        {
          "internalType": "uint8",
          "name": "",
          "type": "uint8"
        }
      ],
      "stateMutability": "view",
      "type": "function"
    },
    {
      "inputs": [],
      "name": "MAX_STATUS",
      "outputs": [
        {
          "internalType": "uint8",
          "name": "",
          "type": "uint8"
        }
      ],
      "stateMutability": "view",
      "type": "function"
    },
    {
      "inputs": [],
      "name": "chainID",
      "outputs": [
        {
          "internalType": "string",
          "name": "",
          "type": "string"
        }
      ],
      "stateMutability": "view",
      "type": "function"
    },
    {
      "inputs": [
        {
          "internalType": "bytes32",
          "name": "processId",
          "type": "bytes32"
        }
      ],
      "name": "getProcess",
      "outputs": [
        {
          "components": [
            {
              "internalType": "enum IProcessRegistry.ProcessStatus",
              "name": "status",
              "type": "uint8"
            },
            {
              "internalType": "address",
              "name": "organizationId",
              "type": "address"
            },
            {
              "components": [
                {
                  "internalType": "uint256",
                  "name": "x",
                  "type": "uint256"
                },
                {
                  "internalType": "uint256",
                  "name": "y",
                  "type": "uint256"
                }
              ],
              "internalType": "struct IProcessRegistry.EncryptionKey",
              "name": "encryptionKey",
              "type": "tuple"
            },
            {
              "internalType": "uint256",
              "name": "latestStateRoot",
              "type": "uint256"
            },
            {
              "internalType": "uint256[]",
              "name": "result",
              "type": "uint256[]"
            },
            {
              "internalType": "uint256",
              "name": "startTime",
              "type": "uint256"
            },
            {
              "internalType": "uint256",
              "name": "duration",
              "type": "uint256"
            },
            {
              "internalType": "uint256",
              "name": "voteCount",
              "type": "uint256"
            },
            {
              "internalType": "uint256",
              "name": "voteOverwriteCount",
              "type": "uint256"
            },
            {
              "internalType": "string",
              "name": "metadataURI",
              "type": "string"
            },
            {
              "components": [
                {
                  "internalType": "bool",
                  "name": "costFromWeight",
                  "type": "bool"
                },
                {
                  "internalType": "bool",
                  "name": "forceUniqueness",
                  "type": "bool"
                },
                {
                  "internalType": "uint8",
                  "name": "maxCount",
                  "type": "uint8"
                },
                {
                  "internalType": "uint8",
                  "name": "costExponent",
                  "type": "uint8"
                },
                {
                  "internalType": "uint256",
                  "name": "maxValue",
                  "type": "uint256"
                },
                {
                  "internalType": "uint256",
                  "name": "minValue",
                  "type": "uint256"
                },
                {
                  "internalType": "uint256",
                  "name": "maxTotalCost",
                  "type": "uint256"
                },
                {
                  "internalType": "uint256",
                  "name": "minTotalCost",
                  "type": "uint256"
                }
              ],
              "internalType": "struct IProcessRegistry.BallotMode",
              "name": "ballotMode",
              "type": "tuple"
            },
            {
              "components": [
                {
                  "internalType": "enum IProcessRegistry.CensusOrigin",
                  "name": "censusOrigin",
                  "type": "uint8"
                },
                {
                  "internalType": "uint256",
                  "name": "maxVotes",
                  "type": "uint256"
                },
                {
                  "internalType": "bytes32",
                  "name": "censusRoot",
                  "type": "bytes32"
                },
                {
                  "internalType": "string",
                  "name": "censusURI",
                  "type": "string"
                }
              ],
              "internalType": "struct IProcessRegistry.Census",
              "name": "census",
              "type": "tuple"
            }
          ],
          "internalType": "struct IProcessRegistry.Process",
          "name": "",
          "type": "tuple"
        }
      ],
      "stateMutability": "view",
      "type": "function"
    },
    {
      "inputs": [],
      "name": "getRVerifierVKeyHash",
      "outputs": [
        {
          "internalType": "bytes32",
          "name": "",
          "type": "bytes32"
        }
      ],
      "stateMutability": "view",
      "type": "function"
    },
    {
      "inputs": [],
      "name": "getSTVerifierVKeyHash",
      "outputs": [
        {
          "internalType": "bytes32",
          "name": "",
          "type": "bytes32"
        }
      ],
      "stateMutability": "view",
      "type": "function"
    },
    {
      "inputs": [
        {
          "internalType": "enum IProcessRegistry.ProcessStatus",
          "name": "status",
          "type": "uint8"
        },
        {
          "internalType": "uint256",
          "name": "startTime",
          "type": "uint256"
        },
        {
          "internalType": "uint256",
          "name": "duration",
          "type": "uint256"
        },
        {
          "components": [
            {
              "internalType": "bool",
              "name": "costFromWeight",
              "type": "bool"
            },
            {
              "internalType": "bool",
              "name": "forceUniqueness",
              "type": "bool"
            },
            {
              "internalType": "uint8",
              "name": "maxCount",
              "type": "uint8"
            },
            {
              "internalType": "uint8",
              "name": "costExponent",
              "type": "uint8"
            },
            {
              "internalType": "uint256",
              "name": "maxValue",
              "type": "uint256"
            },
            {
              "internalType": "uint256",
              "name": "minValue",
              "type": "uint256"
            },
            {
              "internalType": "uint256",
              "name": "maxTotalCost",
              "type": "uint256"
            },
            {
              "internalType": "uint256",
              "name": "minTotalCost",
              "type": "uint256"
            }
          ],
          "internalType": "struct IProcessRegistry.BallotMode",
          "name": "ballotMode",
          "type": "tuple"
        },
        {
          "components": [
            {
              "internalType": "enum IProcessRegistry.CensusOrigin",
              "name": "censusOrigin",
              "type": "uint8"
            },
            {
              "internalType": "uint256",
              "name": "maxVotes",
              "type": "uint256"
            },
            {
              "internalType": "bytes32",
              "name": "censusRoot",
              "type": "bytes32"
            },
            {
              "internalType": "string",
              "name": "censusURI",
              "type": "string"
            }
          ],
          "internalType": "struct IProcessRegistry.Census",
          "name": "census",
          "type": "tuple"
        },
        {
          "internalType": "string",
          "name": "metadata",
          "type": "string"
        },
        {
          "internalType": "address",
          "name": "organizationId",
          "type": "address"
        },
        {
          "internalType": "bytes32",
          "name": "processId",
          "type": "bytes32"
        },
        {
          "components": [
            {
              "internalType": "uint256",
              "name": "x",
              "type": "uint256"
            },
            {
              "internalType": "uint256",
              "name": "y",
              "type": "uint256"
            }
          ],
          "internalType": "struct IProcessRegistry.EncryptionKey",
          "name": "encryptionKey",
          "type": "tuple"
        },
        {
          "internalType": "uint256",
          "name": "initStateRoot",
          "type": "uint256"
        }
      ],
      "name": "newProcess",
      "outputs": [],
      "stateMutability": "nonpayable",
      "type": "function"
    },
    {
      "inputs": [],
      "name": "organizationRegistryAddress",
      "outputs": [
        {
          "internalType": "address",
          "name": "",
          "type": "address"
        }
      ],
      "stateMutability": "view",
      "type": "function"
    },
    {
      "inputs": [],
      "name": "processCount",
      "outputs": [
        {
          "internalType": "uint32",
          "name": "",
          "type": "uint32"
        }
      ],
      "stateMutability": "view",
      "type": "function"
    },
    {
      "inputs": [
        {
          "internalType": "bytes32",
          "name": "",
          "type": "bytes32"
        }
      ],
      "name": "processes",
      "outputs": [
        {
          "internalType": "enum IProcessRegistry.ProcessStatus",
          "name": "status",
          "type": "uint8"
        },
        {
          "internalType": "address",
          "name": "organizationId",
          "type": "address"
        },
        {
          "components": [
            {
              "internalType": "uint256",
              "name": "x",
              "type": "uint256"
            },
            {
              "internalType": "uint256",
              "name": "y",
              "type": "uint256"
            }
          ],
          "internalType": "struct IProcessRegistry.EncryptionKey",
          "name": "encryptionKey",
          "type": "tuple"
        },
        {
          "internalType": "uint256",
          "name": "latestStateRoot",
          "type": "uint256"
        },
        {
          "internalType": "uint256",
          "name": "startTime",
          "type": "uint256"
        },
        {
          "internalType": "uint256",
          "name": "duration",
          "type": "uint256"
        },
        {
          "internalType": "uint256",
          "name": "voteCount",
          "type": "uint256"
        },
        {
          "internalType": "uint256",
          "name": "voteOverwriteCount",
          "type": "uint256"
        },
        {
          "internalType": "string",
          "name": "metadataURI",
          "type": "string"
        },
        {
          "components": [
            {
              "internalType": "bool",
              "name": "costFromWeight",
              "type": "bool"
            },
            {
              "internalType": "bool",
              "name": "forceUniqueness",
              "type": "bool"
            },
            {
              "internalType": "uint8",
              "name": "maxCount",
              "type": "uint8"
            },
            {
              "internalType": "uint8",
              "name": "costExponent",
              "type": "uint8"
            },
            {
              "internalType": "uint256",
              "name": "maxValue",
              "type": "uint256"
            },
            {
              "internalType": "uint256",
              "name": "minValue",
              "type": "uint256"
            },
            {
              "internalType": "uint256",
              "name": "maxTotalCost",
              "type": "uint256"
            },
            {
              "internalType": "uint256",
              "name": "minTotalCost",
              "type": "uint256"
            }
          ],
          "internalType": "struct IProcessRegistry.BallotMode",
          "name": "ballotMode",
          "type": "tuple"
        },
        {
          "components": [
            {
              "internalType": "enum IProcessRegistry.CensusOrigin",
              "name": "censusOrigin",
              "type": "uint8"
            },
            {
              "internalType": "uint256",
              "name": "maxVotes",
              "type": "uint256"
            },
            {
              "internalType": "bytes32",
              "name": "censusRoot",
              "type": "bytes32"
            },
            {
              "internalType": "string",
              "name": "censusURI",
              "type": "string"
            }
          ],
          "internalType": "struct IProcessRegistry.Census",
          "name": "census",
          "type": "tuple"
        }
      ],
      "stateMutability": "view",
      "type": "function"
    },
    {
      "inputs": [],
      "name": "rVerifier",
      "outputs": [
        {
          "internalType": "address",
          "name": "",
          "type": "address"
        }
      ],
      "stateMutability": "view",
      "type": "function"
    },
    {
      "inputs": [
        {
          "internalType": "bytes32",
          "name": "processId",
          "type": "bytes32"
        },
        {
          "components": [
            {
              "internalType": "enum IProcessRegistry.CensusOrigin",
              "name": "censusOrigin",
              "type": "uint8"
            },
            {
              "internalType": "uint256",
              "name": "maxVotes",
              "type": "uint256"
            },
            {
              "internalType": "bytes32",
              "name": "censusRoot",
              "type": "bytes32"
            },
            {
              "internalType": "string",
              "name": "censusURI",
              "type": "string"
            }
          ],
          "internalType": "struct IProcessRegistry.Census",
          "name": "census",
          "type": "tuple"
        }
      ],
      "name": "setProcessCensus",
      "outputs": [],
      "stateMutability": "nonpayable",
      "type": "function"
    },
    {
      "inputs": [
        {
          "internalType": "bytes32",
          "name": "processId",
          "type": "bytes32"
        },
        {
          "internalType": "uint256",
          "name": "_duration",
          "type": "uint256"
        }
      ],
      "name": "setProcessDuration",
      "outputs": [],
      "stateMutability": "nonpayable",
      "type": "function"
    },
    {
      "inputs": [
        {
          "internalType": "bytes32",
          "name": "processId",
          "type": "bytes32"
        },
        {
          "internalType": "bytes",
          "name": "proof",
          "type": "bytes"
        },
        {
          "internalType": "bytes",
          "name": "input",
          "type": "bytes"
        }
      ],
      "name": "setProcessResults",
      "outputs": [],
      "stateMutability": "nonpayable",
      "type": "function"
    },
    {
      "inputs": [
        {
          "internalType": "bytes32",
          "name": "processId",
          "type": "bytes32"
        },
        {
          "internalType": "enum IProcessRegistry.ProcessStatus",
          "name": "newStatus",
          "type": "uint8"
        }
      ],
      "name": "setProcessStatus",
      "outputs": [],
      "stateMutability": "nonpayable",
      "type": "function"
    },
    {
      "inputs": [],
      "name": "stVerifier",
      "outputs": [
        {
          "internalType": "address",
          "name": "",
          "type": "address"
        }
      ],
      "stateMutability": "view",
      "type": "function"
    },
    {
      "inputs": [
        {
          "internalType": "bytes32",
          "name": "processId",
          "type": "bytes32"
        },
        {
          "internalType": "bytes",
          "name": "proof",
          "type": "bytes"
        },
        {
          "internalType": "bytes",
          "name": "input",
          "type": "bytes"
        }
      ],
      "name": "submitStateTransition",
      "outputs": [],
      "stateMutability": "nonpayable",
      "type": "function"
    }
  ],
  "bytecode": "0x608060405234801561001057600080fd5b5060405161258938038061258983398101604081905261002f916100b1565b600261003b8582610238565b50600180546001600160a01b039485166001600160a01b031991821617909155600380549385169382169390931790925560048054919093169116179055506102f6565b634e487b7160e01b600052604160045260246000fd5b80516001600160a01b03811681146100ac57600080fd5b919050565b600080600080608085870312156100c757600080fd5b84516001600160401b038111156100dd57600080fd5b8501601f810187136100ee57600080fd5b80516001600160401b038111156101075761010761007f565b604051601f8201601f19908116603f011681016001600160401b03811182821017156101355761013561007f565b60405281815282820160200189101561014d57600080fd5b60005b8281101561016c57602081850181015183830182015201610150565b5060006020838301015280965050505061018860208601610095565b925061019660408601610095565b91506101a460608601610095565b905092959194509250565b600181811c908216806101c357607f821691505b6020821081036101e357634e487b7160e01b600052602260045260246000fd5b50919050565b601f82111561023357806000526020600020601f840160051c810160208510156102105750805b601f840160051c820191505b81811015610230576000815560010161021c565b50505b505050565b81516001600160401b038111156102515761025161007f565b6102658161025f84546101af565b846101e9565b6020601f82116001811461029957600083156102815750848201515b600019600385901b1c1916600184901b178455610230565b600084815260208120601f198516915b828110156102c957878501518255602094850194600190920191016102a9565b50848210156102e75786840151600019600387901b60f8161c191681555b50505050600190811b01905550565b612284806103056000396000f3fe608060405234801561001057600080fd5b506004361061010b5760003560e01c806392bc2669116100a2578063adc879e911610071578063adc879e91461024f578063b79938e914610264578063c718c01f14610277578063d71d072e1461028a578063f9aa44991461029d57600080fd5b806392bc2669146101f6578063992bc45b146102095780639c18deaf14610229578063a5b110de1461023c57600080fd5b806356a6f1e2116100de57806356a6f1e21461019a5780636bae04ea146101af57806372c628ef146101c2578063848df540146101ca57600080fd5b806302cc919a146101105780630535fece1461012f57806309706392146101595780634c0acc5614610184575b600080fd5b610118600981565b60405160ff90911681526020015b60405180910390f35b61014261013d3660046116d5565b6102a5565b6040516101269b9a9998979695949392919061180b565b60035461016c906001600160a01b031681565b6040516001600160a01b039091168152602001610126565b61018c6104e7565b604051908152602001610126565b6101ad6101a83660046118ba565b61055a565b005b6101ad6101bd3660046118fe565b610729565b610118600481565b6001546101e190600160a01b900463ffffffff1681565b60405163ffffffff9091168152602001610126565b6101ad6102043660046119ca565b610956565b61021c6102173660046116d5565b610cb1565b6040516101269190611aed565b60045461016c906001600160a01b031681565b6101ad61024a366004611be1565b610fb4565b610257611189565b6040516101269190611c60565b60015461016c906001600160a01b031681565b6101ad610285366004611c7a565b611217565b6101ad610298366004611be1565b611397565b61018c61152e565b6000602081815291815260409081902080548251808401909352600182015483526002820154938301939093526003810154600582015460068301546007840154600885015460098601805460ff8a169961010090046001600160a01b03169897919061031190611c9c565b80601f016020809104026020016040519081016040528092919081815260200182805461033d90611c9c565b801561038a5780601f1061035f5761010080835404028352916020019161038a565b820191906000526020600020905b81548152906001019060200180831161036d57829003601f168201915b5050604080516101008082018352600a88015460ff808216151584529181048216151560208401526201000081048216838501526301000000900481166060830152600b880154608080840191909152600c89015460a0840152600d89015460c0840152600e89015460e08401528351908101909352600f88018054979892979296509294509192508391166009811115610427576104276116ee565b6009811115610438576104386116ee565b8152602001600182015481526020016002820154815260200160038201805461046090611c9c565b80601f016020809104026020016040519081016040528092919081815260200182805461048c90611c9c565b80156104d95780601f106104ae576101008083540402835291602001916104d9565b820191906000526020600020905b8154815290600101906020018083116104bc57829003601f168201915b50505050508152505090508b565b6003546040805163233ace1160e01b815290516000926001600160a01b03169163233ace119160048083019260209291908290030181865afa158015610531573d6000803e3d6000fd5b505050506040513d601f19601f820116820180604052508101906105559190611cd0565b905090565b6000828152602081905260409020805461010090046001600160a01b03168061059657604051634d36eb6960e01b815260040160405180910390fd5b815460ff168060048111156105ad576105ad6116ee565b8460048111156105bf576105bf6116ee565b14806105de5750600484818111156105d9576105d96116ee565b60ff16115b80610618575060008160048111156105f8576105f86116ee565b1415801561061857506003816004811115610615576106156116ee565b14155b15610636576040516307a92f1960e51b815260040160405180910390fd5b60015460405163c1af6e0360e01b81526001600160a01b0384811660048301523360248301529091169063c1af6e0390604401602060405180830381865afa158015610686573d6000803e3d6000fd5b505050506040513d601f19601f820116820180604052508101906106aa9190611cfa565b6106c75760405163f8b857d360e01b815260040160405180910390fd5b82548490849060ff191660018360048111156106e5576106e56116ee565b0217905550847fac0c4085a30bc70d0d8893ee5d6466ac9c5f03e27fd7292dcef128a610e7c1908560405161071a9190611d17565b60405180910390a25050505050565b6107366060820182611d2b565b90506000036107585760405163111127cb60e01b815260040160405180910390fd5b604081013560000361077d5760405163111127cb60e01b815260040160405180910390fd5b6000828152602081905260409020805461010090046001600160a01b0316806107b957604051634d36eb6960e01b815260040160405180910390fd5b60015460405163c1af6e0360e01b81526001600160a01b0383811660048301523360248301529091169063c1af6e0390604401602060405180830381865afa158015610809573d6000803e3d6000fd5b505050506040513d601f19601f8201168201806040525081019061082d9190611cfa565b61084a5760405163f8b857d360e01b815260040160405180910390fd5b6010820154602084013510156108735760405163111127cb60e01b815260040160405180910390fd5b6000825460ff16600481111561088b5761088b6116ee565b141580156108af57506003825460ff1660048111156108ac576108ac6116ee565b14155b156108cd576040516307a92f1960e51b815260040160405180910390fd5b60208301356010830155604083013560118301556108ee6060840184611d2b565b60128401916108fe919083611dd7565b50837f35947a8913e2156f19b018078c9f0667e49cb3dc24af3434a4d0b16b82675b1b60408501356109336060870187611d2b565b87602001356040516109489493929190611ec0565b60405180910390a250505050565b60015460405163c1af6e0360e01b81526001600160a01b0386811660048301523360248301529091169063c1af6e0390604401602060405180830381865afa1580156109a6573d6000803e3d6000fd5b505050506040513d601f19601f820116820180604052508101906109ca9190611cfa565b6109e75760405163f8b857d360e01b815260040160405180910390fd5b6000838152602081905260409020805461010090046001600160a01b031615610a2357604051635040c4d360e11b815260040160405180910390fd5b610a3360608a0160408b01611efa565b60ff16600003610a565760405163ac38930b60e01b815260040160405180910390fd5b610a6660608a0160408b01611efa565b60ff16896080013511610a8c5760405163b1911d8b60e01b815260040160405180910390fd5b60048c81811115610a9f57610a9f6116ee565b60ff161180610add575060008c6004811115610abd57610abd6116ee565b14158015610add575060038c6004811115610ada57610ada6116ee565b14155b15610afb576040516307a92f1960e51b815260040160405180910390fd5b4260008c9003610b0957809b505b808c1015610b2a57604051632ca4094f60e21b815260040160405180910390fd5b80610b358c8e611f2d565b11610b5357604051637616640160e01b815260040160405180910390fd5b6009610b6260208b018b611f4d565b6009811115610b7357610b736116ee565b60ff161115610b955760405163111127cb60e01b815260040160405180910390fd5b81548d90839060ff19166001836004811115610bb357610bb36116ee565b0217905550600582018c9055600682018b90558154610100600160a81b0319166101006001600160a01b0388160217825583356001830155602084013560028301556003820183905560098201610c0b888a83611dd7565b5089600a8301610c1b8282611f84565b50899050600f8301610c2d8282612046565b505060018054600160a01b900463ffffffff16906014610c4c836120de565b91906101000a81548163ffffffff021916908363ffffffff16021790555050336001600160a01b0316857fada6f87a2a16a0c9c169ca36754c5f33f7c1a973b575d068f888a549ed4faefa60405160405180910390a350505050505050505050505050565b610cb9611583565b60008281526020819052604090819020815161018081019092528054829060ff166004811115610ceb57610ceb6116ee565b6004811115610cfc57610cfc6116ee565b8152815461010090046001600160a01b03166020808301919091526040805180820182526001850154815260028501548184015281840152600384015460608401526004840180548251818502810185019093528083526080909401939192909190830182828015610d8d57602002820191906000526020600020905b815481526020019060010190808311610d79575b5050505050815260200160058201548152602001600682015481526020016007820154815260200160088201548152602001600982018054610dce90611c9c565b80601f0160208091040260200160405190810160405280929190818152602001828054610dfa90611c9c565b8015610e475780601f10610e1c57610100808354040283529160200191610e47565b820191906000526020600020905b815481529060010190602001808311610e2a57829003601f168201915b5050509183525050604080516101008082018352600a85015460ff8082161515845291810482161515602084810191909152620100008204831684860152630100000090910482166060840152600b860154608080850191909152600c87015460a0850152600d87015460c0850152600e87015460e08501529085019290925282519182018352600f85018054939094019391928391166009811115610eef57610eef6116ee565b6009811115610f0057610f006116ee565b81526020016001820154815260200160028201548152602001600382018054610f2890611c9c565b80601f0160208091040260200160405190810160405280929190818152602001828054610f5490611c9c565b8015610fa15780601f10610f7657610100808354040283529160200191610fa1565b820191906000526020600020905b815481529060010190602001808311610f8457829003601f168201915b5050509190925250505090525092915050565b6000858152602081905260409020805461010090046001600160a01b0316610fef57604051634d36eb6960e01b815260040160405180910390fd5b60048054604051635c73957b60e11b81526001600160a01b039091169163b8e72af69161102491899189918991899101612103565b60006040518083038186803b15801561103c57600080fd5b505afa158015611050573d6000803e3d6000fd5b506000925061106491505083850185612166565b600383015481519192501461108c57604051630b6fac0360e41b815260040160405180910390fd5b600061109a600160096121e5565b67ffffffffffffffff8111156110b2576110b2611d72565b6040519080825280602002602001820160405280156110db578160200160208202803683370190505b50905060015b6009811015611130578281600981106110fc576110fc6121cf565b60200201518261110d6001846121e5565b8151811061111d5761111d6121cf565b60209081029190910101526001016110e1565b5080516111469060048501906020840190611675565b50877fa21d6aca26cc870bcd3da1cc0d0b0f22572550a7d04fac698fc08b67b92c43528260405161117791906121f8565b60405180910390a25050505050505050565b6002805461119690611c9c565b80601f01602080910402602001604051908101604052809291908181526020018280546111c290611c9c565b801561120f5780601f106111e45761010080835404028352916020019161120f565b820191906000526020600020905b8154815290600101906020018083116111f257829003601f168201915b505050505081565b42811161123757604051637616640160e01b815260040160405180910390fd5b6000828152602081905260409020805461010090046001600160a01b03168061127357604051634d36eb6960e01b815260040160405180910390fd5b60015460405163c1af6e0360e01b81526001600160a01b0383811660048301523360248301529091169063c1af6e0390604401602060405180830381865afa1580156112c3573d6000803e3d6000fd5b505050506040513d601f19601f820116820180604052508101906112e79190611cfa565b6113045760405163f8b857d360e01b815260040160405180910390fd5b6000825460ff16600481111561131c5761131c6116ee565b1415801561134057506003825460ff16600481111561133d5761133d6116ee565b14155b1561135e576040516307a92f1960e51b815260040160405180910390fd5b6006820183905560405183815284907f0f759826327c668a220d576485ac38ddc4f83fbc414b984c00e79f669b649f4690602001610948565b6000858152602081905260409020805461010090046001600160a01b03166113d257604051634d36eb6960e01b815260040160405180910390fd5b6000815460ff1660048111156113ea576113ea6116ee565b14611408576040516307a92f1960e51b815260040160405180910390fd5b600354604051635c73957b60e11b81526001600160a01b039091169063b8e72af69061143e908890889088908890600401612103565b60006040518083038186803b15801561145657600080fd5b505afa15801561146a573d6000803e3d6000fd5b506000925061147e9150508385018561220b565b60038301548151919250146114a657604051630b6fac0360e41b815260040160405180910390fd5b6020810151600383015560408101516007830180546000906114c9908490611f2d565b909155505060608101516008830180546000906114e7908490611f2d565b909155505060208082015160405190815288917fd25cbd3fa66107efb1230dc4f49f939d7b6b57ba10ab0ec87ba39040c075cf20910160405180910390a250505050505050565b6000600460009054906101000a90046001600160a01b03166001600160a01b031663233ace116040518163ffffffff1660e01b8152600401602060405180830381865afa158015610531573d6000803e3d6000fd5b604080516101808101909152806000815260200160006001600160a01b031681526020016115c4604051806040016040528060008152602001600081525090565b81526020016000815260200160608152602001600081526020016000815260200160008152602001600081526020016060815260200161164c604051806101000160405280600015158152602001600015158152602001600060ff168152602001600060ff168152602001600081526020016000815260200160008152602001600081525090565b815260408051608081018252600080825260208281018290529282015260608082015291015290565b8280548282559060005260206000209081019282156116b0579160200282015b828111156116b0578251825591602001919060010190611695565b506116bc9291506116c0565b5090565b5b808211156116bc57600081556001016116c1565b6000602082840312156116e757600080fd5b5035919050565b634e487b7160e01b600052602160045260246000fd5b60058110611714576117146116ee565b9052565b6000815180845260005b8181101561173e57602081850181015186830182015201611722565b506000602082860101526020601f19601f83011685010191505092915050565b80511515825260208101511515602083015260ff60408201511660408301526060810151611791606084018260ff169052565b506080810151608083015260a081015160a083015260c081015160c083015260e081015160e08301525050565b60008151600a81106117d2576117d26116ee565b8084525060208201516020840152604082015160408401526060820151608060608501526118036080850182611718565b949350505050565b611815818d611704565b6001600160a01b038b16602082015261183b604082018b80518252602090810151910152565b8860808201528760a08201528660c08201528560e0820152846101008201526102606101208201526000611873610260830186611718565b61188161014084018661175e565b82810361024084015261189481856117be565b9e9d5050505050505050505050505050565b8035600581106118b557600080fd5b919050565b600080604083850312156118cd57600080fd5b823591506118dd602084016118a6565b90509250929050565b6000608082840312156118f857600080fd5b50919050565b6000806040838503121561191157600080fd5b82359150602083013567ffffffffffffffff81111561192f57600080fd5b61193b858286016118e6565b9150509250929050565b600061010082840312156118f857600080fd5b60008083601f84011261196a57600080fd5b50813567ffffffffffffffff81111561198257600080fd5b60208301915083602082850101111561199a57600080fd5b9250929050565b80356001600160a01b03811681146118b557600080fd5b6000604082840312156118f857600080fd5b60008060008060008060008060008060006102408c8e0312156119ec57600080fd5b6119f58c6118a6565b9a5060208c0135995060408c01359850611a128d60608e01611945565b97506101608c013567ffffffffffffffff811115611a2f57600080fd5b611a3b8e828f016118e6565b9750506101808c013567ffffffffffffffff811115611a5957600080fd5b611a658e828f01611958565b9097509550611a7990506101a08d016119a1565b93506101c08c01359250611a918d6101e08e016119b8565b915060006102208d01359050809150509295989b509295989b9093969950565b600081518084526020840193506020830160005b82811015611ae3578151865260209586019590910190600101611ac5565b5093949350505050565b60208152611aff602082018351611704565b60006020830151611b1b60408401826001600160a01b03169052565b506040830151805160608401526020810151608084015250606083015160a0830152608083015161028060c0840152611b586102a0840182611ab1565b905060a084015160e084015260c084015161010084015260e0840151610120840152610100840151610140840152610120840151601f1984830301610160850152611ba38282611718565b915050610140840151611bba61018085018261175e565b50610160840151838203601f1901610280850152611bd882826117be565b95945050505050565b600080600080600060608688031215611bf957600080fd5b85359450602086013567ffffffffffffffff811115611c1757600080fd5b611c2388828901611958565b909550935050604086013567ffffffffffffffff811115611c4357600080fd5b611c4f88828901611958565b969995985093965092949392505050565b602081526000611c736020830184611718565b9392505050565b60008060408385031215611c8d57600080fd5b50508035926020909101359150565b600181811c90821680611cb057607f821691505b6020821081036118f857634e487b7160e01b600052602260045260246000fd5b600060208284031215611ce257600080fd5b5051919050565b8015158114611cf757600080fd5b50565b600060208284031215611d0c57600080fd5b8151611c7381611ce9565b60208101611d258284611704565b92915050565b6000808335601e19843603018112611d4257600080fd5b83018035915067ffffffffffffffff821115611d5d57600080fd5b60200191503681900382131561199a57600080fd5b634e487b7160e01b600052604160045260246000fd5b601f821115611dd257806000526020600020601f840160051c81016020851015611daf5750805b601f840160051c820191505b81811015611dcf5760008155600101611dbb565b50505b505050565b67ffffffffffffffff831115611def57611def611d72565b611e0383611dfd8354611c9c565b83611d88565b6000601f841160018114611e375760008515611e1f5750838201355b600019600387901b1c1916600186901b178355611dcf565b600083815260209020601f19861690835b82811015611e685786850135825560209485019460019092019101611e48565b5086821015611e855760001960f88860031b161c19848701351681555b505060018560011b0183555050505050565b81835281816020850137506000828201602090810191909152601f909101601f19169091010190565b848152606060208201526000611eda606083018587611e97565b905082604083015295945050505050565b60ff81168114611cf757600080fd5b600060208284031215611f0c57600080fd5b8135611c7381611eeb565b634e487b7160e01b600052601160045260246000fd5b80820180821115611d2557611d25611f17565b600a8110611cf757600080fd5b600060208284031215611f5f57600080fd5b8135611c7381611f40565b60008135611d2581611ce9565b60008135611d2581611eeb565b8135611f8f81611ce9565b815490151560ff1660ff1991909116178155611fca611fb060208401611f6a565b82805461ff00191691151560081b61ff0016919091179055565b611ff1611fd960408401611f77565b825462ff0000191660109190911b62ff000016178255565b61201a61200060608401611f77565b825463ff000000191660189190911b63ff00000016178255565b6080820135600182015560a0820135600282015560c0820135600382015560e090910135600490910155565b813561205181611f40565b600a8110612061576120616116ee565b815460ff191660ff9190911617815560208201356001820155604082013560028201556060820135601e193684900301811261209c57600080fd5b8201803567ffffffffffffffff8111156120b557600080fd5b6020820191508036038213156120ca57600080fd5b6120d8818360038601611dd7565b50505050565b600063ffffffff821663ffffffff81036120fa576120fa611f17565b60010192915050565b604081526000612117604083018688611e97565b828103602084015261212a818587611e97565b979650505050505050565b604051601f8201601f1916810167ffffffffffffffff8111828210171561215e5761215e611d72565b604052919050565b6000610120828403121561217957600080fd5b600083601f840112612189578081fd5b8061012061219681612135565b92508291508401858111156121aa57600080fd5b845b818110156121c45780358452602093840193016121ac565b509095945050505050565b634e487b7160e01b600052603260045260246000fd5b81810381811115611d2557611d25611f17565b602081526000611c736020830184611ab1565b60006080828403121561221d57600080fd5b600083601f84011261222d578081fd5b806122386080612135565b905080915060808401858111156121aa57600080fdfea2646970667358221220cf11078e162e29af48a6fd5601d16be44a28d44b949029ab3fd53ba6a482c6d464736f6c634300081c0033",
  "linkReferences": {},
  "deployedLinkReferences": {}
}