{
  "_format": "hh-sol-artifact-1",
  "contractName": "ProcessRegistry",
  "sourceName": "src/non-proxy/ProcessRegistry.sol",
  "abi": [
    {
      "inputs": [
        {
          "internalType": "uint32",
          "name": "_chainID",
          "type": "uint32"
        },
        {
          "internalType": "address",
          "name": "_stVerifier",
          "type": "address"
        },
        {
          "internalType": "address",
          "name": "_rVerifier",
          "type": "address"
        }
      ],
      "stateMutability": "nonpayable",
      "type": "constructor"
    },
    {
      "inputs": [],
      "name": "CannotAcceptResult",
      "type": "error"
    },
    {
      "inputs": [],
      "name": "InvalidCensusOrigin",
      "type": "error"
    },
    {
      "inputs": [],
      "name": "InvalidCensusRoot",
      "type": "error"
    },
    {
      "inputs": [],
      "name": "InvalidCensusURI",
      "type": "error"
    },
    {
      "inputs": [],
      "name": "InvalidDuration",
      "type": "error"
    },
    {
      "inputs": [],
      "name": "InvalidMaxCount",
      "type": "error"
    },
    {
      "inputs": [],
      "name": "InvalidMaxTotalCost",
      "type": "error"
    },
    {
      "inputs": [],
      "name": "InvalidMaxValue",
      "type": "error"
    },
    {
      "inputs": [],
      "name": "InvalidMaxVotes",
      "type": "error"
    },
    {
      "inputs": [],
      "name": "InvalidMinTotalCost",
      "type": "error"
    },
    {
      "inputs": [],
      "name": "InvalidMinValue",
      "type": "error"
    },
    {
      "inputs": [],
      "name": "InvalidProcessId",
      "type": "error"
    },
    {
      "inputs": [],
      "name": "InvalidStartTime",
      "type": "error"
    },
    {
      "inputs": [],
      "name": "InvalidStateRoot",
      "type": "error"
    },
    {
      "inputs": [],
      "name": "InvalidStatus",
      "type": "error"
    },
    {
      "inputs": [],
      "name": "InvalidTimeBounds",
      "type": "error"
    },
    {
      "inputs": [],
      "name": "InvalidTotalCostBounds",
      "type": "error"
    },
    {
      "inputs": [],
      "name": "InvalidUniqueValues",
      "type": "error"
    },
    {
      "inputs": [],
      "name": "ProcessAlreadyExists",
      "type": "error"
    },
    {
      "inputs": [],
      "name": "ProcessNotEnded",
      "type": "error"
    },
    {
      "inputs": [],
      "name": "ProcessNotFound",
      "type": "error"
    },
    {
      "inputs": [],
      "name": "ProofInvalid",
      "type": "error"
    },
    {
      "inputs": [],
      "name": "Unauthorized",
      "type": "error"
    },
    {
      "anonymous": false,
      "inputs": [
        {
          "indexed": true,
          "internalType": "bytes32",
          "name": "processId",
          "type": "bytes32"
        },
        {
          "indexed": false,
          "internalType": "bytes32",
          "name": "censusRoot",
          "type": "bytes32"
        },
        {
          "indexed": false,
          "internalType": "string",
          "name": "censusURI",
          "type": "string"
        },
        {
          "indexed": false,
          "internalType": "uint256",
          "name": "maxVotes",
          "type": "uint256"
        }
      ],
      "name": "CensusUpdated",
      "type": "event"
    },
    {
      "anonymous": false,
      "inputs": [
        {
          "indexed": true,
          "internalType": "bytes32",
          "name": "processId",
          "type": "bytes32"
        },
        {
          "indexed": true,
          "internalType": "address",
          "name": "creator",
          "type": "address"
        }
      ],
      "name": "ProcessCreated",
      "type": "event"
    },
    {
      "anonymous": false,
      "inputs": [
        {
          "indexed": true,
          "internalType": "bytes32",
          "name": "processId",
          "type": "bytes32"
        },
        {
          "indexed": false,
          "internalType": "uint256",
          "name": "duration",
          "type": "uint256"
        }
      ],
      "name": "ProcessDurationChanged",
      "type": "event"
    },
    {
      "anonymous": false,
      "inputs": [
        {
          "indexed": true,
          "internalType": "bytes32",
          "name": "processId",
          "type": "bytes32"
        },
        {
          "indexed": true,
          "internalType": "address",
          "name": "sender",
          "type": "address"
        },
        {
          "indexed": false,
          "internalType": "uint256[]",
          "name": "result",
          "type": "uint256[]"
        }
      ],
      "name": "ProcessResultsSet",
      "type": "event"
    },
    {
      "anonymous": false,
      "inputs": [
        {
          "indexed": true,
          "internalType": "bytes32",
          "name": "processId",
          "type": "bytes32"
        },
        {
          "indexed": true,
          "internalType": "address",
          "name": "sender",
          "type": "address"
        },
        {
          "indexed": false,
          "internalType": "uint256",
          "name": "newStateRoot",
          "type": "uint256"
        }
      ],
      "name": "ProcessStateRootUpdated",
      "type": "event"
    },
    {
      "anonymous": false,
      "inputs": [
        {
          "indexed": true,
          "internalType": "bytes32",
          "name": "processId",
          "type": "bytes32"
        },
        {
          "indexed": false,
          "internalType": "enum IProcessRegistry.ProcessStatus",
          "name": "oldStatus",
          "type": "uint8"
        },
        {
          "indexed": false,
          "internalType": "enum IProcessRegistry.ProcessStatus",
          "name": "newStatus",
          "type": "uint8"
        }
      ],
      "name": "ProcessStatusChanged",
      "type": "event"
    },
    {
      "inputs": [],
      "name": "MAX_CENSUS_ORIGIN",
      "outputs": [
        {
          "internalType": "uint8",
          "name": "",
          "type": "uint8"
        }
      ],
      "stateMutability": "view",
      "type": "function"
    },
    {
      "inputs": [],
      "name": "MAX_STATUS",
      "outputs": [
        {
          "internalType": "uint8",
          "name": "",
          "type": "uint8"
        }
      ],
      "stateMutability": "view",
      "type": "function"
    },
    {
      "inputs": [],
      "name": "chainID",
      "outputs": [
        {
          "internalType": "uint32",
          "name": "",
          "type": "uint32"
        }
      ],
      "stateMutability": "view",
      "type": "function"
    },
    {
      "inputs": [],
      "name": "getNextProcessId",
      "outputs": [
        {
          "internalType": "bytes32",
          "name": "",
          "type": "bytes32"
        }
      ],
      "stateMutability": "view",
      "type": "function"
    },
    {
      "inputs": [
        {
          "internalType": "bytes32",
          "name": "processId",
          "type": "bytes32"
        }
      ],
      "name": "getProcess",
      "outputs": [
        {
          "components": [
            {
              "internalType": "enum IProcessRegistry.ProcessStatus",
              "name": "status",
              "type": "uint8"
            },
            {
              "internalType": "address",
              "name": "organizationId",
              "type": "address"
            },
            {
              "components": [
                {
                  "internalType": "uint256",
                  "name": "x",
                  "type": "uint256"
                },
                {
                  "internalType": "uint256",
                  "name": "y",
                  "type": "uint256"
                }
              ],
              "internalType": "struct IProcessRegistry.EncryptionKey",
              "name": "encryptionKey",
              "type": "tuple"
            },
            {
              "internalType": "uint256",
              "name": "latestStateRoot",
              "type": "uint256"
            },
            {
              "internalType": "uint256[]",
              "name": "result",
              "type": "uint256[]"
            },
            {
              "internalType": "uint256",
              "name": "startTime",
              "type": "uint256"
            },
            {
              "internalType": "uint256",
              "name": "duration",
              "type": "uint256"
            },
            {
              "internalType": "uint256",
              "name": "voteCount",
              "type": "uint256"
            },
            {
              "internalType": "uint256",
              "name": "voteOverwriteCount",
              "type": "uint256"
            },
            {
              "internalType": "string",
              "name": "metadataURI",
              "type": "string"
            },
            {
              "components": [
                {
                  "internalType": "bool",
                  "name": "costFromWeight",
                  "type": "bool"
                },
                {
                  "internalType": "bool",
                  "name": "forceUniqueness",
                  "type": "bool"
                },
                {
                  "internalType": "uint8",
                  "name": "maxCount",
                  "type": "uint8"
                },
                {
                  "internalType": "uint8",
                  "name": "costExponent",
                  "type": "uint8"
                },
                {
                  "internalType": "uint256",
                  "name": "maxValue",
                  "type": "uint256"
                },
                {
                  "internalType": "uint256",
                  "name": "minValue",
                  "type": "uint256"
                },
                {
                  "internalType": "uint256",
                  "name": "maxTotalCost",
                  "type": "uint256"
                },
                {
                  "internalType": "uint256",
                  "name": "minTotalCost",
                  "type": "uint256"
                }
              ],
              "internalType": "struct IProcessRegistry.BallotMode",
              "name": "ballotMode",
              "type": "tuple"
            },
            {
              "components": [
                {
                  "internalType": "enum IProcessRegistry.CensusOrigin",
                  "name": "censusOrigin",
                  "type": "uint8"
                },
                {
                  "internalType": "uint256",
                  "name": "maxVotes",
                  "type": "uint256"
                },
                {
                  "internalType": "bytes32",
                  "name": "censusRoot",
                  "type": "bytes32"
                },
                {
                  "internalType": "string",
                  "name": "censusURI",
                  "type": "string"
                }
              ],
              "internalType": "struct IProcessRegistry.Census",
              "name": "census",
              "type": "tuple"
            }
          ],
          "internalType": "struct IProcessRegistry.Process",
          "name": "",
          "type": "tuple"
        }
      ],
      "stateMutability": "view",
      "type": "function"
    },
    {
      "inputs": [
        {
          "internalType": "bytes32",
          "name": "processId",
          "type": "bytes32"
        }
      ],
      "name": "getProcessEndTime",
      "outputs": [
        {
          "internalType": "uint256",
          "name": "",
          "type": "uint256"
        }
      ],
      "stateMutability": "view",
      "type": "function"
    },
    {
      "inputs": [],
      "name": "getRVerifierVKeyHash",
      "outputs": [
        {
          "internalType": "bytes32",
          "name": "",
          "type": "bytes32"
        }
      ],
      "stateMutability": "view",
      "type": "function"
    },
    {
      "inputs": [],
      "name": "getSTVerifierVKeyHash",
      "outputs": [
        {
          "internalType": "bytes32",
          "name": "",
          "type": "bytes32"
        }
      ],
      "stateMutability": "view",
      "type": "function"
    },
    {
      "inputs": [
        {
          "internalType": "enum IProcessRegistry.ProcessStatus",
          "name": "status",
          "type": "uint8"
        },
        {
          "internalType": "uint256",
          "name": "startTime",
          "type": "uint256"
        },
        {
          "internalType": "uint256",
          "name": "duration",
          "type": "uint256"
        },
        {
          "components": [
            {
              "internalType": "bool",
              "name": "costFromWeight",
              "type": "bool"
            },
            {
              "internalType": "bool",
              "name": "forceUniqueness",
              "type": "bool"
            },
            {
              "internalType": "uint8",
              "name": "maxCount",
              "type": "uint8"
            },
            {
              "internalType": "uint8",
              "name": "costExponent",
              "type": "uint8"
            },
            {
              "internalType": "uint256",
              "name": "maxValue",
              "type": "uint256"
            },
            {
              "internalType": "uint256",
              "name": "minValue",
              "type": "uint256"
            },
            {
              "internalType": "uint256",
              "name": "maxTotalCost",
              "type": "uint256"
            },
            {
              "internalType": "uint256",
              "name": "minTotalCost",
              "type": "uint256"
            }
          ],
          "internalType": "struct IProcessRegistry.BallotMode",
          "name": "ballotMode",
          "type": "tuple"
        },
        {
          "components": [
            {
              "internalType": "enum IProcessRegistry.CensusOrigin",
              "name": "censusOrigin",
              "type": "uint8"
            },
            {
              "internalType": "uint256",
              "name": "maxVotes",
              "type": "uint256"
            },
            {
              "internalType": "bytes32",
              "name": "censusRoot",
              "type": "bytes32"
            },
            {
              "internalType": "string",
              "name": "censusURI",
              "type": "string"
            }
          ],
          "internalType": "struct IProcessRegistry.Census",
          "name": "census",
          "type": "tuple"
        },
        {
          "internalType": "string",
          "name": "metadata",
          "type": "string"
        },
        {
          "components": [
            {
              "internalType": "uint256",
              "name": "x",
              "type": "uint256"
            },
            {
              "internalType": "uint256",
              "name": "y",
              "type": "uint256"
            }
          ],
          "internalType": "struct IProcessRegistry.EncryptionKey",
          "name": "encryptionKey",
          "type": "tuple"
        },
        {
          "internalType": "uint256",
          "name": "initStateRoot",
          "type": "uint256"
        }
      ],
      "name": "newProcess",
      "outputs": [
        {
          "internalType": "bytes32",
          "name": "",
          "type": "bytes32"
        }
      ],
      "stateMutability": "nonpayable",
      "type": "function"
    },
    {
      "inputs": [],
      "name": "processCount",
      "outputs": [
        {
          "internalType": "uint32",
          "name": "",
          "type": "uint32"
        }
      ],
      "stateMutability": "view",
      "type": "function"
    },
    {
      "inputs": [
        {
          "internalType": "address",
          "name": "",
          "type": "address"
        }
      ],
      "name": "processNonce",
      "outputs": [
        {
          "internalType": "uint64",
          "name": "",
          "type": "uint64"
        }
      ],
      "stateMutability": "view",
      "type": "function"
    },
    {
      "inputs": [
        {
          "internalType": "bytes32",
          "name": "",
          "type": "bytes32"
        }
      ],
      "name": "processes",
      "outputs": [
        {
          "internalType": "enum IProcessRegistry.ProcessStatus",
          "name": "status",
          "type": "uint8"
        },
        {
          "internalType": "address",
          "name": "organizationId",
          "type": "address"
        },
        {
          "components": [
            {
              "internalType": "uint256",
              "name": "x",
              "type": "uint256"
            },
            {
              "internalType": "uint256",
              "name": "y",
              "type": "uint256"
            }
          ],
          "internalType": "struct IProcessRegistry.EncryptionKey",
          "name": "encryptionKey",
          "type": "tuple"
        },
        {
          "internalType": "uint256",
          "name": "latestStateRoot",
          "type": "uint256"
        },
        {
          "internalType": "uint256",
          "name": "startTime",
          "type": "uint256"
        },
        {
          "internalType": "uint256",
          "name": "duration",
          "type": "uint256"
        },
        {
          "internalType": "uint256",
          "name": "voteCount",
          "type": "uint256"
        },
        {
          "internalType": "uint256",
          "name": "voteOverwriteCount",
          "type": "uint256"
        },
        {
          "internalType": "string",
          "name": "metadataURI",
          "type": "string"
        },
        {
          "components": [
            {
              "internalType": "bool",
              "name": "costFromWeight",
              "type": "bool"
            },
            {
              "internalType": "bool",
              "name": "forceUniqueness",
              "type": "bool"
            },
            {
              "internalType": "uint8",
              "name": "maxCount",
              "type": "uint8"
            },
            {
              "internalType": "uint8",
              "name": "costExponent",
              "type": "uint8"
            },
            {
              "internalType": "uint256",
              "name": "maxValue",
              "type": "uint256"
            },
            {
              "internalType": "uint256",
              "name": "minValue",
              "type": "uint256"
            },
            {
              "internalType": "uint256",
              "name": "maxTotalCost",
              "type": "uint256"
            },
            {
              "internalType": "uint256",
              "name": "minTotalCost",
              "type": "uint256"
            }
          ],
          "internalType": "struct IProcessRegistry.BallotMode",
          "name": "ballotMode",
          "type": "tuple"
        },
        {
          "components": [
            {
              "internalType": "enum IProcessRegistry.CensusOrigin",
              "name": "censusOrigin",
              "type": "uint8"
            },
            {
              "internalType": "uint256",
              "name": "maxVotes",
              "type": "uint256"
            },
            {
              "internalType": "bytes32",
              "name": "censusRoot",
              "type": "bytes32"
            },
            {
              "internalType": "string",
              "name": "censusURI",
              "type": "string"
            }
          ],
          "internalType": "struct IProcessRegistry.Census",
          "name": "census",
          "type": "tuple"
        }
      ],
      "stateMutability": "view",
      "type": "function"
    },
    {
      "inputs": [],
      "name": "rVerifier",
      "outputs": [
        {
          "internalType": "address",
          "name": "",
          "type": "address"
        }
      ],
      "stateMutability": "view",
      "type": "function"
    },
    {
      "inputs": [
        {
          "internalType": "bytes32",
          "name": "processId",
          "type": "bytes32"
        },
        {
          "components": [
            {
              "internalType": "enum IProcessRegistry.CensusOrigin",
              "name": "censusOrigin",
              "type": "uint8"
            },
            {
              "internalType": "uint256",
              "name": "maxVotes",
              "type": "uint256"
            },
            {
              "internalType": "bytes32",
              "name": "censusRoot",
              "type": "bytes32"
            },
            {
              "internalType": "string",
              "name": "censusURI",
              "type": "string"
            }
          ],
          "internalType": "struct IProcessRegistry.Census",
          "name": "census",
          "type": "tuple"
        }
      ],
      "name": "setProcessCensus",
      "outputs": [],
      "stateMutability": "nonpayable",
      "type": "function"
    },
    {
      "inputs": [
        {
          "internalType": "bytes32",
          "name": "processId",
          "type": "bytes32"
        },
        {
          "internalType": "uint256",
          "name": "_duration",
          "type": "uint256"
        }
      ],
      "name": "setProcessDuration",
      "outputs": [],
      "stateMutability": "nonpayable",
      "type": "function"
    },
    {
      "inputs": [
        {
          "internalType": "bytes32",
          "name": "processId",
          "type": "bytes32"
        },
        {
          "internalType": "bytes",
          "name": "proof",
          "type": "bytes"
        },
        {
          "internalType": "bytes",
          "name": "input",
          "type": "bytes"
        }
      ],
      "name": "setProcessResults",
      "outputs": [],
      "stateMutability": "nonpayable",
      "type": "function"
    },
    {
      "inputs": [
        {
          "internalType": "bytes32",
          "name": "processId",
          "type": "bytes32"
        },
        {
          "internalType": "enum IProcessRegistry.ProcessStatus",
          "name": "newStatus",
          "type": "uint8"
        }
      ],
      "name": "setProcessStatus",
      "outputs": [],
      "stateMutability": "nonpayable",
      "type": "function"
    },
    {
      "inputs": [],
      "name": "stVerifier",
      "outputs": [
        {
          "internalType": "address",
          "name": "",
          "type": "address"
        }
      ],
      "stateMutability": "view",
      "type": "function"
    },
    {
      "inputs": [
        {
          "internalType": "bytes32",
          "name": "processId",
          "type": "bytes32"
        },
        {
          "internalType": "bytes",
          "name": "proof",
          "type": "bytes"
        },
        {
          "internalType": "bytes",
          "name": "input",
          "type": "bytes"
        }
      ],
      "name": "submitStateTransition",
      "outputs": [],
      "stateMutability": "nonpayable",
      "type": "function"
    }
  ],
  "bytecode": "0x608060405234801561001057600080fd5b50604051612aac380380612aac83398101604081905261002f916100b3565b60028054600380546001600160a01b039485166001600160a01b031990911617905563ffffffff9094166401000000000263ffffffff60201b1992909316680100000000000000000291909116600160201b600160e01b031990931692909217179055610101565b80516001600160a01b03811681146100ae57600080fd5b919050565b6000806000606084860312156100c857600080fd5b835163ffffffff811681146100dc57600080fd5b92506100ea60208501610097565b91506100f860408501610097565b90509250925092565b61299c806101106000396000f3fe608060405234801561001057600080fd5b50600436106101215760003560e01c8063848df540116100ad578063adc879e911610071578063adc879e9146102b9578063c718c01f146102d1578063d71d072e146102e4578063ec9c7804146102f7578063f9aa4499146102ff57600080fd5b8063848df5401461023b578063992bc45b146102605780639c18deaf14610280578063a5b110de14610293578063a5f01e19146102a657600080fd5b80634c0acc56116100f45780634c0acc56146101c257806356a6f1e2146101ca57806362fa11fc146101df5780636bae04ea1461022057806372c628ef1461023357600080fd5b806302cc919a146101265780630535fece14610145578063097063921461016f5780633365133c146101a1575b600080fd5b61012e600981565b60405160ff90911681526020015b60405180910390f35b610158610153366004611dfd565b610307565b60405161013c9b9a99989796959493929190611f33565b60025461018990600160401b90046001600160a01b031681565b6040516001600160a01b03909116815260200161013c565b6101b46101af366004612054565b610549565b60405190815260200161013c565b6101b461070b565b6101dd6101d8366004612125565b610789565b005b6102086101ed366004612151565b6001602052600090815260409020546001600160401b031681565b6040516001600160401b03909116815260200161013c565b6101dd61022e36600461217a565b610940565b61012e600481565b60025461024b9063ffffffff1681565b60405163ffffffff909116815260200161013c565b61027361026e366004611dfd565b610bab565b60405161013c91906121fc565b600354610189906001600160a01b031681565b6101dd6102a13660046122f0565b610eae565b6101b46102b4366004611dfd565b61115c565b60025461024b90640100000000900463ffffffff1681565b6101dd6102df36600461236d565b611471565b6101dd6102f23660046122f0565b6115ee565b6101b46117de565b6101b4611815565b6000602081815291815260409081902080548251808401909352600182015483526002820154938301939093526003810154600582015460068301546007840154600885015460098601805460ff8a169961010090046001600160a01b0316989791906103739061238f565b80601f016020809104026020016040519081016040528092919081815260200182805461039f9061238f565b80156103ec5780601f106103c1576101008083540402835291602001916103ec565b820191906000526020600020905b8154815290600101906020018083116103cf57829003601f168201915b5050604080516101008082018352600a88015460ff808216151584529181048216151560208401526201000081048216838501526301000000900481166060830152600b880154608080840191909152600c89015460a0840152600d89015460c0840152600e89015460e08401528351908101909352600f8801805497989297929650929450919250839116600981111561048957610489611e16565b600981111561049a5761049a611e16565b815260200160018201548152602001600282015481526020016003820180546104c29061238f565b80601f01602080910402602001604051908101604052809291908181526020018280546104ee9061238f565b801561053b5780601f106105105761010080835404028352916020019161053b565b820191906000526020600020905b81548152906001019060200180831161051e57829003601f168201915b50505050508152505090508b565b600254336000818152600160205260408120549092839161058391640100000000900463ffffffff169084906001600160401b031661185f565b905061059481838e8e8e8e8e6118ef565b600081815260208190526040902080548d90829060ff191660018360048111156105c0576105c0611e16565b0217905550600581018c9055600681018b90558054610100600160a81b0319166101006001600160a01b0385160217815585356001820155602086013560028201556003810185905560098101610618888a83612428565b5089600a82016106288282612521565b50899050600f820161063a8282612636565b50506002805463ffffffff16906000610652836126e3565b825463ffffffff9182166101009390930a9283029190920219909116179055506001600160a01b038316600090815260016020526040812080546001600160401b03169161069f83612708565b91906101000a8154816001600160401b0302191690836001600160401b0316021790555050826001600160a01b0316827fada6f87a2a16a0c9c169ca36754c5f33f7c1a973b575d068f888a549ed4faefa60405160405180910390a3509b9a5050505050505050505050565b6000600260089054906101000a90046001600160a01b03166001600160a01b031663233ace116040518163ffffffff1660e01b8152600401602060405180830381865afa158015610760573d6000803e3d6000fd5b505050506040513d601f19601f82011682018060405250810190610784919061272a565b905090565b816107a75760405163cbf4a64560e01b815260040160405180910390fd5b600481818111156107ba576107ba611e16565b60ff1611156107dc576040516307a92f1960e51b815260040160405180910390fd5b6000828152602081905260409020805461010090046001600160a01b031661081757604051634d36eb6960e01b815260040160405180910390fd5b805461010090046001600160a01b03163314610845576040516282b42960e81b815260040160405180910390fd5b805460ff166108548184611b86565b610871576040516307a92f1960e51b815260040160405180910390fd5b81548390839060ff1916600183600481111561088f5761088f611e16565b021790555060018360048111156108a8576108a8611e16565b036109005760008260050154426108bf9190612743565b6006840181905560405181815290915085907f0f759826327c668a220d576485ac38ddc4f83fbc414b984c00e79f669b649f469060200160405180910390a2505b837f2f25f350b681441b5bb45430fbe61e78d0170cff4ad02cb0aa48a6427909aa8c8285604051610932929190612756565b60405180910390a250505050565b8161095e5760405163cbf4a64560e01b815260040160405180910390fd5b6000828152602081905260409020805461010090046001600160a01b031661099957604051634d36eb6960e01b815260040160405180910390fd5b805461010090046001600160a01b031633146109c7576040516282b42960e81b815260040160405180910390fd5b6109d46020830183612771565b60098111156109e5576109e5611e16565b600f82015460ff1660098111156109fe576109fe611e16565b14610a1c5760405163f37f7b5d60e01b815260040160405180910390fd5b601081015460208301351015610a4557604051634f9233a560e01b815260040160405180910390fd5b6040820135610a6757604051635e32eadd60e01b815260040160405180910390fd5b610a7460608301836125f0565b9050600003610a9657604051630f8b932160e11b815260040160405180910390fd5b6000815460ff166004811115610aae57610aae611e16565b14158015610ad257506003815460ff166004811115610acf57610acf611e16565b14155b15610af0576040516307a92f1960e51b815260040160405180910390fd5b4281600601548260050154610b05919061278e565b11610b235760405163e843c5eb60e01b815260040160405180910390fd5b6020820135601082015560408201356011820155610b4460608301836125f0565b6012830191610b54919083612428565b50827f35947a8913e2156f19b018078c9f0667e49cb3dc24af3434a4d0b16b82675b1b6040840135610b8960608601866125f0565b8660200135604051610b9e94939291906127ca565b60405180910390a2505050565b610bb3611cab565b60008281526020819052604090819020815161018081019092528054829060ff166004811115610be557610be5611e16565b6004811115610bf657610bf6611e16565b8152815461010090046001600160a01b03166020808301919091526040805180820182526001850154815260028501548184015281840152600384015460608401526004840180548251818502810185019093528083526080909401939192909190830182828015610c8757602002820191906000526020600020905b815481526020019060010190808311610c73575b5050505050815260200160058201548152602001600682015481526020016007820154815260200160088201548152602001600982018054610cc89061238f565b80601f0160208091040260200160405190810160405280929190818152602001828054610cf49061238f565b8015610d415780601f10610d1657610100808354040283529160200191610d41565b820191906000526020600020905b815481529060010190602001808311610d2457829003601f168201915b5050509183525050604080516101008082018352600a85015460ff8082161515845291810482161515602084810191909152620100008204831684860152630100000090910482166060840152600b860154608080850191909152600c87015460a0850152600d87015460c0850152600e87015460e08501529085019290925282519182018352600f85018054939094019391928391166009811115610de957610de9611e16565b6009811115610dfa57610dfa611e16565b81526020016001820154815260200160028201548152602001600382018054610e229061238f565b80601f0160208091040260200160405190810160405280929190818152602001828054610e4e9061238f565b8015610e9b5780601f10610e7057610100808354040283529160200191610e9b565b820191906000526020600020905b815481529060010190602001808311610e7e57829003601f168201915b5050509190925250505090525092915050565b84610ecc5760405163cbf4a64560e01b815260040160405180910390fd5b6000858152602081905260409020805461010090046001600160a01b0316610f0757604051634d36eb6960e01b815260040160405180910390fd5b6001815460ff166004811115610f1f57610f1f611e16565b14610f3d576040516307a92f1960e51b815260040160405180910390fd5b4281600601548260050154610f52919061278e565b1115610f715760405163e843c5eb60e01b815260040160405180910390fd5b600354604051635c73957b60e11b81526001600160a01b039091169063b8e72af690610fa79088908890889088906004016127f5565b60006040518083038186803b158015610fbf57600080fd5b505afa158015610fd3573d6000803e3d6000fd5b5060009250610fe791505083850185612857565b600383015481519192501461100f57604051630b6fac0360e41b815260040160405180910390fd5b600061101d60016009612743565b6001600160401b03811115611034576110346123c3565b60405190808252806020026020018201604052801561105d578160200160208202803683370190505b50905060015b60098110156110b25782816009811061107e5761107e6128c0565b60200201518261108f600184612743565b8151811061109f5761109f6128c0565b6020908102919091010152600101611063565b50825460ff19166004908117845581516110d3918501906020840190611d9d565b50877f2f25f350b681441b5bb45430fbe61e78d0170cff4ad02cb0aa48a6427909aa8c60016004604051611108929190612756565b60405180910390a2336001600160a01b0316887f5da8009aeb11de7ef64598b0de897a03d2f93efabda8507a70e29cca4530cf5d8360405161114a91906128d6565b60405180910390a35050505050505050565b60008181526020819052604080822081516101808101909252805483929190829060ff16600481111561119157611191611e16565b60048111156111a2576111a2611e16565b8152815461010090046001600160a01b0316602080830191909152604080518082018252600185015481526002850154818401528184015260038401546060840152600484018054825181850281018501909352808352608090940193919290919083018282801561123357602002820191906000526020600020905b81548152602001906001019080831161121f575b50505050508152602001600582015481526020016006820154815260200160078201548152602001600882015481526020016009820180546112749061238f565b80601f01602080910402602001604051908101604052809291908181526020018280546112a09061238f565b80156112ed5780601f106112c2576101008083540402835291602001916112ed565b820191906000526020600020905b8154815290600101906020018083116112d057829003601f168201915b5050509183525050604080516101008082018352600a85015460ff8082161515845291810482161515602084810191909152620100008204831684860152630100000090910482166060840152600b860154608080850191909152600c87015460a0850152600d87015460c0850152600e87015460e08501529085019290925282519182018352600f8501805493909401939192839116600981111561139557611395611e16565b60098111156113a6576113a6611e16565b815260200160018201548152602001600282015481526020016003820180546113ce9061238f565b80601f01602080910402602001604051908101604052809291908181526020018280546113fa9061238f565b80156114475780601f1061141c57610100808354040283529160200191611447565b820191906000526020600020905b81548152906001019060200180831161142a57829003601f168201915b5050505050815250508152505090508060c001518160a0015161146a919061278e565b9392505050565b8161148f5760405163cbf4a64560e01b815260040160405180910390fd5b6000828152602081905260409020805461010090046001600160a01b03166114ca57604051634d36eb6960e01b815260040160405180910390fd5b805461010090046001600160a01b031633146114f8576040516282b42960e81b815260040160405180910390fd5b805460ff16600081600481111561151157611511611e16565b141580156115315750600381600481111561152e5761152e611e16565b14155b1561154f576040516307a92f1960e51b815260040160405180910390fd5b6005820154600683015484158061156f57504261156c868461278e565b11155b8061158c575061157f818361278e565b611589868461278e565b11155b156115aa57604051637616640160e01b815260040160405180910390fd5b6006840185905560405185815286907f0f759826327c668a220d576485ac38ddc4f83fbc414b984c00e79f669b649f469060200160405180910390a2505050505050565b8461160c5760405163cbf4a64560e01b815260040160405180910390fd5b6000858152602081905260409020805461010090046001600160a01b031661164757604051634d36eb6960e01b815260040160405180910390fd5b6000815460ff16600481111561165f5761165f611e16565b1461167d576040516307a92f1960e51b815260040160405180910390fd5b4281600601548260050154611692919061278e565b116116b05760405163e843c5eb60e01b815260040160405180910390fd5b600254604051635c73957b60e11b8152600160401b9091046001600160a01b03169063b8e72af6906116ec9088908890889088906004016127f5565b60006040518083038186803b15801561170457600080fd5b505afa158015611718573d6000803e3d6000fd5b506000925061172c915050838501856128e9565b600383015481519192501461175457604051630b6fac0360e41b815260040160405180910390fd5b60208101516003830155604081015160078301805460009061177790849061278e565b9091555050606081015160088301805460009061179590849061278e565b9091555050602080820151604051908152339189917fdc9b2774f92abfeee93d8b2ef67d59cd90c2d6d740b01c24fd9ec109a71865fc910160405180910390a350505050505050565b6002543360008181526001602052604081205490926107849264010000000090910463ffffffff16916001600160401b031661185f565b6003546040805163233ace1160e01b815290516000926001600160a01b03169163233ace119160048083019260209291908290030181865afa158015610760573d6000803e3d6000fd5b6001600160f81b031960e09390931b92831660ff60f01b84161760ff60e81b84161760ff60e01b939093169290921760409190911b68010000000000000000600160e01b03161767ff0000000000000082161766ff00000000000082161765ff000000000082161764ff0000000082161763ff00000082161762ff000082161761ff0082161760ff919091161790565b6000878152602081905260409020546001600160a01b03808816610100909204160361192e57604051635040c4d360e11b815260040160405180910390fd5b61193e606083016040840161292c565b60ff166000036119615760405163ac38930b60e01b815260040160405180910390fd5b8160a001358260800135101561198a576040516363f4b4b760e01b815260040160405180910390fd5b6119976020830183612949565b1580156119a6575060c0820135155b156119c457604051630ac929fb60e41b815260040160405180910390fd5b60008260c001351180156119df57508160e001358260c00135105b156119fd5760405163a159c01160e01b815260040160405180910390fd5b6009611a0c6020830183612771565b6009811115611a1d57611a1d611e16565b60ff161115611a3f5760405163f37f7b5d60e01b815260040160405180910390fd5b8060200135600003611a6457604051634f9233a560e01b815260040160405180910390fd5b6040810135611a8657604051635e32eadd60e01b815260040160405180910390fd5b611a9360608201826125f0565b9050600003611ab557604051630f8b932160e11b815260040160405180910390fd5b60048581811115611ac857611ac8611e16565b60ff161180611b0657506000856004811115611ae657611ae6611e16565b14158015611b0657506003856004811115611b0357611b03611e16565b14155b15611b24576040516307a92f1960e51b815260040160405180910390fd5b426000859003611b32578094505b80851015611b5357604051632ca4094f60e21b815260040160405180910390fd5b80611b5e858761278e565b11611b7c57604051637616640160e01b815260040160405180910390fd5b5050505050505050565b6000826004811115611b9a57611b9a611e16565b826004811115611bac57611bac611e16565b03611bb957506000611ca5565b6002836004811115611bcd57611bcd611e16565b1480611bea57506004836004811115611be857611be8611e16565b145b80611c0657506001836004811115611c0457611c04611e16565b145b15611c1357506000611ca5565b6000836004811115611c2757611c27611e16565b03611c815760035b826004811115611c4157611c41611e16565b1480611c5e57506002826004811115611c5c57611c5c611e16565b145b80611c7a57506001826004811115611c7857611c78611e16565b145b9050611ca5565b6003836004811115611c9557611c95611e16565b03611ca1576000611c2f565b5060005b92915050565b604080516101808101909152806000815260200160006001600160a01b03168152602001611cec604051806040016040528060008152602001600081525090565b815260200160008152602001606081526020016000815260200160008152602001600081526020016000815260200160608152602001611d74604051806101000160405280600015158152602001600015158152602001600060ff168152602001600060ff168152602001600081526020016000815260200160008152602001600081525090565b815260408051608081018252600080825260208281018290529282015260608082015291015290565b828054828255906000526020600020908101928215611dd8579160200282015b82811115611dd8578251825591602001919060010190611dbd565b50611de4929150611de8565b5090565b5b80821115611de45760008155600101611de9565b600060208284031215611e0f57600080fd5b5035919050565b634e487b7160e01b600052602160045260246000fd5b60058110611e3c57611e3c611e16565b9052565b6000815180845260005b81811015611e6657602081850181015186830182015201611e4a565b506000602082860101526020601f19601f83011685010191505092915050565b80511515825260208101511515602083015260ff60408201511660408301526060810151611eb9606084018260ff169052565b506080810151608083015260a081015160a083015260c081015160c083015260e081015160e08301525050565b60008151600a8110611efa57611efa611e16565b808452506020820151602084015260408201516040840152606082015160806060850152611f2b6080850182611e40565b949350505050565b611f3d818d611e2c565b6001600160a01b038b166020820152611f63604082018b80518252602090810151910152565b8860808201528760a08201528660c08201528560e0820152846101008201526102606101208201526000611f9b610260830186611e40565b611fa9610140840186611e86565b828103610240840152611fbc8185611ee6565b9e9d5050505050505050505050505050565b803560058110611fdd57600080fd5b919050565b600060808284031215611ff457600080fd5b50919050565b60008083601f84011261200c57600080fd5b5081356001600160401b0381111561202357600080fd5b60208301915083602082850101111561203b57600080fd5b9250929050565b600060408284031215611ff457600080fd5b6000806000806000806000806000898b0361020081121561207457600080fd5b61207d8b611fce565b995060208b0135985060408b01359750610100605f19820112156120a057600080fd5b5060608a0195506101608a01356001600160401b038111156120c157600080fd5b6120cd8c828d01611fe2565b9550506101808a01356001600160401b038111156120ea57600080fd5b6120f68c828d01611ffa565b909550935061210b90508b6101a08c01612042565b989b979a5095989497939692955090936101e00135919050565b6000806040838503121561213857600080fd5b8235915061214860208401611fce565b90509250929050565b60006020828403121561216357600080fd5b81356001600160a01b038116811461146a57600080fd5b6000806040838503121561218d57600080fd5b8235915060208301356001600160401b038111156121aa57600080fd5b6121b685828601611fe2565b9150509250929050565b600081518084526020840193506020830160005b828110156121f25781518652602095860195909101906001016121d4565b5093949350505050565b6020815261220e602082018351611e2c565b6000602083015161222a60408401826001600160a01b03169052565b506040830151805160608401526020810151608084015250606083015160a0830152608083015161028060c08401526122676102a08401826121c0565b905060a084015160e084015260c084015161010084015260e0840151610120840152610100840151610140840152610120840151601f19848303016101608501526122b28282611e40565b9150506101408401516122c9610180850182611e86565b50610160840151838203601f19016102808501526122e78282611ee6565b95945050505050565b60008060008060006060868803121561230857600080fd5b8535945060208601356001600160401b0381111561232557600080fd5b61233188828901611ffa565b90955093505060408601356001600160401b0381111561235057600080fd5b61235c88828901611ffa565b969995985093965092949392505050565b6000806040838503121561238057600080fd5b50508035926020909101359150565b600181811c908216806123a357607f821691505b602082108103611ff457634e487b7160e01b600052602260045260246000fd5b634e487b7160e01b600052604160045260246000fd5b601f82111561242357806000526020600020601f840160051c810160208510156124005750805b601f840160051c820191505b81811015612420576000815560010161240c565b50505b505050565b6001600160401b0383111561243f5761243f6123c3565b6124538361244d835461238f565b836123d9565b6000601f841160018114612487576000851561246f5750838201355b600019600387901b1c1916600186901b178355612420565b600083815260209020601f19861690835b828110156124b85786850135825560209485019460019092019101612498565b50868210156124d55760001960f88860031b161c19848701351681555b505060018560011b0183555050505050565b80151581146124f557600080fd5b50565b60008135611ca5816124e7565b60ff811681146124f557600080fd5b60008135611ca581612505565b813561252c816124e7565b815490151560ff1660ff199190911617815561256761254d602084016124f8565b82805461ff00191691151560081b61ff0016919091179055565b61258e61257660408401612514565b825462ff0000191660109190911b62ff000016178255565b6125b761259d60608401612514565b825463ff000000191660189190911b63ff00000016178255565b6080820135600182015560a0820135600282015560c0820135600382015560e090910135600490910155565b600a81106124f557600080fd5b6000808335601e1984360301811261260757600080fd5b8301803591506001600160401b0382111561262157600080fd5b60200191503681900382131561203b57600080fd5b8135612641816125e3565b600a811061265157612651611e16565b815460ff191660ff9190911617815560208201356001820155604082013560028201556060820135601e193684900301811261268c57600080fd5b820180356001600160401b038111156126a457600080fd5b6020820191508036038213156126b957600080fd5b6126c7818360038601612428565b50505050565b634e487b7160e01b600052601160045260246000fd5b600063ffffffff821663ffffffff81036126ff576126ff6126cd565b60010192915050565b60006001600160401b0382166001600160401b0381036126ff576126ff6126cd565b60006020828403121561273c57600080fd5b5051919050565b81810381811115611ca557611ca56126cd565b604081016127648285611e2c565b61146a6020830184611e2c565b60006020828403121561278357600080fd5b813561146a816125e3565b80820180821115611ca557611ca56126cd565b81835281816020850137506000828201602090810191909152601f909101601f19169091010190565b8481526060602082015260006127e46060830185876127a1565b905082604083015295945050505050565b6040815260006128096040830186886127a1565b828103602084015261281c8185876127a1565b979650505050505050565b604051601f8201601f191681016001600160401b038111828210171561284f5761284f6123c3565b604052919050565b6000610120828403121561286a57600080fd5b600083601f84011261287a578081fd5b8061012061288781612827565b925082915084018581111561289b57600080fd5b845b818110156128b557803584526020938401930161289d565b509095945050505050565b634e487b7160e01b600052603260045260246000fd5b60208152600061146a60208301846121c0565b6000608082840312156128fb57600080fd5b600083601f84011261290b578081fd5b806129166080612827565b9050809150608084018581111561289b57600080fd5b60006020828403121561293e57600080fd5b813561146a81612505565b60006020828403121561295b57600080fd5b813561146a816124e756fea264697066735822122043ecbf6cf58b4e3b2f51af7fd580c5f09b493d9a18cebe1a4602314ef6e2da7164736f6c634300081c0033",
  "linkReferences": {},
  "deployedLinkReferences": {}
}