{"src/Groth16Verifier.sol":{"Groth16Verifier":{"abi":[{"inputs":[],"name":"CommitmentInvalid","type":"error"},{"inputs":[],"name":"ProofInvalid","type":"error"},{"inputs":[],"name":"PublicInputNotInField","type":"error"},{"inputs":[{"internalType":"uint256[8]","name":"proof","type":"uint256[8]"},{"internalType":"uint256[2]","name":"commitments","type":"uint256[2]"},{"internalType":"uint256[2]","name":"commitmentPok","type":"uint256[2]"}],"name":"compressProof","outputs":[{"internalType":"uint256[4]","name":"compressed","type":"uint256[4]"},{"internalType":"uint256[1]","name":"compressedCommitments","type":"uint256[1]"},{"internalType":"uint256","name":"compressedCommitmentPok","type":"uint256"}],"stateMutability":"view","type":"function"},{"inputs":[],"name":"provingKeyHash","outputs":[{"internalType":"bytes32","name":"","type":"bytes32"}],"stateMutability":"pure","type":"function"},{"inputs":[{"internalType":"uint256[4]","name":"compressedProof","type":"uint256[4]"},{"internalType":"uint256[1]","name":"compressedCommitments","type":"uint256[1]"},{"internalType":"uint256","name":"compressedCommitmentPok","type":"uint256"},{"internalType":"uint256[4]","name":"input","type":"uint256[4]"}],"name":"verifyCompressedProof","outputs":[],"stateMutability":"view","type":"function"},{"inputs":[{"internalType":"bytes","name":"_proof","type":"bytes"},{"internalType":"bytes","name":"_input","type":"bytes"}],"name":"verifyProof","outputs":[],"stateMutability":"view","type":"function"},{"inputs":[{"internalType":"uint256[8]","name":"proof","type":"uint256[8]"},{"internalType":"uint256[2]","name":"commitments","type":"uint256[2]"},{"internalType":"uint256[2]","name":"commitmentPok","type":"uint256[2]"},{"internalType":"uint256[4]","name":"input","type":"uint256[4]"}],"name":"verifyProof","outputs":[],"stateMutability":"view","type":"function"}],"evm":{"bytecode":{"linkReferences":{},"object":"6080604052348015600f57600080fd5b50611ee38061001f6000396000f3fe608060405234801561001057600080fd5b50600436106100575760003560e01c8063233ace111461005c578063b1c3a00e1461008f578063b8e72af6146100b1578063d148354c146100c6578063e33974a8146100d9575b600080fd5b6040517fcda1af34e244289f9f455ae0b9c9092cc7f206a09d9848b7d8c695467107edbd81526020015b60405180910390f35b6100a261009d366004611991565b6100ec565b60405161008693929190611a03565b6100c46100bf366004611a92565b610175565b005b6100c46100d4366004611b14565b6101f6565b6100c46100e7366004611b70565b610699565b6100f46118d6565b6100fc6118f4565b600061011186358760015b6020020135610c02565b835261012f6060870135604088013560a089013560808a0135610cf7565b6020850152604084015261014960c0870135876007610107565b606084015261015b8535866001610107565b825261016a8435856001610107565b905093509350939050565b60008060006101848787610fee565b919450925090503063d148354c84848461019e8a8a61101f565b6040518563ffffffff1660e01b81526004016101bd9493929190611bf3565b60006040518083038186803b1580156101d557600080fd5b505afa1580156101e9573d6000803e3d6000fd5b5050505050505050505050565b6101fe6118f4565b6040805160028082526060808301845292602083019080368337019050509050602081016040848101823750604051600080516020611e8e83398151915290610253908735906020808a013591869101611c52565b6040516020818303038152906040528051906020012060001c6102769190611cab565b8252604080516000918782377f0a01433a0fe4694f8849243e83615296b59398875fd602863d16925104daba3b60408201527f04c53d87c0ee4818ce3d5ec86261167a4e10178aa13a9fa7c434700078d203d760608201527f2926344383ad20f2f91bf79025581482bc4481e0349b15d9ee1caf25b99423f060808201527f2c779b6bbd5b34ce9a51ec27b356540ca44648e63ed43f3485f142cc31811e9b60a082015260408660c08301377f2c9264b7730c34e1c98485ff0efb8279b1045d581f45a0190f94339502a641236101008201527f1aa8a3080ff0c35f3f055578d42a40dd72efb3753a7244cf813b7012913ead946101208201527f2de6ecd5b59c24ad3338d37fb3efef7ec275d587103811250d362fdca20bf1f36101408201527f279ca08e89073f4b832ba83244edb104ab5eee6ee35e7ff2f9ae32571efc354d6101608201526020816101808360085afa9051169050806103ec576040516351d49ff760e11b815260040160405180910390fd5b60008061042386868a600280602002604051908101604052809291908260026020028082843760009201919091525061103a915050565b915091506040516101008a82377f2af093bc562f5bf0182ef6acd13acffbc709389ef9929fe6714d2bdbe4c541be6101008201527f0789d5fd7c55079ba6c639a409faf6fa03d38a78fe820b9c4cde95a1d1ad78de6101208201527f10f92a2f8acf1f44bf4747c45f87862c4fb078decc2b0e63fbde35421e782a016101408201527f012a923a1bbbd9441b6d4a4df3402b7ea0a106cca6cd76667663da534aad9f026101608201527f2b7748ac78d66ee09e22930e69ea3a7ca97a643514aa6e013209c048e21d9c2b6101808201527f18c51058219190b0880e142a4683c2317aeff987b13dd913f702e05d92c52a1c6101a08201527f2107d33d60e3454820fcdc5e53a27ded25c0b37cb862880acd1d55b70d7bb9756101c08201527f11d3014ebe60aaf2da05a539d82d356931c63f726dd8e0fb5175fb0073bee67a6101e08201527f016981f5592b7b771df507722c56b3bba1e2d5dc343810fe671a70a8a57f81146102008201527f0a720ab658a9d650a3fd1a161c42abe0e7e8ba07365e4fbe24243d567b8e9a0661022082015282610240820152816102608201527f245830138ac037e0fb511ad518aa74433a57df97c656b754f51ba354d014838c6102808201527f303ba16eb1fa5161be2722d59afd0dcb268b75a2ce7fb4b822400c4488e83d776102a08201527f2f5ab50809b750f8edd9d883abbdc82d796cb6aa8e51c6edcb30fe434fbd7cb76102c08201527f0ca48a95cd1fb011ac7d006581ba80e52a73d5386cb8803aab94a189b5440e0a6102e08201526020816103008360085afa90511692508261068e57604051631ff3747d60e21b815260040160405180910390fd5b505050505050505050565b6106a16118f4565b6106a9611912565b6106b1611930565b6106c28660005b6020020135611380565b602084015282526000806106d587611380565b6040805160028082526060808301845294965092945091906020830190803683370190505090506020810160408881018237508451602080870151604051600080516020611e8e8339815191529361073293909291869101611c52565b6040516020818303038152906040528051906020012060001c6107559190611cab565b865284518452602085810151858201527f0a01433a0fe4694f8849243e83615296b59398875fd602863d16925104daba3b6040808701919091527f04c53d87c0ee4818ce3d5ec86261167a4e10178aa13a9fa7c434700078d203d760608701527f2926344383ad20f2f91bf79025581482bc4481e0349b15d9ee1caf25b99423f060808701527f2c779b6bbd5b34ce9a51ec27b356540ca44648e63ed43f3485f142cc31811e9b60a087015260c0860185905260e086018490527f2c9264b7730c34e1c98485ff0efb8279b1045d581f45a0190f94339502a641236101008701527f1aa8a3080ff0c35f3f055578d42a40dd72efb3753a7244cf813b7012913ead946101208701527f2de6ecd5b59c24ad3338d37fb3efef7ec275d587103811250d362fdca20bf1f36101408701527f279ca08e89073f4b832ba83244edb104ab5eee6ee35e7ff2f9ae32571efc354d61016087015251600091816101808860085afa9051169050806108db576040516351d49ff760e11b815260040160405180910390fd5b505050506000806108f8896000600481106106b8576106b8611bba565b9092509050600080808061091460408e013560208f0135611426565b9296509094509250905060008061092c8f60036106b8565b9150915060008061093e8e8e8e61103a565b8b8d5260208d018b905260408d0189905260608d018a905260808d0187905260a08d0188905260c08d0186905260e08d018590527f2af093bc562f5bf0182ef6acd13acffbc709389ef9929fe6714d2bdbe4c541be6101008e01527f0789d5fd7c55079ba6c639a409faf6fa03d38a78fe820b9c4cde95a1d1ad78de6101208e01527f10f92a2f8acf1f44bf4747c45f87862c4fb078decc2b0e63fbde35421e782a016101408e01527f012a923a1bbbd9441b6d4a4df3402b7ea0a106cca6cd76667663da534aad9f026101608e01527f2b7748ac78d66ee09e22930e69ea3a7ca97a643514aa6e013209c048e21d9c2b6101808e01527f18c51058219190b0880e142a4683c2317aeff987b13dd913f702e05d92c52a1c6101a08e01527f2107d33d60e3454820fcdc5e53a27ded25c0b37cb862880acd1d55b70d7bb9756101c08e01527f11d3014ebe60aaf2da05a539d82d356931c63f726dd8e0fb5175fb0073bee67a6101e08e01527f016981f5592b7b771df507722c56b3bba1e2d5dc343810fe671a70a8a57f81146102008e01527f0a720ab658a9d650a3fd1a161c42abe0e7e8ba07365e4fbe24243d567b8e9a066102208e01526102408d018290526102608d018190527f245830138ac037e0fb511ad518aa74433a57df97c656b754f51ba354d014838c6102808e01527f303ba16eb1fa5161be2722d59afd0dcb268b75a2ce7fb4b822400c4488e83d776102a08e01527f2f5ab50809b750f8edd9d883abbdc82d796cb6aa8e51c6edcb30fe434fbd7cb76102c08e01527f0ca48a95cd1fb011ac7d006581ba80e52a73d5386cb8803aab94a189b5440e0a6102e08e015290925090506000610bb36118f4565b6020816103008f60085afa9150811580610bcf57508051600114155b15610bed57604051631ff3747d60e21b815260040160405180910390fd5b50505050505050505050505050505050505050565b6000600080516020611e6e83398151915283101580610c2f5750600080516020611e6e8339815191528210155b15610c4d57604051631ff3747d60e21b815260040160405180910390fd5b82158015610c59575081155b15610c6657506000610cf1565b6000610ca5600080516020611e6e8339815191526003600080516020611e6e83398151915287600080516020611e6e833981519152898a09090861160c565b9050808303610cba575050600182901b610cf1565b610cc381611670565b8303610cd6575050600182811b17610cf1565b604051631ff3747d60e21b815260040160405180910390fd5b505b92915050565b600080600080516020611e6e83398151915286101580610d255750600080516020611e6e8339815191528510155b80610d3e5750600080516020611e6e8339815191528410155b80610d575750600080516020611e6e8339815191528310155b15610d7557604051631ff3747d60e21b815260040160405180910390fd5b82848688171717600003610d8e57506000905080610fe5565b60008080600080516020611e6e833981519152610dba6003600080516020611e6e833981519152611ccd565b600080516020611e6e8339815191528a8c090990506000600080516020611e6e8339815191528a600080516020611e6e8339815191528c8d090990506000600080516020611e6e8339815191528a600080516020611e6e8339815191528c8d09099050600080516020611e6e83398151915280600080516020611e6e8339815191528c860984087f2b149d40ceb8aaae81be18991be06ac3b5b4c5e559dbefa33267e6dc24a138e5089450610eb3600080516020611e6e83398151915280600080516020611e6e8339815191528e870984087f2fcd3ac2a640a154eb23960892a85a68f031ca0c8344b23a577dcf1052b9e77508611670565b9350505050600080610f04600080516020611e6e83398151915280610eda57610eda611c95565b600080516020611e6e833981519152858609600080516020611e6e8339815191528788090861160c565b9050610f51600080516020611e6e8339815191527f183227397098d014dc2822db40c0ac2ecbc0b548b438e5469e10460b6c3e7ea4600080516020611e6e83398151915284880809611689565b15915050610f608383836116d3565b90935091508683148015610f7357508186145b15610f9d5780610f84576000610f87565b60025b60ff1660028a901b176000179450879350610fe1565b610fa683611670565b87148015610fbb5750610fb882611670565b86145b15610cd65780610fcc576000610fcf565b60025b60ff1660028a901b1760011794508793505b5050505b94509492505050565b610ff661194f565b610ffe611912565b611006611912565b61101284860186611d83565b9250925092509250925092565b6110276118d6565b61103382840184611e05565b9392505050565b6000806000600190506040516040810160007f21258e05459e27e1bae34f9eeb6a862382590c267f2ccf3ccdd796cd1ba0835083527f0af44b65dd35e27e592b9d6e248292c466537a45cb52787bae4d5b55918891576020840152865182526020870151602083015260408360808560065afa841693507f03c4bc159c6596df9b30819b1f7d83407454d4958c6a783d37af377be565b45982527f2092a465ff77e908032e7c895608b21e0d0476c5326f8d9f13ba94378c39845b602083015288359050806040830152600080516020611e8e83398151915281108416935060408260608460075afa8416935060408360808560065afa841693507f1bf9a7542920569c876cd37a875984be113c87e390bf57ef7b9d36f107d2d57f82527f2fe1b6f875f207dc852b736c6c25452c2664877a4540be7cf780e87f7ca5dcd3602083015260208901359050806040830152600080516020611e8e83398151915281108416935060408260608460075afa8416935060408360808560065afa841693507f1b6e9999fed3f38f333f7a63a62df834b53d4905bd8194293fc79ea2cb9f37f582527f2700f6df44e9cac9d2177ccbe776720689c717fbc125ec263567f3706a5b3fbf602083015260408901359050806040830152600080516020611e8e83398151915281108416935060408260608460075afa8416935060408360808560065afa841693507f2454ce08c65d3302ddc03b3c741b0c571724c53f814004bf5a01fee9430e3d5e82527f2eca51affb7688a81f2631944ebd223a1d627545fe34f6db432aae7dfb3e89c6602083015260608901359050806040830152600080516020611e8e83398151915281108416935060408260608460075afa8416935060408360808560065afa7f2e5fe3c7e653eba8771f3b296dd2829f34a08aac429710667a35c70b1b64ca8d83527f1c62cb41d3c8a72a11aad3d265431fa10e6f28906fda1e966b6bd4ce21e6ffbd602084015288516040808501829052600080516020611e8e83398151915290911091909516169390508160608160075afa831692505060408160808360065afa815160209092015191945090925016806113775760405163a54f8e2760e01b815260040160405180910390fd5b50935093915050565b6000808260000361139657506000928392509050565b600183811c925080841614600080516020611e6e83398151915283106113cf57604051631ff3747d60e21b815260040160405180910390fd5b61140c600080516020611e6e8339815191526003600080516020611e6e83398151915286600080516020611e6e833981519152888909090861160c565b915080156114205761141d82611670565b91505b50915091565b600080808085158015611437575084155b1561144d57506000925082915081905080611603565b600286811c94508593506001808816149080881614600080516020611e6e8339815191528610158061148d5750600080516020611e6e8339815191528510155b156114ab57604051631ff3747d60e21b815260040160405180910390fd5b6000600080516020611e6e8339815191526114d56003600080516020611e6e833981519152611ccd565b600080516020611e6e833981519152888a090990506000600080516020611e6e83398151915288600080516020611e6e8339815191528a8b090990506000600080516020611e6e83398151915288600080516020611e6e8339815191528a8b09099050600080516020611e6e83398151915280600080516020611e6e8339815191528a860984087f2b149d40ceb8aaae81be18991be06ac3b5b4c5e559dbefa33267e6dc24a138e50896506115ce600080516020611e6e83398151915280600080516020611e6e8339815191528c870984087f2fcd3ac2a640a154eb23960892a85a68f031ca0c8344b23a577dcf1052b9e77508611670565b95506115db8787866116d3565b909750955084156115fd576115ef87611670565b96506115fa86611670565b95505b50505050505b92959194509250565b6000611638827f0c19139cb84c680a6e14116da060561765e05aa45a1c72a34f082305b61f3f52611811565b905081600080516020611e6e8339815191528283091461166b57604051631ff3747d60e21b815260040160405180910390fd5b919050565b600080516020611e6e8339815191529081900681030690565b6000806116b6837f0c19139cb84c680a6e14116da060561765e05aa45a1c72a34f082305b61f3f52611811565b905082600080516020611e6e833981519152828309149392505050565b60008080611705600080516020611e6e83398151915280878809600080516020611e6e833981519152898a090861160c565b905083156117195761171681611670565b90505b611764600080516020611e6e8339815191527f183227397098d014dc2822db40c0ac2ecbc0b548b438e5469e10460b6c3e7ea4600080516020611e6e833981519152848a080961160c565b9250600080516020611e6e833981519152611790600080516020611e6e83398151915260028609611876565b86099150600080516020611e6e8339815191526117bd600080516020611e6e833981519152848509611670565b600080516020611e6e83398151915285860908861415806117f35750600080516020611e6e833981519152808385096002098514155b1561137757604051631ff3747d60e21b815260040160405180910390fd5b6000806040516020815260208082015260206040820152846060820152836080820152600080516020611e6e83398151915260a082015260208160c08360055afa90519250905080610cef57604051631ff3747d60e21b815260040160405180910390fd5b60006118a2827f30644e72e131a029b85045b68181585d97816a916871ca8d3c208c16d87cfd45611811565b9050600080516020611e6e83398151915281830960011461166b57604051631ff3747d60e21b815260040160405180910390fd5b60405180608001604052806004906020820280368337509192915050565b60405180602001604052806001906020820280368337509192915050565b60405180604001604052806002906020820280368337509192915050565b6040518061030001604052806018906020820280368337509192915050565b6040518061010001604052806008906020820280368337509192915050565b806101008101831015610cf157600080fd5b8060408101831015610cf157600080fd5b600080600061018084860312156119a757600080fd5b6119b1858561196e565b92506119c1856101008601611980565b91506119d1856101408601611980565b90509250925092565b8060005b60048110156119fd5781518452602093840193909101906001016119de565b50505050565b60c08101611a1182866119da565b608082018460005b6001811015611a38578151835260209283019290910190600101611a19565b5050508260a0830152949350505050565b60008083601f840112611a5b57600080fd5b50813567ffffffffffffffff811115611a7357600080fd5b602083019150836020828501011115611a8b57600080fd5b9250929050565b60008060008060408587031215611aa857600080fd5b843567ffffffffffffffff811115611abf57600080fd5b611acb87828801611a49565b909550935050602085013567ffffffffffffffff811115611aeb57600080fd5b611af787828801611a49565b95989497509550505050565b8060808101831015610cf157600080fd5b6000806000806102008587031215611b2b57600080fd5b611b35868661196e565b9350611b45866101008701611980565b9250611b55866101408701611980565b9150611b65866101808701611b03565b905092959194509250565b6000806000806101408587031215611b8757600080fd5b611b918686611b03565b935060a0850186811115611ba457600080fd5b608086019350359150611b658660c08701611b03565b634e487b7160e01b600052603260045260246000fd5b8060005b60028110156119fd578151845260209384019390910190600101611bd4565b6102008101818660005b6008811015611c1c578151835260209283019290910190600101611bfd565b505050611c2d610100830186611bd0565b611c3b610140830185611bd0565b611c496101808301846119da565b95945050505050565b83815282602082015260006040820183516020850160005b82811015611c88578151845260209384019390910190600101611c6a565b5091979650505050505050565b634e487b7160e01b600052601260045260246000fd5b600082611cc857634e487b7160e01b600052601260045260246000fd5b500690565b81810381811115610cf157634e487b7160e01b600052601160045260246000fd5b604051601f8201601f1916810167ffffffffffffffff81118282101715611d2557634e487b7160e01b600052604160045260246000fd5b604052919050565b600082601f830112611d3e57600080fd5b6000611d4a6040611cee565b9050806040840185811115611d5e57600080fd5b845b81811015611d78578035835260209283019201611d60565b509195945050505050565b60008060006101808486031215611d9957600080fd5b600085601f860112611da9578081fd5b80610100611db681611cee565b9250829150860187811115611dca57600080fd5b865b81811015611de4578035845260209384019301611dcc565b50819550611df28882611d2d565b94505050506119d1856101408601611d2d565b600060808284031215611e1757600080fd5b600083601f840112611e27578081fd5b80611e326080611cee565b90508091506080840185811115611e4857600080fd5b845b81811015611e62578035845260209384019301611e4a565b50909594505050505056fe30644e72e131a029b85045b68181585d97816a916871ca8d3c208c16d87cfd4730644e72e131a029b85045b68181585d2833e84879b9709143e1f593f0000001a26469706673582212203d8d1c3beabcdfcc8161de7150ee678bc045929ae63dbe129bc360ea13b9fb0a64736f6c634300081c0033","opcodes":"PUSH1 0x80 PUSH1 0x40 MSTORE CALLVALUE DUP1 ISZERO PUSH1 0xF JUMPI PUSH1 0x0 DUP1 REVERT JUMPDEST POP PUSH2 0x1EE3 DUP1 PUSH2 0x1F PUSH1 0x0 CODECOPY PUSH1 0x0 RETURN INVALID PUSH1 0x80 PUSH1 0x40 MSTORE CALLVALUE DUP1 ISZERO PUSH2 0x10 JUMPI PUSH1 0x0 DUP1 REVERT JUMPDEST POP PUSH1 0x4 CALLDATASIZE LT PUSH2 0x57 JUMPI PUSH1 0x0 CALLDATALOAD PUSH1 0xE0 SHR DUP1 PUSH4 0x233ACE11 EQ PUSH2 0x5C JUMPI DUP1 PUSH4 0xB1C3A00E EQ PUSH2 0x8F JUMPI DUP1 PUSH4 0xB8E72AF6 EQ PUSH2 0xB1 JUMPI DUP1 PUSH4 0xD148354C EQ PUSH2 0xC6 JUMPI DUP1 PUSH4 0xE33974A8 EQ PUSH2 0xD9 JUMPI JUMPDEST PUSH1 0x0 DUP1 REVERT JUMPDEST PUSH1 0x40 MLOAD PUSH32 0xCDA1AF34E244289F9F455AE0B9C9092CC7F206A09D9848B7D8C695467107EDBD DUP2 MSTORE PUSH1 0x20 ADD JUMPDEST PUSH1 0x40 MLOAD DUP1 SWAP2 SUB SWAP1 RETURN JUMPDEST PUSH2 0xA2 PUSH2 0x9D CALLDATASIZE PUSH1 0x4 PUSH2 0x1991 JUMP JUMPDEST PUSH2 0xEC JUMP JUMPDEST PUSH1 0x40 MLOAD PUSH2 0x86 SWAP4 SWAP3 SWAP2 SWAP1 PUSH2 0x1A03 JUMP JUMPDEST PUSH2 0xC4 PUSH2 0xBF CALLDATASIZE PUSH1 0x4 PUSH2 0x1A92 JUMP JUMPDEST PUSH2 0x175 JUMP JUMPDEST STOP JUMPDEST PUSH2 0xC4 PUSH2 0xD4 CALLDATASIZE PUSH1 0x4 PUSH2 0x1B14 JUMP JUMPDEST PUSH2 0x1F6 JUMP JUMPDEST PUSH2 0xC4 PUSH2 0xE7 CALLDATASIZE PUSH1 0x4 PUSH2 0x1B70 JUMP JUMPDEST PUSH2 0x699 JUMP JUMPDEST PUSH2 0xF4 PUSH2 0x18D6 JUMP JUMPDEST PUSH2 0xFC PUSH2 0x18F4 JUMP JUMPDEST PUSH1 0x0 PUSH2 0x111 DUP7 CALLDATALOAD DUP8 PUSH1 0x1 JUMPDEST PUSH1 0x20 MUL ADD CALLDATALOAD PUSH2 0xC02 JUMP JUMPDEST DUP4 MSTORE PUSH2 0x12F PUSH1 0x60 DUP8 ADD CALLDATALOAD PUSH1 0x40 DUP9 ADD CALLDATALOAD PUSH1 0xA0 DUP10 ADD CALLDATALOAD PUSH1 0x80 DUP11 ADD CALLDATALOAD PUSH2 0xCF7 JUMP JUMPDEST PUSH1 0x20 DUP6 ADD MSTORE PUSH1 0x40 DUP5 ADD MSTORE PUSH2 0x149 PUSH1 0xC0 DUP8 ADD CALLDATALOAD DUP8 PUSH1 0x7 PUSH2 0x107 JUMP JUMPDEST PUSH1 0x60 DUP5 ADD MSTORE PUSH2 0x15B DUP6 CALLDATALOAD DUP7 PUSH1 0x1 PUSH2 0x107 JUMP JUMPDEST DUP3 MSTORE PUSH2 0x16A DUP5 CALLDATALOAD DUP6 PUSH1 0x1 PUSH2 0x107 JUMP JUMPDEST SWAP1 POP SWAP4 POP SWAP4 POP SWAP4 SWAP1 POP JUMP JUMPDEST PUSH1 0x0 DUP1 PUSH1 0x0 PUSH2 0x184 DUP8 DUP8 PUSH2 0xFEE JUMP JUMPDEST SWAP2 SWAP5 POP SWAP3 POP SWAP1 POP ADDRESS PUSH4 0xD148354C DUP5 DUP5 DUP5 PUSH2 0x19E DUP11 DUP11 PUSH2 0x101F JUMP JUMPDEST PUSH1 0x40 MLOAD DUP6 PUSH4 0xFFFFFFFF AND PUSH1 0xE0 SHL DUP2 MSTORE PUSH1 0x4 ADD PUSH2 0x1BD SWAP5 SWAP4 SWAP3 SWAP2 SWAP1 PUSH2 0x1BF3 JUMP JUMPDEST PUSH1 0x0 PUSH1 0x40 MLOAD DUP1 DUP4 SUB DUP2 DUP7 DUP1 EXTCODESIZE ISZERO DUP1 ISZERO PUSH2 0x1D5 JUMPI PUSH1 0x0 DUP1 REVERT JUMPDEST POP GAS STATICCALL ISZERO DUP1 ISZERO PUSH2 0x1E9 JUMPI RETURNDATASIZE PUSH1 0x0 DUP1 RETURNDATACOPY RETURNDATASIZE PUSH1 0x0 REVERT JUMPDEST POP POP POP POP POP POP POP POP POP POP POP JUMP JUMPDEST PUSH2 0x1FE PUSH2 0x18F4 JUMP JUMPDEST PUSH1 0x40 DUP1 MLOAD PUSH1 0x2 DUP1 DUP3 MSTORE PUSH1 0x60 DUP1 DUP4 ADD DUP5 MSTORE SWAP3 PUSH1 0x20 DUP4 ADD SWAP1 DUP1 CALLDATASIZE DUP4 CALLDATACOPY ADD SWAP1 POP POP SWAP1 POP PUSH1 0x20 DUP2 ADD PUSH1 0x40 DUP5 DUP2 ADD DUP3 CALLDATACOPY POP PUSH1 0x40 MLOAD PUSH1 0x0 DUP1 MLOAD PUSH1 0x20 PUSH2 0x1E8E DUP4 CODECOPY DUP2 MLOAD SWAP2 MSTORE SWAP1 PUSH2 0x253 SWAP1 DUP8 CALLDATALOAD SWAP1 PUSH1 0x20 DUP1 DUP11 ADD CALLDATALOAD SWAP2 DUP7 SWAP2 ADD PUSH2 0x1C52 JUMP JUMPDEST PUSH1 0x40 MLOAD PUSH1 0x20 DUP2 DUP4 SUB SUB DUP2 MSTORE SWAP1 PUSH1 0x40 MSTORE DUP1 MLOAD SWAP1 PUSH1 0x20 ADD KECCAK256 PUSH1 0x0 SHR PUSH2 0x276 SWAP2 SWAP1 PUSH2 0x1CAB JUMP JUMPDEST DUP3 MSTORE PUSH1 0x40 DUP1 MLOAD PUSH1 0x0 SWAP2 DUP8 DUP3 CALLDATACOPY PUSH32 0xA01433A0FE4694F8849243E83615296B59398875FD602863D16925104DABA3B PUSH1 0x40 DUP3 ADD MSTORE PUSH32 0x4C53D87C0EE4818CE3D5EC86261167A4E10178AA13A9FA7C434700078D203D7 PUSH1 0x60 DUP3 ADD MSTORE PUSH32 0x2926344383AD20F2F91BF79025581482BC4481E0349B15D9EE1CAF25B99423F0 PUSH1 0x80 DUP3 ADD MSTORE PUSH32 0x2C779B6BBD5B34CE9A51EC27B356540CA44648E63ED43F3485F142CC31811E9B PUSH1 0xA0 DUP3 ADD MSTORE PUSH1 0x40 DUP7 PUSH1 0xC0 DUP4 ADD CALLDATACOPY PUSH32 0x2C9264B7730C34E1C98485FF0EFB8279B1045D581F45A0190F94339502A64123 PUSH2 0x100 DUP3 ADD MSTORE PUSH32 0x1AA8A3080FF0C35F3F055578D42A40DD72EFB3753A7244CF813B7012913EAD94 PUSH2 0x120 DUP3 ADD MSTORE PUSH32 0x2DE6ECD5B59C24AD3338D37FB3EFEF7EC275D587103811250D362FDCA20BF1F3 PUSH2 0x140 DUP3 ADD MSTORE PUSH32 0x279CA08E89073F4B832BA83244EDB104AB5EEE6EE35E7FF2F9AE32571EFC354D PUSH2 0x160 DUP3 ADD MSTORE PUSH1 0x20 DUP2 PUSH2 0x180 DUP4 PUSH1 0x8 GAS STATICCALL SWAP1 MLOAD AND SWAP1 POP DUP1 PUSH2 0x3EC JUMPI PUSH1 0x40 MLOAD PUSH4 0x51D49FF7 PUSH1 0xE1 SHL DUP2 MSTORE PUSH1 0x4 ADD PUSH1 0x40 MLOAD DUP1 SWAP2 SUB SWAP1 REVERT JUMPDEST PUSH1 0x0 DUP1 PUSH2 0x423 DUP7 DUP7 DUP11 PUSH1 0x2 DUP1 PUSH1 0x20 MUL PUSH1 0x40 MLOAD SWAP1 DUP2 ADD PUSH1 0x40 MSTORE DUP1 SWAP3 SWAP2 SWAP1 DUP3 PUSH1 0x2 PUSH1 0x20 MUL DUP1 DUP3 DUP5 CALLDATACOPY PUSH1 0x0 SWAP3 ADD SWAP2 SWAP1 SWAP2 MSTORE POP PUSH2 0x103A SWAP2 POP POP JUMP JUMPDEST SWAP2 POP SWAP2 POP PUSH1 0x40 MLOAD PUSH2 0x100 DUP11 DUP3 CALLDATACOPY PUSH32 0x2AF093BC562F5BF0182EF6ACD13ACFFBC709389EF9929FE6714D2BDBE4C541BE PUSH2 0x100 DUP3 ADD MSTORE PUSH32 0x789D5FD7C55079BA6C639A409FAF6FA03D38A78FE820B9C4CDE95A1D1AD78DE PUSH2 0x120 DUP3 ADD MSTORE PUSH32 0x10F92A2F8ACF1F44BF4747C45F87862C4FB078DECC2B0E63FBDE35421E782A01 PUSH2 0x140 DUP3 ADD MSTORE PUSH32 0x12A923A1BBBD9441B6D4A4DF3402B7EA0A106CCA6CD76667663DA534AAD9F02 PUSH2 0x160 DUP3 ADD MSTORE PUSH32 0x2B7748AC78D66EE09E22930E69EA3A7CA97A643514AA6E013209C048E21D9C2B PUSH2 0x180 DUP3 ADD MSTORE PUSH32 0x18C51058219190B0880E142A4683C2317AEFF987B13DD913F702E05D92C52A1C PUSH2 0x1A0 DUP3 ADD MSTORE PUSH32 0x2107D33D60E3454820FCDC5E53A27DED25C0B37CB862880ACD1D55B70D7BB975 PUSH2 0x1C0 DUP3 ADD MSTORE PUSH32 0x11D3014EBE60AAF2DA05A539D82D356931C63F726DD8E0FB5175FB0073BEE67A PUSH2 0x1E0 DUP3 ADD MSTORE PUSH32 0x16981F5592B7B771DF507722C56B3BBA1E2D5DC343810FE671A70A8A57F8114 PUSH2 0x200 DUP3 ADD MSTORE PUSH32 0xA720AB658A9D650A3FD1A161C42ABE0E7E8BA07365E4FBE24243D567B8E9A06 PUSH2 0x220 DUP3 ADD MSTORE DUP3 PUSH2 0x240 DUP3 ADD MSTORE DUP2 PUSH2 0x260 DUP3 ADD MSTORE PUSH32 0x245830138AC037E0FB511AD518AA74433A57DF97C656B754F51BA354D014838C PUSH2 0x280 DUP3 ADD MSTORE PUSH32 0x303BA16EB1FA5161BE2722D59AFD0DCB268B75A2CE7FB4B822400C4488E83D77 PUSH2 0x2A0 DUP3 ADD MSTORE PUSH32 0x2F5AB50809B750F8EDD9D883ABBDC82D796CB6AA8E51C6EDCB30FE434FBD7CB7 PUSH2 0x2C0 DUP3 ADD MSTORE PUSH32 0xCA48A95CD1FB011AC7D006581BA80E52A73D5386CB8803AAB94A189B5440E0A PUSH2 0x2E0 DUP3 ADD MSTORE PUSH1 0x20 DUP2 PUSH2 0x300 DUP4 PUSH1 0x8 GAS STATICCALL SWAP1 MLOAD AND SWAP3 POP DUP3 PUSH2 0x68E JUMPI PUSH1 0x40 MLOAD PUSH4 0x1FF3747D PUSH1 0xE2 SHL DUP2 MSTORE PUSH1 0x4 ADD PUSH1 0x40 MLOAD DUP1 SWAP2 SUB SWAP1 REVERT JUMPDEST POP POP POP POP POP POP POP POP POP JUMP JUMPDEST PUSH2 0x6A1 PUSH2 0x18F4 JUMP JUMPDEST PUSH2 0x6A9 PUSH2 0x1912 JUMP JUMPDEST PUSH2 0x6B1 PUSH2 0x1930 JUMP JUMPDEST PUSH2 0x6C2 DUP7 PUSH1 0x0 JUMPDEST PUSH1 0x20 MUL ADD CALLDATALOAD PUSH2 0x1380 JUMP JUMPDEST PUSH1 0x20 DUP5 ADD MSTORE DUP3 MSTORE PUSH1 0x0 DUP1 PUSH2 0x6D5 DUP8 PUSH2 0x1380 JUMP JUMPDEST PUSH1 0x40 DUP1 MLOAD PUSH1 0x2 DUP1 DUP3 MSTORE PUSH1 0x60 DUP1 DUP4 ADD DUP5 MSTORE SWAP5 SWAP7 POP SWAP3 SWAP5 POP SWAP2 SWAP1 PUSH1 0x20 DUP4 ADD SWAP1 DUP1 CALLDATASIZE DUP4 CALLDATACOPY ADD SWAP1 POP POP SWAP1 POP PUSH1 0x20 DUP2 ADD PUSH1 0x40 DUP9 DUP2 ADD DUP3 CALLDATACOPY POP DUP5 MLOAD PUSH1 0x20 DUP1 DUP8 ADD MLOAD PUSH1 0x40 MLOAD PUSH1 0x0 DUP1 MLOAD PUSH1 0x20 PUSH2 0x1E8E DUP4 CODECOPY DUP2 MLOAD SWAP2 MSTORE SWAP4 PUSH2 0x732 SWAP4 SWAP1 SWAP3 SWAP2 DUP7 SWAP2 ADD PUSH2 0x1C52 JUMP JUMPDEST PUSH1 0x40 MLOAD PUSH1 0x20 DUP2 DUP4 SUB SUB DUP2 MSTORE SWAP1 PUSH1 0x40 MSTORE DUP1 MLOAD SWAP1 PUSH1 0x20 ADD KECCAK256 PUSH1 0x0 SHR PUSH2 0x755 SWAP2 SWAP1 PUSH2 0x1CAB JUMP JUMPDEST DUP7 MSTORE DUP5 MLOAD DUP5 MSTORE PUSH1 0x20 DUP6 DUP2 ADD MLOAD DUP6 DUP3 ADD MSTORE PUSH32 0xA01433A0FE4694F8849243E83615296B59398875FD602863D16925104DABA3B PUSH1 0x40 DUP1 DUP8 ADD SWAP2 SWAP1 SWAP2 MSTORE PUSH32 0x4C53D87C0EE4818CE3D5EC86261167A4E10178AA13A9FA7C434700078D203D7 PUSH1 0x60 DUP8 ADD MSTORE PUSH32 0x2926344383AD20F2F91BF79025581482BC4481E0349B15D9EE1CAF25B99423F0 PUSH1 0x80 DUP8 ADD MSTORE PUSH32 0x2C779B6BBD5B34CE9A51EC27B356540CA44648E63ED43F3485F142CC31811E9B PUSH1 0xA0 DUP8 ADD MSTORE PUSH1 0xC0 DUP7 ADD DUP6 SWAP1 MSTORE PUSH1 0xE0 DUP7 ADD DUP5 SWAP1 MSTORE PUSH32 0x2C9264B7730C34E1C98485FF0EFB8279B1045D581F45A0190F94339502A64123 PUSH2 0x100 DUP8 ADD MSTORE PUSH32 0x1AA8A3080FF0C35F3F055578D42A40DD72EFB3753A7244CF813B7012913EAD94 PUSH2 0x120 DUP8 ADD MSTORE PUSH32 0x2DE6ECD5B59C24AD3338D37FB3EFEF7EC275D587103811250D362FDCA20BF1F3 PUSH2 0x140 DUP8 ADD MSTORE PUSH32 0x279CA08E89073F4B832BA83244EDB104AB5EEE6EE35E7FF2F9AE32571EFC354D PUSH2 0x160 DUP8 ADD MSTORE MLOAD PUSH1 0x0 SWAP2 DUP2 PUSH2 0x180 DUP9 PUSH1 0x8 GAS STATICCALL SWAP1 MLOAD AND SWAP1 POP DUP1 PUSH2 0x8DB JUMPI PUSH1 0x40 MLOAD PUSH4 0x51D49FF7 PUSH1 0xE1 SHL DUP2 MSTORE PUSH1 0x4 ADD PUSH1 0x40 MLOAD DUP1 SWAP2 SUB SWAP1 REVERT JUMPDEST POP POP POP POP PUSH1 0x0 DUP1 PUSH2 0x8F8 DUP10 PUSH1 0x0 PUSH1 0x4 DUP2 LT PUSH2 0x6B8 JUMPI PUSH2 0x6B8 PUSH2 0x1BBA JUMP JUMPDEST SWAP1 SWAP3 POP SWAP1 POP PUSH1 0x0 DUP1 DUP1 DUP1 PUSH2 0x914 PUSH1 0x40 DUP15 ADD CALLDATALOAD PUSH1 0x20 DUP16 ADD CALLDATALOAD PUSH2 0x1426 JUMP JUMPDEST SWAP3 SWAP7 POP SWAP1 SWAP5 POP SWAP3 POP SWAP1 POP PUSH1 0x0 DUP1 PUSH2 0x92C DUP16 PUSH1 0x3 PUSH2 0x6B8 JUMP JUMPDEST SWAP2 POP SWAP2 POP PUSH1 0x0 DUP1 PUSH2 0x93E DUP15 DUP15 DUP15 PUSH2 0x103A JUMP JUMPDEST DUP12 DUP14 MSTORE PUSH1 0x20 DUP14 ADD DUP12 SWAP1 MSTORE PUSH1 0x40 DUP14 ADD DUP10 SWAP1 MSTORE PUSH1 0x60 DUP14 ADD DUP11 SWAP1 MSTORE PUSH1 0x80 DUP14 ADD DUP8 SWAP1 MSTORE PUSH1 0xA0 DUP14 ADD DUP9 SWAP1 MSTORE PUSH1 0xC0 DUP14 ADD DUP7 SWAP1 MSTORE PUSH1 0xE0 DUP14 ADD DUP6 SWAP1 MSTORE PUSH32 0x2AF093BC562F5BF0182EF6ACD13ACFFBC709389EF9929FE6714D2BDBE4C541BE PUSH2 0x100 DUP15 ADD MSTORE PUSH32 0x789D5FD7C55079BA6C639A409FAF6FA03D38A78FE820B9C4CDE95A1D1AD78DE PUSH2 0x120 DUP15 ADD MSTORE PUSH32 0x10F92A2F8ACF1F44BF4747C45F87862C4FB078DECC2B0E63FBDE35421E782A01 PUSH2 0x140 DUP15 ADD MSTORE PUSH32 0x12A923A1BBBD9441B6D4A4DF3402B7EA0A106CCA6CD76667663DA534AAD9F02 PUSH2 0x160 DUP15 ADD MSTORE PUSH32 0x2B7748AC78D66EE09E22930E69EA3A7CA97A643514AA6E013209C048E21D9C2B PUSH2 0x180 DUP15 ADD MSTORE PUSH32 0x18C51058219190B0880E142A4683C2317AEFF987B13DD913F702E05D92C52A1C PUSH2 0x1A0 DUP15 ADD MSTORE PUSH32 0x2107D33D60E3454820FCDC5E53A27DED25C0B37CB862880ACD1D55B70D7BB975 PUSH2 0x1C0 DUP15 ADD MSTORE PUSH32 0x11D3014EBE60AAF2DA05A539D82D356931C63F726DD8E0FB5175FB0073BEE67A PUSH2 0x1E0 DUP15 ADD MSTORE PUSH32 0x16981F5592B7B771DF507722C56B3BBA1E2D5DC343810FE671A70A8A57F8114 PUSH2 0x200 DUP15 ADD MSTORE PUSH32 0xA720AB658A9D650A3FD1A161C42ABE0E7E8BA07365E4FBE24243D567B8E9A06 PUSH2 0x220 DUP15 ADD MSTORE PUSH2 0x240 DUP14 ADD DUP3 SWAP1 MSTORE PUSH2 0x260 DUP14 ADD DUP2 SWAP1 MSTORE PUSH32 0x245830138AC037E0FB511AD518AA74433A57DF97C656B754F51BA354D014838C PUSH2 0x280 DUP15 ADD MSTORE PUSH32 0x303BA16EB1FA5161BE2722D59AFD0DCB268B75A2CE7FB4B822400C4488E83D77 PUSH2 0x2A0 DUP15 ADD MSTORE PUSH32 0x2F5AB50809B750F8EDD9D883ABBDC82D796CB6AA8E51C6EDCB30FE434FBD7CB7 PUSH2 0x2C0 DUP15 ADD MSTORE PUSH32 0xCA48A95CD1FB011AC7D006581BA80E52A73D5386CB8803AAB94A189B5440E0A PUSH2 0x2E0 DUP15 ADD MSTORE SWAP1 SWAP3 POP SWAP1 POP PUSH1 0x0 PUSH2 0xBB3 PUSH2 0x18F4 JUMP JUMPDEST PUSH1 0x20 DUP2 PUSH2 0x300 DUP16 PUSH1 0x8 GAS STATICCALL SWAP2 POP DUP2 ISZERO DUP1 PUSH2 0xBCF JUMPI POP DUP1 MLOAD PUSH1 0x1 EQ ISZERO JUMPDEST ISZERO PUSH2 0xBED JUMPI PUSH1 0x40 MLOAD PUSH4 0x1FF3747D PUSH1 0xE2 SHL DUP2 MSTORE PUSH1 0x4 ADD PUSH1 0x40 MLOAD DUP1 SWAP2 SUB SWAP1 REVERT JUMPDEST POP POP POP POP POP POP POP POP POP POP POP POP POP POP POP POP POP POP POP JUMP JUMPDEST PUSH1 0x0 PUSH1 0x0 DUP1 MLOAD PUSH1 0x20 PUSH2 0x1E6E DUP4 CODECOPY DUP2 MLOAD SWAP2 MSTORE DUP4 LT ISZERO DUP1 PUSH2 0xC2F JUMPI POP PUSH1 0x0 DUP1 MLOAD PUSH1 0x20 PUSH2 0x1E6E DUP4 CODECOPY DUP2 MLOAD SWAP2 MSTORE DUP3 LT ISZERO JUMPDEST ISZERO PUSH2 0xC4D JUMPI PUSH1 0x40 MLOAD PUSH4 0x1FF3747D PUSH1 0xE2 SHL DUP2 MSTORE PUSH1 0x4 ADD PUSH1 0x40 MLOAD DUP1 SWAP2 SUB SWAP1 REVERT JUMPDEST DUP3 ISZERO DUP1 ISZERO PUSH2 0xC59 JUMPI POP DUP2 ISZERO JUMPDEST ISZERO PUSH2 0xC66 JUMPI POP PUSH1 0x0 PUSH2 0xCF1 JUMP JUMPDEST PUSH1 0x0 PUSH2 0xCA5 PUSH1 0x0 DUP1 MLOAD PUSH1 0x20 PUSH2 0x1E6E DUP4 CODECOPY DUP2 MLOAD SWAP2 MSTORE PUSH1 0x3 PUSH1 0x0 DUP1 MLOAD PUSH1 0x20 PUSH2 0x1E6E DUP4 CODECOPY DUP2 MLOAD SWAP2 MSTORE DUP8 PUSH1 0x0 DUP1 MLOAD PUSH1 0x20 PUSH2 0x1E6E DUP4 CODECOPY DUP2 MLOAD SWAP2 MSTORE DUP10 DUP11 MULMOD MULMOD ADDMOD PUSH2 0x160C JUMP JUMPDEST SWAP1 POP DUP1 DUP4 SUB PUSH2 0xCBA JUMPI POP POP PUSH1 0x1 DUP3 SWAP1 SHL PUSH2 0xCF1 JUMP JUMPDEST PUSH2 0xCC3 DUP2 PUSH2 0x1670 JUMP JUMPDEST DUP4 SUB PUSH2 0xCD6 JUMPI POP POP PUSH1 0x1 DUP3 DUP2 SHL OR PUSH2 0xCF1 JUMP JUMPDEST PUSH1 0x40 MLOAD PUSH4 0x1FF3747D PUSH1 0xE2 SHL DUP2 MSTORE PUSH1 0x4 ADD PUSH1 0x40 MLOAD DUP1 SWAP2 SUB SWAP1 REVERT JUMPDEST POP JUMPDEST SWAP3 SWAP2 POP POP JUMP JUMPDEST PUSH1 0x0 DUP1 PUSH1 0x0 DUP1 MLOAD PUSH1 0x20 PUSH2 0x1E6E DUP4 CODECOPY DUP2 MLOAD SWAP2 MSTORE DUP7 LT ISZERO DUP1 PUSH2 0xD25 JUMPI POP PUSH1 0x0 DUP1 MLOAD PUSH1 0x20 PUSH2 0x1E6E DUP4 CODECOPY DUP2 MLOAD SWAP2 MSTORE DUP6 LT ISZERO JUMPDEST DUP1 PUSH2 0xD3E JUMPI POP PUSH1 0x0 DUP1 MLOAD PUSH1 0x20 PUSH2 0x1E6E DUP4 CODECOPY DUP2 MLOAD SWAP2 MSTORE DUP5 LT ISZERO JUMPDEST DUP1 PUSH2 0xD57 JUMPI POP PUSH1 0x0 DUP1 MLOAD PUSH1 0x20 PUSH2 0x1E6E DUP4 CODECOPY DUP2 MLOAD SWAP2 MSTORE DUP4 LT ISZERO JUMPDEST ISZERO PUSH2 0xD75 JUMPI PUSH1 0x40 MLOAD PUSH4 0x1FF3747D PUSH1 0xE2 SHL DUP2 MSTORE PUSH1 0x4 ADD PUSH1 0x40 MLOAD DUP1 SWAP2 SUB SWAP1 REVERT JUMPDEST DUP3 DUP5 DUP7 DUP9 OR OR OR PUSH1 0x0 SUB PUSH2 0xD8E JUMPI POP PUSH1 0x0 SWAP1 POP DUP1 PUSH2 0xFE5 JUMP JUMPDEST PUSH1 0x0 DUP1 DUP1 PUSH1 0x0 DUP1 MLOAD PUSH1 0x20 PUSH2 0x1E6E DUP4 CODECOPY DUP2 MLOAD SWAP2 MSTORE PUSH2 0xDBA PUSH1 0x3 PUSH1 0x0 DUP1 MLOAD PUSH1 0x20 PUSH2 0x1E6E DUP4 CODECOPY DUP2 MLOAD SWAP2 MSTORE PUSH2 0x1CCD JUMP JUMPDEST PUSH1 0x0 DUP1 MLOAD PUSH1 0x20 PUSH2 0x1E6E DUP4 CODECOPY DUP2 MLOAD SWAP2 MSTORE DUP11 DUP13 MULMOD MULMOD SWAP1 POP PUSH1 0x0 PUSH1 0x0 DUP1 MLOAD PUSH1 0x20 PUSH2 0x1E6E DUP4 CODECOPY DUP2 MLOAD SWAP2 MSTORE DUP11 PUSH1 0x0 DUP1 MLOAD PUSH1 0x20 PUSH2 0x1E6E DUP4 CODECOPY DUP2 MLOAD SWAP2 MSTORE DUP13 DUP14 MULMOD MULMOD SWAP1 POP PUSH1 0x0 PUSH1 0x0 DUP1 MLOAD PUSH1 0x20 PUSH2 0x1E6E DUP4 CODECOPY DUP2 MLOAD SWAP2 MSTORE DUP11 PUSH1 0x0 DUP1 MLOAD PUSH1 0x20 PUSH2 0x1E6E DUP4 CODECOPY DUP2 MLOAD SWAP2 MSTORE DUP13 DUP14 MULMOD MULMOD SWAP1 POP PUSH1 0x0 DUP1 MLOAD PUSH1 0x20 PUSH2 0x1E6E DUP4 CODECOPY DUP2 MLOAD SWAP2 MSTORE DUP1 PUSH1 0x0 DUP1 MLOAD PUSH1 0x20 PUSH2 0x1E6E DUP4 CODECOPY DUP2 MLOAD SWAP2 MSTORE DUP13 DUP7 MULMOD DUP5 ADDMOD PUSH32 0x2B149D40CEB8AAAE81BE18991BE06AC3B5B4C5E559DBEFA33267E6DC24A138E5 ADDMOD SWAP5 POP PUSH2 0xEB3 PUSH1 0x0 DUP1 MLOAD PUSH1 0x20 PUSH2 0x1E6E DUP4 CODECOPY DUP2 MLOAD SWAP2 MSTORE DUP1 PUSH1 0x0 DUP1 MLOAD PUSH1 0x20 PUSH2 0x1E6E DUP4 CODECOPY DUP2 MLOAD SWAP2 MSTORE DUP15 DUP8 MULMOD DUP5 ADDMOD PUSH32 0x2FCD3AC2A640A154EB23960892A85A68F031CA0C8344B23A577DCF1052B9E775 ADDMOD PUSH2 0x1670 JUMP JUMPDEST SWAP4 POP POP POP POP PUSH1 0x0 DUP1 PUSH2 0xF04 PUSH1 0x0 DUP1 MLOAD PUSH1 0x20 PUSH2 0x1E6E DUP4 CODECOPY DUP2 MLOAD SWAP2 MSTORE DUP1 PUSH2 0xEDA JUMPI PUSH2 0xEDA PUSH2 0x1C95 JUMP JUMPDEST PUSH1 0x0 DUP1 MLOAD PUSH1 0x20 PUSH2 0x1E6E DUP4 CODECOPY DUP2 MLOAD SWAP2 MSTORE DUP6 DUP7 MULMOD PUSH1 0x0 DUP1 MLOAD PUSH1 0x20 PUSH2 0x1E6E DUP4 CODECOPY DUP2 MLOAD SWAP2 MSTORE DUP8 DUP9 MULMOD ADDMOD PUSH2 0x160C JUMP JUMPDEST SWAP1 POP PUSH2 0xF51 PUSH1 0x0 DUP1 MLOAD PUSH1 0x20 PUSH2 0x1E6E DUP4 CODECOPY DUP2 MLOAD SWAP2 MSTORE PUSH32 0x183227397098D014DC2822DB40C0AC2ECBC0B548B438E5469E10460B6C3E7EA4 PUSH1 0x0 DUP1 MLOAD PUSH1 0x20 PUSH2 0x1E6E DUP4 CODECOPY DUP2 MLOAD SWAP2 MSTORE DUP5 DUP9 ADDMOD MULMOD PUSH2 0x1689 JUMP JUMPDEST ISZERO SWAP2 POP POP PUSH2 0xF60 DUP4 DUP4 DUP4 PUSH2 0x16D3 JUMP JUMPDEST SWAP1 SWAP4 POP SWAP2 POP DUP7 DUP4 EQ DUP1 ISZERO PUSH2 0xF73 JUMPI POP DUP2 DUP7 EQ JUMPDEST ISZERO PUSH2 0xF9D JUMPI DUP1 PUSH2 0xF84 JUMPI PUSH1 0x0 PUSH2 0xF87 JUMP JUMPDEST PUSH1 0x2 JUMPDEST PUSH1 0xFF AND PUSH1 0x2 DUP11 SWAP1 SHL OR PUSH1 0x0 OR SWAP5 POP DUP8 SWAP4 POP PUSH2 0xFE1 JUMP JUMPDEST PUSH2 0xFA6 DUP4 PUSH2 0x1670 JUMP JUMPDEST DUP8 EQ DUP1 ISZERO PUSH2 0xFBB JUMPI POP PUSH2 0xFB8 DUP3 PUSH2 0x1670 JUMP JUMPDEST DUP7 EQ JUMPDEST ISZERO PUSH2 0xCD6 JUMPI DUP1 PUSH2 0xFCC JUMPI PUSH1 0x0 PUSH2 0xFCF JUMP JUMPDEST PUSH1 0x2 JUMPDEST PUSH1 0xFF AND PUSH1 0x2 DUP11 SWAP1 SHL OR PUSH1 0x1 OR SWAP5 POP DUP8 SWAP4 POP JUMPDEST POP POP POP JUMPDEST SWAP5 POP SWAP5 SWAP3 POP POP POP JUMP JUMPDEST PUSH2 0xFF6 PUSH2 0x194F JUMP JUMPDEST PUSH2 0xFFE PUSH2 0x1912 JUMP JUMPDEST PUSH2 0x1006 PUSH2 0x1912 JUMP JUMPDEST PUSH2 0x1012 DUP5 DUP7 ADD DUP7 PUSH2 0x1D83 JUMP JUMPDEST SWAP3 POP SWAP3 POP SWAP3 POP SWAP3 POP SWAP3 POP SWAP3 JUMP JUMPDEST PUSH2 0x1027 PUSH2 0x18D6 JUMP JUMPDEST PUSH2 0x1033 DUP3 DUP5 ADD DUP5 PUSH2 0x1E05 JUMP JUMPDEST SWAP4 SWAP3 POP POP POP JUMP JUMPDEST PUSH1 0x0 DUP1 PUSH1 0x0 PUSH1 0x1 SWAP1 POP PUSH1 0x40 MLOAD PUSH1 0x40 DUP2 ADD PUSH1 0x0 PUSH32 0x21258E05459E27E1BAE34F9EEB6A862382590C267F2CCF3CCDD796CD1BA08350 DUP4 MSTORE PUSH32 0xAF44B65DD35E27E592B9D6E248292C466537A45CB52787BAE4D5B5591889157 PUSH1 0x20 DUP5 ADD MSTORE DUP7 MLOAD DUP3 MSTORE PUSH1 0x20 DUP8 ADD MLOAD PUSH1 0x20 DUP4 ADD MSTORE PUSH1 0x40 DUP4 PUSH1 0x80 DUP6 PUSH1 0x6 GAS STATICCALL DUP5 AND SWAP4 POP PUSH32 0x3C4BC159C6596DF9B30819B1F7D83407454D4958C6A783D37AF377BE565B459 DUP3 MSTORE PUSH32 0x2092A465FF77E908032E7C895608B21E0D0476C5326F8D9F13BA94378C39845B PUSH1 0x20 DUP4 ADD MSTORE DUP9 CALLDATALOAD SWAP1 POP DUP1 PUSH1 0x40 DUP4 ADD MSTORE PUSH1 0x0 DUP1 MLOAD PUSH1 0x20 PUSH2 0x1E8E DUP4 CODECOPY DUP2 MLOAD SWAP2 MSTORE DUP2 LT DUP5 AND SWAP4 POP PUSH1 0x40 DUP3 PUSH1 0x60 DUP5 PUSH1 0x7 GAS STATICCALL DUP5 AND SWAP4 POP PUSH1 0x40 DUP4 PUSH1 0x80 DUP6 PUSH1 0x6 GAS STATICCALL DUP5 AND SWAP4 POP PUSH32 0x1BF9A7542920569C876CD37A875984BE113C87E390BF57EF7B9D36F107D2D57F DUP3 MSTORE PUSH32 0x2FE1B6F875F207DC852B736C6C25452C2664877A4540BE7CF780E87F7CA5DCD3 PUSH1 0x20 DUP4 ADD MSTORE PUSH1 0x20 DUP10 ADD CALLDATALOAD SWAP1 POP DUP1 PUSH1 0x40 DUP4 ADD MSTORE PUSH1 0x0 DUP1 MLOAD PUSH1 0x20 PUSH2 0x1E8E DUP4 CODECOPY DUP2 MLOAD SWAP2 MSTORE DUP2 LT DUP5 AND SWAP4 POP PUSH1 0x40 DUP3 PUSH1 0x60 DUP5 PUSH1 0x7 GAS STATICCALL DUP5 AND SWAP4 POP PUSH1 0x40 DUP4 PUSH1 0x80 DUP6 PUSH1 0x6 GAS STATICCALL DUP5 AND SWAP4 POP PUSH32 0x1B6E9999FED3F38F333F7A63A62DF834B53D4905BD8194293FC79EA2CB9F37F5 DUP3 MSTORE PUSH32 0x2700F6DF44E9CAC9D2177CCBE776720689C717FBC125EC263567F3706A5B3FBF PUSH1 0x20 DUP4 ADD MSTORE PUSH1 0x40 DUP10 ADD CALLDATALOAD SWAP1 POP DUP1 PUSH1 0x40 DUP4 ADD MSTORE PUSH1 0x0 DUP1 MLOAD PUSH1 0x20 PUSH2 0x1E8E DUP4 CODECOPY DUP2 MLOAD SWAP2 MSTORE DUP2 LT DUP5 AND SWAP4 POP PUSH1 0x40 DUP3 PUSH1 0x60 DUP5 PUSH1 0x7 GAS STATICCALL DUP5 AND SWAP4 POP PUSH1 0x40 DUP4 PUSH1 0x80 DUP6 PUSH1 0x6 GAS STATICCALL DUP5 AND SWAP4 POP PUSH32 0x2454CE08C65D3302DDC03B3C741B0C571724C53F814004BF5A01FEE9430E3D5E DUP3 MSTORE PUSH32 0x2ECA51AFFB7688A81F2631944EBD223A1D627545FE34F6DB432AAE7DFB3E89C6 PUSH1 0x20 DUP4 ADD MSTORE PUSH1 0x60 DUP10 ADD CALLDATALOAD SWAP1 POP DUP1 PUSH1 0x40 DUP4 ADD MSTORE PUSH1 0x0 DUP1 MLOAD PUSH1 0x20 PUSH2 0x1E8E DUP4 CODECOPY DUP2 MLOAD SWAP2 MSTORE DUP2 LT DUP5 AND SWAP4 POP PUSH1 0x40 DUP3 PUSH1 0x60 DUP5 PUSH1 0x7 GAS STATICCALL DUP5 AND SWAP4 POP PUSH1 0x40 DUP4 PUSH1 0x80 DUP6 PUSH1 0x6 GAS STATICCALL PUSH32 0x2E5FE3C7E653EBA8771F3B296DD2829F34A08AAC429710667A35C70B1B64CA8D DUP4 MSTORE PUSH32 0x1C62CB41D3C8A72A11AAD3D265431FA10E6F28906FDA1E966B6BD4CE21E6FFBD PUSH1 0x20 DUP5 ADD MSTORE DUP9 MLOAD PUSH1 0x40 DUP1 DUP6 ADD DUP3 SWAP1 MSTORE PUSH1 0x0 DUP1 MLOAD PUSH1 0x20 PUSH2 0x1E8E DUP4 CODECOPY DUP2 MLOAD SWAP2 MSTORE SWAP1 SWAP2 LT SWAP2 SWAP1 SWAP6 AND AND SWAP4 SWAP1 POP DUP2 PUSH1 0x60 DUP2 PUSH1 0x7 GAS STATICCALL DUP4 AND SWAP3 POP POP PUSH1 0x40 DUP2 PUSH1 0x80 DUP4 PUSH1 0x6 GAS STATICCALL DUP2 MLOAD PUSH1 0x20 SWAP1 SWAP3 ADD MLOAD SWAP2 SWAP5 POP SWAP1 SWAP3 POP AND DUP1 PUSH2 0x1377 JUMPI PUSH1 0x40 MLOAD PUSH4 0xA54F8E27 PUSH1 0xE0 SHL DUP2 MSTORE PUSH1 0x4 ADD PUSH1 0x40 MLOAD DUP1 SWAP2 SUB SWAP1 REVERT JUMPDEST POP SWAP4 POP SWAP4 SWAP2 POP POP JUMP JUMPDEST PUSH1 0x0 DUP1 DUP3 PUSH1 0x0 SUB PUSH2 0x1396 JUMPI POP PUSH1 0x0 SWAP3 DUP4 SWAP3 POP SWAP1 POP JUMP JUMPDEST PUSH1 0x1 DUP4 DUP2 SHR SWAP3 POP DUP1 DUP5 AND EQ PUSH1 0x0 DUP1 MLOAD PUSH1 0x20 PUSH2 0x1E6E DUP4 CODECOPY DUP2 MLOAD SWAP2 MSTORE DUP4 LT PUSH2 0x13CF JUMPI PUSH1 0x40 MLOAD PUSH4 0x1FF3747D PUSH1 0xE2 SHL DUP2 MSTORE PUSH1 0x4 ADD PUSH1 0x40 MLOAD DUP1 SWAP2 SUB SWAP1 REVERT JUMPDEST PUSH2 0x140C PUSH1 0x0 DUP1 MLOAD PUSH1 0x20 PUSH2 0x1E6E DUP4 CODECOPY DUP2 MLOAD SWAP2 MSTORE PUSH1 0x3 PUSH1 0x0 DUP1 MLOAD PUSH1 0x20 PUSH2 0x1E6E DUP4 CODECOPY DUP2 MLOAD SWAP2 MSTORE DUP7 PUSH1 0x0 DUP1 MLOAD PUSH1 0x20 PUSH2 0x1E6E DUP4 CODECOPY DUP2 MLOAD SWAP2 MSTORE DUP9 DUP10 MULMOD MULMOD ADDMOD PUSH2 0x160C JUMP JUMPDEST SWAP2 POP DUP1 ISZERO PUSH2 0x1420 JUMPI PUSH2 0x141D DUP3 PUSH2 0x1670 JUMP JUMPDEST SWAP2 POP JUMPDEST POP SWAP2 POP SWAP2 JUMP JUMPDEST PUSH1 0x0 DUP1 DUP1 DUP1 DUP6 ISZERO DUP1 ISZERO PUSH2 0x1437 JUMPI POP DUP5 ISZERO JUMPDEST ISZERO PUSH2 0x144D JUMPI POP PUSH1 0x0 SWAP3 POP DUP3 SWAP2 POP DUP2 SWAP1 POP DUP1 PUSH2 0x1603 JUMP JUMPDEST PUSH1 0x2 DUP7 DUP2 SHR SWAP5 POP DUP6 SWAP4 POP PUSH1 0x1 DUP1 DUP9 AND EQ SWAP1 DUP1 DUP9 AND EQ PUSH1 0x0 DUP1 MLOAD PUSH1 0x20 PUSH2 0x1E6E DUP4 CODECOPY DUP2 MLOAD SWAP2 MSTORE DUP7 LT ISZERO DUP1 PUSH2 0x148D JUMPI POP PUSH1 0x0 DUP1 MLOAD PUSH1 0x20 PUSH2 0x1E6E DUP4 CODECOPY DUP2 MLOAD SWAP2 MSTORE DUP6 LT ISZERO JUMPDEST ISZERO PUSH2 0x14AB JUMPI PUSH1 0x40 MLOAD PUSH4 0x1FF3747D PUSH1 0xE2 SHL DUP2 MSTORE PUSH1 0x4 ADD PUSH1 0x40 MLOAD DUP1 SWAP2 SUB SWAP1 REVERT JUMPDEST PUSH1 0x0 PUSH1 0x0 DUP1 MLOAD PUSH1 0x20 PUSH2 0x1E6E DUP4 CODECOPY DUP2 MLOAD SWAP2 MSTORE PUSH2 0x14D5 PUSH1 0x3 PUSH1 0x0 DUP1 MLOAD PUSH1 0x20 PUSH2 0x1E6E DUP4 CODECOPY DUP2 MLOAD SWAP2 MSTORE PUSH2 0x1CCD JUMP JUMPDEST PUSH1 0x0 DUP1 MLOAD PUSH1 0x20 PUSH2 0x1E6E DUP4 CODECOPY DUP2 MLOAD SWAP2 MSTORE DUP9 DUP11 MULMOD MULMOD SWAP1 POP PUSH1 0x0 PUSH1 0x0 DUP1 MLOAD PUSH1 0x20 PUSH2 0x1E6E DUP4 CODECOPY DUP2 MLOAD SWAP2 MSTORE DUP9 PUSH1 0x0 DUP1 MLOAD PUSH1 0x20 PUSH2 0x1E6E DUP4 CODECOPY DUP2 MLOAD SWAP2 MSTORE DUP11 DUP12 MULMOD MULMOD SWAP1 POP PUSH1 0x0 PUSH1 0x0 DUP1 MLOAD PUSH1 0x20 PUSH2 0x1E6E DUP4 CODECOPY DUP2 MLOAD SWAP2 MSTORE DUP9 PUSH1 0x0 DUP1 MLOAD PUSH1 0x20 PUSH2 0x1E6E DUP4 CODECOPY DUP2 MLOAD SWAP2 MSTORE DUP11 DUP12 MULMOD MULMOD SWAP1 POP PUSH1 0x0 DUP1 MLOAD PUSH1 0x20 PUSH2 0x1E6E DUP4 CODECOPY DUP2 MLOAD SWAP2 MSTORE DUP1 PUSH1 0x0 DUP1 MLOAD PUSH1 0x20 PUSH2 0x1E6E DUP4 CODECOPY DUP2 MLOAD SWAP2 MSTORE DUP11 DUP7 MULMOD DUP5 ADDMOD PUSH32 0x2B149D40CEB8AAAE81BE18991BE06AC3B5B4C5E559DBEFA33267E6DC24A138E5 ADDMOD SWAP7 POP PUSH2 0x15CE PUSH1 0x0 DUP1 MLOAD PUSH1 0x20 PUSH2 0x1E6E DUP4 CODECOPY DUP2 MLOAD SWAP2 MSTORE DUP1 PUSH1 0x0 DUP1 MLOAD PUSH1 0x20 PUSH2 0x1E6E DUP4 CODECOPY DUP2 MLOAD SWAP2 MSTORE DUP13 DUP8 MULMOD DUP5 ADDMOD PUSH32 0x2FCD3AC2A640A154EB23960892A85A68F031CA0C8344B23A577DCF1052B9E775 ADDMOD PUSH2 0x1670 JUMP JUMPDEST SWAP6 POP PUSH2 0x15DB DUP8 DUP8 DUP7 PUSH2 0x16D3 JUMP JUMPDEST SWAP1 SWAP8 POP SWAP6 POP DUP5 ISZERO PUSH2 0x15FD JUMPI PUSH2 0x15EF DUP8 PUSH2 0x1670 JUMP JUMPDEST SWAP7 POP PUSH2 0x15FA DUP7 PUSH2 0x1670 JUMP JUMPDEST SWAP6 POP JUMPDEST POP POP POP POP POP JUMPDEST SWAP3 SWAP6 SWAP2 SWAP5 POP SWAP3 POP JUMP JUMPDEST PUSH1 0x0 PUSH2 0x1638 DUP3 PUSH32 0xC19139CB84C680A6E14116DA060561765E05AA45A1C72A34F082305B61F3F52 PUSH2 0x1811 JUMP JUMPDEST SWAP1 POP DUP2 PUSH1 0x0 DUP1 MLOAD PUSH1 0x20 PUSH2 0x1E6E DUP4 CODECOPY DUP2 MLOAD SWAP2 MSTORE DUP3 DUP4 MULMOD EQ PUSH2 0x166B JUMPI PUSH1 0x40 MLOAD PUSH4 0x1FF3747D PUSH1 0xE2 SHL DUP2 MSTORE PUSH1 0x4 ADD PUSH1 0x40 MLOAD DUP1 SWAP2 SUB SWAP1 REVERT JUMPDEST SWAP2 SWAP1 POP JUMP JUMPDEST PUSH1 0x0 DUP1 MLOAD PUSH1 0x20 PUSH2 0x1E6E DUP4 CODECOPY DUP2 MLOAD SWAP2 MSTORE SWAP1 DUP2 SWAP1 MOD DUP2 SUB MOD SWAP1 JUMP JUMPDEST PUSH1 0x0 DUP1 PUSH2 0x16B6 DUP4 PUSH32 0xC19139CB84C680A6E14116DA060561765E05AA45A1C72A34F082305B61F3F52 PUSH2 0x1811 JUMP JUMPDEST SWAP1 POP DUP3 PUSH1 0x0 DUP1 MLOAD PUSH1 0x20 PUSH2 0x1E6E DUP4 CODECOPY DUP2 MLOAD SWAP2 MSTORE DUP3 DUP4 MULMOD EQ SWAP4 SWAP3 POP POP POP JUMP JUMPDEST PUSH1 0x0 DUP1 DUP1 PUSH2 0x1705 PUSH1 0x0 DUP1 MLOAD PUSH1 0x20 PUSH2 0x1E6E DUP4 CODECOPY DUP2 MLOAD SWAP2 MSTORE DUP1 DUP8 DUP9 MULMOD PUSH1 0x0 DUP1 MLOAD PUSH1 0x20 PUSH2 0x1E6E DUP4 CODECOPY DUP2 MLOAD SWAP2 MSTORE DUP10 DUP11 MULMOD ADDMOD PUSH2 0x160C JUMP JUMPDEST SWAP1 POP DUP4 ISZERO PUSH2 0x1719 JUMPI PUSH2 0x1716 DUP2 PUSH2 0x1670 JUMP JUMPDEST SWAP1 POP JUMPDEST PUSH2 0x1764 PUSH1 0x0 DUP1 MLOAD PUSH1 0x20 PUSH2 0x1E6E DUP4 CODECOPY DUP2 MLOAD SWAP2 MSTORE PUSH32 0x183227397098D014DC2822DB40C0AC2ECBC0B548B438E5469E10460B6C3E7EA4 PUSH1 0x0 DUP1 MLOAD PUSH1 0x20 PUSH2 0x1E6E DUP4 CODECOPY DUP2 MLOAD SWAP2 MSTORE DUP5 DUP11 ADDMOD MULMOD PUSH2 0x160C JUMP JUMPDEST SWAP3 POP PUSH1 0x0 DUP1 MLOAD PUSH1 0x20 PUSH2 0x1E6E DUP4 CODECOPY DUP2 MLOAD SWAP2 MSTORE PUSH2 0x1790 PUSH1 0x0 DUP1 MLOAD PUSH1 0x20 PUSH2 0x1E6E DUP4 CODECOPY DUP2 MLOAD SWAP2 MSTORE PUSH1 0x2 DUP7 MULMOD PUSH2 0x1876 JUMP JUMPDEST DUP7 MULMOD SWAP2 POP PUSH1 0x0 DUP1 MLOAD PUSH1 0x20 PUSH2 0x1E6E DUP4 CODECOPY DUP2 MLOAD SWAP2 MSTORE PUSH2 0x17BD PUSH1 0x0 DUP1 MLOAD PUSH1 0x20 PUSH2 0x1E6E DUP4 CODECOPY DUP2 MLOAD SWAP2 MSTORE DUP5 DUP6 MULMOD PUSH2 0x1670 JUMP JUMPDEST PUSH1 0x0 DUP1 MLOAD PUSH1 0x20 PUSH2 0x1E6E DUP4 CODECOPY DUP2 MLOAD SWAP2 MSTORE DUP6 DUP7 MULMOD ADDMOD DUP7 EQ ISZERO DUP1 PUSH2 0x17F3 JUMPI POP PUSH1 0x0 DUP1 MLOAD PUSH1 0x20 PUSH2 0x1E6E DUP4 CODECOPY DUP2 MLOAD SWAP2 MSTORE DUP1 DUP4 DUP6 MULMOD PUSH1 0x2 MULMOD DUP6 EQ ISZERO JUMPDEST ISZERO PUSH2 0x1377 JUMPI PUSH1 0x40 MLOAD PUSH4 0x1FF3747D PUSH1 0xE2 SHL DUP2 MSTORE PUSH1 0x4 ADD PUSH1 0x40 MLOAD DUP1 SWAP2 SUB SWAP1 REVERT JUMPDEST PUSH1 0x0 DUP1 PUSH1 0x40 MLOAD PUSH1 0x20 DUP2 MSTORE PUSH1 0x20 DUP1 DUP3 ADD MSTORE PUSH1 0x20 PUSH1 0x40 DUP3 ADD MSTORE DUP5 PUSH1 0x60 DUP3 ADD MSTORE DUP4 PUSH1 0x80 DUP3 ADD MSTORE PUSH1 0x0 DUP1 MLOAD PUSH1 0x20 PUSH2 0x1E6E DUP4 CODECOPY DUP2 MLOAD SWAP2 MSTORE PUSH1 0xA0 DUP3 ADD MSTORE PUSH1 0x20 DUP2 PUSH1 0xC0 DUP4 PUSH1 0x5 GAS STATICCALL SWAP1 MLOAD SWAP3 POP SWAP1 POP DUP1 PUSH2 0xCEF JUMPI PUSH1 0x40 MLOAD PUSH4 0x1FF3747D PUSH1 0xE2 SHL DUP2 MSTORE PUSH1 0x4 ADD PUSH1 0x40 MLOAD DUP1 SWAP2 SUB SWAP1 REVERT JUMPDEST PUSH1 0x0 PUSH2 0x18A2 DUP3 PUSH32 0x30644E72E131A029B85045B68181585D97816A916871CA8D3C208C16D87CFD45 PUSH2 0x1811 JUMP JUMPDEST SWAP1 POP PUSH1 0x0 DUP1 MLOAD PUSH1 0x20 PUSH2 0x1E6E DUP4 CODECOPY DUP2 MLOAD SWAP2 MSTORE DUP2 DUP4 MULMOD PUSH1 0x1 EQ PUSH2 0x166B JUMPI PUSH1 0x40 MLOAD PUSH4 0x1FF3747D PUSH1 0xE2 SHL DUP2 MSTORE PUSH1 0x4 ADD PUSH1 0x40 MLOAD DUP1 SWAP2 SUB SWAP1 REVERT JUMPDEST PUSH1 0x40 MLOAD DUP1 PUSH1 0x80 ADD PUSH1 0x40 MSTORE DUP1 PUSH1 0x4 SWAP1 PUSH1 0x20 DUP3 MUL DUP1 CALLDATASIZE DUP4 CALLDATACOPY POP SWAP2 SWAP3 SWAP2 POP POP JUMP JUMPDEST PUSH1 0x40 MLOAD DUP1 PUSH1 0x20 ADD PUSH1 0x40 MSTORE DUP1 PUSH1 0x1 SWAP1 PUSH1 0x20 DUP3 MUL DUP1 CALLDATASIZE DUP4 CALLDATACOPY POP SWAP2 SWAP3 SWAP2 POP POP JUMP JUMPDEST PUSH1 0x40 MLOAD DUP1 PUSH1 0x40 ADD PUSH1 0x40 MSTORE DUP1 PUSH1 0x2 SWAP1 PUSH1 0x20 DUP3 MUL DUP1 CALLDATASIZE DUP4 CALLDATACOPY POP SWAP2 SWAP3 SWAP2 POP POP JUMP JUMPDEST PUSH1 0x40 MLOAD DUP1 PUSH2 0x300 ADD PUSH1 0x40 MSTORE DUP1 PUSH1 0x18 SWAP1 PUSH1 0x20 DUP3 MUL DUP1 CALLDATASIZE DUP4 CALLDATACOPY POP SWAP2 SWAP3 SWAP2 POP POP JUMP JUMPDEST PUSH1 0x40 MLOAD DUP1 PUSH2 0x100 ADD PUSH1 0x40 MSTORE DUP1 PUSH1 0x8 SWAP1 PUSH1 0x20 DUP3 MUL DUP1 CALLDATASIZE DUP4 CALLDATACOPY POP SWAP2 SWAP3 SWAP2 POP POP JUMP JUMPDEST DUP1 PUSH2 0x100 DUP2 ADD DUP4 LT ISZERO PUSH2 0xCF1 JUMPI PUSH1 0x0 DUP1 REVERT JUMPDEST DUP1 PUSH1 0x40 DUP2 ADD DUP4 LT ISZERO PUSH2 0xCF1 JUMPI PUSH1 0x0 DUP1 REVERT JUMPDEST PUSH1 0x0 DUP1 PUSH1 0x0 PUSH2 0x180 DUP5 DUP7 SUB SLT ISZERO PUSH2 0x19A7 JUMPI PUSH1 0x0 DUP1 REVERT JUMPDEST PUSH2 0x19B1 DUP6 DUP6 PUSH2 0x196E JUMP JUMPDEST SWAP3 POP PUSH2 0x19C1 DUP6 PUSH2 0x100 DUP7 ADD PUSH2 0x1980 JUMP JUMPDEST SWAP2 POP PUSH2 0x19D1 DUP6 PUSH2 0x140 DUP7 ADD PUSH2 0x1980 JUMP JUMPDEST SWAP1 POP SWAP3 POP SWAP3 POP SWAP3 JUMP JUMPDEST DUP1 PUSH1 0x0 JUMPDEST PUSH1 0x4 DUP2 LT ISZERO PUSH2 0x19FD JUMPI DUP2 MLOAD DUP5 MSTORE PUSH1 0x20 SWAP4 DUP5 ADD SWAP4 SWAP1 SWAP2 ADD SWAP1 PUSH1 0x1 ADD PUSH2 0x19DE JUMP JUMPDEST POP POP POP POP JUMP JUMPDEST PUSH1 0xC0 DUP2 ADD PUSH2 0x1A11 DUP3 DUP7 PUSH2 0x19DA JUMP JUMPDEST PUSH1 0x80 DUP3 ADD DUP5 PUSH1 0x0 JUMPDEST PUSH1 0x1 DUP2 LT ISZERO PUSH2 0x1A38 JUMPI DUP2 MLOAD DUP4 MSTORE PUSH1 0x20 SWAP3 DUP4 ADD SWAP3 SWAP1 SWAP2 ADD SWAP1 PUSH1 0x1 ADD PUSH2 0x1A19 JUMP JUMPDEST POP POP POP DUP3 PUSH1 0xA0 DUP4 ADD MSTORE SWAP5 SWAP4 POP POP POP POP JUMP JUMPDEST PUSH1 0x0 DUP1 DUP4 PUSH1 0x1F DUP5 ADD SLT PUSH2 0x1A5B JUMPI PUSH1 0x0 DUP1 REVERT JUMPDEST POP DUP2 CALLDATALOAD PUSH8 0xFFFFFFFFFFFFFFFF DUP2 GT ISZERO PUSH2 0x1A73 JUMPI PUSH1 0x0 DUP1 REVERT JUMPDEST PUSH1 0x20 DUP4 ADD SWAP2 POP DUP4 PUSH1 0x20 DUP3 DUP6 ADD ADD GT ISZERO PUSH2 0x1A8B JUMPI PUSH1 0x0 DUP1 REVERT JUMPDEST SWAP3 POP SWAP3 SWAP1 POP JUMP JUMPDEST PUSH1 0x0 DUP1 PUSH1 0x0 DUP1 PUSH1 0x40 DUP6 DUP8 SUB SLT ISZERO PUSH2 0x1AA8 JUMPI PUSH1 0x0 DUP1 REVERT JUMPDEST DUP5 CALLDATALOAD PUSH8 0xFFFFFFFFFFFFFFFF DUP2 GT ISZERO PUSH2 0x1ABF JUMPI PUSH1 0x0 DUP1 REVERT JUMPDEST PUSH2 0x1ACB DUP8 DUP3 DUP9 ADD PUSH2 0x1A49 JUMP JUMPDEST SWAP1 SWAP6 POP SWAP4 POP POP PUSH1 0x20 DUP6 ADD CALLDATALOAD PUSH8 0xFFFFFFFFFFFFFFFF DUP2 GT ISZERO PUSH2 0x1AEB JUMPI PUSH1 0x0 DUP1 REVERT JUMPDEST PUSH2 0x1AF7 DUP8 DUP3 DUP9 ADD PUSH2 0x1A49 JUMP JUMPDEST SWAP6 SWAP9 SWAP5 SWAP8 POP SWAP6 POP POP POP POP JUMP JUMPDEST DUP1 PUSH1 0x80 DUP2 ADD DUP4 LT ISZERO PUSH2 0xCF1 JUMPI PUSH1 0x0 DUP1 REVERT JUMPDEST PUSH1 0x0 DUP1 PUSH1 0x0 DUP1 PUSH2 0x200 DUP6 DUP8 SUB SLT ISZERO PUSH2 0x1B2B JUMPI PUSH1 0x0 DUP1 REVERT JUMPDEST PUSH2 0x1B35 DUP7 DUP7 PUSH2 0x196E JUMP JUMPDEST SWAP4 POP PUSH2 0x1B45 DUP7 PUSH2 0x100 DUP8 ADD PUSH2 0x1980 JUMP JUMPDEST SWAP3 POP PUSH2 0x1B55 DUP7 PUSH2 0x140 DUP8 ADD PUSH2 0x1980 JUMP JUMPDEST SWAP2 POP PUSH2 0x1B65 DUP7 PUSH2 0x180 DUP8 ADD PUSH2 0x1B03 JUMP JUMPDEST SWAP1 POP SWAP3 SWAP6 SWAP2 SWAP5 POP SWAP3 POP JUMP JUMPDEST PUSH1 0x0 DUP1 PUSH1 0x0 DUP1 PUSH2 0x140 DUP6 DUP8 SUB SLT ISZERO PUSH2 0x1B87 JUMPI PUSH1 0x0 DUP1 REVERT JUMPDEST PUSH2 0x1B91 DUP7 DUP7 PUSH2 0x1B03 JUMP JUMPDEST SWAP4 POP PUSH1 0xA0 DUP6 ADD DUP7 DUP2 GT ISZERO PUSH2 0x1BA4 JUMPI PUSH1 0x0 DUP1 REVERT JUMPDEST PUSH1 0x80 DUP7 ADD SWAP4 POP CALLDATALOAD SWAP2 POP PUSH2 0x1B65 DUP7 PUSH1 0xC0 DUP8 ADD PUSH2 0x1B03 JUMP JUMPDEST PUSH4 0x4E487B71 PUSH1 0xE0 SHL PUSH1 0x0 MSTORE PUSH1 0x32 PUSH1 0x4 MSTORE PUSH1 0x24 PUSH1 0x0 REVERT JUMPDEST DUP1 PUSH1 0x0 JUMPDEST PUSH1 0x2 DUP2 LT ISZERO PUSH2 0x19FD JUMPI DUP2 MLOAD DUP5 MSTORE PUSH1 0x20 SWAP4 DUP5 ADD SWAP4 SWAP1 SWAP2 ADD SWAP1 PUSH1 0x1 ADD PUSH2 0x1BD4 JUMP JUMPDEST PUSH2 0x200 DUP2 ADD DUP2 DUP7 PUSH1 0x0 JUMPDEST PUSH1 0x8 DUP2 LT ISZERO PUSH2 0x1C1C JUMPI DUP2 MLOAD DUP4 MSTORE PUSH1 0x20 SWAP3 DUP4 ADD SWAP3 SWAP1 SWAP2 ADD SWAP1 PUSH1 0x1 ADD PUSH2 0x1BFD JUMP JUMPDEST POP POP POP PUSH2 0x1C2D PUSH2 0x100 DUP4 ADD DUP7 PUSH2 0x1BD0 JUMP JUMPDEST PUSH2 0x1C3B PUSH2 0x140 DUP4 ADD DUP6 PUSH2 0x1BD0 JUMP JUMPDEST PUSH2 0x1C49 PUSH2 0x180 DUP4 ADD DUP5 PUSH2 0x19DA JUMP JUMPDEST SWAP6 SWAP5 POP POP POP POP POP JUMP JUMPDEST DUP4 DUP2 MSTORE DUP3 PUSH1 0x20 DUP3 ADD MSTORE PUSH1 0x0 PUSH1 0x40 DUP3 ADD DUP4 MLOAD PUSH1 0x20 DUP6 ADD PUSH1 0x0 JUMPDEST DUP3 DUP2 LT ISZERO PUSH2 0x1C88 JUMPI DUP2 MLOAD DUP5 MSTORE PUSH1 0x20 SWAP4 DUP5 ADD SWAP4 SWAP1 SWAP2 ADD SWAP1 PUSH1 0x1 ADD PUSH2 0x1C6A JUMP JUMPDEST POP SWAP2 SWAP8 SWAP7 POP POP POP POP POP POP POP JUMP JUMPDEST PUSH4 0x4E487B71 PUSH1 0xE0 SHL PUSH1 0x0 MSTORE PUSH1 0x12 PUSH1 0x4 MSTORE PUSH1 0x24 PUSH1 0x0 REVERT JUMPDEST PUSH1 0x0 DUP3 PUSH2 0x1CC8 JUMPI PUSH4 0x4E487B71 PUSH1 0xE0 SHL PUSH1 0x0 MSTORE PUSH1 0x12 PUSH1 0x4 MSTORE PUSH1 0x24 PUSH1 0x0 REVERT JUMPDEST POP MOD SWAP1 JUMP JUMPDEST DUP2 DUP2 SUB DUP2 DUP2 GT ISZERO PUSH2 0xCF1 JUMPI PUSH4 0x4E487B71 PUSH1 0xE0 SHL PUSH1 0x0 MSTORE PUSH1 0x11 PUSH1 0x4 MSTORE PUSH1 0x24 PUSH1 0x0 REVERT JUMPDEST PUSH1 0x40 MLOAD PUSH1 0x1F DUP3 ADD PUSH1 0x1F NOT AND DUP2 ADD PUSH8 0xFFFFFFFFFFFFFFFF DUP2 GT DUP3 DUP3 LT OR ISZERO PUSH2 0x1D25 JUMPI PUSH4 0x4E487B71 PUSH1 0xE0 SHL PUSH1 0x0 MSTORE PUSH1 0x41 PUSH1 0x4 MSTORE PUSH1 0x24 PUSH1 0x0 REVERT JUMPDEST PUSH1 0x40 MSTORE SWAP2 SWAP1 POP JUMP JUMPDEST PUSH1 0x0 DUP3 PUSH1 0x1F DUP4 ADD SLT PUSH2 0x1D3E JUMPI PUSH1 0x0 DUP1 REVERT JUMPDEST PUSH1 0x0 PUSH2 0x1D4A PUSH1 0x40 PUSH2 0x1CEE JUMP JUMPDEST SWAP1 POP DUP1 PUSH1 0x40 DUP5 ADD DUP6 DUP2 GT ISZERO PUSH2 0x1D5E JUMPI PUSH1 0x0 DUP1 REVERT JUMPDEST DUP5 JUMPDEST DUP2 DUP2 LT ISZERO PUSH2 0x1D78 JUMPI DUP1 CALLDATALOAD DUP4 MSTORE PUSH1 0x20 SWAP3 DUP4 ADD SWAP3 ADD PUSH2 0x1D60 JUMP JUMPDEST POP SWAP2 SWAP6 SWAP5 POP POP POP POP POP JUMP JUMPDEST PUSH1 0x0 DUP1 PUSH1 0x0 PUSH2 0x180 DUP5 DUP7 SUB SLT ISZERO PUSH2 0x1D99 JUMPI PUSH1 0x0 DUP1 REVERT JUMPDEST PUSH1 0x0 DUP6 PUSH1 0x1F DUP7 ADD SLT PUSH2 0x1DA9 JUMPI DUP1 DUP2 REVERT JUMPDEST DUP1 PUSH2 0x100 PUSH2 0x1DB6 DUP2 PUSH2 0x1CEE JUMP JUMPDEST SWAP3 POP DUP3 SWAP2 POP DUP7 ADD DUP8 DUP2 GT ISZERO PUSH2 0x1DCA JUMPI PUSH1 0x0 DUP1 REVERT JUMPDEST DUP7 JUMPDEST DUP2 DUP2 LT ISZERO PUSH2 0x1DE4 JUMPI DUP1 CALLDATALOAD DUP5 MSTORE PUSH1 0x20 SWAP4 DUP5 ADD SWAP4 ADD PUSH2 0x1DCC JUMP JUMPDEST POP DUP2 SWAP6 POP PUSH2 0x1DF2 DUP9 DUP3 PUSH2 0x1D2D JUMP JUMPDEST SWAP5 POP POP POP POP PUSH2 0x19D1 DUP6 PUSH2 0x140 DUP7 ADD PUSH2 0x1D2D JUMP JUMPDEST PUSH1 0x0 PUSH1 0x80 DUP3 DUP5 SUB SLT ISZERO PUSH2 0x1E17 JUMPI PUSH1 0x0 DUP1 REVERT JUMPDEST PUSH1 0x0 DUP4 PUSH1 0x1F DUP5 ADD SLT PUSH2 0x1E27 JUMPI DUP1 DUP2 REVERT JUMPDEST DUP1 PUSH2 0x1E32 PUSH1 0x80 PUSH2 0x1CEE JUMP JUMPDEST SWAP1 POP DUP1 SWAP2 POP PUSH1 0x80 DUP5 ADD DUP6 DUP2 GT ISZERO PUSH2 0x1E48 JUMPI PUSH1 0x0 DUP1 REVERT JUMPDEST DUP5 JUMPDEST DUP2 DUP2 LT ISZERO PUSH2 0x1E62 JUMPI DUP1 CALLDATALOAD DUP5 MSTORE PUSH1 0x20 SWAP4 DUP5 ADD SWAP4 ADD PUSH2 0x1E4A JUMP JUMPDEST POP SWAP1 SWAP6 SWAP5 POP POP POP POP POP JUMP INVALID ADDRESS PUSH5 0x4E72E131A0 0x29 0xB8 POP GASLIMIT 0xB6 DUP2 DUP2 PC TSTORE SWAP8 DUP2 PUSH11 0x916871CA8D3C208C16D87C REVERT SELFBALANCE ADDRESS PUSH5 0x4E72E131A0 0x29 0xB8 POP GASLIMIT 0xB6 DUP2 DUP2 PC TSTORE 0x28 CALLER 0xE8 BASEFEE PUSH26 0xB9709143E1F593F0000001A26469706673582212203D8D1C3BEA 0xBC 0xDF 0xCC DUP2 PUSH2 0xDE71 POP 0xEE PUSH8 0x8BC045929AE63DBE SLT SWAP12 0xC3 PUSH1 0xEA SGT 0xB9 0xFB EXP PUSH5 0x736F6C6343 STOP ADDMOD SHR STOP CALLER "},"methodIdentifiers":{"compressProof(uint256[8],uint256[2],uint256[2])":"b1c3a00e","provingKeyHash()":"233ace11","verifyCompressedProof(uint256[4],uint256[1],uint256,uint256[4])":"e33974a8","verifyProof(bytes,bytes)":"b8e72af6","verifyProof(uint256[8],uint256[2],uint256[2],uint256[4])":"d148354c"}}}}}