{"src/ProcessRegistry.sol":{"ProcessRegistry":{"abi":[{"inputs":[{"internalType":"address","name":"target","type":"address"}],"name":"AddressEmptyCode","type":"error"},{"inputs":[{"internalType":"address","name":"implementation","type":"address"}],"name":"ERC1967InvalidImplementation","type":"error"},{"inputs":[],"name":"ERC1967NonPayable","type":"error"},{"inputs":[],"name":"FailedInnerCall","type":"error"},{"inputs":[],"name":"InvalidCensus","type":"error"},{"inputs":[],"name":"InvalidDuration","type":"error"},{"inputs":[],"name":"InvalidInitialization","type":"error"},{"inputs":[],"name":"InvalidMaxCount","type":"error"},{"inputs":[],"name":"InvalidMaxValue","type":"error"},{"inputs":[],"name":"InvalidStartTime","type":"error"},{"inputs":[],"name":"InvalidStateRoot","type":"error"},{"inputs":[],"name":"InvalidStatus","type":"error"},{"inputs":[],"name":"NotInitializing","type":"error"},{"inputs":[],"name":"NotOrganizationAdministrator","type":"error"},{"inputs":[],"name":"OrganizationNotFound","type":"error"},{"inputs":[{"internalType":"address","name":"owner","type":"address"}],"name":"OwnableInvalidOwner","type":"error"},{"inputs":[{"internalType":"address","name":"account","type":"address"}],"name":"OwnableUnauthorizedAccount","type":"error"},{"inputs":[],"name":"ProcessAlreadyExists","type":"error"},{"inputs":[],"name":"ProcessNotFound","type":"error"},{"inputs":[],"name":"UUPSUnauthorizedCallContext","type":"error"},{"inputs":[{"internalType":"bytes32","name":"slot","type":"bytes32"}],"name":"UUPSUnsupportedProxiableUUID","type":"error"},{"anonymous":false,"inputs":[{"indexed":true,"internalType":"bytes32","name":"processId","type":"bytes32"},{"indexed":false,"internalType":"bytes32","name":"censusRoot","type":"bytes32"},{"indexed":false,"internalType":"string","name":"censusURI","type":"string"},{"indexed":false,"internalType":"uint256","name":"maxVotes","type":"uint256"}],"name":"CensusUpdated","type":"event"},{"anonymous":false,"inputs":[{"indexed":false,"internalType":"uint64","name":"version","type":"uint64"}],"name":"Initialized","type":"event"},{"anonymous":false,"inputs":[{"indexed":true,"internalType":"address","name":"previousOwner","type":"address"},{"indexed":true,"internalType":"address","name":"newOwner","type":"address"}],"name":"OwnershipTransferred","type":"event"},{"anonymous":false,"inputs":[{"indexed":true,"internalType":"bytes32","name":"processId","type":"bytes32"},{"indexed":true,"internalType":"address","name":"creator","type":"address"}],"name":"ProcessCreated","type":"event"},{"anonymous":false,"inputs":[{"indexed":true,"internalType":"bytes32","name":"processId","type":"bytes32"},{"indexed":false,"internalType":"uint256","name":"duration","type":"uint256"}],"name":"ProcessDurationChanged","type":"event"},{"anonymous":false,"inputs":[{"indexed":true,"internalType":"bytes32","name":"processId","type":"bytes32"},{"indexed":false,"internalType":"uint256","name":"newStateRoot","type":"uint256"}],"name":"ProcessStateRootUpdated","type":"event"},{"anonymous":false,"inputs":[{"indexed":true,"internalType":"bytes32","name":"processId","type":"bytes32"},{"indexed":false,"internalType":"enum IProcessRegistry.ProcessStatus","name":"newStatus","type":"uint8"}],"name":"ProcessStatusChanged","type":"event"},{"anonymous":false,"inputs":[{"indexed":true,"internalType":"address","name":"implementation","type":"address"}],"name":"Upgraded","type":"event"},{"inputs":[],"name":"MAX_CENSUS_ORIGIN","outputs":[{"internalType":"uint8","name":"","type":"uint8"}],"stateMutability":"view","type":"function"},{"inputs":[],"name":"MAX_STATUS","outputs":[{"internalType":"uint8","name":"","type":"uint8"}],"stateMutability":"view","type":"function"},{"inputs":[],"name":"UPGRADE_INTERFACE_VERSION","outputs":[{"internalType":"string","name":"","type":"string"}],"stateMutability":"view","type":"function"},{"inputs":[],"name":"chainID","outputs":[{"internalType":"string","name":"","type":"string"}],"stateMutability":"view","type":"function"},{"inputs":[{"internalType":"bytes32","name":"processId","type":"bytes32"}],"name":"getProcess","outputs":[{"components":[{"internalType":"enum IProcessRegistry.ProcessStatus","name":"status","type":"uint8"},{"internalType":"address","name":"organizationId","type":"address"},{"components":[{"internalType":"uint256","name":"x","type":"uint256"},{"internalType":"uint256","name":"y","type":"uint256"}],"internalType":"struct IProcessRegistry.EncryptionKey","name":"encryptionKey","type":"tuple"},{"internalType":"uint256","name":"latestStateRoot","type":"uint256"},{"internalType":"uint256[]","name":"result","type":"uint256[]"},{"internalType":"uint256","name":"startTime","type":"uint256"},{"internalType":"uint256","name":"duration","type":"uint256"},{"internalType":"uint256","name":"voteCount","type":"uint256"},{"internalType":"uint256","name":"voteOverwriteCount","type":"uint256"},{"internalType":"string","name":"metadataURI","type":"string"},{"components":[{"internalType":"bool","name":"costFromWeight","type":"bool"},{"internalType":"bool","name":"forceUniqueness","type":"bool"},{"internalType":"uint8","name":"maxCount","type":"uint8"},{"internalType":"uint8","name":"costExponent","type":"uint8"},{"internalType":"uint256","name":"maxValue","type":"uint256"},{"internalType":"uint256","name":"minValue","type":"uint256"},{"internalType":"uint256","name":"maxTotalCost","type":"uint256"},{"internalType":"uint256","name":"minTotalCost","type":"uint256"}],"internalType":"struct IProcessRegistry.BallotMode","name":"ballotMode","type":"tuple"},{"components":[{"internalType":"enum IProcessRegistry.CensusOrigin","name":"censusOrigin","type":"uint8"},{"internalType":"uint256","name":"maxVotes","type":"uint256"},{"internalType":"bytes32","name":"censusRoot","type":"bytes32"},{"internalType":"string","name":"censusURI","type":"string"}],"internalType":"struct IProcessRegistry.Census","name":"census","type":"tuple"}],"internalType":"struct IProcessRegistry.Process","name":"","type":"tuple"}],"stateMutability":"view","type":"function"},{"inputs":[],"name":"getVerifierVKeyHash","outputs":[{"internalType":"bytes32","name":"","type":"bytes32"}],"stateMutability":"view","type":"function"},{"inputs":[{"internalType":"string","name":"_chainID","type":"string"},{"internalType":"address","name":"_organizationRegistryAddress","type":"address"},{"internalType":"address","name":"_verifier","type":"address"}],"name":"initialize","outputs":[],"stateMutability":"nonpayable","type":"function"},{"inputs":[{"internalType":"enum IProcessRegistry.ProcessStatus","name":"status","type":"uint8"},{"internalType":"uint256","name":"startTime","type":"uint256"},{"internalType":"uint256","name":"duration","type":"uint256"},{"components":[{"internalType":"bool","name":"costFromWeight","type":"bool"},{"internalType":"bool","name":"forceUniqueness","type":"bool"},{"internalType":"uint8","name":"maxCount","type":"uint8"},{"internalType":"uint8","name":"costExponent","type":"uint8"},{"internalType":"uint256","name":"maxValue","type":"uint256"},{"internalType":"uint256","name":"minValue","type":"uint256"},{"internalType":"uint256","name":"maxTotalCost","type":"uint256"},{"internalType":"uint256","name":"minTotalCost","type":"uint256"}],"internalType":"struct IProcessRegistry.BallotMode","name":"ballotMode","type":"tuple"},{"components":[{"internalType":"enum IProcessRegistry.CensusOrigin","name":"censusOrigin","type":"uint8"},{"internalType":"uint256","name":"maxVotes","type":"uint256"},{"internalType":"bytes32","name":"censusRoot","type":"bytes32"},{"internalType":"string","name":"censusURI","type":"string"}],"internalType":"struct IProcessRegistry.Census","name":"census","type":"tuple"},{"internalType":"string","name":"metadata","type":"string"},{"internalType":"address","name":"organizationId","type":"address"},{"internalType":"bytes32","name":"processId","type":"bytes32"},{"components":[{"internalType":"uint256","name":"x","type":"uint256"},{"internalType":"uint256","name":"y","type":"uint256"}],"internalType":"struct IProcessRegistry.EncryptionKey","name":"encryptionKey","type":"tuple"},{"internalType":"uint256","name":"initStateRoot","type":"uint256"}],"name":"newProcess","outputs":[],"stateMutability":"nonpayable","type":"function"},{"inputs":[],"name":"organizationRegistryAddress","outputs":[{"internalType":"address","name":"","type":"address"}],"stateMutability":"view","type":"function"},{"inputs":[],"name":"owner","outputs":[{"internalType":"address","name":"","type":"address"}],"stateMutability":"view","type":"function"},{"inputs":[],"name":"processCount","outputs":[{"internalType":"uint32","name":"","type":"uint32"}],"stateMutability":"view","type":"function"},{"inputs":[{"internalType":"bytes32","name":"","type":"bytes32"}],"name":"processes","outputs":[{"internalType":"enum IProcessRegistry.ProcessStatus","name":"status","type":"uint8"},{"internalType":"address","name":"organizationId","type":"address"},{"components":[{"internalType":"uint256","name":"x","type":"uint256"},{"internalType":"uint256","name":"y","type":"uint256"}],"internalType":"struct IProcessRegistry.EncryptionKey","name":"encryptionKey","type":"tuple"},{"internalType":"uint256","name":"latestStateRoot","type":"uint256"},{"internalType":"uint256","name":"startTime","type":"uint256"},{"internalType":"uint256","name":"duration","type":"uint256"},{"internalType":"uint256","name":"voteCount","type":"uint256"},{"internalType":"uint256","name":"voteOverwriteCount","type":"uint256"},{"internalType":"string","name":"metadataURI","type":"string"},{"components":[{"internalType":"bool","name":"costFromWeight","type":"bool"},{"internalType":"bool","name":"forceUniqueness","type":"bool"},{"internalType":"uint8","name":"maxCount","type":"uint8"},{"internalType":"uint8","name":"costExponent","type":"uint8"},{"internalType":"uint256","name":"maxValue","type":"uint256"},{"internalType":"uint256","name":"minValue","type":"uint256"},{"internalType":"uint256","name":"maxTotalCost","type":"uint256"},{"internalType":"uint256","name":"minTotalCost","type":"uint256"}],"internalType":"struct IProcessRegistry.BallotMode","name":"ballotMode","type":"tuple"},{"components":[{"internalType":"enum IProcessRegistry.CensusOrigin","name":"censusOrigin","type":"uint8"},{"internalType":"uint256","name":"maxVotes","type":"uint256"},{"internalType":"bytes32","name":"censusRoot","type":"bytes32"},{"internalType":"string","name":"censusURI","type":"string"}],"internalType":"struct IProcessRegistry.Census","name":"census","type":"tuple"}],"stateMutability":"view","type":"function"},{"inputs":[],"name":"proxiableUUID","outputs":[{"internalType":"bytes32","name":"","type":"bytes32"}],"stateMutability":"view","type":"function"},{"inputs":[],"name":"renounceOwnership","outputs":[],"stateMutability":"nonpayable","type":"function"},{"inputs":[{"internalType":"bytes32","name":"processId","type":"bytes32"},{"components":[{"internalType":"enum IProcessRegistry.CensusOrigin","name":"censusOrigin","type":"uint8"},{"internalType":"uint256","name":"maxVotes","type":"uint256"},{"internalType":"bytes32","name":"censusRoot","type":"bytes32"},{"internalType":"string","name":"censusURI","type":"string"}],"internalType":"struct IProcessRegistry.Census","name":"census","type":"tuple"}],"name":"setProcessCensus","outputs":[],"stateMutability":"nonpayable","type":"function"},{"inputs":[{"internalType":"bytes32","name":"processId","type":"bytes32"},{"internalType":"uint256","name":"_duration","type":"uint256"}],"name":"setProcessDuration","outputs":[],"stateMutability":"nonpayable","type":"function"},{"inputs":[{"internalType":"bytes32","name":"processId","type":"bytes32"},{"internalType":"uint256[]","name":"results","type":"uint256[]"}],"name":"setProcessResults","outputs":[],"stateMutability":"nonpayable","type":"function"},{"inputs":[{"internalType":"bytes32","name":"processId","type":"bytes32"},{"internalType":"enum IProcessRegistry.ProcessStatus","name":"newStatus","type":"uint8"}],"name":"setProcessStatus","outputs":[],"stateMutability":"nonpayable","type":"function"},{"inputs":[{"internalType":"bytes32","name":"processId","type":"bytes32"},{"internalType":"bytes","name":"proof","type":"bytes"},{"internalType":"bytes","name":"input","type":"bytes"}],"name":"submitStateTransition","outputs":[],"stateMutability":"nonpayable","type":"function"},{"inputs":[{"internalType":"address","name":"newOwner","type":"address"}],"name":"transferOwnership","outputs":[],"stateMutability":"nonpayable","type":"function"},{"inputs":[{"internalType":"address","name":"newImplementation","type":"address"},{"internalType":"bytes","name":"data","type":"bytes"}],"name":"upgradeToAndCall","outputs":[],"stateMutability":"payable","type":"function"},{"inputs":[],"name":"verifier","outputs":[{"internalType":"address","name":"","type":"address"}],"stateMutability":"view","type":"function"}],"evm":{"bytecode":{"linkReferences":{},"object":"60a060405230608052348015601357600080fd5b506080516129c261003d600039600081816117240152818161174d015261188e01526129c26000f3fe6080604052600436106101355760003560e01c8063848df540116100ab578063ad3cb1cc1161006f578063ad3cb1cc1461038f578063adc879e9146103cd578063b79938e9146103e2578063c718c01f14610402578063d71d072e14610422578063f2fde38b1461044257600080fd5b8063848df540146102ac5780638da5cb5b146102e557806392bc266914610322578063992bc45b14610342578063ac64bd031461036f57600080fd5b806352d1902d116100fd57806352d1902d1461020a57806356a6f1e21461022d5780636bae04ea1461024d578063715018a61461026d57806372c628ef146102825780637d2323541461029757600080fd5b806302cc919a1461013a5780630535fece146101665780632b7ac3f31461019d578063463fd1af146101d55780634f1ef286146101f7575b600080fd5b34801561014657600080fd5b5061014f600981565b60405160ff90911681526020015b60405180910390f35b34801561017257600080fd5b50610186610181366004611cb5565b610462565b60405161015d9b9a99989796959493929190611df5565b3480156101a957600080fd5b506003546101bd906001600160a01b031681565b6040516001600160a01b03909116815260200161015d565b3480156101e157600080fd5b506101f56101f0366004611ef4565b6106a4565b005b6101f5610205366004611f9e565b6107fb565b34801561021657600080fd5b5061021f61081a565b60405190815260200161015d565b34801561023957600080fd5b506101f5610248366004612056565b610837565b34801561025957600080fd5b506101f561026836600461209a565b610a06565b34801561027957600080fd5b506101f5610c33565b34801561028e57600080fd5b5061014f600481565b3480156102a357600080fd5b5061021f610c47565b3480156102b857600080fd5b506001546102d090600160a01b900463ffffffff1681565b60405163ffffffff909116815260200161015d565b3480156102f157600080fd5b507f9016d09d72d40fdae2fd8ceac6b6234c7706214fd39c1cd1e609a0528c199300546001600160a01b03166101bd565b34801561032e57600080fd5b506101f561033d366004612105565b610cba565b34801561034e57600080fd5b5061036261035d366004611cb5565b611015565b60405161015d9190612226565b34801561037b57600080fd5b506101f561038a366004612311565b505050565b34801561039b57600080fd5b506103c0604051806040016040528060058152602001640352e302e360dc1b81525081565b60405161015d9190612390565b3480156103d957600080fd5b506103c0611318565b3480156103ee57600080fd5b506001546101bd906001600160a01b031681565b34801561040e57600080fd5b506101f561041d3660046123a3565b6113a6565b34801561042e57600080fd5b506101f561043d3660046123c5565b611526565b34801561044e57600080fd5b506101f561045d366004612442565b6116bd565b6000602081815291815260409081902080548251808401909352600182015483526002820154938301939093526003810154600582015460068301546007840154600885015460098601805460ff8a169961010090046001600160a01b0316989791906104ce9061245d565b80601f01602080910402602001604051908101604052809291908181526020018280546104fa9061245d565b80156105475780601f1061051c57610100808354040283529160200191610547565b820191906000526020600020905b81548152906001019060200180831161052a57829003601f168201915b5050604080516101008082018352600a88015460ff808216151584529181048216151560208401526201000081048216838501526301000000900481166060830152600b880154608080840191909152600c89015460a0840152600d89015460c0840152600e89015460e08401528351908101909352600f880180549798929792965092945091925083911660098111156105e4576105e4611cce565b60098111156105f5576105f5611cce565b8152602001600182015481526020016002820154815260200160038201805461061d9061245d565b80601f01602080910402602001604051908101604052809291908181526020018280546106499061245d565b80156106965780601f1061066b57610100808354040283529160200191610696565b820191906000526020600020905b81548152906001019060200180831161067957829003601f168201915b50505050508152505090508b565b7ff0c57e16840df040f15088dc2f81fe391c3923bec73e23a9662efc9c229c6a008054600160401b810460ff1615906001600160401b03166000811580156106e95750825b90506000826001600160401b031660011480156107055750303b155b905081158015610713575080155b156107315760405163f92ee8a960e01b815260040160405180910390fd5b845467ffffffffffffffff19166001178555831561075b57845460ff60401b1916600160401b1785555b61076433611700565b61076c611711565b6002610779898b836124df565b50600180546001600160a01b03808a166001600160a01b031992831617909255600380549289169290911691909117905583156107f057845460ff60401b19168555604051600181527fc7f505b2f371ae2175ee4913f4499e1f2633a7b5936321eed1cdaeb6115181d29060200160405180910390a15b505050505050505050565b610803611719565b61080c826117be565b61081682826117c6565b5050565b6000610824611883565b5060008051602061296d83398151915290565b6000828152602081905260409020805461010090046001600160a01b03168061087357604051634d36eb6960e01b815260040160405180910390fd5b815460ff1680600481111561088a5761088a611cce565b84600481111561089c5761089c611cce565b14806108bb5750600484818111156108b6576108b6611cce565b60ff16115b806108f5575060008160048111156108d5576108d5611cce565b141580156108f5575060038160048111156108f2576108f2611cce565b14155b15610913576040516307a92f1960e51b815260040160405180910390fd5b60015460405163c1af6e0360e01b81526001600160a01b0384811660048301523360248301529091169063c1af6e0390604401602060405180830381865afa158015610963573d6000803e3d6000fd5b505050506040513d601f19601f8201168201806040525081019061098791906125ac565b6109a45760405163f8b857d360e01b815260040160405180910390fd5b82548490849060ff191660018360048111156109c2576109c2611cce565b0217905550847fac0c4085a30bc70d0d8893ee5d6466ac9c5f03e27fd7292dcef128a610e7c190856040516109f791906125c9565b60405180910390a25050505050565b610a1360608201826125d7565b9050600003610a355760405163111127cb60e01b815260040160405180910390fd5b6040810135600003610a5a5760405163111127cb60e01b815260040160405180910390fd5b6000828152602081905260409020805461010090046001600160a01b031680610a9657604051634d36eb6960e01b815260040160405180910390fd5b60015460405163c1af6e0360e01b81526001600160a01b0383811660048301523360248301529091169063c1af6e0390604401602060405180830381865afa158015610ae6573d6000803e3d6000fd5b505050506040513d601f19601f82011682018060405250810190610b0a91906125ac565b610b275760405163f8b857d360e01b815260040160405180910390fd5b601082015460208401351015610b505760405163111127cb60e01b815260040160405180910390fd5b6000825460ff166004811115610b6857610b68611cce565b14158015610b8c57506003825460ff166004811115610b8957610b89611cce565b14155b15610baa576040516307a92f1960e51b815260040160405180910390fd5b6020830135601083015560408301356011830155610bcb60608401846125d7565b6012840191610bdb9190836124df565b50837f35947a8913e2156f19b018078c9f0667e49cb3dc24af3434a4d0b16b82675b1b6040850135610c1060608701876125d7565b8760200135604051610c259493929190612646565b60405180910390a250505050565b610c3b6118cc565b610c456000611927565b565b6003546040805163233ace1160e01b815290516000926001600160a01b03169163233ace119160048083019260209291908290030181865afa158015610c91573d6000803e3d6000fd5b505050506040513d601f19601f82011682018060405250810190610cb59190612671565b905090565b60015460405163c1af6e0360e01b81526001600160a01b0386811660048301523360248301529091169063c1af6e0390604401602060405180830381865afa158015610d0a573d6000803e3d6000fd5b505050506040513d601f19601f82011682018060405250810190610d2e91906125ac565b610d4b5760405163f8b857d360e01b815260040160405180910390fd5b6000838152602081905260409020805461010090046001600160a01b031615610d8757604051635040c4d360e11b815260040160405180910390fd5b610d9760608a0160408b01612699565b60ff16600003610dba5760405163ac38930b60e01b815260040160405180910390fd5b610dca60608a0160408b01612699565b60ff16896080013511610df05760405163b1911d8b60e01b815260040160405180910390fd5b60048c81811115610e0357610e03611cce565b60ff161180610e41575060008c6004811115610e2157610e21611cce565b14158015610e41575060038c6004811115610e3e57610e3e611cce565b14155b15610e5f576040516307a92f1960e51b815260040160405180910390fd5b4260008c9003610e6d57809b505b808c1015610e8e57604051632ca4094f60e21b815260040160405180910390fd5b80610e998c8e6126cc565b11610eb757604051637616640160e01b815260040160405180910390fd5b6009610ec660208b018b6126ec565b6009811115610ed757610ed7611cce565b60ff161115610ef95760405163111127cb60e01b815260040160405180910390fd5b81548d90839060ff19166001836004811115610f1757610f17611cce565b0217905550600582018c9055600682018b90558154610100600160a81b0319166101006001600160a01b0388160217825583356001830155602084013560028301556003820183905560098201610f6f888a836124df565b5089600a8301610f7f8282612723565b50899050600f8301610f9182826127e5565b505060018054600160a01b900463ffffffff16906014610fb08361287c565b91906101000a81548163ffffffff021916908363ffffffff16021790555050336001600160a01b0316857fada6f87a2a16a0c9c169ca36754c5f33f7c1a973b575d068f888a549ed4faefa60405160405180910390a350505050505050505050505050565b61101d611bc3565b60008281526020819052604090819020815161018081019092528054829060ff16600481111561104f5761104f611cce565b600481111561106057611060611cce565b8152815461010090046001600160a01b031660208083019190915260408051808201825260018501548152600285015481840152818401526003840154606084015260048401805482518185028101850190935280835260809094019391929091908301828280156110f157602002820191906000526020600020905b8154815260200190600101908083116110dd575b50505050508152602001600582015481526020016006820154815260200160078201548152602001600882015481526020016009820180546111329061245d565b80601f016020809104026020016040519081016040528092919081815260200182805461115e9061245d565b80156111ab5780601f10611180576101008083540402835291602001916111ab565b820191906000526020600020905b81548152906001019060200180831161118e57829003601f168201915b5050509183525050604080516101008082018352600a85015460ff8082161515845291810482161515602084810191909152620100008204831684860152630100000090910482166060840152600b860154608080850191909152600c87015460a0850152600d87015460c0850152600e87015460e08501529085019290925282519182018352600f8501805493909401939192839116600981111561125357611253611cce565b600981111561126457611264611cce565b8152602001600182015481526020016002820154815260200160038201805461128c9061245d565b80601f01602080910402602001604051908101604052809291908181526020018280546112b89061245d565b80156113055780601f106112da57610100808354040283529160200191611305565b820191906000526020600020905b8154815290600101906020018083116112e857829003601f168201915b5050509190925250505090525092915050565b600280546113259061245d565b80601f01602080910402602001604051908101604052809291908181526020018280546113519061245d565b801561139e5780601f106113735761010080835404028352916020019161139e565b820191906000526020600020905b81548152906001019060200180831161138157829003601f168201915b505050505081565b4281116113c657604051637616640160e01b815260040160405180910390fd5b6000828152602081905260409020805461010090046001600160a01b03168061140257604051634d36eb6960e01b815260040160405180910390fd5b60015460405163c1af6e0360e01b81526001600160a01b0383811660048301523360248301529091169063c1af6e0390604401602060405180830381865afa158015611452573d6000803e3d6000fd5b505050506040513d601f19601f8201168201806040525081019061147691906125ac565b6114935760405163f8b857d360e01b815260040160405180910390fd5b6000825460ff1660048111156114ab576114ab611cce565b141580156114cf57506003825460ff1660048111156114cc576114cc611cce565b14155b156114ed576040516307a92f1960e51b815260040160405180910390fd5b6006820183905560405183815284907f0f759826327c668a220d576485ac38ddc4f83fbc414b984c00e79f669b649f4690602001610c25565b6000858152602081905260409020805461010090046001600160a01b031661156157604051634d36eb6960e01b815260040160405180910390fd5b6000815460ff16600481111561157957611579611cce565b14611597576040516307a92f1960e51b815260040160405180910390fd5b600354604051635c73957b60e11b81526001600160a01b039091169063b8e72af6906115cd9088908890889088906004016128a1565b60006040518083038186803b1580156115e557600080fd5b505afa1580156115f9573d6000803e3d6000fd5b506000925061160d915050838501856128d3565b600383015481519192501461163557604051630b6fac0360e41b815260040160405180910390fd5b6020810151600383015560408101516007830180546000906116589084906126cc565b909155505060608101516008830180546000906116769084906126cc565b909155505060208082015160405190815288917fd25cbd3fa66107efb1230dc4f49f939d7b6b57ba10ab0ec87ba39040c075cf20910160405180910390a250505050505050565b6116c56118cc565b6001600160a01b0381166116f457604051631e4fbdf760e01b8152600060048201526024015b60405180910390fd5b6116fd81611927565b50565b611708611998565b6116fd816119e1565b610c45611998565b306001600160a01b037f00000000000000000000000000000000000000000000000000000000000000001614806117a057507f00000000000000000000000000000000000000000000000000000000000000006001600160a01b031661179460008051602061296d833981519152546001600160a01b031690565b6001600160a01b031614155b15610c455760405163703e46dd60e11b815260040160405180910390fd5b6116fd6118cc565b816001600160a01b03166352d1902d6040518163ffffffff1660e01b8152600401602060405180830381865afa925050508015611820575060408051601f3d908101601f1916820190925261181d91810190612671565b60015b61184857604051634c9c8ce360e01b81526001600160a01b03831660048201526024016116eb565b60008051602061296d833981519152811461187957604051632a87526960e21b8152600481018290526024016116eb565b61038a83836119e9565b306001600160a01b037f00000000000000000000000000000000000000000000000000000000000000001614610c455760405163703e46dd60e11b815260040160405180910390fd5b336118fe7f9016d09d72d40fdae2fd8ceac6b6234c7706214fd39c1cd1e609a0528c199300546001600160a01b031690565b6001600160a01b031614610c455760405163118cdaa760e01b81523360048201526024016116eb565b7f9016d09d72d40fdae2fd8ceac6b6234c7706214fd39c1cd1e609a0528c19930080546001600160a01b031981166001600160a01b03848116918217845560405192169182907f8be0079c531659141344cd1fd0a4f28419497f9722a3daafe3b4186f6b6457e090600090a3505050565b7ff0c57e16840df040f15088dc2f81fe391c3923bec73e23a9662efc9c229c6a0054600160401b900460ff16610c4557604051631afcd79f60e31b815260040160405180910390fd5b6116c5611998565b6119f282611a3f565b6040516001600160a01b038316907fbc7cd75a20ee27fd9adebab32041f755214dbc6bffa90cc0225b39da2e5c2d3b90600090a2805115611a375761038a8282611aa4565b610816611b1c565b806001600160a01b03163b600003611a7557604051634c9c8ce360e01b81526001600160a01b03821660048201526024016116eb565b60008051602061296d83398151915280546001600160a01b0319166001600160a01b0392909216919091179055565b6060600080846001600160a01b031684604051611ac19190612950565b600060405180830381855af49150503d8060008114611afc576040519150601f19603f3d011682016040523d82523d6000602084013e611b01565b606091505b5091509150611b11858383611b3b565b925050505b92915050565b3415610c455760405163b398979f60e01b815260040160405180910390fd5b606082611b5057611b4b82611b9a565b611b93565b8151158015611b6757506001600160a01b0384163b155b15611b9057604051639996b31560e01b81526001600160a01b03851660048201526024016116eb565b50805b9392505050565b805115611baa5780518082602001fd5b604051630a12f52160e11b815260040160405180910390fd5b604080516101808101909152806000815260200160006001600160a01b03168152602001611c04604051806040016040528060008152602001600081525090565b815260200160008152602001606081526020016000815260200160008152602001600081526020016000815260200160608152602001611c8c604051806101000160405280600015158152602001600015158152602001600060ff168152602001600060ff168152602001600081526020016000815260200160008152602001600081525090565b815260408051608081018252600080825260208281018290529282015260608082015291015290565b600060208284031215611cc757600080fd5b5035919050565b634e487b7160e01b600052602160045260246000fd5b60058110611cf457611cf4611cce565b9052565b60005b83811015611d13578181015183820152602001611cfb565b50506000910152565b60008151808452611d34816020860160208601611cf8565b601f01601f19169290920160200192915050565b80511515825260208101511515602083015260ff60408201511660408301526060810151611d7b606084018260ff169052565b506080810151608083015260a081015160a083015260c081015160c083015260e081015160e08301525050565b60008151600a8110611dbc57611dbc611cce565b808452506020820151602084015260408201516040840152606082015160806060850152611ded6080850182611d1c565b949350505050565b611dff818d611ce4565b6001600160a01b038b166020820152611e25604082018b80518252602090810151910152565b8860808201528760a08201528660c08201528560e0820152846101008201526102606101208201526000611e5d610260830186611d1c565b611e6b610140840186611d48565b828103610240840152611e7e8185611da8565b9e9d5050505050505050505050505050565b60008083601f840112611ea257600080fd5b5081356001600160401b03811115611eb957600080fd5b602083019150836020828501011115611ed157600080fd5b9250929050565b80356001600160a01b0381168114611eef57600080fd5b919050565b60008060008060608587031215611f0a57600080fd5b84356001600160401b03811115611f2057600080fd5b611f2c87828801611e90565b9095509350611f3f905060208601611ed8565b9150611f4d60408601611ed8565b905092959194509250565b634e487b7160e01b600052604160045260246000fd5b604051601f8201601f191681016001600160401b0381118282101715611f9657611f96611f58565b604052919050565b60008060408385031215611fb157600080fd5b611fba83611ed8565b915060208301356001600160401b03811115611fd557600080fd5b8301601f81018513611fe657600080fd5b80356001600160401b03811115611fff57611fff611f58565b612012601f8201601f1916602001611f6e565b81815286602083850101111561202757600080fd5b816020840160208301376000602083830101528093505050509250929050565b803560058110611eef57600080fd5b6000806040838503121561206957600080fd5b8235915061207960208401612047565b90509250929050565b60006080828403121561209457600080fd5b50919050565b600080604083850312156120ad57600080fd5b8235915060208301356001600160401b038111156120ca57600080fd5b6120d685828601612082565b9150509250929050565b6000610100828403121561209457600080fd5b60006040828403121561209457600080fd5b60008060008060008060008060008060006102408c8e03121561212757600080fd5b6121308c612047565b9a5060208c0135995060408c0135985061214d8d60608e016120e0565b97506101608c01356001600160401b0381111561216957600080fd5b6121758e828f01612082565b9750506101808c01356001600160401b0381111561219257600080fd5b61219e8e828f01611e90565b90975095506121b290506101a08d01611ed8565b93506101c08c013592506121ca8d6101e08e016120f3565b915060006102208d01359050809150509295989b509295989b9093969950565b600081518084526020840193506020830160005b8281101561221c5781518652602095860195909101906001016121fe565b5093949350505050565b60208152612238602082018351611ce4565b6000602083015161225460408401826001600160a01b03169052565b506040830151805160608401526020810151608084015250606083015160a0830152608083015161028060c08401526122916102a08401826121ea565b905060a084015160e084015260c084015161010084015260e0840151610120840152610100840151610140840152610120840151601f19848303016101608501526122dc8282611d1c565b9150506101408401516122f3610180850182611d48565b50610160840151838203601f1901610280850152611b118282611da8565b60008060006040848603121561232657600080fd5b8335925060208401356001600160401b0381111561234357600080fd5b8401601f8101861361235457600080fd5b80356001600160401b0381111561236a57600080fd5b8660208260051b840101111561237f57600080fd5b939660209190910195509293505050565b602081526000611b936020830184611d1c565b600080604083850312156123b657600080fd5b50508035926020909101359150565b6000806000806000606086880312156123dd57600080fd5b8535945060208601356001600160401b038111156123fa57600080fd5b61240688828901611e90565b90955093505060408601356001600160401b0381111561242557600080fd5b61243188828901611e90565b969995985093965092949392505050565b60006020828403121561245457600080fd5b611b9382611ed8565b600181811c9082168061247157607f821691505b60208210810361209457634e487b7160e01b600052602260045260246000fd5b601f82111561038a57806000526020600020601f840160051c810160208510156124b85750805b601f840160051c820191505b818110156124d857600081556001016124c4565b5050505050565b6001600160401b038311156124f6576124f6611f58565b61250a83612504835461245d565b83612491565b6000601f84116001811461253e57600085156125265750838201355b600019600387901b1c1916600186901b1783556124d8565b600083815260209020601f19861690835b8281101561256f578685013582556020948501946001909201910161254f565b508682101561258c5760001960f88860031b161c19848701351681555b505060018560011b0183555050505050565b80151581146116fd57600080fd5b6000602082840312156125be57600080fd5b8151611b938161259e565b60208101611b168284611ce4565b6000808335601e198436030181126125ee57600080fd5b8301803591506001600160401b0382111561260857600080fd5b602001915036819003821315611ed157600080fd5b81835281816020850137506000828201602090810191909152601f909101601f19169091010190565b84815260606020820152600061266060608301858761261d565b905082604083015295945050505050565b60006020828403121561268357600080fd5b5051919050565b60ff811681146116fd57600080fd5b6000602082840312156126ab57600080fd5b8135611b938161268a565b634e487b7160e01b600052601160045260246000fd5b80820180821115611b1657611b166126b6565b600a81106116fd57600080fd5b6000602082840312156126fe57600080fd5b8135611b93816126df565b60008135611b168161259e565b60008135611b168161268a565b813561272e8161259e565b815490151560ff1660ff199190911617815561276961274f60208401612709565b82805461ff00191691151560081b61ff0016919091179055565b61279061277860408401612716565b825462ff0000191660109190911b62ff000016178255565b6127b961279f60608401612716565b825463ff000000191660189190911b63ff00000016178255565b6080820135600182015560a0820135600282015560c0820135600382015560e090910135600490910155565b81356127f0816126df565b600a811061280057612800611cce565b815460ff191660ff9190911617815560208201356001820155604082013560028201556060820135601e193684900301811261283b57600080fd5b820180356001600160401b0381111561285357600080fd5b60208201915080360382131561286857600080fd5b6128768183600386016124df565b50505050565b600063ffffffff821663ffffffff8103612898576128986126b6565b60010192915050565b6040815260006128b560408301868861261d565b82810360208401526128c881858761261d565b979650505050505050565b6000608082840312156128e557600080fd5b82601f8301126128f457600080fd5b604051608081016001600160401b038111828210171561291657612916611f58565b60405280608084018581111561292b57600080fd5b845b8181101561294557803583526020928301920161292d565b509195945050505050565b60008251612962818460208701611cf8565b919091019291505056fe360894a13ba1a3210667c828492db98dca3e2076cc3735a920a3ca505d382bbca2646970667358221220059ec4d4c6e35de6caa4dc8d4eff546f093b8ecac1fb881f918bb9e4c82ce2f564736f6c634300081c0033","opcodes":"PUSH1 0xA0 PUSH1 0x40 MSTORE ADDRESS PUSH1 0x80 MSTORE CALLVALUE DUP1 ISZERO PUSH1 0x13 JUMPI PUSH1 0x0 DUP1 REVERT JUMPDEST POP PUSH1 0x80 MLOAD PUSH2 0x29C2 PUSH2 0x3D PUSH1 0x0 CODECOPY PUSH1 0x0 DUP2 DUP2 PUSH2 0x1724 ADD MSTORE DUP2 DUP2 PUSH2 0x174D ADD MSTORE PUSH2 0x188E ADD MSTORE PUSH2 0x29C2 PUSH1 0x0 RETURN INVALID PUSH1 0x80 PUSH1 0x40 MSTORE PUSH1 0x4 CALLDATASIZE LT PUSH2 0x135 JUMPI PUSH1 0x0 CALLDATALOAD PUSH1 0xE0 SHR DUP1 PUSH4 0x848DF540 GT PUSH2 0xAB JUMPI DUP1 PUSH4 0xAD3CB1CC GT PUSH2 0x6F JUMPI DUP1 PUSH4 0xAD3CB1CC EQ PUSH2 0x38F JUMPI DUP1 PUSH4 0xADC879E9 EQ PUSH2 0x3CD JUMPI DUP1 PUSH4 0xB79938E9 EQ PUSH2 0x3E2 JUMPI DUP1 PUSH4 0xC718C01F EQ PUSH2 0x402 JUMPI DUP1 PUSH4 0xD71D072E EQ PUSH2 0x422 JUMPI DUP1 PUSH4 0xF2FDE38B EQ PUSH2 0x442 JUMPI PUSH1 0x0 DUP1 REVERT JUMPDEST DUP1 PUSH4 0x848DF540 EQ PUSH2 0x2AC JUMPI DUP1 PUSH4 0x8DA5CB5B EQ PUSH2 0x2E5 JUMPI DUP1 PUSH4 0x92BC2669 EQ PUSH2 0x322 JUMPI DUP1 PUSH4 0x992BC45B EQ PUSH2 0x342 JUMPI DUP1 PUSH4 0xAC64BD03 EQ PUSH2 0x36F JUMPI PUSH1 0x0 DUP1 REVERT JUMPDEST DUP1 PUSH4 0x52D1902D GT PUSH2 0xFD JUMPI DUP1 PUSH4 0x52D1902D EQ PUSH2 0x20A JUMPI DUP1 PUSH4 0x56A6F1E2 EQ PUSH2 0x22D JUMPI DUP1 PUSH4 0x6BAE04EA EQ PUSH2 0x24D JUMPI DUP1 PUSH4 0x715018A6 EQ PUSH2 0x26D JUMPI DUP1 PUSH4 0x72C628EF EQ PUSH2 0x282 JUMPI DUP1 PUSH4 0x7D232354 EQ PUSH2 0x297 JUMPI PUSH1 0x0 DUP1 REVERT JUMPDEST DUP1 PUSH4 0x2CC919A EQ PUSH2 0x13A JUMPI DUP1 PUSH4 0x535FECE EQ PUSH2 0x166 JUMPI DUP1 PUSH4 0x2B7AC3F3 EQ PUSH2 0x19D JUMPI DUP1 PUSH4 0x463FD1AF EQ PUSH2 0x1D5 JUMPI DUP1 PUSH4 0x4F1EF286 EQ PUSH2 0x1F7 JUMPI JUMPDEST PUSH1 0x0 DUP1 REVERT JUMPDEST CALLVALUE DUP1 ISZERO PUSH2 0x146 JUMPI PUSH1 0x0 DUP1 REVERT JUMPDEST POP PUSH2 0x14F PUSH1 0x9 DUP2 JUMP JUMPDEST PUSH1 0x40 MLOAD PUSH1 0xFF SWAP1 SWAP2 AND DUP2 MSTORE PUSH1 0x20 ADD JUMPDEST PUSH1 0x40 MLOAD DUP1 SWAP2 SUB SWAP1 RETURN JUMPDEST CALLVALUE DUP1 ISZERO PUSH2 0x172 JUMPI PUSH1 0x0 DUP1 REVERT JUMPDEST POP PUSH2 0x186 PUSH2 0x181 CALLDATASIZE PUSH1 0x4 PUSH2 0x1CB5 JUMP JUMPDEST PUSH2 0x462 JUMP JUMPDEST PUSH1 0x40 MLOAD PUSH2 0x15D SWAP12 SWAP11 SWAP10 SWAP9 SWAP8 SWAP7 SWAP6 SWAP5 SWAP4 SWAP3 SWAP2 SWAP1 PUSH2 0x1DF5 JUMP JUMPDEST CALLVALUE DUP1 ISZERO PUSH2 0x1A9 JUMPI PUSH1 0x0 DUP1 REVERT JUMPDEST POP PUSH1 0x3 SLOAD PUSH2 0x1BD SWAP1 PUSH1 0x1 PUSH1 0x1 PUSH1 0xA0 SHL SUB AND DUP2 JUMP JUMPDEST PUSH1 0x40 MLOAD PUSH1 0x1 PUSH1 0x1 PUSH1 0xA0 SHL SUB SWAP1 SWAP2 AND DUP2 MSTORE PUSH1 0x20 ADD PUSH2 0x15D JUMP JUMPDEST CALLVALUE DUP1 ISZERO PUSH2 0x1E1 JUMPI PUSH1 0x0 DUP1 REVERT JUMPDEST POP PUSH2 0x1F5 PUSH2 0x1F0 CALLDATASIZE PUSH1 0x4 PUSH2 0x1EF4 JUMP JUMPDEST PUSH2 0x6A4 JUMP JUMPDEST STOP JUMPDEST PUSH2 0x1F5 PUSH2 0x205 CALLDATASIZE PUSH1 0x4 PUSH2 0x1F9E JUMP JUMPDEST PUSH2 0x7FB JUMP JUMPDEST CALLVALUE DUP1 ISZERO PUSH2 0x216 JUMPI PUSH1 0x0 DUP1 REVERT JUMPDEST POP PUSH2 0x21F PUSH2 0x81A JUMP JUMPDEST PUSH1 0x40 MLOAD SWAP1 DUP2 MSTORE PUSH1 0x20 ADD PUSH2 0x15D JUMP JUMPDEST CALLVALUE DUP1 ISZERO PUSH2 0x239 JUMPI PUSH1 0x0 DUP1 REVERT JUMPDEST POP PUSH2 0x1F5 PUSH2 0x248 CALLDATASIZE PUSH1 0x4 PUSH2 0x2056 JUMP JUMPDEST PUSH2 0x837 JUMP JUMPDEST CALLVALUE DUP1 ISZERO PUSH2 0x259 JUMPI PUSH1 0x0 DUP1 REVERT JUMPDEST POP PUSH2 0x1F5 PUSH2 0x268 CALLDATASIZE PUSH1 0x4 PUSH2 0x209A JUMP JUMPDEST PUSH2 0xA06 JUMP JUMPDEST CALLVALUE DUP1 ISZERO PUSH2 0x279 JUMPI PUSH1 0x0 DUP1 REVERT JUMPDEST POP PUSH2 0x1F5 PUSH2 0xC33 JUMP JUMPDEST CALLVALUE DUP1 ISZERO PUSH2 0x28E JUMPI PUSH1 0x0 DUP1 REVERT JUMPDEST POP PUSH2 0x14F PUSH1 0x4 DUP2 JUMP JUMPDEST CALLVALUE DUP1 ISZERO PUSH2 0x2A3 JUMPI PUSH1 0x0 DUP1 REVERT JUMPDEST POP PUSH2 0x21F PUSH2 0xC47 JUMP JUMPDEST CALLVALUE DUP1 ISZERO PUSH2 0x2B8 JUMPI PUSH1 0x0 DUP1 REVERT JUMPDEST POP PUSH1 0x1 SLOAD PUSH2 0x2D0 SWAP1 PUSH1 0x1 PUSH1 0xA0 SHL SWAP1 DIV PUSH4 0xFFFFFFFF AND DUP2 JUMP JUMPDEST PUSH1 0x40 MLOAD PUSH4 0xFFFFFFFF SWAP1 SWAP2 AND DUP2 MSTORE PUSH1 0x20 ADD PUSH2 0x15D JUMP JUMPDEST CALLVALUE DUP1 ISZERO PUSH2 0x2F1 JUMPI PUSH1 0x0 DUP1 REVERT JUMPDEST POP PUSH32 0x9016D09D72D40FDAE2FD8CEAC6B6234C7706214FD39C1CD1E609A0528C199300 SLOAD PUSH1 0x1 PUSH1 0x1 PUSH1 0xA0 SHL SUB AND PUSH2 0x1BD JUMP JUMPDEST CALLVALUE DUP1 ISZERO PUSH2 0x32E JUMPI PUSH1 0x0 DUP1 REVERT JUMPDEST POP PUSH2 0x1F5 PUSH2 0x33D CALLDATASIZE PUSH1 0x4 PUSH2 0x2105 JUMP JUMPDEST PUSH2 0xCBA JUMP JUMPDEST CALLVALUE DUP1 ISZERO PUSH2 0x34E JUMPI PUSH1 0x0 DUP1 REVERT JUMPDEST POP PUSH2 0x362 PUSH2 0x35D CALLDATASIZE PUSH1 0x4 PUSH2 0x1CB5 JUMP JUMPDEST PUSH2 0x1015 JUMP JUMPDEST PUSH1 0x40 MLOAD PUSH2 0x15D SWAP2 SWAP1 PUSH2 0x2226 JUMP JUMPDEST CALLVALUE DUP1 ISZERO PUSH2 0x37B JUMPI PUSH1 0x0 DUP1 REVERT JUMPDEST POP PUSH2 0x1F5 PUSH2 0x38A CALLDATASIZE PUSH1 0x4 PUSH2 0x2311 JUMP JUMPDEST POP POP POP JUMP JUMPDEST CALLVALUE DUP1 ISZERO PUSH2 0x39B JUMPI PUSH1 0x0 DUP1 REVERT JUMPDEST POP PUSH2 0x3C0 PUSH1 0x40 MLOAD DUP1 PUSH1 0x40 ADD PUSH1 0x40 MSTORE DUP1 PUSH1 0x5 DUP2 MSTORE PUSH1 0x20 ADD PUSH5 0x352E302E3 PUSH1 0xDC SHL DUP2 MSTORE POP DUP2 JUMP JUMPDEST PUSH1 0x40 MLOAD PUSH2 0x15D SWAP2 SWAP1 PUSH2 0x2390 JUMP JUMPDEST CALLVALUE DUP1 ISZERO PUSH2 0x3D9 JUMPI PUSH1 0x0 DUP1 REVERT JUMPDEST POP PUSH2 0x3C0 PUSH2 0x1318 JUMP JUMPDEST CALLVALUE DUP1 ISZERO PUSH2 0x3EE JUMPI PUSH1 0x0 DUP1 REVERT JUMPDEST POP PUSH1 0x1 SLOAD PUSH2 0x1BD SWAP1 PUSH1 0x1 PUSH1 0x1 PUSH1 0xA0 SHL SUB AND DUP2 JUMP JUMPDEST CALLVALUE DUP1 ISZERO PUSH2 0x40E JUMPI PUSH1 0x0 DUP1 REVERT JUMPDEST POP PUSH2 0x1F5 PUSH2 0x41D CALLDATASIZE PUSH1 0x4 PUSH2 0x23A3 JUMP JUMPDEST PUSH2 0x13A6 JUMP JUMPDEST CALLVALUE DUP1 ISZERO PUSH2 0x42E JUMPI PUSH1 0x0 DUP1 REVERT JUMPDEST POP PUSH2 0x1F5 PUSH2 0x43D CALLDATASIZE PUSH1 0x4 PUSH2 0x23C5 JUMP JUMPDEST PUSH2 0x1526 JUMP JUMPDEST CALLVALUE DUP1 ISZERO PUSH2 0x44E JUMPI PUSH1 0x0 DUP1 REVERT JUMPDEST POP PUSH2 0x1F5 PUSH2 0x45D CALLDATASIZE PUSH1 0x4 PUSH2 0x2442 JUMP JUMPDEST PUSH2 0x16BD JUMP JUMPDEST PUSH1 0x0 PUSH1 0x20 DUP2 DUP2 MSTORE SWAP2 DUP2 MSTORE PUSH1 0x40 SWAP1 DUP2 SWAP1 KECCAK256 DUP1 SLOAD DUP3 MLOAD DUP1 DUP5 ADD SWAP1 SWAP4 MSTORE PUSH1 0x1 DUP3 ADD SLOAD DUP4 MSTORE PUSH1 0x2 DUP3 ADD SLOAD SWAP4 DUP4 ADD SWAP4 SWAP1 SWAP4 MSTORE PUSH1 0x3 DUP2 ADD SLOAD PUSH1 0x5 DUP3 ADD SLOAD PUSH1 0x6 DUP4 ADD SLOAD PUSH1 0x7 DUP5 ADD SLOAD PUSH1 0x8 DUP6 ADD SLOAD PUSH1 0x9 DUP7 ADD DUP1 SLOAD PUSH1 0xFF DUP11 AND SWAP10 PUSH2 0x100 SWAP1 DIV PUSH1 0x1 PUSH1 0x1 PUSH1 0xA0 SHL SUB AND SWAP9 SWAP8 SWAP2 SWAP1 PUSH2 0x4CE SWAP1 PUSH2 0x245D JUMP JUMPDEST DUP1 PUSH1 0x1F ADD PUSH1 0x20 DUP1 SWAP2 DIV MUL PUSH1 0x20 ADD PUSH1 0x40 MLOAD SWAP1 DUP2 ADD PUSH1 0x40 MSTORE DUP1 SWAP3 SWAP2 SWAP1 DUP2 DUP2 MSTORE PUSH1 0x20 ADD DUP3 DUP1 SLOAD PUSH2 0x4FA SWAP1 PUSH2 0x245D JUMP JUMPDEST DUP1 ISZERO PUSH2 0x547 JUMPI DUP1 PUSH1 0x1F LT PUSH2 0x51C JUMPI PUSH2 0x100 DUP1 DUP4 SLOAD DIV MUL DUP4 MSTORE SWAP2 PUSH1 0x20 ADD SWAP2 PUSH2 0x547 JUMP JUMPDEST DUP3 ADD SWAP2 SWAP1 PUSH1 0x0 MSTORE PUSH1 0x20 PUSH1 0x0 KECCAK256 SWAP1 JUMPDEST DUP2 SLOAD DUP2 MSTORE SWAP1 PUSH1 0x1 ADD SWAP1 PUSH1 0x20 ADD DUP1 DUP4 GT PUSH2 0x52A JUMPI DUP3 SWAP1 SUB PUSH1 0x1F AND DUP3 ADD SWAP2 JUMPDEST POP POP PUSH1 0x40 DUP1 MLOAD PUSH2 0x100 DUP1 DUP3 ADD DUP4 MSTORE PUSH1 0xA DUP9 ADD SLOAD PUSH1 0xFF DUP1 DUP3 AND ISZERO ISZERO DUP5 MSTORE SWAP2 DUP2 DIV DUP3 AND ISZERO ISZERO PUSH1 0x20 DUP5 ADD MSTORE PUSH3 0x10000 DUP2 DIV DUP3 AND DUP4 DUP6 ADD MSTORE PUSH4 0x1000000 SWAP1 DIV DUP2 AND PUSH1 0x60 DUP4 ADD MSTORE PUSH1 0xB DUP9 ADD SLOAD PUSH1 0x80 DUP1 DUP5 ADD SWAP2 SWAP1 SWAP2 MSTORE PUSH1 0xC DUP10 ADD SLOAD PUSH1 0xA0 DUP5 ADD MSTORE PUSH1 0xD DUP10 ADD SLOAD PUSH1 0xC0 DUP5 ADD MSTORE PUSH1 0xE DUP10 ADD SLOAD PUSH1 0xE0 DUP5 ADD MSTORE DUP4 MLOAD SWAP1 DUP2 ADD SWAP1 SWAP4 MSTORE PUSH1 0xF DUP9 ADD DUP1 SLOAD SWAP8 SWAP9 SWAP3 SWAP8 SWAP3 SWAP7 POP SWAP3 SWAP5 POP SWAP2 SWAP3 POP DUP4 SWAP2 AND PUSH1 0x9 DUP2 GT ISZERO PUSH2 0x5E4 JUMPI PUSH2 0x5E4 PUSH2 0x1CCE JUMP JUMPDEST PUSH1 0x9 DUP2 GT ISZERO PUSH2 0x5F5 JUMPI PUSH2 0x5F5 PUSH2 0x1CCE JUMP JUMPDEST DUP2 MSTORE PUSH1 0x20 ADD PUSH1 0x1 DUP3 ADD SLOAD DUP2 MSTORE PUSH1 0x20 ADD PUSH1 0x2 DUP3 ADD SLOAD DUP2 MSTORE PUSH1 0x20 ADD PUSH1 0x3 DUP3 ADD DUP1 SLOAD PUSH2 0x61D SWAP1 PUSH2 0x245D JUMP JUMPDEST DUP1 PUSH1 0x1F ADD PUSH1 0x20 DUP1 SWAP2 DIV MUL PUSH1 0x20 ADD PUSH1 0x40 MLOAD SWAP1 DUP2 ADD PUSH1 0x40 MSTORE DUP1 SWAP3 SWAP2 SWAP1 DUP2 DUP2 MSTORE PUSH1 0x20 ADD DUP3 DUP1 SLOAD PUSH2 0x649 SWAP1 PUSH2 0x245D JUMP JUMPDEST DUP1 ISZERO PUSH2 0x696 JUMPI DUP1 PUSH1 0x1F LT PUSH2 0x66B JUMPI PUSH2 0x100 DUP1 DUP4 SLOAD DIV MUL DUP4 MSTORE SWAP2 PUSH1 0x20 ADD SWAP2 PUSH2 0x696 JUMP JUMPDEST DUP3 ADD SWAP2 SWAP1 PUSH1 0x0 MSTORE PUSH1 0x20 PUSH1 0x0 KECCAK256 SWAP1 JUMPDEST DUP2 SLOAD DUP2 MSTORE SWAP1 PUSH1 0x1 ADD SWAP1 PUSH1 0x20 ADD DUP1 DUP4 GT PUSH2 0x679 JUMPI DUP3 SWAP1 SUB PUSH1 0x1F AND DUP3 ADD SWAP2 JUMPDEST POP POP POP POP POP DUP2 MSTORE POP POP SWAP1 POP DUP12 JUMP JUMPDEST PUSH32 0xF0C57E16840DF040F15088DC2F81FE391C3923BEC73E23A9662EFC9C229C6A00 DUP1 SLOAD PUSH1 0x1 PUSH1 0x40 SHL DUP2 DIV PUSH1 0xFF AND ISZERO SWAP1 PUSH1 0x1 PUSH1 0x1 PUSH1 0x40 SHL SUB AND PUSH1 0x0 DUP2 ISZERO DUP1 ISZERO PUSH2 0x6E9 JUMPI POP DUP3 JUMPDEST SWAP1 POP PUSH1 0x0 DUP3 PUSH1 0x1 PUSH1 0x1 PUSH1 0x40 SHL SUB AND PUSH1 0x1 EQ DUP1 ISZERO PUSH2 0x705 JUMPI POP ADDRESS EXTCODESIZE ISZERO JUMPDEST SWAP1 POP DUP2 ISZERO DUP1 ISZERO PUSH2 0x713 JUMPI POP DUP1 ISZERO JUMPDEST ISZERO PUSH2 0x731 JUMPI PUSH1 0x40 MLOAD PUSH4 0xF92EE8A9 PUSH1 0xE0 SHL DUP2 MSTORE PUSH1 0x4 ADD PUSH1 0x40 MLOAD DUP1 SWAP2 SUB SWAP1 REVERT JUMPDEST DUP5 SLOAD PUSH8 0xFFFFFFFFFFFFFFFF NOT AND PUSH1 0x1 OR DUP6 SSTORE DUP4 ISZERO PUSH2 0x75B JUMPI DUP5 SLOAD PUSH1 0xFF PUSH1 0x40 SHL NOT AND PUSH1 0x1 PUSH1 0x40 SHL OR DUP6 SSTORE JUMPDEST PUSH2 0x764 CALLER PUSH2 0x1700 JUMP JUMPDEST PUSH2 0x76C PUSH2 0x1711 JUMP JUMPDEST PUSH1 0x2 PUSH2 0x779 DUP10 DUP12 DUP4 PUSH2 0x24DF JUMP JUMPDEST POP PUSH1 0x1 DUP1 SLOAD PUSH1 0x1 PUSH1 0x1 PUSH1 0xA0 SHL SUB DUP1 DUP11 AND PUSH1 0x1 PUSH1 0x1 PUSH1 0xA0 SHL SUB NOT SWAP3 DUP4 AND OR SWAP1 SWAP3 SSTORE PUSH1 0x3 DUP1 SLOAD SWAP3 DUP10 AND SWAP3 SWAP1 SWAP2 AND SWAP2 SWAP1 SWAP2 OR SWAP1 SSTORE DUP4 ISZERO PUSH2 0x7F0 JUMPI DUP5 SLOAD PUSH1 0xFF PUSH1 0x40 SHL NOT AND DUP6 SSTORE PUSH1 0x40 MLOAD PUSH1 0x1 DUP2 MSTORE PUSH32 0xC7F505B2F371AE2175EE4913F4499E1F2633A7B5936321EED1CDAEB6115181D2 SWAP1 PUSH1 0x20 ADD PUSH1 0x40 MLOAD DUP1 SWAP2 SUB SWAP1 LOG1 JUMPDEST POP POP POP POP POP POP POP POP POP JUMP JUMPDEST PUSH2 0x803 PUSH2 0x1719 JUMP JUMPDEST PUSH2 0x80C DUP3 PUSH2 0x17BE JUMP JUMPDEST PUSH2 0x816 DUP3 DUP3 PUSH2 0x17C6 JUMP JUMPDEST POP POP JUMP JUMPDEST PUSH1 0x0 PUSH2 0x824 PUSH2 0x1883 JUMP JUMPDEST POP PUSH1 0x0 DUP1 MLOAD PUSH1 0x20 PUSH2 0x296D DUP4 CODECOPY DUP2 MLOAD SWAP2 MSTORE SWAP1 JUMP JUMPDEST PUSH1 0x0 DUP3 DUP2 MSTORE PUSH1 0x20 DUP2 SWAP1 MSTORE PUSH1 0x40 SWAP1 KECCAK256 DUP1 SLOAD PUSH2 0x100 SWAP1 DIV PUSH1 0x1 PUSH1 0x1 PUSH1 0xA0 SHL SUB AND DUP1 PUSH2 0x873 JUMPI PUSH1 0x40 MLOAD PUSH4 0x4D36EB69 PUSH1 0xE0 SHL DUP2 MSTORE PUSH1 0x4 ADD PUSH1 0x40 MLOAD DUP1 SWAP2 SUB SWAP1 REVERT JUMPDEST DUP2 SLOAD PUSH1 0xFF AND DUP1 PUSH1 0x4 DUP2 GT ISZERO PUSH2 0x88A JUMPI PUSH2 0x88A PUSH2 0x1CCE JUMP JUMPDEST DUP5 PUSH1 0x4 DUP2 GT ISZERO PUSH2 0x89C JUMPI PUSH2 0x89C PUSH2 0x1CCE JUMP JUMPDEST EQ DUP1 PUSH2 0x8BB JUMPI POP PUSH1 0x4 DUP5 DUP2 DUP2 GT ISZERO PUSH2 0x8B6 JUMPI PUSH2 0x8B6 PUSH2 0x1CCE JUMP JUMPDEST PUSH1 0xFF AND GT JUMPDEST DUP1 PUSH2 0x8F5 JUMPI POP PUSH1 0x0 DUP2 PUSH1 0x4 DUP2 GT ISZERO PUSH2 0x8D5 JUMPI PUSH2 0x8D5 PUSH2 0x1CCE JUMP JUMPDEST EQ ISZERO DUP1 ISZERO PUSH2 0x8F5 JUMPI POP PUSH1 0x3 DUP2 PUSH1 0x4 DUP2 GT ISZERO PUSH2 0x8F2 JUMPI PUSH2 0x8F2 PUSH2 0x1CCE JUMP JUMPDEST EQ ISZERO JUMPDEST ISZERO PUSH2 0x913 JUMPI PUSH1 0x40 MLOAD PUSH4 0x7A92F19 PUSH1 0xE5 SHL DUP2 MSTORE PUSH1 0x4 ADD PUSH1 0x40 MLOAD DUP1 SWAP2 SUB SWAP1 REVERT JUMPDEST PUSH1 0x1 SLOAD PUSH1 0x40 MLOAD PUSH4 0xC1AF6E03 PUSH1 0xE0 SHL DUP2 MSTORE PUSH1 0x1 PUSH1 0x1 PUSH1 0xA0 SHL SUB DUP5 DUP2 AND PUSH1 0x4 DUP4 ADD MSTORE CALLER PUSH1 0x24 DUP4 ADD MSTORE SWAP1 SWAP2 AND SWAP1 PUSH4 0xC1AF6E03 SWAP1 PUSH1 0x44 ADD PUSH1 0x20 PUSH1 0x40 MLOAD DUP1 DUP4 SUB DUP2 DUP7 GAS STATICCALL ISZERO DUP1 ISZERO PUSH2 0x963 JUMPI RETURNDATASIZE PUSH1 0x0 DUP1 RETURNDATACOPY RETURNDATASIZE PUSH1 0x0 REVERT JUMPDEST POP POP POP POP PUSH1 0x40 MLOAD RETURNDATASIZE PUSH1 0x1F NOT PUSH1 0x1F DUP3 ADD AND DUP3 ADD DUP1 PUSH1 0x40 MSTORE POP DUP2 ADD SWAP1 PUSH2 0x987 SWAP2 SWAP1 PUSH2 0x25AC JUMP JUMPDEST PUSH2 0x9A4 JUMPI PUSH1 0x40 MLOAD PUSH4 0xF8B857D3 PUSH1 0xE0 SHL DUP2 MSTORE PUSH1 0x4 ADD PUSH1 0x40 MLOAD DUP1 SWAP2 SUB SWAP1 REVERT JUMPDEST DUP3 SLOAD DUP5 SWAP1 DUP5 SWAP1 PUSH1 0xFF NOT AND PUSH1 0x1 DUP4 PUSH1 0x4 DUP2 GT ISZERO PUSH2 0x9C2 JUMPI PUSH2 0x9C2 PUSH2 0x1CCE JUMP JUMPDEST MUL OR SWAP1 SSTORE POP DUP5 PUSH32 0xAC0C4085A30BC70D0D8893EE5D6466AC9C5F03E27FD7292DCEF128A610E7C190 DUP6 PUSH1 0x40 MLOAD PUSH2 0x9F7 SWAP2 SWAP1 PUSH2 0x25C9 JUMP JUMPDEST PUSH1 0x40 MLOAD DUP1 SWAP2 SUB SWAP1 LOG2 POP POP POP POP POP JUMP JUMPDEST PUSH2 0xA13 PUSH1 0x60 DUP3 ADD DUP3 PUSH2 0x25D7 JUMP JUMPDEST SWAP1 POP PUSH1 0x0 SUB PUSH2 0xA35 JUMPI PUSH1 0x40 MLOAD PUSH4 0x111127CB PUSH1 0xE0 SHL DUP2 MSTORE PUSH1 0x4 ADD PUSH1 0x40 MLOAD DUP1 SWAP2 SUB SWAP1 REVERT JUMPDEST PUSH1 0x40 DUP2 ADD CALLDATALOAD PUSH1 0x0 SUB PUSH2 0xA5A JUMPI PUSH1 0x40 MLOAD PUSH4 0x111127CB PUSH1 0xE0 SHL DUP2 MSTORE PUSH1 0x4 ADD PUSH1 0x40 MLOAD DUP1 SWAP2 SUB SWAP1 REVERT JUMPDEST PUSH1 0x0 DUP3 DUP2 MSTORE PUSH1 0x20 DUP2 SWAP1 MSTORE PUSH1 0x40 SWAP1 KECCAK256 DUP1 SLOAD PUSH2 0x100 SWAP1 DIV PUSH1 0x1 PUSH1 0x1 PUSH1 0xA0 SHL SUB AND DUP1 PUSH2 0xA96 JUMPI PUSH1 0x40 MLOAD PUSH4 0x4D36EB69 PUSH1 0xE0 SHL DUP2 MSTORE PUSH1 0x4 ADD PUSH1 0x40 MLOAD DUP1 SWAP2 SUB SWAP1 REVERT JUMPDEST PUSH1 0x1 SLOAD PUSH1 0x40 MLOAD PUSH4 0xC1AF6E03 PUSH1 0xE0 SHL DUP2 MSTORE PUSH1 0x1 PUSH1 0x1 PUSH1 0xA0 SHL SUB DUP4 DUP2 AND PUSH1 0x4 DUP4 ADD MSTORE CALLER PUSH1 0x24 DUP4 ADD MSTORE SWAP1 SWAP2 AND SWAP1 PUSH4 0xC1AF6E03 SWAP1 PUSH1 0x44 ADD PUSH1 0x20 PUSH1 0x40 MLOAD DUP1 DUP4 SUB DUP2 DUP7 GAS STATICCALL ISZERO DUP1 ISZERO PUSH2 0xAE6 JUMPI RETURNDATASIZE PUSH1 0x0 DUP1 RETURNDATACOPY RETURNDATASIZE PUSH1 0x0 REVERT JUMPDEST POP POP POP POP PUSH1 0x40 MLOAD RETURNDATASIZE PUSH1 0x1F NOT PUSH1 0x1F DUP3 ADD AND DUP3 ADD DUP1 PUSH1 0x40 MSTORE POP DUP2 ADD SWAP1 PUSH2 0xB0A SWAP2 SWAP1 PUSH2 0x25AC JUMP JUMPDEST PUSH2 0xB27 JUMPI PUSH1 0x40 MLOAD PUSH4 0xF8B857D3 PUSH1 0xE0 SHL DUP2 MSTORE PUSH1 0x4 ADD PUSH1 0x40 MLOAD DUP1 SWAP2 SUB SWAP1 REVERT JUMPDEST PUSH1 0x10 DUP3 ADD SLOAD PUSH1 0x20 DUP5 ADD CALLDATALOAD LT ISZERO PUSH2 0xB50 JUMPI PUSH1 0x40 MLOAD PUSH4 0x111127CB PUSH1 0xE0 SHL DUP2 MSTORE PUSH1 0x4 ADD PUSH1 0x40 MLOAD DUP1 SWAP2 SUB SWAP1 REVERT JUMPDEST PUSH1 0x0 DUP3 SLOAD PUSH1 0xFF AND PUSH1 0x4 DUP2 GT ISZERO PUSH2 0xB68 JUMPI PUSH2 0xB68 PUSH2 0x1CCE JUMP JUMPDEST EQ ISZERO DUP1 ISZERO PUSH2 0xB8C JUMPI POP PUSH1 0x3 DUP3 SLOAD PUSH1 0xFF AND PUSH1 0x4 DUP2 GT ISZERO PUSH2 0xB89 JUMPI PUSH2 0xB89 PUSH2 0x1CCE JUMP JUMPDEST EQ ISZERO JUMPDEST ISZERO PUSH2 0xBAA JUMPI PUSH1 0x40 MLOAD PUSH4 0x7A92F19 PUSH1 0xE5 SHL DUP2 MSTORE PUSH1 0x4 ADD PUSH1 0x40 MLOAD DUP1 SWAP2 SUB SWAP1 REVERT JUMPDEST PUSH1 0x20 DUP4 ADD CALLDATALOAD PUSH1 0x10 DUP4 ADD SSTORE PUSH1 0x40 DUP4 ADD CALLDATALOAD PUSH1 0x11 DUP4 ADD SSTORE PUSH2 0xBCB PUSH1 0x60 DUP5 ADD DUP5 PUSH2 0x25D7 JUMP JUMPDEST PUSH1 0x12 DUP5 ADD SWAP2 PUSH2 0xBDB SWAP2 SWAP1 DUP4 PUSH2 0x24DF JUMP JUMPDEST POP DUP4 PUSH32 0x35947A8913E2156F19B018078C9F0667E49CB3DC24AF3434A4D0B16B82675B1B PUSH1 0x40 DUP6 ADD CALLDATALOAD PUSH2 0xC10 PUSH1 0x60 DUP8 ADD DUP8 PUSH2 0x25D7 JUMP JUMPDEST DUP8 PUSH1 0x20 ADD CALLDATALOAD PUSH1 0x40 MLOAD PUSH2 0xC25 SWAP5 SWAP4 SWAP3 SWAP2 SWAP1 PUSH2 0x2646 JUMP JUMPDEST PUSH1 0x40 MLOAD DUP1 SWAP2 SUB SWAP1 LOG2 POP POP POP POP JUMP JUMPDEST PUSH2 0xC3B PUSH2 0x18CC JUMP JUMPDEST PUSH2 0xC45 PUSH1 0x0 PUSH2 0x1927 JUMP JUMPDEST JUMP JUMPDEST PUSH1 0x3 SLOAD PUSH1 0x40 DUP1 MLOAD PUSH4 0x233ACE11 PUSH1 0xE0 SHL DUP2 MSTORE SWAP1 MLOAD PUSH1 0x0 SWAP3 PUSH1 0x1 PUSH1 0x1 PUSH1 0xA0 SHL SUB AND SWAP2 PUSH4 0x233ACE11 SWAP2 PUSH1 0x4 DUP1 DUP4 ADD SWAP3 PUSH1 0x20 SWAP3 SWAP2 SWAP1 DUP3 SWAP1 SUB ADD DUP2 DUP7 GAS STATICCALL ISZERO DUP1 ISZERO PUSH2 0xC91 JUMPI RETURNDATASIZE PUSH1 0x0 DUP1 RETURNDATACOPY RETURNDATASIZE PUSH1 0x0 REVERT JUMPDEST POP POP POP POP PUSH1 0x40 MLOAD RETURNDATASIZE PUSH1 0x1F NOT PUSH1 0x1F DUP3 ADD AND DUP3 ADD DUP1 PUSH1 0x40 MSTORE POP DUP2 ADD SWAP1 PUSH2 0xCB5 SWAP2 SWAP1 PUSH2 0x2671 JUMP JUMPDEST SWAP1 POP SWAP1 JUMP JUMPDEST PUSH1 0x1 SLOAD PUSH1 0x40 MLOAD PUSH4 0xC1AF6E03 PUSH1 0xE0 SHL DUP2 MSTORE PUSH1 0x1 PUSH1 0x1 PUSH1 0xA0 SHL SUB DUP7 DUP2 AND PUSH1 0x4 DUP4 ADD MSTORE CALLER PUSH1 0x24 DUP4 ADD MSTORE SWAP1 SWAP2 AND SWAP1 PUSH4 0xC1AF6E03 SWAP1 PUSH1 0x44 ADD PUSH1 0x20 PUSH1 0x40 MLOAD DUP1 DUP4 SUB DUP2 DUP7 GAS STATICCALL ISZERO DUP1 ISZERO PUSH2 0xD0A JUMPI RETURNDATASIZE PUSH1 0x0 DUP1 RETURNDATACOPY RETURNDATASIZE PUSH1 0x0 REVERT JUMPDEST POP POP POP POP PUSH1 0x40 MLOAD RETURNDATASIZE PUSH1 0x1F NOT PUSH1 0x1F DUP3 ADD AND DUP3 ADD DUP1 PUSH1 0x40 MSTORE POP DUP2 ADD SWAP1 PUSH2 0xD2E SWAP2 SWAP1 PUSH2 0x25AC JUMP JUMPDEST PUSH2 0xD4B JUMPI PUSH1 0x40 MLOAD PUSH4 0xF8B857D3 PUSH1 0xE0 SHL DUP2 MSTORE PUSH1 0x4 ADD PUSH1 0x40 MLOAD DUP1 SWAP2 SUB SWAP1 REVERT JUMPDEST PUSH1 0x0 DUP4 DUP2 MSTORE PUSH1 0x20 DUP2 SWAP1 MSTORE PUSH1 0x40 SWAP1 KECCAK256 DUP1 SLOAD PUSH2 0x100 SWAP1 DIV PUSH1 0x1 PUSH1 0x1 PUSH1 0xA0 SHL SUB AND ISZERO PUSH2 0xD87 JUMPI PUSH1 0x40 MLOAD PUSH4 0x5040C4D3 PUSH1 0xE1 SHL DUP2 MSTORE PUSH1 0x4 ADD PUSH1 0x40 MLOAD DUP1 SWAP2 SUB SWAP1 REVERT JUMPDEST PUSH2 0xD97 PUSH1 0x60 DUP11 ADD PUSH1 0x40 DUP12 ADD PUSH2 0x2699 JUMP JUMPDEST PUSH1 0xFF AND PUSH1 0x0 SUB PUSH2 0xDBA JUMPI PUSH1 0x40 MLOAD PUSH4 0xAC38930B PUSH1 0xE0 SHL DUP2 MSTORE PUSH1 0x4 ADD PUSH1 0x40 MLOAD DUP1 SWAP2 SUB SWAP1 REVERT JUMPDEST PUSH2 0xDCA PUSH1 0x60 DUP11 ADD PUSH1 0x40 DUP12 ADD PUSH2 0x2699 JUMP JUMPDEST PUSH1 0xFF AND DUP10 PUSH1 0x80 ADD CALLDATALOAD GT PUSH2 0xDF0 JUMPI PUSH1 0x40 MLOAD PUSH4 0xB1911D8B PUSH1 0xE0 SHL DUP2 MSTORE PUSH1 0x4 ADD PUSH1 0x40 MLOAD DUP1 SWAP2 SUB SWAP1 REVERT JUMPDEST PUSH1 0x4 DUP13 DUP2 DUP2 GT ISZERO PUSH2 0xE03 JUMPI PUSH2 0xE03 PUSH2 0x1CCE JUMP JUMPDEST PUSH1 0xFF AND GT DUP1 PUSH2 0xE41 JUMPI POP PUSH1 0x0 DUP13 PUSH1 0x4 DUP2 GT ISZERO PUSH2 0xE21 JUMPI PUSH2 0xE21 PUSH2 0x1CCE JUMP JUMPDEST EQ ISZERO DUP1 ISZERO PUSH2 0xE41 JUMPI POP PUSH1 0x3 DUP13 PUSH1 0x4 DUP2 GT ISZERO PUSH2 0xE3E JUMPI PUSH2 0xE3E PUSH2 0x1CCE JUMP JUMPDEST EQ ISZERO JUMPDEST ISZERO PUSH2 0xE5F JUMPI PUSH1 0x40 MLOAD PUSH4 0x7A92F19 PUSH1 0xE5 SHL DUP2 MSTORE PUSH1 0x4 ADD PUSH1 0x40 MLOAD DUP1 SWAP2 SUB SWAP1 REVERT JUMPDEST TIMESTAMP PUSH1 0x0 DUP13 SWAP1 SUB PUSH2 0xE6D JUMPI DUP1 SWAP12 POP JUMPDEST DUP1 DUP13 LT ISZERO PUSH2 0xE8E JUMPI PUSH1 0x40 MLOAD PUSH4 0x2CA4094F PUSH1 0xE2 SHL DUP2 MSTORE PUSH1 0x4 ADD PUSH1 0x40 MLOAD DUP1 SWAP2 SUB SWAP1 REVERT JUMPDEST DUP1 PUSH2 0xE99 DUP13 DUP15 PUSH2 0x26CC JUMP JUMPDEST GT PUSH2 0xEB7 JUMPI PUSH1 0x40 MLOAD PUSH4 0x76166401 PUSH1 0xE0 SHL DUP2 MSTORE PUSH1 0x4 ADD PUSH1 0x40 MLOAD DUP1 SWAP2 SUB SWAP1 REVERT JUMPDEST PUSH1 0x9 PUSH2 0xEC6 PUSH1 0x20 DUP12 ADD DUP12 PUSH2 0x26EC JUMP JUMPDEST PUSH1 0x9 DUP2 GT ISZERO PUSH2 0xED7 JUMPI PUSH2 0xED7 PUSH2 0x1CCE JUMP JUMPDEST PUSH1 0xFF AND GT ISZERO PUSH2 0xEF9 JUMPI PUSH1 0x40 MLOAD PUSH4 0x111127CB PUSH1 0xE0 SHL DUP2 MSTORE PUSH1 0x4 ADD PUSH1 0x40 MLOAD DUP1 SWAP2 SUB SWAP1 REVERT JUMPDEST DUP2 SLOAD DUP14 SWAP1 DUP4 SWAP1 PUSH1 0xFF NOT AND PUSH1 0x1 DUP4 PUSH1 0x4 DUP2 GT ISZERO PUSH2 0xF17 JUMPI PUSH2 0xF17 PUSH2 0x1CCE JUMP JUMPDEST MUL OR SWAP1 SSTORE POP PUSH1 0x5 DUP3 ADD DUP13 SWAP1 SSTORE PUSH1 0x6 DUP3 ADD DUP12 SWAP1 SSTORE DUP2 SLOAD PUSH2 0x100 PUSH1 0x1 PUSH1 0xA8 SHL SUB NOT AND PUSH2 0x100 PUSH1 0x1 PUSH1 0x1 PUSH1 0xA0 SHL SUB DUP9 AND MUL OR DUP3 SSTORE DUP4 CALLDATALOAD PUSH1 0x1 DUP4 ADD SSTORE PUSH1 0x20 DUP5 ADD CALLDATALOAD PUSH1 0x2 DUP4 ADD SSTORE PUSH1 0x3 DUP3 ADD DUP4 SWAP1 SSTORE PUSH1 0x9 DUP3 ADD PUSH2 0xF6F DUP9 DUP11 DUP4 PUSH2 0x24DF JUMP JUMPDEST POP DUP10 PUSH1 0xA DUP4 ADD PUSH2 0xF7F DUP3 DUP3 PUSH2 0x2723 JUMP JUMPDEST POP DUP10 SWAP1 POP PUSH1 0xF DUP4 ADD PUSH2 0xF91 DUP3 DUP3 PUSH2 0x27E5 JUMP JUMPDEST POP POP PUSH1 0x1 DUP1 SLOAD PUSH1 0x1 PUSH1 0xA0 SHL SWAP1 DIV PUSH4 0xFFFFFFFF AND SWAP1 PUSH1 0x14 PUSH2 0xFB0 DUP4 PUSH2 0x287C JUMP JUMPDEST SWAP2 SWAP1 PUSH2 0x100 EXP DUP2 SLOAD DUP2 PUSH4 0xFFFFFFFF MUL NOT AND SWAP1 DUP4 PUSH4 0xFFFFFFFF AND MUL OR SWAP1 SSTORE POP POP CALLER PUSH1 0x1 PUSH1 0x1 PUSH1 0xA0 SHL SUB AND DUP6 PUSH32 0xADA6F87A2A16A0C9C169CA36754C5F33F7C1A973B575D068F888A549ED4FAEFA PUSH1 0x40 MLOAD PUSH1 0x40 MLOAD DUP1 SWAP2 SUB SWAP1 LOG3 POP POP POP POP POP POP POP POP POP POP POP POP POP JUMP JUMPDEST PUSH2 0x101D PUSH2 0x1BC3 JUMP JUMPDEST PUSH1 0x0 DUP3 DUP2 MSTORE PUSH1 0x20 DUP2 SWAP1 MSTORE PUSH1 0x40 SWAP1 DUP2 SWAP1 KECCAK256 DUP2 MLOAD PUSH2 0x180 DUP2 ADD SWAP1 SWAP3 MSTORE DUP1 SLOAD DUP3 SWAP1 PUSH1 0xFF AND PUSH1 0x4 DUP2 GT ISZERO PUSH2 0x104F JUMPI PUSH2 0x104F PUSH2 0x1CCE JUMP JUMPDEST PUSH1 0x4 DUP2 GT ISZERO PUSH2 0x1060 JUMPI PUSH2 0x1060 PUSH2 0x1CCE JUMP JUMPDEST DUP2 MSTORE DUP2 SLOAD PUSH2 0x100 SWAP1 DIV PUSH1 0x1 PUSH1 0x1 PUSH1 0xA0 SHL SUB AND PUSH1 0x20 DUP1 DUP4 ADD SWAP2 SWAP1 SWAP2 MSTORE PUSH1 0x40 DUP1 MLOAD DUP1 DUP3 ADD DUP3 MSTORE PUSH1 0x1 DUP6 ADD SLOAD DUP2 MSTORE PUSH1 0x2 DUP6 ADD SLOAD DUP2 DUP5 ADD MSTORE DUP2 DUP5 ADD MSTORE PUSH1 0x3 DUP5 ADD SLOAD PUSH1 0x60 DUP5 ADD MSTORE PUSH1 0x4 DUP5 ADD DUP1 SLOAD DUP3 MLOAD DUP2 DUP6 MUL DUP2 ADD DUP6 ADD SWAP1 SWAP4 MSTORE DUP1 DUP4 MSTORE PUSH1 0x80 SWAP1 SWAP5 ADD SWAP4 SWAP2 SWAP3 SWAP1 SWAP2 SWAP1 DUP4 ADD DUP3 DUP3 DUP1 ISZERO PUSH2 0x10F1 JUMPI PUSH1 0x20 MUL DUP3 ADD SWAP2 SWAP1 PUSH1 0x0 MSTORE PUSH1 0x20 PUSH1 0x0 KECCAK256 SWAP1 JUMPDEST DUP2 SLOAD DUP2 MSTORE PUSH1 0x20 ADD SWAP1 PUSH1 0x1 ADD SWAP1 DUP1 DUP4 GT PUSH2 0x10DD JUMPI JUMPDEST POP POP POP POP POP DUP2 MSTORE PUSH1 0x20 ADD PUSH1 0x5 DUP3 ADD SLOAD DUP2 MSTORE PUSH1 0x20 ADD PUSH1 0x6 DUP3 ADD SLOAD DUP2 MSTORE PUSH1 0x20 ADD PUSH1 0x7 DUP3 ADD SLOAD DUP2 MSTORE PUSH1 0x20 ADD PUSH1 0x8 DUP3 ADD SLOAD DUP2 MSTORE PUSH1 0x20 ADD PUSH1 0x9 DUP3 ADD DUP1 SLOAD PUSH2 0x1132 SWAP1 PUSH2 0x245D JUMP JUMPDEST DUP1 PUSH1 0x1F ADD PUSH1 0x20 DUP1 SWAP2 DIV MUL PUSH1 0x20 ADD PUSH1 0x40 MLOAD SWAP1 DUP2 ADD PUSH1 0x40 MSTORE DUP1 SWAP3 SWAP2 SWAP1 DUP2 DUP2 MSTORE PUSH1 0x20 ADD DUP3 DUP1 SLOAD PUSH2 0x115E SWAP1 PUSH2 0x245D JUMP JUMPDEST DUP1 ISZERO PUSH2 0x11AB JUMPI DUP1 PUSH1 0x1F LT PUSH2 0x1180 JUMPI PUSH2 0x100 DUP1 DUP4 SLOAD DIV MUL DUP4 MSTORE SWAP2 PUSH1 0x20 ADD SWAP2 PUSH2 0x11AB JUMP JUMPDEST DUP3 ADD SWAP2 SWAP1 PUSH1 0x0 MSTORE PUSH1 0x20 PUSH1 0x0 KECCAK256 SWAP1 JUMPDEST DUP2 SLOAD DUP2 MSTORE SWAP1 PUSH1 0x1 ADD SWAP1 PUSH1 0x20 ADD DUP1 DUP4 GT PUSH2 0x118E JUMPI DUP3 SWAP1 SUB PUSH1 0x1F AND DUP3 ADD SWAP2 JUMPDEST POP POP POP SWAP2 DUP4 MSTORE POP POP PUSH1 0x40 DUP1 MLOAD PUSH2 0x100 DUP1 DUP3 ADD DUP4 MSTORE PUSH1 0xA DUP6 ADD SLOAD PUSH1 0xFF DUP1 DUP3 AND ISZERO ISZERO DUP5 MSTORE SWAP2 DUP2 DIV DUP3 AND ISZERO ISZERO PUSH1 0x20 DUP5 DUP2 ADD SWAP2 SWAP1 SWAP2 MSTORE PUSH3 0x10000 DUP3 DIV DUP4 AND DUP5 DUP7 ADD MSTORE PUSH4 0x1000000 SWAP1 SWAP2 DIV DUP3 AND PUSH1 0x60 DUP5 ADD MSTORE PUSH1 0xB DUP7 ADD SLOAD PUSH1 0x80 DUP1 DUP6 ADD SWAP2 SWAP1 SWAP2 MSTORE PUSH1 0xC DUP8 ADD SLOAD PUSH1 0xA0 DUP6 ADD MSTORE PUSH1 0xD DUP8 ADD SLOAD PUSH1 0xC0 DUP6 ADD MSTORE PUSH1 0xE DUP8 ADD SLOAD PUSH1 0xE0 DUP6 ADD MSTORE SWAP1 DUP6 ADD SWAP3 SWAP1 SWAP3 MSTORE DUP3 MLOAD SWAP2 DUP3 ADD DUP4 MSTORE PUSH1 0xF DUP6 ADD DUP1 SLOAD SWAP4 SWAP1 SWAP5 ADD SWAP4 SWAP2 SWAP3 DUP4 SWAP2 AND PUSH1 0x9 DUP2 GT ISZERO PUSH2 0x1253 JUMPI PUSH2 0x1253 PUSH2 0x1CCE JUMP JUMPDEST PUSH1 0x9 DUP2 GT ISZERO PUSH2 0x1264 JUMPI PUSH2 0x1264 PUSH2 0x1CCE JUMP JUMPDEST DUP2 MSTORE PUSH1 0x20 ADD PUSH1 0x1 DUP3 ADD SLOAD DUP2 MSTORE PUSH1 0x20 ADD PUSH1 0x2 DUP3 ADD SLOAD DUP2 MSTORE PUSH1 0x20 ADD PUSH1 0x3 DUP3 ADD DUP1 SLOAD PUSH2 0x128C SWAP1 PUSH2 0x245D JUMP JUMPDEST DUP1 PUSH1 0x1F ADD PUSH1 0x20 DUP1 SWAP2 DIV MUL PUSH1 0x20 ADD PUSH1 0x40 MLOAD SWAP1 DUP2 ADD PUSH1 0x40 MSTORE DUP1 SWAP3 SWAP2 SWAP1 DUP2 DUP2 MSTORE PUSH1 0x20 ADD DUP3 DUP1 SLOAD PUSH2 0x12B8 SWAP1 PUSH2 0x245D JUMP JUMPDEST DUP1 ISZERO PUSH2 0x1305 JUMPI DUP1 PUSH1 0x1F LT PUSH2 0x12DA JUMPI PUSH2 0x100 DUP1 DUP4 SLOAD DIV MUL DUP4 MSTORE SWAP2 PUSH1 0x20 ADD SWAP2 PUSH2 0x1305 JUMP JUMPDEST DUP3 ADD SWAP2 SWAP1 PUSH1 0x0 MSTORE PUSH1 0x20 PUSH1 0x0 KECCAK256 SWAP1 JUMPDEST DUP2 SLOAD DUP2 MSTORE SWAP1 PUSH1 0x1 ADD SWAP1 PUSH1 0x20 ADD DUP1 DUP4 GT PUSH2 0x12E8 JUMPI DUP3 SWAP1 SUB PUSH1 0x1F AND DUP3 ADD SWAP2 JUMPDEST POP POP POP SWAP2 SWAP1 SWAP3 MSTORE POP POP POP SWAP1 MSTORE POP SWAP3 SWAP2 POP POP JUMP JUMPDEST PUSH1 0x2 DUP1 SLOAD PUSH2 0x1325 SWAP1 PUSH2 0x245D JUMP JUMPDEST DUP1 PUSH1 0x1F ADD PUSH1 0x20 DUP1 SWAP2 DIV MUL PUSH1 0x20 ADD PUSH1 0x40 MLOAD SWAP1 DUP2 ADD PUSH1 0x40 MSTORE DUP1 SWAP3 SWAP2 SWAP1 DUP2 DUP2 MSTORE PUSH1 0x20 ADD DUP3 DUP1 SLOAD PUSH2 0x1351 SWAP1 PUSH2 0x245D JUMP JUMPDEST DUP1 ISZERO PUSH2 0x139E JUMPI DUP1 PUSH1 0x1F LT PUSH2 0x1373 JUMPI PUSH2 0x100 DUP1 DUP4 SLOAD DIV MUL DUP4 MSTORE SWAP2 PUSH1 0x20 ADD SWAP2 PUSH2 0x139E JUMP JUMPDEST DUP3 ADD SWAP2 SWAP1 PUSH1 0x0 MSTORE PUSH1 0x20 PUSH1 0x0 KECCAK256 SWAP1 JUMPDEST DUP2 SLOAD DUP2 MSTORE SWAP1 PUSH1 0x1 ADD SWAP1 PUSH1 0x20 ADD DUP1 DUP4 GT PUSH2 0x1381 JUMPI DUP3 SWAP1 SUB PUSH1 0x1F AND DUP3 ADD SWAP2 JUMPDEST POP POP POP POP POP DUP2 JUMP JUMPDEST TIMESTAMP DUP2 GT PUSH2 0x13C6 JUMPI PUSH1 0x40 MLOAD PUSH4 0x76166401 PUSH1 0xE0 SHL DUP2 MSTORE PUSH1 0x4 ADD PUSH1 0x40 MLOAD DUP1 SWAP2 SUB SWAP1 REVERT JUMPDEST PUSH1 0x0 DUP3 DUP2 MSTORE PUSH1 0x20 DUP2 SWAP1 MSTORE PUSH1 0x40 SWAP1 KECCAK256 DUP1 SLOAD PUSH2 0x100 SWAP1 DIV PUSH1 0x1 PUSH1 0x1 PUSH1 0xA0 SHL SUB AND DUP1 PUSH2 0x1402 JUMPI PUSH1 0x40 MLOAD PUSH4 0x4D36EB69 PUSH1 0xE0 SHL DUP2 MSTORE PUSH1 0x4 ADD PUSH1 0x40 MLOAD DUP1 SWAP2 SUB SWAP1 REVERT JUMPDEST PUSH1 0x1 SLOAD PUSH1 0x40 MLOAD PUSH4 0xC1AF6E03 PUSH1 0xE0 SHL DUP2 MSTORE PUSH1 0x1 PUSH1 0x1 PUSH1 0xA0 SHL SUB DUP4 DUP2 AND PUSH1 0x4 DUP4 ADD MSTORE CALLER PUSH1 0x24 DUP4 ADD MSTORE SWAP1 SWAP2 AND SWAP1 PUSH4 0xC1AF6E03 SWAP1 PUSH1 0x44 ADD PUSH1 0x20 PUSH1 0x40 MLOAD DUP1 DUP4 SUB DUP2 DUP7 GAS STATICCALL ISZERO DUP1 ISZERO PUSH2 0x1452 JUMPI RETURNDATASIZE PUSH1 0x0 DUP1 RETURNDATACOPY RETURNDATASIZE PUSH1 0x0 REVERT JUMPDEST POP POP POP POP PUSH1 0x40 MLOAD RETURNDATASIZE PUSH1 0x1F NOT PUSH1 0x1F DUP3 ADD AND DUP3 ADD DUP1 PUSH1 0x40 MSTORE POP DUP2 ADD SWAP1 PUSH2 0x1476 SWAP2 SWAP1 PUSH2 0x25AC JUMP JUMPDEST PUSH2 0x1493 JUMPI PUSH1 0x40 MLOAD PUSH4 0xF8B857D3 PUSH1 0xE0 SHL DUP2 MSTORE PUSH1 0x4 ADD PUSH1 0x40 MLOAD DUP1 SWAP2 SUB SWAP1 REVERT JUMPDEST PUSH1 0x0 DUP3 SLOAD PUSH1 0xFF AND PUSH1 0x4 DUP2 GT ISZERO PUSH2 0x14AB JUMPI PUSH2 0x14AB PUSH2 0x1CCE JUMP JUMPDEST EQ ISZERO DUP1 ISZERO PUSH2 0x14CF JUMPI POP PUSH1 0x3 DUP3 SLOAD PUSH1 0xFF AND PUSH1 0x4 DUP2 GT ISZERO PUSH2 0x14CC JUMPI PUSH2 0x14CC PUSH2 0x1CCE JUMP JUMPDEST EQ ISZERO JUMPDEST ISZERO PUSH2 0x14ED JUMPI PUSH1 0x40 MLOAD PUSH4 0x7A92F19 PUSH1 0xE5 SHL DUP2 MSTORE PUSH1 0x4 ADD PUSH1 0x40 MLOAD DUP1 SWAP2 SUB SWAP1 REVERT JUMPDEST PUSH1 0x6 DUP3 ADD DUP4 SWAP1 SSTORE PUSH1 0x40 MLOAD DUP4 DUP2 MSTORE DUP5 SWAP1 PUSH32 0xF759826327C668A220D576485AC38DDC4F83FBC414B984C00E79F669B649F46 SWAP1 PUSH1 0x20 ADD PUSH2 0xC25 JUMP JUMPDEST PUSH1 0x0 DUP6 DUP2 MSTORE PUSH1 0x20 DUP2 SWAP1 MSTORE PUSH1 0x40 SWAP1 KECCAK256 DUP1 SLOAD PUSH2 0x100 SWAP1 DIV PUSH1 0x1 PUSH1 0x1 PUSH1 0xA0 SHL SUB AND PUSH2 0x1561 JUMPI PUSH1 0x40 MLOAD PUSH4 0x4D36EB69 PUSH1 0xE0 SHL DUP2 MSTORE PUSH1 0x4 ADD PUSH1 0x40 MLOAD DUP1 SWAP2 SUB SWAP1 REVERT JUMPDEST PUSH1 0x0 DUP2 SLOAD PUSH1 0xFF AND PUSH1 0x4 DUP2 GT ISZERO PUSH2 0x1579 JUMPI PUSH2 0x1579 PUSH2 0x1CCE JUMP JUMPDEST EQ PUSH2 0x1597 JUMPI PUSH1 0x40 MLOAD PUSH4 0x7A92F19 PUSH1 0xE5 SHL DUP2 MSTORE PUSH1 0x4 ADD PUSH1 0x40 MLOAD DUP1 SWAP2 SUB SWAP1 REVERT JUMPDEST PUSH1 0x3 SLOAD PUSH1 0x40 MLOAD PUSH4 0x5C73957B PUSH1 0xE1 SHL DUP2 MSTORE PUSH1 0x1 PUSH1 0x1 PUSH1 0xA0 SHL SUB SWAP1 SWAP2 AND SWAP1 PUSH4 0xB8E72AF6 SWAP1 PUSH2 0x15CD SWAP1 DUP9 SWAP1 DUP9 SWAP1 DUP9 SWAP1 DUP9 SWAP1 PUSH1 0x4 ADD PUSH2 0x28A1 JUMP JUMPDEST PUSH1 0x0 PUSH1 0x40 MLOAD DUP1 DUP4 SUB DUP2 DUP7 DUP1 EXTCODESIZE ISZERO DUP1 ISZERO PUSH2 0x15E5 JUMPI PUSH1 0x0 DUP1 REVERT JUMPDEST POP GAS STATICCALL ISZERO DUP1 ISZERO PUSH2 0x15F9 JUMPI RETURNDATASIZE PUSH1 0x0 DUP1 RETURNDATACOPY RETURNDATASIZE PUSH1 0x0 REVERT JUMPDEST POP PUSH1 0x0 SWAP3 POP PUSH2 0x160D SWAP2 POP POP DUP4 DUP6 ADD DUP6 PUSH2 0x28D3 JUMP JUMPDEST PUSH1 0x3 DUP4 ADD SLOAD DUP2 MLOAD SWAP2 SWAP3 POP EQ PUSH2 0x1635 JUMPI PUSH1 0x40 MLOAD PUSH4 0xB6FAC03 PUSH1 0xE4 SHL DUP2 MSTORE PUSH1 0x4 ADD PUSH1 0x40 MLOAD DUP1 SWAP2 SUB SWAP1 REVERT JUMPDEST PUSH1 0x20 DUP2 ADD MLOAD PUSH1 0x3 DUP4 ADD SSTORE PUSH1 0x40 DUP2 ADD MLOAD PUSH1 0x7 DUP4 ADD DUP1 SLOAD PUSH1 0x0 SWAP1 PUSH2 0x1658 SWAP1 DUP5 SWAP1 PUSH2 0x26CC JUMP JUMPDEST SWAP1 SWAP2 SSTORE POP POP PUSH1 0x60 DUP2 ADD MLOAD PUSH1 0x8 DUP4 ADD DUP1 SLOAD PUSH1 0x0 SWAP1 PUSH2 0x1676 SWAP1 DUP5 SWAP1 PUSH2 0x26CC JUMP JUMPDEST SWAP1 SWAP2 SSTORE POP POP PUSH1 0x20 DUP1 DUP3 ADD MLOAD PUSH1 0x40 MLOAD SWAP1 DUP2 MSTORE DUP9 SWAP2 PUSH32 0xD25CBD3FA66107EFB1230DC4F49F939D7B6B57BA10AB0EC87BA39040C075CF20 SWAP2 ADD PUSH1 0x40 MLOAD DUP1 SWAP2 SUB SWAP1 LOG2 POP POP POP POP POP POP POP JUMP JUMPDEST PUSH2 0x16C5 PUSH2 0x18CC JUMP JUMPDEST PUSH1 0x1 PUSH1 0x1 PUSH1 0xA0 SHL SUB DUP2 AND PUSH2 0x16F4 JUMPI PUSH1 0x40 MLOAD PUSH4 0x1E4FBDF7 PUSH1 0xE0 SHL DUP2 MSTORE PUSH1 0x0 PUSH1 0x4 DUP3 ADD MSTORE PUSH1 0x24 ADD JUMPDEST PUSH1 0x40 MLOAD DUP1 SWAP2 SUB SWAP1 REVERT JUMPDEST PUSH2 0x16FD DUP2 PUSH2 0x1927 JUMP JUMPDEST POP JUMP JUMPDEST PUSH2 0x1708 PUSH2 0x1998 JUMP JUMPDEST PUSH2 0x16FD DUP2 PUSH2 0x19E1 JUMP JUMPDEST PUSH2 0xC45 PUSH2 0x1998 JUMP JUMPDEST ADDRESS PUSH1 0x1 PUSH1 0x1 PUSH1 0xA0 SHL SUB PUSH32 0x0 AND EQ DUP1 PUSH2 0x17A0 JUMPI POP PUSH32 0x0 PUSH1 0x1 PUSH1 0x1 PUSH1 0xA0 SHL SUB AND PUSH2 0x1794 PUSH1 0x0 DUP1 MLOAD PUSH1 0x20 PUSH2 0x296D DUP4 CODECOPY DUP2 MLOAD SWAP2 MSTORE SLOAD PUSH1 0x1 PUSH1 0x1 PUSH1 0xA0 SHL SUB AND SWAP1 JUMP JUMPDEST PUSH1 0x1 PUSH1 0x1 PUSH1 0xA0 SHL SUB AND EQ ISZERO JUMPDEST ISZERO PUSH2 0xC45 JUMPI PUSH1 0x40 MLOAD PUSH4 0x703E46DD PUSH1 0xE1 SHL DUP2 MSTORE PUSH1 0x4 ADD PUSH1 0x40 MLOAD DUP1 SWAP2 SUB SWAP1 REVERT JUMPDEST PUSH2 0x16FD PUSH2 0x18CC JUMP JUMPDEST DUP2 PUSH1 0x1 PUSH1 0x1 PUSH1 0xA0 SHL SUB AND PUSH4 0x52D1902D PUSH1 0x40 MLOAD DUP2 PUSH4 0xFFFFFFFF AND PUSH1 0xE0 SHL DUP2 MSTORE PUSH1 0x4 ADD PUSH1 0x20 PUSH1 0x40 MLOAD DUP1 DUP4 SUB DUP2 DUP7 GAS STATICCALL SWAP3 POP POP POP DUP1 ISZERO PUSH2 0x1820 JUMPI POP PUSH1 0x40 DUP1 MLOAD PUSH1 0x1F RETURNDATASIZE SWAP1 DUP2 ADD PUSH1 0x1F NOT AND DUP3 ADD SWAP1 SWAP3 MSTORE PUSH2 0x181D SWAP2 DUP2 ADD SWAP1 PUSH2 0x2671 JUMP JUMPDEST PUSH1 0x1 JUMPDEST PUSH2 0x1848 JUMPI PUSH1 0x40 MLOAD PUSH4 0x4C9C8CE3 PUSH1 0xE0 SHL DUP2 MSTORE PUSH1 0x1 PUSH1 0x1 PUSH1 0xA0 SHL SUB DUP4 AND PUSH1 0x4 DUP3 ADD MSTORE PUSH1 0x24 ADD PUSH2 0x16EB JUMP JUMPDEST PUSH1 0x0 DUP1 MLOAD PUSH1 0x20 PUSH2 0x296D DUP4 CODECOPY DUP2 MLOAD SWAP2 MSTORE DUP2 EQ PUSH2 0x1879 JUMPI PUSH1 0x40 MLOAD PUSH4 0x2A875269 PUSH1 0xE2 SHL DUP2 MSTORE PUSH1 0x4 DUP2 ADD DUP3 SWAP1 MSTORE PUSH1 0x24 ADD PUSH2 0x16EB JUMP JUMPDEST PUSH2 0x38A DUP4 DUP4 PUSH2 0x19E9 JUMP JUMPDEST ADDRESS PUSH1 0x1 PUSH1 0x1 PUSH1 0xA0 SHL SUB PUSH32 0x0 AND EQ PUSH2 0xC45 JUMPI PUSH1 0x40 MLOAD PUSH4 0x703E46DD PUSH1 0xE1 SHL DUP2 MSTORE PUSH1 0x4 ADD PUSH1 0x40 MLOAD DUP1 SWAP2 SUB SWAP1 REVERT JUMPDEST CALLER PUSH2 0x18FE PUSH32 0x9016D09D72D40FDAE2FD8CEAC6B6234C7706214FD39C1CD1E609A0528C199300 SLOAD PUSH1 0x1 PUSH1 0x1 PUSH1 0xA0 SHL SUB AND SWAP1 JUMP JUMPDEST PUSH1 0x1 PUSH1 0x1 PUSH1 0xA0 SHL SUB AND EQ PUSH2 0xC45 JUMPI PUSH1 0x40 MLOAD PUSH4 0x118CDAA7 PUSH1 0xE0 SHL DUP2 MSTORE CALLER PUSH1 0x4 DUP3 ADD MSTORE PUSH1 0x24 ADD PUSH2 0x16EB JUMP JUMPDEST PUSH32 0x9016D09D72D40FDAE2FD8CEAC6B6234C7706214FD39C1CD1E609A0528C199300 DUP1 SLOAD PUSH1 0x1 PUSH1 0x1 PUSH1 0xA0 SHL SUB NOT DUP2 AND PUSH1 0x1 PUSH1 0x1 PUSH1 0xA0 SHL SUB DUP5 DUP2 AND SWAP2 DUP3 OR DUP5 SSTORE PUSH1 0x40 MLOAD SWAP3 AND SWAP2 DUP3 SWAP1 PUSH32 0x8BE0079C531659141344CD1FD0A4F28419497F9722A3DAAFE3B4186F6B6457E0 SWAP1 PUSH1 0x0 SWAP1 LOG3 POP POP POP JUMP JUMPDEST PUSH32 0xF0C57E16840DF040F15088DC2F81FE391C3923BEC73E23A9662EFC9C229C6A00 SLOAD PUSH1 0x1 PUSH1 0x40 SHL SWAP1 DIV PUSH1 0xFF AND PUSH2 0xC45 JUMPI PUSH1 0x40 MLOAD PUSH4 0x1AFCD79F PUSH1 0xE3 SHL DUP2 MSTORE PUSH1 0x4 ADD PUSH1 0x40 MLOAD DUP1 SWAP2 SUB SWAP1 REVERT JUMPDEST PUSH2 0x16C5 PUSH2 0x1998 JUMP JUMPDEST PUSH2 0x19F2 DUP3 PUSH2 0x1A3F JUMP JUMPDEST PUSH1 0x40 MLOAD PUSH1 0x1 PUSH1 0x1 PUSH1 0xA0 SHL SUB DUP4 AND SWAP1 PUSH32 0xBC7CD75A20EE27FD9ADEBAB32041F755214DBC6BFFA90CC0225B39DA2E5C2D3B SWAP1 PUSH1 0x0 SWAP1 LOG2 DUP1 MLOAD ISZERO PUSH2 0x1A37 JUMPI PUSH2 0x38A DUP3 DUP3 PUSH2 0x1AA4 JUMP JUMPDEST PUSH2 0x816 PUSH2 0x1B1C JUMP JUMPDEST DUP1 PUSH1 0x1 PUSH1 0x1 PUSH1 0xA0 SHL SUB AND EXTCODESIZE PUSH1 0x0 SUB PUSH2 0x1A75 JUMPI PUSH1 0x40 MLOAD PUSH4 0x4C9C8CE3 PUSH1 0xE0 SHL DUP2 MSTORE PUSH1 0x1 PUSH1 0x1 PUSH1 0xA0 SHL SUB DUP3 AND PUSH1 0x4 DUP3 ADD MSTORE PUSH1 0x24 ADD PUSH2 0x16EB JUMP JUMPDEST PUSH1 0x0 DUP1 MLOAD PUSH1 0x20 PUSH2 0x296D DUP4 CODECOPY DUP2 MLOAD SWAP2 MSTORE DUP1 SLOAD PUSH1 0x1 PUSH1 0x1 PUSH1 0xA0 SHL SUB NOT AND PUSH1 0x1 PUSH1 0x1 PUSH1 0xA0 SHL SUB SWAP3 SWAP1 SWAP3 AND SWAP2 SWAP1 SWAP2 OR SWAP1 SSTORE JUMP JUMPDEST PUSH1 0x60 PUSH1 0x0 DUP1 DUP5 PUSH1 0x1 PUSH1 0x1 PUSH1 0xA0 SHL SUB AND DUP5 PUSH1 0x40 MLOAD PUSH2 0x1AC1 SWAP2 SWAP1 PUSH2 0x2950 JUMP JUMPDEST PUSH1 0x0 PUSH1 0x40 MLOAD DUP1 DUP4 SUB DUP2 DUP6 GAS DELEGATECALL SWAP2 POP POP RETURNDATASIZE DUP1 PUSH1 0x0 DUP2 EQ PUSH2 0x1AFC JUMPI PUSH1 0x40 MLOAD SWAP2 POP PUSH1 0x1F NOT PUSH1 0x3F RETURNDATASIZE ADD AND DUP3 ADD PUSH1 0x40 MSTORE RETURNDATASIZE DUP3 MSTORE RETURNDATASIZE PUSH1 0x0 PUSH1 0x20 DUP5 ADD RETURNDATACOPY PUSH2 0x1B01 JUMP JUMPDEST PUSH1 0x60 SWAP2 POP JUMPDEST POP SWAP2 POP SWAP2 POP PUSH2 0x1B11 DUP6 DUP4 DUP4 PUSH2 0x1B3B JUMP JUMPDEST SWAP3 POP POP POP JUMPDEST SWAP3 SWAP2 POP POP JUMP JUMPDEST CALLVALUE ISZERO PUSH2 0xC45 JUMPI PUSH1 0x40 MLOAD PUSH4 0xB398979F PUSH1 0xE0 SHL DUP2 MSTORE PUSH1 0x4 ADD PUSH1 0x40 MLOAD DUP1 SWAP2 SUB SWAP1 REVERT JUMPDEST PUSH1 0x60 DUP3 PUSH2 0x1B50 JUMPI PUSH2 0x1B4B DUP3 PUSH2 0x1B9A JUMP JUMPDEST PUSH2 0x1B93 JUMP JUMPDEST DUP2 MLOAD ISZERO DUP1 ISZERO PUSH2 0x1B67 JUMPI POP PUSH1 0x1 PUSH1 0x1 PUSH1 0xA0 SHL SUB DUP5 AND EXTCODESIZE ISZERO JUMPDEST ISZERO PUSH2 0x1B90 JUMPI PUSH1 0x40 MLOAD PUSH4 0x9996B315 PUSH1 0xE0 SHL DUP2 MSTORE PUSH1 0x1 PUSH1 0x1 PUSH1 0xA0 SHL SUB DUP6 AND PUSH1 0x4 DUP3 ADD MSTORE PUSH1 0x24 ADD PUSH2 0x16EB JUMP JUMPDEST POP DUP1 JUMPDEST SWAP4 SWAP3 POP POP POP JUMP JUMPDEST DUP1 MLOAD ISZERO PUSH2 0x1BAA JUMPI DUP1 MLOAD DUP1 DUP3 PUSH1 0x20 ADD REVERT JUMPDEST PUSH1 0x40 MLOAD PUSH4 0xA12F521 PUSH1 0xE1 SHL DUP2 MSTORE PUSH1 0x4 ADD PUSH1 0x40 MLOAD DUP1 SWAP2 SUB SWAP1 REVERT JUMPDEST PUSH1 0x40 DUP1 MLOAD PUSH2 0x180 DUP2 ADD SWAP1 SWAP2 MSTORE DUP1 PUSH1 0x0 DUP2 MSTORE PUSH1 0x20 ADD PUSH1 0x0 PUSH1 0x1 PUSH1 0x1 PUSH1 0xA0 SHL SUB AND DUP2 MSTORE PUSH1 0x20 ADD PUSH2 0x1C04 PUSH1 0x40 MLOAD DUP1 PUSH1 0x40 ADD PUSH1 0x40 MSTORE DUP1 PUSH1 0x0 DUP2 MSTORE PUSH1 0x20 ADD PUSH1 0x0 DUP2 MSTORE POP SWAP1 JUMP JUMPDEST DUP2 MSTORE PUSH1 0x20 ADD PUSH1 0x0 DUP2 MSTORE PUSH1 0x20 ADD PUSH1 0x60 DUP2 MSTORE PUSH1 0x20 ADD PUSH1 0x0 DUP2 MSTORE PUSH1 0x20 ADD PUSH1 0x0 DUP2 MSTORE PUSH1 0x20 ADD PUSH1 0x0 DUP2 MSTORE PUSH1 0x20 ADD PUSH1 0x0 DUP2 MSTORE PUSH1 0x20 ADD PUSH1 0x60 DUP2 MSTORE PUSH1 0x20 ADD PUSH2 0x1C8C PUSH1 0x40 MLOAD DUP1 PUSH2 0x100 ADD PUSH1 0x40 MSTORE DUP1 PUSH1 0x0 ISZERO ISZERO DUP2 MSTORE PUSH1 0x20 ADD PUSH1 0x0 ISZERO ISZERO DUP2 MSTORE PUSH1 0x20 ADD PUSH1 0x0 PUSH1 0xFF AND DUP2 MSTORE PUSH1 0x20 ADD PUSH1 0x0 PUSH1 0xFF AND DUP2 MSTORE PUSH1 0x20 ADD PUSH1 0x0 DUP2 MSTORE PUSH1 0x20 ADD PUSH1 0x0 DUP2 MSTORE PUSH1 0x20 ADD PUSH1 0x0 DUP2 MSTORE PUSH1 0x20 ADD PUSH1 0x0 DUP2 MSTORE POP SWAP1 JUMP JUMPDEST DUP2 MSTORE PUSH1 0x40 DUP1 MLOAD PUSH1 0x80 DUP2 ADD DUP3 MSTORE PUSH1 0x0 DUP1 DUP3 MSTORE PUSH1 0x20 DUP3 DUP2 ADD DUP3 SWAP1 MSTORE SWAP3 DUP3 ADD MSTORE PUSH1 0x60 DUP1 DUP3 ADD MSTORE SWAP2 ADD MSTORE SWAP1 JUMP JUMPDEST PUSH1 0x0 PUSH1 0x20 DUP3 DUP5 SUB SLT ISZERO PUSH2 0x1CC7 JUMPI PUSH1 0x0 DUP1 REVERT JUMPDEST POP CALLDATALOAD SWAP2 SWAP1 POP JUMP JUMPDEST PUSH4 0x4E487B71 PUSH1 0xE0 SHL PUSH1 0x0 MSTORE PUSH1 0x21 PUSH1 0x4 MSTORE PUSH1 0x24 PUSH1 0x0 REVERT JUMPDEST PUSH1 0x5 DUP2 LT PUSH2 0x1CF4 JUMPI PUSH2 0x1CF4 PUSH2 0x1CCE JUMP JUMPDEST SWAP1 MSTORE JUMP JUMPDEST PUSH1 0x0 JUMPDEST DUP4 DUP2 LT ISZERO PUSH2 0x1D13 JUMPI DUP2 DUP2 ADD MLOAD DUP4 DUP3 ADD MSTORE PUSH1 0x20 ADD PUSH2 0x1CFB JUMP JUMPDEST POP POP PUSH1 0x0 SWAP2 ADD MSTORE JUMP JUMPDEST PUSH1 0x0 DUP2 MLOAD DUP1 DUP5 MSTORE PUSH2 0x1D34 DUP2 PUSH1 0x20 DUP7 ADD PUSH1 0x20 DUP7 ADD PUSH2 0x1CF8 JUMP JUMPDEST PUSH1 0x1F ADD PUSH1 0x1F NOT AND SWAP3 SWAP1 SWAP3 ADD PUSH1 0x20 ADD SWAP3 SWAP2 POP POP JUMP JUMPDEST DUP1 MLOAD ISZERO ISZERO DUP3 MSTORE PUSH1 0x20 DUP2 ADD MLOAD ISZERO ISZERO PUSH1 0x20 DUP4 ADD MSTORE PUSH1 0xFF PUSH1 0x40 DUP3 ADD MLOAD AND PUSH1 0x40 DUP4 ADD MSTORE PUSH1 0x60 DUP2 ADD MLOAD PUSH2 0x1D7B PUSH1 0x60 DUP5 ADD DUP3 PUSH1 0xFF AND SWAP1 MSTORE JUMP JUMPDEST POP PUSH1 0x80 DUP2 ADD MLOAD PUSH1 0x80 DUP4 ADD MSTORE PUSH1 0xA0 DUP2 ADD MLOAD PUSH1 0xA0 DUP4 ADD MSTORE PUSH1 0xC0 DUP2 ADD MLOAD PUSH1 0xC0 DUP4 ADD MSTORE PUSH1 0xE0 DUP2 ADD MLOAD PUSH1 0xE0 DUP4 ADD MSTORE POP POP JUMP JUMPDEST PUSH1 0x0 DUP2 MLOAD PUSH1 0xA DUP2 LT PUSH2 0x1DBC JUMPI PUSH2 0x1DBC PUSH2 0x1CCE JUMP JUMPDEST DUP1 DUP5 MSTORE POP PUSH1 0x20 DUP3 ADD MLOAD PUSH1 0x20 DUP5 ADD MSTORE PUSH1 0x40 DUP3 ADD MLOAD PUSH1 0x40 DUP5 ADD MSTORE PUSH1 0x60 DUP3 ADD MLOAD PUSH1 0x80 PUSH1 0x60 DUP6 ADD MSTORE PUSH2 0x1DED PUSH1 0x80 DUP6 ADD DUP3 PUSH2 0x1D1C JUMP JUMPDEST SWAP5 SWAP4 POP POP POP POP JUMP JUMPDEST PUSH2 0x1DFF DUP2 DUP14 PUSH2 0x1CE4 JUMP JUMPDEST PUSH1 0x1 PUSH1 0x1 PUSH1 0xA0 SHL SUB DUP12 AND PUSH1 0x20 DUP3 ADD MSTORE PUSH2 0x1E25 PUSH1 0x40 DUP3 ADD DUP12 DUP1 MLOAD DUP3 MSTORE PUSH1 0x20 SWAP1 DUP2 ADD MLOAD SWAP2 ADD MSTORE JUMP JUMPDEST DUP9 PUSH1 0x80 DUP3 ADD MSTORE DUP8 PUSH1 0xA0 DUP3 ADD MSTORE DUP7 PUSH1 0xC0 DUP3 ADD MSTORE DUP6 PUSH1 0xE0 DUP3 ADD MSTORE DUP5 PUSH2 0x100 DUP3 ADD MSTORE PUSH2 0x260 PUSH2 0x120 DUP3 ADD MSTORE PUSH1 0x0 PUSH2 0x1E5D PUSH2 0x260 DUP4 ADD DUP7 PUSH2 0x1D1C JUMP JUMPDEST PUSH2 0x1E6B PUSH2 0x140 DUP5 ADD DUP7 PUSH2 0x1D48 JUMP JUMPDEST DUP3 DUP2 SUB PUSH2 0x240 DUP5 ADD MSTORE PUSH2 0x1E7E DUP2 DUP6 PUSH2 0x1DA8 JUMP JUMPDEST SWAP15 SWAP14 POP POP POP POP POP POP POP POP POP POP POP POP POP POP JUMP JUMPDEST PUSH1 0x0 DUP1 DUP4 PUSH1 0x1F DUP5 ADD SLT PUSH2 0x1EA2 JUMPI PUSH1 0x0 DUP1 REVERT JUMPDEST POP DUP2 CALLDATALOAD PUSH1 0x1 PUSH1 0x1 PUSH1 0x40 SHL SUB DUP2 GT ISZERO PUSH2 0x1EB9 JUMPI PUSH1 0x0 DUP1 REVERT JUMPDEST PUSH1 0x20 DUP4 ADD SWAP2 POP DUP4 PUSH1 0x20 DUP3 DUP6 ADD ADD GT ISZERO PUSH2 0x1ED1 JUMPI PUSH1 0x0 DUP1 REVERT JUMPDEST SWAP3 POP SWAP3 SWAP1 POP JUMP JUMPDEST DUP1 CALLDATALOAD PUSH1 0x1 PUSH1 0x1 PUSH1 0xA0 SHL SUB DUP2 AND DUP2 EQ PUSH2 0x1EEF JUMPI PUSH1 0x0 DUP1 REVERT JUMPDEST SWAP2 SWAP1 POP JUMP JUMPDEST PUSH1 0x0 DUP1 PUSH1 0x0 DUP1 PUSH1 0x60 DUP6 DUP8 SUB SLT ISZERO PUSH2 0x1F0A JUMPI PUSH1 0x0 DUP1 REVERT JUMPDEST DUP5 CALLDATALOAD PUSH1 0x1 PUSH1 0x1 PUSH1 0x40 SHL SUB DUP2 GT ISZERO PUSH2 0x1F20 JUMPI PUSH1 0x0 DUP1 REVERT JUMPDEST PUSH2 0x1F2C DUP8 DUP3 DUP9 ADD PUSH2 0x1E90 JUMP JUMPDEST SWAP1 SWAP6 POP SWAP4 POP PUSH2 0x1F3F SWAP1 POP PUSH1 0x20 DUP7 ADD PUSH2 0x1ED8 JUMP JUMPDEST SWAP2 POP PUSH2 0x1F4D PUSH1 0x40 DUP7 ADD PUSH2 0x1ED8 JUMP JUMPDEST SWAP1 POP SWAP3 SWAP6 SWAP2 SWAP5 POP SWAP3 POP JUMP JUMPDEST PUSH4 0x4E487B71 PUSH1 0xE0 SHL PUSH1 0x0 MSTORE PUSH1 0x41 PUSH1 0x4 MSTORE PUSH1 0x24 PUSH1 0x0 REVERT JUMPDEST PUSH1 0x40 MLOAD PUSH1 0x1F DUP3 ADD PUSH1 0x1F NOT AND DUP2 ADD PUSH1 0x1 PUSH1 0x1 PUSH1 0x40 SHL SUB DUP2 GT DUP3 DUP3 LT OR ISZERO PUSH2 0x1F96 JUMPI PUSH2 0x1F96 PUSH2 0x1F58 JUMP JUMPDEST PUSH1 0x40 MSTORE SWAP2 SWAP1 POP JUMP JUMPDEST PUSH1 0x0 DUP1 PUSH1 0x40 DUP4 DUP6 SUB SLT ISZERO PUSH2 0x1FB1 JUMPI PUSH1 0x0 DUP1 REVERT JUMPDEST PUSH2 0x1FBA DUP4 PUSH2 0x1ED8 JUMP JUMPDEST SWAP2 POP PUSH1 0x20 DUP4 ADD CALLDATALOAD PUSH1 0x1 PUSH1 0x1 PUSH1 0x40 SHL SUB DUP2 GT ISZERO PUSH2 0x1FD5 JUMPI PUSH1 0x0 DUP1 REVERT JUMPDEST DUP4 ADD PUSH1 0x1F DUP2 ADD DUP6 SGT PUSH2 0x1FE6 JUMPI PUSH1 0x0 DUP1 REVERT JUMPDEST DUP1 CALLDATALOAD PUSH1 0x1 PUSH1 0x1 PUSH1 0x40 SHL SUB DUP2 GT ISZERO PUSH2 0x1FFF JUMPI PUSH2 0x1FFF PUSH2 0x1F58 JUMP JUMPDEST PUSH2 0x2012 PUSH1 0x1F DUP3 ADD PUSH1 0x1F NOT AND PUSH1 0x20 ADD PUSH2 0x1F6E JUMP JUMPDEST DUP2 DUP2 MSTORE DUP7 PUSH1 0x20 DUP4 DUP6 ADD ADD GT ISZERO PUSH2 0x2027 JUMPI PUSH1 0x0 DUP1 REVERT JUMPDEST DUP2 PUSH1 0x20 DUP5 ADD PUSH1 0x20 DUP4 ADD CALLDATACOPY PUSH1 0x0 PUSH1 0x20 DUP4 DUP4 ADD ADD MSTORE DUP1 SWAP4 POP POP POP POP SWAP3 POP SWAP3 SWAP1 POP JUMP JUMPDEST DUP1 CALLDATALOAD PUSH1 0x5 DUP2 LT PUSH2 0x1EEF JUMPI PUSH1 0x0 DUP1 REVERT JUMPDEST PUSH1 0x0 DUP1 PUSH1 0x40 DUP4 DUP6 SUB SLT ISZERO PUSH2 0x2069 JUMPI PUSH1 0x0 DUP1 REVERT JUMPDEST DUP3 CALLDATALOAD SWAP2 POP PUSH2 0x2079 PUSH1 0x20 DUP5 ADD PUSH2 0x2047 JUMP JUMPDEST SWAP1 POP SWAP3 POP SWAP3 SWAP1 POP JUMP JUMPDEST PUSH1 0x0 PUSH1 0x80 DUP3 DUP5 SUB SLT ISZERO PUSH2 0x2094 JUMPI PUSH1 0x0 DUP1 REVERT JUMPDEST POP SWAP2 SWAP1 POP JUMP JUMPDEST PUSH1 0x0 DUP1 PUSH1 0x40 DUP4 DUP6 SUB SLT ISZERO PUSH2 0x20AD JUMPI PUSH1 0x0 DUP1 REVERT JUMPDEST DUP3 CALLDATALOAD SWAP2 POP PUSH1 0x20 DUP4 ADD CALLDATALOAD PUSH1 0x1 PUSH1 0x1 PUSH1 0x40 SHL SUB DUP2 GT ISZERO PUSH2 0x20CA JUMPI PUSH1 0x0 DUP1 REVERT JUMPDEST PUSH2 0x20D6 DUP6 DUP3 DUP7 ADD PUSH2 0x2082 JUMP JUMPDEST SWAP2 POP POP SWAP3 POP SWAP3 SWAP1 POP JUMP JUMPDEST PUSH1 0x0 PUSH2 0x100 DUP3 DUP5 SUB SLT ISZERO PUSH2 0x2094 JUMPI PUSH1 0x0 DUP1 REVERT JUMPDEST PUSH1 0x0 PUSH1 0x40 DUP3 DUP5 SUB SLT ISZERO PUSH2 0x2094 JUMPI PUSH1 0x0 DUP1 REVERT JUMPDEST PUSH1 0x0 DUP1 PUSH1 0x0 DUP1 PUSH1 0x0 DUP1 PUSH1 0x0 DUP1 PUSH1 0x0 DUP1 PUSH1 0x0 PUSH2 0x240 DUP13 DUP15 SUB SLT ISZERO PUSH2 0x2127 JUMPI PUSH1 0x0 DUP1 REVERT JUMPDEST PUSH2 0x2130 DUP13 PUSH2 0x2047 JUMP JUMPDEST SWAP11 POP PUSH1 0x20 DUP13 ADD CALLDATALOAD SWAP10 POP PUSH1 0x40 DUP13 ADD CALLDATALOAD SWAP9 POP PUSH2 0x214D DUP14 PUSH1 0x60 DUP15 ADD PUSH2 0x20E0 JUMP JUMPDEST SWAP8 POP PUSH2 0x160 DUP13 ADD CALLDATALOAD PUSH1 0x1 PUSH1 0x1 PUSH1 0x40 SHL SUB DUP2 GT ISZERO PUSH2 0x2169 JUMPI PUSH1 0x0 DUP1 REVERT JUMPDEST PUSH2 0x2175 DUP15 DUP3 DUP16 ADD PUSH2 0x2082 JUMP JUMPDEST SWAP8 POP POP PUSH2 0x180 DUP13 ADD CALLDATALOAD PUSH1 0x1 PUSH1 0x1 PUSH1 0x40 SHL SUB DUP2 GT ISZERO PUSH2 0x2192 JUMPI PUSH1 0x0 DUP1 REVERT JUMPDEST PUSH2 0x219E DUP15 DUP3 DUP16 ADD PUSH2 0x1E90 JUMP JUMPDEST SWAP1 SWAP8 POP SWAP6 POP PUSH2 0x21B2 SWAP1 POP PUSH2 0x1A0 DUP14 ADD PUSH2 0x1ED8 JUMP JUMPDEST SWAP4 POP PUSH2 0x1C0 DUP13 ADD CALLDATALOAD SWAP3 POP PUSH2 0x21CA DUP14 PUSH2 0x1E0 DUP15 ADD PUSH2 0x20F3 JUMP JUMPDEST SWAP2 POP PUSH1 0x0 PUSH2 0x220 DUP14 ADD CALLDATALOAD SWAP1 POP DUP1 SWAP2 POP POP SWAP3 SWAP6 SWAP9 SWAP12 POP SWAP3 SWAP6 SWAP9 SWAP12 SWAP1 SWAP4 SWAP7 SWAP10 POP JUMP JUMPDEST PUSH1 0x0 DUP2 MLOAD DUP1 DUP5 MSTORE PUSH1 0x20 DUP5 ADD SWAP4 POP PUSH1 0x20 DUP4 ADD PUSH1 0x0 JUMPDEST DUP3 DUP2 LT ISZERO PUSH2 0x221C JUMPI DUP2 MLOAD DUP7 MSTORE PUSH1 0x20 SWAP6 DUP7 ADD SWAP6 SWAP1 SWAP2 ADD SWAP1 PUSH1 0x1 ADD PUSH2 0x21FE JUMP JUMPDEST POP SWAP4 SWAP5 SWAP4 POP POP POP POP JUMP JUMPDEST PUSH1 0x20 DUP2 MSTORE PUSH2 0x2238 PUSH1 0x20 DUP3 ADD DUP4 MLOAD PUSH2 0x1CE4 JUMP JUMPDEST PUSH1 0x0 PUSH1 0x20 DUP4 ADD MLOAD PUSH2 0x2254 PUSH1 0x40 DUP5 ADD DUP3 PUSH1 0x1 PUSH1 0x1 PUSH1 0xA0 SHL SUB AND SWAP1 MSTORE JUMP JUMPDEST POP PUSH1 0x40 DUP4 ADD MLOAD DUP1 MLOAD PUSH1 0x60 DUP5 ADD MSTORE PUSH1 0x20 DUP2 ADD MLOAD PUSH1 0x80 DUP5 ADD MSTORE POP PUSH1 0x60 DUP4 ADD MLOAD PUSH1 0xA0 DUP4 ADD MSTORE PUSH1 0x80 DUP4 ADD MLOAD PUSH2 0x280 PUSH1 0xC0 DUP5 ADD MSTORE PUSH2 0x2291 PUSH2 0x2A0 DUP5 ADD DUP3 PUSH2 0x21EA JUMP JUMPDEST SWAP1 POP PUSH1 0xA0 DUP5 ADD MLOAD PUSH1 0xE0 DUP5 ADD MSTORE PUSH1 0xC0 DUP5 ADD MLOAD PUSH2 0x100 DUP5 ADD MSTORE PUSH1 0xE0 DUP5 ADD MLOAD PUSH2 0x120 DUP5 ADD MSTORE PUSH2 0x100 DUP5 ADD MLOAD PUSH2 0x140 DUP5 ADD MSTORE PUSH2 0x120 DUP5 ADD MLOAD PUSH1 0x1F NOT DUP5 DUP4 SUB ADD PUSH2 0x160 DUP6 ADD MSTORE PUSH2 0x22DC DUP3 DUP3 PUSH2 0x1D1C JUMP JUMPDEST SWAP2 POP POP PUSH2 0x140 DUP5 ADD MLOAD PUSH2 0x22F3 PUSH2 0x180 DUP6 ADD DUP3 PUSH2 0x1D48 JUMP JUMPDEST POP PUSH2 0x160 DUP5 ADD MLOAD DUP4 DUP3 SUB PUSH1 0x1F NOT ADD PUSH2 0x280 DUP6 ADD MSTORE PUSH2 0x1B11 DUP3 DUP3 PUSH2 0x1DA8 JUMP JUMPDEST PUSH1 0x0 DUP1 PUSH1 0x0 PUSH1 0x40 DUP5 DUP7 SUB SLT ISZERO PUSH2 0x2326 JUMPI PUSH1 0x0 DUP1 REVERT JUMPDEST DUP4 CALLDATALOAD SWAP3 POP PUSH1 0x20 DUP5 ADD CALLDATALOAD PUSH1 0x1 PUSH1 0x1 PUSH1 0x40 SHL SUB DUP2 GT ISZERO PUSH2 0x2343 JUMPI PUSH1 0x0 DUP1 REVERT JUMPDEST DUP5 ADD PUSH1 0x1F DUP2 ADD DUP7 SGT PUSH2 0x2354 JUMPI PUSH1 0x0 DUP1 REVERT JUMPDEST DUP1 CALLDATALOAD PUSH1 0x1 PUSH1 0x1 PUSH1 0x40 SHL SUB DUP2 GT ISZERO PUSH2 0x236A JUMPI PUSH1 0x0 DUP1 REVERT JUMPDEST DUP7 PUSH1 0x20 DUP3 PUSH1 0x5 SHL DUP5 ADD ADD GT ISZERO PUSH2 0x237F JUMPI PUSH1 0x0 DUP1 REVERT JUMPDEST SWAP4 SWAP7 PUSH1 0x20 SWAP2 SWAP1 SWAP2 ADD SWAP6 POP SWAP3 SWAP4 POP POP POP JUMP JUMPDEST PUSH1 0x20 DUP2 MSTORE PUSH1 0x0 PUSH2 0x1B93 PUSH1 0x20 DUP4 ADD DUP5 PUSH2 0x1D1C JUMP JUMPDEST PUSH1 0x0 DUP1 PUSH1 0x40 DUP4 DUP6 SUB SLT ISZERO PUSH2 0x23B6 JUMPI PUSH1 0x0 DUP1 REVERT JUMPDEST POP POP DUP1 CALLDATALOAD SWAP3 PUSH1 0x20 SWAP1 SWAP2 ADD CALLDATALOAD SWAP2 POP JUMP JUMPDEST PUSH1 0x0 DUP1 PUSH1 0x0 DUP1 PUSH1 0x0 PUSH1 0x60 DUP7 DUP9 SUB SLT ISZERO PUSH2 0x23DD JUMPI PUSH1 0x0 DUP1 REVERT JUMPDEST DUP6 CALLDATALOAD SWAP5 POP PUSH1 0x20 DUP7 ADD CALLDATALOAD PUSH1 0x1 PUSH1 0x1 PUSH1 0x40 SHL SUB DUP2 GT ISZERO PUSH2 0x23FA JUMPI PUSH1 0x0 DUP1 REVERT JUMPDEST PUSH2 0x2406 DUP9 DUP3 DUP10 ADD PUSH2 0x1E90 JUMP JUMPDEST SWAP1 SWAP6 POP SWAP4 POP POP PUSH1 0x40 DUP7 ADD CALLDATALOAD PUSH1 0x1 PUSH1 0x1 PUSH1 0x40 SHL SUB DUP2 GT ISZERO PUSH2 0x2425 JUMPI PUSH1 0x0 DUP1 REVERT JUMPDEST PUSH2 0x2431 DUP9 DUP3 DUP10 ADD PUSH2 0x1E90 JUMP JUMPDEST SWAP7 SWAP10 SWAP6 SWAP9 POP SWAP4 SWAP7 POP SWAP3 SWAP5 SWAP4 SWAP3 POP POP POP JUMP JUMPDEST PUSH1 0x0 PUSH1 0x20 DUP3 DUP5 SUB SLT ISZERO PUSH2 0x2454 JUMPI PUSH1 0x0 DUP1 REVERT JUMPDEST PUSH2 0x1B93 DUP3 PUSH2 0x1ED8 JUMP JUMPDEST PUSH1 0x1 DUP2 DUP2 SHR SWAP1 DUP3 AND DUP1 PUSH2 0x2471 JUMPI PUSH1 0x7F DUP3 AND SWAP2 POP JUMPDEST PUSH1 0x20 DUP3 LT DUP2 SUB PUSH2 0x2094 JUMPI PUSH4 0x4E487B71 PUSH1 0xE0 SHL PUSH1 0x0 MSTORE PUSH1 0x22 PUSH1 0x4 MSTORE PUSH1 0x24 PUSH1 0x0 REVERT JUMPDEST PUSH1 0x1F DUP3 GT ISZERO PUSH2 0x38A JUMPI DUP1 PUSH1 0x0 MSTORE PUSH1 0x20 PUSH1 0x0 KECCAK256 PUSH1 0x1F DUP5 ADD PUSH1 0x5 SHR DUP2 ADD PUSH1 0x20 DUP6 LT ISZERO PUSH2 0x24B8 JUMPI POP DUP1 JUMPDEST PUSH1 0x1F DUP5 ADD PUSH1 0x5 SHR DUP3 ADD SWAP2 POP JUMPDEST DUP2 DUP2 LT ISZERO PUSH2 0x24D8 JUMPI PUSH1 0x0 DUP2 SSTORE PUSH1 0x1 ADD PUSH2 0x24C4 JUMP JUMPDEST POP POP POP POP POP JUMP JUMPDEST PUSH1 0x1 PUSH1 0x1 PUSH1 0x40 SHL SUB DUP4 GT ISZERO PUSH2 0x24F6 JUMPI PUSH2 0x24F6 PUSH2 0x1F58 JUMP JUMPDEST PUSH2 0x250A DUP4 PUSH2 0x2504 DUP4 SLOAD PUSH2 0x245D JUMP JUMPDEST DUP4 PUSH2 0x2491 JUMP JUMPDEST PUSH1 0x0 PUSH1 0x1F DUP5 GT PUSH1 0x1 DUP2 EQ PUSH2 0x253E JUMPI PUSH1 0x0 DUP6 ISZERO PUSH2 0x2526 JUMPI POP DUP4 DUP3 ADD CALLDATALOAD JUMPDEST PUSH1 0x0 NOT PUSH1 0x3 DUP8 SWAP1 SHL SHR NOT AND PUSH1 0x1 DUP7 SWAP1 SHL OR DUP4 SSTORE PUSH2 0x24D8 JUMP JUMPDEST PUSH1 0x0 DUP4 DUP2 MSTORE PUSH1 0x20 SWAP1 KECCAK256 PUSH1 0x1F NOT DUP7 AND SWAP1 DUP4 JUMPDEST DUP3 DUP2 LT ISZERO PUSH2 0x256F JUMPI DUP7 DUP6 ADD CALLDATALOAD DUP3 SSTORE PUSH1 0x20 SWAP5 DUP6 ADD SWAP5 PUSH1 0x1 SWAP1 SWAP3 ADD SWAP2 ADD PUSH2 0x254F JUMP JUMPDEST POP DUP7 DUP3 LT ISZERO PUSH2 0x258C JUMPI PUSH1 0x0 NOT PUSH1 0xF8 DUP9 PUSH1 0x3 SHL AND SHR NOT DUP5 DUP8 ADD CALLDATALOAD AND DUP2 SSTORE JUMPDEST POP POP PUSH1 0x1 DUP6 PUSH1 0x1 SHL ADD DUP4 SSTORE POP POP POP POP POP JUMP JUMPDEST DUP1 ISZERO ISZERO DUP2 EQ PUSH2 0x16FD JUMPI PUSH1 0x0 DUP1 REVERT JUMPDEST PUSH1 0x0 PUSH1 0x20 DUP3 DUP5 SUB SLT ISZERO PUSH2 0x25BE JUMPI PUSH1 0x0 DUP1 REVERT JUMPDEST DUP2 MLOAD PUSH2 0x1B93 DUP2 PUSH2 0x259E JUMP JUMPDEST PUSH1 0x20 DUP2 ADD PUSH2 0x1B16 DUP3 DUP5 PUSH2 0x1CE4 JUMP JUMPDEST PUSH1 0x0 DUP1 DUP4 CALLDATALOAD PUSH1 0x1E NOT DUP5 CALLDATASIZE SUB ADD DUP2 SLT PUSH2 0x25EE JUMPI PUSH1 0x0 DUP1 REVERT JUMPDEST DUP4 ADD DUP1 CALLDATALOAD SWAP2 POP PUSH1 0x1 PUSH1 0x1 PUSH1 0x40 SHL SUB DUP3 GT ISZERO PUSH2 0x2608 JUMPI PUSH1 0x0 DUP1 REVERT JUMPDEST PUSH1 0x20 ADD SWAP2 POP CALLDATASIZE DUP2 SWAP1 SUB DUP3 SGT ISZERO PUSH2 0x1ED1 JUMPI PUSH1 0x0 DUP1 REVERT JUMPDEST DUP2 DUP4 MSTORE DUP2 DUP2 PUSH1 0x20 DUP6 ADD CALLDATACOPY POP PUSH1 0x0 DUP3 DUP3 ADD PUSH1 0x20 SWAP1 DUP2 ADD SWAP2 SWAP1 SWAP2 MSTORE PUSH1 0x1F SWAP1 SWAP2 ADD PUSH1 0x1F NOT AND SWAP1 SWAP2 ADD ADD SWAP1 JUMP JUMPDEST DUP5 DUP2 MSTORE PUSH1 0x60 PUSH1 0x20 DUP3 ADD MSTORE PUSH1 0x0 PUSH2 0x2660 PUSH1 0x60 DUP4 ADD DUP6 DUP8 PUSH2 0x261D JUMP JUMPDEST SWAP1 POP DUP3 PUSH1 0x40 DUP4 ADD MSTORE SWAP6 SWAP5 POP POP POP POP POP JUMP JUMPDEST PUSH1 0x0 PUSH1 0x20 DUP3 DUP5 SUB SLT ISZERO PUSH2 0x2683 JUMPI PUSH1 0x0 DUP1 REVERT JUMPDEST POP MLOAD SWAP2 SWAP1 POP JUMP JUMPDEST PUSH1 0xFF DUP2 AND DUP2 EQ PUSH2 0x16FD JUMPI PUSH1 0x0 DUP1 REVERT JUMPDEST PUSH1 0x0 PUSH1 0x20 DUP3 DUP5 SUB SLT ISZERO PUSH2 0x26AB JUMPI PUSH1 0x0 DUP1 REVERT JUMPDEST DUP2 CALLDATALOAD PUSH2 0x1B93 DUP2 PUSH2 0x268A JUMP JUMPDEST PUSH4 0x4E487B71 PUSH1 0xE0 SHL PUSH1 0x0 MSTORE PUSH1 0x11 PUSH1 0x4 MSTORE PUSH1 0x24 PUSH1 0x0 REVERT JUMPDEST DUP1 DUP3 ADD DUP1 DUP3 GT ISZERO PUSH2 0x1B16 JUMPI PUSH2 0x1B16 PUSH2 0x26B6 JUMP JUMPDEST PUSH1 0xA DUP2 LT PUSH2 0x16FD JUMPI PUSH1 0x0 DUP1 REVERT JUMPDEST PUSH1 0x0 PUSH1 0x20 DUP3 DUP5 SUB SLT ISZERO PUSH2 0x26FE JUMPI PUSH1 0x0 DUP1 REVERT JUMPDEST DUP2 CALLDATALOAD PUSH2 0x1B93 DUP2 PUSH2 0x26DF JUMP JUMPDEST PUSH1 0x0 DUP2 CALLDATALOAD PUSH2 0x1B16 DUP2 PUSH2 0x259E JUMP JUMPDEST PUSH1 0x0 DUP2 CALLDATALOAD PUSH2 0x1B16 DUP2 PUSH2 0x268A JUMP JUMPDEST DUP2 CALLDATALOAD PUSH2 0x272E DUP2 PUSH2 0x259E JUMP JUMPDEST DUP2 SLOAD SWAP1 ISZERO ISZERO PUSH1 0xFF AND PUSH1 0xFF NOT SWAP2 SWAP1 SWAP2 AND OR DUP2 SSTORE PUSH2 0x2769 PUSH2 0x274F PUSH1 0x20 DUP5 ADD PUSH2 0x2709 JUMP JUMPDEST DUP3 DUP1 SLOAD PUSH2 0xFF00 NOT AND SWAP2 ISZERO ISZERO PUSH1 0x8 SHL PUSH2 0xFF00 AND SWAP2 SWAP1 SWAP2 OR SWAP1 SSTORE JUMP JUMPDEST PUSH2 0x2790 PUSH2 0x2778 PUSH1 0x40 DUP5 ADD PUSH2 0x2716 JUMP JUMPDEST DUP3 SLOAD PUSH3 0xFF0000 NOT AND PUSH1 0x10 SWAP2 SWAP1 SWAP2 SHL PUSH3 0xFF0000 AND OR DUP3 SSTORE JUMP JUMPDEST PUSH2 0x27B9 PUSH2 0x279F PUSH1 0x60 DUP5 ADD PUSH2 0x2716 JUMP JUMPDEST DUP3 SLOAD PUSH4 0xFF000000 NOT AND PUSH1 0x18 SWAP2 SWAP1 SWAP2 SHL PUSH4 0xFF000000 AND OR DUP3 SSTORE JUMP JUMPDEST PUSH1 0x80 DUP3 ADD CALLDATALOAD PUSH1 0x1 DUP3 ADD SSTORE PUSH1 0xA0 DUP3 ADD CALLDATALOAD PUSH1 0x2 DUP3 ADD SSTORE PUSH1 0xC0 DUP3 ADD CALLDATALOAD PUSH1 0x3 DUP3 ADD SSTORE PUSH1 0xE0 SWAP1 SWAP2 ADD CALLDATALOAD PUSH1 0x4 SWAP1 SWAP2 ADD SSTORE JUMP JUMPDEST DUP2 CALLDATALOAD PUSH2 0x27F0 DUP2 PUSH2 0x26DF JUMP JUMPDEST PUSH1 0xA DUP2 LT PUSH2 0x2800 JUMPI PUSH2 0x2800 PUSH2 0x1CCE JUMP JUMPDEST DUP2 SLOAD PUSH1 0xFF NOT AND PUSH1 0xFF SWAP2 SWAP1 SWAP2 AND OR DUP2 SSTORE PUSH1 0x20 DUP3 ADD CALLDATALOAD PUSH1 0x1 DUP3 ADD SSTORE PUSH1 0x40 DUP3 ADD CALLDATALOAD PUSH1 0x2 DUP3 ADD SSTORE PUSH1 0x60 DUP3 ADD CALLDATALOAD PUSH1 0x1E NOT CALLDATASIZE DUP5 SWAP1 SUB ADD DUP2 SLT PUSH2 0x283B JUMPI PUSH1 0x0 DUP1 REVERT JUMPDEST DUP3 ADD DUP1 CALLDATALOAD PUSH1 0x1 PUSH1 0x1 PUSH1 0x40 SHL SUB DUP2 GT ISZERO PUSH2 0x2853 JUMPI PUSH1 0x0 DUP1 REVERT JUMPDEST PUSH1 0x20 DUP3 ADD SWAP2 POP DUP1 CALLDATASIZE SUB DUP3 SGT ISZERO PUSH2 0x2868 JUMPI PUSH1 0x0 DUP1 REVERT JUMPDEST PUSH2 0x2876 DUP2 DUP4 PUSH1 0x3 DUP7 ADD PUSH2 0x24DF JUMP JUMPDEST POP POP POP POP JUMP JUMPDEST PUSH1 0x0 PUSH4 0xFFFFFFFF DUP3 AND PUSH4 0xFFFFFFFF DUP2 SUB PUSH2 0x2898 JUMPI PUSH2 0x2898 PUSH2 0x26B6 JUMP JUMPDEST PUSH1 0x1 ADD SWAP3 SWAP2 POP POP JUMP JUMPDEST PUSH1 0x40 DUP2 MSTORE PUSH1 0x0 PUSH2 0x28B5 PUSH1 0x40 DUP4 ADD DUP7 DUP9 PUSH2 0x261D JUMP JUMPDEST DUP3 DUP2 SUB PUSH1 0x20 DUP5 ADD MSTORE PUSH2 0x28C8 DUP2 DUP6 DUP8 PUSH2 0x261D JUMP JUMPDEST SWAP8 SWAP7 POP POP POP POP POP POP POP JUMP JUMPDEST PUSH1 0x0 PUSH1 0x80 DUP3 DUP5 SUB SLT ISZERO PUSH2 0x28E5 JUMPI PUSH1 0x0 DUP1 REVERT JUMPDEST DUP3 PUSH1 0x1F DUP4 ADD SLT PUSH2 0x28F4 JUMPI PUSH1 0x0 DUP1 REVERT JUMPDEST PUSH1 0x40 MLOAD PUSH1 0x80 DUP2 ADD PUSH1 0x1 PUSH1 0x1 PUSH1 0x40 SHL SUB DUP2 GT DUP3 DUP3 LT OR ISZERO PUSH2 0x2916 JUMPI PUSH2 0x2916 PUSH2 0x1F58 JUMP JUMPDEST PUSH1 0x40 MSTORE DUP1 PUSH1 0x80 DUP5 ADD DUP6 DUP2 GT ISZERO PUSH2 0x292B JUMPI PUSH1 0x0 DUP1 REVERT JUMPDEST DUP5 JUMPDEST DUP2 DUP2 LT ISZERO PUSH2 0x2945 JUMPI DUP1 CALLDATALOAD DUP4 MSTORE PUSH1 0x20 SWAP3 DUP4 ADD SWAP3 ADD PUSH2 0x292D JUMP JUMPDEST POP SWAP2 SWAP6 SWAP5 POP POP POP POP POP JUMP JUMPDEST PUSH1 0x0 DUP3 MLOAD PUSH2 0x2962 DUP2 DUP5 PUSH1 0x20 DUP8 ADD PUSH2 0x1CF8 JUMP JUMPDEST SWAP2 SWAP1 SWAP2 ADD SWAP3 SWAP2 POP POP JUMP INVALID CALLDATASIZE ADDMOD SWAP5 LOG1 EXTCODESIZE LOG1 LOG3 0x21 MOD PUSH8 0xC828492DB98DCA3E KECCAK256 PUSH23 0xCC3735A920A3CA505D382BBCA264697066735822122005 SWAP15 0xC4 0xD4 0xC6 0xE3 TSTORE 0xE6 0xCA LOG4 0xDC DUP14 0x4E SELFDESTRUCT SLOAD PUSH16 0x93B8ECAC1FB881F918BB9E4C82CE2F5 PUSH5 0x736F6C6343 STOP ADDMOD SHR STOP CALLER "},"methodIdentifiers":{"MAX_CENSUS_ORIGIN()":"02cc919a","MAX_STATUS()":"72c628ef","UPGRADE_INTERFACE_VERSION()":"ad3cb1cc","chainID()":"adc879e9","getProcess(bytes32)":"992bc45b","getVerifierVKeyHash()":"7d232354","initialize(string,address,address)":"463fd1af","newProcess(uint8,uint256,uint256,(bool,bool,uint8,uint8,uint256,uint256,uint256,uint256),(uint8,uint256,bytes32,string),string,address,bytes32,(uint256,uint256),uint256)":"92bc2669","organizationRegistryAddress()":"b79938e9","owner()":"8da5cb5b","processCount()":"848df540","processes(bytes32)":"0535fece","proxiableUUID()":"52d1902d","renounceOwnership()":"715018a6","setProcessCensus(bytes32,(uint8,uint256,bytes32,string))":"6bae04ea","setProcessDuration(bytes32,uint256)":"c718c01f","setProcessResults(bytes32,uint256[])":"ac64bd03","setProcessStatus(bytes32,uint8)":"56a6f1e2","submitStateTransition(bytes32,bytes,bytes)":"d71d072e","transferOwnership(address)":"f2fde38b","upgradeToAndCall(address,bytes)":"4f1ef286","verifier()":"2b7ac3f3"}}}}}