{"src/ProcessRegistry.sol":{"ProcessRegistry":{"abi":[{"inputs":[{"internalType":"address","name":"target","type":"address"}],"name":"AddressEmptyCode","type":"error"},{"inputs":[{"internalType":"address","name":"implementation","type":"address"}],"name":"ERC1967InvalidImplementation","type":"error"},{"inputs":[],"name":"ERC1967NonPayable","type":"error"},{"inputs":[],"name":"FailedInnerCall","type":"error"},{"inputs":[],"name":"InvalidInitialization","type":"error"},{"inputs":[],"name":"NotInitializing","type":"error"},{"inputs":[{"internalType":"address","name":"owner","type":"address"}],"name":"OwnableInvalidOwner","type":"error"},{"inputs":[{"internalType":"address","name":"account","type":"address"}],"name":"OwnableUnauthorizedAccount","type":"error"},{"inputs":[],"name":"UUPSUnauthorizedCallContext","type":"error"},{"inputs":[{"internalType":"bytes32","name":"slot","type":"bytes32"}],"name":"UUPSUnsupportedProxiableUUID","type":"error"},{"anonymous":false,"inputs":[{"indexed":true,"internalType":"bytes32","name":"processID","type":"bytes32"},{"indexed":false,"internalType":"bytes32","name":"censusRoot","type":"bytes32"},{"indexed":false,"internalType":"string","name":"censusURI","type":"string"},{"indexed":false,"internalType":"uint256","name":"maxVotes","type":"uint256"}],"name":"CensusUpdated","type":"event"},{"anonymous":false,"inputs":[{"indexed":false,"internalType":"uint64","name":"version","type":"uint64"}],"name":"Initialized","type":"event"},{"anonymous":false,"inputs":[{"indexed":true,"internalType":"address","name":"previousOwner","type":"address"},{"indexed":true,"internalType":"address","name":"newOwner","type":"address"}],"name":"OwnershipTransferred","type":"event"},{"anonymous":false,"inputs":[{"indexed":true,"internalType":"bytes32","name":"processID","type":"bytes32"},{"indexed":true,"internalType":"address","name":"creator","type":"address"}],"name":"ProcessCreated","type":"event"},{"anonymous":false,"inputs":[{"indexed":true,"internalType":"bytes32","name":"processID","type":"bytes32"},{"indexed":false,"internalType":"uint256","name":"duration","type":"uint256"}],"name":"ProcessDurationChanged","type":"event"},{"anonymous":false,"inputs":[{"indexed":true,"internalType":"bytes32","name":"processID","type":"bytes32"},{"indexed":false,"internalType":"bytes32","name":"newStateRoot","type":"bytes32"}],"name":"ProcessStateRootUpdated","type":"event"},{"anonymous":false,"inputs":[{"indexed":true,"internalType":"bytes32","name":"processID","type":"bytes32"},{"indexed":false,"internalType":"enum ProcessRegistry.ProcessStatus","name":"newStatus","type":"uint8"}],"name":"ProcessStatusChanged","type":"event"},{"anonymous":false,"inputs":[{"indexed":true,"internalType":"address","name":"implementation","type":"address"}],"name":"Upgraded","type":"event"},{"inputs":[],"name":"UPGRADE_INTERFACE_VERSION","outputs":[{"internalType":"string","name":"","type":"string"}],"stateMutability":"view","type":"function"},{"inputs":[],"name":"chainID","outputs":[{"internalType":"string","name":"","type":"string"}],"stateMutability":"view","type":"function"},{"inputs":[{"internalType":"bytes32","name":"_processID","type":"bytes32"}],"name":"endProcess","outputs":[],"stateMutability":"nonpayable","type":"function"},{"inputs":[{"internalType":"bytes32","name":"_processID","type":"bytes32"}],"name":"getProcess","outputs":[{"components":[{"internalType":"enum ProcessRegistry.ProcessStatus","name":"status","type":"uint8"},{"internalType":"address","name":"organizationId","type":"address"},{"components":[{"internalType":"uint256","name":"x","type":"uint256"},{"internalType":"uint256","name":"y","type":"uint256"}],"internalType":"struct ProcessRegistry.EncryptionKey","name":"encryptionKey","type":"tuple"},{"internalType":"bytes32","name":"latestStateRoot","type":"bytes32"},{"internalType":"uint256[]","name":"result","type":"uint256[]"},{"internalType":"uint256","name":"startTime","type":"uint256"},{"internalType":"uint256","name":"duration","type":"uint256"},{"internalType":"string","name":"metadataURI","type":"string"},{"components":[{"internalType":"bool","name":"costFromWeight","type":"bool"},{"internalType":"bool","name":"forceUniqueness","type":"bool"},{"internalType":"uint8","name":"maxCount","type":"uint8"},{"internalType":"uint8","name":"costExponent","type":"uint8"},{"internalType":"uint256","name":"maxValue","type":"uint256"},{"internalType":"uint256","name":"minValue","type":"uint256"},{"internalType":"uint256","name":"maxTotalCost","type":"uint256"},{"internalType":"uint256","name":"minTotalCost","type":"uint256"}],"internalType":"struct ProcessRegistry.BallotMode","name":"ballotMode","type":"tuple"},{"components":[{"internalType":"enum ProcessRegistry.CensusOrigin","name":"censusOrigin","type":"uint8"},{"internalType":"uint256","name":"maxVotes","type":"uint256"},{"internalType":"bytes32","name":"censusRoot","type":"bytes32"},{"internalType":"string","name":"censusURI","type":"string"}],"internalType":"struct ProcessRegistry.Census","name":"census","type":"tuple"}],"internalType":"struct ProcessRegistry.Process","name":"","type":"tuple"}],"stateMutability":"view","type":"function"},{"inputs":[{"internalType":"string","name":"_chainID","type":"string"},{"internalType":"address","name":"_organizationRegistry","type":"address"}],"name":"initialize","outputs":[],"stateMutability":"nonpayable","type":"function"},{"inputs":[{"internalType":"enum ProcessRegistry.ProcessStatus","name":"_status","type":"uint8"},{"internalType":"uint256","name":"_startTime","type":"uint256"},{"internalType":"uint256","name":"_duration","type":"uint256"},{"components":[{"internalType":"bool","name":"costFromWeight","type":"bool"},{"internalType":"bool","name":"forceUniqueness","type":"bool"},{"internalType":"uint8","name":"maxCount","type":"uint8"},{"internalType":"uint8","name":"costExponent","type":"uint8"},{"internalType":"uint256","name":"maxValue","type":"uint256"},{"internalType":"uint256","name":"minValue","type":"uint256"},{"internalType":"uint256","name":"maxTotalCost","type":"uint256"},{"internalType":"uint256","name":"minTotalCost","type":"uint256"}],"internalType":"struct ProcessRegistry.BallotMode","name":"_ballotMode","type":"tuple"},{"components":[{"internalType":"enum ProcessRegistry.CensusOrigin","name":"censusOrigin","type":"uint8"},{"internalType":"uint256","name":"maxVotes","type":"uint256"},{"internalType":"bytes32","name":"censusRoot","type":"bytes32"},{"internalType":"string","name":"censusURI","type":"string"}],"internalType":"struct ProcessRegistry.Census","name":"_census","type":"tuple"},{"internalType":"string","name":"_metadata","type":"string"},{"internalType":"address","name":"_organizationID","type":"address"},{"internalType":"bytes32","name":"_processID","type":"bytes32"},{"components":[{"internalType":"uint256","name":"x","type":"uint256"},{"internalType":"uint256","name":"y","type":"uint256"}],"internalType":"struct ProcessRegistry.EncryptionKey","name":"_encryptionKey","type":"tuple"},{"internalType":"bytes32","name":"_initStateRoot","type":"bytes32"}],"name":"newProcess","outputs":[],"stateMutability":"nonpayable","type":"function"},{"inputs":[],"name":"organizationRegistry","outputs":[{"internalType":"address","name":"","type":"address"}],"stateMutability":"view","type":"function"},{"inputs":[],"name":"owner","outputs":[{"internalType":"address","name":"","type":"address"}],"stateMutability":"view","type":"function"},{"inputs":[],"name":"processCount","outputs":[{"internalType":"uint32","name":"","type":"uint32"}],"stateMutability":"view","type":"function"},{"inputs":[{"internalType":"bytes32","name":"","type":"bytes32"}],"name":"processes","outputs":[{"internalType":"enum ProcessRegistry.ProcessStatus","name":"status","type":"uint8"},{"internalType":"address","name":"organizationId","type":"address"},{"components":[{"internalType":"uint256","name":"x","type":"uint256"},{"internalType":"uint256","name":"y","type":"uint256"}],"internalType":"struct ProcessRegistry.EncryptionKey","name":"encryptionKey","type":"tuple"},{"internalType":"bytes32","name":"latestStateRoot","type":"bytes32"},{"internalType":"uint256","name":"startTime","type":"uint256"},{"internalType":"uint256","name":"duration","type":"uint256"},{"internalType":"string","name":"metadataURI","type":"string"},{"components":[{"internalType":"bool","name":"costFromWeight","type":"bool"},{"internalType":"bool","name":"forceUniqueness","type":"bool"},{"internalType":"uint8","name":"maxCount","type":"uint8"},{"internalType":"uint8","name":"costExponent","type":"uint8"},{"internalType":"uint256","name":"maxValue","type":"uint256"},{"internalType":"uint256","name":"minValue","type":"uint256"},{"internalType":"uint256","name":"maxTotalCost","type":"uint256"},{"internalType":"uint256","name":"minTotalCost","type":"uint256"}],"internalType":"struct ProcessRegistry.BallotMode","name":"ballotMode","type":"tuple"},{"components":[{"internalType":"enum ProcessRegistry.CensusOrigin","name":"censusOrigin","type":"uint8"},{"internalType":"uint256","name":"maxVotes","type":"uint256"},{"internalType":"bytes32","name":"censusRoot","type":"bytes32"},{"internalType":"string","name":"censusURI","type":"string"}],"internalType":"struct ProcessRegistry.Census","name":"census","type":"tuple"}],"stateMutability":"view","type":"function"},{"inputs":[],"name":"proxiableUUID","outputs":[{"internalType":"bytes32","name":"","type":"bytes32"}],"stateMutability":"view","type":"function"},{"inputs":[],"name":"renounceOwnership","outputs":[],"stateMutability":"nonpayable","type":"function"},{"inputs":[{"internalType":"bytes32","name":"_processID","type":"bytes32"},{"components":[{"internalType":"enum ProcessRegistry.CensusOrigin","name":"censusOrigin","type":"uint8"},{"internalType":"uint256","name":"maxVotes","type":"uint256"},{"internalType":"bytes32","name":"censusRoot","type":"bytes32"},{"internalType":"string","name":"censusURI","type":"string"}],"internalType":"struct ProcessRegistry.Census","name":"_census","type":"tuple"}],"name":"setProcessCensus","outputs":[],"stateMutability":"nonpayable","type":"function"},{"inputs":[{"internalType":"bytes32","name":"_processID","type":"bytes32"},{"internalType":"uint256","name":"_duration","type":"uint256"}],"name":"setProcessDuration","outputs":[],"stateMutability":"nonpayable","type":"function"},{"inputs":[{"internalType":"bytes32","name":"_processID","type":"bytes32"},{"internalType":"uint256[]","name":"_result","type":"uint256[]"},{"internalType":"bytes","name":"_proof","type":"bytes"}],"name":"setProcessResult","outputs":[],"stateMutability":"nonpayable","type":"function"},{"inputs":[{"internalType":"bytes32","name":"_processID","type":"bytes32"},{"internalType":"enum ProcessRegistry.ProcessStatus","name":"_newStatus","type":"uint8"}],"name":"setProcessStatus","outputs":[],"stateMutability":"nonpayable","type":"function"},{"inputs":[{"internalType":"bytes32","name":"_processID","type":"bytes32"},{"internalType":"bytes32","name":"_oldRoot","type":"bytes32"},{"internalType":"bytes32","name":"_newRoot","type":"bytes32"},{"internalType":"bytes","name":"_proof","type":"bytes"}],"name":"submitStateTransition","outputs":[],"stateMutability":"nonpayable","type":"function"},{"inputs":[{"internalType":"address","name":"newOwner","type":"address"}],"name":"transferOwnership","outputs":[],"stateMutability":"nonpayable","type":"function"},{"inputs":[{"internalType":"address","name":"newImplementation","type":"address"},{"internalType":"bytes","name":"data","type":"bytes"}],"name":"upgradeToAndCall","outputs":[],"stateMutability":"payable","type":"function"}],"evm":{"bytecode":{"linkReferences":{},"object":"60a060405230608052348015601357600080fd5b5060805161303261003d60003960008181611cc001528181611ce90152611e2f01526130326000f3fe6080604052600436106101145760003560e01c8063848df540116100a0578063adc879e911610064578063adc879e91461035d578063b66ba6eb14610372578063c718c01f14610392578063ea9bcaf6146103b2578063f2fde38b146103d257600080fd5b8063848df540146102445780638cafab7f1461027d5780638da5cb5b146102b5578063992bc45b146102f2578063ad3cb1cc1461031f57600080fd5b806352d1902d116100e757806352d1902d146101ac57806356a6f1e2146101cf5780636bae04ea146101ef578063715018a61461020f5780637ab4339d1461022457600080fd5b80630535fece14610119578063152f31281461015757806325402545146101795780634f1ef28614610199575b600080fd5b34801561012557600080fd5b506101396101343660046122ff565b6103f2565b60405161014e9998979695949392919061243f565b60405180910390f35b34801561016357600080fd5b5061017761017236600461257a565b61062b565b005b34801561018557600080fd5b5061017761019436600461265f565b610c51565b6101776101a73660046127e9565b610d2c565b3480156101b857600080fd5b506101c1610d4b565b60405190815260200161014e565b3480156101db57600080fd5b506101776101ea36600461284a565b610d68565b3480156101fb57600080fd5b5061017761020a366004612876565b610f79565b34801561021b57600080fd5b5061017761125e565b34801561023057600080fd5b5061017761023f3660046128b2565b611272565b34801561025057600080fd5b5060015461026890600160a01b900463ffffffff1681565b60405163ffffffff909116815260200161014e565b34801561028957600080fd5b5060015461029d906001600160a01b031681565b6040516001600160a01b03909116815260200161014e565b3480156102c157600080fd5b507f9016d09d72d40fdae2fd8ceac6b6234c7706214fd39c1cd1e609a0528c199300546001600160a01b031661029d565b3480156102fe57600080fd5b5061031261030d3660046122ff565b6113b3565b60405161014e9190612941565b34801561032b57600080fd5b50610350604051806040016040528060058152602001640352e302e360dc1b81525081565b60405161014e9190612a14565b34801561036957600080fd5b506103506116a7565b34801561037e57600080fd5b5061017761038d366004612a27565b611735565b34801561039e57600080fd5b506101776103ad366004612a6a565b6118c9565b3480156103be57600080fd5b506101776103cd3660046122ff565b611adb565b3480156103de57600080fd5b506101776103ed366004612a8c565b611c77565b60006020818152918152604090819020805482518084019093526001820154835260028201549383019390935260038101546005820154600683015460078401805460ff88169761010090046001600160a01b03169695919061045490612aa7565b80601f016020809104026020016040519081016040528092919081815260200182805461048090612aa7565b80156104cd5780601f106104a2576101008083540402835291602001916104cd565b820191906000526020600020905b8154815290600101906020018083116104b057829003601f168201915b5050604080516101008082018352600888015460ff808216151584529181048216151560208401526201000081048216838501526301000000900481166060830152600980890154608080850191909152600a8a015460a0850152600b8a015460c0850152600c8a015460e08501528451908101909452600d8901805498999398939750939550929350849291169081111561056b5761056b612318565b600981111561057c5761057c612318565b815260200160018201548152602001600282015481526020016003820180546105a490612aa7565b80601f01602080910402602001604051908101604052809291908181526020018280546105d090612aa7565b801561061d5780601f106105f25761010080835404028352916020019161061d565b820191906000526020600020905b81548152906001019060200180831161060057829003601f168201915b505050505081525050905089565b600061063d60608a0160408b01612aec565b60ff16116106925760405162461bcd60e51b815260206004820152601c60248201527f4e657750726f636573733a20696e76616c6964206d6178436f756e740000000060448201526064015b60405180910390fd5b6106a26060890160408a01612aec565b60ff168860800135116106f75760405162461bcd60e51b815260206004820152601f60248201527f4e657750726f636573733a206d6178436f756e74203e206d617856616c7565006044820152606401610689565b60008b600481111561070b5761070b612318565b1480610728575060038b600481111561072657610726612318565b145b6107745760405162461bcd60e51b815260206004820152601a60248201527f4e657750726f636573733a20696e76616c6964207374617475730000000000006044820152606401610689565b428a116107c35760405162461bcd60e51b815260206004820152601d60248201527f4e657750726f636573733a20696e76616c696420737461727454696d650000006044820152606401610689565b426107ce8a8c612b1d565b1161081b5760405162461bcd60e51b815260206004820152601c60248201527f4e657750726f636573733a20696e76616c6964206475726174696f6e000000006044820152606401610689565b60015460405163c1af6e0360e01b81526001600160a01b0386811660048301523360248301529091169063c1af6e0390604401602060405180830381865afa15801561086b573d6000803e3d6000fd5b505050506040513d601f19601f8201168201806040525081019061088f9190612b3e565b6108db5760405162461bcd60e51b815260206004820181905260248201527f4e657750726f636573733a206e6f7420616e2061646d696e6973747261746f726044820152606401610689565b60008381526020819052604090205461010090046001600160a01b0316156109505760405162461bcd60e51b815260206004820152602260248201527f4e657750726f636573733a2070726f6365737320616c72656164792065786973604482015261747360f01b6064820152608401610689565b60006040518061014001604052808d600481111561097057610970612318565b81526001600160a01b038716602082015260400161099336869003860186612b5b565b815260208082018590526040805160008082529281018252920191905081526020018c81526020018b815260200188888080601f016020809104026020016040519081016040528093929190818152602001838380828437600092019190915250505090825250602001610a0c368c90038c018c612bb6565b8152602001610a1a8a612c48565b90526000858152602081905260409020815181549293508392829060ff19166001836004811115610a4d57610a4d612318565b021790555060208281015182546001600160a01b0390911661010002610100600160a81b031990911617825560408301518051600184015581015160028301556060830151600383015560808301518051610aae926004850192019061217d565b5060a0820151600582015560c0820151600682015560e08201516007820190610ad79082612d1a565b5061010082810151805160088401805460208401516040850151606086015161ffff1990931694151561ff001916949094179015159095029490941763ffff000019166201000060ff9384160263ff0000001916176301000000929094169190910292909217909155608081015160098084019190915560a0820151600a84015560c0820151600b84015560e090910151600c8301556101208301518051600d8401805492939092839160ff19909116906001908490811115610b9c57610b9c612318565b0217905550602082015160018201556040820151600282015560608201516003820190610bc99082612d1a565b505060018054600160a01b900463ffffffff169350915060149050610bed83612dd8565b91906101000a81548163ffffffff021916908363ffffffff16021790555050336001600160a01b0316847fada6f87a2a16a0c9c169ca36754c5f33f7c1a973b575d068f888a549ed4faefa60405160405180910390a3505050505050505050505050565b60008581526020819052604090205461010090046001600160a01b0316610c8a5760405162461bcd60e51b815260040161068990612dfd565b600160008681526020819052604090205460ff166004811115610caf57610caf612318565b14610cf05760405162461bcd60e51b8152602060048201526011602482015270141c9bd8d95cdcc81b9bdd08195b991959607a1b6044820152606401610689565b6000858152602081905260409020610d0c9060040185856121c8565b50505060009283525050602081905260409020805460ff19166004179055565b610d34611cb5565b610d3d82611d5a565b610d478282611d62565b5050565b6000610d55611e24565b50600080516020612fdd83398151915290565b6001546000838152602081905260409081902054905163c1af6e0360e01b81526001600160a01b036101009092048216600482015233602482015291169063c1af6e0390604401602060405180830381865afa158015610dcc573d6000803e3d6000fd5b505050506040513d601f19601f82011682018060405250810190610df09190612b3e565b610e4b5760405162461bcd60e51b815260206004820152602660248201527f53657450726f636573735374617475733a206e6f7420616e2061646d696e69736044820152653a3930ba37b960d11b6064820152608401610689565b60008281526020819052604081205460ff1690816004811115610e7057610e70612318565b14158015610e9057506003816004811115610e8d57610e8d612318565b14155b15610ead5760405162461bcd60e51b815260040161068990612e28565b806004811115610ebf57610ebf612318565b826004811115610ed157610ed1612318565b03610f0c5760405162461bcd60e51b815260206004820152600b60248201526a26bab9ba103234b33332b960a91b6044820152606401610689565b6000838152602081905260409020805483919060ff19166001836004811115610f3757610f37612318565b0217905550827fac0c4085a30bc70d0d8893ee5d6466ac9c5f03e27fd7292dcef128a610e7c19083604051610f6c9190612e54565b60405180910390a2505050565b6001546000838152602081905260409081902054905163c1af6e0360e01b81526001600160a01b036101009092048216600482015233602482015291169063c1af6e0390604401602060405180830381865afa158015610fdd573d6000803e3d6000fd5b505050506040513d601f19601f820116820180604052508101906110019190612b3e565b61105c5760405162461bcd60e51b815260206004820152602660248201527f53657450726f6365737343656e7375733a206e6f7420616e2061646d696e69736044820152653a3930ba37b960d11b6064820152608401610689565b600061106b6060830183612e62565b9050116110a65760405162461bcd60e51b8152602060048201526009602482015268456d7074792055524960b81b6044820152606401610689565b60408101356000036110e75760405162461bcd60e51b815260206004820152600a602482015269115b5c1d1e481c9bdbdd60b21b6044820152606401610689565b60008281526020819052604090205461010090046001600160a01b03166111205760405162461bcd60e51b815260040161068990612dfd565b60008281526020819052604081205460ff16600481111561114357611143612318565b14806111715750600360008381526020819052604090205460ff16600481111561116f5761116f612318565b145b61118d5760405162461bcd60e51b815260040161068990612e28565b600082815260208181526040909120600e01549082013511156111c45760008281526020818152604090912090820135600e909101555b6000828152602081905260409081902090820135600f909101556111eb6060820182612e62565b600084815260208190526040902060100191611208919083612ea8565b50817f35947a8913e2156f19b018078c9f0667e49cb3dc24af3434a4d0b16b82675b1b604083013561123d6060850185612e62565b85602001356040516112529493929190612f67565b60405180910390a25050565b611266611e6d565b6112706000611ec8565b565b7ff0c57e16840df040f15088dc2f81fe391c3923bec73e23a9662efc9c229c6a008054600160401b810460ff1615906001600160401b03166000811580156112b75750825b90506000826001600160401b031660011480156112d35750303b155b9050811580156112e1575080155b156112ff5760405163f92ee8a960e01b815260040160405180910390fd5b845467ffffffffffffffff19166001178555831561132957845460ff60401b1916600160401b1785555b61133233611f39565b61133a611f4a565b6002611347888a83612ea8565b50600180546001600160a01b0319166001600160a01b03881617905583156113a957845460ff60401b19168555604051600181527fc7f505b2f371ae2175ee4913f4499e1f2633a7b5936321eed1cdaeb6115181d29060200160405180910390a15b5050505050505050565b6113bb612203565b60008281526020819052604090819020815161014081019092528054829060ff1660048111156113ed576113ed612318565b60048111156113fe576113fe612318565b8152815461010090046001600160a01b0316602080830191909152604080518082018252600185015481526002850154818401528184015260038401546060840152600484018054825181850281018501909352808352608090940193919290919083018282801561148f57602002820191906000526020600020905b81548152602001906001019080831161147b575b5050505050815260200160058201548152602001600682015481526020016007820180546114bc90612aa7565b80601f01602080910402602001604051908101604052809291908181526020018280546114e890612aa7565b80156115355780601f1061150a57610100808354040283529160200191611535565b820191906000526020600020905b81548152906001019060200180831161151857829003601f168201915b5050509183525050604080516101008082018352600885015460ff8082161515845291810482161515602084810191909152620100008204831684860152630100000090910482166060840152600980870154608080860191909152600a88015460a0860152600b88015460c0860152600c88015460e08601529186019390935283519081018452600d86018054949095019490939092849291909116908111156115e2576115e2612318565b60098111156115f3576115f3612318565b8152602001600182015481526020016002820154815260200160038201805461161b90612aa7565b80601f016020809104026020016040519081016040528092919081815260200182805461164790612aa7565b80156116945780601f1061166957610100808354040283529160200191611694565b820191906000526020600020905b81548152906001019060200180831161167757829003601f168201915b5050509190925250505090525092915050565b600280546116b490612aa7565b80601f01602080910402602001604051908101604052809291908181526020018280546116e090612aa7565b801561172d5780601f106117025761010080835404028352916020019161172d565b820191906000526020600020905b81548152906001019060200180831161171057829003601f168201915b505050505081565b60008581526020819052604090205461010090046001600160a01b031661176e5760405162461bcd60e51b815260040161068990612dfd565b600460008681526020819052604090205460ff16600481111561179357611793612318565b141580156117c45750600260008681526020819052604090205460ff1660048111156117c1576117c1612318565b14155b6118275760405162461bcd60e51b815260206004820152602e60248201527f496e76616c69642073746174757320666f72207375626d697474696e6720737460448201526d30ba32903a3930b739b4ba34b7b760911b6064820152608401610689565b600085815260208190526040902060030154841461187a5760405162461bcd60e51b815260206004820152601060248201526f125b9d985b1a59081bdb19081c9bdbdd60821b6044820152606401610689565b60008581526020818152604091829020600301859055905184815286917f734f931fe7a3776841211722ed18b29fc2947cc7a13e74d15fa612205c022db8910160405180910390a25050505050565b6001546000838152602081905260409081902054905163c1af6e0360e01b81526001600160a01b036101009092048216600482015233602482015291169063c1af6e0390604401602060405180830381865afa15801561192d573d6000803e3d6000fd5b505050506040513d601f19601f820116820180604052508101906119519190612b3e565b6119ae5760405162461bcd60e51b815260206004820152602860248201527f53657450726f636573734475726174696f6e3a206e6f7420616e2061646d696e60448201526734b9ba3930ba37b960c11b6064820152608401610689565b60008281526020819052604090205461010090046001600160a01b03166119e75760405162461bcd60e51b815260040161068990612dfd565b60008281526020819052604081205460ff166004811115611a0a57611a0a612318565b1480611a385750600360008381526020819052604090205460ff166004811115611a3657611a36612318565b145b611a545760405162461bcd60e51b815260040161068990612e28565b428111611a965760405162461bcd60e51b815260206004820152601060248201526f24b73b30b634b210323ab930ba34b7b760811b6044820152606401610689565b60008281526020818152604091829020600601839055905182815283917f0f759826327c668a220d576485ac38ddc4f83fbc414b984c00e79f669b649f469101611252565b6001546000828152602081905260409081902054905163c1af6e0360e01b81526001600160a01b036101009092048216600482015233602482015291169063c1af6e0390604401602060405180830381865afa158015611b3f573d6000803e3d6000fd5b505050506040513d601f19601f82011682018060405250810190611b639190612b3e565b611baf5760405162461bcd60e51b815260206004820181905260248201527f656e6450726f636573733a206e6f7420616e2061646d696e6973747261746f726044820152606401610689565b60008181526020819052604081205460ff166004811115611bd257611bd2612318565b1480611c005750600360008281526020819052604090205460ff166004811115611bfe57611bfe612318565b145b611c1c5760405162461bcd60e51b815260040161068990612e28565b600081815260208190526040902080546001919060ff191682800217905550807fac0c4085a30bc70d0d8893ee5d6466ac9c5f03e27fd7292dcef128a610e7c1906001604051611c6c9190612e54565b60405180910390a250565b611c7f611e6d565b6001600160a01b038116611ca957604051631e4fbdf760e01b815260006004820152602401610689565b611cb281611ec8565b50565b306001600160a01b037f0000000000000000000000000000000000000000000000000000000000000000161480611d3c57507f00000000000000000000000000000000000000000000000000000000000000006001600160a01b0316611d30600080516020612fdd833981519152546001600160a01b031690565b6001600160a01b031614155b156112705760405163703e46dd60e11b815260040160405180910390fd5b611cb2611e6d565b816001600160a01b03166352d1902d6040518163ffffffff1660e01b8152600401602060405180830381865afa925050508015611dbc575060408051601f3d908101601f19168201909252611db991810190612fa7565b60015b611de457604051634c9c8ce360e01b81526001600160a01b0383166004820152602401610689565b600080516020612fdd8339815191528114611e1557604051632a87526960e21b815260048101829052602401610689565b611e1f8383611f52565b505050565b306001600160a01b037f000000000000000000000000000000000000000000000000000000000000000016146112705760405163703e46dd60e11b815260040160405180910390fd5b33611e9f7f9016d09d72d40fdae2fd8ceac6b6234c7706214fd39c1cd1e609a0528c199300546001600160a01b031690565b6001600160a01b0316146112705760405163118cdaa760e01b8152336004820152602401610689565b7f9016d09d72d40fdae2fd8ceac6b6234c7706214fd39c1cd1e609a0528c19930080546001600160a01b031981166001600160a01b03848116918217845560405192169182907f8be0079c531659141344cd1fd0a4f28419497f9722a3daafe3b4186f6b6457e090600090a3505050565b611f41611fa8565b611cb281611ff1565b611270611fa8565b611f5b82611ff9565b6040516001600160a01b038316907fbc7cd75a20ee27fd9adebab32041f755214dbc6bffa90cc0225b39da2e5c2d3b90600090a2805115611fa057611e1f828261205e565b610d476120d6565b7ff0c57e16840df040f15088dc2f81fe391c3923bec73e23a9662efc9c229c6a0054600160401b900460ff1661127057604051631afcd79f60e31b815260040160405180910390fd5b611c7f611fa8565b806001600160a01b03163b60000361202f57604051634c9c8ce360e01b81526001600160a01b0382166004820152602401610689565b600080516020612fdd83398151915280546001600160a01b0319166001600160a01b0392909216919091179055565b6060600080846001600160a01b03168460405161207b9190612fc0565b600060405180830381855af49150503d80600081146120b6576040519150601f19603f3d011682016040523d82523d6000602084013e6120bb565b606091505b50915091506120cb8583836120f5565b925050505b92915050565b34156112705760405163b398979f60e01b815260040160405180910390fd5b60608261210a5761210582612154565b61214d565b815115801561212157506001600160a01b0384163b155b1561214a57604051639996b31560e01b81526001600160a01b0385166004820152602401610689565b50805b9392505050565b8051156121645780518082602001fd5b604051630a12f52160e11b815260040160405180910390fd5b8280548282559060005260206000209081019282156121b8579160200282015b828111156121b857825182559160200191906001019061219d565b506121c49291506122ea565b5090565b8280548282559060005260206000209081019282156121b8579160200282015b828111156121b85782358255916020019190600101906121e8565b604080516101408101909152806000815260200160006001600160a01b03168152602001612244604051806040016040528060008152602001600081525090565b815260200160008019168152602001606081526020016000815260200160008152602001606081526020016122c1604051806101000160405280600015158152602001600015158152602001600060ff168152602001600060ff168152602001600081526020016000815260200160008152602001600081525090565b815260408051608081018252600080825260208281018290529282015260608082015291015290565b5b808211156121c457600081556001016122eb565b60006020828403121561231157600080fd5b5035919050565b634e487b7160e01b600052602160045260246000fd5b6005811061233e5761233e612318565b9052565b60005b8381101561235d578181015183820152602001612345565b50506000910152565b6000815180845261237e816020860160208601612342565b601f01601f19169290920160200192915050565b80511515825260208101511515602083015260ff604082015116604083015260608101516123c5606084018260ff169052565b506080810151608083015260a081015160a083015260c081015160c083015260e081015160e08301525050565b60008151600a811061240657612406612318565b8084525060208201516020840152604082015160408401526060820151608060608501526124376080850182612366565b949350505050565b612449818b61232e565b6001600160a01b038916602082015261246f604082018980518252602090810151910152565b8660808201528560a08201528460c082015261022060e08201526000612499610220830186612366565b6124a7610100840186612392565b8281036102008401526124ba81856123f2565b9c9b505050505050505050505050565b8035600581106124d957600080fd5b919050565b600061010082840312156124f157600080fd5b50919050565b6000608082840312156124f157600080fd5b60008083601f84011261251b57600080fd5b5081356001600160401b0381111561253257600080fd5b60208301915083602082850101111561254a57600080fd5b9250929050565b80356001600160a01b03811681146124d957600080fd5b6000604082840312156124f157600080fd5b60008060008060008060008060008060006102408c8e03121561259c57600080fd5b6125a58c6124ca565b9a5060208c0135995060408c013598506125c28d60608e016124de565b97506101608c01356001600160401b038111156125de57600080fd5b6125ea8e828f016124f7565b9750506101808c01356001600160401b0381111561260757600080fd5b6126138e828f01612509565b909750955061262790506101a08d01612551565b93506101c08c0135925061263f8d6101e08e01612568565b915060006102208d01359050809150509295989b509295989b9093969950565b60008060008060006060868803121561267757600080fd5b8535945060208601356001600160401b0381111561269457600080fd5b8601601f810188136126a557600080fd5b80356001600160401b038111156126bb57600080fd5b8860208260051b84010111156126d057600080fd5b6020919091019450925060408601356001600160401b038111156126f357600080fd5b6126ff88828901612509565b969995985093965092949392505050565b634e487b7160e01b600052604160045260246000fd5b60405161010081016001600160401b038111828210171561274957612749612710565b60405290565b604051608081016001600160401b038111828210171561274957612749612710565b6000806001600160401b0384111561278b5761278b612710565b50604051601f19601f85018116603f011681018181106001600160401b03821117156127b9576127b9612710565b6040528381529050808284018510156127d157600080fd5b83836020830137600060208583010152509392505050565b600080604083850312156127fc57600080fd5b61280583612551565b915060208301356001600160401b0381111561282057600080fd5b8301601f8101851361283157600080fd5b61284085823560208401612771565b9150509250929050565b6000806040838503121561285d57600080fd5b8235915061286d602084016124ca565b90509250929050565b6000806040838503121561288957600080fd5b8235915060208301356001600160401b038111156128a657600080fd5b612840858286016124f7565b6000806000604084860312156128c757600080fd5b83356001600160401b038111156128dd57600080fd5b6128e986828701612509565b90945092506128fc905060208501612551565b90509250925092565b600081518084526020840193506020830160005b82811015612937578151865260209586019590910190600101612919565b5093949350505050565b6020815261295360208201835161232e565b6000602083015161296f60408401826001600160a01b03169052565b506040830151805160608401526020810151608084015250606083015160a0830152608083015161024060c08401526129ac610260840182612905565b905060a084015160e084015260c084015161010084015260e0840151601f19848303016101208501526129df8282612366565b9150506101008401516129f6610140850182612392565b50610120840151838203601f19016102408501526120cb82826123f2565b60208152600061214d6020830184612366565b600080600080600060808688031215612a3f57600080fd5b85359450602086013593506040860135925060608601356001600160401b038111156126f357600080fd5b60008060408385031215612a7d57600080fd5b50508035926020909101359150565b600060208284031215612a9e57600080fd5b61214d82612551565b600181811c90821680612abb57607f821691505b6020821081036124f157634e487b7160e01b600052602260045260246000fd5b803560ff811681146124d957600080fd5b600060208284031215612afe57600080fd5b61214d82612adb565b634e487b7160e01b600052601160045260246000fd5b808201808211156120d0576120d0612b07565b8015158114611cb257600080fd5b600060208284031215612b5057600080fd5b815161214d81612b30565b60006040828403128015612b6e57600080fd5b50604080519081016001600160401b0381118282101715612b9157612b91612710565b604052823581526020928301359281019290925250919050565b80356124d981612b30565b6000610100828403128015612bca57600080fd5b506000612bd5612726565b8335612be081612b30565b8152612bee60208501612bab565b6020820152612bff60408501612adb565b6040820152612c1060608501612adb565b60608201526080848101359082015260a0808501359082015260c0808501359082015260e09384013593810193909352509092915050565b600060808236031215612c5a57600080fd5b612c6261274f565b8235600a8110612c7157600080fd5b8152602083810135908201526040808401359082015260608301356001600160401b03811115612ca057600080fd5b830136601f820112612cb157600080fd5b612cc036823560208401612771565b60608301525092915050565b601f821115611e1f57806000526020600020601f840160051c81016020851015612cf35750805b601f840160051c820191505b81811015612d135760008155600101612cff565b5050505050565b81516001600160401b03811115612d3357612d33612710565b612d4781612d418454612aa7565b84612ccc565b6020601f821160018114612d7b5760008315612d635750848201515b600019600385901b1c1916600184901b178455612d13565b600084815260208120601f198516915b82811015612dab5787850151825560209485019460019092019101612d8b565b5084821015612dc95786840151600019600387901b60f8161c191681555b50505050600190811b01905550565b600063ffffffff821663ffffffff8103612df457612df4612b07565b60010192915050565b602080825260119082015270141c9bd8d95cdcc81b9bdd08199bdd5b99607a1b604082015260600190565b602080825260129082015271141c9bd8d95cdcc81d195c9b5a5b985d195960721b604082015260600190565b602081016120d0828461232e565b6000808335601e19843603018112612e7957600080fd5b8301803591506001600160401b03821115612e9357600080fd5b60200191503681900382131561254a57600080fd5b6001600160401b03831115612ebf57612ebf612710565b612ed383612ecd8354612aa7565b83612ccc565b6000601f841160018114612f075760008515612eef5750838201355b600019600387901b1c1916600186901b178355612d13565b600083815260209020601f19861690835b82811015612f385786850135825560209485019460019092019101612f18565b5086821015612f555760001960f88860031b161c19848701351681555b505060018560011b0183555050505050565b848152606060208201528260608201528284608083013760006080848301015260006080601f19601f860116830101905082604083015295945050505050565b600060208284031215612fb957600080fd5b5051919050565b60008251612fd2818460208701612342565b919091019291505056fe360894a13ba1a3210667c828492db98dca3e2076cc3735a920a3ca505d382bbca2646970667358221220b9961b37f4055625eaf24fb8de806b1a9331a5736dfd9a3e1de5c76f000a5bfe64736f6c634300081c0033","opcodes":"PUSH1 0xA0 PUSH1 0x40 MSTORE ADDRESS PUSH1 0x80 MSTORE CALLVALUE DUP1 ISZERO PUSH1 0x13 JUMPI PUSH1 0x0 DUP1 REVERT JUMPDEST POP PUSH1 0x80 MLOAD PUSH2 0x3032 PUSH2 0x3D PUSH1 0x0 CODECOPY PUSH1 0x0 DUP2 DUP2 PUSH2 0x1CC0 ADD MSTORE DUP2 DUP2 PUSH2 0x1CE9 ADD MSTORE PUSH2 0x1E2F ADD MSTORE PUSH2 0x3032 PUSH1 0x0 RETURN INVALID PUSH1 0x80 PUSH1 0x40 MSTORE PUSH1 0x4 CALLDATASIZE LT PUSH2 0x114 JUMPI PUSH1 0x0 CALLDATALOAD PUSH1 0xE0 SHR DUP1 PUSH4 0x848DF540 GT PUSH2 0xA0 JUMPI DUP1 PUSH4 0xADC879E9 GT PUSH2 0x64 JUMPI DUP1 PUSH4 0xADC879E9 EQ PUSH2 0x35D JUMPI DUP1 PUSH4 0xB66BA6EB EQ PUSH2 0x372 JUMPI DUP1 PUSH4 0xC718C01F EQ PUSH2 0x392 JUMPI DUP1 PUSH4 0xEA9BCAF6 EQ PUSH2 0x3B2 JUMPI DUP1 PUSH4 0xF2FDE38B EQ PUSH2 0x3D2 JUMPI PUSH1 0x0 DUP1 REVERT JUMPDEST DUP1 PUSH4 0x848DF540 EQ PUSH2 0x244 JUMPI DUP1 PUSH4 0x8CAFAB7F EQ PUSH2 0x27D JUMPI DUP1 PUSH4 0x8DA5CB5B EQ PUSH2 0x2B5 JUMPI DUP1 PUSH4 0x992BC45B EQ PUSH2 0x2F2 JUMPI DUP1 PUSH4 0xAD3CB1CC EQ PUSH2 0x31F JUMPI PUSH1 0x0 DUP1 REVERT JUMPDEST DUP1 PUSH4 0x52D1902D GT PUSH2 0xE7 JUMPI DUP1 PUSH4 0x52D1902D EQ PUSH2 0x1AC JUMPI DUP1 PUSH4 0x56A6F1E2 EQ PUSH2 0x1CF JUMPI DUP1 PUSH4 0x6BAE04EA EQ PUSH2 0x1EF JUMPI DUP1 PUSH4 0x715018A6 EQ PUSH2 0x20F JUMPI DUP1 PUSH4 0x7AB4339D EQ PUSH2 0x224 JUMPI PUSH1 0x0 DUP1 REVERT JUMPDEST DUP1 PUSH4 0x535FECE EQ PUSH2 0x119 JUMPI DUP1 PUSH4 0x152F3128 EQ PUSH2 0x157 JUMPI DUP1 PUSH4 0x25402545 EQ PUSH2 0x179 JUMPI DUP1 PUSH4 0x4F1EF286 EQ PUSH2 0x199 JUMPI JUMPDEST PUSH1 0x0 DUP1 REVERT JUMPDEST CALLVALUE DUP1 ISZERO PUSH2 0x125 JUMPI PUSH1 0x0 DUP1 REVERT JUMPDEST POP PUSH2 0x139 PUSH2 0x134 CALLDATASIZE PUSH1 0x4 PUSH2 0x22FF JUMP JUMPDEST PUSH2 0x3F2 JUMP JUMPDEST PUSH1 0x40 MLOAD PUSH2 0x14E SWAP10 SWAP9 SWAP8 SWAP7 SWAP6 SWAP5 SWAP4 SWAP3 SWAP2 SWAP1 PUSH2 0x243F JUMP JUMPDEST PUSH1 0x40 MLOAD DUP1 SWAP2 SUB SWAP1 RETURN JUMPDEST CALLVALUE DUP1 ISZERO PUSH2 0x163 JUMPI PUSH1 0x0 DUP1 REVERT JUMPDEST POP PUSH2 0x177 PUSH2 0x172 CALLDATASIZE PUSH1 0x4 PUSH2 0x257A JUMP JUMPDEST PUSH2 0x62B JUMP JUMPDEST STOP JUMPDEST CALLVALUE DUP1 ISZERO PUSH2 0x185 JUMPI PUSH1 0x0 DUP1 REVERT JUMPDEST POP PUSH2 0x177 PUSH2 0x194 CALLDATASIZE PUSH1 0x4 PUSH2 0x265F JUMP JUMPDEST PUSH2 0xC51 JUMP JUMPDEST PUSH2 0x177 PUSH2 0x1A7 CALLDATASIZE PUSH1 0x4 PUSH2 0x27E9 JUMP JUMPDEST PUSH2 0xD2C JUMP JUMPDEST CALLVALUE DUP1 ISZERO PUSH2 0x1B8 JUMPI PUSH1 0x0 DUP1 REVERT JUMPDEST POP PUSH2 0x1C1 PUSH2 0xD4B JUMP JUMPDEST PUSH1 0x40 MLOAD SWAP1 DUP2 MSTORE PUSH1 0x20 ADD PUSH2 0x14E JUMP JUMPDEST CALLVALUE DUP1 ISZERO PUSH2 0x1DB JUMPI PUSH1 0x0 DUP1 REVERT JUMPDEST POP PUSH2 0x177 PUSH2 0x1EA CALLDATASIZE PUSH1 0x4 PUSH2 0x284A JUMP JUMPDEST PUSH2 0xD68 JUMP JUMPDEST CALLVALUE DUP1 ISZERO PUSH2 0x1FB JUMPI PUSH1 0x0 DUP1 REVERT JUMPDEST POP PUSH2 0x177 PUSH2 0x20A CALLDATASIZE PUSH1 0x4 PUSH2 0x2876 JUMP JUMPDEST PUSH2 0xF79 JUMP JUMPDEST CALLVALUE DUP1 ISZERO PUSH2 0x21B JUMPI PUSH1 0x0 DUP1 REVERT JUMPDEST POP PUSH2 0x177 PUSH2 0x125E JUMP JUMPDEST CALLVALUE DUP1 ISZERO PUSH2 0x230 JUMPI PUSH1 0x0 DUP1 REVERT JUMPDEST POP PUSH2 0x177 PUSH2 0x23F CALLDATASIZE PUSH1 0x4 PUSH2 0x28B2 JUMP JUMPDEST PUSH2 0x1272 JUMP JUMPDEST CALLVALUE DUP1 ISZERO PUSH2 0x250 JUMPI PUSH1 0x0 DUP1 REVERT JUMPDEST POP PUSH1 0x1 SLOAD PUSH2 0x268 SWAP1 PUSH1 0x1 PUSH1 0xA0 SHL SWAP1 DIV PUSH4 0xFFFFFFFF AND DUP2 JUMP JUMPDEST PUSH1 0x40 MLOAD PUSH4 0xFFFFFFFF SWAP1 SWAP2 AND DUP2 MSTORE PUSH1 0x20 ADD PUSH2 0x14E JUMP JUMPDEST CALLVALUE DUP1 ISZERO PUSH2 0x289 JUMPI PUSH1 0x0 DUP1 REVERT JUMPDEST POP PUSH1 0x1 SLOAD PUSH2 0x29D SWAP1 PUSH1 0x1 PUSH1 0x1 PUSH1 0xA0 SHL SUB AND DUP2 JUMP JUMPDEST PUSH1 0x40 MLOAD PUSH1 0x1 PUSH1 0x1 PUSH1 0xA0 SHL SUB SWAP1 SWAP2 AND DUP2 MSTORE PUSH1 0x20 ADD PUSH2 0x14E JUMP JUMPDEST CALLVALUE DUP1 ISZERO PUSH2 0x2C1 JUMPI PUSH1 0x0 DUP1 REVERT JUMPDEST POP PUSH32 0x9016D09D72D40FDAE2FD8CEAC6B6234C7706214FD39C1CD1E609A0528C199300 SLOAD PUSH1 0x1 PUSH1 0x1 PUSH1 0xA0 SHL SUB AND PUSH2 0x29D JUMP JUMPDEST CALLVALUE DUP1 ISZERO PUSH2 0x2FE JUMPI PUSH1 0x0 DUP1 REVERT JUMPDEST POP PUSH2 0x312 PUSH2 0x30D CALLDATASIZE PUSH1 0x4 PUSH2 0x22FF JUMP JUMPDEST PUSH2 0x13B3 JUMP JUMPDEST PUSH1 0x40 MLOAD PUSH2 0x14E SWAP2 SWAP1 PUSH2 0x2941 JUMP JUMPDEST CALLVALUE DUP1 ISZERO PUSH2 0x32B JUMPI PUSH1 0x0 DUP1 REVERT JUMPDEST POP PUSH2 0x350 PUSH1 0x40 MLOAD DUP1 PUSH1 0x40 ADD PUSH1 0x40 MSTORE DUP1 PUSH1 0x5 DUP2 MSTORE PUSH1 0x20 ADD PUSH5 0x352E302E3 PUSH1 0xDC SHL DUP2 MSTORE POP DUP2 JUMP JUMPDEST PUSH1 0x40 MLOAD PUSH2 0x14E SWAP2 SWAP1 PUSH2 0x2A14 JUMP JUMPDEST CALLVALUE DUP1 ISZERO PUSH2 0x369 JUMPI PUSH1 0x0 DUP1 REVERT JUMPDEST POP PUSH2 0x350 PUSH2 0x16A7 JUMP JUMPDEST CALLVALUE DUP1 ISZERO PUSH2 0x37E JUMPI PUSH1 0x0 DUP1 REVERT JUMPDEST POP PUSH2 0x177 PUSH2 0x38D CALLDATASIZE PUSH1 0x4 PUSH2 0x2A27 JUMP JUMPDEST PUSH2 0x1735 JUMP JUMPDEST CALLVALUE DUP1 ISZERO PUSH2 0x39E JUMPI PUSH1 0x0 DUP1 REVERT JUMPDEST POP PUSH2 0x177 PUSH2 0x3AD CALLDATASIZE PUSH1 0x4 PUSH2 0x2A6A JUMP JUMPDEST PUSH2 0x18C9 JUMP JUMPDEST CALLVALUE DUP1 ISZERO PUSH2 0x3BE JUMPI PUSH1 0x0 DUP1 REVERT JUMPDEST POP PUSH2 0x177 PUSH2 0x3CD CALLDATASIZE PUSH1 0x4 PUSH2 0x22FF JUMP JUMPDEST PUSH2 0x1ADB JUMP JUMPDEST CALLVALUE DUP1 ISZERO PUSH2 0x3DE JUMPI PUSH1 0x0 DUP1 REVERT JUMPDEST POP PUSH2 0x177 PUSH2 0x3ED CALLDATASIZE PUSH1 0x4 PUSH2 0x2A8C JUMP JUMPDEST PUSH2 0x1C77 JUMP JUMPDEST PUSH1 0x0 PUSH1 0x20 DUP2 DUP2 MSTORE SWAP2 DUP2 MSTORE PUSH1 0x40 SWAP1 DUP2 SWAP1 KECCAK256 DUP1 SLOAD DUP3 MLOAD DUP1 DUP5 ADD SWAP1 SWAP4 MSTORE PUSH1 0x1 DUP3 ADD SLOAD DUP4 MSTORE PUSH1 0x2 DUP3 ADD SLOAD SWAP4 DUP4 ADD SWAP4 SWAP1 SWAP4 MSTORE PUSH1 0x3 DUP2 ADD SLOAD PUSH1 0x5 DUP3 ADD SLOAD PUSH1 0x6 DUP4 ADD SLOAD PUSH1 0x7 DUP5 ADD DUP1 SLOAD PUSH1 0xFF DUP9 AND SWAP8 PUSH2 0x100 SWAP1 DIV PUSH1 0x1 PUSH1 0x1 PUSH1 0xA0 SHL SUB AND SWAP7 SWAP6 SWAP2 SWAP1 PUSH2 0x454 SWAP1 PUSH2 0x2AA7 JUMP JUMPDEST DUP1 PUSH1 0x1F ADD PUSH1 0x20 DUP1 SWAP2 DIV MUL PUSH1 0x20 ADD PUSH1 0x40 MLOAD SWAP1 DUP2 ADD PUSH1 0x40 MSTORE DUP1 SWAP3 SWAP2 SWAP1 DUP2 DUP2 MSTORE PUSH1 0x20 ADD DUP3 DUP1 SLOAD PUSH2 0x480 SWAP1 PUSH2 0x2AA7 JUMP JUMPDEST DUP1 ISZERO PUSH2 0x4CD JUMPI DUP1 PUSH1 0x1F LT PUSH2 0x4A2 JUMPI PUSH2 0x100 DUP1 DUP4 SLOAD DIV MUL DUP4 MSTORE SWAP2 PUSH1 0x20 ADD SWAP2 PUSH2 0x4CD JUMP JUMPDEST DUP3 ADD SWAP2 SWAP1 PUSH1 0x0 MSTORE PUSH1 0x20 PUSH1 0x0 KECCAK256 SWAP1 JUMPDEST DUP2 SLOAD DUP2 MSTORE SWAP1 PUSH1 0x1 ADD SWAP1 PUSH1 0x20 ADD DUP1 DUP4 GT PUSH2 0x4B0 JUMPI DUP3 SWAP1 SUB PUSH1 0x1F AND DUP3 ADD SWAP2 JUMPDEST POP POP PUSH1 0x40 DUP1 MLOAD PUSH2 0x100 DUP1 DUP3 ADD DUP4 MSTORE PUSH1 0x8 DUP9 ADD SLOAD PUSH1 0xFF DUP1 DUP3 AND ISZERO ISZERO DUP5 MSTORE SWAP2 DUP2 DIV DUP3 AND ISZERO ISZERO PUSH1 0x20 DUP5 ADD MSTORE PUSH3 0x10000 DUP2 DIV DUP3 AND DUP4 DUP6 ADD MSTORE PUSH4 0x1000000 SWAP1 DIV DUP2 AND PUSH1 0x60 DUP4 ADD MSTORE PUSH1 0x9 DUP1 DUP10 ADD SLOAD PUSH1 0x80 DUP1 DUP6 ADD SWAP2 SWAP1 SWAP2 MSTORE PUSH1 0xA DUP11 ADD SLOAD PUSH1 0xA0 DUP6 ADD MSTORE PUSH1 0xB DUP11 ADD SLOAD PUSH1 0xC0 DUP6 ADD MSTORE PUSH1 0xC DUP11 ADD SLOAD PUSH1 0xE0 DUP6 ADD MSTORE DUP5 MLOAD SWAP1 DUP2 ADD SWAP1 SWAP5 MSTORE PUSH1 0xD DUP10 ADD DUP1 SLOAD SWAP9 SWAP10 SWAP4 SWAP9 SWAP4 SWAP8 POP SWAP4 SWAP6 POP SWAP3 SWAP4 POP DUP5 SWAP3 SWAP2 AND SWAP1 DUP2 GT ISZERO PUSH2 0x56B JUMPI PUSH2 0x56B PUSH2 0x2318 JUMP JUMPDEST PUSH1 0x9 DUP2 GT ISZERO PUSH2 0x57C JUMPI PUSH2 0x57C PUSH2 0x2318 JUMP JUMPDEST DUP2 MSTORE PUSH1 0x20 ADD PUSH1 0x1 DUP3 ADD SLOAD DUP2 MSTORE PUSH1 0x20 ADD PUSH1 0x2 DUP3 ADD SLOAD DUP2 MSTORE PUSH1 0x20 ADD PUSH1 0x3 DUP3 ADD DUP1 SLOAD PUSH2 0x5A4 SWAP1 PUSH2 0x2AA7 JUMP JUMPDEST DUP1 PUSH1 0x1F ADD PUSH1 0x20 DUP1 SWAP2 DIV MUL PUSH1 0x20 ADD PUSH1 0x40 MLOAD SWAP1 DUP2 ADD PUSH1 0x40 MSTORE DUP1 SWAP3 SWAP2 SWAP1 DUP2 DUP2 MSTORE PUSH1 0x20 ADD DUP3 DUP1 SLOAD PUSH2 0x5D0 SWAP1 PUSH2 0x2AA7 JUMP JUMPDEST DUP1 ISZERO PUSH2 0x61D JUMPI DUP1 PUSH1 0x1F LT PUSH2 0x5F2 JUMPI PUSH2 0x100 DUP1 DUP4 SLOAD DIV MUL DUP4 MSTORE SWAP2 PUSH1 0x20 ADD SWAP2 PUSH2 0x61D JUMP JUMPDEST DUP3 ADD SWAP2 SWAP1 PUSH1 0x0 MSTORE PUSH1 0x20 PUSH1 0x0 KECCAK256 SWAP1 JUMPDEST DUP2 SLOAD DUP2 MSTORE SWAP1 PUSH1 0x1 ADD SWAP1 PUSH1 0x20 ADD DUP1 DUP4 GT PUSH2 0x600 JUMPI DUP3 SWAP1 SUB PUSH1 0x1F AND DUP3 ADD SWAP2 JUMPDEST POP POP POP POP POP DUP2 MSTORE POP POP SWAP1 POP DUP10 JUMP JUMPDEST PUSH1 0x0 PUSH2 0x63D PUSH1 0x60 DUP11 ADD PUSH1 0x40 DUP12 ADD PUSH2 0x2AEC JUMP JUMPDEST PUSH1 0xFF AND GT PUSH2 0x692 JUMPI PUSH1 0x40 MLOAD PUSH3 0x461BCD PUSH1 0xE5 SHL DUP2 MSTORE PUSH1 0x20 PUSH1 0x4 DUP3 ADD MSTORE PUSH1 0x1C PUSH1 0x24 DUP3 ADD MSTORE PUSH32 0x4E657750726F636573733A20696E76616C6964206D6178436F756E7400000000 PUSH1 0x44 DUP3 ADD MSTORE PUSH1 0x64 ADD JUMPDEST PUSH1 0x40 MLOAD DUP1 SWAP2 SUB SWAP1 REVERT JUMPDEST PUSH2 0x6A2 PUSH1 0x60 DUP10 ADD PUSH1 0x40 DUP11 ADD PUSH2 0x2AEC JUMP JUMPDEST PUSH1 0xFF AND DUP9 PUSH1 0x80 ADD CALLDATALOAD GT PUSH2 0x6F7 JUMPI PUSH1 0x40 MLOAD PUSH3 0x461BCD PUSH1 0xE5 SHL DUP2 MSTORE PUSH1 0x20 PUSH1 0x4 DUP3 ADD MSTORE PUSH1 0x1F PUSH1 0x24 DUP3 ADD MSTORE PUSH32 0x4E657750726F636573733A206D6178436F756E74203E206D617856616C756500 PUSH1 0x44 DUP3 ADD MSTORE PUSH1 0x64 ADD PUSH2 0x689 JUMP JUMPDEST PUSH1 0x0 DUP12 PUSH1 0x4 DUP2 GT ISZERO PUSH2 0x70B JUMPI PUSH2 0x70B PUSH2 0x2318 JUMP JUMPDEST EQ DUP1 PUSH2 0x728 JUMPI POP PUSH1 0x3 DUP12 PUSH1 0x4 DUP2 GT ISZERO PUSH2 0x726 JUMPI PUSH2 0x726 PUSH2 0x2318 JUMP JUMPDEST EQ JUMPDEST PUSH2 0x774 JUMPI PUSH1 0x40 MLOAD PUSH3 0x461BCD PUSH1 0xE5 SHL DUP2 MSTORE PUSH1 0x20 PUSH1 0x4 DUP3 ADD MSTORE PUSH1 0x1A PUSH1 0x24 DUP3 ADD MSTORE PUSH32 0x4E657750726F636573733A20696E76616C696420737461747573000000000000 PUSH1 0x44 DUP3 ADD MSTORE PUSH1 0x64 ADD PUSH2 0x689 JUMP JUMPDEST TIMESTAMP DUP11 GT PUSH2 0x7C3 JUMPI PUSH1 0x40 MLOAD PUSH3 0x461BCD PUSH1 0xE5 SHL DUP2 MSTORE PUSH1 0x20 PUSH1 0x4 DUP3 ADD MSTORE PUSH1 0x1D PUSH1 0x24 DUP3 ADD MSTORE PUSH32 0x4E657750726F636573733A20696E76616C696420737461727454696D65000000 PUSH1 0x44 DUP3 ADD MSTORE PUSH1 0x64 ADD PUSH2 0x689 JUMP JUMPDEST TIMESTAMP PUSH2 0x7CE DUP11 DUP13 PUSH2 0x2B1D JUMP JUMPDEST GT PUSH2 0x81B JUMPI PUSH1 0x40 MLOAD PUSH3 0x461BCD PUSH1 0xE5 SHL DUP2 MSTORE PUSH1 0x20 PUSH1 0x4 DUP3 ADD MSTORE PUSH1 0x1C PUSH1 0x24 DUP3 ADD MSTORE PUSH32 0x4E657750726F636573733A20696E76616C6964206475726174696F6E00000000 PUSH1 0x44 DUP3 ADD MSTORE PUSH1 0x64 ADD PUSH2 0x689 JUMP JUMPDEST PUSH1 0x1 SLOAD PUSH1 0x40 MLOAD PUSH4 0xC1AF6E03 PUSH1 0xE0 SHL DUP2 MSTORE PUSH1 0x1 PUSH1 0x1 PUSH1 0xA0 SHL SUB DUP7 DUP2 AND PUSH1 0x4 DUP4 ADD MSTORE CALLER PUSH1 0x24 DUP4 ADD MSTORE SWAP1 SWAP2 AND SWAP1 PUSH4 0xC1AF6E03 SWAP1 PUSH1 0x44 ADD PUSH1 0x20 PUSH1 0x40 MLOAD DUP1 DUP4 SUB DUP2 DUP7 GAS STATICCALL ISZERO DUP1 ISZERO PUSH2 0x86B JUMPI RETURNDATASIZE PUSH1 0x0 DUP1 RETURNDATACOPY RETURNDATASIZE PUSH1 0x0 REVERT JUMPDEST POP POP POP POP PUSH1 0x40 MLOAD RETURNDATASIZE PUSH1 0x1F NOT PUSH1 0x1F DUP3 ADD AND DUP3 ADD DUP1 PUSH1 0x40 MSTORE POP DUP2 ADD SWAP1 PUSH2 0x88F SWAP2 SWAP1 PUSH2 0x2B3E JUMP JUMPDEST PUSH2 0x8DB JUMPI PUSH1 0x40 MLOAD PUSH3 0x461BCD PUSH1 0xE5 SHL DUP2 MSTORE PUSH1 0x20 PUSH1 0x4 DUP3 ADD DUP2 SWAP1 MSTORE PUSH1 0x24 DUP3 ADD MSTORE PUSH32 0x4E657750726F636573733A206E6F7420616E2061646D696E6973747261746F72 PUSH1 0x44 DUP3 ADD MSTORE PUSH1 0x64 ADD PUSH2 0x689 JUMP JUMPDEST PUSH1 0x0 DUP4 DUP2 MSTORE PUSH1 0x20 DUP2 SWAP1 MSTORE PUSH1 0x40 SWAP1 KECCAK256 SLOAD PUSH2 0x100 SWAP1 DIV PUSH1 0x1 PUSH1 0x1 PUSH1 0xA0 SHL SUB AND ISZERO PUSH2 0x950 JUMPI PUSH1 0x40 MLOAD PUSH3 0x461BCD PUSH1 0xE5 SHL DUP2 MSTORE PUSH1 0x20 PUSH1 0x4 DUP3 ADD MSTORE PUSH1 0x22 PUSH1 0x24 DUP3 ADD MSTORE PUSH32 0x4E657750726F636573733A2070726F6365737320616C72656164792065786973 PUSH1 0x44 DUP3 ADD MSTORE PUSH2 0x7473 PUSH1 0xF0 SHL PUSH1 0x64 DUP3 ADD MSTORE PUSH1 0x84 ADD PUSH2 0x689 JUMP JUMPDEST PUSH1 0x0 PUSH1 0x40 MLOAD DUP1 PUSH2 0x140 ADD PUSH1 0x40 MSTORE DUP1 DUP14 PUSH1 0x4 DUP2 GT ISZERO PUSH2 0x970 JUMPI PUSH2 0x970 PUSH2 0x2318 JUMP JUMPDEST DUP2 MSTORE PUSH1 0x1 PUSH1 0x1 PUSH1 0xA0 SHL SUB DUP8 AND PUSH1 0x20 DUP3 ADD MSTORE PUSH1 0x40 ADD PUSH2 0x993 CALLDATASIZE DUP7 SWAP1 SUB DUP7 ADD DUP7 PUSH2 0x2B5B JUMP JUMPDEST DUP2 MSTORE PUSH1 0x20 DUP1 DUP3 ADD DUP6 SWAP1 MSTORE PUSH1 0x40 DUP1 MLOAD PUSH1 0x0 DUP1 DUP3 MSTORE SWAP3 DUP2 ADD DUP3 MSTORE SWAP3 ADD SWAP2 SWAP1 POP DUP2 MSTORE PUSH1 0x20 ADD DUP13 DUP2 MSTORE PUSH1 0x20 ADD DUP12 DUP2 MSTORE PUSH1 0x20 ADD DUP9 DUP9 DUP1 DUP1 PUSH1 0x1F ADD PUSH1 0x20 DUP1 SWAP2 DIV MUL PUSH1 0x20 ADD PUSH1 0x40 MLOAD SWAP1 DUP2 ADD PUSH1 0x40 MSTORE DUP1 SWAP4 SWAP3 SWAP2 SWAP1 DUP2 DUP2 MSTORE PUSH1 0x20 ADD DUP4 DUP4 DUP1 DUP3 DUP5 CALLDATACOPY PUSH1 0x0 SWAP3 ADD SWAP2 SWAP1 SWAP2 MSTORE POP POP POP SWAP1 DUP3 MSTORE POP PUSH1 0x20 ADD PUSH2 0xA0C CALLDATASIZE DUP13 SWAP1 SUB DUP13 ADD DUP13 PUSH2 0x2BB6 JUMP JUMPDEST DUP2 MSTORE PUSH1 0x20 ADD PUSH2 0xA1A DUP11 PUSH2 0x2C48 JUMP JUMPDEST SWAP1 MSTORE PUSH1 0x0 DUP6 DUP2 MSTORE PUSH1 0x20 DUP2 SWAP1 MSTORE PUSH1 0x40 SWAP1 KECCAK256 DUP2 MLOAD DUP2 SLOAD SWAP3 SWAP4 POP DUP4 SWAP3 DUP3 SWAP1 PUSH1 0xFF NOT AND PUSH1 0x1 DUP4 PUSH1 0x4 DUP2 GT ISZERO PUSH2 0xA4D JUMPI PUSH2 0xA4D PUSH2 0x2318 JUMP JUMPDEST MUL OR SWAP1 SSTORE POP PUSH1 0x20 DUP3 DUP2 ADD MLOAD DUP3 SLOAD PUSH1 0x1 PUSH1 0x1 PUSH1 0xA0 SHL SUB SWAP1 SWAP2 AND PUSH2 0x100 MUL PUSH2 0x100 PUSH1 0x1 PUSH1 0xA8 SHL SUB NOT SWAP1 SWAP2 AND OR DUP3 SSTORE PUSH1 0x40 DUP4 ADD MLOAD DUP1 MLOAD PUSH1 0x1 DUP5 ADD SSTORE DUP2 ADD MLOAD PUSH1 0x2 DUP4 ADD SSTORE PUSH1 0x60 DUP4 ADD MLOAD PUSH1 0x3 DUP4 ADD SSTORE PUSH1 0x80 DUP4 ADD MLOAD DUP1 MLOAD PUSH2 0xAAE SWAP3 PUSH1 0x4 DUP6 ADD SWAP3 ADD SWAP1 PUSH2 0x217D JUMP JUMPDEST POP PUSH1 0xA0 DUP3 ADD MLOAD PUSH1 0x5 DUP3 ADD SSTORE PUSH1 0xC0 DUP3 ADD MLOAD PUSH1 0x6 DUP3 ADD SSTORE PUSH1 0xE0 DUP3 ADD MLOAD PUSH1 0x7 DUP3 ADD SWAP1 PUSH2 0xAD7 SWAP1 DUP3 PUSH2 0x2D1A JUMP JUMPDEST POP PUSH2 0x100 DUP3 DUP2 ADD MLOAD DUP1 MLOAD PUSH1 0x8 DUP5 ADD DUP1 SLOAD PUSH1 0x20 DUP5 ADD MLOAD PUSH1 0x40 DUP6 ADD MLOAD PUSH1 0x60 DUP7 ADD MLOAD PUSH2 0xFFFF NOT SWAP1 SWAP4 AND SWAP5 ISZERO ISZERO PUSH2 0xFF00 NOT AND SWAP5 SWAP1 SWAP5 OR SWAP1 ISZERO ISZERO SWAP1 SWAP6 MUL SWAP5 SWAP1 SWAP5 OR PUSH4 0xFFFF0000 NOT AND PUSH3 0x10000 PUSH1 0xFF SWAP4 DUP5 AND MUL PUSH4 0xFF000000 NOT AND OR PUSH4 0x1000000 SWAP3 SWAP1 SWAP5 AND SWAP2 SWAP1 SWAP2 MUL SWAP3 SWAP1 SWAP3 OR SWAP1 SWAP2 SSTORE PUSH1 0x80 DUP2 ADD MLOAD PUSH1 0x9 DUP1 DUP5 ADD SWAP2 SWAP1 SWAP2 SSTORE PUSH1 0xA0 DUP3 ADD MLOAD PUSH1 0xA DUP5 ADD SSTORE PUSH1 0xC0 DUP3 ADD MLOAD PUSH1 0xB DUP5 ADD SSTORE PUSH1 0xE0 SWAP1 SWAP2 ADD MLOAD PUSH1 0xC DUP4 ADD SSTORE PUSH2 0x120 DUP4 ADD MLOAD DUP1 MLOAD PUSH1 0xD DUP5 ADD DUP1 SLOAD SWAP3 SWAP4 SWAP1 SWAP3 DUP4 SWAP2 PUSH1 0xFF NOT SWAP1 SWAP2 AND SWAP1 PUSH1 0x1 SWAP1 DUP5 SWAP1 DUP2 GT ISZERO PUSH2 0xB9C JUMPI PUSH2 0xB9C PUSH2 0x2318 JUMP JUMPDEST MUL OR SWAP1 SSTORE POP PUSH1 0x20 DUP3 ADD MLOAD PUSH1 0x1 DUP3 ADD SSTORE PUSH1 0x40 DUP3 ADD MLOAD PUSH1 0x2 DUP3 ADD SSTORE PUSH1 0x60 DUP3 ADD MLOAD PUSH1 0x3 DUP3 ADD SWAP1 PUSH2 0xBC9 SWAP1 DUP3 PUSH2 0x2D1A JUMP JUMPDEST POP POP PUSH1 0x1 DUP1 SLOAD PUSH1 0x1 PUSH1 0xA0 SHL SWAP1 DIV PUSH4 0xFFFFFFFF AND SWAP4 POP SWAP2 POP PUSH1 0x14 SWAP1 POP PUSH2 0xBED DUP4 PUSH2 0x2DD8 JUMP JUMPDEST SWAP2 SWAP1 PUSH2 0x100 EXP DUP2 SLOAD DUP2 PUSH4 0xFFFFFFFF MUL NOT AND SWAP1 DUP4 PUSH4 0xFFFFFFFF AND MUL OR SWAP1 SSTORE POP POP CALLER PUSH1 0x1 PUSH1 0x1 PUSH1 0xA0 SHL SUB AND DUP5 PUSH32 0xADA6F87A2A16A0C9C169CA36754C5F33F7C1A973B575D068F888A549ED4FAEFA PUSH1 0x40 MLOAD PUSH1 0x40 MLOAD DUP1 SWAP2 SUB SWAP1 LOG3 POP POP POP POP POP POP POP POP POP POP POP POP JUMP JUMPDEST PUSH1 0x0 DUP6 DUP2 MSTORE PUSH1 0x20 DUP2 SWAP1 MSTORE PUSH1 0x40 SWAP1 KECCAK256 SLOAD PUSH2 0x100 SWAP1 DIV PUSH1 0x1 PUSH1 0x1 PUSH1 0xA0 SHL SUB AND PUSH2 0xC8A JUMPI PUSH1 0x40 MLOAD PUSH3 0x461BCD PUSH1 0xE5 SHL DUP2 MSTORE PUSH1 0x4 ADD PUSH2 0x689 SWAP1 PUSH2 0x2DFD JUMP JUMPDEST PUSH1 0x1 PUSH1 0x0 DUP7 DUP2 MSTORE PUSH1 0x20 DUP2 SWAP1 MSTORE PUSH1 0x40 SWAP1 KECCAK256 SLOAD PUSH1 0xFF AND PUSH1 0x4 DUP2 GT ISZERO PUSH2 0xCAF JUMPI PUSH2 0xCAF PUSH2 0x2318 JUMP JUMPDEST EQ PUSH2 0xCF0 JUMPI PUSH1 0x40 MLOAD PUSH3 0x461BCD PUSH1 0xE5 SHL DUP2 MSTORE PUSH1 0x20 PUSH1 0x4 DUP3 ADD MSTORE PUSH1 0x11 PUSH1 0x24 DUP3 ADD MSTORE PUSH17 0x141C9BD8D95CDCC81B9BDD08195B991959 PUSH1 0x7A SHL PUSH1 0x44 DUP3 ADD MSTORE PUSH1 0x64 ADD PUSH2 0x689 JUMP JUMPDEST PUSH1 0x0 DUP6 DUP2 MSTORE PUSH1 0x20 DUP2 SWAP1 MSTORE PUSH1 0x40 SWAP1 KECCAK256 PUSH2 0xD0C SWAP1 PUSH1 0x4 ADD DUP6 DUP6 PUSH2 0x21C8 JUMP JUMPDEST POP POP POP PUSH1 0x0 SWAP3 DUP4 MSTORE POP POP PUSH1 0x20 DUP2 SWAP1 MSTORE PUSH1 0x40 SWAP1 KECCAK256 DUP1 SLOAD PUSH1 0xFF NOT AND PUSH1 0x4 OR SWAP1 SSTORE JUMP JUMPDEST PUSH2 0xD34 PUSH2 0x1CB5 JUMP JUMPDEST PUSH2 0xD3D DUP3 PUSH2 0x1D5A JUMP JUMPDEST PUSH2 0xD47 DUP3 DUP3 PUSH2 0x1D62 JUMP JUMPDEST POP POP JUMP JUMPDEST PUSH1 0x0 PUSH2 0xD55 PUSH2 0x1E24 JUMP JUMPDEST POP PUSH1 0x0 DUP1 MLOAD PUSH1 0x20 PUSH2 0x2FDD DUP4 CODECOPY DUP2 MLOAD SWAP2 MSTORE SWAP1 JUMP JUMPDEST PUSH1 0x1 SLOAD PUSH1 0x0 DUP4 DUP2 MSTORE PUSH1 0x20 DUP2 SWAP1 MSTORE PUSH1 0x40 SWAP1 DUP2 SWAP1 KECCAK256 SLOAD SWAP1 MLOAD PUSH4 0xC1AF6E03 PUSH1 0xE0 SHL DUP2 MSTORE PUSH1 0x1 PUSH1 0x1 PUSH1 0xA0 SHL SUB PUSH2 0x100 SWAP1 SWAP3 DIV DUP3 AND PUSH1 0x4 DUP3 ADD MSTORE CALLER PUSH1 0x24 DUP3 ADD MSTORE SWAP2 AND SWAP1 PUSH4 0xC1AF6E03 SWAP1 PUSH1 0x44 ADD PUSH1 0x20 PUSH1 0x40 MLOAD DUP1 DUP4 SUB DUP2 DUP7 GAS STATICCALL ISZERO DUP1 ISZERO PUSH2 0xDCC JUMPI RETURNDATASIZE PUSH1 0x0 DUP1 RETURNDATACOPY RETURNDATASIZE PUSH1 0x0 REVERT JUMPDEST POP POP POP POP PUSH1 0x40 MLOAD RETURNDATASIZE PUSH1 0x1F NOT PUSH1 0x1F DUP3 ADD AND DUP3 ADD DUP1 PUSH1 0x40 MSTORE POP DUP2 ADD SWAP1 PUSH2 0xDF0 SWAP2 SWAP1 PUSH2 0x2B3E JUMP JUMPDEST PUSH2 0xE4B JUMPI PUSH1 0x40 MLOAD PUSH3 0x461BCD PUSH1 0xE5 SHL DUP2 MSTORE PUSH1 0x20 PUSH1 0x4 DUP3 ADD MSTORE PUSH1 0x26 PUSH1 0x24 DUP3 ADD MSTORE PUSH32 0x53657450726F636573735374617475733A206E6F7420616E2061646D696E6973 PUSH1 0x44 DUP3 ADD MSTORE PUSH6 0x3A3930BA37B9 PUSH1 0xD1 SHL PUSH1 0x64 DUP3 ADD MSTORE PUSH1 0x84 ADD PUSH2 0x689 JUMP JUMPDEST PUSH1 0x0 DUP3 DUP2 MSTORE PUSH1 0x20 DUP2 SWAP1 MSTORE PUSH1 0x40 DUP2 KECCAK256 SLOAD PUSH1 0xFF AND SWAP1 DUP2 PUSH1 0x4 DUP2 GT ISZERO PUSH2 0xE70 JUMPI PUSH2 0xE70 PUSH2 0x2318 JUMP JUMPDEST EQ ISZERO DUP1 ISZERO PUSH2 0xE90 JUMPI POP PUSH1 0x3 DUP2 PUSH1 0x4 DUP2 GT ISZERO PUSH2 0xE8D JUMPI PUSH2 0xE8D PUSH2 0x2318 JUMP JUMPDEST EQ ISZERO JUMPDEST ISZERO PUSH2 0xEAD JUMPI PUSH1 0x40 MLOAD PUSH3 0x461BCD PUSH1 0xE5 SHL DUP2 MSTORE PUSH1 0x4 ADD PUSH2 0x689 SWAP1 PUSH2 0x2E28 JUMP JUMPDEST DUP1 PUSH1 0x4 DUP2 GT ISZERO PUSH2 0xEBF JUMPI PUSH2 0xEBF PUSH2 0x2318 JUMP JUMPDEST DUP3 PUSH1 0x4 DUP2 GT ISZERO PUSH2 0xED1 JUMPI PUSH2 0xED1 PUSH2 0x2318 JUMP JUMPDEST SUB PUSH2 0xF0C JUMPI PUSH1 0x40 MLOAD PUSH3 0x461BCD PUSH1 0xE5 SHL DUP2 MSTORE PUSH1 0x20 PUSH1 0x4 DUP3 ADD MSTORE PUSH1 0xB PUSH1 0x24 DUP3 ADD MSTORE PUSH11 0x26BAB9BA103234B33332B9 PUSH1 0xA9 SHL PUSH1 0x44 DUP3 ADD MSTORE PUSH1 0x64 ADD PUSH2 0x689 JUMP JUMPDEST PUSH1 0x0 DUP4 DUP2 MSTORE PUSH1 0x20 DUP2 SWAP1 MSTORE PUSH1 0x40 SWAP1 KECCAK256 DUP1 SLOAD DUP4 SWAP2 SWAP1 PUSH1 0xFF NOT AND PUSH1 0x1 DUP4 PUSH1 0x4 DUP2 GT ISZERO PUSH2 0xF37 JUMPI PUSH2 0xF37 PUSH2 0x2318 JUMP JUMPDEST MUL OR SWAP1 SSTORE POP DUP3 PUSH32 0xAC0C4085A30BC70D0D8893EE5D6466AC9C5F03E27FD7292DCEF128A610E7C190 DUP4 PUSH1 0x40 MLOAD PUSH2 0xF6C SWAP2 SWAP1 PUSH2 0x2E54 JUMP JUMPDEST PUSH1 0x40 MLOAD DUP1 SWAP2 SUB SWAP1 LOG2 POP POP POP JUMP JUMPDEST PUSH1 0x1 SLOAD PUSH1 0x0 DUP4 DUP2 MSTORE PUSH1 0x20 DUP2 SWAP1 MSTORE PUSH1 0x40 SWAP1 DUP2 SWAP1 KECCAK256 SLOAD SWAP1 MLOAD PUSH4 0xC1AF6E03 PUSH1 0xE0 SHL DUP2 MSTORE PUSH1 0x1 PUSH1 0x1 PUSH1 0xA0 SHL SUB PUSH2 0x100 SWAP1 SWAP3 DIV DUP3 AND PUSH1 0x4 DUP3 ADD MSTORE CALLER PUSH1 0x24 DUP3 ADD MSTORE SWAP2 AND SWAP1 PUSH4 0xC1AF6E03 SWAP1 PUSH1 0x44 ADD PUSH1 0x20 PUSH1 0x40 MLOAD DUP1 DUP4 SUB DUP2 DUP7 GAS STATICCALL ISZERO DUP1 ISZERO PUSH2 0xFDD JUMPI RETURNDATASIZE PUSH1 0x0 DUP1 RETURNDATACOPY RETURNDATASIZE PUSH1 0x0 REVERT JUMPDEST POP POP POP POP PUSH1 0x40 MLOAD RETURNDATASIZE PUSH1 0x1F NOT PUSH1 0x1F DUP3 ADD AND DUP3 ADD DUP1 PUSH1 0x40 MSTORE POP DUP2 ADD SWAP1 PUSH2 0x1001 SWAP2 SWAP1 PUSH2 0x2B3E JUMP JUMPDEST PUSH2 0x105C JUMPI PUSH1 0x40 MLOAD PUSH3 0x461BCD PUSH1 0xE5 SHL DUP2 MSTORE PUSH1 0x20 PUSH1 0x4 DUP3 ADD MSTORE PUSH1 0x26 PUSH1 0x24 DUP3 ADD MSTORE PUSH32 0x53657450726F6365737343656E7375733A206E6F7420616E2061646D696E6973 PUSH1 0x44 DUP3 ADD MSTORE PUSH6 0x3A3930BA37B9 PUSH1 0xD1 SHL PUSH1 0x64 DUP3 ADD MSTORE PUSH1 0x84 ADD PUSH2 0x689 JUMP JUMPDEST PUSH1 0x0 PUSH2 0x106B PUSH1 0x60 DUP4 ADD DUP4 PUSH2 0x2E62 JUMP JUMPDEST SWAP1 POP GT PUSH2 0x10A6 JUMPI PUSH1 0x40 MLOAD PUSH3 0x461BCD PUSH1 0xE5 SHL DUP2 MSTORE PUSH1 0x20 PUSH1 0x4 DUP3 ADD MSTORE PUSH1 0x9 PUSH1 0x24 DUP3 ADD MSTORE PUSH9 0x456D70747920555249 PUSH1 0xB8 SHL PUSH1 0x44 DUP3 ADD MSTORE PUSH1 0x64 ADD PUSH2 0x689 JUMP JUMPDEST PUSH1 0x40 DUP2 ADD CALLDATALOAD PUSH1 0x0 SUB PUSH2 0x10E7 JUMPI PUSH1 0x40 MLOAD PUSH3 0x461BCD PUSH1 0xE5 SHL DUP2 MSTORE PUSH1 0x20 PUSH1 0x4 DUP3 ADD MSTORE PUSH1 0xA PUSH1 0x24 DUP3 ADD MSTORE PUSH10 0x115B5C1D1E481C9BDBDD PUSH1 0xB2 SHL PUSH1 0x44 DUP3 ADD MSTORE PUSH1 0x64 ADD PUSH2 0x689 JUMP JUMPDEST PUSH1 0x0 DUP3 DUP2 MSTORE PUSH1 0x20 DUP2 SWAP1 MSTORE PUSH1 0x40 SWAP1 KECCAK256 SLOAD PUSH2 0x100 SWAP1 DIV PUSH1 0x1 PUSH1 0x1 PUSH1 0xA0 SHL SUB AND PUSH2 0x1120 JUMPI PUSH1 0x40 MLOAD PUSH3 0x461BCD PUSH1 0xE5 SHL DUP2 MSTORE PUSH1 0x4 ADD PUSH2 0x689 SWAP1 PUSH2 0x2DFD JUMP JUMPDEST PUSH1 0x0 DUP3 DUP2 MSTORE PUSH1 0x20 DUP2 SWAP1 MSTORE PUSH1 0x40 DUP2 KECCAK256 SLOAD PUSH1 0xFF AND PUSH1 0x4 DUP2 GT ISZERO PUSH2 0x1143 JUMPI PUSH2 0x1143 PUSH2 0x2318 JUMP JUMPDEST EQ DUP1 PUSH2 0x1171 JUMPI POP PUSH1 0x3 PUSH1 0x0 DUP4 DUP2 MSTORE PUSH1 0x20 DUP2 SWAP1 MSTORE PUSH1 0x40 SWAP1 KECCAK256 SLOAD PUSH1 0xFF AND PUSH1 0x4 DUP2 GT ISZERO PUSH2 0x116F JUMPI PUSH2 0x116F PUSH2 0x2318 JUMP JUMPDEST EQ JUMPDEST PUSH2 0x118D JUMPI PUSH1 0x40 MLOAD PUSH3 0x461BCD PUSH1 0xE5 SHL DUP2 MSTORE PUSH1 0x4 ADD PUSH2 0x689 SWAP1 PUSH2 0x2E28 JUMP JUMPDEST PUSH1 0x0 DUP3 DUP2 MSTORE PUSH1 0x20 DUP2 DUP2 MSTORE PUSH1 0x40 SWAP1 SWAP2 KECCAK256 PUSH1 0xE ADD SLOAD SWAP1 DUP3 ADD CALLDATALOAD GT ISZERO PUSH2 0x11C4 JUMPI PUSH1 0x0 DUP3 DUP2 MSTORE PUSH1 0x20 DUP2 DUP2 MSTORE PUSH1 0x40 SWAP1 SWAP2 KECCAK256 SWAP1 DUP3 ADD CALLDATALOAD PUSH1 0xE SWAP1 SWAP2 ADD SSTORE JUMPDEST PUSH1 0x0 DUP3 DUP2 MSTORE PUSH1 0x20 DUP2 SWAP1 MSTORE PUSH1 0x40 SWAP1 DUP2 SWAP1 KECCAK256 SWAP1 DUP3 ADD CALLDATALOAD PUSH1 0xF SWAP1 SWAP2 ADD SSTORE PUSH2 0x11EB PUSH1 0x60 DUP3 ADD DUP3 PUSH2 0x2E62 JUMP JUMPDEST PUSH1 0x0 DUP5 DUP2 MSTORE PUSH1 0x20 DUP2 SWAP1 MSTORE PUSH1 0x40 SWAP1 KECCAK256 PUSH1 0x10 ADD SWAP2 PUSH2 0x1208 SWAP2 SWAP1 DUP4 PUSH2 0x2EA8 JUMP JUMPDEST POP DUP2 PUSH32 0x35947A8913E2156F19B018078C9F0667E49CB3DC24AF3434A4D0B16B82675B1B PUSH1 0x40 DUP4 ADD CALLDATALOAD PUSH2 0x123D PUSH1 0x60 DUP6 ADD DUP6 PUSH2 0x2E62 JUMP JUMPDEST DUP6 PUSH1 0x20 ADD CALLDATALOAD PUSH1 0x40 MLOAD PUSH2 0x1252 SWAP5 SWAP4 SWAP3 SWAP2 SWAP1 PUSH2 0x2F67 JUMP JUMPDEST PUSH1 0x40 MLOAD DUP1 SWAP2 SUB SWAP1 LOG2 POP POP JUMP JUMPDEST PUSH2 0x1266 PUSH2 0x1E6D JUMP JUMPDEST PUSH2 0x1270 PUSH1 0x0 PUSH2 0x1EC8 JUMP JUMPDEST JUMP JUMPDEST PUSH32 0xF0C57E16840DF040F15088DC2F81FE391C3923BEC73E23A9662EFC9C229C6A00 DUP1 SLOAD PUSH1 0x1 PUSH1 0x40 SHL DUP2 DIV PUSH1 0xFF AND ISZERO SWAP1 PUSH1 0x1 PUSH1 0x1 PUSH1 0x40 SHL SUB AND PUSH1 0x0 DUP2 ISZERO DUP1 ISZERO PUSH2 0x12B7 JUMPI POP DUP3 JUMPDEST SWAP1 POP PUSH1 0x0 DUP3 PUSH1 0x1 PUSH1 0x1 PUSH1 0x40 SHL SUB AND PUSH1 0x1 EQ DUP1 ISZERO PUSH2 0x12D3 JUMPI POP ADDRESS EXTCODESIZE ISZERO JUMPDEST SWAP1 POP DUP2 ISZERO DUP1 ISZERO PUSH2 0x12E1 JUMPI POP DUP1 ISZERO JUMPDEST ISZERO PUSH2 0x12FF JUMPI PUSH1 0x40 MLOAD PUSH4 0xF92EE8A9 PUSH1 0xE0 SHL DUP2 MSTORE PUSH1 0x4 ADD PUSH1 0x40 MLOAD DUP1 SWAP2 SUB SWAP1 REVERT JUMPDEST DUP5 SLOAD PUSH8 0xFFFFFFFFFFFFFFFF NOT AND PUSH1 0x1 OR DUP6 SSTORE DUP4 ISZERO PUSH2 0x1329 JUMPI DUP5 SLOAD PUSH1 0xFF PUSH1 0x40 SHL NOT AND PUSH1 0x1 PUSH1 0x40 SHL OR DUP6 SSTORE JUMPDEST PUSH2 0x1332 CALLER PUSH2 0x1F39 JUMP JUMPDEST PUSH2 0x133A PUSH2 0x1F4A JUMP JUMPDEST PUSH1 0x2 PUSH2 0x1347 DUP9 DUP11 DUP4 PUSH2 0x2EA8 JUMP JUMPDEST POP PUSH1 0x1 DUP1 SLOAD PUSH1 0x1 PUSH1 0x1 PUSH1 0xA0 SHL SUB NOT AND PUSH1 0x1 PUSH1 0x1 PUSH1 0xA0 SHL SUB DUP9 AND OR SWAP1 SSTORE DUP4 ISZERO PUSH2 0x13A9 JUMPI DUP5 SLOAD PUSH1 0xFF PUSH1 0x40 SHL NOT AND DUP6 SSTORE PUSH1 0x40 MLOAD PUSH1 0x1 DUP2 MSTORE PUSH32 0xC7F505B2F371AE2175EE4913F4499E1F2633A7B5936321EED1CDAEB6115181D2 SWAP1 PUSH1 0x20 ADD PUSH1 0x40 MLOAD DUP1 SWAP2 SUB SWAP1 LOG1 JUMPDEST POP POP POP POP POP POP POP POP JUMP JUMPDEST PUSH2 0x13BB PUSH2 0x2203 JUMP JUMPDEST PUSH1 0x0 DUP3 DUP2 MSTORE PUSH1 0x20 DUP2 SWAP1 MSTORE PUSH1 0x40 SWAP1 DUP2 SWAP1 KECCAK256 DUP2 MLOAD PUSH2 0x140 DUP2 ADD SWAP1 SWAP3 MSTORE DUP1 SLOAD DUP3 SWAP1 PUSH1 0xFF AND PUSH1 0x4 DUP2 GT ISZERO PUSH2 0x13ED JUMPI PUSH2 0x13ED PUSH2 0x2318 JUMP JUMPDEST PUSH1 0x4 DUP2 GT ISZERO PUSH2 0x13FE JUMPI PUSH2 0x13FE PUSH2 0x2318 JUMP JUMPDEST DUP2 MSTORE DUP2 SLOAD PUSH2 0x100 SWAP1 DIV PUSH1 0x1 PUSH1 0x1 PUSH1 0xA0 SHL SUB AND PUSH1 0x20 DUP1 DUP4 ADD SWAP2 SWAP1 SWAP2 MSTORE PUSH1 0x40 DUP1 MLOAD DUP1 DUP3 ADD DUP3 MSTORE PUSH1 0x1 DUP6 ADD SLOAD DUP2 MSTORE PUSH1 0x2 DUP6 ADD SLOAD DUP2 DUP5 ADD MSTORE DUP2 DUP5 ADD MSTORE PUSH1 0x3 DUP5 ADD SLOAD PUSH1 0x60 DUP5 ADD MSTORE PUSH1 0x4 DUP5 ADD DUP1 SLOAD DUP3 MLOAD DUP2 DUP6 MUL DUP2 ADD DUP6 ADD SWAP1 SWAP4 MSTORE DUP1 DUP4 MSTORE PUSH1 0x80 SWAP1 SWAP5 ADD SWAP4 SWAP2 SWAP3 SWAP1 SWAP2 SWAP1 DUP4 ADD DUP3 DUP3 DUP1 ISZERO PUSH2 0x148F JUMPI PUSH1 0x20 MUL DUP3 ADD SWAP2 SWAP1 PUSH1 0x0 MSTORE PUSH1 0x20 PUSH1 0x0 KECCAK256 SWAP1 JUMPDEST DUP2 SLOAD DUP2 MSTORE PUSH1 0x20 ADD SWAP1 PUSH1 0x1 ADD SWAP1 DUP1 DUP4 GT PUSH2 0x147B JUMPI JUMPDEST POP POP POP POP POP DUP2 MSTORE PUSH1 0x20 ADD PUSH1 0x5 DUP3 ADD SLOAD DUP2 MSTORE PUSH1 0x20 ADD PUSH1 0x6 DUP3 ADD SLOAD DUP2 MSTORE PUSH1 0x20 ADD PUSH1 0x7 DUP3 ADD DUP1 SLOAD PUSH2 0x14BC SWAP1 PUSH2 0x2AA7 JUMP JUMPDEST DUP1 PUSH1 0x1F ADD PUSH1 0x20 DUP1 SWAP2 DIV MUL PUSH1 0x20 ADD PUSH1 0x40 MLOAD SWAP1 DUP2 ADD PUSH1 0x40 MSTORE DUP1 SWAP3 SWAP2 SWAP1 DUP2 DUP2 MSTORE PUSH1 0x20 ADD DUP3 DUP1 SLOAD PUSH2 0x14E8 SWAP1 PUSH2 0x2AA7 JUMP JUMPDEST DUP1 ISZERO PUSH2 0x1535 JUMPI DUP1 PUSH1 0x1F LT PUSH2 0x150A JUMPI PUSH2 0x100 DUP1 DUP4 SLOAD DIV MUL DUP4 MSTORE SWAP2 PUSH1 0x20 ADD SWAP2 PUSH2 0x1535 JUMP JUMPDEST DUP3 ADD SWAP2 SWAP1 PUSH1 0x0 MSTORE PUSH1 0x20 PUSH1 0x0 KECCAK256 SWAP1 JUMPDEST DUP2 SLOAD DUP2 MSTORE SWAP1 PUSH1 0x1 ADD SWAP1 PUSH1 0x20 ADD DUP1 DUP4 GT PUSH2 0x1518 JUMPI DUP3 SWAP1 SUB PUSH1 0x1F AND DUP3 ADD SWAP2 JUMPDEST POP POP POP SWAP2 DUP4 MSTORE POP POP PUSH1 0x40 DUP1 MLOAD PUSH2 0x100 DUP1 DUP3 ADD DUP4 MSTORE PUSH1 0x8 DUP6 ADD SLOAD PUSH1 0xFF DUP1 DUP3 AND ISZERO ISZERO DUP5 MSTORE SWAP2 DUP2 DIV DUP3 AND ISZERO ISZERO PUSH1 0x20 DUP5 DUP2 ADD SWAP2 SWAP1 SWAP2 MSTORE PUSH3 0x10000 DUP3 DIV DUP4 AND DUP5 DUP7 ADD MSTORE PUSH4 0x1000000 SWAP1 SWAP2 DIV DUP3 AND PUSH1 0x60 DUP5 ADD MSTORE PUSH1 0x9 DUP1 DUP8 ADD SLOAD PUSH1 0x80 DUP1 DUP7 ADD SWAP2 SWAP1 SWAP2 MSTORE PUSH1 0xA DUP9 ADD SLOAD PUSH1 0xA0 DUP7 ADD MSTORE PUSH1 0xB DUP9 ADD SLOAD PUSH1 0xC0 DUP7 ADD MSTORE PUSH1 0xC DUP9 ADD SLOAD PUSH1 0xE0 DUP7 ADD MSTORE SWAP2 DUP7 ADD SWAP4 SWAP1 SWAP4 MSTORE DUP4 MLOAD SWAP1 DUP2 ADD DUP5 MSTORE PUSH1 0xD DUP7 ADD DUP1 SLOAD SWAP5 SWAP1 SWAP6 ADD SWAP5 SWAP1 SWAP4 SWAP1 SWAP3 DUP5 SWAP3 SWAP2 SWAP1 SWAP2 AND SWAP1 DUP2 GT ISZERO PUSH2 0x15E2 JUMPI PUSH2 0x15E2 PUSH2 0x2318 JUMP JUMPDEST PUSH1 0x9 DUP2 GT ISZERO PUSH2 0x15F3 JUMPI PUSH2 0x15F3 PUSH2 0x2318 JUMP JUMPDEST DUP2 MSTORE PUSH1 0x20 ADD PUSH1 0x1 DUP3 ADD SLOAD DUP2 MSTORE PUSH1 0x20 ADD PUSH1 0x2 DUP3 ADD SLOAD DUP2 MSTORE PUSH1 0x20 ADD PUSH1 0x3 DUP3 ADD DUP1 SLOAD PUSH2 0x161B SWAP1 PUSH2 0x2AA7 JUMP JUMPDEST DUP1 PUSH1 0x1F ADD PUSH1 0x20 DUP1 SWAP2 DIV MUL PUSH1 0x20 ADD PUSH1 0x40 MLOAD SWAP1 DUP2 ADD PUSH1 0x40 MSTORE DUP1 SWAP3 SWAP2 SWAP1 DUP2 DUP2 MSTORE PUSH1 0x20 ADD DUP3 DUP1 SLOAD PUSH2 0x1647 SWAP1 PUSH2 0x2AA7 JUMP JUMPDEST DUP1 ISZERO PUSH2 0x1694 JUMPI DUP1 PUSH1 0x1F LT PUSH2 0x1669 JUMPI PUSH2 0x100 DUP1 DUP4 SLOAD DIV MUL DUP4 MSTORE SWAP2 PUSH1 0x20 ADD SWAP2 PUSH2 0x1694 JUMP JUMPDEST DUP3 ADD SWAP2 SWAP1 PUSH1 0x0 MSTORE PUSH1 0x20 PUSH1 0x0 KECCAK256 SWAP1 JUMPDEST DUP2 SLOAD DUP2 MSTORE SWAP1 PUSH1 0x1 ADD SWAP1 PUSH1 0x20 ADD DUP1 DUP4 GT PUSH2 0x1677 JUMPI DUP3 SWAP1 SUB PUSH1 0x1F AND DUP3 ADD SWAP2 JUMPDEST POP POP POP SWAP2 SWAP1 SWAP3 MSTORE POP POP POP SWAP1 MSTORE POP SWAP3 SWAP2 POP POP JUMP JUMPDEST PUSH1 0x2 DUP1 SLOAD PUSH2 0x16B4 SWAP1 PUSH2 0x2AA7 JUMP JUMPDEST DUP1 PUSH1 0x1F ADD PUSH1 0x20 DUP1 SWAP2 DIV MUL PUSH1 0x20 ADD PUSH1 0x40 MLOAD SWAP1 DUP2 ADD PUSH1 0x40 MSTORE DUP1 SWAP3 SWAP2 SWAP1 DUP2 DUP2 MSTORE PUSH1 0x20 ADD DUP3 DUP1 SLOAD PUSH2 0x16E0 SWAP1 PUSH2 0x2AA7 JUMP JUMPDEST DUP1 ISZERO PUSH2 0x172D JUMPI DUP1 PUSH1 0x1F LT PUSH2 0x1702 JUMPI PUSH2 0x100 DUP1 DUP4 SLOAD DIV MUL DUP4 MSTORE SWAP2 PUSH1 0x20 ADD SWAP2 PUSH2 0x172D JUMP JUMPDEST DUP3 ADD SWAP2 SWAP1 PUSH1 0x0 MSTORE PUSH1 0x20 PUSH1 0x0 KECCAK256 SWAP1 JUMPDEST DUP2 SLOAD DUP2 MSTORE SWAP1 PUSH1 0x1 ADD SWAP1 PUSH1 0x20 ADD DUP1 DUP4 GT PUSH2 0x1710 JUMPI DUP3 SWAP1 SUB PUSH1 0x1F AND DUP3 ADD SWAP2 JUMPDEST POP POP POP POP POP DUP2 JUMP JUMPDEST PUSH1 0x0 DUP6 DUP2 MSTORE PUSH1 0x20 DUP2 SWAP1 MSTORE PUSH1 0x40 SWAP1 KECCAK256 SLOAD PUSH2 0x100 SWAP1 DIV PUSH1 0x1 PUSH1 0x1 PUSH1 0xA0 SHL SUB AND PUSH2 0x176E JUMPI PUSH1 0x40 MLOAD PUSH3 0x461BCD PUSH1 0xE5 SHL DUP2 MSTORE PUSH1 0x4 ADD PUSH2 0x689 SWAP1 PUSH2 0x2DFD JUMP JUMPDEST PUSH1 0x4 PUSH1 0x0 DUP7 DUP2 MSTORE PUSH1 0x20 DUP2 SWAP1 MSTORE PUSH1 0x40 SWAP1 KECCAK256 SLOAD PUSH1 0xFF AND PUSH1 0x4 DUP2 GT ISZERO PUSH2 0x1793 JUMPI PUSH2 0x1793 PUSH2 0x2318 JUMP JUMPDEST EQ ISZERO DUP1 ISZERO PUSH2 0x17C4 JUMPI POP PUSH1 0x2 PUSH1 0x0 DUP7 DUP2 MSTORE PUSH1 0x20 DUP2 SWAP1 MSTORE PUSH1 0x40 SWAP1 KECCAK256 SLOAD PUSH1 0xFF AND PUSH1 0x4 DUP2 GT ISZERO PUSH2 0x17C1 JUMPI PUSH2 0x17C1 PUSH2 0x2318 JUMP JUMPDEST EQ ISZERO JUMPDEST PUSH2 0x1827 JUMPI PUSH1 0x40 MLOAD PUSH3 0x461BCD PUSH1 0xE5 SHL DUP2 MSTORE PUSH1 0x20 PUSH1 0x4 DUP3 ADD MSTORE PUSH1 0x2E PUSH1 0x24 DUP3 ADD MSTORE PUSH32 0x496E76616C69642073746174757320666F72207375626D697474696E67207374 PUSH1 0x44 DUP3 ADD MSTORE PUSH14 0x30BA32903A3930B739B4BA34B7B7 PUSH1 0x91 SHL PUSH1 0x64 DUP3 ADD MSTORE PUSH1 0x84 ADD PUSH2 0x689 JUMP JUMPDEST PUSH1 0x0 DUP6 DUP2 MSTORE PUSH1 0x20 DUP2 SWAP1 MSTORE PUSH1 0x40 SWAP1 KECCAK256 PUSH1 0x3 ADD SLOAD DUP5 EQ PUSH2 0x187A JUMPI PUSH1 0x40 MLOAD PUSH3 0x461BCD PUSH1 0xE5 SHL DUP2 MSTORE PUSH1 0x20 PUSH1 0x4 DUP3 ADD MSTORE PUSH1 0x10 PUSH1 0x24 DUP3 ADD MSTORE PUSH16 0x125B9D985B1A59081BDB19081C9BDBDD PUSH1 0x82 SHL PUSH1 0x44 DUP3 ADD MSTORE PUSH1 0x64 ADD PUSH2 0x689 JUMP JUMPDEST PUSH1 0x0 DUP6 DUP2 MSTORE PUSH1 0x20 DUP2 DUP2 MSTORE PUSH1 0x40 SWAP2 DUP3 SWAP1 KECCAK256 PUSH1 0x3 ADD DUP6 SWAP1 SSTORE SWAP1 MLOAD DUP5 DUP2 MSTORE DUP7 SWAP2 PUSH32 0x734F931FE7A3776841211722ED18B29FC2947CC7A13E74D15FA612205C022DB8 SWAP2 ADD PUSH1 0x40 MLOAD DUP1 SWAP2 SUB SWAP1 LOG2 POP POP POP POP POP JUMP JUMPDEST PUSH1 0x1 SLOAD PUSH1 0x0 DUP4 DUP2 MSTORE PUSH1 0x20 DUP2 SWAP1 MSTORE PUSH1 0x40 SWAP1 DUP2 SWAP1 KECCAK256 SLOAD SWAP1 MLOAD PUSH4 0xC1AF6E03 PUSH1 0xE0 SHL DUP2 MSTORE PUSH1 0x1 PUSH1 0x1 PUSH1 0xA0 SHL SUB PUSH2 0x100 SWAP1 SWAP3 DIV DUP3 AND PUSH1 0x4 DUP3 ADD MSTORE CALLER PUSH1 0x24 DUP3 ADD MSTORE SWAP2 AND SWAP1 PUSH4 0xC1AF6E03 SWAP1 PUSH1 0x44 ADD PUSH1 0x20 PUSH1 0x40 MLOAD DUP1 DUP4 SUB DUP2 DUP7 GAS STATICCALL ISZERO DUP1 ISZERO PUSH2 0x192D JUMPI RETURNDATASIZE PUSH1 0x0 DUP1 RETURNDATACOPY RETURNDATASIZE PUSH1 0x0 REVERT JUMPDEST POP POP POP POP PUSH1 0x40 MLOAD RETURNDATASIZE PUSH1 0x1F NOT PUSH1 0x1F DUP3 ADD AND DUP3 ADD DUP1 PUSH1 0x40 MSTORE POP DUP2 ADD SWAP1 PUSH2 0x1951 SWAP2 SWAP1 PUSH2 0x2B3E JUMP JUMPDEST PUSH2 0x19AE JUMPI PUSH1 0x40 MLOAD PUSH3 0x461BCD PUSH1 0xE5 SHL DUP2 MSTORE PUSH1 0x20 PUSH1 0x4 DUP3 ADD MSTORE PUSH1 0x28 PUSH1 0x24 DUP3 ADD MSTORE PUSH32 0x53657450726F636573734475726174696F6E3A206E6F7420616E2061646D696E PUSH1 0x44 DUP3 ADD MSTORE PUSH8 0x34B9BA3930BA37B9 PUSH1 0xC1 SHL PUSH1 0x64 DUP3 ADD MSTORE PUSH1 0x84 ADD PUSH2 0x689 JUMP JUMPDEST PUSH1 0x0 DUP3 DUP2 MSTORE PUSH1 0x20 DUP2 SWAP1 MSTORE PUSH1 0x40 SWAP1 KECCAK256 SLOAD PUSH2 0x100 SWAP1 DIV PUSH1 0x1 PUSH1 0x1 PUSH1 0xA0 SHL SUB AND PUSH2 0x19E7 JUMPI PUSH1 0x40 MLOAD PUSH3 0x461BCD PUSH1 0xE5 SHL DUP2 MSTORE PUSH1 0x4 ADD PUSH2 0x689 SWAP1 PUSH2 0x2DFD JUMP JUMPDEST PUSH1 0x0 DUP3 DUP2 MSTORE PUSH1 0x20 DUP2 SWAP1 MSTORE PUSH1 0x40 DUP2 KECCAK256 SLOAD PUSH1 0xFF AND PUSH1 0x4 DUP2 GT ISZERO PUSH2 0x1A0A JUMPI PUSH2 0x1A0A PUSH2 0x2318 JUMP JUMPDEST EQ DUP1 PUSH2 0x1A38 JUMPI POP PUSH1 0x3 PUSH1 0x0 DUP4 DUP2 MSTORE PUSH1 0x20 DUP2 SWAP1 MSTORE PUSH1 0x40 SWAP1 KECCAK256 SLOAD PUSH1 0xFF AND PUSH1 0x4 DUP2 GT ISZERO PUSH2 0x1A36 JUMPI PUSH2 0x1A36 PUSH2 0x2318 JUMP JUMPDEST EQ JUMPDEST PUSH2 0x1A54 JUMPI PUSH1 0x40 MLOAD PUSH3 0x461BCD PUSH1 0xE5 SHL DUP2 MSTORE PUSH1 0x4 ADD PUSH2 0x689 SWAP1 PUSH2 0x2E28 JUMP JUMPDEST TIMESTAMP DUP2 GT PUSH2 0x1A96 JUMPI PUSH1 0x40 MLOAD PUSH3 0x461BCD PUSH1 0xE5 SHL DUP2 MSTORE PUSH1 0x20 PUSH1 0x4 DUP3 ADD MSTORE PUSH1 0x10 PUSH1 0x24 DUP3 ADD MSTORE PUSH16 0x24B73B30B634B210323AB930BA34B7B7 PUSH1 0x81 SHL PUSH1 0x44 DUP3 ADD MSTORE PUSH1 0x64 ADD PUSH2 0x689 JUMP JUMPDEST PUSH1 0x0 DUP3 DUP2 MSTORE PUSH1 0x20 DUP2 DUP2 MSTORE PUSH1 0x40 SWAP2 DUP3 SWAP1 KECCAK256 PUSH1 0x6 ADD DUP4 SWAP1 SSTORE SWAP1 MLOAD DUP3 DUP2 MSTORE DUP4 SWAP2 PUSH32 0xF759826327C668A220D576485AC38DDC4F83FBC414B984C00E79F669B649F46 SWAP2 ADD PUSH2 0x1252 JUMP JUMPDEST PUSH1 0x1 SLOAD PUSH1 0x0 DUP3 DUP2 MSTORE PUSH1 0x20 DUP2 SWAP1 MSTORE PUSH1 0x40 SWAP1 DUP2 SWAP1 KECCAK256 SLOAD SWAP1 MLOAD PUSH4 0xC1AF6E03 PUSH1 0xE0 SHL DUP2 MSTORE PUSH1 0x1 PUSH1 0x1 PUSH1 0xA0 SHL SUB PUSH2 0x100 SWAP1 SWAP3 DIV DUP3 AND PUSH1 0x4 DUP3 ADD MSTORE CALLER PUSH1 0x24 DUP3 ADD MSTORE SWAP2 AND SWAP1 PUSH4 0xC1AF6E03 SWAP1 PUSH1 0x44 ADD PUSH1 0x20 PUSH1 0x40 MLOAD DUP1 DUP4 SUB DUP2 DUP7 GAS STATICCALL ISZERO DUP1 ISZERO PUSH2 0x1B3F JUMPI RETURNDATASIZE PUSH1 0x0 DUP1 RETURNDATACOPY RETURNDATASIZE PUSH1 0x0 REVERT JUMPDEST POP POP POP POP PUSH1 0x40 MLOAD RETURNDATASIZE PUSH1 0x1F NOT PUSH1 0x1F DUP3 ADD AND DUP3 ADD DUP1 PUSH1 0x40 MSTORE POP DUP2 ADD SWAP1 PUSH2 0x1B63 SWAP2 SWAP1 PUSH2 0x2B3E JUMP JUMPDEST PUSH2 0x1BAF JUMPI PUSH1 0x40 MLOAD PUSH3 0x461BCD PUSH1 0xE5 SHL DUP2 MSTORE PUSH1 0x20 PUSH1 0x4 DUP3 ADD DUP2 SWAP1 MSTORE PUSH1 0x24 DUP3 ADD MSTORE PUSH32 0x656E6450726F636573733A206E6F7420616E2061646D696E6973747261746F72 PUSH1 0x44 DUP3 ADD MSTORE PUSH1 0x64 ADD PUSH2 0x689 JUMP JUMPDEST PUSH1 0x0 DUP2 DUP2 MSTORE PUSH1 0x20 DUP2 SWAP1 MSTORE PUSH1 0x40 DUP2 KECCAK256 SLOAD PUSH1 0xFF AND PUSH1 0x4 DUP2 GT ISZERO PUSH2 0x1BD2 JUMPI PUSH2 0x1BD2 PUSH2 0x2318 JUMP JUMPDEST EQ DUP1 PUSH2 0x1C00 JUMPI POP PUSH1 0x3 PUSH1 0x0 DUP3 DUP2 MSTORE PUSH1 0x20 DUP2 SWAP1 MSTORE PUSH1 0x40 SWAP1 KECCAK256 SLOAD PUSH1 0xFF AND PUSH1 0x4 DUP2 GT ISZERO PUSH2 0x1BFE JUMPI PUSH2 0x1BFE PUSH2 0x2318 JUMP JUMPDEST EQ JUMPDEST PUSH2 0x1C1C JUMPI PUSH1 0x40 MLOAD PUSH3 0x461BCD PUSH1 0xE5 SHL DUP2 MSTORE PUSH1 0x4 ADD PUSH2 0x689 SWAP1 PUSH2 0x2E28 JUMP JUMPDEST PUSH1 0x0 DUP2 DUP2 MSTORE PUSH1 0x20 DUP2 SWAP1 MSTORE PUSH1 0x40 SWAP1 KECCAK256 DUP1 SLOAD PUSH1 0x1 SWAP2 SWAP1 PUSH1 0xFF NOT AND DUP3 DUP1 MUL OR SWAP1 SSTORE POP DUP1 PUSH32 0xAC0C4085A30BC70D0D8893EE5D6466AC9C5F03E27FD7292DCEF128A610E7C190 PUSH1 0x1 PUSH1 0x40 MLOAD PUSH2 0x1C6C SWAP2 SWAP1 PUSH2 0x2E54 JUMP JUMPDEST PUSH1 0x40 MLOAD DUP1 SWAP2 SUB SWAP1 LOG2 POP JUMP JUMPDEST PUSH2 0x1C7F PUSH2 0x1E6D JUMP JUMPDEST PUSH1 0x1 PUSH1 0x1 PUSH1 0xA0 SHL SUB DUP2 AND PUSH2 0x1CA9 JUMPI PUSH1 0x40 MLOAD PUSH4 0x1E4FBDF7 PUSH1 0xE0 SHL DUP2 MSTORE PUSH1 0x0 PUSH1 0x4 DUP3 ADD MSTORE PUSH1 0x24 ADD PUSH2 0x689 JUMP JUMPDEST PUSH2 0x1CB2 DUP2 PUSH2 0x1EC8 JUMP JUMPDEST POP JUMP JUMPDEST ADDRESS PUSH1 0x1 PUSH1 0x1 PUSH1 0xA0 SHL SUB PUSH32 0x0 AND EQ DUP1 PUSH2 0x1D3C JUMPI POP PUSH32 0x0 PUSH1 0x1 PUSH1 0x1 PUSH1 0xA0 SHL SUB AND PUSH2 0x1D30 PUSH1 0x0 DUP1 MLOAD PUSH1 0x20 PUSH2 0x2FDD DUP4 CODECOPY DUP2 MLOAD SWAP2 MSTORE SLOAD PUSH1 0x1 PUSH1 0x1 PUSH1 0xA0 SHL SUB AND SWAP1 JUMP JUMPDEST PUSH1 0x1 PUSH1 0x1 PUSH1 0xA0 SHL SUB AND EQ ISZERO JUMPDEST ISZERO PUSH2 0x1270 JUMPI PUSH1 0x40 MLOAD PUSH4 0x703E46DD PUSH1 0xE1 SHL DUP2 MSTORE PUSH1 0x4 ADD PUSH1 0x40 MLOAD DUP1 SWAP2 SUB SWAP1 REVERT JUMPDEST PUSH2 0x1CB2 PUSH2 0x1E6D JUMP JUMPDEST DUP2 PUSH1 0x1 PUSH1 0x1 PUSH1 0xA0 SHL SUB AND PUSH4 0x52D1902D PUSH1 0x40 MLOAD DUP2 PUSH4 0xFFFFFFFF AND PUSH1 0xE0 SHL DUP2 MSTORE PUSH1 0x4 ADD PUSH1 0x20 PUSH1 0x40 MLOAD DUP1 DUP4 SUB DUP2 DUP7 GAS STATICCALL SWAP3 POP POP POP DUP1 ISZERO PUSH2 0x1DBC JUMPI POP PUSH1 0x40 DUP1 MLOAD PUSH1 0x1F RETURNDATASIZE SWAP1 DUP2 ADD PUSH1 0x1F NOT AND DUP3 ADD SWAP1 SWAP3 MSTORE PUSH2 0x1DB9 SWAP2 DUP2 ADD SWAP1 PUSH2 0x2FA7 JUMP JUMPDEST PUSH1 0x1 JUMPDEST PUSH2 0x1DE4 JUMPI PUSH1 0x40 MLOAD PUSH4 0x4C9C8CE3 PUSH1 0xE0 SHL DUP2 MSTORE PUSH1 0x1 PUSH1 0x1 PUSH1 0xA0 SHL SUB DUP4 AND PUSH1 0x4 DUP3 ADD MSTORE PUSH1 0x24 ADD PUSH2 0x689 JUMP JUMPDEST PUSH1 0x0 DUP1 MLOAD PUSH1 0x20 PUSH2 0x2FDD DUP4 CODECOPY DUP2 MLOAD SWAP2 MSTORE DUP2 EQ PUSH2 0x1E15 JUMPI PUSH1 0x40 MLOAD PUSH4 0x2A875269 PUSH1 0xE2 SHL DUP2 MSTORE PUSH1 0x4 DUP2 ADD DUP3 SWAP1 MSTORE PUSH1 0x24 ADD PUSH2 0x689 JUMP JUMPDEST PUSH2 0x1E1F DUP4 DUP4 PUSH2 0x1F52 JUMP JUMPDEST POP POP POP JUMP JUMPDEST ADDRESS PUSH1 0x1 PUSH1 0x1 PUSH1 0xA0 SHL SUB PUSH32 0x0 AND EQ PUSH2 0x1270 JUMPI PUSH1 0x40 MLOAD PUSH4 0x703E46DD PUSH1 0xE1 SHL DUP2 MSTORE PUSH1 0x4 ADD PUSH1 0x40 MLOAD DUP1 SWAP2 SUB SWAP1 REVERT JUMPDEST CALLER PUSH2 0x1E9F PUSH32 0x9016D09D72D40FDAE2FD8CEAC6B6234C7706214FD39C1CD1E609A0528C199300 SLOAD PUSH1 0x1 PUSH1 0x1 PUSH1 0xA0 SHL SUB AND SWAP1 JUMP JUMPDEST PUSH1 0x1 PUSH1 0x1 PUSH1 0xA0 SHL SUB AND EQ PUSH2 0x1270 JUMPI PUSH1 0x40 MLOAD PUSH4 0x118CDAA7 PUSH1 0xE0 SHL DUP2 MSTORE CALLER PUSH1 0x4 DUP3 ADD MSTORE PUSH1 0x24 ADD PUSH2 0x689 JUMP JUMPDEST PUSH32 0x9016D09D72D40FDAE2FD8CEAC6B6234C7706214FD39C1CD1E609A0528C199300 DUP1 SLOAD PUSH1 0x1 PUSH1 0x1 PUSH1 0xA0 SHL SUB NOT DUP2 AND PUSH1 0x1 PUSH1 0x1 PUSH1 0xA0 SHL SUB DUP5 DUP2 AND SWAP2 DUP3 OR DUP5 SSTORE PUSH1 0x40 MLOAD SWAP3 AND SWAP2 DUP3 SWAP1 PUSH32 0x8BE0079C531659141344CD1FD0A4F28419497F9722A3DAAFE3B4186F6B6457E0 SWAP1 PUSH1 0x0 SWAP1 LOG3 POP POP POP JUMP JUMPDEST PUSH2 0x1F41 PUSH2 0x1FA8 JUMP JUMPDEST PUSH2 0x1CB2 DUP2 PUSH2 0x1FF1 JUMP JUMPDEST PUSH2 0x1270 PUSH2 0x1FA8 JUMP JUMPDEST PUSH2 0x1F5B DUP3 PUSH2 0x1FF9 JUMP JUMPDEST PUSH1 0x40 MLOAD PUSH1 0x1 PUSH1 0x1 PUSH1 0xA0 SHL SUB DUP4 AND SWAP1 PUSH32 0xBC7CD75A20EE27FD9ADEBAB32041F755214DBC6BFFA90CC0225B39DA2E5C2D3B SWAP1 PUSH1 0x0 SWAP1 LOG2 DUP1 MLOAD ISZERO PUSH2 0x1FA0 JUMPI PUSH2 0x1E1F DUP3 DUP3 PUSH2 0x205E JUMP JUMPDEST PUSH2 0xD47 PUSH2 0x20D6 JUMP JUMPDEST PUSH32 0xF0C57E16840DF040F15088DC2F81FE391C3923BEC73E23A9662EFC9C229C6A00 SLOAD PUSH1 0x1 PUSH1 0x40 SHL SWAP1 DIV PUSH1 0xFF AND PUSH2 0x1270 JUMPI PUSH1 0x40 MLOAD PUSH4 0x1AFCD79F PUSH1 0xE3 SHL DUP2 MSTORE PUSH1 0x4 ADD PUSH1 0x40 MLOAD DUP1 SWAP2 SUB SWAP1 REVERT JUMPDEST PUSH2 0x1C7F PUSH2 0x1FA8 JUMP JUMPDEST DUP1 PUSH1 0x1 PUSH1 0x1 PUSH1 0xA0 SHL SUB AND EXTCODESIZE PUSH1 0x0 SUB PUSH2 0x202F JUMPI PUSH1 0x40 MLOAD PUSH4 0x4C9C8CE3 PUSH1 0xE0 SHL DUP2 MSTORE PUSH1 0x1 PUSH1 0x1 PUSH1 0xA0 SHL SUB DUP3 AND PUSH1 0x4 DUP3 ADD MSTORE PUSH1 0x24 ADD PUSH2 0x689 JUMP JUMPDEST PUSH1 0x0 DUP1 MLOAD PUSH1 0x20 PUSH2 0x2FDD DUP4 CODECOPY DUP2 MLOAD SWAP2 MSTORE DUP1 SLOAD PUSH1 0x1 PUSH1 0x1 PUSH1 0xA0 SHL SUB NOT AND PUSH1 0x1 PUSH1 0x1 PUSH1 0xA0 SHL SUB SWAP3 SWAP1 SWAP3 AND SWAP2 SWAP1 SWAP2 OR SWAP1 SSTORE JUMP JUMPDEST PUSH1 0x60 PUSH1 0x0 DUP1 DUP5 PUSH1 0x1 PUSH1 0x1 PUSH1 0xA0 SHL SUB AND DUP5 PUSH1 0x40 MLOAD PUSH2 0x207B SWAP2 SWAP1 PUSH2 0x2FC0 JUMP JUMPDEST PUSH1 0x0 PUSH1 0x40 MLOAD DUP1 DUP4 SUB DUP2 DUP6 GAS DELEGATECALL SWAP2 POP POP RETURNDATASIZE DUP1 PUSH1 0x0 DUP2 EQ PUSH2 0x20B6 JUMPI PUSH1 0x40 MLOAD SWAP2 POP PUSH1 0x1F NOT PUSH1 0x3F RETURNDATASIZE ADD AND DUP3 ADD PUSH1 0x40 MSTORE RETURNDATASIZE DUP3 MSTORE RETURNDATASIZE PUSH1 0x0 PUSH1 0x20 DUP5 ADD RETURNDATACOPY PUSH2 0x20BB JUMP JUMPDEST PUSH1 0x60 SWAP2 POP JUMPDEST POP SWAP2 POP SWAP2 POP PUSH2 0x20CB DUP6 DUP4 DUP4 PUSH2 0x20F5 JUMP JUMPDEST SWAP3 POP POP POP JUMPDEST SWAP3 SWAP2 POP POP JUMP JUMPDEST CALLVALUE ISZERO PUSH2 0x1270 JUMPI PUSH1 0x40 MLOAD PUSH4 0xB398979F PUSH1 0xE0 SHL DUP2 MSTORE PUSH1 0x4 ADD PUSH1 0x40 MLOAD DUP1 SWAP2 SUB SWAP1 REVERT JUMPDEST PUSH1 0x60 DUP3 PUSH2 0x210A JUMPI PUSH2 0x2105 DUP3 PUSH2 0x2154 JUMP JUMPDEST PUSH2 0x214D JUMP JUMPDEST DUP2 MLOAD ISZERO DUP1 ISZERO PUSH2 0x2121 JUMPI POP PUSH1 0x1 PUSH1 0x1 PUSH1 0xA0 SHL SUB DUP5 AND EXTCODESIZE ISZERO JUMPDEST ISZERO PUSH2 0x214A JUMPI PUSH1 0x40 MLOAD PUSH4 0x9996B315 PUSH1 0xE0 SHL DUP2 MSTORE PUSH1 0x1 PUSH1 0x1 PUSH1 0xA0 SHL SUB DUP6 AND PUSH1 0x4 DUP3 ADD MSTORE PUSH1 0x24 ADD PUSH2 0x689 JUMP JUMPDEST POP DUP1 JUMPDEST SWAP4 SWAP3 POP POP POP JUMP JUMPDEST DUP1 MLOAD ISZERO PUSH2 0x2164 JUMPI DUP1 MLOAD DUP1 DUP3 PUSH1 0x20 ADD REVERT JUMPDEST PUSH1 0x40 MLOAD PUSH4 0xA12F521 PUSH1 0xE1 SHL DUP2 MSTORE PUSH1 0x4 ADD PUSH1 0x40 MLOAD DUP1 SWAP2 SUB SWAP1 REVERT JUMPDEST DUP3 DUP1 SLOAD DUP3 DUP3 SSTORE SWAP1 PUSH1 0x0 MSTORE PUSH1 0x20 PUSH1 0x0 KECCAK256 SWAP1 DUP2 ADD SWAP3 DUP3 ISZERO PUSH2 0x21B8 JUMPI SWAP2 PUSH1 0x20 MUL DUP3 ADD JUMPDEST DUP3 DUP2 GT ISZERO PUSH2 0x21B8 JUMPI DUP3 MLOAD DUP3 SSTORE SWAP2 PUSH1 0x20 ADD SWAP2 SWAP1 PUSH1 0x1 ADD SWAP1 PUSH2 0x219D JUMP JUMPDEST POP PUSH2 0x21C4 SWAP3 SWAP2 POP PUSH2 0x22EA JUMP JUMPDEST POP SWAP1 JUMP JUMPDEST DUP3 DUP1 SLOAD DUP3 DUP3 SSTORE SWAP1 PUSH1 0x0 MSTORE PUSH1 0x20 PUSH1 0x0 KECCAK256 SWAP1 DUP2 ADD SWAP3 DUP3 ISZERO PUSH2 0x21B8 JUMPI SWAP2 PUSH1 0x20 MUL DUP3 ADD JUMPDEST DUP3 DUP2 GT ISZERO PUSH2 0x21B8 JUMPI DUP3 CALLDATALOAD DUP3 SSTORE SWAP2 PUSH1 0x20 ADD SWAP2 SWAP1 PUSH1 0x1 ADD SWAP1 PUSH2 0x21E8 JUMP JUMPDEST PUSH1 0x40 DUP1 MLOAD PUSH2 0x140 DUP2 ADD SWAP1 SWAP2 MSTORE DUP1 PUSH1 0x0 DUP2 MSTORE PUSH1 0x20 ADD PUSH1 0x0 PUSH1 0x1 PUSH1 0x1 PUSH1 0xA0 SHL SUB AND DUP2 MSTORE PUSH1 0x20 ADD PUSH2 0x2244 PUSH1 0x40 MLOAD DUP1 PUSH1 0x40 ADD PUSH1 0x40 MSTORE DUP1 PUSH1 0x0 DUP2 MSTORE PUSH1 0x20 ADD PUSH1 0x0 DUP2 MSTORE POP SWAP1 JUMP JUMPDEST DUP2 MSTORE PUSH1 0x20 ADD PUSH1 0x0 DUP1 NOT AND DUP2 MSTORE PUSH1 0x20 ADD PUSH1 0x60 DUP2 MSTORE PUSH1 0x20 ADD PUSH1 0x0 DUP2 MSTORE PUSH1 0x20 ADD PUSH1 0x0 DUP2 MSTORE PUSH1 0x20 ADD PUSH1 0x60 DUP2 MSTORE PUSH1 0x20 ADD PUSH2 0x22C1 PUSH1 0x40 MLOAD DUP1 PUSH2 0x100 ADD PUSH1 0x40 MSTORE DUP1 PUSH1 0x0 ISZERO ISZERO DUP2 MSTORE PUSH1 0x20 ADD PUSH1 0x0 ISZERO ISZERO DUP2 MSTORE PUSH1 0x20 ADD PUSH1 0x0 PUSH1 0xFF AND DUP2 MSTORE PUSH1 0x20 ADD PUSH1 0x0 PUSH1 0xFF AND DUP2 MSTORE PUSH1 0x20 ADD PUSH1 0x0 DUP2 MSTORE PUSH1 0x20 ADD PUSH1 0x0 DUP2 MSTORE PUSH1 0x20 ADD PUSH1 0x0 DUP2 MSTORE PUSH1 0x20 ADD PUSH1 0x0 DUP2 MSTORE POP SWAP1 JUMP JUMPDEST DUP2 MSTORE PUSH1 0x40 DUP1 MLOAD PUSH1 0x80 DUP2 ADD DUP3 MSTORE PUSH1 0x0 DUP1 DUP3 MSTORE PUSH1 0x20 DUP3 DUP2 ADD DUP3 SWAP1 MSTORE SWAP3 DUP3 ADD MSTORE PUSH1 0x60 DUP1 DUP3 ADD MSTORE SWAP2 ADD MSTORE SWAP1 JUMP JUMPDEST JUMPDEST DUP1 DUP3 GT ISZERO PUSH2 0x21C4 JUMPI PUSH1 0x0 DUP2 SSTORE PUSH1 0x1 ADD PUSH2 0x22EB JUMP JUMPDEST PUSH1 0x0 PUSH1 0x20 DUP3 DUP5 SUB SLT ISZERO PUSH2 0x2311 JUMPI PUSH1 0x0 DUP1 REVERT JUMPDEST POP CALLDATALOAD SWAP2 SWAP1 POP JUMP JUMPDEST PUSH4 0x4E487B71 PUSH1 0xE0 SHL PUSH1 0x0 MSTORE PUSH1 0x21 PUSH1 0x4 MSTORE PUSH1 0x24 PUSH1 0x0 REVERT JUMPDEST PUSH1 0x5 DUP2 LT PUSH2 0x233E JUMPI PUSH2 0x233E PUSH2 0x2318 JUMP JUMPDEST SWAP1 MSTORE JUMP JUMPDEST PUSH1 0x0 JUMPDEST DUP4 DUP2 LT ISZERO PUSH2 0x235D JUMPI DUP2 DUP2 ADD MLOAD DUP4 DUP3 ADD MSTORE PUSH1 0x20 ADD PUSH2 0x2345 JUMP JUMPDEST POP POP PUSH1 0x0 SWAP2 ADD MSTORE JUMP JUMPDEST PUSH1 0x0 DUP2 MLOAD DUP1 DUP5 MSTORE PUSH2 0x237E DUP2 PUSH1 0x20 DUP7 ADD PUSH1 0x20 DUP7 ADD PUSH2 0x2342 JUMP JUMPDEST PUSH1 0x1F ADD PUSH1 0x1F NOT AND SWAP3 SWAP1 SWAP3 ADD PUSH1 0x20 ADD SWAP3 SWAP2 POP POP JUMP JUMPDEST DUP1 MLOAD ISZERO ISZERO DUP3 MSTORE PUSH1 0x20 DUP2 ADD MLOAD ISZERO ISZERO PUSH1 0x20 DUP4 ADD MSTORE PUSH1 0xFF PUSH1 0x40 DUP3 ADD MLOAD AND PUSH1 0x40 DUP4 ADD MSTORE PUSH1 0x60 DUP2 ADD MLOAD PUSH2 0x23C5 PUSH1 0x60 DUP5 ADD DUP3 PUSH1 0xFF AND SWAP1 MSTORE JUMP JUMPDEST POP PUSH1 0x80 DUP2 ADD MLOAD PUSH1 0x80 DUP4 ADD MSTORE PUSH1 0xA0 DUP2 ADD MLOAD PUSH1 0xA0 DUP4 ADD MSTORE PUSH1 0xC0 DUP2 ADD MLOAD PUSH1 0xC0 DUP4 ADD MSTORE PUSH1 0xE0 DUP2 ADD MLOAD PUSH1 0xE0 DUP4 ADD MSTORE POP POP JUMP JUMPDEST PUSH1 0x0 DUP2 MLOAD PUSH1 0xA DUP2 LT PUSH2 0x2406 JUMPI PUSH2 0x2406 PUSH2 0x2318 JUMP JUMPDEST DUP1 DUP5 MSTORE POP PUSH1 0x20 DUP3 ADD MLOAD PUSH1 0x20 DUP5 ADD MSTORE PUSH1 0x40 DUP3 ADD MLOAD PUSH1 0x40 DUP5 ADD MSTORE PUSH1 0x60 DUP3 ADD MLOAD PUSH1 0x80 PUSH1 0x60 DUP6 ADD MSTORE PUSH2 0x2437 PUSH1 0x80 DUP6 ADD DUP3 PUSH2 0x2366 JUMP JUMPDEST SWAP5 SWAP4 POP POP POP POP JUMP JUMPDEST PUSH2 0x2449 DUP2 DUP12 PUSH2 0x232E JUMP JUMPDEST PUSH1 0x1 PUSH1 0x1 PUSH1 0xA0 SHL SUB DUP10 AND PUSH1 0x20 DUP3 ADD MSTORE PUSH2 0x246F PUSH1 0x40 DUP3 ADD DUP10 DUP1 MLOAD DUP3 MSTORE PUSH1 0x20 SWAP1 DUP2 ADD MLOAD SWAP2 ADD MSTORE JUMP JUMPDEST DUP7 PUSH1 0x80 DUP3 ADD MSTORE DUP6 PUSH1 0xA0 DUP3 ADD MSTORE DUP5 PUSH1 0xC0 DUP3 ADD MSTORE PUSH2 0x220 PUSH1 0xE0 DUP3 ADD MSTORE PUSH1 0x0 PUSH2 0x2499 PUSH2 0x220 DUP4 ADD DUP7 PUSH2 0x2366 JUMP JUMPDEST PUSH2 0x24A7 PUSH2 0x100 DUP5 ADD DUP7 PUSH2 0x2392 JUMP JUMPDEST DUP3 DUP2 SUB PUSH2 0x200 DUP5 ADD MSTORE PUSH2 0x24BA DUP2 DUP6 PUSH2 0x23F2 JUMP JUMPDEST SWAP13 SWAP12 POP POP POP POP POP POP POP POP POP POP POP POP JUMP JUMPDEST DUP1 CALLDATALOAD PUSH1 0x5 DUP2 LT PUSH2 0x24D9 JUMPI PUSH1 0x0 DUP1 REVERT JUMPDEST SWAP2 SWAP1 POP JUMP JUMPDEST PUSH1 0x0 PUSH2 0x100 DUP3 DUP5 SUB SLT ISZERO PUSH2 0x24F1 JUMPI PUSH1 0x0 DUP1 REVERT JUMPDEST POP SWAP2 SWAP1 POP JUMP JUMPDEST PUSH1 0x0 PUSH1 0x80 DUP3 DUP5 SUB SLT ISZERO PUSH2 0x24F1 JUMPI PUSH1 0x0 DUP1 REVERT JUMPDEST PUSH1 0x0 DUP1 DUP4 PUSH1 0x1F DUP5 ADD SLT PUSH2 0x251B JUMPI PUSH1 0x0 DUP1 REVERT JUMPDEST POP DUP2 CALLDATALOAD PUSH1 0x1 PUSH1 0x1 PUSH1 0x40 SHL SUB DUP2 GT ISZERO PUSH2 0x2532 JUMPI PUSH1 0x0 DUP1 REVERT JUMPDEST PUSH1 0x20 DUP4 ADD SWAP2 POP DUP4 PUSH1 0x20 DUP3 DUP6 ADD ADD GT ISZERO PUSH2 0x254A JUMPI PUSH1 0x0 DUP1 REVERT JUMPDEST SWAP3 POP SWAP3 SWAP1 POP JUMP JUMPDEST DUP1 CALLDATALOAD PUSH1 0x1 PUSH1 0x1 PUSH1 0xA0 SHL SUB DUP2 AND DUP2 EQ PUSH2 0x24D9 JUMPI PUSH1 0x0 DUP1 REVERT JUMPDEST PUSH1 0x0 PUSH1 0x40 DUP3 DUP5 SUB SLT ISZERO PUSH2 0x24F1 JUMPI PUSH1 0x0 DUP1 REVERT JUMPDEST PUSH1 0x0 DUP1 PUSH1 0x0 DUP1 PUSH1 0x0 DUP1 PUSH1 0x0 DUP1 PUSH1 0x0 DUP1 PUSH1 0x0 PUSH2 0x240 DUP13 DUP15 SUB SLT ISZERO PUSH2 0x259C JUMPI PUSH1 0x0 DUP1 REVERT JUMPDEST PUSH2 0x25A5 DUP13 PUSH2 0x24CA JUMP JUMPDEST SWAP11 POP PUSH1 0x20 DUP13 ADD CALLDATALOAD SWAP10 POP PUSH1 0x40 DUP13 ADD CALLDATALOAD SWAP9 POP PUSH2 0x25C2 DUP14 PUSH1 0x60 DUP15 ADD PUSH2 0x24DE JUMP JUMPDEST SWAP8 POP PUSH2 0x160 DUP13 ADD CALLDATALOAD PUSH1 0x1 PUSH1 0x1 PUSH1 0x40 SHL SUB DUP2 GT ISZERO PUSH2 0x25DE JUMPI PUSH1 0x0 DUP1 REVERT JUMPDEST PUSH2 0x25EA DUP15 DUP3 DUP16 ADD PUSH2 0x24F7 JUMP JUMPDEST SWAP8 POP POP PUSH2 0x180 DUP13 ADD CALLDATALOAD PUSH1 0x1 PUSH1 0x1 PUSH1 0x40 SHL SUB DUP2 GT ISZERO PUSH2 0x2607 JUMPI PUSH1 0x0 DUP1 REVERT JUMPDEST PUSH2 0x2613 DUP15 DUP3 DUP16 ADD PUSH2 0x2509 JUMP JUMPDEST SWAP1 SWAP8 POP SWAP6 POP PUSH2 0x2627 SWAP1 POP PUSH2 0x1A0 DUP14 ADD PUSH2 0x2551 JUMP JUMPDEST SWAP4 POP PUSH2 0x1C0 DUP13 ADD CALLDATALOAD SWAP3 POP PUSH2 0x263F DUP14 PUSH2 0x1E0 DUP15 ADD PUSH2 0x2568 JUMP JUMPDEST SWAP2 POP PUSH1 0x0 PUSH2 0x220 DUP14 ADD CALLDATALOAD SWAP1 POP DUP1 SWAP2 POP POP SWAP3 SWAP6 SWAP9 SWAP12 POP SWAP3 SWAP6 SWAP9 SWAP12 SWAP1 SWAP4 SWAP7 SWAP10 POP JUMP JUMPDEST PUSH1 0x0 DUP1 PUSH1 0x0 DUP1 PUSH1 0x0 PUSH1 0x60 DUP7 DUP9 SUB SLT ISZERO PUSH2 0x2677 JUMPI PUSH1 0x0 DUP1 REVERT JUMPDEST DUP6 CALLDATALOAD SWAP5 POP PUSH1 0x20 DUP7 ADD CALLDATALOAD PUSH1 0x1 PUSH1 0x1 PUSH1 0x40 SHL SUB DUP2 GT ISZERO PUSH2 0x2694 JUMPI PUSH1 0x0 DUP1 REVERT JUMPDEST DUP7 ADD PUSH1 0x1F DUP2 ADD DUP9 SGT PUSH2 0x26A5 JUMPI PUSH1 0x0 DUP1 REVERT JUMPDEST DUP1 CALLDATALOAD PUSH1 0x1 PUSH1 0x1 PUSH1 0x40 SHL SUB DUP2 GT ISZERO PUSH2 0x26BB JUMPI PUSH1 0x0 DUP1 REVERT JUMPDEST DUP9 PUSH1 0x20 DUP3 PUSH1 0x5 SHL DUP5 ADD ADD GT ISZERO PUSH2 0x26D0 JUMPI PUSH1 0x0 DUP1 REVERT JUMPDEST PUSH1 0x20 SWAP2 SWAP1 SWAP2 ADD SWAP5 POP SWAP3 POP PUSH1 0x40 DUP7 ADD CALLDATALOAD PUSH1 0x1 PUSH1 0x1 PUSH1 0x40 SHL SUB DUP2 GT ISZERO PUSH2 0x26F3 JUMPI PUSH1 0x0 DUP1 REVERT JUMPDEST PUSH2 0x26FF DUP9 DUP3 DUP10 ADD PUSH2 0x2509 JUMP JUMPDEST SWAP7 SWAP10 SWAP6 SWAP9 POP SWAP4 SWAP7 POP SWAP3 SWAP5 SWAP4 SWAP3 POP POP POP JUMP JUMPDEST PUSH4 0x4E487B71 PUSH1 0xE0 SHL PUSH1 0x0 MSTORE PUSH1 0x41 PUSH1 0x4 MSTORE PUSH1 0x24 PUSH1 0x0 REVERT JUMPDEST PUSH1 0x40 MLOAD PUSH2 0x100 DUP2 ADD PUSH1 0x1 PUSH1 0x1 PUSH1 0x40 SHL SUB DUP2 GT DUP3 DUP3 LT OR ISZERO PUSH2 0x2749 JUMPI PUSH2 0x2749 PUSH2 0x2710 JUMP JUMPDEST PUSH1 0x40 MSTORE SWAP1 JUMP JUMPDEST PUSH1 0x40 MLOAD PUSH1 0x80 DUP2 ADD PUSH1 0x1 PUSH1 0x1 PUSH1 0x40 SHL SUB DUP2 GT DUP3 DUP3 LT OR ISZERO PUSH2 0x2749 JUMPI PUSH2 0x2749 PUSH2 0x2710 JUMP JUMPDEST PUSH1 0x0 DUP1 PUSH1 0x1 PUSH1 0x1 PUSH1 0x40 SHL SUB DUP5 GT ISZERO PUSH2 0x278B JUMPI PUSH2 0x278B PUSH2 0x2710 JUMP JUMPDEST POP PUSH1 0x40 MLOAD PUSH1 0x1F NOT PUSH1 0x1F DUP6 ADD DUP2 AND PUSH1 0x3F ADD AND DUP2 ADD DUP2 DUP2 LT PUSH1 0x1 PUSH1 0x1 PUSH1 0x40 SHL SUB DUP3 GT OR ISZERO PUSH2 0x27B9 JUMPI PUSH2 0x27B9 PUSH2 0x2710 JUMP JUMPDEST PUSH1 0x40 MSTORE DUP4 DUP2 MSTORE SWAP1 POP DUP1 DUP3 DUP5 ADD DUP6 LT ISZERO PUSH2 0x27D1 JUMPI PUSH1 0x0 DUP1 REVERT JUMPDEST DUP4 DUP4 PUSH1 0x20 DUP4 ADD CALLDATACOPY PUSH1 0x0 PUSH1 0x20 DUP6 DUP4 ADD ADD MSTORE POP SWAP4 SWAP3 POP POP POP JUMP JUMPDEST PUSH1 0x0 DUP1 PUSH1 0x40 DUP4 DUP6 SUB SLT ISZERO PUSH2 0x27FC JUMPI PUSH1 0x0 DUP1 REVERT JUMPDEST PUSH2 0x2805 DUP4 PUSH2 0x2551 JUMP JUMPDEST SWAP2 POP PUSH1 0x20 DUP4 ADD CALLDATALOAD PUSH1 0x1 PUSH1 0x1 PUSH1 0x40 SHL SUB DUP2 GT ISZERO PUSH2 0x2820 JUMPI PUSH1 0x0 DUP1 REVERT JUMPDEST DUP4 ADD PUSH1 0x1F DUP2 ADD DUP6 SGT PUSH2 0x2831 JUMPI PUSH1 0x0 DUP1 REVERT JUMPDEST PUSH2 0x2840 DUP6 DUP3 CALLDATALOAD PUSH1 0x20 DUP5 ADD PUSH2 0x2771 JUMP JUMPDEST SWAP2 POP POP SWAP3 POP SWAP3 SWAP1 POP JUMP JUMPDEST PUSH1 0x0 DUP1 PUSH1 0x40 DUP4 DUP6 SUB SLT ISZERO PUSH2 0x285D JUMPI PUSH1 0x0 DUP1 REVERT JUMPDEST DUP3 CALLDATALOAD SWAP2 POP PUSH2 0x286D PUSH1 0x20 DUP5 ADD PUSH2 0x24CA JUMP JUMPDEST SWAP1 POP SWAP3 POP SWAP3 SWAP1 POP JUMP JUMPDEST PUSH1 0x0 DUP1 PUSH1 0x40 DUP4 DUP6 SUB SLT ISZERO PUSH2 0x2889 JUMPI PUSH1 0x0 DUP1 REVERT JUMPDEST DUP3 CALLDATALOAD SWAP2 POP PUSH1 0x20 DUP4 ADD CALLDATALOAD PUSH1 0x1 PUSH1 0x1 PUSH1 0x40 SHL SUB DUP2 GT ISZERO PUSH2 0x28A6 JUMPI PUSH1 0x0 DUP1 REVERT JUMPDEST PUSH2 0x2840 DUP6 DUP3 DUP7 ADD PUSH2 0x24F7 JUMP JUMPDEST PUSH1 0x0 DUP1 PUSH1 0x0 PUSH1 0x40 DUP5 DUP7 SUB SLT ISZERO PUSH2 0x28C7 JUMPI PUSH1 0x0 DUP1 REVERT JUMPDEST DUP4 CALLDATALOAD PUSH1 0x1 PUSH1 0x1 PUSH1 0x40 SHL SUB DUP2 GT ISZERO PUSH2 0x28DD JUMPI PUSH1 0x0 DUP1 REVERT JUMPDEST PUSH2 0x28E9 DUP7 DUP3 DUP8 ADD PUSH2 0x2509 JUMP JUMPDEST SWAP1 SWAP5 POP SWAP3 POP PUSH2 0x28FC SWAP1 POP PUSH1 0x20 DUP6 ADD PUSH2 0x2551 JUMP JUMPDEST SWAP1 POP SWAP3 POP SWAP3 POP SWAP3 JUMP JUMPDEST PUSH1 0x0 DUP2 MLOAD DUP1 DUP5 MSTORE PUSH1 0x20 DUP5 ADD SWAP4 POP PUSH1 0x20 DUP4 ADD PUSH1 0x0 JUMPDEST DUP3 DUP2 LT ISZERO PUSH2 0x2937 JUMPI DUP2 MLOAD DUP7 MSTORE PUSH1 0x20 SWAP6 DUP7 ADD SWAP6 SWAP1 SWAP2 ADD SWAP1 PUSH1 0x1 ADD PUSH2 0x2919 JUMP JUMPDEST POP SWAP4 SWAP5 SWAP4 POP POP POP POP JUMP JUMPDEST PUSH1 0x20 DUP2 MSTORE PUSH2 0x2953 PUSH1 0x20 DUP3 ADD DUP4 MLOAD PUSH2 0x232E JUMP JUMPDEST PUSH1 0x0 PUSH1 0x20 DUP4 ADD MLOAD PUSH2 0x296F PUSH1 0x40 DUP5 ADD DUP3 PUSH1 0x1 PUSH1 0x1 PUSH1 0xA0 SHL SUB AND SWAP1 MSTORE JUMP JUMPDEST POP PUSH1 0x40 DUP4 ADD MLOAD DUP1 MLOAD PUSH1 0x60 DUP5 ADD MSTORE PUSH1 0x20 DUP2 ADD MLOAD PUSH1 0x80 DUP5 ADD MSTORE POP PUSH1 0x60 DUP4 ADD MLOAD PUSH1 0xA0 DUP4 ADD MSTORE PUSH1 0x80 DUP4 ADD MLOAD PUSH2 0x240 PUSH1 0xC0 DUP5 ADD MSTORE PUSH2 0x29AC PUSH2 0x260 DUP5 ADD DUP3 PUSH2 0x2905 JUMP JUMPDEST SWAP1 POP PUSH1 0xA0 DUP5 ADD MLOAD PUSH1 0xE0 DUP5 ADD MSTORE PUSH1 0xC0 DUP5 ADD MLOAD PUSH2 0x100 DUP5 ADD MSTORE PUSH1 0xE0 DUP5 ADD MLOAD PUSH1 0x1F NOT DUP5 DUP4 SUB ADD PUSH2 0x120 DUP6 ADD MSTORE PUSH2 0x29DF DUP3 DUP3 PUSH2 0x2366 JUMP JUMPDEST SWAP2 POP POP PUSH2 0x100 DUP5 ADD MLOAD PUSH2 0x29F6 PUSH2 0x140 DUP6 ADD DUP3 PUSH2 0x2392 JUMP JUMPDEST POP PUSH2 0x120 DUP5 ADD MLOAD DUP4 DUP3 SUB PUSH1 0x1F NOT ADD PUSH2 0x240 DUP6 ADD MSTORE PUSH2 0x20CB DUP3 DUP3 PUSH2 0x23F2 JUMP JUMPDEST PUSH1 0x20 DUP2 MSTORE PUSH1 0x0 PUSH2 0x214D PUSH1 0x20 DUP4 ADD DUP5 PUSH2 0x2366 JUMP JUMPDEST PUSH1 0x0 DUP1 PUSH1 0x0 DUP1 PUSH1 0x0 PUSH1 0x80 DUP7 DUP9 SUB SLT ISZERO PUSH2 0x2A3F JUMPI PUSH1 0x0 DUP1 REVERT JUMPDEST DUP6 CALLDATALOAD SWAP5 POP PUSH1 0x20 DUP7 ADD CALLDATALOAD SWAP4 POP PUSH1 0x40 DUP7 ADD CALLDATALOAD SWAP3 POP PUSH1 0x60 DUP7 ADD CALLDATALOAD PUSH1 0x1 PUSH1 0x1 PUSH1 0x40 SHL SUB DUP2 GT ISZERO PUSH2 0x26F3 JUMPI PUSH1 0x0 DUP1 REVERT JUMPDEST PUSH1 0x0 DUP1 PUSH1 0x40 DUP4 DUP6 SUB SLT ISZERO PUSH2 0x2A7D JUMPI PUSH1 0x0 DUP1 REVERT JUMPDEST POP POP DUP1 CALLDATALOAD SWAP3 PUSH1 0x20 SWAP1 SWAP2 ADD CALLDATALOAD SWAP2 POP JUMP JUMPDEST PUSH1 0x0 PUSH1 0x20 DUP3 DUP5 SUB SLT ISZERO PUSH2 0x2A9E JUMPI PUSH1 0x0 DUP1 REVERT JUMPDEST PUSH2 0x214D DUP3 PUSH2 0x2551 JUMP JUMPDEST PUSH1 0x1 DUP2 DUP2 SHR SWAP1 DUP3 AND DUP1 PUSH2 0x2ABB JUMPI PUSH1 0x7F DUP3 AND SWAP2 POP JUMPDEST PUSH1 0x20 DUP3 LT DUP2 SUB PUSH2 0x24F1 JUMPI PUSH4 0x4E487B71 PUSH1 0xE0 SHL PUSH1 0x0 MSTORE PUSH1 0x22 PUSH1 0x4 MSTORE PUSH1 0x24 PUSH1 0x0 REVERT JUMPDEST DUP1 CALLDATALOAD PUSH1 0xFF DUP2 AND DUP2 EQ PUSH2 0x24D9 JUMPI PUSH1 0x0 DUP1 REVERT JUMPDEST PUSH1 0x0 PUSH1 0x20 DUP3 DUP5 SUB SLT ISZERO PUSH2 0x2AFE JUMPI PUSH1 0x0 DUP1 REVERT JUMPDEST PUSH2 0x214D DUP3 PUSH2 0x2ADB JUMP JUMPDEST PUSH4 0x4E487B71 PUSH1 0xE0 SHL PUSH1 0x0 MSTORE PUSH1 0x11 PUSH1 0x4 MSTORE PUSH1 0x24 PUSH1 0x0 REVERT JUMPDEST DUP1 DUP3 ADD DUP1 DUP3 GT ISZERO PUSH2 0x20D0 JUMPI PUSH2 0x20D0 PUSH2 0x2B07 JUMP JUMPDEST DUP1 ISZERO ISZERO DUP2 EQ PUSH2 0x1CB2 JUMPI PUSH1 0x0 DUP1 REVERT JUMPDEST PUSH1 0x0 PUSH1 0x20 DUP3 DUP5 SUB SLT ISZERO PUSH2 0x2B50 JUMPI PUSH1 0x0 DUP1 REVERT JUMPDEST DUP2 MLOAD PUSH2 0x214D DUP2 PUSH2 0x2B30 JUMP JUMPDEST PUSH1 0x0 PUSH1 0x40 DUP3 DUP5 SUB SLT DUP1 ISZERO PUSH2 0x2B6E JUMPI PUSH1 0x0 DUP1 REVERT JUMPDEST POP PUSH1 0x40 DUP1 MLOAD SWAP1 DUP2 ADD PUSH1 0x1 PUSH1 0x1 PUSH1 0x40 SHL SUB DUP2 GT DUP3 DUP3 LT OR ISZERO PUSH2 0x2B91 JUMPI PUSH2 0x2B91 PUSH2 0x2710 JUMP JUMPDEST PUSH1 0x40 MSTORE DUP3 CALLDATALOAD DUP2 MSTORE PUSH1 0x20 SWAP3 DUP4 ADD CALLDATALOAD SWAP3 DUP2 ADD SWAP3 SWAP1 SWAP3 MSTORE POP SWAP2 SWAP1 POP JUMP JUMPDEST DUP1 CALLDATALOAD PUSH2 0x24D9 DUP2 PUSH2 0x2B30 JUMP JUMPDEST PUSH1 0x0 PUSH2 0x100 DUP3 DUP5 SUB SLT DUP1 ISZERO PUSH2 0x2BCA JUMPI PUSH1 0x0 DUP1 REVERT JUMPDEST POP PUSH1 0x0 PUSH2 0x2BD5 PUSH2 0x2726 JUMP JUMPDEST DUP4 CALLDATALOAD PUSH2 0x2BE0 DUP2 PUSH2 0x2B30 JUMP JUMPDEST DUP2 MSTORE PUSH2 0x2BEE PUSH1 0x20 DUP6 ADD PUSH2 0x2BAB JUMP JUMPDEST PUSH1 0x20 DUP3 ADD MSTORE PUSH2 0x2BFF PUSH1 0x40 DUP6 ADD PUSH2 0x2ADB JUMP JUMPDEST PUSH1 0x40 DUP3 ADD MSTORE PUSH2 0x2C10 PUSH1 0x60 DUP6 ADD PUSH2 0x2ADB JUMP JUMPDEST PUSH1 0x60 DUP3 ADD MSTORE PUSH1 0x80 DUP5 DUP2 ADD CALLDATALOAD SWAP1 DUP3 ADD MSTORE PUSH1 0xA0 DUP1 DUP6 ADD CALLDATALOAD SWAP1 DUP3 ADD MSTORE PUSH1 0xC0 DUP1 DUP6 ADD CALLDATALOAD SWAP1 DUP3 ADD MSTORE PUSH1 0xE0 SWAP4 DUP5 ADD CALLDATALOAD SWAP4 DUP2 ADD SWAP4 SWAP1 SWAP4 MSTORE POP SWAP1 SWAP3 SWAP2 POP POP JUMP JUMPDEST PUSH1 0x0 PUSH1 0x80 DUP3 CALLDATASIZE SUB SLT ISZERO PUSH2 0x2C5A JUMPI PUSH1 0x0 DUP1 REVERT JUMPDEST PUSH2 0x2C62 PUSH2 0x274F JUMP JUMPDEST DUP3 CALLDATALOAD PUSH1 0xA DUP2 LT PUSH2 0x2C71 JUMPI PUSH1 0x0 DUP1 REVERT JUMPDEST DUP2 MSTORE PUSH1 0x20 DUP4 DUP2 ADD CALLDATALOAD SWAP1 DUP3 ADD MSTORE PUSH1 0x40 DUP1 DUP5 ADD CALLDATALOAD SWAP1 DUP3 ADD MSTORE PUSH1 0x60 DUP4 ADD CALLDATALOAD PUSH1 0x1 PUSH1 0x1 PUSH1 0x40 SHL SUB DUP2 GT ISZERO PUSH2 0x2CA0 JUMPI PUSH1 0x0 DUP1 REVERT JUMPDEST DUP4 ADD CALLDATASIZE PUSH1 0x1F DUP3 ADD SLT PUSH2 0x2CB1 JUMPI PUSH1 0x0 DUP1 REVERT JUMPDEST PUSH2 0x2CC0 CALLDATASIZE DUP3 CALLDATALOAD PUSH1 0x20 DUP5 ADD PUSH2 0x2771 JUMP JUMPDEST PUSH1 0x60 DUP4 ADD MSTORE POP SWAP3 SWAP2 POP POP JUMP JUMPDEST PUSH1 0x1F DUP3 GT ISZERO PUSH2 0x1E1F JUMPI DUP1 PUSH1 0x0 MSTORE PUSH1 0x20 PUSH1 0x0 KECCAK256 PUSH1 0x1F DUP5 ADD PUSH1 0x5 SHR DUP2 ADD PUSH1 0x20 DUP6 LT ISZERO PUSH2 0x2CF3 JUMPI POP DUP1 JUMPDEST PUSH1 0x1F DUP5 ADD PUSH1 0x5 SHR DUP3 ADD SWAP2 POP JUMPDEST DUP2 DUP2 LT ISZERO PUSH2 0x2D13 JUMPI PUSH1 0x0 DUP2 SSTORE PUSH1 0x1 ADD PUSH2 0x2CFF JUMP JUMPDEST POP POP POP POP POP JUMP JUMPDEST DUP2 MLOAD PUSH1 0x1 PUSH1 0x1 PUSH1 0x40 SHL SUB DUP2 GT ISZERO PUSH2 0x2D33 JUMPI PUSH2 0x2D33 PUSH2 0x2710 JUMP JUMPDEST PUSH2 0x2D47 DUP2 PUSH2 0x2D41 DUP5 SLOAD PUSH2 0x2AA7 JUMP JUMPDEST DUP5 PUSH2 0x2CCC JUMP JUMPDEST PUSH1 0x20 PUSH1 0x1F DUP3 GT PUSH1 0x1 DUP2 EQ PUSH2 0x2D7B JUMPI PUSH1 0x0 DUP4 ISZERO PUSH2 0x2D63 JUMPI POP DUP5 DUP3 ADD MLOAD JUMPDEST PUSH1 0x0 NOT PUSH1 0x3 DUP6 SWAP1 SHL SHR NOT AND PUSH1 0x1 DUP5 SWAP1 SHL OR DUP5 SSTORE PUSH2 0x2D13 JUMP JUMPDEST PUSH1 0x0 DUP5 DUP2 MSTORE PUSH1 0x20 DUP2 KECCAK256 PUSH1 0x1F NOT DUP6 AND SWAP2 JUMPDEST DUP3 DUP2 LT ISZERO PUSH2 0x2DAB JUMPI DUP8 DUP6 ADD MLOAD DUP3 SSTORE PUSH1 0x20 SWAP5 DUP6 ADD SWAP5 PUSH1 0x1 SWAP1 SWAP3 ADD SWAP2 ADD PUSH2 0x2D8B JUMP JUMPDEST POP DUP5 DUP3 LT ISZERO PUSH2 0x2DC9 JUMPI DUP7 DUP5 ADD MLOAD PUSH1 0x0 NOT PUSH1 0x3 DUP8 SWAP1 SHL PUSH1 0xF8 AND SHR NOT AND DUP2 SSTORE JUMPDEST POP POP POP POP PUSH1 0x1 SWAP1 DUP2 SHL ADD SWAP1 SSTORE POP JUMP JUMPDEST PUSH1 0x0 PUSH4 0xFFFFFFFF DUP3 AND PUSH4 0xFFFFFFFF DUP2 SUB PUSH2 0x2DF4 JUMPI PUSH2 0x2DF4 PUSH2 0x2B07 JUMP JUMPDEST PUSH1 0x1 ADD SWAP3 SWAP2 POP POP JUMP JUMPDEST PUSH1 0x20 DUP1 DUP3 MSTORE PUSH1 0x11 SWAP1 DUP3 ADD MSTORE PUSH17 0x141C9BD8D95CDCC81B9BDD08199BDD5B99 PUSH1 0x7A SHL PUSH1 0x40 DUP3 ADD MSTORE PUSH1 0x60 ADD SWAP1 JUMP JUMPDEST PUSH1 0x20 DUP1 DUP3 MSTORE PUSH1 0x12 SWAP1 DUP3 ADD MSTORE PUSH18 0x141C9BD8D95CDCC81D195C9B5A5B985D1959 PUSH1 0x72 SHL PUSH1 0x40 DUP3 ADD MSTORE PUSH1 0x60 ADD SWAP1 JUMP JUMPDEST PUSH1 0x20 DUP2 ADD PUSH2 0x20D0 DUP3 DUP5 PUSH2 0x232E JUMP JUMPDEST PUSH1 0x0 DUP1 DUP4 CALLDATALOAD PUSH1 0x1E NOT DUP5 CALLDATASIZE SUB ADD DUP2 SLT PUSH2 0x2E79 JUMPI PUSH1 0x0 DUP1 REVERT JUMPDEST DUP4 ADD DUP1 CALLDATALOAD SWAP2 POP PUSH1 0x1 PUSH1 0x1 PUSH1 0x40 SHL SUB DUP3 GT ISZERO PUSH2 0x2E93 JUMPI PUSH1 0x0 DUP1 REVERT JUMPDEST PUSH1 0x20 ADD SWAP2 POP CALLDATASIZE DUP2 SWAP1 SUB DUP3 SGT ISZERO PUSH2 0x254A JUMPI PUSH1 0x0 DUP1 REVERT JUMPDEST PUSH1 0x1 PUSH1 0x1 PUSH1 0x40 SHL SUB DUP4 GT ISZERO PUSH2 0x2EBF JUMPI PUSH2 0x2EBF PUSH2 0x2710 JUMP JUMPDEST PUSH2 0x2ED3 DUP4 PUSH2 0x2ECD DUP4 SLOAD PUSH2 0x2AA7 JUMP JUMPDEST DUP4 PUSH2 0x2CCC JUMP JUMPDEST PUSH1 0x0 PUSH1 0x1F DUP5 GT PUSH1 0x1 DUP2 EQ PUSH2 0x2F07 JUMPI PUSH1 0x0 DUP6 ISZERO PUSH2 0x2EEF JUMPI POP DUP4 DUP3 ADD CALLDATALOAD JUMPDEST PUSH1 0x0 NOT PUSH1 0x3 DUP8 SWAP1 SHL SHR NOT AND PUSH1 0x1 DUP7 SWAP1 SHL OR DUP4 SSTORE PUSH2 0x2D13 JUMP JUMPDEST PUSH1 0x0 DUP4 DUP2 MSTORE PUSH1 0x20 SWAP1 KECCAK256 PUSH1 0x1F NOT DUP7 AND SWAP1 DUP4 JUMPDEST DUP3 DUP2 LT ISZERO PUSH2 0x2F38 JUMPI DUP7 DUP6 ADD CALLDATALOAD DUP3 SSTORE PUSH1 0x20 SWAP5 DUP6 ADD SWAP5 PUSH1 0x1 SWAP1 SWAP3 ADD SWAP2 ADD PUSH2 0x2F18 JUMP JUMPDEST POP DUP7 DUP3 LT ISZERO PUSH2 0x2F55 JUMPI PUSH1 0x0 NOT PUSH1 0xF8 DUP9 PUSH1 0x3 SHL AND SHR NOT DUP5 DUP8 ADD CALLDATALOAD AND DUP2 SSTORE JUMPDEST POP POP PUSH1 0x1 DUP6 PUSH1 0x1 SHL ADD DUP4 SSTORE POP POP POP POP POP JUMP JUMPDEST DUP5 DUP2 MSTORE PUSH1 0x60 PUSH1 0x20 DUP3 ADD MSTORE DUP3 PUSH1 0x60 DUP3 ADD MSTORE DUP3 DUP5 PUSH1 0x80 DUP4 ADD CALLDATACOPY PUSH1 0x0 PUSH1 0x80 DUP5 DUP4 ADD ADD MSTORE PUSH1 0x0 PUSH1 0x80 PUSH1 0x1F NOT PUSH1 0x1F DUP7 ADD AND DUP4 ADD ADD SWAP1 POP DUP3 PUSH1 0x40 DUP4 ADD MSTORE SWAP6 SWAP5 POP POP POP POP POP JUMP JUMPDEST PUSH1 0x0 PUSH1 0x20 DUP3 DUP5 SUB SLT ISZERO PUSH2 0x2FB9 JUMPI PUSH1 0x0 DUP1 REVERT JUMPDEST POP MLOAD SWAP2 SWAP1 POP JUMP JUMPDEST PUSH1 0x0 DUP3 MLOAD PUSH2 0x2FD2 DUP2 DUP5 PUSH1 0x20 DUP8 ADD PUSH2 0x2342 JUMP JUMPDEST SWAP2 SWAP1 SWAP2 ADD SWAP3 SWAP2 POP POP JUMP INVALID CALLDATASIZE ADDMOD SWAP5 LOG1 EXTCODESIZE LOG1 LOG3 0x21 MOD PUSH8 0xC828492DB98DCA3E KECCAK256 PUSH23 0xCC3735A920A3CA505D382BBCA2646970667358221220B9 SWAP7 SHL CALLDATACOPY DELEGATECALL SDIV JUMP 0x25 0xEA CALLCODE 0x4F 0xB8 0xDE DUP1 PUSH12 0x1A9331A5736DFD9A3E1DE5C7 PUSH16 0xA5BFE64736F6C634300081C003300 "},"methodIdentifiers":{"UPGRADE_INTERFACE_VERSION()":"ad3cb1cc","chainID()":"adc879e9","endProcess(bytes32)":"ea9bcaf6","getProcess(bytes32)":"992bc45b","initialize(string,address)":"7ab4339d","newProcess(uint8,uint256,uint256,(bool,bool,uint8,uint8,uint256,uint256,uint256,uint256),(uint8,uint256,bytes32,string),string,address,bytes32,(uint256,uint256),bytes32)":"152f3128","organizationRegistry()":"8cafab7f","owner()":"8da5cb5b","processCount()":"848df540","processes(bytes32)":"0535fece","proxiableUUID()":"52d1902d","renounceOwnership()":"715018a6","setProcessCensus(bytes32,(uint8,uint256,bytes32,string))":"6bae04ea","setProcessDuration(bytes32,uint256)":"c718c01f","setProcessResult(bytes32,uint256[],bytes)":"25402545","setProcessStatus(bytes32,uint8)":"56a6f1e2","submitStateTransition(bytes32,bytes32,bytes32,bytes)":"b66ba6eb","transferOwnership(address)":"f2fde38b","upgradeToAndCall(address,bytes)":"4f1ef286"}}}}}