{"src/ProcessRegistry.sol":{"ProcessRegistry":{"abi":[{"inputs":[{"internalType":"uint32","name":"_chainID","type":"uint32"},{"internalType":"address","name":"_stVerifier","type":"address"},{"internalType":"address","name":"_rVerifier","type":"address"},{"internalType":"bool","name":"_blobsDA","type":"bool"}],"stateMutability":"nonpayable","type":"constructor"},{"inputs":[],"name":"BlobNotFoundInTx","type":"error"},{"inputs":[],"name":"CannotAcceptResult","type":"error"},{"inputs":[],"name":"CensusNotUpdatable","type":"error"},{"inputs":[{"internalType":"uint8","name":"limbIndex","type":"uint8"}],"name":"InvalidBlobCommitmentLimb","type":"error"},{"inputs":[],"name":"InvalidCensusOrigin","type":"error"},{"inputs":[],"name":"InvalidCensusRoot","type":"error"},{"inputs":[],"name":"InvalidCensusURI","type":"error"},{"inputs":[],"name":"InvalidDuration","type":"error"},{"inputs":[],"name":"InvalidMaxCount","type":"error"},{"inputs":[],"name":"InvalidMaxMinValueBounds","type":"error"},{"inputs":[],"name":"InvalidMaxValue","type":"error"},{"inputs":[],"name":"InvalidMaxValueSum","type":"error"},{"inputs":[],"name":"InvalidMaxVoters","type":"error"},{"inputs":[],"name":"InvalidMinTotalCost","type":"error"},{"inputs":[],"name":"InvalidMinValue","type":"error"},{"inputs":[],"name":"InvalidProcessId","type":"error"},{"inputs":[],"name":"InvalidStartTime","type":"error"},{"inputs":[],"name":"InvalidStateRoot","type":"error"},{"inputs":[],"name":"InvalidStatus","type":"error"},{"inputs":[],"name":"InvalidTimeBounds","type":"error"},{"inputs":[],"name":"InvalidUniqueValues","type":"error"},{"inputs":[],"name":"InvalidValueSumBounds","type":"error"},{"inputs":[],"name":"MaxVotersReached","type":"error"},{"inputs":[],"name":"ProcessAlreadyExists","type":"error"},{"inputs":[],"name":"ProcessNotEnded","type":"error"},{"inputs":[],"name":"ProcessNotFound","type":"error"},{"inputs":[],"name":"ProofInvalid","type":"error"},{"inputs":[],"name":"Unauthorized","type":"error"},{"inputs":[],"name":"UnknownProcessIdPrefix","type":"error"},{"anonymous":false,"inputs":[{"indexed":true,"internalType":"bytes32","name":"processId","type":"bytes32"},{"indexed":false,"internalType":"bytes32","name":"censusRoot","type":"bytes32"},{"indexed":false,"internalType":"string","name":"censusURI","type":"string"}],"name":"CensusUpdated","type":"event"},{"anonymous":false,"inputs":[{"indexed":true,"internalType":"bytes32","name":"processId","type":"bytes32"},{"indexed":true,"internalType":"address","name":"creator","type":"address"}],"name":"ProcessCreated","type":"event"},{"anonymous":false,"inputs":[{"indexed":true,"internalType":"bytes32","name":"processId","type":"bytes32"},{"indexed":false,"internalType":"uint256","name":"duration","type":"uint256"}],"name":"ProcessDurationChanged","type":"event"},{"anonymous":false,"inputs":[{"indexed":true,"internalType":"bytes32","name":"processId","type":"bytes32"},{"indexed":false,"internalType":"uint256","name":"maxVoters","type":"uint256"}],"name":"ProcessMaxVotersChanged","type":"event"},{"anonymous":false,"inputs":[{"indexed":true,"internalType":"bytes32","name":"processId","type":"bytes32"},{"indexed":true,"internalType":"address","name":"sender","type":"address"},{"indexed":false,"internalType":"uint256[]","name":"result","type":"uint256[]"}],"name":"ProcessResultsSet","type":"event"},{"anonymous":false,"inputs":[{"indexed":true,"internalType":"bytes32","name":"processId","type":"bytes32"},{"indexed":true,"internalType":"address","name":"sender","type":"address"},{"indexed":false,"internalType":"uint256","name":"oldStateRoot","type":"uint256"},{"indexed":false,"internalType":"uint256","name":"newStateRoot","type":"uint256"},{"indexed":false,"internalType":"uint256","name":"newVotersCount","type":"uint256"},{"indexed":false,"internalType":"uint256","name":"newOverwrittenVotesCount","type":"uint256"}],"name":"ProcessStateTransitioned","type":"event"},{"anonymous":false,"inputs":[{"indexed":true,"internalType":"bytes32","name":"processId","type":"bytes32"},{"indexed":false,"internalType":"enum IProcessRegistry.ProcessStatus","name":"oldStatus","type":"uint8"},{"indexed":false,"internalType":"enum IProcessRegistry.ProcessStatus","name":"newStatus","type":"uint8"}],"name":"ProcessStatusChanged","type":"event"},{"inputs":[],"name":"BLOB_INDEX","outputs":[{"internalType":"uint8","name":"","type":"uint8"}],"stateMutability":"view","type":"function"},{"inputs":[],"name":"MAX_CENSUS_ORIGIN","outputs":[{"internalType":"uint8","name":"","type":"uint8"}],"stateMutability":"view","type":"function"},{"inputs":[],"name":"MAX_STATUS","outputs":[{"internalType":"uint8","name":"","type":"uint8"}],"stateMutability":"view","type":"function"},{"inputs":[],"name":"blobsDA","outputs":[{"internalType":"bool","name":"","type":"bool"}],"stateMutability":"view","type":"function"},{"inputs":[],"name":"chainID","outputs":[{"internalType":"uint32","name":"","type":"uint32"}],"stateMutability":"view","type":"function"},{"inputs":[{"internalType":"address","name":"organizationId","type":"address"}],"name":"getNextProcessId","outputs":[{"internalType":"bytes32","name":"","type":"bytes32"}],"stateMutability":"view","type":"function"},{"inputs":[{"internalType":"bytes32","name":"processId","type":"bytes32"}],"name":"getProcess","outputs":[{"components":[{"internalType":"enum IProcessRegistry.ProcessStatus","name":"status","type":"uint8"},{"internalType":"address","name":"organizationId","type":"address"},{"components":[{"internalType":"uint256","name":"x","type":"uint256"},{"internalType":"uint256","name":"y","type":"uint256"}],"internalType":"struct IProcessRegistry.EncryptionKey","name":"encryptionKey","type":"tuple"},{"internalType":"uint256","name":"latestStateRoot","type":"uint256"},{"internalType":"uint256[]","name":"result","type":"uint256[]"},{"internalType":"uint256","name":"startTime","type":"uint256"},{"internalType":"uint256","name":"duration","type":"uint256"},{"internalType":"uint256","name":"maxVoters","type":"uint256"},{"internalType":"uint256","name":"votersCount","type":"uint256"},{"internalType":"uint256","name":"overwrittenVotesCount","type":"uint256"},{"internalType":"uint256","name":"creationBlock","type":"uint256"},{"internalType":"uint256","name":"batchNumber","type":"uint256"},{"internalType":"string","name":"metadataURI","type":"string"},{"components":[{"internalType":"bool","name":"costFromWeight","type":"bool"},{"internalType":"bool","name":"uniqueValues","type":"bool"},{"internalType":"uint8","name":"numFields","type":"uint8"},{"internalType":"uint8","name":"costExponent","type":"uint8"},{"internalType":"uint256","name":"maxValue","type":"uint256"},{"internalType":"uint256","name":"minValue","type":"uint256"},{"internalType":"uint256","name":"maxValueSum","type":"uint256"},{"internalType":"uint256","name":"minValueSum","type":"uint256"}],"internalType":"struct IProcessRegistry.BallotMode","name":"ballotMode","type":"tuple"},{"components":[{"internalType":"enum IProcessRegistry.CensusOrigin","name":"censusOrigin","type":"uint8"},{"internalType":"bytes32","name":"censusRoot","type":"bytes32"},{"internalType":"string","name":"censusURI","type":"string"}],"internalType":"struct IProcessRegistry.Census","name":"census","type":"tuple"}],"internalType":"struct IProcessRegistry.Process","name":"","type":"tuple"}],"stateMutability":"view","type":"function"},{"inputs":[{"internalType":"bytes32","name":"processId","type":"bytes32"}],"name":"getProcessEndTime","outputs":[{"internalType":"uint256","name":"","type":"uint256"}],"stateMutability":"view","type":"function"},{"inputs":[],"name":"getRVerifierVKeyHash","outputs":[{"internalType":"bytes32","name":"","type":"bytes32"}],"stateMutability":"view","type":"function"},{"inputs":[],"name":"getSTVerifierVKeyHash","outputs":[{"internalType":"bytes32","name":"","type":"bytes32"}],"stateMutability":"view","type":"function"},{"inputs":[{"internalType":"enum IProcessRegistry.ProcessStatus","name":"status","type":"uint8"},{"internalType":"uint256","name":"startTime","type":"uint256"},{"internalType":"uint256","name":"duration","type":"uint256"},{"internalType":"uint256","name":"maxVoters","type":"uint256"},{"components":[{"internalType":"bool","name":"costFromWeight","type":"bool"},{"internalType":"bool","name":"uniqueValues","type":"bool"},{"internalType":"uint8","name":"numFields","type":"uint8"},{"internalType":"uint8","name":"costExponent","type":"uint8"},{"internalType":"uint256","name":"maxValue","type":"uint256"},{"internalType":"uint256","name":"minValue","type":"uint256"},{"internalType":"uint256","name":"maxValueSum","type":"uint256"},{"internalType":"uint256","name":"minValueSum","type":"uint256"}],"internalType":"struct IProcessRegistry.BallotMode","name":"ballotMode","type":"tuple"},{"components":[{"internalType":"enum IProcessRegistry.CensusOrigin","name":"censusOrigin","type":"uint8"},{"internalType":"bytes32","name":"censusRoot","type":"bytes32"},{"internalType":"string","name":"censusURI","type":"string"}],"internalType":"struct IProcessRegistry.Census","name":"census","type":"tuple"},{"internalType":"string","name":"metadata","type":"string"},{"components":[{"internalType":"uint256","name":"x","type":"uint256"},{"internalType":"uint256","name":"y","type":"uint256"}],"internalType":"struct IProcessRegistry.EncryptionKey","name":"encryptionKey","type":"tuple"},{"internalType":"uint256","name":"initStateRoot","type":"uint256"}],"name":"newProcess","outputs":[{"internalType":"bytes32","name":"","type":"bytes32"}],"stateMutability":"nonpayable","type":"function"},{"inputs":[],"name":"pidPrefix","outputs":[{"internalType":"uint32","name":"","type":"uint32"}],"stateMutability":"view","type":"function"},{"inputs":[],"name":"processCount","outputs":[{"internalType":"uint32","name":"","type":"uint32"}],"stateMutability":"view","type":"function"},{"inputs":[{"internalType":"address","name":"","type":"address"}],"name":"processNonce","outputs":[{"internalType":"uint64","name":"","type":"uint64"}],"stateMutability":"view","type":"function"},{"inputs":[{"internalType":"bytes32","name":"","type":"bytes32"}],"name":"processes","outputs":[{"internalType":"enum IProcessRegistry.ProcessStatus","name":"status","type":"uint8"},{"internalType":"address","name":"organizationId","type":"address"},{"components":[{"internalType":"uint256","name":"x","type":"uint256"},{"internalType":"uint256","name":"y","type":"uint256"}],"internalType":"struct IProcessRegistry.EncryptionKey","name":"encryptionKey","type":"tuple"},{"internalType":"uint256","name":"latestStateRoot","type":"uint256"},{"internalType":"uint256","name":"startTime","type":"uint256"},{"internalType":"uint256","name":"duration","type":"uint256"},{"internalType":"uint256","name":"maxVoters","type":"uint256"},{"internalType":"uint256","name":"votersCount","type":"uint256"},{"internalType":"uint256","name":"overwrittenVotesCount","type":"uint256"},{"internalType":"uint256","name":"creationBlock","type":"uint256"},{"internalType":"uint256","name":"batchNumber","type":"uint256"},{"internalType":"string","name":"metadataURI","type":"string"},{"components":[{"internalType":"bool","name":"costFromWeight","type":"bool"},{"internalType":"bool","name":"uniqueValues","type":"bool"},{"internalType":"uint8","name":"numFields","type":"uint8"},{"internalType":"uint8","name":"costExponent","type":"uint8"},{"internalType":"uint256","name":"maxValue","type":"uint256"},{"internalType":"uint256","name":"minValue","type":"uint256"},{"internalType":"uint256","name":"maxValueSum","type":"uint256"},{"internalType":"uint256","name":"minValueSum","type":"uint256"}],"internalType":"struct IProcessRegistry.BallotMode","name":"ballotMode","type":"tuple"},{"components":[{"internalType":"enum IProcessRegistry.CensusOrigin","name":"censusOrigin","type":"uint8"},{"internalType":"bytes32","name":"censusRoot","type":"bytes32"},{"internalType":"string","name":"censusURI","type":"string"}],"internalType":"struct IProcessRegistry.Census","name":"census","type":"tuple"}],"stateMutability":"view","type":"function"},{"inputs":[],"name":"rVerifier","outputs":[{"internalType":"address","name":"","type":"address"}],"stateMutability":"view","type":"function"},{"inputs":[{"internalType":"bytes32","name":"processId","type":"bytes32"},{"components":[{"internalType":"enum IProcessRegistry.CensusOrigin","name":"censusOrigin","type":"uint8"},{"internalType":"bytes32","name":"censusRoot","type":"bytes32"},{"internalType":"string","name":"censusURI","type":"string"}],"internalType":"struct IProcessRegistry.Census","name":"census","type":"tuple"}],"name":"setProcessCensus","outputs":[],"stateMutability":"nonpayable","type":"function"},{"inputs":[{"internalType":"bytes32","name":"processId","type":"bytes32"},{"internalType":"uint256","name":"_duration","type":"uint256"}],"name":"setProcessDuration","outputs":[],"stateMutability":"nonpayable","type":"function"},{"inputs":[{"internalType":"bytes32","name":"processId","type":"bytes32"},{"internalType":"uint256","name":"_maxVoters","type":"uint256"}],"name":"setProcessMaxVoters","outputs":[],"stateMutability":"nonpayable","type":"function"},{"inputs":[{"internalType":"bytes32","name":"processId","type":"bytes32"},{"internalType":"bytes","name":"proof","type":"bytes"},{"internalType":"bytes","name":"input","type":"bytes"}],"name":"setProcessResults","outputs":[],"stateMutability":"nonpayable","type":"function"},{"inputs":[{"internalType":"bytes32","name":"processId","type":"bytes32"},{"internalType":"enum IProcessRegistry.ProcessStatus","name":"newStatus","type":"uint8"}],"name":"setProcessStatus","outputs":[],"stateMutability":"nonpayable","type":"function"},{"inputs":[],"name":"stVerifier","outputs":[{"internalType":"address","name":"","type":"address"}],"stateMutability":"view","type":"function"},{"inputs":[{"internalType":"bytes32","name":"processId","type":"bytes32"},{"internalType":"bytes","name":"proof","type":"bytes"},{"internalType":"bytes","name":"input","type":"bytes"}],"name":"submitStateTransition","outputs":[],"stateMutability":"nonpayable","type":"function"}],"evm":{"bytecode":{"linkReferences":{},"object":"6080806040523461011e576080816125bf803803809161001f8285610122565b83398101031261011e57805163ffffffff8116810361011e5761004460208301610159565b606061005260408501610159565b9301519182151580930361011e5760028054600354600160201b600160e01b0319909116604094851b600160401b600160e01b031617602084811b67ffffffff000000001691909117909255925160e09290921b6001600160e01b0319169082019081523060601b6024830152601882526100ce603883610122565b9051902063ffffffff60a01b60a09190911b166001600160a01b03939093166001600160c81b0319919091161760ff60c01b60c09290921b919091161717600355604051612451908161016e8239f35b5f80fd5b601f909101601f19168101906001600160401b0382119082101761014557604052565b634e487b7160e01b5f52604160045260245ffd5b51906001600160a01b038216820361011e5756fe60806040526004361015610011575f80fd5b5f5f3560e01c806302cc919a14611dd35780630535fece14611cb45780630970639214611c8a57806326795bc314611c705780634c0acc5614611c2057806356a6f1e214611acf57806362fa11fc14611a8a57806368141f2c14611a1c57806372c628ef14611a1757806374e078261461193257806375462f701461128c578063848df54014611269578063992bc45b14610f935780639c18deaf14610f6b578063a5b110de14610bf6578063a5f01e1914610aa5578063adc879e914610a7f578063c718c01f14610913578063cddf08bc146108ec578063cdf497c8146108c6578063d71d072e14610516578063f4c2a3bb146101ac5763f9aa449914610117575f80fd5b346101a957806003193601126101a95760035460405163233ace1160e01b81529190602090839060049082906001600160a01b03165afa90811561019d5790610166575b602090604051908152f35b506020813d602011610195575b8161018060209383611e5c565b81010312610191576020905161015b565b5f80fd5b3d9150610173565b604051903d90823e3d90fd5b80fd5b50346101a95760403660031901126101a9576004356024356001600160401b03811161051257806004016060600319833603011261050e5782156104ff5763ffffffff8060035460a01c161663ffffffff8460401c16036104f05782845260208490526040842080549190600883901c6001600160a01b031680156104e15733036104d35760ff60128201541661024281611fd7565b600281036104c45782359060058210156104c05761025f82611fd7565b61026881611fd7565b036104b15760248401359384156104a2576044019261028784846121f2565b9050156104935760ff1661029a81611fd7565b801515908161047e575b5061046f576102bc6005820154600683015490612260565b4210156104605783601382015560146102d584846121f2565b91909201916001600160401b03821161044c576102f28354611e9b565b601f8111610411575b508790601f831160011461038357928261037296937f87e1c82bc035c552e997ec2f1cf023790ced0cc01098d516dc6e7200835ffb27989693610357968c92610378575b50508160011b915f199060031b1c19161790556121f2565b9290604051938493845260406020850152604084019161226d565b0390a280f35b013590505f8061033f565b8389526020892091601f1984168a5b8181106103f95750937f87e1c82bc035c552e997ec2f1cf023790ced0cc01098d516dc6e7200835ffb279896936103579693600193836103729b98106103e0575b505050811b0190556121f2565b01355f19600384901b60f8161c191690555f80806103d3565b91936020600181928787013581550195019201610392565b61043c90848a5260208a20601f850160051c81019160208610610442575b601f0160051c01906121cc565b5f6102fb565b909150819061042f565b634e487b7160e01b88526041600452602488fd5b63e843c5eb60e01b8652600486fd5b6307a92f1960e51b8652600486fd5b6003915061048b81611fd7565b14155f6102a4565b630f8b932160e11b8752600487fd5b635e32eadd60e01b8752600487fd5b63f37f7b5d60e01b8652600486fd5b8780fd5b63050b77c760e21b8752600487fd5b6282b42960e81b8652600486fd5b634d36eb6960e01b8752600487fd5b632299770d60e11b8452600484fd5b63cbf4a64560e01b8452600484fd5b8380fd5b8280fd5b50346101a95761052536612152565b9190849394156108b7576003549163ffffffff808460a01c161663ffffffff8660401c16036108a857848752866020526040872093845460018060a01b038160081c16156108995760ff1661057981611fd7565b61088a576105906005860154600687015490612260565b42101561087b5761059f612224565b5080830196610100848903126108775787601f8501121561087757604051976101006105cb818b611e5c565b899086019182116108735785905b8282106108635750505087519360208901519360408a01519960608101519560808201519b60a08301519060c08401519360e00151926040519e8f9161061e83611e40565b8c8352602083015260408201928352606082019a8b52608082015260a0019182528d60c0810194855260e00192835260038c01998a540361085457518851610665916121bf565b998a151580610842575b610833579060ff8f9897969594939260c01c1661077f575b505060025460401c6001600160a01b0316919050813b1561077b5785936106c460405196879586948594635c73957b60e11b86526004860161228d565b03915afa801561077057610757575b5050600b91602087015190556106ee60088501938454612260565b809355519261070260098201948554612260565b8094550161071081546122b4565b9055602084519401516040519485526020850152604084015260608301527f43b1a882c73bc84ae667608d3a61baececd99134224962eba9d13eb63c595ae160803393a380f35b8161076191611e5c565b61076c57865f6106d3565b8680fd5b6040513d84823e3d90fd5b8580fd5b90919293949596505191519051906040519261079c606085611e5c565b60308452602084019060403683378060801c61081e5760801b90528060801c61080a5760801b60308301528060801c6107f6576107e98d96959493926107ee9260801b60408201526123ad565b6123ea565b5f8080610687565b6316416a3d60e01b8d52600260045260248dfd5b6316416a3d60e01b8e52600160045260248efd5b506316416a3d60e01b8f5260048f905260248ffd5b6357d18d5360e11b8f5260048ffd5b5060088c015460078d0154111561066f565b630b6fac0360e41b8f5260048ffd5b81358152602091820191016105d9565b8a80fd5b8880fd5b63e843c5eb60e01b8852600488fd5b6307a92f1960e51b8852600488fd5b634d36eb6960e01b8952600489fd5b632299770d60e11b8752600487fd5b63cbf4a64560e01b8652600486fd5b50346101a957806003193601126101a957602060ff60035460c01c166040519015158152f35b50346101a957806003193601126101a957602063ffffffff60035460a01c16604051908152f35b50346101a957610922366120dc565b8115610a705763ffffffff8060035460a01c161663ffffffff8360401c1603610a61578183526020839052604083208054600881901c6001600160a01b03168015610a52573303610a445760ff1661097981611fd7565b8015159081610a2f575b50610a2057600660058201549101908154908315918215610a0b575b82156109ec575b50506109dd57817f0f759826327c668a220d576485ac38ddc4f83fbc414b984c00e79f669b649f469260209255604051908152a280f35b637616640160e01b8452600484fd5b8192506109fc85610a0293612260565b92612260565b10155f806109a6565b9150610a178482612260565b4210159161099f565b6307a92f1960e51b8452600484fd5b60039150610a3c81611fd7565b14155f610983565b6282b42960e81b8552600485fd5b634d36eb6960e01b8652600486fd5b632299770d60e11b8352600483fd5b63cbf4a64560e01b8352600483fd5b50346101a957806003193601126101a957602063ffffffff600254821c16604051908152f35b50346101a95760203660031901126101a957600435815280602052604081209060405190610ad282611dee565b825460ff8116610ae181611fd7565b835260081c6001600160a01b03166020830152610b0060018401611e7d565b60408301526003830154606083015260048301604051918260208354918281520192825260208220915b818110610be0576020610bd8888888610b45818a0382611e5c565b608082015260058201549060a081019182526101c0610bcc601260068601549560c08501968752600781015460e086015260088101546101008601526009810154610120860152600a810154610140860152600b810154610160860152610bae600c8201611ed3565b610180860152610bc0600d8201611f73565b6101a086015201611ff5565b91015251905190612260565b604051908152f35b8254845260209093019260019283019201610b2a565b503461019157610c0536612152565b8491929495939515610f5c576003549063ffffffff808360a01c161663ffffffff8460401c1603610f4d57825f525f60205260405f209687549660018060a01b038860081c1615610f3e5760ff881693610c5e85611fd7565b600285148015610f2b575b610f1c57610c7685611fd7565b600185141580610f01575b610ef2576001600160a01b031691823b156101915783925f928892610cbc60405196879586948594635c73957b60e11b86526004860161228d565b03915afa8015610ee757610ed2575b50830161012084820312610ece5780601f85011215610ece576101209060405194610cf68387611e5c565b85908381019283116104c057905b828210610ebe575050508351600388015403610eaf5760405196610d288289611e5c565b600888526020880191601f190136833760015b6009811015610d98578060051b8601515f198201828111610d84578a51811015610d705760051b8a0160200152600101610d3b565b634e487b7160e01b89526032600452602489fd5b634e487b7160e01b89526011600452602489fd5b50879450600490818860ff1916178155018451916001600160401b038311610e9b57680100000000000000008311610e9b578154838355808410610e80575b50908493929190875260208720875b838110610e69575050505060407f2f25f350b681441b5bb45430fbe61e78d0170cff4ad02cb0aa48a6427909aa8c91815190610e2181611fd7565b815260046020820152a27f5da8009aeb11de7ef64598b0de897a03d2f93efabda8507a70e29cca4530cf5d6040516020815280610e633395602083019061211f565b0390a380f35b825181830155869550602090920191600101610de6565b82885260208820610e959181019085016121cc565b87610dd7565b634e487b7160e01b87526041600452602487fd5b630b6fac0360e41b8552600485fd5b8135815260209182019101610d04565b8480fd5b610edf9195505f90611e5c565b5f935f610ccb565b6040513d5f823e3d90fd5b63e843c5eb60e01b5f5260045ffd5b50610f1560058b015460068c015490612260565b4210610c81565b6307a92f1960e51b5f5260045ffd5b50610f3585611fd7565b60048514610c69565b634d36eb6960e01b5f5260045ffd5b632299770d60e11b5f5260045ffd5b63cbf4a64560e01b5f5260045ffd5b34610191575f366003190112610191576003546040516001600160a01b039091168152602090f35b3461019157602036600319011261019157604051610fb081611dee565b5f81525f6020820152604051610fc581611e0a565b5f81525f602082015260408201525f6060820152606060808201525f60a08201525f60c08201525f60e08201525f6101008201525f6101208201525f6101408201525f610160820152606061018082015261101e612224565b6101a08201526101c06040519161103483611e25565b5f83525f60208401526060604084015201526004355f525f60205260405f206040519061106082611dee565b80549060ff821661107081611fd7565b835260089190911c6001600160a01b0316602083019081529061109560018201611e7d565b9260408101938452600382015460608201908152600483019060405180928391602082549182815201915f5260205f20905f5b81811061125057505050036110dd9083611e5c565b6080830191825260058401549160a08401928352600685015460c08501908152600786015460e08601908152600887015461010087019081526009880154916101208801928352600a890154936101408901948552600b8a0154956101608a01968752600c8b0161114d90611ed3565b6101808b0190815297611162600d8d01611f73565b9b6101a08c019c8d5260120161117790611ff5565b9a6101c081019b8c526040519e8f9e8f92602084525161119681611fd7565b6020840152600160a01b60019003905116604083015251805160608301526020015190608001525160a08d01525160c08c016102e090526103008c016111db9161211f565b975160e08c0152516101008b0152516101208a0152516101408901525161016088015251610180870152516101a086015251848203601f19016101c08601526112249190612030565b91516101e0840161123491612054565b51828203601f19016102e084015261124c91906120a9565b0390f35b82548452869450602090930192600192830192016110c8565b34610191575f36600319011261019157602063ffffffff60025416604051908152f35b3461019157610220366003190112610191576005600435101561019157604435610100366083190112610191576001600160401b0361018435116101915760606101843536036003190112610191576101a4356001600160401b038111610191576112fb9036906004016120f2565b916040366101c319011261019157600354335f81815260016020526040902054606091821b6bffffffffffffffffffffffff19169290911c63ffffffff60401b16919091176001600160401b0391909116179160243593835f525f6020523360018060a01b0360405f205460081c16146119235760ff6113796121e2565b1615801561190f575b6119005761ffff61014435116118f1576101043561012435116118e2576101443561016435116118d357606435156118c457600561018435600401351015610191576113d46101843560040135611fd7565b600460ff6101843582013516116118b5576024610184350135156118a657604461018435019461140a86610184356004016121f2565b9050156118975761141c600435611fd7565b600460ff813516118015611868575b610f1c5760243515611861575b4281106118525761144a844292612260565b111561184357835f525f60205260405f2092611468600435856121a7565b6024356005850155600684015560643560078401558254610100600160a81b0319163360081b610100600160a81b03161783556101c43560018401556101e4356002840155610204356003840155600c8301916001600160401b03821161178d5781906114d58454611e9b565b601f8111611813575b505f90601f83116001146117ac575f926117a1575b50508160011b915f199060031b1c19161790555b600d810160843580151590818103610191575081549060a43580151590818103610191575062ff00006115386121e2565b60101b169160e4359060ff821682036101915763ff0000008261ff00935060181b169460ff63ff0000001992169062ffffff191617169160081b16171717905561010435600e82015561012435600f820155610144356010820155610164356011820155601281016115b06101843560040135611fd7565b60ff61018435600401351660ff19825416179055602461018435013560138201556115e56014820193610184356004016121f2565b6001600160401b03819592951161178d576116008254611e9b565b601f811161175d575b505f601f82116001146116fa5781929394955f926116ef575b50508160011b915f199060031b1c19161790555b600a4391015560025463ffffffff811663ffffffff81146116db57600163ffffffff9101169063ffffffff191617600255335f52600160205260405f20908154916001600160401b038316926001600160401b0384146116db576001600160401b0360016020950116906001600160401b0319161790556040519033817fada6f87a2a16a0c9c169ca36754c5f33f7c1a973b575d068f888a549ed4faefa5f80a38152f35b634e487b7160e01b5f52601160045260245ffd5b013590508580611622565b601f19821695835f5260205f20915f5b8881106117455750836001959697981061172c575b505050811b019055611636565b01355f19600384901b60f8161c1916905585808061171f565b9092602060018192868601358155019401910161170a565b61178790835f5260205f20601f840160051c8101916020851061044257601f0160051c01906121cc565b85611609565b634e487b7160e01b5f52604160045260245ffd5b0135905086806114f3565b909150601f19831691845f5260205f20925f5b8181106117fb57509084600195949392106117e2575b505050811b019055611507565b01355f19600384901b60f8161c191690558680806117d5565b919360206001819287870135815501950192016117bf565b61183d90855f5260205f20601f850160051c8101916020861061044257601f0160051c01906121cc565b876114de565b637616640160e01b5f5260045ffd5b632ca4094f60e21b5f5260045ffd5b5042611438565b50611874600435611fd7565b6004351515801561142b575061188b600435611fd7565b6003600435141561142b565b630f8b932160e11b5f5260045ffd5b635e32eadd60e01b5f5260045ffd5b63f37f7b5d60e01b5f5260045ffd5b632c45be6f60e01b5f5260045ffd5b636d403ec760e11b5f5260045ffd5b63207ea56d60e01b5f5260045ffd5b634dba795160e01b5f5260045ffd5b63ac38930b60e01b5f5260045ffd5b50600860ff61191c6121e2565b1611611382565b635040c4d360e11b5f5260045ffd5b3461019157611940366120dc565b8115610f5c5763ffffffff8060035460a01c161663ffffffff8360401c1603610f4d575f8281526020819052604090208054600881901c6001600160a01b03168015610f3e573303611a095760ff1661199881611fd7565b80151590816119f4575b50610f1c57811580156119e7575b6118c457817fdbed30289c8edb9c8e40449ce45792cee5b9eba7c798afbadbcb4345699f1e249260076020930155604051908152a2005b50600881015482106119b0565b60039150611a0181611fd7565b1415846119a2565b6282b42960e81b5f5260045ffd5b611dd3565b34610191576020366003190112610191576004356001600160a01b03811690818103610191576003545f92835260016020908152604090932054606092831b6bffffffffffffffffffffffff19169190921c63ffffffff60401b16176001600160401b039190911617610bd8565b34610191576020366003190112610191576004356001600160a01b03811690819003610191575f52600160205260206001600160401b0360405f205416604051908152f35b34610191576040366003190112610191576004356024356005811015610191578115610f5c5763ffffffff8060035460a01c161663ffffffff8360401c1603610f4d57611b1b81611fd7565b600460ff821611610f1c57815f525f60205260405f2090815460018060a01b038160081c168015610f3e573303611a095760ff1690611b5a81836122c2565b15610f1c578383611b8c837f2f25f350b681441b5bb45430fbe61e78d0170cff4ad02cb0aa48a6427909aa8c966121a7565b611b9583611fd7565b60018314611bc3575b505060405191611bad81611fd7565b8252611bb881611fd7565b6020820152604090a2005b602060067f0f759826327c668a220d576485ac38ddc4f83fbc414b984c00e79f669b649f46926005810154804210155f14611c1657611c0290426121bf565b9182915b0155604051908152a28385611b9e565b505f918291611c06565b34610191575f366003190112610191576002546040805163233ace1160e01b81529160209183916004918391901c6001600160a01b03165afa8015610ee7575f9061016657602090604051908152f35b34610191575f3660031901126101915760206040515f8152f35b34610191575f366003190112610191576002546040805191901c6001600160a01b03168152602090f35b34610191576020366003190112610191576004355f525f60205260405f2080549060ff82169060018101611ce790611e7d565b9060038101546005820154600683015460078401546008850154600986015491600a87015493600b88015495600c8901611d2090611ed3565b97611d2d600d8b01611f73565b99601201611d3a90611ff5565b9a604051809e8e829f611d4c90611fd7565b825260081c6001600160a01b0316602091820152815160408f0152015160608d015260808c015260a08b015260c08a015260e08901526101008801526101208701526101408601526101608501526102c06101808501819052611db29190850190612030565b906101a08401611dc191612054565b8281036102a084015261124c916120a9565b34610191575f36600319011261019157602060405160048152f35b6101e081019081106001600160401b0382111761178d57604052565b604081019081106001600160401b0382111761178d57604052565b606081019081106001600160401b0382111761178d57604052565b61010081019081106001600160401b0382111761178d57604052565b90601f801991011681019081106001600160401b0382111761178d57604052565b90604051611e8a81611e0a565b602060018294805484520154910152565b90600182811c92168015611ec9575b6020831014611eb557565b634e487b7160e01b5f52602260045260245ffd5b91607f1691611eaa565b9060405191825f825492611ee684611e9b565b8084529360018116908115611f515750600114611f0d575b50611f0b92500383611e5c565b565b90505f9291925260205f20905f915b818310611f35575050906020611f0b928201015f611efe565b6020919350806001915483858901015201910190918492611f1c565b905060209250611f0b94915060ff191682840152151560051b8201015f611efe565b90604051611f8081611e40565b60e06004829460ff815481811615158652818160081c1615156020870152818160101c16604087015260181c16606085015260018101546080850152600281015460a0850152600381015460c08501520154910152565b60051115611fe157565b634e487b7160e01b5f52602160045260245ffd5b9060405161200281611e25565b604061202b6002839560ff81541661201981611fd7565b85526001810154602086015201611ed3565b910152565b805180835260209291819084018484015e5f828201840152601f01601f1916010190565b60e0809180511515845260208101511515602085015260ff604082015116604085015260ff60608201511660608501526080810151608085015260a081015160a085015260c081015160c08501520151910152565b90606060406120d99380516120bd81611fd7565b8452602081015160208501520151918160408201520190612030565b90565b6040906003190112610191576004359060243590565b9181601f84011215610191578235916001600160401b038311610191576020838186019501011161019157565b90602080835192838152019201905f5b81811061213c5750505090565b825184526020938401939092019160010161212f565b90606060031983011261019157600435916024356001600160401b0381116101915781612181916004016120f2565b92909291604435906001600160401b038211610191576121a3916004016120f2565b9091565b906121b181611fd7565b60ff80198354169116179055565b919082039182116116db57565b8181106121d7575050565b5f81556001016121cc565b60c43560ff811681036101915790565b903590601e198136030182121561019157018035906001600160401b0382116101915760200191813603831361019157565b6040519061223182611e40565b5f60e0838281528260208201528260408201528260608201528260808201528260a08201528260c08201520152565b919082018092116116db57565b908060209392818452848401375f828201840152601f01601f1916010190565b92906122a6906120d9959360408652604086019161226d565b92602081850391015261226d565b5f1981146116db5760010190565b6122cb81611fd7565b6122d482611fd7565b808214612381576122e481611fd7565b60028114801561239a575b8015612387575b6123815761230381611fd7565b80156123625760039061231581611fd7565b1461231f57505f90565b61232881611fd7565b801590811561234d575b811561233c575090565b6001915061234981611fd7565b1490565b905061235881611fd7565b6002811490612332565b5061236c81611fd7565b6003811490811561234d57811561233c575090565b50505f90565b5061239181611fd7565b600181146122f6565b506123a481611fd7565b600481146122ef565b80519081156123815760205f9183829460405193849301835e8101838152039060025afa15610ee7575f516001600160f81b0316600160f81b1790565b5f5b8049801561240c57821461240857612403906122b4565b6123ec565b5050565b630110b90960e61b5f5260045ffdfea2646970667358221220485edded4ea52d8d2552837cd15508ebd4d88f67043227ddbbb13953af812c8264736f6c634300081c0033","opcodes":"PUSH1 0x80 DUP1 PUSH1 0x40 MSTORE CALLVALUE PUSH2 0x11E JUMPI PUSH1 0x80 DUP2 PUSH2 0x25BF DUP1 CODESIZE SUB DUP1 SWAP2 PUSH2 0x1F DUP3 DUP6 PUSH2 0x122 JUMP JUMPDEST DUP4 CODECOPY DUP2 ADD SUB SLT PUSH2 0x11E JUMPI DUP1 MLOAD PUSH4 0xFFFFFFFF DUP2 AND DUP2 SUB PUSH2 0x11E JUMPI PUSH2 0x44 PUSH1 0x20 DUP4 ADD PUSH2 0x159 JUMP JUMPDEST PUSH1 0x60 PUSH2 0x52 PUSH1 0x40 DUP6 ADD PUSH2 0x159 JUMP JUMPDEST SWAP4 ADD MLOAD SWAP2 DUP3 ISZERO ISZERO DUP1 SWAP4 SUB PUSH2 0x11E JUMPI PUSH1 0x2 DUP1 SLOAD PUSH1 0x3 SLOAD PUSH1 0x1 PUSH1 0x20 SHL PUSH1 0x1 PUSH1 0xE0 SHL SUB NOT SWAP1 SWAP2 AND PUSH1 0x40 SWAP5 DUP6 SHL PUSH1 0x1 PUSH1 0x40 SHL PUSH1 0x1 PUSH1 0xE0 SHL SUB AND OR PUSH1 0x20 DUP5 DUP2 SHL PUSH8 0xFFFFFFFF00000000 AND SWAP2 SWAP1 SWAP2 OR SWAP1 SWAP3 SSTORE SWAP3 MLOAD PUSH1 0xE0 SWAP3 SWAP1 SWAP3 SHL PUSH1 0x1 PUSH1 0x1 PUSH1 0xE0 SHL SUB NOT AND SWAP1 DUP3 ADD SWAP1 DUP2 MSTORE ADDRESS PUSH1 0x60 SHL PUSH1 0x24 DUP4 ADD MSTORE PUSH1 0x18 DUP3 MSTORE PUSH2 0xCE PUSH1 0x38 DUP4 PUSH2 0x122 JUMP JUMPDEST SWAP1 MLOAD SWAP1 KECCAK256 PUSH4 0xFFFFFFFF PUSH1 0xA0 SHL PUSH1 0xA0 SWAP2 SWAP1 SWAP2 SHL AND PUSH1 0x1 PUSH1 0x1 PUSH1 0xA0 SHL SUB SWAP4 SWAP1 SWAP4 AND PUSH1 0x1 PUSH1 0x1 PUSH1 0xC8 SHL SUB NOT SWAP2 SWAP1 SWAP2 AND OR PUSH1 0xFF PUSH1 0xC0 SHL PUSH1 0xC0 SWAP3 SWAP1 SWAP3 SHL SWAP2 SWAP1 SWAP2 AND OR OR PUSH1 0x3 SSTORE PUSH1 0x40 MLOAD PUSH2 0x2451 SWAP1 DUP2 PUSH2 0x16E DUP3 CODECOPY RETURN JUMPDEST PUSH0 DUP1 REVERT JUMPDEST PUSH1 0x1F SWAP1 SWAP2 ADD PUSH1 0x1F NOT AND DUP2 ADD SWAP1 PUSH1 0x1 PUSH1 0x1 PUSH1 0x40 SHL SUB DUP3 GT SWAP1 DUP3 LT OR PUSH2 0x145 JUMPI PUSH1 0x40 MSTORE JUMP JUMPDEST PUSH4 0x4E487B71 PUSH1 0xE0 SHL PUSH0 MSTORE PUSH1 0x41 PUSH1 0x4 MSTORE PUSH1 0x24 PUSH0 REVERT JUMPDEST MLOAD SWAP1 PUSH1 0x1 PUSH1 0x1 PUSH1 0xA0 SHL SUB DUP3 AND DUP3 SUB PUSH2 0x11E JUMPI JUMP INVALID PUSH1 0x80 PUSH1 0x40 MSTORE PUSH1 0x4 CALLDATASIZE LT ISZERO PUSH2 0x11 JUMPI PUSH0 DUP1 REVERT JUMPDEST PUSH0 PUSH0 CALLDATALOAD PUSH1 0xE0 SHR DUP1 PUSH4 0x2CC919A EQ PUSH2 0x1DD3 JUMPI DUP1 PUSH4 0x535FECE EQ PUSH2 0x1CB4 JUMPI DUP1 PUSH4 0x9706392 EQ PUSH2 0x1C8A JUMPI DUP1 PUSH4 0x26795BC3 EQ PUSH2 0x1C70 JUMPI DUP1 PUSH4 0x4C0ACC56 EQ PUSH2 0x1C20 JUMPI DUP1 PUSH4 0x56A6F1E2 EQ PUSH2 0x1ACF JUMPI DUP1 PUSH4 0x62FA11FC EQ PUSH2 0x1A8A JUMPI DUP1 PUSH4 0x68141F2C EQ PUSH2 0x1A1C JUMPI DUP1 PUSH4 0x72C628EF EQ PUSH2 0x1A17 JUMPI DUP1 PUSH4 0x74E07826 EQ PUSH2 0x1932 JUMPI DUP1 PUSH4 0x75462F70 EQ PUSH2 0x128C JUMPI DUP1 PUSH4 0x848DF540 EQ PUSH2 0x1269 JUMPI DUP1 PUSH4 0x992BC45B EQ PUSH2 0xF93 JUMPI DUP1 PUSH4 0x9C18DEAF EQ PUSH2 0xF6B JUMPI DUP1 PUSH4 0xA5B110DE EQ PUSH2 0xBF6 JUMPI DUP1 PUSH4 0xA5F01E19 EQ PUSH2 0xAA5 JUMPI DUP1 PUSH4 0xADC879E9 EQ PUSH2 0xA7F JUMPI DUP1 PUSH4 0xC718C01F EQ PUSH2 0x913 JUMPI DUP1 PUSH4 0xCDDF08BC EQ PUSH2 0x8EC JUMPI DUP1 PUSH4 0xCDF497C8 EQ PUSH2 0x8C6 JUMPI DUP1 PUSH4 0xD71D072E EQ PUSH2 0x516 JUMPI DUP1 PUSH4 0xF4C2A3BB EQ PUSH2 0x1AC JUMPI PUSH4 0xF9AA4499 EQ PUSH2 0x117 JUMPI PUSH0 DUP1 REVERT JUMPDEST CALLVALUE PUSH2 0x1A9 JUMPI DUP1 PUSH1 0x3 NOT CALLDATASIZE ADD SLT PUSH2 0x1A9 JUMPI PUSH1 0x3 SLOAD PUSH1 0x40 MLOAD PUSH4 0x233ACE11 PUSH1 0xE0 SHL DUP2 MSTORE SWAP2 SWAP1 PUSH1 0x20 SWAP1 DUP4 SWAP1 PUSH1 0x4 SWAP1 DUP3 SWAP1 PUSH1 0x1 PUSH1 0x1 PUSH1 0xA0 SHL SUB AND GAS STATICCALL SWAP1 DUP2 ISZERO PUSH2 0x19D JUMPI SWAP1 PUSH2 0x166 JUMPI JUMPDEST PUSH1 0x20 SWAP1 PUSH1 0x40 MLOAD SWAP1 DUP2 MSTORE RETURN JUMPDEST POP PUSH1 0x20 DUP2 RETURNDATASIZE PUSH1 0x20 GT PUSH2 0x195 JUMPI JUMPDEST DUP2 PUSH2 0x180 PUSH1 0x20 SWAP4 DUP4 PUSH2 0x1E5C JUMP JUMPDEST DUP2 ADD SUB SLT PUSH2 0x191 JUMPI PUSH1 0x20 SWAP1 MLOAD PUSH2 0x15B JUMP JUMPDEST PUSH0 DUP1 REVERT JUMPDEST RETURNDATASIZE SWAP2 POP PUSH2 0x173 JUMP JUMPDEST PUSH1 0x40 MLOAD SWAP1 RETURNDATASIZE SWAP1 DUP3 RETURNDATACOPY RETURNDATASIZE SWAP1 REVERT JUMPDEST DUP1 REVERT JUMPDEST POP CALLVALUE PUSH2 0x1A9 JUMPI PUSH1 0x40 CALLDATASIZE PUSH1 0x3 NOT ADD SLT PUSH2 0x1A9 JUMPI PUSH1 0x4 CALLDATALOAD PUSH1 0x24 CALLDATALOAD PUSH1 0x1 PUSH1 0x1 PUSH1 0x40 SHL SUB DUP2 GT PUSH2 0x512 JUMPI DUP1 PUSH1 0x4 ADD PUSH1 0x60 PUSH1 0x3 NOT DUP4 CALLDATASIZE SUB ADD SLT PUSH2 0x50E JUMPI DUP3 ISZERO PUSH2 0x4FF JUMPI PUSH4 0xFFFFFFFF DUP1 PUSH1 0x3 SLOAD PUSH1 0xA0 SHR AND AND PUSH4 0xFFFFFFFF DUP5 PUSH1 0x40 SHR AND SUB PUSH2 0x4F0 JUMPI DUP3 DUP5 MSTORE PUSH1 0x20 DUP5 SWAP1 MSTORE PUSH1 0x40 DUP5 KECCAK256 DUP1 SLOAD SWAP2 SWAP1 PUSH1 0x8 DUP4 SWAP1 SHR PUSH1 0x1 PUSH1 0x1 PUSH1 0xA0 SHL SUB AND DUP1 ISZERO PUSH2 0x4E1 JUMPI CALLER SUB PUSH2 0x4D3 JUMPI PUSH1 0xFF PUSH1 0x12 DUP3 ADD SLOAD AND PUSH2 0x242 DUP2 PUSH2 0x1FD7 JUMP JUMPDEST PUSH1 0x2 DUP2 SUB PUSH2 0x4C4 JUMPI DUP3 CALLDATALOAD SWAP1 PUSH1 0x5 DUP3 LT ISZERO PUSH2 0x4C0 JUMPI PUSH2 0x25F DUP3 PUSH2 0x1FD7 JUMP JUMPDEST PUSH2 0x268 DUP2 PUSH2 0x1FD7 JUMP JUMPDEST SUB PUSH2 0x4B1 JUMPI PUSH1 0x24 DUP5 ADD CALLDATALOAD SWAP4 DUP5 ISZERO PUSH2 0x4A2 JUMPI PUSH1 0x44 ADD SWAP3 PUSH2 0x287 DUP5 DUP5 PUSH2 0x21F2 JUMP JUMPDEST SWAP1 POP ISZERO PUSH2 0x493 JUMPI PUSH1 0xFF AND PUSH2 0x29A DUP2 PUSH2 0x1FD7 JUMP JUMPDEST DUP1 ISZERO ISZERO SWAP1 DUP2 PUSH2 0x47E JUMPI JUMPDEST POP PUSH2 0x46F JUMPI PUSH2 0x2BC PUSH1 0x5 DUP3 ADD SLOAD PUSH1 0x6 DUP4 ADD SLOAD SWAP1 PUSH2 0x2260 JUMP JUMPDEST TIMESTAMP LT ISZERO PUSH2 0x460 JUMPI DUP4 PUSH1 0x13 DUP3 ADD SSTORE PUSH1 0x14 PUSH2 0x2D5 DUP5 DUP5 PUSH2 0x21F2 JUMP JUMPDEST SWAP2 SWAP1 SWAP3 ADD SWAP2 PUSH1 0x1 PUSH1 0x1 PUSH1 0x40 SHL SUB DUP3 GT PUSH2 0x44C JUMPI PUSH2 0x2F2 DUP4 SLOAD PUSH2 0x1E9B JUMP JUMPDEST PUSH1 0x1F DUP2 GT PUSH2 0x411 JUMPI JUMPDEST POP DUP8 SWAP1 PUSH1 0x1F DUP4 GT PUSH1 0x1 EQ PUSH2 0x383 JUMPI SWAP3 DUP3 PUSH2 0x372 SWAP7 SWAP4 PUSH32 0x87E1C82BC035C552E997EC2F1CF023790CED0CC01098D516DC6E7200835FFB27 SWAP9 SWAP7 SWAP4 PUSH2 0x357 SWAP7 DUP13 SWAP3 PUSH2 0x378 JUMPI JUMPDEST POP POP DUP2 PUSH1 0x1 SHL SWAP2 PUSH0 NOT SWAP1 PUSH1 0x3 SHL SHR NOT AND OR SWAP1 SSTORE PUSH2 0x21F2 JUMP JUMPDEST SWAP3 SWAP1 PUSH1 0x40 MLOAD SWAP4 DUP5 SWAP4 DUP5 MSTORE PUSH1 0x40 PUSH1 0x20 DUP6 ADD MSTORE PUSH1 0x40 DUP5 ADD SWAP2 PUSH2 0x226D JUMP JUMPDEST SUB SWAP1 LOG2 DUP1 RETURN JUMPDEST ADD CALLDATALOAD SWAP1 POP PUSH0 DUP1 PUSH2 0x33F JUMP JUMPDEST DUP4 DUP10 MSTORE PUSH1 0x20 DUP10 KECCAK256 SWAP2 PUSH1 0x1F NOT DUP5 AND DUP11 JUMPDEST DUP2 DUP2 LT PUSH2 0x3F9 JUMPI POP SWAP4 PUSH32 0x87E1C82BC035C552E997EC2F1CF023790CED0CC01098D516DC6E7200835FFB27 SWAP9 SWAP7 SWAP4 PUSH2 0x357 SWAP7 SWAP4 PUSH1 0x1 SWAP4 DUP4 PUSH2 0x372 SWAP12 SWAP9 LT PUSH2 0x3E0 JUMPI JUMPDEST POP POP POP DUP2 SHL ADD SWAP1 SSTORE PUSH2 0x21F2 JUMP JUMPDEST ADD CALLDATALOAD PUSH0 NOT PUSH1 0x3 DUP5 SWAP1 SHL PUSH1 0xF8 AND SHR NOT AND SWAP1 SSTORE PUSH0 DUP1 DUP1 PUSH2 0x3D3 JUMP JUMPDEST SWAP2 SWAP4 PUSH1 0x20 PUSH1 0x1 DUP2 SWAP3 DUP8 DUP8 ADD CALLDATALOAD DUP2 SSTORE ADD SWAP6 ADD SWAP3 ADD PUSH2 0x392 JUMP JUMPDEST PUSH2 0x43C SWAP1 DUP5 DUP11 MSTORE PUSH1 0x20 DUP11 KECCAK256 PUSH1 0x1F DUP6 ADD PUSH1 0x5 SHR DUP2 ADD SWAP2 PUSH1 0x20 DUP7 LT PUSH2 0x442 JUMPI JUMPDEST PUSH1 0x1F ADD PUSH1 0x5 SHR ADD SWAP1 PUSH2 0x21CC JUMP JUMPDEST PUSH0 PUSH2 0x2FB JUMP JUMPDEST SWAP1 SWAP2 POP DUP2 SWAP1 PUSH2 0x42F JUMP JUMPDEST PUSH4 0x4E487B71 PUSH1 0xE0 SHL DUP9 MSTORE PUSH1 0x41 PUSH1 0x4 MSTORE PUSH1 0x24 DUP9 REVERT JUMPDEST PUSH4 0xE843C5EB PUSH1 0xE0 SHL DUP7 MSTORE PUSH1 0x4 DUP7 REVERT JUMPDEST PUSH4 0x7A92F19 PUSH1 0xE5 SHL DUP7 MSTORE PUSH1 0x4 DUP7 REVERT JUMPDEST PUSH1 0x3 SWAP2 POP PUSH2 0x48B DUP2 PUSH2 0x1FD7 JUMP JUMPDEST EQ ISZERO PUSH0 PUSH2 0x2A4 JUMP JUMPDEST PUSH4 0xF8B9321 PUSH1 0xE1 SHL DUP8 MSTORE PUSH1 0x4 DUP8 REVERT JUMPDEST PUSH4 0x5E32EADD PUSH1 0xE0 SHL DUP8 MSTORE PUSH1 0x4 DUP8 REVERT JUMPDEST PUSH4 0xF37F7B5D PUSH1 0xE0 SHL DUP7 MSTORE PUSH1 0x4 DUP7 REVERT JUMPDEST DUP8 DUP1 REVERT JUMPDEST PUSH4 0x50B77C7 PUSH1 0xE2 SHL DUP8 MSTORE PUSH1 0x4 DUP8 REVERT JUMPDEST PUSH3 0x82B429 PUSH1 0xE8 SHL DUP7 MSTORE PUSH1 0x4 DUP7 REVERT JUMPDEST PUSH4 0x4D36EB69 PUSH1 0xE0 SHL DUP8 MSTORE PUSH1 0x4 DUP8 REVERT JUMPDEST PUSH4 0x2299770D PUSH1 0xE1 SHL DUP5 MSTORE PUSH1 0x4 DUP5 REVERT JUMPDEST PUSH4 0xCBF4A645 PUSH1 0xE0 SHL DUP5 MSTORE PUSH1 0x4 DUP5 REVERT JUMPDEST DUP4 DUP1 REVERT JUMPDEST DUP3 DUP1 REVERT JUMPDEST POP CALLVALUE PUSH2 0x1A9 JUMPI PUSH2 0x525 CALLDATASIZE PUSH2 0x2152 JUMP JUMPDEST SWAP2 SWAP1 DUP5 SWAP4 SWAP5 ISZERO PUSH2 0x8B7 JUMPI PUSH1 0x3 SLOAD SWAP2 PUSH4 0xFFFFFFFF DUP1 DUP5 PUSH1 0xA0 SHR AND AND PUSH4 0xFFFFFFFF DUP7 PUSH1 0x40 SHR AND SUB PUSH2 0x8A8 JUMPI DUP5 DUP8 MSTORE DUP7 PUSH1 0x20 MSTORE PUSH1 0x40 DUP8 KECCAK256 SWAP4 DUP5 SLOAD PUSH1 0x1 DUP1 PUSH1 0xA0 SHL SUB DUP2 PUSH1 0x8 SHR AND ISZERO PUSH2 0x899 JUMPI PUSH1 0xFF AND PUSH2 0x579 DUP2 PUSH2 0x1FD7 JUMP JUMPDEST PUSH2 0x88A JUMPI PUSH2 0x590 PUSH1 0x5 DUP7 ADD SLOAD PUSH1 0x6 DUP8 ADD SLOAD SWAP1 PUSH2 0x2260 JUMP JUMPDEST TIMESTAMP LT ISZERO PUSH2 0x87B JUMPI PUSH2 0x59F PUSH2 0x2224 JUMP JUMPDEST POP DUP1 DUP4 ADD SWAP7 PUSH2 0x100 DUP5 DUP10 SUB SLT PUSH2 0x877 JUMPI DUP8 PUSH1 0x1F DUP6 ADD SLT ISZERO PUSH2 0x877 JUMPI PUSH1 0x40 MLOAD SWAP8 PUSH2 0x100 PUSH2 0x5CB DUP2 DUP12 PUSH2 0x1E5C JUMP JUMPDEST DUP10 SWAP1 DUP7 ADD SWAP2 DUP3 GT PUSH2 0x873 JUMPI DUP6 SWAP1 JUMPDEST DUP3 DUP3 LT PUSH2 0x863 JUMPI POP POP POP DUP8 MLOAD SWAP4 PUSH1 0x20 DUP10 ADD MLOAD SWAP4 PUSH1 0x40 DUP11 ADD MLOAD SWAP10 PUSH1 0x60 DUP2 ADD MLOAD SWAP6 PUSH1 0x80 DUP3 ADD MLOAD SWAP12 PUSH1 0xA0 DUP4 ADD MLOAD SWAP1 PUSH1 0xC0 DUP5 ADD MLOAD SWAP4 PUSH1 0xE0 ADD MLOAD SWAP3 PUSH1 0x40 MLOAD SWAP15 DUP16 SWAP2 PUSH2 0x61E DUP4 PUSH2 0x1E40 JUMP JUMPDEST DUP13 DUP4 MSTORE PUSH1 0x20 DUP4 ADD MSTORE PUSH1 0x40 DUP3 ADD SWAP3 DUP4 MSTORE PUSH1 0x60 DUP3 ADD SWAP11 DUP12 MSTORE PUSH1 0x80 DUP3 ADD MSTORE PUSH1 0xA0 ADD SWAP2 DUP3 MSTORE DUP14 PUSH1 0xC0 DUP2 ADD SWAP5 DUP6 MSTORE PUSH1 0xE0 ADD SWAP3 DUP4 MSTORE PUSH1 0x3 DUP13 ADD SWAP10 DUP11 SLOAD SUB PUSH2 0x854 JUMPI MLOAD DUP9 MLOAD PUSH2 0x665 SWAP2 PUSH2 0x21BF JUMP JUMPDEST SWAP10 DUP11 ISZERO ISZERO DUP1 PUSH2 0x842 JUMPI JUMPDEST PUSH2 0x833 JUMPI SWAP1 PUSH1 0xFF DUP16 SWAP9 SWAP8 SWAP7 SWAP6 SWAP5 SWAP4 SWAP3 PUSH1 0xC0 SHR AND PUSH2 0x77F JUMPI JUMPDEST POP POP PUSH1 0x2 SLOAD PUSH1 0x40 SHR PUSH1 0x1 PUSH1 0x1 PUSH1 0xA0 SHL SUB AND SWAP2 SWAP1 POP DUP2 EXTCODESIZE ISZERO PUSH2 0x77B JUMPI DUP6 SWAP4 PUSH2 0x6C4 PUSH1 0x40 MLOAD SWAP7 DUP8 SWAP6 DUP7 SWAP5 DUP6 SWAP5 PUSH4 0x5C73957B PUSH1 0xE1 SHL DUP7 MSTORE PUSH1 0x4 DUP7 ADD PUSH2 0x228D JUMP JUMPDEST SUB SWAP2 GAS STATICCALL DUP1 ISZERO PUSH2 0x770 JUMPI PUSH2 0x757 JUMPI JUMPDEST POP POP PUSH1 0xB SWAP2 PUSH1 0x20 DUP8 ADD MLOAD SWAP1 SSTORE PUSH2 0x6EE PUSH1 0x8 DUP6 ADD SWAP4 DUP5 SLOAD PUSH2 0x2260 JUMP JUMPDEST DUP1 SWAP4 SSTORE MLOAD SWAP3 PUSH2 0x702 PUSH1 0x9 DUP3 ADD SWAP5 DUP6 SLOAD PUSH2 0x2260 JUMP JUMPDEST DUP1 SWAP5 SSTORE ADD PUSH2 0x710 DUP2 SLOAD PUSH2 0x22B4 JUMP JUMPDEST SWAP1 SSTORE PUSH1 0x20 DUP5 MLOAD SWAP5 ADD MLOAD PUSH1 0x40 MLOAD SWAP5 DUP6 MSTORE PUSH1 0x20 DUP6 ADD MSTORE PUSH1 0x40 DUP5 ADD MSTORE PUSH1 0x60 DUP4 ADD MSTORE PUSH32 0x43B1A882C73BC84AE667608D3A61BAECECD99134224962EBA9D13EB63C595AE1 PUSH1 0x80 CALLER SWAP4 LOG3 DUP1 RETURN JUMPDEST DUP2 PUSH2 0x761 SWAP2 PUSH2 0x1E5C JUMP JUMPDEST PUSH2 0x76C JUMPI DUP7 PUSH0 PUSH2 0x6D3 JUMP JUMPDEST DUP7 DUP1 REVERT JUMPDEST PUSH1 0x40 MLOAD RETURNDATASIZE DUP5 DUP3 RETURNDATACOPY RETURNDATASIZE SWAP1 REVERT JUMPDEST DUP6 DUP1 REVERT JUMPDEST SWAP1 SWAP2 SWAP3 SWAP4 SWAP5 SWAP6 SWAP7 POP MLOAD SWAP2 MLOAD SWAP1 MLOAD SWAP1 PUSH1 0x40 MLOAD SWAP3 PUSH2 0x79C PUSH1 0x60 DUP6 PUSH2 0x1E5C JUMP JUMPDEST PUSH1 0x30 DUP5 MSTORE PUSH1 0x20 DUP5 ADD SWAP1 PUSH1 0x40 CALLDATASIZE DUP4 CALLDATACOPY DUP1 PUSH1 0x80 SHR PUSH2 0x81E JUMPI PUSH1 0x80 SHL SWAP1 MSTORE DUP1 PUSH1 0x80 SHR PUSH2 0x80A JUMPI PUSH1 0x80 SHL PUSH1 0x30 DUP4 ADD MSTORE DUP1 PUSH1 0x80 SHR PUSH2 0x7F6 JUMPI PUSH2 0x7E9 DUP14 SWAP7 SWAP6 SWAP5 SWAP4 SWAP3 PUSH2 0x7EE SWAP3 PUSH1 0x80 SHL PUSH1 0x40 DUP3 ADD MSTORE PUSH2 0x23AD JUMP JUMPDEST PUSH2 0x23EA JUMP JUMPDEST PUSH0 DUP1 DUP1 PUSH2 0x687 JUMP JUMPDEST PUSH4 0x16416A3D PUSH1 0xE0 SHL DUP14 MSTORE PUSH1 0x2 PUSH1 0x4 MSTORE PUSH1 0x24 DUP14 REVERT JUMPDEST PUSH4 0x16416A3D PUSH1 0xE0 SHL DUP15 MSTORE PUSH1 0x1 PUSH1 0x4 MSTORE PUSH1 0x24 DUP15 REVERT JUMPDEST POP PUSH4 0x16416A3D PUSH1 0xE0 SHL DUP16 MSTORE PUSH1 0x4 DUP16 SWAP1 MSTORE PUSH1 0x24 DUP16 REVERT JUMPDEST PUSH4 0x57D18D53 PUSH1 0xE1 SHL DUP16 MSTORE PUSH1 0x4 DUP16 REVERT JUMPDEST POP PUSH1 0x8 DUP13 ADD SLOAD PUSH1 0x7 DUP14 ADD SLOAD GT ISZERO PUSH2 0x66F JUMP JUMPDEST PUSH4 0xB6FAC03 PUSH1 0xE4 SHL DUP16 MSTORE PUSH1 0x4 DUP16 REVERT JUMPDEST DUP2 CALLDATALOAD DUP2 MSTORE PUSH1 0x20 SWAP2 DUP3 ADD SWAP2 ADD PUSH2 0x5D9 JUMP JUMPDEST DUP11 DUP1 REVERT JUMPDEST DUP9 DUP1 REVERT JUMPDEST PUSH4 0xE843C5EB PUSH1 0xE0 SHL DUP9 MSTORE PUSH1 0x4 DUP9 REVERT JUMPDEST PUSH4 0x7A92F19 PUSH1 0xE5 SHL DUP9 MSTORE PUSH1 0x4 DUP9 REVERT JUMPDEST PUSH4 0x4D36EB69 PUSH1 0xE0 SHL DUP10 MSTORE PUSH1 0x4 DUP10 REVERT JUMPDEST PUSH4 0x2299770D PUSH1 0xE1 SHL DUP8 MSTORE PUSH1 0x4 DUP8 REVERT JUMPDEST PUSH4 0xCBF4A645 PUSH1 0xE0 SHL DUP7 MSTORE PUSH1 0x4 DUP7 REVERT JUMPDEST POP CALLVALUE PUSH2 0x1A9 JUMPI DUP1 PUSH1 0x3 NOT CALLDATASIZE ADD SLT PUSH2 0x1A9 JUMPI PUSH1 0x20 PUSH1 0xFF PUSH1 0x3 SLOAD PUSH1 0xC0 SHR AND PUSH1 0x40 MLOAD SWAP1 ISZERO ISZERO DUP2 MSTORE RETURN JUMPDEST POP CALLVALUE PUSH2 0x1A9 JUMPI DUP1 PUSH1 0x3 NOT CALLDATASIZE ADD SLT PUSH2 0x1A9 JUMPI PUSH1 0x20 PUSH4 0xFFFFFFFF PUSH1 0x3 SLOAD PUSH1 0xA0 SHR AND PUSH1 0x40 MLOAD SWAP1 DUP2 MSTORE RETURN JUMPDEST POP CALLVALUE PUSH2 0x1A9 JUMPI PUSH2 0x922 CALLDATASIZE PUSH2 0x20DC JUMP JUMPDEST DUP2 ISZERO PUSH2 0xA70 JUMPI PUSH4 0xFFFFFFFF DUP1 PUSH1 0x3 SLOAD PUSH1 0xA0 SHR AND AND PUSH4 0xFFFFFFFF DUP4 PUSH1 0x40 SHR AND SUB PUSH2 0xA61 JUMPI DUP2 DUP4 MSTORE PUSH1 0x20 DUP4 SWAP1 MSTORE PUSH1 0x40 DUP4 KECCAK256 DUP1 SLOAD PUSH1 0x8 DUP2 SWAP1 SHR PUSH1 0x1 PUSH1 0x1 PUSH1 0xA0 SHL SUB AND DUP1 ISZERO PUSH2 0xA52 JUMPI CALLER SUB PUSH2 0xA44 JUMPI PUSH1 0xFF AND PUSH2 0x979 DUP2 PUSH2 0x1FD7 JUMP JUMPDEST DUP1 ISZERO ISZERO SWAP1 DUP2 PUSH2 0xA2F JUMPI JUMPDEST POP PUSH2 0xA20 JUMPI PUSH1 0x6 PUSH1 0x5 DUP3 ADD SLOAD SWAP2 ADD SWAP1 DUP2 SLOAD SWAP1 DUP4 ISZERO SWAP2 DUP3 ISZERO PUSH2 0xA0B JUMPI JUMPDEST DUP3 ISZERO PUSH2 0x9EC JUMPI JUMPDEST POP POP PUSH2 0x9DD JUMPI DUP2 PUSH32 0xF759826327C668A220D576485AC38DDC4F83FBC414B984C00E79F669B649F46 SWAP3 PUSH1 0x20 SWAP3 SSTORE PUSH1 0x40 MLOAD SWAP1 DUP2 MSTORE LOG2 DUP1 RETURN JUMPDEST PUSH4 0x76166401 PUSH1 0xE0 SHL DUP5 MSTORE PUSH1 0x4 DUP5 REVERT JUMPDEST DUP2 SWAP3 POP PUSH2 0x9FC DUP6 PUSH2 0xA02 SWAP4 PUSH2 0x2260 JUMP JUMPDEST SWAP3 PUSH2 0x2260 JUMP JUMPDEST LT ISZERO PUSH0 DUP1 PUSH2 0x9A6 JUMP JUMPDEST SWAP2 POP PUSH2 0xA17 DUP5 DUP3 PUSH2 0x2260 JUMP JUMPDEST TIMESTAMP LT ISZERO SWAP2 PUSH2 0x99F JUMP JUMPDEST PUSH4 0x7A92F19 PUSH1 0xE5 SHL DUP5 MSTORE PUSH1 0x4 DUP5 REVERT JUMPDEST PUSH1 0x3 SWAP2 POP PUSH2 0xA3C DUP2 PUSH2 0x1FD7 JUMP JUMPDEST EQ ISZERO PUSH0 PUSH2 0x983 JUMP JUMPDEST PUSH3 0x82B429 PUSH1 0xE8 SHL DUP6 MSTORE PUSH1 0x4 DUP6 REVERT JUMPDEST PUSH4 0x4D36EB69 PUSH1 0xE0 SHL DUP7 MSTORE PUSH1 0x4 DUP7 REVERT JUMPDEST PUSH4 0x2299770D PUSH1 0xE1 SHL DUP4 MSTORE PUSH1 0x4 DUP4 REVERT JUMPDEST PUSH4 0xCBF4A645 PUSH1 0xE0 SHL DUP4 MSTORE PUSH1 0x4 DUP4 REVERT JUMPDEST POP CALLVALUE PUSH2 0x1A9 JUMPI DUP1 PUSH1 0x3 NOT CALLDATASIZE ADD SLT PUSH2 0x1A9 JUMPI PUSH1 0x20 PUSH4 0xFFFFFFFF PUSH1 0x2 SLOAD DUP3 SHR AND PUSH1 0x40 MLOAD SWAP1 DUP2 MSTORE RETURN JUMPDEST POP CALLVALUE PUSH2 0x1A9 JUMPI PUSH1 0x20 CALLDATASIZE PUSH1 0x3 NOT ADD SLT PUSH2 0x1A9 JUMPI PUSH1 0x4 CALLDATALOAD DUP2 MSTORE DUP1 PUSH1 0x20 MSTORE PUSH1 0x40 DUP2 KECCAK256 SWAP1 PUSH1 0x40 MLOAD SWAP1 PUSH2 0xAD2 DUP3 PUSH2 0x1DEE JUMP JUMPDEST DUP3 SLOAD PUSH1 0xFF DUP2 AND PUSH2 0xAE1 DUP2 PUSH2 0x1FD7 JUMP JUMPDEST DUP4 MSTORE PUSH1 0x8 SHR PUSH1 0x1 PUSH1 0x1 PUSH1 0xA0 SHL SUB AND PUSH1 0x20 DUP4 ADD MSTORE PUSH2 0xB00 PUSH1 0x1 DUP5 ADD PUSH2 0x1E7D JUMP JUMPDEST PUSH1 0x40 DUP4 ADD MSTORE PUSH1 0x3 DUP4 ADD SLOAD PUSH1 0x60 DUP4 ADD MSTORE PUSH1 0x4 DUP4 ADD PUSH1 0x40 MLOAD SWAP2 DUP3 PUSH1 0x20 DUP4 SLOAD SWAP2 DUP3 DUP2 MSTORE ADD SWAP3 DUP3 MSTORE PUSH1 0x20 DUP3 KECCAK256 SWAP2 JUMPDEST DUP2 DUP2 LT PUSH2 0xBE0 JUMPI PUSH1 0x20 PUSH2 0xBD8 DUP9 DUP9 DUP9 PUSH2 0xB45 DUP2 DUP11 SUB DUP3 PUSH2 0x1E5C JUMP JUMPDEST PUSH1 0x80 DUP3 ADD MSTORE PUSH1 0x5 DUP3 ADD SLOAD SWAP1 PUSH1 0xA0 DUP2 ADD SWAP2 DUP3 MSTORE PUSH2 0x1C0 PUSH2 0xBCC PUSH1 0x12 PUSH1 0x6 DUP7 ADD SLOAD SWAP6 PUSH1 0xC0 DUP6 ADD SWAP7 DUP8 MSTORE PUSH1 0x7 DUP2 ADD SLOAD PUSH1 0xE0 DUP7 ADD MSTORE PUSH1 0x8 DUP2 ADD SLOAD PUSH2 0x100 DUP7 ADD MSTORE PUSH1 0x9 DUP2 ADD SLOAD PUSH2 0x120 DUP7 ADD MSTORE PUSH1 0xA DUP2 ADD SLOAD PUSH2 0x140 DUP7 ADD MSTORE PUSH1 0xB DUP2 ADD SLOAD PUSH2 0x160 DUP7 ADD MSTORE PUSH2 0xBAE PUSH1 0xC DUP3 ADD PUSH2 0x1ED3 JUMP JUMPDEST PUSH2 0x180 DUP7 ADD MSTORE PUSH2 0xBC0 PUSH1 0xD DUP3 ADD PUSH2 0x1F73 JUMP JUMPDEST PUSH2 0x1A0 DUP7 ADD MSTORE ADD PUSH2 0x1FF5 JUMP JUMPDEST SWAP2 ADD MSTORE MLOAD SWAP1 MLOAD SWAP1 PUSH2 0x2260 JUMP JUMPDEST PUSH1 0x40 MLOAD SWAP1 DUP2 MSTORE RETURN JUMPDEST DUP3 SLOAD DUP5 MSTORE PUSH1 0x20 SWAP1 SWAP4 ADD SWAP3 PUSH1 0x1 SWAP3 DUP4 ADD SWAP3 ADD PUSH2 0xB2A JUMP JUMPDEST POP CALLVALUE PUSH2 0x191 JUMPI PUSH2 0xC05 CALLDATASIZE PUSH2 0x2152 JUMP JUMPDEST DUP5 SWAP2 SWAP3 SWAP5 SWAP6 SWAP4 SWAP6 ISZERO PUSH2 0xF5C JUMPI PUSH1 0x3 SLOAD SWAP1 PUSH4 0xFFFFFFFF DUP1 DUP4 PUSH1 0xA0 SHR AND AND PUSH4 0xFFFFFFFF DUP5 PUSH1 0x40 SHR AND SUB PUSH2 0xF4D JUMPI DUP3 PUSH0 MSTORE PUSH0 PUSH1 0x20 MSTORE PUSH1 0x40 PUSH0 KECCAK256 SWAP7 DUP8 SLOAD SWAP7 PUSH1 0x1 DUP1 PUSH1 0xA0 SHL SUB DUP9 PUSH1 0x8 SHR AND ISZERO PUSH2 0xF3E JUMPI PUSH1 0xFF DUP9 AND SWAP4 PUSH2 0xC5E DUP6 PUSH2 0x1FD7 JUMP JUMPDEST PUSH1 0x2 DUP6 EQ DUP1 ISZERO PUSH2 0xF2B JUMPI JUMPDEST PUSH2 0xF1C JUMPI PUSH2 0xC76 DUP6 PUSH2 0x1FD7 JUMP JUMPDEST PUSH1 0x1 DUP6 EQ ISZERO DUP1 PUSH2 0xF01 JUMPI JUMPDEST PUSH2 0xEF2 JUMPI PUSH1 0x1 PUSH1 0x1 PUSH1 0xA0 SHL SUB AND SWAP2 DUP3 EXTCODESIZE ISZERO PUSH2 0x191 JUMPI DUP4 SWAP3 PUSH0 SWAP3 DUP9 SWAP3 PUSH2 0xCBC PUSH1 0x40 MLOAD SWAP7 DUP8 SWAP6 DUP7 SWAP5 DUP6 SWAP5 PUSH4 0x5C73957B PUSH1 0xE1 SHL DUP7 MSTORE PUSH1 0x4 DUP7 ADD PUSH2 0x228D JUMP JUMPDEST SUB SWAP2 GAS STATICCALL DUP1 ISZERO PUSH2 0xEE7 JUMPI PUSH2 0xED2 JUMPI JUMPDEST POP DUP4 ADD PUSH2 0x120 DUP5 DUP3 SUB SLT PUSH2 0xECE JUMPI DUP1 PUSH1 0x1F DUP6 ADD SLT ISZERO PUSH2 0xECE JUMPI PUSH2 0x120 SWAP1 PUSH1 0x40 MLOAD SWAP5 PUSH2 0xCF6 DUP4 DUP8 PUSH2 0x1E5C JUMP JUMPDEST DUP6 SWAP1 DUP4 DUP2 ADD SWAP3 DUP4 GT PUSH2 0x4C0 JUMPI SWAP1 JUMPDEST DUP3 DUP3 LT PUSH2 0xEBE JUMPI POP POP POP DUP4 MLOAD PUSH1 0x3 DUP9 ADD SLOAD SUB PUSH2 0xEAF JUMPI PUSH1 0x40 MLOAD SWAP7 PUSH2 0xD28 DUP3 DUP10 PUSH2 0x1E5C JUMP JUMPDEST PUSH1 0x8 DUP9 MSTORE PUSH1 0x20 DUP9 ADD SWAP2 PUSH1 0x1F NOT ADD CALLDATASIZE DUP4 CALLDATACOPY PUSH1 0x1 JUMPDEST PUSH1 0x9 DUP2 LT ISZERO PUSH2 0xD98 JUMPI DUP1 PUSH1 0x5 SHL DUP7 ADD MLOAD PUSH0 NOT DUP3 ADD DUP3 DUP2 GT PUSH2 0xD84 JUMPI DUP11 MLOAD DUP2 LT ISZERO PUSH2 0xD70 JUMPI PUSH1 0x5 SHL DUP11 ADD PUSH1 0x20 ADD MSTORE PUSH1 0x1 ADD PUSH2 0xD3B JUMP JUMPDEST PUSH4 0x4E487B71 PUSH1 0xE0 SHL DUP10 MSTORE PUSH1 0x32 PUSH1 0x4 MSTORE PUSH1 0x24 DUP10 REVERT JUMPDEST PUSH4 0x4E487B71 PUSH1 0xE0 SHL DUP10 MSTORE PUSH1 0x11 PUSH1 0x4 MSTORE PUSH1 0x24 DUP10 REVERT JUMPDEST POP DUP8 SWAP5 POP PUSH1 0x4 SWAP1 DUP2 DUP9 PUSH1 0xFF NOT AND OR DUP2 SSTORE ADD DUP5 MLOAD SWAP2 PUSH1 0x1 PUSH1 0x1 PUSH1 0x40 SHL SUB DUP4 GT PUSH2 0xE9B JUMPI PUSH9 0x10000000000000000 DUP4 GT PUSH2 0xE9B JUMPI DUP2 SLOAD DUP4 DUP4 SSTORE DUP1 DUP5 LT PUSH2 0xE80 JUMPI JUMPDEST POP SWAP1 DUP5 SWAP4 SWAP3 SWAP2 SWAP1 DUP8 MSTORE PUSH1 0x20 DUP8 KECCAK256 DUP8 JUMPDEST DUP4 DUP2 LT PUSH2 0xE69 JUMPI POP POP POP POP PUSH1 0x40 PUSH32 0x2F25F350B681441B5BB45430FBE61E78D0170CFF4AD02CB0AA48A6427909AA8C SWAP2 DUP2 MLOAD SWAP1 PUSH2 0xE21 DUP2 PUSH2 0x1FD7 JUMP JUMPDEST DUP2 MSTORE PUSH1 0x4 PUSH1 0x20 DUP3 ADD MSTORE LOG2 PUSH32 0x5DA8009AEB11DE7EF64598B0DE897A03D2F93EFABDA8507A70E29CCA4530CF5D PUSH1 0x40 MLOAD PUSH1 0x20 DUP2 MSTORE DUP1 PUSH2 0xE63 CALLER SWAP6 PUSH1 0x20 DUP4 ADD SWAP1 PUSH2 0x211F JUMP JUMPDEST SUB SWAP1 LOG3 DUP1 RETURN JUMPDEST DUP3 MLOAD DUP2 DUP4 ADD SSTORE DUP7 SWAP6 POP PUSH1 0x20 SWAP1 SWAP3 ADD SWAP2 PUSH1 0x1 ADD PUSH2 0xDE6 JUMP JUMPDEST DUP3 DUP9 MSTORE PUSH1 0x20 DUP9 KECCAK256 PUSH2 0xE95 SWAP2 DUP2 ADD SWAP1 DUP6 ADD PUSH2 0x21CC JUMP JUMPDEST DUP8 PUSH2 0xDD7 JUMP JUMPDEST PUSH4 0x4E487B71 PUSH1 0xE0 SHL DUP8 MSTORE PUSH1 0x41 PUSH1 0x4 MSTORE PUSH1 0x24 DUP8 REVERT JUMPDEST PUSH4 0xB6FAC03 PUSH1 0xE4 SHL DUP6 MSTORE PUSH1 0x4 DUP6 REVERT JUMPDEST DUP2 CALLDATALOAD DUP2 MSTORE PUSH1 0x20 SWAP2 DUP3 ADD SWAP2 ADD PUSH2 0xD04 JUMP JUMPDEST DUP5 DUP1 REVERT JUMPDEST PUSH2 0xEDF SWAP2 SWAP6 POP PUSH0 SWAP1 PUSH2 0x1E5C JUMP JUMPDEST PUSH0 SWAP4 PUSH0 PUSH2 0xCCB JUMP JUMPDEST PUSH1 0x40 MLOAD RETURNDATASIZE PUSH0 DUP3 RETURNDATACOPY RETURNDATASIZE SWAP1 REVERT JUMPDEST PUSH4 0xE843C5EB PUSH1 0xE0 SHL PUSH0 MSTORE PUSH1 0x4 PUSH0 REVERT JUMPDEST POP PUSH2 0xF15 PUSH1 0x5 DUP12 ADD SLOAD PUSH1 0x6 DUP13 ADD SLOAD SWAP1 PUSH2 0x2260 JUMP JUMPDEST TIMESTAMP LT PUSH2 0xC81 JUMP JUMPDEST PUSH4 0x7A92F19 PUSH1 0xE5 SHL PUSH0 MSTORE PUSH1 0x4 PUSH0 REVERT JUMPDEST POP PUSH2 0xF35 DUP6 PUSH2 0x1FD7 JUMP JUMPDEST PUSH1 0x4 DUP6 EQ PUSH2 0xC69 JUMP JUMPDEST PUSH4 0x4D36EB69 PUSH1 0xE0 SHL PUSH0 MSTORE PUSH1 0x4 PUSH0 REVERT JUMPDEST PUSH4 0x2299770D PUSH1 0xE1 SHL PUSH0 MSTORE PUSH1 0x4 PUSH0 REVERT JUMPDEST PUSH4 0xCBF4A645 PUSH1 0xE0 SHL PUSH0 MSTORE PUSH1 0x4 PUSH0 REVERT JUMPDEST CALLVALUE PUSH2 0x191 JUMPI PUSH0 CALLDATASIZE PUSH1 0x3 NOT ADD SLT PUSH2 0x191 JUMPI PUSH1 0x3 SLOAD PUSH1 0x40 MLOAD PUSH1 0x1 PUSH1 0x1 PUSH1 0xA0 SHL SUB SWAP1 SWAP2 AND DUP2 MSTORE PUSH1 0x20 SWAP1 RETURN JUMPDEST CALLVALUE PUSH2 0x191 JUMPI PUSH1 0x20 CALLDATASIZE PUSH1 0x3 NOT ADD SLT PUSH2 0x191 JUMPI PUSH1 0x40 MLOAD PUSH2 0xFB0 DUP2 PUSH2 0x1DEE JUMP JUMPDEST PUSH0 DUP2 MSTORE PUSH0 PUSH1 0x20 DUP3 ADD MSTORE PUSH1 0x40 MLOAD PUSH2 0xFC5 DUP2 PUSH2 0x1E0A JUMP JUMPDEST PUSH0 DUP2 MSTORE PUSH0 PUSH1 0x20 DUP3 ADD MSTORE PUSH1 0x40 DUP3 ADD MSTORE PUSH0 PUSH1 0x60 DUP3 ADD MSTORE PUSH1 0x60 PUSH1 0x80 DUP3 ADD MSTORE PUSH0 PUSH1 0xA0 DUP3 ADD MSTORE PUSH0 PUSH1 0xC0 DUP3 ADD MSTORE PUSH0 PUSH1 0xE0 DUP3 ADD MSTORE PUSH0 PUSH2 0x100 DUP3 ADD MSTORE PUSH0 PUSH2 0x120 DUP3 ADD MSTORE PUSH0 PUSH2 0x140 DUP3 ADD MSTORE PUSH0 PUSH2 0x160 DUP3 ADD MSTORE PUSH1 0x60 PUSH2 0x180 DUP3 ADD MSTORE PUSH2 0x101E PUSH2 0x2224 JUMP JUMPDEST PUSH2 0x1A0 DUP3 ADD MSTORE PUSH2 0x1C0 PUSH1 0x40 MLOAD SWAP2 PUSH2 0x1034 DUP4 PUSH2 0x1E25 JUMP JUMPDEST PUSH0 DUP4 MSTORE PUSH0 PUSH1 0x20 DUP5 ADD MSTORE PUSH1 0x60 PUSH1 0x40 DUP5 ADD MSTORE ADD MSTORE PUSH1 0x4 CALLDATALOAD PUSH0 MSTORE PUSH0 PUSH1 0x20 MSTORE PUSH1 0x40 PUSH0 KECCAK256 PUSH1 0x40 MLOAD SWAP1 PUSH2 0x1060 DUP3 PUSH2 0x1DEE JUMP JUMPDEST DUP1 SLOAD SWAP1 PUSH1 0xFF DUP3 AND PUSH2 0x1070 DUP2 PUSH2 0x1FD7 JUMP JUMPDEST DUP4 MSTORE PUSH1 0x8 SWAP2 SWAP1 SWAP2 SHR PUSH1 0x1 PUSH1 0x1 PUSH1 0xA0 SHL SUB AND PUSH1 0x20 DUP4 ADD SWAP1 DUP2 MSTORE SWAP1 PUSH2 0x1095 PUSH1 0x1 DUP3 ADD PUSH2 0x1E7D JUMP JUMPDEST SWAP3 PUSH1 0x40 DUP2 ADD SWAP4 DUP5 MSTORE PUSH1 0x3 DUP3 ADD SLOAD PUSH1 0x60 DUP3 ADD SWAP1 DUP2 MSTORE PUSH1 0x4 DUP4 ADD SWAP1 PUSH1 0x40 MLOAD DUP1 SWAP3 DUP4 SWAP2 PUSH1 0x20 DUP3 SLOAD SWAP2 DUP3 DUP2 MSTORE ADD SWAP2 PUSH0 MSTORE PUSH1 0x20 PUSH0 KECCAK256 SWAP1 PUSH0 JUMPDEST DUP2 DUP2 LT PUSH2 0x1250 JUMPI POP POP POP SUB PUSH2 0x10DD SWAP1 DUP4 PUSH2 0x1E5C JUMP JUMPDEST PUSH1 0x80 DUP4 ADD SWAP2 DUP3 MSTORE PUSH1 0x5 DUP5 ADD SLOAD SWAP2 PUSH1 0xA0 DUP5 ADD SWAP3 DUP4 MSTORE PUSH1 0x6 DUP6 ADD SLOAD PUSH1 0xC0 DUP6 ADD SWAP1 DUP2 MSTORE PUSH1 0x7 DUP7 ADD SLOAD PUSH1 0xE0 DUP7 ADD SWAP1 DUP2 MSTORE PUSH1 0x8 DUP8 ADD SLOAD PUSH2 0x100 DUP8 ADD SWAP1 DUP2 MSTORE PUSH1 0x9 DUP9 ADD SLOAD SWAP2 PUSH2 0x120 DUP9 ADD SWAP3 DUP4 MSTORE PUSH1 0xA DUP10 ADD SLOAD SWAP4 PUSH2 0x140 DUP10 ADD SWAP5 DUP6 MSTORE PUSH1 0xB DUP11 ADD SLOAD SWAP6 PUSH2 0x160 DUP11 ADD SWAP7 DUP8 MSTORE PUSH1 0xC DUP12 ADD PUSH2 0x114D SWAP1 PUSH2 0x1ED3 JUMP JUMPDEST PUSH2 0x180 DUP12 ADD SWAP1 DUP2 MSTORE SWAP8 PUSH2 0x1162 PUSH1 0xD DUP14 ADD PUSH2 0x1F73 JUMP JUMPDEST SWAP12 PUSH2 0x1A0 DUP13 ADD SWAP13 DUP14 MSTORE PUSH1 0x12 ADD PUSH2 0x1177 SWAP1 PUSH2 0x1FF5 JUMP JUMPDEST SWAP11 PUSH2 0x1C0 DUP2 ADD SWAP12 DUP13 MSTORE PUSH1 0x40 MLOAD SWAP15 DUP16 SWAP15 DUP16 SWAP3 PUSH1 0x20 DUP5 MSTORE MLOAD PUSH2 0x1196 DUP2 PUSH2 0x1FD7 JUMP JUMPDEST PUSH1 0x20 DUP5 ADD MSTORE PUSH1 0x1 PUSH1 0xA0 SHL PUSH1 0x1 SWAP1 SUB SWAP1 MLOAD AND PUSH1 0x40 DUP4 ADD MSTORE MLOAD DUP1 MLOAD PUSH1 0x60 DUP4 ADD MSTORE PUSH1 0x20 ADD MLOAD SWAP1 PUSH1 0x80 ADD MSTORE MLOAD PUSH1 0xA0 DUP14 ADD MSTORE MLOAD PUSH1 0xC0 DUP13 ADD PUSH2 0x2E0 SWAP1 MSTORE PUSH2 0x300 DUP13 ADD PUSH2 0x11DB SWAP2 PUSH2 0x211F JUMP JUMPDEST SWAP8 MLOAD PUSH1 0xE0 DUP13 ADD MSTORE MLOAD PUSH2 0x100 DUP12 ADD MSTORE MLOAD PUSH2 0x120 DUP11 ADD MSTORE MLOAD PUSH2 0x140 DUP10 ADD MSTORE MLOAD PUSH2 0x160 DUP9 ADD MSTORE MLOAD PUSH2 0x180 DUP8 ADD MSTORE MLOAD PUSH2 0x1A0 DUP7 ADD MSTORE MLOAD DUP5 DUP3 SUB PUSH1 0x1F NOT ADD PUSH2 0x1C0 DUP7 ADD MSTORE PUSH2 0x1224 SWAP2 SWAP1 PUSH2 0x2030 JUMP JUMPDEST SWAP2 MLOAD PUSH2 0x1E0 DUP5 ADD PUSH2 0x1234 SWAP2 PUSH2 0x2054 JUMP JUMPDEST MLOAD DUP3 DUP3 SUB PUSH1 0x1F NOT ADD PUSH2 0x2E0 DUP5 ADD MSTORE PUSH2 0x124C SWAP2 SWAP1 PUSH2 0x20A9 JUMP JUMPDEST SUB SWAP1 RETURN JUMPDEST DUP3 SLOAD DUP5 MSTORE DUP7 SWAP5 POP PUSH1 0x20 SWAP1 SWAP4 ADD SWAP3 PUSH1 0x1 SWAP3 DUP4 ADD SWAP3 ADD PUSH2 0x10C8 JUMP JUMPDEST CALLVALUE PUSH2 0x191 JUMPI PUSH0 CALLDATASIZE PUSH1 0x3 NOT ADD SLT PUSH2 0x191 JUMPI PUSH1 0x20 PUSH4 0xFFFFFFFF PUSH1 0x2 SLOAD AND PUSH1 0x40 MLOAD SWAP1 DUP2 MSTORE RETURN JUMPDEST CALLVALUE PUSH2 0x191 JUMPI PUSH2 0x220 CALLDATASIZE PUSH1 0x3 NOT ADD SLT PUSH2 0x191 JUMPI PUSH1 0x5 PUSH1 0x4 CALLDATALOAD LT ISZERO PUSH2 0x191 JUMPI PUSH1 0x44 CALLDATALOAD PUSH2 0x100 CALLDATASIZE PUSH1 0x83 NOT ADD SLT PUSH2 0x191 JUMPI PUSH1 0x1 PUSH1 0x1 PUSH1 0x40 SHL SUB PUSH2 0x184 CALLDATALOAD GT PUSH2 0x191 JUMPI PUSH1 0x60 PUSH2 0x184 CALLDATALOAD CALLDATASIZE SUB PUSH1 0x3 NOT ADD SLT PUSH2 0x191 JUMPI PUSH2 0x1A4 CALLDATALOAD PUSH1 0x1 PUSH1 0x1 PUSH1 0x40 SHL SUB DUP2 GT PUSH2 0x191 JUMPI PUSH2 0x12FB SWAP1 CALLDATASIZE SWAP1 PUSH1 0x4 ADD PUSH2 0x20F2 JUMP JUMPDEST SWAP2 PUSH1 0x40 CALLDATASIZE PUSH2 0x1C3 NOT ADD SLT PUSH2 0x191 JUMPI PUSH1 0x3 SLOAD CALLER PUSH0 DUP2 DUP2 MSTORE PUSH1 0x1 PUSH1 0x20 MSTORE PUSH1 0x40 SWAP1 KECCAK256 SLOAD PUSH1 0x60 SWAP2 DUP3 SHL PUSH12 0xFFFFFFFFFFFFFFFFFFFFFFFF NOT AND SWAP3 SWAP1 SWAP2 SHR PUSH4 0xFFFFFFFF PUSH1 0x40 SHL AND SWAP2 SWAP1 SWAP2 OR PUSH1 0x1 PUSH1 0x1 PUSH1 0x40 SHL SUB SWAP2 SWAP1 SWAP2 AND OR SWAP2 PUSH1 0x24 CALLDATALOAD SWAP4 DUP4 PUSH0 MSTORE PUSH0 PUSH1 0x20 MSTORE CALLER PUSH1 0x1 DUP1 PUSH1 0xA0 SHL SUB PUSH1 0x40 PUSH0 KECCAK256 SLOAD PUSH1 0x8 SHR AND EQ PUSH2 0x1923 JUMPI PUSH1 0xFF PUSH2 0x1379 PUSH2 0x21E2 JUMP JUMPDEST AND ISZERO DUP1 ISZERO PUSH2 0x190F JUMPI JUMPDEST PUSH2 0x1900 JUMPI PUSH2 0xFFFF PUSH2 0x144 CALLDATALOAD GT PUSH2 0x18F1 JUMPI PUSH2 0x104 CALLDATALOAD PUSH2 0x124 CALLDATALOAD GT PUSH2 0x18E2 JUMPI PUSH2 0x144 CALLDATALOAD PUSH2 0x164 CALLDATALOAD GT PUSH2 0x18D3 JUMPI PUSH1 0x64 CALLDATALOAD ISZERO PUSH2 0x18C4 JUMPI PUSH1 0x5 PUSH2 0x184 CALLDATALOAD PUSH1 0x4 ADD CALLDATALOAD LT ISZERO PUSH2 0x191 JUMPI PUSH2 0x13D4 PUSH2 0x184 CALLDATALOAD PUSH1 0x4 ADD CALLDATALOAD PUSH2 0x1FD7 JUMP JUMPDEST PUSH1 0x4 PUSH1 0xFF PUSH2 0x184 CALLDATALOAD DUP3 ADD CALLDATALOAD AND GT PUSH2 0x18B5 JUMPI PUSH1 0x24 PUSH2 0x184 CALLDATALOAD ADD CALLDATALOAD ISZERO PUSH2 0x18A6 JUMPI PUSH1 0x44 PUSH2 0x184 CALLDATALOAD ADD SWAP5 PUSH2 0x140A DUP7 PUSH2 0x184 CALLDATALOAD PUSH1 0x4 ADD PUSH2 0x21F2 JUMP JUMPDEST SWAP1 POP ISZERO PUSH2 0x1897 JUMPI PUSH2 0x141C PUSH1 0x4 CALLDATALOAD PUSH2 0x1FD7 JUMP JUMPDEST PUSH1 0x4 PUSH1 0xFF DUP2 CALLDATALOAD AND GT DUP1 ISZERO PUSH2 0x1868 JUMPI JUMPDEST PUSH2 0xF1C JUMPI PUSH1 0x24 CALLDATALOAD ISZERO PUSH2 0x1861 JUMPI JUMPDEST TIMESTAMP DUP2 LT PUSH2 0x1852 JUMPI PUSH2 0x144A DUP5 TIMESTAMP SWAP3 PUSH2 0x2260 JUMP JUMPDEST GT ISZERO PUSH2 0x1843 JUMPI DUP4 PUSH0 MSTORE PUSH0 PUSH1 0x20 MSTORE PUSH1 0x40 PUSH0 KECCAK256 SWAP3 PUSH2 0x1468 PUSH1 0x4 CALLDATALOAD DUP6 PUSH2 0x21A7 JUMP JUMPDEST PUSH1 0x24 CALLDATALOAD PUSH1 0x5 DUP6 ADD SSTORE PUSH1 0x6 DUP5 ADD SSTORE PUSH1 0x64 CALLDATALOAD PUSH1 0x7 DUP5 ADD SSTORE DUP3 SLOAD PUSH2 0x100 PUSH1 0x1 PUSH1 0xA8 SHL SUB NOT AND CALLER PUSH1 0x8 SHL PUSH2 0x100 PUSH1 0x1 PUSH1 0xA8 SHL SUB AND OR DUP4 SSTORE PUSH2 0x1C4 CALLDATALOAD PUSH1 0x1 DUP5 ADD SSTORE PUSH2 0x1E4 CALLDATALOAD PUSH1 0x2 DUP5 ADD SSTORE PUSH2 0x204 CALLDATALOAD PUSH1 0x3 DUP5 ADD SSTORE PUSH1 0xC DUP4 ADD SWAP2 PUSH1 0x1 PUSH1 0x1 PUSH1 0x40 SHL SUB DUP3 GT PUSH2 0x178D JUMPI DUP2 SWAP1 PUSH2 0x14D5 DUP5 SLOAD PUSH2 0x1E9B JUMP JUMPDEST PUSH1 0x1F DUP2 GT PUSH2 0x1813 JUMPI JUMPDEST POP PUSH0 SWAP1 PUSH1 0x1F DUP4 GT PUSH1 0x1 EQ PUSH2 0x17AC JUMPI PUSH0 SWAP3 PUSH2 0x17A1 JUMPI JUMPDEST POP POP DUP2 PUSH1 0x1 SHL SWAP2 PUSH0 NOT SWAP1 PUSH1 0x3 SHL SHR NOT AND OR SWAP1 SSTORE JUMPDEST PUSH1 0xD DUP2 ADD PUSH1 0x84 CALLDATALOAD DUP1 ISZERO ISZERO SWAP1 DUP2 DUP2 SUB PUSH2 0x191 JUMPI POP DUP2 SLOAD SWAP1 PUSH1 0xA4 CALLDATALOAD DUP1 ISZERO ISZERO SWAP1 DUP2 DUP2 SUB PUSH2 0x191 JUMPI POP PUSH3 0xFF0000 PUSH2 0x1538 PUSH2 0x21E2 JUMP JUMPDEST PUSH1 0x10 SHL AND SWAP2 PUSH1 0xE4 CALLDATALOAD SWAP1 PUSH1 0xFF DUP3 AND DUP3 SUB PUSH2 0x191 JUMPI PUSH4 0xFF000000 DUP3 PUSH2 0xFF00 SWAP4 POP PUSH1 0x18 SHL AND SWAP5 PUSH1 0xFF PUSH4 0xFF000000 NOT SWAP3 AND SWAP1 PUSH3 0xFFFFFF NOT AND OR AND SWAP2 PUSH1 0x8 SHL AND OR OR OR SWAP1 SSTORE PUSH2 0x104 CALLDATALOAD PUSH1 0xE DUP3 ADD SSTORE PUSH2 0x124 CALLDATALOAD PUSH1 0xF DUP3 ADD SSTORE PUSH2 0x144 CALLDATALOAD PUSH1 0x10 DUP3 ADD SSTORE PUSH2 0x164 CALLDATALOAD PUSH1 0x11 DUP3 ADD SSTORE PUSH1 0x12 DUP2 ADD PUSH2 0x15B0 PUSH2 0x184 CALLDATALOAD PUSH1 0x4 ADD CALLDATALOAD PUSH2 0x1FD7 JUMP JUMPDEST PUSH1 0xFF PUSH2 0x184 CALLDATALOAD PUSH1 0x4 ADD CALLDATALOAD AND PUSH1 0xFF NOT DUP3 SLOAD AND OR SWAP1 SSTORE PUSH1 0x24 PUSH2 0x184 CALLDATALOAD ADD CALLDATALOAD PUSH1 0x13 DUP3 ADD SSTORE PUSH2 0x15E5 PUSH1 0x14 DUP3 ADD SWAP4 PUSH2 0x184 CALLDATALOAD PUSH1 0x4 ADD PUSH2 0x21F2 JUMP JUMPDEST PUSH1 0x1 PUSH1 0x1 PUSH1 0x40 SHL SUB DUP2 SWAP6 SWAP3 SWAP6 GT PUSH2 0x178D JUMPI PUSH2 0x1600 DUP3 SLOAD PUSH2 0x1E9B JUMP JUMPDEST PUSH1 0x1F DUP2 GT PUSH2 0x175D JUMPI JUMPDEST POP PUSH0 PUSH1 0x1F DUP3 GT PUSH1 0x1 EQ PUSH2 0x16FA JUMPI DUP2 SWAP3 SWAP4 SWAP5 SWAP6 PUSH0 SWAP3 PUSH2 0x16EF JUMPI JUMPDEST POP POP DUP2 PUSH1 0x1 SHL SWAP2 PUSH0 NOT SWAP1 PUSH1 0x3 SHL SHR NOT AND OR SWAP1 SSTORE JUMPDEST PUSH1 0xA NUMBER SWAP2 ADD SSTORE PUSH1 0x2 SLOAD PUSH4 0xFFFFFFFF DUP2 AND PUSH4 0xFFFFFFFF DUP2 EQ PUSH2 0x16DB JUMPI PUSH1 0x1 PUSH4 0xFFFFFFFF SWAP2 ADD AND SWAP1 PUSH4 0xFFFFFFFF NOT AND OR PUSH1 0x2 SSTORE CALLER PUSH0 MSTORE PUSH1 0x1 PUSH1 0x20 MSTORE PUSH1 0x40 PUSH0 KECCAK256 SWAP1 DUP2 SLOAD SWAP2 PUSH1 0x1 PUSH1 0x1 PUSH1 0x40 SHL SUB DUP4 AND SWAP3 PUSH1 0x1 PUSH1 0x1 PUSH1 0x40 SHL SUB DUP5 EQ PUSH2 0x16DB JUMPI PUSH1 0x1 PUSH1 0x1 PUSH1 0x40 SHL SUB PUSH1 0x1 PUSH1 0x20 SWAP6 ADD AND SWAP1 PUSH1 0x1 PUSH1 0x1 PUSH1 0x40 SHL SUB NOT AND OR SWAP1 SSTORE PUSH1 0x40 MLOAD SWAP1 CALLER DUP2 PUSH32 0xADA6F87A2A16A0C9C169CA36754C5F33F7C1A973B575D068F888A549ED4FAEFA PUSH0 DUP1 LOG3 DUP2 MSTORE RETURN JUMPDEST PUSH4 0x4E487B71 PUSH1 0xE0 SHL PUSH0 MSTORE PUSH1 0x11 PUSH1 0x4 MSTORE PUSH1 0x24 PUSH0 REVERT JUMPDEST ADD CALLDATALOAD SWAP1 POP DUP6 DUP1 PUSH2 0x1622 JUMP JUMPDEST PUSH1 0x1F NOT DUP3 AND SWAP6 DUP4 PUSH0 MSTORE PUSH1 0x20 PUSH0 KECCAK256 SWAP2 PUSH0 JUMPDEST DUP9 DUP2 LT PUSH2 0x1745 JUMPI POP DUP4 PUSH1 0x1 SWAP6 SWAP7 SWAP8 SWAP9 LT PUSH2 0x172C JUMPI JUMPDEST POP POP POP DUP2 SHL ADD SWAP1 SSTORE PUSH2 0x1636 JUMP JUMPDEST ADD CALLDATALOAD PUSH0 NOT PUSH1 0x3 DUP5 SWAP1 SHL PUSH1 0xF8 AND SHR NOT AND SWAP1 SSTORE DUP6 DUP1 DUP1 PUSH2 0x171F JUMP JUMPDEST SWAP1 SWAP3 PUSH1 0x20 PUSH1 0x1 DUP2 SWAP3 DUP7 DUP7 ADD CALLDATALOAD DUP2 SSTORE ADD SWAP5 ADD SWAP2 ADD PUSH2 0x170A JUMP JUMPDEST PUSH2 0x1787 SWAP1 DUP4 PUSH0 MSTORE PUSH1 0x20 PUSH0 KECCAK256 PUSH1 0x1F DUP5 ADD PUSH1 0x5 SHR DUP2 ADD SWAP2 PUSH1 0x20 DUP6 LT PUSH2 0x442 JUMPI PUSH1 0x1F ADD PUSH1 0x5 SHR ADD SWAP1 PUSH2 0x21CC JUMP JUMPDEST DUP6 PUSH2 0x1609 JUMP JUMPDEST PUSH4 0x4E487B71 PUSH1 0xE0 SHL PUSH0 MSTORE PUSH1 0x41 PUSH1 0x4 MSTORE PUSH1 0x24 PUSH0 REVERT JUMPDEST ADD CALLDATALOAD SWAP1 POP DUP7 DUP1 PUSH2 0x14F3 JUMP JUMPDEST SWAP1 SWAP2 POP PUSH1 0x1F NOT DUP4 AND SWAP2 DUP5 PUSH0 MSTORE PUSH1 0x20 PUSH0 KECCAK256 SWAP3 PUSH0 JUMPDEST DUP2 DUP2 LT PUSH2 0x17FB JUMPI POP SWAP1 DUP5 PUSH1 0x1 SWAP6 SWAP5 SWAP4 SWAP3 LT PUSH2 0x17E2 JUMPI JUMPDEST POP POP POP DUP2 SHL ADD SWAP1 SSTORE PUSH2 0x1507 JUMP JUMPDEST ADD CALLDATALOAD PUSH0 NOT PUSH1 0x3 DUP5 SWAP1 SHL PUSH1 0xF8 AND SHR NOT AND SWAP1 SSTORE DUP7 DUP1 DUP1 PUSH2 0x17D5 JUMP JUMPDEST SWAP2 SWAP4 PUSH1 0x20 PUSH1 0x1 DUP2 SWAP3 DUP8 DUP8 ADD CALLDATALOAD DUP2 SSTORE ADD SWAP6 ADD SWAP3 ADD PUSH2 0x17BF JUMP JUMPDEST PUSH2 0x183D SWAP1 DUP6 PUSH0 MSTORE PUSH1 0x20 PUSH0 KECCAK256 PUSH1 0x1F DUP6 ADD PUSH1 0x5 SHR DUP2 ADD SWAP2 PUSH1 0x20 DUP7 LT PUSH2 0x442 JUMPI PUSH1 0x1F ADD PUSH1 0x5 SHR ADD SWAP1 PUSH2 0x21CC JUMP JUMPDEST DUP8 PUSH2 0x14DE JUMP JUMPDEST PUSH4 0x76166401 PUSH1 0xE0 SHL PUSH0 MSTORE PUSH1 0x4 PUSH0 REVERT JUMPDEST PUSH4 0x2CA4094F PUSH1 0xE2 SHL PUSH0 MSTORE PUSH1 0x4 PUSH0 REVERT JUMPDEST POP TIMESTAMP PUSH2 0x1438 JUMP JUMPDEST POP PUSH2 0x1874 PUSH1 0x4 CALLDATALOAD PUSH2 0x1FD7 JUMP JUMPDEST PUSH1 0x4 CALLDATALOAD ISZERO ISZERO DUP1 ISZERO PUSH2 0x142B JUMPI POP PUSH2 0x188B PUSH1 0x4 CALLDATALOAD PUSH2 0x1FD7 JUMP JUMPDEST PUSH1 0x3 PUSH1 0x4 CALLDATALOAD EQ ISZERO PUSH2 0x142B JUMP JUMPDEST PUSH4 0xF8B9321 PUSH1 0xE1 SHL PUSH0 MSTORE PUSH1 0x4 PUSH0 REVERT JUMPDEST PUSH4 0x5E32EADD PUSH1 0xE0 SHL PUSH0 MSTORE PUSH1 0x4 PUSH0 REVERT JUMPDEST PUSH4 0xF37F7B5D PUSH1 0xE0 SHL PUSH0 MSTORE PUSH1 0x4 PUSH0 REVERT JUMPDEST PUSH4 0x2C45BE6F PUSH1 0xE0 SHL PUSH0 MSTORE PUSH1 0x4 PUSH0 REVERT JUMPDEST PUSH4 0x6D403EC7 PUSH1 0xE1 SHL PUSH0 MSTORE PUSH1 0x4 PUSH0 REVERT JUMPDEST PUSH4 0x207EA56D PUSH1 0xE0 SHL PUSH0 MSTORE PUSH1 0x4 PUSH0 REVERT JUMPDEST PUSH4 0x4DBA7951 PUSH1 0xE0 SHL PUSH0 MSTORE PUSH1 0x4 PUSH0 REVERT JUMPDEST PUSH4 0xAC38930B PUSH1 0xE0 SHL PUSH0 MSTORE PUSH1 0x4 PUSH0 REVERT JUMPDEST POP PUSH1 0x8 PUSH1 0xFF PUSH2 0x191C PUSH2 0x21E2 JUMP JUMPDEST AND GT PUSH2 0x1382 JUMP JUMPDEST PUSH4 0x5040C4D3 PUSH1 0xE1 SHL PUSH0 MSTORE PUSH1 0x4 PUSH0 REVERT JUMPDEST CALLVALUE PUSH2 0x191 JUMPI PUSH2 0x1940 CALLDATASIZE PUSH2 0x20DC JUMP JUMPDEST DUP2 ISZERO PUSH2 0xF5C JUMPI PUSH4 0xFFFFFFFF DUP1 PUSH1 0x3 SLOAD PUSH1 0xA0 SHR AND AND PUSH4 0xFFFFFFFF DUP4 PUSH1 0x40 SHR AND SUB PUSH2 0xF4D JUMPI PUSH0 DUP3 DUP2 MSTORE PUSH1 0x20 DUP2 SWAP1 MSTORE PUSH1 0x40 SWAP1 KECCAK256 DUP1 SLOAD PUSH1 0x8 DUP2 SWAP1 SHR PUSH1 0x1 PUSH1 0x1 PUSH1 0xA0 SHL SUB AND DUP1 ISZERO PUSH2 0xF3E JUMPI CALLER SUB PUSH2 0x1A09 JUMPI PUSH1 0xFF AND PUSH2 0x1998 DUP2 PUSH2 0x1FD7 JUMP JUMPDEST DUP1 ISZERO ISZERO SWAP1 DUP2 PUSH2 0x19F4 JUMPI JUMPDEST POP PUSH2 0xF1C JUMPI DUP2 ISZERO DUP1 ISZERO PUSH2 0x19E7 JUMPI JUMPDEST PUSH2 0x18C4 JUMPI DUP2 PUSH32 0xDBED30289C8EDB9C8E40449CE45792CEE5B9EBA7C798AFBADBCB4345699F1E24 SWAP3 PUSH1 0x7 PUSH1 0x20 SWAP4 ADD SSTORE PUSH1 0x40 MLOAD SWAP1 DUP2 MSTORE LOG2 STOP JUMPDEST POP PUSH1 0x8 DUP2 ADD SLOAD DUP3 LT PUSH2 0x19B0 JUMP JUMPDEST PUSH1 0x3 SWAP2 POP PUSH2 0x1A01 DUP2 PUSH2 0x1FD7 JUMP JUMPDEST EQ ISZERO DUP5 PUSH2 0x19A2 JUMP JUMPDEST PUSH3 0x82B429 PUSH1 0xE8 SHL PUSH0 MSTORE PUSH1 0x4 PUSH0 REVERT JUMPDEST PUSH2 0x1DD3 JUMP JUMPDEST CALLVALUE PUSH2 0x191 JUMPI PUSH1 0x20 CALLDATASIZE PUSH1 0x3 NOT ADD SLT PUSH2 0x191 JUMPI PUSH1 0x4 CALLDATALOAD PUSH1 0x1 PUSH1 0x1 PUSH1 0xA0 SHL SUB DUP2 AND SWAP1 DUP2 DUP2 SUB PUSH2 0x191 JUMPI PUSH1 0x3 SLOAD PUSH0 SWAP3 DUP4 MSTORE PUSH1 0x1 PUSH1 0x20 SWAP1 DUP2 MSTORE PUSH1 0x40 SWAP1 SWAP4 KECCAK256 SLOAD PUSH1 0x60 SWAP3 DUP4 SHL PUSH12 0xFFFFFFFFFFFFFFFFFFFFFFFF NOT AND SWAP2 SWAP1 SWAP3 SHR PUSH4 0xFFFFFFFF PUSH1 0x40 SHL AND OR PUSH1 0x1 PUSH1 0x1 PUSH1 0x40 SHL SUB SWAP2 SWAP1 SWAP2 AND OR PUSH2 0xBD8 JUMP JUMPDEST CALLVALUE PUSH2 0x191 JUMPI PUSH1 0x20 CALLDATASIZE PUSH1 0x3 NOT ADD SLT PUSH2 0x191 JUMPI PUSH1 0x4 CALLDATALOAD PUSH1 0x1 PUSH1 0x1 PUSH1 0xA0 SHL SUB DUP2 AND SWAP1 DUP2 SWAP1 SUB PUSH2 0x191 JUMPI PUSH0 MSTORE PUSH1 0x1 PUSH1 0x20 MSTORE PUSH1 0x20 PUSH1 0x1 PUSH1 0x1 PUSH1 0x40 SHL SUB PUSH1 0x40 PUSH0 KECCAK256 SLOAD AND PUSH1 0x40 MLOAD SWAP1 DUP2 MSTORE RETURN JUMPDEST CALLVALUE PUSH2 0x191 JUMPI PUSH1 0x40 CALLDATASIZE PUSH1 0x3 NOT ADD SLT PUSH2 0x191 JUMPI PUSH1 0x4 CALLDATALOAD PUSH1 0x24 CALLDATALOAD PUSH1 0x5 DUP2 LT ISZERO PUSH2 0x191 JUMPI DUP2 ISZERO PUSH2 0xF5C JUMPI PUSH4 0xFFFFFFFF DUP1 PUSH1 0x3 SLOAD PUSH1 0xA0 SHR AND AND PUSH4 0xFFFFFFFF DUP4 PUSH1 0x40 SHR AND SUB PUSH2 0xF4D JUMPI PUSH2 0x1B1B DUP2 PUSH2 0x1FD7 JUMP JUMPDEST PUSH1 0x4 PUSH1 0xFF DUP3 AND GT PUSH2 0xF1C JUMPI DUP2 PUSH0 MSTORE PUSH0 PUSH1 0x20 MSTORE PUSH1 0x40 PUSH0 KECCAK256 SWAP1 DUP2 SLOAD PUSH1 0x1 DUP1 PUSH1 0xA0 SHL SUB DUP2 PUSH1 0x8 SHR AND DUP1 ISZERO PUSH2 0xF3E JUMPI CALLER SUB PUSH2 0x1A09 JUMPI PUSH1 0xFF AND SWAP1 PUSH2 0x1B5A DUP2 DUP4 PUSH2 0x22C2 JUMP JUMPDEST ISZERO PUSH2 0xF1C JUMPI DUP4 DUP4 PUSH2 0x1B8C DUP4 PUSH32 0x2F25F350B681441B5BB45430FBE61E78D0170CFF4AD02CB0AA48A6427909AA8C SWAP7 PUSH2 0x21A7 JUMP JUMPDEST PUSH2 0x1B95 DUP4 PUSH2 0x1FD7 JUMP JUMPDEST PUSH1 0x1 DUP4 EQ PUSH2 0x1BC3 JUMPI JUMPDEST POP POP PUSH1 0x40 MLOAD SWAP2 PUSH2 0x1BAD DUP2 PUSH2 0x1FD7 JUMP JUMPDEST DUP3 MSTORE PUSH2 0x1BB8 DUP2 PUSH2 0x1FD7 JUMP JUMPDEST PUSH1 0x20 DUP3 ADD MSTORE PUSH1 0x40 SWAP1 LOG2 STOP JUMPDEST PUSH1 0x20 PUSH1 0x6 PUSH32 0xF759826327C668A220D576485AC38DDC4F83FBC414B984C00E79F669B649F46 SWAP3 PUSH1 0x5 DUP2 ADD SLOAD DUP1 TIMESTAMP LT ISZERO PUSH0 EQ PUSH2 0x1C16 JUMPI PUSH2 0x1C02 SWAP1 TIMESTAMP PUSH2 0x21BF JUMP JUMPDEST SWAP2 DUP3 SWAP2 JUMPDEST ADD SSTORE PUSH1 0x40 MLOAD SWAP1 DUP2 MSTORE LOG2 DUP4 DUP6 PUSH2 0x1B9E JUMP JUMPDEST POP PUSH0 SWAP2 DUP3 SWAP2 PUSH2 0x1C06 JUMP JUMPDEST CALLVALUE PUSH2 0x191 JUMPI PUSH0 CALLDATASIZE PUSH1 0x3 NOT ADD SLT PUSH2 0x191 JUMPI PUSH1 0x2 SLOAD PUSH1 0x40 DUP1 MLOAD PUSH4 0x233ACE11 PUSH1 0xE0 SHL DUP2 MSTORE SWAP2 PUSH1 0x20 SWAP2 DUP4 SWAP2 PUSH1 0x4 SWAP2 DUP4 SWAP2 SWAP1 SHR PUSH1 0x1 PUSH1 0x1 PUSH1 0xA0 SHL SUB AND GAS STATICCALL DUP1 ISZERO PUSH2 0xEE7 JUMPI PUSH0 SWAP1 PUSH2 0x166 JUMPI PUSH1 0x20 SWAP1 PUSH1 0x40 MLOAD SWAP1 DUP2 MSTORE RETURN JUMPDEST CALLVALUE PUSH2 0x191 JUMPI PUSH0 CALLDATASIZE PUSH1 0x3 NOT ADD SLT PUSH2 0x191 JUMPI PUSH1 0x20 PUSH1 0x40 MLOAD PUSH0 DUP2 MSTORE RETURN JUMPDEST CALLVALUE PUSH2 0x191 JUMPI PUSH0 CALLDATASIZE PUSH1 0x3 NOT ADD SLT PUSH2 0x191 JUMPI PUSH1 0x2 SLOAD PUSH1 0x40 DUP1 MLOAD SWAP2 SWAP1 SHR PUSH1 0x1 PUSH1 0x1 PUSH1 0xA0 SHL SUB AND DUP2 MSTORE PUSH1 0x20 SWAP1 RETURN JUMPDEST CALLVALUE PUSH2 0x191 JUMPI PUSH1 0x20 CALLDATASIZE PUSH1 0x3 NOT ADD SLT PUSH2 0x191 JUMPI PUSH1 0x4 CALLDATALOAD PUSH0 MSTORE PUSH0 PUSH1 0x20 MSTORE PUSH1 0x40 PUSH0 KECCAK256 DUP1 SLOAD SWAP1 PUSH1 0xFF DUP3 AND SWAP1 PUSH1 0x1 DUP2 ADD PUSH2 0x1CE7 SWAP1 PUSH2 0x1E7D JUMP JUMPDEST SWAP1 PUSH1 0x3 DUP2 ADD SLOAD PUSH1 0x5 DUP3 ADD SLOAD PUSH1 0x6 DUP4 ADD SLOAD PUSH1 0x7 DUP5 ADD SLOAD PUSH1 0x8 DUP6 ADD SLOAD PUSH1 0x9 DUP7 ADD SLOAD SWAP2 PUSH1 0xA DUP8 ADD SLOAD SWAP4 PUSH1 0xB DUP9 ADD SLOAD SWAP6 PUSH1 0xC DUP10 ADD PUSH2 0x1D20 SWAP1 PUSH2 0x1ED3 JUMP JUMPDEST SWAP8 PUSH2 0x1D2D PUSH1 0xD DUP12 ADD PUSH2 0x1F73 JUMP JUMPDEST SWAP10 PUSH1 0x12 ADD PUSH2 0x1D3A SWAP1 PUSH2 0x1FF5 JUMP JUMPDEST SWAP11 PUSH1 0x40 MLOAD DUP1 SWAP15 DUP15 DUP3 SWAP16 PUSH2 0x1D4C SWAP1 PUSH2 0x1FD7 JUMP JUMPDEST DUP3 MSTORE PUSH1 0x8 SHR PUSH1 0x1 PUSH1 0x1 PUSH1 0xA0 SHL SUB AND PUSH1 0x20 SWAP2 DUP3 ADD MSTORE DUP2 MLOAD PUSH1 0x40 DUP16 ADD MSTORE ADD MLOAD PUSH1 0x60 DUP14 ADD MSTORE PUSH1 0x80 DUP13 ADD MSTORE PUSH1 0xA0 DUP12 ADD MSTORE PUSH1 0xC0 DUP11 ADD MSTORE PUSH1 0xE0 DUP10 ADD MSTORE PUSH2 0x100 DUP9 ADD MSTORE PUSH2 0x120 DUP8 ADD MSTORE PUSH2 0x140 DUP7 ADD MSTORE PUSH2 0x160 DUP6 ADD MSTORE PUSH2 0x2C0 PUSH2 0x180 DUP6 ADD DUP2 SWAP1 MSTORE PUSH2 0x1DB2 SWAP2 SWAP1 DUP6 ADD SWAP1 PUSH2 0x2030 JUMP JUMPDEST SWAP1 PUSH2 0x1A0 DUP5 ADD PUSH2 0x1DC1 SWAP2 PUSH2 0x2054 JUMP JUMPDEST DUP3 DUP2 SUB PUSH2 0x2A0 DUP5 ADD MSTORE PUSH2 0x124C SWAP2 PUSH2 0x20A9 JUMP JUMPDEST CALLVALUE PUSH2 0x191 JUMPI PUSH0 CALLDATASIZE PUSH1 0x3 NOT ADD SLT PUSH2 0x191 JUMPI PUSH1 0x20 PUSH1 0x40 MLOAD PUSH1 0x4 DUP2 MSTORE RETURN JUMPDEST PUSH2 0x1E0 DUP2 ADD SWAP1 DUP2 LT PUSH1 0x1 PUSH1 0x1 PUSH1 0x40 SHL SUB DUP3 GT OR PUSH2 0x178D JUMPI PUSH1 0x40 MSTORE JUMP JUMPDEST PUSH1 0x40 DUP2 ADD SWAP1 DUP2 LT PUSH1 0x1 PUSH1 0x1 PUSH1 0x40 SHL SUB DUP3 GT OR PUSH2 0x178D JUMPI PUSH1 0x40 MSTORE JUMP JUMPDEST PUSH1 0x60 DUP2 ADD SWAP1 DUP2 LT PUSH1 0x1 PUSH1 0x1 PUSH1 0x40 SHL SUB DUP3 GT OR PUSH2 0x178D JUMPI PUSH1 0x40 MSTORE JUMP JUMPDEST PUSH2 0x100 DUP2 ADD SWAP1 DUP2 LT PUSH1 0x1 PUSH1 0x1 PUSH1 0x40 SHL SUB DUP3 GT OR PUSH2 0x178D JUMPI PUSH1 0x40 MSTORE JUMP JUMPDEST SWAP1 PUSH1 0x1F DUP1 NOT SWAP2 ADD AND DUP2 ADD SWAP1 DUP2 LT PUSH1 0x1 PUSH1 0x1 PUSH1 0x40 SHL SUB DUP3 GT OR PUSH2 0x178D JUMPI PUSH1 0x40 MSTORE JUMP JUMPDEST SWAP1 PUSH1 0x40 MLOAD PUSH2 0x1E8A DUP2 PUSH2 0x1E0A JUMP JUMPDEST PUSH1 0x20 PUSH1 0x1 DUP3 SWAP5 DUP1 SLOAD DUP5 MSTORE ADD SLOAD SWAP2 ADD MSTORE JUMP JUMPDEST SWAP1 PUSH1 0x1 DUP3 DUP2 SHR SWAP3 AND DUP1 ISZERO PUSH2 0x1EC9 JUMPI JUMPDEST PUSH1 0x20 DUP4 LT EQ PUSH2 0x1EB5 JUMPI JUMP JUMPDEST PUSH4 0x4E487B71 PUSH1 0xE0 SHL PUSH0 MSTORE PUSH1 0x22 PUSH1 0x4 MSTORE PUSH1 0x24 PUSH0 REVERT JUMPDEST SWAP2 PUSH1 0x7F AND SWAP2 PUSH2 0x1EAA JUMP JUMPDEST SWAP1 PUSH1 0x40 MLOAD SWAP2 DUP3 PUSH0 DUP3 SLOAD SWAP3 PUSH2 0x1EE6 DUP5 PUSH2 0x1E9B JUMP JUMPDEST DUP1 DUP5 MSTORE SWAP4 PUSH1 0x1 DUP2 AND SWAP1 DUP2 ISZERO PUSH2 0x1F51 JUMPI POP PUSH1 0x1 EQ PUSH2 0x1F0D JUMPI JUMPDEST POP PUSH2 0x1F0B SWAP3 POP SUB DUP4 PUSH2 0x1E5C JUMP JUMPDEST JUMP JUMPDEST SWAP1 POP PUSH0 SWAP3 SWAP2 SWAP3 MSTORE PUSH1 0x20 PUSH0 KECCAK256 SWAP1 PUSH0 SWAP2 JUMPDEST DUP2 DUP4 LT PUSH2 0x1F35 JUMPI POP POP SWAP1 PUSH1 0x20 PUSH2 0x1F0B SWAP3 DUP3 ADD ADD PUSH0 PUSH2 0x1EFE JUMP JUMPDEST PUSH1 0x20 SWAP2 SWAP4 POP DUP1 PUSH1 0x1 SWAP2 SLOAD DUP4 DUP6 DUP10 ADD ADD MSTORE ADD SWAP2 ADD SWAP1 SWAP2 DUP5 SWAP3 PUSH2 0x1F1C JUMP JUMPDEST SWAP1 POP PUSH1 0x20 SWAP3 POP PUSH2 0x1F0B SWAP5 SWAP2 POP PUSH1 0xFF NOT AND DUP3 DUP5 ADD MSTORE ISZERO ISZERO PUSH1 0x5 SHL DUP3 ADD ADD PUSH0 PUSH2 0x1EFE JUMP JUMPDEST SWAP1 PUSH1 0x40 MLOAD PUSH2 0x1F80 DUP2 PUSH2 0x1E40 JUMP JUMPDEST PUSH1 0xE0 PUSH1 0x4 DUP3 SWAP5 PUSH1 0xFF DUP2 SLOAD DUP2 DUP2 AND ISZERO ISZERO DUP7 MSTORE DUP2 DUP2 PUSH1 0x8 SHR AND ISZERO ISZERO PUSH1 0x20 DUP8 ADD MSTORE DUP2 DUP2 PUSH1 0x10 SHR AND PUSH1 0x40 DUP8 ADD MSTORE PUSH1 0x18 SHR AND PUSH1 0x60 DUP6 ADD MSTORE PUSH1 0x1 DUP2 ADD SLOAD PUSH1 0x80 DUP6 ADD MSTORE PUSH1 0x2 DUP2 ADD SLOAD PUSH1 0xA0 DUP6 ADD MSTORE PUSH1 0x3 DUP2 ADD SLOAD PUSH1 0xC0 DUP6 ADD MSTORE ADD SLOAD SWAP2 ADD MSTORE JUMP JUMPDEST PUSH1 0x5 GT ISZERO PUSH2 0x1FE1 JUMPI JUMP JUMPDEST PUSH4 0x4E487B71 PUSH1 0xE0 SHL PUSH0 MSTORE PUSH1 0x21 PUSH1 0x4 MSTORE PUSH1 0x24 PUSH0 REVERT JUMPDEST SWAP1 PUSH1 0x40 MLOAD PUSH2 0x2002 DUP2 PUSH2 0x1E25 JUMP JUMPDEST PUSH1 0x40 PUSH2 0x202B PUSH1 0x2 DUP4 SWAP6 PUSH1 0xFF DUP2 SLOAD AND PUSH2 0x2019 DUP2 PUSH2 0x1FD7 JUMP JUMPDEST DUP6 MSTORE PUSH1 0x1 DUP2 ADD SLOAD PUSH1 0x20 DUP7 ADD MSTORE ADD PUSH2 0x1ED3 JUMP JUMPDEST SWAP2 ADD MSTORE JUMP JUMPDEST DUP1 MLOAD DUP1 DUP4 MSTORE PUSH1 0x20 SWAP3 SWAP2 DUP2 SWAP1 DUP5 ADD DUP5 DUP5 ADD MCOPY PUSH0 DUP3 DUP3 ADD DUP5 ADD MSTORE PUSH1 0x1F ADD PUSH1 0x1F NOT AND ADD ADD SWAP1 JUMP JUMPDEST PUSH1 0xE0 DUP1 SWAP2 DUP1 MLOAD ISZERO ISZERO DUP5 MSTORE PUSH1 0x20 DUP2 ADD MLOAD ISZERO ISZERO PUSH1 0x20 DUP6 ADD MSTORE PUSH1 0xFF PUSH1 0x40 DUP3 ADD MLOAD AND PUSH1 0x40 DUP6 ADD MSTORE PUSH1 0xFF PUSH1 0x60 DUP3 ADD MLOAD AND PUSH1 0x60 DUP6 ADD MSTORE PUSH1 0x80 DUP2 ADD MLOAD PUSH1 0x80 DUP6 ADD MSTORE PUSH1 0xA0 DUP2 ADD MLOAD PUSH1 0xA0 DUP6 ADD MSTORE PUSH1 0xC0 DUP2 ADD MLOAD PUSH1 0xC0 DUP6 ADD MSTORE ADD MLOAD SWAP2 ADD MSTORE JUMP JUMPDEST SWAP1 PUSH1 0x60 PUSH1 0x40 PUSH2 0x20D9 SWAP4 DUP1 MLOAD PUSH2 0x20BD DUP2 PUSH2 0x1FD7 JUMP JUMPDEST DUP5 MSTORE PUSH1 0x20 DUP2 ADD MLOAD PUSH1 0x20 DUP6 ADD MSTORE ADD MLOAD SWAP2 DUP2 PUSH1 0x40 DUP3 ADD MSTORE ADD SWAP1 PUSH2 0x2030 JUMP JUMPDEST SWAP1 JUMP JUMPDEST PUSH1 0x40 SWAP1 PUSH1 0x3 NOT ADD SLT PUSH2 0x191 JUMPI PUSH1 0x4 CALLDATALOAD SWAP1 PUSH1 0x24 CALLDATALOAD SWAP1 JUMP JUMPDEST SWAP2 DUP2 PUSH1 0x1F DUP5 ADD SLT ISZERO PUSH2 0x191 JUMPI DUP3 CALLDATALOAD SWAP2 PUSH1 0x1 PUSH1 0x1 PUSH1 0x40 SHL SUB DUP4 GT PUSH2 0x191 JUMPI PUSH1 0x20 DUP4 DUP2 DUP7 ADD SWAP6 ADD ADD GT PUSH2 0x191 JUMPI JUMP JUMPDEST SWAP1 PUSH1 0x20 DUP1 DUP4 MLOAD SWAP3 DUP4 DUP2 MSTORE ADD SWAP3 ADD SWAP1 PUSH0 JUMPDEST DUP2 DUP2 LT PUSH2 0x213C JUMPI POP POP POP SWAP1 JUMP JUMPDEST DUP3 MLOAD DUP5 MSTORE PUSH1 0x20 SWAP4 DUP5 ADD SWAP4 SWAP1 SWAP3 ADD SWAP2 PUSH1 0x1 ADD PUSH2 0x212F JUMP JUMPDEST SWAP1 PUSH1 0x60 PUSH1 0x3 NOT DUP4 ADD SLT PUSH2 0x191 JUMPI PUSH1 0x4 CALLDATALOAD SWAP2 PUSH1 0x24 CALLDATALOAD PUSH1 0x1 PUSH1 0x1 PUSH1 0x40 SHL SUB DUP2 GT PUSH2 0x191 JUMPI DUP2 PUSH2 0x2181 SWAP2 PUSH1 0x4 ADD PUSH2 0x20F2 JUMP JUMPDEST SWAP3 SWAP1 SWAP3 SWAP2 PUSH1 0x44 CALLDATALOAD SWAP1 PUSH1 0x1 PUSH1 0x1 PUSH1 0x40 SHL SUB DUP3 GT PUSH2 0x191 JUMPI PUSH2 0x21A3 SWAP2 PUSH1 0x4 ADD PUSH2 0x20F2 JUMP JUMPDEST SWAP1 SWAP2 JUMP JUMPDEST SWAP1 PUSH2 0x21B1 DUP2 PUSH2 0x1FD7 JUMP JUMPDEST PUSH1 0xFF DUP1 NOT DUP4 SLOAD AND SWAP2 AND OR SWAP1 SSTORE JUMP JUMPDEST SWAP2 SWAP1 DUP3 SUB SWAP2 DUP3 GT PUSH2 0x16DB JUMPI JUMP JUMPDEST DUP2 DUP2 LT PUSH2 0x21D7 JUMPI POP POP JUMP JUMPDEST PUSH0 DUP2 SSTORE PUSH1 0x1 ADD PUSH2 0x21CC JUMP JUMPDEST PUSH1 0xC4 CALLDATALOAD PUSH1 0xFF DUP2 AND DUP2 SUB PUSH2 0x191 JUMPI SWAP1 JUMP JUMPDEST SWAP1 CALLDATALOAD SWAP1 PUSH1 0x1E NOT DUP2 CALLDATASIZE SUB ADD DUP3 SLT ISZERO PUSH2 0x191 JUMPI ADD DUP1 CALLDATALOAD SWAP1 PUSH1 0x1 PUSH1 0x1 PUSH1 0x40 SHL SUB DUP3 GT PUSH2 0x191 JUMPI PUSH1 0x20 ADD SWAP2 DUP2 CALLDATASIZE SUB DUP4 SGT PUSH2 0x191 JUMPI JUMP JUMPDEST PUSH1 0x40 MLOAD SWAP1 PUSH2 0x2231 DUP3 PUSH2 0x1E40 JUMP JUMPDEST PUSH0 PUSH1 0xE0 DUP4 DUP3 DUP2 MSTORE DUP3 PUSH1 0x20 DUP3 ADD MSTORE DUP3 PUSH1 0x40 DUP3 ADD MSTORE DUP3 PUSH1 0x60 DUP3 ADD MSTORE DUP3 PUSH1 0x80 DUP3 ADD MSTORE DUP3 PUSH1 0xA0 DUP3 ADD MSTORE DUP3 PUSH1 0xC0 DUP3 ADD MSTORE ADD MSTORE JUMP JUMPDEST SWAP2 SWAP1 DUP3 ADD DUP1 SWAP3 GT PUSH2 0x16DB JUMPI JUMP JUMPDEST SWAP1 DUP1 PUSH1 0x20 SWAP4 SWAP3 DUP2 DUP5 MSTORE DUP5 DUP5 ADD CALLDATACOPY PUSH0 DUP3 DUP3 ADD DUP5 ADD MSTORE PUSH1 0x1F ADD PUSH1 0x1F NOT AND ADD ADD SWAP1 JUMP JUMPDEST SWAP3 SWAP1 PUSH2 0x22A6 SWAP1 PUSH2 0x20D9 SWAP6 SWAP4 PUSH1 0x40 DUP7 MSTORE PUSH1 0x40 DUP7 ADD SWAP2 PUSH2 0x226D JUMP JUMPDEST SWAP3 PUSH1 0x20 DUP2 DUP6 SUB SWAP2 ADD MSTORE PUSH2 0x226D JUMP JUMPDEST PUSH0 NOT DUP2 EQ PUSH2 0x16DB JUMPI PUSH1 0x1 ADD SWAP1 JUMP JUMPDEST PUSH2 0x22CB DUP2 PUSH2 0x1FD7 JUMP JUMPDEST PUSH2 0x22D4 DUP3 PUSH2 0x1FD7 JUMP JUMPDEST DUP1 DUP3 EQ PUSH2 0x2381 JUMPI PUSH2 0x22E4 DUP2 PUSH2 0x1FD7 JUMP JUMPDEST PUSH1 0x2 DUP2 EQ DUP1 ISZERO PUSH2 0x239A JUMPI JUMPDEST DUP1 ISZERO PUSH2 0x2387 JUMPI JUMPDEST PUSH2 0x2381 JUMPI PUSH2 0x2303 DUP2 PUSH2 0x1FD7 JUMP JUMPDEST DUP1 ISZERO PUSH2 0x2362 JUMPI PUSH1 0x3 SWAP1 PUSH2 0x2315 DUP2 PUSH2 0x1FD7 JUMP JUMPDEST EQ PUSH2 0x231F JUMPI POP PUSH0 SWAP1 JUMP JUMPDEST PUSH2 0x2328 DUP2 PUSH2 0x1FD7 JUMP JUMPDEST DUP1 ISZERO SWAP1 DUP2 ISZERO PUSH2 0x234D JUMPI JUMPDEST DUP2 ISZERO PUSH2 0x233C JUMPI POP SWAP1 JUMP JUMPDEST PUSH1 0x1 SWAP2 POP PUSH2 0x2349 DUP2 PUSH2 0x1FD7 JUMP JUMPDEST EQ SWAP1 JUMP JUMPDEST SWAP1 POP PUSH2 0x2358 DUP2 PUSH2 0x1FD7 JUMP JUMPDEST PUSH1 0x2 DUP2 EQ SWAP1 PUSH2 0x2332 JUMP JUMPDEST POP PUSH2 0x236C DUP2 PUSH2 0x1FD7 JUMP JUMPDEST PUSH1 0x3 DUP2 EQ SWAP1 DUP2 ISZERO PUSH2 0x234D JUMPI DUP2 ISZERO PUSH2 0x233C JUMPI POP SWAP1 JUMP JUMPDEST POP POP PUSH0 SWAP1 JUMP JUMPDEST POP PUSH2 0x2391 DUP2 PUSH2 0x1FD7 JUMP JUMPDEST PUSH1 0x1 DUP2 EQ PUSH2 0x22F6 JUMP JUMPDEST POP PUSH2 0x23A4 DUP2 PUSH2 0x1FD7 JUMP JUMPDEST PUSH1 0x4 DUP2 EQ PUSH2 0x22EF JUMP JUMPDEST DUP1 MLOAD SWAP1 DUP2 ISZERO PUSH2 0x2381 JUMPI PUSH1 0x20 PUSH0 SWAP2 DUP4 DUP3 SWAP5 PUSH1 0x40 MLOAD SWAP4 DUP5 SWAP4 ADD DUP4 MCOPY DUP2 ADD DUP4 DUP2 MSTORE SUB SWAP1 PUSH1 0x2 GAS STATICCALL ISZERO PUSH2 0xEE7 JUMPI PUSH0 MLOAD PUSH1 0x1 PUSH1 0x1 PUSH1 0xF8 SHL SUB AND PUSH1 0x1 PUSH1 0xF8 SHL OR SWAP1 JUMP JUMPDEST PUSH0 JUMPDEST DUP1 BLOBHASH DUP1 ISZERO PUSH2 0x240C JUMPI DUP3 EQ PUSH2 0x2408 JUMPI PUSH2 0x2403 SWAP1 PUSH2 0x22B4 JUMP JUMPDEST PUSH2 0x23EC JUMP JUMPDEST POP POP JUMP JUMPDEST PUSH4 0x110B909 PUSH1 0xE6 SHL PUSH0 MSTORE PUSH1 0x4 PUSH0 REVERT INVALID LOG2 PUSH5 0x6970667358 0x22 SLT KECCAK256 BASEFEE MCOPY 0xDD 0xED 0x4E 0xA5 0x2D DUP14 0x25 MSTORE DUP4 PUSH29 0xD15508EBD4D88F67043227DDBBB13953AF812C8264736F6C634300081C STOP CALLER "},"methodIdentifiers":{"BLOB_INDEX()":"26795bc3","MAX_CENSUS_ORIGIN()":"02cc919a","MAX_STATUS()":"72c628ef","blobsDA()":"cdf497c8","chainID()":"adc879e9","getNextProcessId(address)":"68141f2c","getProcess(bytes32)":"992bc45b","getProcessEndTime(bytes32)":"a5f01e19","getRVerifierVKeyHash()":"f9aa4499","getSTVerifierVKeyHash()":"4c0acc56","newProcess(uint8,uint256,uint256,uint256,(bool,bool,uint8,uint8,uint256,uint256,uint256,uint256),(uint8,bytes32,string),string,(uint256,uint256),uint256)":"75462f70","pidPrefix()":"cddf08bc","processCount()":"848df540","processNonce(address)":"62fa11fc","processes(bytes32)":"0535fece","rVerifier()":"9c18deaf","setProcessCensus(bytes32,(uint8,bytes32,string))":"f4c2a3bb","setProcessDuration(bytes32,uint256)":"c718c01f","setProcessMaxVoters(bytes32,uint256)":"74e07826","setProcessResults(bytes32,bytes,bytes)":"a5b110de","setProcessStatus(bytes32,uint8)":"56a6f1e2","stVerifier()":"09706392","submitStateTransition(bytes32,bytes,bytes)":"d71d072e"}}}}}