{"src/ProcessRegistry.sol":{"ProcessRegistry":{"abi":[{"inputs":[{"internalType":"uint32","name":"_chainID","type":"uint32"},{"internalType":"address","name":"_stVerifier","type":"address"},{"internalType":"address","name":"_rVerifier","type":"address"},{"internalType":"bool","name":"_blobsDA","type":"bool"}],"stateMutability":"nonpayable","type":"constructor"},{"inputs":[],"name":"BlobNotFoundInTx","type":"error"},{"inputs":[{"internalType":"uint256","name":"got","type":"uint256"},{"internalType":"uint256","name":"expected","type":"uint256"}],"name":"BlobVerificationInvalidBLSModulus","type":"error"},{"inputs":[{"internalType":"uint256","name":"got","type":"uint256"},{"internalType":"uint256","name":"expected","type":"uint256"}],"name":"BlobVerificationInvalidFieldElementCount","type":"error"},{"inputs":[{"internalType":"uint256","name":"got","type":"uint256"},{"internalType":"uint256","name":"expected","type":"uint256"}],"name":"BlobVerificationInvalidInputLength","type":"error"},{"inputs":[{"internalType":"uint256","name":"got","type":"uint256"},{"internalType":"uint256","name":"expected","type":"uint256"}],"name":"BlobVerificationInvalidOutputLength","type":"error"},{"inputs":[],"name":"BlobVerificationPointEvaluationFailed","type":"error"},{"inputs":[],"name":"CannotAcceptResult","type":"error"},{"inputs":[],"name":"InvalidCensusOrigin","type":"error"},{"inputs":[],"name":"InvalidCensusRoot","type":"error"},{"inputs":[],"name":"InvalidCensusURI","type":"error"},{"inputs":[],"name":"InvalidDuration","type":"error"},{"inputs":[],"name":"InvalidMaxCount","type":"error"},{"inputs":[],"name":"InvalidMaxMinValueBounds","type":"error"},{"inputs":[],"name":"InvalidMaxValue","type":"error"},{"inputs":[],"name":"InvalidMaxValueSum","type":"error"},{"inputs":[],"name":"InvalidMinTotalCost","type":"error"},{"inputs":[],"name":"InvalidMinValue","type":"error"},{"inputs":[],"name":"InvalidProcessId","type":"error"},{"inputs":[],"name":"InvalidStartTime","type":"error"},{"inputs":[],"name":"InvalidStateRoot","type":"error"},{"inputs":[],"name":"InvalidStatus","type":"error"},{"inputs":[],"name":"InvalidTimeBounds","type":"error"},{"inputs":[],"name":"InvalidUniqueValues","type":"error"},{"inputs":[],"name":"InvalidValueSumBounds","type":"error"},{"inputs":[{"internalType":"uint256","name":"got","type":"uint256"},{"internalType":"uint256","name":"expected","type":"uint256"}],"name":"KZGInputBadCommitmentLength","type":"error"},{"inputs":[{"internalType":"uint256","name":"got","type":"uint256"},{"internalType":"uint256","name":"expected","type":"uint256"}],"name":"KZGInputBadProofLength","type":"error"},{"inputs":[],"name":"ProcessAlreadyExists","type":"error"},{"inputs":[],"name":"ProcessNotEnded","type":"error"},{"inputs":[],"name":"ProcessNotFound","type":"error"},{"inputs":[],"name":"ProofInvalid","type":"error"},{"inputs":[],"name":"Unauthorized","type":"error"},{"inputs":[],"name":"UnknownProcessIdPrefix","type":"error"},{"anonymous":false,"inputs":[{"indexed":true,"internalType":"bytes32","name":"processId","type":"bytes32"},{"indexed":false,"internalType":"bytes32","name":"censusRoot","type":"bytes32"},{"indexed":false,"internalType":"string","name":"censusURI","type":"string"}],"name":"CensusUpdated","type":"event"},{"anonymous":false,"inputs":[{"indexed":true,"internalType":"bytes32","name":"processId","type":"bytes32"},{"indexed":true,"internalType":"address","name":"creator","type":"address"}],"name":"ProcessCreated","type":"event"},{"anonymous":false,"inputs":[{"indexed":true,"internalType":"bytes32","name":"processId","type":"bytes32"},{"indexed":false,"internalType":"uint256","name":"duration","type":"uint256"}],"name":"ProcessDurationChanged","type":"event"},{"anonymous":false,"inputs":[{"indexed":true,"internalType":"bytes32","name":"processId","type":"bytes32"},{"indexed":true,"internalType":"address","name":"sender","type":"address"},{"indexed":false,"internalType":"uint256[]","name":"result","type":"uint256[]"}],"name":"ProcessResultsSet","type":"event"},{"anonymous":false,"inputs":[{"indexed":true,"internalType":"bytes32","name":"processId","type":"bytes32"},{"indexed":true,"internalType":"address","name":"sender","type":"address"},{"indexed":false,"internalType":"uint256","name":"newStateRoot","type":"uint256"}],"name":"ProcessStateRootUpdated","type":"event"},{"anonymous":false,"inputs":[{"indexed":true,"internalType":"bytes32","name":"processId","type":"bytes32"},{"indexed":false,"internalType":"enum IProcessRegistry.ProcessStatus","name":"oldStatus","type":"uint8"},{"indexed":false,"internalType":"enum IProcessRegistry.ProcessStatus","name":"newStatus","type":"uint8"}],"name":"ProcessStatusChanged","type":"event"},{"inputs":[],"name":"BLOB_INDEX","outputs":[{"internalType":"uint8","name":"","type":"uint8"}],"stateMutability":"view","type":"function"},{"inputs":[],"name":"MAX_CENSUS_ORIGIN","outputs":[{"internalType":"uint8","name":"","type":"uint8"}],"stateMutability":"view","type":"function"},{"inputs":[],"name":"MAX_STATUS","outputs":[{"internalType":"uint8","name":"","type":"uint8"}],"stateMutability":"view","type":"function"},{"inputs":[],"name":"blobsDA","outputs":[{"internalType":"bool","name":"","type":"bool"}],"stateMutability":"view","type":"function"},{"inputs":[],"name":"chainID","outputs":[{"internalType":"uint32","name":"","type":"uint32"}],"stateMutability":"view","type":"function"},{"inputs":[{"internalType":"address","name":"organizationId","type":"address"}],"name":"getNextProcessId","outputs":[{"internalType":"bytes32","name":"","type":"bytes32"}],"stateMutability":"view","type":"function"},{"inputs":[{"internalType":"bytes32","name":"processId","type":"bytes32"}],"name":"getProcess","outputs":[{"components":[{"internalType":"enum IProcessRegistry.ProcessStatus","name":"status","type":"uint8"},{"internalType":"address","name":"organizationId","type":"address"},{"components":[{"internalType":"uint256","name":"x","type":"uint256"},{"internalType":"uint256","name":"y","type":"uint256"}],"internalType":"struct IProcessRegistry.EncryptionKey","name":"encryptionKey","type":"tuple"},{"internalType":"uint256","name":"latestStateRoot","type":"uint256"},{"internalType":"uint256[]","name":"result","type":"uint256[]"},{"internalType":"uint256","name":"startTime","type":"uint256"},{"internalType":"uint256","name":"duration","type":"uint256"},{"internalType":"uint256","name":"voteCount","type":"uint256"},{"internalType":"uint256","name":"voteOverwriteCount","type":"uint256"},{"internalType":"uint256","name":"creationBlock","type":"uint256"},{"internalType":"uint256","name":"batchNumber","type":"uint256"},{"internalType":"string","name":"metadataURI","type":"string"},{"components":[{"internalType":"bool","name":"costFromWeight","type":"bool"},{"internalType":"bool","name":"uniqueValues","type":"bool"},{"internalType":"uint8","name":"numFields","type":"uint8"},{"internalType":"uint8","name":"costExponent","type":"uint8"},{"internalType":"uint256","name":"maxValue","type":"uint256"},{"internalType":"uint256","name":"minValue","type":"uint256"},{"internalType":"uint256","name":"maxValueSum","type":"uint256"},{"internalType":"uint256","name":"minValueSum","type":"uint256"}],"internalType":"struct IProcessRegistry.BallotMode","name":"ballotMode","type":"tuple"},{"components":[{"internalType":"enum IProcessRegistry.CensusOrigin","name":"censusOrigin","type":"uint8"},{"internalType":"bytes32","name":"censusRoot","type":"bytes32"},{"internalType":"string","name":"censusURI","type":"string"}],"internalType":"struct IProcessRegistry.Census","name":"census","type":"tuple"}],"internalType":"struct IProcessRegistry.Process","name":"","type":"tuple"}],"stateMutability":"view","type":"function"},{"inputs":[{"internalType":"bytes32","name":"processId","type":"bytes32"}],"name":"getProcessEndTime","outputs":[{"internalType":"uint256","name":"","type":"uint256"}],"stateMutability":"view","type":"function"},{"inputs":[],"name":"getRVerifierVKeyHash","outputs":[{"internalType":"bytes32","name":"","type":"bytes32"}],"stateMutability":"view","type":"function"},{"inputs":[],"name":"getSTVerifierVKeyHash","outputs":[{"internalType":"bytes32","name":"","type":"bytes32"}],"stateMutability":"view","type":"function"},{"inputs":[{"internalType":"enum IProcessRegistry.ProcessStatus","name":"status","type":"uint8"},{"internalType":"uint256","name":"startTime","type":"uint256"},{"internalType":"uint256","name":"duration","type":"uint256"},{"components":[{"internalType":"bool","name":"costFromWeight","type":"bool"},{"internalType":"bool","name":"uniqueValues","type":"bool"},{"internalType":"uint8","name":"numFields","type":"uint8"},{"internalType":"uint8","name":"costExponent","type":"uint8"},{"internalType":"uint256","name":"maxValue","type":"uint256"},{"internalType":"uint256","name":"minValue","type":"uint256"},{"internalType":"uint256","name":"maxValueSum","type":"uint256"},{"internalType":"uint256","name":"minValueSum","type":"uint256"}],"internalType":"struct IProcessRegistry.BallotMode","name":"ballotMode","type":"tuple"},{"components":[{"internalType":"enum IProcessRegistry.CensusOrigin","name":"censusOrigin","type":"uint8"},{"internalType":"bytes32","name":"censusRoot","type":"bytes32"},{"internalType":"string","name":"censusURI","type":"string"}],"internalType":"struct IProcessRegistry.Census","name":"census","type":"tuple"},{"internalType":"string","name":"metadata","type":"string"},{"components":[{"internalType":"uint256","name":"x","type":"uint256"},{"internalType":"uint256","name":"y","type":"uint256"}],"internalType":"struct IProcessRegistry.EncryptionKey","name":"encryptionKey","type":"tuple"},{"internalType":"uint256","name":"initStateRoot","type":"uint256"}],"name":"newProcess","outputs":[{"internalType":"bytes32","name":"","type":"bytes32"}],"stateMutability":"nonpayable","type":"function"},{"inputs":[],"name":"pidPrefix","outputs":[{"internalType":"uint32","name":"","type":"uint32"}],"stateMutability":"view","type":"function"},{"inputs":[],"name":"processCount","outputs":[{"internalType":"uint32","name":"","type":"uint32"}],"stateMutability":"view","type":"function"},{"inputs":[{"internalType":"address","name":"","type":"address"}],"name":"processNonce","outputs":[{"internalType":"uint64","name":"","type":"uint64"}],"stateMutability":"view","type":"function"},{"inputs":[{"internalType":"bytes32","name":"","type":"bytes32"}],"name":"processes","outputs":[{"internalType":"enum IProcessRegistry.ProcessStatus","name":"status","type":"uint8"},{"internalType":"address","name":"organizationId","type":"address"},{"components":[{"internalType":"uint256","name":"x","type":"uint256"},{"internalType":"uint256","name":"y","type":"uint256"}],"internalType":"struct IProcessRegistry.EncryptionKey","name":"encryptionKey","type":"tuple"},{"internalType":"uint256","name":"latestStateRoot","type":"uint256"},{"internalType":"uint256","name":"startTime","type":"uint256"},{"internalType":"uint256","name":"duration","type":"uint256"},{"internalType":"uint256","name":"voteCount","type":"uint256"},{"internalType":"uint256","name":"voteOverwriteCount","type":"uint256"},{"internalType":"uint256","name":"creationBlock","type":"uint256"},{"internalType":"uint256","name":"batchNumber","type":"uint256"},{"internalType":"string","name":"metadataURI","type":"string"},{"components":[{"internalType":"bool","name":"costFromWeight","type":"bool"},{"internalType":"bool","name":"uniqueValues","type":"bool"},{"internalType":"uint8","name":"numFields","type":"uint8"},{"internalType":"uint8","name":"costExponent","type":"uint8"},{"internalType":"uint256","name":"maxValue","type":"uint256"},{"internalType":"uint256","name":"minValue","type":"uint256"},{"internalType":"uint256","name":"maxValueSum","type":"uint256"},{"internalType":"uint256","name":"minValueSum","type":"uint256"}],"internalType":"struct IProcessRegistry.BallotMode","name":"ballotMode","type":"tuple"},{"components":[{"internalType":"enum IProcessRegistry.CensusOrigin","name":"censusOrigin","type":"uint8"},{"internalType":"bytes32","name":"censusRoot","type":"bytes32"},{"internalType":"string","name":"censusURI","type":"string"}],"internalType":"struct IProcessRegistry.Census","name":"census","type":"tuple"}],"stateMutability":"view","type":"function"},{"inputs":[],"name":"rVerifier","outputs":[{"internalType":"address","name":"","type":"address"}],"stateMutability":"view","type":"function"},{"inputs":[{"internalType":"bytes32","name":"processId","type":"bytes32"},{"components":[{"internalType":"enum IProcessRegistry.CensusOrigin","name":"censusOrigin","type":"uint8"},{"internalType":"bytes32","name":"censusRoot","type":"bytes32"},{"internalType":"string","name":"censusURI","type":"string"}],"internalType":"struct IProcessRegistry.Census","name":"census","type":"tuple"}],"name":"setProcessCensus","outputs":[],"stateMutability":"nonpayable","type":"function"},{"inputs":[{"internalType":"bytes32","name":"processId","type":"bytes32"},{"internalType":"uint256","name":"_duration","type":"uint256"}],"name":"setProcessDuration","outputs":[],"stateMutability":"nonpayable","type":"function"},{"inputs":[{"internalType":"bytes32","name":"processId","type":"bytes32"},{"internalType":"bytes","name":"proof","type":"bytes"},{"internalType":"bytes","name":"input","type":"bytes"}],"name":"setProcessResults","outputs":[],"stateMutability":"nonpayable","type":"function"},{"inputs":[{"internalType":"bytes32","name":"processId","type":"bytes32"},{"internalType":"enum IProcessRegistry.ProcessStatus","name":"newStatus","type":"uint8"}],"name":"setProcessStatus","outputs":[],"stateMutability":"nonpayable","type":"function"},{"inputs":[],"name":"stVerifier","outputs":[{"internalType":"address","name":"","type":"address"}],"stateMutability":"view","type":"function"},{"inputs":[{"internalType":"bytes32","name":"processId","type":"bytes32"},{"internalType":"bytes","name":"proof","type":"bytes"},{"internalType":"bytes","name":"input","type":"bytes"}],"name":"submitStateTransition","outputs":[],"stateMutability":"nonpayable","type":"function"}],"evm":{"bytecode":{"linkReferences":{},"object":"608060405234801561000f575f5ffd5b506040516130d73803806130d783398101604081905261002e91610132565b6002805460038054600160201b600160e01b0319909216680100000000000000006001600160a01b038881169190910263ffffffff60201b19169190911764010000000063ffffffff8a160217909355918416600164ff0000000160a01b031990911617600160c01b831515021790556100ee84306040805160e09390931b6001600160e01b03191660208085019190915260609290921b6001600160601b03191660248401528051601881850301815260389093019052815191012090565b600360146101000a81548163ffffffff021916908363ffffffff16021790555050505050610193565b80516001600160a01b038116811461012d575f5ffd5b919050565b5f5f5f5f60808587031215610145575f5ffd5b845163ffffffff81168114610158575f5ffd5b935061016660208601610117565b925061017460408601610117565b915060608501518015158114610188575f5ffd5b939692955090935050565b612f37806101a05f395ff3fe608060405234801561000f575f5ffd5b506004361061013d575f3560e01c8063992bc45b116100b4578063c718c01f11610079578063c718c01f146102f4578063cddf08bc14610307578063cdf497c81461031e578063d71d072e14610342578063f4c2a3bb14610355578063f9aa449914610368575f5ffd5b8063992bc45b146102835780639c18deaf146102a3578063a5b110de146102b6578063a5f01e19146102c9578063adc879e9146102dc575f5ffd5b80634c0acc56116101055780634c0acc56146101e657806356a6f1e2146101ee57806362fa11fc1461020357806368141f2c1461024357806372c628ef14610256578063848df5401461025e575f5ffd5b806302cc919a146101415780630535fece14610160578063097063921461018c57806326795bc3146101be5780632df8e91e146101c5575b5f5ffd5b610149600281565b60405160ff90911681526020015b60405180910390f35b61017361016e3660046122a0565b610370565b6040516101579d9c9b9a999897969594939291906123af565b6002546101a690600160401b90046001600160a01b031681565b6040516001600160a01b039091168152602001610157565b6101495f81565b6101d86101d33660046124d7565b6105ad565b604051908152602001610157565b6101d8610770565b6102016101fc36600461259f565b6107eb565b005b61022b6102113660046125c9565b60016020525f90815260409020546001600160401b031681565b6040516001600160401b039091168152602001610157565b6101d86102513660046125c9565b6109e8565b610149600481565b60025461026e9063ffffffff1681565b60405163ffffffff9091168152602001610157565b6102966102913660046122a0565b610a41565b6040516101579190612629565b6003546101a6906001600160a01b031681565b6102016102c436600461272b565b610d47565b6101d86102d73660046122a0565b611070565b60025461026e90640100000000900463ffffffff1681565b6102016103023660046127a2565b611388565b60035461026e90600160a01b900463ffffffff1681565b60035461033290600160c01b900460ff1681565b6040519015158152602001610157565b61020161035036600461272b565b61153a565b6102016103633660046127c2565b61182a565b6101d8611a90565b5f60208181529181526040908190208054825180840190935260018201548352600282015493830193909352600381015460058201546006830154600784015460088501546009860154600a870154600b8801805460ff8c169b61010090046001600160a01b03169a9991906103e590612805565b80601f016020809104026020016040519081016040528092919081815260200182805461041190612805565b801561045c5780601f106104335761010080835404028352916020019161045c565b820191905f5260205f20905b81548152906001019060200180831161043f57829003601f168201915b5050604080516101008082018352600c88015460ff80821615158452918104821615156020840152620100008104821683850152630100000090048116606080840191909152600d8901546080840152600e89015460a0840152600f89015460c0840152601089015460e084015283519081019093526011880180549798929792965092945091925083911660028111156104f9576104f96122b7565b600281111561050a5761050a6122b7565b81526020016001820154815260200160028201805461052890612805565b80601f016020809104026020016040519081016040528092919081815260200182805461055490612805565b801561059f5780601f106105765761010080835404028352916020019161059f565b820191905f5260205f20905b81548152906001019060200180831161058257829003601f168201915b50505050508152505090508d565b600354335f818152600160205260408082205491936001600160401b03909216600160a01b909204901b63ffffffff60401b16606083901b17176105f681838e8e8e8e8e611ad7565b5f81815260208190526040902080548d90829060ff19166001836004811115610621576106216122b7565b0217905550600581018c9055600681018b90558054610100600160a81b0319166101006001600160a01b03851602178155853560018201556020860135600282015560038101859055600b8101610679888a83612894565b5089600c82016106898282612977565b508990506011820161069b8282612a85565b50504360098201556002805463ffffffff16905f6106b883612b23565b825463ffffffff9182166101009390930a9283029190920219909116179055506001600160a01b0383165f90815260016020526040812080546001600160401b03169161070483612b47565b91906101000a8154816001600160401b0302191690836001600160401b0316021790555050826001600160a01b0316827fada6f87a2a16a0c9c169ca36754c5f33f7c1a973b575d068f888a549ed4faefa60405160405180910390a3509b9a5050505050505050505050565b5f600260089054906101000a90046001600160a01b03166001600160a01b031663233ace116040518163ffffffff1660e01b8152600401602060405180830381865afa1580156107c2573d5f5f3e3d5ffd5b505050506040513d601f19601f820116820180604052508101906107e69190612b68565b905090565b816108095760405163cbf4a64560e01b815260040160405180910390fd5b600354604083901c63ffffffff908116600160a01b909204161461084057604051632299770d60e11b815260040160405180910390fd5b60048181811115610853576108536122b7565b60ff161115610875576040516307a92f1960e51b815260040160405180910390fd5b5f828152602081905260409020805461010090046001600160a01b03166108af57604051634d36eb6960e01b815260040160405180910390fd5b805461010090046001600160a01b031633146108dd576040516282b42960e81b815260040160405180910390fd5b805460ff166108ec8184611d3e565b610909576040516307a92f1960e51b815260040160405180910390fd5b81548390839060ff19166001836004811115610927576109276122b7565b02179055506001836004811115610940576109406122b7565b036109a8575f826005015442106109675760058301546109609042612b7f565b905061096a565b505f5b6006830181905560405181815285907f0f759826327c668a220d576485ac38ddc4f83fbc414b984c00e79f669b649f469060200160405180910390a2505b837f2f25f350b681441b5bb45430fbe61e78d0170cff4ad02cb0aa48a6427909aa8c82856040516109da929190612b92565b60405180910390a250505050565b6003546001600160a01b0382165f908152600160205260408082205491926001600160401b03909216600160a01b909204901b63ffffffff60401b16606084901b6bffffffffffffffffffffffff191617175b92915050565b610a49612152565b5f828152602081905260409081902081516101c081019092528054829060ff166004811115610a7a57610a7a6122b7565b6004811115610a8b57610a8b6122b7565b8152815461010090046001600160a01b03166020808301919091526040805180820182526001850154815260028501548184015281840152600384015460608401526004840180548251818502810185019093528083526080909401939192909190830182828015610b1a57602002820191905f5260205f20905b815481526020019060010190808311610b06575b505050505081526020016005820154815260200160068201548152602001600782015481526020016008820154815260200160098201548152602001600a8201548152602001600b82018054610b6f90612805565b80601f0160208091040260200160405190810160405280929190818152602001828054610b9b90612805565b8015610be65780601f10610bbd57610100808354040283529160200191610be6565b820191905f5260205f20905b815481529060010190602001808311610bc957829003601f168201915b5050509183525050604080516101008082018352600c85015460ff808216151584529181048216151560208481019190915262010000820483168486015263010000009091048216606080850191909152600d8701546080850152600e87015460a0850152600f87015460c0850152601087015460e08501529085019290925282519182018352601185018054939094019391928391166002811115610c8e57610c8e6122b7565b6002811115610c9f57610c9f6122b7565b815260200160018201548152602001600282018054610cbd90612805565b80601f0160208091040260200160405190810160405280929190818152602001828054610ce990612805565b8015610d345780601f10610d0b57610100808354040283529160200191610d34565b820191905f5260205f20905b815481529060010190602001808311610d1757829003601f168201915b5050509190925250505090525092915050565b84610d655760405163cbf4a64560e01b815260040160405180910390fd5b600354604086901c63ffffffff908116600160a01b9092041614610d9c57604051632299770d60e11b815260040160405180910390fd5b5f858152602081905260409020805461010090046001600160a01b0316610dd657604051634d36eb6960e01b815260040160405180910390fd5b6002815460ff166004811115610dee57610dee6122b7565b1480610e0f57506004815460ff166004811115610e0d57610e0d6122b7565b145b15610e2d576040516307a92f1960e51b815260040160405180910390fd5b6001815460ff166004811115610e4557610e456122b7565b14158015610e6557504281600601548260050154610e639190612bad565b115b15610e835760405163e843c5eb60e01b815260040160405180910390fd5b8054600354604051635c73957b60e11b815260ff909216916001600160a01b039091169063b8e72af690610ec1908990899089908990600401612be8565b5f6040518083038186803b158015610ed7575f5ffd5b505afa158015610ee9573d5f5f3e3d5ffd5b505f9250610efc91505084860186612c49565b6003840154815191925014610f2457604051630b6fac0360e41b815260040160405180910390fd5b5f610f3160016009612b7f565b6001600160401b03811115610f4857610f48612837565b604051908082528060200260200182016040528015610f71578160200160208202803683370190505b50905060015b6009811015610fc657828160098110610f9257610f92612cb0565b602002015182610fa3600184612b7f565b81518110610fb357610fb3612cb0565b6020908102919091010152600101610f77565b50835460ff1916600490811785558151610fe7918601906020840190612243565b50887f2f25f350b681441b5bb45430fbe61e78d0170cff4ad02cb0aa48a6427909aa8c84600460405161101b929190612b92565b60405180910390a2336001600160a01b0316897f5da8009aeb11de7ef64598b0de897a03d2f93efabda8507a70e29cca4530cf5d8360405161105d9190612cc4565b60405180910390a3505050505050505050565b5f8181526020819052604080822081516101c08101909252805483929190829060ff1660048111156110a4576110a46122b7565b60048111156110b5576110b56122b7565b8152815461010090046001600160a01b0316602080830191909152604080518082018252600185015481526002850154818401528184015260038401546060840152600484018054825181850281018501909352808352608090940193919290919083018282801561114457602002820191905f5260205f20905b815481526020019060010190808311611130575b505050505081526020016005820154815260200160068201548152602001600782015481526020016008820154815260200160098201548152602001600a8201548152602001600b8201805461119990612805565b80601f01602080910402602001604051908101604052809291908181526020018280546111c590612805565b80156112105780601f106111e757610100808354040283529160200191611210565b820191905f5260205f20905b8154815290600101906020018083116111f357829003601f168201915b5050509183525050604080516101008082018352600c85015460ff808216151584529181048216151560208481019190915262010000820483168486015263010000009091048216606080850191909152600d8701546080850152600e87015460a0850152600f87015460c0850152601087015460e085015290850192909252825191820183526011850180549390940193919283911660028111156112b8576112b86122b7565b60028111156112c9576112c96122b7565b8152602001600182015481526020016002820180546112e790612805565b80601f016020809104026020016040519081016040528092919081815260200182805461131390612805565b801561135e5780601f106113355761010080835404028352916020019161135e565b820191905f5260205f20905b81548152906001019060200180831161134157829003601f168201915b5050505050815250508152505090508060c001518160a001516113819190612bad565b9392505050565b816113a65760405163cbf4a64560e01b815260040160405180910390fd5b600354604083901c63ffffffff908116600160a01b90920416146113dd57604051632299770d60e11b815260040160405180910390fd5b5f828152602081905260409020805461010090046001600160a01b031661141757604051634d36eb6960e01b815260040160405180910390fd5b805461010090046001600160a01b03163314611445576040516282b42960e81b815260040160405180910390fd5b805460ff165f81600481111561145d5761145d6122b7565b1415801561147d5750600381600481111561147a5761147a6122b7565b14155b1561149b576040516307a92f1960e51b815260040160405180910390fd5b600582015460068301548415806114bb5750426114b88684612bad565b11155b806114d857506114cb8183612bad565b6114d58684612bad565b11155b156114f657604051637616640160e01b815260040160405180910390fd5b6006840185905560405185815286907f0f759826327c668a220d576485ac38ddc4f83fbc414b984c00e79f669b649f469060200160405180910390a2505050505050565b846115585760405163cbf4a64560e01b815260040160405180910390fd5b600354604086901c63ffffffff908116600160a01b909204161461158f57604051632299770d60e11b815260040160405180910390fd5b5f858152602081905260409020805461010090046001600160a01b03166115c957604051634d36eb6960e01b815260040160405180910390fd5b5f815460ff1660048111156115e0576115e06122b7565b146115fe576040516307a92f1960e51b815260040160405180910390fd5b42816006015482600501546116139190612bad565b116116315760405163e843c5eb60e01b815260040160405180910390fd5b5f808061164085870187612d66565b6003870154835193965091945092501461166d57604051630b6fac0360e41b815260040160405180910390fd5b600354600160c01b900460ff161561171d575f61168983611e5c565b905061169481611ecf565b60a084015160c08086015160e08701516101008801516101208901515f946001600160401b0390941660409390931b6fffffffffffffffff00000000000000001660809290921b67ffffffffffffffff60801b16931b6001600160c01b03191692909217919091171790505f61170d8484848989611edb565b905061171881611f84565b505050505b600254604051635c73957b60e11b8152600160401b9091046001600160a01b03169063b8e72af690611759908b908b908b908b90600401612be8565b5f6040518083038186803b15801561176f575f5ffd5b505afa158015611781573d5f5f3e3d5ffd5b50505050826001600a811061179857611798612cb0565b6020020151600385015560408301516007850180545f906117ba908490612bad565b909155505060608301516008850180545f906117d7908490612bad565b9091555050600a84018054905f6117ed83612e1c565b909155505060208084015160405190815233918b917fdc9b2774f92abfeee93d8b2ef67d59cd90c2d6d740b01c24fd9ec109a71865fc910161105d565b816118485760405163cbf4a64560e01b815260040160405180910390fd5b600354604083901c63ffffffff908116600160a01b909204161461187f57604051632299770d60e11b815260040160405180910390fd5b5f828152602081905260409020805461010090046001600160a01b03166118b957604051634d36eb6960e01b815260040160405180910390fd5b805461010090046001600160a01b031633146118e7576040516282b42960e81b815260040160405180910390fd5b6118f46020830183612e34565b6002811115611905576119056122b7565b601182015460ff16600281111561191e5761191e6122b7565b1461193c5760405163f37f7b5d60e01b815260040160405180910390fd5b602082013561195e57604051635e32eadd60e01b815260040160405180910390fd5b61196b6040830183612a43565b90505f0361198c57604051630f8b932160e11b815260040160405180910390fd5b5f815460ff1660048111156119a3576119a36122b7565b141580156119c757506003815460ff1660048111156119c4576119c46122b7565b14155b156119e5576040516307a92f1960e51b815260040160405180910390fd5b42816006015482600501546119fa9190612bad565b11611a185760405163e843c5eb60e01b815260040160405180910390fd5b60208201356012820155611a2f6040830183612a43565b6013830191611a3f919083612894565b50827f87e1c82bc035c552e997ec2f1cf023790ced0cc01098d516dc6e7200835ffb276020840135611a746040860186612a43565b604051611a8393929190612e4f565b60405180910390a2505050565b6003546040805163233ace1160e01b815290515f926001600160a01b03169163233ace119160048083019260209291908290030181865afa1580156107c2573d5f5f3e3d5ffd5b5f878152602081905260409020546001600160a01b038088166101009092041603611b1557604051635040c4d360e11b815260040160405180910390fd5b611b256060830160408401612e68565b60ff161580611b4657506008611b416060840160408501612e68565b60ff16115b15611b645760405163ac38930b60e01b815260040160405180910390fd5b61ffff8260c001351115611b8b57604051634dba795160e01b815260040160405180910390fd5b81608001358260a001351115611bb45760405163207ea56d60e01b815260040160405180910390fd5b8160c001358260e001351115611bdd57604051636d403ec760e11b815260040160405180910390fd5b6002611bec6020830183612e34565b6002811115611bfd57611bfd6122b7565b60ff161115611c1f5760405163f37f7b5d60e01b815260040160405180910390fd5b6020810135611c4157604051635e32eadd60e01b815260040160405180910390fd5b611c4e6040820182612a43565b90505f03611c6f57604051630f8b932160e11b815260040160405180910390fd5b60048581811115611c8257611c826122b7565b60ff161180611cbf57505f856004811115611c9f57611c9f6122b7565b14158015611cbf57506003856004811115611cbc57611cbc6122b7565b14155b15611cdd576040516307a92f1960e51b815260040160405180910390fd5b425f859003611cea578094505b80851015611d0b57604051632ca4094f60e21b815260040160405180910390fd5b80611d168587612bad565b11611d3457604051637616640160e01b815260040160405180910390fd5b5050505050505050565b5f826004811115611d5157611d516122b7565b826004811115611d6357611d636122b7565b03611d6f57505f610a3b565b6002836004811115611d8357611d836122b7565b1480611da057506004836004811115611d9e57611d9e6122b7565b145b80611dbc57506001836004811115611dba57611dba6122b7565b145b15611dc857505f610a3b565b5f836004811115611ddb57611ddb6122b7565b03611e355760035b826004811115611df557611df56122b7565b1480611e1257506002826004811115611e1057611e106122b7565b145b80611e2e57506001826004811115611e2c57611e2c6122b7565b145b9050610a3b565b6003836004811115611e4957611e496122b7565b03611e54575f611de3565b505f92915050565b5f81515f03611e6c57505f919050565b600282604051611e7c9190612e9a565b602060405180830381855afa158015611e97573d5f5f3e3d5ffd5b5050506040513d601f19601f82011682018060405250810190611eba9190612b68565b6001600160f81b0316600160f81b1792915050565b611ed881612113565b50565b60606030835114611f115782516040516356b5c1b760e01b81526004810191909152603060248201526044015b60405180910390fd5b6030825114611f40578151604051636f3ac93f60e01b8152600481019190915260306024820152604401611f08565b8585858585604051602001611f59959493929190612ea5565b604051602081830303815290604052905060c0815114611f7b57611f7b612ecb565b95945050505050565b60c0815114611fb357805160405163295ebbbf60e21b8152600481019190915260c06024820152604401611f08565b5f5f600a6001600160a01b031683604051611fce9190612e9a565b5f60405180830381855afa9150503d805f8114612006576040519150601f19603f3d011682016040523d82523d5f602084013e61200b565b606091505b50915091508161202e57604051634187683560e01b815260040160405180910390fd5b604081511461205c5780516040805163aef3a5a960e01b815260048101929092526024820152604401611f08565b5f5f828060200190518101906120729190612edf565b9150915061100082146120a35760405163f4f0d4bf60e01b8152600481018390526110006024820152604401611f08565b7f73eda753299d7d483339d80809a1d80553bda402fffe5bfeffffffff00000001811461210c57604051632855e60d60e11b8152600481018290527f73eda753299d7d483339d80809a1d80553bda402fffe5bfeffffffff000000016024820152604401611f08565b5050505050565b5f5b80498061213557604051630110b90960e61b815260040160405180910390fd5b82810361214157505050565b5061214b81612e1c565b9050612115565b604080516101c08101909152805f81526020015f6001600160a01b0316815260200161218f60405180604001604052805f81526020015f81525090565b81526020015f8152602001606081526020015f81526020015f81526020015f81526020015f81526020015f81526020015f8152602001606081526020016122166040518061010001604052805f151581526020015f151581526020015f60ff1681526020015f60ff1681526020015f81526020015f81526020015f81526020015f81525090565b815260200161223e6040805160608101909152805f81526020015f8152602001606081525090565b905290565b828054828255905f5260205f2090810192821561227c579160200282015b8281111561227c578251825591602001919060010190612261565b5061228892915061228c565b5090565b5b80821115612288575f815560010161228d565b5f602082840312156122b0575f5ffd5b5035919050565b634e487b7160e01b5f52602160045260245ffd5b600581106122db576122db6122b7565b9052565b5f81518084528060208401602086015e5f602082860101526020601f19601f83011685010191505092915050565b80511515825260208101511515602083015260ff60408201511660408301526060810151612340606084018260ff169052565b506080810151608083015260a081015160a083015260c081015160c083015260e081015160e08301525050565b5f815160038110612380576123806122b7565b80845250602082015160208401526040820151606060408501526123a760608501826122df565b949350505050565b6123b9818f6122cb565b6001600160a01b038d1660208201526123df604082018d80518252602090810151910152565b8a60808201528960a08201528860c08201528760e08201528661010082015285610120820152846101408201526102a06101608201525f6124246102a08301866122df565b61243261018084018661230d565b828103610280840152612445818561236d565b9150509e9d5050505050505050505050505050565b803560058110612468575f5ffd5b919050565b5f6060828403121561247d575f5ffd5b50919050565b5f5f83601f840112612493575f5ffd5b5081356001600160401b038111156124a9575f5ffd5b6020830191508360208285010111156124c0575f5ffd5b9250929050565b5f6040828403121561247d575f5ffd5b5f5f5f5f5f5f5f5f5f898b036102008112156124f1575f5ffd5b6124fa8b61245a565b995060208b0135985060408b01359750610100605f198201121561251c575f5ffd5b5060608a0195506101608a01356001600160401b0381111561253c575f5ffd5b6125488c828d0161246d565b9550506101808a01356001600160401b03811115612564575f5ffd5b6125708c828d01612483565b909550935061258590508b6101a08c016124c7565b989b979a5095989497939692955090936101e00135919050565b5f5f604083850312156125b0575f5ffd5b823591506125c06020840161245a565b90509250929050565b5f602082840312156125d9575f5ffd5b81356001600160a01b0381168114611381575f5ffd5b5f8151808452602084019350602083015f5b8281101561261f578151865260209586019590910190600101612601565b5093949350505050565b6020815261263b6020820183516122cb565b5f602083015161265660408401826001600160a01b03169052565b506040830151805160608401526020810151608084015250606083015160a083015260808301516102c060c08401526126936102e08401826125ef565b905060a084015160e084015260c084015161010084015260e0840151610120840152610100840151610140840152610120840151610160840152610140840151610180840152610160840151601f19848303016101a08501526126f682826122df565b91505061018084015161270d6101c085018261230d565b506101a0840151838203601f19016102c0850152611f7b828261236d565b5f5f5f5f5f6060868803121561273f575f5ffd5b8535945060208601356001600160401b0381111561275b575f5ffd5b61276788828901612483565b90955093505060408601356001600160401b03811115612785575f5ffd5b61279188828901612483565b969995985093965092949392505050565b5f5f604083850312156127b3575f5ffd5b50508035926020909101359150565b5f5f604083850312156127d3575f5ffd5b8235915060208301356001600160401b038111156127ef575f5ffd5b6127fb8582860161246d565b9150509250929050565b600181811c9082168061281957607f821691505b60208210810361247d57634e487b7160e01b5f52602260045260245ffd5b634e487b7160e01b5f52604160045260245ffd5b601f82111561288f57805f5260205f20601f840160051c810160208510156128705750805b601f840160051c820191505b8181101561210c575f815560010161287c565b505050565b6001600160401b038311156128ab576128ab612837565b6128bf836128b98354612805565b8361284b565b5f601f8411600181146128f0575f85156128d95750838201355b5f19600387901b1c1916600186901b17835561210c565b5f83815260208120601f198716915b8281101561291f57868501358255602094850194600190920191016128ff565b508682101561293b575f1960f88860031b161c19848701351681555b505060018560011b0183555050505050565b5f81358015158114610a3b575f5ffd5b60ff81168114611ed8575f5ffd5b5f8135610a3b8161295d565b6129808261294d565b151560ff1982541660ff82168117835550506129bb6129a16020840161294d565b82805461ff00191691151560081b61ff0016919091179055565b6129e26129ca6040840161296b565b825462ff0000191660109190911b62ff000016178255565b612a0b6129f16060840161296b565b825463ff000000191660189190911b63ff00000016178255565b6080820135600182015560a0820135600282015560c0820135600382015560e090910135600490910155565b60038110611ed8575f5ffd5b5f5f8335601e19843603018112612a58575f5ffd5b8301803591506001600160401b03821115612a71575f5ffd5b6020019150368190038213156124c0575f5ffd5b8135612a9081612a37565b60038110612aa057612aa06122b7565b60ff1982541660ff8216811783555050602082013560018201556040820135601e19833603018112612ad0575f5ffd5b820180356001600160401b03811115612ae7575f5ffd5b602082019150803603821315612afb575f5ffd5b612b09818360028601612894565b50505050565b634e487b7160e01b5f52601160045260245ffd5b5f63ffffffff821663ffffffff8103612b3e57612b3e612b0f565b60010192915050565b5f6001600160401b0382166001600160401b038103612b3e57612b3e612b0f565b5f60208284031215612b78575f5ffd5b5051919050565b81810381811115610a3b57610a3b612b0f565b60408101612ba082856122cb565b61138160208301846122cb565b80820180821115610a3b57610a3b612b0f565b81835281816020850137505f828201602090810191909152601f909101601f19169091010190565b604081525f612bfb604083018688612bc0565b8281036020840152612c0e818587612bc0565b979650505050505050565b604051601f8201601f191681016001600160401b0381118282101715612c4157612c41612837565b604052919050565b5f6101208284031215612c5a575f5ffd5b5f83601f840112612c69575f5ffd5b505f80610120612c7881612c19565b9250829150840185811115612c8b575f5ffd5b845b81811015612ca5578035845260209384019301612c8d565b509095945050505050565b634e487b7160e01b5f52603260045260245ffd5b602080825282518282018190525f918401906040840190835b81811015612ca5578351835260209384019390920191600101612cdd565b5f82601f830112612d0a575f5ffd5b81356001600160401b03811115612d2357612d23612837565b612d36601f8201601f1916602001612c19565b818152846020838601011115612d4a575f5ffd5b816020850160208301375f918101602001919091529392505050565b5f5f5f6101808486031215612d79575f5ffd5b5f85601f860112612d88575f5ffd5b505f80610140612d9781612c19565b9250829150860187811115612daa575f5ffd5b865b81811015612dc4578035845260209384019301612dac565b509094503590506001600160401b03811115612dde575f5ffd5b612dea86828701612cfb565b9250506101608401356001600160401b03811115612e06575f5ffd5b612e1286828701612cfb565b9150509250925092565b5f60018201612e2d57612e2d612b0f565b5060010190565b5f60208284031215612e44575f5ffd5b813561138181612a37565b838152604060208201525f611f7b604083018486612bc0565b5f60208284031215612e78575f5ffd5b81356113818161295d565b5f81518060208401855e5f93019283525090919050565b5f6113818284612e83565b8581528460208201528360408201525f612c0e612ec56060840186612e83565b84612e83565b634e487b7160e01b5f52600160045260245ffd5b5f5f60408385031215612ef0575f5ffd5b50508051602090910151909290915056fea26469706673582212205a2d3d159bcd1a35d1d62cfa9708abfac6d92ae178785e22c92f55c5c1f27b1364736f6c634300081c0033","opcodes":"PUSH1 0x80 PUSH1 0x40 MSTORE CALLVALUE DUP1 ISZERO PUSH2 0xF JUMPI PUSH0 PUSH0 REVERT JUMPDEST POP PUSH1 0x40 MLOAD PUSH2 0x30D7 CODESIZE SUB DUP1 PUSH2 0x30D7 DUP4 CODECOPY DUP2 ADD PUSH1 0x40 DUP2 SWAP1 MSTORE PUSH2 0x2E SWAP2 PUSH2 0x132 JUMP JUMPDEST PUSH1 0x2 DUP1 SLOAD PUSH1 0x3 DUP1 SLOAD PUSH1 0x1 PUSH1 0x20 SHL PUSH1 0x1 PUSH1 0xE0 SHL SUB NOT SWAP1 SWAP3 AND PUSH9 0x10000000000000000 PUSH1 0x1 PUSH1 0x1 PUSH1 0xA0 SHL SUB DUP9 DUP2 AND SWAP2 SWAP1 SWAP2 MUL PUSH4 0xFFFFFFFF PUSH1 0x20 SHL NOT AND SWAP2 SWAP1 SWAP2 OR PUSH5 0x100000000 PUSH4 0xFFFFFFFF DUP11 AND MUL OR SWAP1 SWAP4 SSTORE SWAP2 DUP5 AND PUSH1 0x1 PUSH5 0xFF00000001 PUSH1 0xA0 SHL SUB NOT SWAP1 SWAP2 AND OR PUSH1 0x1 PUSH1 0xC0 SHL DUP4 ISZERO ISZERO MUL OR SWAP1 SSTORE PUSH2 0xEE DUP5 ADDRESS PUSH1 0x40 DUP1 MLOAD PUSH1 0xE0 SWAP4 SWAP1 SWAP4 SHL PUSH1 0x1 PUSH1 0x1 PUSH1 0xE0 SHL SUB NOT AND PUSH1 0x20 DUP1 DUP6 ADD SWAP2 SWAP1 SWAP2 MSTORE PUSH1 0x60 SWAP3 SWAP1 SWAP3 SHL PUSH1 0x1 PUSH1 0x1 PUSH1 0x60 SHL SUB NOT AND PUSH1 0x24 DUP5 ADD MSTORE DUP1 MLOAD PUSH1 0x18 DUP2 DUP6 SUB ADD DUP2 MSTORE PUSH1 0x38 SWAP1 SWAP4 ADD SWAP1 MSTORE DUP2 MLOAD SWAP2 ADD KECCAK256 SWAP1 JUMP JUMPDEST PUSH1 0x3 PUSH1 0x14 PUSH2 0x100 EXP DUP2 SLOAD DUP2 PUSH4 0xFFFFFFFF MUL NOT AND SWAP1 DUP4 PUSH4 0xFFFFFFFF AND MUL OR SWAP1 SSTORE POP POP POP POP POP PUSH2 0x193 JUMP JUMPDEST DUP1 MLOAD PUSH1 0x1 PUSH1 0x1 PUSH1 0xA0 SHL SUB DUP2 AND DUP2 EQ PUSH2 0x12D JUMPI PUSH0 PUSH0 REVERT JUMPDEST SWAP2 SWAP1 POP JUMP JUMPDEST PUSH0 PUSH0 PUSH0 PUSH0 PUSH1 0x80 DUP6 DUP8 SUB SLT ISZERO PUSH2 0x145 JUMPI PUSH0 PUSH0 REVERT JUMPDEST DUP5 MLOAD PUSH4 0xFFFFFFFF DUP2 AND DUP2 EQ PUSH2 0x158 JUMPI PUSH0 PUSH0 REVERT JUMPDEST SWAP4 POP PUSH2 0x166 PUSH1 0x20 DUP7 ADD PUSH2 0x117 JUMP JUMPDEST SWAP3 POP PUSH2 0x174 PUSH1 0x40 DUP7 ADD PUSH2 0x117 JUMP JUMPDEST SWAP2 POP PUSH1 0x60 DUP6 ADD MLOAD DUP1 ISZERO ISZERO DUP2 EQ PUSH2 0x188 JUMPI PUSH0 PUSH0 REVERT JUMPDEST SWAP4 SWAP7 SWAP3 SWAP6 POP SWAP1 SWAP4 POP POP JUMP JUMPDEST PUSH2 0x2F37 DUP1 PUSH2 0x1A0 PUSH0 CODECOPY PUSH0 RETURN INVALID PUSH1 0x80 PUSH1 0x40 MSTORE CALLVALUE DUP1 ISZERO PUSH2 0xF JUMPI PUSH0 PUSH0 REVERT JUMPDEST POP PUSH1 0x4 CALLDATASIZE LT PUSH2 0x13D JUMPI PUSH0 CALLDATALOAD PUSH1 0xE0 SHR DUP1 PUSH4 0x992BC45B GT PUSH2 0xB4 JUMPI DUP1 PUSH4 0xC718C01F GT PUSH2 0x79 JUMPI DUP1 PUSH4 0xC718C01F EQ PUSH2 0x2F4 JUMPI DUP1 PUSH4 0xCDDF08BC EQ PUSH2 0x307 JUMPI DUP1 PUSH4 0xCDF497C8 EQ PUSH2 0x31E JUMPI DUP1 PUSH4 0xD71D072E EQ PUSH2 0x342 JUMPI DUP1 PUSH4 0xF4C2A3BB EQ PUSH2 0x355 JUMPI DUP1 PUSH4 0xF9AA4499 EQ PUSH2 0x368 JUMPI PUSH0 PUSH0 REVERT JUMPDEST DUP1 PUSH4 0x992BC45B EQ PUSH2 0x283 JUMPI DUP1 PUSH4 0x9C18DEAF EQ PUSH2 0x2A3 JUMPI DUP1 PUSH4 0xA5B110DE EQ PUSH2 0x2B6 JUMPI DUP1 PUSH4 0xA5F01E19 EQ PUSH2 0x2C9 JUMPI DUP1 PUSH4 0xADC879E9 EQ PUSH2 0x2DC JUMPI PUSH0 PUSH0 REVERT JUMPDEST DUP1 PUSH4 0x4C0ACC56 GT PUSH2 0x105 JUMPI DUP1 PUSH4 0x4C0ACC56 EQ PUSH2 0x1E6 JUMPI DUP1 PUSH4 0x56A6F1E2 EQ PUSH2 0x1EE JUMPI DUP1 PUSH4 0x62FA11FC EQ PUSH2 0x203 JUMPI DUP1 PUSH4 0x68141F2C EQ PUSH2 0x243 JUMPI DUP1 PUSH4 0x72C628EF EQ PUSH2 0x256 JUMPI DUP1 PUSH4 0x848DF540 EQ PUSH2 0x25E JUMPI PUSH0 PUSH0 REVERT JUMPDEST DUP1 PUSH4 0x2CC919A EQ PUSH2 0x141 JUMPI DUP1 PUSH4 0x535FECE EQ PUSH2 0x160 JUMPI DUP1 PUSH4 0x9706392 EQ PUSH2 0x18C JUMPI DUP1 PUSH4 0x26795BC3 EQ PUSH2 0x1BE JUMPI DUP1 PUSH4 0x2DF8E91E EQ PUSH2 0x1C5 JUMPI JUMPDEST PUSH0 PUSH0 REVERT JUMPDEST PUSH2 0x149 PUSH1 0x2 DUP2 JUMP JUMPDEST PUSH1 0x40 MLOAD PUSH1 0xFF SWAP1 SWAP2 AND DUP2 MSTORE PUSH1 0x20 ADD JUMPDEST PUSH1 0x40 MLOAD DUP1 SWAP2 SUB SWAP1 RETURN JUMPDEST PUSH2 0x173 PUSH2 0x16E CALLDATASIZE PUSH1 0x4 PUSH2 0x22A0 JUMP JUMPDEST PUSH2 0x370 JUMP JUMPDEST PUSH1 0x40 MLOAD PUSH2 0x157 SWAP14 SWAP13 SWAP12 SWAP11 SWAP10 SWAP9 SWAP8 SWAP7 SWAP6 SWAP5 SWAP4 SWAP3 SWAP2 SWAP1 PUSH2 0x23AF JUMP JUMPDEST PUSH1 0x2 SLOAD PUSH2 0x1A6 SWAP1 PUSH1 0x1 PUSH1 0x40 SHL SWAP1 DIV PUSH1 0x1 PUSH1 0x1 PUSH1 0xA0 SHL SUB AND DUP2 JUMP JUMPDEST PUSH1 0x40 MLOAD PUSH1 0x1 PUSH1 0x1 PUSH1 0xA0 SHL SUB SWAP1 SWAP2 AND DUP2 MSTORE PUSH1 0x20 ADD PUSH2 0x157 JUMP JUMPDEST PUSH2 0x149 PUSH0 DUP2 JUMP JUMPDEST PUSH2 0x1D8 PUSH2 0x1D3 CALLDATASIZE PUSH1 0x4 PUSH2 0x24D7 JUMP JUMPDEST PUSH2 0x5AD JUMP JUMPDEST PUSH1 0x40 MLOAD SWAP1 DUP2 MSTORE PUSH1 0x20 ADD PUSH2 0x157 JUMP JUMPDEST PUSH2 0x1D8 PUSH2 0x770 JUMP JUMPDEST PUSH2 0x201 PUSH2 0x1FC CALLDATASIZE PUSH1 0x4 PUSH2 0x259F JUMP JUMPDEST PUSH2 0x7EB JUMP JUMPDEST STOP JUMPDEST PUSH2 0x22B PUSH2 0x211 CALLDATASIZE PUSH1 0x4 PUSH2 0x25C9 JUMP JUMPDEST PUSH1 0x1 PUSH1 0x20 MSTORE PUSH0 SWAP1 DUP2 MSTORE PUSH1 0x40 SWAP1 KECCAK256 SLOAD PUSH1 0x1 PUSH1 0x1 PUSH1 0x40 SHL SUB AND DUP2 JUMP JUMPDEST PUSH1 0x40 MLOAD PUSH1 0x1 PUSH1 0x1 PUSH1 0x40 SHL SUB SWAP1 SWAP2 AND DUP2 MSTORE PUSH1 0x20 ADD PUSH2 0x157 JUMP JUMPDEST PUSH2 0x1D8 PUSH2 0x251 CALLDATASIZE PUSH1 0x4 PUSH2 0x25C9 JUMP JUMPDEST PUSH2 0x9E8 JUMP JUMPDEST PUSH2 0x149 PUSH1 0x4 DUP2 JUMP JUMPDEST PUSH1 0x2 SLOAD PUSH2 0x26E SWAP1 PUSH4 0xFFFFFFFF AND DUP2 JUMP JUMPDEST PUSH1 0x40 MLOAD PUSH4 0xFFFFFFFF SWAP1 SWAP2 AND DUP2 MSTORE PUSH1 0x20 ADD PUSH2 0x157 JUMP JUMPDEST PUSH2 0x296 PUSH2 0x291 CALLDATASIZE PUSH1 0x4 PUSH2 0x22A0 JUMP JUMPDEST PUSH2 0xA41 JUMP JUMPDEST PUSH1 0x40 MLOAD PUSH2 0x157 SWAP2 SWAP1 PUSH2 0x2629 JUMP JUMPDEST PUSH1 0x3 SLOAD PUSH2 0x1A6 SWAP1 PUSH1 0x1 PUSH1 0x1 PUSH1 0xA0 SHL SUB AND DUP2 JUMP JUMPDEST PUSH2 0x201 PUSH2 0x2C4 CALLDATASIZE PUSH1 0x4 PUSH2 0x272B JUMP JUMPDEST PUSH2 0xD47 JUMP JUMPDEST PUSH2 0x1D8 PUSH2 0x2D7 CALLDATASIZE PUSH1 0x4 PUSH2 0x22A0 JUMP JUMPDEST PUSH2 0x1070 JUMP JUMPDEST PUSH1 0x2 SLOAD PUSH2 0x26E SWAP1 PUSH5 0x100000000 SWAP1 DIV PUSH4 0xFFFFFFFF AND DUP2 JUMP JUMPDEST PUSH2 0x201 PUSH2 0x302 CALLDATASIZE PUSH1 0x4 PUSH2 0x27A2 JUMP JUMPDEST PUSH2 0x1388 JUMP JUMPDEST PUSH1 0x3 SLOAD PUSH2 0x26E SWAP1 PUSH1 0x1 PUSH1 0xA0 SHL SWAP1 DIV PUSH4 0xFFFFFFFF AND DUP2 JUMP JUMPDEST PUSH1 0x3 SLOAD PUSH2 0x332 SWAP1 PUSH1 0x1 PUSH1 0xC0 SHL SWAP1 DIV PUSH1 0xFF AND DUP2 JUMP JUMPDEST PUSH1 0x40 MLOAD SWAP1 ISZERO ISZERO DUP2 MSTORE PUSH1 0x20 ADD PUSH2 0x157 JUMP JUMPDEST PUSH2 0x201 PUSH2 0x350 CALLDATASIZE PUSH1 0x4 PUSH2 0x272B JUMP JUMPDEST PUSH2 0x153A JUMP JUMPDEST PUSH2 0x201 PUSH2 0x363 CALLDATASIZE PUSH1 0x4 PUSH2 0x27C2 JUMP JUMPDEST PUSH2 0x182A JUMP JUMPDEST PUSH2 0x1D8 PUSH2 0x1A90 JUMP JUMPDEST PUSH0 PUSH1 0x20 DUP2 DUP2 MSTORE SWAP2 DUP2 MSTORE PUSH1 0x40 SWAP1 DUP2 SWAP1 KECCAK256 DUP1 SLOAD DUP3 MLOAD DUP1 DUP5 ADD SWAP1 SWAP4 MSTORE PUSH1 0x1 DUP3 ADD SLOAD DUP4 MSTORE PUSH1 0x2 DUP3 ADD SLOAD SWAP4 DUP4 ADD SWAP4 SWAP1 SWAP4 MSTORE PUSH1 0x3 DUP2 ADD SLOAD PUSH1 0x5 DUP3 ADD SLOAD PUSH1 0x6 DUP4 ADD SLOAD PUSH1 0x7 DUP5 ADD SLOAD PUSH1 0x8 DUP6 ADD SLOAD PUSH1 0x9 DUP7 ADD SLOAD PUSH1 0xA DUP8 ADD SLOAD PUSH1 0xB DUP9 ADD DUP1 SLOAD PUSH1 0xFF DUP13 AND SWAP12 PUSH2 0x100 SWAP1 DIV PUSH1 0x1 PUSH1 0x1 PUSH1 0xA0 SHL SUB AND SWAP11 SWAP10 SWAP2 SWAP1 PUSH2 0x3E5 SWAP1 PUSH2 0x2805 JUMP JUMPDEST DUP1 PUSH1 0x1F ADD PUSH1 0x20 DUP1 SWAP2 DIV MUL PUSH1 0x20 ADD PUSH1 0x40 MLOAD SWAP1 DUP2 ADD PUSH1 0x40 MSTORE DUP1 SWAP3 SWAP2 SWAP1 DUP2 DUP2 MSTORE PUSH1 0x20 ADD DUP3 DUP1 SLOAD PUSH2 0x411 SWAP1 PUSH2 0x2805 JUMP JUMPDEST DUP1 ISZERO PUSH2 0x45C JUMPI DUP1 PUSH1 0x1F LT PUSH2 0x433 JUMPI PUSH2 0x100 DUP1 DUP4 SLOAD DIV MUL DUP4 MSTORE SWAP2 PUSH1 0x20 ADD SWAP2 PUSH2 0x45C JUMP JUMPDEST DUP3 ADD SWAP2 SWAP1 PUSH0 MSTORE PUSH1 0x20 PUSH0 KECCAK256 SWAP1 JUMPDEST DUP2 SLOAD DUP2 MSTORE SWAP1 PUSH1 0x1 ADD SWAP1 PUSH1 0x20 ADD DUP1 DUP4 GT PUSH2 0x43F JUMPI DUP3 SWAP1 SUB PUSH1 0x1F AND DUP3 ADD SWAP2 JUMPDEST POP POP PUSH1 0x40 DUP1 MLOAD PUSH2 0x100 DUP1 DUP3 ADD DUP4 MSTORE PUSH1 0xC DUP9 ADD SLOAD PUSH1 0xFF DUP1 DUP3 AND ISZERO ISZERO DUP5 MSTORE SWAP2 DUP2 DIV DUP3 AND ISZERO ISZERO PUSH1 0x20 DUP5 ADD MSTORE PUSH3 0x10000 DUP2 DIV DUP3 AND DUP4 DUP6 ADD MSTORE PUSH4 0x1000000 SWAP1 DIV DUP2 AND PUSH1 0x60 DUP1 DUP5 ADD SWAP2 SWAP1 SWAP2 MSTORE PUSH1 0xD DUP10 ADD SLOAD PUSH1 0x80 DUP5 ADD MSTORE PUSH1 0xE DUP10 ADD SLOAD PUSH1 0xA0 DUP5 ADD MSTORE PUSH1 0xF DUP10 ADD SLOAD PUSH1 0xC0 DUP5 ADD MSTORE PUSH1 0x10 DUP10 ADD SLOAD PUSH1 0xE0 DUP5 ADD MSTORE DUP4 MLOAD SWAP1 DUP2 ADD SWAP1 SWAP4 MSTORE PUSH1 0x11 DUP9 ADD DUP1 SLOAD SWAP8 SWAP9 SWAP3 SWAP8 SWAP3 SWAP7 POP SWAP3 SWAP5 POP SWAP2 SWAP3 POP DUP4 SWAP2 AND PUSH1 0x2 DUP2 GT ISZERO PUSH2 0x4F9 JUMPI PUSH2 0x4F9 PUSH2 0x22B7 JUMP JUMPDEST PUSH1 0x2 DUP2 GT ISZERO PUSH2 0x50A JUMPI PUSH2 0x50A PUSH2 0x22B7 JUMP JUMPDEST DUP2 MSTORE PUSH1 0x20 ADD PUSH1 0x1 DUP3 ADD SLOAD DUP2 MSTORE PUSH1 0x20 ADD PUSH1 0x2 DUP3 ADD DUP1 SLOAD PUSH2 0x528 SWAP1 PUSH2 0x2805 JUMP JUMPDEST DUP1 PUSH1 0x1F ADD PUSH1 0x20 DUP1 SWAP2 DIV MUL PUSH1 0x20 ADD PUSH1 0x40 MLOAD SWAP1 DUP2 ADD PUSH1 0x40 MSTORE DUP1 SWAP3 SWAP2 SWAP1 DUP2 DUP2 MSTORE PUSH1 0x20 ADD DUP3 DUP1 SLOAD PUSH2 0x554 SWAP1 PUSH2 0x2805 JUMP JUMPDEST DUP1 ISZERO PUSH2 0x59F JUMPI DUP1 PUSH1 0x1F LT PUSH2 0x576 JUMPI PUSH2 0x100 DUP1 DUP4 SLOAD DIV MUL DUP4 MSTORE SWAP2 PUSH1 0x20 ADD SWAP2 PUSH2 0x59F JUMP JUMPDEST DUP3 ADD SWAP2 SWAP1 PUSH0 MSTORE PUSH1 0x20 PUSH0 KECCAK256 SWAP1 JUMPDEST DUP2 SLOAD DUP2 MSTORE SWAP1 PUSH1 0x1 ADD SWAP1 PUSH1 0x20 ADD DUP1 DUP4 GT PUSH2 0x582 JUMPI DUP3 SWAP1 SUB PUSH1 0x1F AND DUP3 ADD SWAP2 JUMPDEST POP POP POP POP POP DUP2 MSTORE POP POP SWAP1 POP DUP14 JUMP JUMPDEST PUSH1 0x3 SLOAD CALLER PUSH0 DUP2 DUP2 MSTORE PUSH1 0x1 PUSH1 0x20 MSTORE PUSH1 0x40 DUP1 DUP3 KECCAK256 SLOAD SWAP2 SWAP4 PUSH1 0x1 PUSH1 0x1 PUSH1 0x40 SHL SUB SWAP1 SWAP3 AND PUSH1 0x1 PUSH1 0xA0 SHL SWAP1 SWAP3 DIV SWAP1 SHL PUSH4 0xFFFFFFFF PUSH1 0x40 SHL AND PUSH1 0x60 DUP4 SWAP1 SHL OR OR PUSH2 0x5F6 DUP2 DUP4 DUP15 DUP15 DUP15 DUP15 DUP15 PUSH2 0x1AD7 JUMP JUMPDEST PUSH0 DUP2 DUP2 MSTORE PUSH1 0x20 DUP2 SWAP1 MSTORE PUSH1 0x40 SWAP1 KECCAK256 DUP1 SLOAD DUP14 SWAP1 DUP3 SWAP1 PUSH1 0xFF NOT AND PUSH1 0x1 DUP4 PUSH1 0x4 DUP2 GT ISZERO PUSH2 0x621 JUMPI PUSH2 0x621 PUSH2 0x22B7 JUMP JUMPDEST MUL OR SWAP1 SSTORE POP PUSH1 0x5 DUP2 ADD DUP13 SWAP1 SSTORE PUSH1 0x6 DUP2 ADD DUP12 SWAP1 SSTORE DUP1 SLOAD PUSH2 0x100 PUSH1 0x1 PUSH1 0xA8 SHL SUB NOT AND PUSH2 0x100 PUSH1 0x1 PUSH1 0x1 PUSH1 0xA0 SHL SUB DUP6 AND MUL OR DUP2 SSTORE DUP6 CALLDATALOAD PUSH1 0x1 DUP3 ADD SSTORE PUSH1 0x20 DUP7 ADD CALLDATALOAD PUSH1 0x2 DUP3 ADD SSTORE PUSH1 0x3 DUP2 ADD DUP6 SWAP1 SSTORE PUSH1 0xB DUP2 ADD PUSH2 0x679 DUP9 DUP11 DUP4 PUSH2 0x2894 JUMP JUMPDEST POP DUP10 PUSH1 0xC DUP3 ADD PUSH2 0x689 DUP3 DUP3 PUSH2 0x2977 JUMP JUMPDEST POP DUP10 SWAP1 POP PUSH1 0x11 DUP3 ADD PUSH2 0x69B DUP3 DUP3 PUSH2 0x2A85 JUMP JUMPDEST POP POP NUMBER PUSH1 0x9 DUP3 ADD SSTORE PUSH1 0x2 DUP1 SLOAD PUSH4 0xFFFFFFFF AND SWAP1 PUSH0 PUSH2 0x6B8 DUP4 PUSH2 0x2B23 JUMP JUMPDEST DUP3 SLOAD PUSH4 0xFFFFFFFF SWAP2 DUP3 AND PUSH2 0x100 SWAP4 SWAP1 SWAP4 EXP SWAP3 DUP4 MUL SWAP2 SWAP1 SWAP3 MUL NOT SWAP1 SWAP2 AND OR SWAP1 SSTORE POP PUSH1 0x1 PUSH1 0x1 PUSH1 0xA0 SHL SUB DUP4 AND PUSH0 SWAP1 DUP2 MSTORE PUSH1 0x1 PUSH1 0x20 MSTORE PUSH1 0x40 DUP2 KECCAK256 DUP1 SLOAD PUSH1 0x1 PUSH1 0x1 PUSH1 0x40 SHL SUB AND SWAP2 PUSH2 0x704 DUP4 PUSH2 0x2B47 JUMP JUMPDEST SWAP2 SWAP1 PUSH2 0x100 EXP DUP2 SLOAD DUP2 PUSH1 0x1 PUSH1 0x1 PUSH1 0x40 SHL SUB MUL NOT AND SWAP1 DUP4 PUSH1 0x1 PUSH1 0x1 PUSH1 0x40 SHL SUB AND MUL OR SWAP1 SSTORE POP POP DUP3 PUSH1 0x1 PUSH1 0x1 PUSH1 0xA0 SHL SUB AND DUP3 PUSH32 0xADA6F87A2A16A0C9C169CA36754C5F33F7C1A973B575D068F888A549ED4FAEFA PUSH1 0x40 MLOAD PUSH1 0x40 MLOAD DUP1 SWAP2 SUB SWAP1 LOG3 POP SWAP12 SWAP11 POP POP POP POP POP POP POP POP POP POP POP JUMP JUMPDEST PUSH0 PUSH1 0x2 PUSH1 0x8 SWAP1 SLOAD SWAP1 PUSH2 0x100 EXP SWAP1 DIV PUSH1 0x1 PUSH1 0x1 PUSH1 0xA0 SHL SUB AND PUSH1 0x1 PUSH1 0x1 PUSH1 0xA0 SHL SUB AND PUSH4 0x233ACE11 PUSH1 0x40 MLOAD DUP2 PUSH4 0xFFFFFFFF AND PUSH1 0xE0 SHL DUP2 MSTORE PUSH1 0x4 ADD PUSH1 0x20 PUSH1 0x40 MLOAD DUP1 DUP4 SUB DUP2 DUP7 GAS STATICCALL ISZERO DUP1 ISZERO PUSH2 0x7C2 JUMPI RETURNDATASIZE PUSH0 PUSH0 RETURNDATACOPY RETURNDATASIZE PUSH0 REVERT JUMPDEST POP POP POP POP PUSH1 0x40 MLOAD RETURNDATASIZE PUSH1 0x1F NOT PUSH1 0x1F DUP3 ADD AND DUP3 ADD DUP1 PUSH1 0x40 MSTORE POP DUP2 ADD SWAP1 PUSH2 0x7E6 SWAP2 SWAP1 PUSH2 0x2B68 JUMP JUMPDEST SWAP1 POP SWAP1 JUMP JUMPDEST DUP2 PUSH2 0x809 JUMPI PUSH1 0x40 MLOAD PUSH4 0xCBF4A645 PUSH1 0xE0 SHL DUP2 MSTORE PUSH1 0x4 ADD PUSH1 0x40 MLOAD DUP1 SWAP2 SUB SWAP1 REVERT JUMPDEST PUSH1 0x3 SLOAD PUSH1 0x40 DUP4 SWAP1 SHR PUSH4 0xFFFFFFFF SWAP1 DUP2 AND PUSH1 0x1 PUSH1 0xA0 SHL SWAP1 SWAP3 DIV AND EQ PUSH2 0x840 JUMPI PUSH1 0x40 MLOAD PUSH4 0x2299770D PUSH1 0xE1 SHL DUP2 MSTORE PUSH1 0x4 ADD PUSH1 0x40 MLOAD DUP1 SWAP2 SUB SWAP1 REVERT JUMPDEST PUSH1 0x4 DUP2 DUP2 DUP2 GT ISZERO PUSH2 0x853 JUMPI PUSH2 0x853 PUSH2 0x22B7 JUMP JUMPDEST PUSH1 0xFF AND GT ISZERO PUSH2 0x875 JUMPI PUSH1 0x40 MLOAD PUSH4 0x7A92F19 PUSH1 0xE5 SHL DUP2 MSTORE PUSH1 0x4 ADD PUSH1 0x40 MLOAD DUP1 SWAP2 SUB SWAP1 REVERT JUMPDEST PUSH0 DUP3 DUP2 MSTORE PUSH1 0x20 DUP2 SWAP1 MSTORE PUSH1 0x40 SWAP1 KECCAK256 DUP1 SLOAD PUSH2 0x100 SWAP1 DIV PUSH1 0x1 PUSH1 0x1 PUSH1 0xA0 SHL SUB AND PUSH2 0x8AF JUMPI PUSH1 0x40 MLOAD PUSH4 0x4D36EB69 PUSH1 0xE0 SHL DUP2 MSTORE PUSH1 0x4 ADD PUSH1 0x40 MLOAD DUP1 SWAP2 SUB SWAP1 REVERT JUMPDEST DUP1 SLOAD PUSH2 0x100 SWAP1 DIV PUSH1 0x1 PUSH1 0x1 PUSH1 0xA0 SHL SUB AND CALLER EQ PUSH2 0x8DD JUMPI PUSH1 0x40 MLOAD PUSH3 0x82B429 PUSH1 0xE8 SHL DUP2 MSTORE PUSH1 0x4 ADD PUSH1 0x40 MLOAD DUP1 SWAP2 SUB SWAP1 REVERT JUMPDEST DUP1 SLOAD PUSH1 0xFF AND PUSH2 0x8EC DUP2 DUP5 PUSH2 0x1D3E JUMP JUMPDEST PUSH2 0x909 JUMPI PUSH1 0x40 MLOAD PUSH4 0x7A92F19 PUSH1 0xE5 SHL DUP2 MSTORE PUSH1 0x4 ADD PUSH1 0x40 MLOAD DUP1 SWAP2 SUB SWAP1 REVERT JUMPDEST DUP2 SLOAD DUP4 SWAP1 DUP4 SWAP1 PUSH1 0xFF NOT AND PUSH1 0x1 DUP4 PUSH1 0x4 DUP2 GT ISZERO PUSH2 0x927 JUMPI PUSH2 0x927 PUSH2 0x22B7 JUMP JUMPDEST MUL OR SWAP1 SSTORE POP PUSH1 0x1 DUP4 PUSH1 0x4 DUP2 GT ISZERO PUSH2 0x940 JUMPI PUSH2 0x940 PUSH2 0x22B7 JUMP JUMPDEST SUB PUSH2 0x9A8 JUMPI PUSH0 DUP3 PUSH1 0x5 ADD SLOAD TIMESTAMP LT PUSH2 0x967 JUMPI PUSH1 0x5 DUP4 ADD SLOAD PUSH2 0x960 SWAP1 TIMESTAMP PUSH2 0x2B7F JUMP JUMPDEST SWAP1 POP PUSH2 0x96A JUMP JUMPDEST POP PUSH0 JUMPDEST PUSH1 0x6 DUP4 ADD DUP2 SWAP1 SSTORE PUSH1 0x40 MLOAD DUP2 DUP2 MSTORE DUP6 SWAP1 PUSH32 0xF759826327C668A220D576485AC38DDC4F83FBC414B984C00E79F669B649F46 SWAP1 PUSH1 0x20 ADD PUSH1 0x40 MLOAD DUP1 SWAP2 SUB SWAP1 LOG2 POP JUMPDEST DUP4 PUSH32 0x2F25F350B681441B5BB45430FBE61E78D0170CFF4AD02CB0AA48A6427909AA8C DUP3 DUP6 PUSH1 0x40 MLOAD PUSH2 0x9DA SWAP3 SWAP2 SWAP1 PUSH2 0x2B92 JUMP JUMPDEST PUSH1 0x40 MLOAD DUP1 SWAP2 SUB SWAP1 LOG2 POP POP POP POP JUMP JUMPDEST PUSH1 0x3 SLOAD PUSH1 0x1 PUSH1 0x1 PUSH1 0xA0 SHL SUB DUP3 AND PUSH0 SWAP1 DUP2 MSTORE PUSH1 0x1 PUSH1 0x20 MSTORE PUSH1 0x40 DUP1 DUP3 KECCAK256 SLOAD SWAP2 SWAP3 PUSH1 0x1 PUSH1 0x1 PUSH1 0x40 SHL SUB SWAP1 SWAP3 AND PUSH1 0x1 PUSH1 0xA0 SHL SWAP1 SWAP3 DIV SWAP1 SHL PUSH4 0xFFFFFFFF PUSH1 0x40 SHL AND PUSH1 0x60 DUP5 SWAP1 SHL PUSH12 0xFFFFFFFFFFFFFFFFFFFFFFFF NOT AND OR OR JUMPDEST SWAP3 SWAP2 POP POP JUMP JUMPDEST PUSH2 0xA49 PUSH2 0x2152 JUMP JUMPDEST PUSH0 DUP3 DUP2 MSTORE PUSH1 0x20 DUP2 SWAP1 MSTORE PUSH1 0x40 SWAP1 DUP2 SWAP1 KECCAK256 DUP2 MLOAD PUSH2 0x1C0 DUP2 ADD SWAP1 SWAP3 MSTORE DUP1 SLOAD DUP3 SWAP1 PUSH1 0xFF AND PUSH1 0x4 DUP2 GT ISZERO PUSH2 0xA7A JUMPI PUSH2 0xA7A PUSH2 0x22B7 JUMP JUMPDEST PUSH1 0x4 DUP2 GT ISZERO PUSH2 0xA8B JUMPI PUSH2 0xA8B PUSH2 0x22B7 JUMP JUMPDEST DUP2 MSTORE DUP2 SLOAD PUSH2 0x100 SWAP1 DIV PUSH1 0x1 PUSH1 0x1 PUSH1 0xA0 SHL SUB AND PUSH1 0x20 DUP1 DUP4 ADD SWAP2 SWAP1 SWAP2 MSTORE PUSH1 0x40 DUP1 MLOAD DUP1 DUP3 ADD DUP3 MSTORE PUSH1 0x1 DUP6 ADD SLOAD DUP2 MSTORE PUSH1 0x2 DUP6 ADD SLOAD DUP2 DUP5 ADD MSTORE DUP2 DUP5 ADD MSTORE PUSH1 0x3 DUP5 ADD SLOAD PUSH1 0x60 DUP5 ADD MSTORE PUSH1 0x4 DUP5 ADD DUP1 SLOAD DUP3 MLOAD DUP2 DUP6 MUL DUP2 ADD DUP6 ADD SWAP1 SWAP4 MSTORE DUP1 DUP4 MSTORE PUSH1 0x80 SWAP1 SWAP5 ADD SWAP4 SWAP2 SWAP3 SWAP1 SWAP2 SWAP1 DUP4 ADD DUP3 DUP3 DUP1 ISZERO PUSH2 0xB1A JUMPI PUSH1 0x20 MUL DUP3 ADD SWAP2 SWAP1 PUSH0 MSTORE PUSH1 0x20 PUSH0 KECCAK256 SWAP1 JUMPDEST DUP2 SLOAD DUP2 MSTORE PUSH1 0x20 ADD SWAP1 PUSH1 0x1 ADD SWAP1 DUP1 DUP4 GT PUSH2 0xB06 JUMPI JUMPDEST POP POP POP POP POP DUP2 MSTORE PUSH1 0x20 ADD PUSH1 0x5 DUP3 ADD SLOAD DUP2 MSTORE PUSH1 0x20 ADD PUSH1 0x6 DUP3 ADD SLOAD DUP2 MSTORE PUSH1 0x20 ADD PUSH1 0x7 DUP3 ADD SLOAD DUP2 MSTORE PUSH1 0x20 ADD PUSH1 0x8 DUP3 ADD SLOAD DUP2 MSTORE PUSH1 0x20 ADD PUSH1 0x9 DUP3 ADD SLOAD DUP2 MSTORE PUSH1 0x20 ADD PUSH1 0xA DUP3 ADD SLOAD DUP2 MSTORE PUSH1 0x20 ADD PUSH1 0xB DUP3 ADD DUP1 SLOAD PUSH2 0xB6F SWAP1 PUSH2 0x2805 JUMP JUMPDEST DUP1 PUSH1 0x1F ADD PUSH1 0x20 DUP1 SWAP2 DIV MUL PUSH1 0x20 ADD PUSH1 0x40 MLOAD SWAP1 DUP2 ADD PUSH1 0x40 MSTORE DUP1 SWAP3 SWAP2 SWAP1 DUP2 DUP2 MSTORE PUSH1 0x20 ADD DUP3 DUP1 SLOAD PUSH2 0xB9B SWAP1 PUSH2 0x2805 JUMP JUMPDEST DUP1 ISZERO PUSH2 0xBE6 JUMPI DUP1 PUSH1 0x1F LT PUSH2 0xBBD JUMPI PUSH2 0x100 DUP1 DUP4 SLOAD DIV MUL DUP4 MSTORE SWAP2 PUSH1 0x20 ADD SWAP2 PUSH2 0xBE6 JUMP JUMPDEST DUP3 ADD SWAP2 SWAP1 PUSH0 MSTORE PUSH1 0x20 PUSH0 KECCAK256 SWAP1 JUMPDEST DUP2 SLOAD DUP2 MSTORE SWAP1 PUSH1 0x1 ADD SWAP1 PUSH1 0x20 ADD DUP1 DUP4 GT PUSH2 0xBC9 JUMPI DUP3 SWAP1 SUB PUSH1 0x1F AND DUP3 ADD SWAP2 JUMPDEST POP POP POP SWAP2 DUP4 MSTORE POP POP PUSH1 0x40 DUP1 MLOAD PUSH2 0x100 DUP1 DUP3 ADD DUP4 MSTORE PUSH1 0xC DUP6 ADD SLOAD PUSH1 0xFF DUP1 DUP3 AND ISZERO ISZERO DUP5 MSTORE SWAP2 DUP2 DIV DUP3 AND ISZERO ISZERO PUSH1 0x20 DUP5 DUP2 ADD SWAP2 SWAP1 SWAP2 MSTORE PUSH3 0x10000 DUP3 DIV DUP4 AND DUP5 DUP7 ADD MSTORE PUSH4 0x1000000 SWAP1 SWAP2 DIV DUP3 AND PUSH1 0x60 DUP1 DUP6 ADD SWAP2 SWAP1 SWAP2 MSTORE PUSH1 0xD DUP8 ADD SLOAD PUSH1 0x80 DUP6 ADD MSTORE PUSH1 0xE DUP8 ADD SLOAD PUSH1 0xA0 DUP6 ADD MSTORE PUSH1 0xF DUP8 ADD SLOAD PUSH1 0xC0 DUP6 ADD MSTORE PUSH1 0x10 DUP8 ADD SLOAD PUSH1 0xE0 DUP6 ADD MSTORE SWAP1 DUP6 ADD SWAP3 SWAP1 SWAP3 MSTORE DUP3 MLOAD SWAP2 DUP3 ADD DUP4 MSTORE PUSH1 0x11 DUP6 ADD DUP1 SLOAD SWAP4 SWAP1 SWAP5 ADD SWAP4 SWAP2 SWAP3 DUP4 SWAP2 AND PUSH1 0x2 DUP2 GT ISZERO PUSH2 0xC8E JUMPI PUSH2 0xC8E PUSH2 0x22B7 JUMP JUMPDEST PUSH1 0x2 DUP2 GT ISZERO PUSH2 0xC9F JUMPI PUSH2 0xC9F PUSH2 0x22B7 JUMP JUMPDEST DUP2 MSTORE PUSH1 0x20 ADD PUSH1 0x1 DUP3 ADD SLOAD DUP2 MSTORE PUSH1 0x20 ADD PUSH1 0x2 DUP3 ADD DUP1 SLOAD PUSH2 0xCBD SWAP1 PUSH2 0x2805 JUMP JUMPDEST DUP1 PUSH1 0x1F ADD PUSH1 0x20 DUP1 SWAP2 DIV MUL PUSH1 0x20 ADD PUSH1 0x40 MLOAD SWAP1 DUP2 ADD PUSH1 0x40 MSTORE DUP1 SWAP3 SWAP2 SWAP1 DUP2 DUP2 MSTORE PUSH1 0x20 ADD DUP3 DUP1 SLOAD PUSH2 0xCE9 SWAP1 PUSH2 0x2805 JUMP JUMPDEST DUP1 ISZERO PUSH2 0xD34 JUMPI DUP1 PUSH1 0x1F LT PUSH2 0xD0B JUMPI PUSH2 0x100 DUP1 DUP4 SLOAD DIV MUL DUP4 MSTORE SWAP2 PUSH1 0x20 ADD SWAP2 PUSH2 0xD34 JUMP JUMPDEST DUP3 ADD SWAP2 SWAP1 PUSH0 MSTORE PUSH1 0x20 PUSH0 KECCAK256 SWAP1 JUMPDEST DUP2 SLOAD DUP2 MSTORE SWAP1 PUSH1 0x1 ADD SWAP1 PUSH1 0x20 ADD DUP1 DUP4 GT PUSH2 0xD17 JUMPI DUP3 SWAP1 SUB PUSH1 0x1F AND DUP3 ADD SWAP2 JUMPDEST POP POP POP SWAP2 SWAP1 SWAP3 MSTORE POP POP POP SWAP1 MSTORE POP SWAP3 SWAP2 POP POP JUMP JUMPDEST DUP5 PUSH2 0xD65 JUMPI PUSH1 0x40 MLOAD PUSH4 0xCBF4A645 PUSH1 0xE0 SHL DUP2 MSTORE PUSH1 0x4 ADD PUSH1 0x40 MLOAD DUP1 SWAP2 SUB SWAP1 REVERT JUMPDEST PUSH1 0x3 SLOAD PUSH1 0x40 DUP7 SWAP1 SHR PUSH4 0xFFFFFFFF SWAP1 DUP2 AND PUSH1 0x1 PUSH1 0xA0 SHL SWAP1 SWAP3 DIV AND EQ PUSH2 0xD9C JUMPI PUSH1 0x40 MLOAD PUSH4 0x2299770D PUSH1 0xE1 SHL DUP2 MSTORE PUSH1 0x4 ADD PUSH1 0x40 MLOAD DUP1 SWAP2 SUB SWAP1 REVERT JUMPDEST PUSH0 DUP6 DUP2 MSTORE PUSH1 0x20 DUP2 SWAP1 MSTORE PUSH1 0x40 SWAP1 KECCAK256 DUP1 SLOAD PUSH2 0x100 SWAP1 DIV PUSH1 0x1 PUSH1 0x1 PUSH1 0xA0 SHL SUB AND PUSH2 0xDD6 JUMPI PUSH1 0x40 MLOAD PUSH4 0x4D36EB69 PUSH1 0xE0 SHL DUP2 MSTORE PUSH1 0x4 ADD PUSH1 0x40 MLOAD DUP1 SWAP2 SUB SWAP1 REVERT JUMPDEST PUSH1 0x2 DUP2 SLOAD PUSH1 0xFF AND PUSH1 0x4 DUP2 GT ISZERO PUSH2 0xDEE JUMPI PUSH2 0xDEE PUSH2 0x22B7 JUMP JUMPDEST EQ DUP1 PUSH2 0xE0F JUMPI POP PUSH1 0x4 DUP2 SLOAD PUSH1 0xFF AND PUSH1 0x4 DUP2 GT ISZERO PUSH2 0xE0D JUMPI PUSH2 0xE0D PUSH2 0x22B7 JUMP JUMPDEST EQ JUMPDEST ISZERO PUSH2 0xE2D JUMPI PUSH1 0x40 MLOAD PUSH4 0x7A92F19 PUSH1 0xE5 SHL DUP2 MSTORE PUSH1 0x4 ADD PUSH1 0x40 MLOAD DUP1 SWAP2 SUB SWAP1 REVERT JUMPDEST PUSH1 0x1 DUP2 SLOAD PUSH1 0xFF AND PUSH1 0x4 DUP2 GT ISZERO PUSH2 0xE45 JUMPI PUSH2 0xE45 PUSH2 0x22B7 JUMP JUMPDEST EQ ISZERO DUP1 ISZERO PUSH2 0xE65 JUMPI POP TIMESTAMP DUP2 PUSH1 0x6 ADD SLOAD DUP3 PUSH1 0x5 ADD SLOAD PUSH2 0xE63 SWAP2 SWAP1 PUSH2 0x2BAD JUMP JUMPDEST GT JUMPDEST ISZERO PUSH2 0xE83 JUMPI PUSH1 0x40 MLOAD PUSH4 0xE843C5EB PUSH1 0xE0 SHL DUP2 MSTORE PUSH1 0x4 ADD PUSH1 0x40 MLOAD DUP1 SWAP2 SUB SWAP1 REVERT JUMPDEST DUP1 SLOAD PUSH1 0x3 SLOAD PUSH1 0x40 MLOAD PUSH4 0x5C73957B PUSH1 0xE1 SHL DUP2 MSTORE PUSH1 0xFF SWAP1 SWAP3 AND SWAP2 PUSH1 0x1 PUSH1 0x1 PUSH1 0xA0 SHL SUB SWAP1 SWAP2 AND SWAP1 PUSH4 0xB8E72AF6 SWAP1 PUSH2 0xEC1 SWAP1 DUP10 SWAP1 DUP10 SWAP1 DUP10 SWAP1 DUP10 SWAP1 PUSH1 0x4 ADD PUSH2 0x2BE8 JUMP JUMPDEST PUSH0 PUSH1 0x40 MLOAD DUP1 DUP4 SUB DUP2 DUP7 DUP1 EXTCODESIZE ISZERO DUP1 ISZERO PUSH2 0xED7 JUMPI PUSH0 PUSH0 REVERT JUMPDEST POP GAS STATICCALL ISZERO DUP1 ISZERO PUSH2 0xEE9 JUMPI RETURNDATASIZE PUSH0 PUSH0 RETURNDATACOPY RETURNDATASIZE PUSH0 REVERT JUMPDEST POP PUSH0 SWAP3 POP PUSH2 0xEFC SWAP2 POP POP DUP5 DUP7 ADD DUP7 PUSH2 0x2C49 JUMP JUMPDEST PUSH1 0x3 DUP5 ADD SLOAD DUP2 MLOAD SWAP2 SWAP3 POP EQ PUSH2 0xF24 JUMPI PUSH1 0x40 MLOAD PUSH4 0xB6FAC03 PUSH1 0xE4 SHL DUP2 MSTORE PUSH1 0x4 ADD PUSH1 0x40 MLOAD DUP1 SWAP2 SUB SWAP1 REVERT JUMPDEST PUSH0 PUSH2 0xF31 PUSH1 0x1 PUSH1 0x9 PUSH2 0x2B7F JUMP JUMPDEST PUSH1 0x1 PUSH1 0x1 PUSH1 0x40 SHL SUB DUP2 GT ISZERO PUSH2 0xF48 JUMPI PUSH2 0xF48 PUSH2 0x2837 JUMP JUMPDEST PUSH1 0x40 MLOAD SWAP1 DUP1 DUP3 MSTORE DUP1 PUSH1 0x20 MUL PUSH1 0x20 ADD DUP3 ADD PUSH1 0x40 MSTORE DUP1 ISZERO PUSH2 0xF71 JUMPI DUP2 PUSH1 0x20 ADD PUSH1 0x20 DUP3 MUL DUP1 CALLDATASIZE DUP4 CALLDATACOPY ADD SWAP1 POP JUMPDEST POP SWAP1 POP PUSH1 0x1 JUMPDEST PUSH1 0x9 DUP2 LT ISZERO PUSH2 0xFC6 JUMPI DUP3 DUP2 PUSH1 0x9 DUP2 LT PUSH2 0xF92 JUMPI PUSH2 0xF92 PUSH2 0x2CB0 JUMP JUMPDEST PUSH1 0x20 MUL ADD MLOAD DUP3 PUSH2 0xFA3 PUSH1 0x1 DUP5 PUSH2 0x2B7F JUMP JUMPDEST DUP2 MLOAD DUP2 LT PUSH2 0xFB3 JUMPI PUSH2 0xFB3 PUSH2 0x2CB0 JUMP JUMPDEST PUSH1 0x20 SWAP1 DUP2 MUL SWAP2 SWAP1 SWAP2 ADD ADD MSTORE PUSH1 0x1 ADD PUSH2 0xF77 JUMP JUMPDEST POP DUP4 SLOAD PUSH1 0xFF NOT AND PUSH1 0x4 SWAP1 DUP2 OR DUP6 SSTORE DUP2 MLOAD PUSH2 0xFE7 SWAP2 DUP7 ADD SWAP1 PUSH1 0x20 DUP5 ADD SWAP1 PUSH2 0x2243 JUMP JUMPDEST POP DUP9 PUSH32 0x2F25F350B681441B5BB45430FBE61E78D0170CFF4AD02CB0AA48A6427909AA8C DUP5 PUSH1 0x4 PUSH1 0x40 MLOAD PUSH2 0x101B SWAP3 SWAP2 SWAP1 PUSH2 0x2B92 JUMP JUMPDEST PUSH1 0x40 MLOAD DUP1 SWAP2 SUB SWAP1 LOG2 CALLER PUSH1 0x1 PUSH1 0x1 PUSH1 0xA0 SHL SUB AND DUP10 PUSH32 0x5DA8009AEB11DE7EF64598B0DE897A03D2F93EFABDA8507A70E29CCA4530CF5D DUP4 PUSH1 0x40 MLOAD PUSH2 0x105D SWAP2 SWAP1 PUSH2 0x2CC4 JUMP JUMPDEST PUSH1 0x40 MLOAD DUP1 SWAP2 SUB SWAP1 LOG3 POP POP POP POP POP POP POP POP POP JUMP JUMPDEST PUSH0 DUP2 DUP2 MSTORE PUSH1 0x20 DUP2 SWAP1 MSTORE PUSH1 0x40 DUP1 DUP3 KECCAK256 DUP2 MLOAD PUSH2 0x1C0 DUP2 ADD SWAP1 SWAP3 MSTORE DUP1 SLOAD DUP4 SWAP3 SWAP2 SWAP1 DUP3 SWAP1 PUSH1 0xFF AND PUSH1 0x4 DUP2 GT ISZERO PUSH2 0x10A4 JUMPI PUSH2 0x10A4 PUSH2 0x22B7 JUMP JUMPDEST PUSH1 0x4 DUP2 GT ISZERO PUSH2 0x10B5 JUMPI PUSH2 0x10B5 PUSH2 0x22B7 JUMP JUMPDEST DUP2 MSTORE DUP2 SLOAD PUSH2 0x100 SWAP1 DIV PUSH1 0x1 PUSH1 0x1 PUSH1 0xA0 SHL SUB AND PUSH1 0x20 DUP1 DUP4 ADD SWAP2 SWAP1 SWAP2 MSTORE PUSH1 0x40 DUP1 MLOAD DUP1 DUP3 ADD DUP3 MSTORE PUSH1 0x1 DUP6 ADD SLOAD DUP2 MSTORE PUSH1 0x2 DUP6 ADD SLOAD DUP2 DUP5 ADD MSTORE DUP2 DUP5 ADD MSTORE PUSH1 0x3 DUP5 ADD SLOAD PUSH1 0x60 DUP5 ADD MSTORE PUSH1 0x4 DUP5 ADD DUP1 SLOAD DUP3 MLOAD DUP2 DUP6 MUL DUP2 ADD DUP6 ADD SWAP1 SWAP4 MSTORE DUP1 DUP4 MSTORE PUSH1 0x80 SWAP1 SWAP5 ADD SWAP4 SWAP2 SWAP3 SWAP1 SWAP2 SWAP1 DUP4 ADD DUP3 DUP3 DUP1 ISZERO PUSH2 0x1144 JUMPI PUSH1 0x20 MUL DUP3 ADD SWAP2 SWAP1 PUSH0 MSTORE PUSH1 0x20 PUSH0 KECCAK256 SWAP1 JUMPDEST DUP2 SLOAD DUP2 MSTORE PUSH1 0x20 ADD SWAP1 PUSH1 0x1 ADD SWAP1 DUP1 DUP4 GT PUSH2 0x1130 JUMPI JUMPDEST POP POP POP POP POP DUP2 MSTORE PUSH1 0x20 ADD PUSH1 0x5 DUP3 ADD SLOAD DUP2 MSTORE PUSH1 0x20 ADD PUSH1 0x6 DUP3 ADD SLOAD DUP2 MSTORE PUSH1 0x20 ADD PUSH1 0x7 DUP3 ADD SLOAD DUP2 MSTORE PUSH1 0x20 ADD PUSH1 0x8 DUP3 ADD SLOAD DUP2 MSTORE PUSH1 0x20 ADD PUSH1 0x9 DUP3 ADD SLOAD DUP2 MSTORE PUSH1 0x20 ADD PUSH1 0xA DUP3 ADD SLOAD DUP2 MSTORE PUSH1 0x20 ADD PUSH1 0xB DUP3 ADD DUP1 SLOAD PUSH2 0x1199 SWAP1 PUSH2 0x2805 JUMP JUMPDEST DUP1 PUSH1 0x1F ADD PUSH1 0x20 DUP1 SWAP2 DIV MUL PUSH1 0x20 ADD PUSH1 0x40 MLOAD SWAP1 DUP2 ADD PUSH1 0x40 MSTORE DUP1 SWAP3 SWAP2 SWAP1 DUP2 DUP2 MSTORE PUSH1 0x20 ADD DUP3 DUP1 SLOAD PUSH2 0x11C5 SWAP1 PUSH2 0x2805 JUMP JUMPDEST DUP1 ISZERO PUSH2 0x1210 JUMPI DUP1 PUSH1 0x1F LT PUSH2 0x11E7 JUMPI PUSH2 0x100 DUP1 DUP4 SLOAD DIV MUL DUP4 MSTORE SWAP2 PUSH1 0x20 ADD SWAP2 PUSH2 0x1210 JUMP JUMPDEST DUP3 ADD SWAP2 SWAP1 PUSH0 MSTORE PUSH1 0x20 PUSH0 KECCAK256 SWAP1 JUMPDEST DUP2 SLOAD DUP2 MSTORE SWAP1 PUSH1 0x1 ADD SWAP1 PUSH1 0x20 ADD DUP1 DUP4 GT PUSH2 0x11F3 JUMPI DUP3 SWAP1 SUB PUSH1 0x1F AND DUP3 ADD SWAP2 JUMPDEST POP POP POP SWAP2 DUP4 MSTORE POP POP PUSH1 0x40 DUP1 MLOAD PUSH2 0x100 DUP1 DUP3 ADD DUP4 MSTORE PUSH1 0xC DUP6 ADD SLOAD PUSH1 0xFF DUP1 DUP3 AND ISZERO ISZERO DUP5 MSTORE SWAP2 DUP2 DIV DUP3 AND ISZERO ISZERO PUSH1 0x20 DUP5 DUP2 ADD SWAP2 SWAP1 SWAP2 MSTORE PUSH3 0x10000 DUP3 DIV DUP4 AND DUP5 DUP7 ADD MSTORE PUSH4 0x1000000 SWAP1 SWAP2 DIV DUP3 AND PUSH1 0x60 DUP1 DUP6 ADD SWAP2 SWAP1 SWAP2 MSTORE PUSH1 0xD DUP8 ADD SLOAD PUSH1 0x80 DUP6 ADD MSTORE PUSH1 0xE DUP8 ADD SLOAD PUSH1 0xA0 DUP6 ADD MSTORE PUSH1 0xF DUP8 ADD SLOAD PUSH1 0xC0 DUP6 ADD MSTORE PUSH1 0x10 DUP8 ADD SLOAD PUSH1 0xE0 DUP6 ADD MSTORE SWAP1 DUP6 ADD SWAP3 SWAP1 SWAP3 MSTORE DUP3 MLOAD SWAP2 DUP3 ADD DUP4 MSTORE PUSH1 0x11 DUP6 ADD DUP1 SLOAD SWAP4 SWAP1 SWAP5 ADD SWAP4 SWAP2 SWAP3 DUP4 SWAP2 AND PUSH1 0x2 DUP2 GT ISZERO PUSH2 0x12B8 JUMPI PUSH2 0x12B8 PUSH2 0x22B7 JUMP JUMPDEST PUSH1 0x2 DUP2 GT ISZERO PUSH2 0x12C9 JUMPI PUSH2 0x12C9 PUSH2 0x22B7 JUMP JUMPDEST DUP2 MSTORE PUSH1 0x20 ADD PUSH1 0x1 DUP3 ADD SLOAD DUP2 MSTORE PUSH1 0x20 ADD PUSH1 0x2 DUP3 ADD DUP1 SLOAD PUSH2 0x12E7 SWAP1 PUSH2 0x2805 JUMP JUMPDEST DUP1 PUSH1 0x1F ADD PUSH1 0x20 DUP1 SWAP2 DIV MUL PUSH1 0x20 ADD PUSH1 0x40 MLOAD SWAP1 DUP2 ADD PUSH1 0x40 MSTORE DUP1 SWAP3 SWAP2 SWAP1 DUP2 DUP2 MSTORE PUSH1 0x20 ADD DUP3 DUP1 SLOAD PUSH2 0x1313 SWAP1 PUSH2 0x2805 JUMP JUMPDEST DUP1 ISZERO PUSH2 0x135E JUMPI DUP1 PUSH1 0x1F LT PUSH2 0x1335 JUMPI PUSH2 0x100 DUP1 DUP4 SLOAD DIV MUL DUP4 MSTORE SWAP2 PUSH1 0x20 ADD SWAP2 PUSH2 0x135E JUMP JUMPDEST DUP3 ADD SWAP2 SWAP1 PUSH0 MSTORE PUSH1 0x20 PUSH0 KECCAK256 SWAP1 JUMPDEST DUP2 SLOAD DUP2 MSTORE SWAP1 PUSH1 0x1 ADD SWAP1 PUSH1 0x20 ADD DUP1 DUP4 GT PUSH2 0x1341 JUMPI DUP3 SWAP1 SUB PUSH1 0x1F AND DUP3 ADD SWAP2 JUMPDEST POP POP POP POP POP DUP2 MSTORE POP POP DUP2 MSTORE POP POP SWAP1 POP DUP1 PUSH1 0xC0 ADD MLOAD DUP2 PUSH1 0xA0 ADD MLOAD PUSH2 0x1381 SWAP2 SWAP1 PUSH2 0x2BAD JUMP JUMPDEST SWAP4 SWAP3 POP POP POP JUMP JUMPDEST DUP2 PUSH2 0x13A6 JUMPI PUSH1 0x40 MLOAD PUSH4 0xCBF4A645 PUSH1 0xE0 SHL DUP2 MSTORE PUSH1 0x4 ADD PUSH1 0x40 MLOAD DUP1 SWAP2 SUB SWAP1 REVERT JUMPDEST PUSH1 0x3 SLOAD PUSH1 0x40 DUP4 SWAP1 SHR PUSH4 0xFFFFFFFF SWAP1 DUP2 AND PUSH1 0x1 PUSH1 0xA0 SHL SWAP1 SWAP3 DIV AND EQ PUSH2 0x13DD JUMPI PUSH1 0x40 MLOAD PUSH4 0x2299770D PUSH1 0xE1 SHL DUP2 MSTORE PUSH1 0x4 ADD PUSH1 0x40 MLOAD DUP1 SWAP2 SUB SWAP1 REVERT JUMPDEST PUSH0 DUP3 DUP2 MSTORE PUSH1 0x20 DUP2 SWAP1 MSTORE PUSH1 0x40 SWAP1 KECCAK256 DUP1 SLOAD PUSH2 0x100 SWAP1 DIV PUSH1 0x1 PUSH1 0x1 PUSH1 0xA0 SHL SUB AND PUSH2 0x1417 JUMPI PUSH1 0x40 MLOAD PUSH4 0x4D36EB69 PUSH1 0xE0 SHL DUP2 MSTORE PUSH1 0x4 ADD PUSH1 0x40 MLOAD DUP1 SWAP2 SUB SWAP1 REVERT JUMPDEST DUP1 SLOAD PUSH2 0x100 SWAP1 DIV PUSH1 0x1 PUSH1 0x1 PUSH1 0xA0 SHL SUB AND CALLER EQ PUSH2 0x1445 JUMPI PUSH1 0x40 MLOAD PUSH3 0x82B429 PUSH1 0xE8 SHL DUP2 MSTORE PUSH1 0x4 ADD PUSH1 0x40 MLOAD DUP1 SWAP2 SUB SWAP1 REVERT JUMPDEST DUP1 SLOAD PUSH1 0xFF AND PUSH0 DUP2 PUSH1 0x4 DUP2 GT ISZERO PUSH2 0x145D JUMPI PUSH2 0x145D PUSH2 0x22B7 JUMP JUMPDEST EQ ISZERO DUP1 ISZERO PUSH2 0x147D JUMPI POP PUSH1 0x3 DUP2 PUSH1 0x4 DUP2 GT ISZERO PUSH2 0x147A JUMPI PUSH2 0x147A PUSH2 0x22B7 JUMP JUMPDEST EQ ISZERO JUMPDEST ISZERO PUSH2 0x149B JUMPI PUSH1 0x40 MLOAD PUSH4 0x7A92F19 PUSH1 0xE5 SHL DUP2 MSTORE PUSH1 0x4 ADD PUSH1 0x40 MLOAD DUP1 SWAP2 SUB SWAP1 REVERT JUMPDEST PUSH1 0x5 DUP3 ADD SLOAD PUSH1 0x6 DUP4 ADD SLOAD DUP5 ISZERO DUP1 PUSH2 0x14BB JUMPI POP TIMESTAMP PUSH2 0x14B8 DUP7 DUP5 PUSH2 0x2BAD JUMP JUMPDEST GT ISZERO JUMPDEST DUP1 PUSH2 0x14D8 JUMPI POP PUSH2 0x14CB DUP2 DUP4 PUSH2 0x2BAD JUMP JUMPDEST PUSH2 0x14D5 DUP7 DUP5 PUSH2 0x2BAD JUMP JUMPDEST GT ISZERO JUMPDEST ISZERO PUSH2 0x14F6 JUMPI PUSH1 0x40 MLOAD PUSH4 0x76166401 PUSH1 0xE0 SHL DUP2 MSTORE PUSH1 0x4 ADD PUSH1 0x40 MLOAD DUP1 SWAP2 SUB SWAP1 REVERT JUMPDEST PUSH1 0x6 DUP5 ADD DUP6 SWAP1 SSTORE PUSH1 0x40 MLOAD DUP6 DUP2 MSTORE DUP7 SWAP1 PUSH32 0xF759826327C668A220D576485AC38DDC4F83FBC414B984C00E79F669B649F46 SWAP1 PUSH1 0x20 ADD PUSH1 0x40 MLOAD DUP1 SWAP2 SUB SWAP1 LOG2 POP POP POP POP POP POP JUMP JUMPDEST DUP5 PUSH2 0x1558 JUMPI PUSH1 0x40 MLOAD PUSH4 0xCBF4A645 PUSH1 0xE0 SHL DUP2 MSTORE PUSH1 0x4 ADD PUSH1 0x40 MLOAD DUP1 SWAP2 SUB SWAP1 REVERT JUMPDEST PUSH1 0x3 SLOAD PUSH1 0x40 DUP7 SWAP1 SHR PUSH4 0xFFFFFFFF SWAP1 DUP2 AND PUSH1 0x1 PUSH1 0xA0 SHL SWAP1 SWAP3 DIV AND EQ PUSH2 0x158F JUMPI PUSH1 0x40 MLOAD PUSH4 0x2299770D PUSH1 0xE1 SHL DUP2 MSTORE PUSH1 0x4 ADD PUSH1 0x40 MLOAD DUP1 SWAP2 SUB SWAP1 REVERT JUMPDEST PUSH0 DUP6 DUP2 MSTORE PUSH1 0x20 DUP2 SWAP1 MSTORE PUSH1 0x40 SWAP1 KECCAK256 DUP1 SLOAD PUSH2 0x100 SWAP1 DIV PUSH1 0x1 PUSH1 0x1 PUSH1 0xA0 SHL SUB AND PUSH2 0x15C9 JUMPI PUSH1 0x40 MLOAD PUSH4 0x4D36EB69 PUSH1 0xE0 SHL DUP2 MSTORE PUSH1 0x4 ADD PUSH1 0x40 MLOAD DUP1 SWAP2 SUB SWAP1 REVERT JUMPDEST PUSH0 DUP2 SLOAD PUSH1 0xFF AND PUSH1 0x4 DUP2 GT ISZERO PUSH2 0x15E0 JUMPI PUSH2 0x15E0 PUSH2 0x22B7 JUMP JUMPDEST EQ PUSH2 0x15FE JUMPI PUSH1 0x40 MLOAD PUSH4 0x7A92F19 PUSH1 0xE5 SHL DUP2 MSTORE PUSH1 0x4 ADD PUSH1 0x40 MLOAD DUP1 SWAP2 SUB SWAP1 REVERT JUMPDEST TIMESTAMP DUP2 PUSH1 0x6 ADD SLOAD DUP3 PUSH1 0x5 ADD SLOAD PUSH2 0x1613 SWAP2 SWAP1 PUSH2 0x2BAD JUMP JUMPDEST GT PUSH2 0x1631 JUMPI PUSH1 0x40 MLOAD PUSH4 0xE843C5EB PUSH1 0xE0 SHL DUP2 MSTORE PUSH1 0x4 ADD PUSH1 0x40 MLOAD DUP1 SWAP2 SUB SWAP1 REVERT JUMPDEST PUSH0 DUP1 DUP1 PUSH2 0x1640 DUP6 DUP8 ADD DUP8 PUSH2 0x2D66 JUMP JUMPDEST PUSH1 0x3 DUP8 ADD SLOAD DUP4 MLOAD SWAP4 SWAP7 POP SWAP2 SWAP5 POP SWAP3 POP EQ PUSH2 0x166D JUMPI PUSH1 0x40 MLOAD PUSH4 0xB6FAC03 PUSH1 0xE4 SHL DUP2 MSTORE PUSH1 0x4 ADD PUSH1 0x40 MLOAD DUP1 SWAP2 SUB SWAP1 REVERT JUMPDEST PUSH1 0x3 SLOAD PUSH1 0x1 PUSH1 0xC0 SHL SWAP1 DIV PUSH1 0xFF AND ISZERO PUSH2 0x171D JUMPI PUSH0 PUSH2 0x1689 DUP4 PUSH2 0x1E5C JUMP JUMPDEST SWAP1 POP PUSH2 0x1694 DUP2 PUSH2 0x1ECF JUMP JUMPDEST PUSH1 0xA0 DUP5 ADD MLOAD PUSH1 0xC0 DUP1 DUP7 ADD MLOAD PUSH1 0xE0 DUP8 ADD MLOAD PUSH2 0x100 DUP9 ADD MLOAD PUSH2 0x120 DUP10 ADD MLOAD PUSH0 SWAP5 PUSH1 0x1 PUSH1 0x1 PUSH1 0x40 SHL SUB SWAP1 SWAP5 AND PUSH1 0x40 SWAP4 SWAP1 SWAP4 SHL PUSH16 0xFFFFFFFFFFFFFFFF0000000000000000 AND PUSH1 0x80 SWAP3 SWAP1 SWAP3 SHL PUSH8 0xFFFFFFFFFFFFFFFF PUSH1 0x80 SHL AND SWAP4 SHL PUSH1 0x1 PUSH1 0x1 PUSH1 0xC0 SHL SUB NOT AND SWAP3 SWAP1 SWAP3 OR SWAP2 SWAP1 SWAP2 OR OR SWAP1 POP PUSH0 PUSH2 0x170D DUP5 DUP5 DUP5 DUP10 DUP10 PUSH2 0x1EDB JUMP JUMPDEST SWAP1 POP PUSH2 0x1718 DUP2 PUSH2 0x1F84 JUMP JUMPDEST POP POP POP POP JUMPDEST PUSH1 0x2 SLOAD PUSH1 0x40 MLOAD PUSH4 0x5C73957B PUSH1 0xE1 SHL DUP2 MSTORE PUSH1 0x1 PUSH1 0x40 SHL SWAP1 SWAP2 DIV PUSH1 0x1 PUSH1 0x1 PUSH1 0xA0 SHL SUB AND SWAP1 PUSH4 0xB8E72AF6 SWAP1 PUSH2 0x1759 SWAP1 DUP12 SWAP1 DUP12 SWAP1 DUP12 SWAP1 DUP12 SWAP1 PUSH1 0x4 ADD PUSH2 0x2BE8 JUMP JUMPDEST PUSH0 PUSH1 0x40 MLOAD DUP1 DUP4 SUB DUP2 DUP7 DUP1 EXTCODESIZE ISZERO DUP1 ISZERO PUSH2 0x176F JUMPI PUSH0 PUSH0 REVERT JUMPDEST POP GAS STATICCALL ISZERO DUP1 ISZERO PUSH2 0x1781 JUMPI RETURNDATASIZE PUSH0 PUSH0 RETURNDATACOPY RETURNDATASIZE PUSH0 REVERT JUMPDEST POP POP POP POP DUP3 PUSH1 0x1 PUSH1 0xA DUP2 LT PUSH2 0x1798 JUMPI PUSH2 0x1798 PUSH2 0x2CB0 JUMP JUMPDEST PUSH1 0x20 MUL ADD MLOAD PUSH1 0x3 DUP6 ADD SSTORE PUSH1 0x40 DUP4 ADD MLOAD PUSH1 0x7 DUP6 ADD DUP1 SLOAD PUSH0 SWAP1 PUSH2 0x17BA SWAP1 DUP5 SWAP1 PUSH2 0x2BAD JUMP JUMPDEST SWAP1 SWAP2 SSTORE POP POP PUSH1 0x60 DUP4 ADD MLOAD PUSH1 0x8 DUP6 ADD DUP1 SLOAD PUSH0 SWAP1 PUSH2 0x17D7 SWAP1 DUP5 SWAP1 PUSH2 0x2BAD JUMP JUMPDEST SWAP1 SWAP2 SSTORE POP POP PUSH1 0xA DUP5 ADD DUP1 SLOAD SWAP1 PUSH0 PUSH2 0x17ED DUP4 PUSH2 0x2E1C JUMP JUMPDEST SWAP1 SWAP2 SSTORE POP POP PUSH1 0x20 DUP1 DUP5 ADD MLOAD PUSH1 0x40 MLOAD SWAP1 DUP2 MSTORE CALLER SWAP2 DUP12 SWAP2 PUSH32 0xDC9B2774F92ABFEEE93D8B2EF67D59CD90C2D6D740B01C24FD9EC109A71865FC SWAP2 ADD PUSH2 0x105D JUMP JUMPDEST DUP2 PUSH2 0x1848 JUMPI PUSH1 0x40 MLOAD PUSH4 0xCBF4A645 PUSH1 0xE0 SHL DUP2 MSTORE PUSH1 0x4 ADD PUSH1 0x40 MLOAD DUP1 SWAP2 SUB SWAP1 REVERT JUMPDEST PUSH1 0x3 SLOAD PUSH1 0x40 DUP4 SWAP1 SHR PUSH4 0xFFFFFFFF SWAP1 DUP2 AND PUSH1 0x1 PUSH1 0xA0 SHL SWAP1 SWAP3 DIV AND EQ PUSH2 0x187F JUMPI PUSH1 0x40 MLOAD PUSH4 0x2299770D PUSH1 0xE1 SHL DUP2 MSTORE PUSH1 0x4 ADD PUSH1 0x40 MLOAD DUP1 SWAP2 SUB SWAP1 REVERT JUMPDEST PUSH0 DUP3 DUP2 MSTORE PUSH1 0x20 DUP2 SWAP1 MSTORE PUSH1 0x40 SWAP1 KECCAK256 DUP1 SLOAD PUSH2 0x100 SWAP1 DIV PUSH1 0x1 PUSH1 0x1 PUSH1 0xA0 SHL SUB AND PUSH2 0x18B9 JUMPI PUSH1 0x40 MLOAD PUSH4 0x4D36EB69 PUSH1 0xE0 SHL DUP2 MSTORE PUSH1 0x4 ADD PUSH1 0x40 MLOAD DUP1 SWAP2 SUB SWAP1 REVERT JUMPDEST DUP1 SLOAD PUSH2 0x100 SWAP1 DIV PUSH1 0x1 PUSH1 0x1 PUSH1 0xA0 SHL SUB AND CALLER EQ PUSH2 0x18E7 JUMPI PUSH1 0x40 MLOAD PUSH3 0x82B429 PUSH1 0xE8 SHL DUP2 MSTORE PUSH1 0x4 ADD PUSH1 0x40 MLOAD DUP1 SWAP2 SUB SWAP1 REVERT JUMPDEST PUSH2 0x18F4 PUSH1 0x20 DUP4 ADD DUP4 PUSH2 0x2E34 JUMP JUMPDEST PUSH1 0x2 DUP2 GT ISZERO PUSH2 0x1905 JUMPI PUSH2 0x1905 PUSH2 0x22B7 JUMP JUMPDEST PUSH1 0x11 DUP3 ADD SLOAD PUSH1 0xFF AND PUSH1 0x2 DUP2 GT ISZERO PUSH2 0x191E JUMPI PUSH2 0x191E PUSH2 0x22B7 JUMP JUMPDEST EQ PUSH2 0x193C JUMPI PUSH1 0x40 MLOAD PUSH4 0xF37F7B5D PUSH1 0xE0 SHL DUP2 MSTORE PUSH1 0x4 ADD PUSH1 0x40 MLOAD DUP1 SWAP2 SUB SWAP1 REVERT JUMPDEST PUSH1 0x20 DUP3 ADD CALLDATALOAD PUSH2 0x195E JUMPI PUSH1 0x40 MLOAD PUSH4 0x5E32EADD PUSH1 0xE0 SHL DUP2 MSTORE PUSH1 0x4 ADD PUSH1 0x40 MLOAD DUP1 SWAP2 SUB SWAP1 REVERT JUMPDEST PUSH2 0x196B PUSH1 0x40 DUP4 ADD DUP4 PUSH2 0x2A43 JUMP JUMPDEST SWAP1 POP PUSH0 SUB PUSH2 0x198C JUMPI PUSH1 0x40 MLOAD PUSH4 0xF8B9321 PUSH1 0xE1 SHL DUP2 MSTORE PUSH1 0x4 ADD PUSH1 0x40 MLOAD DUP1 SWAP2 SUB SWAP1 REVERT JUMPDEST PUSH0 DUP2 SLOAD PUSH1 0xFF AND PUSH1 0x4 DUP2 GT ISZERO PUSH2 0x19A3 JUMPI PUSH2 0x19A3 PUSH2 0x22B7 JUMP JUMPDEST EQ ISZERO DUP1 ISZERO PUSH2 0x19C7 JUMPI POP PUSH1 0x3 DUP2 SLOAD PUSH1 0xFF AND PUSH1 0x4 DUP2 GT ISZERO PUSH2 0x19C4 JUMPI PUSH2 0x19C4 PUSH2 0x22B7 JUMP JUMPDEST EQ ISZERO JUMPDEST ISZERO PUSH2 0x19E5 JUMPI PUSH1 0x40 MLOAD PUSH4 0x7A92F19 PUSH1 0xE5 SHL DUP2 MSTORE PUSH1 0x4 ADD PUSH1 0x40 MLOAD DUP1 SWAP2 SUB SWAP1 REVERT JUMPDEST TIMESTAMP DUP2 PUSH1 0x6 ADD SLOAD DUP3 PUSH1 0x5 ADD SLOAD PUSH2 0x19FA SWAP2 SWAP1 PUSH2 0x2BAD JUMP JUMPDEST GT PUSH2 0x1A18 JUMPI PUSH1 0x40 MLOAD PUSH4 0xE843C5EB PUSH1 0xE0 SHL DUP2 MSTORE PUSH1 0x4 ADD PUSH1 0x40 MLOAD DUP1 SWAP2 SUB SWAP1 REVERT JUMPDEST PUSH1 0x20 DUP3 ADD CALLDATALOAD PUSH1 0x12 DUP3 ADD SSTORE PUSH2 0x1A2F PUSH1 0x40 DUP4 ADD DUP4 PUSH2 0x2A43 JUMP JUMPDEST PUSH1 0x13 DUP4 ADD SWAP2 PUSH2 0x1A3F SWAP2 SWAP1 DUP4 PUSH2 0x2894 JUMP JUMPDEST POP DUP3 PUSH32 0x87E1C82BC035C552E997EC2F1CF023790CED0CC01098D516DC6E7200835FFB27 PUSH1 0x20 DUP5 ADD CALLDATALOAD PUSH2 0x1A74 PUSH1 0x40 DUP7 ADD DUP7 PUSH2 0x2A43 JUMP JUMPDEST PUSH1 0x40 MLOAD PUSH2 0x1A83 SWAP4 SWAP3 SWAP2 SWAP1 PUSH2 0x2E4F JUMP JUMPDEST PUSH1 0x40 MLOAD DUP1 SWAP2 SUB SWAP1 LOG2 POP POP POP JUMP JUMPDEST PUSH1 0x3 SLOAD PUSH1 0x40 DUP1 MLOAD PUSH4 0x233ACE11 PUSH1 0xE0 SHL DUP2 MSTORE SWAP1 MLOAD PUSH0 SWAP3 PUSH1 0x1 PUSH1 0x1 PUSH1 0xA0 SHL SUB AND SWAP2 PUSH4 0x233ACE11 SWAP2 PUSH1 0x4 DUP1 DUP4 ADD SWAP3 PUSH1 0x20 SWAP3 SWAP2 SWAP1 DUP3 SWAP1 SUB ADD DUP2 DUP7 GAS STATICCALL ISZERO DUP1 ISZERO PUSH2 0x7C2 JUMPI RETURNDATASIZE PUSH0 PUSH0 RETURNDATACOPY RETURNDATASIZE PUSH0 REVERT JUMPDEST PUSH0 DUP8 DUP2 MSTORE PUSH1 0x20 DUP2 SWAP1 MSTORE PUSH1 0x40 SWAP1 KECCAK256 SLOAD PUSH1 0x1 PUSH1 0x1 PUSH1 0xA0 SHL SUB DUP1 DUP9 AND PUSH2 0x100 SWAP1 SWAP3 DIV AND SUB PUSH2 0x1B15 JUMPI PUSH1 0x40 MLOAD PUSH4 0x5040C4D3 PUSH1 0xE1 SHL DUP2 MSTORE PUSH1 0x4 ADD PUSH1 0x40 MLOAD DUP1 SWAP2 SUB SWAP1 REVERT JUMPDEST PUSH2 0x1B25 PUSH1 0x60 DUP4 ADD PUSH1 0x40 DUP5 ADD PUSH2 0x2E68 JUMP JUMPDEST PUSH1 0xFF AND ISZERO DUP1 PUSH2 0x1B46 JUMPI POP PUSH1 0x8 PUSH2 0x1B41 PUSH1 0x60 DUP5 ADD PUSH1 0x40 DUP6 ADD PUSH2 0x2E68 JUMP JUMPDEST PUSH1 0xFF AND GT JUMPDEST ISZERO PUSH2 0x1B64 JUMPI PUSH1 0x40 MLOAD PUSH4 0xAC38930B PUSH1 0xE0 SHL DUP2 MSTORE PUSH1 0x4 ADD PUSH1 0x40 MLOAD DUP1 SWAP2 SUB SWAP1 REVERT JUMPDEST PUSH2 0xFFFF DUP3 PUSH1 0xC0 ADD CALLDATALOAD GT ISZERO PUSH2 0x1B8B JUMPI PUSH1 0x40 MLOAD PUSH4 0x4DBA7951 PUSH1 0xE0 SHL DUP2 MSTORE PUSH1 0x4 ADD PUSH1 0x40 MLOAD DUP1 SWAP2 SUB SWAP1 REVERT JUMPDEST DUP2 PUSH1 0x80 ADD CALLDATALOAD DUP3 PUSH1 0xA0 ADD CALLDATALOAD GT ISZERO PUSH2 0x1BB4 JUMPI PUSH1 0x40 MLOAD PUSH4 0x207EA56D PUSH1 0xE0 SHL DUP2 MSTORE PUSH1 0x4 ADD PUSH1 0x40 MLOAD DUP1 SWAP2 SUB SWAP1 REVERT JUMPDEST DUP2 PUSH1 0xC0 ADD CALLDATALOAD DUP3 PUSH1 0xE0 ADD CALLDATALOAD GT ISZERO PUSH2 0x1BDD JUMPI PUSH1 0x40 MLOAD PUSH4 0x6D403EC7 PUSH1 0xE1 SHL DUP2 MSTORE PUSH1 0x4 ADD PUSH1 0x40 MLOAD DUP1 SWAP2 SUB SWAP1 REVERT JUMPDEST PUSH1 0x2 PUSH2 0x1BEC PUSH1 0x20 DUP4 ADD DUP4 PUSH2 0x2E34 JUMP JUMPDEST PUSH1 0x2 DUP2 GT ISZERO PUSH2 0x1BFD JUMPI PUSH2 0x1BFD PUSH2 0x22B7 JUMP JUMPDEST PUSH1 0xFF AND GT ISZERO PUSH2 0x1C1F JUMPI PUSH1 0x40 MLOAD PUSH4 0xF37F7B5D PUSH1 0xE0 SHL DUP2 MSTORE PUSH1 0x4 ADD PUSH1 0x40 MLOAD DUP1 SWAP2 SUB SWAP1 REVERT JUMPDEST PUSH1 0x20 DUP2 ADD CALLDATALOAD PUSH2 0x1C41 JUMPI PUSH1 0x40 MLOAD PUSH4 0x5E32EADD PUSH1 0xE0 SHL DUP2 MSTORE PUSH1 0x4 ADD PUSH1 0x40 MLOAD DUP1 SWAP2 SUB SWAP1 REVERT JUMPDEST PUSH2 0x1C4E PUSH1 0x40 DUP3 ADD DUP3 PUSH2 0x2A43 JUMP JUMPDEST SWAP1 POP PUSH0 SUB PUSH2 0x1C6F JUMPI PUSH1 0x40 MLOAD PUSH4 0xF8B9321 PUSH1 0xE1 SHL DUP2 MSTORE PUSH1 0x4 ADD PUSH1 0x40 MLOAD DUP1 SWAP2 SUB SWAP1 REVERT JUMPDEST PUSH1 0x4 DUP6 DUP2 DUP2 GT ISZERO PUSH2 0x1C82 JUMPI PUSH2 0x1C82 PUSH2 0x22B7 JUMP JUMPDEST PUSH1 0xFF AND GT DUP1 PUSH2 0x1CBF JUMPI POP PUSH0 DUP6 PUSH1 0x4 DUP2 GT ISZERO PUSH2 0x1C9F JUMPI PUSH2 0x1C9F PUSH2 0x22B7 JUMP JUMPDEST EQ ISZERO DUP1 ISZERO PUSH2 0x1CBF JUMPI POP PUSH1 0x3 DUP6 PUSH1 0x4 DUP2 GT ISZERO PUSH2 0x1CBC JUMPI PUSH2 0x1CBC PUSH2 0x22B7 JUMP JUMPDEST EQ ISZERO JUMPDEST ISZERO PUSH2 0x1CDD JUMPI PUSH1 0x40 MLOAD PUSH4 0x7A92F19 PUSH1 0xE5 SHL DUP2 MSTORE PUSH1 0x4 ADD PUSH1 0x40 MLOAD DUP1 SWAP2 SUB SWAP1 REVERT JUMPDEST TIMESTAMP PUSH0 DUP6 SWAP1 SUB PUSH2 0x1CEA JUMPI DUP1 SWAP5 POP JUMPDEST DUP1 DUP6 LT ISZERO PUSH2 0x1D0B JUMPI PUSH1 0x40 MLOAD PUSH4 0x2CA4094F PUSH1 0xE2 SHL DUP2 MSTORE PUSH1 0x4 ADD PUSH1 0x40 MLOAD DUP1 SWAP2 SUB SWAP1 REVERT JUMPDEST DUP1 PUSH2 0x1D16 DUP6 DUP8 PUSH2 0x2BAD JUMP JUMPDEST GT PUSH2 0x1D34 JUMPI PUSH1 0x40 MLOAD PUSH4 0x76166401 PUSH1 0xE0 SHL DUP2 MSTORE PUSH1 0x4 ADD PUSH1 0x40 MLOAD DUP1 SWAP2 SUB SWAP1 REVERT JUMPDEST POP POP POP POP POP POP POP POP JUMP JUMPDEST PUSH0 DUP3 PUSH1 0x4 DUP2 GT ISZERO PUSH2 0x1D51 JUMPI PUSH2 0x1D51 PUSH2 0x22B7 JUMP JUMPDEST DUP3 PUSH1 0x4 DUP2 GT ISZERO PUSH2 0x1D63 JUMPI PUSH2 0x1D63 PUSH2 0x22B7 JUMP JUMPDEST SUB PUSH2 0x1D6F JUMPI POP PUSH0 PUSH2 0xA3B JUMP JUMPDEST PUSH1 0x2 DUP4 PUSH1 0x4 DUP2 GT ISZERO PUSH2 0x1D83 JUMPI PUSH2 0x1D83 PUSH2 0x22B7 JUMP JUMPDEST EQ DUP1 PUSH2 0x1DA0 JUMPI POP PUSH1 0x4 DUP4 PUSH1 0x4 DUP2 GT ISZERO PUSH2 0x1D9E JUMPI PUSH2 0x1D9E PUSH2 0x22B7 JUMP JUMPDEST EQ JUMPDEST DUP1 PUSH2 0x1DBC JUMPI POP PUSH1 0x1 DUP4 PUSH1 0x4 DUP2 GT ISZERO PUSH2 0x1DBA JUMPI PUSH2 0x1DBA PUSH2 0x22B7 JUMP JUMPDEST EQ JUMPDEST ISZERO PUSH2 0x1DC8 JUMPI POP PUSH0 PUSH2 0xA3B JUMP JUMPDEST PUSH0 DUP4 PUSH1 0x4 DUP2 GT ISZERO PUSH2 0x1DDB JUMPI PUSH2 0x1DDB PUSH2 0x22B7 JUMP JUMPDEST SUB PUSH2 0x1E35 JUMPI PUSH1 0x3 JUMPDEST DUP3 PUSH1 0x4 DUP2 GT ISZERO PUSH2 0x1DF5 JUMPI PUSH2 0x1DF5 PUSH2 0x22B7 JUMP JUMPDEST EQ DUP1 PUSH2 0x1E12 JUMPI POP PUSH1 0x2 DUP3 PUSH1 0x4 DUP2 GT ISZERO PUSH2 0x1E10 JUMPI PUSH2 0x1E10 PUSH2 0x22B7 JUMP JUMPDEST EQ JUMPDEST DUP1 PUSH2 0x1E2E JUMPI POP PUSH1 0x1 DUP3 PUSH1 0x4 DUP2 GT ISZERO PUSH2 0x1E2C JUMPI PUSH2 0x1E2C PUSH2 0x22B7 JUMP JUMPDEST EQ JUMPDEST SWAP1 POP PUSH2 0xA3B JUMP JUMPDEST PUSH1 0x3 DUP4 PUSH1 0x4 DUP2 GT ISZERO PUSH2 0x1E49 JUMPI PUSH2 0x1E49 PUSH2 0x22B7 JUMP JUMPDEST SUB PUSH2 0x1E54 JUMPI PUSH0 PUSH2 0x1DE3 JUMP JUMPDEST POP PUSH0 SWAP3 SWAP2 POP POP JUMP JUMPDEST PUSH0 DUP2 MLOAD PUSH0 SUB PUSH2 0x1E6C JUMPI POP PUSH0 SWAP2 SWAP1 POP JUMP JUMPDEST PUSH1 0x2 DUP3 PUSH1 0x40 MLOAD PUSH2 0x1E7C SWAP2 SWAP1 PUSH2 0x2E9A JUMP JUMPDEST PUSH1 0x20 PUSH1 0x40 MLOAD DUP1 DUP4 SUB DUP2 DUP6 GAS STATICCALL ISZERO DUP1 ISZERO PUSH2 0x1E97 JUMPI RETURNDATASIZE PUSH0 PUSH0 RETURNDATACOPY RETURNDATASIZE PUSH0 REVERT JUMPDEST POP POP POP PUSH1 0x40 MLOAD RETURNDATASIZE PUSH1 0x1F NOT PUSH1 0x1F DUP3 ADD AND DUP3 ADD DUP1 PUSH1 0x40 MSTORE POP DUP2 ADD SWAP1 PUSH2 0x1EBA SWAP2 SWAP1 PUSH2 0x2B68 JUMP JUMPDEST PUSH1 0x1 PUSH1 0x1 PUSH1 0xF8 SHL SUB AND PUSH1 0x1 PUSH1 0xF8 SHL OR SWAP3 SWAP2 POP POP JUMP JUMPDEST PUSH2 0x1ED8 DUP2 PUSH2 0x2113 JUMP JUMPDEST POP JUMP JUMPDEST PUSH1 0x60 PUSH1 0x30 DUP4 MLOAD EQ PUSH2 0x1F11 JUMPI DUP3 MLOAD PUSH1 0x40 MLOAD PUSH4 0x56B5C1B7 PUSH1 0xE0 SHL DUP2 MSTORE PUSH1 0x4 DUP2 ADD SWAP2 SWAP1 SWAP2 MSTORE PUSH1 0x30 PUSH1 0x24 DUP3 ADD MSTORE PUSH1 0x44 ADD JUMPDEST PUSH1 0x40 MLOAD DUP1 SWAP2 SUB SWAP1 REVERT JUMPDEST PUSH1 0x30 DUP3 MLOAD EQ PUSH2 0x1F40 JUMPI DUP2 MLOAD PUSH1 0x40 MLOAD PUSH4 0x6F3AC93F PUSH1 0xE0 SHL DUP2 MSTORE PUSH1 0x4 DUP2 ADD SWAP2 SWAP1 SWAP2 MSTORE PUSH1 0x30 PUSH1 0x24 DUP3 ADD MSTORE PUSH1 0x44 ADD PUSH2 0x1F08 JUMP JUMPDEST DUP6 DUP6 DUP6 DUP6 DUP6 PUSH1 0x40 MLOAD PUSH1 0x20 ADD PUSH2 0x1F59 SWAP6 SWAP5 SWAP4 SWAP3 SWAP2 SWAP1 PUSH2 0x2EA5 JUMP JUMPDEST PUSH1 0x40 MLOAD PUSH1 0x20 DUP2 DUP4 SUB SUB DUP2 MSTORE SWAP1 PUSH1 0x40 MSTORE SWAP1 POP PUSH1 0xC0 DUP2 MLOAD EQ PUSH2 0x1F7B JUMPI PUSH2 0x1F7B PUSH2 0x2ECB JUMP JUMPDEST SWAP6 SWAP5 POP POP POP POP POP JUMP JUMPDEST PUSH1 0xC0 DUP2 MLOAD EQ PUSH2 0x1FB3 JUMPI DUP1 MLOAD PUSH1 0x40 MLOAD PUSH4 0x295EBBBF PUSH1 0xE2 SHL DUP2 MSTORE PUSH1 0x4 DUP2 ADD SWAP2 SWAP1 SWAP2 MSTORE PUSH1 0xC0 PUSH1 0x24 DUP3 ADD MSTORE PUSH1 0x44 ADD PUSH2 0x1F08 JUMP JUMPDEST PUSH0 PUSH0 PUSH1 0xA PUSH1 0x1 PUSH1 0x1 PUSH1 0xA0 SHL SUB AND DUP4 PUSH1 0x40 MLOAD PUSH2 0x1FCE SWAP2 SWAP1 PUSH2 0x2E9A JUMP JUMPDEST PUSH0 PUSH1 0x40 MLOAD DUP1 DUP4 SUB DUP2 DUP6 GAS STATICCALL SWAP2 POP POP RETURNDATASIZE DUP1 PUSH0 DUP2 EQ PUSH2 0x2006 JUMPI PUSH1 0x40 MLOAD SWAP2 POP PUSH1 0x1F NOT PUSH1 0x3F RETURNDATASIZE ADD AND DUP3 ADD PUSH1 0x40 MSTORE RETURNDATASIZE DUP3 MSTORE RETURNDATASIZE PUSH0 PUSH1 0x20 DUP5 ADD RETURNDATACOPY PUSH2 0x200B JUMP JUMPDEST PUSH1 0x60 SWAP2 POP JUMPDEST POP SWAP2 POP SWAP2 POP DUP2 PUSH2 0x202E JUMPI PUSH1 0x40 MLOAD PUSH4 0x41876835 PUSH1 0xE0 SHL DUP2 MSTORE PUSH1 0x4 ADD PUSH1 0x40 MLOAD DUP1 SWAP2 SUB SWAP1 REVERT JUMPDEST PUSH1 0x40 DUP2 MLOAD EQ PUSH2 0x205C JUMPI DUP1 MLOAD PUSH1 0x40 DUP1 MLOAD PUSH4 0xAEF3A5A9 PUSH1 0xE0 SHL DUP2 MSTORE PUSH1 0x4 DUP2 ADD SWAP3 SWAP1 SWAP3 MSTORE PUSH1 0x24 DUP3 ADD MSTORE PUSH1 0x44 ADD PUSH2 0x1F08 JUMP JUMPDEST PUSH0 PUSH0 DUP3 DUP1 PUSH1 0x20 ADD SWAP1 MLOAD DUP2 ADD SWAP1 PUSH2 0x2072 SWAP2 SWAP1 PUSH2 0x2EDF JUMP JUMPDEST SWAP2 POP SWAP2 POP PUSH2 0x1000 DUP3 EQ PUSH2 0x20A3 JUMPI PUSH1 0x40 MLOAD PUSH4 0xF4F0D4BF PUSH1 0xE0 SHL DUP2 MSTORE PUSH1 0x4 DUP2 ADD DUP4 SWAP1 MSTORE PUSH2 0x1000 PUSH1 0x24 DUP3 ADD MSTORE PUSH1 0x44 ADD PUSH2 0x1F08 JUMP JUMPDEST PUSH32 0x73EDA753299D7D483339D80809A1D80553BDA402FFFE5BFEFFFFFFFF00000001 DUP2 EQ PUSH2 0x210C JUMPI PUSH1 0x40 MLOAD PUSH4 0x2855E60D PUSH1 0xE1 SHL DUP2 MSTORE PUSH1 0x4 DUP2 ADD DUP3 SWAP1 MSTORE PUSH32 0x73EDA753299D7D483339D80809A1D80553BDA402FFFE5BFEFFFFFFFF00000001 PUSH1 0x24 DUP3 ADD MSTORE PUSH1 0x44 ADD PUSH2 0x1F08 JUMP JUMPDEST POP POP POP POP POP JUMP JUMPDEST PUSH0 JUMPDEST DUP1 BLOBHASH DUP1 PUSH2 0x2135 JUMPI PUSH1 0x40 MLOAD PUSH4 0x110B909 PUSH1 0xE6 SHL DUP2 MSTORE PUSH1 0x4 ADD PUSH1 0x40 MLOAD DUP1 SWAP2 SUB SWAP1 REVERT JUMPDEST DUP3 DUP2 SUB PUSH2 0x2141 JUMPI POP POP POP JUMP JUMPDEST POP PUSH2 0x214B DUP2 PUSH2 0x2E1C JUMP JUMPDEST SWAP1 POP PUSH2 0x2115 JUMP JUMPDEST PUSH1 0x40 DUP1 MLOAD PUSH2 0x1C0 DUP2 ADD SWAP1 SWAP2 MSTORE DUP1 PUSH0 DUP2 MSTORE PUSH1 0x20 ADD PUSH0 PUSH1 0x1 PUSH1 0x1 PUSH1 0xA0 SHL SUB AND DUP2 MSTORE PUSH1 0x20 ADD PUSH2 0x218F PUSH1 0x40 MLOAD DUP1 PUSH1 0x40 ADD PUSH1 0x40 MSTORE DUP1 PUSH0 DUP2 MSTORE PUSH1 0x20 ADD PUSH0 DUP2 MSTORE POP SWAP1 JUMP JUMPDEST DUP2 MSTORE PUSH1 0x20 ADD PUSH0 DUP2 MSTORE PUSH1 0x20 ADD PUSH1 0x60 DUP2 MSTORE PUSH1 0x20 ADD PUSH0 DUP2 MSTORE PUSH1 0x20 ADD PUSH0 DUP2 MSTORE PUSH1 0x20 ADD PUSH0 DUP2 MSTORE PUSH1 0x20 ADD PUSH0 DUP2 MSTORE PUSH1 0x20 ADD PUSH0 DUP2 MSTORE PUSH1 0x20 ADD PUSH0 DUP2 MSTORE PUSH1 0x20 ADD PUSH1 0x60 DUP2 MSTORE PUSH1 0x20 ADD PUSH2 0x2216 PUSH1 0x40 MLOAD DUP1 PUSH2 0x100 ADD PUSH1 0x40 MSTORE DUP1 PUSH0 ISZERO ISZERO DUP2 MSTORE PUSH1 0x20 ADD PUSH0 ISZERO ISZERO DUP2 MSTORE PUSH1 0x20 ADD PUSH0 PUSH1 0xFF AND DUP2 MSTORE PUSH1 0x20 ADD PUSH0 PUSH1 0xFF AND DUP2 MSTORE PUSH1 0x20 ADD PUSH0 DUP2 MSTORE PUSH1 0x20 ADD PUSH0 DUP2 MSTORE PUSH1 0x20 ADD PUSH0 DUP2 MSTORE PUSH1 0x20 ADD PUSH0 DUP2 MSTORE POP SWAP1 JUMP JUMPDEST DUP2 MSTORE PUSH1 0x20 ADD PUSH2 0x223E PUSH1 0x40 DUP1 MLOAD PUSH1 0x60 DUP2 ADD SWAP1 SWAP2 MSTORE DUP1 PUSH0 DUP2 MSTORE PUSH1 0x20 ADD PUSH0 DUP2 MSTORE PUSH1 0x20 ADD PUSH1 0x60 DUP2 MSTORE POP SWAP1 JUMP JUMPDEST SWAP1 MSTORE SWAP1 JUMP JUMPDEST DUP3 DUP1 SLOAD DUP3 DUP3 SSTORE SWAP1 PUSH0 MSTORE PUSH1 0x20 PUSH0 KECCAK256 SWAP1 DUP2 ADD SWAP3 DUP3 ISZERO PUSH2 0x227C JUMPI SWAP2 PUSH1 0x20 MUL DUP3 ADD JUMPDEST DUP3 DUP2 GT ISZERO PUSH2 0x227C JUMPI DUP3 MLOAD DUP3 SSTORE SWAP2 PUSH1 0x20 ADD SWAP2 SWAP1 PUSH1 0x1 ADD SWAP1 PUSH2 0x2261 JUMP JUMPDEST POP PUSH2 0x2288 SWAP3 SWAP2 POP PUSH2 0x228C JUMP JUMPDEST POP SWAP1 JUMP JUMPDEST JUMPDEST DUP1 DUP3 GT ISZERO PUSH2 0x2288 JUMPI PUSH0 DUP2 SSTORE PUSH1 0x1 ADD PUSH2 0x228D JUMP JUMPDEST PUSH0 PUSH1 0x20 DUP3 DUP5 SUB SLT ISZERO PUSH2 0x22B0 JUMPI PUSH0 PUSH0 REVERT JUMPDEST POP CALLDATALOAD SWAP2 SWAP1 POP JUMP JUMPDEST PUSH4 0x4E487B71 PUSH1 0xE0 SHL PUSH0 MSTORE PUSH1 0x21 PUSH1 0x4 MSTORE PUSH1 0x24 PUSH0 REVERT JUMPDEST PUSH1 0x5 DUP2 LT PUSH2 0x22DB JUMPI PUSH2 0x22DB PUSH2 0x22B7 JUMP JUMPDEST SWAP1 MSTORE JUMP JUMPDEST PUSH0 DUP2 MLOAD DUP1 DUP5 MSTORE DUP1 PUSH1 0x20 DUP5 ADD PUSH1 0x20 DUP7 ADD MCOPY PUSH0 PUSH1 0x20 DUP3 DUP7 ADD ADD MSTORE PUSH1 0x20 PUSH1 0x1F NOT PUSH1 0x1F DUP4 ADD AND DUP6 ADD ADD SWAP2 POP POP SWAP3 SWAP2 POP POP JUMP JUMPDEST DUP1 MLOAD ISZERO ISZERO DUP3 MSTORE PUSH1 0x20 DUP2 ADD MLOAD ISZERO ISZERO PUSH1 0x20 DUP4 ADD MSTORE PUSH1 0xFF PUSH1 0x40 DUP3 ADD MLOAD AND PUSH1 0x40 DUP4 ADD MSTORE PUSH1 0x60 DUP2 ADD MLOAD PUSH2 0x2340 PUSH1 0x60 DUP5 ADD DUP3 PUSH1 0xFF AND SWAP1 MSTORE JUMP JUMPDEST POP PUSH1 0x80 DUP2 ADD MLOAD PUSH1 0x80 DUP4 ADD MSTORE PUSH1 0xA0 DUP2 ADD MLOAD PUSH1 0xA0 DUP4 ADD MSTORE PUSH1 0xC0 DUP2 ADD MLOAD PUSH1 0xC0 DUP4 ADD MSTORE PUSH1 0xE0 DUP2 ADD MLOAD PUSH1 0xE0 DUP4 ADD MSTORE POP POP JUMP JUMPDEST PUSH0 DUP2 MLOAD PUSH1 0x3 DUP2 LT PUSH2 0x2380 JUMPI PUSH2 0x2380 PUSH2 0x22B7 JUMP JUMPDEST DUP1 DUP5 MSTORE POP PUSH1 0x20 DUP3 ADD MLOAD PUSH1 0x20 DUP5 ADD MSTORE PUSH1 0x40 DUP3 ADD MLOAD PUSH1 0x60 PUSH1 0x40 DUP6 ADD MSTORE PUSH2 0x23A7 PUSH1 0x60 DUP6 ADD DUP3 PUSH2 0x22DF JUMP JUMPDEST SWAP5 SWAP4 POP POP POP POP JUMP JUMPDEST PUSH2 0x23B9 DUP2 DUP16 PUSH2 0x22CB JUMP JUMPDEST PUSH1 0x1 PUSH1 0x1 PUSH1 0xA0 SHL SUB DUP14 AND PUSH1 0x20 DUP3 ADD MSTORE PUSH2 0x23DF PUSH1 0x40 DUP3 ADD DUP14 DUP1 MLOAD DUP3 MSTORE PUSH1 0x20 SWAP1 DUP2 ADD MLOAD SWAP2 ADD MSTORE JUMP JUMPDEST DUP11 PUSH1 0x80 DUP3 ADD MSTORE DUP10 PUSH1 0xA0 DUP3 ADD MSTORE DUP9 PUSH1 0xC0 DUP3 ADD MSTORE DUP8 PUSH1 0xE0 DUP3 ADD MSTORE DUP7 PUSH2 0x100 DUP3 ADD MSTORE DUP6 PUSH2 0x120 DUP3 ADD MSTORE DUP5 PUSH2 0x140 DUP3 ADD MSTORE PUSH2 0x2A0 PUSH2 0x160 DUP3 ADD MSTORE PUSH0 PUSH2 0x2424 PUSH2 0x2A0 DUP4 ADD DUP7 PUSH2 0x22DF JUMP JUMPDEST PUSH2 0x2432 PUSH2 0x180 DUP5 ADD DUP7 PUSH2 0x230D JUMP JUMPDEST DUP3 DUP2 SUB PUSH2 0x280 DUP5 ADD MSTORE PUSH2 0x2445 DUP2 DUP6 PUSH2 0x236D JUMP JUMPDEST SWAP2 POP POP SWAP15 SWAP14 POP POP POP POP POP POP POP POP POP POP POP POP POP POP JUMP JUMPDEST DUP1 CALLDATALOAD PUSH1 0x5 DUP2 LT PUSH2 0x2468 JUMPI PUSH0 PUSH0 REVERT JUMPDEST SWAP2 SWAP1 POP JUMP JUMPDEST PUSH0 PUSH1 0x60 DUP3 DUP5 SUB SLT ISZERO PUSH2 0x247D JUMPI PUSH0 PUSH0 REVERT JUMPDEST POP SWAP2 SWAP1 POP JUMP JUMPDEST PUSH0 PUSH0 DUP4 PUSH1 0x1F DUP5 ADD SLT PUSH2 0x2493 JUMPI PUSH0 PUSH0 REVERT JUMPDEST POP DUP2 CALLDATALOAD PUSH1 0x1 PUSH1 0x1 PUSH1 0x40 SHL SUB DUP2 GT ISZERO PUSH2 0x24A9 JUMPI PUSH0 PUSH0 REVERT JUMPDEST PUSH1 0x20 DUP4 ADD SWAP2 POP DUP4 PUSH1 0x20 DUP3 DUP6 ADD ADD GT ISZERO PUSH2 0x24C0 JUMPI PUSH0 PUSH0 REVERT JUMPDEST SWAP3 POP SWAP3 SWAP1 POP JUMP JUMPDEST PUSH0 PUSH1 0x40 DUP3 DUP5 SUB SLT ISZERO PUSH2 0x247D JUMPI PUSH0 PUSH0 REVERT JUMPDEST PUSH0 PUSH0 PUSH0 PUSH0 PUSH0 PUSH0 PUSH0 PUSH0 PUSH0 DUP10 DUP12 SUB PUSH2 0x200 DUP2 SLT ISZERO PUSH2 0x24F1 JUMPI PUSH0 PUSH0 REVERT JUMPDEST PUSH2 0x24FA DUP12 PUSH2 0x245A JUMP JUMPDEST SWAP10 POP PUSH1 0x20 DUP12 ADD CALLDATALOAD SWAP9 POP PUSH1 0x40 DUP12 ADD CALLDATALOAD SWAP8 POP PUSH2 0x100 PUSH1 0x5F NOT DUP3 ADD SLT ISZERO PUSH2 0x251C JUMPI PUSH0 PUSH0 REVERT JUMPDEST POP PUSH1 0x60 DUP11 ADD SWAP6 POP PUSH2 0x160 DUP11 ADD CALLDATALOAD PUSH1 0x1 PUSH1 0x1 PUSH1 0x40 SHL SUB DUP2 GT ISZERO PUSH2 0x253C JUMPI PUSH0 PUSH0 REVERT JUMPDEST PUSH2 0x2548 DUP13 DUP3 DUP14 ADD PUSH2 0x246D JUMP JUMPDEST SWAP6 POP POP PUSH2 0x180 DUP11 ADD CALLDATALOAD PUSH1 0x1 PUSH1 0x1 PUSH1 0x40 SHL SUB DUP2 GT ISZERO PUSH2 0x2564 JUMPI PUSH0 PUSH0 REVERT JUMPDEST PUSH2 0x2570 DUP13 DUP3 DUP14 ADD PUSH2 0x2483 JUMP JUMPDEST SWAP1 SWAP6 POP SWAP4 POP PUSH2 0x2585 SWAP1 POP DUP12 PUSH2 0x1A0 DUP13 ADD PUSH2 0x24C7 JUMP JUMPDEST SWAP9 SWAP12 SWAP8 SWAP11 POP SWAP6 SWAP9 SWAP5 SWAP8 SWAP4 SWAP7 SWAP3 SWAP6 POP SWAP1 SWAP4 PUSH2 0x1E0 ADD CALLDATALOAD SWAP2 SWAP1 POP JUMP JUMPDEST PUSH0 PUSH0 PUSH1 0x40 DUP4 DUP6 SUB SLT ISZERO PUSH2 0x25B0 JUMPI PUSH0 PUSH0 REVERT JUMPDEST DUP3 CALLDATALOAD SWAP2 POP PUSH2 0x25C0 PUSH1 0x20 DUP5 ADD PUSH2 0x245A JUMP JUMPDEST SWAP1 POP SWAP3 POP SWAP3 SWAP1 POP JUMP JUMPDEST PUSH0 PUSH1 0x20 DUP3 DUP5 SUB SLT ISZERO PUSH2 0x25D9 JUMPI PUSH0 PUSH0 REVERT JUMPDEST DUP2 CALLDATALOAD PUSH1 0x1 PUSH1 0x1 PUSH1 0xA0 SHL SUB DUP2 AND DUP2 EQ PUSH2 0x1381 JUMPI PUSH0 PUSH0 REVERT JUMPDEST PUSH0 DUP2 MLOAD DUP1 DUP5 MSTORE PUSH1 0x20 DUP5 ADD SWAP4 POP PUSH1 0x20 DUP4 ADD PUSH0 JUMPDEST DUP3 DUP2 LT ISZERO PUSH2 0x261F JUMPI DUP2 MLOAD DUP7 MSTORE PUSH1 0x20 SWAP6 DUP7 ADD SWAP6 SWAP1 SWAP2 ADD SWAP1 PUSH1 0x1 ADD PUSH2 0x2601 JUMP JUMPDEST POP SWAP4 SWAP5 SWAP4 POP POP POP POP JUMP JUMPDEST PUSH1 0x20 DUP2 MSTORE PUSH2 0x263B PUSH1 0x20 DUP3 ADD DUP4 MLOAD PUSH2 0x22CB JUMP JUMPDEST PUSH0 PUSH1 0x20 DUP4 ADD MLOAD PUSH2 0x2656 PUSH1 0x40 DUP5 ADD DUP3 PUSH1 0x1 PUSH1 0x1 PUSH1 0xA0 SHL SUB AND SWAP1 MSTORE JUMP JUMPDEST POP PUSH1 0x40 DUP4 ADD MLOAD DUP1 MLOAD PUSH1 0x60 DUP5 ADD MSTORE PUSH1 0x20 DUP2 ADD MLOAD PUSH1 0x80 DUP5 ADD MSTORE POP PUSH1 0x60 DUP4 ADD MLOAD PUSH1 0xA0 DUP4 ADD MSTORE PUSH1 0x80 DUP4 ADD MLOAD PUSH2 0x2C0 PUSH1 0xC0 DUP5 ADD MSTORE PUSH2 0x2693 PUSH2 0x2E0 DUP5 ADD DUP3 PUSH2 0x25EF JUMP JUMPDEST SWAP1 POP PUSH1 0xA0 DUP5 ADD MLOAD PUSH1 0xE0 DUP5 ADD MSTORE PUSH1 0xC0 DUP5 ADD MLOAD PUSH2 0x100 DUP5 ADD MSTORE PUSH1 0xE0 DUP5 ADD MLOAD PUSH2 0x120 DUP5 ADD MSTORE PUSH2 0x100 DUP5 ADD MLOAD PUSH2 0x140 DUP5 ADD MSTORE PUSH2 0x120 DUP5 ADD MLOAD PUSH2 0x160 DUP5 ADD MSTORE PUSH2 0x140 DUP5 ADD MLOAD PUSH2 0x180 DUP5 ADD MSTORE PUSH2 0x160 DUP5 ADD MLOAD PUSH1 0x1F NOT DUP5 DUP4 SUB ADD PUSH2 0x1A0 DUP6 ADD MSTORE PUSH2 0x26F6 DUP3 DUP3 PUSH2 0x22DF JUMP JUMPDEST SWAP2 POP POP PUSH2 0x180 DUP5 ADD MLOAD PUSH2 0x270D PUSH2 0x1C0 DUP6 ADD DUP3 PUSH2 0x230D JUMP JUMPDEST POP PUSH2 0x1A0 DUP5 ADD MLOAD DUP4 DUP3 SUB PUSH1 0x1F NOT ADD PUSH2 0x2C0 DUP6 ADD MSTORE PUSH2 0x1F7B DUP3 DUP3 PUSH2 0x236D JUMP JUMPDEST PUSH0 PUSH0 PUSH0 PUSH0 PUSH0 PUSH1 0x60 DUP7 DUP9 SUB SLT ISZERO PUSH2 0x273F JUMPI PUSH0 PUSH0 REVERT JUMPDEST DUP6 CALLDATALOAD SWAP5 POP PUSH1 0x20 DUP7 ADD CALLDATALOAD PUSH1 0x1 PUSH1 0x1 PUSH1 0x40 SHL SUB DUP2 GT ISZERO PUSH2 0x275B JUMPI PUSH0 PUSH0 REVERT JUMPDEST PUSH2 0x2767 DUP9 DUP3 DUP10 ADD PUSH2 0x2483 JUMP JUMPDEST SWAP1 SWAP6 POP SWAP4 POP POP PUSH1 0x40 DUP7 ADD CALLDATALOAD PUSH1 0x1 PUSH1 0x1 PUSH1 0x40 SHL SUB DUP2 GT ISZERO PUSH2 0x2785 JUMPI PUSH0 PUSH0 REVERT JUMPDEST PUSH2 0x2791 DUP9 DUP3 DUP10 ADD PUSH2 0x2483 JUMP JUMPDEST SWAP7 SWAP10 SWAP6 SWAP9 POP SWAP4 SWAP7 POP SWAP3 SWAP5 SWAP4 SWAP3 POP POP POP JUMP JUMPDEST PUSH0 PUSH0 PUSH1 0x40 DUP4 DUP6 SUB SLT ISZERO PUSH2 0x27B3 JUMPI PUSH0 PUSH0 REVERT JUMPDEST POP POP DUP1 CALLDATALOAD SWAP3 PUSH1 0x20 SWAP1 SWAP2 ADD CALLDATALOAD SWAP2 POP JUMP JUMPDEST PUSH0 PUSH0 PUSH1 0x40 DUP4 DUP6 SUB SLT ISZERO PUSH2 0x27D3 JUMPI PUSH0 PUSH0 REVERT JUMPDEST DUP3 CALLDATALOAD SWAP2 POP PUSH1 0x20 DUP4 ADD CALLDATALOAD PUSH1 0x1 PUSH1 0x1 PUSH1 0x40 SHL SUB DUP2 GT ISZERO PUSH2 0x27EF JUMPI PUSH0 PUSH0 REVERT JUMPDEST PUSH2 0x27FB DUP6 DUP3 DUP7 ADD PUSH2 0x246D JUMP JUMPDEST SWAP2 POP POP SWAP3 POP SWAP3 SWAP1 POP JUMP JUMPDEST PUSH1 0x1 DUP2 DUP2 SHR SWAP1 DUP3 AND DUP1 PUSH2 0x2819 JUMPI PUSH1 0x7F DUP3 AND SWAP2 POP JUMPDEST PUSH1 0x20 DUP3 LT DUP2 SUB PUSH2 0x247D JUMPI PUSH4 0x4E487B71 PUSH1 0xE0 SHL PUSH0 MSTORE PUSH1 0x22 PUSH1 0x4 MSTORE PUSH1 0x24 PUSH0 REVERT JUMPDEST PUSH4 0x4E487B71 PUSH1 0xE0 SHL PUSH0 MSTORE PUSH1 0x41 PUSH1 0x4 MSTORE PUSH1 0x24 PUSH0 REVERT JUMPDEST PUSH1 0x1F DUP3 GT ISZERO PUSH2 0x288F JUMPI DUP1 PUSH0 MSTORE PUSH1 0x20 PUSH0 KECCAK256 PUSH1 0x1F DUP5 ADD PUSH1 0x5 SHR DUP2 ADD PUSH1 0x20 DUP6 LT ISZERO PUSH2 0x2870 JUMPI POP DUP1 JUMPDEST PUSH1 0x1F DUP5 ADD PUSH1 0x5 SHR DUP3 ADD SWAP2 POP JUMPDEST DUP2 DUP2 LT ISZERO PUSH2 0x210C JUMPI PUSH0 DUP2 SSTORE PUSH1 0x1 ADD PUSH2 0x287C JUMP JUMPDEST POP POP POP JUMP JUMPDEST PUSH1 0x1 PUSH1 0x1 PUSH1 0x40 SHL SUB DUP4 GT ISZERO PUSH2 0x28AB JUMPI PUSH2 0x28AB PUSH2 0x2837 JUMP JUMPDEST PUSH2 0x28BF DUP4 PUSH2 0x28B9 DUP4 SLOAD PUSH2 0x2805 JUMP JUMPDEST DUP4 PUSH2 0x284B JUMP JUMPDEST PUSH0 PUSH1 0x1F DUP5 GT PUSH1 0x1 DUP2 EQ PUSH2 0x28F0 JUMPI PUSH0 DUP6 ISZERO PUSH2 0x28D9 JUMPI POP DUP4 DUP3 ADD CALLDATALOAD JUMPDEST PUSH0 NOT PUSH1 0x3 DUP8 SWAP1 SHL SHR NOT AND PUSH1 0x1 DUP7 SWAP1 SHL OR DUP4 SSTORE PUSH2 0x210C JUMP JUMPDEST PUSH0 DUP4 DUP2 MSTORE PUSH1 0x20 DUP2 KECCAK256 PUSH1 0x1F NOT DUP8 AND SWAP2 JUMPDEST DUP3 DUP2 LT ISZERO PUSH2 0x291F JUMPI DUP7 DUP6 ADD CALLDATALOAD DUP3 SSTORE PUSH1 0x20 SWAP5 DUP6 ADD SWAP5 PUSH1 0x1 SWAP1 SWAP3 ADD SWAP2 ADD PUSH2 0x28FF JUMP JUMPDEST POP DUP7 DUP3 LT ISZERO PUSH2 0x293B JUMPI PUSH0 NOT PUSH1 0xF8 DUP9 PUSH1 0x3 SHL AND SHR NOT DUP5 DUP8 ADD CALLDATALOAD AND DUP2 SSTORE JUMPDEST POP POP PUSH1 0x1 DUP6 PUSH1 0x1 SHL ADD DUP4 SSTORE POP POP POP POP POP JUMP JUMPDEST PUSH0 DUP2 CALLDATALOAD DUP1 ISZERO ISZERO DUP2 EQ PUSH2 0xA3B JUMPI PUSH0 PUSH0 REVERT JUMPDEST PUSH1 0xFF DUP2 AND DUP2 EQ PUSH2 0x1ED8 JUMPI PUSH0 PUSH0 REVERT JUMPDEST PUSH0 DUP2 CALLDATALOAD PUSH2 0xA3B DUP2 PUSH2 0x295D JUMP JUMPDEST PUSH2 0x2980 DUP3 PUSH2 0x294D JUMP JUMPDEST ISZERO ISZERO PUSH1 0xFF NOT DUP3 SLOAD AND PUSH1 0xFF DUP3 AND DUP2 OR DUP4 SSTORE POP POP PUSH2 0x29BB PUSH2 0x29A1 PUSH1 0x20 DUP5 ADD PUSH2 0x294D JUMP JUMPDEST DUP3 DUP1 SLOAD PUSH2 0xFF00 NOT AND SWAP2 ISZERO ISZERO PUSH1 0x8 SHL PUSH2 0xFF00 AND SWAP2 SWAP1 SWAP2 OR SWAP1 SSTORE JUMP JUMPDEST PUSH2 0x29E2 PUSH2 0x29CA PUSH1 0x40 DUP5 ADD PUSH2 0x296B JUMP JUMPDEST DUP3 SLOAD PUSH3 0xFF0000 NOT AND PUSH1 0x10 SWAP2 SWAP1 SWAP2 SHL PUSH3 0xFF0000 AND OR DUP3 SSTORE JUMP JUMPDEST PUSH2 0x2A0B PUSH2 0x29F1 PUSH1 0x60 DUP5 ADD PUSH2 0x296B JUMP JUMPDEST DUP3 SLOAD PUSH4 0xFF000000 NOT AND PUSH1 0x18 SWAP2 SWAP1 SWAP2 SHL PUSH4 0xFF000000 AND OR DUP3 SSTORE JUMP JUMPDEST PUSH1 0x80 DUP3 ADD CALLDATALOAD PUSH1 0x1 DUP3 ADD SSTORE PUSH1 0xA0 DUP3 ADD CALLDATALOAD PUSH1 0x2 DUP3 ADD SSTORE PUSH1 0xC0 DUP3 ADD CALLDATALOAD PUSH1 0x3 DUP3 ADD SSTORE PUSH1 0xE0 SWAP1 SWAP2 ADD CALLDATALOAD PUSH1 0x4 SWAP1 SWAP2 ADD SSTORE JUMP JUMPDEST PUSH1 0x3 DUP2 LT PUSH2 0x1ED8 JUMPI PUSH0 PUSH0 REVERT JUMPDEST PUSH0 PUSH0 DUP4 CALLDATALOAD PUSH1 0x1E NOT DUP5 CALLDATASIZE SUB ADD DUP2 SLT PUSH2 0x2A58 JUMPI PUSH0 PUSH0 REVERT JUMPDEST DUP4 ADD DUP1 CALLDATALOAD SWAP2 POP PUSH1 0x1 PUSH1 0x1 PUSH1 0x40 SHL SUB DUP3 GT ISZERO PUSH2 0x2A71 JUMPI PUSH0 PUSH0 REVERT JUMPDEST PUSH1 0x20 ADD SWAP2 POP CALLDATASIZE DUP2 SWAP1 SUB DUP3 SGT ISZERO PUSH2 0x24C0 JUMPI PUSH0 PUSH0 REVERT JUMPDEST DUP2 CALLDATALOAD PUSH2 0x2A90 DUP2 PUSH2 0x2A37 JUMP JUMPDEST PUSH1 0x3 DUP2 LT PUSH2 0x2AA0 JUMPI PUSH2 0x2AA0 PUSH2 0x22B7 JUMP JUMPDEST PUSH1 0xFF NOT DUP3 SLOAD AND PUSH1 0xFF DUP3 AND DUP2 OR DUP4 SSTORE POP POP PUSH1 0x20 DUP3 ADD CALLDATALOAD PUSH1 0x1 DUP3 ADD SSTORE PUSH1 0x40 DUP3 ADD CALLDATALOAD PUSH1 0x1E NOT DUP4 CALLDATASIZE SUB ADD DUP2 SLT PUSH2 0x2AD0 JUMPI PUSH0 PUSH0 REVERT JUMPDEST DUP3 ADD DUP1 CALLDATALOAD PUSH1 0x1 PUSH1 0x1 PUSH1 0x40 SHL SUB DUP2 GT ISZERO PUSH2 0x2AE7 JUMPI PUSH0 PUSH0 REVERT JUMPDEST PUSH1 0x20 DUP3 ADD SWAP2 POP DUP1 CALLDATASIZE SUB DUP3 SGT ISZERO PUSH2 0x2AFB JUMPI PUSH0 PUSH0 REVERT JUMPDEST PUSH2 0x2B09 DUP2 DUP4 PUSH1 0x2 DUP7 ADD PUSH2 0x2894 JUMP JUMPDEST POP POP POP POP JUMP JUMPDEST PUSH4 0x4E487B71 PUSH1 0xE0 SHL PUSH0 MSTORE PUSH1 0x11 PUSH1 0x4 MSTORE PUSH1 0x24 PUSH0 REVERT JUMPDEST PUSH0 PUSH4 0xFFFFFFFF DUP3 AND PUSH4 0xFFFFFFFF DUP2 SUB PUSH2 0x2B3E JUMPI PUSH2 0x2B3E PUSH2 0x2B0F JUMP JUMPDEST PUSH1 0x1 ADD SWAP3 SWAP2 POP POP JUMP JUMPDEST PUSH0 PUSH1 0x1 PUSH1 0x1 PUSH1 0x40 SHL SUB DUP3 AND PUSH1 0x1 PUSH1 0x1 PUSH1 0x40 SHL SUB DUP2 SUB PUSH2 0x2B3E JUMPI PUSH2 0x2B3E PUSH2 0x2B0F JUMP JUMPDEST PUSH0 PUSH1 0x20 DUP3 DUP5 SUB SLT ISZERO PUSH2 0x2B78 JUMPI PUSH0 PUSH0 REVERT JUMPDEST POP MLOAD SWAP2 SWAP1 POP JUMP JUMPDEST DUP2 DUP2 SUB DUP2 DUP2 GT ISZERO PUSH2 0xA3B JUMPI PUSH2 0xA3B PUSH2 0x2B0F JUMP JUMPDEST PUSH1 0x40 DUP2 ADD PUSH2 0x2BA0 DUP3 DUP6 PUSH2 0x22CB JUMP JUMPDEST PUSH2 0x1381 PUSH1 0x20 DUP4 ADD DUP5 PUSH2 0x22CB JUMP JUMPDEST DUP1 DUP3 ADD DUP1 DUP3 GT ISZERO PUSH2 0xA3B JUMPI PUSH2 0xA3B PUSH2 0x2B0F JUMP JUMPDEST DUP2 DUP4 MSTORE DUP2 DUP2 PUSH1 0x20 DUP6 ADD CALLDATACOPY POP PUSH0 DUP3 DUP3 ADD PUSH1 0x20 SWAP1 DUP2 ADD SWAP2 SWAP1 SWAP2 MSTORE PUSH1 0x1F SWAP1 SWAP2 ADD PUSH1 0x1F NOT AND SWAP1 SWAP2 ADD ADD SWAP1 JUMP JUMPDEST PUSH1 0x40 DUP2 MSTORE PUSH0 PUSH2 0x2BFB PUSH1 0x40 DUP4 ADD DUP7 DUP9 PUSH2 0x2BC0 JUMP JUMPDEST DUP3 DUP2 SUB PUSH1 0x20 DUP5 ADD MSTORE PUSH2 0x2C0E DUP2 DUP6 DUP8 PUSH2 0x2BC0 JUMP JUMPDEST SWAP8 SWAP7 POP POP POP POP POP POP POP JUMP JUMPDEST PUSH1 0x40 MLOAD PUSH1 0x1F DUP3 ADD PUSH1 0x1F NOT AND DUP2 ADD PUSH1 0x1 PUSH1 0x1 PUSH1 0x40 SHL SUB DUP2 GT DUP3 DUP3 LT OR ISZERO PUSH2 0x2C41 JUMPI PUSH2 0x2C41 PUSH2 0x2837 JUMP JUMPDEST PUSH1 0x40 MSTORE SWAP2 SWAP1 POP JUMP JUMPDEST PUSH0 PUSH2 0x120 DUP3 DUP5 SUB SLT ISZERO PUSH2 0x2C5A JUMPI PUSH0 PUSH0 REVERT JUMPDEST PUSH0 DUP4 PUSH1 0x1F DUP5 ADD SLT PUSH2 0x2C69 JUMPI PUSH0 PUSH0 REVERT JUMPDEST POP PUSH0 DUP1 PUSH2 0x120 PUSH2 0x2C78 DUP2 PUSH2 0x2C19 JUMP JUMPDEST SWAP3 POP DUP3 SWAP2 POP DUP5 ADD DUP6 DUP2 GT ISZERO PUSH2 0x2C8B JUMPI PUSH0 PUSH0 REVERT JUMPDEST DUP5 JUMPDEST DUP2 DUP2 LT ISZERO PUSH2 0x2CA5 JUMPI DUP1 CALLDATALOAD DUP5 MSTORE PUSH1 0x20 SWAP4 DUP5 ADD SWAP4 ADD PUSH2 0x2C8D JUMP JUMPDEST POP SWAP1 SWAP6 SWAP5 POP POP POP POP POP JUMP JUMPDEST PUSH4 0x4E487B71 PUSH1 0xE0 SHL PUSH0 MSTORE PUSH1 0x32 PUSH1 0x4 MSTORE PUSH1 0x24 PUSH0 REVERT JUMPDEST PUSH1 0x20 DUP1 DUP3 MSTORE DUP3 MLOAD DUP3 DUP3 ADD DUP2 SWAP1 MSTORE PUSH0 SWAP2 DUP5 ADD SWAP1 PUSH1 0x40 DUP5 ADD SWAP1 DUP4 JUMPDEST DUP2 DUP2 LT ISZERO PUSH2 0x2CA5 JUMPI DUP4 MLOAD DUP4 MSTORE PUSH1 0x20 SWAP4 DUP5 ADD SWAP4 SWAP1 SWAP3 ADD SWAP2 PUSH1 0x1 ADD PUSH2 0x2CDD JUMP JUMPDEST PUSH0 DUP3 PUSH1 0x1F DUP4 ADD SLT PUSH2 0x2D0A JUMPI PUSH0 PUSH0 REVERT JUMPDEST DUP2 CALLDATALOAD PUSH1 0x1 PUSH1 0x1 PUSH1 0x40 SHL SUB DUP2 GT ISZERO PUSH2 0x2D23 JUMPI PUSH2 0x2D23 PUSH2 0x2837 JUMP JUMPDEST PUSH2 0x2D36 PUSH1 0x1F DUP3 ADD PUSH1 0x1F NOT AND PUSH1 0x20 ADD PUSH2 0x2C19 JUMP JUMPDEST DUP2 DUP2 MSTORE DUP5 PUSH1 0x20 DUP4 DUP7 ADD ADD GT ISZERO PUSH2 0x2D4A JUMPI PUSH0 PUSH0 REVERT JUMPDEST DUP2 PUSH1 0x20 DUP6 ADD PUSH1 0x20 DUP4 ADD CALLDATACOPY PUSH0 SWAP2 DUP2 ADD PUSH1 0x20 ADD SWAP2 SWAP1 SWAP2 MSTORE SWAP4 SWAP3 POP POP POP JUMP JUMPDEST PUSH0 PUSH0 PUSH0 PUSH2 0x180 DUP5 DUP7 SUB SLT ISZERO PUSH2 0x2D79 JUMPI PUSH0 PUSH0 REVERT JUMPDEST PUSH0 DUP6 PUSH1 0x1F DUP7 ADD SLT PUSH2 0x2D88 JUMPI PUSH0 PUSH0 REVERT JUMPDEST POP PUSH0 DUP1 PUSH2 0x140 PUSH2 0x2D97 DUP2 PUSH2 0x2C19 JUMP JUMPDEST SWAP3 POP DUP3 SWAP2 POP DUP7 ADD DUP8 DUP2 GT ISZERO PUSH2 0x2DAA JUMPI PUSH0 PUSH0 REVERT JUMPDEST DUP7 JUMPDEST DUP2 DUP2 LT ISZERO PUSH2 0x2DC4 JUMPI DUP1 CALLDATALOAD DUP5 MSTORE PUSH1 0x20 SWAP4 DUP5 ADD SWAP4 ADD PUSH2 0x2DAC JUMP JUMPDEST POP SWAP1 SWAP5 POP CALLDATALOAD SWAP1 POP PUSH1 0x1 PUSH1 0x1 PUSH1 0x40 SHL SUB DUP2 GT ISZERO PUSH2 0x2DDE JUMPI PUSH0 PUSH0 REVERT JUMPDEST PUSH2 0x2DEA DUP7 DUP3 DUP8 ADD PUSH2 0x2CFB JUMP JUMPDEST SWAP3 POP POP PUSH2 0x160 DUP5 ADD CALLDATALOAD PUSH1 0x1 PUSH1 0x1 PUSH1 0x40 SHL SUB DUP2 GT ISZERO PUSH2 0x2E06 JUMPI PUSH0 PUSH0 REVERT JUMPDEST PUSH2 0x2E12 DUP7 DUP3 DUP8 ADD PUSH2 0x2CFB JUMP JUMPDEST SWAP2 POP POP SWAP3 POP SWAP3 POP SWAP3 JUMP JUMPDEST PUSH0 PUSH1 0x1 DUP3 ADD PUSH2 0x2E2D JUMPI PUSH2 0x2E2D PUSH2 0x2B0F JUMP JUMPDEST POP PUSH1 0x1 ADD SWAP1 JUMP JUMPDEST PUSH0 PUSH1 0x20 DUP3 DUP5 SUB SLT ISZERO PUSH2 0x2E44 JUMPI PUSH0 PUSH0 REVERT JUMPDEST DUP2 CALLDATALOAD PUSH2 0x1381 DUP2 PUSH2 0x2A37 JUMP JUMPDEST DUP4 DUP2 MSTORE PUSH1 0x40 PUSH1 0x20 DUP3 ADD MSTORE PUSH0 PUSH2 0x1F7B PUSH1 0x40 DUP4 ADD DUP5 DUP7 PUSH2 0x2BC0 JUMP JUMPDEST PUSH0 PUSH1 0x20 DUP3 DUP5 SUB SLT ISZERO PUSH2 0x2E78 JUMPI PUSH0 PUSH0 REVERT JUMPDEST DUP2 CALLDATALOAD PUSH2 0x1381 DUP2 PUSH2 0x295D JUMP JUMPDEST PUSH0 DUP2 MLOAD DUP1 PUSH1 0x20 DUP5 ADD DUP6 MCOPY PUSH0 SWAP4 ADD SWAP3 DUP4 MSTORE POP SWAP1 SWAP2 SWAP1 POP JUMP JUMPDEST PUSH0 PUSH2 0x1381 DUP3 DUP5 PUSH2 0x2E83 JUMP JUMPDEST DUP6 DUP2 MSTORE DUP5 PUSH1 0x20 DUP3 ADD MSTORE DUP4 PUSH1 0x40 DUP3 ADD MSTORE PUSH0 PUSH2 0x2C0E PUSH2 0x2EC5 PUSH1 0x60 DUP5 ADD DUP7 PUSH2 0x2E83 JUMP JUMPDEST DUP5 PUSH2 0x2E83 JUMP JUMPDEST PUSH4 0x4E487B71 PUSH1 0xE0 SHL PUSH0 MSTORE PUSH1 0x1 PUSH1 0x4 MSTORE PUSH1 0x24 PUSH0 REVERT JUMPDEST PUSH0 PUSH0 PUSH1 0x40 DUP4 DUP6 SUB SLT ISZERO PUSH2 0x2EF0 JUMPI PUSH0 PUSH0 REVERT JUMPDEST POP POP DUP1 MLOAD PUSH1 0x20 SWAP1 SWAP2 ADD MLOAD SWAP1 SWAP3 SWAP1 SWAP2 POP JUMP INVALID LOG2 PUSH5 0x6970667358 0x22 SLT KECCAK256 GAS 0x2D RETURNDATASIZE ISZERO SWAP12 0xCD BYTE CALLDATALOAD 0xD1 0xD6 0x2C STATICCALL SWAP8 ADDMOD 0xAB STATICCALL 0xC6 0xD9 0x2A 0xE1 PUSH25 0x785E22C92F55C5C1F27B1364736F6C634300081C0033000000 "},"methodIdentifiers":{"BLOB_INDEX()":"26795bc3","MAX_CENSUS_ORIGIN()":"02cc919a","MAX_STATUS()":"72c628ef","blobsDA()":"cdf497c8","chainID()":"adc879e9","getNextProcessId(address)":"68141f2c","getProcess(bytes32)":"992bc45b","getProcessEndTime(bytes32)":"a5f01e19","getRVerifierVKeyHash()":"f9aa4499","getSTVerifierVKeyHash()":"4c0acc56","newProcess(uint8,uint256,uint256,(bool,bool,uint8,uint8,uint256,uint256,uint256,uint256),(uint8,bytes32,string),string,(uint256,uint256),uint256)":"2df8e91e","pidPrefix()":"cddf08bc","processCount()":"848df540","processNonce(address)":"62fa11fc","processes(bytes32)":"0535fece","rVerifier()":"9c18deaf","setProcessCensus(bytes32,(uint8,bytes32,string))":"f4c2a3bb","setProcessDuration(bytes32,uint256)":"c718c01f","setProcessResults(bytes32,bytes,bytes)":"a5b110de","setProcessStatus(bytes32,uint8)":"56a6f1e2","stVerifier()":"09706392","submitStateTransition(bytes32,bytes,bytes)":"d71d072e"}}}}}