{"src/verifiers/StateTransitionVerifierBaseGroth16.sol":{"StateTransitionVerifierBaseGroth16":{"abi":[{"inputs":[],"name":"CommitmentInvalid","type":"error"},{"inputs":[],"name":"ProofInvalid","type":"error"},{"inputs":[],"name":"PublicInputNotInField","type":"error"},{"inputs":[{"internalType":"uint256[8]","name":"proof","type":"uint256[8]"},{"internalType":"uint256[2]","name":"commitments","type":"uint256[2]"},{"internalType":"uint256[2]","name":"commitmentPok","type":"uint256[2]"}],"name":"compressProof","outputs":[{"internalType":"uint256[4]","name":"compressed","type":"uint256[4]"},{"internalType":"uint256[1]","name":"compressedCommitments","type":"uint256[1]"},{"internalType":"uint256","name":"compressedCommitmentPok","type":"uint256"}],"stateMutability":"view","type":"function"},{"inputs":[{"internalType":"uint256[4]","name":"compressedProof","type":"uint256[4]"},{"internalType":"uint256[1]","name":"compressedCommitments","type":"uint256[1]"},{"internalType":"uint256","name":"compressedCommitmentPok","type":"uint256"},{"internalType":"uint256[10]","name":"input","type":"uint256[10]"}],"name":"verifyCompressedProof","outputs":[],"stateMutability":"view","type":"function"},{"inputs":[{"internalType":"uint256[8]","name":"proof","type":"uint256[8]"},{"internalType":"uint256[2]","name":"commitments","type":"uint256[2]"},{"internalType":"uint256[2]","name":"commitmentPok","type":"uint256[2]"},{"internalType":"uint256[10]","name":"input","type":"uint256[10]"}],"name":"verifyProof","outputs":[],"stateMutability":"view","type":"function"}],"evm":{"bytecode":{"linkReferences":{},"object":"6080604052348015600e575f5ffd5b50611d9b8061001c5f395ff3fe608060405234801561000f575f5ffd5b506004361061003f575f3560e01c8063b1c3a00e14610043578063dc37819a1461006e578063df078bef14610083575b5f5ffd5b610056610051366004611b23565b610096565b60405161006593929190611b69565b60405180910390f35b61008161007c366004611bdb565b61011e565b005b610081610091366004611c30565b61068a565b61009e611a89565b6100a6611aa7565b5f6100ba86358760015b6020020135610b36565b83526100d86060870135604088013560a089013560808a0135610c23565b602085015260408401526100f260c08701358760076100b0565b606084015261010485358660016100b0565b825261011384358560016100b0565b905093509350939050565b610126611aa7565b61012e611ac5565b610136611ae3565b610146865f5b6020020135610efc565b602084015282525f8061015887610efc565b60408051600580825260c08201909252929450909250606091906020820160a080368337019050509050602080820190604089018237608060c0890160208301375084516020808701516040515f516020611d465f395f51905f52936101c393909291869101611c92565b604051602081830303815290604052805190602001205f1c6101e59190611ce7565b865284518452602085810151858201527f08480e99474689ed895e0f83b2c28bc234b7c86bb7c5cf322c2cc29362fb48ad6040808701919091527f06170922dfcf55190a392089203c49b03a237f16c28b822a27acba4f2af24eb460608701527f0d5c11ef1d50d15154301c075f3b7893e2fb98d3ed90b15ac96f51552e5c36ac60808701527f071e1f97309edb22456d11f96e2c6718c7d525bfd35fb13125d854bf927a4a4e60a087015260c0860185905260e086018490527f131443a740e68b693e0b637c8cf26808f65425688ffc3ff9a10abdd47a3bfd906101008701527f1a78fae6054a26f8a53f21ec8c056d4d7eef33931f728103e40a766e81256c526101208701527f0eccc78a9e3b7fcc9d605d6e8df148ee93f85550c25dded759a6d35503cae1eb6101408701527f1f29f1a675c809bc3c705bedff15fbb9bddc5aad42d64ae858ab8c300dc96ff0610160870152515f91816101808860085afa90511690508061036a576040516351d49ff760e11b815260040160405180910390fd5b505050505f5f610385895f6004811061013c5761013c611c7e565b90925090505f8080806103a060408e013560208f0135610f9b565b929650909450925090505f806103b78f600361013c565b915091505f5f6103c88e8e8e61116f565b8b8d5260208d018b905260408d0189905260608d018a905260808d0187905260a08d0188905260c08d0186905260e08d018590527f1ad227eb2f384e9075cc8ed2018117556ca911e50fb867ba5958f1838833d4fd6101008e01527f25a7fed94b8b55821dcec4da0f0f38217b4307eb275f054de637d8736b96beb46101208e01527f100cfe015e2bff9e7592d4e475dbdc4b72b49bfb4c7cd48bf5abb2d15a371fdd6101408e01527f23043b3c22a4f942c457bc902c3c84f429346d9aeda87031948091a363d38db76101608e01527f264858f744d06905279fd6899b94ffb20bc3650dbf31b28f5e9b3d07c1f591a16101808e01527f2d3f129bf66575378f39effb18d0353a3582ccb27679f27dcbe6ce31fb56bf366101a08e01527f225f334f71fda2c050fabf3fe222568f134e00efdb6fec322f799cdc646266c66101c08e01527f05b90cfdc2e85b5777b23d7e37cac69ef33e85055021e423fd838574a87485646101e08e01527f07cac0db8e4604ec86e5b568f91dcf4e6ae645f437c548e07af2ab319aa375de6102008e01527f139553512b424d5db0fb8a6a81c48da0175433b34dbfb7909d20c89f1761d02a6102208e01526102408d018290526102608d018190527f08e3127cddee1e6633c965f4a96a2bf9604fcc0c6e394940688c66baad53e7b96102808e01527e796bf3d2b960e7699e4d44a325ce5405527b23ded7926746817113f9b6b3846102a08e01527f23a3f24661e90135bfda3b65a2e8a1b7bc4b3be9229dd3db008215c6a2ff3e376102c08e01527f02ce17e16de452fdf75d8a97c065075bb5a269cc1addaf930311c0665610ec1c6102e08e015290925090505f61063b611aa7565b6020816103008f60085afa915081158061065757508051600114155b1561067557604051631ff3747d60e21b815260040160405180910390fd5b50505050505050505050505050505050505050565b610692611aa7565b60408051600580825260c082019092526060916020820160a080368337019050509050602080820190604085018237608060c085016020830137506040515f516020611d465f395f51905f52906106f5908735906020808a013591869101611c92565b604051602081830303815290604052805190602001205f1c6107179190611ce7565b8252604080515f918782377f08480e99474689ed895e0f83b2c28bc234b7c86bb7c5cf322c2cc29362fb48ad60408201527f06170922dfcf55190a392089203c49b03a237f16c28b822a27acba4f2af24eb460608201527f0d5c11ef1d50d15154301c075f3b7893e2fb98d3ed90b15ac96f51552e5c36ac60808201527f071e1f97309edb22456d11f96e2c6718c7d525bfd35fb13125d854bf927a4a4e60a082015260408660c08301377f131443a740e68b693e0b637c8cf26808f65425688ffc3ff9a10abdd47a3bfd906101008201527f1a78fae6054a26f8a53f21ec8c056d4d7eef33931f728103e40a766e81256c526101208201527f0eccc78a9e3b7fcc9d605d6e8df148ee93f85550c25dded759a6d35503cae1eb6101408201527f1f29f1a675c809bc3c705bedff15fbb9bddc5aad42d64ae858ab8c300dc96ff06101608201526020816101808360085afa90511690508061088c576040516351d49ff760e11b815260040160405180910390fd5b5f5f6108c186868a60028060200260405190810160405280929190826002602002808284375f9201919091525061116f915050565b915091506040516101008a82377f1ad227eb2f384e9075cc8ed2018117556ca911e50fb867ba5958f1838833d4fd6101008201527f25a7fed94b8b55821dcec4da0f0f38217b4307eb275f054de637d8736b96beb46101208201527f100cfe015e2bff9e7592d4e475dbdc4b72b49bfb4c7cd48bf5abb2d15a371fdd6101408201527f23043b3c22a4f942c457bc902c3c84f429346d9aeda87031948091a363d38db76101608201527f264858f744d06905279fd6899b94ffb20bc3650dbf31b28f5e9b3d07c1f591a16101808201527f2d3f129bf66575378f39effb18d0353a3582ccb27679f27dcbe6ce31fb56bf366101a08201527f225f334f71fda2c050fabf3fe222568f134e00efdb6fec322f799cdc646266c66101c08201527f05b90cfdc2e85b5777b23d7e37cac69ef33e85055021e423fd838574a87485646101e08201527f07cac0db8e4604ec86e5b568f91dcf4e6ae645f437c548e07af2ab319aa375de6102008201527f139553512b424d5db0fb8a6a81c48da0175433b34dbfb7909d20c89f1761d02a61022082015282610240820152816102608201527f08e3127cddee1e6633c965f4a96a2bf9604fcc0c6e394940688c66baad53e7b96102808201527e796bf3d2b960e7699e4d44a325ce5405527b23ded7926746817113f9b6b3846102a08201527f23a3f24661e90135bfda3b65a2e8a1b7bc4b3be9229dd3db008215c6a2ff3e376102c08201527f02ce17e16de452fdf75d8a97c065075bb5a269cc1addaf930311c0665610ec1c6102e08201526020816103008360085afa905116925082610b2b57604051631ff3747d60e21b815260040160405180910390fd5b505050505050505050565b5f5f516020611d265f395f51905f5283101580610b6057505f516020611d265f395f51905f528210155b15610b7e57604051631ff3747d60e21b815260040160405180910390fd5b82158015610b8a575081155b15610b9657505f610c1d565b5f610bd15f516020611d265f395f51905f5260035f516020611d265f395f51905f52875f516020611d265f395f51905f52898a0909086117d3565b9050808303610be6575050600182901b610c1d565b610bef81611835565b8303610c02575050600182811b17610c1d565b604051631ff3747d60e21b815260040160405180910390fd5b505b92915050565b5f5f5f516020611d265f395f51905f5286101580610c4e57505f516020611d265f395f51905f528510155b80610c6657505f516020611d265f395f51905f528410155b80610c7e57505f516020611d265f395f51905f528310155b15610c9c57604051631ff3747d60e21b815260040160405180910390fd5b828486881717175f03610cb357505f905080610ef3565b5f80805f516020611d265f395f51905f52610cdc60035f516020611d265f395f51905f52611d06565b5f516020611d265f395f51905f528a8c090990505f5f516020611d265f395f51905f528a5f516020611d265f395f51905f528c8d090990505f5f516020611d265f395f51905f528a5f516020611d265f395f51905f528c8d090990505f516020611d265f395f51905f52805f516020611d265f395f51905f528c860984087f2b149d40ceb8aaae81be18991be06ac3b5b4c5e559dbefa33267e6dc24a138e5089450610dca5f516020611d265f395f51905f52805f516020611d265f395f51905f528e870984087f2fcd3ac2a640a154eb23960892a85a68f031ca0c8344b23a577dcf1052b9e77508611835565b93505050505f5f610e175f516020611d265f395f51905f5280610def57610def611cd3565b5f516020611d265f395f51905f528586095f516020611d265f395f51905f52878809086117d3565b9050610e625f516020611d265f395f51905f527f183227397098d014dc2822db40c0ac2ecbc0b548b438e5469e10460b6c3e7ea45f516020611d265f395f51905f528488080961184d565b15915050610e71838383611895565b90935091508683148015610e8457508186145b15610eac5780610e94575f610e97565b60025b60ff1660028a901b175f179450879350610eef565b610eb583611835565b87148015610eca5750610ec782611835565b86145b15610c025780610eda575f610edd565b60025b60ff1660028a901b1760011794508793505b5050505b94509492505050565b5f5f825f03610f0f57505f928392509050565b600183811c9250808416145f516020611d265f395f51905f528310610f4757604051631ff3747d60e21b815260040160405180910390fd5b610f815f516020611d265f395f51905f5260035f516020611d265f395f51905f52865f516020611d265f395f51905f5288890909086117d3565b91508015610f9557610f9282611835565b91505b50915091565b5f80808085158015610fab575084155b15610fc057505f925082915081905080611166565b600286811c945085935060018088161490808816145f516020611d265f395f51905f5286101580610ffe57505f516020611d265f395f51905f528510155b1561101c57604051631ff3747d60e21b815260040160405180910390fd5b5f5f516020611d265f395f51905f5261104360035f516020611d265f395f51905f52611d06565b5f516020611d265f395f51905f52888a090990505f5f516020611d265f395f51905f52885f516020611d265f395f51905f528a8b090990505f5f516020611d265f395f51905f52885f516020611d265f395f51905f528a8b090990505f516020611d265f395f51905f52805f516020611d265f395f51905f528a860984087f2b149d40ceb8aaae81be18991be06ac3b5b4c5e559dbefa33267e6dc24a138e50896506111315f516020611d265f395f51905f52805f516020611d265f395f51905f528c870984087f2fcd3ac2a640a154eb23960892a85a68f031ca0c8344b23a577dcf1052b9e77508611835565b955061113e878786611895565b909750955084156111605761115287611835565b965061115d86611835565b95505b50505050505b92959194509250565b5f5f5f60019050604051604081015f7f0abda91b93553fab611cf205f43c4929e13a29664c6f6b1cb87887cf7a97110983527f182dea6934668a65e4acb3f18ea50e200b4ca22d442481345ffb3b278390b36d6020840152865182526020870151602083015260408360808560065afa841693507f18cc51b23cf3b98e5c65b2a986b2cb28514cfeda4b10b0f2a65fcbf9ae2043ff82527f091a495b3fde8e4359617a338fe3d16a4df8247a2fcca7ea63b115441228abd36020830152883590508060408301525f516020611d465f395f51905f5281108416935060408260608460075afa8416935060408360808560065afa841693507f2280b99a402eefd18fbec5c574ecc59541426f9d871d5d8645a3ccd8471ceb5982527f04bfcb74ee48d715ef2c565d838a694697ac445f10d92a5f43409ebdd33e081e6020830152602089013590508060408301525f516020611d465f395f51905f5281108416935060408260608460075afa8416935060408360808560065afa841693507f18702af999fdfb084ab374ed64b8ee09935b2fe45a31a2beb44ed4d780bc63ac82527f1f337daff338e14a7763cd02b766d27f7d4baa07922c5a8aafe91d22b111761a6020830152604089013590508060408301525f516020611d465f395f51905f5281108416935060408260608460075afa8416935060408360808560065afa841693507f172545bf99daf78b18f069c42b0beded5407c5905ce473a4a06ba3aab21a1e8582527f2fedd2c2905a78068d502c39b494c19c94b2f8b1c67f566116cce2166eb0fdc76020830152606089013590508060408301525f516020611d465f395f51905f5281108416935060408260608460075afa8416935060408360808560065afa841693507f09888c24abfb0f110a79c44e64c06e2d250d1b887585f3e90aa6aa4ff17072c982527f18d69bd6bd7b75a7fb04db5180c7a34529c87336370bdb323353a6ed31aa59b86020830152608089013590508060408301525f516020611d465f395f51905f5281108416935060408260608460075afa8416935060408360808560065afa841693507f12981dc688e37c182b36ce1bae3710f2c10fb2d103847bb56d6559b7de44fe7682527f194a3701487e0f227a8ada3e61985569d92de569146aeaac2269566a5d2d987d602083015260a089013590508060408301525f516020611d465f395f51905f5281108416935060408260608460075afa8416935060408360808560065afa841693507f01443c797a7fdf0739def6a1e97af8a4e069da0b27d9adf17074aa20de5fd73d82527f1a2105196f3a41f1cb3a476950c3a1e8dfec97cf35fbd0be7a10c66dce36d485602083015260c089013590508060408301525f516020611d465f395f51905f5281108416935060408260608460075afa8416935060408360808560065afa841693507f044ebcc29152c4e640d8314673c87b65890f7ad31f8b466b2fee5e8987492f2e82527f089349e5de9d84107a7737206a19199a17fbee86f4f2c762112b45fc195dada7602083015260e089013590508060408301525f516020611d465f395f51905f5281108416935060408260608460075afa8416935060408360808560065afa841693507f189111ce67d6a0884adf5102e1a952a33f299ef4bffd6989f4f1f6f5b2d8820482527f073c3a024edffdbd09e1441588f9a270342b4bfad0439e4916d9cb31963ccf36602083015261010089013590508060408301525f516020611d465f395f51905f5281108416935060408260608460075afa8416935060408360808560065afa841693507f22666bc12092e505973668a6291c13d34527a4a1cc97ad746f66d29af69be51982527f12c46ffd30b663df813cdda4b434160156a5eb86961560579df481cfb42a6d22602083015261012089013590508060408301525f516020611d465f395f51905f5281108416935060408260608460075afa8416935060408360808560065afa7f07ae2b84cd2ad8f4cde91d68ebf1f07bf362b7adbe0f071093927096c6f73d6b83527f1bf427bc1f30cfb006f16a548bd7e0b7644a8d1ed9f095aaf4a74c70ef0ee1e56020840152885160408085018290525f516020611d465f395f51905f5290911091909516169390508160608160075afa831692505060408160808360065afa815160209092015191945090925016806117ca5760405163a54f8e2760e01b815260040160405180910390fd5b50935093915050565b5f6117fe827f0c19139cb84c680a6e14116da060561765e05aa45a1c72a34f082305b61f3f526119c8565b9050815f516020611d265f395f51905f528283091461183057604051631ff3747d60e21b815260040160405180910390fd5b919050565b5f516020611d265f395f51905f529081900681030690565b5f5f611879837f0c19139cb84c680a6e14116da060561765e05aa45a1c72a34f082305b61f3f526119c8565b9050825f516020611d265f395f51905f52828309149392505050565b5f80806118c45f516020611d265f395f51905f52808788095f516020611d265f395f51905f52898a09086117d3565b905083156118d8576118d581611835565b90505b6119215f516020611d265f395f51905f527f183227397098d014dc2822db40c0ac2ecbc0b548b438e5469e10460b6c3e7ea45f516020611d265f395f51905f52848a08096117d3565b92505f516020611d265f395f51905f5261194b5f516020611d265f395f51905f5260028609611a2b565b860991505f516020611d265f395f51905f526119765f516020611d265f395f51905f52848509611835565b5f516020611d265f395f51905f5285860908861415806119aa57505f516020611d265f395f51905f52808385096002098514155b156117ca57604051631ff3747d60e21b815260040160405180910390fd5b5f5f60405160208152602080820152602060408201528460608201528360808201525f516020611d265f395f51905f5260a082015260208160c08360055afa90519250905080610c1b57604051631ff3747d60e21b815260040160405180910390fd5b5f611a56827f30644e72e131a029b85045b68181585d97816a916871ca8d3c208c16d87cfd456119c8565b90505f516020611d265f395f51905f5281830960011461183057604051631ff3747d60e21b815260040160405180910390fd5b60405180608001604052806004906020820280368337509192915050565b60405180602001604052806001906020820280368337509192915050565b60405180604001604052806002906020820280368337509192915050565b6040518061030001604052806018906020820280368337509192915050565b806101008101831015610c1d575f5ffd5b8060408101831015610c1d575f5ffd5b5f5f5f6101808486031215611b36575f5ffd5b611b408585611b02565b9250611b50856101008601611b13565b9150611b60856101408601611b13565b90509250925092565b60c0810181855f5b6004811015611b90578151835260209283019290910190600101611b71565b50505060808201845f5b6001811015611bb9578151835260209283019290910190600101611b9a565b5050508260a0830152949350505050565b806101408101831015610c1d575f5ffd5b5f5f5f5f6102008587031215611bef575f5ffd5b6080850186811115611bff575f5ffd5b85945060a0860187811115611c12575f5ffd5b909350359150611c258660c08701611bca565b905092959194509250565b5f5f5f5f6102c08587031215611c44575f5ffd5b611c4e8686611b02565b9350611c5e866101008701611b13565b9250611c6e866101408701611b13565b9150611c25866101808701611bca565b634e487b7160e01b5f52603260045260245ffd5b8381528260208201525f604082018351602085015f5b82811015611cc6578151845260209384019390910190600101611ca8565b5091979650505050505050565b634e487b7160e01b5f52601260045260245ffd5b5f82611d0157634e487b7160e01b5f52601260045260245ffd5b500690565b81810381811115610c1d57634e487b7160e01b5f52601160045260245ffdfe30644e72e131a029b85045b68181585d97816a916871ca8d3c208c16d87cfd4730644e72e131a029b85045b68181585d2833e84879b9709143e1f593f0000001a26469706673582212205515f061e10251058e9c08b2812533f174fe8206c300d563d8fdd38d30ca2d3f64736f6c634300081c0033","opcodes":"PUSH1 0x80 PUSH1 0x40 MSTORE CALLVALUE DUP1 ISZERO PUSH1 0xE JUMPI PUSH0 PUSH0 REVERT JUMPDEST POP PUSH2 0x1D9B DUP1 PUSH2 0x1C PUSH0 CODECOPY PUSH0 RETURN INVALID PUSH1 0x80 PUSH1 0x40 MSTORE CALLVALUE DUP1 ISZERO PUSH2 0xF JUMPI PUSH0 PUSH0 REVERT JUMPDEST POP PUSH1 0x4 CALLDATASIZE LT PUSH2 0x3F JUMPI PUSH0 CALLDATALOAD PUSH1 0xE0 SHR DUP1 PUSH4 0xB1C3A00E EQ PUSH2 0x43 JUMPI DUP1 PUSH4 0xDC37819A EQ PUSH2 0x6E JUMPI DUP1 PUSH4 0xDF078BEF EQ PUSH2 0x83 JUMPI JUMPDEST PUSH0 PUSH0 REVERT JUMPDEST PUSH2 0x56 PUSH2 0x51 CALLDATASIZE PUSH1 0x4 PUSH2 0x1B23 JUMP JUMPDEST PUSH2 0x96 JUMP JUMPDEST PUSH1 0x40 MLOAD PUSH2 0x65 SWAP4 SWAP3 SWAP2 SWAP1 PUSH2 0x1B69 JUMP JUMPDEST PUSH1 0x40 MLOAD DUP1 SWAP2 SUB SWAP1 RETURN JUMPDEST PUSH2 0x81 PUSH2 0x7C CALLDATASIZE PUSH1 0x4 PUSH2 0x1BDB JUMP JUMPDEST PUSH2 0x11E JUMP JUMPDEST STOP JUMPDEST PUSH2 0x81 PUSH2 0x91 CALLDATASIZE PUSH1 0x4 PUSH2 0x1C30 JUMP JUMPDEST PUSH2 0x68A JUMP JUMPDEST PUSH2 0x9E PUSH2 0x1A89 JUMP JUMPDEST PUSH2 0xA6 PUSH2 0x1AA7 JUMP JUMPDEST PUSH0 PUSH2 0xBA DUP7 CALLDATALOAD DUP8 PUSH1 0x1 JUMPDEST PUSH1 0x20 MUL ADD CALLDATALOAD PUSH2 0xB36 JUMP JUMPDEST DUP4 MSTORE PUSH2 0xD8 PUSH1 0x60 DUP8 ADD CALLDATALOAD PUSH1 0x40 DUP9 ADD CALLDATALOAD PUSH1 0xA0 DUP10 ADD CALLDATALOAD PUSH1 0x80 DUP11 ADD CALLDATALOAD PUSH2 0xC23 JUMP JUMPDEST PUSH1 0x20 DUP6 ADD MSTORE PUSH1 0x40 DUP5 ADD MSTORE PUSH2 0xF2 PUSH1 0xC0 DUP8 ADD CALLDATALOAD DUP8 PUSH1 0x7 PUSH2 0xB0 JUMP JUMPDEST PUSH1 0x60 DUP5 ADD MSTORE PUSH2 0x104 DUP6 CALLDATALOAD DUP7 PUSH1 0x1 PUSH2 0xB0 JUMP JUMPDEST DUP3 MSTORE PUSH2 0x113 DUP5 CALLDATALOAD DUP6 PUSH1 0x1 PUSH2 0xB0 JUMP JUMPDEST SWAP1 POP SWAP4 POP SWAP4 POP SWAP4 SWAP1 POP JUMP JUMPDEST PUSH2 0x126 PUSH2 0x1AA7 JUMP JUMPDEST PUSH2 0x12E PUSH2 0x1AC5 JUMP JUMPDEST PUSH2 0x136 PUSH2 0x1AE3 JUMP JUMPDEST PUSH2 0x146 DUP7 PUSH0 JUMPDEST PUSH1 0x20 MUL ADD CALLDATALOAD PUSH2 0xEFC JUMP JUMPDEST PUSH1 0x20 DUP5 ADD MSTORE DUP3 MSTORE PUSH0 DUP1 PUSH2 0x158 DUP8 PUSH2 0xEFC JUMP JUMPDEST PUSH1 0x40 DUP1 MLOAD PUSH1 0x5 DUP1 DUP3 MSTORE PUSH1 0xC0 DUP3 ADD SWAP1 SWAP3 MSTORE SWAP3 SWAP5 POP SWAP1 SWAP3 POP PUSH1 0x60 SWAP2 SWAP1 PUSH1 0x20 DUP3 ADD PUSH1 0xA0 DUP1 CALLDATASIZE DUP4 CALLDATACOPY ADD SWAP1 POP POP SWAP1 POP PUSH1 0x20 DUP1 DUP3 ADD SWAP1 PUSH1 0x40 DUP10 ADD DUP3 CALLDATACOPY PUSH1 0x80 PUSH1 0xC0 DUP10 ADD PUSH1 0x20 DUP4 ADD CALLDATACOPY POP DUP5 MLOAD PUSH1 0x20 DUP1 DUP8 ADD MLOAD PUSH1 0x40 MLOAD PUSH0 MLOAD PUSH1 0x20 PUSH2 0x1D46 PUSH0 CODECOPY PUSH0 MLOAD SWAP1 PUSH0 MSTORE SWAP4 PUSH2 0x1C3 SWAP4 SWAP1 SWAP3 SWAP2 DUP7 SWAP2 ADD PUSH2 0x1C92 JUMP JUMPDEST PUSH1 0x40 MLOAD PUSH1 0x20 DUP2 DUP4 SUB SUB DUP2 MSTORE SWAP1 PUSH1 0x40 MSTORE DUP1 MLOAD SWAP1 PUSH1 0x20 ADD KECCAK256 PUSH0 SHR PUSH2 0x1E5 SWAP2 SWAP1 PUSH2 0x1CE7 JUMP JUMPDEST DUP7 MSTORE DUP5 MLOAD DUP5 MSTORE PUSH1 0x20 DUP6 DUP2 ADD MLOAD DUP6 DUP3 ADD MSTORE PUSH32 0x8480E99474689ED895E0F83B2C28BC234B7C86BB7C5CF322C2CC29362FB48AD PUSH1 0x40 DUP1 DUP8 ADD SWAP2 SWAP1 SWAP2 MSTORE PUSH32 0x6170922DFCF55190A392089203C49B03A237F16C28B822A27ACBA4F2AF24EB4 PUSH1 0x60 DUP8 ADD MSTORE PUSH32 0xD5C11EF1D50D15154301C075F3B7893E2FB98D3ED90B15AC96F51552E5C36AC PUSH1 0x80 DUP8 ADD MSTORE PUSH32 0x71E1F97309EDB22456D11F96E2C6718C7D525BFD35FB13125D854BF927A4A4E PUSH1 0xA0 DUP8 ADD MSTORE PUSH1 0xC0 DUP7 ADD DUP6 SWAP1 MSTORE PUSH1 0xE0 DUP7 ADD DUP5 SWAP1 MSTORE PUSH32 0x131443A740E68B693E0B637C8CF26808F65425688FFC3FF9A10ABDD47A3BFD90 PUSH2 0x100 DUP8 ADD MSTORE PUSH32 0x1A78FAE6054A26F8A53F21EC8C056D4D7EEF33931F728103E40A766E81256C52 PUSH2 0x120 DUP8 ADD MSTORE PUSH32 0xECCC78A9E3B7FCC9D605D6E8DF148EE93F85550C25DDED759A6D35503CAE1EB PUSH2 0x140 DUP8 ADD MSTORE PUSH32 0x1F29F1A675C809BC3C705BEDFF15FBB9BDDC5AAD42D64AE858AB8C300DC96FF0 PUSH2 0x160 DUP8 ADD MSTORE MLOAD PUSH0 SWAP2 DUP2 PUSH2 0x180 DUP9 PUSH1 0x8 GAS STATICCALL SWAP1 MLOAD AND SWAP1 POP DUP1 PUSH2 0x36A JUMPI PUSH1 0x40 MLOAD PUSH4 0x51D49FF7 PUSH1 0xE1 SHL DUP2 MSTORE PUSH1 0x4 ADD PUSH1 0x40 MLOAD DUP1 SWAP2 SUB SWAP1 REVERT JUMPDEST POP POP POP POP PUSH0 PUSH0 PUSH2 0x385 DUP10 PUSH0 PUSH1 0x4 DUP2 LT PUSH2 0x13C JUMPI PUSH2 0x13C PUSH2 0x1C7E JUMP JUMPDEST SWAP1 SWAP3 POP SWAP1 POP PUSH0 DUP1 DUP1 DUP1 PUSH2 0x3A0 PUSH1 0x40 DUP15 ADD CALLDATALOAD PUSH1 0x20 DUP16 ADD CALLDATALOAD PUSH2 0xF9B JUMP JUMPDEST SWAP3 SWAP7 POP SWAP1 SWAP5 POP SWAP3 POP SWAP1 POP PUSH0 DUP1 PUSH2 0x3B7 DUP16 PUSH1 0x3 PUSH2 0x13C JUMP JUMPDEST SWAP2 POP SWAP2 POP PUSH0 PUSH0 PUSH2 0x3C8 DUP15 DUP15 DUP15 PUSH2 0x116F JUMP JUMPDEST DUP12 DUP14 MSTORE PUSH1 0x20 DUP14 ADD DUP12 SWAP1 MSTORE PUSH1 0x40 DUP14 ADD DUP10 SWAP1 MSTORE PUSH1 0x60 DUP14 ADD DUP11 SWAP1 MSTORE PUSH1 0x80 DUP14 ADD DUP8 SWAP1 MSTORE PUSH1 0xA0 DUP14 ADD DUP9 SWAP1 MSTORE PUSH1 0xC0 DUP14 ADD DUP7 SWAP1 MSTORE PUSH1 0xE0 DUP14 ADD DUP6 SWAP1 MSTORE PUSH32 0x1AD227EB2F384E9075CC8ED2018117556CA911E50FB867BA5958F1838833D4FD PUSH2 0x100 DUP15 ADD MSTORE PUSH32 0x25A7FED94B8B55821DCEC4DA0F0F38217B4307EB275F054DE637D8736B96BEB4 PUSH2 0x120 DUP15 ADD MSTORE PUSH32 0x100CFE015E2BFF9E7592D4E475DBDC4B72B49BFB4C7CD48BF5ABB2D15A371FDD PUSH2 0x140 DUP15 ADD MSTORE PUSH32 0x23043B3C22A4F942C457BC902C3C84F429346D9AEDA87031948091A363D38DB7 PUSH2 0x160 DUP15 ADD MSTORE PUSH32 0x264858F744D06905279FD6899B94FFB20BC3650DBF31B28F5E9B3D07C1F591A1 PUSH2 0x180 DUP15 ADD MSTORE PUSH32 0x2D3F129BF66575378F39EFFB18D0353A3582CCB27679F27DCBE6CE31FB56BF36 PUSH2 0x1A0 DUP15 ADD MSTORE PUSH32 0x225F334F71FDA2C050FABF3FE222568F134E00EFDB6FEC322F799CDC646266C6 PUSH2 0x1C0 DUP15 ADD MSTORE PUSH32 0x5B90CFDC2E85B5777B23D7E37CAC69EF33E85055021E423FD838574A8748564 PUSH2 0x1E0 DUP15 ADD MSTORE PUSH32 0x7CAC0DB8E4604EC86E5B568F91DCF4E6AE645F437C548E07AF2AB319AA375DE PUSH2 0x200 DUP15 ADD MSTORE PUSH32 0x139553512B424D5DB0FB8A6A81C48DA0175433B34DBFB7909D20C89F1761D02A PUSH2 0x220 DUP15 ADD MSTORE PUSH2 0x240 DUP14 ADD DUP3 SWAP1 MSTORE PUSH2 0x260 DUP14 ADD DUP2 SWAP1 MSTORE PUSH32 0x8E3127CDDEE1E6633C965F4A96A2BF9604FCC0C6E394940688C66BAAD53E7B9 PUSH2 0x280 DUP15 ADD MSTORE PUSH31 0x796BF3D2B960E7699E4D44A325CE5405527B23DED7926746817113F9B6B384 PUSH2 0x2A0 DUP15 ADD MSTORE PUSH32 0x23A3F24661E90135BFDA3B65A2E8A1B7BC4B3BE9229DD3DB008215C6A2FF3E37 PUSH2 0x2C0 DUP15 ADD MSTORE PUSH32 0x2CE17E16DE452FDF75D8A97C065075BB5A269CC1ADDAF930311C0665610EC1C PUSH2 0x2E0 DUP15 ADD MSTORE SWAP1 SWAP3 POP SWAP1 POP PUSH0 PUSH2 0x63B PUSH2 0x1AA7 JUMP JUMPDEST PUSH1 0x20 DUP2 PUSH2 0x300 DUP16 PUSH1 0x8 GAS STATICCALL SWAP2 POP DUP2 ISZERO DUP1 PUSH2 0x657 JUMPI POP DUP1 MLOAD PUSH1 0x1 EQ ISZERO JUMPDEST ISZERO PUSH2 0x675 JUMPI PUSH1 0x40 MLOAD PUSH4 0x1FF3747D PUSH1 0xE2 SHL DUP2 MSTORE PUSH1 0x4 ADD PUSH1 0x40 MLOAD DUP1 SWAP2 SUB SWAP1 REVERT JUMPDEST POP POP POP POP POP POP POP POP POP POP POP POP POP POP POP POP POP POP POP JUMP JUMPDEST PUSH2 0x692 PUSH2 0x1AA7 JUMP JUMPDEST PUSH1 0x40 DUP1 MLOAD PUSH1 0x5 DUP1 DUP3 MSTORE PUSH1 0xC0 DUP3 ADD SWAP1 SWAP3 MSTORE PUSH1 0x60 SWAP2 PUSH1 0x20 DUP3 ADD PUSH1 0xA0 DUP1 CALLDATASIZE DUP4 CALLDATACOPY ADD SWAP1 POP POP SWAP1 POP PUSH1 0x20 DUP1 DUP3 ADD SWAP1 PUSH1 0x40 DUP6 ADD DUP3 CALLDATACOPY PUSH1 0x80 PUSH1 0xC0 DUP6 ADD PUSH1 0x20 DUP4 ADD CALLDATACOPY POP PUSH1 0x40 MLOAD PUSH0 MLOAD PUSH1 0x20 PUSH2 0x1D46 PUSH0 CODECOPY PUSH0 MLOAD SWAP1 PUSH0 MSTORE SWAP1 PUSH2 0x6F5 SWAP1 DUP8 CALLDATALOAD SWAP1 PUSH1 0x20 DUP1 DUP11 ADD CALLDATALOAD SWAP2 DUP7 SWAP2 ADD PUSH2 0x1C92 JUMP JUMPDEST PUSH1 0x40 MLOAD PUSH1 0x20 DUP2 DUP4 SUB SUB DUP2 MSTORE SWAP1 PUSH1 0x40 MSTORE DUP1 MLOAD SWAP1 PUSH1 0x20 ADD KECCAK256 PUSH0 SHR PUSH2 0x717 SWAP2 SWAP1 PUSH2 0x1CE7 JUMP JUMPDEST DUP3 MSTORE PUSH1 0x40 DUP1 MLOAD PUSH0 SWAP2 DUP8 DUP3 CALLDATACOPY PUSH32 0x8480E99474689ED895E0F83B2C28BC234B7C86BB7C5CF322C2CC29362FB48AD PUSH1 0x40 DUP3 ADD MSTORE PUSH32 0x6170922DFCF55190A392089203C49B03A237F16C28B822A27ACBA4F2AF24EB4 PUSH1 0x60 DUP3 ADD MSTORE PUSH32 0xD5C11EF1D50D15154301C075F3B7893E2FB98D3ED90B15AC96F51552E5C36AC PUSH1 0x80 DUP3 ADD MSTORE PUSH32 0x71E1F97309EDB22456D11F96E2C6718C7D525BFD35FB13125D854BF927A4A4E PUSH1 0xA0 DUP3 ADD MSTORE PUSH1 0x40 DUP7 PUSH1 0xC0 DUP4 ADD CALLDATACOPY PUSH32 0x131443A740E68B693E0B637C8CF26808F65425688FFC3FF9A10ABDD47A3BFD90 PUSH2 0x100 DUP3 ADD MSTORE PUSH32 0x1A78FAE6054A26F8A53F21EC8C056D4D7EEF33931F728103E40A766E81256C52 PUSH2 0x120 DUP3 ADD MSTORE PUSH32 0xECCC78A9E3B7FCC9D605D6E8DF148EE93F85550C25DDED759A6D35503CAE1EB PUSH2 0x140 DUP3 ADD MSTORE PUSH32 0x1F29F1A675C809BC3C705BEDFF15FBB9BDDC5AAD42D64AE858AB8C300DC96FF0 PUSH2 0x160 DUP3 ADD MSTORE PUSH1 0x20 DUP2 PUSH2 0x180 DUP4 PUSH1 0x8 GAS STATICCALL SWAP1 MLOAD AND SWAP1 POP DUP1 PUSH2 0x88C JUMPI PUSH1 0x40 MLOAD PUSH4 0x51D49FF7 PUSH1 0xE1 SHL DUP2 MSTORE PUSH1 0x4 ADD PUSH1 0x40 MLOAD DUP1 SWAP2 SUB SWAP1 REVERT JUMPDEST PUSH0 PUSH0 PUSH2 0x8C1 DUP7 DUP7 DUP11 PUSH1 0x2 DUP1 PUSH1 0x20 MUL PUSH1 0x40 MLOAD SWAP1 DUP2 ADD PUSH1 0x40 MSTORE DUP1 SWAP3 SWAP2 SWAP1 DUP3 PUSH1 0x2 PUSH1 0x20 MUL DUP1 DUP3 DUP5 CALLDATACOPY PUSH0 SWAP3 ADD SWAP2 SWAP1 SWAP2 MSTORE POP PUSH2 0x116F SWAP2 POP POP JUMP JUMPDEST SWAP2 POP SWAP2 POP PUSH1 0x40 MLOAD PUSH2 0x100 DUP11 DUP3 CALLDATACOPY PUSH32 0x1AD227EB2F384E9075CC8ED2018117556CA911E50FB867BA5958F1838833D4FD PUSH2 0x100 DUP3 ADD MSTORE PUSH32 0x25A7FED94B8B55821DCEC4DA0F0F38217B4307EB275F054DE637D8736B96BEB4 PUSH2 0x120 DUP3 ADD MSTORE PUSH32 0x100CFE015E2BFF9E7592D4E475DBDC4B72B49BFB4C7CD48BF5ABB2D15A371FDD PUSH2 0x140 DUP3 ADD MSTORE PUSH32 0x23043B3C22A4F942C457BC902C3C84F429346D9AEDA87031948091A363D38DB7 PUSH2 0x160 DUP3 ADD MSTORE PUSH32 0x264858F744D06905279FD6899B94FFB20BC3650DBF31B28F5E9B3D07C1F591A1 PUSH2 0x180 DUP3 ADD MSTORE PUSH32 0x2D3F129BF66575378F39EFFB18D0353A3582CCB27679F27DCBE6CE31FB56BF36 PUSH2 0x1A0 DUP3 ADD MSTORE PUSH32 0x225F334F71FDA2C050FABF3FE222568F134E00EFDB6FEC322F799CDC646266C6 PUSH2 0x1C0 DUP3 ADD MSTORE PUSH32 0x5B90CFDC2E85B5777B23D7E37CAC69EF33E85055021E423FD838574A8748564 PUSH2 0x1E0 DUP3 ADD MSTORE PUSH32 0x7CAC0DB8E4604EC86E5B568F91DCF4E6AE645F437C548E07AF2AB319AA375DE PUSH2 0x200 DUP3 ADD MSTORE PUSH32 0x139553512B424D5DB0FB8A6A81C48DA0175433B34DBFB7909D20C89F1761D02A PUSH2 0x220 DUP3 ADD MSTORE DUP3 PUSH2 0x240 DUP3 ADD MSTORE DUP2 PUSH2 0x260 DUP3 ADD MSTORE PUSH32 0x8E3127CDDEE1E6633C965F4A96A2BF9604FCC0C6E394940688C66BAAD53E7B9 PUSH2 0x280 DUP3 ADD MSTORE PUSH31 0x796BF3D2B960E7699E4D44A325CE5405527B23DED7926746817113F9B6B384 PUSH2 0x2A0 DUP3 ADD MSTORE PUSH32 0x23A3F24661E90135BFDA3B65A2E8A1B7BC4B3BE9229DD3DB008215C6A2FF3E37 PUSH2 0x2C0 DUP3 ADD MSTORE PUSH32 0x2CE17E16DE452FDF75D8A97C065075BB5A269CC1ADDAF930311C0665610EC1C PUSH2 0x2E0 DUP3 ADD MSTORE PUSH1 0x20 DUP2 PUSH2 0x300 DUP4 PUSH1 0x8 GAS STATICCALL SWAP1 MLOAD AND SWAP3 POP DUP3 PUSH2 0xB2B JUMPI PUSH1 0x40 MLOAD PUSH4 0x1FF3747D PUSH1 0xE2 SHL DUP2 MSTORE PUSH1 0x4 ADD PUSH1 0x40 MLOAD DUP1 SWAP2 SUB SWAP1 REVERT JUMPDEST POP POP POP POP POP POP POP POP POP JUMP JUMPDEST PUSH0 PUSH0 MLOAD PUSH1 0x20 PUSH2 0x1D26 PUSH0 CODECOPY PUSH0 MLOAD SWAP1 PUSH0 MSTORE DUP4 LT ISZERO DUP1 PUSH2 0xB60 JUMPI POP PUSH0 MLOAD PUSH1 0x20 PUSH2 0x1D26 PUSH0 CODECOPY PUSH0 MLOAD SWAP1 PUSH0 MSTORE DUP3 LT ISZERO JUMPDEST ISZERO PUSH2 0xB7E JUMPI PUSH1 0x40 MLOAD PUSH4 0x1FF3747D PUSH1 0xE2 SHL DUP2 MSTORE PUSH1 0x4 ADD PUSH1 0x40 MLOAD DUP1 SWAP2 SUB SWAP1 REVERT JUMPDEST DUP3 ISZERO DUP1 ISZERO PUSH2 0xB8A JUMPI POP DUP2 ISZERO JUMPDEST ISZERO PUSH2 0xB96 JUMPI POP PUSH0 PUSH2 0xC1D JUMP JUMPDEST PUSH0 PUSH2 0xBD1 PUSH0 MLOAD PUSH1 0x20 PUSH2 0x1D26 PUSH0 CODECOPY PUSH0 MLOAD SWAP1 PUSH0 MSTORE PUSH1 0x3 PUSH0 MLOAD PUSH1 0x20 PUSH2 0x1D26 PUSH0 CODECOPY PUSH0 MLOAD SWAP1 PUSH0 MSTORE DUP8 PUSH0 MLOAD PUSH1 0x20 PUSH2 0x1D26 PUSH0 CODECOPY PUSH0 MLOAD SWAP1 PUSH0 MSTORE DUP10 DUP11 MULMOD MULMOD ADDMOD PUSH2 0x17D3 JUMP JUMPDEST SWAP1 POP DUP1 DUP4 SUB PUSH2 0xBE6 JUMPI POP POP PUSH1 0x1 DUP3 SWAP1 SHL PUSH2 0xC1D JUMP JUMPDEST PUSH2 0xBEF DUP2 PUSH2 0x1835 JUMP JUMPDEST DUP4 SUB PUSH2 0xC02 JUMPI POP POP PUSH1 0x1 DUP3 DUP2 SHL OR PUSH2 0xC1D JUMP JUMPDEST PUSH1 0x40 MLOAD PUSH4 0x1FF3747D PUSH1 0xE2 SHL DUP2 MSTORE PUSH1 0x4 ADD PUSH1 0x40 MLOAD DUP1 SWAP2 SUB SWAP1 REVERT JUMPDEST POP JUMPDEST SWAP3 SWAP2 POP POP JUMP JUMPDEST PUSH0 PUSH0 PUSH0 MLOAD PUSH1 0x20 PUSH2 0x1D26 PUSH0 CODECOPY PUSH0 MLOAD SWAP1 PUSH0 MSTORE DUP7 LT ISZERO DUP1 PUSH2 0xC4E JUMPI POP PUSH0 MLOAD PUSH1 0x20 PUSH2 0x1D26 PUSH0 CODECOPY PUSH0 MLOAD SWAP1 PUSH0 MSTORE DUP6 LT ISZERO JUMPDEST DUP1 PUSH2 0xC66 JUMPI POP PUSH0 MLOAD PUSH1 0x20 PUSH2 0x1D26 PUSH0 CODECOPY PUSH0 MLOAD SWAP1 PUSH0 MSTORE DUP5 LT ISZERO JUMPDEST DUP1 PUSH2 0xC7E JUMPI POP PUSH0 MLOAD PUSH1 0x20 PUSH2 0x1D26 PUSH0 CODECOPY PUSH0 MLOAD SWAP1 PUSH0 MSTORE DUP4 LT ISZERO JUMPDEST ISZERO PUSH2 0xC9C JUMPI PUSH1 0x40 MLOAD PUSH4 0x1FF3747D PUSH1 0xE2 SHL DUP2 MSTORE PUSH1 0x4 ADD PUSH1 0x40 MLOAD DUP1 SWAP2 SUB SWAP1 REVERT JUMPDEST DUP3 DUP5 DUP7 DUP9 OR OR OR PUSH0 SUB PUSH2 0xCB3 JUMPI POP PUSH0 SWAP1 POP DUP1 PUSH2 0xEF3 JUMP JUMPDEST PUSH0 DUP1 DUP1 PUSH0 MLOAD PUSH1 0x20 PUSH2 0x1D26 PUSH0 CODECOPY PUSH0 MLOAD SWAP1 PUSH0 MSTORE PUSH2 0xCDC PUSH1 0x3 PUSH0 MLOAD PUSH1 0x20 PUSH2 0x1D26 PUSH0 CODECOPY PUSH0 MLOAD SWAP1 PUSH0 MSTORE PUSH2 0x1D06 JUMP JUMPDEST PUSH0 MLOAD PUSH1 0x20 PUSH2 0x1D26 PUSH0 CODECOPY PUSH0 MLOAD SWAP1 PUSH0 MSTORE DUP11 DUP13 MULMOD MULMOD SWAP1 POP PUSH0 PUSH0 MLOAD PUSH1 0x20 PUSH2 0x1D26 PUSH0 CODECOPY PUSH0 MLOAD SWAP1 PUSH0 MSTORE DUP11 PUSH0 MLOAD PUSH1 0x20 PUSH2 0x1D26 PUSH0 CODECOPY PUSH0 MLOAD SWAP1 PUSH0 MSTORE DUP13 DUP14 MULMOD MULMOD SWAP1 POP PUSH0 PUSH0 MLOAD PUSH1 0x20 PUSH2 0x1D26 PUSH0 CODECOPY PUSH0 MLOAD SWAP1 PUSH0 MSTORE DUP11 PUSH0 MLOAD PUSH1 0x20 PUSH2 0x1D26 PUSH0 CODECOPY PUSH0 MLOAD SWAP1 PUSH0 MSTORE DUP13 DUP14 MULMOD MULMOD SWAP1 POP PUSH0 MLOAD PUSH1 0x20 PUSH2 0x1D26 PUSH0 CODECOPY PUSH0 MLOAD SWAP1 PUSH0 MSTORE DUP1 PUSH0 MLOAD PUSH1 0x20 PUSH2 0x1D26 PUSH0 CODECOPY PUSH0 MLOAD SWAP1 PUSH0 MSTORE DUP13 DUP7 MULMOD DUP5 ADDMOD PUSH32 0x2B149D40CEB8AAAE81BE18991BE06AC3B5B4C5E559DBEFA33267E6DC24A138E5 ADDMOD SWAP5 POP PUSH2 0xDCA PUSH0 MLOAD PUSH1 0x20 PUSH2 0x1D26 PUSH0 CODECOPY PUSH0 MLOAD SWAP1 PUSH0 MSTORE DUP1 PUSH0 MLOAD PUSH1 0x20 PUSH2 0x1D26 PUSH0 CODECOPY PUSH0 MLOAD SWAP1 PUSH0 MSTORE DUP15 DUP8 MULMOD DUP5 ADDMOD PUSH32 0x2FCD3AC2A640A154EB23960892A85A68F031CA0C8344B23A577DCF1052B9E775 ADDMOD PUSH2 0x1835 JUMP JUMPDEST SWAP4 POP POP POP POP PUSH0 PUSH0 PUSH2 0xE17 PUSH0 MLOAD PUSH1 0x20 PUSH2 0x1D26 PUSH0 CODECOPY PUSH0 MLOAD SWAP1 PUSH0 MSTORE DUP1 PUSH2 0xDEF JUMPI PUSH2 0xDEF PUSH2 0x1CD3 JUMP JUMPDEST PUSH0 MLOAD PUSH1 0x20 PUSH2 0x1D26 PUSH0 CODECOPY PUSH0 MLOAD SWAP1 PUSH0 MSTORE DUP6 DUP7 MULMOD PUSH0 MLOAD PUSH1 0x20 PUSH2 0x1D26 PUSH0 CODECOPY PUSH0 MLOAD SWAP1 PUSH0 MSTORE DUP8 DUP9 MULMOD ADDMOD PUSH2 0x17D3 JUMP JUMPDEST SWAP1 POP PUSH2 0xE62 PUSH0 MLOAD PUSH1 0x20 PUSH2 0x1D26 PUSH0 CODECOPY PUSH0 MLOAD SWAP1 PUSH0 MSTORE PUSH32 0x183227397098D014DC2822DB40C0AC2ECBC0B548B438E5469E10460B6C3E7EA4 PUSH0 MLOAD PUSH1 0x20 PUSH2 0x1D26 PUSH0 CODECOPY PUSH0 MLOAD SWAP1 PUSH0 MSTORE DUP5 DUP9 ADDMOD MULMOD PUSH2 0x184D JUMP JUMPDEST ISZERO SWAP2 POP POP PUSH2 0xE71 DUP4 DUP4 DUP4 PUSH2 0x1895 JUMP JUMPDEST SWAP1 SWAP4 POP SWAP2 POP DUP7 DUP4 EQ DUP1 ISZERO PUSH2 0xE84 JUMPI POP DUP2 DUP7 EQ JUMPDEST ISZERO PUSH2 0xEAC JUMPI DUP1 PUSH2 0xE94 JUMPI PUSH0 PUSH2 0xE97 JUMP JUMPDEST PUSH1 0x2 JUMPDEST PUSH1 0xFF AND PUSH1 0x2 DUP11 SWAP1 SHL OR PUSH0 OR SWAP5 POP DUP8 SWAP4 POP PUSH2 0xEEF JUMP JUMPDEST PUSH2 0xEB5 DUP4 PUSH2 0x1835 JUMP JUMPDEST DUP8 EQ DUP1 ISZERO PUSH2 0xECA JUMPI POP PUSH2 0xEC7 DUP3 PUSH2 0x1835 JUMP JUMPDEST DUP7 EQ JUMPDEST ISZERO PUSH2 0xC02 JUMPI DUP1 PUSH2 0xEDA JUMPI PUSH0 PUSH2 0xEDD JUMP JUMPDEST PUSH1 0x2 JUMPDEST PUSH1 0xFF AND PUSH1 0x2 DUP11 SWAP1 SHL OR PUSH1 0x1 OR SWAP5 POP DUP8 SWAP4 POP JUMPDEST POP POP POP JUMPDEST SWAP5 POP SWAP5 SWAP3 POP POP POP JUMP JUMPDEST PUSH0 PUSH0 DUP3 PUSH0 SUB PUSH2 0xF0F JUMPI POP PUSH0 SWAP3 DUP4 SWAP3 POP SWAP1 POP JUMP JUMPDEST PUSH1 0x1 DUP4 DUP2 SHR SWAP3 POP DUP1 DUP5 AND EQ PUSH0 MLOAD PUSH1 0x20 PUSH2 0x1D26 PUSH0 CODECOPY PUSH0 MLOAD SWAP1 PUSH0 MSTORE DUP4 LT PUSH2 0xF47 JUMPI PUSH1 0x40 MLOAD PUSH4 0x1FF3747D PUSH1 0xE2 SHL DUP2 MSTORE PUSH1 0x4 ADD PUSH1 0x40 MLOAD DUP1 SWAP2 SUB SWAP1 REVERT JUMPDEST PUSH2 0xF81 PUSH0 MLOAD PUSH1 0x20 PUSH2 0x1D26 PUSH0 CODECOPY PUSH0 MLOAD SWAP1 PUSH0 MSTORE PUSH1 0x3 PUSH0 MLOAD PUSH1 0x20 PUSH2 0x1D26 PUSH0 CODECOPY PUSH0 MLOAD SWAP1 PUSH0 MSTORE DUP7 PUSH0 MLOAD PUSH1 0x20 PUSH2 0x1D26 PUSH0 CODECOPY PUSH0 MLOAD SWAP1 PUSH0 MSTORE DUP9 DUP10 MULMOD MULMOD ADDMOD PUSH2 0x17D3 JUMP JUMPDEST SWAP2 POP DUP1 ISZERO PUSH2 0xF95 JUMPI PUSH2 0xF92 DUP3 PUSH2 0x1835 JUMP JUMPDEST SWAP2 POP JUMPDEST POP SWAP2 POP SWAP2 JUMP JUMPDEST PUSH0 DUP1 DUP1 DUP1 DUP6 ISZERO DUP1 ISZERO PUSH2 0xFAB JUMPI POP DUP5 ISZERO JUMPDEST ISZERO PUSH2 0xFC0 JUMPI POP PUSH0 SWAP3 POP DUP3 SWAP2 POP DUP2 SWAP1 POP DUP1 PUSH2 0x1166 JUMP JUMPDEST PUSH1 0x2 DUP7 DUP2 SHR SWAP5 POP DUP6 SWAP4 POP PUSH1 0x1 DUP1 DUP9 AND EQ SWAP1 DUP1 DUP9 AND EQ PUSH0 MLOAD PUSH1 0x20 PUSH2 0x1D26 PUSH0 CODECOPY PUSH0 MLOAD SWAP1 PUSH0 MSTORE DUP7 LT ISZERO DUP1 PUSH2 0xFFE JUMPI POP PUSH0 MLOAD PUSH1 0x20 PUSH2 0x1D26 PUSH0 CODECOPY PUSH0 MLOAD SWAP1 PUSH0 MSTORE DUP6 LT ISZERO JUMPDEST ISZERO PUSH2 0x101C JUMPI PUSH1 0x40 MLOAD PUSH4 0x1FF3747D PUSH1 0xE2 SHL DUP2 MSTORE PUSH1 0x4 ADD PUSH1 0x40 MLOAD DUP1 SWAP2 SUB SWAP1 REVERT JUMPDEST PUSH0 PUSH0 MLOAD PUSH1 0x20 PUSH2 0x1D26 PUSH0 CODECOPY PUSH0 MLOAD SWAP1 PUSH0 MSTORE PUSH2 0x1043 PUSH1 0x3 PUSH0 MLOAD PUSH1 0x20 PUSH2 0x1D26 PUSH0 CODECOPY PUSH0 MLOAD SWAP1 PUSH0 MSTORE PUSH2 0x1D06 JUMP JUMPDEST PUSH0 MLOAD PUSH1 0x20 PUSH2 0x1D26 PUSH0 CODECOPY PUSH0 MLOAD SWAP1 PUSH0 MSTORE DUP9 DUP11 MULMOD MULMOD SWAP1 POP PUSH0 PUSH0 MLOAD PUSH1 0x20 PUSH2 0x1D26 PUSH0 CODECOPY PUSH0 MLOAD SWAP1 PUSH0 MSTORE DUP9 PUSH0 MLOAD PUSH1 0x20 PUSH2 0x1D26 PUSH0 CODECOPY PUSH0 MLOAD SWAP1 PUSH0 MSTORE DUP11 DUP12 MULMOD MULMOD SWAP1 POP PUSH0 PUSH0 MLOAD PUSH1 0x20 PUSH2 0x1D26 PUSH0 CODECOPY PUSH0 MLOAD SWAP1 PUSH0 MSTORE DUP9 PUSH0 MLOAD PUSH1 0x20 PUSH2 0x1D26 PUSH0 CODECOPY PUSH0 MLOAD SWAP1 PUSH0 MSTORE DUP11 DUP12 MULMOD MULMOD SWAP1 POP PUSH0 MLOAD PUSH1 0x20 PUSH2 0x1D26 PUSH0 CODECOPY PUSH0 MLOAD SWAP1 PUSH0 MSTORE DUP1 PUSH0 MLOAD PUSH1 0x20 PUSH2 0x1D26 PUSH0 CODECOPY PUSH0 MLOAD SWAP1 PUSH0 MSTORE DUP11 DUP7 MULMOD DUP5 ADDMOD PUSH32 0x2B149D40CEB8AAAE81BE18991BE06AC3B5B4C5E559DBEFA33267E6DC24A138E5 ADDMOD SWAP7 POP PUSH2 0x1131 PUSH0 MLOAD PUSH1 0x20 PUSH2 0x1D26 PUSH0 CODECOPY PUSH0 MLOAD SWAP1 PUSH0 MSTORE DUP1 PUSH0 MLOAD PUSH1 0x20 PUSH2 0x1D26 PUSH0 CODECOPY PUSH0 MLOAD SWAP1 PUSH0 MSTORE DUP13 DUP8 MULMOD DUP5 ADDMOD PUSH32 0x2FCD3AC2A640A154EB23960892A85A68F031CA0C8344B23A577DCF1052B9E775 ADDMOD PUSH2 0x1835 JUMP JUMPDEST SWAP6 POP PUSH2 0x113E DUP8 DUP8 DUP7 PUSH2 0x1895 JUMP JUMPDEST SWAP1 SWAP8 POP SWAP6 POP DUP5 ISZERO PUSH2 0x1160 JUMPI PUSH2 0x1152 DUP8 PUSH2 0x1835 JUMP JUMPDEST SWAP7 POP PUSH2 0x115D DUP7 PUSH2 0x1835 JUMP JUMPDEST SWAP6 POP JUMPDEST POP POP POP POP POP JUMPDEST SWAP3 SWAP6 SWAP2 SWAP5 POP SWAP3 POP JUMP JUMPDEST PUSH0 PUSH0 PUSH0 PUSH1 0x1 SWAP1 POP PUSH1 0x40 MLOAD PUSH1 0x40 DUP2 ADD PUSH0 PUSH32 0xABDA91B93553FAB611CF205F43C4929E13A29664C6F6B1CB87887CF7A971109 DUP4 MSTORE PUSH32 0x182DEA6934668A65E4ACB3F18EA50E200B4CA22D442481345FFB3B278390B36D PUSH1 0x20 DUP5 ADD MSTORE DUP7 MLOAD DUP3 MSTORE PUSH1 0x20 DUP8 ADD MLOAD PUSH1 0x20 DUP4 ADD MSTORE PUSH1 0x40 DUP4 PUSH1 0x80 DUP6 PUSH1 0x6 GAS STATICCALL DUP5 AND SWAP4 POP PUSH32 0x18CC51B23CF3B98E5C65B2A986B2CB28514CFEDA4B10B0F2A65FCBF9AE2043FF DUP3 MSTORE PUSH32 0x91A495B3FDE8E4359617A338FE3D16A4DF8247A2FCCA7EA63B115441228ABD3 PUSH1 0x20 DUP4 ADD MSTORE DUP9 CALLDATALOAD SWAP1 POP DUP1 PUSH1 0x40 DUP4 ADD MSTORE PUSH0 MLOAD PUSH1 0x20 PUSH2 0x1D46 PUSH0 CODECOPY PUSH0 MLOAD SWAP1 PUSH0 MSTORE DUP2 LT DUP5 AND SWAP4 POP PUSH1 0x40 DUP3 PUSH1 0x60 DUP5 PUSH1 0x7 GAS STATICCALL DUP5 AND SWAP4 POP PUSH1 0x40 DUP4 PUSH1 0x80 DUP6 PUSH1 0x6 GAS STATICCALL DUP5 AND SWAP4 POP PUSH32 0x2280B99A402EEFD18FBEC5C574ECC59541426F9D871D5D8645A3CCD8471CEB59 DUP3 MSTORE PUSH32 0x4BFCB74EE48D715EF2C565D838A694697AC445F10D92A5F43409EBDD33E081E PUSH1 0x20 DUP4 ADD MSTORE PUSH1 0x20 DUP10 ADD CALLDATALOAD SWAP1 POP DUP1 PUSH1 0x40 DUP4 ADD MSTORE PUSH0 MLOAD PUSH1 0x20 PUSH2 0x1D46 PUSH0 CODECOPY PUSH0 MLOAD SWAP1 PUSH0 MSTORE DUP2 LT DUP5 AND SWAP4 POP PUSH1 0x40 DUP3 PUSH1 0x60 DUP5 PUSH1 0x7 GAS STATICCALL DUP5 AND SWAP4 POP PUSH1 0x40 DUP4 PUSH1 0x80 DUP6 PUSH1 0x6 GAS STATICCALL DUP5 AND SWAP4 POP PUSH32 0x18702AF999FDFB084AB374ED64B8EE09935B2FE45A31A2BEB44ED4D780BC63AC DUP3 MSTORE PUSH32 0x1F337DAFF338E14A7763CD02B766D27F7D4BAA07922C5A8AAFE91D22B111761A PUSH1 0x20 DUP4 ADD MSTORE PUSH1 0x40 DUP10 ADD CALLDATALOAD SWAP1 POP DUP1 PUSH1 0x40 DUP4 ADD MSTORE PUSH0 MLOAD PUSH1 0x20 PUSH2 0x1D46 PUSH0 CODECOPY PUSH0 MLOAD SWAP1 PUSH0 MSTORE DUP2 LT DUP5 AND SWAP4 POP PUSH1 0x40 DUP3 PUSH1 0x60 DUP5 PUSH1 0x7 GAS STATICCALL DUP5 AND SWAP4 POP PUSH1 0x40 DUP4 PUSH1 0x80 DUP6 PUSH1 0x6 GAS STATICCALL DUP5 AND SWAP4 POP PUSH32 0x172545BF99DAF78B18F069C42B0BEDED5407C5905CE473A4A06BA3AAB21A1E85 DUP3 MSTORE PUSH32 0x2FEDD2C2905A78068D502C39B494C19C94B2F8B1C67F566116CCE2166EB0FDC7 PUSH1 0x20 DUP4 ADD MSTORE PUSH1 0x60 DUP10 ADD CALLDATALOAD SWAP1 POP DUP1 PUSH1 0x40 DUP4 ADD MSTORE PUSH0 MLOAD PUSH1 0x20 PUSH2 0x1D46 PUSH0 CODECOPY PUSH0 MLOAD SWAP1 PUSH0 MSTORE DUP2 LT DUP5 AND SWAP4 POP PUSH1 0x40 DUP3 PUSH1 0x60 DUP5 PUSH1 0x7 GAS STATICCALL DUP5 AND SWAP4 POP PUSH1 0x40 DUP4 PUSH1 0x80 DUP6 PUSH1 0x6 GAS STATICCALL DUP5 AND SWAP4 POP PUSH32 0x9888C24ABFB0F110A79C44E64C06E2D250D1B887585F3E90AA6AA4FF17072C9 DUP3 MSTORE PUSH32 0x18D69BD6BD7B75A7FB04DB5180C7A34529C87336370BDB323353A6ED31AA59B8 PUSH1 0x20 DUP4 ADD MSTORE PUSH1 0x80 DUP10 ADD CALLDATALOAD SWAP1 POP DUP1 PUSH1 0x40 DUP4 ADD MSTORE PUSH0 MLOAD PUSH1 0x20 PUSH2 0x1D46 PUSH0 CODECOPY PUSH0 MLOAD SWAP1 PUSH0 MSTORE DUP2 LT DUP5 AND SWAP4 POP PUSH1 0x40 DUP3 PUSH1 0x60 DUP5 PUSH1 0x7 GAS STATICCALL DUP5 AND SWAP4 POP PUSH1 0x40 DUP4 PUSH1 0x80 DUP6 PUSH1 0x6 GAS STATICCALL DUP5 AND SWAP4 POP PUSH32 0x12981DC688E37C182B36CE1BAE3710F2C10FB2D103847BB56D6559B7DE44FE76 DUP3 MSTORE PUSH32 0x194A3701487E0F227A8ADA3E61985569D92DE569146AEAAC2269566A5D2D987D PUSH1 0x20 DUP4 ADD MSTORE PUSH1 0xA0 DUP10 ADD CALLDATALOAD SWAP1 POP DUP1 PUSH1 0x40 DUP4 ADD MSTORE PUSH0 MLOAD PUSH1 0x20 PUSH2 0x1D46 PUSH0 CODECOPY PUSH0 MLOAD SWAP1 PUSH0 MSTORE DUP2 LT DUP5 AND SWAP4 POP PUSH1 0x40 DUP3 PUSH1 0x60 DUP5 PUSH1 0x7 GAS STATICCALL DUP5 AND SWAP4 POP PUSH1 0x40 DUP4 PUSH1 0x80 DUP6 PUSH1 0x6 GAS STATICCALL DUP5 AND SWAP4 POP PUSH32 0x1443C797A7FDF0739DEF6A1E97AF8A4E069DA0B27D9ADF17074AA20DE5FD73D DUP3 MSTORE PUSH32 0x1A2105196F3A41F1CB3A476950C3A1E8DFEC97CF35FBD0BE7A10C66DCE36D485 PUSH1 0x20 DUP4 ADD MSTORE PUSH1 0xC0 DUP10 ADD CALLDATALOAD SWAP1 POP DUP1 PUSH1 0x40 DUP4 ADD MSTORE PUSH0 MLOAD PUSH1 0x20 PUSH2 0x1D46 PUSH0 CODECOPY PUSH0 MLOAD SWAP1 PUSH0 MSTORE DUP2 LT DUP5 AND SWAP4 POP PUSH1 0x40 DUP3 PUSH1 0x60 DUP5 PUSH1 0x7 GAS STATICCALL DUP5 AND SWAP4 POP PUSH1 0x40 DUP4 PUSH1 0x80 DUP6 PUSH1 0x6 GAS STATICCALL DUP5 AND SWAP4 POP PUSH32 0x44EBCC29152C4E640D8314673C87B65890F7AD31F8B466B2FEE5E8987492F2E DUP3 MSTORE PUSH32 0x89349E5DE9D84107A7737206A19199A17FBEE86F4F2C762112B45FC195DADA7 PUSH1 0x20 DUP4 ADD MSTORE PUSH1 0xE0 DUP10 ADD CALLDATALOAD SWAP1 POP DUP1 PUSH1 0x40 DUP4 ADD MSTORE PUSH0 MLOAD PUSH1 0x20 PUSH2 0x1D46 PUSH0 CODECOPY PUSH0 MLOAD SWAP1 PUSH0 MSTORE DUP2 LT DUP5 AND SWAP4 POP PUSH1 0x40 DUP3 PUSH1 0x60 DUP5 PUSH1 0x7 GAS STATICCALL DUP5 AND SWAP4 POP PUSH1 0x40 DUP4 PUSH1 0x80 DUP6 PUSH1 0x6 GAS STATICCALL DUP5 AND SWAP4 POP PUSH32 0x189111CE67D6A0884ADF5102E1A952A33F299EF4BFFD6989F4F1F6F5B2D88204 DUP3 MSTORE PUSH32 0x73C3A024EDFFDBD09E1441588F9A270342B4BFAD0439E4916D9CB31963CCF36 PUSH1 0x20 DUP4 ADD MSTORE PUSH2 0x100 DUP10 ADD CALLDATALOAD SWAP1 POP DUP1 PUSH1 0x40 DUP4 ADD MSTORE PUSH0 MLOAD PUSH1 0x20 PUSH2 0x1D46 PUSH0 CODECOPY PUSH0 MLOAD SWAP1 PUSH0 MSTORE DUP2 LT DUP5 AND SWAP4 POP PUSH1 0x40 DUP3 PUSH1 0x60 DUP5 PUSH1 0x7 GAS STATICCALL DUP5 AND SWAP4 POP PUSH1 0x40 DUP4 PUSH1 0x80 DUP6 PUSH1 0x6 GAS STATICCALL DUP5 AND SWAP4 POP PUSH32 0x22666BC12092E505973668A6291C13D34527A4A1CC97AD746F66D29AF69BE519 DUP3 MSTORE PUSH32 0x12C46FFD30B663DF813CDDA4B434160156A5EB86961560579DF481CFB42A6D22 PUSH1 0x20 DUP4 ADD MSTORE PUSH2 0x120 DUP10 ADD CALLDATALOAD SWAP1 POP DUP1 PUSH1 0x40 DUP4 ADD MSTORE PUSH0 MLOAD PUSH1 0x20 PUSH2 0x1D46 PUSH0 CODECOPY PUSH0 MLOAD SWAP1 PUSH0 MSTORE DUP2 LT DUP5 AND SWAP4 POP PUSH1 0x40 DUP3 PUSH1 0x60 DUP5 PUSH1 0x7 GAS STATICCALL DUP5 AND SWAP4 POP PUSH1 0x40 DUP4 PUSH1 0x80 DUP6 PUSH1 0x6 GAS STATICCALL PUSH32 0x7AE2B84CD2AD8F4CDE91D68EBF1F07BF362B7ADBE0F071093927096C6F73D6B DUP4 MSTORE PUSH32 0x1BF427BC1F30CFB006F16A548BD7E0B7644A8D1ED9F095AAF4A74C70EF0EE1E5 PUSH1 0x20 DUP5 ADD MSTORE DUP9 MLOAD PUSH1 0x40 DUP1 DUP6 ADD DUP3 SWAP1 MSTORE PUSH0 MLOAD PUSH1 0x20 PUSH2 0x1D46 PUSH0 CODECOPY PUSH0 MLOAD SWAP1 PUSH0 MSTORE SWAP1 SWAP2 LT SWAP2 SWAP1 SWAP6 AND AND SWAP4 SWAP1 POP DUP2 PUSH1 0x60 DUP2 PUSH1 0x7 GAS STATICCALL DUP4 AND SWAP3 POP POP PUSH1 0x40 DUP2 PUSH1 0x80 DUP4 PUSH1 0x6 GAS STATICCALL DUP2 MLOAD PUSH1 0x20 SWAP1 SWAP3 ADD MLOAD SWAP2 SWAP5 POP SWAP1 SWAP3 POP AND DUP1 PUSH2 0x17CA JUMPI PUSH1 0x40 MLOAD PUSH4 0xA54F8E27 PUSH1 0xE0 SHL DUP2 MSTORE PUSH1 0x4 ADD PUSH1 0x40 MLOAD DUP1 SWAP2 SUB SWAP1 REVERT JUMPDEST POP SWAP4 POP SWAP4 SWAP2 POP POP JUMP JUMPDEST PUSH0 PUSH2 0x17FE DUP3 PUSH32 0xC19139CB84C680A6E14116DA060561765E05AA45A1C72A34F082305B61F3F52 PUSH2 0x19C8 JUMP JUMPDEST SWAP1 POP DUP2 PUSH0 MLOAD PUSH1 0x20 PUSH2 0x1D26 PUSH0 CODECOPY PUSH0 MLOAD SWAP1 PUSH0 MSTORE DUP3 DUP4 MULMOD EQ PUSH2 0x1830 JUMPI PUSH1 0x40 MLOAD PUSH4 0x1FF3747D PUSH1 0xE2 SHL DUP2 MSTORE PUSH1 0x4 ADD PUSH1 0x40 MLOAD DUP1 SWAP2 SUB SWAP1 REVERT JUMPDEST SWAP2 SWAP1 POP JUMP JUMPDEST PUSH0 MLOAD PUSH1 0x20 PUSH2 0x1D26 PUSH0 CODECOPY PUSH0 MLOAD SWAP1 PUSH0 MSTORE SWAP1 DUP2 SWAP1 MOD DUP2 SUB MOD SWAP1 JUMP JUMPDEST PUSH0 PUSH0 PUSH2 0x1879 DUP4 PUSH32 0xC19139CB84C680A6E14116DA060561765E05AA45A1C72A34F082305B61F3F52 PUSH2 0x19C8 JUMP JUMPDEST SWAP1 POP DUP3 PUSH0 MLOAD PUSH1 0x20 PUSH2 0x1D26 PUSH0 CODECOPY PUSH0 MLOAD SWAP1 PUSH0 MSTORE DUP3 DUP4 MULMOD EQ SWAP4 SWAP3 POP POP POP JUMP JUMPDEST PUSH0 DUP1 DUP1 PUSH2 0x18C4 PUSH0 MLOAD PUSH1 0x20 PUSH2 0x1D26 PUSH0 CODECOPY PUSH0 MLOAD SWAP1 PUSH0 MSTORE DUP1 DUP8 DUP9 MULMOD PUSH0 MLOAD PUSH1 0x20 PUSH2 0x1D26 PUSH0 CODECOPY PUSH0 MLOAD SWAP1 PUSH0 MSTORE DUP10 DUP11 MULMOD ADDMOD PUSH2 0x17D3 JUMP JUMPDEST SWAP1 POP DUP4 ISZERO PUSH2 0x18D8 JUMPI PUSH2 0x18D5 DUP2 PUSH2 0x1835 JUMP JUMPDEST SWAP1 POP JUMPDEST PUSH2 0x1921 PUSH0 MLOAD PUSH1 0x20 PUSH2 0x1D26 PUSH0 CODECOPY PUSH0 MLOAD SWAP1 PUSH0 MSTORE PUSH32 0x183227397098D014DC2822DB40C0AC2ECBC0B548B438E5469E10460B6C3E7EA4 PUSH0 MLOAD PUSH1 0x20 PUSH2 0x1D26 PUSH0 CODECOPY PUSH0 MLOAD SWAP1 PUSH0 MSTORE DUP5 DUP11 ADDMOD MULMOD PUSH2 0x17D3 JUMP JUMPDEST SWAP3 POP PUSH0 MLOAD PUSH1 0x20 PUSH2 0x1D26 PUSH0 CODECOPY PUSH0 MLOAD SWAP1 PUSH0 MSTORE PUSH2 0x194B PUSH0 MLOAD PUSH1 0x20 PUSH2 0x1D26 PUSH0 CODECOPY PUSH0 MLOAD SWAP1 PUSH0 MSTORE PUSH1 0x2 DUP7 MULMOD PUSH2 0x1A2B JUMP JUMPDEST DUP7 MULMOD SWAP2 POP PUSH0 MLOAD PUSH1 0x20 PUSH2 0x1D26 PUSH0 CODECOPY PUSH0 MLOAD SWAP1 PUSH0 MSTORE PUSH2 0x1976 PUSH0 MLOAD PUSH1 0x20 PUSH2 0x1D26 PUSH0 CODECOPY PUSH0 MLOAD SWAP1 PUSH0 MSTORE DUP5 DUP6 MULMOD PUSH2 0x1835 JUMP JUMPDEST PUSH0 MLOAD PUSH1 0x20 PUSH2 0x1D26 PUSH0 CODECOPY PUSH0 MLOAD SWAP1 PUSH0 MSTORE DUP6 DUP7 MULMOD ADDMOD DUP7 EQ ISZERO DUP1 PUSH2 0x19AA JUMPI POP PUSH0 MLOAD PUSH1 0x20 PUSH2 0x1D26 PUSH0 CODECOPY PUSH0 MLOAD SWAP1 PUSH0 MSTORE DUP1 DUP4 DUP6 MULMOD PUSH1 0x2 MULMOD DUP6 EQ ISZERO JUMPDEST ISZERO PUSH2 0x17CA JUMPI PUSH1 0x40 MLOAD PUSH4 0x1FF3747D PUSH1 0xE2 SHL DUP2 MSTORE PUSH1 0x4 ADD PUSH1 0x40 MLOAD DUP1 SWAP2 SUB SWAP1 REVERT JUMPDEST PUSH0 PUSH0 PUSH1 0x40 MLOAD PUSH1 0x20 DUP2 MSTORE PUSH1 0x20 DUP1 DUP3 ADD MSTORE PUSH1 0x20 PUSH1 0x40 DUP3 ADD MSTORE DUP5 PUSH1 0x60 DUP3 ADD MSTORE DUP4 PUSH1 0x80 DUP3 ADD MSTORE PUSH0 MLOAD PUSH1 0x20 PUSH2 0x1D26 PUSH0 CODECOPY PUSH0 MLOAD SWAP1 PUSH0 MSTORE PUSH1 0xA0 DUP3 ADD MSTORE PUSH1 0x20 DUP2 PUSH1 0xC0 DUP4 PUSH1 0x5 GAS STATICCALL SWAP1 MLOAD SWAP3 POP SWAP1 POP DUP1 PUSH2 0xC1B JUMPI PUSH1 0x40 MLOAD PUSH4 0x1FF3747D PUSH1 0xE2 SHL DUP2 MSTORE PUSH1 0x4 ADD PUSH1 0x40 MLOAD DUP1 SWAP2 SUB SWAP1 REVERT JUMPDEST PUSH0 PUSH2 0x1A56 DUP3 PUSH32 0x30644E72E131A029B85045B68181585D97816A916871CA8D3C208C16D87CFD45 PUSH2 0x19C8 JUMP JUMPDEST SWAP1 POP PUSH0 MLOAD PUSH1 0x20 PUSH2 0x1D26 PUSH0 CODECOPY PUSH0 MLOAD SWAP1 PUSH0 MSTORE DUP2 DUP4 MULMOD PUSH1 0x1 EQ PUSH2 0x1830 JUMPI PUSH1 0x40 MLOAD PUSH4 0x1FF3747D PUSH1 0xE2 SHL DUP2 MSTORE PUSH1 0x4 ADD PUSH1 0x40 MLOAD DUP1 SWAP2 SUB SWAP1 REVERT JUMPDEST PUSH1 0x40 MLOAD DUP1 PUSH1 0x80 ADD PUSH1 0x40 MSTORE DUP1 PUSH1 0x4 SWAP1 PUSH1 0x20 DUP3 MUL DUP1 CALLDATASIZE DUP4 CALLDATACOPY POP SWAP2 SWAP3 SWAP2 POP POP JUMP JUMPDEST PUSH1 0x40 MLOAD DUP1 PUSH1 0x20 ADD PUSH1 0x40 MSTORE DUP1 PUSH1 0x1 SWAP1 PUSH1 0x20 DUP3 MUL DUP1 CALLDATASIZE DUP4 CALLDATACOPY POP SWAP2 SWAP3 SWAP2 POP POP JUMP JUMPDEST PUSH1 0x40 MLOAD DUP1 PUSH1 0x40 ADD PUSH1 0x40 MSTORE DUP1 PUSH1 0x2 SWAP1 PUSH1 0x20 DUP3 MUL DUP1 CALLDATASIZE DUP4 CALLDATACOPY POP SWAP2 SWAP3 SWAP2 POP POP JUMP JUMPDEST PUSH1 0x40 MLOAD DUP1 PUSH2 0x300 ADD PUSH1 0x40 MSTORE DUP1 PUSH1 0x18 SWAP1 PUSH1 0x20 DUP3 MUL DUP1 CALLDATASIZE DUP4 CALLDATACOPY POP SWAP2 SWAP3 SWAP2 POP POP JUMP JUMPDEST DUP1 PUSH2 0x100 DUP2 ADD DUP4 LT ISZERO PUSH2 0xC1D JUMPI PUSH0 PUSH0 REVERT JUMPDEST DUP1 PUSH1 0x40 DUP2 ADD DUP4 LT ISZERO PUSH2 0xC1D JUMPI PUSH0 PUSH0 REVERT JUMPDEST PUSH0 PUSH0 PUSH0 PUSH2 0x180 DUP5 DUP7 SUB SLT ISZERO PUSH2 0x1B36 JUMPI PUSH0 PUSH0 REVERT JUMPDEST PUSH2 0x1B40 DUP6 DUP6 PUSH2 0x1B02 JUMP JUMPDEST SWAP3 POP PUSH2 0x1B50 DUP6 PUSH2 0x100 DUP7 ADD PUSH2 0x1B13 JUMP JUMPDEST SWAP2 POP PUSH2 0x1B60 DUP6 PUSH2 0x140 DUP7 ADD PUSH2 0x1B13 JUMP JUMPDEST SWAP1 POP SWAP3 POP SWAP3 POP SWAP3 JUMP JUMPDEST PUSH1 0xC0 DUP2 ADD DUP2 DUP6 PUSH0 JUMPDEST PUSH1 0x4 DUP2 LT ISZERO PUSH2 0x1B90 JUMPI DUP2 MLOAD DUP4 MSTORE PUSH1 0x20 SWAP3 DUP4 ADD SWAP3 SWAP1 SWAP2 ADD SWAP1 PUSH1 0x1 ADD PUSH2 0x1B71 JUMP JUMPDEST POP POP POP PUSH1 0x80 DUP3 ADD DUP5 PUSH0 JUMPDEST PUSH1 0x1 DUP2 LT ISZERO PUSH2 0x1BB9 JUMPI DUP2 MLOAD DUP4 MSTORE PUSH1 0x20 SWAP3 DUP4 ADD SWAP3 SWAP1 SWAP2 ADD SWAP1 PUSH1 0x1 ADD PUSH2 0x1B9A JUMP JUMPDEST POP POP POP DUP3 PUSH1 0xA0 DUP4 ADD MSTORE SWAP5 SWAP4 POP POP POP POP JUMP JUMPDEST DUP1 PUSH2 0x140 DUP2 ADD DUP4 LT ISZERO PUSH2 0xC1D JUMPI PUSH0 PUSH0 REVERT JUMPDEST PUSH0 PUSH0 PUSH0 PUSH0 PUSH2 0x200 DUP6 DUP8 SUB SLT ISZERO PUSH2 0x1BEF JUMPI PUSH0 PUSH0 REVERT JUMPDEST PUSH1 0x80 DUP6 ADD DUP7 DUP2 GT ISZERO PUSH2 0x1BFF JUMPI PUSH0 PUSH0 REVERT JUMPDEST DUP6 SWAP5 POP PUSH1 0xA0 DUP7 ADD DUP8 DUP2 GT ISZERO PUSH2 0x1C12 JUMPI PUSH0 PUSH0 REVERT JUMPDEST SWAP1 SWAP4 POP CALLDATALOAD SWAP2 POP PUSH2 0x1C25 DUP7 PUSH1 0xC0 DUP8 ADD PUSH2 0x1BCA JUMP JUMPDEST SWAP1 POP SWAP3 SWAP6 SWAP2 SWAP5 POP SWAP3 POP JUMP JUMPDEST PUSH0 PUSH0 PUSH0 PUSH0 PUSH2 0x2C0 DUP6 DUP8 SUB SLT ISZERO PUSH2 0x1C44 JUMPI PUSH0 PUSH0 REVERT JUMPDEST PUSH2 0x1C4E DUP7 DUP7 PUSH2 0x1B02 JUMP JUMPDEST SWAP4 POP PUSH2 0x1C5E DUP7 PUSH2 0x100 DUP8 ADD PUSH2 0x1B13 JUMP JUMPDEST SWAP3 POP PUSH2 0x1C6E DUP7 PUSH2 0x140 DUP8 ADD PUSH2 0x1B13 JUMP JUMPDEST SWAP2 POP PUSH2 0x1C25 DUP7 PUSH2 0x180 DUP8 ADD PUSH2 0x1BCA JUMP JUMPDEST PUSH4 0x4E487B71 PUSH1 0xE0 SHL PUSH0 MSTORE PUSH1 0x32 PUSH1 0x4 MSTORE PUSH1 0x24 PUSH0 REVERT JUMPDEST DUP4 DUP2 MSTORE DUP3 PUSH1 0x20 DUP3 ADD MSTORE PUSH0 PUSH1 0x40 DUP3 ADD DUP4 MLOAD PUSH1 0x20 DUP6 ADD PUSH0 JUMPDEST DUP3 DUP2 LT ISZERO PUSH2 0x1CC6 JUMPI DUP2 MLOAD DUP5 MSTORE PUSH1 0x20 SWAP4 DUP5 ADD SWAP4 SWAP1 SWAP2 ADD SWAP1 PUSH1 0x1 ADD PUSH2 0x1CA8 JUMP JUMPDEST POP SWAP2 SWAP8 SWAP7 POP POP POP POP POP POP POP JUMP JUMPDEST PUSH4 0x4E487B71 PUSH1 0xE0 SHL PUSH0 MSTORE PUSH1 0x12 PUSH1 0x4 MSTORE PUSH1 0x24 PUSH0 REVERT JUMPDEST PUSH0 DUP3 PUSH2 0x1D01 JUMPI PUSH4 0x4E487B71 PUSH1 0xE0 SHL PUSH0 MSTORE PUSH1 0x12 PUSH1 0x4 MSTORE PUSH1 0x24 PUSH0 REVERT JUMPDEST POP MOD SWAP1 JUMP JUMPDEST DUP2 DUP2 SUB DUP2 DUP2 GT ISZERO PUSH2 0xC1D JUMPI PUSH4 0x4E487B71 PUSH1 0xE0 SHL PUSH0 MSTORE PUSH1 0x11 PUSH1 0x4 MSTORE PUSH1 0x24 PUSH0 REVERT INVALID ADDRESS PUSH5 0x4E72E131A0 0x29 0xB8 POP GASLIMIT 0xB6 DUP2 DUP2 PC TSTORE SWAP8 DUP2 PUSH11 0x916871CA8D3C208C16D87C REVERT SELFBALANCE ADDRESS PUSH5 0x4E72E131A0 0x29 0xB8 POP GASLIMIT 0xB6 DUP2 DUP2 PC TSTORE 0x28 CALLER 0xE8 BASEFEE PUSH26 0xB9709143E1F593F0000001A26469706673582212205515F061E1 MUL MLOAD SDIV DUP15 SWAP13 ADDMOD 0xB2 DUP2 0x25 CALLER CALL PUSH21 0xFE8206C300D563D8FDD38D30CA2D3F64736F6C6343 STOP ADDMOD SHR STOP CALLER "},"methodIdentifiers":{"compressProof(uint256[8],uint256[2],uint256[2])":"b1c3a00e","verifyCompressedProof(uint256[4],uint256[1],uint256,uint256[10])":"dc37819a","verifyProof(uint256[8],uint256[2],uint256[2],uint256[10])":"df078bef"}}}}}