{"src/verifiers/StateTransitionVerifierGroth16.sol":{"StateTransitionVerifierGroth16":{"abi":[{"inputs":[],"name":"CommitmentInvalid","type":"error"},{"inputs":[],"name":"ProofInvalid","type":"error"},{"inputs":[],"name":"PublicInputNotInField","type":"error"},{"inputs":[{"internalType":"uint256[8]","name":"proof","type":"uint256[8]"},{"internalType":"uint256[2]","name":"commitments","type":"uint256[2]"},{"internalType":"uint256[2]","name":"commitmentPok","type":"uint256[2]"}],"name":"compressProof","outputs":[{"internalType":"uint256[4]","name":"compressed","type":"uint256[4]"},{"internalType":"uint256[1]","name":"compressedCommitments","type":"uint256[1]"},{"internalType":"uint256","name":"compressedCommitmentPok","type":"uint256"}],"stateMutability":"view","type":"function"},{"inputs":[],"name":"provingKeyHash","outputs":[{"internalType":"bytes32","name":"","type":"bytes32"}],"stateMutability":"pure","type":"function"},{"inputs":[{"internalType":"uint256[4]","name":"compressedProof","type":"uint256[4]"},{"internalType":"uint256[1]","name":"compressedCommitments","type":"uint256[1]"},{"internalType":"uint256","name":"compressedCommitmentPok","type":"uint256"},{"internalType":"uint256[10]","name":"input","type":"uint256[10]"}],"name":"verifyCompressedProof","outputs":[],"stateMutability":"view","type":"function"},{"inputs":[{"internalType":"bytes","name":"_proof","type":"bytes"},{"internalType":"bytes","name":"_input","type":"bytes"}],"name":"verifyProof","outputs":[],"stateMutability":"view","type":"function"},{"inputs":[{"internalType":"uint256[8]","name":"proof","type":"uint256[8]"},{"internalType":"uint256[2]","name":"commitments","type":"uint256[2]"},{"internalType":"uint256[2]","name":"commitmentPok","type":"uint256[2]"},{"internalType":"uint256[10]","name":"input","type":"uint256[10]"}],"name":"verifyProof","outputs":[],"stateMutability":"view","type":"function"}],"evm":{"bytecode":{"linkReferences":{},"object":"6080604052348015600e575f5ffd5b506122838061001c5f395ff3fe608060405234801561000f575f5ffd5b5060043610610055575f3560e01c8063233ace1114610059578063b1c3a00e1461008c578063b8e72af6146100ae578063dc37819a146100c3578063df078bef146100d6575b5f5ffd5b6040517f037d0059bf0a6c47974904c57de1b2559183125bf0c26ea94efb503c164bf8da81526020015b60405180910390f35b61009f61009a366004611c7e565b6100e9565b60405161008393929190611cc4565b6100c16100bc366004611d6a565b610171565b005b6100c16100d1366004611de7565b6101f3565b6100c16100e4366004611e3c565b61075f565b6100f1611ba6565b6100f9611bc4565b5f61010d86358760015b6020020135610c0b565b835261012b6060870135604088013560a089013560808a0135610cf8565b6020850152604084015261014560c0870135876007610103565b60608401526101578535866001610103565b82526101668435856001610103565b905093509350939050565b5f5f5f61017e8787610fd1565b9250925092505f61018f8686611002565b505060405163df078bef60e01b8152909150309063df078bef906101bd908790879087908790600401611ec6565b5f6040518083038186803b1580156101d3575f5ffd5b505afa1580156101e5573d5f5f3e3d5ffd5b505050505050505050505050565b6101fb611bc4565b610203611be2565b61020b611c00565b61021b865f5b6020020135611019565b602084015282525f8061022d87611019565b60408051600580825260c08201909252929450909250606091906020820160a080368337019050509050602080820190604089018237608060c0890160208301375084516020808701516040515f51602061222e5f395f51905f529361029893909291869101611f54565b604051602081830303815290604052805190602001205f1c6102ba9190611fa9565b865284518452602085810151858201527f08480e99474689ed895e0f83b2c28bc234b7c86bb7c5cf322c2cc29362fb48ad6040808701919091527f06170922dfcf55190a392089203c49b03a237f16c28b822a27acba4f2af24eb460608701527f0d5c11ef1d50d15154301c075f3b7893e2fb98d3ed90b15ac96f51552e5c36ac60808701527f071e1f97309edb22456d11f96e2c6718c7d525bfd35fb13125d854bf927a4a4e60a087015260c0860185905260e086018490527f131443a740e68b693e0b637c8cf26808f65425688ffc3ff9a10abdd47a3bfd906101008701527f1a78fae6054a26f8a53f21ec8c056d4d7eef33931f728103e40a766e81256c526101208701527f0eccc78a9e3b7fcc9d605d6e8df148ee93f85550c25dded759a6d35503cae1eb6101408701527f1f29f1a675c809bc3c705bedff15fbb9bddc5aad42d64ae858ab8c300dc96ff0610160870152515f91816101808860085afa90511690508061043f576040516351d49ff760e11b815260040160405180910390fd5b505050505f5f61045a895f6004811061021157610211611e8a565b90925090505f80808061047560408e013560208f01356110b8565b929650909450925090505f8061048c8f6003610211565b915091505f5f61049d8e8e8e61128c565b8b8d5260208d018b905260408d0189905260608d018a905260808d0187905260a08d0188905260c08d0186905260e08d018590527f1ad227eb2f384e9075cc8ed2018117556ca911e50fb867ba5958f1838833d4fd6101008e01527f25a7fed94b8b55821dcec4da0f0f38217b4307eb275f054de637d8736b96beb46101208e01527f100cfe015e2bff9e7592d4e475dbdc4b72b49bfb4c7cd48bf5abb2d15a371fdd6101408e01527f23043b3c22a4f942c457bc902c3c84f429346d9aeda87031948091a363d38db76101608e01527f264858f744d06905279fd6899b94ffb20bc3650dbf31b28f5e9b3d07c1f591a16101808e01527f2d3f129bf66575378f39effb18d0353a3582ccb27679f27dcbe6ce31fb56bf366101a08e01527f225f334f71fda2c050fabf3fe222568f134e00efdb6fec322f799cdc646266c66101c08e01527f05b90cfdc2e85b5777b23d7e37cac69ef33e85055021e423fd838574a87485646101e08e01527f07cac0db8e4604ec86e5b568f91dcf4e6ae645f437c548e07af2ab319aa375de6102008e01527f139553512b424d5db0fb8a6a81c48da0175433b34dbfb7909d20c89f1761d02a6102208e01526102408d018290526102608d018190527f08e3127cddee1e6633c965f4a96a2bf9604fcc0c6e394940688c66baad53e7b96102808e01527e796bf3d2b960e7699e4d44a325ce5405527b23ded7926746817113f9b6b3846102a08e01527f23a3f24661e90135bfda3b65a2e8a1b7bc4b3be9229dd3db008215c6a2ff3e376102c08e01527f02ce17e16de452fdf75d8a97c065075bb5a269cc1addaf930311c0665610ec1c6102e08e015290925090505f610710611bc4565b6020816103008f60085afa915081158061072c57508051600114155b1561074a57604051631ff3747d60e21b815260040160405180910390fd5b50505050505050505050505050505050505050565b610767611bc4565b60408051600580825260c082019092526060916020820160a080368337019050509050602080820190604085018237608060c085016020830137506040515f51602061222e5f395f51905f52906107ca908735906020808a013591869101611f54565b604051602081830303815290604052805190602001205f1c6107ec9190611fa9565b8252604080515f918782377f08480e99474689ed895e0f83b2c28bc234b7c86bb7c5cf322c2cc29362fb48ad60408201527f06170922dfcf55190a392089203c49b03a237f16c28b822a27acba4f2af24eb460608201527f0d5c11ef1d50d15154301c075f3b7893e2fb98d3ed90b15ac96f51552e5c36ac60808201527f071e1f97309edb22456d11f96e2c6718c7d525bfd35fb13125d854bf927a4a4e60a082015260408660c08301377f131443a740e68b693e0b637c8cf26808f65425688ffc3ff9a10abdd47a3bfd906101008201527f1a78fae6054a26f8a53f21ec8c056d4d7eef33931f728103e40a766e81256c526101208201527f0eccc78a9e3b7fcc9d605d6e8df148ee93f85550c25dded759a6d35503cae1eb6101408201527f1f29f1a675c809bc3c705bedff15fbb9bddc5aad42d64ae858ab8c300dc96ff06101608201526020816101808360085afa905116905080610961576040516351d49ff760e11b815260040160405180910390fd5b5f5f61099686868a60028060200260405190810160405280929190826002602002808284375f9201919091525061128c915050565b915091506040516101008a82377f1ad227eb2f384e9075cc8ed2018117556ca911e50fb867ba5958f1838833d4fd6101008201527f25a7fed94b8b55821dcec4da0f0f38217b4307eb275f054de637d8736b96beb46101208201527f100cfe015e2bff9e7592d4e475dbdc4b72b49bfb4c7cd48bf5abb2d15a371fdd6101408201527f23043b3c22a4f942c457bc902c3c84f429346d9aeda87031948091a363d38db76101608201527f264858f744d06905279fd6899b94ffb20bc3650dbf31b28f5e9b3d07c1f591a16101808201527f2d3f129bf66575378f39effb18d0353a3582ccb27679f27dcbe6ce31fb56bf366101a08201527f225f334f71fda2c050fabf3fe222568f134e00efdb6fec322f799cdc646266c66101c08201527f05b90cfdc2e85b5777b23d7e37cac69ef33e85055021e423fd838574a87485646101e08201527f07cac0db8e4604ec86e5b568f91dcf4e6ae645f437c548e07af2ab319aa375de6102008201527f139553512b424d5db0fb8a6a81c48da0175433b34dbfb7909d20c89f1761d02a61022082015282610240820152816102608201527f08e3127cddee1e6633c965f4a96a2bf9604fcc0c6e394940688c66baad53e7b96102808201527e796bf3d2b960e7699e4d44a325ce5405527b23ded7926746817113f9b6b3846102a08201527f23a3f24661e90135bfda3b65a2e8a1b7bc4b3be9229dd3db008215c6a2ff3e376102c08201527f02ce17e16de452fdf75d8a97c065075bb5a269cc1addaf930311c0665610ec1c6102e08201526020816103008360085afa905116925082610c0057604051631ff3747d60e21b815260040160405180910390fd5b505050505050505050565b5f5f51602061220e5f395f51905f5283101580610c3557505f51602061220e5f395f51905f528210155b15610c5357604051631ff3747d60e21b815260040160405180910390fd5b82158015610c5f575081155b15610c6b57505f610cf2565b5f610ca65f51602061220e5f395f51905f5260035f51602061220e5f395f51905f52875f51602061220e5f395f51905f52898a0909086118f0565b9050808303610cbb575050600182901b610cf2565b610cc481611952565b8303610cd7575050600182811b17610cf2565b604051631ff3747d60e21b815260040160405180910390fd5b505b92915050565b5f5f5f51602061220e5f395f51905f5286101580610d2357505f51602061220e5f395f51905f528510155b80610d3b57505f51602061220e5f395f51905f528410155b80610d5357505f51602061220e5f395f51905f528310155b15610d7157604051631ff3747d60e21b815260040160405180910390fd5b828486881717175f03610d8857505f905080610fc8565b5f80805f51602061220e5f395f51905f52610db160035f51602061220e5f395f51905f52611fc8565b5f51602061220e5f395f51905f528a8c090990505f5f51602061220e5f395f51905f528a5f51602061220e5f395f51905f528c8d090990505f5f51602061220e5f395f51905f528a5f51602061220e5f395f51905f528c8d090990505f51602061220e5f395f51905f52805f51602061220e5f395f51905f528c860984087f2b149d40ceb8aaae81be18991be06ac3b5b4c5e559dbefa33267e6dc24a138e5089450610e9f5f51602061220e5f395f51905f52805f51602061220e5f395f51905f528e870984087f2fcd3ac2a640a154eb23960892a85a68f031ca0c8344b23a577dcf1052b9e77508611952565b93505050505f5f610eec5f51602061220e5f395f51905f5280610ec457610ec4611f95565b5f51602061220e5f395f51905f528586095f51602061220e5f395f51905f52878809086118f0565b9050610f375f51602061220e5f395f51905f527f183227397098d014dc2822db40c0ac2ecbc0b548b438e5469e10460b6c3e7ea45f51602061220e5f395f51905f528488080961196a565b15915050610f468383836119b2565b90935091508683148015610f5957508186145b15610f815780610f69575f610f6c565b60025b60ff1660028a901b175f179450879350610fc4565b610f8a83611952565b87148015610f9f5750610f9c82611952565b86145b15610cd75780610faf575f610fb2565b60025b60ff1660028a901b1760011794508793505b5050505b94509492505050565b610fd9611c1f565b610fe1611be2565b610fe9611be2565b610ff58486018661206a565b9250925092509250925092565b61100a611c3e565b606080610ff584860186612155565b5f5f825f0361102c57505f928392509050565b600183811c9250808416145f51602061220e5f395f51905f52831061106457604051631ff3747d60e21b815260040160405180910390fd5b61109e5f51602061220e5f395f51905f5260035f51602061220e5f395f51905f52865f51602061220e5f395f51905f5288890909086118f0565b915080156110b2576110af82611952565b91505b50915091565b5f808080851580156110c8575084155b156110dd57505f925082915081905080611283565b600286811c945085935060018088161490808816145f51602061220e5f395f51905f528610158061111b57505f51602061220e5f395f51905f528510155b1561113957604051631ff3747d60e21b815260040160405180910390fd5b5f5f51602061220e5f395f51905f5261116060035f51602061220e5f395f51905f52611fc8565b5f51602061220e5f395f51905f52888a090990505f5f51602061220e5f395f51905f52885f51602061220e5f395f51905f528a8b090990505f5f51602061220e5f395f51905f52885f51602061220e5f395f51905f528a8b090990505f51602061220e5f395f51905f52805f51602061220e5f395f51905f528a860984087f2b149d40ceb8aaae81be18991be06ac3b5b4c5e559dbefa33267e6dc24a138e508965061124e5f51602061220e5f395f51905f52805f51602061220e5f395f51905f528c870984087f2fcd3ac2a640a154eb23960892a85a68f031ca0c8344b23a577dcf1052b9e77508611952565b955061125b8787866119b2565b9097509550841561127d5761126f87611952565b965061127a86611952565b95505b50505050505b92959194509250565b5f5f5f60019050604051604081015f7f0abda91b93553fab611cf205f43c4929e13a29664c6f6b1cb87887cf7a97110983527f182dea6934668a65e4acb3f18ea50e200b4ca22d442481345ffb3b278390b36d6020840152865182526020870151602083015260408360808560065afa841693507f18cc51b23cf3b98e5c65b2a986b2cb28514cfeda4b10b0f2a65fcbf9ae2043ff82527f091a495b3fde8e4359617a338fe3d16a4df8247a2fcca7ea63b115441228abd36020830152883590508060408301525f51602061222e5f395f51905f5281108416935060408260608460075afa8416935060408360808560065afa841693507f2280b99a402eefd18fbec5c574ecc59541426f9d871d5d8645a3ccd8471ceb5982527f04bfcb74ee48d715ef2c565d838a694697ac445f10d92a5f43409ebdd33e081e6020830152602089013590508060408301525f51602061222e5f395f51905f5281108416935060408260608460075afa8416935060408360808560065afa841693507f18702af999fdfb084ab374ed64b8ee09935b2fe45a31a2beb44ed4d780bc63ac82527f1f337daff338e14a7763cd02b766d27f7d4baa07922c5a8aafe91d22b111761a6020830152604089013590508060408301525f51602061222e5f395f51905f5281108416935060408260608460075afa8416935060408360808560065afa841693507f172545bf99daf78b18f069c42b0beded5407c5905ce473a4a06ba3aab21a1e8582527f2fedd2c2905a78068d502c39b494c19c94b2f8b1c67f566116cce2166eb0fdc76020830152606089013590508060408301525f51602061222e5f395f51905f5281108416935060408260608460075afa8416935060408360808560065afa841693507f09888c24abfb0f110a79c44e64c06e2d250d1b887585f3e90aa6aa4ff17072c982527f18d69bd6bd7b75a7fb04db5180c7a34529c87336370bdb323353a6ed31aa59b86020830152608089013590508060408301525f51602061222e5f395f51905f5281108416935060408260608460075afa8416935060408360808560065afa841693507f12981dc688e37c182b36ce1bae3710f2c10fb2d103847bb56d6559b7de44fe7682527f194a3701487e0f227a8ada3e61985569d92de569146aeaac2269566a5d2d987d602083015260a089013590508060408301525f51602061222e5f395f51905f5281108416935060408260608460075afa8416935060408360808560065afa841693507f01443c797a7fdf0739def6a1e97af8a4e069da0b27d9adf17074aa20de5fd73d82527f1a2105196f3a41f1cb3a476950c3a1e8dfec97cf35fbd0be7a10c66dce36d485602083015260c089013590508060408301525f51602061222e5f395f51905f5281108416935060408260608460075afa8416935060408360808560065afa841693507f044ebcc29152c4e640d8314673c87b65890f7ad31f8b466b2fee5e8987492f2e82527f089349e5de9d84107a7737206a19199a17fbee86f4f2c762112b45fc195dada7602083015260e089013590508060408301525f51602061222e5f395f51905f5281108416935060408260608460075afa8416935060408360808560065afa841693507f189111ce67d6a0884adf5102e1a952a33f299ef4bffd6989f4f1f6f5b2d8820482527f073c3a024edffdbd09e1441588f9a270342b4bfad0439e4916d9cb31963ccf36602083015261010089013590508060408301525f51602061222e5f395f51905f5281108416935060408260608460075afa8416935060408360808560065afa841693507f22666bc12092e505973668a6291c13d34527a4a1cc97ad746f66d29af69be51982527f12c46ffd30b663df813cdda4b434160156a5eb86961560579df481cfb42a6d22602083015261012089013590508060408301525f51602061222e5f395f51905f5281108416935060408260608460075afa8416935060408360808560065afa7f07ae2b84cd2ad8f4cde91d68ebf1f07bf362b7adbe0f071093927096c6f73d6b83527f1bf427bc1f30cfb006f16a548bd7e0b7644a8d1ed9f095aaf4a74c70ef0ee1e56020840152885160408085018290525f51602061222e5f395f51905f5290911091909516169390508160608160075afa831692505060408160808360065afa815160209092015191945090925016806118e75760405163a54f8e2760e01b815260040160405180910390fd5b50935093915050565b5f61191b827f0c19139cb84c680a6e14116da060561765e05aa45a1c72a34f082305b61f3f52611ae5565b9050815f51602061220e5f395f51905f528283091461194d57604051631ff3747d60e21b815260040160405180910390fd5b919050565b5f51602061220e5f395f51905f529081900681030690565b5f5f611996837f0c19139cb84c680a6e14116da060561765e05aa45a1c72a34f082305b61f3f52611ae5565b9050825f51602061220e5f395f51905f52828309149392505050565b5f80806119e15f51602061220e5f395f51905f52808788095f51602061220e5f395f51905f52898a09086118f0565b905083156119f5576119f281611952565b90505b611a3e5f51602061220e5f395f51905f527f183227397098d014dc2822db40c0ac2ecbc0b548b438e5469e10460b6c3e7ea45f51602061220e5f395f51905f52848a08096118f0565b92505f51602061220e5f395f51905f52611a685f51602061220e5f395f51905f5260028609611b48565b860991505f51602061220e5f395f51905f52611a935f51602061220e5f395f51905f52848509611952565b5f51602061220e5f395f51905f528586090886141580611ac757505f51602061220e5f395f51905f52808385096002098514155b156118e757604051631ff3747d60e21b815260040160405180910390fd5b5f5f60405160208152602080820152602060408201528460608201528360808201525f51602061220e5f395f51905f5260a082015260208160c08360055afa90519250905080610cf057604051631ff3747d60e21b815260040160405180910390fd5b5f611b73827f30644e72e131a029b85045b68181585d97816a916871ca8d3c208c16d87cfd45611ae5565b90505f51602061220e5f395f51905f5281830960011461194d57604051631ff3747d60e21b815260040160405180910390fd5b60405180608001604052806004906020820280368337509192915050565b60405180602001604052806001906020820280368337509192915050565b60405180604001604052806002906020820280368337509192915050565b6040518061030001604052806018906020820280368337509192915050565b6040518061010001604052806008906020820280368337509192915050565b604051806101400160405280600a906020820280368337509192915050565b806101008101831015610cf2575f5ffd5b8060408101831015610cf2575f5ffd5b5f5f5f6101808486031215611c91575f5ffd5b611c9b8585611c5d565b9250611cab856101008601611c6e565b9150611cbb856101408601611c6e565b90509250925092565b60c0810181855f5b6004811015611ceb578151835260209283019290910190600101611ccc565b50505060808201845f5b6001811015611d14578151835260209283019290910190600101611cf5565b5050508260a0830152949350505050565b5f5f83601f840112611d35575f5ffd5b50813567ffffffffffffffff811115611d4c575f5ffd5b602083019150836020828501011115611d63575f5ffd5b9250929050565b5f5f5f5f60408587031215611d7d575f5ffd5b843567ffffffffffffffff811115611d93575f5ffd5b611d9f87828801611d25565b909550935050602085013567ffffffffffffffff811115611dbe575f5ffd5b611dca87828801611d25565b95989497509550505050565b806101408101831015610cf2575f5ffd5b5f5f5f5f6102008587031215611dfb575f5ffd5b6080850186811115611e0b575f5ffd5b85945060a0860187811115611e1e575f5ffd5b909350359150611e318660c08701611dd6565b905092959194509250565b5f5f5f5f6102c08587031215611e50575f5ffd5b611e5a8686611c5d565b9350611e6a866101008701611c6e565b9250611e7a866101408701611c6e565b9150611e31866101808701611dd6565b634e487b7160e01b5f52603260045260245ffd5b805f5b6002811015611ec0578151845260209384019390910190600101611ea1565b50505050565b6102c0810181865f5b6008811015611eee578151835260209283019290910190600101611ecf565b505050611eff610100830186611e9e565b611f0d610140830185611e9e565b6101808201835f5b600a811015611f34578151835260209283019290910190600101611f15565b50505095945050505050565b634e487b7160e01b5f52604160045260245ffd5b8381528260208201525f604082018351602085015f5b82811015611f88578151845260209384019390910190600101611f6a565b5091979650505050505050565b634e487b7160e01b5f52601260045260245ffd5b5f82611fc357634e487b7160e01b5f52601260045260245ffd5b500690565b81810381811115610cf257634e487b7160e01b5f52601160045260245ffd5b604051601f8201601f1916810167ffffffffffffffff8111828210171561201057612010611f40565b604052919050565b5f82601f830112612027575f5ffd5b5f6120326040611fe7565b9050806040840185811115612045575f5ffd5b845b8181101561205f578035835260209283019201612047565b509195945050505050565b5f5f5f610180848603121561207d575f5ffd5b5f85601f86011261208c575f5ffd5b505f8061010061209b81611fe7565b92508291508601878111156120ae575f5ffd5b865b818110156120c85780358452602093840193016120b0565b508195506120d68882612018565b9450505050611cbb856101408601612018565b5f82601f8301126120f8575f5ffd5b813567ffffffffffffffff81111561211257612112611f40565b612125601f8201601f1916602001611fe7565b818152846020838601011115612139575f5ffd5b816020850160208301375f918101602001919091529392505050565b5f5f5f6101808486031215612168575f5ffd5b5f85601f860112612177575f5ffd5b505f8061014061218681611fe7565b9250829150860187811115612199575f5ffd5b865b818110156121b357803584526020938401930161219b565b5090945035905067ffffffffffffffff8111156121ce575f5ffd5b6121da868287016120e9565b92505061016084013567ffffffffffffffff8111156121f7575f5ffd5b612203868287016120e9565b915050925092509256fe30644e72e131a029b85045b68181585d97816a916871ca8d3c208c16d87cfd4730644e72e131a029b85045b68181585d2833e84879b9709143e1f593f0000001a26469706673582212200cbadece0a5dfa93c261112f07442f917c251e8755256b55dd86038722b8222964736f6c634300081c0033","opcodes":"PUSH1 0x80 PUSH1 0x40 MSTORE CALLVALUE DUP1 ISZERO PUSH1 0xE JUMPI PUSH0 PUSH0 REVERT JUMPDEST POP PUSH2 0x2283 DUP1 PUSH2 0x1C PUSH0 CODECOPY PUSH0 RETURN INVALID PUSH1 0x80 PUSH1 0x40 MSTORE CALLVALUE DUP1 ISZERO PUSH2 0xF JUMPI PUSH0 PUSH0 REVERT JUMPDEST POP PUSH1 0x4 CALLDATASIZE LT PUSH2 0x55 JUMPI PUSH0 CALLDATALOAD PUSH1 0xE0 SHR DUP1 PUSH4 0x233ACE11 EQ PUSH2 0x59 JUMPI DUP1 PUSH4 0xB1C3A00E EQ PUSH2 0x8C JUMPI DUP1 PUSH4 0xB8E72AF6 EQ PUSH2 0xAE JUMPI DUP1 PUSH4 0xDC37819A EQ PUSH2 0xC3 JUMPI DUP1 PUSH4 0xDF078BEF EQ PUSH2 0xD6 JUMPI JUMPDEST PUSH0 PUSH0 REVERT JUMPDEST PUSH1 0x40 MLOAD PUSH32 0x37D0059BF0A6C47974904C57DE1B2559183125BF0C26EA94EFB503C164BF8DA DUP2 MSTORE PUSH1 0x20 ADD JUMPDEST PUSH1 0x40 MLOAD DUP1 SWAP2 SUB SWAP1 RETURN JUMPDEST PUSH2 0x9F PUSH2 0x9A CALLDATASIZE PUSH1 0x4 PUSH2 0x1C7E JUMP JUMPDEST PUSH2 0xE9 JUMP JUMPDEST PUSH1 0x40 MLOAD PUSH2 0x83 SWAP4 SWAP3 SWAP2 SWAP1 PUSH2 0x1CC4 JUMP JUMPDEST PUSH2 0xC1 PUSH2 0xBC CALLDATASIZE PUSH1 0x4 PUSH2 0x1D6A JUMP JUMPDEST PUSH2 0x171 JUMP JUMPDEST STOP JUMPDEST PUSH2 0xC1 PUSH2 0xD1 CALLDATASIZE PUSH1 0x4 PUSH2 0x1DE7 JUMP JUMPDEST PUSH2 0x1F3 JUMP JUMPDEST PUSH2 0xC1 PUSH2 0xE4 CALLDATASIZE PUSH1 0x4 PUSH2 0x1E3C JUMP JUMPDEST PUSH2 0x75F JUMP JUMPDEST PUSH2 0xF1 PUSH2 0x1BA6 JUMP JUMPDEST PUSH2 0xF9 PUSH2 0x1BC4 JUMP JUMPDEST PUSH0 PUSH2 0x10D DUP7 CALLDATALOAD DUP8 PUSH1 0x1 JUMPDEST PUSH1 0x20 MUL ADD CALLDATALOAD PUSH2 0xC0B JUMP JUMPDEST DUP4 MSTORE PUSH2 0x12B PUSH1 0x60 DUP8 ADD CALLDATALOAD PUSH1 0x40 DUP9 ADD CALLDATALOAD PUSH1 0xA0 DUP10 ADD CALLDATALOAD PUSH1 0x80 DUP11 ADD CALLDATALOAD PUSH2 0xCF8 JUMP JUMPDEST PUSH1 0x20 DUP6 ADD MSTORE PUSH1 0x40 DUP5 ADD MSTORE PUSH2 0x145 PUSH1 0xC0 DUP8 ADD CALLDATALOAD DUP8 PUSH1 0x7 PUSH2 0x103 JUMP JUMPDEST PUSH1 0x60 DUP5 ADD MSTORE PUSH2 0x157 DUP6 CALLDATALOAD DUP7 PUSH1 0x1 PUSH2 0x103 JUMP JUMPDEST DUP3 MSTORE PUSH2 0x166 DUP5 CALLDATALOAD DUP6 PUSH1 0x1 PUSH2 0x103 JUMP JUMPDEST SWAP1 POP SWAP4 POP SWAP4 POP SWAP4 SWAP1 POP JUMP JUMPDEST PUSH0 PUSH0 PUSH0 PUSH2 0x17E DUP8 DUP8 PUSH2 0xFD1 JUMP JUMPDEST SWAP3 POP SWAP3 POP SWAP3 POP PUSH0 PUSH2 0x18F DUP7 DUP7 PUSH2 0x1002 JUMP JUMPDEST POP POP PUSH1 0x40 MLOAD PUSH4 0xDF078BEF PUSH1 0xE0 SHL DUP2 MSTORE SWAP1 SWAP2 POP ADDRESS SWAP1 PUSH4 0xDF078BEF SWAP1 PUSH2 0x1BD SWAP1 DUP8 SWAP1 DUP8 SWAP1 DUP8 SWAP1 DUP8 SWAP1 PUSH1 0x4 ADD PUSH2 0x1EC6 JUMP JUMPDEST PUSH0 PUSH1 0x40 MLOAD DUP1 DUP4 SUB DUP2 DUP7 DUP1 EXTCODESIZE ISZERO DUP1 ISZERO PUSH2 0x1D3 JUMPI PUSH0 PUSH0 REVERT JUMPDEST POP GAS STATICCALL ISZERO DUP1 ISZERO PUSH2 0x1E5 JUMPI RETURNDATASIZE PUSH0 PUSH0 RETURNDATACOPY RETURNDATASIZE PUSH0 REVERT JUMPDEST POP POP POP POP POP POP POP POP POP POP POP POP JUMP JUMPDEST PUSH2 0x1FB PUSH2 0x1BC4 JUMP JUMPDEST PUSH2 0x203 PUSH2 0x1BE2 JUMP JUMPDEST PUSH2 0x20B PUSH2 0x1C00 JUMP JUMPDEST PUSH2 0x21B DUP7 PUSH0 JUMPDEST PUSH1 0x20 MUL ADD CALLDATALOAD PUSH2 0x1019 JUMP JUMPDEST PUSH1 0x20 DUP5 ADD MSTORE DUP3 MSTORE PUSH0 DUP1 PUSH2 0x22D DUP8 PUSH2 0x1019 JUMP JUMPDEST PUSH1 0x40 DUP1 MLOAD PUSH1 0x5 DUP1 DUP3 MSTORE PUSH1 0xC0 DUP3 ADD SWAP1 SWAP3 MSTORE SWAP3 SWAP5 POP SWAP1 SWAP3 POP PUSH1 0x60 SWAP2 SWAP1 PUSH1 0x20 DUP3 ADD PUSH1 0xA0 DUP1 CALLDATASIZE DUP4 CALLDATACOPY ADD SWAP1 POP POP SWAP1 POP PUSH1 0x20 DUP1 DUP3 ADD SWAP1 PUSH1 0x40 DUP10 ADD DUP3 CALLDATACOPY PUSH1 0x80 PUSH1 0xC0 DUP10 ADD PUSH1 0x20 DUP4 ADD CALLDATACOPY POP DUP5 MLOAD PUSH1 0x20 DUP1 DUP8 ADD MLOAD PUSH1 0x40 MLOAD PUSH0 MLOAD PUSH1 0x20 PUSH2 0x222E PUSH0 CODECOPY PUSH0 MLOAD SWAP1 PUSH0 MSTORE SWAP4 PUSH2 0x298 SWAP4 SWAP1 SWAP3 SWAP2 DUP7 SWAP2 ADD PUSH2 0x1F54 JUMP JUMPDEST PUSH1 0x40 MLOAD PUSH1 0x20 DUP2 DUP4 SUB SUB DUP2 MSTORE SWAP1 PUSH1 0x40 MSTORE DUP1 MLOAD SWAP1 PUSH1 0x20 ADD KECCAK256 PUSH0 SHR PUSH2 0x2BA SWAP2 SWAP1 PUSH2 0x1FA9 JUMP JUMPDEST DUP7 MSTORE DUP5 MLOAD DUP5 MSTORE PUSH1 0x20 DUP6 DUP2 ADD MLOAD DUP6 DUP3 ADD MSTORE PUSH32 0x8480E99474689ED895E0F83B2C28BC234B7C86BB7C5CF322C2CC29362FB48AD PUSH1 0x40 DUP1 DUP8 ADD SWAP2 SWAP1 SWAP2 MSTORE PUSH32 0x6170922DFCF55190A392089203C49B03A237F16C28B822A27ACBA4F2AF24EB4 PUSH1 0x60 DUP8 ADD MSTORE PUSH32 0xD5C11EF1D50D15154301C075F3B7893E2FB98D3ED90B15AC96F51552E5C36AC PUSH1 0x80 DUP8 ADD MSTORE PUSH32 0x71E1F97309EDB22456D11F96E2C6718C7D525BFD35FB13125D854BF927A4A4E PUSH1 0xA0 DUP8 ADD MSTORE PUSH1 0xC0 DUP7 ADD DUP6 SWAP1 MSTORE PUSH1 0xE0 DUP7 ADD DUP5 SWAP1 MSTORE PUSH32 0x131443A740E68B693E0B637C8CF26808F65425688FFC3FF9A10ABDD47A3BFD90 PUSH2 0x100 DUP8 ADD MSTORE PUSH32 0x1A78FAE6054A26F8A53F21EC8C056D4D7EEF33931F728103E40A766E81256C52 PUSH2 0x120 DUP8 ADD MSTORE PUSH32 0xECCC78A9E3B7FCC9D605D6E8DF148EE93F85550C25DDED759A6D35503CAE1EB PUSH2 0x140 DUP8 ADD MSTORE PUSH32 0x1F29F1A675C809BC3C705BEDFF15FBB9BDDC5AAD42D64AE858AB8C300DC96FF0 PUSH2 0x160 DUP8 ADD MSTORE MLOAD PUSH0 SWAP2 DUP2 PUSH2 0x180 DUP9 PUSH1 0x8 GAS STATICCALL SWAP1 MLOAD AND SWAP1 POP DUP1 PUSH2 0x43F JUMPI PUSH1 0x40 MLOAD PUSH4 0x51D49FF7 PUSH1 0xE1 SHL DUP2 MSTORE PUSH1 0x4 ADD PUSH1 0x40 MLOAD DUP1 SWAP2 SUB SWAP1 REVERT JUMPDEST POP POP POP POP PUSH0 PUSH0 PUSH2 0x45A DUP10 PUSH0 PUSH1 0x4 DUP2 LT PUSH2 0x211 JUMPI PUSH2 0x211 PUSH2 0x1E8A JUMP JUMPDEST SWAP1 SWAP3 POP SWAP1 POP PUSH0 DUP1 DUP1 DUP1 PUSH2 0x475 PUSH1 0x40 DUP15 ADD CALLDATALOAD PUSH1 0x20 DUP16 ADD CALLDATALOAD PUSH2 0x10B8 JUMP JUMPDEST SWAP3 SWAP7 POP SWAP1 SWAP5 POP SWAP3 POP SWAP1 POP PUSH0 DUP1 PUSH2 0x48C DUP16 PUSH1 0x3 PUSH2 0x211 JUMP JUMPDEST SWAP2 POP SWAP2 POP PUSH0 PUSH0 PUSH2 0x49D DUP15 DUP15 DUP15 PUSH2 0x128C JUMP JUMPDEST DUP12 DUP14 MSTORE PUSH1 0x20 DUP14 ADD DUP12 SWAP1 MSTORE PUSH1 0x40 DUP14 ADD DUP10 SWAP1 MSTORE PUSH1 0x60 DUP14 ADD DUP11 SWAP1 MSTORE PUSH1 0x80 DUP14 ADD DUP8 SWAP1 MSTORE PUSH1 0xA0 DUP14 ADD DUP9 SWAP1 MSTORE PUSH1 0xC0 DUP14 ADD DUP7 SWAP1 MSTORE PUSH1 0xE0 DUP14 ADD DUP6 SWAP1 MSTORE PUSH32 0x1AD227EB2F384E9075CC8ED2018117556CA911E50FB867BA5958F1838833D4FD PUSH2 0x100 DUP15 ADD MSTORE PUSH32 0x25A7FED94B8B55821DCEC4DA0F0F38217B4307EB275F054DE637D8736B96BEB4 PUSH2 0x120 DUP15 ADD MSTORE PUSH32 0x100CFE015E2BFF9E7592D4E475DBDC4B72B49BFB4C7CD48BF5ABB2D15A371FDD PUSH2 0x140 DUP15 ADD MSTORE PUSH32 0x23043B3C22A4F942C457BC902C3C84F429346D9AEDA87031948091A363D38DB7 PUSH2 0x160 DUP15 ADD MSTORE PUSH32 0x264858F744D06905279FD6899B94FFB20BC3650DBF31B28F5E9B3D07C1F591A1 PUSH2 0x180 DUP15 ADD MSTORE PUSH32 0x2D3F129BF66575378F39EFFB18D0353A3582CCB27679F27DCBE6CE31FB56BF36 PUSH2 0x1A0 DUP15 ADD MSTORE PUSH32 0x225F334F71FDA2C050FABF3FE222568F134E00EFDB6FEC322F799CDC646266C6 PUSH2 0x1C0 DUP15 ADD MSTORE PUSH32 0x5B90CFDC2E85B5777B23D7E37CAC69EF33E85055021E423FD838574A8748564 PUSH2 0x1E0 DUP15 ADD MSTORE PUSH32 0x7CAC0DB8E4604EC86E5B568F91DCF4E6AE645F437C548E07AF2AB319AA375DE PUSH2 0x200 DUP15 ADD MSTORE PUSH32 0x139553512B424D5DB0FB8A6A81C48DA0175433B34DBFB7909D20C89F1761D02A PUSH2 0x220 DUP15 ADD MSTORE PUSH2 0x240 DUP14 ADD DUP3 SWAP1 MSTORE PUSH2 0x260 DUP14 ADD DUP2 SWAP1 MSTORE PUSH32 0x8E3127CDDEE1E6633C965F4A96A2BF9604FCC0C6E394940688C66BAAD53E7B9 PUSH2 0x280 DUP15 ADD MSTORE PUSH31 0x796BF3D2B960E7699E4D44A325CE5405527B23DED7926746817113F9B6B384 PUSH2 0x2A0 DUP15 ADD MSTORE PUSH32 0x23A3F24661E90135BFDA3B65A2E8A1B7BC4B3BE9229DD3DB008215C6A2FF3E37 PUSH2 0x2C0 DUP15 ADD MSTORE PUSH32 0x2CE17E16DE452FDF75D8A97C065075BB5A269CC1ADDAF930311C0665610EC1C PUSH2 0x2E0 DUP15 ADD MSTORE SWAP1 SWAP3 POP SWAP1 POP PUSH0 PUSH2 0x710 PUSH2 0x1BC4 JUMP JUMPDEST PUSH1 0x20 DUP2 PUSH2 0x300 DUP16 PUSH1 0x8 GAS STATICCALL SWAP2 POP DUP2 ISZERO DUP1 PUSH2 0x72C JUMPI POP DUP1 MLOAD PUSH1 0x1 EQ ISZERO JUMPDEST ISZERO PUSH2 0x74A JUMPI PUSH1 0x40 MLOAD PUSH4 0x1FF3747D PUSH1 0xE2 SHL DUP2 MSTORE PUSH1 0x4 ADD PUSH1 0x40 MLOAD DUP1 SWAP2 SUB SWAP1 REVERT JUMPDEST POP POP POP POP POP POP POP POP POP POP POP POP POP POP POP POP POP POP POP JUMP JUMPDEST PUSH2 0x767 PUSH2 0x1BC4 JUMP JUMPDEST PUSH1 0x40 DUP1 MLOAD PUSH1 0x5 DUP1 DUP3 MSTORE PUSH1 0xC0 DUP3 ADD SWAP1 SWAP3 MSTORE PUSH1 0x60 SWAP2 PUSH1 0x20 DUP3 ADD PUSH1 0xA0 DUP1 CALLDATASIZE DUP4 CALLDATACOPY ADD SWAP1 POP POP SWAP1 POP PUSH1 0x20 DUP1 DUP3 ADD SWAP1 PUSH1 0x40 DUP6 ADD DUP3 CALLDATACOPY PUSH1 0x80 PUSH1 0xC0 DUP6 ADD PUSH1 0x20 DUP4 ADD CALLDATACOPY POP PUSH1 0x40 MLOAD PUSH0 MLOAD PUSH1 0x20 PUSH2 0x222E PUSH0 CODECOPY PUSH0 MLOAD SWAP1 PUSH0 MSTORE SWAP1 PUSH2 0x7CA SWAP1 DUP8 CALLDATALOAD SWAP1 PUSH1 0x20 DUP1 DUP11 ADD CALLDATALOAD SWAP2 DUP7 SWAP2 ADD PUSH2 0x1F54 JUMP JUMPDEST PUSH1 0x40 MLOAD PUSH1 0x20 DUP2 DUP4 SUB SUB DUP2 MSTORE SWAP1 PUSH1 0x40 MSTORE DUP1 MLOAD SWAP1 PUSH1 0x20 ADD KECCAK256 PUSH0 SHR PUSH2 0x7EC SWAP2 SWAP1 PUSH2 0x1FA9 JUMP JUMPDEST DUP3 MSTORE PUSH1 0x40 DUP1 MLOAD PUSH0 SWAP2 DUP8 DUP3 CALLDATACOPY PUSH32 0x8480E99474689ED895E0F83B2C28BC234B7C86BB7C5CF322C2CC29362FB48AD PUSH1 0x40 DUP3 ADD MSTORE PUSH32 0x6170922DFCF55190A392089203C49B03A237F16C28B822A27ACBA4F2AF24EB4 PUSH1 0x60 DUP3 ADD MSTORE PUSH32 0xD5C11EF1D50D15154301C075F3B7893E2FB98D3ED90B15AC96F51552E5C36AC PUSH1 0x80 DUP3 ADD MSTORE PUSH32 0x71E1F97309EDB22456D11F96E2C6718C7D525BFD35FB13125D854BF927A4A4E PUSH1 0xA0 DUP3 ADD MSTORE PUSH1 0x40 DUP7 PUSH1 0xC0 DUP4 ADD CALLDATACOPY PUSH32 0x131443A740E68B693E0B637C8CF26808F65425688FFC3FF9A10ABDD47A3BFD90 PUSH2 0x100 DUP3 ADD MSTORE PUSH32 0x1A78FAE6054A26F8A53F21EC8C056D4D7EEF33931F728103E40A766E81256C52 PUSH2 0x120 DUP3 ADD MSTORE PUSH32 0xECCC78A9E3B7FCC9D605D6E8DF148EE93F85550C25DDED759A6D35503CAE1EB PUSH2 0x140 DUP3 ADD MSTORE PUSH32 0x1F29F1A675C809BC3C705BEDFF15FBB9BDDC5AAD42D64AE858AB8C300DC96FF0 PUSH2 0x160 DUP3 ADD MSTORE PUSH1 0x20 DUP2 PUSH2 0x180 DUP4 PUSH1 0x8 GAS STATICCALL SWAP1 MLOAD AND SWAP1 POP DUP1 PUSH2 0x961 JUMPI PUSH1 0x40 MLOAD PUSH4 0x51D49FF7 PUSH1 0xE1 SHL DUP2 MSTORE PUSH1 0x4 ADD PUSH1 0x40 MLOAD DUP1 SWAP2 SUB SWAP1 REVERT JUMPDEST PUSH0 PUSH0 PUSH2 0x996 DUP7 DUP7 DUP11 PUSH1 0x2 DUP1 PUSH1 0x20 MUL PUSH1 0x40 MLOAD SWAP1 DUP2 ADD PUSH1 0x40 MSTORE DUP1 SWAP3 SWAP2 SWAP1 DUP3 PUSH1 0x2 PUSH1 0x20 MUL DUP1 DUP3 DUP5 CALLDATACOPY PUSH0 SWAP3 ADD SWAP2 SWAP1 SWAP2 MSTORE POP PUSH2 0x128C SWAP2 POP POP JUMP JUMPDEST SWAP2 POP SWAP2 POP PUSH1 0x40 MLOAD PUSH2 0x100 DUP11 DUP3 CALLDATACOPY PUSH32 0x1AD227EB2F384E9075CC8ED2018117556CA911E50FB867BA5958F1838833D4FD PUSH2 0x100 DUP3 ADD MSTORE PUSH32 0x25A7FED94B8B55821DCEC4DA0F0F38217B4307EB275F054DE637D8736B96BEB4 PUSH2 0x120 DUP3 ADD MSTORE PUSH32 0x100CFE015E2BFF9E7592D4E475DBDC4B72B49BFB4C7CD48BF5ABB2D15A371FDD PUSH2 0x140 DUP3 ADD MSTORE PUSH32 0x23043B3C22A4F942C457BC902C3C84F429346D9AEDA87031948091A363D38DB7 PUSH2 0x160 DUP3 ADD MSTORE PUSH32 0x264858F744D06905279FD6899B94FFB20BC3650DBF31B28F5E9B3D07C1F591A1 PUSH2 0x180 DUP3 ADD MSTORE PUSH32 0x2D3F129BF66575378F39EFFB18D0353A3582CCB27679F27DCBE6CE31FB56BF36 PUSH2 0x1A0 DUP3 ADD MSTORE PUSH32 0x225F334F71FDA2C050FABF3FE222568F134E00EFDB6FEC322F799CDC646266C6 PUSH2 0x1C0 DUP3 ADD MSTORE PUSH32 0x5B90CFDC2E85B5777B23D7E37CAC69EF33E85055021E423FD838574A8748564 PUSH2 0x1E0 DUP3 ADD MSTORE PUSH32 0x7CAC0DB8E4604EC86E5B568F91DCF4E6AE645F437C548E07AF2AB319AA375DE PUSH2 0x200 DUP3 ADD MSTORE PUSH32 0x139553512B424D5DB0FB8A6A81C48DA0175433B34DBFB7909D20C89F1761D02A PUSH2 0x220 DUP3 ADD MSTORE DUP3 PUSH2 0x240 DUP3 ADD MSTORE DUP2 PUSH2 0x260 DUP3 ADD MSTORE PUSH32 0x8E3127CDDEE1E6633C965F4A96A2BF9604FCC0C6E394940688C66BAAD53E7B9 PUSH2 0x280 DUP3 ADD MSTORE PUSH31 0x796BF3D2B960E7699E4D44A325CE5405527B23DED7926746817113F9B6B384 PUSH2 0x2A0 DUP3 ADD MSTORE PUSH32 0x23A3F24661E90135BFDA3B65A2E8A1B7BC4B3BE9229DD3DB008215C6A2FF3E37 PUSH2 0x2C0 DUP3 ADD MSTORE PUSH32 0x2CE17E16DE452FDF75D8A97C065075BB5A269CC1ADDAF930311C0665610EC1C PUSH2 0x2E0 DUP3 ADD MSTORE PUSH1 0x20 DUP2 PUSH2 0x300 DUP4 PUSH1 0x8 GAS STATICCALL SWAP1 MLOAD AND SWAP3 POP DUP3 PUSH2 0xC00 JUMPI PUSH1 0x40 MLOAD PUSH4 0x1FF3747D PUSH1 0xE2 SHL DUP2 MSTORE PUSH1 0x4 ADD PUSH1 0x40 MLOAD DUP1 SWAP2 SUB SWAP1 REVERT JUMPDEST POP POP POP POP POP POP POP POP POP JUMP JUMPDEST PUSH0 PUSH0 MLOAD PUSH1 0x20 PUSH2 0x220E PUSH0 CODECOPY PUSH0 MLOAD SWAP1 PUSH0 MSTORE DUP4 LT ISZERO DUP1 PUSH2 0xC35 JUMPI POP PUSH0 MLOAD PUSH1 0x20 PUSH2 0x220E PUSH0 CODECOPY PUSH0 MLOAD SWAP1 PUSH0 MSTORE DUP3 LT ISZERO JUMPDEST ISZERO PUSH2 0xC53 JUMPI PUSH1 0x40 MLOAD PUSH4 0x1FF3747D PUSH1 0xE2 SHL DUP2 MSTORE PUSH1 0x4 ADD PUSH1 0x40 MLOAD DUP1 SWAP2 SUB SWAP1 REVERT JUMPDEST DUP3 ISZERO DUP1 ISZERO PUSH2 0xC5F JUMPI POP DUP2 ISZERO JUMPDEST ISZERO PUSH2 0xC6B JUMPI POP PUSH0 PUSH2 0xCF2 JUMP JUMPDEST PUSH0 PUSH2 0xCA6 PUSH0 MLOAD PUSH1 0x20 PUSH2 0x220E PUSH0 CODECOPY PUSH0 MLOAD SWAP1 PUSH0 MSTORE PUSH1 0x3 PUSH0 MLOAD PUSH1 0x20 PUSH2 0x220E PUSH0 CODECOPY PUSH0 MLOAD SWAP1 PUSH0 MSTORE DUP8 PUSH0 MLOAD PUSH1 0x20 PUSH2 0x220E PUSH0 CODECOPY PUSH0 MLOAD SWAP1 PUSH0 MSTORE DUP10 DUP11 MULMOD MULMOD ADDMOD PUSH2 0x18F0 JUMP JUMPDEST SWAP1 POP DUP1 DUP4 SUB PUSH2 0xCBB JUMPI POP POP PUSH1 0x1 DUP3 SWAP1 SHL PUSH2 0xCF2 JUMP JUMPDEST PUSH2 0xCC4 DUP2 PUSH2 0x1952 JUMP JUMPDEST DUP4 SUB PUSH2 0xCD7 JUMPI POP POP PUSH1 0x1 DUP3 DUP2 SHL OR PUSH2 0xCF2 JUMP JUMPDEST PUSH1 0x40 MLOAD PUSH4 0x1FF3747D PUSH1 0xE2 SHL DUP2 MSTORE PUSH1 0x4 ADD PUSH1 0x40 MLOAD DUP1 SWAP2 SUB SWAP1 REVERT JUMPDEST POP JUMPDEST SWAP3 SWAP2 POP POP JUMP JUMPDEST PUSH0 PUSH0 PUSH0 MLOAD PUSH1 0x20 PUSH2 0x220E PUSH0 CODECOPY PUSH0 MLOAD SWAP1 PUSH0 MSTORE DUP7 LT ISZERO DUP1 PUSH2 0xD23 JUMPI POP PUSH0 MLOAD PUSH1 0x20 PUSH2 0x220E PUSH0 CODECOPY PUSH0 MLOAD SWAP1 PUSH0 MSTORE DUP6 LT ISZERO JUMPDEST DUP1 PUSH2 0xD3B JUMPI POP PUSH0 MLOAD PUSH1 0x20 PUSH2 0x220E PUSH0 CODECOPY PUSH0 MLOAD SWAP1 PUSH0 MSTORE DUP5 LT ISZERO JUMPDEST DUP1 PUSH2 0xD53 JUMPI POP PUSH0 MLOAD PUSH1 0x20 PUSH2 0x220E PUSH0 CODECOPY PUSH0 MLOAD SWAP1 PUSH0 MSTORE DUP4 LT ISZERO JUMPDEST ISZERO PUSH2 0xD71 JUMPI PUSH1 0x40 MLOAD PUSH4 0x1FF3747D PUSH1 0xE2 SHL DUP2 MSTORE PUSH1 0x4 ADD PUSH1 0x40 MLOAD DUP1 SWAP2 SUB SWAP1 REVERT JUMPDEST DUP3 DUP5 DUP7 DUP9 OR OR OR PUSH0 SUB PUSH2 0xD88 JUMPI POP PUSH0 SWAP1 POP DUP1 PUSH2 0xFC8 JUMP JUMPDEST PUSH0 DUP1 DUP1 PUSH0 MLOAD PUSH1 0x20 PUSH2 0x220E PUSH0 CODECOPY PUSH0 MLOAD SWAP1 PUSH0 MSTORE PUSH2 0xDB1 PUSH1 0x3 PUSH0 MLOAD PUSH1 0x20 PUSH2 0x220E PUSH0 CODECOPY PUSH0 MLOAD SWAP1 PUSH0 MSTORE PUSH2 0x1FC8 JUMP JUMPDEST PUSH0 MLOAD PUSH1 0x20 PUSH2 0x220E PUSH0 CODECOPY PUSH0 MLOAD SWAP1 PUSH0 MSTORE DUP11 DUP13 MULMOD MULMOD SWAP1 POP PUSH0 PUSH0 MLOAD PUSH1 0x20 PUSH2 0x220E PUSH0 CODECOPY PUSH0 MLOAD SWAP1 PUSH0 MSTORE DUP11 PUSH0 MLOAD PUSH1 0x20 PUSH2 0x220E PUSH0 CODECOPY PUSH0 MLOAD SWAP1 PUSH0 MSTORE DUP13 DUP14 MULMOD MULMOD SWAP1 POP PUSH0 PUSH0 MLOAD PUSH1 0x20 PUSH2 0x220E PUSH0 CODECOPY PUSH0 MLOAD SWAP1 PUSH0 MSTORE DUP11 PUSH0 MLOAD PUSH1 0x20 PUSH2 0x220E PUSH0 CODECOPY PUSH0 MLOAD SWAP1 PUSH0 MSTORE DUP13 DUP14 MULMOD MULMOD SWAP1 POP PUSH0 MLOAD PUSH1 0x20 PUSH2 0x220E PUSH0 CODECOPY PUSH0 MLOAD SWAP1 PUSH0 MSTORE DUP1 PUSH0 MLOAD PUSH1 0x20 PUSH2 0x220E PUSH0 CODECOPY PUSH0 MLOAD SWAP1 PUSH0 MSTORE DUP13 DUP7 MULMOD DUP5 ADDMOD PUSH32 0x2B149D40CEB8AAAE81BE18991BE06AC3B5B4C5E559DBEFA33267E6DC24A138E5 ADDMOD SWAP5 POP PUSH2 0xE9F PUSH0 MLOAD PUSH1 0x20 PUSH2 0x220E PUSH0 CODECOPY PUSH0 MLOAD SWAP1 PUSH0 MSTORE DUP1 PUSH0 MLOAD PUSH1 0x20 PUSH2 0x220E PUSH0 CODECOPY PUSH0 MLOAD SWAP1 PUSH0 MSTORE DUP15 DUP8 MULMOD DUP5 ADDMOD PUSH32 0x2FCD3AC2A640A154EB23960892A85A68F031CA0C8344B23A577DCF1052B9E775 ADDMOD PUSH2 0x1952 JUMP JUMPDEST SWAP4 POP POP POP POP PUSH0 PUSH0 PUSH2 0xEEC PUSH0 MLOAD PUSH1 0x20 PUSH2 0x220E PUSH0 CODECOPY PUSH0 MLOAD SWAP1 PUSH0 MSTORE DUP1 PUSH2 0xEC4 JUMPI PUSH2 0xEC4 PUSH2 0x1F95 JUMP JUMPDEST PUSH0 MLOAD PUSH1 0x20 PUSH2 0x220E PUSH0 CODECOPY PUSH0 MLOAD SWAP1 PUSH0 MSTORE DUP6 DUP7 MULMOD PUSH0 MLOAD PUSH1 0x20 PUSH2 0x220E PUSH0 CODECOPY PUSH0 MLOAD SWAP1 PUSH0 MSTORE DUP8 DUP9 MULMOD ADDMOD PUSH2 0x18F0 JUMP JUMPDEST SWAP1 POP PUSH2 0xF37 PUSH0 MLOAD PUSH1 0x20 PUSH2 0x220E PUSH0 CODECOPY PUSH0 MLOAD SWAP1 PUSH0 MSTORE PUSH32 0x183227397098D014DC2822DB40C0AC2ECBC0B548B438E5469E10460B6C3E7EA4 PUSH0 MLOAD PUSH1 0x20 PUSH2 0x220E PUSH0 CODECOPY PUSH0 MLOAD SWAP1 PUSH0 MSTORE DUP5 DUP9 ADDMOD MULMOD PUSH2 0x196A JUMP JUMPDEST ISZERO SWAP2 POP POP PUSH2 0xF46 DUP4 DUP4 DUP4 PUSH2 0x19B2 JUMP JUMPDEST SWAP1 SWAP4 POP SWAP2 POP DUP7 DUP4 EQ DUP1 ISZERO PUSH2 0xF59 JUMPI POP DUP2 DUP7 EQ JUMPDEST ISZERO PUSH2 0xF81 JUMPI DUP1 PUSH2 0xF69 JUMPI PUSH0 PUSH2 0xF6C JUMP JUMPDEST PUSH1 0x2 JUMPDEST PUSH1 0xFF AND PUSH1 0x2 DUP11 SWAP1 SHL OR PUSH0 OR SWAP5 POP DUP8 SWAP4 POP PUSH2 0xFC4 JUMP JUMPDEST PUSH2 0xF8A DUP4 PUSH2 0x1952 JUMP JUMPDEST DUP8 EQ DUP1 ISZERO PUSH2 0xF9F JUMPI POP PUSH2 0xF9C DUP3 PUSH2 0x1952 JUMP JUMPDEST DUP7 EQ JUMPDEST ISZERO PUSH2 0xCD7 JUMPI DUP1 PUSH2 0xFAF JUMPI PUSH0 PUSH2 0xFB2 JUMP JUMPDEST PUSH1 0x2 JUMPDEST PUSH1 0xFF AND PUSH1 0x2 DUP11 SWAP1 SHL OR PUSH1 0x1 OR SWAP5 POP DUP8 SWAP4 POP JUMPDEST POP POP POP JUMPDEST SWAP5 POP SWAP5 SWAP3 POP POP POP JUMP JUMPDEST PUSH2 0xFD9 PUSH2 0x1C1F JUMP JUMPDEST PUSH2 0xFE1 PUSH2 0x1BE2 JUMP JUMPDEST PUSH2 0xFE9 PUSH2 0x1BE2 JUMP JUMPDEST PUSH2 0xFF5 DUP5 DUP7 ADD DUP7 PUSH2 0x206A JUMP JUMPDEST SWAP3 POP SWAP3 POP SWAP3 POP SWAP3 POP SWAP3 POP SWAP3 JUMP JUMPDEST PUSH2 0x100A PUSH2 0x1C3E JUMP JUMPDEST PUSH1 0x60 DUP1 PUSH2 0xFF5 DUP5 DUP7 ADD DUP7 PUSH2 0x2155 JUMP JUMPDEST PUSH0 PUSH0 DUP3 PUSH0 SUB PUSH2 0x102C JUMPI POP PUSH0 SWAP3 DUP4 SWAP3 POP SWAP1 POP JUMP JUMPDEST PUSH1 0x1 DUP4 DUP2 SHR SWAP3 POP DUP1 DUP5 AND EQ PUSH0 MLOAD PUSH1 0x20 PUSH2 0x220E PUSH0 CODECOPY PUSH0 MLOAD SWAP1 PUSH0 MSTORE DUP4 LT PUSH2 0x1064 JUMPI PUSH1 0x40 MLOAD PUSH4 0x1FF3747D PUSH1 0xE2 SHL DUP2 MSTORE PUSH1 0x4 ADD PUSH1 0x40 MLOAD DUP1 SWAP2 SUB SWAP1 REVERT JUMPDEST PUSH2 0x109E PUSH0 MLOAD PUSH1 0x20 PUSH2 0x220E PUSH0 CODECOPY PUSH0 MLOAD SWAP1 PUSH0 MSTORE PUSH1 0x3 PUSH0 MLOAD PUSH1 0x20 PUSH2 0x220E PUSH0 CODECOPY PUSH0 MLOAD SWAP1 PUSH0 MSTORE DUP7 PUSH0 MLOAD PUSH1 0x20 PUSH2 0x220E PUSH0 CODECOPY PUSH0 MLOAD SWAP1 PUSH0 MSTORE DUP9 DUP10 MULMOD MULMOD ADDMOD PUSH2 0x18F0 JUMP JUMPDEST SWAP2 POP DUP1 ISZERO PUSH2 0x10B2 JUMPI PUSH2 0x10AF DUP3 PUSH2 0x1952 JUMP JUMPDEST SWAP2 POP JUMPDEST POP SWAP2 POP SWAP2 JUMP JUMPDEST PUSH0 DUP1 DUP1 DUP1 DUP6 ISZERO DUP1 ISZERO PUSH2 0x10C8 JUMPI POP DUP5 ISZERO JUMPDEST ISZERO PUSH2 0x10DD JUMPI POP PUSH0 SWAP3 POP DUP3 SWAP2 POP DUP2 SWAP1 POP DUP1 PUSH2 0x1283 JUMP JUMPDEST PUSH1 0x2 DUP7 DUP2 SHR SWAP5 POP DUP6 SWAP4 POP PUSH1 0x1 DUP1 DUP9 AND EQ SWAP1 DUP1 DUP9 AND EQ PUSH0 MLOAD PUSH1 0x20 PUSH2 0x220E PUSH0 CODECOPY PUSH0 MLOAD SWAP1 PUSH0 MSTORE DUP7 LT ISZERO DUP1 PUSH2 0x111B JUMPI POP PUSH0 MLOAD PUSH1 0x20 PUSH2 0x220E PUSH0 CODECOPY PUSH0 MLOAD SWAP1 PUSH0 MSTORE DUP6 LT ISZERO JUMPDEST ISZERO PUSH2 0x1139 JUMPI PUSH1 0x40 MLOAD PUSH4 0x1FF3747D PUSH1 0xE2 SHL DUP2 MSTORE PUSH1 0x4 ADD PUSH1 0x40 MLOAD DUP1 SWAP2 SUB SWAP1 REVERT JUMPDEST PUSH0 PUSH0 MLOAD PUSH1 0x20 PUSH2 0x220E PUSH0 CODECOPY PUSH0 MLOAD SWAP1 PUSH0 MSTORE PUSH2 0x1160 PUSH1 0x3 PUSH0 MLOAD PUSH1 0x20 PUSH2 0x220E PUSH0 CODECOPY PUSH0 MLOAD SWAP1 PUSH0 MSTORE PUSH2 0x1FC8 JUMP JUMPDEST PUSH0 MLOAD PUSH1 0x20 PUSH2 0x220E PUSH0 CODECOPY PUSH0 MLOAD SWAP1 PUSH0 MSTORE DUP9 DUP11 MULMOD MULMOD SWAP1 POP PUSH0 PUSH0 MLOAD PUSH1 0x20 PUSH2 0x220E PUSH0 CODECOPY PUSH0 MLOAD SWAP1 PUSH0 MSTORE DUP9 PUSH0 MLOAD PUSH1 0x20 PUSH2 0x220E PUSH0 CODECOPY PUSH0 MLOAD SWAP1 PUSH0 MSTORE DUP11 DUP12 MULMOD MULMOD SWAP1 POP PUSH0 PUSH0 MLOAD PUSH1 0x20 PUSH2 0x220E PUSH0 CODECOPY PUSH0 MLOAD SWAP1 PUSH0 MSTORE DUP9 PUSH0 MLOAD PUSH1 0x20 PUSH2 0x220E PUSH0 CODECOPY PUSH0 MLOAD SWAP1 PUSH0 MSTORE DUP11 DUP12 MULMOD MULMOD SWAP1 POP PUSH0 MLOAD PUSH1 0x20 PUSH2 0x220E PUSH0 CODECOPY PUSH0 MLOAD SWAP1 PUSH0 MSTORE DUP1 PUSH0 MLOAD PUSH1 0x20 PUSH2 0x220E PUSH0 CODECOPY PUSH0 MLOAD SWAP1 PUSH0 MSTORE DUP11 DUP7 MULMOD DUP5 ADDMOD PUSH32 0x2B149D40CEB8AAAE81BE18991BE06AC3B5B4C5E559DBEFA33267E6DC24A138E5 ADDMOD SWAP7 POP PUSH2 0x124E PUSH0 MLOAD PUSH1 0x20 PUSH2 0x220E PUSH0 CODECOPY PUSH0 MLOAD SWAP1 PUSH0 MSTORE DUP1 PUSH0 MLOAD PUSH1 0x20 PUSH2 0x220E PUSH0 CODECOPY PUSH0 MLOAD SWAP1 PUSH0 MSTORE DUP13 DUP8 MULMOD DUP5 ADDMOD PUSH32 0x2FCD3AC2A640A154EB23960892A85A68F031CA0C8344B23A577DCF1052B9E775 ADDMOD PUSH2 0x1952 JUMP JUMPDEST SWAP6 POP PUSH2 0x125B DUP8 DUP8 DUP7 PUSH2 0x19B2 JUMP JUMPDEST SWAP1 SWAP8 POP SWAP6 POP DUP5 ISZERO PUSH2 0x127D JUMPI PUSH2 0x126F DUP8 PUSH2 0x1952 JUMP JUMPDEST SWAP7 POP PUSH2 0x127A DUP7 PUSH2 0x1952 JUMP JUMPDEST SWAP6 POP JUMPDEST POP POP POP POP POP JUMPDEST SWAP3 SWAP6 SWAP2 SWAP5 POP SWAP3 POP JUMP JUMPDEST PUSH0 PUSH0 PUSH0 PUSH1 0x1 SWAP1 POP PUSH1 0x40 MLOAD PUSH1 0x40 DUP2 ADD PUSH0 PUSH32 0xABDA91B93553FAB611CF205F43C4929E13A29664C6F6B1CB87887CF7A971109 DUP4 MSTORE PUSH32 0x182DEA6934668A65E4ACB3F18EA50E200B4CA22D442481345FFB3B278390B36D PUSH1 0x20 DUP5 ADD MSTORE DUP7 MLOAD DUP3 MSTORE PUSH1 0x20 DUP8 ADD MLOAD PUSH1 0x20 DUP4 ADD MSTORE PUSH1 0x40 DUP4 PUSH1 0x80 DUP6 PUSH1 0x6 GAS STATICCALL DUP5 AND SWAP4 POP PUSH32 0x18CC51B23CF3B98E5C65B2A986B2CB28514CFEDA4B10B0F2A65FCBF9AE2043FF DUP3 MSTORE PUSH32 0x91A495B3FDE8E4359617A338FE3D16A4DF8247A2FCCA7EA63B115441228ABD3 PUSH1 0x20 DUP4 ADD MSTORE DUP9 CALLDATALOAD SWAP1 POP DUP1 PUSH1 0x40 DUP4 ADD MSTORE PUSH0 MLOAD PUSH1 0x20 PUSH2 0x222E PUSH0 CODECOPY PUSH0 MLOAD SWAP1 PUSH0 MSTORE DUP2 LT DUP5 AND SWAP4 POP PUSH1 0x40 DUP3 PUSH1 0x60 DUP5 PUSH1 0x7 GAS STATICCALL DUP5 AND SWAP4 POP PUSH1 0x40 DUP4 PUSH1 0x80 DUP6 PUSH1 0x6 GAS STATICCALL DUP5 AND SWAP4 POP PUSH32 0x2280B99A402EEFD18FBEC5C574ECC59541426F9D871D5D8645A3CCD8471CEB59 DUP3 MSTORE PUSH32 0x4BFCB74EE48D715EF2C565D838A694697AC445F10D92A5F43409EBDD33E081E PUSH1 0x20 DUP4 ADD MSTORE PUSH1 0x20 DUP10 ADD CALLDATALOAD SWAP1 POP DUP1 PUSH1 0x40 DUP4 ADD MSTORE PUSH0 MLOAD PUSH1 0x20 PUSH2 0x222E PUSH0 CODECOPY PUSH0 MLOAD SWAP1 PUSH0 MSTORE DUP2 LT DUP5 AND SWAP4 POP PUSH1 0x40 DUP3 PUSH1 0x60 DUP5 PUSH1 0x7 GAS STATICCALL DUP5 AND SWAP4 POP PUSH1 0x40 DUP4 PUSH1 0x80 DUP6 PUSH1 0x6 GAS STATICCALL DUP5 AND SWAP4 POP PUSH32 0x18702AF999FDFB084AB374ED64B8EE09935B2FE45A31A2BEB44ED4D780BC63AC DUP3 MSTORE PUSH32 0x1F337DAFF338E14A7763CD02B766D27F7D4BAA07922C5A8AAFE91D22B111761A PUSH1 0x20 DUP4 ADD MSTORE PUSH1 0x40 DUP10 ADD CALLDATALOAD SWAP1 POP DUP1 PUSH1 0x40 DUP4 ADD MSTORE PUSH0 MLOAD PUSH1 0x20 PUSH2 0x222E PUSH0 CODECOPY PUSH0 MLOAD SWAP1 PUSH0 MSTORE DUP2 LT DUP5 AND SWAP4 POP PUSH1 0x40 DUP3 PUSH1 0x60 DUP5 PUSH1 0x7 GAS STATICCALL DUP5 AND SWAP4 POP PUSH1 0x40 DUP4 PUSH1 0x80 DUP6 PUSH1 0x6 GAS STATICCALL DUP5 AND SWAP4 POP PUSH32 0x172545BF99DAF78B18F069C42B0BEDED5407C5905CE473A4A06BA3AAB21A1E85 DUP3 MSTORE PUSH32 0x2FEDD2C2905A78068D502C39B494C19C94B2F8B1C67F566116CCE2166EB0FDC7 PUSH1 0x20 DUP4 ADD MSTORE PUSH1 0x60 DUP10 ADD CALLDATALOAD SWAP1 POP DUP1 PUSH1 0x40 DUP4 ADD MSTORE PUSH0 MLOAD PUSH1 0x20 PUSH2 0x222E PUSH0 CODECOPY PUSH0 MLOAD SWAP1 PUSH0 MSTORE DUP2 LT DUP5 AND SWAP4 POP PUSH1 0x40 DUP3 PUSH1 0x60 DUP5 PUSH1 0x7 GAS STATICCALL DUP5 AND SWAP4 POP PUSH1 0x40 DUP4 PUSH1 0x80 DUP6 PUSH1 0x6 GAS STATICCALL DUP5 AND SWAP4 POP PUSH32 0x9888C24ABFB0F110A79C44E64C06E2D250D1B887585F3E90AA6AA4FF17072C9 DUP3 MSTORE PUSH32 0x18D69BD6BD7B75A7FB04DB5180C7A34529C87336370BDB323353A6ED31AA59B8 PUSH1 0x20 DUP4 ADD MSTORE PUSH1 0x80 DUP10 ADD CALLDATALOAD SWAP1 POP DUP1 PUSH1 0x40 DUP4 ADD MSTORE PUSH0 MLOAD PUSH1 0x20 PUSH2 0x222E PUSH0 CODECOPY PUSH0 MLOAD SWAP1 PUSH0 MSTORE DUP2 LT DUP5 AND SWAP4 POP PUSH1 0x40 DUP3 PUSH1 0x60 DUP5 PUSH1 0x7 GAS STATICCALL DUP5 AND SWAP4 POP PUSH1 0x40 DUP4 PUSH1 0x80 DUP6 PUSH1 0x6 GAS STATICCALL DUP5 AND SWAP4 POP PUSH32 0x12981DC688E37C182B36CE1BAE3710F2C10FB2D103847BB56D6559B7DE44FE76 DUP3 MSTORE PUSH32 0x194A3701487E0F227A8ADA3E61985569D92DE569146AEAAC2269566A5D2D987D PUSH1 0x20 DUP4 ADD MSTORE PUSH1 0xA0 DUP10 ADD CALLDATALOAD SWAP1 POP DUP1 PUSH1 0x40 DUP4 ADD MSTORE PUSH0 MLOAD PUSH1 0x20 PUSH2 0x222E PUSH0 CODECOPY PUSH0 MLOAD SWAP1 PUSH0 MSTORE DUP2 LT DUP5 AND SWAP4 POP PUSH1 0x40 DUP3 PUSH1 0x60 DUP5 PUSH1 0x7 GAS STATICCALL DUP5 AND SWAP4 POP PUSH1 0x40 DUP4 PUSH1 0x80 DUP6 PUSH1 0x6 GAS STATICCALL DUP5 AND SWAP4 POP PUSH32 0x1443C797A7FDF0739DEF6A1E97AF8A4E069DA0B27D9ADF17074AA20DE5FD73D DUP3 MSTORE PUSH32 0x1A2105196F3A41F1CB3A476950C3A1E8DFEC97CF35FBD0BE7A10C66DCE36D485 PUSH1 0x20 DUP4 ADD MSTORE PUSH1 0xC0 DUP10 ADD CALLDATALOAD SWAP1 POP DUP1 PUSH1 0x40 DUP4 ADD MSTORE PUSH0 MLOAD PUSH1 0x20 PUSH2 0x222E PUSH0 CODECOPY PUSH0 MLOAD SWAP1 PUSH0 MSTORE DUP2 LT DUP5 AND SWAP4 POP PUSH1 0x40 DUP3 PUSH1 0x60 DUP5 PUSH1 0x7 GAS STATICCALL DUP5 AND SWAP4 POP PUSH1 0x40 DUP4 PUSH1 0x80 DUP6 PUSH1 0x6 GAS STATICCALL DUP5 AND SWAP4 POP PUSH32 0x44EBCC29152C4E640D8314673C87B65890F7AD31F8B466B2FEE5E8987492F2E DUP3 MSTORE PUSH32 0x89349E5DE9D84107A7737206A19199A17FBEE86F4F2C762112B45FC195DADA7 PUSH1 0x20 DUP4 ADD MSTORE PUSH1 0xE0 DUP10 ADD CALLDATALOAD SWAP1 POP DUP1 PUSH1 0x40 DUP4 ADD MSTORE PUSH0 MLOAD PUSH1 0x20 PUSH2 0x222E PUSH0 CODECOPY PUSH0 MLOAD SWAP1 PUSH0 MSTORE DUP2 LT DUP5 AND SWAP4 POP PUSH1 0x40 DUP3 PUSH1 0x60 DUP5 PUSH1 0x7 GAS STATICCALL DUP5 AND SWAP4 POP PUSH1 0x40 DUP4 PUSH1 0x80 DUP6 PUSH1 0x6 GAS STATICCALL DUP5 AND SWAP4 POP PUSH32 0x189111CE67D6A0884ADF5102E1A952A33F299EF4BFFD6989F4F1F6F5B2D88204 DUP3 MSTORE PUSH32 0x73C3A024EDFFDBD09E1441588F9A270342B4BFAD0439E4916D9CB31963CCF36 PUSH1 0x20 DUP4 ADD MSTORE PUSH2 0x100 DUP10 ADD CALLDATALOAD SWAP1 POP DUP1 PUSH1 0x40 DUP4 ADD MSTORE PUSH0 MLOAD PUSH1 0x20 PUSH2 0x222E PUSH0 CODECOPY PUSH0 MLOAD SWAP1 PUSH0 MSTORE DUP2 LT DUP5 AND SWAP4 POP PUSH1 0x40 DUP3 PUSH1 0x60 DUP5 PUSH1 0x7 GAS STATICCALL DUP5 AND SWAP4 POP PUSH1 0x40 DUP4 PUSH1 0x80 DUP6 PUSH1 0x6 GAS STATICCALL DUP5 AND SWAP4 POP PUSH32 0x22666BC12092E505973668A6291C13D34527A4A1CC97AD746F66D29AF69BE519 DUP3 MSTORE PUSH32 0x12C46FFD30B663DF813CDDA4B434160156A5EB86961560579DF481CFB42A6D22 PUSH1 0x20 DUP4 ADD MSTORE PUSH2 0x120 DUP10 ADD CALLDATALOAD SWAP1 POP DUP1 PUSH1 0x40 DUP4 ADD MSTORE PUSH0 MLOAD PUSH1 0x20 PUSH2 0x222E PUSH0 CODECOPY PUSH0 MLOAD SWAP1 PUSH0 MSTORE DUP2 LT DUP5 AND SWAP4 POP PUSH1 0x40 DUP3 PUSH1 0x60 DUP5 PUSH1 0x7 GAS STATICCALL DUP5 AND SWAP4 POP PUSH1 0x40 DUP4 PUSH1 0x80 DUP6 PUSH1 0x6 GAS STATICCALL PUSH32 0x7AE2B84CD2AD8F4CDE91D68EBF1F07BF362B7ADBE0F071093927096C6F73D6B DUP4 MSTORE PUSH32 0x1BF427BC1F30CFB006F16A548BD7E0B7644A8D1ED9F095AAF4A74C70EF0EE1E5 PUSH1 0x20 DUP5 ADD MSTORE DUP9 MLOAD PUSH1 0x40 DUP1 DUP6 ADD DUP3 SWAP1 MSTORE PUSH0 MLOAD PUSH1 0x20 PUSH2 0x222E PUSH0 CODECOPY PUSH0 MLOAD SWAP1 PUSH0 MSTORE SWAP1 SWAP2 LT SWAP2 SWAP1 SWAP6 AND AND SWAP4 SWAP1 POP DUP2 PUSH1 0x60 DUP2 PUSH1 0x7 GAS STATICCALL DUP4 AND SWAP3 POP POP PUSH1 0x40 DUP2 PUSH1 0x80 DUP4 PUSH1 0x6 GAS STATICCALL DUP2 MLOAD PUSH1 0x20 SWAP1 SWAP3 ADD MLOAD SWAP2 SWAP5 POP SWAP1 SWAP3 POP AND DUP1 PUSH2 0x18E7 JUMPI PUSH1 0x40 MLOAD PUSH4 0xA54F8E27 PUSH1 0xE0 SHL DUP2 MSTORE PUSH1 0x4 ADD PUSH1 0x40 MLOAD DUP1 SWAP2 SUB SWAP1 REVERT JUMPDEST POP SWAP4 POP SWAP4 SWAP2 POP POP JUMP JUMPDEST PUSH0 PUSH2 0x191B DUP3 PUSH32 0xC19139CB84C680A6E14116DA060561765E05AA45A1C72A34F082305B61F3F52 PUSH2 0x1AE5 JUMP JUMPDEST SWAP1 POP DUP2 PUSH0 MLOAD PUSH1 0x20 PUSH2 0x220E PUSH0 CODECOPY PUSH0 MLOAD SWAP1 PUSH0 MSTORE DUP3 DUP4 MULMOD EQ PUSH2 0x194D JUMPI PUSH1 0x40 MLOAD PUSH4 0x1FF3747D PUSH1 0xE2 SHL DUP2 MSTORE PUSH1 0x4 ADD PUSH1 0x40 MLOAD DUP1 SWAP2 SUB SWAP1 REVERT JUMPDEST SWAP2 SWAP1 POP JUMP JUMPDEST PUSH0 MLOAD PUSH1 0x20 PUSH2 0x220E PUSH0 CODECOPY PUSH0 MLOAD SWAP1 PUSH0 MSTORE SWAP1 DUP2 SWAP1 MOD DUP2 SUB MOD SWAP1 JUMP JUMPDEST PUSH0 PUSH0 PUSH2 0x1996 DUP4 PUSH32 0xC19139CB84C680A6E14116DA060561765E05AA45A1C72A34F082305B61F3F52 PUSH2 0x1AE5 JUMP JUMPDEST SWAP1 POP DUP3 PUSH0 MLOAD PUSH1 0x20 PUSH2 0x220E PUSH0 CODECOPY PUSH0 MLOAD SWAP1 PUSH0 MSTORE DUP3 DUP4 MULMOD EQ SWAP4 SWAP3 POP POP POP JUMP JUMPDEST PUSH0 DUP1 DUP1 PUSH2 0x19E1 PUSH0 MLOAD PUSH1 0x20 PUSH2 0x220E PUSH0 CODECOPY PUSH0 MLOAD SWAP1 PUSH0 MSTORE DUP1 DUP8 DUP9 MULMOD PUSH0 MLOAD PUSH1 0x20 PUSH2 0x220E PUSH0 CODECOPY PUSH0 MLOAD SWAP1 PUSH0 MSTORE DUP10 DUP11 MULMOD ADDMOD PUSH2 0x18F0 JUMP JUMPDEST SWAP1 POP DUP4 ISZERO PUSH2 0x19F5 JUMPI PUSH2 0x19F2 DUP2 PUSH2 0x1952 JUMP JUMPDEST SWAP1 POP JUMPDEST PUSH2 0x1A3E PUSH0 MLOAD PUSH1 0x20 PUSH2 0x220E PUSH0 CODECOPY PUSH0 MLOAD SWAP1 PUSH0 MSTORE PUSH32 0x183227397098D014DC2822DB40C0AC2ECBC0B548B438E5469E10460B6C3E7EA4 PUSH0 MLOAD PUSH1 0x20 PUSH2 0x220E PUSH0 CODECOPY PUSH0 MLOAD SWAP1 PUSH0 MSTORE DUP5 DUP11 ADDMOD MULMOD PUSH2 0x18F0 JUMP JUMPDEST SWAP3 POP PUSH0 MLOAD PUSH1 0x20 PUSH2 0x220E PUSH0 CODECOPY PUSH0 MLOAD SWAP1 PUSH0 MSTORE PUSH2 0x1A68 PUSH0 MLOAD PUSH1 0x20 PUSH2 0x220E PUSH0 CODECOPY PUSH0 MLOAD SWAP1 PUSH0 MSTORE PUSH1 0x2 DUP7 MULMOD PUSH2 0x1B48 JUMP JUMPDEST DUP7 MULMOD SWAP2 POP PUSH0 MLOAD PUSH1 0x20 PUSH2 0x220E PUSH0 CODECOPY PUSH0 MLOAD SWAP1 PUSH0 MSTORE PUSH2 0x1A93 PUSH0 MLOAD PUSH1 0x20 PUSH2 0x220E PUSH0 CODECOPY PUSH0 MLOAD SWAP1 PUSH0 MSTORE DUP5 DUP6 MULMOD PUSH2 0x1952 JUMP JUMPDEST PUSH0 MLOAD PUSH1 0x20 PUSH2 0x220E PUSH0 CODECOPY PUSH0 MLOAD SWAP1 PUSH0 MSTORE DUP6 DUP7 MULMOD ADDMOD DUP7 EQ ISZERO DUP1 PUSH2 0x1AC7 JUMPI POP PUSH0 MLOAD PUSH1 0x20 PUSH2 0x220E PUSH0 CODECOPY PUSH0 MLOAD SWAP1 PUSH0 MSTORE DUP1 DUP4 DUP6 MULMOD PUSH1 0x2 MULMOD DUP6 EQ ISZERO JUMPDEST ISZERO PUSH2 0x18E7 JUMPI PUSH1 0x40 MLOAD PUSH4 0x1FF3747D PUSH1 0xE2 SHL DUP2 MSTORE PUSH1 0x4 ADD PUSH1 0x40 MLOAD DUP1 SWAP2 SUB SWAP1 REVERT JUMPDEST PUSH0 PUSH0 PUSH1 0x40 MLOAD PUSH1 0x20 DUP2 MSTORE PUSH1 0x20 DUP1 DUP3 ADD MSTORE PUSH1 0x20 PUSH1 0x40 DUP3 ADD MSTORE DUP5 PUSH1 0x60 DUP3 ADD MSTORE DUP4 PUSH1 0x80 DUP3 ADD MSTORE PUSH0 MLOAD PUSH1 0x20 PUSH2 0x220E PUSH0 CODECOPY PUSH0 MLOAD SWAP1 PUSH0 MSTORE PUSH1 0xA0 DUP3 ADD MSTORE PUSH1 0x20 DUP2 PUSH1 0xC0 DUP4 PUSH1 0x5 GAS STATICCALL SWAP1 MLOAD SWAP3 POP SWAP1 POP DUP1 PUSH2 0xCF0 JUMPI PUSH1 0x40 MLOAD PUSH4 0x1FF3747D PUSH1 0xE2 SHL DUP2 MSTORE PUSH1 0x4 ADD PUSH1 0x40 MLOAD DUP1 SWAP2 SUB SWAP1 REVERT JUMPDEST PUSH0 PUSH2 0x1B73 DUP3 PUSH32 0x30644E72E131A029B85045B68181585D97816A916871CA8D3C208C16D87CFD45 PUSH2 0x1AE5 JUMP JUMPDEST SWAP1 POP PUSH0 MLOAD PUSH1 0x20 PUSH2 0x220E PUSH0 CODECOPY PUSH0 MLOAD SWAP1 PUSH0 MSTORE DUP2 DUP4 MULMOD PUSH1 0x1 EQ PUSH2 0x194D JUMPI PUSH1 0x40 MLOAD PUSH4 0x1FF3747D PUSH1 0xE2 SHL DUP2 MSTORE PUSH1 0x4 ADD PUSH1 0x40 MLOAD DUP1 SWAP2 SUB SWAP1 REVERT JUMPDEST PUSH1 0x40 MLOAD DUP1 PUSH1 0x80 ADD PUSH1 0x40 MSTORE DUP1 PUSH1 0x4 SWAP1 PUSH1 0x20 DUP3 MUL DUP1 CALLDATASIZE DUP4 CALLDATACOPY POP SWAP2 SWAP3 SWAP2 POP POP JUMP JUMPDEST PUSH1 0x40 MLOAD DUP1 PUSH1 0x20 ADD PUSH1 0x40 MSTORE DUP1 PUSH1 0x1 SWAP1 PUSH1 0x20 DUP3 MUL DUP1 CALLDATASIZE DUP4 CALLDATACOPY POP SWAP2 SWAP3 SWAP2 POP POP JUMP JUMPDEST PUSH1 0x40 MLOAD DUP1 PUSH1 0x40 ADD PUSH1 0x40 MSTORE DUP1 PUSH1 0x2 SWAP1 PUSH1 0x20 DUP3 MUL DUP1 CALLDATASIZE DUP4 CALLDATACOPY POP SWAP2 SWAP3 SWAP2 POP POP JUMP JUMPDEST PUSH1 0x40 MLOAD DUP1 PUSH2 0x300 ADD PUSH1 0x40 MSTORE DUP1 PUSH1 0x18 SWAP1 PUSH1 0x20 DUP3 MUL DUP1 CALLDATASIZE DUP4 CALLDATACOPY POP SWAP2 SWAP3 SWAP2 POP POP JUMP JUMPDEST PUSH1 0x40 MLOAD DUP1 PUSH2 0x100 ADD PUSH1 0x40 MSTORE DUP1 PUSH1 0x8 SWAP1 PUSH1 0x20 DUP3 MUL DUP1 CALLDATASIZE DUP4 CALLDATACOPY POP SWAP2 SWAP3 SWAP2 POP POP JUMP JUMPDEST PUSH1 0x40 MLOAD DUP1 PUSH2 0x140 ADD PUSH1 0x40 MSTORE DUP1 PUSH1 0xA SWAP1 PUSH1 0x20 DUP3 MUL DUP1 CALLDATASIZE DUP4 CALLDATACOPY POP SWAP2 SWAP3 SWAP2 POP POP JUMP JUMPDEST DUP1 PUSH2 0x100 DUP2 ADD DUP4 LT ISZERO PUSH2 0xCF2 JUMPI PUSH0 PUSH0 REVERT JUMPDEST DUP1 PUSH1 0x40 DUP2 ADD DUP4 LT ISZERO PUSH2 0xCF2 JUMPI PUSH0 PUSH0 REVERT JUMPDEST PUSH0 PUSH0 PUSH0 PUSH2 0x180 DUP5 DUP7 SUB SLT ISZERO PUSH2 0x1C91 JUMPI PUSH0 PUSH0 REVERT JUMPDEST PUSH2 0x1C9B DUP6 DUP6 PUSH2 0x1C5D JUMP JUMPDEST SWAP3 POP PUSH2 0x1CAB DUP6 PUSH2 0x100 DUP7 ADD PUSH2 0x1C6E JUMP JUMPDEST SWAP2 POP PUSH2 0x1CBB DUP6 PUSH2 0x140 DUP7 ADD PUSH2 0x1C6E JUMP JUMPDEST SWAP1 POP SWAP3 POP SWAP3 POP SWAP3 JUMP JUMPDEST PUSH1 0xC0 DUP2 ADD DUP2 DUP6 PUSH0 JUMPDEST PUSH1 0x4 DUP2 LT ISZERO PUSH2 0x1CEB JUMPI DUP2 MLOAD DUP4 MSTORE PUSH1 0x20 SWAP3 DUP4 ADD SWAP3 SWAP1 SWAP2 ADD SWAP1 PUSH1 0x1 ADD PUSH2 0x1CCC JUMP JUMPDEST POP POP POP PUSH1 0x80 DUP3 ADD DUP5 PUSH0 JUMPDEST PUSH1 0x1 DUP2 LT ISZERO PUSH2 0x1D14 JUMPI DUP2 MLOAD DUP4 MSTORE PUSH1 0x20 SWAP3 DUP4 ADD SWAP3 SWAP1 SWAP2 ADD SWAP1 PUSH1 0x1 ADD PUSH2 0x1CF5 JUMP JUMPDEST POP POP POP DUP3 PUSH1 0xA0 DUP4 ADD MSTORE SWAP5 SWAP4 POP POP POP POP JUMP JUMPDEST PUSH0 PUSH0 DUP4 PUSH1 0x1F DUP5 ADD SLT PUSH2 0x1D35 JUMPI PUSH0 PUSH0 REVERT JUMPDEST POP DUP2 CALLDATALOAD PUSH8 0xFFFFFFFFFFFFFFFF DUP2 GT ISZERO PUSH2 0x1D4C JUMPI PUSH0 PUSH0 REVERT JUMPDEST PUSH1 0x20 DUP4 ADD SWAP2 POP DUP4 PUSH1 0x20 DUP3 DUP6 ADD ADD GT ISZERO PUSH2 0x1D63 JUMPI PUSH0 PUSH0 REVERT JUMPDEST SWAP3 POP SWAP3 SWAP1 POP JUMP JUMPDEST PUSH0 PUSH0 PUSH0 PUSH0 PUSH1 0x40 DUP6 DUP8 SUB SLT ISZERO PUSH2 0x1D7D JUMPI PUSH0 PUSH0 REVERT JUMPDEST DUP5 CALLDATALOAD PUSH8 0xFFFFFFFFFFFFFFFF DUP2 GT ISZERO PUSH2 0x1D93 JUMPI PUSH0 PUSH0 REVERT JUMPDEST PUSH2 0x1D9F DUP8 DUP3 DUP9 ADD PUSH2 0x1D25 JUMP JUMPDEST SWAP1 SWAP6 POP SWAP4 POP POP PUSH1 0x20 DUP6 ADD CALLDATALOAD PUSH8 0xFFFFFFFFFFFFFFFF DUP2 GT ISZERO PUSH2 0x1DBE JUMPI PUSH0 PUSH0 REVERT JUMPDEST PUSH2 0x1DCA DUP8 DUP3 DUP9 ADD PUSH2 0x1D25 JUMP JUMPDEST SWAP6 SWAP9 SWAP5 SWAP8 POP SWAP6 POP POP POP POP JUMP JUMPDEST DUP1 PUSH2 0x140 DUP2 ADD DUP4 LT ISZERO PUSH2 0xCF2 JUMPI PUSH0 PUSH0 REVERT JUMPDEST PUSH0 PUSH0 PUSH0 PUSH0 PUSH2 0x200 DUP6 DUP8 SUB SLT ISZERO PUSH2 0x1DFB JUMPI PUSH0 PUSH0 REVERT JUMPDEST PUSH1 0x80 DUP6 ADD DUP7 DUP2 GT ISZERO PUSH2 0x1E0B JUMPI PUSH0 PUSH0 REVERT JUMPDEST DUP6 SWAP5 POP PUSH1 0xA0 DUP7 ADD DUP8 DUP2 GT ISZERO PUSH2 0x1E1E JUMPI PUSH0 PUSH0 REVERT JUMPDEST SWAP1 SWAP4 POP CALLDATALOAD SWAP2 POP PUSH2 0x1E31 DUP7 PUSH1 0xC0 DUP8 ADD PUSH2 0x1DD6 JUMP JUMPDEST SWAP1 POP SWAP3 SWAP6 SWAP2 SWAP5 POP SWAP3 POP JUMP JUMPDEST PUSH0 PUSH0 PUSH0 PUSH0 PUSH2 0x2C0 DUP6 DUP8 SUB SLT ISZERO PUSH2 0x1E50 JUMPI PUSH0 PUSH0 REVERT JUMPDEST PUSH2 0x1E5A DUP7 DUP7 PUSH2 0x1C5D JUMP JUMPDEST SWAP4 POP PUSH2 0x1E6A DUP7 PUSH2 0x100 DUP8 ADD PUSH2 0x1C6E JUMP JUMPDEST SWAP3 POP PUSH2 0x1E7A DUP7 PUSH2 0x140 DUP8 ADD PUSH2 0x1C6E JUMP JUMPDEST SWAP2 POP PUSH2 0x1E31 DUP7 PUSH2 0x180 DUP8 ADD PUSH2 0x1DD6 JUMP JUMPDEST PUSH4 0x4E487B71 PUSH1 0xE0 SHL PUSH0 MSTORE PUSH1 0x32 PUSH1 0x4 MSTORE PUSH1 0x24 PUSH0 REVERT JUMPDEST DUP1 PUSH0 JUMPDEST PUSH1 0x2 DUP2 LT ISZERO PUSH2 0x1EC0 JUMPI DUP2 MLOAD DUP5 MSTORE PUSH1 0x20 SWAP4 DUP5 ADD SWAP4 SWAP1 SWAP2 ADD SWAP1 PUSH1 0x1 ADD PUSH2 0x1EA1 JUMP JUMPDEST POP POP POP POP JUMP JUMPDEST PUSH2 0x2C0 DUP2 ADD DUP2 DUP7 PUSH0 JUMPDEST PUSH1 0x8 DUP2 LT ISZERO PUSH2 0x1EEE JUMPI DUP2 MLOAD DUP4 MSTORE PUSH1 0x20 SWAP3 DUP4 ADD SWAP3 SWAP1 SWAP2 ADD SWAP1 PUSH1 0x1 ADD PUSH2 0x1ECF JUMP JUMPDEST POP POP POP PUSH2 0x1EFF PUSH2 0x100 DUP4 ADD DUP7 PUSH2 0x1E9E JUMP JUMPDEST PUSH2 0x1F0D PUSH2 0x140 DUP4 ADD DUP6 PUSH2 0x1E9E JUMP JUMPDEST PUSH2 0x180 DUP3 ADD DUP4 PUSH0 JUMPDEST PUSH1 0xA DUP2 LT ISZERO PUSH2 0x1F34 JUMPI DUP2 MLOAD DUP4 MSTORE PUSH1 0x20 SWAP3 DUP4 ADD SWAP3 SWAP1 SWAP2 ADD SWAP1 PUSH1 0x1 ADD PUSH2 0x1F15 JUMP JUMPDEST POP POP POP SWAP6 SWAP5 POP POP POP POP POP JUMP JUMPDEST PUSH4 0x4E487B71 PUSH1 0xE0 SHL PUSH0 MSTORE PUSH1 0x41 PUSH1 0x4 MSTORE PUSH1 0x24 PUSH0 REVERT JUMPDEST DUP4 DUP2 MSTORE DUP3 PUSH1 0x20 DUP3 ADD MSTORE PUSH0 PUSH1 0x40 DUP3 ADD DUP4 MLOAD PUSH1 0x20 DUP6 ADD PUSH0 JUMPDEST DUP3 DUP2 LT ISZERO PUSH2 0x1F88 JUMPI DUP2 MLOAD DUP5 MSTORE PUSH1 0x20 SWAP4 DUP5 ADD SWAP4 SWAP1 SWAP2 ADD SWAP1 PUSH1 0x1 ADD PUSH2 0x1F6A JUMP JUMPDEST POP SWAP2 SWAP8 SWAP7 POP POP POP POP POP POP POP JUMP JUMPDEST PUSH4 0x4E487B71 PUSH1 0xE0 SHL PUSH0 MSTORE PUSH1 0x12 PUSH1 0x4 MSTORE PUSH1 0x24 PUSH0 REVERT JUMPDEST PUSH0 DUP3 PUSH2 0x1FC3 JUMPI PUSH4 0x4E487B71 PUSH1 0xE0 SHL PUSH0 MSTORE PUSH1 0x12 PUSH1 0x4 MSTORE PUSH1 0x24 PUSH0 REVERT JUMPDEST POP MOD SWAP1 JUMP JUMPDEST DUP2 DUP2 SUB DUP2 DUP2 GT ISZERO PUSH2 0xCF2 JUMPI PUSH4 0x4E487B71 PUSH1 0xE0 SHL PUSH0 MSTORE PUSH1 0x11 PUSH1 0x4 MSTORE PUSH1 0x24 PUSH0 REVERT JUMPDEST PUSH1 0x40 MLOAD PUSH1 0x1F DUP3 ADD PUSH1 0x1F NOT AND DUP2 ADD PUSH8 0xFFFFFFFFFFFFFFFF DUP2 GT DUP3 DUP3 LT OR ISZERO PUSH2 0x2010 JUMPI PUSH2 0x2010 PUSH2 0x1F40 JUMP JUMPDEST PUSH1 0x40 MSTORE SWAP2 SWAP1 POP JUMP JUMPDEST PUSH0 DUP3 PUSH1 0x1F DUP4 ADD SLT PUSH2 0x2027 JUMPI PUSH0 PUSH0 REVERT JUMPDEST PUSH0 PUSH2 0x2032 PUSH1 0x40 PUSH2 0x1FE7 JUMP JUMPDEST SWAP1 POP DUP1 PUSH1 0x40 DUP5 ADD DUP6 DUP2 GT ISZERO PUSH2 0x2045 JUMPI PUSH0 PUSH0 REVERT JUMPDEST DUP5 JUMPDEST DUP2 DUP2 LT ISZERO PUSH2 0x205F JUMPI DUP1 CALLDATALOAD DUP4 MSTORE PUSH1 0x20 SWAP3 DUP4 ADD SWAP3 ADD PUSH2 0x2047 JUMP JUMPDEST POP SWAP2 SWAP6 SWAP5 POP POP POP POP POP JUMP JUMPDEST PUSH0 PUSH0 PUSH0 PUSH2 0x180 DUP5 DUP7 SUB SLT ISZERO PUSH2 0x207D JUMPI PUSH0 PUSH0 REVERT JUMPDEST PUSH0 DUP6 PUSH1 0x1F DUP7 ADD SLT PUSH2 0x208C JUMPI PUSH0 PUSH0 REVERT JUMPDEST POP PUSH0 DUP1 PUSH2 0x100 PUSH2 0x209B DUP2 PUSH2 0x1FE7 JUMP JUMPDEST SWAP3 POP DUP3 SWAP2 POP DUP7 ADD DUP8 DUP2 GT ISZERO PUSH2 0x20AE JUMPI PUSH0 PUSH0 REVERT JUMPDEST DUP7 JUMPDEST DUP2 DUP2 LT ISZERO PUSH2 0x20C8 JUMPI DUP1 CALLDATALOAD DUP5 MSTORE PUSH1 0x20 SWAP4 DUP5 ADD SWAP4 ADD PUSH2 0x20B0 JUMP JUMPDEST POP DUP2 SWAP6 POP PUSH2 0x20D6 DUP9 DUP3 PUSH2 0x2018 JUMP JUMPDEST SWAP5 POP POP POP POP PUSH2 0x1CBB DUP6 PUSH2 0x140 DUP7 ADD PUSH2 0x2018 JUMP JUMPDEST PUSH0 DUP3 PUSH1 0x1F DUP4 ADD SLT PUSH2 0x20F8 JUMPI PUSH0 PUSH0 REVERT JUMPDEST DUP2 CALLDATALOAD PUSH8 0xFFFFFFFFFFFFFFFF DUP2 GT ISZERO PUSH2 0x2112 JUMPI PUSH2 0x2112 PUSH2 0x1F40 JUMP JUMPDEST PUSH2 0x2125 PUSH1 0x1F DUP3 ADD PUSH1 0x1F NOT AND PUSH1 0x20 ADD PUSH2 0x1FE7 JUMP JUMPDEST DUP2 DUP2 MSTORE DUP5 PUSH1 0x20 DUP4 DUP7 ADD ADD GT ISZERO PUSH2 0x2139 JUMPI PUSH0 PUSH0 REVERT JUMPDEST DUP2 PUSH1 0x20 DUP6 ADD PUSH1 0x20 DUP4 ADD CALLDATACOPY PUSH0 SWAP2 DUP2 ADD PUSH1 0x20 ADD SWAP2 SWAP1 SWAP2 MSTORE SWAP4 SWAP3 POP POP POP JUMP JUMPDEST PUSH0 PUSH0 PUSH0 PUSH2 0x180 DUP5 DUP7 SUB SLT ISZERO PUSH2 0x2168 JUMPI PUSH0 PUSH0 REVERT JUMPDEST PUSH0 DUP6 PUSH1 0x1F DUP7 ADD SLT PUSH2 0x2177 JUMPI PUSH0 PUSH0 REVERT JUMPDEST POP PUSH0 DUP1 PUSH2 0x140 PUSH2 0x2186 DUP2 PUSH2 0x1FE7 JUMP JUMPDEST SWAP3 POP DUP3 SWAP2 POP DUP7 ADD DUP8 DUP2 GT ISZERO PUSH2 0x2199 JUMPI PUSH0 PUSH0 REVERT JUMPDEST DUP7 JUMPDEST DUP2 DUP2 LT ISZERO PUSH2 0x21B3 JUMPI DUP1 CALLDATALOAD DUP5 MSTORE PUSH1 0x20 SWAP4 DUP5 ADD SWAP4 ADD PUSH2 0x219B JUMP JUMPDEST POP SWAP1 SWAP5 POP CALLDATALOAD SWAP1 POP PUSH8 0xFFFFFFFFFFFFFFFF DUP2 GT ISZERO PUSH2 0x21CE JUMPI PUSH0 PUSH0 REVERT JUMPDEST PUSH2 0x21DA DUP7 DUP3 DUP8 ADD PUSH2 0x20E9 JUMP JUMPDEST SWAP3 POP POP PUSH2 0x160 DUP5 ADD CALLDATALOAD PUSH8 0xFFFFFFFFFFFFFFFF DUP2 GT ISZERO PUSH2 0x21F7 JUMPI PUSH0 PUSH0 REVERT JUMPDEST PUSH2 0x2203 DUP7 DUP3 DUP8 ADD PUSH2 0x20E9 JUMP JUMPDEST SWAP2 POP POP SWAP3 POP SWAP3 POP SWAP3 JUMP INVALID ADDRESS PUSH5 0x4E72E131A0 0x29 0xB8 POP GASLIMIT 0xB6 DUP2 DUP2 PC TSTORE SWAP8 DUP2 PUSH11 0x916871CA8D3C208C16D87C REVERT SELFBALANCE ADDRESS PUSH5 0x4E72E131A0 0x29 0xB8 POP GASLIMIT 0xB6 DUP2 DUP2 PC TSTORE 0x28 CALLER 0xE8 BASEFEE PUSH26 0xB9709143E1F593F0000001A26469706673582212200CBADECE0A TSTORE STATICCALL SWAP4 0xC2 PUSH2 0x112F SMOD PREVRANDAO 0x2F SWAP2 PUSH29 0x251E8755256B55DD86038722B8222964736F6C634300081C0033000000 "},"methodIdentifiers":{"compressProof(uint256[8],uint256[2],uint256[2])":"b1c3a00e","provingKeyHash()":"233ace11","verifyCompressedProof(uint256[4],uint256[1],uint256,uint256[10])":"dc37819a","verifyProof(bytes,bytes)":"b8e72af6","verifyProof(uint256[8],uint256[2],uint256[2],uint256[10])":"df078bef"}}}}}