{"src/ProcessRegistry.sol":{"ProcessRegistry":{"abi":[{"inputs":[{"internalType":"address","name":"target","type":"address"}],"name":"AddressEmptyCode","type":"error"},{"inputs":[{"internalType":"address","name":"implementation","type":"address"}],"name":"ERC1967InvalidImplementation","type":"error"},{"inputs":[],"name":"ERC1967NonPayable","type":"error"},{"inputs":[],"name":"FailedInnerCall","type":"error"},{"inputs":[],"name":"InvalidInitialization","type":"error"},{"inputs":[],"name":"NotInitializing","type":"error"},{"inputs":[{"internalType":"address","name":"owner","type":"address"}],"name":"OwnableInvalidOwner","type":"error"},{"inputs":[{"internalType":"address","name":"account","type":"address"}],"name":"OwnableUnauthorizedAccount","type":"error"},{"inputs":[],"name":"UUPSUnauthorizedCallContext","type":"error"},{"inputs":[{"internalType":"bytes32","name":"slot","type":"bytes32"}],"name":"UUPSUnsupportedProxiableUUID","type":"error"},{"anonymous":false,"inputs":[{"indexed":true,"internalType":"bytes32","name":"processID","type":"bytes32"},{"indexed":false,"internalType":"bytes32","name":"censusRoot","type":"bytes32"},{"indexed":false,"internalType":"string","name":"censusURI","type":"string"},{"indexed":false,"internalType":"uint256","name":"maxCensusSize","type":"uint256"}],"name":"CensusUpdated","type":"event"},{"anonymous":false,"inputs":[{"indexed":false,"internalType":"uint64","name":"version","type":"uint64"}],"name":"Initialized","type":"event"},{"anonymous":false,"inputs":[{"indexed":true,"internalType":"address","name":"previousOwner","type":"address"},{"indexed":true,"internalType":"address","name":"newOwner","type":"address"}],"name":"OwnershipTransferred","type":"event"},{"anonymous":false,"inputs":[{"indexed":true,"internalType":"bytes32","name":"processID","type":"bytes32"},{"indexed":true,"internalType":"address","name":"creator","type":"address"}],"name":"ProcessCreated","type":"event"},{"anonymous":false,"inputs":[{"indexed":true,"internalType":"bytes32","name":"processID","type":"bytes32"},{"indexed":false,"internalType":"uint256","name":"duration","type":"uint256"}],"name":"ProcessDurationChanged","type":"event"},{"anonymous":false,"inputs":[{"indexed":true,"internalType":"bytes32","name":"processID","type":"bytes32"},{"indexed":false,"internalType":"bytes32","name":"newStateRoot","type":"bytes32"}],"name":"ProcessStateRootUpdated","type":"event"},{"anonymous":false,"inputs":[{"indexed":true,"internalType":"bytes32","name":"processID","type":"bytes32"},{"indexed":false,"internalType":"enum ProcessRegistry.ProcessStatus","name":"newStatus","type":"uint8"}],"name":"ProcessStatusChanged","type":"event"},{"anonymous":false,"inputs":[{"indexed":true,"internalType":"address","name":"implementation","type":"address"}],"name":"Upgraded","type":"event"},{"inputs":[],"name":"UPGRADE_INTERFACE_VERSION","outputs":[{"internalType":"string","name":"","type":"string"}],"stateMutability":"view","type":"function"},{"inputs":[],"name":"chainID","outputs":[{"internalType":"string","name":"","type":"string"}],"stateMutability":"view","type":"function"},{"inputs":[{"internalType":"bytes32","name":"_processID","type":"bytes32"}],"name":"endProcess","outputs":[],"stateMutability":"nonpayable","type":"function"},{"inputs":[{"internalType":"bytes32","name":"_processID","type":"bytes32"}],"name":"getProcess","outputs":[{"components":[{"internalType":"enum ProcessRegistry.ProcessStatus","name":"status","type":"uint8"},{"internalType":"bytes32","name":"organizationId","type":"bytes32"},{"internalType":"bytes32[2]","name":"encryptionKeys","type":"bytes32[2]"},{"internalType":"bytes32","name":"latestStateRoot","type":"bytes32"},{"internalType":"uint256[]","name":"result","type":"uint256[]"},{"internalType":"uint256","name":"startTime","type":"uint256"},{"internalType":"uint256","name":"duration","type":"uint256"},{"internalType":"string","name":"metadataURI","type":"string"},{"components":[{"internalType":"uint8","name":"envelopeType","type":"uint8"},{"internalType":"uint8","name":"processMode","type":"uint8"},{"internalType":"uint256","name":"startTime","type":"uint256"},{"internalType":"uint256","name":"duration","type":"uint256"},{"internalType":"enum ProcessRegistry.ProcessStatus","name":"status","type":"uint8"},{"components":[{"internalType":"bool","name":"uniqueValues","type":"bool"},{"internalType":"uint256","name":"maxCount","type":"uint256"},{"internalType":"uint256","name":"maxValue","type":"uint256"},{"internalType":"uint256","name":"minValue","type":"uint256"},{"internalType":"uint256","name":"maxOverwrites","type":"uint256"},{"internalType":"uint256","name":"maxTotalCost","type":"uint256"},{"internalType":"uint256","name":"minTotalCost","type":"uint256"},{"internalType":"uint256","name":"costExponent","type":"uint256"}],"internalType":"struct ProcessRegistry.VoteOptions","name":"voteOptions","type":"tuple"}],"internalType":"struct ProcessRegistry.ProcessOptions","name":"options","type":"tuple"},{"components":[{"internalType":"enum ProcessRegistry.CensusOrigin","name":"censusOrigin","type":"uint8"},{"internalType":"uint256","name":"maxCensusSize","type":"uint256"},{"internalType":"bytes32","name":"censusRoot","type":"bytes32"},{"internalType":"string","name":"censusURI","type":"string"}],"internalType":"struct ProcessRegistry.Census","name":"census","type":"tuple"}],"internalType":"struct ProcessRegistry.Process","name":"","type":"tuple"}],"stateMutability":"view","type":"function"},{"inputs":[{"internalType":"string","name":"_chainID","type":"string"},{"internalType":"address","name":"_organizationRegistry","type":"address"}],"name":"initialize","outputs":[],"stateMutability":"nonpayable","type":"function"},{"inputs":[{"components":[{"internalType":"uint8","name":"envelopeType","type":"uint8"},{"internalType":"uint8","name":"processMode","type":"uint8"},{"internalType":"uint256","name":"startTime","type":"uint256"},{"internalType":"uint256","name":"duration","type":"uint256"},{"internalType":"enum ProcessRegistry.ProcessStatus","name":"status","type":"uint8"},{"components":[{"internalType":"bool","name":"uniqueValues","type":"bool"},{"internalType":"uint256","name":"maxCount","type":"uint256"},{"internalType":"uint256","name":"maxValue","type":"uint256"},{"internalType":"uint256","name":"minValue","type":"uint256"},{"internalType":"uint256","name":"maxOverwrites","type":"uint256"},{"internalType":"uint256","name":"maxTotalCost","type":"uint256"},{"internalType":"uint256","name":"minTotalCost","type":"uint256"},{"internalType":"uint256","name":"costExponent","type":"uint256"}],"internalType":"struct ProcessRegistry.VoteOptions","name":"voteOptions","type":"tuple"}],"internalType":"struct ProcessRegistry.ProcessOptions","name":"_options","type":"tuple"},{"components":[{"internalType":"enum ProcessRegistry.CensusOrigin","name":"censusOrigin","type":"uint8"},{"internalType":"uint256","name":"maxCensusSize","type":"uint256"},{"internalType":"bytes32","name":"censusRoot","type":"bytes32"},{"internalType":"string","name":"censusURI","type":"string"}],"internalType":"struct ProcessRegistry.Census","name":"_census","type":"tuple"},{"internalType":"string","name":"_metadata","type":"string"},{"internalType":"bytes32","name":"_organizationID","type":"bytes32"},{"internalType":"bytes32","name":"_processID","type":"bytes32"},{"internalType":"bytes32","name":"_encryptionPubKey","type":"bytes32"},{"internalType":"bytes32","name":"_initStateRoot","type":"bytes32"}],"name":"newProcess","outputs":[],"stateMutability":"nonpayable","type":"function"},{"inputs":[],"name":"organizationRegistry","outputs":[{"internalType":"address","name":"","type":"address"}],"stateMutability":"view","type":"function"},{"inputs":[],"name":"owner","outputs":[{"internalType":"address","name":"","type":"address"}],"stateMutability":"view","type":"function"},{"inputs":[],"name":"processCount","outputs":[{"internalType":"uint32","name":"","type":"uint32"}],"stateMutability":"view","type":"function"},{"inputs":[{"internalType":"bytes32","name":"","type":"bytes32"}],"name":"processes","outputs":[{"internalType":"enum ProcessRegistry.ProcessStatus","name":"status","type":"uint8"},{"internalType":"bytes32","name":"organizationId","type":"bytes32"},{"internalType":"bytes32","name":"latestStateRoot","type":"bytes32"},{"internalType":"uint256","name":"startTime","type":"uint256"},{"internalType":"uint256","name":"duration","type":"uint256"},{"internalType":"string","name":"metadataURI","type":"string"},{"components":[{"internalType":"uint8","name":"envelopeType","type":"uint8"},{"internalType":"uint8","name":"processMode","type":"uint8"},{"internalType":"uint256","name":"startTime","type":"uint256"},{"internalType":"uint256","name":"duration","type":"uint256"},{"internalType":"enum ProcessRegistry.ProcessStatus","name":"status","type":"uint8"},{"components":[{"internalType":"bool","name":"uniqueValues","type":"bool"},{"internalType":"uint256","name":"maxCount","type":"uint256"},{"internalType":"uint256","name":"maxValue","type":"uint256"},{"internalType":"uint256","name":"minValue","type":"uint256"},{"internalType":"uint256","name":"maxOverwrites","type":"uint256"},{"internalType":"uint256","name":"maxTotalCost","type":"uint256"},{"internalType":"uint256","name":"minTotalCost","type":"uint256"},{"internalType":"uint256","name":"costExponent","type":"uint256"}],"internalType":"struct ProcessRegistry.VoteOptions","name":"voteOptions","type":"tuple"}],"internalType":"struct ProcessRegistry.ProcessOptions","name":"options","type":"tuple"},{"components":[{"internalType":"enum ProcessRegistry.CensusOrigin","name":"censusOrigin","type":"uint8"},{"internalType":"uint256","name":"maxCensusSize","type":"uint256"},{"internalType":"bytes32","name":"censusRoot","type":"bytes32"},{"internalType":"string","name":"censusURI","type":"string"}],"internalType":"struct ProcessRegistry.Census","name":"census","type":"tuple"}],"stateMutability":"view","type":"function"},{"inputs":[],"name":"proxiableUUID","outputs":[{"internalType":"bytes32","name":"","type":"bytes32"}],"stateMutability":"view","type":"function"},{"inputs":[],"name":"renounceOwnership","outputs":[],"stateMutability":"nonpayable","type":"function"},{"inputs":[{"internalType":"bytes32","name":"_processID","type":"bytes32"},{"components":[{"internalType":"enum ProcessRegistry.CensusOrigin","name":"censusOrigin","type":"uint8"},{"internalType":"uint256","name":"maxCensusSize","type":"uint256"},{"internalType":"bytes32","name":"censusRoot","type":"bytes32"},{"internalType":"string","name":"censusURI","type":"string"}],"internalType":"struct ProcessRegistry.Census","name":"_census","type":"tuple"}],"name":"setProcessCensus","outputs":[],"stateMutability":"nonpayable","type":"function"},{"inputs":[{"internalType":"bytes32","name":"_processID","type":"bytes32"},{"internalType":"uint256","name":"_duration","type":"uint256"}],"name":"setProcessDuration","outputs":[],"stateMutability":"nonpayable","type":"function"},{"inputs":[{"internalType":"bytes32","name":"_processID","type":"bytes32"},{"internalType":"uint256[]","name":"_result","type":"uint256[]"},{"internalType":"bytes","name":"_proof","type":"bytes"}],"name":"setProcessResult","outputs":[],"stateMutability":"nonpayable","type":"function"},{"inputs":[{"internalType":"bytes32","name":"_processID","type":"bytes32"},{"internalType":"enum ProcessRegistry.ProcessStatus","name":"_newStatus","type":"uint8"}],"name":"setProcessStatus","outputs":[],"stateMutability":"nonpayable","type":"function"},{"inputs":[{"internalType":"bytes32","name":"_processID","type":"bytes32"},{"internalType":"bytes32","name":"_oldRoot","type":"bytes32"},{"internalType":"bytes32","name":"_newRoot","type":"bytes32"},{"internalType":"bytes","name":"_proof","type":"bytes"}],"name":"submitStateTransition","outputs":[],"stateMutability":"nonpayable","type":"function"},{"inputs":[{"internalType":"address","name":"newOwner","type":"address"}],"name":"transferOwnership","outputs":[],"stateMutability":"nonpayable","type":"function"},{"inputs":[{"internalType":"address","name":"newImplementation","type":"address"},{"internalType":"bytes","name":"data","type":"bytes"}],"name":"upgradeToAndCall","outputs":[],"stateMutability":"payable","type":"function"}],"evm":{"bytecode":{"linkReferences":{},"object":"60a06040523073ffffffffffffffffffffffffffffffffffffffff1660809073ffffffffffffffffffffffffffffffffffffffff1681525034801561004357600080fd5b50608051615abd6200006e600039600081816128150152818161286a0152612a250152615abd6000f3fe6080604052600436106101145760003560e01c80638cafab7f116100a0578063adc879e911610064578063adc879e914610371578063b66ba6eb1461039c578063c718c01f146103c5578063ea9bcaf6146103ee578063f2fde38b1461041757610114565b80638cafab7f1461028a5780638da5cb5b146102b5578063992bc45b146102e0578063a96e8d2e1461031d578063ad3cb1cc1461034657610114565b806356a6f1e2116100e757806356a6f1e2146101cd5780636bae04ea146101f6578063715018a61461021f5780637ab4339d14610236578063848df5401461025f57610114565b80630535fece14610119578063254025451461015d5780634f1ef2861461018657806352d1902d146101a2575b600080fd5b34801561012557600080fd5b50610140600480360381019061013b919061336f565b610440565b604051610154989796959493929190613742565b60405180910390f35b34801561016957600080fd5b50610184600480360381019061017f919061388a565b610711565b005b6101a0600480360381019061019b9190613aad565b61085e565b005b3480156101ae57600080fd5b506101b761087d565b6040516101c49190613b09565b60405180910390f35b3480156101d957600080fd5b506101f460048036038101906101ef9190613b49565b6108b0565b005b34801561020257600080fd5b5061021d60048036038101906102189190613bad565b610c7e565b005b34801561022b57600080fd5b506102346110a4565b005b34801561024257600080fd5b5061025d60048036038101906102589190613c5f565b6110b8565b005b34801561026b57600080fd5b506102746112a4565b6040516102819190613cde565b60405180910390f35b34801561029657600080fd5b5061029f6112ba565b6040516102ac9190613d08565b60405180910390f35b3480156102c157600080fd5b506102ca6112e0565b6040516102d79190613d08565b60405180910390f35b3480156102ec57600080fd5b506103076004803603810190610302919061336f565b611318565b6040516103149190614036565b60405180910390f35b34801561032957600080fd5b50610344600480360381019061033f9190614078565b6116df565b005b34801561035257600080fd5b5061035b611fdc565b604051610368919061415d565b60405180910390f35b34801561037d57600080fd5b50610386612015565b604051610393919061415d565b60405180910390f35b3480156103a857600080fd5b506103c360048036038101906103be919061417f565b6120a3565b005b3480156103d157600080fd5b506103ec60048036038101906103e79190614233565b612289565b005b3480156103fa57600080fd5b506104156004803603810190610410919061336f565b612547565b005b34801561042357600080fd5b5061043e60048036038101906104399190614273565b61278d565b005b60006020528060005260406000206000915090508060000160009054906101000a900460ff169080600101549080600401549080600601549080600701549080600801805461048e906142cf565b80601f01602080910402602001604051908101604052809291908181526020018280546104ba906142cf565b80156105075780601f106104dc57610100808354040283529160200191610507565b820191906000526020600020905b8154815290600101906020018083116104ea57829003601f168201915b505050505090806009016040518060c00160405290816000820160009054906101000a900460ff1660ff1660ff1681526020016000820160019054906101000a900460ff1660ff1660ff16815260200160018201548152602001600282015481526020016003820160009054906101000a900460ff16600481111561058f5761058e61339c565b5b60048111156105a1576105a061339c565b5b815260200160048201604051806101000160405290816000820160009054906101000a900460ff161515151581526020016001820154815260200160028201548152602001600382015481526020016004820154815260200160058201548152602001600682015481526020016007820154815250508152505090806015016040518060800160405290816000820160009054906101000a900460ff1660098111156106505761064f61339c565b5b60098111156106625761066161339c565b5b8152602001600182015481526020016002820154815260200160038201805461068a906142cf565b80601f01602080910402602001604051908101604052809291908181526020018280546106b6906142cf565b80156107035780601f106106d857610100808354040283529160200191610703565b820191906000526020600020905b8154815290600101906020018083116106e657829003601f168201915b505050505081525050905088565b6000801b600080878152602001908152602001600020600101540361076b576040517f08c379a00000000000000000000000000000000000000000000000000000000081526004016107629061434c565b60405180910390fd5b6001600481111561077f5761077e61339c565b5b60008087815260200190815260200160002060000160009054906101000a900460ff1660048111156107b4576107b361339c565b5b146107f4576040517f08c379a00000000000000000000000000000000000000000000000000000000081526004016107eb906143b8565b60405180910390fd5b8383600080888152602001908152602001600020600501919061081892919061309a565b50600460008087815260200190815260200160002060000160006101000a81548160ff021916908360048111156108525761085161339c565b5b02179055505050505050565b610866612813565b61086f826128f9565b6108798282612904565b5050565b6000610887612a23565b7f360894a13ba1a3210667c828492db98dca3e2076cc3735a920a3ca505d382bbc60001b905090565b600160009054906101000a900473ffffffffffffffffffffffffffffffffffffffff1673ffffffffffffffffffffffffffffffffffffffff166364dd489f60008085815260200190815260200160002060010154336040518363ffffffff1660e01b81526004016109229291906143d8565b602060405180830381865afa15801561093f573d6000803e3d6000fd5b505050506040513d601f19601f82011682018060405250810190610963919061442d565b6109a2576040517f08c379a0000000000000000000000000000000000000000000000000000000008152600401610999906144cc565b60405180910390fd5b600080600084815260200190815260200160002060000160009054906101000a900460ff169050600060048111156109dd576109dc61339c565b5b8160048111156109f0576109ef61339c565b5b14158015610a23575060036004811115610a0d57610a0c61339c565b5b816004811115610a2057610a1f61339c565b5b14155b15610a63576040517f08c379a0000000000000000000000000000000000000000000000000000000008152600401610a5a90614538565b60405180910390fd5b60036004811115610a7757610a7661339c565b5b816004811115610a8a57610a8961339c565b5b03610b2f576000600260008086815260200190815260200160002060090160000160019054906101000a900460ff161660ff1603610b2a5760006004811115610ad657610ad561339c565b5b826004811115610ae957610ae861339c565b5b14610b29576040517f08c379a0000000000000000000000000000000000000000000000000000000008152600401610b20906145a4565b60405180910390fd5b5b610b9e565b6000600260008086815260200190815260200160002060090160000160019054906101000a900460ff161660ff1603610b9d576040517f08c379a0000000000000000000000000000000000000000000000000000000008152600401610b94906145a4565b60405180910390fd5b5b806004811115610bb157610bb061339c565b5b826004811115610bc457610bc361339c565b5b03610c04576040517f08c379a0000000000000000000000000000000000000000000000000000000008152600401610bfb90614610565b60405180910390fd5b8160008085815260200190815260200160002060000160006101000a81548160ff02191690836004811115610c3c57610c3b61339c565b5b0217905550827fac0c4085a30bc70d0d8893ee5d6466ac9c5f03e27fd7292dcef128a610e7c19083604051610c719190614630565b60405180910390a2505050565b600160009054906101000a900473ffffffffffffffffffffffffffffffffffffffff1673ffffffffffffffffffffffffffffffffffffffff166364dd489f60008085815260200190815260200160002060010154336040518363ffffffff1660e01b8152600401610cf09291906143d8565b602060405180830381865afa158015610d0d573d6000803e3d6000fd5b505050506040513d601f19601f82011682018060405250810190610d31919061442d565b610d70576040517f08c379a0000000000000000000000000000000000000000000000000000000008152600401610d67906146bd565b60405180910390fd5b6000818060600190610d8291906146ec565b905011610dc4576040517f08c379a0000000000000000000000000000000000000000000000000000000008152600401610dbb9061479b565b60405180910390fd5b6000801b816040013503610e0d576040517f08c379a0000000000000000000000000000000000000000000000000000000008152600401610e0490614807565b60405180910390fd5b6000801b6000808481526020019081526020016000206001015403610e67576040517f08c379a0000000000000000000000000000000000000000000000000000000008152600401610e5e9061434c565b60405180910390fd5b60006004811115610e7b57610e7a61339c565b5b60008084815260200190815260200160002060000160009054906101000a900460ff166004811115610eb057610eaf61339c565b5b1480610f02575060036004811115610ecb57610eca61339c565b5b60008084815260200190815260200160002060000160009054906101000a900460ff166004811115610f0057610eff61339c565b5b145b610f41576040517f08c379a0000000000000000000000000000000000000000000000000000000008152600401610f3890614538565b60405180910390fd5b6000600460008085815260200190815260200160002060090160000160019054906101000a900460ff161660ff1603610faf576040517f08c379a0000000000000000000000000000000000000000000000000000000008152600401610fa690614873565b60405180910390fd5b8060200135600080848152602001908152602001600020601501600101541015610ff5578060200135600080848152602001908152602001600020601501600101819055505b80604001356000808481526020019081526020016000206015016002018190555080806060019061102691906146ec565b600080858152602001908152602001600020601501600301918261104b929190614a4a565b50817f35947a8913e2156f19b018078c9f0667e49cb3dc24af3434a4d0b16b82675b1b826040013583806060019061108391906146ec565b85602001356040516110989493929190614b47565b60405180910390a25050565b6110ac612aaa565b6110b66000612b31565b565b60006110c2612c08565b905060008160000160089054906101000a900460ff1615905060008260000160009054906101000a900467ffffffffffffffff1690506000808267ffffffffffffffff161480156111105750825b9050600060018367ffffffffffffffff16148015611145575060003073ffffffffffffffffffffffffffffffffffffffff163b145b905081158015611153575080155b1561118a576040517ff92ee8a900000000000000000000000000000000000000000000000000000000815260040160405180910390fd5b60018560000160006101000a81548167ffffffffffffffff021916908367ffffffffffffffff16021790555083156111da5760018560000160086101000a81548160ff0219169083151502179055505b6111e333612c30565b6111eb612c44565b8787600291826111fc929190614a4a565b5085600160006101000a81548173ffffffffffffffffffffffffffffffffffffffff021916908373ffffffffffffffffffffffffffffffffffffffff160217905550831561129a5760008560000160086101000a81548160ff0219169083151502179055507fc7f505b2f371ae2175ee4913f4499e1f2633a7b5936321eed1cdaeb6115181d260016040516112919190614bd6565b60405180910390a15b5050505050505050565b600160149054906101000a900463ffffffff1681565b600160009054906101000a900473ffffffffffffffffffffffffffffffffffffffff1681565b6000806112eb612c4e565b90508060000160009054906101000a900473ffffffffffffffffffffffffffffffffffffffff1691505090565b6113206130e7565b600080838152602001908152602001600020604051806101400160405290816000820160009054906101000a900460ff1660048111156113635761136261339c565b5b60048111156113755761137461339c565b5b815260200160018201548152602001600282016002806020026040519081016040528092919082600280156113bf576020028201915b8154815260200190600101908083116113ab575b50505050508152602001600482015481526020016005820180548060200260200160405190810160405280929190818152602001828054801561142157602002820191906000526020600020905b81548152602001906001019080831161140d575b50505050508152602001600682015481526020016007820154815260200160088201805461144e906142cf565b80601f016020809104026020016040519081016040528092919081815260200182805461147a906142cf565b80156114c75780601f1061149c576101008083540402835291602001916114c7565b820191906000526020600020905b8154815290600101906020018083116114aa57829003601f168201915b50505050508152602001600982016040518060c00160405290816000820160009054906101000a900460ff1660ff1660ff1681526020016000820160019054906101000a900460ff1660ff1660ff16815260200160018201548152602001600282015481526020016003820160009054906101000a900460ff1660048111156115535761155261339c565b5b60048111156115655761156461339c565b5b815260200160048201604051806101000160405290816000820160009054906101000a900460ff16151515158152602001600182015481526020016002820154815260200160038201548152602001600482015481526020016005820154815260200160068201548152602001600782015481525050815250508152602001601582016040518060800160405290816000820160009054906101000a900460ff1660098111156116185761161761339c565b5b600981111561162a5761162961339c565b5b81526020016001820154815260200160028201548152602001600382018054611652906142cf565b80601f016020809104026020016040519081016040528092919081815260200182805461167e906142cf565b80156116cb5780601f106116a0576101008083540402835291602001916116cb565b820191906000526020600020905b8154815290600101906020018083116116ae57829003601f168201915b505050505081525050815250509050919050565b60008860a0016020013511611729576040517f08c379a000000000000000000000000000000000000000000000000000000000815260040161172090614c3d565b60405180910390fd5b8760a001602001358860a0016040013511611779576040517f08c379a000000000000000000000000000000000000000000000000000000000815260040161177090614ca9565b60405180910390fd5b6000600481111561178d5761178c61339c565b5b8860800160208101906117a09190614cc9565b60048111156117b2576117b161339c565b5b14806117f45750600360048111156117cd576117cc61339c565b5b8860800160208101906117e09190614cc9565b60048111156117f2576117f161339c565b5b145b611833576040517f08c379a000000000000000000000000000000000000000000000000000000000815260040161182a90614d42565b60405180910390fd5b600360098111156118475761184661339c565b5b87600001602081019061185a9190614d87565b600981111561186c5761186b61339c565b5b036118cd57600060028960000160208101906118889190614de0565b1660ff16146118cc576040517f08c379a00000000000000000000000000000000000000000000000000000000081526004016118c390614ea5565b60405180910390fd5b5b6009808111156118e0576118df61339c565b5b8760000160208101906118f39190614d87565b60098111156119055761190461339c565b5b03611a0b5760018860a0016020013514611954576040517f08c379a000000000000000000000000000000000000000000000000000000000815260040161194b90614f37565b60405180910390fd5b6000600289600001602081019061196b9190614de0565b1660ff16146119af576040517f08c379a00000000000000000000000000000000000000000000000000000000081526004016119a690614fef565b60405180910390fd5b600060048960000160208101906119c69190614de0565b1660ff1614611a0a576040517f08c379a0000000000000000000000000000000000000000000000000000000008152600401611a01906150a7565b60405180910390fd5b5b42886040013511611a51576040517f08c379a0000000000000000000000000000000000000000000000000000000008152600401611a4890615113565b60405180910390fd5b4288606001358960400135611a669190615162565b11611aa6576040517f08c379a0000000000000000000000000000000000000000000000000000000008152600401611a9d906151e2565b60405180910390fd5b60006001896000016020810190611abd9190614de0565b1660ff1614611b01576040517f08c379a0000000000000000000000000000000000000000000000000000000008152600401611af890615274565b60405180910390fd5b600160009054906101000a900473ffffffffffffffffffffffffffffffffffffffff1673ffffffffffffffffffffffffffffffffffffffff166364dd489f85336040518363ffffffff1660e01b8152600401611b5e9291906143d8565b602060405180830381865afa158015611b7b573d6000803e3d6000fd5b505050506040513d601f19601f82011682018060405250810190611b9f919061442d565b611bde576040517f08c379a0000000000000000000000000000000000000000000000000000000008152600401611bd5906152e0565b60405180910390fd5b6000801b6000808581526020019081526020016000206001015414611c38576040517f08c379a0000000000000000000000000000000000000000000000000000000008152600401611c2f90615372565b60405180910390fd5b60006040518061014001604052808a6080016020810190611c599190614cc9565b6004811115611c6b57611c6a61339c565b5b815260200186815260200160405180604001604052808681526020016000801b8152508152602001838152602001600067ffffffffffffffff811115611cb457611cb3613982565b5b604051908082528060200260200182016040528015611ce25781602001602082028036833780820191505090505b5081526020018a6040013581526020018a60600135815260200188888080601f016020809104026020016040519081016040528093929190818152602001838380828437600081840152601f19601f8201169050808301925050505050505081526020018a803603810190611d57919061551c565b815260200189611d669061567f565b81525090508060008086815260200190815260200160002060008201518160000160006101000a81548160ff02191690836004811115611da957611da861339c565b5b021790555060208201518160010155604082015181600201906002611dcf929190613164565b50606082015181600401556080820151816005019080519060200190611df69291906131a4565b5060a0820151816006015560c0820151816007015560e0820151816008019081611e209190615692565b506101008201518160090160008201518160000160006101000a81548160ff021916908360ff16021790555060208201518160000160016101000a81548160ff021916908360ff160217905550604082015181600101556060820151816002015560808201518160030160006101000a81548160ff02191690836004811115611eac57611eab61339c565b5b021790555060a08201518160040160008201518160000160006101000a81548160ff0219169083151502179055506020820151816001015560408201518160020155606082015181600301556080820151816004015560a0820151816005015560c0820151816006015560e08201518160070155505050506101208201518160150160008201518160000160006101000a81548160ff02191690836009811115611f5957611f5861339c565b5b021790555060208201518160010155604082015181600201556060820151816003019081611f879190615692565b5050509050503373ffffffffffffffffffffffffffffffffffffffff16847fada6f87a2a16a0c9c169ca36754c5f33f7c1a973b575d068f888a549ed4faefa60405160405180910390a3505050505050505050565b6040518060400160405280600581526020017f352e302e3000000000000000000000000000000000000000000000000000000081525081565b60028054612022906142cf565b80601f016020809104026020016040519081016040528092919081815260200182805461204e906142cf565b801561209b5780601f106120705761010080835404028352916020019161209b565b820191906000526020600020905b81548152906001019060200180831161207e57829003601f168201915b505050505081565b6000801b60008087815260200190815260200160002060010154036120fd576040517f08c379a00000000000000000000000000000000000000000000000000000000081526004016120f49061434c565b60405180910390fd5b6004808111156121105761210f61339c565b5b60008087815260200190815260200160002060000160009054906101000a900460ff1660048111156121455761214461339c565b5b1415801561219a5750600260048111156121625761216161339c565b5b60008087815260200190815260200160002060000160009054906101000a900460ff1660048111156121975761219661339c565b5b14155b6121d9576040517f08c379a00000000000000000000000000000000000000000000000000000000081526004016121d0906157d6565b60405180910390fd5b836000808781526020019081526020016000206004015414612230576040517f08c379a000000000000000000000000000000000000000000000000000000000815260040161222790615842565b60405180910390fd5b8260008087815260200190815260200160002060040181905550847f734f931fe7a3776841211722ed18b29fc2947cc7a13e74d15fa612205c022db88460405161227a9190613b09565b60405180910390a25050505050565b600160009054906101000a900473ffffffffffffffffffffffffffffffffffffffff1673ffffffffffffffffffffffffffffffffffffffff166364dd489f60008085815260200190815260200160002060010154336040518363ffffffff1660e01b81526004016122fb9291906143d8565b602060405180830381865afa158015612318573d6000803e3d6000fd5b505050506040513d601f19601f8201168201806040525081019061233c919061442d565b61237b576040517f08c379a0000000000000000000000000000000000000000000000000000000008152600401612372906158d4565b60405180910390fd5b6000801b60008084815260200190815260200160002060010154036123d5576040517f08c379a00000000000000000000000000000000000000000000000000000000081526004016123cc9061434c565b60405180910390fd5b600060048111156123e9576123e861339c565b5b60008084815260200190815260200160002060000160009054906101000a900460ff16600481111561241e5761241d61339c565b5b14806124705750600360048111156124395761243861339c565b5b60008084815260200190815260200160002060000160009054906101000a900460ff16600481111561246e5761246d61339c565b5b145b6124af576040517f08c379a00000000000000000000000000000000000000000000000000000000081526004016124a690614538565b60405180910390fd5b4281116124f1576040517f08c379a00000000000000000000000000000000000000000000000000000000081526004016124e890615940565b60405180910390fd5b8060008084815260200190815260200160002060070181905550817f0f759826327c668a220d576485ac38ddc4f83fbc414b984c00e79f669b649f468260405161253b9190615960565b60405180910390a25050565b600160009054906101000a900473ffffffffffffffffffffffffffffffffffffffff1673ffffffffffffffffffffffffffffffffffffffff166364dd489f60008084815260200190815260200160002060010154336040518363ffffffff1660e01b81526004016125b99291906143d8565b602060405180830381865afa1580156125d6573d6000803e3d6000fd5b505050506040513d601f19601f820116820180604052508101906125fa919061442d565b612639576040517f08c379a0000000000000000000000000000000000000000000000000000000008152600401612630906159c7565b60405180910390fd5b6000600481111561264d5761264c61339c565b5b60008083815260200190815260200160002060000160009054906101000a900460ff1660048111156126825761268161339c565b5b14806126d457506003600481111561269d5761269c61339c565b5b60008083815260200190815260200160002060000160009054906101000a900460ff1660048111156126d2576126d161339c565b5b145b612713576040517f08c379a000000000000000000000000000000000000000000000000000000000815260040161270a90614538565b60405180910390fd5b600160008083815260200190815260200160002060000160006101000a81548160ff0219169083600481111561274c5761274b61339c565b5b0217905550807fac0c4085a30bc70d0d8893ee5d6466ac9c5f03e27fd7292dcef128a610e7c19060016040516127829190614630565b60405180910390a250565b612795612aaa565b600073ffffffffffffffffffffffffffffffffffffffff168173ffffffffffffffffffffffffffffffffffffffff16036128075760006040517f1e4fbdf70000000000000000000000000000000000000000000000000000000081526004016127fe9190613d08565b60405180910390fd5b61281081612b31565b50565b7f000000000000000000000000000000000000000000000000000000000000000073ffffffffffffffffffffffffffffffffffffffff163073ffffffffffffffffffffffffffffffffffffffff1614806128c057507f000000000000000000000000000000000000000000000000000000000000000073ffffffffffffffffffffffffffffffffffffffff166128a7612c76565b73ffffffffffffffffffffffffffffffffffffffff1614155b156128f7576040517fe07c8dba00000000000000000000000000000000000000000000000000000000815260040160405180910390fd5b565b612901612aaa565b50565b8173ffffffffffffffffffffffffffffffffffffffff166352d1902d6040518163ffffffff1660e01b8152600401602060405180830381865afa92505050801561296c57506040513d601f19601f8201168201806040525081019061296991906159fc565b60015b6129ad57816040517f4c9c8ce30000000000000000000000000000000000000000000000000000000081526004016129a49190613d08565b60405180910390fd5b7f360894a13ba1a3210667c828492db98dca3e2076cc3735a920a3ca505d382bbc60001b8114612a1457806040517faa1d49a4000000000000000000000000000000000000000000000000000000008152600401612a0b9190613b09565b60405180910390fd5b612a1e8383612ccd565b505050565b7f000000000000000000000000000000000000000000000000000000000000000073ffffffffffffffffffffffffffffffffffffffff163073ffffffffffffffffffffffffffffffffffffffff1614612aa8576040517fe07c8dba00000000000000000000000000000000000000000000000000000000815260040160405180910390fd5b565b612ab2612d40565b73ffffffffffffffffffffffffffffffffffffffff16612ad06112e0565b73ffffffffffffffffffffffffffffffffffffffff1614612b2f57612af3612d40565b6040517f118cdaa7000000000000000000000000000000000000000000000000000000008152600401612b269190613d08565b60405180910390fd5b565b6000612b3b612c4e565b905060008160000160009054906101000a900473ffffffffffffffffffffffffffffffffffffffff169050828260000160006101000a81548173ffffffffffffffffffffffffffffffffffffffff021916908373ffffffffffffffffffffffffffffffffffffffff1602179055508273ffffffffffffffffffffffffffffffffffffffff168173ffffffffffffffffffffffffffffffffffffffff167f8be0079c531659141344cd1fd0a4f28419497f9722a3daafe3b4186f6b6457e060405160405180910390a3505050565b60007ff0c57e16840df040f15088dc2f81fe391c3923bec73e23a9662efc9c229c6a00905090565b612c38612d48565b612c4181612d88565b50565b612c4c612d48565b565b60007f9016d09d72d40fdae2fd8ceac6b6234c7706214fd39c1cd1e609a0528c199300905090565b6000612ca47f360894a13ba1a3210667c828492db98dca3e2076cc3735a920a3ca505d382bbc60001b612e0e565b60000160009054906101000a900473ffffffffffffffffffffffffffffffffffffffff16905090565b612cd682612e18565b8173ffffffffffffffffffffffffffffffffffffffff167fbc7cd75a20ee27fd9adebab32041f755214dbc6bffa90cc0225b39da2e5c2d3b60405160405180910390a2600081511115612d3357612d2d8282612ee5565b50612d3c565b612d3b612f69565b5b5050565b600033905090565b612d50612fa6565b612d86576040517fd7e6bcf800000000000000000000000000000000000000000000000000000000815260040160405180910390fd5b565b612d90612d48565b600073ffffffffffffffffffffffffffffffffffffffff168173ffffffffffffffffffffffffffffffffffffffff1603612e025760006040517f1e4fbdf7000000000000000000000000000000000000000000000000000000008152600401612df99190613d08565b60405180910390fd5b612e0b81612b31565b50565b6000819050919050565b60008173ffffffffffffffffffffffffffffffffffffffff163b03612e7457806040517f4c9c8ce3000000000000000000000000000000000000000000000000000000008152600401612e6b9190613d08565b60405180910390fd5b80612ea17f360894a13ba1a3210667c828492db98dca3e2076cc3735a920a3ca505d382bbc60001b612e0e565b60000160006101000a81548173ffffffffffffffffffffffffffffffffffffffff021916908373ffffffffffffffffffffffffffffffffffffffff16021790555050565b60606000808473ffffffffffffffffffffffffffffffffffffffff1684604051612f0f9190615a70565b600060405180830381855af49150503d8060008114612f4a576040519150601f19603f3d011682016040523d82523d6000602084013e612f4f565b606091505b5091509150612f5f858383612fc6565b9250505092915050565b6000341115612fa4576040517fb398979f00000000000000000000000000000000000000000000000000000000815260040160405180910390fd5b565b6000612fb0612c08565b60000160089054906101000a900460ff16905090565b606082612fdb57612fd682613055565b61304d565b60008251148015613003575060008473ffffffffffffffffffffffffffffffffffffffff163b145b1561304557836040517f9996b31500000000000000000000000000000000000000000000000000000000815260040161303c9190613d08565b60405180910390fd5b81905061304e565b5b9392505050565b6000815111156130685780518082602001fd5b6040517f1425ea4200000000000000000000000000000000000000000000000000000000815260040160405180910390fd5b8280548282559060005260206000209081019282156130d6579160200282015b828111156130d55782358255916020019190600101906130ba565b5b5090506130e391906131f1565b5090565b604051806101400160405280600060048111156131075761310661339c565b5b81526020016000801916815260200161311e61320e565b81526020016000801916815260200160608152602001600081526020016000815260200160608152602001613151613230565b815260200161315e613284565b81525090565b8260028101928215613193579160200282015b82811115613192578251825591602001919060010190613177565b5b5090506131a091906132c1565b5090565b8280548282559060005260206000209081019282156131e0579160200282015b828111156131df5782518255916020019190600101906131c4565b5b5090506131ed91906131f1565b5090565b5b8082111561320a5760008160009055506001016131f2565b5090565b6040518060400160405280600290602082028036833780820191505090505090565b6040518060c00160405280600060ff168152602001600060ff1681526020016000815260200160008152602001600060048111156132715761327061339c565b5b815260200161327e6132de565b81525090565b6040518060800160405280600060098111156132a3576132a261339c565b5b81526020016000815260200160008019168152602001606081525090565b5b808211156132da5760008160009055506001016132c2565b5090565b604051806101000160405280600015158152602001600081526020016000815260200160008152602001600081526020016000815260200160008152602001600081525090565b6000604051905090565b600080fd5b600080fd5b6000819050919050565b61334c81613339565b811461335757600080fd5b50565b60008135905061336981613343565b92915050565b6000602082840312156133855761338461332f565b5b60006133938482850161335a565b91505092915050565b7f4e487b7100000000000000000000000000000000000000000000000000000000600052602160045260246000fd5b600581106133dc576133db61339c565b5b50565b60008190506133ed826133cb565b919050565b60006133fd826133df565b9050919050565b61340d816133f2565b82525050565b61341c81613339565b82525050565b6000819050919050565b61343581613422565b82525050565b600081519050919050565b600082825260208201905092915050565b60005b8381101561347557808201518184015260208101905061345a565b60008484015250505050565b6000601f19601f8301169050919050565b600061349d8261343b565b6134a78185613446565b93506134b7818560208601613457565b6134c081613481565b840191505092915050565b600060ff82169050919050565b6134e1816134cb565b82525050565b6134f081613422565b82525050565b6134ff816133f2565b82525050565b60008115159050919050565b61351a81613505565b82525050565b610100820160008201516135376000850182613511565b50602082015161354a60208501826134e7565b50604082015161355d60408501826134e7565b50606082015161357060608501826134e7565b50608082015161358360808501826134e7565b5060a082015161359660a08501826134e7565b5060c08201516135a960c08501826134e7565b5060e08201516135bc60e08501826134e7565b50505050565b6101a0820160008201516135d960008501826134d8565b5060208201516135ec60208501826134d8565b5060408201516135ff60408501826134e7565b50606082015161361260608501826134e7565b50608082015161362560808501826134f6565b5060a082015161363860a0850182613520565b50505050565b600a811061364f5761364e61339c565b5b50565b60008190506136608261363e565b919050565b600061367082613652565b9050919050565b61368081613665565b82525050565b61368f81613339565b82525050565b600082825260208201905092915050565b60006136b18261343b565b6136bb8185613695565b93506136cb818560208601613457565b6136d481613481565b840191505092915050565b60006080830160008301516136f76000860182613677565b50602083015161370a60208601826134e7565b50604083015161371d6040860182613686565b506060830151848203606086015261373582826136a6565b9150508091505092915050565b600061028082019050613758600083018b613404565b613765602083018a613413565b6137726040830189613413565b61377f606083018861342c565b61378c608083018761342c565b81810360a083015261379e8186613492565b90506137ad60c08301856135c2565b8181036102608301526137c081846136df565b90509998505050505050505050565b600080fd5b600080fd5b600080fd5b60008083601f8401126137f4576137f36137cf565b5b8235905067ffffffffffffffff811115613811576138106137d4565b5b60208301915083602082028301111561382d5761382c6137d9565b5b9250929050565b60008083601f84011261384a576138496137cf565b5b8235905067ffffffffffffffff811115613867576138666137d4565b5b602083019150836001820283011115613883576138826137d9565b5b9250929050565b6000806000806000606086880312156138a6576138a561332f565b5b60006138b48882890161335a565b955050602086013567ffffffffffffffff8111156138d5576138d4613334565b5b6138e1888289016137de565b9450945050604086013567ffffffffffffffff81111561390457613903613334565b5b61391088828901613834565b92509250509295509295909350565b600073ffffffffffffffffffffffffffffffffffffffff82169050919050565b600061394a8261391f565b9050919050565b61395a8161393f565b811461396557600080fd5b50565b60008135905061397781613951565b92915050565b600080fd5b7f4e487b7100000000000000000000000000000000000000000000000000000000600052604160045260246000fd5b6139ba82613481565b810181811067ffffffffffffffff821117156139d9576139d8613982565b5b80604052505050565b60006139ec613325565b90506139f882826139b1565b919050565b600067ffffffffffffffff821115613a1857613a17613982565b5b613a2182613481565b9050602081019050919050565b82818337600083830152505050565b6000613a50613a4b846139fd565b6139e2565b905082815260208101848484011115613a6c57613a6b61397d565b5b613a77848285613a2e565b509392505050565b600082601f830112613a9457613a936137cf565b5b8135613aa4848260208601613a3d565b91505092915050565b60008060408385031215613ac457613ac361332f565b5b6000613ad285828601613968565b925050602083013567ffffffffffffffff811115613af357613af2613334565b5b613aff85828601613a7f565b9150509250929050565b6000602082019050613b1e6000830184613413565b92915050565b60058110613b3157600080fd5b50565b600081359050613b4381613b24565b92915050565b60008060408385031215613b6057613b5f61332f565b5b6000613b6e8582860161335a565b9250506020613b7f85828601613b34565b9150509250929050565b600080fd5b600060808284031215613ba457613ba3613b89565b5b81905092915050565b60008060408385031215613bc457613bc361332f565b5b6000613bd28582860161335a565b925050602083013567ffffffffffffffff811115613bf357613bf2613334565b5b613bff85828601613b8e565b9150509250929050565b60008083601f840112613c1f57613c1e6137cf565b5b8235905067ffffffffffffffff811115613c3c57613c3b6137d4565b5b602083019150836001820283011115613c5857613c576137d9565b5b9250929050565b600080600060408486031215613c7857613c7761332f565b5b600084013567ffffffffffffffff811115613c9657613c95613334565b5b613ca286828701613c09565b93509350506020613cb586828701613968565b9150509250925092565b600063ffffffff82169050919050565b613cd881613cbf565b82525050565b6000602082019050613cf36000830184613ccf565b92915050565b613d028161393f565b82525050565b6000602082019050613d1d6000830184613cf9565b92915050565b600060029050919050565b600081905092915050565b6000819050919050565b6000613d4f8383613686565b60208301905092915050565b6000602082019050919050565b613d7181613d23565b613d7b8184613d2e565b9250613d8682613d39565b8060005b83811015613db7578151613d9e8782613d43565b9650613da983613d5b565b925050600181019050613d8a565b505050505050565b600081519050919050565b600082825260208201905092915050565b6000819050602082019050919050565b6000613df783836134e7565b60208301905092915050565b6000602082019050919050565b6000613e1b82613dbf565b613e258185613dca565b9350613e3083613ddb565b8060005b83811015613e61578151613e488882613deb565b9750613e5383613e03565b925050600181019050613e34565b5085935050505092915050565b6101a082016000820151613e8560008501826134d8565b506020820151613e9860208501826134d8565b506040820151613eab60408501826134e7565b506060820151613ebe60608501826134e7565b506080820151613ed160808501826134f6565b5060a0820151613ee460a0850182613520565b50505050565b6000608083016000830151613f026000860182613677565b506020830151613f1560208601826134e7565b506040830151613f286040860182613686565b5060608301518482036060860152613f4082826136a6565b9150508091505092915050565b60006102e083016000830151613f6660008601826134f6565b506020830151613f796020860182613686565b506040830151613f8c6040860182613d68565b506060830151613f9f6080860182613686565b50608083015184820360a0860152613fb78282613e10565b91505060a0830151613fcc60c08601826134e7565b5060c0830151613fdf60e08601826134e7565b5060e0830151848203610100860152613ff882826136a6565b91505061010083015161400f610120860182613e6e565b506101208301518482036102c08601526140298282613eea565b9150508091505092915050565b600060208201905081810360008301526140508184613f4d565b905092915050565b60006101a0828403121561406f5761406e613b89565b5b81905092915050565b600080600080600080600080610260898b0312156140995761409861332f565b5b60006140a78b828c01614058565b9850506101a089013567ffffffffffffffff8111156140c9576140c8613334565b5b6140d58b828c01613b8e565b9750506101c089013567ffffffffffffffff8111156140f7576140f6613334565b5b6141038b828c01613c09565b96509650506101e06141178b828c0161335a565b9450506102006141298b828c0161335a565b93505061022061413b8b828c0161335a565b92505061024061414d8b828c0161335a565b9150509295985092959890939650565b600060208201905081810360008301526141778184613492565b905092915050565b60008060008060006080868803121561419b5761419a61332f565b5b60006141a98882890161335a565b95505060206141ba8882890161335a565b94505060406141cb8882890161335a565b935050606086013567ffffffffffffffff8111156141ec576141eb613334565b5b6141f888828901613834565b92509250509295509295909350565b61421081613422565b811461421b57600080fd5b50565b60008135905061422d81614207565b92915050565b6000806040838503121561424a5761424961332f565b5b60006142588582860161335a565b92505060206142698582860161421e565b9150509250929050565b6000602082840312156142895761428861332f565b5b600061429784828501613968565b91505092915050565b7f4e487b7100000000000000000000000000000000000000000000000000000000600052602260045260246000fd5b600060028204905060018216806142e757607f821691505b6020821081036142fa576142f96142a0565b5b50919050565b7f50726f63657373206e6f7420666f756e64000000000000000000000000000000600082015250565b6000614336601183613446565b915061434182614300565b602082019050919050565b6000602082019050818103600083015261436581614329565b9050919050565b7f50726f63657373206e6f7420656e646564000000000000000000000000000000600082015250565b60006143a2601183613446565b91506143ad8261436c565b602082019050919050565b600060208201905081810360008301526143d181614395565b9050919050565b60006040820190506143ed6000830185613413565b6143fa6020830184613cf9565b9392505050565b61440a81613505565b811461441557600080fd5b50565b60008151905061442781614401565b92915050565b6000602082840312156144435761444261332f565b5b600061445184828501614418565b91505092915050565b7f53657450726f636573735374617475733a206e6f7420616e2061646d696e697360008201527f747261746f720000000000000000000000000000000000000000000000000000602082015250565b60006144b6602683613446565b91506144c18261445a565b604082019050919050565b600060208201905081810360008301526144e5816144a9565b9050919050565b7f50726f63657373207465726d696e617465640000000000000000000000000000600082015250565b6000614522601283613446565b915061452d826144ec565b602082019050919050565b6000602082019050818103600083015261455181614515565b9050919050565b7f4e6f7420696e7465727275707469626c65000000000000000000000000000000600082015250565b600061458e601183613446565b915061459982614558565b602082019050919050565b600060208201905081810360008301526145bd81614581565b9050919050565b7f4d75737420646966666572000000000000000000000000000000000000000000600082015250565b60006145fa600b83613446565b9150614605826145c4565b602082019050919050565b60006020820190508181036000830152614629816145ed565b9050919050565b60006020820190506146456000830184613404565b92915050565b7f53657450726f6365737343656e7375733a206e6f7420616e2061646d696e697360008201527f747261746f720000000000000000000000000000000000000000000000000000602082015250565b60006146a7602683613446565b91506146b28261464b565b604082019050919050565b600060208201905081810360008301526146d68161469a565b9050919050565b600080fd5b600080fd5b600080fd5b60008083356001602003843603038112614709576147086146dd565b5b80840192508235915067ffffffffffffffff82111561472b5761472a6146e2565b5b602083019250600182023603831315614747576147466146e7565b5b509250929050565b7f456d707479205552490000000000000000000000000000000000000000000000600082015250565b6000614785600983613446565b91506147908261474f565b602082019050919050565b600060208201905081810360008301526147b481614778565b9050919050565b7f456d70747920726f6f7400000000000000000000000000000000000000000000600082015250565b60006147f1600a83613446565b91506147fc826147bb565b602082019050919050565b60006020820190508181036000830152614820816147e4565b9050919050565b7f526561642d6f6e6c792063656e73757300000000000000000000000000000000600082015250565b600061485d601083613446565b915061486882614827565b602082019050919050565b6000602082019050818103600083015261488c81614850565b9050919050565b600082905092915050565b60008190508160005260206000209050919050565b60006020601f8301049050919050565b600082821b905092915050565b6000600883026149007fffffffffffffffffffffffffffffffffffffffffffffffffffffffffffffffff826148c3565b61490a86836148c3565b95508019841693508086168417925050509392505050565b6000819050919050565b600061494761494261493d84613422565b614922565b613422565b9050919050565b6000819050919050565b6149618361492c565b61497561496d8261494e565b8484546148d0565b825550505050565b600090565b61498a61497d565b614995818484614958565b505050565b5b818110156149b9576149ae600082614982565b60018101905061499b565b5050565b601f8211156149fe576149cf8161489e565b6149d8846148b3565b810160208510156149e7578190505b6149fb6149f3856148b3565b83018261499a565b50505b505050565b600082821c905092915050565b6000614a2160001984600802614a03565b1980831691505092915050565b6000614a3a8383614a10565b9150826002028217905092915050565b614a548383614893565b67ffffffffffffffff811115614a6d57614a6c613982565b5b614a7782546142cf565b614a828282856149bd565b6000601f831160018114614ab15760008415614a9f578287013590505b614aa98582614a2e565b865550614b11565b601f198416614abf8661489e565b60005b82811015614ae757848901358255600182019150602085019450602081019050614ac2565b86831015614b045784890135614b00601f891682614a10565b8355505b6001600288020188555050505b50505050505050565b6000614b268385613446565b9350614b33838584613a2e565b614b3c83613481565b840190509392505050565b6000606082019050614b5c6000830187613413565b8181036020830152614b6f818587614b1a565b9050614b7e604083018461342c565b95945050505050565b6000819050919050565b600067ffffffffffffffff82169050919050565b6000614bc0614bbb614bb684614b87565b614922565b614b91565b9050919050565b614bd081614ba5565b82525050565b6000602082019050614beb6000830184614bc7565b92915050565b7f4e657750726f636573733a20696e76616c6964206d6178436f756e7400000000600082015250565b6000614c27601c83613446565b9150614c3282614bf1565b602082019050919050565b60006020820190508181036000830152614c5681614c1a565b9050919050565b7f4e657750726f636573733a206d6178436f756e74203e206d617856616c756500600082015250565b6000614c93601f83613446565b9150614c9e82614c5d565b602082019050919050565b60006020820190508181036000830152614cc281614c86565b9050919050565b600060208284031215614cdf57614cde61332f565b5b6000614ced84828501613b34565b91505092915050565b7f4e657750726f636573733a20696e76616c696420737461747573000000000000600082015250565b6000614d2c601a83613446565b9150614d3782614cf6565b602082019050919050565b60006020820190508181036000830152614d5b81614d1f565b9050919050565b600a8110614d6f57600080fd5b50565b600081359050614d8181614d62565b92915050565b600060208284031215614d9d57614d9c61332f565b5b6000614dab84828501614d72565b91505092915050565b614dbd816134cb565b8114614dc857600080fd5b50565b600081359050614dda81614db4565b92915050565b600060208284031215614df657614df561332f565b5b6000614e0484828501614dcb565b91505092915050565b7f4e657750726f636573733a2063656e737573206f726967696e2043412072657160008201527f7569726573206e6f6e2d616e6f6e796d6f757320656e76656c6f70652074797060208201527f6500000000000000000000000000000000000000000000000000000000000000604082015250565b6000614e8f604183613446565b9150614e9a82614e0d565b606082019050919050565b60006020820190508181036000830152614ebe81614e82565b9050919050565b7f4e657750726f636573733a206d6178436f756e74206d7573742062652031206660008201527f6f72204661726361737465720000000000000000000000000000000000000000602082015250565b6000614f21602c83613446565b9150614f2c82614ec5565b604082019050919050565b60006020820190508181036000830152614f5081614f14565b9050919050565b7f4e657750726f636573733a2063656e737573206f726967696e2046617263617360008201527f746572207265717569726573206e6f6e2d616e6f6e796d6f757320656e76656c60208201527f6f70652074797065000000000000000000000000000000000000000000000000604082015250565b6000614fd9604883613446565b9150614fe482614f57565b606082019050919050565b6000602082019050818103600083015261500881614fcc565b9050919050565b7f4e657750726f636573733a2063656e737573206f726967696e2046617263617360008201527f746572207265717569726573206e6f6e2d656e6372797074656420656e76656c60208201527f6f70652074797065000000000000000000000000000000000000000000000000604082015250565b6000615091604883613446565b915061509c8261500f565b606082019050919050565b600060208201905081810360008301526150c081615084565b9050919050565b7f4e657750726f636573733a20696e76616c696420737461727454696d65000000600082015250565b60006150fd601d83613446565b9150615108826150c7565b602082019050919050565b6000602082019050818103600083015261512c816150f0565b9050919050565b7f4e487b7100000000000000000000000000000000000000000000000000000000600052601160045260246000fd5b600061516d82613422565b915061517883613422565b92508282019050808211156151905761518f615133565b5b92915050565b7f4e657750726f636573733a20696e76616c6964206475726174696f6e00000000600082015250565b60006151cc601c83613446565b91506151d782615196565b602082019050919050565b600060208201905081810360008301526151fb816151bf565b9050919050565b7f4e657750726f636573733a2073657269616c20656e76656c6f7065207479706560008201527f206e6f7420696d706c656d656e74656400000000000000000000000000000000602082015250565b600061525e603083613446565b915061526982615202565b604082019050919050565b6000602082019050818103600083015261528d81615251565b9050919050565b7f4e657750726f636573733a206e6f7420616e2061646d696e6973747261746f72600082015250565b60006152ca602083613446565b91506152d582615294565b602082019050919050565b600060208201905081810360008301526152f9816152bd565b9050919050565b7f4e657750726f636573733a2070726f6365737320616c7265616479206578697360008201527f7473000000000000000000000000000000000000000000000000000000000000602082015250565b600061535c602283613446565b915061536782615300565b604082019050919050565b6000602082019050818103600083015261538b8161534f565b9050919050565b600080fd5b600080fd5b6000813590506153ab81614401565b92915050565b600061010082840312156153c8576153c7615392565b5b6153d36101006139e2565b905060006153e38482850161539c565b60008301525060206153f78482850161421e565b602083015250604061540b8482850161421e565b604083015250606061541f8482850161421e565b60608301525060806154338482850161421e565b60808301525060a06154478482850161421e565b60a08301525060c061545b8482850161421e565b60c08301525060e061546f8482850161421e565b60e08301525092915050565b60006101a0828403121561549257615491615392565b5b61549c60c06139e2565b905060006154ac84828501614dcb565b60008301525060206154c084828501614dcb565b60208301525060406154d48482850161421e565b60408301525060606154e88482850161421e565b60608301525060806154fc84828501613b34565b60808301525060a0615510848285016153b1565b60a08301525092915050565b60006101a082840312156155335761553261332f565b5b60006155418482850161547b565b91505092915050565b600067ffffffffffffffff82111561556557615564613982565b5b61556e82613481565b9050602081019050919050565b600061558e6155898461554a565b6139e2565b9050828152602081018484840111156155aa576155a961397d565b5b6155b5848285613a2e565b509392505050565b600082601f8301126155d2576155d16137cf565b5b81356155e284826020860161557b565b91505092915050565b60006080828403121561560157615600615392565b5b61560b60806139e2565b9050600061561b84828501614d72565b600083015250602061562f8482850161421e565b60208301525060406156438482850161335a565b604083015250606082013567ffffffffffffffff81111561566757615666615397565b5b615673848285016155bd565b60608301525092915050565b600061568b36836155eb565b9050919050565b61569b8261343b565b67ffffffffffffffff8111156156b4576156b3613982565b5b6156be82546142cf565b6156c98282856149bd565b600060209050601f8311600181146156fc57600084156156ea578287015190505b6156f48582614a2e565b86555061575c565b601f19841661570a8661489e565b60005b828110156157325784890151825560018201915060208501945060208101905061570d565b8683101561574f578489015161574b601f891682614a10565b8355505b6001600288020188555050505b505050505050565b7f496e76616c69642073746174757320666f72207375626d697474696e6720737460008201527f617465207472616e736974696f6e000000000000000000000000000000000000602082015250565b60006157c0602e83613446565b91506157cb82615764565b604082019050919050565b600060208201905081810360008301526157ef816157b3565b9050919050565b7f496e76616c6964206f6c6420726f6f7400000000000000000000000000000000600082015250565b600061582c601083613446565b9150615837826157f6565b602082019050919050565b6000602082019050818103600083015261585b8161581f565b9050919050565b7f53657450726f636573734475726174696f6e3a206e6f7420616e2061646d696e60008201527f6973747261746f72000000000000000000000000000000000000000000000000602082015250565b60006158be602883613446565b91506158c982615862565b604082019050919050565b600060208201905081810360008301526158ed816158b1565b9050919050565b7f496e76616c6964206475726174696f6e00000000000000000000000000000000600082015250565b600061592a601083613446565b9150615935826158f4565b602082019050919050565b600060208201905081810360008301526159598161591d565b9050919050565b6000602082019050615975600083018461342c565b92915050565b7f656e6450726f636573733a206e6f7420616e2061646d696e6973747261746f72600082015250565b60006159b1602083613446565b91506159bc8261597b565b602082019050919050565b600060208201905081810360008301526159e0816159a4565b9050919050565b6000815190506159f681613343565b92915050565b600060208284031215615a1257615a1161332f565b5b6000615a20848285016159e7565b91505092915050565b600081519050919050565b600081905092915050565b6000615a4a82615a29565b615a548185615a34565b9350615a64818560208601613457565b80840191505092915050565b6000615a7c8284615a3f565b91508190509291505056fea26469706673582212204eed0e84a9c559c2e9b2a09c51cd30e8b789f654338012ab0d59323a519b4a5f64736f6c63430008180033","opcodes":"PUSH1 0xA0 PUSH1 0x40 MSTORE ADDRESS PUSH20 0xFFFFFFFFFFFFFFFFFFFFFFFFFFFFFFFFFFFFFFFF AND PUSH1 0x80 SWAP1 PUSH20 0xFFFFFFFFFFFFFFFFFFFFFFFFFFFFFFFFFFFFFFFF AND DUP2 MSTORE POP CALLVALUE DUP1 ISZERO PUSH2 0x43 JUMPI PUSH1 0x0 DUP1 REVERT JUMPDEST POP PUSH1 0x80 MLOAD PUSH2 0x5ABD PUSH3 0x6E PUSH1 0x0 CODECOPY PUSH1 0x0 DUP2 DUP2 PUSH2 0x2815 ADD MSTORE DUP2 DUP2 PUSH2 0x286A ADD MSTORE PUSH2 0x2A25 ADD MSTORE PUSH2 0x5ABD PUSH1 0x0 RETURN INVALID PUSH1 0x80 PUSH1 0x40 MSTORE PUSH1 0x4 CALLDATASIZE LT PUSH2 0x114 JUMPI PUSH1 0x0 CALLDATALOAD PUSH1 0xE0 SHR DUP1 PUSH4 0x8CAFAB7F GT PUSH2 0xA0 JUMPI DUP1 PUSH4 0xADC879E9 GT PUSH2 0x64 JUMPI DUP1 PUSH4 0xADC879E9 EQ PUSH2 0x371 JUMPI DUP1 PUSH4 0xB66BA6EB EQ PUSH2 0x39C JUMPI DUP1 PUSH4 0xC718C01F EQ PUSH2 0x3C5 JUMPI DUP1 PUSH4 0xEA9BCAF6 EQ PUSH2 0x3EE JUMPI DUP1 PUSH4 0xF2FDE38B EQ PUSH2 0x417 JUMPI PUSH2 0x114 JUMP JUMPDEST DUP1 PUSH4 0x8CAFAB7F EQ PUSH2 0x28A JUMPI DUP1 PUSH4 0x8DA5CB5B EQ PUSH2 0x2B5 JUMPI DUP1 PUSH4 0x992BC45B EQ PUSH2 0x2E0 JUMPI DUP1 PUSH4 0xA96E8D2E EQ PUSH2 0x31D JUMPI DUP1 PUSH4 0xAD3CB1CC EQ PUSH2 0x346 JUMPI PUSH2 0x114 JUMP JUMPDEST DUP1 PUSH4 0x56A6F1E2 GT PUSH2 0xE7 JUMPI DUP1 PUSH4 0x56A6F1E2 EQ PUSH2 0x1CD JUMPI DUP1 PUSH4 0x6BAE04EA EQ PUSH2 0x1F6 JUMPI DUP1 PUSH4 0x715018A6 EQ PUSH2 0x21F JUMPI DUP1 PUSH4 0x7AB4339D EQ PUSH2 0x236 JUMPI DUP1 PUSH4 0x848DF540 EQ PUSH2 0x25F JUMPI PUSH2 0x114 JUMP JUMPDEST DUP1 PUSH4 0x535FECE EQ PUSH2 0x119 JUMPI DUP1 PUSH4 0x25402545 EQ PUSH2 0x15D JUMPI DUP1 PUSH4 0x4F1EF286 EQ PUSH2 0x186 JUMPI DUP1 PUSH4 0x52D1902D EQ PUSH2 0x1A2 JUMPI JUMPDEST PUSH1 0x0 DUP1 REVERT JUMPDEST CALLVALUE DUP1 ISZERO PUSH2 0x125 JUMPI PUSH1 0x0 DUP1 REVERT JUMPDEST POP PUSH2 0x140 PUSH1 0x4 DUP1 CALLDATASIZE SUB DUP2 ADD SWAP1 PUSH2 0x13B SWAP2 SWAP1 PUSH2 0x336F JUMP JUMPDEST PUSH2 0x440 JUMP JUMPDEST PUSH1 0x40 MLOAD PUSH2 0x154 SWAP9 SWAP8 SWAP7 SWAP6 SWAP5 SWAP4 SWAP3 SWAP2 SWAP1 PUSH2 0x3742 JUMP JUMPDEST PUSH1 0x40 MLOAD DUP1 SWAP2 SUB SWAP1 RETURN JUMPDEST CALLVALUE DUP1 ISZERO PUSH2 0x169 JUMPI PUSH1 0x0 DUP1 REVERT JUMPDEST POP PUSH2 0x184 PUSH1 0x4 DUP1 CALLDATASIZE SUB DUP2 ADD SWAP1 PUSH2 0x17F SWAP2 SWAP1 PUSH2 0x388A JUMP JUMPDEST PUSH2 0x711 JUMP JUMPDEST STOP JUMPDEST PUSH2 0x1A0 PUSH1 0x4 DUP1 CALLDATASIZE SUB DUP2 ADD SWAP1 PUSH2 0x19B SWAP2 SWAP1 PUSH2 0x3AAD JUMP JUMPDEST PUSH2 0x85E JUMP JUMPDEST STOP JUMPDEST CALLVALUE DUP1 ISZERO PUSH2 0x1AE JUMPI PUSH1 0x0 DUP1 REVERT JUMPDEST POP PUSH2 0x1B7 PUSH2 0x87D JUMP JUMPDEST PUSH1 0x40 MLOAD PUSH2 0x1C4 SWAP2 SWAP1 PUSH2 0x3B09 JUMP JUMPDEST PUSH1 0x40 MLOAD DUP1 SWAP2 SUB SWAP1 RETURN JUMPDEST CALLVALUE DUP1 ISZERO PUSH2 0x1D9 JUMPI PUSH1 0x0 DUP1 REVERT JUMPDEST POP PUSH2 0x1F4 PUSH1 0x4 DUP1 CALLDATASIZE SUB DUP2 ADD SWAP1 PUSH2 0x1EF SWAP2 SWAP1 PUSH2 0x3B49 JUMP JUMPDEST PUSH2 0x8B0 JUMP JUMPDEST STOP JUMPDEST CALLVALUE DUP1 ISZERO PUSH2 0x202 JUMPI PUSH1 0x0 DUP1 REVERT JUMPDEST POP PUSH2 0x21D PUSH1 0x4 DUP1 CALLDATASIZE SUB DUP2 ADD SWAP1 PUSH2 0x218 SWAP2 SWAP1 PUSH2 0x3BAD JUMP JUMPDEST PUSH2 0xC7E JUMP JUMPDEST STOP JUMPDEST CALLVALUE DUP1 ISZERO PUSH2 0x22B JUMPI PUSH1 0x0 DUP1 REVERT JUMPDEST POP PUSH2 0x234 PUSH2 0x10A4 JUMP JUMPDEST STOP JUMPDEST CALLVALUE DUP1 ISZERO PUSH2 0x242 JUMPI PUSH1 0x0 DUP1 REVERT JUMPDEST POP PUSH2 0x25D PUSH1 0x4 DUP1 CALLDATASIZE SUB DUP2 ADD SWAP1 PUSH2 0x258 SWAP2 SWAP1 PUSH2 0x3C5F JUMP JUMPDEST PUSH2 0x10B8 JUMP JUMPDEST STOP JUMPDEST CALLVALUE DUP1 ISZERO PUSH2 0x26B JUMPI PUSH1 0x0 DUP1 REVERT JUMPDEST POP PUSH2 0x274 PUSH2 0x12A4 JUMP JUMPDEST PUSH1 0x40 MLOAD PUSH2 0x281 SWAP2 SWAP1 PUSH2 0x3CDE JUMP JUMPDEST PUSH1 0x40 MLOAD DUP1 SWAP2 SUB SWAP1 RETURN JUMPDEST CALLVALUE DUP1 ISZERO PUSH2 0x296 JUMPI PUSH1 0x0 DUP1 REVERT JUMPDEST POP PUSH2 0x29F PUSH2 0x12BA JUMP JUMPDEST PUSH1 0x40 MLOAD PUSH2 0x2AC SWAP2 SWAP1 PUSH2 0x3D08 JUMP JUMPDEST PUSH1 0x40 MLOAD DUP1 SWAP2 SUB SWAP1 RETURN JUMPDEST CALLVALUE DUP1 ISZERO PUSH2 0x2C1 JUMPI PUSH1 0x0 DUP1 REVERT JUMPDEST POP PUSH2 0x2CA PUSH2 0x12E0 JUMP JUMPDEST PUSH1 0x40 MLOAD PUSH2 0x2D7 SWAP2 SWAP1 PUSH2 0x3D08 JUMP JUMPDEST PUSH1 0x40 MLOAD DUP1 SWAP2 SUB SWAP1 RETURN JUMPDEST CALLVALUE DUP1 ISZERO PUSH2 0x2EC JUMPI PUSH1 0x0 DUP1 REVERT JUMPDEST POP PUSH2 0x307 PUSH1 0x4 DUP1 CALLDATASIZE SUB DUP2 ADD SWAP1 PUSH2 0x302 SWAP2 SWAP1 PUSH2 0x336F JUMP JUMPDEST PUSH2 0x1318 JUMP JUMPDEST PUSH1 0x40 MLOAD PUSH2 0x314 SWAP2 SWAP1 PUSH2 0x4036 JUMP JUMPDEST PUSH1 0x40 MLOAD DUP1 SWAP2 SUB SWAP1 RETURN JUMPDEST CALLVALUE DUP1 ISZERO PUSH2 0x329 JUMPI PUSH1 0x0 DUP1 REVERT JUMPDEST POP PUSH2 0x344 PUSH1 0x4 DUP1 CALLDATASIZE SUB DUP2 ADD SWAP1 PUSH2 0x33F SWAP2 SWAP1 PUSH2 0x4078 JUMP JUMPDEST PUSH2 0x16DF JUMP JUMPDEST STOP JUMPDEST CALLVALUE DUP1 ISZERO PUSH2 0x352 JUMPI PUSH1 0x0 DUP1 REVERT JUMPDEST POP PUSH2 0x35B PUSH2 0x1FDC JUMP JUMPDEST PUSH1 0x40 MLOAD PUSH2 0x368 SWAP2 SWAP1 PUSH2 0x415D JUMP JUMPDEST PUSH1 0x40 MLOAD DUP1 SWAP2 SUB SWAP1 RETURN JUMPDEST CALLVALUE DUP1 ISZERO PUSH2 0x37D JUMPI PUSH1 0x0 DUP1 REVERT JUMPDEST POP PUSH2 0x386 PUSH2 0x2015 JUMP JUMPDEST PUSH1 0x40 MLOAD PUSH2 0x393 SWAP2 SWAP1 PUSH2 0x415D JUMP JUMPDEST PUSH1 0x40 MLOAD DUP1 SWAP2 SUB SWAP1 RETURN JUMPDEST CALLVALUE DUP1 ISZERO PUSH2 0x3A8 JUMPI PUSH1 0x0 DUP1 REVERT JUMPDEST POP PUSH2 0x3C3 PUSH1 0x4 DUP1 CALLDATASIZE SUB DUP2 ADD SWAP1 PUSH2 0x3BE SWAP2 SWAP1 PUSH2 0x417F JUMP JUMPDEST PUSH2 0x20A3 JUMP JUMPDEST STOP JUMPDEST CALLVALUE DUP1 ISZERO PUSH2 0x3D1 JUMPI PUSH1 0x0 DUP1 REVERT JUMPDEST POP PUSH2 0x3EC PUSH1 0x4 DUP1 CALLDATASIZE SUB DUP2 ADD SWAP1 PUSH2 0x3E7 SWAP2 SWAP1 PUSH2 0x4233 JUMP JUMPDEST PUSH2 0x2289 JUMP JUMPDEST STOP JUMPDEST CALLVALUE DUP1 ISZERO PUSH2 0x3FA JUMPI PUSH1 0x0 DUP1 REVERT JUMPDEST POP PUSH2 0x415 PUSH1 0x4 DUP1 CALLDATASIZE SUB DUP2 ADD SWAP1 PUSH2 0x410 SWAP2 SWAP1 PUSH2 0x336F JUMP JUMPDEST PUSH2 0x2547 JUMP JUMPDEST STOP JUMPDEST CALLVALUE DUP1 ISZERO PUSH2 0x423 JUMPI PUSH1 0x0 DUP1 REVERT JUMPDEST POP PUSH2 0x43E PUSH1 0x4 DUP1 CALLDATASIZE SUB DUP2 ADD SWAP1 PUSH2 0x439 SWAP2 SWAP1 PUSH2 0x4273 JUMP JUMPDEST PUSH2 0x278D JUMP JUMPDEST STOP JUMPDEST PUSH1 0x0 PUSH1 0x20 MSTORE DUP1 PUSH1 0x0 MSTORE PUSH1 0x40 PUSH1 0x0 KECCAK256 PUSH1 0x0 SWAP2 POP SWAP1 POP DUP1 PUSH1 0x0 ADD PUSH1 0x0 SWAP1 SLOAD SWAP1 PUSH2 0x100 EXP SWAP1 DIV PUSH1 0xFF AND SWAP1 DUP1 PUSH1 0x1 ADD SLOAD SWAP1 DUP1 PUSH1 0x4 ADD SLOAD SWAP1 DUP1 PUSH1 0x6 ADD SLOAD SWAP1 DUP1 PUSH1 0x7 ADD SLOAD SWAP1 DUP1 PUSH1 0x8 ADD DUP1 SLOAD PUSH2 0x48E SWAP1 PUSH2 0x42CF JUMP JUMPDEST DUP1 PUSH1 0x1F ADD PUSH1 0x20 DUP1 SWAP2 DIV MUL PUSH1 0x20 ADD PUSH1 0x40 MLOAD SWAP1 DUP2 ADD PUSH1 0x40 MSTORE DUP1 SWAP3 SWAP2 SWAP1 DUP2 DUP2 MSTORE PUSH1 0x20 ADD DUP3 DUP1 SLOAD PUSH2 0x4BA SWAP1 PUSH2 0x42CF JUMP JUMPDEST DUP1 ISZERO PUSH2 0x507 JUMPI DUP1 PUSH1 0x1F LT PUSH2 0x4DC JUMPI PUSH2 0x100 DUP1 DUP4 SLOAD DIV MUL DUP4 MSTORE SWAP2 PUSH1 0x20 ADD SWAP2 PUSH2 0x507 JUMP JUMPDEST DUP3 ADD SWAP2 SWAP1 PUSH1 0x0 MSTORE PUSH1 0x20 PUSH1 0x0 KECCAK256 SWAP1 JUMPDEST DUP2 SLOAD DUP2 MSTORE SWAP1 PUSH1 0x1 ADD SWAP1 PUSH1 0x20 ADD DUP1 DUP4 GT PUSH2 0x4EA JUMPI DUP3 SWAP1 SUB PUSH1 0x1F AND DUP3 ADD SWAP2 JUMPDEST POP POP POP POP POP SWAP1 DUP1 PUSH1 0x9 ADD PUSH1 0x40 MLOAD DUP1 PUSH1 0xC0 ADD PUSH1 0x40 MSTORE SWAP1 DUP2 PUSH1 0x0 DUP3 ADD PUSH1 0x0 SWAP1 SLOAD SWAP1 PUSH2 0x100 EXP SWAP1 DIV PUSH1 0xFF AND PUSH1 0xFF AND PUSH1 0xFF AND DUP2 MSTORE PUSH1 0x20 ADD PUSH1 0x0 DUP3 ADD PUSH1 0x1 SWAP1 SLOAD SWAP1 PUSH2 0x100 EXP SWAP1 DIV PUSH1 0xFF AND PUSH1 0xFF AND PUSH1 0xFF AND DUP2 MSTORE PUSH1 0x20 ADD PUSH1 0x1 DUP3 ADD SLOAD DUP2 MSTORE PUSH1 0x20 ADD PUSH1 0x2 DUP3 ADD SLOAD DUP2 MSTORE PUSH1 0x20 ADD PUSH1 0x3 DUP3 ADD PUSH1 0x0 SWAP1 SLOAD SWAP1 PUSH2 0x100 EXP SWAP1 DIV PUSH1 0xFF AND PUSH1 0x4 DUP2 GT ISZERO PUSH2 0x58F JUMPI PUSH2 0x58E PUSH2 0x339C JUMP JUMPDEST JUMPDEST PUSH1 0x4 DUP2 GT ISZERO PUSH2 0x5A1 JUMPI PUSH2 0x5A0 PUSH2 0x339C JUMP JUMPDEST JUMPDEST DUP2 MSTORE PUSH1 0x20 ADD PUSH1 0x4 DUP3 ADD PUSH1 0x40 MLOAD DUP1 PUSH2 0x100 ADD PUSH1 0x40 MSTORE SWAP1 DUP2 PUSH1 0x0 DUP3 ADD PUSH1 0x0 SWAP1 SLOAD SWAP1 PUSH2 0x100 EXP SWAP1 DIV PUSH1 0xFF AND ISZERO ISZERO ISZERO ISZERO DUP2 MSTORE PUSH1 0x20 ADD PUSH1 0x1 DUP3 ADD SLOAD DUP2 MSTORE PUSH1 0x20 ADD PUSH1 0x2 DUP3 ADD SLOAD DUP2 MSTORE PUSH1 0x20 ADD PUSH1 0x3 DUP3 ADD SLOAD DUP2 MSTORE PUSH1 0x20 ADD PUSH1 0x4 DUP3 ADD SLOAD DUP2 MSTORE PUSH1 0x20 ADD PUSH1 0x5 DUP3 ADD SLOAD DUP2 MSTORE PUSH1 0x20 ADD PUSH1 0x6 DUP3 ADD SLOAD DUP2 MSTORE PUSH1 0x20 ADD PUSH1 0x7 DUP3 ADD SLOAD DUP2 MSTORE POP POP DUP2 MSTORE POP POP SWAP1 DUP1 PUSH1 0x15 ADD PUSH1 0x40 MLOAD DUP1 PUSH1 0x80 ADD PUSH1 0x40 MSTORE SWAP1 DUP2 PUSH1 0x0 DUP3 ADD PUSH1 0x0 SWAP1 SLOAD SWAP1 PUSH2 0x100 EXP SWAP1 DIV PUSH1 0xFF AND PUSH1 0x9 DUP2 GT ISZERO PUSH2 0x650 JUMPI PUSH2 0x64F PUSH2 0x339C JUMP JUMPDEST JUMPDEST PUSH1 0x9 DUP2 GT ISZERO PUSH2 0x662 JUMPI PUSH2 0x661 PUSH2 0x339C JUMP JUMPDEST JUMPDEST DUP2 MSTORE PUSH1 0x20 ADD PUSH1 0x1 DUP3 ADD SLOAD DUP2 MSTORE PUSH1 0x20 ADD PUSH1 0x2 DUP3 ADD SLOAD DUP2 MSTORE PUSH1 0x20 ADD PUSH1 0x3 DUP3 ADD DUP1 SLOAD PUSH2 0x68A SWAP1 PUSH2 0x42CF JUMP JUMPDEST DUP1 PUSH1 0x1F ADD PUSH1 0x20 DUP1 SWAP2 DIV MUL PUSH1 0x20 ADD PUSH1 0x40 MLOAD SWAP1 DUP2 ADD PUSH1 0x40 MSTORE DUP1 SWAP3 SWAP2 SWAP1 DUP2 DUP2 MSTORE PUSH1 0x20 ADD DUP3 DUP1 SLOAD PUSH2 0x6B6 SWAP1 PUSH2 0x42CF JUMP JUMPDEST DUP1 ISZERO PUSH2 0x703 JUMPI DUP1 PUSH1 0x1F LT PUSH2 0x6D8 JUMPI PUSH2 0x100 DUP1 DUP4 SLOAD DIV MUL DUP4 MSTORE SWAP2 PUSH1 0x20 ADD SWAP2 PUSH2 0x703 JUMP JUMPDEST DUP3 ADD SWAP2 SWAP1 PUSH1 0x0 MSTORE PUSH1 0x20 PUSH1 0x0 KECCAK256 SWAP1 JUMPDEST DUP2 SLOAD DUP2 MSTORE SWAP1 PUSH1 0x1 ADD SWAP1 PUSH1 0x20 ADD DUP1 DUP4 GT PUSH2 0x6E6 JUMPI DUP3 SWAP1 SUB PUSH1 0x1F AND DUP3 ADD SWAP2 JUMPDEST POP POP POP POP POP DUP2 MSTORE POP POP SWAP1 POP DUP9 JUMP JUMPDEST PUSH1 0x0 DUP1 SHL PUSH1 0x0 DUP1 DUP8 DUP2 MSTORE PUSH1 0x20 ADD SWAP1 DUP2 MSTORE PUSH1 0x20 ADD PUSH1 0x0 KECCAK256 PUSH1 0x1 ADD SLOAD SUB PUSH2 0x76B JUMPI PUSH1 0x40 MLOAD PUSH32 0x8C379A000000000000000000000000000000000000000000000000000000000 DUP2 MSTORE PUSH1 0x4 ADD PUSH2 0x762 SWAP1 PUSH2 0x434C JUMP JUMPDEST PUSH1 0x40 MLOAD DUP1 SWAP2 SUB SWAP1 REVERT JUMPDEST PUSH1 0x1 PUSH1 0x4 DUP2 GT ISZERO PUSH2 0x77F JUMPI PUSH2 0x77E PUSH2 0x339C JUMP JUMPDEST JUMPDEST PUSH1 0x0 DUP1 DUP8 DUP2 MSTORE PUSH1 0x20 ADD SWAP1 DUP2 MSTORE PUSH1 0x20 ADD PUSH1 0x0 KECCAK256 PUSH1 0x0 ADD PUSH1 0x0 SWAP1 SLOAD SWAP1 PUSH2 0x100 EXP SWAP1 DIV PUSH1 0xFF AND PUSH1 0x4 DUP2 GT ISZERO PUSH2 0x7B4 JUMPI PUSH2 0x7B3 PUSH2 0x339C JUMP JUMPDEST JUMPDEST EQ PUSH2 0x7F4 JUMPI PUSH1 0x40 MLOAD PUSH32 0x8C379A000000000000000000000000000000000000000000000000000000000 DUP2 MSTORE PUSH1 0x4 ADD PUSH2 0x7EB SWAP1 PUSH2 0x43B8 JUMP JUMPDEST PUSH1 0x40 MLOAD DUP1 SWAP2 SUB SWAP1 REVERT JUMPDEST DUP4 DUP4 PUSH1 0x0 DUP1 DUP9 DUP2 MSTORE PUSH1 0x20 ADD SWAP1 DUP2 MSTORE PUSH1 0x20 ADD PUSH1 0x0 KECCAK256 PUSH1 0x5 ADD SWAP2 SWAP1 PUSH2 0x818 SWAP3 SWAP2 SWAP1 PUSH2 0x309A JUMP JUMPDEST POP PUSH1 0x4 PUSH1 0x0 DUP1 DUP8 DUP2 MSTORE PUSH1 0x20 ADD SWAP1 DUP2 MSTORE PUSH1 0x20 ADD PUSH1 0x0 KECCAK256 PUSH1 0x0 ADD PUSH1 0x0 PUSH2 0x100 EXP DUP2 SLOAD DUP2 PUSH1 0xFF MUL NOT AND SWAP1 DUP4 PUSH1 0x4 DUP2 GT ISZERO PUSH2 0x852 JUMPI PUSH2 0x851 PUSH2 0x339C JUMP JUMPDEST JUMPDEST MUL OR SWAP1 SSTORE POP POP POP POP POP POP JUMP JUMPDEST PUSH2 0x866 PUSH2 0x2813 JUMP JUMPDEST PUSH2 0x86F DUP3 PUSH2 0x28F9 JUMP JUMPDEST PUSH2 0x879 DUP3 DUP3 PUSH2 0x2904 JUMP JUMPDEST POP POP JUMP JUMPDEST PUSH1 0x0 PUSH2 0x887 PUSH2 0x2A23 JUMP JUMPDEST PUSH32 0x360894A13BA1A3210667C828492DB98DCA3E2076CC3735A920A3CA505D382BBC PUSH1 0x0 SHL SWAP1 POP SWAP1 JUMP JUMPDEST PUSH1 0x1 PUSH1 0x0 SWAP1 SLOAD SWAP1 PUSH2 0x100 EXP SWAP1 DIV PUSH20 0xFFFFFFFFFFFFFFFFFFFFFFFFFFFFFFFFFFFFFFFF AND PUSH20 0xFFFFFFFFFFFFFFFFFFFFFFFFFFFFFFFFFFFFFFFF AND PUSH4 0x64DD489F PUSH1 0x0 DUP1 DUP6 DUP2 MSTORE PUSH1 0x20 ADD SWAP1 DUP2 MSTORE PUSH1 0x20 ADD PUSH1 0x0 KECCAK256 PUSH1 0x1 ADD SLOAD CALLER PUSH1 0x40 MLOAD DUP4 PUSH4 0xFFFFFFFF AND PUSH1 0xE0 SHL DUP2 MSTORE PUSH1 0x4 ADD PUSH2 0x922 SWAP3 SWAP2 SWAP1 PUSH2 0x43D8 JUMP JUMPDEST PUSH1 0x20 PUSH1 0x40 MLOAD DUP1 DUP4 SUB DUP2 DUP7 GAS STATICCALL ISZERO DUP1 ISZERO PUSH2 0x93F JUMPI RETURNDATASIZE PUSH1 0x0 DUP1 RETURNDATACOPY RETURNDATASIZE PUSH1 0x0 REVERT JUMPDEST POP POP POP POP PUSH1 0x40 MLOAD RETURNDATASIZE PUSH1 0x1F NOT PUSH1 0x1F DUP3 ADD AND DUP3 ADD DUP1 PUSH1 0x40 MSTORE POP DUP2 ADD SWAP1 PUSH2 0x963 SWAP2 SWAP1 PUSH2 0x442D JUMP JUMPDEST PUSH2 0x9A2 JUMPI PUSH1 0x40 MLOAD PUSH32 0x8C379A000000000000000000000000000000000000000000000000000000000 DUP2 MSTORE PUSH1 0x4 ADD PUSH2 0x999 SWAP1 PUSH2 0x44CC JUMP JUMPDEST PUSH1 0x40 MLOAD DUP1 SWAP2 SUB SWAP1 REVERT JUMPDEST PUSH1 0x0 DUP1 PUSH1 0x0 DUP5 DUP2 MSTORE PUSH1 0x20 ADD SWAP1 DUP2 MSTORE PUSH1 0x20 ADD PUSH1 0x0 KECCAK256 PUSH1 0x0 ADD PUSH1 0x0 SWAP1 SLOAD SWAP1 PUSH2 0x100 EXP SWAP1 DIV PUSH1 0xFF AND SWAP1 POP PUSH1 0x0 PUSH1 0x4 DUP2 GT ISZERO PUSH2 0x9DD JUMPI PUSH2 0x9DC PUSH2 0x339C JUMP JUMPDEST JUMPDEST DUP2 PUSH1 0x4 DUP2 GT ISZERO PUSH2 0x9F0 JUMPI PUSH2 0x9EF PUSH2 0x339C JUMP JUMPDEST JUMPDEST EQ ISZERO DUP1 ISZERO PUSH2 0xA23 JUMPI POP PUSH1 0x3 PUSH1 0x4 DUP2 GT ISZERO PUSH2 0xA0D JUMPI PUSH2 0xA0C PUSH2 0x339C JUMP JUMPDEST JUMPDEST DUP2 PUSH1 0x4 DUP2 GT ISZERO PUSH2 0xA20 JUMPI PUSH2 0xA1F PUSH2 0x339C JUMP JUMPDEST JUMPDEST EQ ISZERO JUMPDEST ISZERO PUSH2 0xA63 JUMPI PUSH1 0x40 MLOAD PUSH32 0x8C379A000000000000000000000000000000000000000000000000000000000 DUP2 MSTORE PUSH1 0x4 ADD PUSH2 0xA5A SWAP1 PUSH2 0x4538 JUMP JUMPDEST PUSH1 0x40 MLOAD DUP1 SWAP2 SUB SWAP1 REVERT JUMPDEST PUSH1 0x3 PUSH1 0x4 DUP2 GT ISZERO PUSH2 0xA77 JUMPI PUSH2 0xA76 PUSH2 0x339C JUMP JUMPDEST JUMPDEST DUP2 PUSH1 0x4 DUP2 GT ISZERO PUSH2 0xA8A JUMPI PUSH2 0xA89 PUSH2 0x339C JUMP JUMPDEST JUMPDEST SUB PUSH2 0xB2F JUMPI PUSH1 0x0 PUSH1 0x2 PUSH1 0x0 DUP1 DUP7 DUP2 MSTORE PUSH1 0x20 ADD SWAP1 DUP2 MSTORE PUSH1 0x20 ADD PUSH1 0x0 KECCAK256 PUSH1 0x9 ADD PUSH1 0x0 ADD PUSH1 0x1 SWAP1 SLOAD SWAP1 PUSH2 0x100 EXP SWAP1 DIV PUSH1 0xFF AND AND PUSH1 0xFF AND SUB PUSH2 0xB2A JUMPI PUSH1 0x0 PUSH1 0x4 DUP2 GT ISZERO PUSH2 0xAD6 JUMPI PUSH2 0xAD5 PUSH2 0x339C JUMP JUMPDEST JUMPDEST DUP3 PUSH1 0x4 DUP2 GT ISZERO PUSH2 0xAE9 JUMPI PUSH2 0xAE8 PUSH2 0x339C JUMP JUMPDEST JUMPDEST EQ PUSH2 0xB29 JUMPI PUSH1 0x40 MLOAD PUSH32 0x8C379A000000000000000000000000000000000000000000000000000000000 DUP2 MSTORE PUSH1 0x4 ADD PUSH2 0xB20 SWAP1 PUSH2 0x45A4 JUMP JUMPDEST PUSH1 0x40 MLOAD DUP1 SWAP2 SUB SWAP1 REVERT JUMPDEST JUMPDEST PUSH2 0xB9E JUMP JUMPDEST PUSH1 0x0 PUSH1 0x2 PUSH1 0x0 DUP1 DUP7 DUP2 MSTORE PUSH1 0x20 ADD SWAP1 DUP2 MSTORE PUSH1 0x20 ADD PUSH1 0x0 KECCAK256 PUSH1 0x9 ADD PUSH1 0x0 ADD PUSH1 0x1 SWAP1 SLOAD SWAP1 PUSH2 0x100 EXP SWAP1 DIV PUSH1 0xFF AND AND PUSH1 0xFF AND SUB PUSH2 0xB9D JUMPI PUSH1 0x40 MLOAD PUSH32 0x8C379A000000000000000000000000000000000000000000000000000000000 DUP2 MSTORE PUSH1 0x4 ADD PUSH2 0xB94 SWAP1 PUSH2 0x45A4 JUMP JUMPDEST PUSH1 0x40 MLOAD DUP1 SWAP2 SUB SWAP1 REVERT JUMPDEST JUMPDEST DUP1 PUSH1 0x4 DUP2 GT ISZERO PUSH2 0xBB1 JUMPI PUSH2 0xBB0 PUSH2 0x339C JUMP JUMPDEST JUMPDEST DUP3 PUSH1 0x4 DUP2 GT ISZERO PUSH2 0xBC4 JUMPI PUSH2 0xBC3 PUSH2 0x339C JUMP JUMPDEST JUMPDEST SUB PUSH2 0xC04 JUMPI PUSH1 0x40 MLOAD PUSH32 0x8C379A000000000000000000000000000000000000000000000000000000000 DUP2 MSTORE PUSH1 0x4 ADD PUSH2 0xBFB SWAP1 PUSH2 0x4610 JUMP JUMPDEST PUSH1 0x40 MLOAD DUP1 SWAP2 SUB SWAP1 REVERT JUMPDEST DUP2 PUSH1 0x0 DUP1 DUP6 DUP2 MSTORE PUSH1 0x20 ADD SWAP1 DUP2 MSTORE PUSH1 0x20 ADD PUSH1 0x0 KECCAK256 PUSH1 0x0 ADD PUSH1 0x0 PUSH2 0x100 EXP DUP2 SLOAD DUP2 PUSH1 0xFF MUL NOT AND SWAP1 DUP4 PUSH1 0x4 DUP2 GT ISZERO PUSH2 0xC3C JUMPI PUSH2 0xC3B PUSH2 0x339C JUMP JUMPDEST JUMPDEST MUL OR SWAP1 SSTORE POP DUP3 PUSH32 0xAC0C4085A30BC70D0D8893EE5D6466AC9C5F03E27FD7292DCEF128A610E7C190 DUP4 PUSH1 0x40 MLOAD PUSH2 0xC71 SWAP2 SWAP1 PUSH2 0x4630 JUMP JUMPDEST PUSH1 0x40 MLOAD DUP1 SWAP2 SUB SWAP1 LOG2 POP POP POP JUMP JUMPDEST PUSH1 0x1 PUSH1 0x0 SWAP1 SLOAD SWAP1 PUSH2 0x100 EXP SWAP1 DIV PUSH20 0xFFFFFFFFFFFFFFFFFFFFFFFFFFFFFFFFFFFFFFFF AND PUSH20 0xFFFFFFFFFFFFFFFFFFFFFFFFFFFFFFFFFFFFFFFF AND PUSH4 0x64DD489F PUSH1 0x0 DUP1 DUP6 DUP2 MSTORE PUSH1 0x20 ADD SWAP1 DUP2 MSTORE PUSH1 0x20 ADD PUSH1 0x0 KECCAK256 PUSH1 0x1 ADD SLOAD CALLER PUSH1 0x40 MLOAD DUP4 PUSH4 0xFFFFFFFF AND PUSH1 0xE0 SHL DUP2 MSTORE PUSH1 0x4 ADD PUSH2 0xCF0 SWAP3 SWAP2 SWAP1 PUSH2 0x43D8 JUMP JUMPDEST PUSH1 0x20 PUSH1 0x40 MLOAD DUP1 DUP4 SUB DUP2 DUP7 GAS STATICCALL ISZERO DUP1 ISZERO PUSH2 0xD0D JUMPI RETURNDATASIZE PUSH1 0x0 DUP1 RETURNDATACOPY RETURNDATASIZE PUSH1 0x0 REVERT JUMPDEST POP POP POP POP PUSH1 0x40 MLOAD RETURNDATASIZE PUSH1 0x1F NOT PUSH1 0x1F DUP3 ADD AND DUP3 ADD DUP1 PUSH1 0x40 MSTORE POP DUP2 ADD SWAP1 PUSH2 0xD31 SWAP2 SWAP1 PUSH2 0x442D JUMP JUMPDEST PUSH2 0xD70 JUMPI PUSH1 0x40 MLOAD PUSH32 0x8C379A000000000000000000000000000000000000000000000000000000000 DUP2 MSTORE PUSH1 0x4 ADD PUSH2 0xD67 SWAP1 PUSH2 0x46BD JUMP JUMPDEST PUSH1 0x40 MLOAD DUP1 SWAP2 SUB SWAP1 REVERT JUMPDEST PUSH1 0x0 DUP2 DUP1 PUSH1 0x60 ADD SWAP1 PUSH2 0xD82 SWAP2 SWAP1 PUSH2 0x46EC JUMP JUMPDEST SWAP1 POP GT PUSH2 0xDC4 JUMPI PUSH1 0x40 MLOAD PUSH32 0x8C379A000000000000000000000000000000000000000000000000000000000 DUP2 MSTORE PUSH1 0x4 ADD PUSH2 0xDBB SWAP1 PUSH2 0x479B JUMP JUMPDEST PUSH1 0x40 MLOAD DUP1 SWAP2 SUB SWAP1 REVERT JUMPDEST PUSH1 0x0 DUP1 SHL DUP2 PUSH1 0x40 ADD CALLDATALOAD SUB PUSH2 0xE0D JUMPI PUSH1 0x40 MLOAD PUSH32 0x8C379A000000000000000000000000000000000000000000000000000000000 DUP2 MSTORE PUSH1 0x4 ADD PUSH2 0xE04 SWAP1 PUSH2 0x4807 JUMP JUMPDEST PUSH1 0x40 MLOAD DUP1 SWAP2 SUB SWAP1 REVERT JUMPDEST PUSH1 0x0 DUP1 SHL PUSH1 0x0 DUP1 DUP5 DUP2 MSTORE PUSH1 0x20 ADD SWAP1 DUP2 MSTORE PUSH1 0x20 ADD PUSH1 0x0 KECCAK256 PUSH1 0x1 ADD SLOAD SUB PUSH2 0xE67 JUMPI PUSH1 0x40 MLOAD PUSH32 0x8C379A000000000000000000000000000000000000000000000000000000000 DUP2 MSTORE PUSH1 0x4 ADD PUSH2 0xE5E SWAP1 PUSH2 0x434C JUMP JUMPDEST PUSH1 0x40 MLOAD DUP1 SWAP2 SUB SWAP1 REVERT JUMPDEST PUSH1 0x0 PUSH1 0x4 DUP2 GT ISZERO PUSH2 0xE7B JUMPI PUSH2 0xE7A PUSH2 0x339C JUMP JUMPDEST JUMPDEST PUSH1 0x0 DUP1 DUP5 DUP2 MSTORE PUSH1 0x20 ADD SWAP1 DUP2 MSTORE PUSH1 0x20 ADD PUSH1 0x0 KECCAK256 PUSH1 0x0 ADD PUSH1 0x0 SWAP1 SLOAD SWAP1 PUSH2 0x100 EXP SWAP1 DIV PUSH1 0xFF AND PUSH1 0x4 DUP2 GT ISZERO PUSH2 0xEB0 JUMPI PUSH2 0xEAF PUSH2 0x339C JUMP JUMPDEST JUMPDEST EQ DUP1 PUSH2 0xF02 JUMPI POP PUSH1 0x3 PUSH1 0x4 DUP2 GT ISZERO PUSH2 0xECB JUMPI PUSH2 0xECA PUSH2 0x339C JUMP JUMPDEST JUMPDEST PUSH1 0x0 DUP1 DUP5 DUP2 MSTORE PUSH1 0x20 ADD SWAP1 DUP2 MSTORE PUSH1 0x20 ADD PUSH1 0x0 KECCAK256 PUSH1 0x0 ADD PUSH1 0x0 SWAP1 SLOAD SWAP1 PUSH2 0x100 EXP SWAP1 DIV PUSH1 0xFF AND PUSH1 0x4 DUP2 GT ISZERO PUSH2 0xF00 JUMPI PUSH2 0xEFF PUSH2 0x339C JUMP JUMPDEST JUMPDEST EQ JUMPDEST PUSH2 0xF41 JUMPI PUSH1 0x40 MLOAD PUSH32 0x8C379A000000000000000000000000000000000000000000000000000000000 DUP2 MSTORE PUSH1 0x4 ADD PUSH2 0xF38 SWAP1 PUSH2 0x4538 JUMP JUMPDEST PUSH1 0x40 MLOAD DUP1 SWAP2 SUB SWAP1 REVERT JUMPDEST PUSH1 0x0 PUSH1 0x4 PUSH1 0x0 DUP1 DUP6 DUP2 MSTORE PUSH1 0x20 ADD SWAP1 DUP2 MSTORE PUSH1 0x20 ADD PUSH1 0x0 KECCAK256 PUSH1 0x9 ADD PUSH1 0x0 ADD PUSH1 0x1 SWAP1 SLOAD SWAP1 PUSH2 0x100 EXP SWAP1 DIV PUSH1 0xFF AND AND PUSH1 0xFF AND SUB PUSH2 0xFAF JUMPI PUSH1 0x40 MLOAD PUSH32 0x8C379A000000000000000000000000000000000000000000000000000000000 DUP2 MSTORE PUSH1 0x4 ADD PUSH2 0xFA6 SWAP1 PUSH2 0x4873 JUMP JUMPDEST PUSH1 0x40 MLOAD DUP1 SWAP2 SUB SWAP1 REVERT JUMPDEST DUP1 PUSH1 0x20 ADD CALLDATALOAD PUSH1 0x0 DUP1 DUP5 DUP2 MSTORE PUSH1 0x20 ADD SWAP1 DUP2 MSTORE PUSH1 0x20 ADD PUSH1 0x0 KECCAK256 PUSH1 0x15 ADD PUSH1 0x1 ADD SLOAD LT ISZERO PUSH2 0xFF5 JUMPI DUP1 PUSH1 0x20 ADD CALLDATALOAD PUSH1 0x0 DUP1 DUP5 DUP2 MSTORE PUSH1 0x20 ADD SWAP1 DUP2 MSTORE PUSH1 0x20 ADD PUSH1 0x0 KECCAK256 PUSH1 0x15 ADD PUSH1 0x1 ADD DUP2 SWAP1 SSTORE POP JUMPDEST DUP1 PUSH1 0x40 ADD CALLDATALOAD PUSH1 0x0 DUP1 DUP5 DUP2 MSTORE PUSH1 0x20 ADD SWAP1 DUP2 MSTORE PUSH1 0x20 ADD PUSH1 0x0 KECCAK256 PUSH1 0x15 ADD PUSH1 0x2 ADD DUP2 SWAP1 SSTORE POP DUP1 DUP1 PUSH1 0x60 ADD SWAP1 PUSH2 0x1026 SWAP2 SWAP1 PUSH2 0x46EC JUMP JUMPDEST PUSH1 0x0 DUP1 DUP6 DUP2 MSTORE PUSH1 0x20 ADD SWAP1 DUP2 MSTORE PUSH1 0x20 ADD PUSH1 0x0 KECCAK256 PUSH1 0x15 ADD PUSH1 0x3 ADD SWAP2 DUP3 PUSH2 0x104B SWAP3 SWAP2 SWAP1 PUSH2 0x4A4A JUMP JUMPDEST POP DUP2 PUSH32 0x35947A8913E2156F19B018078C9F0667E49CB3DC24AF3434A4D0B16B82675B1B DUP3 PUSH1 0x40 ADD CALLDATALOAD DUP4 DUP1 PUSH1 0x60 ADD SWAP1 PUSH2 0x1083 SWAP2 SWAP1 PUSH2 0x46EC JUMP JUMPDEST DUP6 PUSH1 0x20 ADD CALLDATALOAD PUSH1 0x40 MLOAD PUSH2 0x1098 SWAP5 SWAP4 SWAP3 SWAP2 SWAP1 PUSH2 0x4B47 JUMP JUMPDEST PUSH1 0x40 MLOAD DUP1 SWAP2 SUB SWAP1 LOG2 POP POP JUMP JUMPDEST PUSH2 0x10AC PUSH2 0x2AAA JUMP JUMPDEST PUSH2 0x10B6 PUSH1 0x0 PUSH2 0x2B31 JUMP JUMPDEST JUMP JUMPDEST PUSH1 0x0 PUSH2 0x10C2 PUSH2 0x2C08 JUMP JUMPDEST SWAP1 POP PUSH1 0x0 DUP2 PUSH1 0x0 ADD PUSH1 0x8 SWAP1 SLOAD SWAP1 PUSH2 0x100 EXP SWAP1 DIV PUSH1 0xFF AND ISZERO SWAP1 POP PUSH1 0x0 DUP3 PUSH1 0x0 ADD PUSH1 0x0 SWAP1 SLOAD SWAP1 PUSH2 0x100 EXP SWAP1 DIV PUSH8 0xFFFFFFFFFFFFFFFF AND SWAP1 POP PUSH1 0x0 DUP1 DUP3 PUSH8 0xFFFFFFFFFFFFFFFF AND EQ DUP1 ISZERO PUSH2 0x1110 JUMPI POP DUP3 JUMPDEST SWAP1 POP PUSH1 0x0 PUSH1 0x1 DUP4 PUSH8 0xFFFFFFFFFFFFFFFF AND EQ DUP1 ISZERO PUSH2 0x1145 JUMPI POP PUSH1 0x0 ADDRESS PUSH20 0xFFFFFFFFFFFFFFFFFFFFFFFFFFFFFFFFFFFFFFFF AND EXTCODESIZE EQ JUMPDEST SWAP1 POP DUP2 ISZERO DUP1 ISZERO PUSH2 0x1153 JUMPI POP DUP1 ISZERO JUMPDEST ISZERO PUSH2 0x118A JUMPI PUSH1 0x40 MLOAD PUSH32 0xF92EE8A900000000000000000000000000000000000000000000000000000000 DUP2 MSTORE PUSH1 0x4 ADD PUSH1 0x40 MLOAD DUP1 SWAP2 SUB SWAP1 REVERT JUMPDEST PUSH1 0x1 DUP6 PUSH1 0x0 ADD PUSH1 0x0 PUSH2 0x100 EXP DUP2 SLOAD DUP2 PUSH8 0xFFFFFFFFFFFFFFFF MUL NOT AND SWAP1 DUP4 PUSH8 0xFFFFFFFFFFFFFFFF AND MUL OR SWAP1 SSTORE POP DUP4 ISZERO PUSH2 0x11DA JUMPI PUSH1 0x1 DUP6 PUSH1 0x0 ADD PUSH1 0x8 PUSH2 0x100 EXP DUP2 SLOAD DUP2 PUSH1 0xFF MUL NOT AND SWAP1 DUP4 ISZERO ISZERO MUL OR SWAP1 SSTORE POP JUMPDEST PUSH2 0x11E3 CALLER PUSH2 0x2C30 JUMP JUMPDEST PUSH2 0x11EB PUSH2 0x2C44 JUMP JUMPDEST DUP8 DUP8 PUSH1 0x2 SWAP2 DUP3 PUSH2 0x11FC SWAP3 SWAP2 SWAP1 PUSH2 0x4A4A JUMP JUMPDEST POP DUP6 PUSH1 0x1 PUSH1 0x0 PUSH2 0x100 EXP DUP2 SLOAD DUP2 PUSH20 0xFFFFFFFFFFFFFFFFFFFFFFFFFFFFFFFFFFFFFFFF MUL NOT AND SWAP1 DUP4 PUSH20 0xFFFFFFFFFFFFFFFFFFFFFFFFFFFFFFFFFFFFFFFF AND MUL OR SWAP1 SSTORE POP DUP4 ISZERO PUSH2 0x129A JUMPI PUSH1 0x0 DUP6 PUSH1 0x0 ADD PUSH1 0x8 PUSH2 0x100 EXP DUP2 SLOAD DUP2 PUSH1 0xFF MUL NOT AND SWAP1 DUP4 ISZERO ISZERO MUL OR SWAP1 SSTORE POP PUSH32 0xC7F505B2F371AE2175EE4913F4499E1F2633A7B5936321EED1CDAEB6115181D2 PUSH1 0x1 PUSH1 0x40 MLOAD PUSH2 0x1291 SWAP2 SWAP1 PUSH2 0x4BD6 JUMP JUMPDEST PUSH1 0x40 MLOAD DUP1 SWAP2 SUB SWAP1 LOG1 JUMPDEST POP POP POP POP POP POP POP POP JUMP JUMPDEST PUSH1 0x1 PUSH1 0x14 SWAP1 SLOAD SWAP1 PUSH2 0x100 EXP SWAP1 DIV PUSH4 0xFFFFFFFF AND DUP2 JUMP JUMPDEST PUSH1 0x1 PUSH1 0x0 SWAP1 SLOAD SWAP1 PUSH2 0x100 EXP SWAP1 DIV PUSH20 0xFFFFFFFFFFFFFFFFFFFFFFFFFFFFFFFFFFFFFFFF AND DUP2 JUMP JUMPDEST PUSH1 0x0 DUP1 PUSH2 0x12EB PUSH2 0x2C4E JUMP JUMPDEST SWAP1 POP DUP1 PUSH1 0x0 ADD PUSH1 0x0 SWAP1 SLOAD SWAP1 PUSH2 0x100 EXP SWAP1 DIV PUSH20 0xFFFFFFFFFFFFFFFFFFFFFFFFFFFFFFFFFFFFFFFF AND SWAP2 POP POP SWAP1 JUMP JUMPDEST PUSH2 0x1320 PUSH2 0x30E7 JUMP JUMPDEST PUSH1 0x0 DUP1 DUP4 DUP2 MSTORE PUSH1 0x20 ADD SWAP1 DUP2 MSTORE PUSH1 0x20 ADD PUSH1 0x0 KECCAK256 PUSH1 0x40 MLOAD DUP1 PUSH2 0x140 ADD PUSH1 0x40 MSTORE SWAP1 DUP2 PUSH1 0x0 DUP3 ADD PUSH1 0x0 SWAP1 SLOAD SWAP1 PUSH2 0x100 EXP SWAP1 DIV PUSH1 0xFF AND PUSH1 0x4 DUP2 GT ISZERO PUSH2 0x1363 JUMPI PUSH2 0x1362 PUSH2 0x339C JUMP JUMPDEST JUMPDEST PUSH1 0x4 DUP2 GT ISZERO PUSH2 0x1375 JUMPI PUSH2 0x1374 PUSH2 0x339C JUMP JUMPDEST JUMPDEST DUP2 MSTORE PUSH1 0x20 ADD PUSH1 0x1 DUP3 ADD SLOAD DUP2 MSTORE PUSH1 0x20 ADD PUSH1 0x2 DUP3 ADD PUSH1 0x2 DUP1 PUSH1 0x20 MUL PUSH1 0x40 MLOAD SWAP1 DUP2 ADD PUSH1 0x40 MSTORE DUP1 SWAP3 SWAP2 SWAP1 DUP3 PUSH1 0x2 DUP1 ISZERO PUSH2 0x13BF JUMPI PUSH1 0x20 MUL DUP3 ADD SWAP2 JUMPDEST DUP2 SLOAD DUP2 MSTORE PUSH1 0x20 ADD SWAP1 PUSH1 0x1 ADD SWAP1 DUP1 DUP4 GT PUSH2 0x13AB JUMPI JUMPDEST POP POP POP POP POP DUP2 MSTORE PUSH1 0x20 ADD PUSH1 0x4 DUP3 ADD SLOAD DUP2 MSTORE PUSH1 0x20 ADD PUSH1 0x5 DUP3 ADD DUP1 SLOAD DUP1 PUSH1 0x20 MUL PUSH1 0x20 ADD PUSH1 0x40 MLOAD SWAP1 DUP2 ADD PUSH1 0x40 MSTORE DUP1 SWAP3 SWAP2 SWAP1 DUP2 DUP2 MSTORE PUSH1 0x20 ADD DUP3 DUP1 SLOAD DUP1 ISZERO PUSH2 0x1421 JUMPI PUSH1 0x20 MUL DUP3 ADD SWAP2 SWAP1 PUSH1 0x0 MSTORE PUSH1 0x20 PUSH1 0x0 KECCAK256 SWAP1 JUMPDEST DUP2 SLOAD DUP2 MSTORE PUSH1 0x20 ADD SWAP1 PUSH1 0x1 ADD SWAP1 DUP1 DUP4 GT PUSH2 0x140D JUMPI JUMPDEST POP POP POP POP POP DUP2 MSTORE PUSH1 0x20 ADD PUSH1 0x6 DUP3 ADD SLOAD DUP2 MSTORE PUSH1 0x20 ADD PUSH1 0x7 DUP3 ADD SLOAD DUP2 MSTORE PUSH1 0x20 ADD PUSH1 0x8 DUP3 ADD DUP1 SLOAD PUSH2 0x144E SWAP1 PUSH2 0x42CF JUMP JUMPDEST DUP1 PUSH1 0x1F ADD PUSH1 0x20 DUP1 SWAP2 DIV MUL PUSH1 0x20 ADD PUSH1 0x40 MLOAD SWAP1 DUP2 ADD PUSH1 0x40 MSTORE DUP1 SWAP3 SWAP2 SWAP1 DUP2 DUP2 MSTORE PUSH1 0x20 ADD DUP3 DUP1 SLOAD PUSH2 0x147A SWAP1 PUSH2 0x42CF JUMP JUMPDEST DUP1 ISZERO PUSH2 0x14C7 JUMPI DUP1 PUSH1 0x1F LT PUSH2 0x149C JUMPI PUSH2 0x100 DUP1 DUP4 SLOAD DIV MUL DUP4 MSTORE SWAP2 PUSH1 0x20 ADD SWAP2 PUSH2 0x14C7 JUMP JUMPDEST DUP3 ADD SWAP2 SWAP1 PUSH1 0x0 MSTORE PUSH1 0x20 PUSH1 0x0 KECCAK256 SWAP1 JUMPDEST DUP2 SLOAD DUP2 MSTORE SWAP1 PUSH1 0x1 ADD SWAP1 PUSH1 0x20 ADD DUP1 DUP4 GT PUSH2 0x14AA JUMPI DUP3 SWAP1 SUB PUSH1 0x1F AND DUP3 ADD SWAP2 JUMPDEST POP POP POP POP POP DUP2 MSTORE PUSH1 0x20 ADD PUSH1 0x9 DUP3 ADD PUSH1 0x40 MLOAD DUP1 PUSH1 0xC0 ADD PUSH1 0x40 MSTORE SWAP1 DUP2 PUSH1 0x0 DUP3 ADD PUSH1 0x0 SWAP1 SLOAD SWAP1 PUSH2 0x100 EXP SWAP1 DIV PUSH1 0xFF AND PUSH1 0xFF AND PUSH1 0xFF AND DUP2 MSTORE PUSH1 0x20 ADD PUSH1 0x0 DUP3 ADD PUSH1 0x1 SWAP1 SLOAD SWAP1 PUSH2 0x100 EXP SWAP1 DIV PUSH1 0xFF AND PUSH1 0xFF AND PUSH1 0xFF AND DUP2 MSTORE PUSH1 0x20 ADD PUSH1 0x1 DUP3 ADD SLOAD DUP2 MSTORE PUSH1 0x20 ADD PUSH1 0x2 DUP3 ADD SLOAD DUP2 MSTORE PUSH1 0x20 ADD PUSH1 0x3 DUP3 ADD PUSH1 0x0 SWAP1 SLOAD SWAP1 PUSH2 0x100 EXP SWAP1 DIV PUSH1 0xFF AND PUSH1 0x4 DUP2 GT ISZERO PUSH2 0x1553 JUMPI PUSH2 0x1552 PUSH2 0x339C JUMP JUMPDEST JUMPDEST PUSH1 0x4 DUP2 GT ISZERO PUSH2 0x1565 JUMPI PUSH2 0x1564 PUSH2 0x339C JUMP JUMPDEST JUMPDEST DUP2 MSTORE PUSH1 0x20 ADD PUSH1 0x4 DUP3 ADD PUSH1 0x40 MLOAD DUP1 PUSH2 0x100 ADD PUSH1 0x40 MSTORE SWAP1 DUP2 PUSH1 0x0 DUP3 ADD PUSH1 0x0 SWAP1 SLOAD SWAP1 PUSH2 0x100 EXP SWAP1 DIV PUSH1 0xFF AND ISZERO ISZERO ISZERO ISZERO DUP2 MSTORE PUSH1 0x20 ADD PUSH1 0x1 DUP3 ADD SLOAD DUP2 MSTORE PUSH1 0x20 ADD PUSH1 0x2 DUP3 ADD SLOAD DUP2 MSTORE PUSH1 0x20 ADD PUSH1 0x3 DUP3 ADD SLOAD DUP2 MSTORE PUSH1 0x20 ADD PUSH1 0x4 DUP3 ADD SLOAD DUP2 MSTORE PUSH1 0x20 ADD PUSH1 0x5 DUP3 ADD SLOAD DUP2 MSTORE PUSH1 0x20 ADD PUSH1 0x6 DUP3 ADD SLOAD DUP2 MSTORE PUSH1 0x20 ADD PUSH1 0x7 DUP3 ADD SLOAD DUP2 MSTORE POP POP DUP2 MSTORE POP POP DUP2 MSTORE PUSH1 0x20 ADD PUSH1 0x15 DUP3 ADD PUSH1 0x40 MLOAD DUP1 PUSH1 0x80 ADD PUSH1 0x40 MSTORE SWAP1 DUP2 PUSH1 0x0 DUP3 ADD PUSH1 0x0 SWAP1 SLOAD SWAP1 PUSH2 0x100 EXP SWAP1 DIV PUSH1 0xFF AND PUSH1 0x9 DUP2 GT ISZERO PUSH2 0x1618 JUMPI PUSH2 0x1617 PUSH2 0x339C JUMP JUMPDEST JUMPDEST PUSH1 0x9 DUP2 GT ISZERO PUSH2 0x162A JUMPI PUSH2 0x1629 PUSH2 0x339C JUMP JUMPDEST JUMPDEST DUP2 MSTORE PUSH1 0x20 ADD PUSH1 0x1 DUP3 ADD SLOAD DUP2 MSTORE PUSH1 0x20 ADD PUSH1 0x2 DUP3 ADD SLOAD DUP2 MSTORE PUSH1 0x20 ADD PUSH1 0x3 DUP3 ADD DUP1 SLOAD PUSH2 0x1652 SWAP1 PUSH2 0x42CF JUMP JUMPDEST DUP1 PUSH1 0x1F ADD PUSH1 0x20 DUP1 SWAP2 DIV MUL PUSH1 0x20 ADD PUSH1 0x40 MLOAD SWAP1 DUP2 ADD PUSH1 0x40 MSTORE DUP1 SWAP3 SWAP2 SWAP1 DUP2 DUP2 MSTORE PUSH1 0x20 ADD DUP3 DUP1 SLOAD PUSH2 0x167E SWAP1 PUSH2 0x42CF JUMP JUMPDEST DUP1 ISZERO PUSH2 0x16CB JUMPI DUP1 PUSH1 0x1F LT PUSH2 0x16A0 JUMPI PUSH2 0x100 DUP1 DUP4 SLOAD DIV MUL DUP4 MSTORE SWAP2 PUSH1 0x20 ADD SWAP2 PUSH2 0x16CB JUMP JUMPDEST DUP3 ADD SWAP2 SWAP1 PUSH1 0x0 MSTORE PUSH1 0x20 PUSH1 0x0 KECCAK256 SWAP1 JUMPDEST DUP2 SLOAD DUP2 MSTORE SWAP1 PUSH1 0x1 ADD SWAP1 PUSH1 0x20 ADD DUP1 DUP4 GT PUSH2 0x16AE JUMPI DUP3 SWAP1 SUB PUSH1 0x1F AND DUP3 ADD SWAP2 JUMPDEST POP POP POP POP POP DUP2 MSTORE POP POP DUP2 MSTORE POP POP SWAP1 POP SWAP2 SWAP1 POP JUMP JUMPDEST PUSH1 0x0 DUP9 PUSH1 0xA0 ADD PUSH1 0x20 ADD CALLDATALOAD GT PUSH2 0x1729 JUMPI PUSH1 0x40 MLOAD PUSH32 0x8C379A000000000000000000000000000000000000000000000000000000000 DUP2 MSTORE PUSH1 0x4 ADD PUSH2 0x1720 SWAP1 PUSH2 0x4C3D JUMP JUMPDEST PUSH1 0x40 MLOAD DUP1 SWAP2 SUB SWAP1 REVERT JUMPDEST DUP8 PUSH1 0xA0 ADD PUSH1 0x20 ADD CALLDATALOAD DUP9 PUSH1 0xA0 ADD PUSH1 0x40 ADD CALLDATALOAD GT PUSH2 0x1779 JUMPI PUSH1 0x40 MLOAD PUSH32 0x8C379A000000000000000000000000000000000000000000000000000000000 DUP2 MSTORE PUSH1 0x4 ADD PUSH2 0x1770 SWAP1 PUSH2 0x4CA9 JUMP JUMPDEST PUSH1 0x40 MLOAD DUP1 SWAP2 SUB SWAP1 REVERT JUMPDEST PUSH1 0x0 PUSH1 0x4 DUP2 GT ISZERO PUSH2 0x178D JUMPI PUSH2 0x178C PUSH2 0x339C JUMP JUMPDEST JUMPDEST DUP9 PUSH1 0x80 ADD PUSH1 0x20 DUP2 ADD SWAP1 PUSH2 0x17A0 SWAP2 SWAP1 PUSH2 0x4CC9 JUMP JUMPDEST PUSH1 0x4 DUP2 GT ISZERO PUSH2 0x17B2 JUMPI PUSH2 0x17B1 PUSH2 0x339C JUMP JUMPDEST JUMPDEST EQ DUP1 PUSH2 0x17F4 JUMPI POP PUSH1 0x3 PUSH1 0x4 DUP2 GT ISZERO PUSH2 0x17CD JUMPI PUSH2 0x17CC PUSH2 0x339C JUMP JUMPDEST JUMPDEST DUP9 PUSH1 0x80 ADD PUSH1 0x20 DUP2 ADD SWAP1 PUSH2 0x17E0 SWAP2 SWAP1 PUSH2 0x4CC9 JUMP JUMPDEST PUSH1 0x4 DUP2 GT ISZERO PUSH2 0x17F2 JUMPI PUSH2 0x17F1 PUSH2 0x339C JUMP JUMPDEST JUMPDEST EQ JUMPDEST PUSH2 0x1833 JUMPI PUSH1 0x40 MLOAD PUSH32 0x8C379A000000000000000000000000000000000000000000000000000000000 DUP2 MSTORE PUSH1 0x4 ADD PUSH2 0x182A SWAP1 PUSH2 0x4D42 JUMP JUMPDEST PUSH1 0x40 MLOAD DUP1 SWAP2 SUB SWAP1 REVERT JUMPDEST PUSH1 0x3 PUSH1 0x9 DUP2 GT ISZERO PUSH2 0x1847 JUMPI PUSH2 0x1846 PUSH2 0x339C JUMP JUMPDEST JUMPDEST DUP8 PUSH1 0x0 ADD PUSH1 0x20 DUP2 ADD SWAP1 PUSH2 0x185A SWAP2 SWAP1 PUSH2 0x4D87 JUMP JUMPDEST PUSH1 0x9 DUP2 GT ISZERO PUSH2 0x186C JUMPI PUSH2 0x186B PUSH2 0x339C JUMP JUMPDEST JUMPDEST SUB PUSH2 0x18CD JUMPI PUSH1 0x0 PUSH1 0x2 DUP10 PUSH1 0x0 ADD PUSH1 0x20 DUP2 ADD SWAP1 PUSH2 0x1888 SWAP2 SWAP1 PUSH2 0x4DE0 JUMP JUMPDEST AND PUSH1 0xFF AND EQ PUSH2 0x18CC JUMPI PUSH1 0x40 MLOAD PUSH32 0x8C379A000000000000000000000000000000000000000000000000000000000 DUP2 MSTORE PUSH1 0x4 ADD PUSH2 0x18C3 SWAP1 PUSH2 0x4EA5 JUMP JUMPDEST PUSH1 0x40 MLOAD DUP1 SWAP2 SUB SWAP1 REVERT JUMPDEST JUMPDEST PUSH1 0x9 DUP1 DUP2 GT ISZERO PUSH2 0x18E0 JUMPI PUSH2 0x18DF PUSH2 0x339C JUMP JUMPDEST JUMPDEST DUP8 PUSH1 0x0 ADD PUSH1 0x20 DUP2 ADD SWAP1 PUSH2 0x18F3 SWAP2 SWAP1 PUSH2 0x4D87 JUMP JUMPDEST PUSH1 0x9 DUP2 GT ISZERO PUSH2 0x1905 JUMPI PUSH2 0x1904 PUSH2 0x339C JUMP JUMPDEST JUMPDEST SUB PUSH2 0x1A0B JUMPI PUSH1 0x1 DUP9 PUSH1 0xA0 ADD PUSH1 0x20 ADD CALLDATALOAD EQ PUSH2 0x1954 JUMPI PUSH1 0x40 MLOAD PUSH32 0x8C379A000000000000000000000000000000000000000000000000000000000 DUP2 MSTORE PUSH1 0x4 ADD PUSH2 0x194B SWAP1 PUSH2 0x4F37 JUMP JUMPDEST PUSH1 0x40 MLOAD DUP1 SWAP2 SUB SWAP1 REVERT JUMPDEST PUSH1 0x0 PUSH1 0x2 DUP10 PUSH1 0x0 ADD PUSH1 0x20 DUP2 ADD SWAP1 PUSH2 0x196B SWAP2 SWAP1 PUSH2 0x4DE0 JUMP JUMPDEST AND PUSH1 0xFF AND EQ PUSH2 0x19AF JUMPI PUSH1 0x40 MLOAD PUSH32 0x8C379A000000000000000000000000000000000000000000000000000000000 DUP2 MSTORE PUSH1 0x4 ADD PUSH2 0x19A6 SWAP1 PUSH2 0x4FEF JUMP JUMPDEST PUSH1 0x40 MLOAD DUP1 SWAP2 SUB SWAP1 REVERT JUMPDEST PUSH1 0x0 PUSH1 0x4 DUP10 PUSH1 0x0 ADD PUSH1 0x20 DUP2 ADD SWAP1 PUSH2 0x19C6 SWAP2 SWAP1 PUSH2 0x4DE0 JUMP JUMPDEST AND PUSH1 0xFF AND EQ PUSH2 0x1A0A JUMPI PUSH1 0x40 MLOAD PUSH32 0x8C379A000000000000000000000000000000000000000000000000000000000 DUP2 MSTORE PUSH1 0x4 ADD PUSH2 0x1A01 SWAP1 PUSH2 0x50A7 JUMP JUMPDEST PUSH1 0x40 MLOAD DUP1 SWAP2 SUB SWAP1 REVERT JUMPDEST JUMPDEST TIMESTAMP DUP9 PUSH1 0x40 ADD CALLDATALOAD GT PUSH2 0x1A51 JUMPI PUSH1 0x40 MLOAD PUSH32 0x8C379A000000000000000000000000000000000000000000000000000000000 DUP2 MSTORE PUSH1 0x4 ADD PUSH2 0x1A48 SWAP1 PUSH2 0x5113 JUMP JUMPDEST PUSH1 0x40 MLOAD DUP1 SWAP2 SUB SWAP1 REVERT JUMPDEST TIMESTAMP DUP9 PUSH1 0x60 ADD CALLDATALOAD DUP10 PUSH1 0x40 ADD CALLDATALOAD PUSH2 0x1A66 SWAP2 SWAP1 PUSH2 0x5162 JUMP JUMPDEST GT PUSH2 0x1AA6 JUMPI PUSH1 0x40 MLOAD PUSH32 0x8C379A000000000000000000000000000000000000000000000000000000000 DUP2 MSTORE PUSH1 0x4 ADD PUSH2 0x1A9D SWAP1 PUSH2 0x51E2 JUMP JUMPDEST PUSH1 0x40 MLOAD DUP1 SWAP2 SUB SWAP1 REVERT JUMPDEST PUSH1 0x0 PUSH1 0x1 DUP10 PUSH1 0x0 ADD PUSH1 0x20 DUP2 ADD SWAP1 PUSH2 0x1ABD SWAP2 SWAP1 PUSH2 0x4DE0 JUMP JUMPDEST AND PUSH1 0xFF AND EQ PUSH2 0x1B01 JUMPI PUSH1 0x40 MLOAD PUSH32 0x8C379A000000000000000000000000000000000000000000000000000000000 DUP2 MSTORE PUSH1 0x4 ADD PUSH2 0x1AF8 SWAP1 PUSH2 0x5274 JUMP JUMPDEST PUSH1 0x40 MLOAD DUP1 SWAP2 SUB SWAP1 REVERT JUMPDEST PUSH1 0x1 PUSH1 0x0 SWAP1 SLOAD SWAP1 PUSH2 0x100 EXP SWAP1 DIV PUSH20 0xFFFFFFFFFFFFFFFFFFFFFFFFFFFFFFFFFFFFFFFF AND PUSH20 0xFFFFFFFFFFFFFFFFFFFFFFFFFFFFFFFFFFFFFFFF AND PUSH4 0x64DD489F DUP6 CALLER PUSH1 0x40 MLOAD DUP4 PUSH4 0xFFFFFFFF AND PUSH1 0xE0 SHL DUP2 MSTORE PUSH1 0x4 ADD PUSH2 0x1B5E SWAP3 SWAP2 SWAP1 PUSH2 0x43D8 JUMP JUMPDEST PUSH1 0x20 PUSH1 0x40 MLOAD DUP1 DUP4 SUB DUP2 DUP7 GAS STATICCALL ISZERO DUP1 ISZERO PUSH2 0x1B7B JUMPI RETURNDATASIZE PUSH1 0x0 DUP1 RETURNDATACOPY RETURNDATASIZE PUSH1 0x0 REVERT JUMPDEST POP POP POP POP PUSH1 0x40 MLOAD RETURNDATASIZE PUSH1 0x1F NOT PUSH1 0x1F DUP3 ADD AND DUP3 ADD DUP1 PUSH1 0x40 MSTORE POP DUP2 ADD SWAP1 PUSH2 0x1B9F SWAP2 SWAP1 PUSH2 0x442D JUMP JUMPDEST PUSH2 0x1BDE JUMPI PUSH1 0x40 MLOAD PUSH32 0x8C379A000000000000000000000000000000000000000000000000000000000 DUP2 MSTORE PUSH1 0x4 ADD PUSH2 0x1BD5 SWAP1 PUSH2 0x52E0 JUMP JUMPDEST PUSH1 0x40 MLOAD DUP1 SWAP2 SUB SWAP1 REVERT JUMPDEST PUSH1 0x0 DUP1 SHL PUSH1 0x0 DUP1 DUP6 DUP2 MSTORE PUSH1 0x20 ADD SWAP1 DUP2 MSTORE PUSH1 0x20 ADD PUSH1 0x0 KECCAK256 PUSH1 0x1 ADD SLOAD EQ PUSH2 0x1C38 JUMPI PUSH1 0x40 MLOAD PUSH32 0x8C379A000000000000000000000000000000000000000000000000000000000 DUP2 MSTORE PUSH1 0x4 ADD PUSH2 0x1C2F SWAP1 PUSH2 0x5372 JUMP JUMPDEST PUSH1 0x40 MLOAD DUP1 SWAP2 SUB SWAP1 REVERT JUMPDEST PUSH1 0x0 PUSH1 0x40 MLOAD DUP1 PUSH2 0x140 ADD PUSH1 0x40 MSTORE DUP1 DUP11 PUSH1 0x80 ADD PUSH1 0x20 DUP2 ADD SWAP1 PUSH2 0x1C59 SWAP2 SWAP1 PUSH2 0x4CC9 JUMP JUMPDEST PUSH1 0x4 DUP2 GT ISZERO PUSH2 0x1C6B JUMPI PUSH2 0x1C6A PUSH2 0x339C JUMP JUMPDEST JUMPDEST DUP2 MSTORE PUSH1 0x20 ADD DUP7 DUP2 MSTORE PUSH1 0x20 ADD PUSH1 0x40 MLOAD DUP1 PUSH1 0x40 ADD PUSH1 0x40 MSTORE DUP1 DUP7 DUP2 MSTORE PUSH1 0x20 ADD PUSH1 0x0 DUP1 SHL DUP2 MSTORE POP DUP2 MSTORE PUSH1 0x20 ADD DUP4 DUP2 MSTORE PUSH1 0x20 ADD PUSH1 0x0 PUSH8 0xFFFFFFFFFFFFFFFF DUP2 GT ISZERO PUSH2 0x1CB4 JUMPI PUSH2 0x1CB3 PUSH2 0x3982 JUMP JUMPDEST JUMPDEST PUSH1 0x40 MLOAD SWAP1 DUP1 DUP3 MSTORE DUP1 PUSH1 0x20 MUL PUSH1 0x20 ADD DUP3 ADD PUSH1 0x40 MSTORE DUP1 ISZERO PUSH2 0x1CE2 JUMPI DUP2 PUSH1 0x20 ADD PUSH1 0x20 DUP3 MUL DUP1 CALLDATASIZE DUP4 CALLDATACOPY DUP1 DUP3 ADD SWAP2 POP POP SWAP1 POP JUMPDEST POP DUP2 MSTORE PUSH1 0x20 ADD DUP11 PUSH1 0x40 ADD CALLDATALOAD DUP2 MSTORE PUSH1 0x20 ADD DUP11 PUSH1 0x60 ADD CALLDATALOAD DUP2 MSTORE PUSH1 0x20 ADD DUP9 DUP9 DUP1 DUP1 PUSH1 0x1F ADD PUSH1 0x20 DUP1 SWAP2 DIV MUL PUSH1 0x20 ADD PUSH1 0x40 MLOAD SWAP1 DUP2 ADD PUSH1 0x40 MSTORE DUP1 SWAP4 SWAP3 SWAP2 SWAP1 DUP2 DUP2 MSTORE PUSH1 0x20 ADD DUP4 DUP4 DUP1 DUP3 DUP5 CALLDATACOPY PUSH1 0x0 DUP2 DUP5 ADD MSTORE PUSH1 0x1F NOT PUSH1 0x1F DUP3 ADD AND SWAP1 POP DUP1 DUP4 ADD SWAP3 POP POP POP POP POP POP POP DUP2 MSTORE PUSH1 0x20 ADD DUP11 DUP1 CALLDATASIZE SUB DUP2 ADD SWAP1 PUSH2 0x1D57 SWAP2 SWAP1 PUSH2 0x551C JUMP JUMPDEST DUP2 MSTORE PUSH1 0x20 ADD DUP10 PUSH2 0x1D66 SWAP1 PUSH2 0x567F JUMP JUMPDEST DUP2 MSTORE POP SWAP1 POP DUP1 PUSH1 0x0 DUP1 DUP7 DUP2 MSTORE PUSH1 0x20 ADD SWAP1 DUP2 MSTORE PUSH1 0x20 ADD PUSH1 0x0 KECCAK256 PUSH1 0x0 DUP3 ADD MLOAD DUP2 PUSH1 0x0 ADD PUSH1 0x0 PUSH2 0x100 EXP DUP2 SLOAD DUP2 PUSH1 0xFF MUL NOT AND SWAP1 DUP4 PUSH1 0x4 DUP2 GT ISZERO PUSH2 0x1DA9 JUMPI PUSH2 0x1DA8 PUSH2 0x339C JUMP JUMPDEST JUMPDEST MUL OR SWAP1 SSTORE POP PUSH1 0x20 DUP3 ADD MLOAD DUP2 PUSH1 0x1 ADD SSTORE PUSH1 0x40 DUP3 ADD MLOAD DUP2 PUSH1 0x2 ADD SWAP1 PUSH1 0x2 PUSH2 0x1DCF SWAP3 SWAP2 SWAP1 PUSH2 0x3164 JUMP JUMPDEST POP PUSH1 0x60 DUP3 ADD MLOAD DUP2 PUSH1 0x4 ADD SSTORE PUSH1 0x80 DUP3 ADD MLOAD DUP2 PUSH1 0x5 ADD SWAP1 DUP1 MLOAD SWAP1 PUSH1 0x20 ADD SWAP1 PUSH2 0x1DF6 SWAP3 SWAP2 SWAP1 PUSH2 0x31A4 JUMP JUMPDEST POP PUSH1 0xA0 DUP3 ADD MLOAD DUP2 PUSH1 0x6 ADD SSTORE PUSH1 0xC0 DUP3 ADD MLOAD DUP2 PUSH1 0x7 ADD SSTORE PUSH1 0xE0 DUP3 ADD MLOAD DUP2 PUSH1 0x8 ADD SWAP1 DUP2 PUSH2 0x1E20 SWAP2 SWAP1 PUSH2 0x5692 JUMP JUMPDEST POP PUSH2 0x100 DUP3 ADD MLOAD DUP2 PUSH1 0x9 ADD PUSH1 0x0 DUP3 ADD MLOAD DUP2 PUSH1 0x0 ADD PUSH1 0x0 PUSH2 0x100 EXP DUP2 SLOAD DUP2 PUSH1 0xFF MUL NOT AND SWAP1 DUP4 PUSH1 0xFF AND MUL OR SWAP1 SSTORE POP PUSH1 0x20 DUP3 ADD MLOAD DUP2 PUSH1 0x0 ADD PUSH1 0x1 PUSH2 0x100 EXP DUP2 SLOAD DUP2 PUSH1 0xFF MUL NOT AND SWAP1 DUP4 PUSH1 0xFF AND MUL OR SWAP1 SSTORE POP PUSH1 0x40 DUP3 ADD MLOAD DUP2 PUSH1 0x1 ADD SSTORE PUSH1 0x60 DUP3 ADD MLOAD DUP2 PUSH1 0x2 ADD SSTORE PUSH1 0x80 DUP3 ADD MLOAD DUP2 PUSH1 0x3 ADD PUSH1 0x0 PUSH2 0x100 EXP DUP2 SLOAD DUP2 PUSH1 0xFF MUL NOT AND SWAP1 DUP4 PUSH1 0x4 DUP2 GT ISZERO PUSH2 0x1EAC JUMPI PUSH2 0x1EAB PUSH2 0x339C JUMP JUMPDEST JUMPDEST MUL OR SWAP1 SSTORE POP PUSH1 0xA0 DUP3 ADD MLOAD DUP2 PUSH1 0x4 ADD PUSH1 0x0 DUP3 ADD MLOAD DUP2 PUSH1 0x0 ADD PUSH1 0x0 PUSH2 0x100 EXP DUP2 SLOAD DUP2 PUSH1 0xFF MUL NOT AND SWAP1 DUP4 ISZERO ISZERO MUL OR SWAP1 SSTORE POP PUSH1 0x20 DUP3 ADD MLOAD DUP2 PUSH1 0x1 ADD SSTORE PUSH1 0x40 DUP3 ADD MLOAD DUP2 PUSH1 0x2 ADD SSTORE PUSH1 0x60 DUP3 ADD MLOAD DUP2 PUSH1 0x3 ADD SSTORE PUSH1 0x80 DUP3 ADD MLOAD DUP2 PUSH1 0x4 ADD SSTORE PUSH1 0xA0 DUP3 ADD MLOAD DUP2 PUSH1 0x5 ADD SSTORE PUSH1 0xC0 DUP3 ADD MLOAD DUP2 PUSH1 0x6 ADD SSTORE PUSH1 0xE0 DUP3 ADD MLOAD DUP2 PUSH1 0x7 ADD SSTORE POP POP POP POP PUSH2 0x120 DUP3 ADD MLOAD DUP2 PUSH1 0x15 ADD PUSH1 0x0 DUP3 ADD MLOAD DUP2 PUSH1 0x0 ADD PUSH1 0x0 PUSH2 0x100 EXP DUP2 SLOAD DUP2 PUSH1 0xFF MUL NOT AND SWAP1 DUP4 PUSH1 0x9 DUP2 GT ISZERO PUSH2 0x1F59 JUMPI PUSH2 0x1F58 PUSH2 0x339C JUMP JUMPDEST JUMPDEST MUL OR SWAP1 SSTORE POP PUSH1 0x20 DUP3 ADD MLOAD DUP2 PUSH1 0x1 ADD SSTORE PUSH1 0x40 DUP3 ADD MLOAD DUP2 PUSH1 0x2 ADD SSTORE PUSH1 0x60 DUP3 ADD MLOAD DUP2 PUSH1 0x3 ADD SWAP1 DUP2 PUSH2 0x1F87 SWAP2 SWAP1 PUSH2 0x5692 JUMP JUMPDEST POP POP POP SWAP1 POP POP CALLER PUSH20 0xFFFFFFFFFFFFFFFFFFFFFFFFFFFFFFFFFFFFFFFF AND DUP5 PUSH32 0xADA6F87A2A16A0C9C169CA36754C5F33F7C1A973B575D068F888A549ED4FAEFA PUSH1 0x40 MLOAD PUSH1 0x40 MLOAD DUP1 SWAP2 SUB SWAP1 LOG3 POP POP POP POP POP POP POP POP POP JUMP JUMPDEST PUSH1 0x40 MLOAD DUP1 PUSH1 0x40 ADD PUSH1 0x40 MSTORE DUP1 PUSH1 0x5 DUP2 MSTORE PUSH1 0x20 ADD PUSH32 0x352E302E30000000000000000000000000000000000000000000000000000000 DUP2 MSTORE POP DUP2 JUMP JUMPDEST PUSH1 0x2 DUP1 SLOAD PUSH2 0x2022 SWAP1 PUSH2 0x42CF JUMP JUMPDEST DUP1 PUSH1 0x1F ADD PUSH1 0x20 DUP1 SWAP2 DIV MUL PUSH1 0x20 ADD PUSH1 0x40 MLOAD SWAP1 DUP2 ADD PUSH1 0x40 MSTORE DUP1 SWAP3 SWAP2 SWAP1 DUP2 DUP2 MSTORE PUSH1 0x20 ADD DUP3 DUP1 SLOAD PUSH2 0x204E SWAP1 PUSH2 0x42CF JUMP JUMPDEST DUP1 ISZERO PUSH2 0x209B JUMPI DUP1 PUSH1 0x1F LT PUSH2 0x2070 JUMPI PUSH2 0x100 DUP1 DUP4 SLOAD DIV MUL DUP4 MSTORE SWAP2 PUSH1 0x20 ADD SWAP2 PUSH2 0x209B JUMP JUMPDEST DUP3 ADD SWAP2 SWAP1 PUSH1 0x0 MSTORE PUSH1 0x20 PUSH1 0x0 KECCAK256 SWAP1 JUMPDEST DUP2 SLOAD DUP2 MSTORE SWAP1 PUSH1 0x1 ADD SWAP1 PUSH1 0x20 ADD DUP1 DUP4 GT PUSH2 0x207E JUMPI DUP3 SWAP1 SUB PUSH1 0x1F AND DUP3 ADD SWAP2 JUMPDEST POP POP POP POP POP DUP2 JUMP JUMPDEST PUSH1 0x0 DUP1 SHL PUSH1 0x0 DUP1 DUP8 DUP2 MSTORE PUSH1 0x20 ADD SWAP1 DUP2 MSTORE PUSH1 0x20 ADD PUSH1 0x0 KECCAK256 PUSH1 0x1 ADD SLOAD SUB PUSH2 0x20FD JUMPI PUSH1 0x40 MLOAD PUSH32 0x8C379A000000000000000000000000000000000000000000000000000000000 DUP2 MSTORE PUSH1 0x4 ADD PUSH2 0x20F4 SWAP1 PUSH2 0x434C JUMP JUMPDEST PUSH1 0x40 MLOAD DUP1 SWAP2 SUB SWAP1 REVERT JUMPDEST PUSH1 0x4 DUP1 DUP2 GT ISZERO PUSH2 0x2110 JUMPI PUSH2 0x210F PUSH2 0x339C JUMP JUMPDEST JUMPDEST PUSH1 0x0 DUP1 DUP8 DUP2 MSTORE PUSH1 0x20 ADD SWAP1 DUP2 MSTORE PUSH1 0x20 ADD PUSH1 0x0 KECCAK256 PUSH1 0x0 ADD PUSH1 0x0 SWAP1 SLOAD SWAP1 PUSH2 0x100 EXP SWAP1 DIV PUSH1 0xFF AND PUSH1 0x4 DUP2 GT ISZERO PUSH2 0x2145 JUMPI PUSH2 0x2144 PUSH2 0x339C JUMP JUMPDEST JUMPDEST EQ ISZERO DUP1 ISZERO PUSH2 0x219A JUMPI POP PUSH1 0x2 PUSH1 0x4 DUP2 GT ISZERO PUSH2 0x2162 JUMPI PUSH2 0x2161 PUSH2 0x339C JUMP JUMPDEST JUMPDEST PUSH1 0x0 DUP1 DUP8 DUP2 MSTORE PUSH1 0x20 ADD SWAP1 DUP2 MSTORE PUSH1 0x20 ADD PUSH1 0x0 KECCAK256 PUSH1 0x0 ADD PUSH1 0x0 SWAP1 SLOAD SWAP1 PUSH2 0x100 EXP SWAP1 DIV PUSH1 0xFF AND PUSH1 0x4 DUP2 GT ISZERO PUSH2 0x2197 JUMPI PUSH2 0x2196 PUSH2 0x339C JUMP JUMPDEST JUMPDEST EQ ISZERO JUMPDEST PUSH2 0x21D9 JUMPI PUSH1 0x40 MLOAD PUSH32 0x8C379A000000000000000000000000000000000000000000000000000000000 DUP2 MSTORE PUSH1 0x4 ADD PUSH2 0x21D0 SWAP1 PUSH2 0x57D6 JUMP JUMPDEST PUSH1 0x40 MLOAD DUP1 SWAP2 SUB SWAP1 REVERT JUMPDEST DUP4 PUSH1 0x0 DUP1 DUP8 DUP2 MSTORE PUSH1 0x20 ADD SWAP1 DUP2 MSTORE PUSH1 0x20 ADD PUSH1 0x0 KECCAK256 PUSH1 0x4 ADD SLOAD EQ PUSH2 0x2230 JUMPI PUSH1 0x40 MLOAD PUSH32 0x8C379A000000000000000000000000000000000000000000000000000000000 DUP2 MSTORE PUSH1 0x4 ADD PUSH2 0x2227 SWAP1 PUSH2 0x5842 JUMP JUMPDEST PUSH1 0x40 MLOAD DUP1 SWAP2 SUB SWAP1 REVERT JUMPDEST DUP3 PUSH1 0x0 DUP1 DUP8 DUP2 MSTORE PUSH1 0x20 ADD SWAP1 DUP2 MSTORE PUSH1 0x20 ADD PUSH1 0x0 KECCAK256 PUSH1 0x4 ADD DUP2 SWAP1 SSTORE POP DUP5 PUSH32 0x734F931FE7A3776841211722ED18B29FC2947CC7A13E74D15FA612205C022DB8 DUP5 PUSH1 0x40 MLOAD PUSH2 0x227A SWAP2 SWAP1 PUSH2 0x3B09 JUMP JUMPDEST PUSH1 0x40 MLOAD DUP1 SWAP2 SUB SWAP1 LOG2 POP POP POP POP POP JUMP JUMPDEST PUSH1 0x1 PUSH1 0x0 SWAP1 SLOAD SWAP1 PUSH2 0x100 EXP SWAP1 DIV PUSH20 0xFFFFFFFFFFFFFFFFFFFFFFFFFFFFFFFFFFFFFFFF AND PUSH20 0xFFFFFFFFFFFFFFFFFFFFFFFFFFFFFFFFFFFFFFFF AND PUSH4 0x64DD489F PUSH1 0x0 DUP1 DUP6 DUP2 MSTORE PUSH1 0x20 ADD SWAP1 DUP2 MSTORE PUSH1 0x20 ADD PUSH1 0x0 KECCAK256 PUSH1 0x1 ADD SLOAD CALLER PUSH1 0x40 MLOAD DUP4 PUSH4 0xFFFFFFFF AND PUSH1 0xE0 SHL DUP2 MSTORE PUSH1 0x4 ADD PUSH2 0x22FB SWAP3 SWAP2 SWAP1 PUSH2 0x43D8 JUMP JUMPDEST PUSH1 0x20 PUSH1 0x40 MLOAD DUP1 DUP4 SUB DUP2 DUP7 GAS STATICCALL ISZERO DUP1 ISZERO PUSH2 0x2318 JUMPI RETURNDATASIZE PUSH1 0x0 DUP1 RETURNDATACOPY RETURNDATASIZE PUSH1 0x0 REVERT JUMPDEST POP POP POP POP PUSH1 0x40 MLOAD RETURNDATASIZE PUSH1 0x1F NOT PUSH1 0x1F DUP3 ADD AND DUP3 ADD DUP1 PUSH1 0x40 MSTORE POP DUP2 ADD SWAP1 PUSH2 0x233C SWAP2 SWAP1 PUSH2 0x442D JUMP JUMPDEST PUSH2 0x237B JUMPI PUSH1 0x40 MLOAD PUSH32 0x8C379A000000000000000000000000000000000000000000000000000000000 DUP2 MSTORE PUSH1 0x4 ADD PUSH2 0x2372 SWAP1 PUSH2 0x58D4 JUMP JUMPDEST PUSH1 0x40 MLOAD DUP1 SWAP2 SUB SWAP1 REVERT JUMPDEST PUSH1 0x0 DUP1 SHL PUSH1 0x0 DUP1 DUP5 DUP2 MSTORE PUSH1 0x20 ADD SWAP1 DUP2 MSTORE PUSH1 0x20 ADD PUSH1 0x0 KECCAK256 PUSH1 0x1 ADD SLOAD SUB PUSH2 0x23D5 JUMPI PUSH1 0x40 MLOAD PUSH32 0x8C379A000000000000000000000000000000000000000000000000000000000 DUP2 MSTORE PUSH1 0x4 ADD PUSH2 0x23CC SWAP1 PUSH2 0x434C JUMP JUMPDEST PUSH1 0x40 MLOAD DUP1 SWAP2 SUB SWAP1 REVERT JUMPDEST PUSH1 0x0 PUSH1 0x4 DUP2 GT ISZERO PUSH2 0x23E9 JUMPI PUSH2 0x23E8 PUSH2 0x339C JUMP JUMPDEST JUMPDEST PUSH1 0x0 DUP1 DUP5 DUP2 MSTORE PUSH1 0x20 ADD SWAP1 DUP2 MSTORE PUSH1 0x20 ADD PUSH1 0x0 KECCAK256 PUSH1 0x0 ADD PUSH1 0x0 SWAP1 SLOAD SWAP1 PUSH2 0x100 EXP SWAP1 DIV PUSH1 0xFF AND PUSH1 0x4 DUP2 GT ISZERO PUSH2 0x241E JUMPI PUSH2 0x241D PUSH2 0x339C JUMP JUMPDEST JUMPDEST EQ DUP1 PUSH2 0x2470 JUMPI POP PUSH1 0x3 PUSH1 0x4 DUP2 GT ISZERO PUSH2 0x2439 JUMPI PUSH2 0x2438 PUSH2 0x339C JUMP JUMPDEST JUMPDEST PUSH1 0x0 DUP1 DUP5 DUP2 MSTORE PUSH1 0x20 ADD SWAP1 DUP2 MSTORE PUSH1 0x20 ADD PUSH1 0x0 KECCAK256 PUSH1 0x0 ADD PUSH1 0x0 SWAP1 SLOAD SWAP1 PUSH2 0x100 EXP SWAP1 DIV PUSH1 0xFF AND PUSH1 0x4 DUP2 GT ISZERO PUSH2 0x246E JUMPI PUSH2 0x246D PUSH2 0x339C JUMP JUMPDEST JUMPDEST EQ JUMPDEST PUSH2 0x24AF JUMPI PUSH1 0x40 MLOAD PUSH32 0x8C379A000000000000000000000000000000000000000000000000000000000 DUP2 MSTORE PUSH1 0x4 ADD PUSH2 0x24A6 SWAP1 PUSH2 0x4538 JUMP JUMPDEST PUSH1 0x40 MLOAD DUP1 SWAP2 SUB SWAP1 REVERT JUMPDEST TIMESTAMP DUP2 GT PUSH2 0x24F1 JUMPI PUSH1 0x40 MLOAD PUSH32 0x8C379A000000000000000000000000000000000000000000000000000000000 DUP2 MSTORE PUSH1 0x4 ADD PUSH2 0x24E8 SWAP1 PUSH2 0x5940 JUMP JUMPDEST PUSH1 0x40 MLOAD DUP1 SWAP2 SUB SWAP1 REVERT JUMPDEST DUP1 PUSH1 0x0 DUP1 DUP5 DUP2 MSTORE PUSH1 0x20 ADD SWAP1 DUP2 MSTORE PUSH1 0x20 ADD PUSH1 0x0 KECCAK256 PUSH1 0x7 ADD DUP2 SWAP1 SSTORE POP DUP2 PUSH32 0xF759826327C668A220D576485AC38DDC4F83FBC414B984C00E79F669B649F46 DUP3 PUSH1 0x40 MLOAD PUSH2 0x253B SWAP2 SWAP1 PUSH2 0x5960 JUMP JUMPDEST PUSH1 0x40 MLOAD DUP1 SWAP2 SUB SWAP1 LOG2 POP POP JUMP JUMPDEST PUSH1 0x1 PUSH1 0x0 SWAP1 SLOAD SWAP1 PUSH2 0x100 EXP SWAP1 DIV PUSH20 0xFFFFFFFFFFFFFFFFFFFFFFFFFFFFFFFFFFFFFFFF AND PUSH20 0xFFFFFFFFFFFFFFFFFFFFFFFFFFFFFFFFFFFFFFFF AND PUSH4 0x64DD489F PUSH1 0x0 DUP1 DUP5 DUP2 MSTORE PUSH1 0x20 ADD SWAP1 DUP2 MSTORE PUSH1 0x20 ADD PUSH1 0x0 KECCAK256 PUSH1 0x1 ADD SLOAD CALLER PUSH1 0x40 MLOAD DUP4 PUSH4 0xFFFFFFFF AND PUSH1 0xE0 SHL DUP2 MSTORE PUSH1 0x4 ADD PUSH2 0x25B9 SWAP3 SWAP2 SWAP1 PUSH2 0x43D8 JUMP JUMPDEST PUSH1 0x20 PUSH1 0x40 MLOAD DUP1 DUP4 SUB DUP2 DUP7 GAS STATICCALL ISZERO DUP1 ISZERO PUSH2 0x25D6 JUMPI RETURNDATASIZE PUSH1 0x0 DUP1 RETURNDATACOPY RETURNDATASIZE PUSH1 0x0 REVERT JUMPDEST POP POP POP POP PUSH1 0x40 MLOAD RETURNDATASIZE PUSH1 0x1F NOT PUSH1 0x1F DUP3 ADD AND DUP3 ADD DUP1 PUSH1 0x40 MSTORE POP DUP2 ADD SWAP1 PUSH2 0x25FA SWAP2 SWAP1 PUSH2 0x442D JUMP JUMPDEST PUSH2 0x2639 JUMPI PUSH1 0x40 MLOAD PUSH32 0x8C379A000000000000000000000000000000000000000000000000000000000 DUP2 MSTORE PUSH1 0x4 ADD PUSH2 0x2630 SWAP1 PUSH2 0x59C7 JUMP JUMPDEST PUSH1 0x40 MLOAD DUP1 SWAP2 SUB SWAP1 REVERT JUMPDEST PUSH1 0x0 PUSH1 0x4 DUP2 GT ISZERO PUSH2 0x264D JUMPI PUSH2 0x264C PUSH2 0x339C JUMP JUMPDEST JUMPDEST PUSH1 0x0 DUP1 DUP4 DUP2 MSTORE PUSH1 0x20 ADD SWAP1 DUP2 MSTORE PUSH1 0x20 ADD PUSH1 0x0 KECCAK256 PUSH1 0x0 ADD PUSH1 0x0 SWAP1 SLOAD SWAP1 PUSH2 0x100 EXP SWAP1 DIV PUSH1 0xFF AND PUSH1 0x4 DUP2 GT ISZERO PUSH2 0x2682 JUMPI PUSH2 0x2681 PUSH2 0x339C JUMP JUMPDEST JUMPDEST EQ DUP1 PUSH2 0x26D4 JUMPI POP PUSH1 0x3 PUSH1 0x4 DUP2 GT ISZERO PUSH2 0x269D JUMPI PUSH2 0x269C PUSH2 0x339C JUMP JUMPDEST JUMPDEST PUSH1 0x0 DUP1 DUP4 DUP2 MSTORE PUSH1 0x20 ADD SWAP1 DUP2 MSTORE PUSH1 0x20 ADD PUSH1 0x0 KECCAK256 PUSH1 0x0 ADD PUSH1 0x0 SWAP1 SLOAD SWAP1 PUSH2 0x100 EXP SWAP1 DIV PUSH1 0xFF AND PUSH1 0x4 DUP2 GT ISZERO PUSH2 0x26D2 JUMPI PUSH2 0x26D1 PUSH2 0x339C JUMP JUMPDEST JUMPDEST EQ JUMPDEST PUSH2 0x2713 JUMPI PUSH1 0x40 MLOAD PUSH32 0x8C379A000000000000000000000000000000000000000000000000000000000 DUP2 MSTORE PUSH1 0x4 ADD PUSH2 0x270A SWAP1 PUSH2 0x4538 JUMP JUMPDEST PUSH1 0x40 MLOAD DUP1 SWAP2 SUB SWAP1 REVERT JUMPDEST PUSH1 0x1 PUSH1 0x0 DUP1 DUP4 DUP2 MSTORE PUSH1 0x20 ADD SWAP1 DUP2 MSTORE PUSH1 0x20 ADD PUSH1 0x0 KECCAK256 PUSH1 0x0 ADD PUSH1 0x0 PUSH2 0x100 EXP DUP2 SLOAD DUP2 PUSH1 0xFF MUL NOT AND SWAP1 DUP4 PUSH1 0x4 DUP2 GT ISZERO PUSH2 0x274C JUMPI PUSH2 0x274B PUSH2 0x339C JUMP JUMPDEST JUMPDEST MUL OR SWAP1 SSTORE POP DUP1 PUSH32 0xAC0C4085A30BC70D0D8893EE5D6466AC9C5F03E27FD7292DCEF128A610E7C190 PUSH1 0x1 PUSH1 0x40 MLOAD PUSH2 0x2782 SWAP2 SWAP1 PUSH2 0x4630 JUMP JUMPDEST PUSH1 0x40 MLOAD DUP1 SWAP2 SUB SWAP1 LOG2 POP JUMP JUMPDEST PUSH2 0x2795 PUSH2 0x2AAA JUMP JUMPDEST PUSH1 0x0 PUSH20 0xFFFFFFFFFFFFFFFFFFFFFFFFFFFFFFFFFFFFFFFF AND DUP2 PUSH20 0xFFFFFFFFFFFFFFFFFFFFFFFFFFFFFFFFFFFFFFFF AND SUB PUSH2 0x2807 JUMPI PUSH1 0x0 PUSH1 0x40 MLOAD PUSH32 0x1E4FBDF700000000000000000000000000000000000000000000000000000000 DUP2 MSTORE PUSH1 0x4 ADD PUSH2 0x27FE SWAP2 SWAP1 PUSH2 0x3D08 JUMP JUMPDEST PUSH1 0x40 MLOAD DUP1 SWAP2 SUB SWAP1 REVERT JUMPDEST PUSH2 0x2810 DUP2 PUSH2 0x2B31 JUMP JUMPDEST POP JUMP JUMPDEST PUSH32 0x0 PUSH20 0xFFFFFFFFFFFFFFFFFFFFFFFFFFFFFFFFFFFFFFFF AND ADDRESS PUSH20 0xFFFFFFFFFFFFFFFFFFFFFFFFFFFFFFFFFFFFFFFF AND EQ DUP1 PUSH2 0x28C0 JUMPI POP PUSH32 0x0 PUSH20 0xFFFFFFFFFFFFFFFFFFFFFFFFFFFFFFFFFFFFFFFF AND PUSH2 0x28A7 PUSH2 0x2C76 JUMP JUMPDEST PUSH20 0xFFFFFFFFFFFFFFFFFFFFFFFFFFFFFFFFFFFFFFFF AND EQ ISZERO JUMPDEST ISZERO PUSH2 0x28F7 JUMPI PUSH1 0x40 MLOAD PUSH32 0xE07C8DBA00000000000000000000000000000000000000000000000000000000 DUP2 MSTORE PUSH1 0x4 ADD PUSH1 0x40 MLOAD DUP1 SWAP2 SUB SWAP1 REVERT JUMPDEST JUMP JUMPDEST PUSH2 0x2901 PUSH2 0x2AAA JUMP JUMPDEST POP JUMP JUMPDEST DUP2 PUSH20 0xFFFFFFFFFFFFFFFFFFFFFFFFFFFFFFFFFFFFFFFF AND PUSH4 0x52D1902D PUSH1 0x40 MLOAD DUP2 PUSH4 0xFFFFFFFF AND PUSH1 0xE0 SHL DUP2 MSTORE PUSH1 0x4 ADD PUSH1 0x20 PUSH1 0x40 MLOAD DUP1 DUP4 SUB DUP2 DUP7 GAS STATICCALL SWAP3 POP POP POP DUP1 ISZERO PUSH2 0x296C JUMPI POP PUSH1 0x40 MLOAD RETURNDATASIZE PUSH1 0x1F NOT PUSH1 0x1F DUP3 ADD AND DUP3 ADD DUP1 PUSH1 0x40 MSTORE POP DUP2 ADD SWAP1 PUSH2 0x2969 SWAP2 SWAP1 PUSH2 0x59FC JUMP JUMPDEST PUSH1 0x1 JUMPDEST PUSH2 0x29AD JUMPI DUP2 PUSH1 0x40 MLOAD PUSH32 0x4C9C8CE300000000000000000000000000000000000000000000000000000000 DUP2 MSTORE PUSH1 0x4 ADD PUSH2 0x29A4 SWAP2 SWAP1 PUSH2 0x3D08 JUMP JUMPDEST PUSH1 0x40 MLOAD DUP1 SWAP2 SUB SWAP1 REVERT JUMPDEST PUSH32 0x360894A13BA1A3210667C828492DB98DCA3E2076CC3735A920A3CA505D382BBC PUSH1 0x0 SHL DUP2 EQ PUSH2 0x2A14 JUMPI DUP1 PUSH1 0x40 MLOAD PUSH32 0xAA1D49A400000000000000000000000000000000000000000000000000000000 DUP2 MSTORE PUSH1 0x4 ADD PUSH2 0x2A0B SWAP2 SWAP1 PUSH2 0x3B09 JUMP JUMPDEST PUSH1 0x40 MLOAD DUP1 SWAP2 SUB SWAP1 REVERT JUMPDEST PUSH2 0x2A1E DUP4 DUP4 PUSH2 0x2CCD JUMP JUMPDEST POP POP POP JUMP JUMPDEST PUSH32 0x0 PUSH20 0xFFFFFFFFFFFFFFFFFFFFFFFFFFFFFFFFFFFFFFFF AND ADDRESS PUSH20 0xFFFFFFFFFFFFFFFFFFFFFFFFFFFFFFFFFFFFFFFF AND EQ PUSH2 0x2AA8 JUMPI PUSH1 0x40 MLOAD PUSH32 0xE07C8DBA00000000000000000000000000000000000000000000000000000000 DUP2 MSTORE PUSH1 0x4 ADD PUSH1 0x40 MLOAD DUP1 SWAP2 SUB SWAP1 REVERT JUMPDEST JUMP JUMPDEST PUSH2 0x2AB2 PUSH2 0x2D40 JUMP JUMPDEST PUSH20 0xFFFFFFFFFFFFFFFFFFFFFFFFFFFFFFFFFFFFFFFF AND PUSH2 0x2AD0 PUSH2 0x12E0 JUMP JUMPDEST PUSH20 0xFFFFFFFFFFFFFFFFFFFFFFFFFFFFFFFFFFFFFFFF AND EQ PUSH2 0x2B2F JUMPI PUSH2 0x2AF3 PUSH2 0x2D40 JUMP JUMPDEST PUSH1 0x40 MLOAD PUSH32 0x118CDAA700000000000000000000000000000000000000000000000000000000 DUP2 MSTORE PUSH1 0x4 ADD PUSH2 0x2B26 SWAP2 SWAP1 PUSH2 0x3D08 JUMP JUMPDEST PUSH1 0x40 MLOAD DUP1 SWAP2 SUB SWAP1 REVERT JUMPDEST JUMP JUMPDEST PUSH1 0x0 PUSH2 0x2B3B PUSH2 0x2C4E JUMP JUMPDEST SWAP1 POP PUSH1 0x0 DUP2 PUSH1 0x0 ADD PUSH1 0x0 SWAP1 SLOAD SWAP1 PUSH2 0x100 EXP SWAP1 DIV PUSH20 0xFFFFFFFFFFFFFFFFFFFFFFFFFFFFFFFFFFFFFFFF AND SWAP1 POP DUP3 DUP3 PUSH1 0x0 ADD PUSH1 0x0 PUSH2 0x100 EXP DUP2 SLOAD DUP2 PUSH20 0xFFFFFFFFFFFFFFFFFFFFFFFFFFFFFFFFFFFFFFFF MUL NOT AND SWAP1 DUP4 PUSH20 0xFFFFFFFFFFFFFFFFFFFFFFFFFFFFFFFFFFFFFFFF AND MUL OR SWAP1 SSTORE POP DUP3 PUSH20 0xFFFFFFFFFFFFFFFFFFFFFFFFFFFFFFFFFFFFFFFF AND DUP2 PUSH20 0xFFFFFFFFFFFFFFFFFFFFFFFFFFFFFFFFFFFFFFFF AND PUSH32 0x8BE0079C531659141344CD1FD0A4F28419497F9722A3DAAFE3B4186F6B6457E0 PUSH1 0x40 MLOAD PUSH1 0x40 MLOAD DUP1 SWAP2 SUB SWAP1 LOG3 POP POP POP JUMP JUMPDEST PUSH1 0x0 PUSH32 0xF0C57E16840DF040F15088DC2F81FE391C3923BEC73E23A9662EFC9C229C6A00 SWAP1 POP SWAP1 JUMP JUMPDEST PUSH2 0x2C38 PUSH2 0x2D48 JUMP JUMPDEST PUSH2 0x2C41 DUP2 PUSH2 0x2D88 JUMP JUMPDEST POP JUMP JUMPDEST PUSH2 0x2C4C PUSH2 0x2D48 JUMP JUMPDEST JUMP JUMPDEST PUSH1 0x0 PUSH32 0x9016D09D72D40FDAE2FD8CEAC6B6234C7706214FD39C1CD1E609A0528C199300 SWAP1 POP SWAP1 JUMP JUMPDEST PUSH1 0x0 PUSH2 0x2CA4 PUSH32 0x360894A13BA1A3210667C828492DB98DCA3E2076CC3735A920A3CA505D382BBC PUSH1 0x0 SHL PUSH2 0x2E0E JUMP JUMPDEST PUSH1 0x0 ADD PUSH1 0x0 SWAP1 SLOAD SWAP1 PUSH2 0x100 EXP SWAP1 DIV PUSH20 0xFFFFFFFFFFFFFFFFFFFFFFFFFFFFFFFFFFFFFFFF AND SWAP1 POP SWAP1 JUMP JUMPDEST PUSH2 0x2CD6 DUP3 PUSH2 0x2E18 JUMP JUMPDEST DUP2 PUSH20 0xFFFFFFFFFFFFFFFFFFFFFFFFFFFFFFFFFFFFFFFF AND PUSH32 0xBC7CD75A20EE27FD9ADEBAB32041F755214DBC6BFFA90CC0225B39DA2E5C2D3B PUSH1 0x40 MLOAD PUSH1 0x40 MLOAD DUP1 SWAP2 SUB SWAP1 LOG2 PUSH1 0x0 DUP2 MLOAD GT ISZERO PUSH2 0x2D33 JUMPI PUSH2 0x2D2D DUP3 DUP3 PUSH2 0x2EE5 JUMP JUMPDEST POP PUSH2 0x2D3C JUMP JUMPDEST PUSH2 0x2D3B PUSH2 0x2F69 JUMP JUMPDEST JUMPDEST POP POP JUMP JUMPDEST PUSH1 0x0 CALLER SWAP1 POP SWAP1 JUMP JUMPDEST PUSH2 0x2D50 PUSH2 0x2FA6 JUMP JUMPDEST PUSH2 0x2D86 JUMPI PUSH1 0x40 MLOAD PUSH32 0xD7E6BCF800000000000000000000000000000000000000000000000000000000 DUP2 MSTORE PUSH1 0x4 ADD PUSH1 0x40 MLOAD DUP1 SWAP2 SUB SWAP1 REVERT JUMPDEST JUMP JUMPDEST PUSH2 0x2D90 PUSH2 0x2D48 JUMP JUMPDEST PUSH1 0x0 PUSH20 0xFFFFFFFFFFFFFFFFFFFFFFFFFFFFFFFFFFFFFFFF AND DUP2 PUSH20 0xFFFFFFFFFFFFFFFFFFFFFFFFFFFFFFFFFFFFFFFF AND SUB PUSH2 0x2E02 JUMPI PUSH1 0x0 PUSH1 0x40 MLOAD PUSH32 0x1E4FBDF700000000000000000000000000000000000000000000000000000000 DUP2 MSTORE PUSH1 0x4 ADD PUSH2 0x2DF9 SWAP2 SWAP1 PUSH2 0x3D08 JUMP JUMPDEST PUSH1 0x40 MLOAD DUP1 SWAP2 SUB SWAP1 REVERT JUMPDEST PUSH2 0x2E0B DUP2 PUSH2 0x2B31 JUMP JUMPDEST POP JUMP JUMPDEST PUSH1 0x0 DUP2 SWAP1 POP SWAP2 SWAP1 POP JUMP JUMPDEST PUSH1 0x0 DUP2 PUSH20 0xFFFFFFFFFFFFFFFFFFFFFFFFFFFFFFFFFFFFFFFF AND EXTCODESIZE SUB PUSH2 0x2E74 JUMPI DUP1 PUSH1 0x40 MLOAD PUSH32 0x4C9C8CE300000000000000000000000000000000000000000000000000000000 DUP2 MSTORE PUSH1 0x4 ADD PUSH2 0x2E6B SWAP2 SWAP1 PUSH2 0x3D08 JUMP JUMPDEST PUSH1 0x40 MLOAD DUP1 SWAP2 SUB SWAP1 REVERT JUMPDEST DUP1 PUSH2 0x2EA1 PUSH32 0x360894A13BA1A3210667C828492DB98DCA3E2076CC3735A920A3CA505D382BBC PUSH1 0x0 SHL PUSH2 0x2E0E JUMP JUMPDEST PUSH1 0x0 ADD PUSH1 0x0 PUSH2 0x100 EXP DUP2 SLOAD DUP2 PUSH20 0xFFFFFFFFFFFFFFFFFFFFFFFFFFFFFFFFFFFFFFFF MUL NOT AND SWAP1 DUP4 PUSH20 0xFFFFFFFFFFFFFFFFFFFFFFFFFFFFFFFFFFFFFFFF AND MUL OR SWAP1 SSTORE POP POP JUMP JUMPDEST PUSH1 0x60 PUSH1 0x0 DUP1 DUP5 PUSH20 0xFFFFFFFFFFFFFFFFFFFFFFFFFFFFFFFFFFFFFFFF AND DUP5 PUSH1 0x40 MLOAD PUSH2 0x2F0F SWAP2 SWAP1 PUSH2 0x5A70 JUMP JUMPDEST PUSH1 0x0 PUSH1 0x40 MLOAD DUP1 DUP4 SUB DUP2 DUP6 GAS DELEGATECALL SWAP2 POP POP RETURNDATASIZE DUP1 PUSH1 0x0 DUP2 EQ PUSH2 0x2F4A JUMPI PUSH1 0x40 MLOAD SWAP2 POP PUSH1 0x1F NOT PUSH1 0x3F RETURNDATASIZE ADD AND DUP3 ADD PUSH1 0x40 MSTORE RETURNDATASIZE DUP3 MSTORE RETURNDATASIZE PUSH1 0x0 PUSH1 0x20 DUP5 ADD RETURNDATACOPY PUSH2 0x2F4F JUMP JUMPDEST PUSH1 0x60 SWAP2 POP JUMPDEST POP SWAP2 POP SWAP2 POP PUSH2 0x2F5F DUP6 DUP4 DUP4 PUSH2 0x2FC6 JUMP JUMPDEST SWAP3 POP POP POP SWAP3 SWAP2 POP POP JUMP JUMPDEST PUSH1 0x0 CALLVALUE GT ISZERO PUSH2 0x2FA4 JUMPI PUSH1 0x40 MLOAD PUSH32 0xB398979F00000000000000000000000000000000000000000000000000000000 DUP2 MSTORE PUSH1 0x4 ADD PUSH1 0x40 MLOAD DUP1 SWAP2 SUB SWAP1 REVERT JUMPDEST JUMP JUMPDEST PUSH1 0x0 PUSH2 0x2FB0 PUSH2 0x2C08 JUMP JUMPDEST PUSH1 0x0 ADD PUSH1 0x8 SWAP1 SLOAD SWAP1 PUSH2 0x100 EXP SWAP1 DIV PUSH1 0xFF AND SWAP1 POP SWAP1 JUMP JUMPDEST PUSH1 0x60 DUP3 PUSH2 0x2FDB JUMPI PUSH2 0x2FD6 DUP3 PUSH2 0x3055 JUMP JUMPDEST PUSH2 0x304D JUMP JUMPDEST PUSH1 0x0 DUP3 MLOAD EQ DUP1 ISZERO PUSH2 0x3003 JUMPI POP PUSH1 0x0 DUP5 PUSH20 0xFFFFFFFFFFFFFFFFFFFFFFFFFFFFFFFFFFFFFFFF AND EXTCODESIZE EQ JUMPDEST ISZERO PUSH2 0x3045 JUMPI DUP4 PUSH1 0x40 MLOAD PUSH32 0x9996B31500000000000000000000000000000000000000000000000000000000 DUP2 MSTORE PUSH1 0x4 ADD PUSH2 0x303C SWAP2 SWAP1 PUSH2 0x3D08 JUMP JUMPDEST PUSH1 0x40 MLOAD DUP1 SWAP2 SUB SWAP1 REVERT JUMPDEST DUP2 SWAP1 POP PUSH2 0x304E JUMP JUMPDEST JUMPDEST SWAP4 SWAP3 POP POP POP JUMP JUMPDEST PUSH1 0x0 DUP2 MLOAD GT ISZERO PUSH2 0x3068 JUMPI DUP1 MLOAD DUP1 DUP3 PUSH1 0x20 ADD REVERT JUMPDEST PUSH1 0x40 MLOAD PUSH32 0x1425EA4200000000000000000000000000000000000000000000000000000000 DUP2 MSTORE PUSH1 0x4 ADD PUSH1 0x40 MLOAD DUP1 SWAP2 SUB SWAP1 REVERT JUMPDEST DUP3 DUP1 SLOAD DUP3 DUP3 SSTORE SWAP1 PUSH1 0x0 MSTORE PUSH1 0x20 PUSH1 0x0 KECCAK256 SWAP1 DUP2 ADD SWAP3 DUP3 ISZERO PUSH2 0x30D6 JUMPI SWAP2 PUSH1 0x20 MUL DUP3 ADD JUMPDEST DUP3 DUP2 GT ISZERO PUSH2 0x30D5 JUMPI DUP3 CALLDATALOAD DUP3 SSTORE SWAP2 PUSH1 0x20 ADD SWAP2 SWAP1 PUSH1 0x1 ADD SWAP1 PUSH2 0x30BA JUMP JUMPDEST JUMPDEST POP SWAP1 POP PUSH2 0x30E3 SWAP2 SWAP1 PUSH2 0x31F1 JUMP JUMPDEST POP SWAP1 JUMP JUMPDEST PUSH1 0x40 MLOAD DUP1 PUSH2 0x140 ADD PUSH1 0x40 MSTORE DUP1 PUSH1 0x0 PUSH1 0x4 DUP2 GT ISZERO PUSH2 0x3107 JUMPI PUSH2 0x3106 PUSH2 0x339C JUMP JUMPDEST JUMPDEST DUP2 MSTORE PUSH1 0x20 ADD PUSH1 0x0 DUP1 NOT AND DUP2 MSTORE PUSH1 0x20 ADD PUSH2 0x311E PUSH2 0x320E JUMP JUMPDEST DUP2 MSTORE PUSH1 0x20 ADD PUSH1 0x0 DUP1 NOT AND DUP2 MSTORE PUSH1 0x20 ADD PUSH1 0x60 DUP2 MSTORE PUSH1 0x20 ADD PUSH1 0x0 DUP2 MSTORE PUSH1 0x20 ADD PUSH1 0x0 DUP2 MSTORE PUSH1 0x20 ADD PUSH1 0x60 DUP2 MSTORE PUSH1 0x20 ADD PUSH2 0x3151 PUSH2 0x3230 JUMP JUMPDEST DUP2 MSTORE PUSH1 0x20 ADD PUSH2 0x315E PUSH2 0x3284 JUMP JUMPDEST DUP2 MSTORE POP SWAP1 JUMP JUMPDEST DUP3 PUSH1 0x2 DUP2 ADD SWAP3 DUP3 ISZERO PUSH2 0x3193 JUMPI SWAP2 PUSH1 0x20 MUL DUP3 ADD JUMPDEST DUP3 DUP2 GT ISZERO PUSH2 0x3192 JUMPI DUP3 MLOAD DUP3 SSTORE SWAP2 PUSH1 0x20 ADD SWAP2 SWAP1 PUSH1 0x1 ADD SWAP1 PUSH2 0x3177 JUMP JUMPDEST JUMPDEST POP SWAP1 POP PUSH2 0x31A0 SWAP2 SWAP1 PUSH2 0x32C1 JUMP JUMPDEST POP SWAP1 JUMP JUMPDEST DUP3 DUP1 SLOAD DUP3 DUP3 SSTORE SWAP1 PUSH1 0x0 MSTORE PUSH1 0x20 PUSH1 0x0 KECCAK256 SWAP1 DUP2 ADD SWAP3 DUP3 ISZERO PUSH2 0x31E0 JUMPI SWAP2 PUSH1 0x20 MUL DUP3 ADD JUMPDEST DUP3 DUP2 GT ISZERO PUSH2 0x31DF JUMPI DUP3 MLOAD DUP3 SSTORE SWAP2 PUSH1 0x20 ADD SWAP2 SWAP1 PUSH1 0x1 ADD SWAP1 PUSH2 0x31C4 JUMP JUMPDEST JUMPDEST POP SWAP1 POP PUSH2 0x31ED SWAP2 SWAP1 PUSH2 0x31F1 JUMP JUMPDEST POP SWAP1 JUMP JUMPDEST JUMPDEST DUP1 DUP3 GT ISZERO PUSH2 0x320A JUMPI PUSH1 0x0 DUP2 PUSH1 0x0 SWAP1 SSTORE POP PUSH1 0x1 ADD PUSH2 0x31F2 JUMP JUMPDEST POP SWAP1 JUMP JUMPDEST PUSH1 0x40 MLOAD DUP1 PUSH1 0x40 ADD PUSH1 0x40 MSTORE DUP1 PUSH1 0x2 SWAP1 PUSH1 0x20 DUP3 MUL DUP1 CALLDATASIZE DUP4 CALLDATACOPY DUP1 DUP3 ADD SWAP2 POP POP SWAP1 POP POP SWAP1 JUMP JUMPDEST PUSH1 0x40 MLOAD DUP1 PUSH1 0xC0 ADD PUSH1 0x40 MSTORE DUP1 PUSH1 0x0 PUSH1 0xFF AND DUP2 MSTORE PUSH1 0x20 ADD PUSH1 0x0 PUSH1 0xFF AND DUP2 MSTORE PUSH1 0x20 ADD PUSH1 0x0 DUP2 MSTORE PUSH1 0x20 ADD PUSH1 0x0 DUP2 MSTORE PUSH1 0x20 ADD PUSH1 0x0 PUSH1 0x4 DUP2 GT ISZERO PUSH2 0x3271 JUMPI PUSH2 0x3270 PUSH2 0x339C JUMP JUMPDEST JUMPDEST DUP2 MSTORE PUSH1 0x20 ADD PUSH2 0x327E PUSH2 0x32DE JUMP JUMPDEST DUP2 MSTORE POP SWAP1 JUMP JUMPDEST PUSH1 0x40 MLOAD DUP1 PUSH1 0x80 ADD PUSH1 0x40 MSTORE DUP1 PUSH1 0x0 PUSH1 0x9 DUP2 GT ISZERO PUSH2 0x32A3 JUMPI PUSH2 0x32A2 PUSH2 0x339C JUMP JUMPDEST JUMPDEST DUP2 MSTORE PUSH1 0x20 ADD PUSH1 0x0 DUP2 MSTORE PUSH1 0x20 ADD PUSH1 0x0 DUP1 NOT AND DUP2 MSTORE PUSH1 0x20 ADD PUSH1 0x60 DUP2 MSTORE POP SWAP1 JUMP JUMPDEST JUMPDEST DUP1 DUP3 GT ISZERO PUSH2 0x32DA JUMPI PUSH1 0x0 DUP2 PUSH1 0x0 SWAP1 SSTORE POP PUSH1 0x1 ADD PUSH2 0x32C2 JUMP JUMPDEST POP SWAP1 JUMP JUMPDEST PUSH1 0x40 MLOAD DUP1 PUSH2 0x100 ADD PUSH1 0x40 MSTORE DUP1 PUSH1 0x0 ISZERO ISZERO DUP2 MSTORE PUSH1 0x20 ADD PUSH1 0x0 DUP2 MSTORE PUSH1 0x20 ADD PUSH1 0x0 DUP2 MSTORE PUSH1 0x20 ADD PUSH1 0x0 DUP2 MSTORE PUSH1 0x20 ADD PUSH1 0x0 DUP2 MSTORE PUSH1 0x20 ADD PUSH1 0x0 DUP2 MSTORE PUSH1 0x20 ADD PUSH1 0x0 DUP2 MSTORE PUSH1 0x20 ADD PUSH1 0x0 DUP2 MSTORE POP SWAP1 JUMP JUMPDEST PUSH1 0x0 PUSH1 0x40 MLOAD SWAP1 POP SWAP1 JUMP JUMPDEST PUSH1 0x0 DUP1 REVERT JUMPDEST PUSH1 0x0 DUP1 REVERT JUMPDEST PUSH1 0x0 DUP2 SWAP1 POP SWAP2 SWAP1 POP JUMP JUMPDEST PUSH2 0x334C DUP2 PUSH2 0x3339 JUMP JUMPDEST DUP2 EQ PUSH2 0x3357 JUMPI PUSH1 0x0 DUP1 REVERT JUMPDEST POP JUMP JUMPDEST PUSH1 0x0 DUP2 CALLDATALOAD SWAP1 POP PUSH2 0x3369 DUP2 PUSH2 0x3343 JUMP JUMPDEST SWAP3 SWAP2 POP POP JUMP JUMPDEST PUSH1 0x0 PUSH1 0x20 DUP3 DUP5 SUB SLT ISZERO PUSH2 0x3385 JUMPI PUSH2 0x3384 PUSH2 0x332F JUMP JUMPDEST JUMPDEST PUSH1 0x0 PUSH2 0x3393 DUP5 DUP3 DUP6 ADD PUSH2 0x335A JUMP JUMPDEST SWAP2 POP POP SWAP3 SWAP2 POP POP JUMP JUMPDEST PUSH32 0x4E487B7100000000000000000000000000000000000000000000000000000000 PUSH1 0x0 MSTORE PUSH1 0x21 PUSH1 0x4 MSTORE PUSH1 0x24 PUSH1 0x0 REVERT JUMPDEST PUSH1 0x5 DUP2 LT PUSH2 0x33DC JUMPI PUSH2 0x33DB PUSH2 0x339C JUMP JUMPDEST JUMPDEST POP JUMP JUMPDEST PUSH1 0x0 DUP2 SWAP1 POP PUSH2 0x33ED DUP3 PUSH2 0x33CB JUMP JUMPDEST SWAP2 SWAP1 POP JUMP JUMPDEST PUSH1 0x0 PUSH2 0x33FD DUP3 PUSH2 0x33DF JUMP JUMPDEST SWAP1 POP SWAP2 SWAP1 POP JUMP JUMPDEST PUSH2 0x340D DUP2 PUSH2 0x33F2 JUMP JUMPDEST DUP3 MSTORE POP POP JUMP JUMPDEST PUSH2 0x341C DUP2 PUSH2 0x3339 JUMP JUMPDEST DUP3 MSTORE POP POP JUMP JUMPDEST PUSH1 0x0 DUP2 SWAP1 POP SWAP2 SWAP1 POP JUMP JUMPDEST PUSH2 0x3435 DUP2 PUSH2 0x3422 JUMP JUMPDEST DUP3 MSTORE POP POP JUMP JUMPDEST PUSH1 0x0 DUP2 MLOAD SWAP1 POP SWAP2 SWAP1 POP JUMP JUMPDEST PUSH1 0x0 DUP3 DUP3 MSTORE PUSH1 0x20 DUP3 ADD SWAP1 POP SWAP3 SWAP2 POP POP JUMP JUMPDEST PUSH1 0x0 JUMPDEST DUP4 DUP2 LT ISZERO PUSH2 0x3475 JUMPI DUP1 DUP3 ADD MLOAD DUP2 DUP5 ADD MSTORE PUSH1 0x20 DUP2 ADD SWAP1 POP PUSH2 0x345A JUMP JUMPDEST PUSH1 0x0 DUP5 DUP5 ADD MSTORE POP POP POP POP JUMP JUMPDEST PUSH1 0x0 PUSH1 0x1F NOT PUSH1 0x1F DUP4 ADD AND SWAP1 POP SWAP2 SWAP1 POP JUMP JUMPDEST PUSH1 0x0 PUSH2 0x349D DUP3 PUSH2 0x343B JUMP JUMPDEST PUSH2 0x34A7 DUP2 DUP6 PUSH2 0x3446 JUMP JUMPDEST SWAP4 POP PUSH2 0x34B7 DUP2 DUP6 PUSH1 0x20 DUP7 ADD PUSH2 0x3457 JUMP JUMPDEST PUSH2 0x34C0 DUP2 PUSH2 0x3481 JUMP JUMPDEST DUP5 ADD SWAP2 POP POP SWAP3 SWAP2 POP POP JUMP JUMPDEST PUSH1 0x0 PUSH1 0xFF DUP3 AND SWAP1 POP SWAP2 SWAP1 POP JUMP JUMPDEST PUSH2 0x34E1 DUP2 PUSH2 0x34CB JUMP JUMPDEST DUP3 MSTORE POP POP JUMP JUMPDEST PUSH2 0x34F0 DUP2 PUSH2 0x3422 JUMP JUMPDEST DUP3 MSTORE POP POP JUMP JUMPDEST PUSH2 0x34FF DUP2 PUSH2 0x33F2 JUMP JUMPDEST DUP3 MSTORE POP POP JUMP JUMPDEST PUSH1 0x0 DUP2 ISZERO ISZERO SWAP1 POP SWAP2 SWAP1 POP JUMP JUMPDEST PUSH2 0x351A DUP2 PUSH2 0x3505 JUMP JUMPDEST DUP3 MSTORE POP POP JUMP JUMPDEST PUSH2 0x100 DUP3 ADD PUSH1 0x0 DUP3 ADD MLOAD PUSH2 0x3537 PUSH1 0x0 DUP6 ADD DUP3 PUSH2 0x3511 JUMP JUMPDEST POP PUSH1 0x20 DUP3 ADD MLOAD PUSH2 0x354A PUSH1 0x20 DUP6 ADD DUP3 PUSH2 0x34E7 JUMP JUMPDEST POP PUSH1 0x40 DUP3 ADD MLOAD PUSH2 0x355D PUSH1 0x40 DUP6 ADD DUP3 PUSH2 0x34E7 JUMP JUMPDEST POP PUSH1 0x60 DUP3 ADD MLOAD PUSH2 0x3570 PUSH1 0x60 DUP6 ADD DUP3 PUSH2 0x34E7 JUMP JUMPDEST POP PUSH1 0x80 DUP3 ADD MLOAD PUSH2 0x3583 PUSH1 0x80 DUP6 ADD DUP3 PUSH2 0x34E7 JUMP JUMPDEST POP PUSH1 0xA0 DUP3 ADD MLOAD PUSH2 0x3596 PUSH1 0xA0 DUP6 ADD DUP3 PUSH2 0x34E7 JUMP JUMPDEST POP PUSH1 0xC0 DUP3 ADD MLOAD PUSH2 0x35A9 PUSH1 0xC0 DUP6 ADD DUP3 PUSH2 0x34E7 JUMP JUMPDEST POP PUSH1 0xE0 DUP3 ADD MLOAD PUSH2 0x35BC PUSH1 0xE0 DUP6 ADD DUP3 PUSH2 0x34E7 JUMP JUMPDEST POP POP POP POP JUMP JUMPDEST PUSH2 0x1A0 DUP3 ADD PUSH1 0x0 DUP3 ADD MLOAD PUSH2 0x35D9 PUSH1 0x0 DUP6 ADD DUP3 PUSH2 0x34D8 JUMP JUMPDEST POP PUSH1 0x20 DUP3 ADD MLOAD PUSH2 0x35EC PUSH1 0x20 DUP6 ADD DUP3 PUSH2 0x34D8 JUMP JUMPDEST POP PUSH1 0x40 DUP3 ADD MLOAD PUSH2 0x35FF PUSH1 0x40 DUP6 ADD DUP3 PUSH2 0x34E7 JUMP JUMPDEST POP PUSH1 0x60 DUP3 ADD MLOAD PUSH2 0x3612 PUSH1 0x60 DUP6 ADD DUP3 PUSH2 0x34E7 JUMP JUMPDEST POP PUSH1 0x80 DUP3 ADD MLOAD PUSH2 0x3625 PUSH1 0x80 DUP6 ADD DUP3 PUSH2 0x34F6 JUMP JUMPDEST POP PUSH1 0xA0 DUP3 ADD MLOAD PUSH2 0x3638 PUSH1 0xA0 DUP6 ADD DUP3 PUSH2 0x3520 JUMP JUMPDEST POP POP POP POP JUMP JUMPDEST PUSH1 0xA DUP2 LT PUSH2 0x364F JUMPI PUSH2 0x364E PUSH2 0x339C JUMP JUMPDEST JUMPDEST POP JUMP JUMPDEST PUSH1 0x0 DUP2 SWAP1 POP PUSH2 0x3660 DUP3 PUSH2 0x363E JUMP JUMPDEST SWAP2 SWAP1 POP JUMP JUMPDEST PUSH1 0x0 PUSH2 0x3670 DUP3 PUSH2 0x3652 JUMP JUMPDEST SWAP1 POP SWAP2 SWAP1 POP JUMP JUMPDEST PUSH2 0x3680 DUP2 PUSH2 0x3665 JUMP JUMPDEST DUP3 MSTORE POP POP JUMP JUMPDEST PUSH2 0x368F DUP2 PUSH2 0x3339 JUMP JUMPDEST DUP3 MSTORE POP POP JUMP JUMPDEST PUSH1 0x0 DUP3 DUP3 MSTORE PUSH1 0x20 DUP3 ADD SWAP1 POP SWAP3 SWAP2 POP POP JUMP JUMPDEST PUSH1 0x0 PUSH2 0x36B1 DUP3 PUSH2 0x343B JUMP JUMPDEST PUSH2 0x36BB DUP2 DUP6 PUSH2 0x3695 JUMP JUMPDEST SWAP4 POP PUSH2 0x36CB DUP2 DUP6 PUSH1 0x20 DUP7 ADD PUSH2 0x3457 JUMP JUMPDEST PUSH2 0x36D4 DUP2 PUSH2 0x3481 JUMP JUMPDEST DUP5 ADD SWAP2 POP POP SWAP3 SWAP2 POP POP JUMP JUMPDEST PUSH1 0x0 PUSH1 0x80 DUP4 ADD PUSH1 0x0 DUP4 ADD MLOAD PUSH2 0x36F7 PUSH1 0x0 DUP7 ADD DUP3 PUSH2 0x3677 JUMP JUMPDEST POP PUSH1 0x20 DUP4 ADD MLOAD PUSH2 0x370A PUSH1 0x20 DUP7 ADD DUP3 PUSH2 0x34E7 JUMP JUMPDEST POP PUSH1 0x40 DUP4 ADD MLOAD PUSH2 0x371D PUSH1 0x40 DUP7 ADD DUP3 PUSH2 0x3686 JUMP JUMPDEST POP PUSH1 0x60 DUP4 ADD MLOAD DUP5 DUP3 SUB PUSH1 0x60 DUP7 ADD MSTORE PUSH2 0x3735 DUP3 DUP3 PUSH2 0x36A6 JUMP JUMPDEST SWAP2 POP POP DUP1 SWAP2 POP POP SWAP3 SWAP2 POP POP JUMP JUMPDEST PUSH1 0x0 PUSH2 0x280 DUP3 ADD SWAP1 POP PUSH2 0x3758 PUSH1 0x0 DUP4 ADD DUP12 PUSH2 0x3404 JUMP JUMPDEST PUSH2 0x3765 PUSH1 0x20 DUP4 ADD DUP11 PUSH2 0x3413 JUMP JUMPDEST PUSH2 0x3772 PUSH1 0x40 DUP4 ADD DUP10 PUSH2 0x3413 JUMP JUMPDEST PUSH2 0x377F PUSH1 0x60 DUP4 ADD DUP9 PUSH2 0x342C JUMP JUMPDEST PUSH2 0x378C PUSH1 0x80 DUP4 ADD DUP8 PUSH2 0x342C JUMP JUMPDEST DUP2 DUP2 SUB PUSH1 0xA0 DUP4 ADD MSTORE PUSH2 0x379E DUP2 DUP7 PUSH2 0x3492 JUMP JUMPDEST SWAP1 POP PUSH2 0x37AD PUSH1 0xC0 DUP4 ADD DUP6 PUSH2 0x35C2 JUMP JUMPDEST DUP2 DUP2 SUB PUSH2 0x260 DUP4 ADD MSTORE PUSH2 0x37C0 DUP2 DUP5 PUSH2 0x36DF JUMP JUMPDEST SWAP1 POP SWAP10 SWAP9 POP POP POP POP POP POP POP POP POP JUMP JUMPDEST PUSH1 0x0 DUP1 REVERT JUMPDEST PUSH1 0x0 DUP1 REVERT JUMPDEST PUSH1 0x0 DUP1 REVERT JUMPDEST PUSH1 0x0 DUP1 DUP4 PUSH1 0x1F DUP5 ADD SLT PUSH2 0x37F4 JUMPI PUSH2 0x37F3 PUSH2 0x37CF JUMP JUMPDEST JUMPDEST DUP3 CALLDATALOAD SWAP1 POP PUSH8 0xFFFFFFFFFFFFFFFF DUP2 GT ISZERO PUSH2 0x3811 JUMPI PUSH2 0x3810 PUSH2 0x37D4 JUMP JUMPDEST JUMPDEST PUSH1 0x20 DUP4 ADD SWAP2 POP DUP4 PUSH1 0x20 DUP3 MUL DUP4 ADD GT ISZERO PUSH2 0x382D JUMPI PUSH2 0x382C PUSH2 0x37D9 JUMP JUMPDEST JUMPDEST SWAP3 POP SWAP3 SWAP1 POP JUMP JUMPDEST PUSH1 0x0 DUP1 DUP4 PUSH1 0x1F DUP5 ADD SLT PUSH2 0x384A JUMPI PUSH2 0x3849 PUSH2 0x37CF JUMP JUMPDEST JUMPDEST DUP3 CALLDATALOAD SWAP1 POP PUSH8 0xFFFFFFFFFFFFFFFF DUP2 GT ISZERO PUSH2 0x3867 JUMPI PUSH2 0x3866 PUSH2 0x37D4 JUMP JUMPDEST JUMPDEST PUSH1 0x20 DUP4 ADD SWAP2 POP DUP4 PUSH1 0x1 DUP3 MUL DUP4 ADD GT ISZERO PUSH2 0x3883 JUMPI PUSH2 0x3882 PUSH2 0x37D9 JUMP JUMPDEST JUMPDEST SWAP3 POP SWAP3 SWAP1 POP JUMP JUMPDEST PUSH1 0x0 DUP1 PUSH1 0x0 DUP1 PUSH1 0x0 PUSH1 0x60 DUP7 DUP9 SUB SLT ISZERO PUSH2 0x38A6 JUMPI PUSH2 0x38A5 PUSH2 0x332F JUMP JUMPDEST JUMPDEST PUSH1 0x0 PUSH2 0x38B4 DUP9 DUP3 DUP10 ADD PUSH2 0x335A JUMP JUMPDEST SWAP6 POP POP PUSH1 0x20 DUP7 ADD CALLDATALOAD PUSH8 0xFFFFFFFFFFFFFFFF DUP2 GT ISZERO PUSH2 0x38D5 JUMPI PUSH2 0x38D4 PUSH2 0x3334 JUMP JUMPDEST JUMPDEST PUSH2 0x38E1 DUP9 DUP3 DUP10 ADD PUSH2 0x37DE JUMP JUMPDEST SWAP5 POP SWAP5 POP POP PUSH1 0x40 DUP7 ADD CALLDATALOAD PUSH8 0xFFFFFFFFFFFFFFFF DUP2 GT ISZERO PUSH2 0x3904 JUMPI PUSH2 0x3903 PUSH2 0x3334 JUMP JUMPDEST JUMPDEST PUSH2 0x3910 DUP9 DUP3 DUP10 ADD PUSH2 0x3834 JUMP JUMPDEST SWAP3 POP SWAP3 POP POP SWAP3 SWAP6 POP SWAP3 SWAP6 SWAP1 SWAP4 POP JUMP JUMPDEST PUSH1 0x0 PUSH20 0xFFFFFFFFFFFFFFFFFFFFFFFFFFFFFFFFFFFFFFFF DUP3 AND SWAP1 POP SWAP2 SWAP1 POP JUMP JUMPDEST PUSH1 0x0 PUSH2 0x394A DUP3 PUSH2 0x391F JUMP JUMPDEST SWAP1 POP SWAP2 SWAP1 POP JUMP JUMPDEST PUSH2 0x395A DUP2 PUSH2 0x393F JUMP JUMPDEST DUP2 EQ PUSH2 0x3965 JUMPI PUSH1 0x0 DUP1 REVERT JUMPDEST POP JUMP JUMPDEST PUSH1 0x0 DUP2 CALLDATALOAD SWAP1 POP PUSH2 0x3977 DUP2 PUSH2 0x3951 JUMP JUMPDEST SWAP3 SWAP2 POP POP JUMP JUMPDEST PUSH1 0x0 DUP1 REVERT JUMPDEST PUSH32 0x4E487B7100000000000000000000000000000000000000000000000000000000 PUSH1 0x0 MSTORE PUSH1 0x41 PUSH1 0x4 MSTORE PUSH1 0x24 PUSH1 0x0 REVERT JUMPDEST PUSH2 0x39BA DUP3 PUSH2 0x3481 JUMP JUMPDEST DUP2 ADD DUP2 DUP2 LT PUSH8 0xFFFFFFFFFFFFFFFF DUP3 GT OR ISZERO PUSH2 0x39D9 JUMPI PUSH2 0x39D8 PUSH2 0x3982 JUMP JUMPDEST JUMPDEST DUP1 PUSH1 0x40 MSTORE POP POP POP JUMP JUMPDEST PUSH1 0x0 PUSH2 0x39EC PUSH2 0x3325 JUMP JUMPDEST SWAP1 POP PUSH2 0x39F8 DUP3 DUP3 PUSH2 0x39B1 JUMP JUMPDEST SWAP2 SWAP1 POP JUMP JUMPDEST PUSH1 0x0 PUSH8 0xFFFFFFFFFFFFFFFF DUP3 GT ISZERO PUSH2 0x3A18 JUMPI PUSH2 0x3A17 PUSH2 0x3982 JUMP JUMPDEST JUMPDEST PUSH2 0x3A21 DUP3 PUSH2 0x3481 JUMP JUMPDEST SWAP1 POP PUSH1 0x20 DUP2 ADD SWAP1 POP SWAP2 SWAP1 POP JUMP JUMPDEST DUP3 DUP2 DUP4 CALLDATACOPY PUSH1 0x0 DUP4 DUP4 ADD MSTORE POP POP POP JUMP JUMPDEST PUSH1 0x0 PUSH2 0x3A50 PUSH2 0x3A4B DUP5 PUSH2 0x39FD JUMP JUMPDEST PUSH2 0x39E2 JUMP JUMPDEST SWAP1 POP DUP3 DUP2 MSTORE PUSH1 0x20 DUP2 ADD DUP5 DUP5 DUP5 ADD GT ISZERO PUSH2 0x3A6C JUMPI PUSH2 0x3A6B PUSH2 0x397D JUMP JUMPDEST JUMPDEST PUSH2 0x3A77 DUP5 DUP3 DUP6 PUSH2 0x3A2E JUMP JUMPDEST POP SWAP4 SWAP3 POP POP POP JUMP JUMPDEST PUSH1 0x0 DUP3 PUSH1 0x1F DUP4 ADD SLT PUSH2 0x3A94 JUMPI PUSH2 0x3A93 PUSH2 0x37CF JUMP JUMPDEST JUMPDEST DUP2 CALLDATALOAD PUSH2 0x3AA4 DUP5 DUP3 PUSH1 0x20 DUP7 ADD PUSH2 0x3A3D JUMP JUMPDEST SWAP2 POP POP SWAP3 SWAP2 POP POP JUMP JUMPDEST PUSH1 0x0 DUP1 PUSH1 0x40 DUP4 DUP6 SUB SLT ISZERO PUSH2 0x3AC4 JUMPI PUSH2 0x3AC3 PUSH2 0x332F JUMP JUMPDEST JUMPDEST PUSH1 0x0 PUSH2 0x3AD2 DUP6 DUP3 DUP7 ADD PUSH2 0x3968 JUMP JUMPDEST SWAP3 POP POP PUSH1 0x20 DUP4 ADD CALLDATALOAD PUSH8 0xFFFFFFFFFFFFFFFF DUP2 GT ISZERO PUSH2 0x3AF3 JUMPI PUSH2 0x3AF2 PUSH2 0x3334 JUMP JUMPDEST JUMPDEST PUSH2 0x3AFF DUP6 DUP3 DUP7 ADD PUSH2 0x3A7F JUMP JUMPDEST SWAP2 POP POP SWAP3 POP SWAP3 SWAP1 POP JUMP JUMPDEST PUSH1 0x0 PUSH1 0x20 DUP3 ADD SWAP1 POP PUSH2 0x3B1E PUSH1 0x0 DUP4 ADD DUP5 PUSH2 0x3413 JUMP JUMPDEST SWAP3 SWAP2 POP POP JUMP JUMPDEST PUSH1 0x5 DUP2 LT PUSH2 0x3B31 JUMPI PUSH1 0x0 DUP1 REVERT JUMPDEST POP JUMP JUMPDEST PUSH1 0x0 DUP2 CALLDATALOAD SWAP1 POP PUSH2 0x3B43 DUP2 PUSH2 0x3B24 JUMP JUMPDEST SWAP3 SWAP2 POP POP JUMP JUMPDEST PUSH1 0x0 DUP1 PUSH1 0x40 DUP4 DUP6 SUB SLT ISZERO PUSH2 0x3B60 JUMPI PUSH2 0x3B5F PUSH2 0x332F JUMP JUMPDEST JUMPDEST PUSH1 0x0 PUSH2 0x3B6E DUP6 DUP3 DUP7 ADD PUSH2 0x335A JUMP JUMPDEST SWAP3 POP POP PUSH1 0x20 PUSH2 0x3B7F DUP6 DUP3 DUP7 ADD PUSH2 0x3B34 JUMP JUMPDEST SWAP2 POP POP SWAP3 POP SWAP3 SWAP1 POP JUMP JUMPDEST PUSH1 0x0 DUP1 REVERT JUMPDEST PUSH1 0x0 PUSH1 0x80 DUP3 DUP5 SUB SLT ISZERO PUSH2 0x3BA4 JUMPI PUSH2 0x3BA3 PUSH2 0x3B89 JUMP JUMPDEST JUMPDEST DUP2 SWAP1 POP SWAP3 SWAP2 POP POP JUMP JUMPDEST PUSH1 0x0 DUP1 PUSH1 0x40 DUP4 DUP6 SUB SLT ISZERO PUSH2 0x3BC4 JUMPI PUSH2 0x3BC3 PUSH2 0x332F JUMP JUMPDEST JUMPDEST PUSH1 0x0 PUSH2 0x3BD2 DUP6 DUP3 DUP7 ADD PUSH2 0x335A JUMP JUMPDEST SWAP3 POP POP PUSH1 0x20 DUP4 ADD CALLDATALOAD PUSH8 0xFFFFFFFFFFFFFFFF DUP2 GT ISZERO PUSH2 0x3BF3 JUMPI PUSH2 0x3BF2 PUSH2 0x3334 JUMP JUMPDEST JUMPDEST PUSH2 0x3BFF DUP6 DUP3 DUP7 ADD PUSH2 0x3B8E JUMP JUMPDEST SWAP2 POP POP SWAP3 POP SWAP3 SWAP1 POP JUMP JUMPDEST PUSH1 0x0 DUP1 DUP4 PUSH1 0x1F DUP5 ADD SLT PUSH2 0x3C1F JUMPI PUSH2 0x3C1E PUSH2 0x37CF JUMP JUMPDEST JUMPDEST DUP3 CALLDATALOAD SWAP1 POP PUSH8 0xFFFFFFFFFFFFFFFF DUP2 GT ISZERO PUSH2 0x3C3C JUMPI PUSH2 0x3C3B PUSH2 0x37D4 JUMP JUMPDEST JUMPDEST PUSH1 0x20 DUP4 ADD SWAP2 POP DUP4 PUSH1 0x1 DUP3 MUL DUP4 ADD GT ISZERO PUSH2 0x3C58 JUMPI PUSH2 0x3C57 PUSH2 0x37D9 JUMP JUMPDEST JUMPDEST SWAP3 POP SWAP3 SWAP1 POP JUMP JUMPDEST PUSH1 0x0 DUP1 PUSH1 0x0 PUSH1 0x40 DUP5 DUP7 SUB SLT ISZERO PUSH2 0x3C78 JUMPI PUSH2 0x3C77 PUSH2 0x332F JUMP JUMPDEST JUMPDEST PUSH1 0x0 DUP5 ADD CALLDATALOAD PUSH8 0xFFFFFFFFFFFFFFFF DUP2 GT ISZERO PUSH2 0x3C96 JUMPI PUSH2 0x3C95 PUSH2 0x3334 JUMP JUMPDEST JUMPDEST PUSH2 0x3CA2 DUP7 DUP3 DUP8 ADD PUSH2 0x3C09 JUMP JUMPDEST SWAP4 POP SWAP4 POP POP PUSH1 0x20 PUSH2 0x3CB5 DUP7 DUP3 DUP8 ADD PUSH2 0x3968 JUMP JUMPDEST SWAP2 POP POP SWAP3 POP SWAP3 POP SWAP3 JUMP JUMPDEST PUSH1 0x0 PUSH4 0xFFFFFFFF DUP3 AND SWAP1 POP SWAP2 SWAP1 POP JUMP JUMPDEST PUSH2 0x3CD8 DUP2 PUSH2 0x3CBF JUMP JUMPDEST DUP3 MSTORE POP POP JUMP JUMPDEST PUSH1 0x0 PUSH1 0x20 DUP3 ADD SWAP1 POP PUSH2 0x3CF3 PUSH1 0x0 DUP4 ADD DUP5 PUSH2 0x3CCF JUMP JUMPDEST SWAP3 SWAP2 POP POP JUMP JUMPDEST PUSH2 0x3D02 DUP2 PUSH2 0x393F JUMP JUMPDEST DUP3 MSTORE POP POP JUMP JUMPDEST PUSH1 0x0 PUSH1 0x20 DUP3 ADD SWAP1 POP PUSH2 0x3D1D PUSH1 0x0 DUP4 ADD DUP5 PUSH2 0x3CF9 JUMP JUMPDEST SWAP3 SWAP2 POP POP JUMP JUMPDEST PUSH1 0x0 PUSH1 0x2 SWAP1 POP SWAP2 SWAP1 POP JUMP JUMPDEST PUSH1 0x0 DUP2 SWAP1 POP SWAP3 SWAP2 POP POP JUMP JUMPDEST PUSH1 0x0 DUP2 SWAP1 POP SWAP2 SWAP1 POP JUMP JUMPDEST PUSH1 0x0 PUSH2 0x3D4F DUP4 DUP4 PUSH2 0x3686 JUMP JUMPDEST PUSH1 0x20 DUP4 ADD SWAP1 POP SWAP3 SWAP2 POP POP JUMP JUMPDEST PUSH1 0x0 PUSH1 0x20 DUP3 ADD SWAP1 POP SWAP2 SWAP1 POP JUMP JUMPDEST PUSH2 0x3D71 DUP2 PUSH2 0x3D23 JUMP JUMPDEST PUSH2 0x3D7B DUP2 DUP5 PUSH2 0x3D2E JUMP JUMPDEST SWAP3 POP PUSH2 0x3D86 DUP3 PUSH2 0x3D39 JUMP JUMPDEST DUP1 PUSH1 0x0 JUMPDEST DUP4 DUP2 LT ISZERO PUSH2 0x3DB7 JUMPI DUP2 MLOAD PUSH2 0x3D9E DUP8 DUP3 PUSH2 0x3D43 JUMP JUMPDEST SWAP7 POP PUSH2 0x3DA9 DUP4 PUSH2 0x3D5B JUMP JUMPDEST SWAP3 POP POP PUSH1 0x1 DUP2 ADD SWAP1 POP PUSH2 0x3D8A JUMP JUMPDEST POP POP POP POP POP POP JUMP JUMPDEST PUSH1 0x0 DUP2 MLOAD SWAP1 POP SWAP2 SWAP1 POP JUMP JUMPDEST PUSH1 0x0 DUP3 DUP3 MSTORE PUSH1 0x20 DUP3 ADD SWAP1 POP SWAP3 SWAP2 POP POP JUMP JUMPDEST PUSH1 0x0 DUP2 SWAP1 POP PUSH1 0x20 DUP3 ADD SWAP1 POP SWAP2 SWAP1 POP JUMP JUMPDEST PUSH1 0x0 PUSH2 0x3DF7 DUP4 DUP4 PUSH2 0x34E7 JUMP JUMPDEST PUSH1 0x20 DUP4 ADD SWAP1 POP SWAP3 SWAP2 POP POP JUMP JUMPDEST PUSH1 0x0 PUSH1 0x20 DUP3 ADD SWAP1 POP SWAP2 SWAP1 POP JUMP JUMPDEST PUSH1 0x0 PUSH2 0x3E1B DUP3 PUSH2 0x3DBF JUMP JUMPDEST PUSH2 0x3E25 DUP2 DUP6 PUSH2 0x3DCA JUMP JUMPDEST SWAP4 POP PUSH2 0x3E30 DUP4 PUSH2 0x3DDB JUMP JUMPDEST DUP1 PUSH1 0x0 JUMPDEST DUP4 DUP2 LT ISZERO PUSH2 0x3E61 JUMPI DUP2 MLOAD PUSH2 0x3E48 DUP9 DUP3 PUSH2 0x3DEB JUMP JUMPDEST SWAP8 POP PUSH2 0x3E53 DUP4 PUSH2 0x3E03 JUMP JUMPDEST SWAP3 POP POP PUSH1 0x1 DUP2 ADD SWAP1 POP PUSH2 0x3E34 JUMP JUMPDEST POP DUP6 SWAP4 POP POP POP POP SWAP3 SWAP2 POP POP JUMP JUMPDEST PUSH2 0x1A0 DUP3 ADD PUSH1 0x0 DUP3 ADD MLOAD PUSH2 0x3E85 PUSH1 0x0 DUP6 ADD DUP3 PUSH2 0x34D8 JUMP JUMPDEST POP PUSH1 0x20 DUP3 ADD MLOAD PUSH2 0x3E98 PUSH1 0x20 DUP6 ADD DUP3 PUSH2 0x34D8 JUMP JUMPDEST POP PUSH1 0x40 DUP3 ADD MLOAD PUSH2 0x3EAB PUSH1 0x40 DUP6 ADD DUP3 PUSH2 0x34E7 JUMP JUMPDEST POP PUSH1 0x60 DUP3 ADD MLOAD PUSH2 0x3EBE PUSH1 0x60 DUP6 ADD DUP3 PUSH2 0x34E7 JUMP JUMPDEST POP PUSH1 0x80 DUP3 ADD MLOAD PUSH2 0x3ED1 PUSH1 0x80 DUP6 ADD DUP3 PUSH2 0x34F6 JUMP JUMPDEST POP PUSH1 0xA0 DUP3 ADD MLOAD PUSH2 0x3EE4 PUSH1 0xA0 DUP6 ADD DUP3 PUSH2 0x3520 JUMP JUMPDEST POP POP POP POP JUMP JUMPDEST PUSH1 0x0 PUSH1 0x80 DUP4 ADD PUSH1 0x0 DUP4 ADD MLOAD PUSH2 0x3F02 PUSH1 0x0 DUP7 ADD DUP3 PUSH2 0x3677 JUMP JUMPDEST POP PUSH1 0x20 DUP4 ADD MLOAD PUSH2 0x3F15 PUSH1 0x20 DUP7 ADD DUP3 PUSH2 0x34E7 JUMP JUMPDEST POP PUSH1 0x40 DUP4 ADD MLOAD PUSH2 0x3F28 PUSH1 0x40 DUP7 ADD DUP3 PUSH2 0x3686 JUMP JUMPDEST POP PUSH1 0x60 DUP4 ADD MLOAD DUP5 DUP3 SUB PUSH1 0x60 DUP7 ADD MSTORE PUSH2 0x3F40 DUP3 DUP3 PUSH2 0x36A6 JUMP JUMPDEST SWAP2 POP POP DUP1 SWAP2 POP POP SWAP3 SWAP2 POP POP JUMP JUMPDEST PUSH1 0x0 PUSH2 0x2E0 DUP4 ADD PUSH1 0x0 DUP4 ADD MLOAD PUSH2 0x3F66 PUSH1 0x0 DUP7 ADD DUP3 PUSH2 0x34F6 JUMP JUMPDEST POP PUSH1 0x20 DUP4 ADD MLOAD PUSH2 0x3F79 PUSH1 0x20 DUP7 ADD DUP3 PUSH2 0x3686 JUMP JUMPDEST POP PUSH1 0x40 DUP4 ADD MLOAD PUSH2 0x3F8C PUSH1 0x40 DUP7 ADD DUP3 PUSH2 0x3D68 JUMP JUMPDEST POP PUSH1 0x60 DUP4 ADD MLOAD PUSH2 0x3F9F PUSH1 0x80 DUP7 ADD DUP3 PUSH2 0x3686 JUMP JUMPDEST POP PUSH1 0x80 DUP4 ADD MLOAD DUP5 DUP3 SUB PUSH1 0xA0 DUP7 ADD MSTORE PUSH2 0x3FB7 DUP3 DUP3 PUSH2 0x3E10 JUMP JUMPDEST SWAP2 POP POP PUSH1 0xA0 DUP4 ADD MLOAD PUSH2 0x3FCC PUSH1 0xC0 DUP7 ADD DUP3 PUSH2 0x34E7 JUMP JUMPDEST POP PUSH1 0xC0 DUP4 ADD MLOAD PUSH2 0x3FDF PUSH1 0xE0 DUP7 ADD DUP3 PUSH2 0x34E7 JUMP JUMPDEST POP PUSH1 0xE0 DUP4 ADD MLOAD DUP5 DUP3 SUB PUSH2 0x100 DUP7 ADD MSTORE PUSH2 0x3FF8 DUP3 DUP3 PUSH2 0x36A6 JUMP JUMPDEST SWAP2 POP POP PUSH2 0x100 DUP4 ADD MLOAD PUSH2 0x400F PUSH2 0x120 DUP7 ADD DUP3 PUSH2 0x3E6E JUMP JUMPDEST POP PUSH2 0x120 DUP4 ADD MLOAD DUP5 DUP3 SUB PUSH2 0x2C0 DUP7 ADD MSTORE PUSH2 0x4029 DUP3 DUP3 PUSH2 0x3EEA JUMP JUMPDEST SWAP2 POP POP DUP1 SWAP2 POP POP SWAP3 SWAP2 POP POP JUMP JUMPDEST PUSH1 0x0 PUSH1 0x20 DUP3 ADD SWAP1 POP DUP2 DUP2 SUB PUSH1 0x0 DUP4 ADD MSTORE PUSH2 0x4050 DUP2 DUP5 PUSH2 0x3F4D JUMP JUMPDEST SWAP1 POP SWAP3 SWAP2 POP POP JUMP JUMPDEST PUSH1 0x0 PUSH2 0x1A0 DUP3 DUP5 SUB SLT ISZERO PUSH2 0x406F JUMPI PUSH2 0x406E PUSH2 0x3B89 JUMP JUMPDEST JUMPDEST DUP2 SWAP1 POP SWAP3 SWAP2 POP POP JUMP JUMPDEST PUSH1 0x0 DUP1 PUSH1 0x0 DUP1 PUSH1 0x0 DUP1 PUSH1 0x0 DUP1 PUSH2 0x260 DUP10 DUP12 SUB SLT ISZERO PUSH2 0x4099 JUMPI PUSH2 0x4098 PUSH2 0x332F JUMP JUMPDEST JUMPDEST PUSH1 0x0 PUSH2 0x40A7 DUP12 DUP3 DUP13 ADD PUSH2 0x4058 JUMP JUMPDEST SWAP9 POP POP PUSH2 0x1A0 DUP10 ADD CALLDATALOAD PUSH8 0xFFFFFFFFFFFFFFFF DUP2 GT ISZERO PUSH2 0x40C9 JUMPI PUSH2 0x40C8 PUSH2 0x3334 JUMP JUMPDEST JUMPDEST PUSH2 0x40D5 DUP12 DUP3 DUP13 ADD PUSH2 0x3B8E JUMP JUMPDEST SWAP8 POP POP PUSH2 0x1C0 DUP10 ADD CALLDATALOAD PUSH8 0xFFFFFFFFFFFFFFFF DUP2 GT ISZERO PUSH2 0x40F7 JUMPI PUSH2 0x40F6 PUSH2 0x3334 JUMP JUMPDEST JUMPDEST PUSH2 0x4103 DUP12 DUP3 DUP13 ADD PUSH2 0x3C09 JUMP JUMPDEST SWAP7 POP SWAP7 POP POP PUSH2 0x1E0 PUSH2 0x4117 DUP12 DUP3 DUP13 ADD PUSH2 0x335A JUMP JUMPDEST SWAP5 POP POP PUSH2 0x200 PUSH2 0x4129 DUP12 DUP3 DUP13 ADD PUSH2 0x335A JUMP JUMPDEST SWAP4 POP POP PUSH2 0x220 PUSH2 0x413B DUP12 DUP3 DUP13 ADD PUSH2 0x335A JUMP JUMPDEST SWAP3 POP POP PUSH2 0x240 PUSH2 0x414D DUP12 DUP3 DUP13 ADD PUSH2 0x335A JUMP JUMPDEST SWAP2 POP POP SWAP3 SWAP6 SWAP9 POP SWAP3 SWAP6 SWAP9 SWAP1 SWAP4 SWAP7 POP JUMP JUMPDEST PUSH1 0x0 PUSH1 0x20 DUP3 ADD SWAP1 POP DUP2 DUP2 SUB PUSH1 0x0 DUP4 ADD MSTORE PUSH2 0x4177 DUP2 DUP5 PUSH2 0x3492 JUMP JUMPDEST SWAP1 POP SWAP3 SWAP2 POP POP JUMP JUMPDEST PUSH1 0x0 DUP1 PUSH1 0x0 DUP1 PUSH1 0x0 PUSH1 0x80 DUP7 DUP9 SUB SLT ISZERO PUSH2 0x419B JUMPI PUSH2 0x419A PUSH2 0x332F JUMP JUMPDEST JUMPDEST PUSH1 0x0 PUSH2 0x41A9 DUP9 DUP3 DUP10 ADD PUSH2 0x335A JUMP JUMPDEST SWAP6 POP POP PUSH1 0x20 PUSH2 0x41BA DUP9 DUP3 DUP10 ADD PUSH2 0x335A JUMP JUMPDEST SWAP5 POP POP PUSH1 0x40 PUSH2 0x41CB DUP9 DUP3 DUP10 ADD PUSH2 0x335A JUMP JUMPDEST SWAP4 POP POP PUSH1 0x60 DUP7 ADD CALLDATALOAD PUSH8 0xFFFFFFFFFFFFFFFF DUP2 GT ISZERO PUSH2 0x41EC JUMPI PUSH2 0x41EB PUSH2 0x3334 JUMP JUMPDEST JUMPDEST PUSH2 0x41F8 DUP9 DUP3 DUP10 ADD PUSH2 0x3834 JUMP JUMPDEST SWAP3 POP SWAP3 POP POP SWAP3 SWAP6 POP SWAP3 SWAP6 SWAP1 SWAP4 POP JUMP JUMPDEST PUSH2 0x4210 DUP2 PUSH2 0x3422 JUMP JUMPDEST DUP2 EQ PUSH2 0x421B JUMPI PUSH1 0x0 DUP1 REVERT JUMPDEST POP JUMP JUMPDEST PUSH1 0x0 DUP2 CALLDATALOAD SWAP1 POP PUSH2 0x422D DUP2 PUSH2 0x4207 JUMP JUMPDEST SWAP3 SWAP2 POP POP JUMP JUMPDEST PUSH1 0x0 DUP1 PUSH1 0x40 DUP4 DUP6 SUB SLT ISZERO PUSH2 0x424A JUMPI PUSH2 0x4249 PUSH2 0x332F JUMP JUMPDEST JUMPDEST PUSH1 0x0 PUSH2 0x4258 DUP6 DUP3 DUP7 ADD PUSH2 0x335A JUMP JUMPDEST SWAP3 POP POP PUSH1 0x20 PUSH2 0x4269 DUP6 DUP3 DUP7 ADD PUSH2 0x421E JUMP JUMPDEST SWAP2 POP POP SWAP3 POP SWAP3 SWAP1 POP JUMP JUMPDEST PUSH1 0x0 PUSH1 0x20 DUP3 DUP5 SUB SLT ISZERO PUSH2 0x4289 JUMPI PUSH2 0x4288 PUSH2 0x332F JUMP JUMPDEST JUMPDEST PUSH1 0x0 PUSH2 0x4297 DUP5 DUP3 DUP6 ADD PUSH2 0x3968 JUMP JUMPDEST SWAP2 POP POP SWAP3 SWAP2 POP POP JUMP JUMPDEST PUSH32 0x4E487B7100000000000000000000000000000000000000000000000000000000 PUSH1 0x0 MSTORE PUSH1 0x22 PUSH1 0x4 MSTORE PUSH1 0x24 PUSH1 0x0 REVERT JUMPDEST PUSH1 0x0 PUSH1 0x2 DUP3 DIV SWAP1 POP PUSH1 0x1 DUP3 AND DUP1 PUSH2 0x42E7 JUMPI PUSH1 0x7F DUP3 AND SWAP2 POP JUMPDEST PUSH1 0x20 DUP3 LT DUP2 SUB PUSH2 0x42FA JUMPI PUSH2 0x42F9 PUSH2 0x42A0 JUMP JUMPDEST JUMPDEST POP SWAP2 SWAP1 POP JUMP JUMPDEST PUSH32 0x50726F63657373206E6F7420666F756E64000000000000000000000000000000 PUSH1 0x0 DUP3 ADD MSTORE POP JUMP JUMPDEST PUSH1 0x0 PUSH2 0x4336 PUSH1 0x11 DUP4 PUSH2 0x3446 JUMP JUMPDEST SWAP2 POP PUSH2 0x4341 DUP3 PUSH2 0x4300 JUMP JUMPDEST PUSH1 0x20 DUP3 ADD SWAP1 POP SWAP2 SWAP1 POP JUMP JUMPDEST PUSH1 0x0 PUSH1 0x20 DUP3 ADD SWAP1 POP DUP2 DUP2 SUB PUSH1 0x0 DUP4 ADD MSTORE PUSH2 0x4365 DUP2 PUSH2 0x4329 JUMP JUMPDEST SWAP1 POP SWAP2 SWAP1 POP JUMP JUMPDEST PUSH32 0x50726F63657373206E6F7420656E646564000000000000000000000000000000 PUSH1 0x0 DUP3 ADD MSTORE POP JUMP JUMPDEST PUSH1 0x0 PUSH2 0x43A2 PUSH1 0x11 DUP4 PUSH2 0x3446 JUMP JUMPDEST SWAP2 POP PUSH2 0x43AD DUP3 PUSH2 0x436C JUMP JUMPDEST PUSH1 0x20 DUP3 ADD SWAP1 POP SWAP2 SWAP1 POP JUMP JUMPDEST PUSH1 0x0 PUSH1 0x20 DUP3 ADD SWAP1 POP DUP2 DUP2 SUB PUSH1 0x0 DUP4 ADD MSTORE PUSH2 0x43D1 DUP2 PUSH2 0x4395 JUMP JUMPDEST SWAP1 POP SWAP2 SWAP1 POP JUMP JUMPDEST PUSH1 0x0 PUSH1 0x40 DUP3 ADD SWAP1 POP PUSH2 0x43ED PUSH1 0x0 DUP4 ADD DUP6 PUSH2 0x3413 JUMP JUMPDEST PUSH2 0x43FA PUSH1 0x20 DUP4 ADD DUP5 PUSH2 0x3CF9 JUMP JUMPDEST SWAP4 SWAP3 POP POP POP JUMP JUMPDEST PUSH2 0x440A DUP2 PUSH2 0x3505 JUMP JUMPDEST DUP2 EQ PUSH2 0x4415 JUMPI PUSH1 0x0 DUP1 REVERT JUMPDEST POP JUMP JUMPDEST PUSH1 0x0 DUP2 MLOAD SWAP1 POP PUSH2 0x4427 DUP2 PUSH2 0x4401 JUMP JUMPDEST SWAP3 SWAP2 POP POP JUMP JUMPDEST PUSH1 0x0 PUSH1 0x20 DUP3 DUP5 SUB SLT ISZERO PUSH2 0x4443 JUMPI PUSH2 0x4442 PUSH2 0x332F JUMP JUMPDEST JUMPDEST PUSH1 0x0 PUSH2 0x4451 DUP5 DUP3 DUP6 ADD PUSH2 0x4418 JUMP JUMPDEST SWAP2 POP POP SWAP3 SWAP2 POP POP JUMP JUMPDEST PUSH32 0x53657450726F636573735374617475733A206E6F7420616E2061646D696E6973 PUSH1 0x0 DUP3 ADD MSTORE PUSH32 0x747261746F720000000000000000000000000000000000000000000000000000 PUSH1 0x20 DUP3 ADD MSTORE POP JUMP JUMPDEST PUSH1 0x0 PUSH2 0x44B6 PUSH1 0x26 DUP4 PUSH2 0x3446 JUMP JUMPDEST SWAP2 POP PUSH2 0x44C1 DUP3 PUSH2 0x445A JUMP JUMPDEST PUSH1 0x40 DUP3 ADD SWAP1 POP SWAP2 SWAP1 POP JUMP JUMPDEST PUSH1 0x0 PUSH1 0x20 DUP3 ADD SWAP1 POP DUP2 DUP2 SUB PUSH1 0x0 DUP4 ADD MSTORE PUSH2 0x44E5 DUP2 PUSH2 0x44A9 JUMP JUMPDEST SWAP1 POP SWAP2 SWAP1 POP JUMP JUMPDEST PUSH32 0x50726F63657373207465726D696E617465640000000000000000000000000000 PUSH1 0x0 DUP3 ADD MSTORE POP JUMP JUMPDEST PUSH1 0x0 PUSH2 0x4522 PUSH1 0x12 DUP4 PUSH2 0x3446 JUMP JUMPDEST SWAP2 POP PUSH2 0x452D DUP3 PUSH2 0x44EC JUMP JUMPDEST PUSH1 0x20 DUP3 ADD SWAP1 POP SWAP2 SWAP1 POP JUMP JUMPDEST PUSH1 0x0 PUSH1 0x20 DUP3 ADD SWAP1 POP DUP2 DUP2 SUB PUSH1 0x0 DUP4 ADD MSTORE PUSH2 0x4551 DUP2 PUSH2 0x4515 JUMP JUMPDEST SWAP1 POP SWAP2 SWAP1 POP JUMP JUMPDEST PUSH32 0x4E6F7420696E7465727275707469626C65000000000000000000000000000000 PUSH1 0x0 DUP3 ADD MSTORE POP JUMP JUMPDEST PUSH1 0x0 PUSH2 0x458E PUSH1 0x11 DUP4 PUSH2 0x3446 JUMP JUMPDEST SWAP2 POP PUSH2 0x4599 DUP3 PUSH2 0x4558 JUMP JUMPDEST PUSH1 0x20 DUP3 ADD SWAP1 POP SWAP2 SWAP1 POP JUMP JUMPDEST PUSH1 0x0 PUSH1 0x20 DUP3 ADD SWAP1 POP DUP2 DUP2 SUB PUSH1 0x0 DUP4 ADD MSTORE PUSH2 0x45BD DUP2 PUSH2 0x4581 JUMP JUMPDEST SWAP1 POP SWAP2 SWAP1 POP JUMP JUMPDEST PUSH32 0x4D75737420646966666572000000000000000000000000000000000000000000 PUSH1 0x0 DUP3 ADD MSTORE POP JUMP JUMPDEST PUSH1 0x0 PUSH2 0x45FA PUSH1 0xB DUP4 PUSH2 0x3446 JUMP JUMPDEST SWAP2 POP PUSH2 0x4605 DUP3 PUSH2 0x45C4 JUMP JUMPDEST PUSH1 0x20 DUP3 ADD SWAP1 POP SWAP2 SWAP1 POP JUMP JUMPDEST PUSH1 0x0 PUSH1 0x20 DUP3 ADD SWAP1 POP DUP2 DUP2 SUB PUSH1 0x0 DUP4 ADD MSTORE PUSH2 0x4629 DUP2 PUSH2 0x45ED JUMP JUMPDEST SWAP1 POP SWAP2 SWAP1 POP JUMP JUMPDEST PUSH1 0x0 PUSH1 0x20 DUP3 ADD SWAP1 POP PUSH2 0x4645 PUSH1 0x0 DUP4 ADD DUP5 PUSH2 0x3404 JUMP JUMPDEST SWAP3 SWAP2 POP POP JUMP JUMPDEST PUSH32 0x53657450726F6365737343656E7375733A206E6F7420616E2061646D696E6973 PUSH1 0x0 DUP3 ADD MSTORE PUSH32 0x747261746F720000000000000000000000000000000000000000000000000000 PUSH1 0x20 DUP3 ADD MSTORE POP JUMP JUMPDEST PUSH1 0x0 PUSH2 0x46A7 PUSH1 0x26 DUP4 PUSH2 0x3446 JUMP JUMPDEST SWAP2 POP PUSH2 0x46B2 DUP3 PUSH2 0x464B JUMP JUMPDEST PUSH1 0x40 DUP3 ADD SWAP1 POP SWAP2 SWAP1 POP JUMP JUMPDEST PUSH1 0x0 PUSH1 0x20 DUP3 ADD SWAP1 POP DUP2 DUP2 SUB PUSH1 0x0 DUP4 ADD MSTORE PUSH2 0x46D6 DUP2 PUSH2 0x469A JUMP JUMPDEST SWAP1 POP SWAP2 SWAP1 POP JUMP JUMPDEST PUSH1 0x0 DUP1 REVERT JUMPDEST PUSH1 0x0 DUP1 REVERT JUMPDEST PUSH1 0x0 DUP1 REVERT JUMPDEST PUSH1 0x0 DUP1 DUP4 CALLDATALOAD PUSH1 0x1 PUSH1 0x20 SUB DUP5 CALLDATASIZE SUB SUB DUP2 SLT PUSH2 0x4709 JUMPI PUSH2 0x4708 PUSH2 0x46DD JUMP JUMPDEST JUMPDEST DUP1 DUP5 ADD SWAP3 POP DUP3 CALLDATALOAD SWAP2 POP PUSH8 0xFFFFFFFFFFFFFFFF DUP3 GT ISZERO PUSH2 0x472B JUMPI PUSH2 0x472A PUSH2 0x46E2 JUMP JUMPDEST JUMPDEST PUSH1 0x20 DUP4 ADD SWAP3 POP PUSH1 0x1 DUP3 MUL CALLDATASIZE SUB DUP4 SGT ISZERO PUSH2 0x4747 JUMPI PUSH2 0x4746 PUSH2 0x46E7 JUMP JUMPDEST JUMPDEST POP SWAP3 POP SWAP3 SWAP1 POP JUMP JUMPDEST PUSH32 0x456D707479205552490000000000000000000000000000000000000000000000 PUSH1 0x0 DUP3 ADD MSTORE POP JUMP JUMPDEST PUSH1 0x0 PUSH2 0x4785 PUSH1 0x9 DUP4 PUSH2 0x3446 JUMP JUMPDEST SWAP2 POP PUSH2 0x4790 DUP3 PUSH2 0x474F JUMP JUMPDEST PUSH1 0x20 DUP3 ADD SWAP1 POP SWAP2 SWAP1 POP JUMP JUMPDEST PUSH1 0x0 PUSH1 0x20 DUP3 ADD SWAP1 POP DUP2 DUP2 SUB PUSH1 0x0 DUP4 ADD MSTORE PUSH2 0x47B4 DUP2 PUSH2 0x4778 JUMP JUMPDEST SWAP1 POP SWAP2 SWAP1 POP JUMP JUMPDEST PUSH32 0x456D70747920726F6F7400000000000000000000000000000000000000000000 PUSH1 0x0 DUP3 ADD MSTORE POP JUMP JUMPDEST PUSH1 0x0 PUSH2 0x47F1 PUSH1 0xA DUP4 PUSH2 0x3446 JUMP JUMPDEST SWAP2 POP PUSH2 0x47FC DUP3 PUSH2 0x47BB JUMP JUMPDEST PUSH1 0x20 DUP3 ADD SWAP1 POP SWAP2 SWAP1 POP JUMP JUMPDEST PUSH1 0x0 PUSH1 0x20 DUP3 ADD SWAP1 POP DUP2 DUP2 SUB PUSH1 0x0 DUP4 ADD MSTORE PUSH2 0x4820 DUP2 PUSH2 0x47E4 JUMP JUMPDEST SWAP1 POP SWAP2 SWAP1 POP JUMP JUMPDEST PUSH32 0x526561642D6F6E6C792063656E73757300000000000000000000000000000000 PUSH1 0x0 DUP3 ADD MSTORE POP JUMP JUMPDEST PUSH1 0x0 PUSH2 0x485D PUSH1 0x10 DUP4 PUSH2 0x3446 JUMP JUMPDEST SWAP2 POP PUSH2 0x4868 DUP3 PUSH2 0x4827 JUMP JUMPDEST PUSH1 0x20 DUP3 ADD SWAP1 POP SWAP2 SWAP1 POP JUMP JUMPDEST PUSH1 0x0 PUSH1 0x20 DUP3 ADD SWAP1 POP DUP2 DUP2 SUB PUSH1 0x0 DUP4 ADD MSTORE PUSH2 0x488C DUP2 PUSH2 0x4850 JUMP JUMPDEST SWAP1 POP SWAP2 SWAP1 POP JUMP JUMPDEST PUSH1 0x0 DUP3 SWAP1 POP SWAP3 SWAP2 POP POP JUMP JUMPDEST PUSH1 0x0 DUP2 SWAP1 POP DUP2 PUSH1 0x0 MSTORE PUSH1 0x20 PUSH1 0x0 KECCAK256 SWAP1 POP SWAP2 SWAP1 POP JUMP JUMPDEST PUSH1 0x0 PUSH1 0x20 PUSH1 0x1F DUP4 ADD DIV SWAP1 POP SWAP2 SWAP1 POP JUMP JUMPDEST PUSH1 0x0 DUP3 DUP3 SHL SWAP1 POP SWAP3 SWAP2 POP POP JUMP JUMPDEST PUSH1 0x0 PUSH1 0x8 DUP4 MUL PUSH2 0x4900 PUSH32 0xFFFFFFFFFFFFFFFFFFFFFFFFFFFFFFFFFFFFFFFFFFFFFFFFFFFFFFFFFFFFFFFF DUP3 PUSH2 0x48C3 JUMP JUMPDEST PUSH2 0x490A DUP7 DUP4 PUSH2 0x48C3 JUMP JUMPDEST SWAP6 POP DUP1 NOT DUP5 AND SWAP4 POP DUP1 DUP7 AND DUP5 OR SWAP3 POP POP POP SWAP4 SWAP3 POP POP POP JUMP JUMPDEST PUSH1 0x0 DUP2 SWAP1 POP SWAP2 SWAP1 POP JUMP JUMPDEST PUSH1 0x0 PUSH2 0x4947 PUSH2 0x4942 PUSH2 0x493D DUP5 PUSH2 0x3422 JUMP JUMPDEST PUSH2 0x4922 JUMP JUMPDEST PUSH2 0x3422 JUMP JUMPDEST SWAP1 POP SWAP2 SWAP1 POP JUMP JUMPDEST PUSH1 0x0 DUP2 SWAP1 POP SWAP2 SWAP1 POP JUMP JUMPDEST PUSH2 0x4961 DUP4 PUSH2 0x492C JUMP JUMPDEST PUSH2 0x4975 PUSH2 0x496D DUP3 PUSH2 0x494E JUMP JUMPDEST DUP5 DUP5 SLOAD PUSH2 0x48D0 JUMP JUMPDEST DUP3 SSTORE POP POP POP POP JUMP JUMPDEST PUSH1 0x0 SWAP1 JUMP JUMPDEST PUSH2 0x498A PUSH2 0x497D JUMP JUMPDEST PUSH2 0x4995 DUP2 DUP5 DUP5 PUSH2 0x4958 JUMP JUMPDEST POP POP POP JUMP JUMPDEST JUMPDEST DUP2 DUP2 LT ISZERO PUSH2 0x49B9 JUMPI PUSH2 0x49AE PUSH1 0x0 DUP3 PUSH2 0x4982 JUMP JUMPDEST PUSH1 0x1 DUP2 ADD SWAP1 POP PUSH2 0x499B JUMP JUMPDEST POP POP JUMP JUMPDEST PUSH1 0x1F DUP3 GT ISZERO PUSH2 0x49FE JUMPI PUSH2 0x49CF DUP2 PUSH2 0x489E JUMP JUMPDEST PUSH2 0x49D8 DUP5 PUSH2 0x48B3 JUMP JUMPDEST DUP2 ADD PUSH1 0x20 DUP6 LT ISZERO PUSH2 0x49E7 JUMPI DUP2 SWAP1 POP JUMPDEST PUSH2 0x49FB PUSH2 0x49F3 DUP6 PUSH2 0x48B3 JUMP JUMPDEST DUP4 ADD DUP3 PUSH2 0x499A JUMP JUMPDEST POP POP JUMPDEST POP POP POP JUMP JUMPDEST PUSH1 0x0 DUP3 DUP3 SHR SWAP1 POP SWAP3 SWAP2 POP POP JUMP JUMPDEST PUSH1 0x0 PUSH2 0x4A21 PUSH1 0x0 NOT DUP5 PUSH1 0x8 MUL PUSH2 0x4A03 JUMP JUMPDEST NOT DUP1 DUP4 AND SWAP2 POP POP SWAP3 SWAP2 POP POP JUMP JUMPDEST PUSH1 0x0 PUSH2 0x4A3A DUP4 DUP4 PUSH2 0x4A10 JUMP JUMPDEST SWAP2 POP DUP3 PUSH1 0x2 MUL DUP3 OR SWAP1 POP SWAP3 SWAP2 POP POP JUMP JUMPDEST PUSH2 0x4A54 DUP4 DUP4 PUSH2 0x4893 JUMP JUMPDEST PUSH8 0xFFFFFFFFFFFFFFFF DUP2 GT ISZERO PUSH2 0x4A6D JUMPI PUSH2 0x4A6C PUSH2 0x3982 JUMP JUMPDEST JUMPDEST PUSH2 0x4A77 DUP3 SLOAD PUSH2 0x42CF JUMP JUMPDEST PUSH2 0x4A82 DUP3 DUP3 DUP6 PUSH2 0x49BD JUMP JUMPDEST PUSH1 0x0 PUSH1 0x1F DUP4 GT PUSH1 0x1 DUP2 EQ PUSH2 0x4AB1 JUMPI PUSH1 0x0 DUP5 ISZERO PUSH2 0x4A9F JUMPI DUP3 DUP8 ADD CALLDATALOAD SWAP1 POP JUMPDEST PUSH2 0x4AA9 DUP6 DUP3 PUSH2 0x4A2E JUMP JUMPDEST DUP7 SSTORE POP PUSH2 0x4B11 JUMP JUMPDEST PUSH1 0x1F NOT DUP5 AND PUSH2 0x4ABF DUP7 PUSH2 0x489E JUMP JUMPDEST PUSH1 0x0 JUMPDEST DUP3 DUP2 LT ISZERO PUSH2 0x4AE7 JUMPI DUP5 DUP10 ADD CALLDATALOAD DUP3 SSTORE PUSH1 0x1 DUP3 ADD SWAP2 POP PUSH1 0x20 DUP6 ADD SWAP5 POP PUSH1 0x20 DUP2 ADD SWAP1 POP PUSH2 0x4AC2 JUMP JUMPDEST DUP7 DUP4 LT ISZERO PUSH2 0x4B04 JUMPI DUP5 DUP10 ADD CALLDATALOAD PUSH2 0x4B00 PUSH1 0x1F DUP10 AND DUP3 PUSH2 0x4A10 JUMP JUMPDEST DUP4 SSTORE POP JUMPDEST PUSH1 0x1 PUSH1 0x2 DUP9 MUL ADD DUP9 SSTORE POP POP POP JUMPDEST POP POP POP POP POP POP POP JUMP JUMPDEST PUSH1 0x0 PUSH2 0x4B26 DUP4 DUP6 PUSH2 0x3446 JUMP JUMPDEST SWAP4 POP PUSH2 0x4B33 DUP4 DUP6 DUP5 PUSH2 0x3A2E JUMP JUMPDEST PUSH2 0x4B3C DUP4 PUSH2 0x3481 JUMP JUMPDEST DUP5 ADD SWAP1 POP SWAP4 SWAP3 POP POP POP JUMP JUMPDEST PUSH1 0x0 PUSH1 0x60 DUP3 ADD SWAP1 POP PUSH2 0x4B5C PUSH1 0x0 DUP4 ADD DUP8 PUSH2 0x3413 JUMP JUMPDEST DUP2 DUP2 SUB PUSH1 0x20 DUP4 ADD MSTORE PUSH2 0x4B6F DUP2 DUP6 DUP8 PUSH2 0x4B1A JUMP JUMPDEST SWAP1 POP PUSH2 0x4B7E PUSH1 0x40 DUP4 ADD DUP5 PUSH2 0x342C JUMP JUMPDEST SWAP6 SWAP5 POP POP POP POP POP JUMP JUMPDEST PUSH1 0x0 DUP2 SWAP1 POP SWAP2 SWAP1 POP JUMP JUMPDEST PUSH1 0x0 PUSH8 0xFFFFFFFFFFFFFFFF DUP3 AND SWAP1 POP SWAP2 SWAP1 POP JUMP JUMPDEST PUSH1 0x0 PUSH2 0x4BC0 PUSH2 0x4BBB PUSH2 0x4BB6 DUP5 PUSH2 0x4B87 JUMP JUMPDEST PUSH2 0x4922 JUMP JUMPDEST PUSH2 0x4B91 JUMP JUMPDEST SWAP1 POP SWAP2 SWAP1 POP JUMP JUMPDEST PUSH2 0x4BD0 DUP2 PUSH2 0x4BA5 JUMP JUMPDEST DUP3 MSTORE POP POP JUMP JUMPDEST PUSH1 0x0 PUSH1 0x20 DUP3 ADD SWAP1 POP PUSH2 0x4BEB PUSH1 0x0 DUP4 ADD DUP5 PUSH2 0x4BC7 JUMP JUMPDEST SWAP3 SWAP2 POP POP JUMP JUMPDEST PUSH32 0x4E657750726F636573733A20696E76616C6964206D6178436F756E7400000000 PUSH1 0x0 DUP3 ADD MSTORE POP JUMP JUMPDEST PUSH1 0x0 PUSH2 0x4C27 PUSH1 0x1C DUP4 PUSH2 0x3446 JUMP JUMPDEST SWAP2 POP PUSH2 0x4C32 DUP3 PUSH2 0x4BF1 JUMP JUMPDEST PUSH1 0x20 DUP3 ADD SWAP1 POP SWAP2 SWAP1 POP JUMP JUMPDEST PUSH1 0x0 PUSH1 0x20 DUP3 ADD SWAP1 POP DUP2 DUP2 SUB PUSH1 0x0 DUP4 ADD MSTORE PUSH2 0x4C56 DUP2 PUSH2 0x4C1A JUMP JUMPDEST SWAP1 POP SWAP2 SWAP1 POP JUMP JUMPDEST PUSH32 0x4E657750726F636573733A206D6178436F756E74203E206D617856616C756500 PUSH1 0x0 DUP3 ADD MSTORE POP JUMP JUMPDEST PUSH1 0x0 PUSH2 0x4C93 PUSH1 0x1F DUP4 PUSH2 0x3446 JUMP JUMPDEST SWAP2 POP PUSH2 0x4C9E DUP3 PUSH2 0x4C5D JUMP JUMPDEST PUSH1 0x20 DUP3 ADD SWAP1 POP SWAP2 SWAP1 POP JUMP JUMPDEST PUSH1 0x0 PUSH1 0x20 DUP3 ADD SWAP1 POP DUP2 DUP2 SUB PUSH1 0x0 DUP4 ADD MSTORE PUSH2 0x4CC2 DUP2 PUSH2 0x4C86 JUMP JUMPDEST SWAP1 POP SWAP2 SWAP1 POP JUMP JUMPDEST PUSH1 0x0 PUSH1 0x20 DUP3 DUP5 SUB SLT ISZERO PUSH2 0x4CDF JUMPI PUSH2 0x4CDE PUSH2 0x332F JUMP JUMPDEST JUMPDEST PUSH1 0x0 PUSH2 0x4CED DUP5 DUP3 DUP6 ADD PUSH2 0x3B34 JUMP JUMPDEST SWAP2 POP POP SWAP3 SWAP2 POP POP JUMP JUMPDEST PUSH32 0x4E657750726F636573733A20696E76616C696420737461747573000000000000 PUSH1 0x0 DUP3 ADD MSTORE POP JUMP JUMPDEST PUSH1 0x0 PUSH2 0x4D2C PUSH1 0x1A DUP4 PUSH2 0x3446 JUMP JUMPDEST SWAP2 POP PUSH2 0x4D37 DUP3 PUSH2 0x4CF6 JUMP JUMPDEST PUSH1 0x20 DUP3 ADD SWAP1 POP SWAP2 SWAP1 POP JUMP JUMPDEST PUSH1 0x0 PUSH1 0x20 DUP3 ADD SWAP1 POP DUP2 DUP2 SUB PUSH1 0x0 DUP4 ADD MSTORE PUSH2 0x4D5B DUP2 PUSH2 0x4D1F JUMP JUMPDEST SWAP1 POP SWAP2 SWAP1 POP JUMP JUMPDEST PUSH1 0xA DUP2 LT PUSH2 0x4D6F JUMPI PUSH1 0x0 DUP1 REVERT JUMPDEST POP JUMP JUMPDEST PUSH1 0x0 DUP2 CALLDATALOAD SWAP1 POP PUSH2 0x4D81 DUP2 PUSH2 0x4D62 JUMP JUMPDEST SWAP3 SWAP2 POP POP JUMP JUMPDEST PUSH1 0x0 PUSH1 0x20 DUP3 DUP5 SUB SLT ISZERO PUSH2 0x4D9D JUMPI PUSH2 0x4D9C PUSH2 0x332F JUMP JUMPDEST JUMPDEST PUSH1 0x0 PUSH2 0x4DAB DUP5 DUP3 DUP6 ADD PUSH2 0x4D72 JUMP JUMPDEST SWAP2 POP POP SWAP3 SWAP2 POP POP JUMP JUMPDEST PUSH2 0x4DBD DUP2 PUSH2 0x34CB JUMP JUMPDEST DUP2 EQ PUSH2 0x4DC8 JUMPI PUSH1 0x0 DUP1 REVERT JUMPDEST POP JUMP JUMPDEST PUSH1 0x0 DUP2 CALLDATALOAD SWAP1 POP PUSH2 0x4DDA DUP2 PUSH2 0x4DB4 JUMP JUMPDEST SWAP3 SWAP2 POP POP JUMP JUMPDEST PUSH1 0x0 PUSH1 0x20 DUP3 DUP5 SUB SLT ISZERO PUSH2 0x4DF6 JUMPI PUSH2 0x4DF5 PUSH2 0x332F JUMP JUMPDEST JUMPDEST PUSH1 0x0 PUSH2 0x4E04 DUP5 DUP3 DUP6 ADD PUSH2 0x4DCB JUMP JUMPDEST SWAP2 POP POP SWAP3 SWAP2 POP POP JUMP JUMPDEST PUSH32 0x4E657750726F636573733A2063656E737573206F726967696E20434120726571 PUSH1 0x0 DUP3 ADD MSTORE PUSH32 0x7569726573206E6F6E2D616E6F6E796D6F757320656E76656C6F706520747970 PUSH1 0x20 DUP3 ADD MSTORE PUSH32 0x6500000000000000000000000000000000000000000000000000000000000000 PUSH1 0x40 DUP3 ADD MSTORE POP JUMP JUMPDEST PUSH1 0x0 PUSH2 0x4E8F PUSH1 0x41 DUP4 PUSH2 0x3446 JUMP JUMPDEST SWAP2 POP PUSH2 0x4E9A DUP3 PUSH2 0x4E0D JUMP JUMPDEST PUSH1 0x60 DUP3 ADD SWAP1 POP SWAP2 SWAP1 POP JUMP JUMPDEST PUSH1 0x0 PUSH1 0x20 DUP3 ADD SWAP1 POP DUP2 DUP2 SUB PUSH1 0x0 DUP4 ADD MSTORE PUSH2 0x4EBE DUP2 PUSH2 0x4E82 JUMP JUMPDEST SWAP1 POP SWAP2 SWAP1 POP JUMP JUMPDEST PUSH32 0x4E657750726F636573733A206D6178436F756E74206D75737420626520312066 PUSH1 0x0 DUP3 ADD MSTORE PUSH32 0x6F72204661726361737465720000000000000000000000000000000000000000 PUSH1 0x20 DUP3 ADD MSTORE POP JUMP JUMPDEST PUSH1 0x0 PUSH2 0x4F21 PUSH1 0x2C DUP4 PUSH2 0x3446 JUMP JUMPDEST SWAP2 POP PUSH2 0x4F2C DUP3 PUSH2 0x4EC5 JUMP JUMPDEST PUSH1 0x40 DUP3 ADD SWAP1 POP SWAP2 SWAP1 POP JUMP JUMPDEST PUSH1 0x0 PUSH1 0x20 DUP3 ADD SWAP1 POP DUP2 DUP2 SUB PUSH1 0x0 DUP4 ADD MSTORE PUSH2 0x4F50 DUP2 PUSH2 0x4F14 JUMP JUMPDEST SWAP1 POP SWAP2 SWAP1 POP JUMP JUMPDEST PUSH32 0x4E657750726F636573733A2063656E737573206F726967696E20466172636173 PUSH1 0x0 DUP3 ADD MSTORE PUSH32 0x746572207265717569726573206E6F6E2D616E6F6E796D6F757320656E76656C PUSH1 0x20 DUP3 ADD MSTORE PUSH32 0x6F70652074797065000000000000000000000000000000000000000000000000 PUSH1 0x40 DUP3 ADD MSTORE POP JUMP JUMPDEST PUSH1 0x0 PUSH2 0x4FD9 PUSH1 0x48 DUP4 PUSH2 0x3446 JUMP JUMPDEST SWAP2 POP PUSH2 0x4FE4 DUP3 PUSH2 0x4F57 JUMP JUMPDEST PUSH1 0x60 DUP3 ADD SWAP1 POP SWAP2 SWAP1 POP JUMP JUMPDEST PUSH1 0x0 PUSH1 0x20 DUP3 ADD SWAP1 POP DUP2 DUP2 SUB PUSH1 0x0 DUP4 ADD MSTORE PUSH2 0x5008 DUP2 PUSH2 0x4FCC JUMP JUMPDEST SWAP1 POP SWAP2 SWAP1 POP JUMP JUMPDEST PUSH32 0x4E657750726F636573733A2063656E737573206F726967696E20466172636173 PUSH1 0x0 DUP3 ADD MSTORE PUSH32 0x746572207265717569726573206E6F6E2D656E6372797074656420656E76656C PUSH1 0x20 DUP3 ADD MSTORE PUSH32 0x6F70652074797065000000000000000000000000000000000000000000000000 PUSH1 0x40 DUP3 ADD MSTORE POP JUMP JUMPDEST PUSH1 0x0 PUSH2 0x5091 PUSH1 0x48 DUP4 PUSH2 0x3446 JUMP JUMPDEST SWAP2 POP PUSH2 0x509C DUP3 PUSH2 0x500F JUMP JUMPDEST PUSH1 0x60 DUP3 ADD SWAP1 POP SWAP2 SWAP1 POP JUMP JUMPDEST PUSH1 0x0 PUSH1 0x20 DUP3 ADD SWAP1 POP DUP2 DUP2 SUB PUSH1 0x0 DUP4 ADD MSTORE PUSH2 0x50C0 DUP2 PUSH2 0x5084 JUMP JUMPDEST SWAP1 POP SWAP2 SWAP1 POP JUMP JUMPDEST PUSH32 0x4E657750726F636573733A20696E76616C696420737461727454696D65000000 PUSH1 0x0 DUP3 ADD MSTORE POP JUMP JUMPDEST PUSH1 0x0 PUSH2 0x50FD PUSH1 0x1D DUP4 PUSH2 0x3446 JUMP JUMPDEST SWAP2 POP PUSH2 0x5108 DUP3 PUSH2 0x50C7 JUMP JUMPDEST PUSH1 0x20 DUP3 ADD SWAP1 POP SWAP2 SWAP1 POP JUMP JUMPDEST PUSH1 0x0 PUSH1 0x20 DUP3 ADD SWAP1 POP DUP2 DUP2 SUB PUSH1 0x0 DUP4 ADD MSTORE PUSH2 0x512C DUP2 PUSH2 0x50F0 JUMP JUMPDEST SWAP1 POP SWAP2 SWAP1 POP JUMP JUMPDEST PUSH32 0x4E487B7100000000000000000000000000000000000000000000000000000000 PUSH1 0x0 MSTORE PUSH1 0x11 PUSH1 0x4 MSTORE PUSH1 0x24 PUSH1 0x0 REVERT JUMPDEST PUSH1 0x0 PUSH2 0x516D DUP3 PUSH2 0x3422 JUMP JUMPDEST SWAP2 POP PUSH2 0x5178 DUP4 PUSH2 0x3422 JUMP JUMPDEST SWAP3 POP DUP3 DUP3 ADD SWAP1 POP DUP1 DUP3 GT ISZERO PUSH2 0x5190 JUMPI PUSH2 0x518F PUSH2 0x5133 JUMP JUMPDEST JUMPDEST SWAP3 SWAP2 POP POP JUMP JUMPDEST PUSH32 0x4E657750726F636573733A20696E76616C6964206475726174696F6E00000000 PUSH1 0x0 DUP3 ADD MSTORE POP JUMP JUMPDEST PUSH1 0x0 PUSH2 0x51CC PUSH1 0x1C DUP4 PUSH2 0x3446 JUMP JUMPDEST SWAP2 POP PUSH2 0x51D7 DUP3 PUSH2 0x5196 JUMP JUMPDEST PUSH1 0x20 DUP3 ADD SWAP1 POP SWAP2 SWAP1 POP JUMP JUMPDEST PUSH1 0x0 PUSH1 0x20 DUP3 ADD SWAP1 POP DUP2 DUP2 SUB PUSH1 0x0 DUP4 ADD MSTORE PUSH2 0x51FB DUP2 PUSH2 0x51BF JUMP JUMPDEST SWAP1 POP SWAP2 SWAP1 POP JUMP JUMPDEST PUSH32 0x4E657750726F636573733A2073657269616C20656E76656C6F70652074797065 PUSH1 0x0 DUP3 ADD MSTORE PUSH32 0x206E6F7420696D706C656D656E74656400000000000000000000000000000000 PUSH1 0x20 DUP3 ADD MSTORE POP JUMP JUMPDEST PUSH1 0x0 PUSH2 0x525E PUSH1 0x30 DUP4 PUSH2 0x3446 JUMP JUMPDEST SWAP2 POP PUSH2 0x5269 DUP3 PUSH2 0x5202 JUMP JUMPDEST PUSH1 0x40 DUP3 ADD SWAP1 POP SWAP2 SWAP1 POP JUMP JUMPDEST PUSH1 0x0 PUSH1 0x20 DUP3 ADD SWAP1 POP DUP2 DUP2 SUB PUSH1 0x0 DUP4 ADD MSTORE PUSH2 0x528D DUP2 PUSH2 0x5251 JUMP JUMPDEST SWAP1 POP SWAP2 SWAP1 POP JUMP JUMPDEST PUSH32 0x4E657750726F636573733A206E6F7420616E2061646D696E6973747261746F72 PUSH1 0x0 DUP3 ADD MSTORE POP JUMP JUMPDEST PUSH1 0x0 PUSH2 0x52CA PUSH1 0x20 DUP4 PUSH2 0x3446 JUMP JUMPDEST SWAP2 POP PUSH2 0x52D5 DUP3 PUSH2 0x5294 JUMP JUMPDEST PUSH1 0x20 DUP3 ADD SWAP1 POP SWAP2 SWAP1 POP JUMP JUMPDEST PUSH1 0x0 PUSH1 0x20 DUP3 ADD SWAP1 POP DUP2 DUP2 SUB PUSH1 0x0 DUP4 ADD MSTORE PUSH2 0x52F9 DUP2 PUSH2 0x52BD JUMP JUMPDEST SWAP1 POP SWAP2 SWAP1 POP JUMP JUMPDEST PUSH32 0x4E657750726F636573733A2070726F6365737320616C72656164792065786973 PUSH1 0x0 DUP3 ADD MSTORE PUSH32 0x7473000000000000000000000000000000000000000000000000000000000000 PUSH1 0x20 DUP3 ADD MSTORE POP JUMP JUMPDEST PUSH1 0x0 PUSH2 0x535C PUSH1 0x22 DUP4 PUSH2 0x3446 JUMP JUMPDEST SWAP2 POP PUSH2 0x5367 DUP3 PUSH2 0x5300 JUMP JUMPDEST PUSH1 0x40 DUP3 ADD SWAP1 POP SWAP2 SWAP1 POP JUMP JUMPDEST PUSH1 0x0 PUSH1 0x20 DUP3 ADD SWAP1 POP DUP2 DUP2 SUB PUSH1 0x0 DUP4 ADD MSTORE PUSH2 0x538B DUP2 PUSH2 0x534F JUMP JUMPDEST SWAP1 POP SWAP2 SWAP1 POP JUMP JUMPDEST PUSH1 0x0 DUP1 REVERT JUMPDEST PUSH1 0x0 DUP1 REVERT JUMPDEST PUSH1 0x0 DUP2 CALLDATALOAD SWAP1 POP PUSH2 0x53AB DUP2 PUSH2 0x4401 JUMP JUMPDEST SWAP3 SWAP2 POP POP JUMP JUMPDEST PUSH1 0x0 PUSH2 0x100 DUP3 DUP5 SUB SLT ISZERO PUSH2 0x53C8 JUMPI PUSH2 0x53C7 PUSH2 0x5392 JUMP JUMPDEST JUMPDEST PUSH2 0x53D3 PUSH2 0x100 PUSH2 0x39E2 JUMP JUMPDEST SWAP1 POP PUSH1 0x0 PUSH2 0x53E3 DUP5 DUP3 DUP6 ADD PUSH2 0x539C JUMP JUMPDEST PUSH1 0x0 DUP4 ADD MSTORE POP PUSH1 0x20 PUSH2 0x53F7 DUP5 DUP3 DUP6 ADD PUSH2 0x421E JUMP JUMPDEST PUSH1 0x20 DUP4 ADD MSTORE POP PUSH1 0x40 PUSH2 0x540B DUP5 DUP3 DUP6 ADD PUSH2 0x421E JUMP JUMPDEST PUSH1 0x40 DUP4 ADD MSTORE POP PUSH1 0x60 PUSH2 0x541F DUP5 DUP3 DUP6 ADD PUSH2 0x421E JUMP JUMPDEST PUSH1 0x60 DUP4 ADD MSTORE POP PUSH1 0x80 PUSH2 0x5433 DUP5 DUP3 DUP6 ADD PUSH2 0x421E JUMP JUMPDEST PUSH1 0x80 DUP4 ADD MSTORE POP PUSH1 0xA0 PUSH2 0x5447 DUP5 DUP3 DUP6 ADD PUSH2 0x421E JUMP JUMPDEST PUSH1 0xA0 DUP4 ADD MSTORE POP PUSH1 0xC0 PUSH2 0x545B DUP5 DUP3 DUP6 ADD PUSH2 0x421E JUMP JUMPDEST PUSH1 0xC0 DUP4 ADD MSTORE POP PUSH1 0xE0 PUSH2 0x546F DUP5 DUP3 DUP6 ADD PUSH2 0x421E JUMP JUMPDEST PUSH1 0xE0 DUP4 ADD MSTORE POP SWAP3 SWAP2 POP POP JUMP JUMPDEST PUSH1 0x0 PUSH2 0x1A0 DUP3 DUP5 SUB SLT ISZERO PUSH2 0x5492 JUMPI PUSH2 0x5491 PUSH2 0x5392 JUMP JUMPDEST JUMPDEST PUSH2 0x549C PUSH1 0xC0 PUSH2 0x39E2 JUMP JUMPDEST SWAP1 POP PUSH1 0x0 PUSH2 0x54AC DUP5 DUP3 DUP6 ADD PUSH2 0x4DCB JUMP JUMPDEST PUSH1 0x0 DUP4 ADD MSTORE POP PUSH1 0x20 PUSH2 0x54C0 DUP5 DUP3 DUP6 ADD PUSH2 0x4DCB JUMP JUMPDEST PUSH1 0x20 DUP4 ADD MSTORE POP PUSH1 0x40 PUSH2 0x54D4 DUP5 DUP3 DUP6 ADD PUSH2 0x421E JUMP JUMPDEST PUSH1 0x40 DUP4 ADD MSTORE POP PUSH1 0x60 PUSH2 0x54E8 DUP5 DUP3 DUP6 ADD PUSH2 0x421E JUMP JUMPDEST PUSH1 0x60 DUP4 ADD MSTORE POP PUSH1 0x80 PUSH2 0x54FC DUP5 DUP3 DUP6 ADD PUSH2 0x3B34 JUMP JUMPDEST PUSH1 0x80 DUP4 ADD MSTORE POP PUSH1 0xA0 PUSH2 0x5510 DUP5 DUP3 DUP6 ADD PUSH2 0x53B1 JUMP JUMPDEST PUSH1 0xA0 DUP4 ADD MSTORE POP SWAP3 SWAP2 POP POP JUMP JUMPDEST PUSH1 0x0 PUSH2 0x1A0 DUP3 DUP5 SUB SLT ISZERO PUSH2 0x5533 JUMPI PUSH2 0x5532 PUSH2 0x332F JUMP JUMPDEST JUMPDEST PUSH1 0x0 PUSH2 0x5541 DUP5 DUP3 DUP6 ADD PUSH2 0x547B JUMP JUMPDEST SWAP2 POP POP SWAP3 SWAP2 POP POP JUMP JUMPDEST PUSH1 0x0 PUSH8 0xFFFFFFFFFFFFFFFF DUP3 GT ISZERO PUSH2 0x5565 JUMPI PUSH2 0x5564 PUSH2 0x3982 JUMP JUMPDEST JUMPDEST PUSH2 0x556E DUP3 PUSH2 0x3481 JUMP JUMPDEST SWAP1 POP PUSH1 0x20 DUP2 ADD SWAP1 POP SWAP2 SWAP1 POP JUMP JUMPDEST PUSH1 0x0 PUSH2 0x558E PUSH2 0x5589 DUP5 PUSH2 0x554A JUMP JUMPDEST PUSH2 0x39E2 JUMP JUMPDEST SWAP1 POP DUP3 DUP2 MSTORE PUSH1 0x20 DUP2 ADD DUP5 DUP5 DUP5 ADD GT ISZERO PUSH2 0x55AA JUMPI PUSH2 0x55A9 PUSH2 0x397D JUMP JUMPDEST JUMPDEST PUSH2 0x55B5 DUP5 DUP3 DUP6 PUSH2 0x3A2E JUMP JUMPDEST POP SWAP4 SWAP3 POP POP POP JUMP JUMPDEST PUSH1 0x0 DUP3 PUSH1 0x1F DUP4 ADD SLT PUSH2 0x55D2 JUMPI PUSH2 0x55D1 PUSH2 0x37CF JUMP JUMPDEST JUMPDEST DUP2 CALLDATALOAD PUSH2 0x55E2 DUP5 DUP3 PUSH1 0x20 DUP7 ADD PUSH2 0x557B JUMP JUMPDEST SWAP2 POP POP SWAP3 SWAP2 POP POP JUMP JUMPDEST PUSH1 0x0 PUSH1 0x80 DUP3 DUP5 SUB SLT ISZERO PUSH2 0x5601 JUMPI PUSH2 0x5600 PUSH2 0x5392 JUMP JUMPDEST JUMPDEST PUSH2 0x560B PUSH1 0x80 PUSH2 0x39E2 JUMP JUMPDEST SWAP1 POP PUSH1 0x0 PUSH2 0x561B DUP5 DUP3 DUP6 ADD PUSH2 0x4D72 JUMP JUMPDEST PUSH1 0x0 DUP4 ADD MSTORE POP PUSH1 0x20 PUSH2 0x562F DUP5 DUP3 DUP6 ADD PUSH2 0x421E JUMP JUMPDEST PUSH1 0x20 DUP4 ADD MSTORE POP PUSH1 0x40 PUSH2 0x5643 DUP5 DUP3 DUP6 ADD PUSH2 0x335A JUMP JUMPDEST PUSH1 0x40 DUP4 ADD MSTORE POP PUSH1 0x60 DUP3 ADD CALLDATALOAD PUSH8 0xFFFFFFFFFFFFFFFF DUP2 GT ISZERO PUSH2 0x5667 JUMPI PUSH2 0x5666 PUSH2 0x5397 JUMP JUMPDEST JUMPDEST PUSH2 0x5673 DUP5 DUP3 DUP6 ADD PUSH2 0x55BD JUMP JUMPDEST PUSH1 0x60 DUP4 ADD MSTORE POP SWAP3 SWAP2 POP POP JUMP JUMPDEST PUSH1 0x0 PUSH2 0x568B CALLDATASIZE DUP4 PUSH2 0x55EB JUMP JUMPDEST SWAP1 POP SWAP2 SWAP1 POP JUMP JUMPDEST PUSH2 0x569B DUP3 PUSH2 0x343B JUMP JUMPDEST PUSH8 0xFFFFFFFFFFFFFFFF DUP2 GT ISZERO PUSH2 0x56B4 JUMPI PUSH2 0x56B3 PUSH2 0x3982 JUMP JUMPDEST JUMPDEST PUSH2 0x56BE DUP3 SLOAD PUSH2 0x42CF JUMP JUMPDEST PUSH2 0x56C9 DUP3 DUP3 DUP6 PUSH2 0x49BD JUMP JUMPDEST PUSH1 0x0 PUSH1 0x20 SWAP1 POP PUSH1 0x1F DUP4 GT PUSH1 0x1 DUP2 EQ PUSH2 0x56FC JUMPI PUSH1 0x0 DUP5 ISZERO PUSH2 0x56EA JUMPI DUP3 DUP8 ADD MLOAD SWAP1 POP JUMPDEST PUSH2 0x56F4 DUP6 DUP3 PUSH2 0x4A2E JUMP JUMPDEST DUP7 SSTORE POP PUSH2 0x575C JUMP JUMPDEST PUSH1 0x1F NOT DUP5 AND PUSH2 0x570A DUP7 PUSH2 0x489E JUMP JUMPDEST PUSH1 0x0 JUMPDEST DUP3 DUP2 LT ISZERO PUSH2 0x5732 JUMPI DUP5 DUP10 ADD MLOAD DUP3 SSTORE PUSH1 0x1 DUP3 ADD SWAP2 POP PUSH1 0x20 DUP6 ADD SWAP5 POP PUSH1 0x20 DUP2 ADD SWAP1 POP PUSH2 0x570D JUMP JUMPDEST DUP7 DUP4 LT ISZERO PUSH2 0x574F JUMPI DUP5 DUP10 ADD MLOAD PUSH2 0x574B PUSH1 0x1F DUP10 AND DUP3 PUSH2 0x4A10 JUMP JUMPDEST DUP4 SSTORE POP JUMPDEST PUSH1 0x1 PUSH1 0x2 DUP9 MUL ADD DUP9 SSTORE POP POP POP JUMPDEST POP POP POP POP POP POP JUMP JUMPDEST PUSH32 0x496E76616C69642073746174757320666F72207375626D697474696E67207374 PUSH1 0x0 DUP3 ADD MSTORE PUSH32 0x617465207472616E736974696F6E000000000000000000000000000000000000 PUSH1 0x20 DUP3 ADD MSTORE POP JUMP JUMPDEST PUSH1 0x0 PUSH2 0x57C0 PUSH1 0x2E DUP4 PUSH2 0x3446 JUMP JUMPDEST SWAP2 POP PUSH2 0x57CB DUP3 PUSH2 0x5764 JUMP JUMPDEST PUSH1 0x40 DUP3 ADD SWAP1 POP SWAP2 SWAP1 POP JUMP JUMPDEST PUSH1 0x0 PUSH1 0x20 DUP3 ADD SWAP1 POP DUP2 DUP2 SUB PUSH1 0x0 DUP4 ADD MSTORE PUSH2 0x57EF DUP2 PUSH2 0x57B3 JUMP JUMPDEST SWAP1 POP SWAP2 SWAP1 POP JUMP JUMPDEST PUSH32 0x496E76616C6964206F6C6420726F6F7400000000000000000000000000000000 PUSH1 0x0 DUP3 ADD MSTORE POP JUMP JUMPDEST PUSH1 0x0 PUSH2 0x582C PUSH1 0x10 DUP4 PUSH2 0x3446 JUMP JUMPDEST SWAP2 POP PUSH2 0x5837 DUP3 PUSH2 0x57F6 JUMP JUMPDEST PUSH1 0x20 DUP3 ADD SWAP1 POP SWAP2 SWAP1 POP JUMP JUMPDEST PUSH1 0x0 PUSH1 0x20 DUP3 ADD SWAP1 POP DUP2 DUP2 SUB PUSH1 0x0 DUP4 ADD MSTORE PUSH2 0x585B DUP2 PUSH2 0x581F JUMP JUMPDEST SWAP1 POP SWAP2 SWAP1 POP JUMP JUMPDEST PUSH32 0x53657450726F636573734475726174696F6E3A206E6F7420616E2061646D696E PUSH1 0x0 DUP3 ADD MSTORE PUSH32 0x6973747261746F72000000000000000000000000000000000000000000000000 PUSH1 0x20 DUP3 ADD MSTORE POP JUMP JUMPDEST PUSH1 0x0 PUSH2 0x58BE PUSH1 0x28 DUP4 PUSH2 0x3446 JUMP JUMPDEST SWAP2 POP PUSH2 0x58C9 DUP3 PUSH2 0x5862 JUMP JUMPDEST PUSH1 0x40 DUP3 ADD SWAP1 POP SWAP2 SWAP1 POP JUMP JUMPDEST PUSH1 0x0 PUSH1 0x20 DUP3 ADD SWAP1 POP DUP2 DUP2 SUB PUSH1 0x0 DUP4 ADD MSTORE PUSH2 0x58ED DUP2 PUSH2 0x58B1 JUMP JUMPDEST SWAP1 POP SWAP2 SWAP1 POP JUMP JUMPDEST PUSH32 0x496E76616C6964206475726174696F6E00000000000000000000000000000000 PUSH1 0x0 DUP3 ADD MSTORE POP JUMP JUMPDEST PUSH1 0x0 PUSH2 0x592A PUSH1 0x10 DUP4 PUSH2 0x3446 JUMP JUMPDEST SWAP2 POP PUSH2 0x5935 DUP3 PUSH2 0x58F4 JUMP JUMPDEST PUSH1 0x20 DUP3 ADD SWAP1 POP SWAP2 SWAP1 POP JUMP JUMPDEST PUSH1 0x0 PUSH1 0x20 DUP3 ADD SWAP1 POP DUP2 DUP2 SUB PUSH1 0x0 DUP4 ADD MSTORE PUSH2 0x5959 DUP2 PUSH2 0x591D JUMP JUMPDEST SWAP1 POP SWAP2 SWAP1 POP JUMP JUMPDEST PUSH1 0x0 PUSH1 0x20 DUP3 ADD SWAP1 POP PUSH2 0x5975 PUSH1 0x0 DUP4 ADD DUP5 PUSH2 0x342C JUMP JUMPDEST SWAP3 SWAP2 POP POP JUMP JUMPDEST PUSH32 0x656E6450726F636573733A206E6F7420616E2061646D696E6973747261746F72 PUSH1 0x0 DUP3 ADD MSTORE POP JUMP JUMPDEST PUSH1 0x0 PUSH2 0x59B1 PUSH1 0x20 DUP4 PUSH2 0x3446 JUMP JUMPDEST SWAP2 POP PUSH2 0x59BC DUP3 PUSH2 0x597B JUMP JUMPDEST PUSH1 0x20 DUP3 ADD SWAP1 POP SWAP2 SWAP1 POP JUMP JUMPDEST PUSH1 0x0 PUSH1 0x20 DUP3 ADD SWAP1 POP DUP2 DUP2 SUB PUSH1 0x0 DUP4 ADD MSTORE PUSH2 0x59E0 DUP2 PUSH2 0x59A4 JUMP JUMPDEST SWAP1 POP SWAP2 SWAP1 POP JUMP JUMPDEST PUSH1 0x0 DUP2 MLOAD SWAP1 POP PUSH2 0x59F6 DUP2 PUSH2 0x3343 JUMP JUMPDEST SWAP3 SWAP2 POP POP JUMP JUMPDEST PUSH1 0x0 PUSH1 0x20 DUP3 DUP5 SUB SLT ISZERO PUSH2 0x5A12 JUMPI PUSH2 0x5A11 PUSH2 0x332F JUMP JUMPDEST JUMPDEST PUSH1 0x0 PUSH2 0x5A20 DUP5 DUP3 DUP6 ADD PUSH2 0x59E7 JUMP JUMPDEST SWAP2 POP POP SWAP3 SWAP2 POP POP JUMP JUMPDEST PUSH1 0x0 DUP2 MLOAD SWAP1 POP SWAP2 SWAP1 POP JUMP JUMPDEST PUSH1 0x0 DUP2 SWAP1 POP SWAP3 SWAP2 POP POP JUMP JUMPDEST PUSH1 0x0 PUSH2 0x5A4A DUP3 PUSH2 0x5A29 JUMP JUMPDEST PUSH2 0x5A54 DUP2 DUP6 PUSH2 0x5A34 JUMP JUMPDEST SWAP4 POP PUSH2 0x5A64 DUP2 DUP6 PUSH1 0x20 DUP7 ADD PUSH2 0x3457 JUMP JUMPDEST DUP1 DUP5 ADD SWAP2 POP POP SWAP3 SWAP2 POP POP JUMP JUMPDEST PUSH1 0x0 PUSH2 0x5A7C DUP3 DUP5 PUSH2 0x5A3F JUMP JUMPDEST SWAP2 POP DUP2 SWAP1 POP SWAP3 SWAP2 POP POP JUMP INVALID LOG2 PUSH5 0x6970667358 0x22 SLT KECCAK256 0x4E 0xED 0xE DUP5 0xA9 0xC5 MSIZE 0xC2 0xE9 0xB2 LOG0 SWAP13 MLOAD 0xCD ADDRESS 0xE8 0xB7 DUP10 0xF6 SLOAD CALLER DUP1 SLT 0xAB 0xD MSIZE ORIGIN GASPRICE MLOAD SWAP12 BLOBBASEFEE PUSH0 PUSH5 0x736F6C6343 STOP ADDMOD XOR STOP CALLER "},"methodIdentifiers":{"UPGRADE_INTERFACE_VERSION()":"ad3cb1cc","chainID()":"adc879e9","endProcess(bytes32)":"ea9bcaf6","getProcess(bytes32)":"992bc45b","initialize(string,address)":"7ab4339d","newProcess((uint8,uint8,uint256,uint256,uint8,(bool,uint256,uint256,uint256,uint256,uint256,uint256,uint256)),(uint8,uint256,bytes32,string),string,bytes32,bytes32,bytes32,bytes32)":"a96e8d2e","organizationRegistry()":"8cafab7f","owner()":"8da5cb5b","processCount()":"848df540","processes(bytes32)":"0535fece","proxiableUUID()":"52d1902d","renounceOwnership()":"715018a6","setProcessCensus(bytes32,(uint8,uint256,bytes32,string))":"6bae04ea","setProcessDuration(bytes32,uint256)":"c718c01f","setProcessResult(bytes32,uint256[],bytes)":"25402545","setProcessStatus(bytes32,uint8)":"56a6f1e2","submitStateTransition(bytes32,bytes32,bytes32,bytes)":"b66ba6eb","transferOwnership(address)":"f2fde38b","upgradeToAndCall(address,bytes)":"4f1ef286"}}}}}