{"src/verifiers/StateTransitionVerifierGroth16.sol":{"StateTransitionVerifierGroth16":{"abi":[{"inputs":[],"name":"CommitmentInvalid","type":"error"},{"inputs":[],"name":"ProofInvalid","type":"error"},{"inputs":[],"name":"PublicInputNotInField","type":"error"},{"inputs":[{"internalType":"uint256[8]","name":"proof","type":"uint256[8]"},{"internalType":"uint256[2]","name":"commitments","type":"uint256[2]"},{"internalType":"uint256[2]","name":"commitmentPok","type":"uint256[2]"}],"name":"compressProof","outputs":[{"internalType":"uint256[4]","name":"compressed","type":"uint256[4]"},{"internalType":"uint256[1]","name":"compressedCommitments","type":"uint256[1]"},{"internalType":"uint256","name":"compressedCommitmentPok","type":"uint256"}],"stateMutability":"view","type":"function"},{"inputs":[],"name":"provingKeyHash","outputs":[{"internalType":"bytes32","name":"","type":"bytes32"}],"stateMutability":"pure","type":"function"},{"inputs":[{"internalType":"uint256[4]","name":"compressedProof","type":"uint256[4]"},{"internalType":"uint256[1]","name":"compressedCommitments","type":"uint256[1]"},{"internalType":"uint256","name":"compressedCommitmentPok","type":"uint256"},{"internalType":"uint256[10]","name":"input","type":"uint256[10]"}],"name":"verifyCompressedProof","outputs":[],"stateMutability":"view","type":"function"},{"inputs":[{"internalType":"bytes","name":"_proof","type":"bytes"},{"internalType":"bytes","name":"_input","type":"bytes"}],"name":"verifyProof","outputs":[],"stateMutability":"view","type":"function"},{"inputs":[{"internalType":"uint256[8]","name":"proof","type":"uint256[8]"},{"internalType":"uint256[2]","name":"commitments","type":"uint256[2]"},{"internalType":"uint256[2]","name":"commitmentPok","type":"uint256[2]"},{"internalType":"uint256[10]","name":"input","type":"uint256[10]"}],"name":"verifyProof","outputs":[],"stateMutability":"view","type":"function"}],"evm":{"bytecode":{"linkReferences":{},"object":"6080604052348015600e575f5ffd5b506122848061001c5f395ff3fe608060405234801561000f575f5ffd5b5060043610610055575f3560e01c8063233ace1114610059578063b1c3a00e1461008c578063b8e72af6146100ae578063dc37819a146100c3578063df078bef146100d6575b5f5ffd5b6040517fd23175772c31d24fc1039da8194f481b89b420d75b82192f0ad0b2ad66da52b281526020015b60405180910390f35b61009f61009a366004611c7f565b6100e9565b60405161008393929190611cc5565b6100c16100bc366004611d6b565b610171565b005b6100c16100d1366004611de8565b6101f3565b6100c16100e4366004611e3d565b610760565b6100f1611ba7565b6100f9611bc5565b5f61010d86358760015b6020020135610c0d565b835261012b6060870135604088013560a089013560808a0135610cfa565b6020850152604084015261014560c0870135876007610103565b60608401526101578535866001610103565b82526101668435856001610103565b905093509350939050565b5f5f5f61017e8787610fd3565b9250925092505f61018f8686611004565b505060405163df078bef60e01b8152909150309063df078bef906101bd908790879087908790600401611ec7565b5f6040518083038186803b1580156101d3575f5ffd5b505afa1580156101e5573d5f5f3e3d5ffd5b505050505050505050505050565b6101fb611bc5565b610203611be3565b61020b611c01565b61021b865f5b602002013561101b565b602084015282525f8061022d8761101b565b60408051600580825260c08201909252929450909250606091906020820160a080368337019050509050602080820190604089018237608060c0890160208301375084516020808701516040515f51602061222f5f395f51905f529361029893909291869101611f55565b604051602081830303815290604052805190602001205f1c6102ba9190611faa565b865284518452602085810151858201527f2b71f483568229768a69da7e698972477f2e3542d4b495d0eb993e3847a566856040808701919091527f26bafb5a85d2dbd50000d08c33f1469c79b26a89826520f9ff975ad96b211ffb60608701527f2e7c08c0cbc9370df848e1bb9c4ef71c7658a55ae26b712c6f6196732f11469660808701527f0c8794566f2ee51e99fb8ce36cd1f37d8f1a14ddf2b2c3ee5754b08b623c05d560a087015260c0860185905260e086018490527f254db2e9700c2423d850234288cf96924440e71140f82503393a0b22e3b6ae656101008701527f28328f51a3fa4ddbbc83eb6b8f472e410e096b950f4833ca93ec3dbb42d15d606101208701527f2d701346b24558ab81687d7d34a24396676040c669328519fecd648bbf3abc8d6101408701527f06836192d1e46d45adc7ebbab6e238dc4f8efd52404bb8363c098a92e68188ec610160870152515f91816101808860085afa90511690508061043f576040516351d49ff760e11b815260040160405180910390fd5b505050505f5f61045a895f6004811061021157610211611e8b565b90925090505f80808061047560408e013560208f01356110ba565b929650909450925090505f8061048c8f6003610211565b915091505f5f61049d8e8e8e61128e565b8b8d5260208d018b905260408d0189905260608d018a905260808d0187905260a08d0188905260c08d0186905260e08d018590527f1640030e1fa5aa0eedcce10297946856de426ea8fb18aad3e3b8d07df4b5e6f26101008e01527f1535472265363417848ec0efefb82d81e6f25d7218862a1a679dcfdf55c40f7f6101208e01527f2d0ec60e06a2e51cc2259493d46fb470af39a7e17ab9b2b98b528db4fd848b046101408e01527f17965ec004b8ec1b9b18d261fc673de88408f71fe079d7ee703c3d514f3c8a8b6101608e01527f04d6b7ad212268e819bb7bacd10c5944ad07bbb36e9dc3612d3f37f60ce0397a6101808e01527f1e4a8ef31f5c4db2eeed6c6546231667706ec6fd96227540c3a17c4cad510e8f6101a08e01527f0394475b99283702e6ccfaba92deb124a5c16662671d2b1f8f21ec595c046af66101c08e01527f3001f8d6f84ff942ff43daf811bbde4f601824e660ded326ffae517ef896ba4e6101e08e01527f25954d648f0d013f8e07766ae41411f3670872369105612c2edd8490861d5ed26102008e01527f11f0c42554cfddb592b8e19b5a9a6b2d80e4ac2c370f82dcae4535d53352c5a86102208e01526102408d018290526102608d018190527f20236b938a08f04c7665ad412cc08f040435f06e4303373fa562250a0221ee456102808e01527f0f541b7d2ab22298931832ad41c126b9a272494b81ef7d2f9d696e7a2cef58706102a08e01527f1c09a02f7e485d145fc533ce9fe9da3cabcf19fbd96d52d4f84b0f89cdc4fd516102c08e01527f1bf044c92252e420f3aef6da1aa03eeb895df2e28ae2023cf1e43aab2c153c8c6102e08e015290925090505f610711611bc5565b6020816103008f60085afa915081158061072d57508051600114155b1561074b57604051631ff3747d60e21b815260040160405180910390fd5b50505050505050505050505050505050505050565b610768611bc5565b60408051600580825260c082019092526060916020820160a080368337019050509050602080820190604085018237608060c085016020830137506040515f51602061222f5f395f51905f52906107cb908735906020808a013591869101611f55565b604051602081830303815290604052805190602001205f1c6107ed9190611faa565b8252604080515f918782377f2b71f483568229768a69da7e698972477f2e3542d4b495d0eb993e3847a5668560408201527f26bafb5a85d2dbd50000d08c33f1469c79b26a89826520f9ff975ad96b211ffb60608201527f2e7c08c0cbc9370df848e1bb9c4ef71c7658a55ae26b712c6f6196732f11469660808201527f0c8794566f2ee51e99fb8ce36cd1f37d8f1a14ddf2b2c3ee5754b08b623c05d560a082015260408660c08301377f254db2e9700c2423d850234288cf96924440e71140f82503393a0b22e3b6ae656101008201527f28328f51a3fa4ddbbc83eb6b8f472e410e096b950f4833ca93ec3dbb42d15d606101208201527f2d701346b24558ab81687d7d34a24396676040c669328519fecd648bbf3abc8d6101408201527f06836192d1e46d45adc7ebbab6e238dc4f8efd52404bb8363c098a92e68188ec6101608201526020816101808360085afa905116905080610962576040516351d49ff760e11b815260040160405180910390fd5b5f5f61099786868a60028060200260405190810160405280929190826002602002808284375f9201919091525061128e915050565b915091506040516101008a82377f1640030e1fa5aa0eedcce10297946856de426ea8fb18aad3e3b8d07df4b5e6f26101008201527f1535472265363417848ec0efefb82d81e6f25d7218862a1a679dcfdf55c40f7f6101208201527f2d0ec60e06a2e51cc2259493d46fb470af39a7e17ab9b2b98b528db4fd848b046101408201527f17965ec004b8ec1b9b18d261fc673de88408f71fe079d7ee703c3d514f3c8a8b6101608201527f04d6b7ad212268e819bb7bacd10c5944ad07bbb36e9dc3612d3f37f60ce0397a6101808201527f1e4a8ef31f5c4db2eeed6c6546231667706ec6fd96227540c3a17c4cad510e8f6101a08201527f0394475b99283702e6ccfaba92deb124a5c16662671d2b1f8f21ec595c046af66101c08201527f3001f8d6f84ff942ff43daf811bbde4f601824e660ded326ffae517ef896ba4e6101e08201527f25954d648f0d013f8e07766ae41411f3670872369105612c2edd8490861d5ed26102008201527f11f0c42554cfddb592b8e19b5a9a6b2d80e4ac2c370f82dcae4535d53352c5a861022082015282610240820152816102608201527f20236b938a08f04c7665ad412cc08f040435f06e4303373fa562250a0221ee456102808201527f0f541b7d2ab22298931832ad41c126b9a272494b81ef7d2f9d696e7a2cef58706102a08201527f1c09a02f7e485d145fc533ce9fe9da3cabcf19fbd96d52d4f84b0f89cdc4fd516102c08201527f1bf044c92252e420f3aef6da1aa03eeb895df2e28ae2023cf1e43aab2c153c8c6102e08201526020816103008360085afa905116925082610c0257604051631ff3747d60e21b815260040160405180910390fd5b505050505050505050565b5f5f51602061220f5f395f51905f5283101580610c3757505f51602061220f5f395f51905f528210155b15610c5557604051631ff3747d60e21b815260040160405180910390fd5b82158015610c61575081155b15610c6d57505f610cf4565b5f610ca85f51602061220f5f395f51905f5260035f51602061220f5f395f51905f52875f51602061220f5f395f51905f52898a0909086118f1565b9050808303610cbd575050600182901b610cf4565b610cc681611953565b8303610cd9575050600182811b17610cf4565b604051631ff3747d60e21b815260040160405180910390fd5b505b92915050565b5f5f5f51602061220f5f395f51905f5286101580610d2557505f51602061220f5f395f51905f528510155b80610d3d57505f51602061220f5f395f51905f528410155b80610d5557505f51602061220f5f395f51905f528310155b15610d7357604051631ff3747d60e21b815260040160405180910390fd5b828486881717175f03610d8a57505f905080610fca565b5f80805f51602061220f5f395f51905f52610db360035f51602061220f5f395f51905f52611fc9565b5f51602061220f5f395f51905f528a8c090990505f5f51602061220f5f395f51905f528a5f51602061220f5f395f51905f528c8d090990505f5f51602061220f5f395f51905f528a5f51602061220f5f395f51905f528c8d090990505f51602061220f5f395f51905f52805f51602061220f5f395f51905f528c860984087f2b149d40ceb8aaae81be18991be06ac3b5b4c5e559dbefa33267e6dc24a138e5089450610ea15f51602061220f5f395f51905f52805f51602061220f5f395f51905f528e870984087f2fcd3ac2a640a154eb23960892a85a68f031ca0c8344b23a577dcf1052b9e77508611953565b93505050505f5f610eee5f51602061220f5f395f51905f5280610ec657610ec6611f96565b5f51602061220f5f395f51905f528586095f51602061220f5f395f51905f52878809086118f1565b9050610f395f51602061220f5f395f51905f527f183227397098d014dc2822db40c0ac2ecbc0b548b438e5469e10460b6c3e7ea45f51602061220f5f395f51905f528488080961196b565b15915050610f488383836119b3565b90935091508683148015610f5b57508186145b15610f835780610f6b575f610f6e565b60025b60ff1660028a901b175f179450879350610fc6565b610f8c83611953565b87148015610fa15750610f9e82611953565b86145b15610cd95780610fb1575f610fb4565b60025b60ff1660028a901b1760011794508793505b5050505b94509492505050565b610fdb611c20565b610fe3611be3565b610feb611be3565b610ff78486018661206b565b9250925092509250925092565b61100c611c3f565b606080610ff784860186612156565b5f5f825f0361102e57505f928392509050565b600183811c9250808416145f51602061220f5f395f51905f52831061106657604051631ff3747d60e21b815260040160405180910390fd5b6110a05f51602061220f5f395f51905f5260035f51602061220f5f395f51905f52865f51602061220f5f395f51905f5288890909086118f1565b915080156110b4576110b182611953565b91505b50915091565b5f808080851580156110ca575084155b156110df57505f925082915081905080611285565b600286811c945085935060018088161490808816145f51602061220f5f395f51905f528610158061111d57505f51602061220f5f395f51905f528510155b1561113b57604051631ff3747d60e21b815260040160405180910390fd5b5f5f51602061220f5f395f51905f5261116260035f51602061220f5f395f51905f52611fc9565b5f51602061220f5f395f51905f52888a090990505f5f51602061220f5f395f51905f52885f51602061220f5f395f51905f528a8b090990505f5f51602061220f5f395f51905f52885f51602061220f5f395f51905f528a8b090990505f51602061220f5f395f51905f52805f51602061220f5f395f51905f528a860984087f2b149d40ceb8aaae81be18991be06ac3b5b4c5e559dbefa33267e6dc24a138e50896506112505f51602061220f5f395f51905f52805f51602061220f5f395f51905f528c870984087f2fcd3ac2a640a154eb23960892a85a68f031ca0c8344b23a577dcf1052b9e77508611953565b955061125d8787866119b3565b9097509550841561127f5761127187611953565b965061127c86611953565b95505b50505050505b92959194509250565b5f5f5f60019050604051604081015f7f297ceb82bdfe8db334f6b543f9559ec25ca0f4d004994ad6dec0917c63f0d8aa83527f03e50ce2ab1556ffed2b8450ff49763ca548877bad5f8f56445f0d3be1b4bae86020840152865182526020870151602083015260408360808560065afa841693507f13a8982abb12cd59bc6264241cade3864edd5adbbf598c657610806ceaff573b82527f193f31ff52e1cdfa10fc7aaac2f40b1760c7057edab4aab79bcd20d8703b1c866020830152883590508060408301525f51602061222f5f395f51905f5281108416935060408260608460075afa8416935060408360808560065afa841693507f08a881fffaa8323634fc86e3c0dba693e27fb8a2a819d44670ea721fc61396bf82527f1cafea2789eec4b42aab039bd039299d25249f07bb5e749c1f76cc180ce0a2e66020830152602089013590508060408301525f51602061222f5f395f51905f5281108416935060408260608460075afa8416935060408360808560065afa841693507f159b86157f61e0c9360cf00ee256117ea6454973174d5a9204ab87e190a8453182527f2bf78f17af3642cc02387e12eb43fb6fe61c4d4fd265ea26e5f4c2c650f2aa226020830152604089013590508060408301525f51602061222f5f395f51905f5281108416935060408260608460075afa8416935060408360808560065afa841693507f1d93cd620c0f05e1b8ad622666fd6b03a7c61b52cd1d13f522cea88aa9fcb6e582527f2eb3957fa77085bda6fd17d0c3d64dfedbb8aa8cc6b569defe59c0fa18499e656020830152606089013590508060408301525f51602061222f5f395f51905f5281108416935060408260608460075afa8416935060408360808560065afa841693507f29a1fbbe6fcdd3163626722d04013639284b256888b91ab984d8424eebffccf582527f03982a556954f90fa1fa29c443aab9c371392d8606dc8e426ef74846f783bc0d6020830152608089013590508060408301525f51602061222f5f395f51905f5281108416935060408260608460075afa8416935060408360808560065afa841693507f24cf8a1646e52613bc8b5823df74f95f62563836d673500b2675a9bc101d645c82527f281e4773ef450e3e7fc78b811ef425377757530d8bcac1288297b29e994bd0e8602083015260a089013590508060408301525f51602061222f5f395f51905f5281108416935060408260608460075afa8416935060408360808560065afa841693507f0bd46762be872b588ae6273cce667445800e9b695e2ac2773743c4e5c5f9e48082527f25fb52129e50bb23eaccbfc6b94134fb7f49ae274f7b2610e38cefad1db1a269602083015260c089013590508060408301525f51602061222f5f395f51905f5281108416935060408260608460075afa8416935060408360808560065afa841693507f2a29c157cb2c1dd9e42d82ae6a2be99baa7853ab63b5816743bcf2173b50698b82527eceeb858088daa1cd5866686880e3fc9b4023b51e282f991d9544422a9fa00d602083015260e089013590508060408301525f51602061222f5f395f51905f5281108416935060408260608460075afa8416935060408360808560065afa841693507f2e46dec21f6fbf78c35c68c620e7a8f89a9121136e93b2c71c3b534585c1e90c82527f1383dae2a97927d456a1a86b962f707cc8e5b7b46086e76141eb3d692a79f969602083015261010089013590508060408301525f51602061222f5f395f51905f5281108416935060408260608460075afa8416935060408360808560065afa841693507f2f71b71dbf209f5470a44bfc507edacdffcf87b36dd638afca87002118c8876282527f0f6fca30737c4bb639bd8830ddefc8357c187597b3d96de8c7634c11217a0655602083015261012089013590508060408301525f51602061222f5f395f51905f5281108416935060408260608460075afa8416935060408360808560065afa7f0fb126a6fba958d6b39180b4d8eae22408207d5967042a99909060ba975edd0183527f07850edfddb48b7a9ff6c5dfb3ad8c95c49e160f6b265d985bb8e23d5db57e2a6020840152885160408085018290525f51602061222f5f395f51905f5290911091909516169390508160608160075afa831692505060408160808360065afa815160209092015191945090925016806118e85760405163a54f8e2760e01b815260040160405180910390fd5b50935093915050565b5f61191c827f0c19139cb84c680a6e14116da060561765e05aa45a1c72a34f082305b61f3f52611ae6565b9050815f51602061220f5f395f51905f528283091461194e57604051631ff3747d60e21b815260040160405180910390fd5b919050565b5f51602061220f5f395f51905f529081900681030690565b5f5f611997837f0c19139cb84c680a6e14116da060561765e05aa45a1c72a34f082305b61f3f52611ae6565b9050825f51602061220f5f395f51905f52828309149392505050565b5f80806119e25f51602061220f5f395f51905f52808788095f51602061220f5f395f51905f52898a09086118f1565b905083156119f6576119f381611953565b90505b611a3f5f51602061220f5f395f51905f527f183227397098d014dc2822db40c0ac2ecbc0b548b438e5469e10460b6c3e7ea45f51602061220f5f395f51905f52848a08096118f1565b92505f51602061220f5f395f51905f52611a695f51602061220f5f395f51905f5260028609611b49565b860991505f51602061220f5f395f51905f52611a945f51602061220f5f395f51905f52848509611953565b5f51602061220f5f395f51905f528586090886141580611ac857505f51602061220f5f395f51905f52808385096002098514155b156118e857604051631ff3747d60e21b815260040160405180910390fd5b5f5f60405160208152602080820152602060408201528460608201528360808201525f51602061220f5f395f51905f5260a082015260208160c08360055afa90519250905080610cf257604051631ff3747d60e21b815260040160405180910390fd5b5f611b74827f30644e72e131a029b85045b68181585d97816a916871ca8d3c208c16d87cfd45611ae6565b90505f51602061220f5f395f51905f5281830960011461194e57604051631ff3747d60e21b815260040160405180910390fd5b60405180608001604052806004906020820280368337509192915050565b60405180602001604052806001906020820280368337509192915050565b60405180604001604052806002906020820280368337509192915050565b6040518061030001604052806018906020820280368337509192915050565b6040518061010001604052806008906020820280368337509192915050565b604051806101400160405280600a906020820280368337509192915050565b806101008101831015610cf4575f5ffd5b8060408101831015610cf4575f5ffd5b5f5f5f6101808486031215611c92575f5ffd5b611c9c8585611c5e565b9250611cac856101008601611c6f565b9150611cbc856101408601611c6f565b90509250925092565b60c0810181855f5b6004811015611cec578151835260209283019290910190600101611ccd565b50505060808201845f5b6001811015611d15578151835260209283019290910190600101611cf6565b5050508260a0830152949350505050565b5f5f83601f840112611d36575f5ffd5b50813567ffffffffffffffff811115611d4d575f5ffd5b602083019150836020828501011115611d64575f5ffd5b9250929050565b5f5f5f5f60408587031215611d7e575f5ffd5b843567ffffffffffffffff811115611d94575f5ffd5b611da087828801611d26565b909550935050602085013567ffffffffffffffff811115611dbf575f5ffd5b611dcb87828801611d26565b95989497509550505050565b806101408101831015610cf4575f5ffd5b5f5f5f5f6102008587031215611dfc575f5ffd5b6080850186811115611e0c575f5ffd5b85945060a0860187811115611e1f575f5ffd5b909350359150611e328660c08701611dd7565b905092959194509250565b5f5f5f5f6102c08587031215611e51575f5ffd5b611e5b8686611c5e565b9350611e6b866101008701611c6f565b9250611e7b866101408701611c6f565b9150611e32866101808701611dd7565b634e487b7160e01b5f52603260045260245ffd5b805f5b6002811015611ec1578151845260209384019390910190600101611ea2565b50505050565b6102c0810181865f5b6008811015611eef578151835260209283019290910190600101611ed0565b505050611f00610100830186611e9f565b611f0e610140830185611e9f565b6101808201835f5b600a811015611f35578151835260209283019290910190600101611f16565b50505095945050505050565b634e487b7160e01b5f52604160045260245ffd5b8381528260208201525f604082018351602085015f5b82811015611f89578151845260209384019390910190600101611f6b565b5091979650505050505050565b634e487b7160e01b5f52601260045260245ffd5b5f82611fc457634e487b7160e01b5f52601260045260245ffd5b500690565b81810381811115610cf457634e487b7160e01b5f52601160045260245ffd5b604051601f8201601f1916810167ffffffffffffffff8111828210171561201157612011611f41565b604052919050565b5f82601f830112612028575f5ffd5b5f6120336040611fe8565b9050806040840185811115612046575f5ffd5b845b81811015612060578035835260209283019201612048565b509195945050505050565b5f5f5f610180848603121561207e575f5ffd5b5f85601f86011261208d575f5ffd5b505f8061010061209c81611fe8565b92508291508601878111156120af575f5ffd5b865b818110156120c95780358452602093840193016120b1565b508195506120d78882612019565b9450505050611cbc856101408601612019565b5f82601f8301126120f9575f5ffd5b813567ffffffffffffffff81111561211357612113611f41565b612126601f8201601f1916602001611fe8565b81815284602083860101111561213a575f5ffd5b816020850160208301375f918101602001919091529392505050565b5f5f5f6101808486031215612169575f5ffd5b5f85601f860112612178575f5ffd5b505f8061014061218781611fe8565b925082915086018781111561219a575f5ffd5b865b818110156121b457803584526020938401930161219c565b5090945035905067ffffffffffffffff8111156121cf575f5ffd5b6121db868287016120ea565b92505061016084013567ffffffffffffffff8111156121f8575f5ffd5b612204868287016120ea565b915050925092509256fe30644e72e131a029b85045b68181585d97816a916871ca8d3c208c16d87cfd4730644e72e131a029b85045b68181585d2833e84879b9709143e1f593f0000001a2646970667358221220c7896b165bc26182c562a9df9e98bfe30785708bc7c48439921fe661d2eb638d64736f6c634300081c0033","opcodes":"PUSH1 0x80 PUSH1 0x40 MSTORE CALLVALUE DUP1 ISZERO PUSH1 0xE JUMPI PUSH0 PUSH0 REVERT JUMPDEST POP PUSH2 0x2284 DUP1 PUSH2 0x1C PUSH0 CODECOPY PUSH0 RETURN INVALID PUSH1 0x80 PUSH1 0x40 MSTORE CALLVALUE DUP1 ISZERO PUSH2 0xF JUMPI PUSH0 PUSH0 REVERT JUMPDEST POP PUSH1 0x4 CALLDATASIZE LT PUSH2 0x55 JUMPI PUSH0 CALLDATALOAD PUSH1 0xE0 SHR DUP1 PUSH4 0x233ACE11 EQ PUSH2 0x59 JUMPI DUP1 PUSH4 0xB1C3A00E EQ PUSH2 0x8C JUMPI DUP1 PUSH4 0xB8E72AF6 EQ PUSH2 0xAE JUMPI DUP1 PUSH4 0xDC37819A EQ PUSH2 0xC3 JUMPI DUP1 PUSH4 0xDF078BEF EQ PUSH2 0xD6 JUMPI JUMPDEST PUSH0 PUSH0 REVERT JUMPDEST PUSH1 0x40 MLOAD PUSH32 0xD23175772C31D24FC1039DA8194F481B89B420D75B82192F0AD0B2AD66DA52B2 DUP2 MSTORE PUSH1 0x20 ADD JUMPDEST PUSH1 0x40 MLOAD DUP1 SWAP2 SUB SWAP1 RETURN JUMPDEST PUSH2 0x9F PUSH2 0x9A CALLDATASIZE PUSH1 0x4 PUSH2 0x1C7F JUMP JUMPDEST PUSH2 0xE9 JUMP JUMPDEST PUSH1 0x40 MLOAD PUSH2 0x83 SWAP4 SWAP3 SWAP2 SWAP1 PUSH2 0x1CC5 JUMP JUMPDEST PUSH2 0xC1 PUSH2 0xBC CALLDATASIZE PUSH1 0x4 PUSH2 0x1D6B JUMP JUMPDEST PUSH2 0x171 JUMP JUMPDEST STOP JUMPDEST PUSH2 0xC1 PUSH2 0xD1 CALLDATASIZE PUSH1 0x4 PUSH2 0x1DE8 JUMP JUMPDEST PUSH2 0x1F3 JUMP JUMPDEST PUSH2 0xC1 PUSH2 0xE4 CALLDATASIZE PUSH1 0x4 PUSH2 0x1E3D JUMP JUMPDEST PUSH2 0x760 JUMP JUMPDEST PUSH2 0xF1 PUSH2 0x1BA7 JUMP JUMPDEST PUSH2 0xF9 PUSH2 0x1BC5 JUMP JUMPDEST PUSH0 PUSH2 0x10D DUP7 CALLDATALOAD DUP8 PUSH1 0x1 JUMPDEST PUSH1 0x20 MUL ADD CALLDATALOAD PUSH2 0xC0D JUMP JUMPDEST DUP4 MSTORE PUSH2 0x12B PUSH1 0x60 DUP8 ADD CALLDATALOAD PUSH1 0x40 DUP9 ADD CALLDATALOAD PUSH1 0xA0 DUP10 ADD CALLDATALOAD PUSH1 0x80 DUP11 ADD CALLDATALOAD PUSH2 0xCFA JUMP JUMPDEST PUSH1 0x20 DUP6 ADD MSTORE PUSH1 0x40 DUP5 ADD MSTORE PUSH2 0x145 PUSH1 0xC0 DUP8 ADD CALLDATALOAD DUP8 PUSH1 0x7 PUSH2 0x103 JUMP JUMPDEST PUSH1 0x60 DUP5 ADD MSTORE PUSH2 0x157 DUP6 CALLDATALOAD DUP7 PUSH1 0x1 PUSH2 0x103 JUMP JUMPDEST DUP3 MSTORE PUSH2 0x166 DUP5 CALLDATALOAD DUP6 PUSH1 0x1 PUSH2 0x103 JUMP JUMPDEST SWAP1 POP SWAP4 POP SWAP4 POP SWAP4 SWAP1 POP JUMP JUMPDEST PUSH0 PUSH0 PUSH0 PUSH2 0x17E DUP8 DUP8 PUSH2 0xFD3 JUMP JUMPDEST SWAP3 POP SWAP3 POP SWAP3 POP PUSH0 PUSH2 0x18F DUP7 DUP7 PUSH2 0x1004 JUMP JUMPDEST POP POP PUSH1 0x40 MLOAD PUSH4 0xDF078BEF PUSH1 0xE0 SHL DUP2 MSTORE SWAP1 SWAP2 POP ADDRESS SWAP1 PUSH4 0xDF078BEF SWAP1 PUSH2 0x1BD SWAP1 DUP8 SWAP1 DUP8 SWAP1 DUP8 SWAP1 DUP8 SWAP1 PUSH1 0x4 ADD PUSH2 0x1EC7 JUMP JUMPDEST PUSH0 PUSH1 0x40 MLOAD DUP1 DUP4 SUB DUP2 DUP7 DUP1 EXTCODESIZE ISZERO DUP1 ISZERO PUSH2 0x1D3 JUMPI PUSH0 PUSH0 REVERT JUMPDEST POP GAS STATICCALL ISZERO DUP1 ISZERO PUSH2 0x1E5 JUMPI RETURNDATASIZE PUSH0 PUSH0 RETURNDATACOPY RETURNDATASIZE PUSH0 REVERT JUMPDEST POP POP POP POP POP POP POP POP POP POP POP POP JUMP JUMPDEST PUSH2 0x1FB PUSH2 0x1BC5 JUMP JUMPDEST PUSH2 0x203 PUSH2 0x1BE3 JUMP JUMPDEST PUSH2 0x20B PUSH2 0x1C01 JUMP JUMPDEST PUSH2 0x21B DUP7 PUSH0 JUMPDEST PUSH1 0x20 MUL ADD CALLDATALOAD PUSH2 0x101B JUMP JUMPDEST PUSH1 0x20 DUP5 ADD MSTORE DUP3 MSTORE PUSH0 DUP1 PUSH2 0x22D DUP8 PUSH2 0x101B JUMP JUMPDEST PUSH1 0x40 DUP1 MLOAD PUSH1 0x5 DUP1 DUP3 MSTORE PUSH1 0xC0 DUP3 ADD SWAP1 SWAP3 MSTORE SWAP3 SWAP5 POP SWAP1 SWAP3 POP PUSH1 0x60 SWAP2 SWAP1 PUSH1 0x20 DUP3 ADD PUSH1 0xA0 DUP1 CALLDATASIZE DUP4 CALLDATACOPY ADD SWAP1 POP POP SWAP1 POP PUSH1 0x20 DUP1 DUP3 ADD SWAP1 PUSH1 0x40 DUP10 ADD DUP3 CALLDATACOPY PUSH1 0x80 PUSH1 0xC0 DUP10 ADD PUSH1 0x20 DUP4 ADD CALLDATACOPY POP DUP5 MLOAD PUSH1 0x20 DUP1 DUP8 ADD MLOAD PUSH1 0x40 MLOAD PUSH0 MLOAD PUSH1 0x20 PUSH2 0x222F PUSH0 CODECOPY PUSH0 MLOAD SWAP1 PUSH0 MSTORE SWAP4 PUSH2 0x298 SWAP4 SWAP1 SWAP3 SWAP2 DUP7 SWAP2 ADD PUSH2 0x1F55 JUMP JUMPDEST PUSH1 0x40 MLOAD PUSH1 0x20 DUP2 DUP4 SUB SUB DUP2 MSTORE SWAP1 PUSH1 0x40 MSTORE DUP1 MLOAD SWAP1 PUSH1 0x20 ADD KECCAK256 PUSH0 SHR PUSH2 0x2BA SWAP2 SWAP1 PUSH2 0x1FAA JUMP JUMPDEST DUP7 MSTORE DUP5 MLOAD DUP5 MSTORE PUSH1 0x20 DUP6 DUP2 ADD MLOAD DUP6 DUP3 ADD MSTORE PUSH32 0x2B71F483568229768A69DA7E698972477F2E3542D4B495D0EB993E3847A56685 PUSH1 0x40 DUP1 DUP8 ADD SWAP2 SWAP1 SWAP2 MSTORE PUSH32 0x26BAFB5A85D2DBD50000D08C33F1469C79B26A89826520F9FF975AD96B211FFB PUSH1 0x60 DUP8 ADD MSTORE PUSH32 0x2E7C08C0CBC9370DF848E1BB9C4EF71C7658A55AE26B712C6F6196732F114696 PUSH1 0x80 DUP8 ADD MSTORE PUSH32 0xC8794566F2EE51E99FB8CE36CD1F37D8F1A14DDF2B2C3EE5754B08B623C05D5 PUSH1 0xA0 DUP8 ADD MSTORE PUSH1 0xC0 DUP7 ADD DUP6 SWAP1 MSTORE PUSH1 0xE0 DUP7 ADD DUP5 SWAP1 MSTORE PUSH32 0x254DB2E9700C2423D850234288CF96924440E71140F82503393A0B22E3B6AE65 PUSH2 0x100 DUP8 ADD MSTORE PUSH32 0x28328F51A3FA4DDBBC83EB6B8F472E410E096B950F4833CA93EC3DBB42D15D60 PUSH2 0x120 DUP8 ADD MSTORE PUSH32 0x2D701346B24558AB81687D7D34A24396676040C669328519FECD648BBF3ABC8D PUSH2 0x140 DUP8 ADD MSTORE PUSH32 0x6836192D1E46D45ADC7EBBAB6E238DC4F8EFD52404BB8363C098A92E68188EC PUSH2 0x160 DUP8 ADD MSTORE MLOAD PUSH0 SWAP2 DUP2 PUSH2 0x180 DUP9 PUSH1 0x8 GAS STATICCALL SWAP1 MLOAD AND SWAP1 POP DUP1 PUSH2 0x43F JUMPI PUSH1 0x40 MLOAD PUSH4 0x51D49FF7 PUSH1 0xE1 SHL DUP2 MSTORE PUSH1 0x4 ADD PUSH1 0x40 MLOAD DUP1 SWAP2 SUB SWAP1 REVERT JUMPDEST POP POP POP POP PUSH0 PUSH0 PUSH2 0x45A DUP10 PUSH0 PUSH1 0x4 DUP2 LT PUSH2 0x211 JUMPI PUSH2 0x211 PUSH2 0x1E8B JUMP JUMPDEST SWAP1 SWAP3 POP SWAP1 POP PUSH0 DUP1 DUP1 DUP1 PUSH2 0x475 PUSH1 0x40 DUP15 ADD CALLDATALOAD PUSH1 0x20 DUP16 ADD CALLDATALOAD PUSH2 0x10BA JUMP JUMPDEST SWAP3 SWAP7 POP SWAP1 SWAP5 POP SWAP3 POP SWAP1 POP PUSH0 DUP1 PUSH2 0x48C DUP16 PUSH1 0x3 PUSH2 0x211 JUMP JUMPDEST SWAP2 POP SWAP2 POP PUSH0 PUSH0 PUSH2 0x49D DUP15 DUP15 DUP15 PUSH2 0x128E JUMP JUMPDEST DUP12 DUP14 MSTORE PUSH1 0x20 DUP14 ADD DUP12 SWAP1 MSTORE PUSH1 0x40 DUP14 ADD DUP10 SWAP1 MSTORE PUSH1 0x60 DUP14 ADD DUP11 SWAP1 MSTORE PUSH1 0x80 DUP14 ADD DUP8 SWAP1 MSTORE PUSH1 0xA0 DUP14 ADD DUP9 SWAP1 MSTORE PUSH1 0xC0 DUP14 ADD DUP7 SWAP1 MSTORE PUSH1 0xE0 DUP14 ADD DUP6 SWAP1 MSTORE PUSH32 0x1640030E1FA5AA0EEDCCE10297946856DE426EA8FB18AAD3E3B8D07DF4B5E6F2 PUSH2 0x100 DUP15 ADD MSTORE PUSH32 0x1535472265363417848EC0EFEFB82D81E6F25D7218862A1A679DCFDF55C40F7F PUSH2 0x120 DUP15 ADD MSTORE PUSH32 0x2D0EC60E06A2E51CC2259493D46FB470AF39A7E17AB9B2B98B528DB4FD848B04 PUSH2 0x140 DUP15 ADD MSTORE PUSH32 0x17965EC004B8EC1B9B18D261FC673DE88408F71FE079D7EE703C3D514F3C8A8B PUSH2 0x160 DUP15 ADD MSTORE PUSH32 0x4D6B7AD212268E819BB7BACD10C5944AD07BBB36E9DC3612D3F37F60CE0397A PUSH2 0x180 DUP15 ADD MSTORE PUSH32 0x1E4A8EF31F5C4DB2EEED6C6546231667706EC6FD96227540C3A17C4CAD510E8F PUSH2 0x1A0 DUP15 ADD MSTORE PUSH32 0x394475B99283702E6CCFABA92DEB124A5C16662671D2B1F8F21EC595C046AF6 PUSH2 0x1C0 DUP15 ADD MSTORE PUSH32 0x3001F8D6F84FF942FF43DAF811BBDE4F601824E660DED326FFAE517EF896BA4E PUSH2 0x1E0 DUP15 ADD MSTORE PUSH32 0x25954D648F0D013F8E07766AE41411F3670872369105612C2EDD8490861D5ED2 PUSH2 0x200 DUP15 ADD MSTORE PUSH32 0x11F0C42554CFDDB592B8E19B5A9A6B2D80E4AC2C370F82DCAE4535D53352C5A8 PUSH2 0x220 DUP15 ADD MSTORE PUSH2 0x240 DUP14 ADD DUP3 SWAP1 MSTORE PUSH2 0x260 DUP14 ADD DUP2 SWAP1 MSTORE PUSH32 0x20236B938A08F04C7665AD412CC08F040435F06E4303373FA562250A0221EE45 PUSH2 0x280 DUP15 ADD MSTORE PUSH32 0xF541B7D2AB22298931832AD41C126B9A272494B81EF7D2F9D696E7A2CEF5870 PUSH2 0x2A0 DUP15 ADD MSTORE PUSH32 0x1C09A02F7E485D145FC533CE9FE9DA3CABCF19FBD96D52D4F84B0F89CDC4FD51 PUSH2 0x2C0 DUP15 ADD MSTORE PUSH32 0x1BF044C92252E420F3AEF6DA1AA03EEB895DF2E28AE2023CF1E43AAB2C153C8C PUSH2 0x2E0 DUP15 ADD MSTORE SWAP1 SWAP3 POP SWAP1 POP PUSH0 PUSH2 0x711 PUSH2 0x1BC5 JUMP JUMPDEST PUSH1 0x20 DUP2 PUSH2 0x300 DUP16 PUSH1 0x8 GAS STATICCALL SWAP2 POP DUP2 ISZERO DUP1 PUSH2 0x72D JUMPI POP DUP1 MLOAD PUSH1 0x1 EQ ISZERO JUMPDEST ISZERO PUSH2 0x74B JUMPI PUSH1 0x40 MLOAD PUSH4 0x1FF3747D PUSH1 0xE2 SHL DUP2 MSTORE PUSH1 0x4 ADD PUSH1 0x40 MLOAD DUP1 SWAP2 SUB SWAP1 REVERT JUMPDEST POP POP POP POP POP POP POP POP POP POP POP POP POP POP POP POP POP POP POP JUMP JUMPDEST PUSH2 0x768 PUSH2 0x1BC5 JUMP JUMPDEST PUSH1 0x40 DUP1 MLOAD PUSH1 0x5 DUP1 DUP3 MSTORE PUSH1 0xC0 DUP3 ADD SWAP1 SWAP3 MSTORE PUSH1 0x60 SWAP2 PUSH1 0x20 DUP3 ADD PUSH1 0xA0 DUP1 CALLDATASIZE DUP4 CALLDATACOPY ADD SWAP1 POP POP SWAP1 POP PUSH1 0x20 DUP1 DUP3 ADD SWAP1 PUSH1 0x40 DUP6 ADD DUP3 CALLDATACOPY PUSH1 0x80 PUSH1 0xC0 DUP6 ADD PUSH1 0x20 DUP4 ADD CALLDATACOPY POP PUSH1 0x40 MLOAD PUSH0 MLOAD PUSH1 0x20 PUSH2 0x222F PUSH0 CODECOPY PUSH0 MLOAD SWAP1 PUSH0 MSTORE SWAP1 PUSH2 0x7CB SWAP1 DUP8 CALLDATALOAD SWAP1 PUSH1 0x20 DUP1 DUP11 ADD CALLDATALOAD SWAP2 DUP7 SWAP2 ADD PUSH2 0x1F55 JUMP JUMPDEST PUSH1 0x40 MLOAD PUSH1 0x20 DUP2 DUP4 SUB SUB DUP2 MSTORE SWAP1 PUSH1 0x40 MSTORE DUP1 MLOAD SWAP1 PUSH1 0x20 ADD KECCAK256 PUSH0 SHR PUSH2 0x7ED SWAP2 SWAP1 PUSH2 0x1FAA JUMP JUMPDEST DUP3 MSTORE PUSH1 0x40 DUP1 MLOAD PUSH0 SWAP2 DUP8 DUP3 CALLDATACOPY PUSH32 0x2B71F483568229768A69DA7E698972477F2E3542D4B495D0EB993E3847A56685 PUSH1 0x40 DUP3 ADD MSTORE PUSH32 0x26BAFB5A85D2DBD50000D08C33F1469C79B26A89826520F9FF975AD96B211FFB PUSH1 0x60 DUP3 ADD MSTORE PUSH32 0x2E7C08C0CBC9370DF848E1BB9C4EF71C7658A55AE26B712C6F6196732F114696 PUSH1 0x80 DUP3 ADD MSTORE PUSH32 0xC8794566F2EE51E99FB8CE36CD1F37D8F1A14DDF2B2C3EE5754B08B623C05D5 PUSH1 0xA0 DUP3 ADD MSTORE PUSH1 0x40 DUP7 PUSH1 0xC0 DUP4 ADD CALLDATACOPY PUSH32 0x254DB2E9700C2423D850234288CF96924440E71140F82503393A0B22E3B6AE65 PUSH2 0x100 DUP3 ADD MSTORE PUSH32 0x28328F51A3FA4DDBBC83EB6B8F472E410E096B950F4833CA93EC3DBB42D15D60 PUSH2 0x120 DUP3 ADD MSTORE PUSH32 0x2D701346B24558AB81687D7D34A24396676040C669328519FECD648BBF3ABC8D PUSH2 0x140 DUP3 ADD MSTORE PUSH32 0x6836192D1E46D45ADC7EBBAB6E238DC4F8EFD52404BB8363C098A92E68188EC PUSH2 0x160 DUP3 ADD MSTORE PUSH1 0x20 DUP2 PUSH2 0x180 DUP4 PUSH1 0x8 GAS STATICCALL SWAP1 MLOAD AND SWAP1 POP DUP1 PUSH2 0x962 JUMPI PUSH1 0x40 MLOAD PUSH4 0x51D49FF7 PUSH1 0xE1 SHL DUP2 MSTORE PUSH1 0x4 ADD PUSH1 0x40 MLOAD DUP1 SWAP2 SUB SWAP1 REVERT JUMPDEST PUSH0 PUSH0 PUSH2 0x997 DUP7 DUP7 DUP11 PUSH1 0x2 DUP1 PUSH1 0x20 MUL PUSH1 0x40 MLOAD SWAP1 DUP2 ADD PUSH1 0x40 MSTORE DUP1 SWAP3 SWAP2 SWAP1 DUP3 PUSH1 0x2 PUSH1 0x20 MUL DUP1 DUP3 DUP5 CALLDATACOPY PUSH0 SWAP3 ADD SWAP2 SWAP1 SWAP2 MSTORE POP PUSH2 0x128E SWAP2 POP POP JUMP JUMPDEST SWAP2 POP SWAP2 POP PUSH1 0x40 MLOAD PUSH2 0x100 DUP11 DUP3 CALLDATACOPY PUSH32 0x1640030E1FA5AA0EEDCCE10297946856DE426EA8FB18AAD3E3B8D07DF4B5E6F2 PUSH2 0x100 DUP3 ADD MSTORE PUSH32 0x1535472265363417848EC0EFEFB82D81E6F25D7218862A1A679DCFDF55C40F7F PUSH2 0x120 DUP3 ADD MSTORE PUSH32 0x2D0EC60E06A2E51CC2259493D46FB470AF39A7E17AB9B2B98B528DB4FD848B04 PUSH2 0x140 DUP3 ADD MSTORE PUSH32 0x17965EC004B8EC1B9B18D261FC673DE88408F71FE079D7EE703C3D514F3C8A8B PUSH2 0x160 DUP3 ADD MSTORE PUSH32 0x4D6B7AD212268E819BB7BACD10C5944AD07BBB36E9DC3612D3F37F60CE0397A PUSH2 0x180 DUP3 ADD MSTORE PUSH32 0x1E4A8EF31F5C4DB2EEED6C6546231667706EC6FD96227540C3A17C4CAD510E8F PUSH2 0x1A0 DUP3 ADD MSTORE PUSH32 0x394475B99283702E6CCFABA92DEB124A5C16662671D2B1F8F21EC595C046AF6 PUSH2 0x1C0 DUP3 ADD MSTORE PUSH32 0x3001F8D6F84FF942FF43DAF811BBDE4F601824E660DED326FFAE517EF896BA4E PUSH2 0x1E0 DUP3 ADD MSTORE PUSH32 0x25954D648F0D013F8E07766AE41411F3670872369105612C2EDD8490861D5ED2 PUSH2 0x200 DUP3 ADD MSTORE PUSH32 0x11F0C42554CFDDB592B8E19B5A9A6B2D80E4AC2C370F82DCAE4535D53352C5A8 PUSH2 0x220 DUP3 ADD MSTORE DUP3 PUSH2 0x240 DUP3 ADD MSTORE DUP2 PUSH2 0x260 DUP3 ADD MSTORE PUSH32 0x20236B938A08F04C7665AD412CC08F040435F06E4303373FA562250A0221EE45 PUSH2 0x280 DUP3 ADD MSTORE PUSH32 0xF541B7D2AB22298931832AD41C126B9A272494B81EF7D2F9D696E7A2CEF5870 PUSH2 0x2A0 DUP3 ADD MSTORE PUSH32 0x1C09A02F7E485D145FC533CE9FE9DA3CABCF19FBD96D52D4F84B0F89CDC4FD51 PUSH2 0x2C0 DUP3 ADD MSTORE PUSH32 0x1BF044C92252E420F3AEF6DA1AA03EEB895DF2E28AE2023CF1E43AAB2C153C8C PUSH2 0x2E0 DUP3 ADD MSTORE PUSH1 0x20 DUP2 PUSH2 0x300 DUP4 PUSH1 0x8 GAS STATICCALL SWAP1 MLOAD AND SWAP3 POP DUP3 PUSH2 0xC02 JUMPI PUSH1 0x40 MLOAD PUSH4 0x1FF3747D PUSH1 0xE2 SHL DUP2 MSTORE PUSH1 0x4 ADD PUSH1 0x40 MLOAD DUP1 SWAP2 SUB SWAP1 REVERT JUMPDEST POP POP POP POP POP POP POP POP POP JUMP JUMPDEST PUSH0 PUSH0 MLOAD PUSH1 0x20 PUSH2 0x220F PUSH0 CODECOPY PUSH0 MLOAD SWAP1 PUSH0 MSTORE DUP4 LT ISZERO DUP1 PUSH2 0xC37 JUMPI POP PUSH0 MLOAD PUSH1 0x20 PUSH2 0x220F PUSH0 CODECOPY PUSH0 MLOAD SWAP1 PUSH0 MSTORE DUP3 LT ISZERO JUMPDEST ISZERO PUSH2 0xC55 JUMPI PUSH1 0x40 MLOAD PUSH4 0x1FF3747D PUSH1 0xE2 SHL DUP2 MSTORE PUSH1 0x4 ADD PUSH1 0x40 MLOAD DUP1 SWAP2 SUB SWAP1 REVERT JUMPDEST DUP3 ISZERO DUP1 ISZERO PUSH2 0xC61 JUMPI POP DUP2 ISZERO JUMPDEST ISZERO PUSH2 0xC6D JUMPI POP PUSH0 PUSH2 0xCF4 JUMP JUMPDEST PUSH0 PUSH2 0xCA8 PUSH0 MLOAD PUSH1 0x20 PUSH2 0x220F PUSH0 CODECOPY PUSH0 MLOAD SWAP1 PUSH0 MSTORE PUSH1 0x3 PUSH0 MLOAD PUSH1 0x20 PUSH2 0x220F PUSH0 CODECOPY PUSH0 MLOAD SWAP1 PUSH0 MSTORE DUP8 PUSH0 MLOAD PUSH1 0x20 PUSH2 0x220F PUSH0 CODECOPY PUSH0 MLOAD SWAP1 PUSH0 MSTORE DUP10 DUP11 MULMOD MULMOD ADDMOD PUSH2 0x18F1 JUMP JUMPDEST SWAP1 POP DUP1 DUP4 SUB PUSH2 0xCBD JUMPI POP POP PUSH1 0x1 DUP3 SWAP1 SHL PUSH2 0xCF4 JUMP JUMPDEST PUSH2 0xCC6 DUP2 PUSH2 0x1953 JUMP JUMPDEST DUP4 SUB PUSH2 0xCD9 JUMPI POP POP PUSH1 0x1 DUP3 DUP2 SHL OR PUSH2 0xCF4 JUMP JUMPDEST PUSH1 0x40 MLOAD PUSH4 0x1FF3747D PUSH1 0xE2 SHL DUP2 MSTORE PUSH1 0x4 ADD PUSH1 0x40 MLOAD DUP1 SWAP2 SUB SWAP1 REVERT JUMPDEST POP JUMPDEST SWAP3 SWAP2 POP POP JUMP JUMPDEST PUSH0 PUSH0 PUSH0 MLOAD PUSH1 0x20 PUSH2 0x220F PUSH0 CODECOPY PUSH0 MLOAD SWAP1 PUSH0 MSTORE DUP7 LT ISZERO DUP1 PUSH2 0xD25 JUMPI POP PUSH0 MLOAD PUSH1 0x20 PUSH2 0x220F PUSH0 CODECOPY PUSH0 MLOAD SWAP1 PUSH0 MSTORE DUP6 LT ISZERO JUMPDEST DUP1 PUSH2 0xD3D JUMPI POP PUSH0 MLOAD PUSH1 0x20 PUSH2 0x220F PUSH0 CODECOPY PUSH0 MLOAD SWAP1 PUSH0 MSTORE DUP5 LT ISZERO JUMPDEST DUP1 PUSH2 0xD55 JUMPI POP PUSH0 MLOAD PUSH1 0x20 PUSH2 0x220F PUSH0 CODECOPY PUSH0 MLOAD SWAP1 PUSH0 MSTORE DUP4 LT ISZERO JUMPDEST ISZERO PUSH2 0xD73 JUMPI PUSH1 0x40 MLOAD PUSH4 0x1FF3747D PUSH1 0xE2 SHL DUP2 MSTORE PUSH1 0x4 ADD PUSH1 0x40 MLOAD DUP1 SWAP2 SUB SWAP1 REVERT JUMPDEST DUP3 DUP5 DUP7 DUP9 OR OR OR PUSH0 SUB PUSH2 0xD8A JUMPI POP PUSH0 SWAP1 POP DUP1 PUSH2 0xFCA JUMP JUMPDEST PUSH0 DUP1 DUP1 PUSH0 MLOAD PUSH1 0x20 PUSH2 0x220F PUSH0 CODECOPY PUSH0 MLOAD SWAP1 PUSH0 MSTORE PUSH2 0xDB3 PUSH1 0x3 PUSH0 MLOAD PUSH1 0x20 PUSH2 0x220F PUSH0 CODECOPY PUSH0 MLOAD SWAP1 PUSH0 MSTORE PUSH2 0x1FC9 JUMP JUMPDEST PUSH0 MLOAD PUSH1 0x20 PUSH2 0x220F PUSH0 CODECOPY PUSH0 MLOAD SWAP1 PUSH0 MSTORE DUP11 DUP13 MULMOD MULMOD SWAP1 POP PUSH0 PUSH0 MLOAD PUSH1 0x20 PUSH2 0x220F PUSH0 CODECOPY PUSH0 MLOAD SWAP1 PUSH0 MSTORE DUP11 PUSH0 MLOAD PUSH1 0x20 PUSH2 0x220F PUSH0 CODECOPY PUSH0 MLOAD SWAP1 PUSH0 MSTORE DUP13 DUP14 MULMOD MULMOD SWAP1 POP PUSH0 PUSH0 MLOAD PUSH1 0x20 PUSH2 0x220F PUSH0 CODECOPY PUSH0 MLOAD SWAP1 PUSH0 MSTORE DUP11 PUSH0 MLOAD PUSH1 0x20 PUSH2 0x220F PUSH0 CODECOPY PUSH0 MLOAD SWAP1 PUSH0 MSTORE DUP13 DUP14 MULMOD MULMOD SWAP1 POP PUSH0 MLOAD PUSH1 0x20 PUSH2 0x220F PUSH0 CODECOPY PUSH0 MLOAD SWAP1 PUSH0 MSTORE DUP1 PUSH0 MLOAD PUSH1 0x20 PUSH2 0x220F PUSH0 CODECOPY PUSH0 MLOAD SWAP1 PUSH0 MSTORE DUP13 DUP7 MULMOD DUP5 ADDMOD PUSH32 0x2B149D40CEB8AAAE81BE18991BE06AC3B5B4C5E559DBEFA33267E6DC24A138E5 ADDMOD SWAP5 POP PUSH2 0xEA1 PUSH0 MLOAD PUSH1 0x20 PUSH2 0x220F PUSH0 CODECOPY PUSH0 MLOAD SWAP1 PUSH0 MSTORE DUP1 PUSH0 MLOAD PUSH1 0x20 PUSH2 0x220F PUSH0 CODECOPY PUSH0 MLOAD SWAP1 PUSH0 MSTORE DUP15 DUP8 MULMOD DUP5 ADDMOD PUSH32 0x2FCD3AC2A640A154EB23960892A85A68F031CA0C8344B23A577DCF1052B9E775 ADDMOD PUSH2 0x1953 JUMP JUMPDEST SWAP4 POP POP POP POP PUSH0 PUSH0 PUSH2 0xEEE PUSH0 MLOAD PUSH1 0x20 PUSH2 0x220F PUSH0 CODECOPY PUSH0 MLOAD SWAP1 PUSH0 MSTORE DUP1 PUSH2 0xEC6 JUMPI PUSH2 0xEC6 PUSH2 0x1F96 JUMP JUMPDEST PUSH0 MLOAD PUSH1 0x20 PUSH2 0x220F PUSH0 CODECOPY PUSH0 MLOAD SWAP1 PUSH0 MSTORE DUP6 DUP7 MULMOD PUSH0 MLOAD PUSH1 0x20 PUSH2 0x220F PUSH0 CODECOPY PUSH0 MLOAD SWAP1 PUSH0 MSTORE DUP8 DUP9 MULMOD ADDMOD PUSH2 0x18F1 JUMP JUMPDEST SWAP1 POP PUSH2 0xF39 PUSH0 MLOAD PUSH1 0x20 PUSH2 0x220F PUSH0 CODECOPY PUSH0 MLOAD SWAP1 PUSH0 MSTORE PUSH32 0x183227397098D014DC2822DB40C0AC2ECBC0B548B438E5469E10460B6C3E7EA4 PUSH0 MLOAD PUSH1 0x20 PUSH2 0x220F PUSH0 CODECOPY PUSH0 MLOAD SWAP1 PUSH0 MSTORE DUP5 DUP9 ADDMOD MULMOD PUSH2 0x196B JUMP JUMPDEST ISZERO SWAP2 POP POP PUSH2 0xF48 DUP4 DUP4 DUP4 PUSH2 0x19B3 JUMP JUMPDEST SWAP1 SWAP4 POP SWAP2 POP DUP7 DUP4 EQ DUP1 ISZERO PUSH2 0xF5B JUMPI POP DUP2 DUP7 EQ JUMPDEST ISZERO PUSH2 0xF83 JUMPI DUP1 PUSH2 0xF6B JUMPI PUSH0 PUSH2 0xF6E JUMP JUMPDEST PUSH1 0x2 JUMPDEST PUSH1 0xFF AND PUSH1 0x2 DUP11 SWAP1 SHL OR PUSH0 OR SWAP5 POP DUP8 SWAP4 POP PUSH2 0xFC6 JUMP JUMPDEST PUSH2 0xF8C DUP4 PUSH2 0x1953 JUMP JUMPDEST DUP8 EQ DUP1 ISZERO PUSH2 0xFA1 JUMPI POP PUSH2 0xF9E DUP3 PUSH2 0x1953 JUMP JUMPDEST DUP7 EQ JUMPDEST ISZERO PUSH2 0xCD9 JUMPI DUP1 PUSH2 0xFB1 JUMPI PUSH0 PUSH2 0xFB4 JUMP JUMPDEST PUSH1 0x2 JUMPDEST PUSH1 0xFF AND PUSH1 0x2 DUP11 SWAP1 SHL OR PUSH1 0x1 OR SWAP5 POP DUP8 SWAP4 POP JUMPDEST POP POP POP JUMPDEST SWAP5 POP SWAP5 SWAP3 POP POP POP JUMP JUMPDEST PUSH2 0xFDB PUSH2 0x1C20 JUMP JUMPDEST PUSH2 0xFE3 PUSH2 0x1BE3 JUMP JUMPDEST PUSH2 0xFEB PUSH2 0x1BE3 JUMP JUMPDEST PUSH2 0xFF7 DUP5 DUP7 ADD DUP7 PUSH2 0x206B JUMP JUMPDEST SWAP3 POP SWAP3 POP SWAP3 POP SWAP3 POP SWAP3 POP SWAP3 JUMP JUMPDEST PUSH2 0x100C PUSH2 0x1C3F JUMP JUMPDEST PUSH1 0x60 DUP1 PUSH2 0xFF7 DUP5 DUP7 ADD DUP7 PUSH2 0x2156 JUMP JUMPDEST PUSH0 PUSH0 DUP3 PUSH0 SUB PUSH2 0x102E JUMPI POP PUSH0 SWAP3 DUP4 SWAP3 POP SWAP1 POP JUMP JUMPDEST PUSH1 0x1 DUP4 DUP2 SHR SWAP3 POP DUP1 DUP5 AND EQ PUSH0 MLOAD PUSH1 0x20 PUSH2 0x220F PUSH0 CODECOPY PUSH0 MLOAD SWAP1 PUSH0 MSTORE DUP4 LT PUSH2 0x1066 JUMPI PUSH1 0x40 MLOAD PUSH4 0x1FF3747D PUSH1 0xE2 SHL DUP2 MSTORE PUSH1 0x4 ADD PUSH1 0x40 MLOAD DUP1 SWAP2 SUB SWAP1 REVERT JUMPDEST PUSH2 0x10A0 PUSH0 MLOAD PUSH1 0x20 PUSH2 0x220F PUSH0 CODECOPY PUSH0 MLOAD SWAP1 PUSH0 MSTORE PUSH1 0x3 PUSH0 MLOAD PUSH1 0x20 PUSH2 0x220F PUSH0 CODECOPY PUSH0 MLOAD SWAP1 PUSH0 MSTORE DUP7 PUSH0 MLOAD PUSH1 0x20 PUSH2 0x220F PUSH0 CODECOPY PUSH0 MLOAD SWAP1 PUSH0 MSTORE DUP9 DUP10 MULMOD MULMOD ADDMOD PUSH2 0x18F1 JUMP JUMPDEST SWAP2 POP DUP1 ISZERO PUSH2 0x10B4 JUMPI PUSH2 0x10B1 DUP3 PUSH2 0x1953 JUMP JUMPDEST SWAP2 POP JUMPDEST POP SWAP2 POP SWAP2 JUMP JUMPDEST PUSH0 DUP1 DUP1 DUP1 DUP6 ISZERO DUP1 ISZERO PUSH2 0x10CA JUMPI POP DUP5 ISZERO JUMPDEST ISZERO PUSH2 0x10DF JUMPI POP PUSH0 SWAP3 POP DUP3 SWAP2 POP DUP2 SWAP1 POP DUP1 PUSH2 0x1285 JUMP JUMPDEST PUSH1 0x2 DUP7 DUP2 SHR SWAP5 POP DUP6 SWAP4 POP PUSH1 0x1 DUP1 DUP9 AND EQ SWAP1 DUP1 DUP9 AND EQ PUSH0 MLOAD PUSH1 0x20 PUSH2 0x220F PUSH0 CODECOPY PUSH0 MLOAD SWAP1 PUSH0 MSTORE DUP7 LT ISZERO DUP1 PUSH2 0x111D JUMPI POP PUSH0 MLOAD PUSH1 0x20 PUSH2 0x220F PUSH0 CODECOPY PUSH0 MLOAD SWAP1 PUSH0 MSTORE DUP6 LT ISZERO JUMPDEST ISZERO PUSH2 0x113B JUMPI PUSH1 0x40 MLOAD PUSH4 0x1FF3747D PUSH1 0xE2 SHL DUP2 MSTORE PUSH1 0x4 ADD PUSH1 0x40 MLOAD DUP1 SWAP2 SUB SWAP1 REVERT JUMPDEST PUSH0 PUSH0 MLOAD PUSH1 0x20 PUSH2 0x220F PUSH0 CODECOPY PUSH0 MLOAD SWAP1 PUSH0 MSTORE PUSH2 0x1162 PUSH1 0x3 PUSH0 MLOAD PUSH1 0x20 PUSH2 0x220F PUSH0 CODECOPY PUSH0 MLOAD SWAP1 PUSH0 MSTORE PUSH2 0x1FC9 JUMP JUMPDEST PUSH0 MLOAD PUSH1 0x20 PUSH2 0x220F PUSH0 CODECOPY PUSH0 MLOAD SWAP1 PUSH0 MSTORE DUP9 DUP11 MULMOD MULMOD SWAP1 POP PUSH0 PUSH0 MLOAD PUSH1 0x20 PUSH2 0x220F PUSH0 CODECOPY PUSH0 MLOAD SWAP1 PUSH0 MSTORE DUP9 PUSH0 MLOAD PUSH1 0x20 PUSH2 0x220F PUSH0 CODECOPY PUSH0 MLOAD SWAP1 PUSH0 MSTORE DUP11 DUP12 MULMOD MULMOD SWAP1 POP PUSH0 PUSH0 MLOAD PUSH1 0x20 PUSH2 0x220F PUSH0 CODECOPY PUSH0 MLOAD SWAP1 PUSH0 MSTORE DUP9 PUSH0 MLOAD PUSH1 0x20 PUSH2 0x220F PUSH0 CODECOPY PUSH0 MLOAD SWAP1 PUSH0 MSTORE DUP11 DUP12 MULMOD MULMOD SWAP1 POP PUSH0 MLOAD PUSH1 0x20 PUSH2 0x220F PUSH0 CODECOPY PUSH0 MLOAD SWAP1 PUSH0 MSTORE DUP1 PUSH0 MLOAD PUSH1 0x20 PUSH2 0x220F PUSH0 CODECOPY PUSH0 MLOAD SWAP1 PUSH0 MSTORE DUP11 DUP7 MULMOD DUP5 ADDMOD PUSH32 0x2B149D40CEB8AAAE81BE18991BE06AC3B5B4C5E559DBEFA33267E6DC24A138E5 ADDMOD SWAP7 POP PUSH2 0x1250 PUSH0 MLOAD PUSH1 0x20 PUSH2 0x220F PUSH0 CODECOPY PUSH0 MLOAD SWAP1 PUSH0 MSTORE DUP1 PUSH0 MLOAD PUSH1 0x20 PUSH2 0x220F PUSH0 CODECOPY PUSH0 MLOAD SWAP1 PUSH0 MSTORE DUP13 DUP8 MULMOD DUP5 ADDMOD PUSH32 0x2FCD3AC2A640A154EB23960892A85A68F031CA0C8344B23A577DCF1052B9E775 ADDMOD PUSH2 0x1953 JUMP JUMPDEST SWAP6 POP PUSH2 0x125D DUP8 DUP8 DUP7 PUSH2 0x19B3 JUMP JUMPDEST SWAP1 SWAP8 POP SWAP6 POP DUP5 ISZERO PUSH2 0x127F JUMPI PUSH2 0x1271 DUP8 PUSH2 0x1953 JUMP JUMPDEST SWAP7 POP PUSH2 0x127C DUP7 PUSH2 0x1953 JUMP JUMPDEST SWAP6 POP JUMPDEST POP POP POP POP POP JUMPDEST SWAP3 SWAP6 SWAP2 SWAP5 POP SWAP3 POP JUMP JUMPDEST PUSH0 PUSH0 PUSH0 PUSH1 0x1 SWAP1 POP PUSH1 0x40 MLOAD PUSH1 0x40 DUP2 ADD PUSH0 PUSH32 0x297CEB82BDFE8DB334F6B543F9559EC25CA0F4D004994AD6DEC0917C63F0D8AA DUP4 MSTORE PUSH32 0x3E50CE2AB1556FFED2B8450FF49763CA548877BAD5F8F56445F0D3BE1B4BAE8 PUSH1 0x20 DUP5 ADD MSTORE DUP7 MLOAD DUP3 MSTORE PUSH1 0x20 DUP8 ADD MLOAD PUSH1 0x20 DUP4 ADD MSTORE PUSH1 0x40 DUP4 PUSH1 0x80 DUP6 PUSH1 0x6 GAS STATICCALL DUP5 AND SWAP4 POP PUSH32 0x13A8982ABB12CD59BC6264241CADE3864EDD5ADBBF598C657610806CEAFF573B DUP3 MSTORE PUSH32 0x193F31FF52E1CDFA10FC7AAAC2F40B1760C7057EDAB4AAB79BCD20D8703B1C86 PUSH1 0x20 DUP4 ADD MSTORE DUP9 CALLDATALOAD SWAP1 POP DUP1 PUSH1 0x40 DUP4 ADD MSTORE PUSH0 MLOAD PUSH1 0x20 PUSH2 0x222F PUSH0 CODECOPY PUSH0 MLOAD SWAP1 PUSH0 MSTORE DUP2 LT DUP5 AND SWAP4 POP PUSH1 0x40 DUP3 PUSH1 0x60 DUP5 PUSH1 0x7 GAS STATICCALL DUP5 AND SWAP4 POP PUSH1 0x40 DUP4 PUSH1 0x80 DUP6 PUSH1 0x6 GAS STATICCALL DUP5 AND SWAP4 POP PUSH32 0x8A881FFFAA8323634FC86E3C0DBA693E27FB8A2A819D44670EA721FC61396BF DUP3 MSTORE PUSH32 0x1CAFEA2789EEC4B42AAB039BD039299D25249F07BB5E749C1F76CC180CE0A2E6 PUSH1 0x20 DUP4 ADD MSTORE PUSH1 0x20 DUP10 ADD CALLDATALOAD SWAP1 POP DUP1 PUSH1 0x40 DUP4 ADD MSTORE PUSH0 MLOAD PUSH1 0x20 PUSH2 0x222F PUSH0 CODECOPY PUSH0 MLOAD SWAP1 PUSH0 MSTORE DUP2 LT DUP5 AND SWAP4 POP PUSH1 0x40 DUP3 PUSH1 0x60 DUP5 PUSH1 0x7 GAS STATICCALL DUP5 AND SWAP4 POP PUSH1 0x40 DUP4 PUSH1 0x80 DUP6 PUSH1 0x6 GAS STATICCALL DUP5 AND SWAP4 POP PUSH32 0x159B86157F61E0C9360CF00EE256117EA6454973174D5A9204AB87E190A84531 DUP3 MSTORE PUSH32 0x2BF78F17AF3642CC02387E12EB43FB6FE61C4D4FD265EA26E5F4C2C650F2AA22 PUSH1 0x20 DUP4 ADD MSTORE PUSH1 0x40 DUP10 ADD CALLDATALOAD SWAP1 POP DUP1 PUSH1 0x40 DUP4 ADD MSTORE PUSH0 MLOAD PUSH1 0x20 PUSH2 0x222F PUSH0 CODECOPY PUSH0 MLOAD SWAP1 PUSH0 MSTORE DUP2 LT DUP5 AND SWAP4 POP PUSH1 0x40 DUP3 PUSH1 0x60 DUP5 PUSH1 0x7 GAS STATICCALL DUP5 AND SWAP4 POP PUSH1 0x40 DUP4 PUSH1 0x80 DUP6 PUSH1 0x6 GAS STATICCALL DUP5 AND SWAP4 POP PUSH32 0x1D93CD620C0F05E1B8AD622666FD6B03A7C61B52CD1D13F522CEA88AA9FCB6E5 DUP3 MSTORE PUSH32 0x2EB3957FA77085BDA6FD17D0C3D64DFEDBB8AA8CC6B569DEFE59C0FA18499E65 PUSH1 0x20 DUP4 ADD MSTORE PUSH1 0x60 DUP10 ADD CALLDATALOAD SWAP1 POP DUP1 PUSH1 0x40 DUP4 ADD MSTORE PUSH0 MLOAD PUSH1 0x20 PUSH2 0x222F PUSH0 CODECOPY PUSH0 MLOAD SWAP1 PUSH0 MSTORE DUP2 LT DUP5 AND SWAP4 POP PUSH1 0x40 DUP3 PUSH1 0x60 DUP5 PUSH1 0x7 GAS STATICCALL DUP5 AND SWAP4 POP PUSH1 0x40 DUP4 PUSH1 0x80 DUP6 PUSH1 0x6 GAS STATICCALL DUP5 AND SWAP4 POP PUSH32 0x29A1FBBE6FCDD3163626722D04013639284B256888B91AB984D8424EEBFFCCF5 DUP3 MSTORE PUSH32 0x3982A556954F90FA1FA29C443AAB9C371392D8606DC8E426EF74846F783BC0D PUSH1 0x20 DUP4 ADD MSTORE PUSH1 0x80 DUP10 ADD CALLDATALOAD SWAP1 POP DUP1 PUSH1 0x40 DUP4 ADD MSTORE PUSH0 MLOAD PUSH1 0x20 PUSH2 0x222F PUSH0 CODECOPY PUSH0 MLOAD SWAP1 PUSH0 MSTORE DUP2 LT DUP5 AND SWAP4 POP PUSH1 0x40 DUP3 PUSH1 0x60 DUP5 PUSH1 0x7 GAS STATICCALL DUP5 AND SWAP4 POP PUSH1 0x40 DUP4 PUSH1 0x80 DUP6 PUSH1 0x6 GAS STATICCALL DUP5 AND SWAP4 POP PUSH32 0x24CF8A1646E52613BC8B5823DF74F95F62563836D673500B2675A9BC101D645C DUP3 MSTORE PUSH32 0x281E4773EF450E3E7FC78B811EF425377757530D8BCAC1288297B29E994BD0E8 PUSH1 0x20 DUP4 ADD MSTORE PUSH1 0xA0 DUP10 ADD CALLDATALOAD SWAP1 POP DUP1 PUSH1 0x40 DUP4 ADD MSTORE PUSH0 MLOAD PUSH1 0x20 PUSH2 0x222F PUSH0 CODECOPY PUSH0 MLOAD SWAP1 PUSH0 MSTORE DUP2 LT DUP5 AND SWAP4 POP PUSH1 0x40 DUP3 PUSH1 0x60 DUP5 PUSH1 0x7 GAS STATICCALL DUP5 AND SWAP4 POP PUSH1 0x40 DUP4 PUSH1 0x80 DUP6 PUSH1 0x6 GAS STATICCALL DUP5 AND SWAP4 POP PUSH32 0xBD46762BE872B588AE6273CCE667445800E9B695E2AC2773743C4E5C5F9E480 DUP3 MSTORE PUSH32 0x25FB52129E50BB23EACCBFC6B94134FB7F49AE274F7B2610E38CEFAD1DB1A269 PUSH1 0x20 DUP4 ADD MSTORE PUSH1 0xC0 DUP10 ADD CALLDATALOAD SWAP1 POP DUP1 PUSH1 0x40 DUP4 ADD MSTORE PUSH0 MLOAD PUSH1 0x20 PUSH2 0x222F PUSH0 CODECOPY PUSH0 MLOAD SWAP1 PUSH0 MSTORE DUP2 LT DUP5 AND SWAP4 POP PUSH1 0x40 DUP3 PUSH1 0x60 DUP5 PUSH1 0x7 GAS STATICCALL DUP5 AND SWAP4 POP PUSH1 0x40 DUP4 PUSH1 0x80 DUP6 PUSH1 0x6 GAS STATICCALL DUP5 AND SWAP4 POP PUSH32 0x2A29C157CB2C1DD9E42D82AE6A2BE99BAA7853AB63B5816743BCF2173B50698B DUP3 MSTORE PUSH31 0xCEEB858088DAA1CD5866686880E3FC9B4023B51E282F991D9544422A9FA00D PUSH1 0x20 DUP4 ADD MSTORE PUSH1 0xE0 DUP10 ADD CALLDATALOAD SWAP1 POP DUP1 PUSH1 0x40 DUP4 ADD MSTORE PUSH0 MLOAD PUSH1 0x20 PUSH2 0x222F PUSH0 CODECOPY PUSH0 MLOAD SWAP1 PUSH0 MSTORE DUP2 LT DUP5 AND SWAP4 POP PUSH1 0x40 DUP3 PUSH1 0x60 DUP5 PUSH1 0x7 GAS STATICCALL DUP5 AND SWAP4 POP PUSH1 0x40 DUP4 PUSH1 0x80 DUP6 PUSH1 0x6 GAS STATICCALL DUP5 AND SWAP4 POP PUSH32 0x2E46DEC21F6FBF78C35C68C620E7A8F89A9121136E93B2C71C3B534585C1E90C DUP3 MSTORE PUSH32 0x1383DAE2A97927D456A1A86B962F707CC8E5B7B46086E76141EB3D692A79F969 PUSH1 0x20 DUP4 ADD MSTORE PUSH2 0x100 DUP10 ADD CALLDATALOAD SWAP1 POP DUP1 PUSH1 0x40 DUP4 ADD MSTORE PUSH0 MLOAD PUSH1 0x20 PUSH2 0x222F PUSH0 CODECOPY PUSH0 MLOAD SWAP1 PUSH0 MSTORE DUP2 LT DUP5 AND SWAP4 POP PUSH1 0x40 DUP3 PUSH1 0x60 DUP5 PUSH1 0x7 GAS STATICCALL DUP5 AND SWAP4 POP PUSH1 0x40 DUP4 PUSH1 0x80 DUP6 PUSH1 0x6 GAS STATICCALL DUP5 AND SWAP4 POP PUSH32 0x2F71B71DBF209F5470A44BFC507EDACDFFCF87B36DD638AFCA87002118C88762 DUP3 MSTORE PUSH32 0xF6FCA30737C4BB639BD8830DDEFC8357C187597B3D96DE8C7634C11217A0655 PUSH1 0x20 DUP4 ADD MSTORE PUSH2 0x120 DUP10 ADD CALLDATALOAD SWAP1 POP DUP1 PUSH1 0x40 DUP4 ADD MSTORE PUSH0 MLOAD PUSH1 0x20 PUSH2 0x222F PUSH0 CODECOPY PUSH0 MLOAD SWAP1 PUSH0 MSTORE DUP2 LT DUP5 AND SWAP4 POP PUSH1 0x40 DUP3 PUSH1 0x60 DUP5 PUSH1 0x7 GAS STATICCALL DUP5 AND SWAP4 POP PUSH1 0x40 DUP4 PUSH1 0x80 DUP6 PUSH1 0x6 GAS STATICCALL PUSH32 0xFB126A6FBA958D6B39180B4D8EAE22408207D5967042A99909060BA975EDD01 DUP4 MSTORE PUSH32 0x7850EDFDDB48B7A9FF6C5DFB3AD8C95C49E160F6B265D985BB8E23D5DB57E2A PUSH1 0x20 DUP5 ADD MSTORE DUP9 MLOAD PUSH1 0x40 DUP1 DUP6 ADD DUP3 SWAP1 MSTORE PUSH0 MLOAD PUSH1 0x20 PUSH2 0x222F PUSH0 CODECOPY PUSH0 MLOAD SWAP1 PUSH0 MSTORE SWAP1 SWAP2 LT SWAP2 SWAP1 SWAP6 AND AND SWAP4 SWAP1 POP DUP2 PUSH1 0x60 DUP2 PUSH1 0x7 GAS STATICCALL DUP4 AND SWAP3 POP POP PUSH1 0x40 DUP2 PUSH1 0x80 DUP4 PUSH1 0x6 GAS STATICCALL DUP2 MLOAD PUSH1 0x20 SWAP1 SWAP3 ADD MLOAD SWAP2 SWAP5 POP SWAP1 SWAP3 POP AND DUP1 PUSH2 0x18E8 JUMPI PUSH1 0x40 MLOAD PUSH4 0xA54F8E27 PUSH1 0xE0 SHL DUP2 MSTORE PUSH1 0x4 ADD PUSH1 0x40 MLOAD DUP1 SWAP2 SUB SWAP1 REVERT JUMPDEST POP SWAP4 POP SWAP4 SWAP2 POP POP JUMP JUMPDEST PUSH0 PUSH2 0x191C DUP3 PUSH32 0xC19139CB84C680A6E14116DA060561765E05AA45A1C72A34F082305B61F3F52 PUSH2 0x1AE6 JUMP JUMPDEST SWAP1 POP DUP2 PUSH0 MLOAD PUSH1 0x20 PUSH2 0x220F PUSH0 CODECOPY PUSH0 MLOAD SWAP1 PUSH0 MSTORE DUP3 DUP4 MULMOD EQ PUSH2 0x194E JUMPI PUSH1 0x40 MLOAD PUSH4 0x1FF3747D PUSH1 0xE2 SHL DUP2 MSTORE PUSH1 0x4 ADD PUSH1 0x40 MLOAD DUP1 SWAP2 SUB SWAP1 REVERT JUMPDEST SWAP2 SWAP1 POP JUMP JUMPDEST PUSH0 MLOAD PUSH1 0x20 PUSH2 0x220F PUSH0 CODECOPY PUSH0 MLOAD SWAP1 PUSH0 MSTORE SWAP1 DUP2 SWAP1 MOD DUP2 SUB MOD SWAP1 JUMP JUMPDEST PUSH0 PUSH0 PUSH2 0x1997 DUP4 PUSH32 0xC19139CB84C680A6E14116DA060561765E05AA45A1C72A34F082305B61F3F52 PUSH2 0x1AE6 JUMP JUMPDEST SWAP1 POP DUP3 PUSH0 MLOAD PUSH1 0x20 PUSH2 0x220F PUSH0 CODECOPY PUSH0 MLOAD SWAP1 PUSH0 MSTORE DUP3 DUP4 MULMOD EQ SWAP4 SWAP3 POP POP POP JUMP JUMPDEST PUSH0 DUP1 DUP1 PUSH2 0x19E2 PUSH0 MLOAD PUSH1 0x20 PUSH2 0x220F PUSH0 CODECOPY PUSH0 MLOAD SWAP1 PUSH0 MSTORE DUP1 DUP8 DUP9 MULMOD PUSH0 MLOAD PUSH1 0x20 PUSH2 0x220F PUSH0 CODECOPY PUSH0 MLOAD SWAP1 PUSH0 MSTORE DUP10 DUP11 MULMOD ADDMOD PUSH2 0x18F1 JUMP JUMPDEST SWAP1 POP DUP4 ISZERO PUSH2 0x19F6 JUMPI PUSH2 0x19F3 DUP2 PUSH2 0x1953 JUMP JUMPDEST SWAP1 POP JUMPDEST PUSH2 0x1A3F PUSH0 MLOAD PUSH1 0x20 PUSH2 0x220F PUSH0 CODECOPY PUSH0 MLOAD SWAP1 PUSH0 MSTORE PUSH32 0x183227397098D014DC2822DB40C0AC2ECBC0B548B438E5469E10460B6C3E7EA4 PUSH0 MLOAD PUSH1 0x20 PUSH2 0x220F PUSH0 CODECOPY PUSH0 MLOAD SWAP1 PUSH0 MSTORE DUP5 DUP11 ADDMOD MULMOD PUSH2 0x18F1 JUMP JUMPDEST SWAP3 POP PUSH0 MLOAD PUSH1 0x20 PUSH2 0x220F PUSH0 CODECOPY PUSH0 MLOAD SWAP1 PUSH0 MSTORE PUSH2 0x1A69 PUSH0 MLOAD PUSH1 0x20 PUSH2 0x220F PUSH0 CODECOPY PUSH0 MLOAD SWAP1 PUSH0 MSTORE PUSH1 0x2 DUP7 MULMOD PUSH2 0x1B49 JUMP JUMPDEST DUP7 MULMOD SWAP2 POP PUSH0 MLOAD PUSH1 0x20 PUSH2 0x220F PUSH0 CODECOPY PUSH0 MLOAD SWAP1 PUSH0 MSTORE PUSH2 0x1A94 PUSH0 MLOAD PUSH1 0x20 PUSH2 0x220F PUSH0 CODECOPY PUSH0 MLOAD SWAP1 PUSH0 MSTORE DUP5 DUP6 MULMOD PUSH2 0x1953 JUMP JUMPDEST PUSH0 MLOAD PUSH1 0x20 PUSH2 0x220F PUSH0 CODECOPY PUSH0 MLOAD SWAP1 PUSH0 MSTORE DUP6 DUP7 MULMOD ADDMOD DUP7 EQ ISZERO DUP1 PUSH2 0x1AC8 JUMPI POP PUSH0 MLOAD PUSH1 0x20 PUSH2 0x220F PUSH0 CODECOPY PUSH0 MLOAD SWAP1 PUSH0 MSTORE DUP1 DUP4 DUP6 MULMOD PUSH1 0x2 MULMOD DUP6 EQ ISZERO JUMPDEST ISZERO PUSH2 0x18E8 JUMPI PUSH1 0x40 MLOAD PUSH4 0x1FF3747D PUSH1 0xE2 SHL DUP2 MSTORE PUSH1 0x4 ADD PUSH1 0x40 MLOAD DUP1 SWAP2 SUB SWAP1 REVERT JUMPDEST PUSH0 PUSH0 PUSH1 0x40 MLOAD PUSH1 0x20 DUP2 MSTORE PUSH1 0x20 DUP1 DUP3 ADD MSTORE PUSH1 0x20 PUSH1 0x40 DUP3 ADD MSTORE DUP5 PUSH1 0x60 DUP3 ADD MSTORE DUP4 PUSH1 0x80 DUP3 ADD MSTORE PUSH0 MLOAD PUSH1 0x20 PUSH2 0x220F PUSH0 CODECOPY PUSH0 MLOAD SWAP1 PUSH0 MSTORE PUSH1 0xA0 DUP3 ADD MSTORE PUSH1 0x20 DUP2 PUSH1 0xC0 DUP4 PUSH1 0x5 GAS STATICCALL SWAP1 MLOAD SWAP3 POP SWAP1 POP DUP1 PUSH2 0xCF2 JUMPI PUSH1 0x40 MLOAD PUSH4 0x1FF3747D PUSH1 0xE2 SHL DUP2 MSTORE PUSH1 0x4 ADD PUSH1 0x40 MLOAD DUP1 SWAP2 SUB SWAP1 REVERT JUMPDEST PUSH0 PUSH2 0x1B74 DUP3 PUSH32 0x30644E72E131A029B85045B68181585D97816A916871CA8D3C208C16D87CFD45 PUSH2 0x1AE6 JUMP JUMPDEST SWAP1 POP PUSH0 MLOAD PUSH1 0x20 PUSH2 0x220F PUSH0 CODECOPY PUSH0 MLOAD SWAP1 PUSH0 MSTORE DUP2 DUP4 MULMOD PUSH1 0x1 EQ PUSH2 0x194E JUMPI PUSH1 0x40 MLOAD PUSH4 0x1FF3747D PUSH1 0xE2 SHL DUP2 MSTORE PUSH1 0x4 ADD PUSH1 0x40 MLOAD DUP1 SWAP2 SUB SWAP1 REVERT JUMPDEST PUSH1 0x40 MLOAD DUP1 PUSH1 0x80 ADD PUSH1 0x40 MSTORE DUP1 PUSH1 0x4 SWAP1 PUSH1 0x20 DUP3 MUL DUP1 CALLDATASIZE DUP4 CALLDATACOPY POP SWAP2 SWAP3 SWAP2 POP POP JUMP JUMPDEST PUSH1 0x40 MLOAD DUP1 PUSH1 0x20 ADD PUSH1 0x40 MSTORE DUP1 PUSH1 0x1 SWAP1 PUSH1 0x20 DUP3 MUL DUP1 CALLDATASIZE DUP4 CALLDATACOPY POP SWAP2 SWAP3 SWAP2 POP POP JUMP JUMPDEST PUSH1 0x40 MLOAD DUP1 PUSH1 0x40 ADD PUSH1 0x40 MSTORE DUP1 PUSH1 0x2 SWAP1 PUSH1 0x20 DUP3 MUL DUP1 CALLDATASIZE DUP4 CALLDATACOPY POP SWAP2 SWAP3 SWAP2 POP POP JUMP JUMPDEST PUSH1 0x40 MLOAD DUP1 PUSH2 0x300 ADD PUSH1 0x40 MSTORE DUP1 PUSH1 0x18 SWAP1 PUSH1 0x20 DUP3 MUL DUP1 CALLDATASIZE DUP4 CALLDATACOPY POP SWAP2 SWAP3 SWAP2 POP POP JUMP JUMPDEST PUSH1 0x40 MLOAD DUP1 PUSH2 0x100 ADD PUSH1 0x40 MSTORE DUP1 PUSH1 0x8 SWAP1 PUSH1 0x20 DUP3 MUL DUP1 CALLDATASIZE DUP4 CALLDATACOPY POP SWAP2 SWAP3 SWAP2 POP POP JUMP JUMPDEST PUSH1 0x40 MLOAD DUP1 PUSH2 0x140 ADD PUSH1 0x40 MSTORE DUP1 PUSH1 0xA SWAP1 PUSH1 0x20 DUP3 MUL DUP1 CALLDATASIZE DUP4 CALLDATACOPY POP SWAP2 SWAP3 SWAP2 POP POP JUMP JUMPDEST DUP1 PUSH2 0x100 DUP2 ADD DUP4 LT ISZERO PUSH2 0xCF4 JUMPI PUSH0 PUSH0 REVERT JUMPDEST DUP1 PUSH1 0x40 DUP2 ADD DUP4 LT ISZERO PUSH2 0xCF4 JUMPI PUSH0 PUSH0 REVERT JUMPDEST PUSH0 PUSH0 PUSH0 PUSH2 0x180 DUP5 DUP7 SUB SLT ISZERO PUSH2 0x1C92 JUMPI PUSH0 PUSH0 REVERT JUMPDEST PUSH2 0x1C9C DUP6 DUP6 PUSH2 0x1C5E JUMP JUMPDEST SWAP3 POP PUSH2 0x1CAC DUP6 PUSH2 0x100 DUP7 ADD PUSH2 0x1C6F JUMP JUMPDEST SWAP2 POP PUSH2 0x1CBC DUP6 PUSH2 0x140 DUP7 ADD PUSH2 0x1C6F JUMP JUMPDEST SWAP1 POP SWAP3 POP SWAP3 POP SWAP3 JUMP JUMPDEST PUSH1 0xC0 DUP2 ADD DUP2 DUP6 PUSH0 JUMPDEST PUSH1 0x4 DUP2 LT ISZERO PUSH2 0x1CEC JUMPI DUP2 MLOAD DUP4 MSTORE PUSH1 0x20 SWAP3 DUP4 ADD SWAP3 SWAP1 SWAP2 ADD SWAP1 PUSH1 0x1 ADD PUSH2 0x1CCD JUMP JUMPDEST POP POP POP PUSH1 0x80 DUP3 ADD DUP5 PUSH0 JUMPDEST PUSH1 0x1 DUP2 LT ISZERO PUSH2 0x1D15 JUMPI DUP2 MLOAD DUP4 MSTORE PUSH1 0x20 SWAP3 DUP4 ADD SWAP3 SWAP1 SWAP2 ADD SWAP1 PUSH1 0x1 ADD PUSH2 0x1CF6 JUMP JUMPDEST POP POP POP DUP3 PUSH1 0xA0 DUP4 ADD MSTORE SWAP5 SWAP4 POP POP POP POP JUMP JUMPDEST PUSH0 PUSH0 DUP4 PUSH1 0x1F DUP5 ADD SLT PUSH2 0x1D36 JUMPI PUSH0 PUSH0 REVERT JUMPDEST POP DUP2 CALLDATALOAD PUSH8 0xFFFFFFFFFFFFFFFF DUP2 GT ISZERO PUSH2 0x1D4D JUMPI PUSH0 PUSH0 REVERT JUMPDEST PUSH1 0x20 DUP4 ADD SWAP2 POP DUP4 PUSH1 0x20 DUP3 DUP6 ADD ADD GT ISZERO PUSH2 0x1D64 JUMPI PUSH0 PUSH0 REVERT JUMPDEST SWAP3 POP SWAP3 SWAP1 POP JUMP JUMPDEST PUSH0 PUSH0 PUSH0 PUSH0 PUSH1 0x40 DUP6 DUP8 SUB SLT ISZERO PUSH2 0x1D7E JUMPI PUSH0 PUSH0 REVERT JUMPDEST DUP5 CALLDATALOAD PUSH8 0xFFFFFFFFFFFFFFFF DUP2 GT ISZERO PUSH2 0x1D94 JUMPI PUSH0 PUSH0 REVERT JUMPDEST PUSH2 0x1DA0 DUP8 DUP3 DUP9 ADD PUSH2 0x1D26 JUMP JUMPDEST SWAP1 SWAP6 POP SWAP4 POP POP PUSH1 0x20 DUP6 ADD CALLDATALOAD PUSH8 0xFFFFFFFFFFFFFFFF DUP2 GT ISZERO PUSH2 0x1DBF JUMPI PUSH0 PUSH0 REVERT JUMPDEST PUSH2 0x1DCB DUP8 DUP3 DUP9 ADD PUSH2 0x1D26 JUMP JUMPDEST SWAP6 SWAP9 SWAP5 SWAP8 POP SWAP6 POP POP POP POP JUMP JUMPDEST DUP1 PUSH2 0x140 DUP2 ADD DUP4 LT ISZERO PUSH2 0xCF4 JUMPI PUSH0 PUSH0 REVERT JUMPDEST PUSH0 PUSH0 PUSH0 PUSH0 PUSH2 0x200 DUP6 DUP8 SUB SLT ISZERO PUSH2 0x1DFC JUMPI PUSH0 PUSH0 REVERT JUMPDEST PUSH1 0x80 DUP6 ADD DUP7 DUP2 GT ISZERO PUSH2 0x1E0C JUMPI PUSH0 PUSH0 REVERT JUMPDEST DUP6 SWAP5 POP PUSH1 0xA0 DUP7 ADD DUP8 DUP2 GT ISZERO PUSH2 0x1E1F JUMPI PUSH0 PUSH0 REVERT JUMPDEST SWAP1 SWAP4 POP CALLDATALOAD SWAP2 POP PUSH2 0x1E32 DUP7 PUSH1 0xC0 DUP8 ADD PUSH2 0x1DD7 JUMP JUMPDEST SWAP1 POP SWAP3 SWAP6 SWAP2 SWAP5 POP SWAP3 POP JUMP JUMPDEST PUSH0 PUSH0 PUSH0 PUSH0 PUSH2 0x2C0 DUP6 DUP8 SUB SLT ISZERO PUSH2 0x1E51 JUMPI PUSH0 PUSH0 REVERT JUMPDEST PUSH2 0x1E5B DUP7 DUP7 PUSH2 0x1C5E JUMP JUMPDEST SWAP4 POP PUSH2 0x1E6B DUP7 PUSH2 0x100 DUP8 ADD PUSH2 0x1C6F JUMP JUMPDEST SWAP3 POP PUSH2 0x1E7B DUP7 PUSH2 0x140 DUP8 ADD PUSH2 0x1C6F JUMP JUMPDEST SWAP2 POP PUSH2 0x1E32 DUP7 PUSH2 0x180 DUP8 ADD PUSH2 0x1DD7 JUMP JUMPDEST PUSH4 0x4E487B71 PUSH1 0xE0 SHL PUSH0 MSTORE PUSH1 0x32 PUSH1 0x4 MSTORE PUSH1 0x24 PUSH0 REVERT JUMPDEST DUP1 PUSH0 JUMPDEST PUSH1 0x2 DUP2 LT ISZERO PUSH2 0x1EC1 JUMPI DUP2 MLOAD DUP5 MSTORE PUSH1 0x20 SWAP4 DUP5 ADD SWAP4 SWAP1 SWAP2 ADD SWAP1 PUSH1 0x1 ADD PUSH2 0x1EA2 JUMP JUMPDEST POP POP POP POP JUMP JUMPDEST PUSH2 0x2C0 DUP2 ADD DUP2 DUP7 PUSH0 JUMPDEST PUSH1 0x8 DUP2 LT ISZERO PUSH2 0x1EEF JUMPI DUP2 MLOAD DUP4 MSTORE PUSH1 0x20 SWAP3 DUP4 ADD SWAP3 SWAP1 SWAP2 ADD SWAP1 PUSH1 0x1 ADD PUSH2 0x1ED0 JUMP JUMPDEST POP POP POP PUSH2 0x1F00 PUSH2 0x100 DUP4 ADD DUP7 PUSH2 0x1E9F JUMP JUMPDEST PUSH2 0x1F0E PUSH2 0x140 DUP4 ADD DUP6 PUSH2 0x1E9F JUMP JUMPDEST PUSH2 0x180 DUP3 ADD DUP4 PUSH0 JUMPDEST PUSH1 0xA DUP2 LT ISZERO PUSH2 0x1F35 JUMPI DUP2 MLOAD DUP4 MSTORE PUSH1 0x20 SWAP3 DUP4 ADD SWAP3 SWAP1 SWAP2 ADD SWAP1 PUSH1 0x1 ADD PUSH2 0x1F16 JUMP JUMPDEST POP POP POP SWAP6 SWAP5 POP POP POP POP POP JUMP JUMPDEST PUSH4 0x4E487B71 PUSH1 0xE0 SHL PUSH0 MSTORE PUSH1 0x41 PUSH1 0x4 MSTORE PUSH1 0x24 PUSH0 REVERT JUMPDEST DUP4 DUP2 MSTORE DUP3 PUSH1 0x20 DUP3 ADD MSTORE PUSH0 PUSH1 0x40 DUP3 ADD DUP4 MLOAD PUSH1 0x20 DUP6 ADD PUSH0 JUMPDEST DUP3 DUP2 LT ISZERO PUSH2 0x1F89 JUMPI DUP2 MLOAD DUP5 MSTORE PUSH1 0x20 SWAP4 DUP5 ADD SWAP4 SWAP1 SWAP2 ADD SWAP1 PUSH1 0x1 ADD PUSH2 0x1F6B JUMP JUMPDEST POP SWAP2 SWAP8 SWAP7 POP POP POP POP POP POP POP JUMP JUMPDEST PUSH4 0x4E487B71 PUSH1 0xE0 SHL PUSH0 MSTORE PUSH1 0x12 PUSH1 0x4 MSTORE PUSH1 0x24 PUSH0 REVERT JUMPDEST PUSH0 DUP3 PUSH2 0x1FC4 JUMPI PUSH4 0x4E487B71 PUSH1 0xE0 SHL PUSH0 MSTORE PUSH1 0x12 PUSH1 0x4 MSTORE PUSH1 0x24 PUSH0 REVERT JUMPDEST POP MOD SWAP1 JUMP JUMPDEST DUP2 DUP2 SUB DUP2 DUP2 GT ISZERO PUSH2 0xCF4 JUMPI PUSH4 0x4E487B71 PUSH1 0xE0 SHL PUSH0 MSTORE PUSH1 0x11 PUSH1 0x4 MSTORE PUSH1 0x24 PUSH0 REVERT JUMPDEST PUSH1 0x40 MLOAD PUSH1 0x1F DUP3 ADD PUSH1 0x1F NOT AND DUP2 ADD PUSH8 0xFFFFFFFFFFFFFFFF DUP2 GT DUP3 DUP3 LT OR ISZERO PUSH2 0x2011 JUMPI PUSH2 0x2011 PUSH2 0x1F41 JUMP JUMPDEST PUSH1 0x40 MSTORE SWAP2 SWAP1 POP JUMP JUMPDEST PUSH0 DUP3 PUSH1 0x1F DUP4 ADD SLT PUSH2 0x2028 JUMPI PUSH0 PUSH0 REVERT JUMPDEST PUSH0 PUSH2 0x2033 PUSH1 0x40 PUSH2 0x1FE8 JUMP JUMPDEST SWAP1 POP DUP1 PUSH1 0x40 DUP5 ADD DUP6 DUP2 GT ISZERO PUSH2 0x2046 JUMPI PUSH0 PUSH0 REVERT JUMPDEST DUP5 JUMPDEST DUP2 DUP2 LT ISZERO PUSH2 0x2060 JUMPI DUP1 CALLDATALOAD DUP4 MSTORE PUSH1 0x20 SWAP3 DUP4 ADD SWAP3 ADD PUSH2 0x2048 JUMP JUMPDEST POP SWAP2 SWAP6 SWAP5 POP POP POP POP POP JUMP JUMPDEST PUSH0 PUSH0 PUSH0 PUSH2 0x180 DUP5 DUP7 SUB SLT ISZERO PUSH2 0x207E JUMPI PUSH0 PUSH0 REVERT JUMPDEST PUSH0 DUP6 PUSH1 0x1F DUP7 ADD SLT PUSH2 0x208D JUMPI PUSH0 PUSH0 REVERT JUMPDEST POP PUSH0 DUP1 PUSH2 0x100 PUSH2 0x209C DUP2 PUSH2 0x1FE8 JUMP JUMPDEST SWAP3 POP DUP3 SWAP2 POP DUP7 ADD DUP8 DUP2 GT ISZERO PUSH2 0x20AF JUMPI PUSH0 PUSH0 REVERT JUMPDEST DUP7 JUMPDEST DUP2 DUP2 LT ISZERO PUSH2 0x20C9 JUMPI DUP1 CALLDATALOAD DUP5 MSTORE PUSH1 0x20 SWAP4 DUP5 ADD SWAP4 ADD PUSH2 0x20B1 JUMP JUMPDEST POP DUP2 SWAP6 POP PUSH2 0x20D7 DUP9 DUP3 PUSH2 0x2019 JUMP JUMPDEST SWAP5 POP POP POP POP PUSH2 0x1CBC DUP6 PUSH2 0x140 DUP7 ADD PUSH2 0x2019 JUMP JUMPDEST PUSH0 DUP3 PUSH1 0x1F DUP4 ADD SLT PUSH2 0x20F9 JUMPI PUSH0 PUSH0 REVERT JUMPDEST DUP2 CALLDATALOAD PUSH8 0xFFFFFFFFFFFFFFFF DUP2 GT ISZERO PUSH2 0x2113 JUMPI PUSH2 0x2113 PUSH2 0x1F41 JUMP JUMPDEST PUSH2 0x2126 PUSH1 0x1F DUP3 ADD PUSH1 0x1F NOT AND PUSH1 0x20 ADD PUSH2 0x1FE8 JUMP JUMPDEST DUP2 DUP2 MSTORE DUP5 PUSH1 0x20 DUP4 DUP7 ADD ADD GT ISZERO PUSH2 0x213A JUMPI PUSH0 PUSH0 REVERT JUMPDEST DUP2 PUSH1 0x20 DUP6 ADD PUSH1 0x20 DUP4 ADD CALLDATACOPY PUSH0 SWAP2 DUP2 ADD PUSH1 0x20 ADD SWAP2 SWAP1 SWAP2 MSTORE SWAP4 SWAP3 POP POP POP JUMP JUMPDEST PUSH0 PUSH0 PUSH0 PUSH2 0x180 DUP5 DUP7 SUB SLT ISZERO PUSH2 0x2169 JUMPI PUSH0 PUSH0 REVERT JUMPDEST PUSH0 DUP6 PUSH1 0x1F DUP7 ADD SLT PUSH2 0x2178 JUMPI PUSH0 PUSH0 REVERT JUMPDEST POP PUSH0 DUP1 PUSH2 0x140 PUSH2 0x2187 DUP2 PUSH2 0x1FE8 JUMP JUMPDEST SWAP3 POP DUP3 SWAP2 POP DUP7 ADD DUP8 DUP2 GT ISZERO PUSH2 0x219A JUMPI PUSH0 PUSH0 REVERT JUMPDEST DUP7 JUMPDEST DUP2 DUP2 LT ISZERO PUSH2 0x21B4 JUMPI DUP1 CALLDATALOAD DUP5 MSTORE PUSH1 0x20 SWAP4 DUP5 ADD SWAP4 ADD PUSH2 0x219C JUMP JUMPDEST POP SWAP1 SWAP5 POP CALLDATALOAD SWAP1 POP PUSH8 0xFFFFFFFFFFFFFFFF DUP2 GT ISZERO PUSH2 0x21CF JUMPI PUSH0 PUSH0 REVERT JUMPDEST PUSH2 0x21DB DUP7 DUP3 DUP8 ADD PUSH2 0x20EA JUMP JUMPDEST SWAP3 POP POP PUSH2 0x160 DUP5 ADD CALLDATALOAD PUSH8 0xFFFFFFFFFFFFFFFF DUP2 GT ISZERO PUSH2 0x21F8 JUMPI PUSH0 PUSH0 REVERT JUMPDEST PUSH2 0x2204 DUP7 DUP3 DUP8 ADD PUSH2 0x20EA JUMP JUMPDEST SWAP2 POP POP SWAP3 POP SWAP3 POP SWAP3 JUMP INVALID ADDRESS PUSH5 0x4E72E131A0 0x29 0xB8 POP GASLIMIT 0xB6 DUP2 DUP2 PC TSTORE SWAP8 DUP2 PUSH11 0x916871CA8D3C208C16D87C REVERT SELFBALANCE ADDRESS PUSH5 0x4E72E131A0 0x29 0xB8 POP GASLIMIT 0xB6 DUP2 DUP2 PC TSTORE 0x28 CALLER 0xE8 BASEFEE PUSH26 0xB9709143E1F593F0000001A2646970667358221220C7896B165B 0xC2 PUSH2 0x82C5 PUSH3 0xA9DF9E SWAP9 0xBF 0xE3 SMOD DUP6 PUSH17 0x8BC7C48439921FE661D2EB638D64736F6C PUSH4 0x4300081C STOP CALLER "},"methodIdentifiers":{"compressProof(uint256[8],uint256[2],uint256[2])":"b1c3a00e","provingKeyHash()":"233ace11","verifyCompressedProof(uint256[4],uint256[1],uint256,uint256[10])":"dc37819a","verifyProof(bytes,bytes)":"b8e72af6","verifyProof(uint256[8],uint256[2],uint256[2],uint256[10])":"df078bef"}}}}}