{"src/ProcessRegistry.sol":{"ProcessRegistry":{"abi":[{"inputs":[{"internalType":"address","name":"target","type":"address"}],"name":"AddressEmptyCode","type":"error"},{"inputs":[{"internalType":"address","name":"implementation","type":"address"}],"name":"ERC1967InvalidImplementation","type":"error"},{"inputs":[],"name":"ERC1967NonPayable","type":"error"},{"inputs":[],"name":"FailedInnerCall","type":"error"},{"inputs":[],"name":"InvalidInitialization","type":"error"},{"inputs":[],"name":"NotInitializing","type":"error"},{"inputs":[{"internalType":"address","name":"owner","type":"address"}],"name":"OwnableInvalidOwner","type":"error"},{"inputs":[{"internalType":"address","name":"account","type":"address"}],"name":"OwnableUnauthorizedAccount","type":"error"},{"inputs":[],"name":"UUPSUnauthorizedCallContext","type":"error"},{"inputs":[{"internalType":"bytes32","name":"slot","type":"bytes32"}],"name":"UUPSUnsupportedProxiableUUID","type":"error"},{"anonymous":false,"inputs":[{"indexed":true,"internalType":"bytes32","name":"processID","type":"bytes32"},{"indexed":false,"internalType":"bytes32","name":"censusRoot","type":"bytes32"},{"indexed":false,"internalType":"string","name":"censusURI","type":"string"},{"indexed":false,"internalType":"uint256","name":"maxCensusSize","type":"uint256"}],"name":"CensusUpdated","type":"event"},{"anonymous":false,"inputs":[{"indexed":false,"internalType":"uint64","name":"version","type":"uint64"}],"name":"Initialized","type":"event"},{"anonymous":false,"inputs":[{"indexed":true,"internalType":"address","name":"previousOwner","type":"address"},{"indexed":true,"internalType":"address","name":"newOwner","type":"address"}],"name":"OwnershipTransferred","type":"event"},{"anonymous":false,"inputs":[{"indexed":true,"internalType":"bytes32","name":"processID","type":"bytes32"},{"indexed":true,"internalType":"address","name":"creator","type":"address"}],"name":"ProcessCreated","type":"event"},{"anonymous":false,"inputs":[{"indexed":true,"internalType":"bytes32","name":"processID","type":"bytes32"},{"indexed":false,"internalType":"uint256","name":"duration","type":"uint256"}],"name":"ProcessDurationChanged","type":"event"},{"anonymous":false,"inputs":[{"indexed":true,"internalType":"bytes32","name":"processID","type":"bytes32"},{"indexed":false,"internalType":"bytes32","name":"newStateRoot","type":"bytes32"}],"name":"ProcessStateRootUpdated","type":"event"},{"anonymous":false,"inputs":[{"indexed":true,"internalType":"bytes32","name":"processID","type":"bytes32"},{"indexed":false,"internalType":"enum ProcessRegistry.ProcessStatus","name":"newStatus","type":"uint8"}],"name":"ProcessStatusChanged","type":"event"},{"anonymous":false,"inputs":[{"indexed":true,"internalType":"address","name":"implementation","type":"address"}],"name":"Upgraded","type":"event"},{"inputs":[],"name":"UPGRADE_INTERFACE_VERSION","outputs":[{"internalType":"string","name":"","type":"string"}],"stateMutability":"view","type":"function"},{"inputs":[],"name":"chainID","outputs":[{"internalType":"string","name":"","type":"string"}],"stateMutability":"view","type":"function"},{"inputs":[{"internalType":"bytes32","name":"_processID","type":"bytes32"}],"name":"endProcess","outputs":[],"stateMutability":"nonpayable","type":"function"},{"inputs":[{"internalType":"bytes32","name":"_processID","type":"bytes32"}],"name":"getProcess","outputs":[{"components":[{"internalType":"enum ProcessRegistry.ProcessStatus","name":"status","type":"uint8"},{"internalType":"bytes32","name":"organizationId","type":"bytes32"},{"internalType":"bytes32[2]","name":"encryptionKeys","type":"bytes32[2]"},{"internalType":"bytes32","name":"latestStateRoot","type":"bytes32"},{"internalType":"uint256[][]","name":"result","type":"uint256[][]"},{"internalType":"uint256","name":"startTime","type":"uint256"},{"internalType":"uint256","name":"duration","type":"uint256"},{"internalType":"string","name":"metadataURI","type":"string"},{"components":[{"internalType":"uint8","name":"envelopeType","type":"uint8"},{"internalType":"uint8","name":"processMode","type":"uint8"},{"internalType":"uint256","name":"startTime","type":"uint256"},{"internalType":"uint256","name":"duration","type":"uint256"},{"internalType":"enum ProcessRegistry.ProcessStatus","name":"status","type":"uint8"},{"components":[{"internalType":"bool","name":"uniqueValues","type":"bool"},{"internalType":"uint256","name":"maxCount","type":"uint256"},{"internalType":"uint256","name":"maxValue","type":"uint256"},{"internalType":"uint256","name":"minValue","type":"uint256"},{"internalType":"uint256","name":"maxOverwrites","type":"uint256"},{"internalType":"uint256","name":"maxTotalCost","type":"uint256"},{"internalType":"uint256","name":"minTotalCost","type":"uint256"},{"internalType":"uint256","name":"costExponent","type":"uint256"}],"internalType":"struct ProcessRegistry.VoteOptions","name":"voteOptions","type":"tuple"}],"internalType":"struct ProcessRegistry.ProcessOptions","name":"options","type":"tuple"},{"components":[{"internalType":"enum ProcessRegistry.CensusOrigin","name":"censusOrigin","type":"uint8"},{"internalType":"uint256","name":"maxCensusSize","type":"uint256"},{"internalType":"bytes32","name":"censusRoot","type":"bytes32"},{"internalType":"string","name":"censusURI","type":"string"}],"internalType":"struct ProcessRegistry.Census","name":"census","type":"tuple"}],"internalType":"struct ProcessRegistry.Process","name":"","type":"tuple"}],"stateMutability":"view","type":"function"},{"inputs":[{"internalType":"string","name":"_chainID","type":"string"},{"internalType":"address","name":"_organizationRegistry","type":"address"}],"name":"initialize","outputs":[],"stateMutability":"nonpayable","type":"function"},{"inputs":[{"components":[{"internalType":"uint8","name":"envelopeType","type":"uint8"},{"internalType":"uint8","name":"processMode","type":"uint8"},{"internalType":"uint256","name":"startTime","type":"uint256"},{"internalType":"uint256","name":"duration","type":"uint256"},{"internalType":"enum ProcessRegistry.ProcessStatus","name":"status","type":"uint8"},{"components":[{"internalType":"bool","name":"uniqueValues","type":"bool"},{"internalType":"uint256","name":"maxCount","type":"uint256"},{"internalType":"uint256","name":"maxValue","type":"uint256"},{"internalType":"uint256","name":"minValue","type":"uint256"},{"internalType":"uint256","name":"maxOverwrites","type":"uint256"},{"internalType":"uint256","name":"maxTotalCost","type":"uint256"},{"internalType":"uint256","name":"minTotalCost","type":"uint256"},{"internalType":"uint256","name":"costExponent","type":"uint256"}],"internalType":"struct ProcessRegistry.VoteOptions","name":"voteOptions","type":"tuple"}],"internalType":"struct ProcessRegistry.ProcessOptions","name":"_options","type":"tuple"},{"components":[{"internalType":"enum ProcessRegistry.CensusOrigin","name":"censusOrigin","type":"uint8"},{"internalType":"uint256","name":"maxCensusSize","type":"uint256"},{"internalType":"bytes32","name":"censusRoot","type":"bytes32"},{"internalType":"string","name":"censusURI","type":"string"}],"internalType":"struct ProcessRegistry.Census","name":"_census","type":"tuple"},{"internalType":"string","name":"_metadata","type":"string"},{"internalType":"bytes32","name":"_organizationID","type":"bytes32"},{"internalType":"bytes32","name":"_processID","type":"bytes32"},{"internalType":"bytes32","name":"_encryptionPubKey","type":"bytes32"},{"internalType":"bytes32","name":"_initStateRoot","type":"bytes32"}],"name":"newProcess","outputs":[],"stateMutability":"nonpayable","type":"function"},{"inputs":[],"name":"organizationRegistry","outputs":[{"internalType":"address","name":"","type":"address"}],"stateMutability":"view","type":"function"},{"inputs":[],"name":"owner","outputs":[{"internalType":"address","name":"","type":"address"}],"stateMutability":"view","type":"function"},{"inputs":[],"name":"processCount","outputs":[{"internalType":"uint32","name":"","type":"uint32"}],"stateMutability":"view","type":"function"},{"inputs":[{"internalType":"bytes32","name":"","type":"bytes32"}],"name":"processes","outputs":[{"internalType":"enum ProcessRegistry.ProcessStatus","name":"status","type":"uint8"},{"internalType":"bytes32","name":"organizationId","type":"bytes32"},{"internalType":"bytes32","name":"latestStateRoot","type":"bytes32"},{"internalType":"uint256","name":"startTime","type":"uint256"},{"internalType":"uint256","name":"duration","type":"uint256"},{"internalType":"string","name":"metadataURI","type":"string"},{"components":[{"internalType":"uint8","name":"envelopeType","type":"uint8"},{"internalType":"uint8","name":"processMode","type":"uint8"},{"internalType":"uint256","name":"startTime","type":"uint256"},{"internalType":"uint256","name":"duration","type":"uint256"},{"internalType":"enum ProcessRegistry.ProcessStatus","name":"status","type":"uint8"},{"components":[{"internalType":"bool","name":"uniqueValues","type":"bool"},{"internalType":"uint256","name":"maxCount","type":"uint256"},{"internalType":"uint256","name":"maxValue","type":"uint256"},{"internalType":"uint256","name":"minValue","type":"uint256"},{"internalType":"uint256","name":"maxOverwrites","type":"uint256"},{"internalType":"uint256","name":"maxTotalCost","type":"uint256"},{"internalType":"uint256","name":"minTotalCost","type":"uint256"},{"internalType":"uint256","name":"costExponent","type":"uint256"}],"internalType":"struct ProcessRegistry.VoteOptions","name":"voteOptions","type":"tuple"}],"internalType":"struct ProcessRegistry.ProcessOptions","name":"options","type":"tuple"},{"components":[{"internalType":"enum ProcessRegistry.CensusOrigin","name":"censusOrigin","type":"uint8"},{"internalType":"uint256","name":"maxCensusSize","type":"uint256"},{"internalType":"bytes32","name":"censusRoot","type":"bytes32"},{"internalType":"string","name":"censusURI","type":"string"}],"internalType":"struct ProcessRegistry.Census","name":"census","type":"tuple"}],"stateMutability":"view","type":"function"},{"inputs":[],"name":"proxiableUUID","outputs":[{"internalType":"bytes32","name":"","type":"bytes32"}],"stateMutability":"view","type":"function"},{"inputs":[],"name":"renounceOwnership","outputs":[],"stateMutability":"nonpayable","type":"function"},{"inputs":[{"internalType":"bytes32","name":"_processID","type":"bytes32"},{"components":[{"internalType":"enum ProcessRegistry.CensusOrigin","name":"censusOrigin","type":"uint8"},{"internalType":"uint256","name":"maxCensusSize","type":"uint256"},{"internalType":"bytes32","name":"censusRoot","type":"bytes32"},{"internalType":"string","name":"censusURI","type":"string"}],"internalType":"struct ProcessRegistry.Census","name":"_census","type":"tuple"}],"name":"setProcessCensus","outputs":[],"stateMutability":"nonpayable","type":"function"},{"inputs":[{"internalType":"bytes32","name":"_processID","type":"bytes32"},{"internalType":"uint256","name":"_duration","type":"uint256"}],"name":"setProcessDuration","outputs":[],"stateMutability":"nonpayable","type":"function"},{"inputs":[{"internalType":"bytes32","name":"_processID","type":"bytes32"},{"internalType":"uint256[][]","name":"_result","type":"uint256[][]"},{"internalType":"bytes","name":"_proof","type":"bytes"}],"name":"setProcessResult","outputs":[],"stateMutability":"nonpayable","type":"function"},{"inputs":[{"internalType":"bytes32","name":"_processID","type":"bytes32"},{"internalType":"enum ProcessRegistry.ProcessStatus","name":"_newStatus","type":"uint8"}],"name":"setProcessStatus","outputs":[],"stateMutability":"nonpayable","type":"function"},{"inputs":[{"internalType":"bytes32","name":"_processID","type":"bytes32"},{"internalType":"bytes32","name":"_oldRoot","type":"bytes32"},{"internalType":"bytes32","name":"_newRoot","type":"bytes32"},{"internalType":"bytes","name":"_proof","type":"bytes"}],"name":"submitStateTransition","outputs":[],"stateMutability":"nonpayable","type":"function"},{"inputs":[{"internalType":"address","name":"newOwner","type":"address"}],"name":"transferOwnership","outputs":[],"stateMutability":"nonpayable","type":"function"},{"inputs":[{"internalType":"address","name":"newImplementation","type":"address"},{"internalType":"bytes","name":"data","type":"bytes"}],"name":"upgradeToAndCall","outputs":[],"stateMutability":"payable","type":"function"}],"evm":{"bytecode":{"linkReferences":{},"object":"60a06040523073ffffffffffffffffffffffffffffffffffffffff1660809073ffffffffffffffffffffffffffffffffffffffff1681525034801561004357600080fd5b50608051615d706200006e60003960008181612865015281816128ba0152612a750152615d706000f3fe6080604052600436106101145760003560e01c80638da5cb5b116100a0578063b66ba6eb11610064578063b66ba6eb14610373578063c718c01f1461039c578063ca0f925b146103c5578063ea9bcaf6146103ee578063f2fde38b1461041757610114565b80638da5cb5b1461028c578063992bc45b146102b7578063a96e8d2e146102f4578063ad3cb1cc1461031d578063adc879e91461034857610114565b80636bae04ea116100e75780636bae04ea146101cd578063715018a6146101f65780637ab4339d1461020d578063848df540146102365780638cafab7f1461026157610114565b80630535fece146101195780634f1ef2861461015d57806352d1902d1461017957806356a6f1e2146101a4575b600080fd5b34801561012557600080fd5b50610140600480360381019061013b9190613417565b610440565b6040516101549897969594939291906137ea565b60405180910390f35b61017760048036038101906101729190613a0a565b610711565b005b34801561018557600080fd5b5061018e610730565b60405161019b9190613a66565b60405180910390f35b3480156101b057600080fd5b506101cb60048036038101906101c69190613aa6565b610763565b005b3480156101d957600080fd5b506101f460048036038101906101ef9190613b0a565b610b31565b005b34801561020257600080fd5b5061020b610f57565b005b34801561021957600080fd5b50610234600480360381019061022f9190613bc6565b610f6b565b005b34801561024257600080fd5b5061024b611157565b6040516102589190613c45565b60405180910390f35b34801561026d57600080fd5b5061027661116d565b6040516102839190613c6f565b60405180910390f35b34801561029857600080fd5b506102a1611193565b6040516102ae9190613c6f565b60405180910390f35b3480156102c357600080fd5b506102de60048036038101906102d99190613417565b6111cb565b6040516102eb919061405f565b60405180910390f35b34801561030057600080fd5b5061031b600480360381019061031691906140a1565b6115d9565b005b34801561032957600080fd5b50610332611edb565b60405161033f9190614186565b60405180910390f35b34801561035457600080fd5b5061035d611f14565b60405161036a9190614186565b60405180910390f35b34801561037f57600080fd5b5061039a600480360381019061039591906141fe565b611fa2565b005b3480156103a857600080fd5b506103c360048036038101906103be91906142b2565b612188565b005b3480156103d157600080fd5b506103ec60048036038101906103e79190614496565b612446565b005b3480156103fa57600080fd5b5061041560048036038101906104109190613417565b612597565b005b34801561042357600080fd5b5061043e60048036038101906104399190614526565b6127dd565b005b60006020528060005260406000206000915090508060000160009054906101000a900460ff169080600101549080600401549080600601549080600701549080600801805461048e90614582565b80601f01602080910402602001604051908101604052809291908181526020018280546104ba90614582565b80156105075780601f106104dc57610100808354040283529160200191610507565b820191906000526020600020905b8154815290600101906020018083116104ea57829003601f168201915b505050505090806009016040518060c00160405290816000820160009054906101000a900460ff1660ff1660ff1681526020016000820160019054906101000a900460ff1660ff1660ff16815260200160018201548152602001600282015481526020016003820160009054906101000a900460ff16600481111561058f5761058e613444565b5b60048111156105a1576105a0613444565b5b815260200160048201604051806101000160405290816000820160009054906101000a900460ff161515151581526020016001820154815260200160028201548152602001600382015481526020016004820154815260200160058201548152602001600682015481526020016007820154815250508152505090806015016040518060800160405290816000820160009054906101000a900460ff1660098111156106505761064f613444565b5b600981111561066257610661613444565b5b8152602001600182015481526020016002820154815260200160038201805461068a90614582565b80601f01602080910402602001604051908101604052809291908181526020018280546106b690614582565b80156107035780601f106106d857610100808354040283529160200191610703565b820191906000526020600020905b8154815290600101906020018083116106e657829003601f168201915b505050505081525050905088565b610719612863565b61072282612949565b61072c8282612954565b5050565b600061073a612a73565b7f360894a13ba1a3210667c828492db98dca3e2076cc3735a920a3ca505d382bbc60001b905090565b600160009054906101000a900473ffffffffffffffffffffffffffffffffffffffff1673ffffffffffffffffffffffffffffffffffffffff166364dd489f60008085815260200190815260200160002060010154336040518363ffffffff1660e01b81526004016107d59291906145b3565b602060405180830381865afa1580156107f2573d6000803e3d6000fd5b505050506040513d601f19601f820116820180604052508101906108169190614608565b610855576040517f08c379a000000000000000000000000000000000000000000000000000000000815260040161084c906146a7565b60405180910390fd5b600080600084815260200190815260200160002060000160009054906101000a900460ff169050600060048111156108905761088f613444565b5b8160048111156108a3576108a2613444565b5b141580156108d65750600360048111156108c0576108bf613444565b5b8160048111156108d3576108d2613444565b5b14155b15610916576040517f08c379a000000000000000000000000000000000000000000000000000000000815260040161090d90614713565b60405180910390fd5b6003600481111561092a57610929613444565b5b81600481111561093d5761093c613444565b5b036109e2576000600260008086815260200190815260200160002060090160000160019054906101000a900460ff161660ff16036109dd576000600481111561098957610988613444565b5b82600481111561099c5761099b613444565b5b146109dc576040517f08c379a00000000000000000000000000000000000000000000000000000000081526004016109d39061477f565b60405180910390fd5b5b610a51565b6000600260008086815260200190815260200160002060090160000160019054906101000a900460ff161660ff1603610a50576040517f08c379a0000000000000000000000000000000000000000000000000000000008152600401610a479061477f565b60405180910390fd5b5b806004811115610a6457610a63613444565b5b826004811115610a7757610a76613444565b5b03610ab7576040517f08c379a0000000000000000000000000000000000000000000000000000000008152600401610aae906147eb565b60405180910390fd5b8160008085815260200190815260200160002060000160006101000a81548160ff02191690836004811115610aef57610aee613444565b5b0217905550827fac0c4085a30bc70d0d8893ee5d6466ac9c5f03e27fd7292dcef128a610e7c19083604051610b24919061480b565b60405180910390a2505050565b600160009054906101000a900473ffffffffffffffffffffffffffffffffffffffff1673ffffffffffffffffffffffffffffffffffffffff166364dd489f60008085815260200190815260200160002060010154336040518363ffffffff1660e01b8152600401610ba39291906145b3565b602060405180830381865afa158015610bc0573d6000803e3d6000fd5b505050506040513d601f19601f82011682018060405250810190610be49190614608565b610c23576040517f08c379a0000000000000000000000000000000000000000000000000000000008152600401610c1a90614898565b60405180910390fd5b6000818060600190610c3591906148c7565b905011610c77576040517f08c379a0000000000000000000000000000000000000000000000000000000008152600401610c6e90614976565b60405180910390fd5b6000801b816040013503610cc0576040517f08c379a0000000000000000000000000000000000000000000000000000000008152600401610cb7906149e2565b60405180910390fd5b6000801b6000808481526020019081526020016000206001015403610d1a576040517f08c379a0000000000000000000000000000000000000000000000000000000008152600401610d1190614a4e565b60405180910390fd5b60006004811115610d2e57610d2d613444565b5b60008084815260200190815260200160002060000160009054906101000a900460ff166004811115610d6357610d62613444565b5b1480610db5575060036004811115610d7e57610d7d613444565b5b60008084815260200190815260200160002060000160009054906101000a900460ff166004811115610db357610db2613444565b5b145b610df4576040517f08c379a0000000000000000000000000000000000000000000000000000000008152600401610deb90614713565b60405180910390fd5b6000600460008085815260200190815260200160002060090160000160019054906101000a900460ff161660ff1603610e62576040517f08c379a0000000000000000000000000000000000000000000000000000000008152600401610e5990614aba565b60405180910390fd5b8060200135600080848152602001908152602001600020601501600101541015610ea8578060200135600080848152602001908152602001600020601501600101819055505b806040013560008084815260200190815260200160002060150160020181905550808060600190610ed991906148c7565b6000808581526020019081526020016000206015016003019182610efe929190614c91565b50817f35947a8913e2156f19b018078c9f0667e49cb3dc24af3434a4d0b16b82675b1b8260400135838060600190610f3691906148c7565b8560200135604051610f4b9493929190614d8e565b60405180910390a25050565b610f5f612afa565b610f696000612b81565b565b6000610f75612c58565b905060008160000160089054906101000a900460ff1615905060008260000160009054906101000a900467ffffffffffffffff1690506000808267ffffffffffffffff16148015610fc35750825b9050600060018367ffffffffffffffff16148015610ff8575060003073ffffffffffffffffffffffffffffffffffffffff163b145b905081158015611006575080155b1561103d576040517ff92ee8a900000000000000000000000000000000000000000000000000000000815260040160405180910390fd5b60018560000160006101000a81548167ffffffffffffffff021916908367ffffffffffffffff160217905550831561108d5760018560000160086101000a81548160ff0219169083151502179055505b61109633612c80565b61109e612c94565b8787600291826110af929190614c91565b5085600160006101000a81548173ffffffffffffffffffffffffffffffffffffffff021916908373ffffffffffffffffffffffffffffffffffffffff160217905550831561114d5760008560000160086101000a81548160ff0219169083151502179055507fc7f505b2f371ae2175ee4913f4499e1f2633a7b5936321eed1cdaeb6115181d260016040516111449190614e1d565b60405180910390a15b5050505050505050565b600160149054906101000a900463ffffffff1681565b600160009054906101000a900473ffffffffffffffffffffffffffffffffffffffff1681565b60008061119e612c9e565b90508060000160009054906101000a900473ffffffffffffffffffffffffffffffffffffffff1691505090565b6111d36130ea565b600080838152602001908152602001600020604051806101400160405290816000820160009054906101000a900460ff16600481111561121657611215613444565b5b600481111561122857611227613444565b5b81526020016001820154815260200160028201600280602002604051908101604052809291908260028015611272576020028201915b81548152602001906001019080831161125e575b505050505081526020016004820154815260200160058201805480602002602001604051908101604052809291908181526020016000905b8282101561131c5783829060005260206000200180548060200260200160405190810160405280929190818152602001828054801561130857602002820191906000526020600020905b8154815260200190600101908083116112f4575b5050505050815260200190600101906112aa565b505050508152602001600682015481526020016007820154815260200160088201805461134890614582565b80601f016020809104026020016040519081016040528092919081815260200182805461137490614582565b80156113c15780601f10611396576101008083540402835291602001916113c1565b820191906000526020600020905b8154815290600101906020018083116113a457829003601f168201915b50505050508152602001600982016040518060c00160405290816000820160009054906101000a900460ff1660ff1660ff1681526020016000820160019054906101000a900460ff1660ff1660ff16815260200160018201548152602001600282015481526020016003820160009054906101000a900460ff16600481111561144d5761144c613444565b5b600481111561145f5761145e613444565b5b815260200160048201604051806101000160405290816000820160009054906101000a900460ff16151515158152602001600182015481526020016002820154815260200160038201548152602001600482015481526020016005820154815260200160068201548152602001600782015481525050815250508152602001601582016040518060800160405290816000820160009054906101000a900460ff16600981111561151257611511613444565b5b600981111561152457611523613444565b5b8152602001600182015481526020016002820154815260200160038201805461154c90614582565b80601f016020809104026020016040519081016040528092919081815260200182805461157890614582565b80156115c55780601f1061159a576101008083540402835291602001916115c5565b820191906000526020600020905b8154815290600101906020018083116115a857829003601f168201915b505050505081525050815250509050919050565b60008860a0016020013511611623576040517f08c379a000000000000000000000000000000000000000000000000000000000815260040161161a90614e84565b60405180910390fd5b8760a001602001358860a0016040013511611673576040517f08c379a000000000000000000000000000000000000000000000000000000000815260040161166a90614ef0565b60405180910390fd5b6000600481111561168757611686613444565b5b88608001602081019061169a9190614f10565b60048111156116ac576116ab613444565b5b14806116ee5750600360048111156116c7576116c6613444565b5b8860800160208101906116da9190614f10565b60048111156116ec576116eb613444565b5b145b61172d576040517f08c379a000000000000000000000000000000000000000000000000000000000815260040161172490614f89565b60405180910390fd5b6003600981111561174157611740613444565b5b8760000160208101906117549190614fce565b600981111561176657611765613444565b5b036117c757600060028960000160208101906117829190615027565b1660ff16146117c6576040517f08c379a00000000000000000000000000000000000000000000000000000000081526004016117bd906150ec565b60405180910390fd5b5b6009808111156117da576117d9613444565b5b8760000160208101906117ed9190614fce565b60098111156117ff576117fe613444565b5b036119055760018860a001602001351461184e576040517f08c379a00000000000000000000000000000000000000000000000000000000081526004016118459061517e565b60405180910390fd5b600060028960000160208101906118659190615027565b1660ff16146118a9576040517f08c379a00000000000000000000000000000000000000000000000000000000081526004016118a090615236565b60405180910390fd5b600060048960000160208101906118c09190615027565b1660ff1614611904576040517f08c379a00000000000000000000000000000000000000000000000000000000081526004016118fb906152ee565b60405180910390fd5b5b4288604001351161194b576040517f08c379a00000000000000000000000000000000000000000000000000000000081526004016119429061535a565b60405180910390fd5b428860600135896040013561196091906153a9565b116119a0576040517f08c379a000000000000000000000000000000000000000000000000000000000815260040161199790615429565b60405180910390fd5b600060018960000160208101906119b79190615027565b1660ff16146119fb576040517f08c379a00000000000000000000000000000000000000000000000000000000081526004016119f2906154bb565b60405180910390fd5b600160009054906101000a900473ffffffffffffffffffffffffffffffffffffffff1673ffffffffffffffffffffffffffffffffffffffff166364dd489f85336040518363ffffffff1660e01b8152600401611a589291906145b3565b602060405180830381865afa158015611a75573d6000803e3d6000fd5b505050506040513d601f19601f82011682018060405250810190611a999190614608565b611ad8576040517f08c379a0000000000000000000000000000000000000000000000000000000008152600401611acf90615527565b60405180910390fd5b6000801b6000808581526020019081526020016000206001015414611b32576040517f08c379a0000000000000000000000000000000000000000000000000000000008152600401611b29906155b9565b60405180910390fd5b60006040518061014001604052808a6080016020810190611b539190614f10565b6004811115611b6557611b64613444565b5b815260200186815260200160405180604001604052808681526020016000801b8152508152602001838152602001600067ffffffffffffffff811115611bae57611bad6138df565b5b604051908082528060200260200182016040528015611be157816020015b6060815260200190600190039081611bcc5790505b5081526020018a6040013581526020018a60600135815260200188888080601f016020809104026020016040519081016040528093929190818152602001838380828437600081840152601f19601f8201169050808301925050505050505081526020018a803603810190611c569190615763565b815260200189611c65906158c6565b81525090508060008086815260200190815260200160002060008201518160000160006101000a81548160ff02191690836004811115611ca857611ca7613444565b5b021790555060208201518160010155604082015181600201906002611cce929190613167565b50606082015181600401556080820151816005019080519060200190611cf59291906131a7565b5060a0820151816006015560c0820151816007015560e0820151816008019081611d1f91906158d9565b506101008201518160090160008201518160000160006101000a81548160ff021916908360ff16021790555060208201518160000160016101000a81548160ff021916908360ff160217905550604082015181600101556060820151816002015560808201518160030160006101000a81548160ff02191690836004811115611dab57611daa613444565b5b021790555060a08201518160040160008201518160000160006101000a81548160ff0219169083151502179055506020820151816001015560408201518160020155606082015181600301556080820151816004015560a0820151816005015560c0820151816006015560e08201518160070155505050506101208201518160150160008201518160000160006101000a81548160ff02191690836009811115611e5857611e57613444565b5b021790555060208201518160010155604082015181600201556060820151816003019081611e8691906158d9565b5050509050503373ffffffffffffffffffffffffffffffffffffffff16847fada6f87a2a16a0c9c169ca36754c5f33f7c1a973b575d068f888a549ed4faefa60405160405180910390a3505050505050505050565b6040518060400160405280600581526020017f352e302e3000000000000000000000000000000000000000000000000000000081525081565b60028054611f2190614582565b80601f0160208091040260200160405190810160405280929190818152602001828054611f4d90614582565b8015611f9a5780601f10611f6f57610100808354040283529160200191611f9a565b820191906000526020600020905b815481529060010190602001808311611f7d57829003601f168201915b505050505081565b6000801b6000808781526020019081526020016000206001015403611ffc576040517f08c379a0000000000000000000000000000000000000000000000000000000008152600401611ff390614a4e565b60405180910390fd5b60048081111561200f5761200e613444565b5b60008087815260200190815260200160002060000160009054906101000a900460ff16600481111561204457612043613444565b5b1415801561209957506002600481111561206157612060613444565b5b60008087815260200190815260200160002060000160009054906101000a900460ff16600481111561209657612095613444565b5b14155b6120d8576040517f08c379a00000000000000000000000000000000000000000000000000000000081526004016120cf90615a1d565b60405180910390fd5b83600080878152602001908152602001600020600401541461212f576040517f08c379a000000000000000000000000000000000000000000000000000000000815260040161212690615a89565b60405180910390fd5b8260008087815260200190815260200160002060040181905550847f734f931fe7a3776841211722ed18b29fc2947cc7a13e74d15fa612205c022db8846040516121799190613a66565b60405180910390a25050505050565b600160009054906101000a900473ffffffffffffffffffffffffffffffffffffffff1673ffffffffffffffffffffffffffffffffffffffff166364dd489f60008085815260200190815260200160002060010154336040518363ffffffff1660e01b81526004016121fa9291906145b3565b602060405180830381865afa158015612217573d6000803e3d6000fd5b505050506040513d601f19601f8201168201806040525081019061223b9190614608565b61227a576040517f08c379a000000000000000000000000000000000000000000000000000000000815260040161227190615b1b565b60405180910390fd5b6000801b60008084815260200190815260200160002060010154036122d4576040517f08c379a00000000000000000000000000000000000000000000000000000000081526004016122cb90614a4e565b60405180910390fd5b600060048111156122e8576122e7613444565b5b60008084815260200190815260200160002060000160009054906101000a900460ff16600481111561231d5761231c613444565b5b148061236f57506003600481111561233857612337613444565b5b60008084815260200190815260200160002060000160009054906101000a900460ff16600481111561236d5761236c613444565b5b145b6123ae576040517f08c379a00000000000000000000000000000000000000000000000000000000081526004016123a590614713565b60405180910390fd5b4281116123f0576040517f08c379a00000000000000000000000000000000000000000000000000000000081526004016123e790615b87565b60405180910390fd5b8060008084815260200190815260200160002060070181905550817f0f759826327c668a220d576485ac38ddc4f83fbc414b984c00e79f669b649f468260405161243a9190615ba7565b60405180910390a25050565b6000801b60008086815260200190815260200160002060010154036124a0576040517f08c379a000000000000000000000000000000000000000000000000000000000815260040161249790614a4e565b60405180910390fd5b600160048111156124b4576124b3613444565b5b60008086815260200190815260200160002060000160009054906101000a900460ff1660048111156124e9576124e8613444565b5b14612529576040517f08c379a000000000000000000000000000000000000000000000000000000000815260040161252090615c0e565b60405180910390fd5b8260008086815260200190815260200160002060050190805190602001906125529291906131a7565b50600460008086815260200190815260200160002060000160006101000a81548160ff0219169083600481111561258c5761258b613444565b5b021790555050505050565b600160009054906101000a900473ffffffffffffffffffffffffffffffffffffffff1673ffffffffffffffffffffffffffffffffffffffff166364dd489f60008084815260200190815260200160002060010154336040518363ffffffff1660e01b81526004016126099291906145b3565b602060405180830381865afa158015612626573d6000803e3d6000fd5b505050506040513d601f19601f8201168201806040525081019061264a9190614608565b612689576040517f08c379a000000000000000000000000000000000000000000000000000000000815260040161268090615c7a565b60405180910390fd5b6000600481111561269d5761269c613444565b5b60008083815260200190815260200160002060000160009054906101000a900460ff1660048111156126d2576126d1613444565b5b14806127245750600360048111156126ed576126ec613444565b5b60008083815260200190815260200160002060000160009054906101000a900460ff16600481111561272257612721613444565b5b145b612763576040517f08c379a000000000000000000000000000000000000000000000000000000000815260040161275a90614713565b60405180910390fd5b600160008083815260200190815260200160002060000160006101000a81548160ff0219169083600481111561279c5761279b613444565b5b0217905550807fac0c4085a30bc70d0d8893ee5d6466ac9c5f03e27fd7292dcef128a610e7c19060016040516127d2919061480b565b60405180910390a250565b6127e5612afa565b600073ffffffffffffffffffffffffffffffffffffffff168173ffffffffffffffffffffffffffffffffffffffff16036128575760006040517f1e4fbdf700000000000000000000000000000000000000000000000000000000815260040161284e9190613c6f565b60405180910390fd5b61286081612b81565b50565b7f000000000000000000000000000000000000000000000000000000000000000073ffffffffffffffffffffffffffffffffffffffff163073ffffffffffffffffffffffffffffffffffffffff16148061291057507f000000000000000000000000000000000000000000000000000000000000000073ffffffffffffffffffffffffffffffffffffffff166128f7612cc6565b73ffffffffffffffffffffffffffffffffffffffff1614155b15612947576040517fe07c8dba00000000000000000000000000000000000000000000000000000000815260040160405180910390fd5b565b612951612afa565b50565b8173ffffffffffffffffffffffffffffffffffffffff166352d1902d6040518163ffffffff1660e01b8152600401602060405180830381865afa9250505080156129bc57506040513d601f19601f820116820180604052508101906129b99190615caf565b60015b6129fd57816040517f4c9c8ce30000000000000000000000000000000000000000000000000000000081526004016129f49190613c6f565b60405180910390fd5b7f360894a13ba1a3210667c828492db98dca3e2076cc3735a920a3ca505d382bbc60001b8114612a6457806040517faa1d49a4000000000000000000000000000000000000000000000000000000008152600401612a5b9190613a66565b60405180910390fd5b612a6e8383612d1d565b505050565b7f000000000000000000000000000000000000000000000000000000000000000073ffffffffffffffffffffffffffffffffffffffff163073ffffffffffffffffffffffffffffffffffffffff1614612af8576040517fe07c8dba00000000000000000000000000000000000000000000000000000000815260040160405180910390fd5b565b612b02612d90565b73ffffffffffffffffffffffffffffffffffffffff16612b20611193565b73ffffffffffffffffffffffffffffffffffffffff1614612b7f57612b43612d90565b6040517f118cdaa7000000000000000000000000000000000000000000000000000000008152600401612b769190613c6f565b60405180910390fd5b565b6000612b8b612c9e565b905060008160000160009054906101000a900473ffffffffffffffffffffffffffffffffffffffff169050828260000160006101000a81548173ffffffffffffffffffffffffffffffffffffffff021916908373ffffffffffffffffffffffffffffffffffffffff1602179055508273ffffffffffffffffffffffffffffffffffffffff168173ffffffffffffffffffffffffffffffffffffffff167f8be0079c531659141344cd1fd0a4f28419497f9722a3daafe3b4186f6b6457e060405160405180910390a3505050565b60007ff0c57e16840df040f15088dc2f81fe391c3923bec73e23a9662efc9c229c6a00905090565b612c88612d98565b612c9181612dd8565b50565b612c9c612d98565b565b60007f9016d09d72d40fdae2fd8ceac6b6234c7706214fd39c1cd1e609a0528c199300905090565b6000612cf47f360894a13ba1a3210667c828492db98dca3e2076cc3735a920a3ca505d382bbc60001b612e5e565b60000160009054906101000a900473ffffffffffffffffffffffffffffffffffffffff16905090565b612d2682612e68565b8173ffffffffffffffffffffffffffffffffffffffff167fbc7cd75a20ee27fd9adebab32041f755214dbc6bffa90cc0225b39da2e5c2d3b60405160405180910390a2600081511115612d8357612d7d8282612f35565b50612d8c565b612d8b612fb9565b5b5050565b600033905090565b612da0612ff6565b612dd6576040517fd7e6bcf800000000000000000000000000000000000000000000000000000000815260040160405180910390fd5b565b612de0612d98565b600073ffffffffffffffffffffffffffffffffffffffff168173ffffffffffffffffffffffffffffffffffffffff1603612e525760006040517f1e4fbdf7000000000000000000000000000000000000000000000000000000008152600401612e499190613c6f565b60405180910390fd5b612e5b81612b81565b50565b6000819050919050565b60008173ffffffffffffffffffffffffffffffffffffffff163b03612ec457806040517f4c9c8ce3000000000000000000000000000000000000000000000000000000008152600401612ebb9190613c6f565b60405180910390fd5b80612ef17f360894a13ba1a3210667c828492db98dca3e2076cc3735a920a3ca505d382bbc60001b612e5e565b60000160006101000a81548173ffffffffffffffffffffffffffffffffffffffff021916908373ffffffffffffffffffffffffffffffffffffffff16021790555050565b60606000808473ffffffffffffffffffffffffffffffffffffffff1684604051612f5f9190615d23565b600060405180830381855af49150503d8060008114612f9a576040519150601f19603f3d011682016040523d82523d6000602084013e612f9f565b606091505b5091509150612faf858383613016565b9250505092915050565b6000341115612ff4576040517fb398979f00000000000000000000000000000000000000000000000000000000815260040160405180910390fd5b565b6000613000612c58565b60000160089054906101000a900460ff16905090565b60608261302b57613026826130a5565b61309d565b60008251148015613053575060008473ffffffffffffffffffffffffffffffffffffffff163b145b1561309557836040517f9996b31500000000000000000000000000000000000000000000000000000000815260040161308c9190613c6f565b60405180910390fd5b81905061309e565b5b9392505050565b6000815111156130b85780518082602001fd5b6040517f1425ea4200000000000000000000000000000000000000000000000000000000815260040160405180910390fd5b6040518061014001604052806000600481111561310a57613109613444565b5b815260200160008019168152602001613121613207565b81526020016000801916815260200160608152602001600081526020016000815260200160608152602001613154613229565b815260200161316161327d565b81525090565b8260028101928215613196579160200282015b8281111561319557825182559160200191906001019061317a565b5b5090506131a391906132ba565b5090565b8280548282559060005260206000209081019282156131f6579160200282015b828111156131f55782518290805190602001906131e59291906132d7565b50916020019190600101906131c7565b5b5090506132039190613324565b5090565b6040518060400160405280600290602082028036833780820191505090505090565b6040518060c00160405280600060ff168152602001600060ff16815260200160008152602001600081526020016000600481111561326a57613269613444565b5b8152602001613277613348565b81525090565b60405180608001604052806000600981111561329c5761329b613444565b5b81526020016000815260200160008019168152602001606081525090565b5b808211156132d35760008160009055506001016132bb565b5090565b828054828255906000526020600020908101928215613313579160200282015b828111156133125782518255916020019190600101906132f7565b5b509050613320919061338f565b5090565b5b80821115613344576000818161333b91906133ac565b50600101613325565b5090565b604051806101000160405280600015158152602001600081526020016000815260200160008152602001600081526020016000815260200160008152602001600081525090565b5b808211156133a8576000816000905550600101613390565b5090565b50805460008255906000526020600020908101906133ca919061338f565b50565b6000604051905090565b600080fd5b600080fd5b6000819050919050565b6133f4816133e1565b81146133ff57600080fd5b50565b600081359050613411816133eb565b92915050565b60006020828403121561342d5761342c6133d7565b5b600061343b84828501613402565b91505092915050565b7f4e487b7100000000000000000000000000000000000000000000000000000000600052602160045260246000fd5b6005811061348457613483613444565b5b50565b600081905061349582613473565b919050565b60006134a582613487565b9050919050565b6134b58161349a565b82525050565b6134c4816133e1565b82525050565b6000819050919050565b6134dd816134ca565b82525050565b600081519050919050565b600082825260208201905092915050565b60005b8381101561351d578082015181840152602081019050613502565b60008484015250505050565b6000601f19601f8301169050919050565b6000613545826134e3565b61354f81856134ee565b935061355f8185602086016134ff565b61356881613529565b840191505092915050565b600060ff82169050919050565b61358981613573565b82525050565b613598816134ca565b82525050565b6135a78161349a565b82525050565b60008115159050919050565b6135c2816135ad565b82525050565b610100820160008201516135df60008501826135b9565b5060208201516135f2602085018261358f565b506040820151613605604085018261358f565b506060820151613618606085018261358f565b50608082015161362b608085018261358f565b5060a082015161363e60a085018261358f565b5060c082015161365160c085018261358f565b5060e082015161366460e085018261358f565b50505050565b6101a0820160008201516136816000850182613580565b5060208201516136946020850182613580565b5060408201516136a7604085018261358f565b5060608201516136ba606085018261358f565b5060808201516136cd608085018261359e565b5060a08201516136e060a08501826135c8565b50505050565b600a81106136f7576136f6613444565b5b50565b6000819050613708826136e6565b919050565b6000613718826136fa565b9050919050565b6137288161370d565b82525050565b613737816133e1565b82525050565b600082825260208201905092915050565b6000613759826134e3565b613763818561373d565b93506137738185602086016134ff565b61377c81613529565b840191505092915050565b600060808301600083015161379f600086018261371f565b5060208301516137b2602086018261358f565b5060408301516137c5604086018261372e565b50606083015184820360608601526137dd828261374e565b9150508091505092915050565b600061028082019050613800600083018b6134ac565b61380d602083018a6134bb565b61381a60408301896134bb565b61382760608301886134d4565b61383460808301876134d4565b81810360a0830152613846818661353a565b905061385560c083018561366a565b8181036102608301526138688184613787565b90509998505050505050505050565b600073ffffffffffffffffffffffffffffffffffffffff82169050919050565b60006138a282613877565b9050919050565b6138b281613897565b81146138bd57600080fd5b50565b6000813590506138cf816138a9565b92915050565b600080fd5b600080fd5b7f4e487b7100000000000000000000000000000000000000000000000000000000600052604160045260246000fd5b61391782613529565b810181811067ffffffffffffffff82111715613936576139356138df565b5b80604052505050565b60006139496133cd565b9050613955828261390e565b919050565b600067ffffffffffffffff821115613975576139746138df565b5b61397e82613529565b9050602081019050919050565b82818337600083830152505050565b60006139ad6139a88461395a565b61393f565b9050828152602081018484840111156139c9576139c86138da565b5b6139d484828561398b565b509392505050565b600082601f8301126139f1576139f06138d5565b5b8135613a0184826020860161399a565b91505092915050565b60008060408385031215613a2157613a206133d7565b5b6000613a2f858286016138c0565b925050602083013567ffffffffffffffff811115613a5057613a4f6133dc565b5b613a5c858286016139dc565b9150509250929050565b6000602082019050613a7b60008301846134bb565b92915050565b60058110613a8e57600080fd5b50565b600081359050613aa081613a81565b92915050565b60008060408385031215613abd57613abc6133d7565b5b6000613acb85828601613402565b9250506020613adc85828601613a91565b9150509250929050565b600080fd5b600060808284031215613b0157613b00613ae6565b5b81905092915050565b60008060408385031215613b2157613b206133d7565b5b6000613b2f85828601613402565b925050602083013567ffffffffffffffff811115613b5057613b4f6133dc565b5b613b5c85828601613aeb565b9150509250929050565b600080fd5b600080fd5b60008083601f840112613b8657613b856138d5565b5b8235905067ffffffffffffffff811115613ba357613ba2613b66565b5b602083019150836001820283011115613bbf57613bbe613b6b565b5b9250929050565b600080600060408486031215613bdf57613bde6133d7565b5b600084013567ffffffffffffffff811115613bfd57613bfc6133dc565b5b613c0986828701613b70565b93509350506020613c1c868287016138c0565b9150509250925092565b600063ffffffff82169050919050565b613c3f81613c26565b82525050565b6000602082019050613c5a6000830184613c36565b92915050565b613c6981613897565b82525050565b6000602082019050613c846000830184613c60565b92915050565b600060029050919050565b600081905092915050565b6000819050919050565b6000613cb6838361372e565b60208301905092915050565b6000602082019050919050565b613cd881613c8a565b613ce28184613c95565b9250613ced82613ca0565b8060005b83811015613d1e578151613d058782613caa565b9650613d1083613cc2565b925050600181019050613cf1565b505050505050565b600081519050919050565b600082825260208201905092915050565b6000819050602082019050919050565b600081519050919050565b600082825260208201905092915050565b6000819050602082019050919050565b6000613d8a838361358f565b60208301905092915050565b6000602082019050919050565b6000613dae82613d52565b613db88185613d5d565b9350613dc383613d6e565b8060005b83811015613df4578151613ddb8882613d7e565b9750613de683613d96565b925050600181019050613dc7565b5085935050505092915050565b6000613e0d8383613da3565b905092915050565b6000602082019050919050565b6000613e2d82613d26565b613e378185613d31565b935083602082028501613e4985613d42565b8060005b85811015613e855784840389528151613e668582613e01565b9450613e7183613e15565b925060208a01995050600181019050613e4d565b50829750879550505050505092915050565b6101a082016000820151613eae6000850182613580565b506020820151613ec16020850182613580565b506040820151613ed4604085018261358f565b506060820151613ee7606085018261358f565b506080820151613efa608085018261359e565b5060a0820151613f0d60a08501826135c8565b50505050565b6000608083016000830151613f2b600086018261371f565b506020830151613f3e602086018261358f565b506040830151613f51604086018261372e565b5060608301518482036060860152613f69828261374e565b9150508091505092915050565b60006102e083016000830151613f8f600086018261359e565b506020830151613fa2602086018261372e565b506040830151613fb56040860182613ccf565b506060830151613fc8608086018261372e565b50608083015184820360a0860152613fe08282613e22565b91505060a0830151613ff560c086018261358f565b5060c083015161400860e086018261358f565b5060e0830151848203610100860152614021828261374e565b915050610100830151614038610120860182613e97565b506101208301518482036102c08601526140528282613f13565b9150508091505092915050565b600060208201905081810360008301526140798184613f76565b905092915050565b60006101a0828403121561409857614097613ae6565b5b81905092915050565b600080600080600080600080610260898b0312156140c2576140c16133d7565b5b60006140d08b828c01614081565b9850506101a089013567ffffffffffffffff8111156140f2576140f16133dc565b5b6140fe8b828c01613aeb565b9750506101c089013567ffffffffffffffff8111156141205761411f6133dc565b5b61412c8b828c01613b70565b96509650506101e06141408b828c01613402565b9450506102006141528b828c01613402565b9350506102206141648b828c01613402565b9250506102406141768b828c01613402565b9150509295985092959890939650565b600060208201905081810360008301526141a0818461353a565b905092915050565b60008083601f8401126141be576141bd6138d5565b5b8235905067ffffffffffffffff8111156141db576141da613b66565b5b6020830191508360018202830111156141f7576141f6613b6b565b5b9250929050565b60008060008060006080868803121561421a576142196133d7565b5b600061422888828901613402565b955050602061423988828901613402565b945050604061424a88828901613402565b935050606086013567ffffffffffffffff81111561426b5761426a6133dc565b5b614277888289016141a8565b92509250509295509295909350565b61428f816134ca565b811461429a57600080fd5b50565b6000813590506142ac81614286565b92915050565b600080604083850312156142c9576142c86133d7565b5b60006142d785828601613402565b92505060206142e88582860161429d565b9150509250929050565b600067ffffffffffffffff82111561430d5761430c6138df565b5b602082029050602081019050919050565b600067ffffffffffffffff821115614339576143386138df565b5b602082029050602081019050919050565b600061435d6143588461431e565b61393f565b905080838252602082019050602084028301858111156143805761437f613b6b565b5b835b818110156143a95780614395888261429d565b845260208401935050602081019050614382565b5050509392505050565b600082601f8301126143c8576143c76138d5565b5b81356143d884826020860161434a565b91505092915050565b60006143f46143ef846142f2565b61393f565b9050808382526020820190506020840283018581111561441757614416613b6b565b5b835b8181101561445e57803567ffffffffffffffff81111561443c5761443b6138d5565b5b80860161444989826143b3565b85526020850194505050602081019050614419565b5050509392505050565b600082601f83011261447d5761447c6138d5565b5b813561448d8482602086016143e1565b91505092915050565b600080600080606085870312156144b0576144af6133d7565b5b60006144be87828801613402565b945050602085013567ffffffffffffffff8111156144df576144de6133dc565b5b6144eb87828801614468565b935050604085013567ffffffffffffffff81111561450c5761450b6133dc565b5b614518878288016141a8565b925092505092959194509250565b60006020828403121561453c5761453b6133d7565b5b600061454a848285016138c0565b91505092915050565b7f4e487b7100000000000000000000000000000000000000000000000000000000600052602260045260246000fd5b6000600282049050600182168061459a57607f821691505b6020821081036145ad576145ac614553565b5b50919050565b60006040820190506145c860008301856134bb565b6145d56020830184613c60565b9392505050565b6145e5816135ad565b81146145f057600080fd5b50565b600081519050614602816145dc565b92915050565b60006020828403121561461e5761461d6133d7565b5b600061462c848285016145f3565b91505092915050565b7f53657450726f636573735374617475733a206e6f7420616e2061646d696e697360008201527f747261746f720000000000000000000000000000000000000000000000000000602082015250565b60006146916026836134ee565b915061469c82614635565b604082019050919050565b600060208201905081810360008301526146c081614684565b9050919050565b7f50726f63657373207465726d696e617465640000000000000000000000000000600082015250565b60006146fd6012836134ee565b9150614708826146c7565b602082019050919050565b6000602082019050818103600083015261472c816146f0565b9050919050565b7f4e6f7420696e7465727275707469626c65000000000000000000000000000000600082015250565b60006147696011836134ee565b915061477482614733565b602082019050919050565b600060208201905081810360008301526147988161475c565b9050919050565b7f4d75737420646966666572000000000000000000000000000000000000000000600082015250565b60006147d5600b836134ee565b91506147e08261479f565b602082019050919050565b60006020820190508181036000830152614804816147c8565b9050919050565b600060208201905061482060008301846134ac565b92915050565b7f53657450726f6365737343656e7375733a206e6f7420616e2061646d696e697360008201527f747261746f720000000000000000000000000000000000000000000000000000602082015250565b60006148826026836134ee565b915061488d82614826565b604082019050919050565b600060208201905081810360008301526148b181614875565b9050919050565b600080fd5b600080fd5b600080fd5b600080833560016020038436030381126148e4576148e36148b8565b5b80840192508235915067ffffffffffffffff821115614906576149056148bd565b5b602083019250600182023603831315614922576149216148c2565b5b509250929050565b7f456d707479205552490000000000000000000000000000000000000000000000600082015250565b60006149606009836134ee565b915061496b8261492a565b602082019050919050565b6000602082019050818103600083015261498f81614953565b9050919050565b7f456d70747920726f6f7400000000000000000000000000000000000000000000600082015250565b60006149cc600a836134ee565b91506149d782614996565b602082019050919050565b600060208201905081810360008301526149fb816149bf565b9050919050565b7f50726f63657373206e6f7420666f756e64000000000000000000000000000000600082015250565b6000614a386011836134ee565b9150614a4382614a02565b602082019050919050565b60006020820190508181036000830152614a6781614a2b565b9050919050565b7f526561642d6f6e6c792063656e73757300000000000000000000000000000000600082015250565b6000614aa46010836134ee565b9150614aaf82614a6e565b602082019050919050565b60006020820190508181036000830152614ad381614a97565b9050919050565b600082905092915050565b60008190508160005260206000209050919050565b60006020601f8301049050919050565b600082821b905092915050565b600060088302614b477fffffffffffffffffffffffffffffffffffffffffffffffffffffffffffffffff82614b0a565b614b518683614b0a565b95508019841693508086168417925050509392505050565b6000819050919050565b6000614b8e614b89614b84846134ca565b614b69565b6134ca565b9050919050565b6000819050919050565b614ba883614b73565b614bbc614bb482614b95565b848454614b17565b825550505050565b600090565b614bd1614bc4565b614bdc818484614b9f565b505050565b5b81811015614c0057614bf5600082614bc9565b600181019050614be2565b5050565b601f821115614c4557614c1681614ae5565b614c1f84614afa565b81016020851015614c2e578190505b614c42614c3a85614afa565b830182614be1565b50505b505050565b600082821c905092915050565b6000614c6860001984600802614c4a565b1980831691505092915050565b6000614c818383614c57565b9150826002028217905092915050565b614c9b8383614ada565b67ffffffffffffffff811115614cb457614cb36138df565b5b614cbe8254614582565b614cc9828285614c04565b6000601f831160018114614cf85760008415614ce6578287013590505b614cf08582614c75565b865550614d58565b601f198416614d0686614ae5565b60005b82811015614d2e57848901358255600182019150602085019450602081019050614d09565b86831015614d4b5784890135614d47601f891682614c57565b8355505b6001600288020188555050505b50505050505050565b6000614d6d83856134ee565b9350614d7a83858461398b565b614d8383613529565b840190509392505050565b6000606082019050614da360008301876134bb565b8181036020830152614db6818587614d61565b9050614dc560408301846134d4565b95945050505050565b6000819050919050565b600067ffffffffffffffff82169050919050565b6000614e07614e02614dfd84614dce565b614b69565b614dd8565b9050919050565b614e1781614dec565b82525050565b6000602082019050614e326000830184614e0e565b92915050565b7f4e657750726f636573733a20696e76616c6964206d6178436f756e7400000000600082015250565b6000614e6e601c836134ee565b9150614e7982614e38565b602082019050919050565b60006020820190508181036000830152614e9d81614e61565b9050919050565b7f4e657750726f636573733a206d6178436f756e74203e206d617856616c756500600082015250565b6000614eda601f836134ee565b9150614ee582614ea4565b602082019050919050565b60006020820190508181036000830152614f0981614ecd565b9050919050565b600060208284031215614f2657614f256133d7565b5b6000614f3484828501613a91565b91505092915050565b7f4e657750726f636573733a20696e76616c696420737461747573000000000000600082015250565b6000614f73601a836134ee565b9150614f7e82614f3d565b602082019050919050565b60006020820190508181036000830152614fa281614f66565b9050919050565b600a8110614fb657600080fd5b50565b600081359050614fc881614fa9565b92915050565b600060208284031215614fe457614fe36133d7565b5b6000614ff284828501614fb9565b91505092915050565b61500481613573565b811461500f57600080fd5b50565b60008135905061502181614ffb565b92915050565b60006020828403121561503d5761503c6133d7565b5b600061504b84828501615012565b91505092915050565b7f4e657750726f636573733a2063656e737573206f726967696e2043412072657160008201527f7569726573206e6f6e2d616e6f6e796d6f757320656e76656c6f70652074797060208201527f6500000000000000000000000000000000000000000000000000000000000000604082015250565b60006150d66041836134ee565b91506150e182615054565b606082019050919050565b60006020820190508181036000830152615105816150c9565b9050919050565b7f4e657750726f636573733a206d6178436f756e74206d7573742062652031206660008201527f6f72204661726361737465720000000000000000000000000000000000000000602082015250565b6000615168602c836134ee565b91506151738261510c565b604082019050919050565b600060208201905081810360008301526151978161515b565b9050919050565b7f4e657750726f636573733a2063656e737573206f726967696e2046617263617360008201527f746572207265717569726573206e6f6e2d616e6f6e796d6f757320656e76656c60208201527f6f70652074797065000000000000000000000000000000000000000000000000604082015250565b60006152206048836134ee565b915061522b8261519e565b606082019050919050565b6000602082019050818103600083015261524f81615213565b9050919050565b7f4e657750726f636573733a2063656e737573206f726967696e2046617263617360008201527f746572207265717569726573206e6f6e2d656e6372797074656420656e76656c60208201527f6f70652074797065000000000000000000000000000000000000000000000000604082015250565b60006152d86048836134ee565b91506152e382615256565b606082019050919050565b60006020820190508181036000830152615307816152cb565b9050919050565b7f4e657750726f636573733a20696e76616c696420737461727454696d65000000600082015250565b6000615344601d836134ee565b915061534f8261530e565b602082019050919050565b6000602082019050818103600083015261537381615337565b9050919050565b7f4e487b7100000000000000000000000000000000000000000000000000000000600052601160045260246000fd5b60006153b4826134ca565b91506153bf836134ca565b92508282019050808211156153d7576153d661537a565b5b92915050565b7f4e657750726f636573733a20696e76616c6964206475726174696f6e00000000600082015250565b6000615413601c836134ee565b915061541e826153dd565b602082019050919050565b6000602082019050818103600083015261544281615406565b9050919050565b7f4e657750726f636573733a2073657269616c20656e76656c6f7065207479706560008201527f206e6f7420696d706c656d656e74656400000000000000000000000000000000602082015250565b60006154a56030836134ee565b91506154b082615449565b604082019050919050565b600060208201905081810360008301526154d481615498565b9050919050565b7f4e657750726f636573733a206e6f7420616e2061646d696e6973747261746f72600082015250565b60006155116020836134ee565b915061551c826154db565b602082019050919050565b6000602082019050818103600083015261554081615504565b9050919050565b7f4e657750726f636573733a2070726f6365737320616c7265616479206578697360008201527f7473000000000000000000000000000000000000000000000000000000000000602082015250565b60006155a36022836134ee565b91506155ae82615547565b604082019050919050565b600060208201905081810360008301526155d281615596565b9050919050565b600080fd5b600080fd5b6000813590506155f2816145dc565b92915050565b6000610100828403121561560f5761560e6155d9565b5b61561a61010061393f565b9050600061562a848285016155e3565b600083015250602061563e8482850161429d565b60208301525060406156528482850161429d565b60408301525060606156668482850161429d565b606083015250608061567a8482850161429d565b60808301525060a061568e8482850161429d565b60a08301525060c06156a28482850161429d565b60c08301525060e06156b68482850161429d565b60e08301525092915050565b60006101a082840312156156d9576156d86155d9565b5b6156e360c061393f565b905060006156f384828501615012565b600083015250602061570784828501615012565b602083015250604061571b8482850161429d565b604083015250606061572f8482850161429d565b606083015250608061574384828501613a91565b60808301525060a0615757848285016155f8565b60a08301525092915050565b60006101a0828403121561577a576157796133d7565b5b6000615788848285016156c2565b91505092915050565b600067ffffffffffffffff8211156157ac576157ab6138df565b5b6157b582613529565b9050602081019050919050565b60006157d56157d084615791565b61393f565b9050828152602081018484840111156157f1576157f06138da565b5b6157fc84828561398b565b509392505050565b600082601f830112615819576158186138d5565b5b81356158298482602086016157c2565b91505092915050565b600060808284031215615848576158476155d9565b5b615852608061393f565b9050600061586284828501614fb9565b60008301525060206158768482850161429d565b602083015250604061588a84828501613402565b604083015250606082013567ffffffffffffffff8111156158ae576158ad6155de565b5b6158ba84828501615804565b60608301525092915050565b60006158d23683615832565b9050919050565b6158e2826134e3565b67ffffffffffffffff8111156158fb576158fa6138df565b5b6159058254614582565b615910828285614c04565b600060209050601f8311600181146159435760008415615931578287015190505b61593b8582614c75565b8655506159a3565b601f19841661595186614ae5565b60005b8281101561597957848901518255600182019150602085019450602081019050615954565b868310156159965784890151615992601f891682614c57565b8355505b6001600288020188555050505b505050505050565b7f496e76616c69642073746174757320666f72207375626d697474696e6720737460008201527f617465207472616e736974696f6e000000000000000000000000000000000000602082015250565b6000615a07602e836134ee565b9150615a12826159ab565b604082019050919050565b60006020820190508181036000830152615a36816159fa565b9050919050565b7f496e76616c6964206f6c6420726f6f7400000000000000000000000000000000600082015250565b6000615a736010836134ee565b9150615a7e82615a3d565b602082019050919050565b60006020820190508181036000830152615aa281615a66565b9050919050565b7f53657450726f636573734475726174696f6e3a206e6f7420616e2061646d696e60008201527f6973747261746f72000000000000000000000000000000000000000000000000602082015250565b6000615b056028836134ee565b9150615b1082615aa9565b604082019050919050565b60006020820190508181036000830152615b3481615af8565b9050919050565b7f496e76616c6964206475726174696f6e00000000000000000000000000000000600082015250565b6000615b716010836134ee565b9150615b7c82615b3b565b602082019050919050565b60006020820190508181036000830152615ba081615b64565b9050919050565b6000602082019050615bbc60008301846134d4565b92915050565b7f50726f63657373206e6f7420656e646564000000000000000000000000000000600082015250565b6000615bf86011836134ee565b9150615c0382615bc2565b602082019050919050565b60006020820190508181036000830152615c2781615beb565b9050919050565b7f656e6450726f636573733a206e6f7420616e2061646d696e6973747261746f72600082015250565b6000615c646020836134ee565b9150615c6f82615c2e565b602082019050919050565b60006020820190508181036000830152615c9381615c57565b9050919050565b600081519050615ca9816133eb565b92915050565b600060208284031215615cc557615cc46133d7565b5b6000615cd384828501615c9a565b91505092915050565b600081519050919050565b600081905092915050565b6000615cfd82615cdc565b615d078185615ce7565b9350615d178185602086016134ff565b80840191505092915050565b6000615d2f8284615cf2565b91508190509291505056fea2646970667358221220f9e9f2fb16ea4346f9af2100624c4e3ca0ef87fa044e840795e2946faecd54cf64736f6c63430008180033","opcodes":"PUSH1 0xA0 PUSH1 0x40 MSTORE ADDRESS PUSH20 0xFFFFFFFFFFFFFFFFFFFFFFFFFFFFFFFFFFFFFFFF AND PUSH1 0x80 SWAP1 PUSH20 0xFFFFFFFFFFFFFFFFFFFFFFFFFFFFFFFFFFFFFFFF AND DUP2 MSTORE POP CALLVALUE DUP1 ISZERO PUSH2 0x43 JUMPI PUSH1 0x0 DUP1 REVERT JUMPDEST POP PUSH1 0x80 MLOAD PUSH2 0x5D70 PUSH3 0x6E PUSH1 0x0 CODECOPY PUSH1 0x0 DUP2 DUP2 PUSH2 0x2865 ADD MSTORE DUP2 DUP2 PUSH2 0x28BA ADD MSTORE PUSH2 0x2A75 ADD MSTORE PUSH2 0x5D70 PUSH1 0x0 RETURN INVALID PUSH1 0x80 PUSH1 0x40 MSTORE PUSH1 0x4 CALLDATASIZE LT PUSH2 0x114 JUMPI PUSH1 0x0 CALLDATALOAD PUSH1 0xE0 SHR DUP1 PUSH4 0x8DA5CB5B GT PUSH2 0xA0 JUMPI DUP1 PUSH4 0xB66BA6EB GT PUSH2 0x64 JUMPI DUP1 PUSH4 0xB66BA6EB EQ PUSH2 0x373 JUMPI DUP1 PUSH4 0xC718C01F EQ PUSH2 0x39C JUMPI DUP1 PUSH4 0xCA0F925B EQ PUSH2 0x3C5 JUMPI DUP1 PUSH4 0xEA9BCAF6 EQ PUSH2 0x3EE JUMPI DUP1 PUSH4 0xF2FDE38B EQ PUSH2 0x417 JUMPI PUSH2 0x114 JUMP JUMPDEST DUP1 PUSH4 0x8DA5CB5B EQ PUSH2 0x28C JUMPI DUP1 PUSH4 0x992BC45B EQ PUSH2 0x2B7 JUMPI DUP1 PUSH4 0xA96E8D2E EQ PUSH2 0x2F4 JUMPI DUP1 PUSH4 0xAD3CB1CC EQ PUSH2 0x31D JUMPI DUP1 PUSH4 0xADC879E9 EQ PUSH2 0x348 JUMPI PUSH2 0x114 JUMP JUMPDEST DUP1 PUSH4 0x6BAE04EA GT PUSH2 0xE7 JUMPI DUP1 PUSH4 0x6BAE04EA EQ PUSH2 0x1CD JUMPI DUP1 PUSH4 0x715018A6 EQ PUSH2 0x1F6 JUMPI DUP1 PUSH4 0x7AB4339D EQ PUSH2 0x20D JUMPI DUP1 PUSH4 0x848DF540 EQ PUSH2 0x236 JUMPI DUP1 PUSH4 0x8CAFAB7F EQ PUSH2 0x261 JUMPI PUSH2 0x114 JUMP JUMPDEST DUP1 PUSH4 0x535FECE EQ PUSH2 0x119 JUMPI DUP1 PUSH4 0x4F1EF286 EQ PUSH2 0x15D JUMPI DUP1 PUSH4 0x52D1902D EQ PUSH2 0x179 JUMPI DUP1 PUSH4 0x56A6F1E2 EQ PUSH2 0x1A4 JUMPI JUMPDEST PUSH1 0x0 DUP1 REVERT JUMPDEST CALLVALUE DUP1 ISZERO PUSH2 0x125 JUMPI PUSH1 0x0 DUP1 REVERT JUMPDEST POP PUSH2 0x140 PUSH1 0x4 DUP1 CALLDATASIZE SUB DUP2 ADD SWAP1 PUSH2 0x13B SWAP2 SWAP1 PUSH2 0x3417 JUMP JUMPDEST PUSH2 0x440 JUMP JUMPDEST PUSH1 0x40 MLOAD PUSH2 0x154 SWAP9 SWAP8 SWAP7 SWAP6 SWAP5 SWAP4 SWAP3 SWAP2 SWAP1 PUSH2 0x37EA JUMP JUMPDEST PUSH1 0x40 MLOAD DUP1 SWAP2 SUB SWAP1 RETURN JUMPDEST PUSH2 0x177 PUSH1 0x4 DUP1 CALLDATASIZE SUB DUP2 ADD SWAP1 PUSH2 0x172 SWAP2 SWAP1 PUSH2 0x3A0A JUMP JUMPDEST PUSH2 0x711 JUMP JUMPDEST STOP JUMPDEST CALLVALUE DUP1 ISZERO PUSH2 0x185 JUMPI PUSH1 0x0 DUP1 REVERT JUMPDEST POP PUSH2 0x18E PUSH2 0x730 JUMP JUMPDEST PUSH1 0x40 MLOAD PUSH2 0x19B SWAP2 SWAP1 PUSH2 0x3A66 JUMP JUMPDEST PUSH1 0x40 MLOAD DUP1 SWAP2 SUB SWAP1 RETURN JUMPDEST CALLVALUE DUP1 ISZERO PUSH2 0x1B0 JUMPI PUSH1 0x0 DUP1 REVERT JUMPDEST POP PUSH2 0x1CB PUSH1 0x4 DUP1 CALLDATASIZE SUB DUP2 ADD SWAP1 PUSH2 0x1C6 SWAP2 SWAP1 PUSH2 0x3AA6 JUMP JUMPDEST PUSH2 0x763 JUMP JUMPDEST STOP JUMPDEST CALLVALUE DUP1 ISZERO PUSH2 0x1D9 JUMPI PUSH1 0x0 DUP1 REVERT JUMPDEST POP PUSH2 0x1F4 PUSH1 0x4 DUP1 CALLDATASIZE SUB DUP2 ADD SWAP1 PUSH2 0x1EF SWAP2 SWAP1 PUSH2 0x3B0A JUMP JUMPDEST PUSH2 0xB31 JUMP JUMPDEST STOP JUMPDEST CALLVALUE DUP1 ISZERO PUSH2 0x202 JUMPI PUSH1 0x0 DUP1 REVERT JUMPDEST POP PUSH2 0x20B PUSH2 0xF57 JUMP JUMPDEST STOP JUMPDEST CALLVALUE DUP1 ISZERO PUSH2 0x219 JUMPI PUSH1 0x0 DUP1 REVERT JUMPDEST POP PUSH2 0x234 PUSH1 0x4 DUP1 CALLDATASIZE SUB DUP2 ADD SWAP1 PUSH2 0x22F SWAP2 SWAP1 PUSH2 0x3BC6 JUMP JUMPDEST PUSH2 0xF6B JUMP JUMPDEST STOP JUMPDEST CALLVALUE DUP1 ISZERO PUSH2 0x242 JUMPI PUSH1 0x0 DUP1 REVERT JUMPDEST POP PUSH2 0x24B PUSH2 0x1157 JUMP JUMPDEST PUSH1 0x40 MLOAD PUSH2 0x258 SWAP2 SWAP1 PUSH2 0x3C45 JUMP JUMPDEST PUSH1 0x40 MLOAD DUP1 SWAP2 SUB SWAP1 RETURN JUMPDEST CALLVALUE DUP1 ISZERO PUSH2 0x26D JUMPI PUSH1 0x0 DUP1 REVERT JUMPDEST POP PUSH2 0x276 PUSH2 0x116D JUMP JUMPDEST PUSH1 0x40 MLOAD PUSH2 0x283 SWAP2 SWAP1 PUSH2 0x3C6F JUMP JUMPDEST PUSH1 0x40 MLOAD DUP1 SWAP2 SUB SWAP1 RETURN JUMPDEST CALLVALUE DUP1 ISZERO PUSH2 0x298 JUMPI PUSH1 0x0 DUP1 REVERT JUMPDEST POP PUSH2 0x2A1 PUSH2 0x1193 JUMP JUMPDEST PUSH1 0x40 MLOAD PUSH2 0x2AE SWAP2 SWAP1 PUSH2 0x3C6F JUMP JUMPDEST PUSH1 0x40 MLOAD DUP1 SWAP2 SUB SWAP1 RETURN JUMPDEST CALLVALUE DUP1 ISZERO PUSH2 0x2C3 JUMPI PUSH1 0x0 DUP1 REVERT JUMPDEST POP PUSH2 0x2DE PUSH1 0x4 DUP1 CALLDATASIZE SUB DUP2 ADD SWAP1 PUSH2 0x2D9 SWAP2 SWAP1 PUSH2 0x3417 JUMP JUMPDEST PUSH2 0x11CB JUMP JUMPDEST PUSH1 0x40 MLOAD PUSH2 0x2EB SWAP2 SWAP1 PUSH2 0x405F JUMP JUMPDEST PUSH1 0x40 MLOAD DUP1 SWAP2 SUB SWAP1 RETURN JUMPDEST CALLVALUE DUP1 ISZERO PUSH2 0x300 JUMPI PUSH1 0x0 DUP1 REVERT JUMPDEST POP PUSH2 0x31B PUSH1 0x4 DUP1 CALLDATASIZE SUB DUP2 ADD SWAP1 PUSH2 0x316 SWAP2 SWAP1 PUSH2 0x40A1 JUMP JUMPDEST PUSH2 0x15D9 JUMP JUMPDEST STOP JUMPDEST CALLVALUE DUP1 ISZERO PUSH2 0x329 JUMPI PUSH1 0x0 DUP1 REVERT JUMPDEST POP PUSH2 0x332 PUSH2 0x1EDB JUMP JUMPDEST PUSH1 0x40 MLOAD PUSH2 0x33F SWAP2 SWAP1 PUSH2 0x4186 JUMP JUMPDEST PUSH1 0x40 MLOAD DUP1 SWAP2 SUB SWAP1 RETURN JUMPDEST CALLVALUE DUP1 ISZERO PUSH2 0x354 JUMPI PUSH1 0x0 DUP1 REVERT JUMPDEST POP PUSH2 0x35D PUSH2 0x1F14 JUMP JUMPDEST PUSH1 0x40 MLOAD PUSH2 0x36A SWAP2 SWAP1 PUSH2 0x4186 JUMP JUMPDEST PUSH1 0x40 MLOAD DUP1 SWAP2 SUB SWAP1 RETURN JUMPDEST CALLVALUE DUP1 ISZERO PUSH2 0x37F JUMPI PUSH1 0x0 DUP1 REVERT JUMPDEST POP PUSH2 0x39A PUSH1 0x4 DUP1 CALLDATASIZE SUB DUP2 ADD SWAP1 PUSH2 0x395 SWAP2 SWAP1 PUSH2 0x41FE JUMP JUMPDEST PUSH2 0x1FA2 JUMP JUMPDEST STOP JUMPDEST CALLVALUE DUP1 ISZERO PUSH2 0x3A8 JUMPI PUSH1 0x0 DUP1 REVERT JUMPDEST POP PUSH2 0x3C3 PUSH1 0x4 DUP1 CALLDATASIZE SUB DUP2 ADD SWAP1 PUSH2 0x3BE SWAP2 SWAP1 PUSH2 0x42B2 JUMP JUMPDEST PUSH2 0x2188 JUMP JUMPDEST STOP JUMPDEST CALLVALUE DUP1 ISZERO PUSH2 0x3D1 JUMPI PUSH1 0x0 DUP1 REVERT JUMPDEST POP PUSH2 0x3EC PUSH1 0x4 DUP1 CALLDATASIZE SUB DUP2 ADD SWAP1 PUSH2 0x3E7 SWAP2 SWAP1 PUSH2 0x4496 JUMP JUMPDEST PUSH2 0x2446 JUMP JUMPDEST STOP JUMPDEST CALLVALUE DUP1 ISZERO PUSH2 0x3FA JUMPI PUSH1 0x0 DUP1 REVERT JUMPDEST POP PUSH2 0x415 PUSH1 0x4 DUP1 CALLDATASIZE SUB DUP2 ADD SWAP1 PUSH2 0x410 SWAP2 SWAP1 PUSH2 0x3417 JUMP JUMPDEST PUSH2 0x2597 JUMP JUMPDEST STOP JUMPDEST CALLVALUE DUP1 ISZERO PUSH2 0x423 JUMPI PUSH1 0x0 DUP1 REVERT JUMPDEST POP PUSH2 0x43E PUSH1 0x4 DUP1 CALLDATASIZE SUB DUP2 ADD SWAP1 PUSH2 0x439 SWAP2 SWAP1 PUSH2 0x4526 JUMP JUMPDEST PUSH2 0x27DD JUMP JUMPDEST STOP JUMPDEST PUSH1 0x0 PUSH1 0x20 MSTORE DUP1 PUSH1 0x0 MSTORE PUSH1 0x40 PUSH1 0x0 KECCAK256 PUSH1 0x0 SWAP2 POP SWAP1 POP DUP1 PUSH1 0x0 ADD PUSH1 0x0 SWAP1 SLOAD SWAP1 PUSH2 0x100 EXP SWAP1 DIV PUSH1 0xFF AND SWAP1 DUP1 PUSH1 0x1 ADD SLOAD SWAP1 DUP1 PUSH1 0x4 ADD SLOAD SWAP1 DUP1 PUSH1 0x6 ADD SLOAD SWAP1 DUP1 PUSH1 0x7 ADD SLOAD SWAP1 DUP1 PUSH1 0x8 ADD DUP1 SLOAD PUSH2 0x48E SWAP1 PUSH2 0x4582 JUMP JUMPDEST DUP1 PUSH1 0x1F ADD PUSH1 0x20 DUP1 SWAP2 DIV MUL PUSH1 0x20 ADD PUSH1 0x40 MLOAD SWAP1 DUP2 ADD PUSH1 0x40 MSTORE DUP1 SWAP3 SWAP2 SWAP1 DUP2 DUP2 MSTORE PUSH1 0x20 ADD DUP3 DUP1 SLOAD PUSH2 0x4BA SWAP1 PUSH2 0x4582 JUMP JUMPDEST DUP1 ISZERO PUSH2 0x507 JUMPI DUP1 PUSH1 0x1F LT PUSH2 0x4DC JUMPI PUSH2 0x100 DUP1 DUP4 SLOAD DIV MUL DUP4 MSTORE SWAP2 PUSH1 0x20 ADD SWAP2 PUSH2 0x507 JUMP JUMPDEST DUP3 ADD SWAP2 SWAP1 PUSH1 0x0 MSTORE PUSH1 0x20 PUSH1 0x0 KECCAK256 SWAP1 JUMPDEST DUP2 SLOAD DUP2 MSTORE SWAP1 PUSH1 0x1 ADD SWAP1 PUSH1 0x20 ADD DUP1 DUP4 GT PUSH2 0x4EA JUMPI DUP3 SWAP1 SUB PUSH1 0x1F AND DUP3 ADD SWAP2 JUMPDEST POP POP POP POP POP SWAP1 DUP1 PUSH1 0x9 ADD PUSH1 0x40 MLOAD DUP1 PUSH1 0xC0 ADD PUSH1 0x40 MSTORE SWAP1 DUP2 PUSH1 0x0 DUP3 ADD PUSH1 0x0 SWAP1 SLOAD SWAP1 PUSH2 0x100 EXP SWAP1 DIV PUSH1 0xFF AND PUSH1 0xFF AND PUSH1 0xFF AND DUP2 MSTORE PUSH1 0x20 ADD PUSH1 0x0 DUP3 ADD PUSH1 0x1 SWAP1 SLOAD SWAP1 PUSH2 0x100 EXP SWAP1 DIV PUSH1 0xFF AND PUSH1 0xFF AND PUSH1 0xFF AND DUP2 MSTORE PUSH1 0x20 ADD PUSH1 0x1 DUP3 ADD SLOAD DUP2 MSTORE PUSH1 0x20 ADD PUSH1 0x2 DUP3 ADD SLOAD DUP2 MSTORE PUSH1 0x20 ADD PUSH1 0x3 DUP3 ADD PUSH1 0x0 SWAP1 SLOAD SWAP1 PUSH2 0x100 EXP SWAP1 DIV PUSH1 0xFF AND PUSH1 0x4 DUP2 GT ISZERO PUSH2 0x58F JUMPI PUSH2 0x58E PUSH2 0x3444 JUMP JUMPDEST JUMPDEST PUSH1 0x4 DUP2 GT ISZERO PUSH2 0x5A1 JUMPI PUSH2 0x5A0 PUSH2 0x3444 JUMP JUMPDEST JUMPDEST DUP2 MSTORE PUSH1 0x20 ADD PUSH1 0x4 DUP3 ADD PUSH1 0x40 MLOAD DUP1 PUSH2 0x100 ADD PUSH1 0x40 MSTORE SWAP1 DUP2 PUSH1 0x0 DUP3 ADD PUSH1 0x0 SWAP1 SLOAD SWAP1 PUSH2 0x100 EXP SWAP1 DIV PUSH1 0xFF AND ISZERO ISZERO ISZERO ISZERO DUP2 MSTORE PUSH1 0x20 ADD PUSH1 0x1 DUP3 ADD SLOAD DUP2 MSTORE PUSH1 0x20 ADD PUSH1 0x2 DUP3 ADD SLOAD DUP2 MSTORE PUSH1 0x20 ADD PUSH1 0x3 DUP3 ADD SLOAD DUP2 MSTORE PUSH1 0x20 ADD PUSH1 0x4 DUP3 ADD SLOAD DUP2 MSTORE PUSH1 0x20 ADD PUSH1 0x5 DUP3 ADD SLOAD DUP2 MSTORE PUSH1 0x20 ADD PUSH1 0x6 DUP3 ADD SLOAD DUP2 MSTORE PUSH1 0x20 ADD PUSH1 0x7 DUP3 ADD SLOAD DUP2 MSTORE POP POP DUP2 MSTORE POP POP SWAP1 DUP1 PUSH1 0x15 ADD PUSH1 0x40 MLOAD DUP1 PUSH1 0x80 ADD PUSH1 0x40 MSTORE SWAP1 DUP2 PUSH1 0x0 DUP3 ADD PUSH1 0x0 SWAP1 SLOAD SWAP1 PUSH2 0x100 EXP SWAP1 DIV PUSH1 0xFF AND PUSH1 0x9 DUP2 GT ISZERO PUSH2 0x650 JUMPI PUSH2 0x64F PUSH2 0x3444 JUMP JUMPDEST JUMPDEST PUSH1 0x9 DUP2 GT ISZERO PUSH2 0x662 JUMPI PUSH2 0x661 PUSH2 0x3444 JUMP JUMPDEST JUMPDEST DUP2 MSTORE PUSH1 0x20 ADD PUSH1 0x1 DUP3 ADD SLOAD DUP2 MSTORE PUSH1 0x20 ADD PUSH1 0x2 DUP3 ADD SLOAD DUP2 MSTORE PUSH1 0x20 ADD PUSH1 0x3 DUP3 ADD DUP1 SLOAD PUSH2 0x68A SWAP1 PUSH2 0x4582 JUMP JUMPDEST DUP1 PUSH1 0x1F ADD PUSH1 0x20 DUP1 SWAP2 DIV MUL PUSH1 0x20 ADD PUSH1 0x40 MLOAD SWAP1 DUP2 ADD PUSH1 0x40 MSTORE DUP1 SWAP3 SWAP2 SWAP1 DUP2 DUP2 MSTORE PUSH1 0x20 ADD DUP3 DUP1 SLOAD PUSH2 0x6B6 SWAP1 PUSH2 0x4582 JUMP JUMPDEST DUP1 ISZERO PUSH2 0x703 JUMPI DUP1 PUSH1 0x1F LT PUSH2 0x6D8 JUMPI PUSH2 0x100 DUP1 DUP4 SLOAD DIV MUL DUP4 MSTORE SWAP2 PUSH1 0x20 ADD SWAP2 PUSH2 0x703 JUMP JUMPDEST DUP3 ADD SWAP2 SWAP1 PUSH1 0x0 MSTORE PUSH1 0x20 PUSH1 0x0 KECCAK256 SWAP1 JUMPDEST DUP2 SLOAD DUP2 MSTORE SWAP1 PUSH1 0x1 ADD SWAP1 PUSH1 0x20 ADD DUP1 DUP4 GT PUSH2 0x6E6 JUMPI DUP3 SWAP1 SUB PUSH1 0x1F AND DUP3 ADD SWAP2 JUMPDEST POP POP POP POP POP DUP2 MSTORE POP POP SWAP1 POP DUP9 JUMP JUMPDEST PUSH2 0x719 PUSH2 0x2863 JUMP JUMPDEST PUSH2 0x722 DUP3 PUSH2 0x2949 JUMP JUMPDEST PUSH2 0x72C DUP3 DUP3 PUSH2 0x2954 JUMP JUMPDEST POP POP JUMP JUMPDEST PUSH1 0x0 PUSH2 0x73A PUSH2 0x2A73 JUMP JUMPDEST PUSH32 0x360894A13BA1A3210667C828492DB98DCA3E2076CC3735A920A3CA505D382BBC PUSH1 0x0 SHL SWAP1 POP SWAP1 JUMP JUMPDEST PUSH1 0x1 PUSH1 0x0 SWAP1 SLOAD SWAP1 PUSH2 0x100 EXP SWAP1 DIV PUSH20 0xFFFFFFFFFFFFFFFFFFFFFFFFFFFFFFFFFFFFFFFF AND PUSH20 0xFFFFFFFFFFFFFFFFFFFFFFFFFFFFFFFFFFFFFFFF AND PUSH4 0x64DD489F PUSH1 0x0 DUP1 DUP6 DUP2 MSTORE PUSH1 0x20 ADD SWAP1 DUP2 MSTORE PUSH1 0x20 ADD PUSH1 0x0 KECCAK256 PUSH1 0x1 ADD SLOAD CALLER PUSH1 0x40 MLOAD DUP4 PUSH4 0xFFFFFFFF AND PUSH1 0xE0 SHL DUP2 MSTORE PUSH1 0x4 ADD PUSH2 0x7D5 SWAP3 SWAP2 SWAP1 PUSH2 0x45B3 JUMP JUMPDEST PUSH1 0x20 PUSH1 0x40 MLOAD DUP1 DUP4 SUB DUP2 DUP7 GAS STATICCALL ISZERO DUP1 ISZERO PUSH2 0x7F2 JUMPI RETURNDATASIZE PUSH1 0x0 DUP1 RETURNDATACOPY RETURNDATASIZE PUSH1 0x0 REVERT JUMPDEST POP POP POP POP PUSH1 0x40 MLOAD RETURNDATASIZE PUSH1 0x1F NOT PUSH1 0x1F DUP3 ADD AND DUP3 ADD DUP1 PUSH1 0x40 MSTORE POP DUP2 ADD SWAP1 PUSH2 0x816 SWAP2 SWAP1 PUSH2 0x4608 JUMP JUMPDEST PUSH2 0x855 JUMPI PUSH1 0x40 MLOAD PUSH32 0x8C379A000000000000000000000000000000000000000000000000000000000 DUP2 MSTORE PUSH1 0x4 ADD PUSH2 0x84C SWAP1 PUSH2 0x46A7 JUMP JUMPDEST PUSH1 0x40 MLOAD DUP1 SWAP2 SUB SWAP1 REVERT JUMPDEST PUSH1 0x0 DUP1 PUSH1 0x0 DUP5 DUP2 MSTORE PUSH1 0x20 ADD SWAP1 DUP2 MSTORE PUSH1 0x20 ADD PUSH1 0x0 KECCAK256 PUSH1 0x0 ADD PUSH1 0x0 SWAP1 SLOAD SWAP1 PUSH2 0x100 EXP SWAP1 DIV PUSH1 0xFF AND SWAP1 POP PUSH1 0x0 PUSH1 0x4 DUP2 GT ISZERO PUSH2 0x890 JUMPI PUSH2 0x88F PUSH2 0x3444 JUMP JUMPDEST JUMPDEST DUP2 PUSH1 0x4 DUP2 GT ISZERO PUSH2 0x8A3 JUMPI PUSH2 0x8A2 PUSH2 0x3444 JUMP JUMPDEST JUMPDEST EQ ISZERO DUP1 ISZERO PUSH2 0x8D6 JUMPI POP PUSH1 0x3 PUSH1 0x4 DUP2 GT ISZERO PUSH2 0x8C0 JUMPI PUSH2 0x8BF PUSH2 0x3444 JUMP JUMPDEST JUMPDEST DUP2 PUSH1 0x4 DUP2 GT ISZERO PUSH2 0x8D3 JUMPI PUSH2 0x8D2 PUSH2 0x3444 JUMP JUMPDEST JUMPDEST EQ ISZERO JUMPDEST ISZERO PUSH2 0x916 JUMPI PUSH1 0x40 MLOAD PUSH32 0x8C379A000000000000000000000000000000000000000000000000000000000 DUP2 MSTORE PUSH1 0x4 ADD PUSH2 0x90D SWAP1 PUSH2 0x4713 JUMP JUMPDEST PUSH1 0x40 MLOAD DUP1 SWAP2 SUB SWAP1 REVERT JUMPDEST PUSH1 0x3 PUSH1 0x4 DUP2 GT ISZERO PUSH2 0x92A JUMPI PUSH2 0x929 PUSH2 0x3444 JUMP JUMPDEST JUMPDEST DUP2 PUSH1 0x4 DUP2 GT ISZERO PUSH2 0x93D JUMPI PUSH2 0x93C PUSH2 0x3444 JUMP JUMPDEST JUMPDEST SUB PUSH2 0x9E2 JUMPI PUSH1 0x0 PUSH1 0x2 PUSH1 0x0 DUP1 DUP7 DUP2 MSTORE PUSH1 0x20 ADD SWAP1 DUP2 MSTORE PUSH1 0x20 ADD PUSH1 0x0 KECCAK256 PUSH1 0x9 ADD PUSH1 0x0 ADD PUSH1 0x1 SWAP1 SLOAD SWAP1 PUSH2 0x100 EXP SWAP1 DIV PUSH1 0xFF AND AND PUSH1 0xFF AND SUB PUSH2 0x9DD JUMPI PUSH1 0x0 PUSH1 0x4 DUP2 GT ISZERO PUSH2 0x989 JUMPI PUSH2 0x988 PUSH2 0x3444 JUMP JUMPDEST JUMPDEST DUP3 PUSH1 0x4 DUP2 GT ISZERO PUSH2 0x99C JUMPI PUSH2 0x99B PUSH2 0x3444 JUMP JUMPDEST JUMPDEST EQ PUSH2 0x9DC JUMPI PUSH1 0x40 MLOAD PUSH32 0x8C379A000000000000000000000000000000000000000000000000000000000 DUP2 MSTORE PUSH1 0x4 ADD PUSH2 0x9D3 SWAP1 PUSH2 0x477F JUMP JUMPDEST PUSH1 0x40 MLOAD DUP1 SWAP2 SUB SWAP1 REVERT JUMPDEST JUMPDEST PUSH2 0xA51 JUMP JUMPDEST PUSH1 0x0 PUSH1 0x2 PUSH1 0x0 DUP1 DUP7 DUP2 MSTORE PUSH1 0x20 ADD SWAP1 DUP2 MSTORE PUSH1 0x20 ADD PUSH1 0x0 KECCAK256 PUSH1 0x9 ADD PUSH1 0x0 ADD PUSH1 0x1 SWAP1 SLOAD SWAP1 PUSH2 0x100 EXP SWAP1 DIV PUSH1 0xFF AND AND PUSH1 0xFF AND SUB PUSH2 0xA50 JUMPI PUSH1 0x40 MLOAD PUSH32 0x8C379A000000000000000000000000000000000000000000000000000000000 DUP2 MSTORE PUSH1 0x4 ADD PUSH2 0xA47 SWAP1 PUSH2 0x477F JUMP JUMPDEST PUSH1 0x40 MLOAD DUP1 SWAP2 SUB SWAP1 REVERT JUMPDEST JUMPDEST DUP1 PUSH1 0x4 DUP2 GT ISZERO PUSH2 0xA64 JUMPI PUSH2 0xA63 PUSH2 0x3444 JUMP JUMPDEST JUMPDEST DUP3 PUSH1 0x4 DUP2 GT ISZERO PUSH2 0xA77 JUMPI PUSH2 0xA76 PUSH2 0x3444 JUMP JUMPDEST JUMPDEST SUB PUSH2 0xAB7 JUMPI PUSH1 0x40 MLOAD PUSH32 0x8C379A000000000000000000000000000000000000000000000000000000000 DUP2 MSTORE PUSH1 0x4 ADD PUSH2 0xAAE SWAP1 PUSH2 0x47EB JUMP JUMPDEST PUSH1 0x40 MLOAD DUP1 SWAP2 SUB SWAP1 REVERT JUMPDEST DUP2 PUSH1 0x0 DUP1 DUP6 DUP2 MSTORE PUSH1 0x20 ADD SWAP1 DUP2 MSTORE PUSH1 0x20 ADD PUSH1 0x0 KECCAK256 PUSH1 0x0 ADD PUSH1 0x0 PUSH2 0x100 EXP DUP2 SLOAD DUP2 PUSH1 0xFF MUL NOT AND SWAP1 DUP4 PUSH1 0x4 DUP2 GT ISZERO PUSH2 0xAEF JUMPI PUSH2 0xAEE PUSH2 0x3444 JUMP JUMPDEST JUMPDEST MUL OR SWAP1 SSTORE POP DUP3 PUSH32 0xAC0C4085A30BC70D0D8893EE5D6466AC9C5F03E27FD7292DCEF128A610E7C190 DUP4 PUSH1 0x40 MLOAD PUSH2 0xB24 SWAP2 SWAP1 PUSH2 0x480B JUMP JUMPDEST PUSH1 0x40 MLOAD DUP1 SWAP2 SUB SWAP1 LOG2 POP POP POP JUMP JUMPDEST PUSH1 0x1 PUSH1 0x0 SWAP1 SLOAD SWAP1 PUSH2 0x100 EXP SWAP1 DIV PUSH20 0xFFFFFFFFFFFFFFFFFFFFFFFFFFFFFFFFFFFFFFFF AND PUSH20 0xFFFFFFFFFFFFFFFFFFFFFFFFFFFFFFFFFFFFFFFF AND PUSH4 0x64DD489F PUSH1 0x0 DUP1 DUP6 DUP2 MSTORE PUSH1 0x20 ADD SWAP1 DUP2 MSTORE PUSH1 0x20 ADD PUSH1 0x0 KECCAK256 PUSH1 0x1 ADD SLOAD CALLER PUSH1 0x40 MLOAD DUP4 PUSH4 0xFFFFFFFF AND PUSH1 0xE0 SHL DUP2 MSTORE PUSH1 0x4 ADD PUSH2 0xBA3 SWAP3 SWAP2 SWAP1 PUSH2 0x45B3 JUMP JUMPDEST PUSH1 0x20 PUSH1 0x40 MLOAD DUP1 DUP4 SUB DUP2 DUP7 GAS STATICCALL ISZERO DUP1 ISZERO PUSH2 0xBC0 JUMPI RETURNDATASIZE PUSH1 0x0 DUP1 RETURNDATACOPY RETURNDATASIZE PUSH1 0x0 REVERT JUMPDEST POP POP POP POP PUSH1 0x40 MLOAD RETURNDATASIZE PUSH1 0x1F NOT PUSH1 0x1F DUP3 ADD AND DUP3 ADD DUP1 PUSH1 0x40 MSTORE POP DUP2 ADD SWAP1 PUSH2 0xBE4 SWAP2 SWAP1 PUSH2 0x4608 JUMP JUMPDEST PUSH2 0xC23 JUMPI PUSH1 0x40 MLOAD PUSH32 0x8C379A000000000000000000000000000000000000000000000000000000000 DUP2 MSTORE PUSH1 0x4 ADD PUSH2 0xC1A SWAP1 PUSH2 0x4898 JUMP JUMPDEST PUSH1 0x40 MLOAD DUP1 SWAP2 SUB SWAP1 REVERT JUMPDEST PUSH1 0x0 DUP2 DUP1 PUSH1 0x60 ADD SWAP1 PUSH2 0xC35 SWAP2 SWAP1 PUSH2 0x48C7 JUMP JUMPDEST SWAP1 POP GT PUSH2 0xC77 JUMPI PUSH1 0x40 MLOAD PUSH32 0x8C379A000000000000000000000000000000000000000000000000000000000 DUP2 MSTORE PUSH1 0x4 ADD PUSH2 0xC6E SWAP1 PUSH2 0x4976 JUMP JUMPDEST PUSH1 0x40 MLOAD DUP1 SWAP2 SUB SWAP1 REVERT JUMPDEST PUSH1 0x0 DUP1 SHL DUP2 PUSH1 0x40 ADD CALLDATALOAD SUB PUSH2 0xCC0 JUMPI PUSH1 0x40 MLOAD PUSH32 0x8C379A000000000000000000000000000000000000000000000000000000000 DUP2 MSTORE PUSH1 0x4 ADD PUSH2 0xCB7 SWAP1 PUSH2 0x49E2 JUMP JUMPDEST PUSH1 0x40 MLOAD DUP1 SWAP2 SUB SWAP1 REVERT JUMPDEST PUSH1 0x0 DUP1 SHL PUSH1 0x0 DUP1 DUP5 DUP2 MSTORE PUSH1 0x20 ADD SWAP1 DUP2 MSTORE PUSH1 0x20 ADD PUSH1 0x0 KECCAK256 PUSH1 0x1 ADD SLOAD SUB PUSH2 0xD1A JUMPI PUSH1 0x40 MLOAD PUSH32 0x8C379A000000000000000000000000000000000000000000000000000000000 DUP2 MSTORE PUSH1 0x4 ADD PUSH2 0xD11 SWAP1 PUSH2 0x4A4E JUMP JUMPDEST PUSH1 0x40 MLOAD DUP1 SWAP2 SUB SWAP1 REVERT JUMPDEST PUSH1 0x0 PUSH1 0x4 DUP2 GT ISZERO PUSH2 0xD2E JUMPI PUSH2 0xD2D PUSH2 0x3444 JUMP JUMPDEST JUMPDEST PUSH1 0x0 DUP1 DUP5 DUP2 MSTORE PUSH1 0x20 ADD SWAP1 DUP2 MSTORE PUSH1 0x20 ADD PUSH1 0x0 KECCAK256 PUSH1 0x0 ADD PUSH1 0x0 SWAP1 SLOAD SWAP1 PUSH2 0x100 EXP SWAP1 DIV PUSH1 0xFF AND PUSH1 0x4 DUP2 GT ISZERO PUSH2 0xD63 JUMPI PUSH2 0xD62 PUSH2 0x3444 JUMP JUMPDEST JUMPDEST EQ DUP1 PUSH2 0xDB5 JUMPI POP PUSH1 0x3 PUSH1 0x4 DUP2 GT ISZERO PUSH2 0xD7E JUMPI PUSH2 0xD7D PUSH2 0x3444 JUMP JUMPDEST JUMPDEST PUSH1 0x0 DUP1 DUP5 DUP2 MSTORE PUSH1 0x20 ADD SWAP1 DUP2 MSTORE PUSH1 0x20 ADD PUSH1 0x0 KECCAK256 PUSH1 0x0 ADD PUSH1 0x0 SWAP1 SLOAD SWAP1 PUSH2 0x100 EXP SWAP1 DIV PUSH1 0xFF AND PUSH1 0x4 DUP2 GT ISZERO PUSH2 0xDB3 JUMPI PUSH2 0xDB2 PUSH2 0x3444 JUMP JUMPDEST JUMPDEST EQ JUMPDEST PUSH2 0xDF4 JUMPI PUSH1 0x40 MLOAD PUSH32 0x8C379A000000000000000000000000000000000000000000000000000000000 DUP2 MSTORE PUSH1 0x4 ADD PUSH2 0xDEB SWAP1 PUSH2 0x4713 JUMP JUMPDEST PUSH1 0x40 MLOAD DUP1 SWAP2 SUB SWAP1 REVERT JUMPDEST PUSH1 0x0 PUSH1 0x4 PUSH1 0x0 DUP1 DUP6 DUP2 MSTORE PUSH1 0x20 ADD SWAP1 DUP2 MSTORE PUSH1 0x20 ADD PUSH1 0x0 KECCAK256 PUSH1 0x9 ADD PUSH1 0x0 ADD PUSH1 0x1 SWAP1 SLOAD SWAP1 PUSH2 0x100 EXP SWAP1 DIV PUSH1 0xFF AND AND PUSH1 0xFF AND SUB PUSH2 0xE62 JUMPI PUSH1 0x40 MLOAD PUSH32 0x8C379A000000000000000000000000000000000000000000000000000000000 DUP2 MSTORE PUSH1 0x4 ADD PUSH2 0xE59 SWAP1 PUSH2 0x4ABA JUMP JUMPDEST PUSH1 0x40 MLOAD DUP1 SWAP2 SUB SWAP1 REVERT JUMPDEST DUP1 PUSH1 0x20 ADD CALLDATALOAD PUSH1 0x0 DUP1 DUP5 DUP2 MSTORE PUSH1 0x20 ADD SWAP1 DUP2 MSTORE PUSH1 0x20 ADD PUSH1 0x0 KECCAK256 PUSH1 0x15 ADD PUSH1 0x1 ADD SLOAD LT ISZERO PUSH2 0xEA8 JUMPI DUP1 PUSH1 0x20 ADD CALLDATALOAD PUSH1 0x0 DUP1 DUP5 DUP2 MSTORE PUSH1 0x20 ADD SWAP1 DUP2 MSTORE PUSH1 0x20 ADD PUSH1 0x0 KECCAK256 PUSH1 0x15 ADD PUSH1 0x1 ADD DUP2 SWAP1 SSTORE POP JUMPDEST DUP1 PUSH1 0x40 ADD CALLDATALOAD PUSH1 0x0 DUP1 DUP5 DUP2 MSTORE PUSH1 0x20 ADD SWAP1 DUP2 MSTORE PUSH1 0x20 ADD PUSH1 0x0 KECCAK256 PUSH1 0x15 ADD PUSH1 0x2 ADD DUP2 SWAP1 SSTORE POP DUP1 DUP1 PUSH1 0x60 ADD SWAP1 PUSH2 0xED9 SWAP2 SWAP1 PUSH2 0x48C7 JUMP JUMPDEST PUSH1 0x0 DUP1 DUP6 DUP2 MSTORE PUSH1 0x20 ADD SWAP1 DUP2 MSTORE PUSH1 0x20 ADD PUSH1 0x0 KECCAK256 PUSH1 0x15 ADD PUSH1 0x3 ADD SWAP2 DUP3 PUSH2 0xEFE SWAP3 SWAP2 SWAP1 PUSH2 0x4C91 JUMP JUMPDEST POP DUP2 PUSH32 0x35947A8913E2156F19B018078C9F0667E49CB3DC24AF3434A4D0B16B82675B1B DUP3 PUSH1 0x40 ADD CALLDATALOAD DUP4 DUP1 PUSH1 0x60 ADD SWAP1 PUSH2 0xF36 SWAP2 SWAP1 PUSH2 0x48C7 JUMP JUMPDEST DUP6 PUSH1 0x20 ADD CALLDATALOAD PUSH1 0x40 MLOAD PUSH2 0xF4B SWAP5 SWAP4 SWAP3 SWAP2 SWAP1 PUSH2 0x4D8E JUMP JUMPDEST PUSH1 0x40 MLOAD DUP1 SWAP2 SUB SWAP1 LOG2 POP POP JUMP JUMPDEST PUSH2 0xF5F PUSH2 0x2AFA JUMP JUMPDEST PUSH2 0xF69 PUSH1 0x0 PUSH2 0x2B81 JUMP JUMPDEST JUMP JUMPDEST PUSH1 0x0 PUSH2 0xF75 PUSH2 0x2C58 JUMP JUMPDEST SWAP1 POP PUSH1 0x0 DUP2 PUSH1 0x0 ADD PUSH1 0x8 SWAP1 SLOAD SWAP1 PUSH2 0x100 EXP SWAP1 DIV PUSH1 0xFF AND ISZERO SWAP1 POP PUSH1 0x0 DUP3 PUSH1 0x0 ADD PUSH1 0x0 SWAP1 SLOAD SWAP1 PUSH2 0x100 EXP SWAP1 DIV PUSH8 0xFFFFFFFFFFFFFFFF AND SWAP1 POP PUSH1 0x0 DUP1 DUP3 PUSH8 0xFFFFFFFFFFFFFFFF AND EQ DUP1 ISZERO PUSH2 0xFC3 JUMPI POP DUP3 JUMPDEST SWAP1 POP PUSH1 0x0 PUSH1 0x1 DUP4 PUSH8 0xFFFFFFFFFFFFFFFF AND EQ DUP1 ISZERO PUSH2 0xFF8 JUMPI POP PUSH1 0x0 ADDRESS PUSH20 0xFFFFFFFFFFFFFFFFFFFFFFFFFFFFFFFFFFFFFFFF AND EXTCODESIZE EQ JUMPDEST SWAP1 POP DUP2 ISZERO DUP1 ISZERO PUSH2 0x1006 JUMPI POP DUP1 ISZERO JUMPDEST ISZERO PUSH2 0x103D JUMPI PUSH1 0x40 MLOAD PUSH32 0xF92EE8A900000000000000000000000000000000000000000000000000000000 DUP2 MSTORE PUSH1 0x4 ADD PUSH1 0x40 MLOAD DUP1 SWAP2 SUB SWAP1 REVERT JUMPDEST PUSH1 0x1 DUP6 PUSH1 0x0 ADD PUSH1 0x0 PUSH2 0x100 EXP DUP2 SLOAD DUP2 PUSH8 0xFFFFFFFFFFFFFFFF MUL NOT AND SWAP1 DUP4 PUSH8 0xFFFFFFFFFFFFFFFF AND MUL OR SWAP1 SSTORE POP DUP4 ISZERO PUSH2 0x108D JUMPI PUSH1 0x1 DUP6 PUSH1 0x0 ADD PUSH1 0x8 PUSH2 0x100 EXP DUP2 SLOAD DUP2 PUSH1 0xFF MUL NOT AND SWAP1 DUP4 ISZERO ISZERO MUL OR SWAP1 SSTORE POP JUMPDEST PUSH2 0x1096 CALLER PUSH2 0x2C80 JUMP JUMPDEST PUSH2 0x109E PUSH2 0x2C94 JUMP JUMPDEST DUP8 DUP8 PUSH1 0x2 SWAP2 DUP3 PUSH2 0x10AF SWAP3 SWAP2 SWAP1 PUSH2 0x4C91 JUMP JUMPDEST POP DUP6 PUSH1 0x1 PUSH1 0x0 PUSH2 0x100 EXP DUP2 SLOAD DUP2 PUSH20 0xFFFFFFFFFFFFFFFFFFFFFFFFFFFFFFFFFFFFFFFF MUL NOT AND SWAP1 DUP4 PUSH20 0xFFFFFFFFFFFFFFFFFFFFFFFFFFFFFFFFFFFFFFFF AND MUL OR SWAP1 SSTORE POP DUP4 ISZERO PUSH2 0x114D JUMPI PUSH1 0x0 DUP6 PUSH1 0x0 ADD PUSH1 0x8 PUSH2 0x100 EXP DUP2 SLOAD DUP2 PUSH1 0xFF MUL NOT AND SWAP1 DUP4 ISZERO ISZERO MUL OR SWAP1 SSTORE POP PUSH32 0xC7F505B2F371AE2175EE4913F4499E1F2633A7B5936321EED1CDAEB6115181D2 PUSH1 0x1 PUSH1 0x40 MLOAD PUSH2 0x1144 SWAP2 SWAP1 PUSH2 0x4E1D JUMP JUMPDEST PUSH1 0x40 MLOAD DUP1 SWAP2 SUB SWAP1 LOG1 JUMPDEST POP POP POP POP POP POP POP POP JUMP JUMPDEST PUSH1 0x1 PUSH1 0x14 SWAP1 SLOAD SWAP1 PUSH2 0x100 EXP SWAP1 DIV PUSH4 0xFFFFFFFF AND DUP2 JUMP JUMPDEST PUSH1 0x1 PUSH1 0x0 SWAP1 SLOAD SWAP1 PUSH2 0x100 EXP SWAP1 DIV PUSH20 0xFFFFFFFFFFFFFFFFFFFFFFFFFFFFFFFFFFFFFFFF AND DUP2 JUMP JUMPDEST PUSH1 0x0 DUP1 PUSH2 0x119E PUSH2 0x2C9E JUMP JUMPDEST SWAP1 POP DUP1 PUSH1 0x0 ADD PUSH1 0x0 SWAP1 SLOAD SWAP1 PUSH2 0x100 EXP SWAP1 DIV PUSH20 0xFFFFFFFFFFFFFFFFFFFFFFFFFFFFFFFFFFFFFFFF AND SWAP2 POP POP SWAP1 JUMP JUMPDEST PUSH2 0x11D3 PUSH2 0x30EA JUMP JUMPDEST PUSH1 0x0 DUP1 DUP4 DUP2 MSTORE PUSH1 0x20 ADD SWAP1 DUP2 MSTORE PUSH1 0x20 ADD PUSH1 0x0 KECCAK256 PUSH1 0x40 MLOAD DUP1 PUSH2 0x140 ADD PUSH1 0x40 MSTORE SWAP1 DUP2 PUSH1 0x0 DUP3 ADD PUSH1 0x0 SWAP1 SLOAD SWAP1 PUSH2 0x100 EXP SWAP1 DIV PUSH1 0xFF AND PUSH1 0x4 DUP2 GT ISZERO PUSH2 0x1216 JUMPI PUSH2 0x1215 PUSH2 0x3444 JUMP JUMPDEST JUMPDEST PUSH1 0x4 DUP2 GT ISZERO PUSH2 0x1228 JUMPI PUSH2 0x1227 PUSH2 0x3444 JUMP JUMPDEST JUMPDEST DUP2 MSTORE PUSH1 0x20 ADD PUSH1 0x1 DUP3 ADD SLOAD DUP2 MSTORE PUSH1 0x20 ADD PUSH1 0x2 DUP3 ADD PUSH1 0x2 DUP1 PUSH1 0x20 MUL PUSH1 0x40 MLOAD SWAP1 DUP2 ADD PUSH1 0x40 MSTORE DUP1 SWAP3 SWAP2 SWAP1 DUP3 PUSH1 0x2 DUP1 ISZERO PUSH2 0x1272 JUMPI PUSH1 0x20 MUL DUP3 ADD SWAP2 JUMPDEST DUP2 SLOAD DUP2 MSTORE PUSH1 0x20 ADD SWAP1 PUSH1 0x1 ADD SWAP1 DUP1 DUP4 GT PUSH2 0x125E JUMPI JUMPDEST POP POP POP POP POP DUP2 MSTORE PUSH1 0x20 ADD PUSH1 0x4 DUP3 ADD SLOAD DUP2 MSTORE PUSH1 0x20 ADD PUSH1 0x5 DUP3 ADD DUP1 SLOAD DUP1 PUSH1 0x20 MUL PUSH1 0x20 ADD PUSH1 0x40 MLOAD SWAP1 DUP2 ADD PUSH1 0x40 MSTORE DUP1 SWAP3 SWAP2 SWAP1 DUP2 DUP2 MSTORE PUSH1 0x20 ADD PUSH1 0x0 SWAP1 JUMPDEST DUP3 DUP3 LT ISZERO PUSH2 0x131C JUMPI DUP4 DUP3 SWAP1 PUSH1 0x0 MSTORE PUSH1 0x20 PUSH1 0x0 KECCAK256 ADD DUP1 SLOAD DUP1 PUSH1 0x20 MUL PUSH1 0x20 ADD PUSH1 0x40 MLOAD SWAP1 DUP2 ADD PUSH1 0x40 MSTORE DUP1 SWAP3 SWAP2 SWAP1 DUP2 DUP2 MSTORE PUSH1 0x20 ADD DUP3 DUP1 SLOAD DUP1 ISZERO PUSH2 0x1308 JUMPI PUSH1 0x20 MUL DUP3 ADD SWAP2 SWAP1 PUSH1 0x0 MSTORE PUSH1 0x20 PUSH1 0x0 KECCAK256 SWAP1 JUMPDEST DUP2 SLOAD DUP2 MSTORE PUSH1 0x20 ADD SWAP1 PUSH1 0x1 ADD SWAP1 DUP1 DUP4 GT PUSH2 0x12F4 JUMPI JUMPDEST POP POP POP POP POP DUP2 MSTORE PUSH1 0x20 ADD SWAP1 PUSH1 0x1 ADD SWAP1 PUSH2 0x12AA JUMP JUMPDEST POP POP POP POP DUP2 MSTORE PUSH1 0x20 ADD PUSH1 0x6 DUP3 ADD SLOAD DUP2 MSTORE PUSH1 0x20 ADD PUSH1 0x7 DUP3 ADD SLOAD DUP2 MSTORE PUSH1 0x20 ADD PUSH1 0x8 DUP3 ADD DUP1 SLOAD PUSH2 0x1348 SWAP1 PUSH2 0x4582 JUMP JUMPDEST DUP1 PUSH1 0x1F ADD PUSH1 0x20 DUP1 SWAP2 DIV MUL PUSH1 0x20 ADD PUSH1 0x40 MLOAD SWAP1 DUP2 ADD PUSH1 0x40 MSTORE DUP1 SWAP3 SWAP2 SWAP1 DUP2 DUP2 MSTORE PUSH1 0x20 ADD DUP3 DUP1 SLOAD PUSH2 0x1374 SWAP1 PUSH2 0x4582 JUMP JUMPDEST DUP1 ISZERO PUSH2 0x13C1 JUMPI DUP1 PUSH1 0x1F LT PUSH2 0x1396 JUMPI PUSH2 0x100 DUP1 DUP4 SLOAD DIV MUL DUP4 MSTORE SWAP2 PUSH1 0x20 ADD SWAP2 PUSH2 0x13C1 JUMP JUMPDEST DUP3 ADD SWAP2 SWAP1 PUSH1 0x0 MSTORE PUSH1 0x20 PUSH1 0x0 KECCAK256 SWAP1 JUMPDEST DUP2 SLOAD DUP2 MSTORE SWAP1 PUSH1 0x1 ADD SWAP1 PUSH1 0x20 ADD DUP1 DUP4 GT PUSH2 0x13A4 JUMPI DUP3 SWAP1 SUB PUSH1 0x1F AND DUP3 ADD SWAP2 JUMPDEST POP POP POP POP POP DUP2 MSTORE PUSH1 0x20 ADD PUSH1 0x9 DUP3 ADD PUSH1 0x40 MLOAD DUP1 PUSH1 0xC0 ADD PUSH1 0x40 MSTORE SWAP1 DUP2 PUSH1 0x0 DUP3 ADD PUSH1 0x0 SWAP1 SLOAD SWAP1 PUSH2 0x100 EXP SWAP1 DIV PUSH1 0xFF AND PUSH1 0xFF AND PUSH1 0xFF AND DUP2 MSTORE PUSH1 0x20 ADD PUSH1 0x0 DUP3 ADD PUSH1 0x1 SWAP1 SLOAD SWAP1 PUSH2 0x100 EXP SWAP1 DIV PUSH1 0xFF AND PUSH1 0xFF AND PUSH1 0xFF AND DUP2 MSTORE PUSH1 0x20 ADD PUSH1 0x1 DUP3 ADD SLOAD DUP2 MSTORE PUSH1 0x20 ADD PUSH1 0x2 DUP3 ADD SLOAD DUP2 MSTORE PUSH1 0x20 ADD PUSH1 0x3 DUP3 ADD PUSH1 0x0 SWAP1 SLOAD SWAP1 PUSH2 0x100 EXP SWAP1 DIV PUSH1 0xFF AND PUSH1 0x4 DUP2 GT ISZERO PUSH2 0x144D JUMPI PUSH2 0x144C PUSH2 0x3444 JUMP JUMPDEST JUMPDEST PUSH1 0x4 DUP2 GT ISZERO PUSH2 0x145F JUMPI PUSH2 0x145E PUSH2 0x3444 JUMP JUMPDEST JUMPDEST DUP2 MSTORE PUSH1 0x20 ADD PUSH1 0x4 DUP3 ADD PUSH1 0x40 MLOAD DUP1 PUSH2 0x100 ADD PUSH1 0x40 MSTORE SWAP1 DUP2 PUSH1 0x0 DUP3 ADD PUSH1 0x0 SWAP1 SLOAD SWAP1 PUSH2 0x100 EXP SWAP1 DIV PUSH1 0xFF AND ISZERO ISZERO ISZERO ISZERO DUP2 MSTORE PUSH1 0x20 ADD PUSH1 0x1 DUP3 ADD SLOAD DUP2 MSTORE PUSH1 0x20 ADD PUSH1 0x2 DUP3 ADD SLOAD DUP2 MSTORE PUSH1 0x20 ADD PUSH1 0x3 DUP3 ADD SLOAD DUP2 MSTORE PUSH1 0x20 ADD PUSH1 0x4 DUP3 ADD SLOAD DUP2 MSTORE PUSH1 0x20 ADD PUSH1 0x5 DUP3 ADD SLOAD DUP2 MSTORE PUSH1 0x20 ADD PUSH1 0x6 DUP3 ADD SLOAD DUP2 MSTORE PUSH1 0x20 ADD PUSH1 0x7 DUP3 ADD SLOAD DUP2 MSTORE POP POP DUP2 MSTORE POP POP DUP2 MSTORE PUSH1 0x20 ADD PUSH1 0x15 DUP3 ADD PUSH1 0x40 MLOAD DUP1 PUSH1 0x80 ADD PUSH1 0x40 MSTORE SWAP1 DUP2 PUSH1 0x0 DUP3 ADD PUSH1 0x0 SWAP1 SLOAD SWAP1 PUSH2 0x100 EXP SWAP1 DIV PUSH1 0xFF AND PUSH1 0x9 DUP2 GT ISZERO PUSH2 0x1512 JUMPI PUSH2 0x1511 PUSH2 0x3444 JUMP JUMPDEST JUMPDEST PUSH1 0x9 DUP2 GT ISZERO PUSH2 0x1524 JUMPI PUSH2 0x1523 PUSH2 0x3444 JUMP JUMPDEST JUMPDEST DUP2 MSTORE PUSH1 0x20 ADD PUSH1 0x1 DUP3 ADD SLOAD DUP2 MSTORE PUSH1 0x20 ADD PUSH1 0x2 DUP3 ADD SLOAD DUP2 MSTORE PUSH1 0x20 ADD PUSH1 0x3 DUP3 ADD DUP1 SLOAD PUSH2 0x154C SWAP1 PUSH2 0x4582 JUMP JUMPDEST DUP1 PUSH1 0x1F ADD PUSH1 0x20 DUP1 SWAP2 DIV MUL PUSH1 0x20 ADD PUSH1 0x40 MLOAD SWAP1 DUP2 ADD PUSH1 0x40 MSTORE DUP1 SWAP3 SWAP2 SWAP1 DUP2 DUP2 MSTORE PUSH1 0x20 ADD DUP3 DUP1 SLOAD PUSH2 0x1578 SWAP1 PUSH2 0x4582 JUMP JUMPDEST DUP1 ISZERO PUSH2 0x15C5 JUMPI DUP1 PUSH1 0x1F LT PUSH2 0x159A JUMPI PUSH2 0x100 DUP1 DUP4 SLOAD DIV MUL DUP4 MSTORE SWAP2 PUSH1 0x20 ADD SWAP2 PUSH2 0x15C5 JUMP JUMPDEST DUP3 ADD SWAP2 SWAP1 PUSH1 0x0 MSTORE PUSH1 0x20 PUSH1 0x0 KECCAK256 SWAP1 JUMPDEST DUP2 SLOAD DUP2 MSTORE SWAP1 PUSH1 0x1 ADD SWAP1 PUSH1 0x20 ADD DUP1 DUP4 GT PUSH2 0x15A8 JUMPI DUP3 SWAP1 SUB PUSH1 0x1F AND DUP3 ADD SWAP2 JUMPDEST POP POP POP POP POP DUP2 MSTORE POP POP DUP2 MSTORE POP POP SWAP1 POP SWAP2 SWAP1 POP JUMP JUMPDEST PUSH1 0x0 DUP9 PUSH1 0xA0 ADD PUSH1 0x20 ADD CALLDATALOAD GT PUSH2 0x1623 JUMPI PUSH1 0x40 MLOAD PUSH32 0x8C379A000000000000000000000000000000000000000000000000000000000 DUP2 MSTORE PUSH1 0x4 ADD PUSH2 0x161A SWAP1 PUSH2 0x4E84 JUMP JUMPDEST PUSH1 0x40 MLOAD DUP1 SWAP2 SUB SWAP1 REVERT JUMPDEST DUP8 PUSH1 0xA0 ADD PUSH1 0x20 ADD CALLDATALOAD DUP9 PUSH1 0xA0 ADD PUSH1 0x40 ADD CALLDATALOAD GT PUSH2 0x1673 JUMPI PUSH1 0x40 MLOAD PUSH32 0x8C379A000000000000000000000000000000000000000000000000000000000 DUP2 MSTORE PUSH1 0x4 ADD PUSH2 0x166A SWAP1 PUSH2 0x4EF0 JUMP JUMPDEST PUSH1 0x40 MLOAD DUP1 SWAP2 SUB SWAP1 REVERT JUMPDEST PUSH1 0x0 PUSH1 0x4 DUP2 GT ISZERO PUSH2 0x1687 JUMPI PUSH2 0x1686 PUSH2 0x3444 JUMP JUMPDEST JUMPDEST DUP9 PUSH1 0x80 ADD PUSH1 0x20 DUP2 ADD SWAP1 PUSH2 0x169A SWAP2 SWAP1 PUSH2 0x4F10 JUMP JUMPDEST PUSH1 0x4 DUP2 GT ISZERO PUSH2 0x16AC JUMPI PUSH2 0x16AB PUSH2 0x3444 JUMP JUMPDEST JUMPDEST EQ DUP1 PUSH2 0x16EE JUMPI POP PUSH1 0x3 PUSH1 0x4 DUP2 GT ISZERO PUSH2 0x16C7 JUMPI PUSH2 0x16C6 PUSH2 0x3444 JUMP JUMPDEST JUMPDEST DUP9 PUSH1 0x80 ADD PUSH1 0x20 DUP2 ADD SWAP1 PUSH2 0x16DA SWAP2 SWAP1 PUSH2 0x4F10 JUMP JUMPDEST PUSH1 0x4 DUP2 GT ISZERO PUSH2 0x16EC JUMPI PUSH2 0x16EB PUSH2 0x3444 JUMP JUMPDEST JUMPDEST EQ JUMPDEST PUSH2 0x172D JUMPI PUSH1 0x40 MLOAD PUSH32 0x8C379A000000000000000000000000000000000000000000000000000000000 DUP2 MSTORE PUSH1 0x4 ADD PUSH2 0x1724 SWAP1 PUSH2 0x4F89 JUMP JUMPDEST PUSH1 0x40 MLOAD DUP1 SWAP2 SUB SWAP1 REVERT JUMPDEST PUSH1 0x3 PUSH1 0x9 DUP2 GT ISZERO PUSH2 0x1741 JUMPI PUSH2 0x1740 PUSH2 0x3444 JUMP JUMPDEST JUMPDEST DUP8 PUSH1 0x0 ADD PUSH1 0x20 DUP2 ADD SWAP1 PUSH2 0x1754 SWAP2 SWAP1 PUSH2 0x4FCE JUMP JUMPDEST PUSH1 0x9 DUP2 GT ISZERO PUSH2 0x1766 JUMPI PUSH2 0x1765 PUSH2 0x3444 JUMP JUMPDEST JUMPDEST SUB PUSH2 0x17C7 JUMPI PUSH1 0x0 PUSH1 0x2 DUP10 PUSH1 0x0 ADD PUSH1 0x20 DUP2 ADD SWAP1 PUSH2 0x1782 SWAP2 SWAP1 PUSH2 0x5027 JUMP JUMPDEST AND PUSH1 0xFF AND EQ PUSH2 0x17C6 JUMPI PUSH1 0x40 MLOAD PUSH32 0x8C379A000000000000000000000000000000000000000000000000000000000 DUP2 MSTORE PUSH1 0x4 ADD PUSH2 0x17BD SWAP1 PUSH2 0x50EC JUMP JUMPDEST PUSH1 0x40 MLOAD DUP1 SWAP2 SUB SWAP1 REVERT JUMPDEST JUMPDEST PUSH1 0x9 DUP1 DUP2 GT ISZERO PUSH2 0x17DA JUMPI PUSH2 0x17D9 PUSH2 0x3444 JUMP JUMPDEST JUMPDEST DUP8 PUSH1 0x0 ADD PUSH1 0x20 DUP2 ADD SWAP1 PUSH2 0x17ED SWAP2 SWAP1 PUSH2 0x4FCE JUMP JUMPDEST PUSH1 0x9 DUP2 GT ISZERO PUSH2 0x17FF JUMPI PUSH2 0x17FE PUSH2 0x3444 JUMP JUMPDEST JUMPDEST SUB PUSH2 0x1905 JUMPI PUSH1 0x1 DUP9 PUSH1 0xA0 ADD PUSH1 0x20 ADD CALLDATALOAD EQ PUSH2 0x184E JUMPI PUSH1 0x40 MLOAD PUSH32 0x8C379A000000000000000000000000000000000000000000000000000000000 DUP2 MSTORE PUSH1 0x4 ADD PUSH2 0x1845 SWAP1 PUSH2 0x517E JUMP JUMPDEST PUSH1 0x40 MLOAD DUP1 SWAP2 SUB SWAP1 REVERT JUMPDEST PUSH1 0x0 PUSH1 0x2 DUP10 PUSH1 0x0 ADD PUSH1 0x20 DUP2 ADD SWAP1 PUSH2 0x1865 SWAP2 SWAP1 PUSH2 0x5027 JUMP JUMPDEST AND PUSH1 0xFF AND EQ PUSH2 0x18A9 JUMPI PUSH1 0x40 MLOAD PUSH32 0x8C379A000000000000000000000000000000000000000000000000000000000 DUP2 MSTORE PUSH1 0x4 ADD PUSH2 0x18A0 SWAP1 PUSH2 0x5236 JUMP JUMPDEST PUSH1 0x40 MLOAD DUP1 SWAP2 SUB SWAP1 REVERT JUMPDEST PUSH1 0x0 PUSH1 0x4 DUP10 PUSH1 0x0 ADD PUSH1 0x20 DUP2 ADD SWAP1 PUSH2 0x18C0 SWAP2 SWAP1 PUSH2 0x5027 JUMP JUMPDEST AND PUSH1 0xFF AND EQ PUSH2 0x1904 JUMPI PUSH1 0x40 MLOAD PUSH32 0x8C379A000000000000000000000000000000000000000000000000000000000 DUP2 MSTORE PUSH1 0x4 ADD PUSH2 0x18FB SWAP1 PUSH2 0x52EE JUMP JUMPDEST PUSH1 0x40 MLOAD DUP1 SWAP2 SUB SWAP1 REVERT JUMPDEST JUMPDEST TIMESTAMP DUP9 PUSH1 0x40 ADD CALLDATALOAD GT PUSH2 0x194B JUMPI PUSH1 0x40 MLOAD PUSH32 0x8C379A000000000000000000000000000000000000000000000000000000000 DUP2 MSTORE PUSH1 0x4 ADD PUSH2 0x1942 SWAP1 PUSH2 0x535A JUMP JUMPDEST PUSH1 0x40 MLOAD DUP1 SWAP2 SUB SWAP1 REVERT JUMPDEST TIMESTAMP DUP9 PUSH1 0x60 ADD CALLDATALOAD DUP10 PUSH1 0x40 ADD CALLDATALOAD PUSH2 0x1960 SWAP2 SWAP1 PUSH2 0x53A9 JUMP JUMPDEST GT PUSH2 0x19A0 JUMPI PUSH1 0x40 MLOAD PUSH32 0x8C379A000000000000000000000000000000000000000000000000000000000 DUP2 MSTORE PUSH1 0x4 ADD PUSH2 0x1997 SWAP1 PUSH2 0x5429 JUMP JUMPDEST PUSH1 0x40 MLOAD DUP1 SWAP2 SUB SWAP1 REVERT JUMPDEST PUSH1 0x0 PUSH1 0x1 DUP10 PUSH1 0x0 ADD PUSH1 0x20 DUP2 ADD SWAP1 PUSH2 0x19B7 SWAP2 SWAP1 PUSH2 0x5027 JUMP JUMPDEST AND PUSH1 0xFF AND EQ PUSH2 0x19FB JUMPI PUSH1 0x40 MLOAD PUSH32 0x8C379A000000000000000000000000000000000000000000000000000000000 DUP2 MSTORE PUSH1 0x4 ADD PUSH2 0x19F2 SWAP1 PUSH2 0x54BB JUMP JUMPDEST PUSH1 0x40 MLOAD DUP1 SWAP2 SUB SWAP1 REVERT JUMPDEST PUSH1 0x1 PUSH1 0x0 SWAP1 SLOAD SWAP1 PUSH2 0x100 EXP SWAP1 DIV PUSH20 0xFFFFFFFFFFFFFFFFFFFFFFFFFFFFFFFFFFFFFFFF AND PUSH20 0xFFFFFFFFFFFFFFFFFFFFFFFFFFFFFFFFFFFFFFFF AND PUSH4 0x64DD489F DUP6 CALLER PUSH1 0x40 MLOAD DUP4 PUSH4 0xFFFFFFFF AND PUSH1 0xE0 SHL DUP2 MSTORE PUSH1 0x4 ADD PUSH2 0x1A58 SWAP3 SWAP2 SWAP1 PUSH2 0x45B3 JUMP JUMPDEST PUSH1 0x20 PUSH1 0x40 MLOAD DUP1 DUP4 SUB DUP2 DUP7 GAS STATICCALL ISZERO DUP1 ISZERO PUSH2 0x1A75 JUMPI RETURNDATASIZE PUSH1 0x0 DUP1 RETURNDATACOPY RETURNDATASIZE PUSH1 0x0 REVERT JUMPDEST POP POP POP POP PUSH1 0x40 MLOAD RETURNDATASIZE PUSH1 0x1F NOT PUSH1 0x1F DUP3 ADD AND DUP3 ADD DUP1 PUSH1 0x40 MSTORE POP DUP2 ADD SWAP1 PUSH2 0x1A99 SWAP2 SWAP1 PUSH2 0x4608 JUMP JUMPDEST PUSH2 0x1AD8 JUMPI PUSH1 0x40 MLOAD PUSH32 0x8C379A000000000000000000000000000000000000000000000000000000000 DUP2 MSTORE PUSH1 0x4 ADD PUSH2 0x1ACF SWAP1 PUSH2 0x5527 JUMP JUMPDEST PUSH1 0x40 MLOAD DUP1 SWAP2 SUB SWAP1 REVERT JUMPDEST PUSH1 0x0 DUP1 SHL PUSH1 0x0 DUP1 DUP6 DUP2 MSTORE PUSH1 0x20 ADD SWAP1 DUP2 MSTORE PUSH1 0x20 ADD PUSH1 0x0 KECCAK256 PUSH1 0x1 ADD SLOAD EQ PUSH2 0x1B32 JUMPI PUSH1 0x40 MLOAD PUSH32 0x8C379A000000000000000000000000000000000000000000000000000000000 DUP2 MSTORE PUSH1 0x4 ADD PUSH2 0x1B29 SWAP1 PUSH2 0x55B9 JUMP JUMPDEST PUSH1 0x40 MLOAD DUP1 SWAP2 SUB SWAP1 REVERT JUMPDEST PUSH1 0x0 PUSH1 0x40 MLOAD DUP1 PUSH2 0x140 ADD PUSH1 0x40 MSTORE DUP1 DUP11 PUSH1 0x80 ADD PUSH1 0x20 DUP2 ADD SWAP1 PUSH2 0x1B53 SWAP2 SWAP1 PUSH2 0x4F10 JUMP JUMPDEST PUSH1 0x4 DUP2 GT ISZERO PUSH2 0x1B65 JUMPI PUSH2 0x1B64 PUSH2 0x3444 JUMP JUMPDEST JUMPDEST DUP2 MSTORE PUSH1 0x20 ADD DUP7 DUP2 MSTORE PUSH1 0x20 ADD PUSH1 0x40 MLOAD DUP1 PUSH1 0x40 ADD PUSH1 0x40 MSTORE DUP1 DUP7 DUP2 MSTORE PUSH1 0x20 ADD PUSH1 0x0 DUP1 SHL DUP2 MSTORE POP DUP2 MSTORE PUSH1 0x20 ADD DUP4 DUP2 MSTORE PUSH1 0x20 ADD PUSH1 0x0 PUSH8 0xFFFFFFFFFFFFFFFF DUP2 GT ISZERO PUSH2 0x1BAE JUMPI PUSH2 0x1BAD PUSH2 0x38DF JUMP JUMPDEST JUMPDEST PUSH1 0x40 MLOAD SWAP1 DUP1 DUP3 MSTORE DUP1 PUSH1 0x20 MUL PUSH1 0x20 ADD DUP3 ADD PUSH1 0x40 MSTORE DUP1 ISZERO PUSH2 0x1BE1 JUMPI DUP2 PUSH1 0x20 ADD JUMPDEST PUSH1 0x60 DUP2 MSTORE PUSH1 0x20 ADD SWAP1 PUSH1 0x1 SWAP1 SUB SWAP1 DUP2 PUSH2 0x1BCC JUMPI SWAP1 POP JUMPDEST POP DUP2 MSTORE PUSH1 0x20 ADD DUP11 PUSH1 0x40 ADD CALLDATALOAD DUP2 MSTORE PUSH1 0x20 ADD DUP11 PUSH1 0x60 ADD CALLDATALOAD DUP2 MSTORE PUSH1 0x20 ADD DUP9 DUP9 DUP1 DUP1 PUSH1 0x1F ADD PUSH1 0x20 DUP1 SWAP2 DIV MUL PUSH1 0x20 ADD PUSH1 0x40 MLOAD SWAP1 DUP2 ADD PUSH1 0x40 MSTORE DUP1 SWAP4 SWAP3 SWAP2 SWAP1 DUP2 DUP2 MSTORE PUSH1 0x20 ADD DUP4 DUP4 DUP1 DUP3 DUP5 CALLDATACOPY PUSH1 0x0 DUP2 DUP5 ADD MSTORE PUSH1 0x1F NOT PUSH1 0x1F DUP3 ADD AND SWAP1 POP DUP1 DUP4 ADD SWAP3 POP POP POP POP POP POP POP DUP2 MSTORE PUSH1 0x20 ADD DUP11 DUP1 CALLDATASIZE SUB DUP2 ADD SWAP1 PUSH2 0x1C56 SWAP2 SWAP1 PUSH2 0x5763 JUMP JUMPDEST DUP2 MSTORE PUSH1 0x20 ADD DUP10 PUSH2 0x1C65 SWAP1 PUSH2 0x58C6 JUMP JUMPDEST DUP2 MSTORE POP SWAP1 POP DUP1 PUSH1 0x0 DUP1 DUP7 DUP2 MSTORE PUSH1 0x20 ADD SWAP1 DUP2 MSTORE PUSH1 0x20 ADD PUSH1 0x0 KECCAK256 PUSH1 0x0 DUP3 ADD MLOAD DUP2 PUSH1 0x0 ADD PUSH1 0x0 PUSH2 0x100 EXP DUP2 SLOAD DUP2 PUSH1 0xFF MUL NOT AND SWAP1 DUP4 PUSH1 0x4 DUP2 GT ISZERO PUSH2 0x1CA8 JUMPI PUSH2 0x1CA7 PUSH2 0x3444 JUMP JUMPDEST JUMPDEST MUL OR SWAP1 SSTORE POP PUSH1 0x20 DUP3 ADD MLOAD DUP2 PUSH1 0x1 ADD SSTORE PUSH1 0x40 DUP3 ADD MLOAD DUP2 PUSH1 0x2 ADD SWAP1 PUSH1 0x2 PUSH2 0x1CCE SWAP3 SWAP2 SWAP1 PUSH2 0x3167 JUMP JUMPDEST POP PUSH1 0x60 DUP3 ADD MLOAD DUP2 PUSH1 0x4 ADD SSTORE PUSH1 0x80 DUP3 ADD MLOAD DUP2 PUSH1 0x5 ADD SWAP1 DUP1 MLOAD SWAP1 PUSH1 0x20 ADD SWAP1 PUSH2 0x1CF5 SWAP3 SWAP2 SWAP1 PUSH2 0x31A7 JUMP JUMPDEST POP PUSH1 0xA0 DUP3 ADD MLOAD DUP2 PUSH1 0x6 ADD SSTORE PUSH1 0xC0 DUP3 ADD MLOAD DUP2 PUSH1 0x7 ADD SSTORE PUSH1 0xE0 DUP3 ADD MLOAD DUP2 PUSH1 0x8 ADD SWAP1 DUP2 PUSH2 0x1D1F SWAP2 SWAP1 PUSH2 0x58D9 JUMP JUMPDEST POP PUSH2 0x100 DUP3 ADD MLOAD DUP2 PUSH1 0x9 ADD PUSH1 0x0 DUP3 ADD MLOAD DUP2 PUSH1 0x0 ADD PUSH1 0x0 PUSH2 0x100 EXP DUP2 SLOAD DUP2 PUSH1 0xFF MUL NOT AND SWAP1 DUP4 PUSH1 0xFF AND MUL OR SWAP1 SSTORE POP PUSH1 0x20 DUP3 ADD MLOAD DUP2 PUSH1 0x0 ADD PUSH1 0x1 PUSH2 0x100 EXP DUP2 SLOAD DUP2 PUSH1 0xFF MUL NOT AND SWAP1 DUP4 PUSH1 0xFF AND MUL OR SWAP1 SSTORE POP PUSH1 0x40 DUP3 ADD MLOAD DUP2 PUSH1 0x1 ADD SSTORE PUSH1 0x60 DUP3 ADD MLOAD DUP2 PUSH1 0x2 ADD SSTORE PUSH1 0x80 DUP3 ADD MLOAD DUP2 PUSH1 0x3 ADD PUSH1 0x0 PUSH2 0x100 EXP DUP2 SLOAD DUP2 PUSH1 0xFF MUL NOT AND SWAP1 DUP4 PUSH1 0x4 DUP2 GT ISZERO PUSH2 0x1DAB JUMPI PUSH2 0x1DAA PUSH2 0x3444 JUMP JUMPDEST JUMPDEST MUL OR SWAP1 SSTORE POP PUSH1 0xA0 DUP3 ADD MLOAD DUP2 PUSH1 0x4 ADD PUSH1 0x0 DUP3 ADD MLOAD DUP2 PUSH1 0x0 ADD PUSH1 0x0 PUSH2 0x100 EXP DUP2 SLOAD DUP2 PUSH1 0xFF MUL NOT AND SWAP1 DUP4 ISZERO ISZERO MUL OR SWAP1 SSTORE POP PUSH1 0x20 DUP3 ADD MLOAD DUP2 PUSH1 0x1 ADD SSTORE PUSH1 0x40 DUP3 ADD MLOAD DUP2 PUSH1 0x2 ADD SSTORE PUSH1 0x60 DUP3 ADD MLOAD DUP2 PUSH1 0x3 ADD SSTORE PUSH1 0x80 DUP3 ADD MLOAD DUP2 PUSH1 0x4 ADD SSTORE PUSH1 0xA0 DUP3 ADD MLOAD DUP2 PUSH1 0x5 ADD SSTORE PUSH1 0xC0 DUP3 ADD MLOAD DUP2 PUSH1 0x6 ADD SSTORE PUSH1 0xE0 DUP3 ADD MLOAD DUP2 PUSH1 0x7 ADD SSTORE POP POP POP POP PUSH2 0x120 DUP3 ADD MLOAD DUP2 PUSH1 0x15 ADD PUSH1 0x0 DUP3 ADD MLOAD DUP2 PUSH1 0x0 ADD PUSH1 0x0 PUSH2 0x100 EXP DUP2 SLOAD DUP2 PUSH1 0xFF MUL NOT AND SWAP1 DUP4 PUSH1 0x9 DUP2 GT ISZERO PUSH2 0x1E58 JUMPI PUSH2 0x1E57 PUSH2 0x3444 JUMP JUMPDEST JUMPDEST MUL OR SWAP1 SSTORE POP PUSH1 0x20 DUP3 ADD MLOAD DUP2 PUSH1 0x1 ADD SSTORE PUSH1 0x40 DUP3 ADD MLOAD DUP2 PUSH1 0x2 ADD SSTORE PUSH1 0x60 DUP3 ADD MLOAD DUP2 PUSH1 0x3 ADD SWAP1 DUP2 PUSH2 0x1E86 SWAP2 SWAP1 PUSH2 0x58D9 JUMP JUMPDEST POP POP POP SWAP1 POP POP CALLER PUSH20 0xFFFFFFFFFFFFFFFFFFFFFFFFFFFFFFFFFFFFFFFF AND DUP5 PUSH32 0xADA6F87A2A16A0C9C169CA36754C5F33F7C1A973B575D068F888A549ED4FAEFA PUSH1 0x40 MLOAD PUSH1 0x40 MLOAD DUP1 SWAP2 SUB SWAP1 LOG3 POP POP POP POP POP POP POP POP POP JUMP JUMPDEST PUSH1 0x40 MLOAD DUP1 PUSH1 0x40 ADD PUSH1 0x40 MSTORE DUP1 PUSH1 0x5 DUP2 MSTORE PUSH1 0x20 ADD PUSH32 0x352E302E30000000000000000000000000000000000000000000000000000000 DUP2 MSTORE POP DUP2 JUMP JUMPDEST PUSH1 0x2 DUP1 SLOAD PUSH2 0x1F21 SWAP1 PUSH2 0x4582 JUMP JUMPDEST DUP1 PUSH1 0x1F ADD PUSH1 0x20 DUP1 SWAP2 DIV MUL PUSH1 0x20 ADD PUSH1 0x40 MLOAD SWAP1 DUP2 ADD PUSH1 0x40 MSTORE DUP1 SWAP3 SWAP2 SWAP1 DUP2 DUP2 MSTORE PUSH1 0x20 ADD DUP3 DUP1 SLOAD PUSH2 0x1F4D SWAP1 PUSH2 0x4582 JUMP JUMPDEST DUP1 ISZERO PUSH2 0x1F9A JUMPI DUP1 PUSH1 0x1F LT PUSH2 0x1F6F JUMPI PUSH2 0x100 DUP1 DUP4 SLOAD DIV MUL DUP4 MSTORE SWAP2 PUSH1 0x20 ADD SWAP2 PUSH2 0x1F9A JUMP JUMPDEST DUP3 ADD SWAP2 SWAP1 PUSH1 0x0 MSTORE PUSH1 0x20 PUSH1 0x0 KECCAK256 SWAP1 JUMPDEST DUP2 SLOAD DUP2 MSTORE SWAP1 PUSH1 0x1 ADD SWAP1 PUSH1 0x20 ADD DUP1 DUP4 GT PUSH2 0x1F7D JUMPI DUP3 SWAP1 SUB PUSH1 0x1F AND DUP3 ADD SWAP2 JUMPDEST POP POP POP POP POP DUP2 JUMP JUMPDEST PUSH1 0x0 DUP1 SHL PUSH1 0x0 DUP1 DUP8 DUP2 MSTORE PUSH1 0x20 ADD SWAP1 DUP2 MSTORE PUSH1 0x20 ADD PUSH1 0x0 KECCAK256 PUSH1 0x1 ADD SLOAD SUB PUSH2 0x1FFC JUMPI PUSH1 0x40 MLOAD PUSH32 0x8C379A000000000000000000000000000000000000000000000000000000000 DUP2 MSTORE PUSH1 0x4 ADD PUSH2 0x1FF3 SWAP1 PUSH2 0x4A4E JUMP JUMPDEST PUSH1 0x40 MLOAD DUP1 SWAP2 SUB SWAP1 REVERT JUMPDEST PUSH1 0x4 DUP1 DUP2 GT ISZERO PUSH2 0x200F JUMPI PUSH2 0x200E PUSH2 0x3444 JUMP JUMPDEST JUMPDEST PUSH1 0x0 DUP1 DUP8 DUP2 MSTORE PUSH1 0x20 ADD SWAP1 DUP2 MSTORE PUSH1 0x20 ADD PUSH1 0x0 KECCAK256 PUSH1 0x0 ADD PUSH1 0x0 SWAP1 SLOAD SWAP1 PUSH2 0x100 EXP SWAP1 DIV PUSH1 0xFF AND PUSH1 0x4 DUP2 GT ISZERO PUSH2 0x2044 JUMPI PUSH2 0x2043 PUSH2 0x3444 JUMP JUMPDEST JUMPDEST EQ ISZERO DUP1 ISZERO PUSH2 0x2099 JUMPI POP PUSH1 0x2 PUSH1 0x4 DUP2 GT ISZERO PUSH2 0x2061 JUMPI PUSH2 0x2060 PUSH2 0x3444 JUMP JUMPDEST JUMPDEST PUSH1 0x0 DUP1 DUP8 DUP2 MSTORE PUSH1 0x20 ADD SWAP1 DUP2 MSTORE PUSH1 0x20 ADD PUSH1 0x0 KECCAK256 PUSH1 0x0 ADD PUSH1 0x0 SWAP1 SLOAD SWAP1 PUSH2 0x100 EXP SWAP1 DIV PUSH1 0xFF AND PUSH1 0x4 DUP2 GT ISZERO PUSH2 0x2096 JUMPI PUSH2 0x2095 PUSH2 0x3444 JUMP JUMPDEST JUMPDEST EQ ISZERO JUMPDEST PUSH2 0x20D8 JUMPI PUSH1 0x40 MLOAD PUSH32 0x8C379A000000000000000000000000000000000000000000000000000000000 DUP2 MSTORE PUSH1 0x4 ADD PUSH2 0x20CF SWAP1 PUSH2 0x5A1D JUMP JUMPDEST PUSH1 0x40 MLOAD DUP1 SWAP2 SUB SWAP1 REVERT JUMPDEST DUP4 PUSH1 0x0 DUP1 DUP8 DUP2 MSTORE PUSH1 0x20 ADD SWAP1 DUP2 MSTORE PUSH1 0x20 ADD PUSH1 0x0 KECCAK256 PUSH1 0x4 ADD SLOAD EQ PUSH2 0x212F JUMPI PUSH1 0x40 MLOAD PUSH32 0x8C379A000000000000000000000000000000000000000000000000000000000 DUP2 MSTORE PUSH1 0x4 ADD PUSH2 0x2126 SWAP1 PUSH2 0x5A89 JUMP JUMPDEST PUSH1 0x40 MLOAD DUP1 SWAP2 SUB SWAP1 REVERT JUMPDEST DUP3 PUSH1 0x0 DUP1 DUP8 DUP2 MSTORE PUSH1 0x20 ADD SWAP1 DUP2 MSTORE PUSH1 0x20 ADD PUSH1 0x0 KECCAK256 PUSH1 0x4 ADD DUP2 SWAP1 SSTORE POP DUP5 PUSH32 0x734F931FE7A3776841211722ED18B29FC2947CC7A13E74D15FA612205C022DB8 DUP5 PUSH1 0x40 MLOAD PUSH2 0x2179 SWAP2 SWAP1 PUSH2 0x3A66 JUMP JUMPDEST PUSH1 0x40 MLOAD DUP1 SWAP2 SUB SWAP1 LOG2 POP POP POP POP POP JUMP JUMPDEST PUSH1 0x1 PUSH1 0x0 SWAP1 SLOAD SWAP1 PUSH2 0x100 EXP SWAP1 DIV PUSH20 0xFFFFFFFFFFFFFFFFFFFFFFFFFFFFFFFFFFFFFFFF AND PUSH20 0xFFFFFFFFFFFFFFFFFFFFFFFFFFFFFFFFFFFFFFFF AND PUSH4 0x64DD489F PUSH1 0x0 DUP1 DUP6 DUP2 MSTORE PUSH1 0x20 ADD SWAP1 DUP2 MSTORE PUSH1 0x20 ADD PUSH1 0x0 KECCAK256 PUSH1 0x1 ADD SLOAD CALLER PUSH1 0x40 MLOAD DUP4 PUSH4 0xFFFFFFFF AND PUSH1 0xE0 SHL DUP2 MSTORE PUSH1 0x4 ADD PUSH2 0x21FA SWAP3 SWAP2 SWAP1 PUSH2 0x45B3 JUMP JUMPDEST PUSH1 0x20 PUSH1 0x40 MLOAD DUP1 DUP4 SUB DUP2 DUP7 GAS STATICCALL ISZERO DUP1 ISZERO PUSH2 0x2217 JUMPI RETURNDATASIZE PUSH1 0x0 DUP1 RETURNDATACOPY RETURNDATASIZE PUSH1 0x0 REVERT JUMPDEST POP POP POP POP PUSH1 0x40 MLOAD RETURNDATASIZE PUSH1 0x1F NOT PUSH1 0x1F DUP3 ADD AND DUP3 ADD DUP1 PUSH1 0x40 MSTORE POP DUP2 ADD SWAP1 PUSH2 0x223B SWAP2 SWAP1 PUSH2 0x4608 JUMP JUMPDEST PUSH2 0x227A JUMPI PUSH1 0x40 MLOAD PUSH32 0x8C379A000000000000000000000000000000000000000000000000000000000 DUP2 MSTORE PUSH1 0x4 ADD PUSH2 0x2271 SWAP1 PUSH2 0x5B1B JUMP JUMPDEST PUSH1 0x40 MLOAD DUP1 SWAP2 SUB SWAP1 REVERT JUMPDEST PUSH1 0x0 DUP1 SHL PUSH1 0x0 DUP1 DUP5 DUP2 MSTORE PUSH1 0x20 ADD SWAP1 DUP2 MSTORE PUSH1 0x20 ADD PUSH1 0x0 KECCAK256 PUSH1 0x1 ADD SLOAD SUB PUSH2 0x22D4 JUMPI PUSH1 0x40 MLOAD PUSH32 0x8C379A000000000000000000000000000000000000000000000000000000000 DUP2 MSTORE PUSH1 0x4 ADD PUSH2 0x22CB SWAP1 PUSH2 0x4A4E JUMP JUMPDEST PUSH1 0x40 MLOAD DUP1 SWAP2 SUB SWAP1 REVERT JUMPDEST PUSH1 0x0 PUSH1 0x4 DUP2 GT ISZERO PUSH2 0x22E8 JUMPI PUSH2 0x22E7 PUSH2 0x3444 JUMP JUMPDEST JUMPDEST PUSH1 0x0 DUP1 DUP5 DUP2 MSTORE PUSH1 0x20 ADD SWAP1 DUP2 MSTORE PUSH1 0x20 ADD PUSH1 0x0 KECCAK256 PUSH1 0x0 ADD PUSH1 0x0 SWAP1 SLOAD SWAP1 PUSH2 0x100 EXP SWAP1 DIV PUSH1 0xFF AND PUSH1 0x4 DUP2 GT ISZERO PUSH2 0x231D JUMPI PUSH2 0x231C PUSH2 0x3444 JUMP JUMPDEST JUMPDEST EQ DUP1 PUSH2 0x236F JUMPI POP PUSH1 0x3 PUSH1 0x4 DUP2 GT ISZERO PUSH2 0x2338 JUMPI PUSH2 0x2337 PUSH2 0x3444 JUMP JUMPDEST JUMPDEST PUSH1 0x0 DUP1 DUP5 DUP2 MSTORE PUSH1 0x20 ADD SWAP1 DUP2 MSTORE PUSH1 0x20 ADD PUSH1 0x0 KECCAK256 PUSH1 0x0 ADD PUSH1 0x0 SWAP1 SLOAD SWAP1 PUSH2 0x100 EXP SWAP1 DIV PUSH1 0xFF AND PUSH1 0x4 DUP2 GT ISZERO PUSH2 0x236D JUMPI PUSH2 0x236C PUSH2 0x3444 JUMP JUMPDEST JUMPDEST EQ JUMPDEST PUSH2 0x23AE JUMPI PUSH1 0x40 MLOAD PUSH32 0x8C379A000000000000000000000000000000000000000000000000000000000 DUP2 MSTORE PUSH1 0x4 ADD PUSH2 0x23A5 SWAP1 PUSH2 0x4713 JUMP JUMPDEST PUSH1 0x40 MLOAD DUP1 SWAP2 SUB SWAP1 REVERT JUMPDEST TIMESTAMP DUP2 GT PUSH2 0x23F0 JUMPI PUSH1 0x40 MLOAD PUSH32 0x8C379A000000000000000000000000000000000000000000000000000000000 DUP2 MSTORE PUSH1 0x4 ADD PUSH2 0x23E7 SWAP1 PUSH2 0x5B87 JUMP JUMPDEST PUSH1 0x40 MLOAD DUP1 SWAP2 SUB SWAP1 REVERT JUMPDEST DUP1 PUSH1 0x0 DUP1 DUP5 DUP2 MSTORE PUSH1 0x20 ADD SWAP1 DUP2 MSTORE PUSH1 0x20 ADD PUSH1 0x0 KECCAK256 PUSH1 0x7 ADD DUP2 SWAP1 SSTORE POP DUP2 PUSH32 0xF759826327C668A220D576485AC38DDC4F83FBC414B984C00E79F669B649F46 DUP3 PUSH1 0x40 MLOAD PUSH2 0x243A SWAP2 SWAP1 PUSH2 0x5BA7 JUMP JUMPDEST PUSH1 0x40 MLOAD DUP1 SWAP2 SUB SWAP1 LOG2 POP POP JUMP JUMPDEST PUSH1 0x0 DUP1 SHL PUSH1 0x0 DUP1 DUP7 DUP2 MSTORE PUSH1 0x20 ADD SWAP1 DUP2 MSTORE PUSH1 0x20 ADD PUSH1 0x0 KECCAK256 PUSH1 0x1 ADD SLOAD SUB PUSH2 0x24A0 JUMPI PUSH1 0x40 MLOAD PUSH32 0x8C379A000000000000000000000000000000000000000000000000000000000 DUP2 MSTORE PUSH1 0x4 ADD PUSH2 0x2497 SWAP1 PUSH2 0x4A4E JUMP JUMPDEST PUSH1 0x40 MLOAD DUP1 SWAP2 SUB SWAP1 REVERT JUMPDEST PUSH1 0x1 PUSH1 0x4 DUP2 GT ISZERO PUSH2 0x24B4 JUMPI PUSH2 0x24B3 PUSH2 0x3444 JUMP JUMPDEST JUMPDEST PUSH1 0x0 DUP1 DUP7 DUP2 MSTORE PUSH1 0x20 ADD SWAP1 DUP2 MSTORE PUSH1 0x20 ADD PUSH1 0x0 KECCAK256 PUSH1 0x0 ADD PUSH1 0x0 SWAP1 SLOAD SWAP1 PUSH2 0x100 EXP SWAP1 DIV PUSH1 0xFF AND PUSH1 0x4 DUP2 GT ISZERO PUSH2 0x24E9 JUMPI PUSH2 0x24E8 PUSH2 0x3444 JUMP JUMPDEST JUMPDEST EQ PUSH2 0x2529 JUMPI PUSH1 0x40 MLOAD PUSH32 0x8C379A000000000000000000000000000000000000000000000000000000000 DUP2 MSTORE PUSH1 0x4 ADD PUSH2 0x2520 SWAP1 PUSH2 0x5C0E JUMP JUMPDEST PUSH1 0x40 MLOAD DUP1 SWAP2 SUB SWAP1 REVERT JUMPDEST DUP3 PUSH1 0x0 DUP1 DUP7 DUP2 MSTORE PUSH1 0x20 ADD SWAP1 DUP2 MSTORE PUSH1 0x20 ADD PUSH1 0x0 KECCAK256 PUSH1 0x5 ADD SWAP1 DUP1 MLOAD SWAP1 PUSH1 0x20 ADD SWAP1 PUSH2 0x2552 SWAP3 SWAP2 SWAP1 PUSH2 0x31A7 JUMP JUMPDEST POP PUSH1 0x4 PUSH1 0x0 DUP1 DUP7 DUP2 MSTORE PUSH1 0x20 ADD SWAP1 DUP2 MSTORE PUSH1 0x20 ADD PUSH1 0x0 KECCAK256 PUSH1 0x0 ADD PUSH1 0x0 PUSH2 0x100 EXP DUP2 SLOAD DUP2 PUSH1 0xFF MUL NOT AND SWAP1 DUP4 PUSH1 0x4 DUP2 GT ISZERO PUSH2 0x258C JUMPI PUSH2 0x258B PUSH2 0x3444 JUMP JUMPDEST JUMPDEST MUL OR SWAP1 SSTORE POP POP POP POP POP JUMP JUMPDEST PUSH1 0x1 PUSH1 0x0 SWAP1 SLOAD SWAP1 PUSH2 0x100 EXP SWAP1 DIV PUSH20 0xFFFFFFFFFFFFFFFFFFFFFFFFFFFFFFFFFFFFFFFF AND PUSH20 0xFFFFFFFFFFFFFFFFFFFFFFFFFFFFFFFFFFFFFFFF AND PUSH4 0x64DD489F PUSH1 0x0 DUP1 DUP5 DUP2 MSTORE PUSH1 0x20 ADD SWAP1 DUP2 MSTORE PUSH1 0x20 ADD PUSH1 0x0 KECCAK256 PUSH1 0x1 ADD SLOAD CALLER PUSH1 0x40 MLOAD DUP4 PUSH4 0xFFFFFFFF AND PUSH1 0xE0 SHL DUP2 MSTORE PUSH1 0x4 ADD PUSH2 0x2609 SWAP3 SWAP2 SWAP1 PUSH2 0x45B3 JUMP JUMPDEST PUSH1 0x20 PUSH1 0x40 MLOAD DUP1 DUP4 SUB DUP2 DUP7 GAS STATICCALL ISZERO DUP1 ISZERO PUSH2 0x2626 JUMPI RETURNDATASIZE PUSH1 0x0 DUP1 RETURNDATACOPY RETURNDATASIZE PUSH1 0x0 REVERT JUMPDEST POP POP POP POP PUSH1 0x40 MLOAD RETURNDATASIZE PUSH1 0x1F NOT PUSH1 0x1F DUP3 ADD AND DUP3 ADD DUP1 PUSH1 0x40 MSTORE POP DUP2 ADD SWAP1 PUSH2 0x264A SWAP2 SWAP1 PUSH2 0x4608 JUMP JUMPDEST PUSH2 0x2689 JUMPI PUSH1 0x40 MLOAD PUSH32 0x8C379A000000000000000000000000000000000000000000000000000000000 DUP2 MSTORE PUSH1 0x4 ADD PUSH2 0x2680 SWAP1 PUSH2 0x5C7A JUMP JUMPDEST PUSH1 0x40 MLOAD DUP1 SWAP2 SUB SWAP1 REVERT JUMPDEST PUSH1 0x0 PUSH1 0x4 DUP2 GT ISZERO PUSH2 0x269D JUMPI PUSH2 0x269C PUSH2 0x3444 JUMP JUMPDEST JUMPDEST PUSH1 0x0 DUP1 DUP4 DUP2 MSTORE PUSH1 0x20 ADD SWAP1 DUP2 MSTORE PUSH1 0x20 ADD PUSH1 0x0 KECCAK256 PUSH1 0x0 ADD PUSH1 0x0 SWAP1 SLOAD SWAP1 PUSH2 0x100 EXP SWAP1 DIV PUSH1 0xFF AND PUSH1 0x4 DUP2 GT ISZERO PUSH2 0x26D2 JUMPI PUSH2 0x26D1 PUSH2 0x3444 JUMP JUMPDEST JUMPDEST EQ DUP1 PUSH2 0x2724 JUMPI POP PUSH1 0x3 PUSH1 0x4 DUP2 GT ISZERO PUSH2 0x26ED JUMPI PUSH2 0x26EC PUSH2 0x3444 JUMP JUMPDEST JUMPDEST PUSH1 0x0 DUP1 DUP4 DUP2 MSTORE PUSH1 0x20 ADD SWAP1 DUP2 MSTORE PUSH1 0x20 ADD PUSH1 0x0 KECCAK256 PUSH1 0x0 ADD PUSH1 0x0 SWAP1 SLOAD SWAP1 PUSH2 0x100 EXP SWAP1 DIV PUSH1 0xFF AND PUSH1 0x4 DUP2 GT ISZERO PUSH2 0x2722 JUMPI PUSH2 0x2721 PUSH2 0x3444 JUMP JUMPDEST JUMPDEST EQ JUMPDEST PUSH2 0x2763 JUMPI PUSH1 0x40 MLOAD PUSH32 0x8C379A000000000000000000000000000000000000000000000000000000000 DUP2 MSTORE PUSH1 0x4 ADD PUSH2 0x275A SWAP1 PUSH2 0x4713 JUMP JUMPDEST PUSH1 0x40 MLOAD DUP1 SWAP2 SUB SWAP1 REVERT JUMPDEST PUSH1 0x1 PUSH1 0x0 DUP1 DUP4 DUP2 MSTORE PUSH1 0x20 ADD SWAP1 DUP2 MSTORE PUSH1 0x20 ADD PUSH1 0x0 KECCAK256 PUSH1 0x0 ADD PUSH1 0x0 PUSH2 0x100 EXP DUP2 SLOAD DUP2 PUSH1 0xFF MUL NOT AND SWAP1 DUP4 PUSH1 0x4 DUP2 GT ISZERO PUSH2 0x279C JUMPI PUSH2 0x279B PUSH2 0x3444 JUMP JUMPDEST JUMPDEST MUL OR SWAP1 SSTORE POP DUP1 PUSH32 0xAC0C4085A30BC70D0D8893EE5D6466AC9C5F03E27FD7292DCEF128A610E7C190 PUSH1 0x1 PUSH1 0x40 MLOAD PUSH2 0x27D2 SWAP2 SWAP1 PUSH2 0x480B JUMP JUMPDEST PUSH1 0x40 MLOAD DUP1 SWAP2 SUB SWAP1 LOG2 POP JUMP JUMPDEST PUSH2 0x27E5 PUSH2 0x2AFA JUMP JUMPDEST PUSH1 0x0 PUSH20 0xFFFFFFFFFFFFFFFFFFFFFFFFFFFFFFFFFFFFFFFF AND DUP2 PUSH20 0xFFFFFFFFFFFFFFFFFFFFFFFFFFFFFFFFFFFFFFFF AND SUB PUSH2 0x2857 JUMPI PUSH1 0x0 PUSH1 0x40 MLOAD PUSH32 0x1E4FBDF700000000000000000000000000000000000000000000000000000000 DUP2 MSTORE PUSH1 0x4 ADD PUSH2 0x284E SWAP2 SWAP1 PUSH2 0x3C6F JUMP JUMPDEST PUSH1 0x40 MLOAD DUP1 SWAP2 SUB SWAP1 REVERT JUMPDEST PUSH2 0x2860 DUP2 PUSH2 0x2B81 JUMP JUMPDEST POP JUMP JUMPDEST PUSH32 0x0 PUSH20 0xFFFFFFFFFFFFFFFFFFFFFFFFFFFFFFFFFFFFFFFF AND ADDRESS PUSH20 0xFFFFFFFFFFFFFFFFFFFFFFFFFFFFFFFFFFFFFFFF AND EQ DUP1 PUSH2 0x2910 JUMPI POP PUSH32 0x0 PUSH20 0xFFFFFFFFFFFFFFFFFFFFFFFFFFFFFFFFFFFFFFFF AND PUSH2 0x28F7 PUSH2 0x2CC6 JUMP JUMPDEST PUSH20 0xFFFFFFFFFFFFFFFFFFFFFFFFFFFFFFFFFFFFFFFF AND EQ ISZERO JUMPDEST ISZERO PUSH2 0x2947 JUMPI PUSH1 0x40 MLOAD PUSH32 0xE07C8DBA00000000000000000000000000000000000000000000000000000000 DUP2 MSTORE PUSH1 0x4 ADD PUSH1 0x40 MLOAD DUP1 SWAP2 SUB SWAP1 REVERT JUMPDEST JUMP JUMPDEST PUSH2 0x2951 PUSH2 0x2AFA JUMP JUMPDEST POP JUMP JUMPDEST DUP2 PUSH20 0xFFFFFFFFFFFFFFFFFFFFFFFFFFFFFFFFFFFFFFFF AND PUSH4 0x52D1902D PUSH1 0x40 MLOAD DUP2 PUSH4 0xFFFFFFFF AND PUSH1 0xE0 SHL DUP2 MSTORE PUSH1 0x4 ADD PUSH1 0x20 PUSH1 0x40 MLOAD DUP1 DUP4 SUB DUP2 DUP7 GAS STATICCALL SWAP3 POP POP POP DUP1 ISZERO PUSH2 0x29BC JUMPI POP PUSH1 0x40 MLOAD RETURNDATASIZE PUSH1 0x1F NOT PUSH1 0x1F DUP3 ADD AND DUP3 ADD DUP1 PUSH1 0x40 MSTORE POP DUP2 ADD SWAP1 PUSH2 0x29B9 SWAP2 SWAP1 PUSH2 0x5CAF JUMP JUMPDEST PUSH1 0x1 JUMPDEST PUSH2 0x29FD JUMPI DUP2 PUSH1 0x40 MLOAD PUSH32 0x4C9C8CE300000000000000000000000000000000000000000000000000000000 DUP2 MSTORE PUSH1 0x4 ADD PUSH2 0x29F4 SWAP2 SWAP1 PUSH2 0x3C6F JUMP JUMPDEST PUSH1 0x40 MLOAD DUP1 SWAP2 SUB SWAP1 REVERT JUMPDEST PUSH32 0x360894A13BA1A3210667C828492DB98DCA3E2076CC3735A920A3CA505D382BBC PUSH1 0x0 SHL DUP2 EQ PUSH2 0x2A64 JUMPI DUP1 PUSH1 0x40 MLOAD PUSH32 0xAA1D49A400000000000000000000000000000000000000000000000000000000 DUP2 MSTORE PUSH1 0x4 ADD PUSH2 0x2A5B SWAP2 SWAP1 PUSH2 0x3A66 JUMP JUMPDEST PUSH1 0x40 MLOAD DUP1 SWAP2 SUB SWAP1 REVERT JUMPDEST PUSH2 0x2A6E DUP4 DUP4 PUSH2 0x2D1D JUMP JUMPDEST POP POP POP JUMP JUMPDEST PUSH32 0x0 PUSH20 0xFFFFFFFFFFFFFFFFFFFFFFFFFFFFFFFFFFFFFFFF AND ADDRESS PUSH20 0xFFFFFFFFFFFFFFFFFFFFFFFFFFFFFFFFFFFFFFFF AND EQ PUSH2 0x2AF8 JUMPI PUSH1 0x40 MLOAD PUSH32 0xE07C8DBA00000000000000000000000000000000000000000000000000000000 DUP2 MSTORE PUSH1 0x4 ADD PUSH1 0x40 MLOAD DUP1 SWAP2 SUB SWAP1 REVERT JUMPDEST JUMP JUMPDEST PUSH2 0x2B02 PUSH2 0x2D90 JUMP JUMPDEST PUSH20 0xFFFFFFFFFFFFFFFFFFFFFFFFFFFFFFFFFFFFFFFF AND PUSH2 0x2B20 PUSH2 0x1193 JUMP JUMPDEST PUSH20 0xFFFFFFFFFFFFFFFFFFFFFFFFFFFFFFFFFFFFFFFF AND EQ PUSH2 0x2B7F JUMPI PUSH2 0x2B43 PUSH2 0x2D90 JUMP JUMPDEST PUSH1 0x40 MLOAD PUSH32 0x118CDAA700000000000000000000000000000000000000000000000000000000 DUP2 MSTORE PUSH1 0x4 ADD PUSH2 0x2B76 SWAP2 SWAP1 PUSH2 0x3C6F JUMP JUMPDEST PUSH1 0x40 MLOAD DUP1 SWAP2 SUB SWAP1 REVERT JUMPDEST JUMP JUMPDEST PUSH1 0x0 PUSH2 0x2B8B PUSH2 0x2C9E JUMP JUMPDEST SWAP1 POP PUSH1 0x0 DUP2 PUSH1 0x0 ADD PUSH1 0x0 SWAP1 SLOAD SWAP1 PUSH2 0x100 EXP SWAP1 DIV PUSH20 0xFFFFFFFFFFFFFFFFFFFFFFFFFFFFFFFFFFFFFFFF AND SWAP1 POP DUP3 DUP3 PUSH1 0x0 ADD PUSH1 0x0 PUSH2 0x100 EXP DUP2 SLOAD DUP2 PUSH20 0xFFFFFFFFFFFFFFFFFFFFFFFFFFFFFFFFFFFFFFFF MUL NOT AND SWAP1 DUP4 PUSH20 0xFFFFFFFFFFFFFFFFFFFFFFFFFFFFFFFFFFFFFFFF AND MUL OR SWAP1 SSTORE POP DUP3 PUSH20 0xFFFFFFFFFFFFFFFFFFFFFFFFFFFFFFFFFFFFFFFF AND DUP2 PUSH20 0xFFFFFFFFFFFFFFFFFFFFFFFFFFFFFFFFFFFFFFFF AND PUSH32 0x8BE0079C531659141344CD1FD0A4F28419497F9722A3DAAFE3B4186F6B6457E0 PUSH1 0x40 MLOAD PUSH1 0x40 MLOAD DUP1 SWAP2 SUB SWAP1 LOG3 POP POP POP JUMP JUMPDEST PUSH1 0x0 PUSH32 0xF0C57E16840DF040F15088DC2F81FE391C3923BEC73E23A9662EFC9C229C6A00 SWAP1 POP SWAP1 JUMP JUMPDEST PUSH2 0x2C88 PUSH2 0x2D98 JUMP JUMPDEST PUSH2 0x2C91 DUP2 PUSH2 0x2DD8 JUMP JUMPDEST POP JUMP JUMPDEST PUSH2 0x2C9C PUSH2 0x2D98 JUMP JUMPDEST JUMP JUMPDEST PUSH1 0x0 PUSH32 0x9016D09D72D40FDAE2FD8CEAC6B6234C7706214FD39C1CD1E609A0528C199300 SWAP1 POP SWAP1 JUMP JUMPDEST PUSH1 0x0 PUSH2 0x2CF4 PUSH32 0x360894A13BA1A3210667C828492DB98DCA3E2076CC3735A920A3CA505D382BBC PUSH1 0x0 SHL PUSH2 0x2E5E JUMP JUMPDEST PUSH1 0x0 ADD PUSH1 0x0 SWAP1 SLOAD SWAP1 PUSH2 0x100 EXP SWAP1 DIV PUSH20 0xFFFFFFFFFFFFFFFFFFFFFFFFFFFFFFFFFFFFFFFF AND SWAP1 POP SWAP1 JUMP JUMPDEST PUSH2 0x2D26 DUP3 PUSH2 0x2E68 JUMP JUMPDEST DUP2 PUSH20 0xFFFFFFFFFFFFFFFFFFFFFFFFFFFFFFFFFFFFFFFF AND PUSH32 0xBC7CD75A20EE27FD9ADEBAB32041F755214DBC6BFFA90CC0225B39DA2E5C2D3B PUSH1 0x40 MLOAD PUSH1 0x40 MLOAD DUP1 SWAP2 SUB SWAP1 LOG2 PUSH1 0x0 DUP2 MLOAD GT ISZERO PUSH2 0x2D83 JUMPI PUSH2 0x2D7D DUP3 DUP3 PUSH2 0x2F35 JUMP JUMPDEST POP PUSH2 0x2D8C JUMP JUMPDEST PUSH2 0x2D8B PUSH2 0x2FB9 JUMP JUMPDEST JUMPDEST POP POP JUMP JUMPDEST PUSH1 0x0 CALLER SWAP1 POP SWAP1 JUMP JUMPDEST PUSH2 0x2DA0 PUSH2 0x2FF6 JUMP JUMPDEST PUSH2 0x2DD6 JUMPI PUSH1 0x40 MLOAD PUSH32 0xD7E6BCF800000000000000000000000000000000000000000000000000000000 DUP2 MSTORE PUSH1 0x4 ADD PUSH1 0x40 MLOAD DUP1 SWAP2 SUB SWAP1 REVERT JUMPDEST JUMP JUMPDEST PUSH2 0x2DE0 PUSH2 0x2D98 JUMP JUMPDEST PUSH1 0x0 PUSH20 0xFFFFFFFFFFFFFFFFFFFFFFFFFFFFFFFFFFFFFFFF AND DUP2 PUSH20 0xFFFFFFFFFFFFFFFFFFFFFFFFFFFFFFFFFFFFFFFF AND SUB PUSH2 0x2E52 JUMPI PUSH1 0x0 PUSH1 0x40 MLOAD PUSH32 0x1E4FBDF700000000000000000000000000000000000000000000000000000000 DUP2 MSTORE PUSH1 0x4 ADD PUSH2 0x2E49 SWAP2 SWAP1 PUSH2 0x3C6F JUMP JUMPDEST PUSH1 0x40 MLOAD DUP1 SWAP2 SUB SWAP1 REVERT JUMPDEST PUSH2 0x2E5B DUP2 PUSH2 0x2B81 JUMP JUMPDEST POP JUMP JUMPDEST PUSH1 0x0 DUP2 SWAP1 POP SWAP2 SWAP1 POP JUMP JUMPDEST PUSH1 0x0 DUP2 PUSH20 0xFFFFFFFFFFFFFFFFFFFFFFFFFFFFFFFFFFFFFFFF AND EXTCODESIZE SUB PUSH2 0x2EC4 JUMPI DUP1 PUSH1 0x40 MLOAD PUSH32 0x4C9C8CE300000000000000000000000000000000000000000000000000000000 DUP2 MSTORE PUSH1 0x4 ADD PUSH2 0x2EBB SWAP2 SWAP1 PUSH2 0x3C6F JUMP JUMPDEST PUSH1 0x40 MLOAD DUP1 SWAP2 SUB SWAP1 REVERT JUMPDEST DUP1 PUSH2 0x2EF1 PUSH32 0x360894A13BA1A3210667C828492DB98DCA3E2076CC3735A920A3CA505D382BBC PUSH1 0x0 SHL PUSH2 0x2E5E JUMP JUMPDEST PUSH1 0x0 ADD PUSH1 0x0 PUSH2 0x100 EXP DUP2 SLOAD DUP2 PUSH20 0xFFFFFFFFFFFFFFFFFFFFFFFFFFFFFFFFFFFFFFFF MUL NOT AND SWAP1 DUP4 PUSH20 0xFFFFFFFFFFFFFFFFFFFFFFFFFFFFFFFFFFFFFFFF AND MUL OR SWAP1 SSTORE POP POP JUMP JUMPDEST PUSH1 0x60 PUSH1 0x0 DUP1 DUP5 PUSH20 0xFFFFFFFFFFFFFFFFFFFFFFFFFFFFFFFFFFFFFFFF AND DUP5 PUSH1 0x40 MLOAD PUSH2 0x2F5F SWAP2 SWAP1 PUSH2 0x5D23 JUMP JUMPDEST PUSH1 0x0 PUSH1 0x40 MLOAD DUP1 DUP4 SUB DUP2 DUP6 GAS DELEGATECALL SWAP2 POP POP RETURNDATASIZE DUP1 PUSH1 0x0 DUP2 EQ PUSH2 0x2F9A JUMPI PUSH1 0x40 MLOAD SWAP2 POP PUSH1 0x1F NOT PUSH1 0x3F RETURNDATASIZE ADD AND DUP3 ADD PUSH1 0x40 MSTORE RETURNDATASIZE DUP3 MSTORE RETURNDATASIZE PUSH1 0x0 PUSH1 0x20 DUP5 ADD RETURNDATACOPY PUSH2 0x2F9F JUMP JUMPDEST PUSH1 0x60 SWAP2 POP JUMPDEST POP SWAP2 POP SWAP2 POP PUSH2 0x2FAF DUP6 DUP4 DUP4 PUSH2 0x3016 JUMP JUMPDEST SWAP3 POP POP POP SWAP3 SWAP2 POP POP JUMP JUMPDEST PUSH1 0x0 CALLVALUE GT ISZERO PUSH2 0x2FF4 JUMPI PUSH1 0x40 MLOAD PUSH32 0xB398979F00000000000000000000000000000000000000000000000000000000 DUP2 MSTORE PUSH1 0x4 ADD PUSH1 0x40 MLOAD DUP1 SWAP2 SUB SWAP1 REVERT JUMPDEST JUMP JUMPDEST PUSH1 0x0 PUSH2 0x3000 PUSH2 0x2C58 JUMP JUMPDEST PUSH1 0x0 ADD PUSH1 0x8 SWAP1 SLOAD SWAP1 PUSH2 0x100 EXP SWAP1 DIV PUSH1 0xFF AND SWAP1 POP SWAP1 JUMP JUMPDEST PUSH1 0x60 DUP3 PUSH2 0x302B JUMPI PUSH2 0x3026 DUP3 PUSH2 0x30A5 JUMP JUMPDEST PUSH2 0x309D JUMP JUMPDEST PUSH1 0x0 DUP3 MLOAD EQ DUP1 ISZERO PUSH2 0x3053 JUMPI POP PUSH1 0x0 DUP5 PUSH20 0xFFFFFFFFFFFFFFFFFFFFFFFFFFFFFFFFFFFFFFFF AND EXTCODESIZE EQ JUMPDEST ISZERO PUSH2 0x3095 JUMPI DUP4 PUSH1 0x40 MLOAD PUSH32 0x9996B31500000000000000000000000000000000000000000000000000000000 DUP2 MSTORE PUSH1 0x4 ADD PUSH2 0x308C SWAP2 SWAP1 PUSH2 0x3C6F JUMP JUMPDEST PUSH1 0x40 MLOAD DUP1 SWAP2 SUB SWAP1 REVERT JUMPDEST DUP2 SWAP1 POP PUSH2 0x309E JUMP JUMPDEST JUMPDEST SWAP4 SWAP3 POP POP POP JUMP JUMPDEST PUSH1 0x0 DUP2 MLOAD GT ISZERO PUSH2 0x30B8 JUMPI DUP1 MLOAD DUP1 DUP3 PUSH1 0x20 ADD REVERT JUMPDEST PUSH1 0x40 MLOAD PUSH32 0x1425EA4200000000000000000000000000000000000000000000000000000000 DUP2 MSTORE PUSH1 0x4 ADD PUSH1 0x40 MLOAD DUP1 SWAP2 SUB SWAP1 REVERT JUMPDEST PUSH1 0x40 MLOAD DUP1 PUSH2 0x140 ADD PUSH1 0x40 MSTORE DUP1 PUSH1 0x0 PUSH1 0x4 DUP2 GT ISZERO PUSH2 0x310A JUMPI PUSH2 0x3109 PUSH2 0x3444 JUMP JUMPDEST JUMPDEST DUP2 MSTORE PUSH1 0x20 ADD PUSH1 0x0 DUP1 NOT AND DUP2 MSTORE PUSH1 0x20 ADD PUSH2 0x3121 PUSH2 0x3207 JUMP JUMPDEST DUP2 MSTORE PUSH1 0x20 ADD PUSH1 0x0 DUP1 NOT AND DUP2 MSTORE PUSH1 0x20 ADD PUSH1 0x60 DUP2 MSTORE PUSH1 0x20 ADD PUSH1 0x0 DUP2 MSTORE PUSH1 0x20 ADD PUSH1 0x0 DUP2 MSTORE PUSH1 0x20 ADD PUSH1 0x60 DUP2 MSTORE PUSH1 0x20 ADD PUSH2 0x3154 PUSH2 0x3229 JUMP JUMPDEST DUP2 MSTORE PUSH1 0x20 ADD PUSH2 0x3161 PUSH2 0x327D JUMP JUMPDEST DUP2 MSTORE POP SWAP1 JUMP JUMPDEST DUP3 PUSH1 0x2 DUP2 ADD SWAP3 DUP3 ISZERO PUSH2 0x3196 JUMPI SWAP2 PUSH1 0x20 MUL DUP3 ADD JUMPDEST DUP3 DUP2 GT ISZERO PUSH2 0x3195 JUMPI DUP3 MLOAD DUP3 SSTORE SWAP2 PUSH1 0x20 ADD SWAP2 SWAP1 PUSH1 0x1 ADD SWAP1 PUSH2 0x317A JUMP JUMPDEST JUMPDEST POP SWAP1 POP PUSH2 0x31A3 SWAP2 SWAP1 PUSH2 0x32BA JUMP JUMPDEST POP SWAP1 JUMP JUMPDEST DUP3 DUP1 SLOAD DUP3 DUP3 SSTORE SWAP1 PUSH1 0x0 MSTORE PUSH1 0x20 PUSH1 0x0 KECCAK256 SWAP1 DUP2 ADD SWAP3 DUP3 ISZERO PUSH2 0x31F6 JUMPI SWAP2 PUSH1 0x20 MUL DUP3 ADD JUMPDEST DUP3 DUP2 GT ISZERO PUSH2 0x31F5 JUMPI DUP3 MLOAD DUP3 SWAP1 DUP1 MLOAD SWAP1 PUSH1 0x20 ADD SWAP1 PUSH2 0x31E5 SWAP3 SWAP2 SWAP1 PUSH2 0x32D7 JUMP JUMPDEST POP SWAP2 PUSH1 0x20 ADD SWAP2 SWAP1 PUSH1 0x1 ADD SWAP1 PUSH2 0x31C7 JUMP JUMPDEST JUMPDEST POP SWAP1 POP PUSH2 0x3203 SWAP2 SWAP1 PUSH2 0x3324 JUMP JUMPDEST POP SWAP1 JUMP JUMPDEST PUSH1 0x40 MLOAD DUP1 PUSH1 0x40 ADD PUSH1 0x40 MSTORE DUP1 PUSH1 0x2 SWAP1 PUSH1 0x20 DUP3 MUL DUP1 CALLDATASIZE DUP4 CALLDATACOPY DUP1 DUP3 ADD SWAP2 POP POP SWAP1 POP POP SWAP1 JUMP JUMPDEST PUSH1 0x40 MLOAD DUP1 PUSH1 0xC0 ADD PUSH1 0x40 MSTORE DUP1 PUSH1 0x0 PUSH1 0xFF AND DUP2 MSTORE PUSH1 0x20 ADD PUSH1 0x0 PUSH1 0xFF AND DUP2 MSTORE PUSH1 0x20 ADD PUSH1 0x0 DUP2 MSTORE PUSH1 0x20 ADD PUSH1 0x0 DUP2 MSTORE PUSH1 0x20 ADD PUSH1 0x0 PUSH1 0x4 DUP2 GT ISZERO PUSH2 0x326A JUMPI PUSH2 0x3269 PUSH2 0x3444 JUMP JUMPDEST JUMPDEST DUP2 MSTORE PUSH1 0x20 ADD PUSH2 0x3277 PUSH2 0x3348 JUMP JUMPDEST DUP2 MSTORE POP SWAP1 JUMP JUMPDEST PUSH1 0x40 MLOAD DUP1 PUSH1 0x80 ADD PUSH1 0x40 MSTORE DUP1 PUSH1 0x0 PUSH1 0x9 DUP2 GT ISZERO PUSH2 0x329C JUMPI PUSH2 0x329B PUSH2 0x3444 JUMP JUMPDEST JUMPDEST DUP2 MSTORE PUSH1 0x20 ADD PUSH1 0x0 DUP2 MSTORE PUSH1 0x20 ADD PUSH1 0x0 DUP1 NOT AND DUP2 MSTORE PUSH1 0x20 ADD PUSH1 0x60 DUP2 MSTORE POP SWAP1 JUMP JUMPDEST JUMPDEST DUP1 DUP3 GT ISZERO PUSH2 0x32D3 JUMPI PUSH1 0x0 DUP2 PUSH1 0x0 SWAP1 SSTORE POP PUSH1 0x1 ADD PUSH2 0x32BB JUMP JUMPDEST POP SWAP1 JUMP JUMPDEST DUP3 DUP1 SLOAD DUP3 DUP3 SSTORE SWAP1 PUSH1 0x0 MSTORE PUSH1 0x20 PUSH1 0x0 KECCAK256 SWAP1 DUP2 ADD SWAP3 DUP3 ISZERO PUSH2 0x3313 JUMPI SWAP2 PUSH1 0x20 MUL DUP3 ADD JUMPDEST DUP3 DUP2 GT ISZERO PUSH2 0x3312 JUMPI DUP3 MLOAD DUP3 SSTORE SWAP2 PUSH1 0x20 ADD SWAP2 SWAP1 PUSH1 0x1 ADD SWAP1 PUSH2 0x32F7 JUMP JUMPDEST JUMPDEST POP SWAP1 POP PUSH2 0x3320 SWAP2 SWAP1 PUSH2 0x338F JUMP JUMPDEST POP SWAP1 JUMP JUMPDEST JUMPDEST DUP1 DUP3 GT ISZERO PUSH2 0x3344 JUMPI PUSH1 0x0 DUP2 DUP2 PUSH2 0x333B SWAP2 SWAP1 PUSH2 0x33AC JUMP JUMPDEST POP PUSH1 0x1 ADD PUSH2 0x3325 JUMP JUMPDEST POP SWAP1 JUMP JUMPDEST PUSH1 0x40 MLOAD DUP1 PUSH2 0x100 ADD PUSH1 0x40 MSTORE DUP1 PUSH1 0x0 ISZERO ISZERO DUP2 MSTORE PUSH1 0x20 ADD PUSH1 0x0 DUP2 MSTORE PUSH1 0x20 ADD PUSH1 0x0 DUP2 MSTORE PUSH1 0x20 ADD PUSH1 0x0 DUP2 MSTORE PUSH1 0x20 ADD PUSH1 0x0 DUP2 MSTORE PUSH1 0x20 ADD PUSH1 0x0 DUP2 MSTORE PUSH1 0x20 ADD PUSH1 0x0 DUP2 MSTORE PUSH1 0x20 ADD PUSH1 0x0 DUP2 MSTORE POP SWAP1 JUMP JUMPDEST JUMPDEST DUP1 DUP3 GT ISZERO PUSH2 0x33A8 JUMPI PUSH1 0x0 DUP2 PUSH1 0x0 SWAP1 SSTORE POP PUSH1 0x1 ADD PUSH2 0x3390 JUMP JUMPDEST POP SWAP1 JUMP JUMPDEST POP DUP1 SLOAD PUSH1 0x0 DUP3 SSTORE SWAP1 PUSH1 0x0 MSTORE PUSH1 0x20 PUSH1 0x0 KECCAK256 SWAP1 DUP2 ADD SWAP1 PUSH2 0x33CA SWAP2 SWAP1 PUSH2 0x338F JUMP JUMPDEST POP JUMP JUMPDEST PUSH1 0x0 PUSH1 0x40 MLOAD SWAP1 POP SWAP1 JUMP JUMPDEST PUSH1 0x0 DUP1 REVERT JUMPDEST PUSH1 0x0 DUP1 REVERT JUMPDEST PUSH1 0x0 DUP2 SWAP1 POP SWAP2 SWAP1 POP JUMP JUMPDEST PUSH2 0x33F4 DUP2 PUSH2 0x33E1 JUMP JUMPDEST DUP2 EQ PUSH2 0x33FF JUMPI PUSH1 0x0 DUP1 REVERT JUMPDEST POP JUMP JUMPDEST PUSH1 0x0 DUP2 CALLDATALOAD SWAP1 POP PUSH2 0x3411 DUP2 PUSH2 0x33EB JUMP JUMPDEST SWAP3 SWAP2 POP POP JUMP JUMPDEST PUSH1 0x0 PUSH1 0x20 DUP3 DUP5 SUB SLT ISZERO PUSH2 0x342D JUMPI PUSH2 0x342C PUSH2 0x33D7 JUMP JUMPDEST JUMPDEST PUSH1 0x0 PUSH2 0x343B DUP5 DUP3 DUP6 ADD PUSH2 0x3402 JUMP JUMPDEST SWAP2 POP POP SWAP3 SWAP2 POP POP JUMP JUMPDEST PUSH32 0x4E487B7100000000000000000000000000000000000000000000000000000000 PUSH1 0x0 MSTORE PUSH1 0x21 PUSH1 0x4 MSTORE PUSH1 0x24 PUSH1 0x0 REVERT JUMPDEST PUSH1 0x5 DUP2 LT PUSH2 0x3484 JUMPI PUSH2 0x3483 PUSH2 0x3444 JUMP JUMPDEST JUMPDEST POP JUMP JUMPDEST PUSH1 0x0 DUP2 SWAP1 POP PUSH2 0x3495 DUP3 PUSH2 0x3473 JUMP JUMPDEST SWAP2 SWAP1 POP JUMP JUMPDEST PUSH1 0x0 PUSH2 0x34A5 DUP3 PUSH2 0x3487 JUMP JUMPDEST SWAP1 POP SWAP2 SWAP1 POP JUMP JUMPDEST PUSH2 0x34B5 DUP2 PUSH2 0x349A JUMP JUMPDEST DUP3 MSTORE POP POP JUMP JUMPDEST PUSH2 0x34C4 DUP2 PUSH2 0x33E1 JUMP JUMPDEST DUP3 MSTORE POP POP JUMP JUMPDEST PUSH1 0x0 DUP2 SWAP1 POP SWAP2 SWAP1 POP JUMP JUMPDEST PUSH2 0x34DD DUP2 PUSH2 0x34CA JUMP JUMPDEST DUP3 MSTORE POP POP JUMP JUMPDEST PUSH1 0x0 DUP2 MLOAD SWAP1 POP SWAP2 SWAP1 POP JUMP JUMPDEST PUSH1 0x0 DUP3 DUP3 MSTORE PUSH1 0x20 DUP3 ADD SWAP1 POP SWAP3 SWAP2 POP POP JUMP JUMPDEST PUSH1 0x0 JUMPDEST DUP4 DUP2 LT ISZERO PUSH2 0x351D JUMPI DUP1 DUP3 ADD MLOAD DUP2 DUP5 ADD MSTORE PUSH1 0x20 DUP2 ADD SWAP1 POP PUSH2 0x3502 JUMP JUMPDEST PUSH1 0x0 DUP5 DUP5 ADD MSTORE POP POP POP POP JUMP JUMPDEST PUSH1 0x0 PUSH1 0x1F NOT PUSH1 0x1F DUP4 ADD AND SWAP1 POP SWAP2 SWAP1 POP JUMP JUMPDEST PUSH1 0x0 PUSH2 0x3545 DUP3 PUSH2 0x34E3 JUMP JUMPDEST PUSH2 0x354F DUP2 DUP6 PUSH2 0x34EE JUMP JUMPDEST SWAP4 POP PUSH2 0x355F DUP2 DUP6 PUSH1 0x20 DUP7 ADD PUSH2 0x34FF JUMP JUMPDEST PUSH2 0x3568 DUP2 PUSH2 0x3529 JUMP JUMPDEST DUP5 ADD SWAP2 POP POP SWAP3 SWAP2 POP POP JUMP JUMPDEST PUSH1 0x0 PUSH1 0xFF DUP3 AND SWAP1 POP SWAP2 SWAP1 POP JUMP JUMPDEST PUSH2 0x3589 DUP2 PUSH2 0x3573 JUMP JUMPDEST DUP3 MSTORE POP POP JUMP JUMPDEST PUSH2 0x3598 DUP2 PUSH2 0x34CA JUMP JUMPDEST DUP3 MSTORE POP POP JUMP JUMPDEST PUSH2 0x35A7 DUP2 PUSH2 0x349A JUMP JUMPDEST DUP3 MSTORE POP POP JUMP JUMPDEST PUSH1 0x0 DUP2 ISZERO ISZERO SWAP1 POP SWAP2 SWAP1 POP JUMP JUMPDEST PUSH2 0x35C2 DUP2 PUSH2 0x35AD JUMP JUMPDEST DUP3 MSTORE POP POP JUMP JUMPDEST PUSH2 0x100 DUP3 ADD PUSH1 0x0 DUP3 ADD MLOAD PUSH2 0x35DF PUSH1 0x0 DUP6 ADD DUP3 PUSH2 0x35B9 JUMP JUMPDEST POP PUSH1 0x20 DUP3 ADD MLOAD PUSH2 0x35F2 PUSH1 0x20 DUP6 ADD DUP3 PUSH2 0x358F JUMP JUMPDEST POP PUSH1 0x40 DUP3 ADD MLOAD PUSH2 0x3605 PUSH1 0x40 DUP6 ADD DUP3 PUSH2 0x358F JUMP JUMPDEST POP PUSH1 0x60 DUP3 ADD MLOAD PUSH2 0x3618 PUSH1 0x60 DUP6 ADD DUP3 PUSH2 0x358F JUMP JUMPDEST POP PUSH1 0x80 DUP3 ADD MLOAD PUSH2 0x362B PUSH1 0x80 DUP6 ADD DUP3 PUSH2 0x358F JUMP JUMPDEST POP PUSH1 0xA0 DUP3 ADD MLOAD PUSH2 0x363E PUSH1 0xA0 DUP6 ADD DUP3 PUSH2 0x358F JUMP JUMPDEST POP PUSH1 0xC0 DUP3 ADD MLOAD PUSH2 0x3651 PUSH1 0xC0 DUP6 ADD DUP3 PUSH2 0x358F JUMP JUMPDEST POP PUSH1 0xE0 DUP3 ADD MLOAD PUSH2 0x3664 PUSH1 0xE0 DUP6 ADD DUP3 PUSH2 0x358F JUMP JUMPDEST POP POP POP POP JUMP JUMPDEST PUSH2 0x1A0 DUP3 ADD PUSH1 0x0 DUP3 ADD MLOAD PUSH2 0x3681 PUSH1 0x0 DUP6 ADD DUP3 PUSH2 0x3580 JUMP JUMPDEST POP PUSH1 0x20 DUP3 ADD MLOAD PUSH2 0x3694 PUSH1 0x20 DUP6 ADD DUP3 PUSH2 0x3580 JUMP JUMPDEST POP PUSH1 0x40 DUP3 ADD MLOAD PUSH2 0x36A7 PUSH1 0x40 DUP6 ADD DUP3 PUSH2 0x358F JUMP JUMPDEST POP PUSH1 0x60 DUP3 ADD MLOAD PUSH2 0x36BA PUSH1 0x60 DUP6 ADD DUP3 PUSH2 0x358F JUMP JUMPDEST POP PUSH1 0x80 DUP3 ADD MLOAD PUSH2 0x36CD PUSH1 0x80 DUP6 ADD DUP3 PUSH2 0x359E JUMP JUMPDEST POP PUSH1 0xA0 DUP3 ADD MLOAD PUSH2 0x36E0 PUSH1 0xA0 DUP6 ADD DUP3 PUSH2 0x35C8 JUMP JUMPDEST POP POP POP POP JUMP JUMPDEST PUSH1 0xA DUP2 LT PUSH2 0x36F7 JUMPI PUSH2 0x36F6 PUSH2 0x3444 JUMP JUMPDEST JUMPDEST POP JUMP JUMPDEST PUSH1 0x0 DUP2 SWAP1 POP PUSH2 0x3708 DUP3 PUSH2 0x36E6 JUMP JUMPDEST SWAP2 SWAP1 POP JUMP JUMPDEST PUSH1 0x0 PUSH2 0x3718 DUP3 PUSH2 0x36FA JUMP JUMPDEST SWAP1 POP SWAP2 SWAP1 POP JUMP JUMPDEST PUSH2 0x3728 DUP2 PUSH2 0x370D JUMP JUMPDEST DUP3 MSTORE POP POP JUMP JUMPDEST PUSH2 0x3737 DUP2 PUSH2 0x33E1 JUMP JUMPDEST DUP3 MSTORE POP POP JUMP JUMPDEST PUSH1 0x0 DUP3 DUP3 MSTORE PUSH1 0x20 DUP3 ADD SWAP1 POP SWAP3 SWAP2 POP POP JUMP JUMPDEST PUSH1 0x0 PUSH2 0x3759 DUP3 PUSH2 0x34E3 JUMP JUMPDEST PUSH2 0x3763 DUP2 DUP6 PUSH2 0x373D JUMP JUMPDEST SWAP4 POP PUSH2 0x3773 DUP2 DUP6 PUSH1 0x20 DUP7 ADD PUSH2 0x34FF JUMP JUMPDEST PUSH2 0x377C DUP2 PUSH2 0x3529 JUMP JUMPDEST DUP5 ADD SWAP2 POP POP SWAP3 SWAP2 POP POP JUMP JUMPDEST PUSH1 0x0 PUSH1 0x80 DUP4 ADD PUSH1 0x0 DUP4 ADD MLOAD PUSH2 0x379F PUSH1 0x0 DUP7 ADD DUP3 PUSH2 0x371F JUMP JUMPDEST POP PUSH1 0x20 DUP4 ADD MLOAD PUSH2 0x37B2 PUSH1 0x20 DUP7 ADD DUP3 PUSH2 0x358F JUMP JUMPDEST POP PUSH1 0x40 DUP4 ADD MLOAD PUSH2 0x37C5 PUSH1 0x40 DUP7 ADD DUP3 PUSH2 0x372E JUMP JUMPDEST POP PUSH1 0x60 DUP4 ADD MLOAD DUP5 DUP3 SUB PUSH1 0x60 DUP7 ADD MSTORE PUSH2 0x37DD DUP3 DUP3 PUSH2 0x374E JUMP JUMPDEST SWAP2 POP POP DUP1 SWAP2 POP POP SWAP3 SWAP2 POP POP JUMP JUMPDEST PUSH1 0x0 PUSH2 0x280 DUP3 ADD SWAP1 POP PUSH2 0x3800 PUSH1 0x0 DUP4 ADD DUP12 PUSH2 0x34AC JUMP JUMPDEST PUSH2 0x380D PUSH1 0x20 DUP4 ADD DUP11 PUSH2 0x34BB JUMP JUMPDEST PUSH2 0x381A PUSH1 0x40 DUP4 ADD DUP10 PUSH2 0x34BB JUMP JUMPDEST PUSH2 0x3827 PUSH1 0x60 DUP4 ADD DUP9 PUSH2 0x34D4 JUMP JUMPDEST PUSH2 0x3834 PUSH1 0x80 DUP4 ADD DUP8 PUSH2 0x34D4 JUMP JUMPDEST DUP2 DUP2 SUB PUSH1 0xA0 DUP4 ADD MSTORE PUSH2 0x3846 DUP2 DUP7 PUSH2 0x353A JUMP JUMPDEST SWAP1 POP PUSH2 0x3855 PUSH1 0xC0 DUP4 ADD DUP6 PUSH2 0x366A JUMP JUMPDEST DUP2 DUP2 SUB PUSH2 0x260 DUP4 ADD MSTORE PUSH2 0x3868 DUP2 DUP5 PUSH2 0x3787 JUMP JUMPDEST SWAP1 POP SWAP10 SWAP9 POP POP POP POP POP POP POP POP POP JUMP JUMPDEST PUSH1 0x0 PUSH20 0xFFFFFFFFFFFFFFFFFFFFFFFFFFFFFFFFFFFFFFFF DUP3 AND SWAP1 POP SWAP2 SWAP1 POP JUMP JUMPDEST PUSH1 0x0 PUSH2 0x38A2 DUP3 PUSH2 0x3877 JUMP JUMPDEST SWAP1 POP SWAP2 SWAP1 POP JUMP JUMPDEST PUSH2 0x38B2 DUP2 PUSH2 0x3897 JUMP JUMPDEST DUP2 EQ PUSH2 0x38BD JUMPI PUSH1 0x0 DUP1 REVERT JUMPDEST POP JUMP JUMPDEST PUSH1 0x0 DUP2 CALLDATALOAD SWAP1 POP PUSH2 0x38CF DUP2 PUSH2 0x38A9 JUMP JUMPDEST SWAP3 SWAP2 POP POP JUMP JUMPDEST PUSH1 0x0 DUP1 REVERT JUMPDEST PUSH1 0x0 DUP1 REVERT JUMPDEST PUSH32 0x4E487B7100000000000000000000000000000000000000000000000000000000 PUSH1 0x0 MSTORE PUSH1 0x41 PUSH1 0x4 MSTORE PUSH1 0x24 PUSH1 0x0 REVERT JUMPDEST PUSH2 0x3917 DUP3 PUSH2 0x3529 JUMP JUMPDEST DUP2 ADD DUP2 DUP2 LT PUSH8 0xFFFFFFFFFFFFFFFF DUP3 GT OR ISZERO PUSH2 0x3936 JUMPI PUSH2 0x3935 PUSH2 0x38DF JUMP JUMPDEST JUMPDEST DUP1 PUSH1 0x40 MSTORE POP POP POP JUMP JUMPDEST PUSH1 0x0 PUSH2 0x3949 PUSH2 0x33CD JUMP JUMPDEST SWAP1 POP PUSH2 0x3955 DUP3 DUP3 PUSH2 0x390E JUMP JUMPDEST SWAP2 SWAP1 POP JUMP JUMPDEST PUSH1 0x0 PUSH8 0xFFFFFFFFFFFFFFFF DUP3 GT ISZERO PUSH2 0x3975 JUMPI PUSH2 0x3974 PUSH2 0x38DF JUMP JUMPDEST JUMPDEST PUSH2 0x397E DUP3 PUSH2 0x3529 JUMP JUMPDEST SWAP1 POP PUSH1 0x20 DUP2 ADD SWAP1 POP SWAP2 SWAP1 POP JUMP JUMPDEST DUP3 DUP2 DUP4 CALLDATACOPY PUSH1 0x0 DUP4 DUP4 ADD MSTORE POP POP POP JUMP JUMPDEST PUSH1 0x0 PUSH2 0x39AD PUSH2 0x39A8 DUP5 PUSH2 0x395A JUMP JUMPDEST PUSH2 0x393F JUMP JUMPDEST SWAP1 POP DUP3 DUP2 MSTORE PUSH1 0x20 DUP2 ADD DUP5 DUP5 DUP5 ADD GT ISZERO PUSH2 0x39C9 JUMPI PUSH2 0x39C8 PUSH2 0x38DA JUMP JUMPDEST JUMPDEST PUSH2 0x39D4 DUP5 DUP3 DUP6 PUSH2 0x398B JUMP JUMPDEST POP SWAP4 SWAP3 POP POP POP JUMP JUMPDEST PUSH1 0x0 DUP3 PUSH1 0x1F DUP4 ADD SLT PUSH2 0x39F1 JUMPI PUSH2 0x39F0 PUSH2 0x38D5 JUMP JUMPDEST JUMPDEST DUP2 CALLDATALOAD PUSH2 0x3A01 DUP5 DUP3 PUSH1 0x20 DUP7 ADD PUSH2 0x399A JUMP JUMPDEST SWAP2 POP POP SWAP3 SWAP2 POP POP JUMP JUMPDEST PUSH1 0x0 DUP1 PUSH1 0x40 DUP4 DUP6 SUB SLT ISZERO PUSH2 0x3A21 JUMPI PUSH2 0x3A20 PUSH2 0x33D7 JUMP JUMPDEST JUMPDEST PUSH1 0x0 PUSH2 0x3A2F DUP6 DUP3 DUP7 ADD PUSH2 0x38C0 JUMP JUMPDEST SWAP3 POP POP PUSH1 0x20 DUP4 ADD CALLDATALOAD PUSH8 0xFFFFFFFFFFFFFFFF DUP2 GT ISZERO PUSH2 0x3A50 JUMPI PUSH2 0x3A4F PUSH2 0x33DC JUMP JUMPDEST JUMPDEST PUSH2 0x3A5C DUP6 DUP3 DUP7 ADD PUSH2 0x39DC JUMP JUMPDEST SWAP2 POP POP SWAP3 POP SWAP3 SWAP1 POP JUMP JUMPDEST PUSH1 0x0 PUSH1 0x20 DUP3 ADD SWAP1 POP PUSH2 0x3A7B PUSH1 0x0 DUP4 ADD DUP5 PUSH2 0x34BB JUMP JUMPDEST SWAP3 SWAP2 POP POP JUMP JUMPDEST PUSH1 0x5 DUP2 LT PUSH2 0x3A8E JUMPI PUSH1 0x0 DUP1 REVERT JUMPDEST POP JUMP JUMPDEST PUSH1 0x0 DUP2 CALLDATALOAD SWAP1 POP PUSH2 0x3AA0 DUP2 PUSH2 0x3A81 JUMP JUMPDEST SWAP3 SWAP2 POP POP JUMP JUMPDEST PUSH1 0x0 DUP1 PUSH1 0x40 DUP4 DUP6 SUB SLT ISZERO PUSH2 0x3ABD JUMPI PUSH2 0x3ABC PUSH2 0x33D7 JUMP JUMPDEST JUMPDEST PUSH1 0x0 PUSH2 0x3ACB DUP6 DUP3 DUP7 ADD PUSH2 0x3402 JUMP JUMPDEST SWAP3 POP POP PUSH1 0x20 PUSH2 0x3ADC DUP6 DUP3 DUP7 ADD PUSH2 0x3A91 JUMP JUMPDEST SWAP2 POP POP SWAP3 POP SWAP3 SWAP1 POP JUMP JUMPDEST PUSH1 0x0 DUP1 REVERT JUMPDEST PUSH1 0x0 PUSH1 0x80 DUP3 DUP5 SUB SLT ISZERO PUSH2 0x3B01 JUMPI PUSH2 0x3B00 PUSH2 0x3AE6 JUMP JUMPDEST JUMPDEST DUP2 SWAP1 POP SWAP3 SWAP2 POP POP JUMP JUMPDEST PUSH1 0x0 DUP1 PUSH1 0x40 DUP4 DUP6 SUB SLT ISZERO PUSH2 0x3B21 JUMPI PUSH2 0x3B20 PUSH2 0x33D7 JUMP JUMPDEST JUMPDEST PUSH1 0x0 PUSH2 0x3B2F DUP6 DUP3 DUP7 ADD PUSH2 0x3402 JUMP JUMPDEST SWAP3 POP POP PUSH1 0x20 DUP4 ADD CALLDATALOAD PUSH8 0xFFFFFFFFFFFFFFFF DUP2 GT ISZERO PUSH2 0x3B50 JUMPI PUSH2 0x3B4F PUSH2 0x33DC JUMP JUMPDEST JUMPDEST PUSH2 0x3B5C DUP6 DUP3 DUP7 ADD PUSH2 0x3AEB JUMP JUMPDEST SWAP2 POP POP SWAP3 POP SWAP3 SWAP1 POP JUMP JUMPDEST PUSH1 0x0 DUP1 REVERT JUMPDEST PUSH1 0x0 DUP1 REVERT JUMPDEST PUSH1 0x0 DUP1 DUP4 PUSH1 0x1F DUP5 ADD SLT PUSH2 0x3B86 JUMPI PUSH2 0x3B85 PUSH2 0x38D5 JUMP JUMPDEST JUMPDEST DUP3 CALLDATALOAD SWAP1 POP PUSH8 0xFFFFFFFFFFFFFFFF DUP2 GT ISZERO PUSH2 0x3BA3 JUMPI PUSH2 0x3BA2 PUSH2 0x3B66 JUMP JUMPDEST JUMPDEST PUSH1 0x20 DUP4 ADD SWAP2 POP DUP4 PUSH1 0x1 DUP3 MUL DUP4 ADD GT ISZERO PUSH2 0x3BBF JUMPI PUSH2 0x3BBE PUSH2 0x3B6B JUMP JUMPDEST JUMPDEST SWAP3 POP SWAP3 SWAP1 POP JUMP JUMPDEST PUSH1 0x0 DUP1 PUSH1 0x0 PUSH1 0x40 DUP5 DUP7 SUB SLT ISZERO PUSH2 0x3BDF JUMPI PUSH2 0x3BDE PUSH2 0x33D7 JUMP JUMPDEST JUMPDEST PUSH1 0x0 DUP5 ADD CALLDATALOAD PUSH8 0xFFFFFFFFFFFFFFFF DUP2 GT ISZERO PUSH2 0x3BFD JUMPI PUSH2 0x3BFC PUSH2 0x33DC JUMP JUMPDEST JUMPDEST PUSH2 0x3C09 DUP7 DUP3 DUP8 ADD PUSH2 0x3B70 JUMP JUMPDEST SWAP4 POP SWAP4 POP POP PUSH1 0x20 PUSH2 0x3C1C DUP7 DUP3 DUP8 ADD PUSH2 0x38C0 JUMP JUMPDEST SWAP2 POP POP SWAP3 POP SWAP3 POP SWAP3 JUMP JUMPDEST PUSH1 0x0 PUSH4 0xFFFFFFFF DUP3 AND SWAP1 POP SWAP2 SWAP1 POP JUMP JUMPDEST PUSH2 0x3C3F DUP2 PUSH2 0x3C26 JUMP JUMPDEST DUP3 MSTORE POP POP JUMP JUMPDEST PUSH1 0x0 PUSH1 0x20 DUP3 ADD SWAP1 POP PUSH2 0x3C5A PUSH1 0x0 DUP4 ADD DUP5 PUSH2 0x3C36 JUMP JUMPDEST SWAP3 SWAP2 POP POP JUMP JUMPDEST PUSH2 0x3C69 DUP2 PUSH2 0x3897 JUMP JUMPDEST DUP3 MSTORE POP POP JUMP JUMPDEST PUSH1 0x0 PUSH1 0x20 DUP3 ADD SWAP1 POP PUSH2 0x3C84 PUSH1 0x0 DUP4 ADD DUP5 PUSH2 0x3C60 JUMP JUMPDEST SWAP3 SWAP2 POP POP JUMP JUMPDEST PUSH1 0x0 PUSH1 0x2 SWAP1 POP SWAP2 SWAP1 POP JUMP JUMPDEST PUSH1 0x0 DUP2 SWAP1 POP SWAP3 SWAP2 POP POP JUMP JUMPDEST PUSH1 0x0 DUP2 SWAP1 POP SWAP2 SWAP1 POP JUMP JUMPDEST PUSH1 0x0 PUSH2 0x3CB6 DUP4 DUP4 PUSH2 0x372E JUMP JUMPDEST PUSH1 0x20 DUP4 ADD SWAP1 POP SWAP3 SWAP2 POP POP JUMP JUMPDEST PUSH1 0x0 PUSH1 0x20 DUP3 ADD SWAP1 POP SWAP2 SWAP1 POP JUMP JUMPDEST PUSH2 0x3CD8 DUP2 PUSH2 0x3C8A JUMP JUMPDEST PUSH2 0x3CE2 DUP2 DUP5 PUSH2 0x3C95 JUMP JUMPDEST SWAP3 POP PUSH2 0x3CED DUP3 PUSH2 0x3CA0 JUMP JUMPDEST DUP1 PUSH1 0x0 JUMPDEST DUP4 DUP2 LT ISZERO PUSH2 0x3D1E JUMPI DUP2 MLOAD PUSH2 0x3D05 DUP8 DUP3 PUSH2 0x3CAA JUMP JUMPDEST SWAP7 POP PUSH2 0x3D10 DUP4 PUSH2 0x3CC2 JUMP JUMPDEST SWAP3 POP POP PUSH1 0x1 DUP2 ADD SWAP1 POP PUSH2 0x3CF1 JUMP JUMPDEST POP POP POP POP POP POP JUMP JUMPDEST PUSH1 0x0 DUP2 MLOAD SWAP1 POP SWAP2 SWAP1 POP JUMP JUMPDEST PUSH1 0x0 DUP3 DUP3 MSTORE PUSH1 0x20 DUP3 ADD SWAP1 POP SWAP3 SWAP2 POP POP JUMP JUMPDEST PUSH1 0x0 DUP2 SWAP1 POP PUSH1 0x20 DUP3 ADD SWAP1 POP SWAP2 SWAP1 POP JUMP JUMPDEST PUSH1 0x0 DUP2 MLOAD SWAP1 POP SWAP2 SWAP1 POP JUMP JUMPDEST PUSH1 0x0 DUP3 DUP3 MSTORE PUSH1 0x20 DUP3 ADD SWAP1 POP SWAP3 SWAP2 POP POP JUMP JUMPDEST PUSH1 0x0 DUP2 SWAP1 POP PUSH1 0x20 DUP3 ADD SWAP1 POP SWAP2 SWAP1 POP JUMP JUMPDEST PUSH1 0x0 PUSH2 0x3D8A DUP4 DUP4 PUSH2 0x358F JUMP JUMPDEST PUSH1 0x20 DUP4 ADD SWAP1 POP SWAP3 SWAP2 POP POP JUMP JUMPDEST PUSH1 0x0 PUSH1 0x20 DUP3 ADD SWAP1 POP SWAP2 SWAP1 POP JUMP JUMPDEST PUSH1 0x0 PUSH2 0x3DAE DUP3 PUSH2 0x3D52 JUMP JUMPDEST PUSH2 0x3DB8 DUP2 DUP6 PUSH2 0x3D5D JUMP JUMPDEST SWAP4 POP PUSH2 0x3DC3 DUP4 PUSH2 0x3D6E JUMP JUMPDEST DUP1 PUSH1 0x0 JUMPDEST DUP4 DUP2 LT ISZERO PUSH2 0x3DF4 JUMPI DUP2 MLOAD PUSH2 0x3DDB DUP9 DUP3 PUSH2 0x3D7E JUMP JUMPDEST SWAP8 POP PUSH2 0x3DE6 DUP4 PUSH2 0x3D96 JUMP JUMPDEST SWAP3 POP POP PUSH1 0x1 DUP2 ADD SWAP1 POP PUSH2 0x3DC7 JUMP JUMPDEST POP DUP6 SWAP4 POP POP POP POP SWAP3 SWAP2 POP POP JUMP JUMPDEST PUSH1 0x0 PUSH2 0x3E0D DUP4 DUP4 PUSH2 0x3DA3 JUMP JUMPDEST SWAP1 POP SWAP3 SWAP2 POP POP JUMP JUMPDEST PUSH1 0x0 PUSH1 0x20 DUP3 ADD SWAP1 POP SWAP2 SWAP1 POP JUMP JUMPDEST PUSH1 0x0 PUSH2 0x3E2D DUP3 PUSH2 0x3D26 JUMP JUMPDEST PUSH2 0x3E37 DUP2 DUP6 PUSH2 0x3D31 JUMP JUMPDEST SWAP4 POP DUP4 PUSH1 0x20 DUP3 MUL DUP6 ADD PUSH2 0x3E49 DUP6 PUSH2 0x3D42 JUMP JUMPDEST DUP1 PUSH1 0x0 JUMPDEST DUP6 DUP2 LT ISZERO PUSH2 0x3E85 JUMPI DUP5 DUP5 SUB DUP10 MSTORE DUP2 MLOAD PUSH2 0x3E66 DUP6 DUP3 PUSH2 0x3E01 JUMP JUMPDEST SWAP5 POP PUSH2 0x3E71 DUP4 PUSH2 0x3E15 JUMP JUMPDEST SWAP3 POP PUSH1 0x20 DUP11 ADD SWAP10 POP POP PUSH1 0x1 DUP2 ADD SWAP1 POP PUSH2 0x3E4D JUMP JUMPDEST POP DUP3 SWAP8 POP DUP8 SWAP6 POP POP POP POP POP POP SWAP3 SWAP2 POP POP JUMP JUMPDEST PUSH2 0x1A0 DUP3 ADD PUSH1 0x0 DUP3 ADD MLOAD PUSH2 0x3EAE PUSH1 0x0 DUP6 ADD DUP3 PUSH2 0x3580 JUMP JUMPDEST POP PUSH1 0x20 DUP3 ADD MLOAD PUSH2 0x3EC1 PUSH1 0x20 DUP6 ADD DUP3 PUSH2 0x3580 JUMP JUMPDEST POP PUSH1 0x40 DUP3 ADD MLOAD PUSH2 0x3ED4 PUSH1 0x40 DUP6 ADD DUP3 PUSH2 0x358F JUMP JUMPDEST POP PUSH1 0x60 DUP3 ADD MLOAD PUSH2 0x3EE7 PUSH1 0x60 DUP6 ADD DUP3 PUSH2 0x358F JUMP JUMPDEST POP PUSH1 0x80 DUP3 ADD MLOAD PUSH2 0x3EFA PUSH1 0x80 DUP6 ADD DUP3 PUSH2 0x359E JUMP JUMPDEST POP PUSH1 0xA0 DUP3 ADD MLOAD PUSH2 0x3F0D PUSH1 0xA0 DUP6 ADD DUP3 PUSH2 0x35C8 JUMP JUMPDEST POP POP POP POP JUMP JUMPDEST PUSH1 0x0 PUSH1 0x80 DUP4 ADD PUSH1 0x0 DUP4 ADD MLOAD PUSH2 0x3F2B PUSH1 0x0 DUP7 ADD DUP3 PUSH2 0x371F JUMP JUMPDEST POP PUSH1 0x20 DUP4 ADD MLOAD PUSH2 0x3F3E PUSH1 0x20 DUP7 ADD DUP3 PUSH2 0x358F JUMP JUMPDEST POP PUSH1 0x40 DUP4 ADD MLOAD PUSH2 0x3F51 PUSH1 0x40 DUP7 ADD DUP3 PUSH2 0x372E JUMP JUMPDEST POP PUSH1 0x60 DUP4 ADD MLOAD DUP5 DUP3 SUB PUSH1 0x60 DUP7 ADD MSTORE PUSH2 0x3F69 DUP3 DUP3 PUSH2 0x374E JUMP JUMPDEST SWAP2 POP POP DUP1 SWAP2 POP POP SWAP3 SWAP2 POP POP JUMP JUMPDEST PUSH1 0x0 PUSH2 0x2E0 DUP4 ADD PUSH1 0x0 DUP4 ADD MLOAD PUSH2 0x3F8F PUSH1 0x0 DUP7 ADD DUP3 PUSH2 0x359E JUMP JUMPDEST POP PUSH1 0x20 DUP4 ADD MLOAD PUSH2 0x3FA2 PUSH1 0x20 DUP7 ADD DUP3 PUSH2 0x372E JUMP JUMPDEST POP PUSH1 0x40 DUP4 ADD MLOAD PUSH2 0x3FB5 PUSH1 0x40 DUP7 ADD DUP3 PUSH2 0x3CCF JUMP JUMPDEST POP PUSH1 0x60 DUP4 ADD MLOAD PUSH2 0x3FC8 PUSH1 0x80 DUP7 ADD DUP3 PUSH2 0x372E JUMP JUMPDEST POP PUSH1 0x80 DUP4 ADD MLOAD DUP5 DUP3 SUB PUSH1 0xA0 DUP7 ADD MSTORE PUSH2 0x3FE0 DUP3 DUP3 PUSH2 0x3E22 JUMP JUMPDEST SWAP2 POP POP PUSH1 0xA0 DUP4 ADD MLOAD PUSH2 0x3FF5 PUSH1 0xC0 DUP7 ADD DUP3 PUSH2 0x358F JUMP JUMPDEST POP PUSH1 0xC0 DUP4 ADD MLOAD PUSH2 0x4008 PUSH1 0xE0 DUP7 ADD DUP3 PUSH2 0x358F JUMP JUMPDEST POP PUSH1 0xE0 DUP4 ADD MLOAD DUP5 DUP3 SUB PUSH2 0x100 DUP7 ADD MSTORE PUSH2 0x4021 DUP3 DUP3 PUSH2 0x374E JUMP JUMPDEST SWAP2 POP POP PUSH2 0x100 DUP4 ADD MLOAD PUSH2 0x4038 PUSH2 0x120 DUP7 ADD DUP3 PUSH2 0x3E97 JUMP JUMPDEST POP PUSH2 0x120 DUP4 ADD MLOAD DUP5 DUP3 SUB PUSH2 0x2C0 DUP7 ADD MSTORE PUSH2 0x4052 DUP3 DUP3 PUSH2 0x3F13 JUMP JUMPDEST SWAP2 POP POP DUP1 SWAP2 POP POP SWAP3 SWAP2 POP POP JUMP JUMPDEST PUSH1 0x0 PUSH1 0x20 DUP3 ADD SWAP1 POP DUP2 DUP2 SUB PUSH1 0x0 DUP4 ADD MSTORE PUSH2 0x4079 DUP2 DUP5 PUSH2 0x3F76 JUMP JUMPDEST SWAP1 POP SWAP3 SWAP2 POP POP JUMP JUMPDEST PUSH1 0x0 PUSH2 0x1A0 DUP3 DUP5 SUB SLT ISZERO PUSH2 0x4098 JUMPI PUSH2 0x4097 PUSH2 0x3AE6 JUMP JUMPDEST JUMPDEST DUP2 SWAP1 POP SWAP3 SWAP2 POP POP JUMP JUMPDEST PUSH1 0x0 DUP1 PUSH1 0x0 DUP1 PUSH1 0x0 DUP1 PUSH1 0x0 DUP1 PUSH2 0x260 DUP10 DUP12 SUB SLT ISZERO PUSH2 0x40C2 JUMPI PUSH2 0x40C1 PUSH2 0x33D7 JUMP JUMPDEST JUMPDEST PUSH1 0x0 PUSH2 0x40D0 DUP12 DUP3 DUP13 ADD PUSH2 0x4081 JUMP JUMPDEST SWAP9 POP POP PUSH2 0x1A0 DUP10 ADD CALLDATALOAD PUSH8 0xFFFFFFFFFFFFFFFF DUP2 GT ISZERO PUSH2 0x40F2 JUMPI PUSH2 0x40F1 PUSH2 0x33DC JUMP JUMPDEST JUMPDEST PUSH2 0x40FE DUP12 DUP3 DUP13 ADD PUSH2 0x3AEB JUMP JUMPDEST SWAP8 POP POP PUSH2 0x1C0 DUP10 ADD CALLDATALOAD PUSH8 0xFFFFFFFFFFFFFFFF DUP2 GT ISZERO PUSH2 0x4120 JUMPI PUSH2 0x411F PUSH2 0x33DC JUMP JUMPDEST JUMPDEST PUSH2 0x412C DUP12 DUP3 DUP13 ADD PUSH2 0x3B70 JUMP JUMPDEST SWAP7 POP SWAP7 POP POP PUSH2 0x1E0 PUSH2 0x4140 DUP12 DUP3 DUP13 ADD PUSH2 0x3402 JUMP JUMPDEST SWAP5 POP POP PUSH2 0x200 PUSH2 0x4152 DUP12 DUP3 DUP13 ADD PUSH2 0x3402 JUMP JUMPDEST SWAP4 POP POP PUSH2 0x220 PUSH2 0x4164 DUP12 DUP3 DUP13 ADD PUSH2 0x3402 JUMP JUMPDEST SWAP3 POP POP PUSH2 0x240 PUSH2 0x4176 DUP12 DUP3 DUP13 ADD PUSH2 0x3402 JUMP JUMPDEST SWAP2 POP POP SWAP3 SWAP6 SWAP9 POP SWAP3 SWAP6 SWAP9 SWAP1 SWAP4 SWAP7 POP JUMP JUMPDEST PUSH1 0x0 PUSH1 0x20 DUP3 ADD SWAP1 POP DUP2 DUP2 SUB PUSH1 0x0 DUP4 ADD MSTORE PUSH2 0x41A0 DUP2 DUP5 PUSH2 0x353A JUMP JUMPDEST SWAP1 POP SWAP3 SWAP2 POP POP JUMP JUMPDEST PUSH1 0x0 DUP1 DUP4 PUSH1 0x1F DUP5 ADD SLT PUSH2 0x41BE JUMPI PUSH2 0x41BD PUSH2 0x38D5 JUMP JUMPDEST JUMPDEST DUP3 CALLDATALOAD SWAP1 POP PUSH8 0xFFFFFFFFFFFFFFFF DUP2 GT ISZERO PUSH2 0x41DB JUMPI PUSH2 0x41DA PUSH2 0x3B66 JUMP JUMPDEST JUMPDEST PUSH1 0x20 DUP4 ADD SWAP2 POP DUP4 PUSH1 0x1 DUP3 MUL DUP4 ADD GT ISZERO PUSH2 0x41F7 JUMPI PUSH2 0x41F6 PUSH2 0x3B6B JUMP JUMPDEST JUMPDEST SWAP3 POP SWAP3 SWAP1 POP JUMP JUMPDEST PUSH1 0x0 DUP1 PUSH1 0x0 DUP1 PUSH1 0x0 PUSH1 0x80 DUP7 DUP9 SUB SLT ISZERO PUSH2 0x421A JUMPI PUSH2 0x4219 PUSH2 0x33D7 JUMP JUMPDEST JUMPDEST PUSH1 0x0 PUSH2 0x4228 DUP9 DUP3 DUP10 ADD PUSH2 0x3402 JUMP JUMPDEST SWAP6 POP POP PUSH1 0x20 PUSH2 0x4239 DUP9 DUP3 DUP10 ADD PUSH2 0x3402 JUMP JUMPDEST SWAP5 POP POP PUSH1 0x40 PUSH2 0x424A DUP9 DUP3 DUP10 ADD PUSH2 0x3402 JUMP JUMPDEST SWAP4 POP POP PUSH1 0x60 DUP7 ADD CALLDATALOAD PUSH8 0xFFFFFFFFFFFFFFFF DUP2 GT ISZERO PUSH2 0x426B JUMPI PUSH2 0x426A PUSH2 0x33DC JUMP JUMPDEST JUMPDEST PUSH2 0x4277 DUP9 DUP3 DUP10 ADD PUSH2 0x41A8 JUMP JUMPDEST SWAP3 POP SWAP3 POP POP SWAP3 SWAP6 POP SWAP3 SWAP6 SWAP1 SWAP4 POP JUMP JUMPDEST PUSH2 0x428F DUP2 PUSH2 0x34CA JUMP JUMPDEST DUP2 EQ PUSH2 0x429A JUMPI PUSH1 0x0 DUP1 REVERT JUMPDEST POP JUMP JUMPDEST PUSH1 0x0 DUP2 CALLDATALOAD SWAP1 POP PUSH2 0x42AC DUP2 PUSH2 0x4286 JUMP JUMPDEST SWAP3 SWAP2 POP POP JUMP JUMPDEST PUSH1 0x0 DUP1 PUSH1 0x40 DUP4 DUP6 SUB SLT ISZERO PUSH2 0x42C9 JUMPI PUSH2 0x42C8 PUSH2 0x33D7 JUMP JUMPDEST JUMPDEST PUSH1 0x0 PUSH2 0x42D7 DUP6 DUP3 DUP7 ADD PUSH2 0x3402 JUMP JUMPDEST SWAP3 POP POP PUSH1 0x20 PUSH2 0x42E8 DUP6 DUP3 DUP7 ADD PUSH2 0x429D JUMP JUMPDEST SWAP2 POP POP SWAP3 POP SWAP3 SWAP1 POP JUMP JUMPDEST PUSH1 0x0 PUSH8 0xFFFFFFFFFFFFFFFF DUP3 GT ISZERO PUSH2 0x430D JUMPI PUSH2 0x430C PUSH2 0x38DF JUMP JUMPDEST JUMPDEST PUSH1 0x20 DUP3 MUL SWAP1 POP PUSH1 0x20 DUP2 ADD SWAP1 POP SWAP2 SWAP1 POP JUMP JUMPDEST PUSH1 0x0 PUSH8 0xFFFFFFFFFFFFFFFF DUP3 GT ISZERO PUSH2 0x4339 JUMPI PUSH2 0x4338 PUSH2 0x38DF JUMP JUMPDEST JUMPDEST PUSH1 0x20 DUP3 MUL SWAP1 POP PUSH1 0x20 DUP2 ADD SWAP1 POP SWAP2 SWAP1 POP JUMP JUMPDEST PUSH1 0x0 PUSH2 0x435D PUSH2 0x4358 DUP5 PUSH2 0x431E JUMP JUMPDEST PUSH2 0x393F JUMP JUMPDEST SWAP1 POP DUP1 DUP4 DUP3 MSTORE PUSH1 0x20 DUP3 ADD SWAP1 POP PUSH1 0x20 DUP5 MUL DUP4 ADD DUP6 DUP2 GT ISZERO PUSH2 0x4380 JUMPI PUSH2 0x437F PUSH2 0x3B6B JUMP JUMPDEST JUMPDEST DUP4 JUMPDEST DUP2 DUP2 LT ISZERO PUSH2 0x43A9 JUMPI DUP1 PUSH2 0x4395 DUP9 DUP3 PUSH2 0x429D JUMP JUMPDEST DUP5 MSTORE PUSH1 0x20 DUP5 ADD SWAP4 POP POP PUSH1 0x20 DUP2 ADD SWAP1 POP PUSH2 0x4382 JUMP JUMPDEST POP POP POP SWAP4 SWAP3 POP POP POP JUMP JUMPDEST PUSH1 0x0 DUP3 PUSH1 0x1F DUP4 ADD SLT PUSH2 0x43C8 JUMPI PUSH2 0x43C7 PUSH2 0x38D5 JUMP JUMPDEST JUMPDEST DUP2 CALLDATALOAD PUSH2 0x43D8 DUP5 DUP3 PUSH1 0x20 DUP7 ADD PUSH2 0x434A JUMP JUMPDEST SWAP2 POP POP SWAP3 SWAP2 POP POP JUMP JUMPDEST PUSH1 0x0 PUSH2 0x43F4 PUSH2 0x43EF DUP5 PUSH2 0x42F2 JUMP JUMPDEST PUSH2 0x393F JUMP JUMPDEST SWAP1 POP DUP1 DUP4 DUP3 MSTORE PUSH1 0x20 DUP3 ADD SWAP1 POP PUSH1 0x20 DUP5 MUL DUP4 ADD DUP6 DUP2 GT ISZERO PUSH2 0x4417 JUMPI PUSH2 0x4416 PUSH2 0x3B6B JUMP JUMPDEST JUMPDEST DUP4 JUMPDEST DUP2 DUP2 LT ISZERO PUSH2 0x445E JUMPI DUP1 CALLDATALOAD PUSH8 0xFFFFFFFFFFFFFFFF DUP2 GT ISZERO PUSH2 0x443C JUMPI PUSH2 0x443B PUSH2 0x38D5 JUMP JUMPDEST JUMPDEST DUP1 DUP7 ADD PUSH2 0x4449 DUP10 DUP3 PUSH2 0x43B3 JUMP JUMPDEST DUP6 MSTORE PUSH1 0x20 DUP6 ADD SWAP5 POP POP POP PUSH1 0x20 DUP2 ADD SWAP1 POP PUSH2 0x4419 JUMP JUMPDEST POP POP POP SWAP4 SWAP3 POP POP POP JUMP JUMPDEST PUSH1 0x0 DUP3 PUSH1 0x1F DUP4 ADD SLT PUSH2 0x447D JUMPI PUSH2 0x447C PUSH2 0x38D5 JUMP JUMPDEST JUMPDEST DUP2 CALLDATALOAD PUSH2 0x448D DUP5 DUP3 PUSH1 0x20 DUP7 ADD PUSH2 0x43E1 JUMP JUMPDEST SWAP2 POP POP SWAP3 SWAP2 POP POP JUMP JUMPDEST PUSH1 0x0 DUP1 PUSH1 0x0 DUP1 PUSH1 0x60 DUP6 DUP8 SUB SLT ISZERO PUSH2 0x44B0 JUMPI PUSH2 0x44AF PUSH2 0x33D7 JUMP JUMPDEST JUMPDEST PUSH1 0x0 PUSH2 0x44BE DUP8 DUP3 DUP9 ADD PUSH2 0x3402 JUMP JUMPDEST SWAP5 POP POP PUSH1 0x20 DUP6 ADD CALLDATALOAD PUSH8 0xFFFFFFFFFFFFFFFF DUP2 GT ISZERO PUSH2 0x44DF JUMPI PUSH2 0x44DE PUSH2 0x33DC JUMP JUMPDEST JUMPDEST PUSH2 0x44EB DUP8 DUP3 DUP9 ADD PUSH2 0x4468 JUMP JUMPDEST SWAP4 POP POP PUSH1 0x40 DUP6 ADD CALLDATALOAD PUSH8 0xFFFFFFFFFFFFFFFF DUP2 GT ISZERO PUSH2 0x450C JUMPI PUSH2 0x450B PUSH2 0x33DC JUMP JUMPDEST JUMPDEST PUSH2 0x4518 DUP8 DUP3 DUP9 ADD PUSH2 0x41A8 JUMP JUMPDEST SWAP3 POP SWAP3 POP POP SWAP3 SWAP6 SWAP2 SWAP5 POP SWAP3 POP JUMP JUMPDEST PUSH1 0x0 PUSH1 0x20 DUP3 DUP5 SUB SLT ISZERO PUSH2 0x453C JUMPI PUSH2 0x453B PUSH2 0x33D7 JUMP JUMPDEST JUMPDEST PUSH1 0x0 PUSH2 0x454A DUP5 DUP3 DUP6 ADD PUSH2 0x38C0 JUMP JUMPDEST SWAP2 POP POP SWAP3 SWAP2 POP POP JUMP JUMPDEST PUSH32 0x4E487B7100000000000000000000000000000000000000000000000000000000 PUSH1 0x0 MSTORE PUSH1 0x22 PUSH1 0x4 MSTORE PUSH1 0x24 PUSH1 0x0 REVERT JUMPDEST PUSH1 0x0 PUSH1 0x2 DUP3 DIV SWAP1 POP PUSH1 0x1 DUP3 AND DUP1 PUSH2 0x459A JUMPI PUSH1 0x7F DUP3 AND SWAP2 POP JUMPDEST PUSH1 0x20 DUP3 LT DUP2 SUB PUSH2 0x45AD JUMPI PUSH2 0x45AC PUSH2 0x4553 JUMP JUMPDEST JUMPDEST POP SWAP2 SWAP1 POP JUMP JUMPDEST PUSH1 0x0 PUSH1 0x40 DUP3 ADD SWAP1 POP PUSH2 0x45C8 PUSH1 0x0 DUP4 ADD DUP6 PUSH2 0x34BB JUMP JUMPDEST PUSH2 0x45D5 PUSH1 0x20 DUP4 ADD DUP5 PUSH2 0x3C60 JUMP JUMPDEST SWAP4 SWAP3 POP POP POP JUMP JUMPDEST PUSH2 0x45E5 DUP2 PUSH2 0x35AD JUMP JUMPDEST DUP2 EQ PUSH2 0x45F0 JUMPI PUSH1 0x0 DUP1 REVERT JUMPDEST POP JUMP JUMPDEST PUSH1 0x0 DUP2 MLOAD SWAP1 POP PUSH2 0x4602 DUP2 PUSH2 0x45DC JUMP JUMPDEST SWAP3 SWAP2 POP POP JUMP JUMPDEST PUSH1 0x0 PUSH1 0x20 DUP3 DUP5 SUB SLT ISZERO PUSH2 0x461E JUMPI PUSH2 0x461D PUSH2 0x33D7 JUMP JUMPDEST JUMPDEST PUSH1 0x0 PUSH2 0x462C DUP5 DUP3 DUP6 ADD PUSH2 0x45F3 JUMP JUMPDEST SWAP2 POP POP SWAP3 SWAP2 POP POP JUMP JUMPDEST PUSH32 0x53657450726F636573735374617475733A206E6F7420616E2061646D696E6973 PUSH1 0x0 DUP3 ADD MSTORE PUSH32 0x747261746F720000000000000000000000000000000000000000000000000000 PUSH1 0x20 DUP3 ADD MSTORE POP JUMP JUMPDEST PUSH1 0x0 PUSH2 0x4691 PUSH1 0x26 DUP4 PUSH2 0x34EE JUMP JUMPDEST SWAP2 POP PUSH2 0x469C DUP3 PUSH2 0x4635 JUMP JUMPDEST PUSH1 0x40 DUP3 ADD SWAP1 POP SWAP2 SWAP1 POP JUMP JUMPDEST PUSH1 0x0 PUSH1 0x20 DUP3 ADD SWAP1 POP DUP2 DUP2 SUB PUSH1 0x0 DUP4 ADD MSTORE PUSH2 0x46C0 DUP2 PUSH2 0x4684 JUMP JUMPDEST SWAP1 POP SWAP2 SWAP1 POP JUMP JUMPDEST PUSH32 0x50726F63657373207465726D696E617465640000000000000000000000000000 PUSH1 0x0 DUP3 ADD MSTORE POP JUMP JUMPDEST PUSH1 0x0 PUSH2 0x46FD PUSH1 0x12 DUP4 PUSH2 0x34EE JUMP JUMPDEST SWAP2 POP PUSH2 0x4708 DUP3 PUSH2 0x46C7 JUMP JUMPDEST PUSH1 0x20 DUP3 ADD SWAP1 POP SWAP2 SWAP1 POP JUMP JUMPDEST PUSH1 0x0 PUSH1 0x20 DUP3 ADD SWAP1 POP DUP2 DUP2 SUB PUSH1 0x0 DUP4 ADD MSTORE PUSH2 0x472C DUP2 PUSH2 0x46F0 JUMP JUMPDEST SWAP1 POP SWAP2 SWAP1 POP JUMP JUMPDEST PUSH32 0x4E6F7420696E7465727275707469626C65000000000000000000000000000000 PUSH1 0x0 DUP3 ADD MSTORE POP JUMP JUMPDEST PUSH1 0x0 PUSH2 0x4769 PUSH1 0x11 DUP4 PUSH2 0x34EE JUMP JUMPDEST SWAP2 POP PUSH2 0x4774 DUP3 PUSH2 0x4733 JUMP JUMPDEST PUSH1 0x20 DUP3 ADD SWAP1 POP SWAP2 SWAP1 POP JUMP JUMPDEST PUSH1 0x0 PUSH1 0x20 DUP3 ADD SWAP1 POP DUP2 DUP2 SUB PUSH1 0x0 DUP4 ADD MSTORE PUSH2 0x4798 DUP2 PUSH2 0x475C JUMP JUMPDEST SWAP1 POP SWAP2 SWAP1 POP JUMP JUMPDEST PUSH32 0x4D75737420646966666572000000000000000000000000000000000000000000 PUSH1 0x0 DUP3 ADD MSTORE POP JUMP JUMPDEST PUSH1 0x0 PUSH2 0x47D5 PUSH1 0xB DUP4 PUSH2 0x34EE JUMP JUMPDEST SWAP2 POP PUSH2 0x47E0 DUP3 PUSH2 0x479F JUMP JUMPDEST PUSH1 0x20 DUP3 ADD SWAP1 POP SWAP2 SWAP1 POP JUMP JUMPDEST PUSH1 0x0 PUSH1 0x20 DUP3 ADD SWAP1 POP DUP2 DUP2 SUB PUSH1 0x0 DUP4 ADD MSTORE PUSH2 0x4804 DUP2 PUSH2 0x47C8 JUMP JUMPDEST SWAP1 POP SWAP2 SWAP1 POP JUMP JUMPDEST PUSH1 0x0 PUSH1 0x20 DUP3 ADD SWAP1 POP PUSH2 0x4820 PUSH1 0x0 DUP4 ADD DUP5 PUSH2 0x34AC JUMP JUMPDEST SWAP3 SWAP2 POP POP JUMP JUMPDEST PUSH32 0x53657450726F6365737343656E7375733A206E6F7420616E2061646D696E6973 PUSH1 0x0 DUP3 ADD MSTORE PUSH32 0x747261746F720000000000000000000000000000000000000000000000000000 PUSH1 0x20 DUP3 ADD MSTORE POP JUMP JUMPDEST PUSH1 0x0 PUSH2 0x4882 PUSH1 0x26 DUP4 PUSH2 0x34EE JUMP JUMPDEST SWAP2 POP PUSH2 0x488D DUP3 PUSH2 0x4826 JUMP JUMPDEST PUSH1 0x40 DUP3 ADD SWAP1 POP SWAP2 SWAP1 POP JUMP JUMPDEST PUSH1 0x0 PUSH1 0x20 DUP3 ADD SWAP1 POP DUP2 DUP2 SUB PUSH1 0x0 DUP4 ADD MSTORE PUSH2 0x48B1 DUP2 PUSH2 0x4875 JUMP JUMPDEST SWAP1 POP SWAP2 SWAP1 POP JUMP JUMPDEST PUSH1 0x0 DUP1 REVERT JUMPDEST PUSH1 0x0 DUP1 REVERT JUMPDEST PUSH1 0x0 DUP1 REVERT JUMPDEST PUSH1 0x0 DUP1 DUP4 CALLDATALOAD PUSH1 0x1 PUSH1 0x20 SUB DUP5 CALLDATASIZE SUB SUB DUP2 SLT PUSH2 0x48E4 JUMPI PUSH2 0x48E3 PUSH2 0x48B8 JUMP JUMPDEST JUMPDEST DUP1 DUP5 ADD SWAP3 POP DUP3 CALLDATALOAD SWAP2 POP PUSH8 0xFFFFFFFFFFFFFFFF DUP3 GT ISZERO PUSH2 0x4906 JUMPI PUSH2 0x4905 PUSH2 0x48BD JUMP JUMPDEST JUMPDEST PUSH1 0x20 DUP4 ADD SWAP3 POP PUSH1 0x1 DUP3 MUL CALLDATASIZE SUB DUP4 SGT ISZERO PUSH2 0x4922 JUMPI PUSH2 0x4921 PUSH2 0x48C2 JUMP JUMPDEST JUMPDEST POP SWAP3 POP SWAP3 SWAP1 POP JUMP JUMPDEST PUSH32 0x456D707479205552490000000000000000000000000000000000000000000000 PUSH1 0x0 DUP3 ADD MSTORE POP JUMP JUMPDEST PUSH1 0x0 PUSH2 0x4960 PUSH1 0x9 DUP4 PUSH2 0x34EE JUMP JUMPDEST SWAP2 POP PUSH2 0x496B DUP3 PUSH2 0x492A JUMP JUMPDEST PUSH1 0x20 DUP3 ADD SWAP1 POP SWAP2 SWAP1 POP JUMP JUMPDEST PUSH1 0x0 PUSH1 0x20 DUP3 ADD SWAP1 POP DUP2 DUP2 SUB PUSH1 0x0 DUP4 ADD MSTORE PUSH2 0x498F DUP2 PUSH2 0x4953 JUMP JUMPDEST SWAP1 POP SWAP2 SWAP1 POP JUMP JUMPDEST PUSH32 0x456D70747920726F6F7400000000000000000000000000000000000000000000 PUSH1 0x0 DUP3 ADD MSTORE POP JUMP JUMPDEST PUSH1 0x0 PUSH2 0x49CC PUSH1 0xA DUP4 PUSH2 0x34EE JUMP JUMPDEST SWAP2 POP PUSH2 0x49D7 DUP3 PUSH2 0x4996 JUMP JUMPDEST PUSH1 0x20 DUP3 ADD SWAP1 POP SWAP2 SWAP1 POP JUMP JUMPDEST PUSH1 0x0 PUSH1 0x20 DUP3 ADD SWAP1 POP DUP2 DUP2 SUB PUSH1 0x0 DUP4 ADD MSTORE PUSH2 0x49FB DUP2 PUSH2 0x49BF JUMP JUMPDEST SWAP1 POP SWAP2 SWAP1 POP JUMP JUMPDEST PUSH32 0x50726F63657373206E6F7420666F756E64000000000000000000000000000000 PUSH1 0x0 DUP3 ADD MSTORE POP JUMP JUMPDEST PUSH1 0x0 PUSH2 0x4A38 PUSH1 0x11 DUP4 PUSH2 0x34EE JUMP JUMPDEST SWAP2 POP PUSH2 0x4A43 DUP3 PUSH2 0x4A02 JUMP JUMPDEST PUSH1 0x20 DUP3 ADD SWAP1 POP SWAP2 SWAP1 POP JUMP JUMPDEST PUSH1 0x0 PUSH1 0x20 DUP3 ADD SWAP1 POP DUP2 DUP2 SUB PUSH1 0x0 DUP4 ADD MSTORE PUSH2 0x4A67 DUP2 PUSH2 0x4A2B JUMP JUMPDEST SWAP1 POP SWAP2 SWAP1 POP JUMP JUMPDEST PUSH32 0x526561642D6F6E6C792063656E73757300000000000000000000000000000000 PUSH1 0x0 DUP3 ADD MSTORE POP JUMP JUMPDEST PUSH1 0x0 PUSH2 0x4AA4 PUSH1 0x10 DUP4 PUSH2 0x34EE JUMP JUMPDEST SWAP2 POP PUSH2 0x4AAF DUP3 PUSH2 0x4A6E JUMP JUMPDEST PUSH1 0x20 DUP3 ADD SWAP1 POP SWAP2 SWAP1 POP JUMP JUMPDEST PUSH1 0x0 PUSH1 0x20 DUP3 ADD SWAP1 POP DUP2 DUP2 SUB PUSH1 0x0 DUP4 ADD MSTORE PUSH2 0x4AD3 DUP2 PUSH2 0x4A97 JUMP JUMPDEST SWAP1 POP SWAP2 SWAP1 POP JUMP JUMPDEST PUSH1 0x0 DUP3 SWAP1 POP SWAP3 SWAP2 POP POP JUMP JUMPDEST PUSH1 0x0 DUP2 SWAP1 POP DUP2 PUSH1 0x0 MSTORE PUSH1 0x20 PUSH1 0x0 KECCAK256 SWAP1 POP SWAP2 SWAP1 POP JUMP JUMPDEST PUSH1 0x0 PUSH1 0x20 PUSH1 0x1F DUP4 ADD DIV SWAP1 POP SWAP2 SWAP1 POP JUMP JUMPDEST PUSH1 0x0 DUP3 DUP3 SHL SWAP1 POP SWAP3 SWAP2 POP POP JUMP JUMPDEST PUSH1 0x0 PUSH1 0x8 DUP4 MUL PUSH2 0x4B47 PUSH32 0xFFFFFFFFFFFFFFFFFFFFFFFFFFFFFFFFFFFFFFFFFFFFFFFFFFFFFFFFFFFFFFFF DUP3 PUSH2 0x4B0A JUMP JUMPDEST PUSH2 0x4B51 DUP7 DUP4 PUSH2 0x4B0A JUMP JUMPDEST SWAP6 POP DUP1 NOT DUP5 AND SWAP4 POP DUP1 DUP7 AND DUP5 OR SWAP3 POP POP POP SWAP4 SWAP3 POP POP POP JUMP JUMPDEST PUSH1 0x0 DUP2 SWAP1 POP SWAP2 SWAP1 POP JUMP JUMPDEST PUSH1 0x0 PUSH2 0x4B8E PUSH2 0x4B89 PUSH2 0x4B84 DUP5 PUSH2 0x34CA JUMP JUMPDEST PUSH2 0x4B69 JUMP JUMPDEST PUSH2 0x34CA JUMP JUMPDEST SWAP1 POP SWAP2 SWAP1 POP JUMP JUMPDEST PUSH1 0x0 DUP2 SWAP1 POP SWAP2 SWAP1 POP JUMP JUMPDEST PUSH2 0x4BA8 DUP4 PUSH2 0x4B73 JUMP JUMPDEST PUSH2 0x4BBC PUSH2 0x4BB4 DUP3 PUSH2 0x4B95 JUMP JUMPDEST DUP5 DUP5 SLOAD PUSH2 0x4B17 JUMP JUMPDEST DUP3 SSTORE POP POP POP POP JUMP JUMPDEST PUSH1 0x0 SWAP1 JUMP JUMPDEST PUSH2 0x4BD1 PUSH2 0x4BC4 JUMP JUMPDEST PUSH2 0x4BDC DUP2 DUP5 DUP5 PUSH2 0x4B9F JUMP JUMPDEST POP POP POP JUMP JUMPDEST JUMPDEST DUP2 DUP2 LT ISZERO PUSH2 0x4C00 JUMPI PUSH2 0x4BF5 PUSH1 0x0 DUP3 PUSH2 0x4BC9 JUMP JUMPDEST PUSH1 0x1 DUP2 ADD SWAP1 POP PUSH2 0x4BE2 JUMP JUMPDEST POP POP JUMP JUMPDEST PUSH1 0x1F DUP3 GT ISZERO PUSH2 0x4C45 JUMPI PUSH2 0x4C16 DUP2 PUSH2 0x4AE5 JUMP JUMPDEST PUSH2 0x4C1F DUP5 PUSH2 0x4AFA JUMP JUMPDEST DUP2 ADD PUSH1 0x20 DUP6 LT ISZERO PUSH2 0x4C2E JUMPI DUP2 SWAP1 POP JUMPDEST PUSH2 0x4C42 PUSH2 0x4C3A DUP6 PUSH2 0x4AFA JUMP JUMPDEST DUP4 ADD DUP3 PUSH2 0x4BE1 JUMP JUMPDEST POP POP JUMPDEST POP POP POP JUMP JUMPDEST PUSH1 0x0 DUP3 DUP3 SHR SWAP1 POP SWAP3 SWAP2 POP POP JUMP JUMPDEST PUSH1 0x0 PUSH2 0x4C68 PUSH1 0x0 NOT DUP5 PUSH1 0x8 MUL PUSH2 0x4C4A JUMP JUMPDEST NOT DUP1 DUP4 AND SWAP2 POP POP SWAP3 SWAP2 POP POP JUMP JUMPDEST PUSH1 0x0 PUSH2 0x4C81 DUP4 DUP4 PUSH2 0x4C57 JUMP JUMPDEST SWAP2 POP DUP3 PUSH1 0x2 MUL DUP3 OR SWAP1 POP SWAP3 SWAP2 POP POP JUMP JUMPDEST PUSH2 0x4C9B DUP4 DUP4 PUSH2 0x4ADA JUMP JUMPDEST PUSH8 0xFFFFFFFFFFFFFFFF DUP2 GT ISZERO PUSH2 0x4CB4 JUMPI PUSH2 0x4CB3 PUSH2 0x38DF JUMP JUMPDEST JUMPDEST PUSH2 0x4CBE DUP3 SLOAD PUSH2 0x4582 JUMP JUMPDEST PUSH2 0x4CC9 DUP3 DUP3 DUP6 PUSH2 0x4C04 JUMP JUMPDEST PUSH1 0x0 PUSH1 0x1F DUP4 GT PUSH1 0x1 DUP2 EQ PUSH2 0x4CF8 JUMPI PUSH1 0x0 DUP5 ISZERO PUSH2 0x4CE6 JUMPI DUP3 DUP8 ADD CALLDATALOAD SWAP1 POP JUMPDEST PUSH2 0x4CF0 DUP6 DUP3 PUSH2 0x4C75 JUMP JUMPDEST DUP7 SSTORE POP PUSH2 0x4D58 JUMP JUMPDEST PUSH1 0x1F NOT DUP5 AND PUSH2 0x4D06 DUP7 PUSH2 0x4AE5 JUMP JUMPDEST PUSH1 0x0 JUMPDEST DUP3 DUP2 LT ISZERO PUSH2 0x4D2E JUMPI DUP5 DUP10 ADD CALLDATALOAD DUP3 SSTORE PUSH1 0x1 DUP3 ADD SWAP2 POP PUSH1 0x20 DUP6 ADD SWAP5 POP PUSH1 0x20 DUP2 ADD SWAP1 POP PUSH2 0x4D09 JUMP JUMPDEST DUP7 DUP4 LT ISZERO PUSH2 0x4D4B JUMPI DUP5 DUP10 ADD CALLDATALOAD PUSH2 0x4D47 PUSH1 0x1F DUP10 AND DUP3 PUSH2 0x4C57 JUMP JUMPDEST DUP4 SSTORE POP JUMPDEST PUSH1 0x1 PUSH1 0x2 DUP9 MUL ADD DUP9 SSTORE POP POP POP JUMPDEST POP POP POP POP POP POP POP JUMP JUMPDEST PUSH1 0x0 PUSH2 0x4D6D DUP4 DUP6 PUSH2 0x34EE JUMP JUMPDEST SWAP4 POP PUSH2 0x4D7A DUP4 DUP6 DUP5 PUSH2 0x398B JUMP JUMPDEST PUSH2 0x4D83 DUP4 PUSH2 0x3529 JUMP JUMPDEST DUP5 ADD SWAP1 POP SWAP4 SWAP3 POP POP POP JUMP JUMPDEST PUSH1 0x0 PUSH1 0x60 DUP3 ADD SWAP1 POP PUSH2 0x4DA3 PUSH1 0x0 DUP4 ADD DUP8 PUSH2 0x34BB JUMP JUMPDEST DUP2 DUP2 SUB PUSH1 0x20 DUP4 ADD MSTORE PUSH2 0x4DB6 DUP2 DUP6 DUP8 PUSH2 0x4D61 JUMP JUMPDEST SWAP1 POP PUSH2 0x4DC5 PUSH1 0x40 DUP4 ADD DUP5 PUSH2 0x34D4 JUMP JUMPDEST SWAP6 SWAP5 POP POP POP POP POP JUMP JUMPDEST PUSH1 0x0 DUP2 SWAP1 POP SWAP2 SWAP1 POP JUMP JUMPDEST PUSH1 0x0 PUSH8 0xFFFFFFFFFFFFFFFF DUP3 AND SWAP1 POP SWAP2 SWAP1 POP JUMP JUMPDEST PUSH1 0x0 PUSH2 0x4E07 PUSH2 0x4E02 PUSH2 0x4DFD DUP5 PUSH2 0x4DCE JUMP JUMPDEST PUSH2 0x4B69 JUMP JUMPDEST PUSH2 0x4DD8 JUMP JUMPDEST SWAP1 POP SWAP2 SWAP1 POP JUMP JUMPDEST PUSH2 0x4E17 DUP2 PUSH2 0x4DEC JUMP JUMPDEST DUP3 MSTORE POP POP JUMP JUMPDEST PUSH1 0x0 PUSH1 0x20 DUP3 ADD SWAP1 POP PUSH2 0x4E32 PUSH1 0x0 DUP4 ADD DUP5 PUSH2 0x4E0E JUMP JUMPDEST SWAP3 SWAP2 POP POP JUMP JUMPDEST PUSH32 0x4E657750726F636573733A20696E76616C6964206D6178436F756E7400000000 PUSH1 0x0 DUP3 ADD MSTORE POP JUMP JUMPDEST PUSH1 0x0 PUSH2 0x4E6E PUSH1 0x1C DUP4 PUSH2 0x34EE JUMP JUMPDEST SWAP2 POP PUSH2 0x4E79 DUP3 PUSH2 0x4E38 JUMP JUMPDEST PUSH1 0x20 DUP3 ADD SWAP1 POP SWAP2 SWAP1 POP JUMP JUMPDEST PUSH1 0x0 PUSH1 0x20 DUP3 ADD SWAP1 POP DUP2 DUP2 SUB PUSH1 0x0 DUP4 ADD MSTORE PUSH2 0x4E9D DUP2 PUSH2 0x4E61 JUMP JUMPDEST SWAP1 POP SWAP2 SWAP1 POP JUMP JUMPDEST PUSH32 0x4E657750726F636573733A206D6178436F756E74203E206D617856616C756500 PUSH1 0x0 DUP3 ADD MSTORE POP JUMP JUMPDEST PUSH1 0x0 PUSH2 0x4EDA PUSH1 0x1F DUP4 PUSH2 0x34EE JUMP JUMPDEST SWAP2 POP PUSH2 0x4EE5 DUP3 PUSH2 0x4EA4 JUMP JUMPDEST PUSH1 0x20 DUP3 ADD SWAP1 POP SWAP2 SWAP1 POP JUMP JUMPDEST PUSH1 0x0 PUSH1 0x20 DUP3 ADD SWAP1 POP DUP2 DUP2 SUB PUSH1 0x0 DUP4 ADD MSTORE PUSH2 0x4F09 DUP2 PUSH2 0x4ECD JUMP JUMPDEST SWAP1 POP SWAP2 SWAP1 POP JUMP JUMPDEST PUSH1 0x0 PUSH1 0x20 DUP3 DUP5 SUB SLT ISZERO PUSH2 0x4F26 JUMPI PUSH2 0x4F25 PUSH2 0x33D7 JUMP JUMPDEST JUMPDEST PUSH1 0x0 PUSH2 0x4F34 DUP5 DUP3 DUP6 ADD PUSH2 0x3A91 JUMP JUMPDEST SWAP2 POP POP SWAP3 SWAP2 POP POP JUMP JUMPDEST PUSH32 0x4E657750726F636573733A20696E76616C696420737461747573000000000000 PUSH1 0x0 DUP3 ADD MSTORE POP JUMP JUMPDEST PUSH1 0x0 PUSH2 0x4F73 PUSH1 0x1A DUP4 PUSH2 0x34EE JUMP JUMPDEST SWAP2 POP PUSH2 0x4F7E DUP3 PUSH2 0x4F3D JUMP JUMPDEST PUSH1 0x20 DUP3 ADD SWAP1 POP SWAP2 SWAP1 POP JUMP JUMPDEST PUSH1 0x0 PUSH1 0x20 DUP3 ADD SWAP1 POP DUP2 DUP2 SUB PUSH1 0x0 DUP4 ADD MSTORE PUSH2 0x4FA2 DUP2 PUSH2 0x4F66 JUMP JUMPDEST SWAP1 POP SWAP2 SWAP1 POP JUMP JUMPDEST PUSH1 0xA DUP2 LT PUSH2 0x4FB6 JUMPI PUSH1 0x0 DUP1 REVERT JUMPDEST POP JUMP JUMPDEST PUSH1 0x0 DUP2 CALLDATALOAD SWAP1 POP PUSH2 0x4FC8 DUP2 PUSH2 0x4FA9 JUMP JUMPDEST SWAP3 SWAP2 POP POP JUMP JUMPDEST PUSH1 0x0 PUSH1 0x20 DUP3 DUP5 SUB SLT ISZERO PUSH2 0x4FE4 JUMPI PUSH2 0x4FE3 PUSH2 0x33D7 JUMP JUMPDEST JUMPDEST PUSH1 0x0 PUSH2 0x4FF2 DUP5 DUP3 DUP6 ADD PUSH2 0x4FB9 JUMP JUMPDEST SWAP2 POP POP SWAP3 SWAP2 POP POP JUMP JUMPDEST PUSH2 0x5004 DUP2 PUSH2 0x3573 JUMP JUMPDEST DUP2 EQ PUSH2 0x500F JUMPI PUSH1 0x0 DUP1 REVERT JUMPDEST POP JUMP JUMPDEST PUSH1 0x0 DUP2 CALLDATALOAD SWAP1 POP PUSH2 0x5021 DUP2 PUSH2 0x4FFB JUMP JUMPDEST SWAP3 SWAP2 POP POP JUMP JUMPDEST PUSH1 0x0 PUSH1 0x20 DUP3 DUP5 SUB SLT ISZERO PUSH2 0x503D JUMPI PUSH2 0x503C PUSH2 0x33D7 JUMP JUMPDEST JUMPDEST PUSH1 0x0 PUSH2 0x504B DUP5 DUP3 DUP6 ADD PUSH2 0x5012 JUMP JUMPDEST SWAP2 POP POP SWAP3 SWAP2 POP POP JUMP JUMPDEST PUSH32 0x4E657750726F636573733A2063656E737573206F726967696E20434120726571 PUSH1 0x0 DUP3 ADD MSTORE PUSH32 0x7569726573206E6F6E2D616E6F6E796D6F757320656E76656C6F706520747970 PUSH1 0x20 DUP3 ADD MSTORE PUSH32 0x6500000000000000000000000000000000000000000000000000000000000000 PUSH1 0x40 DUP3 ADD MSTORE POP JUMP JUMPDEST PUSH1 0x0 PUSH2 0x50D6 PUSH1 0x41 DUP4 PUSH2 0x34EE JUMP JUMPDEST SWAP2 POP PUSH2 0x50E1 DUP3 PUSH2 0x5054 JUMP JUMPDEST PUSH1 0x60 DUP3 ADD SWAP1 POP SWAP2 SWAP1 POP JUMP JUMPDEST PUSH1 0x0 PUSH1 0x20 DUP3 ADD SWAP1 POP DUP2 DUP2 SUB PUSH1 0x0 DUP4 ADD MSTORE PUSH2 0x5105 DUP2 PUSH2 0x50C9 JUMP JUMPDEST SWAP1 POP SWAP2 SWAP1 POP JUMP JUMPDEST PUSH32 0x4E657750726F636573733A206D6178436F756E74206D75737420626520312066 PUSH1 0x0 DUP3 ADD MSTORE PUSH32 0x6F72204661726361737465720000000000000000000000000000000000000000 PUSH1 0x20 DUP3 ADD MSTORE POP JUMP JUMPDEST PUSH1 0x0 PUSH2 0x5168 PUSH1 0x2C DUP4 PUSH2 0x34EE JUMP JUMPDEST SWAP2 POP PUSH2 0x5173 DUP3 PUSH2 0x510C JUMP JUMPDEST PUSH1 0x40 DUP3 ADD SWAP1 POP SWAP2 SWAP1 POP JUMP JUMPDEST PUSH1 0x0 PUSH1 0x20 DUP3 ADD SWAP1 POP DUP2 DUP2 SUB PUSH1 0x0 DUP4 ADD MSTORE PUSH2 0x5197 DUP2 PUSH2 0x515B JUMP JUMPDEST SWAP1 POP SWAP2 SWAP1 POP JUMP JUMPDEST PUSH32 0x4E657750726F636573733A2063656E737573206F726967696E20466172636173 PUSH1 0x0 DUP3 ADD MSTORE PUSH32 0x746572207265717569726573206E6F6E2D616E6F6E796D6F757320656E76656C PUSH1 0x20 DUP3 ADD MSTORE PUSH32 0x6F70652074797065000000000000000000000000000000000000000000000000 PUSH1 0x40 DUP3 ADD MSTORE POP JUMP JUMPDEST PUSH1 0x0 PUSH2 0x5220 PUSH1 0x48 DUP4 PUSH2 0x34EE JUMP JUMPDEST SWAP2 POP PUSH2 0x522B DUP3 PUSH2 0x519E JUMP JUMPDEST PUSH1 0x60 DUP3 ADD SWAP1 POP SWAP2 SWAP1 POP JUMP JUMPDEST PUSH1 0x0 PUSH1 0x20 DUP3 ADD SWAP1 POP DUP2 DUP2 SUB PUSH1 0x0 DUP4 ADD MSTORE PUSH2 0x524F DUP2 PUSH2 0x5213 JUMP JUMPDEST SWAP1 POP SWAP2 SWAP1 POP JUMP JUMPDEST PUSH32 0x4E657750726F636573733A2063656E737573206F726967696E20466172636173 PUSH1 0x0 DUP3 ADD MSTORE PUSH32 0x746572207265717569726573206E6F6E2D656E6372797074656420656E76656C PUSH1 0x20 DUP3 ADD MSTORE PUSH32 0x6F70652074797065000000000000000000000000000000000000000000000000 PUSH1 0x40 DUP3 ADD MSTORE POP JUMP JUMPDEST PUSH1 0x0 PUSH2 0x52D8 PUSH1 0x48 DUP4 PUSH2 0x34EE JUMP JUMPDEST SWAP2 POP PUSH2 0x52E3 DUP3 PUSH2 0x5256 JUMP JUMPDEST PUSH1 0x60 DUP3 ADD SWAP1 POP SWAP2 SWAP1 POP JUMP JUMPDEST PUSH1 0x0 PUSH1 0x20 DUP3 ADD SWAP1 POP DUP2 DUP2 SUB PUSH1 0x0 DUP4 ADD MSTORE PUSH2 0x5307 DUP2 PUSH2 0x52CB JUMP JUMPDEST SWAP1 POP SWAP2 SWAP1 POP JUMP JUMPDEST PUSH32 0x4E657750726F636573733A20696E76616C696420737461727454696D65000000 PUSH1 0x0 DUP3 ADD MSTORE POP JUMP JUMPDEST PUSH1 0x0 PUSH2 0x5344 PUSH1 0x1D DUP4 PUSH2 0x34EE JUMP JUMPDEST SWAP2 POP PUSH2 0x534F DUP3 PUSH2 0x530E JUMP JUMPDEST PUSH1 0x20 DUP3 ADD SWAP1 POP SWAP2 SWAP1 POP JUMP JUMPDEST PUSH1 0x0 PUSH1 0x20 DUP3 ADD SWAP1 POP DUP2 DUP2 SUB PUSH1 0x0 DUP4 ADD MSTORE PUSH2 0x5373 DUP2 PUSH2 0x5337 JUMP JUMPDEST SWAP1 POP SWAP2 SWAP1 POP JUMP JUMPDEST PUSH32 0x4E487B7100000000000000000000000000000000000000000000000000000000 PUSH1 0x0 MSTORE PUSH1 0x11 PUSH1 0x4 MSTORE PUSH1 0x24 PUSH1 0x0 REVERT JUMPDEST PUSH1 0x0 PUSH2 0x53B4 DUP3 PUSH2 0x34CA JUMP JUMPDEST SWAP2 POP PUSH2 0x53BF DUP4 PUSH2 0x34CA JUMP JUMPDEST SWAP3 POP DUP3 DUP3 ADD SWAP1 POP DUP1 DUP3 GT ISZERO PUSH2 0x53D7 JUMPI PUSH2 0x53D6 PUSH2 0x537A JUMP JUMPDEST JUMPDEST SWAP3 SWAP2 POP POP JUMP JUMPDEST PUSH32 0x4E657750726F636573733A20696E76616C6964206475726174696F6E00000000 PUSH1 0x0 DUP3 ADD MSTORE POP JUMP JUMPDEST PUSH1 0x0 PUSH2 0x5413 PUSH1 0x1C DUP4 PUSH2 0x34EE JUMP JUMPDEST SWAP2 POP PUSH2 0x541E DUP3 PUSH2 0x53DD JUMP JUMPDEST PUSH1 0x20 DUP3 ADD SWAP1 POP SWAP2 SWAP1 POP JUMP JUMPDEST PUSH1 0x0 PUSH1 0x20 DUP3 ADD SWAP1 POP DUP2 DUP2 SUB PUSH1 0x0 DUP4 ADD MSTORE PUSH2 0x5442 DUP2 PUSH2 0x5406 JUMP JUMPDEST SWAP1 POP SWAP2 SWAP1 POP JUMP JUMPDEST PUSH32 0x4E657750726F636573733A2073657269616C20656E76656C6F70652074797065 PUSH1 0x0 DUP3 ADD MSTORE PUSH32 0x206E6F7420696D706C656D656E74656400000000000000000000000000000000 PUSH1 0x20 DUP3 ADD MSTORE POP JUMP JUMPDEST PUSH1 0x0 PUSH2 0x54A5 PUSH1 0x30 DUP4 PUSH2 0x34EE JUMP JUMPDEST SWAP2 POP PUSH2 0x54B0 DUP3 PUSH2 0x5449 JUMP JUMPDEST PUSH1 0x40 DUP3 ADD SWAP1 POP SWAP2 SWAP1 POP JUMP JUMPDEST PUSH1 0x0 PUSH1 0x20 DUP3 ADD SWAP1 POP DUP2 DUP2 SUB PUSH1 0x0 DUP4 ADD MSTORE PUSH2 0x54D4 DUP2 PUSH2 0x5498 JUMP JUMPDEST SWAP1 POP SWAP2 SWAP1 POP JUMP JUMPDEST PUSH32 0x4E657750726F636573733A206E6F7420616E2061646D696E6973747261746F72 PUSH1 0x0 DUP3 ADD MSTORE POP JUMP JUMPDEST PUSH1 0x0 PUSH2 0x5511 PUSH1 0x20 DUP4 PUSH2 0x34EE JUMP JUMPDEST SWAP2 POP PUSH2 0x551C DUP3 PUSH2 0x54DB JUMP JUMPDEST PUSH1 0x20 DUP3 ADD SWAP1 POP SWAP2 SWAP1 POP JUMP JUMPDEST PUSH1 0x0 PUSH1 0x20 DUP3 ADD SWAP1 POP DUP2 DUP2 SUB PUSH1 0x0 DUP4 ADD MSTORE PUSH2 0x5540 DUP2 PUSH2 0x5504 JUMP JUMPDEST SWAP1 POP SWAP2 SWAP1 POP JUMP JUMPDEST PUSH32 0x4E657750726F636573733A2070726F6365737320616C72656164792065786973 PUSH1 0x0 DUP3 ADD MSTORE PUSH32 0x7473000000000000000000000000000000000000000000000000000000000000 PUSH1 0x20 DUP3 ADD MSTORE POP JUMP JUMPDEST PUSH1 0x0 PUSH2 0x55A3 PUSH1 0x22 DUP4 PUSH2 0x34EE JUMP JUMPDEST SWAP2 POP PUSH2 0x55AE DUP3 PUSH2 0x5547 JUMP JUMPDEST PUSH1 0x40 DUP3 ADD SWAP1 POP SWAP2 SWAP1 POP JUMP JUMPDEST PUSH1 0x0 PUSH1 0x20 DUP3 ADD SWAP1 POP DUP2 DUP2 SUB PUSH1 0x0 DUP4 ADD MSTORE PUSH2 0x55D2 DUP2 PUSH2 0x5596 JUMP JUMPDEST SWAP1 POP SWAP2 SWAP1 POP JUMP JUMPDEST PUSH1 0x0 DUP1 REVERT JUMPDEST PUSH1 0x0 DUP1 REVERT JUMPDEST PUSH1 0x0 DUP2 CALLDATALOAD SWAP1 POP PUSH2 0x55F2 DUP2 PUSH2 0x45DC JUMP JUMPDEST SWAP3 SWAP2 POP POP JUMP JUMPDEST PUSH1 0x0 PUSH2 0x100 DUP3 DUP5 SUB SLT ISZERO PUSH2 0x560F JUMPI PUSH2 0x560E PUSH2 0x55D9 JUMP JUMPDEST JUMPDEST PUSH2 0x561A PUSH2 0x100 PUSH2 0x393F JUMP JUMPDEST SWAP1 POP PUSH1 0x0 PUSH2 0x562A DUP5 DUP3 DUP6 ADD PUSH2 0x55E3 JUMP JUMPDEST PUSH1 0x0 DUP4 ADD MSTORE POP PUSH1 0x20 PUSH2 0x563E DUP5 DUP3 DUP6 ADD PUSH2 0x429D JUMP JUMPDEST PUSH1 0x20 DUP4 ADD MSTORE POP PUSH1 0x40 PUSH2 0x5652 DUP5 DUP3 DUP6 ADD PUSH2 0x429D JUMP JUMPDEST PUSH1 0x40 DUP4 ADD MSTORE POP PUSH1 0x60 PUSH2 0x5666 DUP5 DUP3 DUP6 ADD PUSH2 0x429D JUMP JUMPDEST PUSH1 0x60 DUP4 ADD MSTORE POP PUSH1 0x80 PUSH2 0x567A DUP5 DUP3 DUP6 ADD PUSH2 0x429D JUMP JUMPDEST PUSH1 0x80 DUP4 ADD MSTORE POP PUSH1 0xA0 PUSH2 0x568E DUP5 DUP3 DUP6 ADD PUSH2 0x429D JUMP JUMPDEST PUSH1 0xA0 DUP4 ADD MSTORE POP PUSH1 0xC0 PUSH2 0x56A2 DUP5 DUP3 DUP6 ADD PUSH2 0x429D JUMP JUMPDEST PUSH1 0xC0 DUP4 ADD MSTORE POP PUSH1 0xE0 PUSH2 0x56B6 DUP5 DUP3 DUP6 ADD PUSH2 0x429D JUMP JUMPDEST PUSH1 0xE0 DUP4 ADD MSTORE POP SWAP3 SWAP2 POP POP JUMP JUMPDEST PUSH1 0x0 PUSH2 0x1A0 DUP3 DUP5 SUB SLT ISZERO PUSH2 0x56D9 JUMPI PUSH2 0x56D8 PUSH2 0x55D9 JUMP JUMPDEST JUMPDEST PUSH2 0x56E3 PUSH1 0xC0 PUSH2 0x393F JUMP JUMPDEST SWAP1 POP PUSH1 0x0 PUSH2 0x56F3 DUP5 DUP3 DUP6 ADD PUSH2 0x5012 JUMP JUMPDEST PUSH1 0x0 DUP4 ADD MSTORE POP PUSH1 0x20 PUSH2 0x5707 DUP5 DUP3 DUP6 ADD PUSH2 0x5012 JUMP JUMPDEST PUSH1 0x20 DUP4 ADD MSTORE POP PUSH1 0x40 PUSH2 0x571B DUP5 DUP3 DUP6 ADD PUSH2 0x429D JUMP JUMPDEST PUSH1 0x40 DUP4 ADD MSTORE POP PUSH1 0x60 PUSH2 0x572F DUP5 DUP3 DUP6 ADD PUSH2 0x429D JUMP JUMPDEST PUSH1 0x60 DUP4 ADD MSTORE POP PUSH1 0x80 PUSH2 0x5743 DUP5 DUP3 DUP6 ADD PUSH2 0x3A91 JUMP JUMPDEST PUSH1 0x80 DUP4 ADD MSTORE POP PUSH1 0xA0 PUSH2 0x5757 DUP5 DUP3 DUP6 ADD PUSH2 0x55F8 JUMP JUMPDEST PUSH1 0xA0 DUP4 ADD MSTORE POP SWAP3 SWAP2 POP POP JUMP JUMPDEST PUSH1 0x0 PUSH2 0x1A0 DUP3 DUP5 SUB SLT ISZERO PUSH2 0x577A JUMPI PUSH2 0x5779 PUSH2 0x33D7 JUMP JUMPDEST JUMPDEST PUSH1 0x0 PUSH2 0x5788 DUP5 DUP3 DUP6 ADD PUSH2 0x56C2 JUMP JUMPDEST SWAP2 POP POP SWAP3 SWAP2 POP POP JUMP JUMPDEST PUSH1 0x0 PUSH8 0xFFFFFFFFFFFFFFFF DUP3 GT ISZERO PUSH2 0x57AC JUMPI PUSH2 0x57AB PUSH2 0x38DF JUMP JUMPDEST JUMPDEST PUSH2 0x57B5 DUP3 PUSH2 0x3529 JUMP JUMPDEST SWAP1 POP PUSH1 0x20 DUP2 ADD SWAP1 POP SWAP2 SWAP1 POP JUMP JUMPDEST PUSH1 0x0 PUSH2 0x57D5 PUSH2 0x57D0 DUP5 PUSH2 0x5791 JUMP JUMPDEST PUSH2 0x393F JUMP JUMPDEST SWAP1 POP DUP3 DUP2 MSTORE PUSH1 0x20 DUP2 ADD DUP5 DUP5 DUP5 ADD GT ISZERO PUSH2 0x57F1 JUMPI PUSH2 0x57F0 PUSH2 0x38DA JUMP JUMPDEST JUMPDEST PUSH2 0x57FC DUP5 DUP3 DUP6 PUSH2 0x398B JUMP JUMPDEST POP SWAP4 SWAP3 POP POP POP JUMP JUMPDEST PUSH1 0x0 DUP3 PUSH1 0x1F DUP4 ADD SLT PUSH2 0x5819 JUMPI PUSH2 0x5818 PUSH2 0x38D5 JUMP JUMPDEST JUMPDEST DUP2 CALLDATALOAD PUSH2 0x5829 DUP5 DUP3 PUSH1 0x20 DUP7 ADD PUSH2 0x57C2 JUMP JUMPDEST SWAP2 POP POP SWAP3 SWAP2 POP POP JUMP JUMPDEST PUSH1 0x0 PUSH1 0x80 DUP3 DUP5 SUB SLT ISZERO PUSH2 0x5848 JUMPI PUSH2 0x5847 PUSH2 0x55D9 JUMP JUMPDEST JUMPDEST PUSH2 0x5852 PUSH1 0x80 PUSH2 0x393F JUMP JUMPDEST SWAP1 POP PUSH1 0x0 PUSH2 0x5862 DUP5 DUP3 DUP6 ADD PUSH2 0x4FB9 JUMP JUMPDEST PUSH1 0x0 DUP4 ADD MSTORE POP PUSH1 0x20 PUSH2 0x5876 DUP5 DUP3 DUP6 ADD PUSH2 0x429D JUMP JUMPDEST PUSH1 0x20 DUP4 ADD MSTORE POP PUSH1 0x40 PUSH2 0x588A DUP5 DUP3 DUP6 ADD PUSH2 0x3402 JUMP JUMPDEST PUSH1 0x40 DUP4 ADD MSTORE POP PUSH1 0x60 DUP3 ADD CALLDATALOAD PUSH8 0xFFFFFFFFFFFFFFFF DUP2 GT ISZERO PUSH2 0x58AE JUMPI PUSH2 0x58AD PUSH2 0x55DE JUMP JUMPDEST JUMPDEST PUSH2 0x58BA DUP5 DUP3 DUP6 ADD PUSH2 0x5804 JUMP JUMPDEST PUSH1 0x60 DUP4 ADD MSTORE POP SWAP3 SWAP2 POP POP JUMP JUMPDEST PUSH1 0x0 PUSH2 0x58D2 CALLDATASIZE DUP4 PUSH2 0x5832 JUMP JUMPDEST SWAP1 POP SWAP2 SWAP1 POP JUMP JUMPDEST PUSH2 0x58E2 DUP3 PUSH2 0x34E3 JUMP JUMPDEST PUSH8 0xFFFFFFFFFFFFFFFF DUP2 GT ISZERO PUSH2 0x58FB JUMPI PUSH2 0x58FA PUSH2 0x38DF JUMP JUMPDEST JUMPDEST PUSH2 0x5905 DUP3 SLOAD PUSH2 0x4582 JUMP JUMPDEST PUSH2 0x5910 DUP3 DUP3 DUP6 PUSH2 0x4C04 JUMP JUMPDEST PUSH1 0x0 PUSH1 0x20 SWAP1 POP PUSH1 0x1F DUP4 GT PUSH1 0x1 DUP2 EQ PUSH2 0x5943 JUMPI PUSH1 0x0 DUP5 ISZERO PUSH2 0x5931 JUMPI DUP3 DUP8 ADD MLOAD SWAP1 POP JUMPDEST PUSH2 0x593B DUP6 DUP3 PUSH2 0x4C75 JUMP JUMPDEST DUP7 SSTORE POP PUSH2 0x59A3 JUMP JUMPDEST PUSH1 0x1F NOT DUP5 AND PUSH2 0x5951 DUP7 PUSH2 0x4AE5 JUMP JUMPDEST PUSH1 0x0 JUMPDEST DUP3 DUP2 LT ISZERO PUSH2 0x5979 JUMPI DUP5 DUP10 ADD MLOAD DUP3 SSTORE PUSH1 0x1 DUP3 ADD SWAP2 POP PUSH1 0x20 DUP6 ADD SWAP5 POP PUSH1 0x20 DUP2 ADD SWAP1 POP PUSH2 0x5954 JUMP JUMPDEST DUP7 DUP4 LT ISZERO PUSH2 0x5996 JUMPI DUP5 DUP10 ADD MLOAD PUSH2 0x5992 PUSH1 0x1F DUP10 AND DUP3 PUSH2 0x4C57 JUMP JUMPDEST DUP4 SSTORE POP JUMPDEST PUSH1 0x1 PUSH1 0x2 DUP9 MUL ADD DUP9 SSTORE POP POP POP JUMPDEST POP POP POP POP POP POP JUMP JUMPDEST PUSH32 0x496E76616C69642073746174757320666F72207375626D697474696E67207374 PUSH1 0x0 DUP3 ADD MSTORE PUSH32 0x617465207472616E736974696F6E000000000000000000000000000000000000 PUSH1 0x20 DUP3 ADD MSTORE POP JUMP JUMPDEST PUSH1 0x0 PUSH2 0x5A07 PUSH1 0x2E DUP4 PUSH2 0x34EE JUMP JUMPDEST SWAP2 POP PUSH2 0x5A12 DUP3 PUSH2 0x59AB JUMP JUMPDEST PUSH1 0x40 DUP3 ADD SWAP1 POP SWAP2 SWAP1 POP JUMP JUMPDEST PUSH1 0x0 PUSH1 0x20 DUP3 ADD SWAP1 POP DUP2 DUP2 SUB PUSH1 0x0 DUP4 ADD MSTORE PUSH2 0x5A36 DUP2 PUSH2 0x59FA JUMP JUMPDEST SWAP1 POP SWAP2 SWAP1 POP JUMP JUMPDEST PUSH32 0x496E76616C6964206F6C6420726F6F7400000000000000000000000000000000 PUSH1 0x0 DUP3 ADD MSTORE POP JUMP JUMPDEST PUSH1 0x0 PUSH2 0x5A73 PUSH1 0x10 DUP4 PUSH2 0x34EE JUMP JUMPDEST SWAP2 POP PUSH2 0x5A7E DUP3 PUSH2 0x5A3D JUMP JUMPDEST PUSH1 0x20 DUP3 ADD SWAP1 POP SWAP2 SWAP1 POP JUMP JUMPDEST PUSH1 0x0 PUSH1 0x20 DUP3 ADD SWAP1 POP DUP2 DUP2 SUB PUSH1 0x0 DUP4 ADD MSTORE PUSH2 0x5AA2 DUP2 PUSH2 0x5A66 JUMP JUMPDEST SWAP1 POP SWAP2 SWAP1 POP JUMP JUMPDEST PUSH32 0x53657450726F636573734475726174696F6E3A206E6F7420616E2061646D696E PUSH1 0x0 DUP3 ADD MSTORE PUSH32 0x6973747261746F72000000000000000000000000000000000000000000000000 PUSH1 0x20 DUP3 ADD MSTORE POP JUMP JUMPDEST PUSH1 0x0 PUSH2 0x5B05 PUSH1 0x28 DUP4 PUSH2 0x34EE JUMP JUMPDEST SWAP2 POP PUSH2 0x5B10 DUP3 PUSH2 0x5AA9 JUMP JUMPDEST PUSH1 0x40 DUP3 ADD SWAP1 POP SWAP2 SWAP1 POP JUMP JUMPDEST PUSH1 0x0 PUSH1 0x20 DUP3 ADD SWAP1 POP DUP2 DUP2 SUB PUSH1 0x0 DUP4 ADD MSTORE PUSH2 0x5B34 DUP2 PUSH2 0x5AF8 JUMP JUMPDEST SWAP1 POP SWAP2 SWAP1 POP JUMP JUMPDEST PUSH32 0x496E76616C6964206475726174696F6E00000000000000000000000000000000 PUSH1 0x0 DUP3 ADD MSTORE POP JUMP JUMPDEST PUSH1 0x0 PUSH2 0x5B71 PUSH1 0x10 DUP4 PUSH2 0x34EE JUMP JUMPDEST SWAP2 POP PUSH2 0x5B7C DUP3 PUSH2 0x5B3B JUMP JUMPDEST PUSH1 0x20 DUP3 ADD SWAP1 POP SWAP2 SWAP1 POP JUMP JUMPDEST PUSH1 0x0 PUSH1 0x20 DUP3 ADD SWAP1 POP DUP2 DUP2 SUB PUSH1 0x0 DUP4 ADD MSTORE PUSH2 0x5BA0 DUP2 PUSH2 0x5B64 JUMP JUMPDEST SWAP1 POP SWAP2 SWAP1 POP JUMP JUMPDEST PUSH1 0x0 PUSH1 0x20 DUP3 ADD SWAP1 POP PUSH2 0x5BBC PUSH1 0x0 DUP4 ADD DUP5 PUSH2 0x34D4 JUMP JUMPDEST SWAP3 SWAP2 POP POP JUMP JUMPDEST PUSH32 0x50726F63657373206E6F7420656E646564000000000000000000000000000000 PUSH1 0x0 DUP3 ADD MSTORE POP JUMP JUMPDEST PUSH1 0x0 PUSH2 0x5BF8 PUSH1 0x11 DUP4 PUSH2 0x34EE JUMP JUMPDEST SWAP2 POP PUSH2 0x5C03 DUP3 PUSH2 0x5BC2 JUMP JUMPDEST PUSH1 0x20 DUP3 ADD SWAP1 POP SWAP2 SWAP1 POP JUMP JUMPDEST PUSH1 0x0 PUSH1 0x20 DUP3 ADD SWAP1 POP DUP2 DUP2 SUB PUSH1 0x0 DUP4 ADD MSTORE PUSH2 0x5C27 DUP2 PUSH2 0x5BEB JUMP JUMPDEST SWAP1 POP SWAP2 SWAP1 POP JUMP JUMPDEST PUSH32 0x656E6450726F636573733A206E6F7420616E2061646D696E6973747261746F72 PUSH1 0x0 DUP3 ADD MSTORE POP JUMP JUMPDEST PUSH1 0x0 PUSH2 0x5C64 PUSH1 0x20 DUP4 PUSH2 0x34EE JUMP JUMPDEST SWAP2 POP PUSH2 0x5C6F DUP3 PUSH2 0x5C2E JUMP JUMPDEST PUSH1 0x20 DUP3 ADD SWAP1 POP SWAP2 SWAP1 POP JUMP JUMPDEST PUSH1 0x0 PUSH1 0x20 DUP3 ADD SWAP1 POP DUP2 DUP2 SUB PUSH1 0x0 DUP4 ADD MSTORE PUSH2 0x5C93 DUP2 PUSH2 0x5C57 JUMP JUMPDEST SWAP1 POP SWAP2 SWAP1 POP JUMP JUMPDEST PUSH1 0x0 DUP2 MLOAD SWAP1 POP PUSH2 0x5CA9 DUP2 PUSH2 0x33EB JUMP JUMPDEST SWAP3 SWAP2 POP POP JUMP JUMPDEST PUSH1 0x0 PUSH1 0x20 DUP3 DUP5 SUB SLT ISZERO PUSH2 0x5CC5 JUMPI PUSH2 0x5CC4 PUSH2 0x33D7 JUMP JUMPDEST JUMPDEST PUSH1 0x0 PUSH2 0x5CD3 DUP5 DUP3 DUP6 ADD PUSH2 0x5C9A JUMP JUMPDEST SWAP2 POP POP SWAP3 SWAP2 POP POP JUMP JUMPDEST PUSH1 0x0 DUP2 MLOAD SWAP1 POP SWAP2 SWAP1 POP JUMP JUMPDEST PUSH1 0x0 DUP2 SWAP1 POP SWAP3 SWAP2 POP POP JUMP JUMPDEST PUSH1 0x0 PUSH2 0x5CFD DUP3 PUSH2 0x5CDC JUMP JUMPDEST PUSH2 0x5D07 DUP2 DUP6 PUSH2 0x5CE7 JUMP JUMPDEST SWAP4 POP PUSH2 0x5D17 DUP2 DUP6 PUSH1 0x20 DUP7 ADD PUSH2 0x34FF JUMP JUMPDEST DUP1 DUP5 ADD SWAP2 POP POP SWAP3 SWAP2 POP POP JUMP JUMPDEST PUSH1 0x0 PUSH2 0x5D2F DUP3 DUP5 PUSH2 0x5CF2 JUMP JUMPDEST SWAP2 POP DUP2 SWAP1 POP SWAP3 SWAP2 POP POP JUMP INVALID LOG2 PUSH5 0x6970667358 0x22 SLT KECCAK256 0xF9 0xE9 CALLCODE 0xFB AND 0xEA NUMBER CHAINID 0xF9 0xAF 0x21 STOP PUSH3 0x4C4E3C LOG0 0xEF DUP8 STATICCALL DIV 0x4E DUP5 SMOD SWAP6 0xE2 SWAP5 PUSH16 0xAECD54CF64736F6C6343000818003300 "},"methodIdentifiers":{"UPGRADE_INTERFACE_VERSION()":"ad3cb1cc","chainID()":"adc879e9","endProcess(bytes32)":"ea9bcaf6","getProcess(bytes32)":"992bc45b","initialize(string,address)":"7ab4339d","newProcess((uint8,uint8,uint256,uint256,uint8,(bool,uint256,uint256,uint256,uint256,uint256,uint256,uint256)),(uint8,uint256,bytes32,string),string,bytes32,bytes32,bytes32,bytes32)":"a96e8d2e","organizationRegistry()":"8cafab7f","owner()":"8da5cb5b","processCount()":"848df540","processes(bytes32)":"0535fece","proxiableUUID()":"52d1902d","renounceOwnership()":"715018a6","setProcessCensus(bytes32,(uint8,uint256,bytes32,string))":"6bae04ea","setProcessDuration(bytes32,uint256)":"c718c01f","setProcessResult(bytes32,uint256[][],bytes)":"ca0f925b","setProcessStatus(bytes32,uint8)":"56a6f1e2","submitStateTransition(bytes32,bytes32,bytes32,bytes)":"b66ba6eb","transferOwnership(address)":"f2fde38b","upgradeToAndCall(address,bytes)":"4f1ef286"}}}}}