{"src/verifiers/statetransition_vkey.sol":{"Verifier":{"abi":[{"inputs":[],"name":"CommitmentInvalid","type":"error"},{"inputs":[],"name":"ProofInvalid","type":"error"},{"inputs":[],"name":"PublicInputNotInField","type":"error"},{"inputs":[{"internalType":"uint256[8]","name":"proof","type":"uint256[8]"},{"internalType":"uint256[2]","name":"commitments","type":"uint256[2]"},{"internalType":"uint256[2]","name":"commitmentPok","type":"uint256[2]"}],"name":"compressProof","outputs":[{"internalType":"uint256[4]","name":"compressed","type":"uint256[4]"},{"internalType":"uint256[1]","name":"compressedCommitments","type":"uint256[1]"},{"internalType":"uint256","name":"compressedCommitmentPok","type":"uint256"}],"stateMutability":"view","type":"function"},{"inputs":[{"internalType":"uint256[4]","name":"compressedProof","type":"uint256[4]"},{"internalType":"uint256[1]","name":"compressedCommitments","type":"uint256[1]"},{"internalType":"uint256","name":"compressedCommitmentPok","type":"uint256"},{"internalType":"uint256[8]","name":"input","type":"uint256[8]"}],"name":"verifyCompressedProof","outputs":[],"stateMutability":"view","type":"function"},{"inputs":[{"internalType":"uint256[8]","name":"proof","type":"uint256[8]"},{"internalType":"uint256[2]","name":"commitments","type":"uint256[2]"},{"internalType":"uint256[2]","name":"commitmentPok","type":"uint256[2]"},{"internalType":"uint256[8]","name":"input","type":"uint256[8]"}],"name":"verifyProof","outputs":[],"stateMutability":"view","type":"function"}],"evm":{"bytecode":{"linkReferences":{},"object":"60808060405234601557611ae4908161001a8239f35b5f80fdfe60806040526004361015610011575f80fd5b5f3560e01c80639ed57f3214610b24578063b1c3a00e14610a135763e2dd9f471461003a575f80fd5b34610a0f576101c0366003190112610a0f5736608411610a0f573660a411610a0f57366101c411610a0f57604051602061007481836113a6565b80368337604080519061008781836113a6565b803683376103009381519261009c86856113a6565b853685376100ab6084356116eb565b8683015281526100bc60a4356116eb565b905f516020611a8f5f395f51905f5285516100d787826113a6565b6001815288610104818301601f198a01368237378451906101168a61010881890151938b51948593840196876113dc565b03601f1981018352826113a6565b5190200684528251865286830151878701527f23bc8cb504097d202ea09bd2aea624a719cc6e79fe90af6bc3fd4c0a1e9ab097858701527f0b02b98059c257fd1326f4c5b365493f9b775c20384134478e71ada4de007f6660608701527f23d9577dd9f5f4343bf1da54ce8d420b3f5c1f9d95af443d20302af62cd6c6ec60808701527f260164cea76f55be101d7b3f7cb403b8aa6fc20d6d7506d4990165ee76b96df060a087015260c086015260e08501527f0e93ef81472c729d657f37d2622ee71507c4f1fcc8b6e601c72c81df5a51d8616101008501527f1391a145991e05ce2e6ce102bc38b7b74f37911fdf8127325c0be3c82182f2af6101208501527f19ef0345ed7a9ea008dd3618bc94cd101058a697d0d546839429fde4dbb95cf56101408501527f07ca05fa460e47b2fba64bd20ba39af9d41994b9e8246b973e32221c9843c397610160850152825185816101808760085afa90511615610a005784906102866004356116eb565b610297602495929535604435611756565b92919093896102a76064356116eb565b9890977f087b036a7f03189723cb43a31657b173919f7bca7ced1b8d3b099a07fa99753783519b8c937f2ca6f83f92103ef3be5753400762b410492bbf32c73d47a769b67a858fb71e1685527f1c1f91365773138d69a9a9676e18f718b309070646ebc822cb086e81641839fe828601528051868601520151606084019081527f0765f71ed717e7c84a3ecc1779dd49751ad519b175bc4b6b2b905c6f825d3844858560808160065afa957f1ed5bd276b3b65f6c9e33552e2292b540aa2abdd123c3105ec40b33822ccfce4818701527f1abe536aad1fb09c88ac395c5c7f63c02d0522633cee4572d010e0bb36c249e58352600160c4356080880198818a525f516020611a8f5f395f51905f5284808b016060828d0160075afa92101616828860808160065afa16167f041b6b341c076caed6070df003012290f33e79bb2bc9640254c56993eb9867d1828801527f1e479315c30f1f95363dd1c23bdc3e5782c01cfb3224fc188c540e0378959733845260e435908189525f516020611a8f5f395f51905f5283808a016060828c0160075afa92101616818760808160065afa167f25dd26450fe3d09967cbfa355902cc3f52a221ea271b4e750410a5c839192c63828801527f2241acf0fd1ddae41332af2d70506d1d32bca5c9e3dc7fe66134b3f32cb495dd845261010435908189525f516020611a8f5f395f51905f5283808a016060828c0160075afa92101616818760808160065afa167f1116f93d35b6aa4d4792e8610cc13e7a73d1bb8dcdef2fb06e21ed260cadcc5f828801527f10e21474a1b55ff643a2d70bed556b06913a730071453fb6fdb1fdef4bfdee3f845261012435908189525f516020611a8f5f395f51905f5283808a016060828c0160075afa92101616818760808160065afa167f2baeaa61d471c2efe1d424a318d8436e6b5f68b7c2604021f7ef2ad371e5d302828801527f1c76a41e28f484297f7f54fede7f63b160b410a0e5916350814c15e3f312d0e4845261014435908189525f516020611a8f5f395f51905f5283808a016060828c0160075afa92101616818760808160065afa167f25722c1f753e11b11dde6d0a490ddd861462705e43790f416479f17596ba7781828801527f047a9a5103655c5e34eb224ccbdb30726a2d039720a06bf7f0ac747e53928d50845261016435908189525f516020611a8f5f395f51905f5283808a016060828c0160075afa92101616818760808160065afa167f1dd21c8fcd708b68c8a5133a22f3114f433cf29387dab359e15d566901061efc828801527f2e4f767ab8aac95b402eeda7bb5765ad3c9da740a751e06e766da4a605b03685845261018435908189525f516020611a8f5f395f51905f5283808a016060828c0160075afa92101616818760808160065afa167f0912a7ff0651bf2d909142d578ccc33658ec17ae0d79591365775d96624733e1828801527f2fd6c51d28ac58048562463c92c252573077b99ae1596e7f2ebf08967a40cbbd84526101a435908189525f516020611a8f5f395f51905f5283808a016060828c0160075afa92101616818760808160065afa1695015252518092525f516020611a8f5f395f51905f528c8b606082808301920160075afa921016168a8960808160065afa16988c895199015199156109f1578b528b8b0152888a01526060890152608088015260a087015260c086015260e08501527f133a51dc7be45819ad2923bddc35f3a2cd3395b96f9757fbb5ef2650ca89de9a6101008501527f0c3ebde9200619ea42dfbde8c913350fb13fdda8cf8661fa8adf21d0af37d1eb6101208501527f0b3f50033b1192ce517458a61be1f9260ec95afe217a40b5255faddc9a2d4d1c6101408501527f22cce4c296240cbc6fe0ad489785cac469f006d9a0ecee54ceec3a4f14ababe76101608501527f1e94c07cb6c18a449303600aaae159a571d5622abe719675ae3155f0887eafdc6101808501527f16608401fe677162d0f8d4652f1c8d145921cca6d7c223e24ea3f7a962133bc46101a08501527f1af5cede47639ab4070a00d25717a6273cfe55b8b83acf5128fa488b3d61df766101c08501527f12d429ffdcd3d15faacf972a9c465dbbaddbca2ba99cc57e49904ad0f66a738f6101e08501527f1e39a1df85fcff7c76404ea857e874c8f97a8aaf62c023c021711862724a44f46102008501527f2f53ddaaf2aee22e360cd67c67b219ea13a6babef67913ae74b67b87400d5cf46102208501526102408401526102608301527f286a4baaa7c158e33391947f662299438d932546a192479f4f648b559a4a82b36102808301527f1b1195288a0b36ff9fb17d409bf69f5345c3a6bc1506480810adaf39e3bf47066102a08301527f2ad640cc38d797495b0fd71f40dfeac4a918eba43bfeee46c7aba78154fe50166102c08301527f2e69de7b0ce84c88de55dbb171348d4a1cb0d40e4c4eaddd17b44001a51f141b6102e0830152519283916109bd84846113a6565b8336843760085afa159081156109e4575b506109d557005b631ff3747d60e21b5f5260045ffd5b600191505114155f6109ce565b63a54f8e2760e01b5f5260045ffd5b6351d49ff760e11b5f5260045ffd5b5f80fd5b34610a0f57610180366003190112610a0f573661010411610a0f573661014411610a0f573661018411610a0f57604051610a4e6080826113a6565b6080368237604051906020610a6381846113a6565b80368437610a75602435600435611416565b8252610a8b60843560a4356044356064356114b7565b828401526040830152610aa260e43560c435611416565b6060830152610ab76101243561010435611416565b8352610ac96101643561014435611416565b9060405192835f905b60048210610b0e575050506080830193905f945b60018610610af95760c0858560a0820152f35b81806001928551815201930195019491610ae6565b8251815291830191600191909101908301610ad2565b34610a0f57610280366003190112610a0f573661010411610a0f573661014411610a0f573661018411610a0f573661028411610a0f576040516020610b6981836113a6565b803683376040915f516020611a8f5f395f51905f528351610b8a85826113a6565b60018152836101c4818301601f198801368237378451610bb981610108878201946101243561010435876113dc565b51902006815282518361010482377f23bc8cb504097d202ea09bd2aea624a719cc6e79fe90af6bc3fd4c0a1e9ab097848201527f0b02b98059c257fd1326f4c5b365493f9b775c20384134478e71ada4de007f6660608201527f23d9577dd9f5f4343bf1da54ce8d420b3f5c1f9d95af443d20302af62cd6c6ec60808201527f260164cea76f55be101d7b3f7cb403b8aa6fc20d6d7506d4990165ee76b96df060a08201528361014460c08301377f0e93ef81472c729d657f37d2622ee71507c4f1fcc8b6e601c72c81df5a51d8616101008201527f1391a145991e05ce2e6ce102bc38b7b74f37911fdf8127325c0be3c82182f2af6101208201527f19ef0345ed7a9ea008dd3618bc94cd101058a697d0d546839429fde4dbb95cf56101408201527f07ca05fa460e47b2fba64bd20ba39af9d41994b9e8246b973e32221c9843c39761016082015282816101808160085afa90511615610a0057825192610d2281856113a6565b61010483855b6101448310611396575050508051918183017f2ca6f83f92103ef3be5753400762b410492bbf32c73d47a769b67a858fb71e1684525f516020611a8f5f395f51905f528386808701987f1c1f91365773138d69a9a9676e18f718b309070646ebc822cb086e81641839fe8a528051855201519260608701938452818760808160065afa947f1ed5bd276b3b65f6c9e33552e2292b540aa2abdd123c3105ec40b33822ccfce482527f1abe536aad1fb09c88ac395c5c7f63c02d0522633cee4572d010e0bb36c249e585527f087b036a7f03189723cb43a31657b173919f7bca7ced1b8d3b099a07fa99753760016101843560808b0198818a5287878760608160075afa92101616858b60808160065afa16167f041b6b341c076caed6070df003012290f33e79bb2bc9640254c56993eb9867d184527f1e479315c30f1f95363dd1c23bdc3e5782c01cfb3224fc188c540e037895973387526101a4359081895286868660608160075afa92101616848a60808160065afa167f25dd26450fe3d09967cbfa355902cc3f52a221ea271b4e750410a5c839192c6384527f2241acf0fd1ddae41332af2d70506d1d32bca5c9e3dc7fe66134b3f32cb495dd87526101c4359081895286868660608160075afa92101616848a60808160065afa167f1116f93d35b6aa4d4792e8610cc13e7a73d1bb8dcdef2fb06e21ed260cadcc5f84527f10e21474a1b55ff643a2d70bed556b06913a730071453fb6fdb1fdef4bfdee3f87526101e4359081895286868660608160075afa92101616848a60808160065afa167f2baeaa61d471c2efe1d424a318d8436e6b5f68b7c2604021f7ef2ad371e5d30284527f1c76a41e28f484297f7f54fede7f63b160b410a0e5916350814c15e3f312d0e48752610204359081895286868660608160075afa92101616848a60808160065afa167f25722c1f753e11b11dde6d0a490ddd861462705e43790f416479f17596ba778184527f047a9a5103655c5e34eb224ccbdb30726a2d039720a06bf7f0ac747e53928d508752610224359081895286868660608160075afa92101616848a60808160065afa167f1dd21c8fcd708b68c8a5133a22f3114f433cf29387dab359e15d566901061efc84527f2e4f767ab8aac95b402eeda7bb5765ad3c9da740a751e06e766da4a605b036858752610244359081895286868660608160075afa92101616848a60808160065afa167f0912a7ff0651bf2d909142d578ccc33658ec17ae0d79591365775d96624733e184527f2fd6c51d28ac58048562463c92c252573077b99ae1596e7f2ebf08967a40cbbd8752610264359081895286868660608160075afa92101616848a60808160065afa16957f0765f71ed717e7c84a3ecc1779dd49751ad519b175bc4b6b2b905c6f825d38448452525180955260608160075afa92101616818360808160065afa169151935191156109f1575192610100600485377f133a51dc7be45819ad2923bddc35f3a2cd3395b96f9757fbb5ef2650ca89de9a6101008501527f0c3ebde9200619ea42dfbde8c913350fb13fdda8cf8661fa8adf21d0af37d1eb6101208501527f0b3f50033b1192ce517458a61be1f9260ec95afe217a40b5255faddc9a2d4d1c6101408501527f22cce4c296240cbc6fe0ad489785cac469f006d9a0ecee54ceec3a4f14ababe76101608501527f1e94c07cb6c18a449303600aaae159a571d5622abe719675ae3155f0887eafdc6101808501527f16608401fe677162d0f8d4652f1c8d145921cca6d7c223e24ea3f7a962133bc46101a08501527f1af5cede47639ab4070a00d25717a6273cfe55b8b83acf5128fa488b3d61df766101c08501527f12d429ffdcd3d15faacf972a9c465dbbaddbca2ba99cc57e49904ad0f66a738f6101e08501527f1e39a1df85fcff7c76404ea857e874c8f97a8aaf62c023c021711862724a44f46102008501527f2f53ddaaf2aee22e360cd67c67b219ea13a6babef67913ae74b67b87400d5cf46102208501526102408401526102608301527f286a4baaa7c158e33391947f662299438d932546a192479f4f648b559a4a82b36102808301527f1b1195288a0b36ff9fb17d409bf69f5345c3a6bc1506480810adaf39e3bf47066102a08301527f2ad640cc38d797495b0fd71f40dfeac4a918eba43bfeee46c7aba78154fe50166102c08301527f2e69de7b0ce84c88de55dbb171348d4a1cb0d40e4c4eaddd17b44001a51f141b6102e0830152816103008160085afa905116156109d557005b8235815291810191859101610d28565b90601f8019910116810190811067ffffffffffffffff8211176113c857604052565b634e487b7160e01b5f52604160045260245ffd5b9091604092825260208201520160208251919201905f5b8181106114005750505090565b82518452602093840193909201916001016113f3565b905f516020611a6f5f395f51905f5282108015906114a0575b6109d557811580611498575b6114925761145f5f516020611a6f5f395f51905f526003818581818009090861188f565b81810361146e57505060011b90565b5f516020611a6f5f395f51905f52809106810306145f146109d557600190811b1790565b50505f90565b50801561143b565b505f516020611a6f5f395f51905f5281101561142f565b919093925f516020611a6f5f395f51905f5283108015906116d4575b80156116bd575b80156116a6575b6109d557808286851717171561169b579082916115fe5f516020611a6f5f395f51905f5280808080888180808f9d7f30644e72e131a029b85045b68181585d97816a916871ca8d3c208c16d87cfd448f839290839109099d8e0981848181800909087f2b149d40ceb8aaae81be18991be06ac3b5b4c5e559dbefa33267e6dc24a138e5089a09818c8181800909087f2fcd3ac2a640a154eb23960892a85a68f031ca0c8344b23a577dcf1052b9e7750806810306945f516020611a6f5f395f51905f527f183227397098d014dc2822db40c0ac2ecbc0b548b438e5469e10460b6c3e7ea4816115d881808b8009818780090861188f565b8408095f516020611a6f5f395f51905f526115f282611a06565b800914159586916118b2565b929080821480611692575b156116305750505050905f146116285760ff60025b169060021b179190565b60ff5f61161e565b5f516020611a6f5f395f51905f52809106810306149182611673575b5050156109d5576001911561166b5760ff60025b169060021b17179190565b60ff5f611660565b5f516020611a6f5f395f51905f52919250819006810306145f8061164c565b50838314611609565b50505090505f905f90565b505f516020611a6f5f395f51905f528110156114e1565b505f516020611a6f5f395f51905f528210156114da565b505f516020611a6f5f395f51905f528510156114d3565b801561174f578060011c915f516020611a6f5f395f51905f528310156109d55760018061172e5f516020611a6f5f395f51905f526003818881818009090861188f565b93161461173757565b905f516020611a6f5f395f51905f5280910681030690565b505f905f90565b801580611887575b61187b578060021c92825f516020611a6f5f395f51905f528510801590611864575b6109d55784815f516020611a6f5f395f51905f5280808080808080807f30644e72e131a029b85045b68181585d97816a916871ca8d3c208c16d87cfd448161182e9d8d0909998a0981898181800909087f2fcd3ac2a640a154eb23960892a85a68f031ca0c8344b23a577dcf1052b9e7750806810306936002808a16149509818a8181800909087f2b149d40ceb8aaae81be18991be06ac3b5b4c5e559dbefa33267e6dc24a138e5086118b2565b80929160018082961614611840575050565b5f516020611a6f5f395f51905f528093945080929550809106810306930681030690565b505f516020611a6f5f395f51905f52811015611780565b50505f905f905f905f90565b50811561175e565b9061189982611a06565b915f516020611a6f5f395f51905f52838009036109d557565b915f516020611a6f5f395f51905f527f183227397098d014dc2822db40c0ac2ecbc0b548b438e5469e10460b6c3e7ea48161190a939694966118fc82808a8009818a80090861188f565b906119fa575b86080961188f565b925f516020611a6f5f395f51905f52600285096040519060208252602080830152602060408301528060608301527f30644e72e131a029b85045b68181585d97816a916871ca8d3c208c16d87cfd4560808301525f516020611a6f5f395f51905f5260a083015260208260c08160055afa915191156109d5575f516020611a6f5f395f51905f528260019209036109d5575f516020611a6f5f395f51905f52908209925f516020611a6f5f395f51905f5280808087800906810306818780090814908115916119db575b506109d557565b90505f516020611a6f5f395f51905f528084860960020914155f6119d4565b81809106810306611902565b9060405191602083526020808401526020604084015260608301527f0c19139cb84c680a6e14116da060561765e05aa45a1c72a34f082305b61f3f5260808301525f516020611a6f5f395f51905f5260a083015260208260c08160055afa915191156109d55756fe30644e72e131a029b85045b68181585d97816a916871ca8d3c208c16d87cfd4730644e72e131a029b85045b68181585d2833e84879b9709143e1f593f0000001a2646970667358221220c25d24f90461147f3cfa7ee20519f6803b046e8651fff117fa50b3ec05a20ca264736f6c634300081c0033","opcodes":"PUSH1 0x80 DUP1 PUSH1 0x40 MSTORE CALLVALUE PUSH1 0x15 JUMPI PUSH2 0x1AE4 SWAP1 DUP2 PUSH2 0x1A DUP3 CODECOPY RETURN JUMPDEST PUSH0 DUP1 REVERT INVALID PUSH1 0x80 PUSH1 0x40 MSTORE PUSH1 0x4 CALLDATASIZE LT ISZERO PUSH2 0x11 JUMPI PUSH0 DUP1 REVERT JUMPDEST PUSH0 CALLDATALOAD PUSH1 0xE0 SHR DUP1 PUSH4 0x9ED57F32 EQ PUSH2 0xB24 JUMPI DUP1 PUSH4 0xB1C3A00E EQ PUSH2 0xA13 JUMPI PUSH4 0xE2DD9F47 EQ PUSH2 0x3A JUMPI PUSH0 DUP1 REVERT JUMPDEST CALLVALUE PUSH2 0xA0F JUMPI PUSH2 0x1C0 CALLDATASIZE PUSH1 0x3 NOT ADD SLT PUSH2 0xA0F JUMPI CALLDATASIZE PUSH1 0x84 GT PUSH2 0xA0F JUMPI CALLDATASIZE PUSH1 0xA4 GT PUSH2 0xA0F JUMPI CALLDATASIZE PUSH2 0x1C4 GT PUSH2 0xA0F JUMPI PUSH1 0x40 MLOAD PUSH1 0x20 PUSH2 0x74 DUP2 DUP4 PUSH2 0x13A6 JUMP JUMPDEST DUP1 CALLDATASIZE DUP4 CALLDATACOPY PUSH1 0x40 DUP1 MLOAD SWAP1 PUSH2 0x87 DUP2 DUP4 PUSH2 0x13A6 JUMP JUMPDEST DUP1 CALLDATASIZE DUP4 CALLDATACOPY PUSH2 0x300 SWAP4 DUP2 MLOAD SWAP3 PUSH2 0x9C DUP7 DUP6 PUSH2 0x13A6 JUMP JUMPDEST DUP6 CALLDATASIZE DUP6 CALLDATACOPY PUSH2 0xAB PUSH1 0x84 CALLDATALOAD PUSH2 0x16EB JUMP JUMPDEST DUP7 DUP4 ADD MSTORE DUP2 MSTORE PUSH2 0xBC PUSH1 0xA4 CALLDATALOAD PUSH2 0x16EB JUMP JUMPDEST SWAP1 PUSH0 MLOAD PUSH1 0x20 PUSH2 0x1A8F PUSH0 CODECOPY PUSH0 MLOAD SWAP1 PUSH0 MSTORE DUP6 MLOAD PUSH2 0xD7 DUP8 DUP3 PUSH2 0x13A6 JUMP JUMPDEST PUSH1 0x1 DUP2 MSTORE DUP9 PUSH2 0x104 DUP2 DUP4 ADD PUSH1 0x1F NOT DUP11 ADD CALLDATASIZE DUP3 CALLDATACOPY CALLDATACOPY DUP5 MLOAD SWAP1 PUSH2 0x116 DUP11 PUSH2 0x108 DUP2 DUP10 ADD MLOAD SWAP4 DUP12 MLOAD SWAP5 DUP6 SWAP4 DUP5 ADD SWAP7 DUP8 PUSH2 0x13DC JUMP JUMPDEST SUB PUSH1 0x1F NOT DUP2 ADD DUP4 MSTORE DUP3 PUSH2 0x13A6 JUMP JUMPDEST MLOAD SWAP1 KECCAK256 MOD DUP5 MSTORE DUP3 MLOAD DUP7 MSTORE DUP7 DUP4 ADD MLOAD DUP8 DUP8 ADD MSTORE PUSH32 0x23BC8CB504097D202EA09BD2AEA624A719CC6E79FE90AF6BC3FD4C0A1E9AB097 DUP6 DUP8 ADD MSTORE PUSH32 0xB02B98059C257FD1326F4C5B365493F9B775C20384134478E71ADA4DE007F66 PUSH1 0x60 DUP8 ADD MSTORE PUSH32 0x23D9577DD9F5F4343BF1DA54CE8D420B3F5C1F9D95AF443D20302AF62CD6C6EC PUSH1 0x80 DUP8 ADD MSTORE PUSH32 0x260164CEA76F55BE101D7B3F7CB403B8AA6FC20D6D7506D4990165EE76B96DF0 PUSH1 0xA0 DUP8 ADD MSTORE PUSH1 0xC0 DUP7 ADD MSTORE PUSH1 0xE0 DUP6 ADD MSTORE PUSH32 0xE93EF81472C729D657F37D2622EE71507C4F1FCC8B6E601C72C81DF5A51D861 PUSH2 0x100 DUP6 ADD MSTORE PUSH32 0x1391A145991E05CE2E6CE102BC38B7B74F37911FDF8127325C0BE3C82182F2AF PUSH2 0x120 DUP6 ADD MSTORE PUSH32 0x19EF0345ED7A9EA008DD3618BC94CD101058A697D0D546839429FDE4DBB95CF5 PUSH2 0x140 DUP6 ADD MSTORE PUSH32 0x7CA05FA460E47B2FBA64BD20BA39AF9D41994B9E8246B973E32221C9843C397 PUSH2 0x160 DUP6 ADD MSTORE DUP3 MLOAD DUP6 DUP2 PUSH2 0x180 DUP8 PUSH1 0x8 GAS STATICCALL SWAP1 MLOAD AND ISZERO PUSH2 0xA00 JUMPI DUP5 SWAP1 PUSH2 0x286 PUSH1 0x4 CALLDATALOAD PUSH2 0x16EB JUMP JUMPDEST PUSH2 0x297 PUSH1 0x24 SWAP6 SWAP3 SWAP6 CALLDATALOAD PUSH1 0x44 CALLDATALOAD PUSH2 0x1756 JUMP JUMPDEST SWAP3 SWAP2 SWAP1 SWAP4 DUP10 PUSH2 0x2A7 PUSH1 0x64 CALLDATALOAD PUSH2 0x16EB JUMP JUMPDEST SWAP9 SWAP1 SWAP8 PUSH32 0x87B036A7F03189723CB43A31657B173919F7BCA7CED1B8D3B099A07FA997537 DUP4 MLOAD SWAP12 DUP13 SWAP4 PUSH32 0x2CA6F83F92103EF3BE5753400762B410492BBF32C73D47A769B67A858FB71E16 DUP6 MSTORE PUSH32 0x1C1F91365773138D69A9A9676E18F718B309070646EBC822CB086E81641839FE DUP3 DUP7 ADD MSTORE DUP1 MLOAD DUP7 DUP7 ADD MSTORE ADD MLOAD PUSH1 0x60 DUP5 ADD SWAP1 DUP2 MSTORE PUSH32 0x765F71ED717E7C84A3ECC1779DD49751AD519B175BC4B6B2B905C6F825D3844 DUP6 DUP6 PUSH1 0x80 DUP2 PUSH1 0x6 GAS STATICCALL SWAP6 PUSH32 0x1ED5BD276B3B65F6C9E33552E2292B540AA2ABDD123C3105EC40B33822CCFCE4 DUP2 DUP8 ADD MSTORE PUSH32 0x1ABE536AAD1FB09C88AC395C5C7F63C02D0522633CEE4572D010E0BB36C249E5 DUP4 MSTORE PUSH1 0x1 PUSH1 0xC4 CALLDATALOAD PUSH1 0x80 DUP9 ADD SWAP9 DUP2 DUP11 MSTORE PUSH0 MLOAD PUSH1 0x20 PUSH2 0x1A8F PUSH0 CODECOPY PUSH0 MLOAD SWAP1 PUSH0 MSTORE DUP5 DUP1 DUP12 ADD PUSH1 0x60 DUP3 DUP14 ADD PUSH1 0x7 GAS STATICCALL SWAP3 LT AND AND DUP3 DUP9 PUSH1 0x80 DUP2 PUSH1 0x6 GAS STATICCALL AND AND PUSH32 0x41B6B341C076CAED6070DF003012290F33E79BB2BC9640254C56993EB9867D1 DUP3 DUP9 ADD MSTORE PUSH32 0x1E479315C30F1F95363DD1C23BDC3E5782C01CFB3224FC188C540E0378959733 DUP5 MSTORE PUSH1 0xE4 CALLDATALOAD SWAP1 DUP2 DUP10 MSTORE PUSH0 MLOAD PUSH1 0x20 PUSH2 0x1A8F PUSH0 CODECOPY PUSH0 MLOAD SWAP1 PUSH0 MSTORE DUP4 DUP1 DUP11 ADD PUSH1 0x60 DUP3 DUP13 ADD PUSH1 0x7 GAS STATICCALL SWAP3 LT AND AND DUP2 DUP8 PUSH1 0x80 DUP2 PUSH1 0x6 GAS STATICCALL AND PUSH32 0x25DD26450FE3D09967CBFA355902CC3F52A221EA271B4E750410A5C839192C63 DUP3 DUP9 ADD MSTORE PUSH32 0x2241ACF0FD1DDAE41332AF2D70506D1D32BCA5C9E3DC7FE66134B3F32CB495DD DUP5 MSTORE PUSH2 0x104 CALLDATALOAD SWAP1 DUP2 DUP10 MSTORE PUSH0 MLOAD PUSH1 0x20 PUSH2 0x1A8F PUSH0 CODECOPY PUSH0 MLOAD SWAP1 PUSH0 MSTORE DUP4 DUP1 DUP11 ADD PUSH1 0x60 DUP3 DUP13 ADD PUSH1 0x7 GAS STATICCALL SWAP3 LT AND AND DUP2 DUP8 PUSH1 0x80 DUP2 PUSH1 0x6 GAS STATICCALL AND PUSH32 0x1116F93D35B6AA4D4792E8610CC13E7A73D1BB8DCDEF2FB06E21ED260CADCC5F DUP3 DUP9 ADD MSTORE PUSH32 0x10E21474A1B55FF643A2D70BED556B06913A730071453FB6FDB1FDEF4BFDEE3F DUP5 MSTORE PUSH2 0x124 CALLDATALOAD SWAP1 DUP2 DUP10 MSTORE PUSH0 MLOAD PUSH1 0x20 PUSH2 0x1A8F PUSH0 CODECOPY PUSH0 MLOAD SWAP1 PUSH0 MSTORE DUP4 DUP1 DUP11 ADD PUSH1 0x60 DUP3 DUP13 ADD PUSH1 0x7 GAS STATICCALL SWAP3 LT AND AND DUP2 DUP8 PUSH1 0x80 DUP2 PUSH1 0x6 GAS STATICCALL AND PUSH32 0x2BAEAA61D471C2EFE1D424A318D8436E6B5F68B7C2604021F7EF2AD371E5D302 DUP3 DUP9 ADD MSTORE PUSH32 0x1C76A41E28F484297F7F54FEDE7F63B160B410A0E5916350814C15E3F312D0E4 DUP5 MSTORE PUSH2 0x144 CALLDATALOAD SWAP1 DUP2 DUP10 MSTORE PUSH0 MLOAD PUSH1 0x20 PUSH2 0x1A8F PUSH0 CODECOPY PUSH0 MLOAD SWAP1 PUSH0 MSTORE DUP4 DUP1 DUP11 ADD PUSH1 0x60 DUP3 DUP13 ADD PUSH1 0x7 GAS STATICCALL SWAP3 LT AND AND DUP2 DUP8 PUSH1 0x80 DUP2 PUSH1 0x6 GAS STATICCALL AND PUSH32 0x25722C1F753E11B11DDE6D0A490DDD861462705E43790F416479F17596BA7781 DUP3 DUP9 ADD MSTORE PUSH32 0x47A9A5103655C5E34EB224CCBDB30726A2D039720A06BF7F0AC747E53928D50 DUP5 MSTORE PUSH2 0x164 CALLDATALOAD SWAP1 DUP2 DUP10 MSTORE PUSH0 MLOAD PUSH1 0x20 PUSH2 0x1A8F PUSH0 CODECOPY PUSH0 MLOAD SWAP1 PUSH0 MSTORE DUP4 DUP1 DUP11 ADD PUSH1 0x60 DUP3 DUP13 ADD PUSH1 0x7 GAS STATICCALL SWAP3 LT AND AND DUP2 DUP8 PUSH1 0x80 DUP2 PUSH1 0x6 GAS STATICCALL AND PUSH32 0x1DD21C8FCD708B68C8A5133A22F3114F433CF29387DAB359E15D566901061EFC DUP3 DUP9 ADD MSTORE PUSH32 0x2E4F767AB8AAC95B402EEDA7BB5765AD3C9DA740A751E06E766DA4A605B03685 DUP5 MSTORE PUSH2 0x184 CALLDATALOAD SWAP1 DUP2 DUP10 MSTORE PUSH0 MLOAD PUSH1 0x20 PUSH2 0x1A8F PUSH0 CODECOPY PUSH0 MLOAD SWAP1 PUSH0 MSTORE DUP4 DUP1 DUP11 ADD PUSH1 0x60 DUP3 DUP13 ADD PUSH1 0x7 GAS STATICCALL SWAP3 LT AND AND DUP2 DUP8 PUSH1 0x80 DUP2 PUSH1 0x6 GAS STATICCALL AND PUSH32 0x912A7FF0651BF2D909142D578CCC33658EC17AE0D79591365775D96624733E1 DUP3 DUP9 ADD MSTORE PUSH32 0x2FD6C51D28AC58048562463C92C252573077B99AE1596E7F2EBF08967A40CBBD DUP5 MSTORE PUSH2 0x1A4 CALLDATALOAD SWAP1 DUP2 DUP10 MSTORE PUSH0 MLOAD PUSH1 0x20 PUSH2 0x1A8F PUSH0 CODECOPY PUSH0 MLOAD SWAP1 PUSH0 MSTORE DUP4 DUP1 DUP11 ADD PUSH1 0x60 DUP3 DUP13 ADD PUSH1 0x7 GAS STATICCALL SWAP3 LT AND AND DUP2 DUP8 PUSH1 0x80 DUP2 PUSH1 0x6 GAS STATICCALL AND SWAP6 ADD MSTORE MSTORE MLOAD DUP1 SWAP3 MSTORE PUSH0 MLOAD PUSH1 0x20 PUSH2 0x1A8F PUSH0 CODECOPY PUSH0 MLOAD SWAP1 PUSH0 MSTORE DUP13 DUP12 PUSH1 0x60 DUP3 DUP1 DUP4 ADD SWAP3 ADD PUSH1 0x7 GAS STATICCALL SWAP3 LT AND AND DUP11 DUP10 PUSH1 0x80 DUP2 PUSH1 0x6 GAS STATICCALL AND SWAP9 DUP13 DUP10 MLOAD SWAP10 ADD MLOAD SWAP10 ISZERO PUSH2 0x9F1 JUMPI DUP12 MSTORE DUP12 DUP12 ADD MSTORE DUP9 DUP11 ADD MSTORE PUSH1 0x60 DUP10 ADD MSTORE PUSH1 0x80 DUP9 ADD MSTORE PUSH1 0xA0 DUP8 ADD MSTORE PUSH1 0xC0 DUP7 ADD MSTORE PUSH1 0xE0 DUP6 ADD MSTORE PUSH32 0x133A51DC7BE45819AD2923BDDC35F3A2CD3395B96F9757FBB5EF2650CA89DE9A PUSH2 0x100 DUP6 ADD MSTORE PUSH32 0xC3EBDE9200619EA42DFBDE8C913350FB13FDDA8CF8661FA8ADF21D0AF37D1EB PUSH2 0x120 DUP6 ADD MSTORE PUSH32 0xB3F50033B1192CE517458A61BE1F9260EC95AFE217A40B5255FADDC9A2D4D1C PUSH2 0x140 DUP6 ADD MSTORE PUSH32 0x22CCE4C296240CBC6FE0AD489785CAC469F006D9A0ECEE54CEEC3A4F14ABABE7 PUSH2 0x160 DUP6 ADD MSTORE PUSH32 0x1E94C07CB6C18A449303600AAAE159A571D5622ABE719675AE3155F0887EAFDC PUSH2 0x180 DUP6 ADD MSTORE PUSH32 0x16608401FE677162D0F8D4652F1C8D145921CCA6D7C223E24EA3F7A962133BC4 PUSH2 0x1A0 DUP6 ADD MSTORE PUSH32 0x1AF5CEDE47639AB4070A00D25717A6273CFE55B8B83ACF5128FA488B3D61DF76 PUSH2 0x1C0 DUP6 ADD MSTORE PUSH32 0x12D429FFDCD3D15FAACF972A9C465DBBADDBCA2BA99CC57E49904AD0F66A738F PUSH2 0x1E0 DUP6 ADD MSTORE PUSH32 0x1E39A1DF85FCFF7C76404EA857E874C8F97A8AAF62C023C021711862724A44F4 PUSH2 0x200 DUP6 ADD MSTORE PUSH32 0x2F53DDAAF2AEE22E360CD67C67B219EA13A6BABEF67913AE74B67B87400D5CF4 PUSH2 0x220 DUP6 ADD MSTORE PUSH2 0x240 DUP5 ADD MSTORE PUSH2 0x260 DUP4 ADD MSTORE PUSH32 0x286A4BAAA7C158E33391947F662299438D932546A192479F4F648B559A4A82B3 PUSH2 0x280 DUP4 ADD MSTORE PUSH32 0x1B1195288A0B36FF9FB17D409BF69F5345C3A6BC1506480810ADAF39E3BF4706 PUSH2 0x2A0 DUP4 ADD MSTORE PUSH32 0x2AD640CC38D797495B0FD71F40DFEAC4A918EBA43BFEEE46C7ABA78154FE5016 PUSH2 0x2C0 DUP4 ADD MSTORE PUSH32 0x2E69DE7B0CE84C88DE55DBB171348D4A1CB0D40E4C4EADDD17B44001A51F141B PUSH2 0x2E0 DUP4 ADD MSTORE MLOAD SWAP3 DUP4 SWAP2 PUSH2 0x9BD DUP5 DUP5 PUSH2 0x13A6 JUMP JUMPDEST DUP4 CALLDATASIZE DUP5 CALLDATACOPY PUSH1 0x8 GAS STATICCALL ISZERO SWAP1 DUP2 ISZERO PUSH2 0x9E4 JUMPI JUMPDEST POP PUSH2 0x9D5 JUMPI STOP JUMPDEST PUSH4 0x1FF3747D PUSH1 0xE2 SHL PUSH0 MSTORE PUSH1 0x4 PUSH0 REVERT JUMPDEST PUSH1 0x1 SWAP2 POP MLOAD EQ ISZERO PUSH0 PUSH2 0x9CE JUMP JUMPDEST PUSH4 0xA54F8E27 PUSH1 0xE0 SHL PUSH0 MSTORE PUSH1 0x4 PUSH0 REVERT JUMPDEST PUSH4 0x51D49FF7 PUSH1 0xE1 SHL PUSH0 MSTORE PUSH1 0x4 PUSH0 REVERT JUMPDEST PUSH0 DUP1 REVERT JUMPDEST CALLVALUE PUSH2 0xA0F JUMPI PUSH2 0x180 CALLDATASIZE PUSH1 0x3 NOT ADD SLT PUSH2 0xA0F JUMPI CALLDATASIZE PUSH2 0x104 GT PUSH2 0xA0F JUMPI CALLDATASIZE PUSH2 0x144 GT PUSH2 0xA0F JUMPI CALLDATASIZE PUSH2 0x184 GT PUSH2 0xA0F JUMPI PUSH1 0x40 MLOAD PUSH2 0xA4E PUSH1 0x80 DUP3 PUSH2 0x13A6 JUMP JUMPDEST PUSH1 0x80 CALLDATASIZE DUP3 CALLDATACOPY PUSH1 0x40 MLOAD SWAP1 PUSH1 0x20 PUSH2 0xA63 DUP2 DUP5 PUSH2 0x13A6 JUMP JUMPDEST DUP1 CALLDATASIZE DUP5 CALLDATACOPY PUSH2 0xA75 PUSH1 0x24 CALLDATALOAD PUSH1 0x4 CALLDATALOAD PUSH2 0x1416 JUMP JUMPDEST DUP3 MSTORE PUSH2 0xA8B PUSH1 0x84 CALLDATALOAD PUSH1 0xA4 CALLDATALOAD PUSH1 0x44 CALLDATALOAD PUSH1 0x64 CALLDATALOAD PUSH2 0x14B7 JUMP JUMPDEST DUP3 DUP5 ADD MSTORE PUSH1 0x40 DUP4 ADD MSTORE PUSH2 0xAA2 PUSH1 0xE4 CALLDATALOAD PUSH1 0xC4 CALLDATALOAD PUSH2 0x1416 JUMP JUMPDEST PUSH1 0x60 DUP4 ADD MSTORE PUSH2 0xAB7 PUSH2 0x124 CALLDATALOAD PUSH2 0x104 CALLDATALOAD PUSH2 0x1416 JUMP JUMPDEST DUP4 MSTORE PUSH2 0xAC9 PUSH2 0x164 CALLDATALOAD PUSH2 0x144 CALLDATALOAD PUSH2 0x1416 JUMP JUMPDEST SWAP1 PUSH1 0x40 MLOAD SWAP3 DUP4 PUSH0 SWAP1 JUMPDEST PUSH1 0x4 DUP3 LT PUSH2 0xB0E JUMPI POP POP POP PUSH1 0x80 DUP4 ADD SWAP4 SWAP1 PUSH0 SWAP5 JUMPDEST PUSH1 0x1 DUP7 LT PUSH2 0xAF9 JUMPI PUSH1 0xC0 DUP6 DUP6 PUSH1 0xA0 DUP3 ADD MSTORE RETURN JUMPDEST DUP2 DUP1 PUSH1 0x1 SWAP3 DUP6 MLOAD DUP2 MSTORE ADD SWAP4 ADD SWAP6 ADD SWAP5 SWAP2 PUSH2 0xAE6 JUMP JUMPDEST DUP3 MLOAD DUP2 MSTORE SWAP2 DUP4 ADD SWAP2 PUSH1 0x1 SWAP2 SWAP1 SWAP2 ADD SWAP1 DUP4 ADD PUSH2 0xAD2 JUMP JUMPDEST CALLVALUE PUSH2 0xA0F JUMPI PUSH2 0x280 CALLDATASIZE PUSH1 0x3 NOT ADD SLT PUSH2 0xA0F JUMPI CALLDATASIZE PUSH2 0x104 GT PUSH2 0xA0F JUMPI CALLDATASIZE PUSH2 0x144 GT PUSH2 0xA0F JUMPI CALLDATASIZE PUSH2 0x184 GT PUSH2 0xA0F JUMPI CALLDATASIZE PUSH2 0x284 GT PUSH2 0xA0F JUMPI PUSH1 0x40 MLOAD PUSH1 0x20 PUSH2 0xB69 DUP2 DUP4 PUSH2 0x13A6 JUMP JUMPDEST DUP1 CALLDATASIZE DUP4 CALLDATACOPY PUSH1 0x40 SWAP2 PUSH0 MLOAD PUSH1 0x20 PUSH2 0x1A8F PUSH0 CODECOPY PUSH0 MLOAD SWAP1 PUSH0 MSTORE DUP4 MLOAD PUSH2 0xB8A DUP6 DUP3 PUSH2 0x13A6 JUMP JUMPDEST PUSH1 0x1 DUP2 MSTORE DUP4 PUSH2 0x1C4 DUP2 DUP4 ADD PUSH1 0x1F NOT DUP9 ADD CALLDATASIZE DUP3 CALLDATACOPY CALLDATACOPY DUP5 MLOAD PUSH2 0xBB9 DUP2 PUSH2 0x108 DUP8 DUP3 ADD SWAP5 PUSH2 0x124 CALLDATALOAD PUSH2 0x104 CALLDATALOAD DUP8 PUSH2 0x13DC JUMP JUMPDEST MLOAD SWAP1 KECCAK256 MOD DUP2 MSTORE DUP3 MLOAD DUP4 PUSH2 0x104 DUP3 CALLDATACOPY PUSH32 0x23BC8CB504097D202EA09BD2AEA624A719CC6E79FE90AF6BC3FD4C0A1E9AB097 DUP5 DUP3 ADD MSTORE PUSH32 0xB02B98059C257FD1326F4C5B365493F9B775C20384134478E71ADA4DE007F66 PUSH1 0x60 DUP3 ADD MSTORE PUSH32 0x23D9577DD9F5F4343BF1DA54CE8D420B3F5C1F9D95AF443D20302AF62CD6C6EC PUSH1 0x80 DUP3 ADD MSTORE PUSH32 0x260164CEA76F55BE101D7B3F7CB403B8AA6FC20D6D7506D4990165EE76B96DF0 PUSH1 0xA0 DUP3 ADD MSTORE DUP4 PUSH2 0x144 PUSH1 0xC0 DUP4 ADD CALLDATACOPY PUSH32 0xE93EF81472C729D657F37D2622EE71507C4F1FCC8B6E601C72C81DF5A51D861 PUSH2 0x100 DUP3 ADD MSTORE PUSH32 0x1391A145991E05CE2E6CE102BC38B7B74F37911FDF8127325C0BE3C82182F2AF PUSH2 0x120 DUP3 ADD MSTORE PUSH32 0x19EF0345ED7A9EA008DD3618BC94CD101058A697D0D546839429FDE4DBB95CF5 PUSH2 0x140 DUP3 ADD MSTORE PUSH32 0x7CA05FA460E47B2FBA64BD20BA39AF9D41994B9E8246B973E32221C9843C397 PUSH2 0x160 DUP3 ADD MSTORE DUP3 DUP2 PUSH2 0x180 DUP2 PUSH1 0x8 GAS STATICCALL SWAP1 MLOAD AND ISZERO PUSH2 0xA00 JUMPI DUP3 MLOAD SWAP3 PUSH2 0xD22 DUP2 DUP6 PUSH2 0x13A6 JUMP JUMPDEST PUSH2 0x104 DUP4 DUP6 JUMPDEST PUSH2 0x144 DUP4 LT PUSH2 0x1396 JUMPI POP POP POP DUP1 MLOAD SWAP2 DUP2 DUP4 ADD PUSH32 0x2CA6F83F92103EF3BE5753400762B410492BBF32C73D47A769B67A858FB71E16 DUP5 MSTORE PUSH0 MLOAD PUSH1 0x20 PUSH2 0x1A8F PUSH0 CODECOPY PUSH0 MLOAD SWAP1 PUSH0 MSTORE DUP4 DUP7 DUP1 DUP8 ADD SWAP9 PUSH32 0x1C1F91365773138D69A9A9676E18F718B309070646EBC822CB086E81641839FE DUP11 MSTORE DUP1 MLOAD DUP6 MSTORE ADD MLOAD SWAP3 PUSH1 0x60 DUP8 ADD SWAP4 DUP5 MSTORE DUP2 DUP8 PUSH1 0x80 DUP2 PUSH1 0x6 GAS STATICCALL SWAP5 PUSH32 0x1ED5BD276B3B65F6C9E33552E2292B540AA2ABDD123C3105EC40B33822CCFCE4 DUP3 MSTORE PUSH32 0x1ABE536AAD1FB09C88AC395C5C7F63C02D0522633CEE4572D010E0BB36C249E5 DUP6 MSTORE PUSH32 0x87B036A7F03189723CB43A31657B173919F7BCA7CED1B8D3B099A07FA997537 PUSH1 0x1 PUSH2 0x184 CALLDATALOAD PUSH1 0x80 DUP12 ADD SWAP9 DUP2 DUP11 MSTORE DUP8 DUP8 DUP8 PUSH1 0x60 DUP2 PUSH1 0x7 GAS STATICCALL SWAP3 LT AND AND DUP6 DUP12 PUSH1 0x80 DUP2 PUSH1 0x6 GAS STATICCALL AND AND PUSH32 0x41B6B341C076CAED6070DF003012290F33E79BB2BC9640254C56993EB9867D1 DUP5 MSTORE PUSH32 0x1E479315C30F1F95363DD1C23BDC3E5782C01CFB3224FC188C540E0378959733 DUP8 MSTORE PUSH2 0x1A4 CALLDATALOAD SWAP1 DUP2 DUP10 MSTORE DUP7 DUP7 DUP7 PUSH1 0x60 DUP2 PUSH1 0x7 GAS STATICCALL SWAP3 LT AND AND DUP5 DUP11 PUSH1 0x80 DUP2 PUSH1 0x6 GAS STATICCALL AND PUSH32 0x25DD26450FE3D09967CBFA355902CC3F52A221EA271B4E750410A5C839192C63 DUP5 MSTORE PUSH32 0x2241ACF0FD1DDAE41332AF2D70506D1D32BCA5C9E3DC7FE66134B3F32CB495DD DUP8 MSTORE PUSH2 0x1C4 CALLDATALOAD SWAP1 DUP2 DUP10 MSTORE DUP7 DUP7 DUP7 PUSH1 0x60 DUP2 PUSH1 0x7 GAS STATICCALL SWAP3 LT AND AND DUP5 DUP11 PUSH1 0x80 DUP2 PUSH1 0x6 GAS STATICCALL AND PUSH32 0x1116F93D35B6AA4D4792E8610CC13E7A73D1BB8DCDEF2FB06E21ED260CADCC5F DUP5 MSTORE PUSH32 0x10E21474A1B55FF643A2D70BED556B06913A730071453FB6FDB1FDEF4BFDEE3F DUP8 MSTORE PUSH2 0x1E4 CALLDATALOAD SWAP1 DUP2 DUP10 MSTORE DUP7 DUP7 DUP7 PUSH1 0x60 DUP2 PUSH1 0x7 GAS STATICCALL SWAP3 LT AND AND DUP5 DUP11 PUSH1 0x80 DUP2 PUSH1 0x6 GAS STATICCALL AND PUSH32 0x2BAEAA61D471C2EFE1D424A318D8436E6B5F68B7C2604021F7EF2AD371E5D302 DUP5 MSTORE PUSH32 0x1C76A41E28F484297F7F54FEDE7F63B160B410A0E5916350814C15E3F312D0E4 DUP8 MSTORE PUSH2 0x204 CALLDATALOAD SWAP1 DUP2 DUP10 MSTORE DUP7 DUP7 DUP7 PUSH1 0x60 DUP2 PUSH1 0x7 GAS STATICCALL SWAP3 LT AND AND DUP5 DUP11 PUSH1 0x80 DUP2 PUSH1 0x6 GAS STATICCALL AND PUSH32 0x25722C1F753E11B11DDE6D0A490DDD861462705E43790F416479F17596BA7781 DUP5 MSTORE PUSH32 0x47A9A5103655C5E34EB224CCBDB30726A2D039720A06BF7F0AC747E53928D50 DUP8 MSTORE PUSH2 0x224 CALLDATALOAD SWAP1 DUP2 DUP10 MSTORE DUP7 DUP7 DUP7 PUSH1 0x60 DUP2 PUSH1 0x7 GAS STATICCALL SWAP3 LT AND AND DUP5 DUP11 PUSH1 0x80 DUP2 PUSH1 0x6 GAS STATICCALL AND PUSH32 0x1DD21C8FCD708B68C8A5133A22F3114F433CF29387DAB359E15D566901061EFC DUP5 MSTORE PUSH32 0x2E4F767AB8AAC95B402EEDA7BB5765AD3C9DA740A751E06E766DA4A605B03685 DUP8 MSTORE PUSH2 0x244 CALLDATALOAD SWAP1 DUP2 DUP10 MSTORE DUP7 DUP7 DUP7 PUSH1 0x60 DUP2 PUSH1 0x7 GAS STATICCALL SWAP3 LT AND AND DUP5 DUP11 PUSH1 0x80 DUP2 PUSH1 0x6 GAS STATICCALL AND PUSH32 0x912A7FF0651BF2D909142D578CCC33658EC17AE0D79591365775D96624733E1 DUP5 MSTORE PUSH32 0x2FD6C51D28AC58048562463C92C252573077B99AE1596E7F2EBF08967A40CBBD DUP8 MSTORE PUSH2 0x264 CALLDATALOAD SWAP1 DUP2 DUP10 MSTORE DUP7 DUP7 DUP7 PUSH1 0x60 DUP2 PUSH1 0x7 GAS STATICCALL SWAP3 LT AND AND DUP5 DUP11 PUSH1 0x80 DUP2 PUSH1 0x6 GAS STATICCALL AND SWAP6 PUSH32 0x765F71ED717E7C84A3ECC1779DD49751AD519B175BC4B6B2B905C6F825D3844 DUP5 MSTORE MSTORE MLOAD DUP1 SWAP6 MSTORE PUSH1 0x60 DUP2 PUSH1 0x7 GAS STATICCALL SWAP3 LT AND AND DUP2 DUP4 PUSH1 0x80 DUP2 PUSH1 0x6 GAS STATICCALL AND SWAP2 MLOAD SWAP4 MLOAD SWAP2 ISZERO PUSH2 0x9F1 JUMPI MLOAD SWAP3 PUSH2 0x100 PUSH1 0x4 DUP6 CALLDATACOPY PUSH32 0x133A51DC7BE45819AD2923BDDC35F3A2CD3395B96F9757FBB5EF2650CA89DE9A PUSH2 0x100 DUP6 ADD MSTORE PUSH32 0xC3EBDE9200619EA42DFBDE8C913350FB13FDDA8CF8661FA8ADF21D0AF37D1EB PUSH2 0x120 DUP6 ADD MSTORE PUSH32 0xB3F50033B1192CE517458A61BE1F9260EC95AFE217A40B5255FADDC9A2D4D1C PUSH2 0x140 DUP6 ADD MSTORE PUSH32 0x22CCE4C296240CBC6FE0AD489785CAC469F006D9A0ECEE54CEEC3A4F14ABABE7 PUSH2 0x160 DUP6 ADD MSTORE PUSH32 0x1E94C07CB6C18A449303600AAAE159A571D5622ABE719675AE3155F0887EAFDC PUSH2 0x180 DUP6 ADD MSTORE PUSH32 0x16608401FE677162D0F8D4652F1C8D145921CCA6D7C223E24EA3F7A962133BC4 PUSH2 0x1A0 DUP6 ADD MSTORE PUSH32 0x1AF5CEDE47639AB4070A00D25717A6273CFE55B8B83ACF5128FA488B3D61DF76 PUSH2 0x1C0 DUP6 ADD MSTORE PUSH32 0x12D429FFDCD3D15FAACF972A9C465DBBADDBCA2BA99CC57E49904AD0F66A738F PUSH2 0x1E0 DUP6 ADD MSTORE PUSH32 0x1E39A1DF85FCFF7C76404EA857E874C8F97A8AAF62C023C021711862724A44F4 PUSH2 0x200 DUP6 ADD MSTORE PUSH32 0x2F53DDAAF2AEE22E360CD67C67B219EA13A6BABEF67913AE74B67B87400D5CF4 PUSH2 0x220 DUP6 ADD MSTORE PUSH2 0x240 DUP5 ADD MSTORE PUSH2 0x260 DUP4 ADD MSTORE PUSH32 0x286A4BAAA7C158E33391947F662299438D932546A192479F4F648B559A4A82B3 PUSH2 0x280 DUP4 ADD MSTORE PUSH32 0x1B1195288A0B36FF9FB17D409BF69F5345C3A6BC1506480810ADAF39E3BF4706 PUSH2 0x2A0 DUP4 ADD MSTORE PUSH32 0x2AD640CC38D797495B0FD71F40DFEAC4A918EBA43BFEEE46C7ABA78154FE5016 PUSH2 0x2C0 DUP4 ADD MSTORE PUSH32 0x2E69DE7B0CE84C88DE55DBB171348D4A1CB0D40E4C4EADDD17B44001A51F141B PUSH2 0x2E0 DUP4 ADD MSTORE DUP2 PUSH2 0x300 DUP2 PUSH1 0x8 GAS STATICCALL SWAP1 MLOAD AND ISZERO PUSH2 0x9D5 JUMPI STOP JUMPDEST DUP3 CALLDATALOAD DUP2 MSTORE SWAP2 DUP2 ADD SWAP2 DUP6 SWAP2 ADD PUSH2 0xD28 JUMP JUMPDEST SWAP1 PUSH1 0x1F DUP1 NOT SWAP2 ADD AND DUP2 ADD SWAP1 DUP2 LT PUSH8 0xFFFFFFFFFFFFFFFF DUP3 GT OR PUSH2 0x13C8 JUMPI PUSH1 0x40 MSTORE JUMP JUMPDEST PUSH4 0x4E487B71 PUSH1 0xE0 SHL PUSH0 MSTORE PUSH1 0x41 PUSH1 0x4 MSTORE PUSH1 0x24 PUSH0 REVERT JUMPDEST SWAP1 SWAP2 PUSH1 0x40 SWAP3 DUP3 MSTORE PUSH1 0x20 DUP3 ADD MSTORE ADD PUSH1 0x20 DUP3 MLOAD SWAP2 SWAP3 ADD SWAP1 PUSH0 JUMPDEST DUP2 DUP2 LT PUSH2 0x1400 JUMPI POP POP POP SWAP1 JUMP JUMPDEST DUP3 MLOAD DUP5 MSTORE PUSH1 0x20 SWAP4 DUP5 ADD SWAP4 SWAP1 SWAP3 ADD SWAP2 PUSH1 0x1 ADD PUSH2 0x13F3 JUMP JUMPDEST SWAP1 PUSH0 MLOAD PUSH1 0x20 PUSH2 0x1A6F PUSH0 CODECOPY PUSH0 MLOAD SWAP1 PUSH0 MSTORE DUP3 LT DUP1 ISZERO SWAP1 PUSH2 0x14A0 JUMPI JUMPDEST PUSH2 0x9D5 JUMPI DUP2 ISZERO DUP1 PUSH2 0x1498 JUMPI JUMPDEST PUSH2 0x1492 JUMPI PUSH2 0x145F PUSH0 MLOAD PUSH1 0x20 PUSH2 0x1A6F PUSH0 CODECOPY PUSH0 MLOAD SWAP1 PUSH0 MSTORE PUSH1 0x3 DUP2 DUP6 DUP2 DUP2 DUP1 MULMOD MULMOD ADDMOD PUSH2 0x188F JUMP JUMPDEST DUP2 DUP2 SUB PUSH2 0x146E JUMPI POP POP PUSH1 0x1 SHL SWAP1 JUMP JUMPDEST PUSH0 MLOAD PUSH1 0x20 PUSH2 0x1A6F PUSH0 CODECOPY PUSH0 MLOAD SWAP1 PUSH0 MSTORE DUP1 SWAP2 MOD DUP2 SUB MOD EQ PUSH0 EQ PUSH2 0x9D5 JUMPI PUSH1 0x1 SWAP1 DUP2 SHL OR SWAP1 JUMP JUMPDEST POP POP PUSH0 SWAP1 JUMP JUMPDEST POP DUP1 ISZERO PUSH2 0x143B JUMP JUMPDEST POP PUSH0 MLOAD PUSH1 0x20 PUSH2 0x1A6F PUSH0 CODECOPY PUSH0 MLOAD SWAP1 PUSH0 MSTORE DUP2 LT ISZERO PUSH2 0x142F JUMP JUMPDEST SWAP2 SWAP1 SWAP4 SWAP3 PUSH0 MLOAD PUSH1 0x20 PUSH2 0x1A6F PUSH0 CODECOPY PUSH0 MLOAD SWAP1 PUSH0 MSTORE DUP4 LT DUP1 ISZERO SWAP1 PUSH2 0x16D4 JUMPI JUMPDEST DUP1 ISZERO PUSH2 0x16BD JUMPI JUMPDEST DUP1 ISZERO PUSH2 0x16A6 JUMPI JUMPDEST PUSH2 0x9D5 JUMPI DUP1 DUP3 DUP7 DUP6 OR OR OR ISZERO PUSH2 0x169B JUMPI SWAP1 DUP3 SWAP2 PUSH2 0x15FE PUSH0 MLOAD PUSH1 0x20 PUSH2 0x1A6F PUSH0 CODECOPY PUSH0 MLOAD SWAP1 PUSH0 MSTORE DUP1 DUP1 DUP1 DUP1 DUP9 DUP2 DUP1 DUP1 DUP16 SWAP14 PUSH32 0x30644E72E131A029B85045B68181585D97816A916871CA8D3C208C16D87CFD44 DUP16 DUP4 SWAP3 SWAP1 DUP4 SWAP2 MULMOD MULMOD SWAP14 DUP15 MULMOD DUP2 DUP5 DUP2 DUP2 DUP1 MULMOD MULMOD ADDMOD PUSH32 0x2B149D40CEB8AAAE81BE18991BE06AC3B5B4C5E559DBEFA33267E6DC24A138E5 ADDMOD SWAP11 MULMOD DUP2 DUP13 DUP2 DUP2 DUP1 MULMOD MULMOD ADDMOD PUSH32 0x2FCD3AC2A640A154EB23960892A85A68F031CA0C8344B23A577DCF1052B9E775 ADDMOD MOD DUP2 SUB MOD SWAP5 PUSH0 MLOAD PUSH1 0x20 PUSH2 0x1A6F PUSH0 CODECOPY PUSH0 MLOAD SWAP1 PUSH0 MSTORE PUSH32 0x183227397098D014DC2822DB40C0AC2ECBC0B548B438E5469E10460B6C3E7EA4 DUP2 PUSH2 0x15D8 DUP2 DUP1 DUP12 DUP1 MULMOD DUP2 DUP8 DUP1 MULMOD ADDMOD PUSH2 0x188F JUMP JUMPDEST DUP5 ADDMOD MULMOD PUSH0 MLOAD PUSH1 0x20 PUSH2 0x1A6F PUSH0 CODECOPY PUSH0 MLOAD SWAP1 PUSH0 MSTORE PUSH2 0x15F2 DUP3 PUSH2 0x1A06 JUMP JUMPDEST DUP1 MULMOD EQ ISZERO SWAP6 DUP7 SWAP2 PUSH2 0x18B2 JUMP JUMPDEST SWAP3 SWAP1 DUP1 DUP3 EQ DUP1 PUSH2 0x1692 JUMPI JUMPDEST ISZERO PUSH2 0x1630 JUMPI POP POP POP POP SWAP1 PUSH0 EQ PUSH2 0x1628 JUMPI PUSH1 0xFF PUSH1 0x2 JUMPDEST AND SWAP1 PUSH1 0x2 SHL OR SWAP2 SWAP1 JUMP JUMPDEST PUSH1 0xFF PUSH0 PUSH2 0x161E JUMP JUMPDEST PUSH0 MLOAD PUSH1 0x20 PUSH2 0x1A6F PUSH0 CODECOPY PUSH0 MLOAD SWAP1 PUSH0 MSTORE DUP1 SWAP2 MOD DUP2 SUB MOD EQ SWAP2 DUP3 PUSH2 0x1673 JUMPI JUMPDEST POP POP ISZERO PUSH2 0x9D5 JUMPI PUSH1 0x1 SWAP2 ISZERO PUSH2 0x166B JUMPI PUSH1 0xFF PUSH1 0x2 JUMPDEST AND SWAP1 PUSH1 0x2 SHL OR OR SWAP2 SWAP1 JUMP JUMPDEST PUSH1 0xFF PUSH0 PUSH2 0x1660 JUMP JUMPDEST PUSH0 MLOAD PUSH1 0x20 PUSH2 0x1A6F PUSH0 CODECOPY PUSH0 MLOAD SWAP1 PUSH0 MSTORE SWAP2 SWAP3 POP DUP2 SWAP1 MOD DUP2 SUB MOD EQ PUSH0 DUP1 PUSH2 0x164C JUMP JUMPDEST POP DUP4 DUP4 EQ PUSH2 0x1609 JUMP JUMPDEST POP POP POP SWAP1 POP PUSH0 SWAP1 PUSH0 SWAP1 JUMP JUMPDEST POP PUSH0 MLOAD PUSH1 0x20 PUSH2 0x1A6F PUSH0 CODECOPY PUSH0 MLOAD SWAP1 PUSH0 MSTORE DUP2 LT ISZERO PUSH2 0x14E1 JUMP JUMPDEST POP PUSH0 MLOAD PUSH1 0x20 PUSH2 0x1A6F PUSH0 CODECOPY PUSH0 MLOAD SWAP1 PUSH0 MSTORE DUP3 LT ISZERO PUSH2 0x14DA JUMP JUMPDEST POP PUSH0 MLOAD PUSH1 0x20 PUSH2 0x1A6F PUSH0 CODECOPY PUSH0 MLOAD SWAP1 PUSH0 MSTORE DUP6 LT ISZERO PUSH2 0x14D3 JUMP JUMPDEST DUP1 ISZERO PUSH2 0x174F JUMPI DUP1 PUSH1 0x1 SHR SWAP2 PUSH0 MLOAD PUSH1 0x20 PUSH2 0x1A6F PUSH0 CODECOPY PUSH0 MLOAD SWAP1 PUSH0 MSTORE DUP4 LT ISZERO PUSH2 0x9D5 JUMPI PUSH1 0x1 DUP1 PUSH2 0x172E PUSH0 MLOAD PUSH1 0x20 PUSH2 0x1A6F PUSH0 CODECOPY PUSH0 MLOAD SWAP1 PUSH0 MSTORE PUSH1 0x3 DUP2 DUP9 DUP2 DUP2 DUP1 MULMOD MULMOD ADDMOD PUSH2 0x188F JUMP JUMPDEST SWAP4 AND EQ PUSH2 0x1737 JUMPI JUMP JUMPDEST SWAP1 PUSH0 MLOAD PUSH1 0x20 PUSH2 0x1A6F PUSH0 CODECOPY PUSH0 MLOAD SWAP1 PUSH0 MSTORE DUP1 SWAP2 MOD DUP2 SUB MOD SWAP1 JUMP JUMPDEST POP PUSH0 SWAP1 PUSH0 SWAP1 JUMP JUMPDEST DUP1 ISZERO DUP1 PUSH2 0x1887 JUMPI JUMPDEST PUSH2 0x187B JUMPI DUP1 PUSH1 0x2 SHR SWAP3 DUP3 PUSH0 MLOAD PUSH1 0x20 PUSH2 0x1A6F PUSH0 CODECOPY PUSH0 MLOAD SWAP1 PUSH0 MSTORE DUP6 LT DUP1 ISZERO SWAP1 PUSH2 0x1864 JUMPI JUMPDEST PUSH2 0x9D5 JUMPI DUP5 DUP2 PUSH0 MLOAD PUSH1 0x20 PUSH2 0x1A6F PUSH0 CODECOPY PUSH0 MLOAD SWAP1 PUSH0 MSTORE DUP1 DUP1 DUP1 DUP1 DUP1 DUP1 DUP1 DUP1 PUSH32 0x30644E72E131A029B85045B68181585D97816A916871CA8D3C208C16D87CFD44 DUP2 PUSH2 0x182E SWAP14 DUP14 MULMOD MULMOD SWAP10 DUP11 MULMOD DUP2 DUP10 DUP2 DUP2 DUP1 MULMOD MULMOD ADDMOD PUSH32 0x2FCD3AC2A640A154EB23960892A85A68F031CA0C8344B23A577DCF1052B9E775 ADDMOD MOD DUP2 SUB MOD SWAP4 PUSH1 0x2 DUP1 DUP11 AND EQ SWAP6 MULMOD DUP2 DUP11 DUP2 DUP2 DUP1 MULMOD MULMOD ADDMOD PUSH32 0x2B149D40CEB8AAAE81BE18991BE06AC3B5B4C5E559DBEFA33267E6DC24A138E5 ADDMOD PUSH2 0x18B2 JUMP JUMPDEST DUP1 SWAP3 SWAP2 PUSH1 0x1 DUP1 DUP3 SWAP7 AND EQ PUSH2 0x1840 JUMPI POP POP JUMP JUMPDEST PUSH0 MLOAD PUSH1 0x20 PUSH2 0x1A6F PUSH0 CODECOPY PUSH0 MLOAD SWAP1 PUSH0 MSTORE DUP1 SWAP4 SWAP5 POP DUP1 SWAP3 SWAP6 POP DUP1 SWAP2 MOD DUP2 SUB MOD SWAP4 MOD DUP2 SUB MOD SWAP1 JUMP JUMPDEST POP PUSH0 MLOAD PUSH1 0x20 PUSH2 0x1A6F PUSH0 CODECOPY PUSH0 MLOAD SWAP1 PUSH0 MSTORE DUP2 LT ISZERO PUSH2 0x1780 JUMP JUMPDEST POP POP PUSH0 SWAP1 PUSH0 SWAP1 PUSH0 SWAP1 PUSH0 SWAP1 JUMP JUMPDEST POP DUP2 ISZERO PUSH2 0x175E JUMP JUMPDEST SWAP1 PUSH2 0x1899 DUP3 PUSH2 0x1A06 JUMP JUMPDEST SWAP2 PUSH0 MLOAD PUSH1 0x20 PUSH2 0x1A6F PUSH0 CODECOPY PUSH0 MLOAD SWAP1 PUSH0 MSTORE DUP4 DUP1 MULMOD SUB PUSH2 0x9D5 JUMPI JUMP JUMPDEST SWAP2 PUSH0 MLOAD PUSH1 0x20 PUSH2 0x1A6F PUSH0 CODECOPY PUSH0 MLOAD SWAP1 PUSH0 MSTORE PUSH32 0x183227397098D014DC2822DB40C0AC2ECBC0B548B438E5469E10460B6C3E7EA4 DUP2 PUSH2 0x190A SWAP4 SWAP7 SWAP5 SWAP7 PUSH2 0x18FC DUP3 DUP1 DUP11 DUP1 MULMOD DUP2 DUP11 DUP1 MULMOD ADDMOD PUSH2 0x188F JUMP JUMPDEST SWAP1 PUSH2 0x19FA JUMPI JUMPDEST DUP7 ADDMOD MULMOD PUSH2 0x188F JUMP JUMPDEST SWAP3 PUSH0 MLOAD PUSH1 0x20 PUSH2 0x1A6F PUSH0 CODECOPY PUSH0 MLOAD SWAP1 PUSH0 MSTORE PUSH1 0x2 DUP6 MULMOD PUSH1 0x40 MLOAD SWAP1 PUSH1 0x20 DUP3 MSTORE PUSH1 0x20 DUP1 DUP4 ADD MSTORE PUSH1 0x20 PUSH1 0x40 DUP4 ADD MSTORE DUP1 PUSH1 0x60 DUP4 ADD MSTORE PUSH32 0x30644E72E131A029B85045B68181585D97816A916871CA8D3C208C16D87CFD45 PUSH1 0x80 DUP4 ADD MSTORE PUSH0 MLOAD PUSH1 0x20 PUSH2 0x1A6F PUSH0 CODECOPY PUSH0 MLOAD SWAP1 PUSH0 MSTORE PUSH1 0xA0 DUP4 ADD MSTORE PUSH1 0x20 DUP3 PUSH1 0xC0 DUP2 PUSH1 0x5 GAS STATICCALL SWAP2 MLOAD SWAP2 ISZERO PUSH2 0x9D5 JUMPI PUSH0 MLOAD PUSH1 0x20 PUSH2 0x1A6F PUSH0 CODECOPY PUSH0 MLOAD SWAP1 PUSH0 MSTORE DUP3 PUSH1 0x1 SWAP3 MULMOD SUB PUSH2 0x9D5 JUMPI PUSH0 MLOAD PUSH1 0x20 PUSH2 0x1A6F PUSH0 CODECOPY PUSH0 MLOAD SWAP1 PUSH0 MSTORE SWAP1 DUP3 MULMOD SWAP3 PUSH0 MLOAD PUSH1 0x20 PUSH2 0x1A6F PUSH0 CODECOPY PUSH0 MLOAD SWAP1 PUSH0 MSTORE DUP1 DUP1 DUP1 DUP8 DUP1 MULMOD MOD DUP2 SUB MOD DUP2 DUP8 DUP1 MULMOD ADDMOD EQ SWAP1 DUP2 ISZERO SWAP2 PUSH2 0x19DB JUMPI JUMPDEST POP PUSH2 0x9D5 JUMPI JUMP JUMPDEST SWAP1 POP PUSH0 MLOAD PUSH1 0x20 PUSH2 0x1A6F PUSH0 CODECOPY PUSH0 MLOAD SWAP1 PUSH0 MSTORE DUP1 DUP5 DUP7 MULMOD PUSH1 0x2 MULMOD EQ ISZERO PUSH0 PUSH2 0x19D4 JUMP JUMPDEST DUP2 DUP1 SWAP2 MOD DUP2 SUB MOD PUSH2 0x1902 JUMP JUMPDEST SWAP1 PUSH1 0x40 MLOAD SWAP2 PUSH1 0x20 DUP4 MSTORE PUSH1 0x20 DUP1 DUP5 ADD MSTORE PUSH1 0x20 PUSH1 0x40 DUP5 ADD MSTORE PUSH1 0x60 DUP4 ADD MSTORE PUSH32 0xC19139CB84C680A6E14116DA060561765E05AA45A1C72A34F082305B61F3F52 PUSH1 0x80 DUP4 ADD MSTORE PUSH0 MLOAD PUSH1 0x20 PUSH2 0x1A6F PUSH0 CODECOPY PUSH0 MLOAD SWAP1 PUSH0 MSTORE PUSH1 0xA0 DUP4 ADD MSTORE PUSH1 0x20 DUP3 PUSH1 0xC0 DUP2 PUSH1 0x5 GAS STATICCALL SWAP2 MLOAD SWAP2 ISZERO PUSH2 0x9D5 JUMPI JUMP INVALID ADDRESS PUSH5 0x4E72E131A0 0x29 0xB8 POP GASLIMIT 0xB6 DUP2 DUP2 PC TSTORE SWAP8 DUP2 PUSH11 0x916871CA8D3C208C16D87C REVERT SELFBALANCE ADDRESS PUSH5 0x4E72E131A0 0x29 0xB8 POP GASLIMIT 0xB6 DUP2 DUP2 PC TSTORE 0x28 CALLER 0xE8 BASEFEE PUSH26 0xB9709143E1F593F0000001A2646970667358221220C25D24F904 PUSH2 0x147F EXTCODECOPY STATICCALL PUSH31 0xE20519F6803B046E8651FFF117FA50B3EC05A20CA264736F6C634300081C00 CALLER "},"methodIdentifiers":{"compressProof(uint256[8],uint256[2],uint256[2])":"b1c3a00e","verifyCompressedProof(uint256[4],uint256[1],uint256,uint256[8])":"e2dd9f47","verifyProof(uint256[8],uint256[2],uint256[2],uint256[8])":"9ed57f32"}}}}}