{"src/Groth16Verifier.sol":{"Groth16Verifier":{"abi":[{"inputs":[],"name":"CommitmentInvalid","type":"error"},{"inputs":[],"name":"InvalidProof","type":"error"},{"inputs":[],"name":"ProofInvalid","type":"error"},{"inputs":[],"name":"PublicInputNotInField","type":"error"},{"inputs":[{"internalType":"uint256[8]","name":"proof","type":"uint256[8]"},{"internalType":"uint256[2]","name":"commitments","type":"uint256[2]"},{"internalType":"uint256[2]","name":"commitmentPok","type":"uint256[2]"}],"name":"compressProof","outputs":[{"internalType":"uint256[4]","name":"compressed","type":"uint256[4]"},{"internalType":"uint256[1]","name":"compressedCommitments","type":"uint256[1]"},{"internalType":"uint256","name":"compressedCommitmentPok","type":"uint256"}],"stateMutability":"view","type":"function"},{"inputs":[{"internalType":"uint256[4]","name":"compressedProof","type":"uint256[4]"},{"internalType":"uint256[1]","name":"compressedCommitments","type":"uint256[1]"},{"internalType":"uint256","name":"compressedCommitmentPok","type":"uint256"},{"internalType":"uint256[4]","name":"input","type":"uint256[4]"}],"name":"verifyCompressedProof","outputs":[],"stateMutability":"view","type":"function"},{"inputs":[{"internalType":"bytes","name":"_proof","type":"bytes"},{"internalType":"bytes","name":"_input","type":"bytes"}],"name":"verifyProof","outputs":[],"stateMutability":"view","type":"function"},{"inputs":[{"internalType":"uint256[8]","name":"proof","type":"uint256[8]"},{"internalType":"uint256[2]","name":"commitments","type":"uint256[2]"},{"internalType":"uint256[2]","name":"commitmentPok","type":"uint256[2]"},{"internalType":"uint256[4]","name":"input","type":"uint256[4]"}],"name":"verifyProof","outputs":[],"stateMutability":"view","type":"function"}],"evm":{"bytecode":{"linkReferences":{},"object":"6080604052348015600f57600080fd5b50611eac8061001f6000396000f3fe608060405234801561001057600080fd5b506004361061004c5760003560e01c8063b1c3a00e14610051578063b8e72af61461007c578063d148354c14610091578063e33974a8146100a4575b600080fd5b61006461005f36600461195a565b6100b7565b604051610073939291906119cc565b60405180910390f35b61008f61008a366004611a5b565b610140565b005b61008f61009f366004611add565b6101c1565b61008f6100b2366004611b39565b610663565b6100bf61189f565b6100c76118bd565b60006100dc86358760015b6020020135610bcb565b83526100fa6060870135604088013560a089013560808a0135610cc0565b6020850152604084015261011460c08701358760076100d2565b606084015261012685358660016100d2565b825261013584358560016100d2565b905093509350939050565b600080600061014f8787610fb7565b919450925090503063d148354c8484846101698a8a610fe8565b6040518563ffffffff1660e01b81526004016101889493929190611bbc565b60006040518083038186803b1580156101a057600080fd5b505afa1580156101b4573d6000803e3d6000fd5b5050505050505050505050565b6101c96118bd565b6040805160028082526060808301845292602083019080368337019050509050602081016040848101823750604051600080516020611e578339815191529061021e908735906020808a013591869101611c1b565b6040516020818303038152906040528051906020012060001c6102419190611c74565b8252604080516000918782377f211e4e4a8d918a0713db0a7f7b3881cbd4fb530106b2eeeef9b6a2def37b838560408201527f0581211531b4b26155c1440909f874871a4884a8cc6d7318c756ebd6f92d9d8960608201527f23e4263bdb7dae31b45b625db2c630e7d8377f84bf00fb25b7a6b21ded1ad98260808201527f044d47716e320bebbb2364aa60a049be5a7a068aa3852b48a091b25b92bc945f60a082015260408660c08301377f150af895ccbbc62fea1d9ac23322ee0231ba5d729c573746fa32300a8c3629296101008201527f1ee8202074e339786c8eac9d38fde4a12e569b977d36b27ce36ed521a881b0096101208201527f2a9d6bcbd408e8e2e7450020fefadd3d7d6c776dd5df00fa93b3acd9f4e9c14f6101408201527ee22982050ab74a2b58e88f8a3a5f7a20cecddd9c4bc12796724de17c57f9d76101608201526020816101808360085afa9051169050806103b6576040516351d49ff760e11b815260040160405180910390fd5b6000806103ed86868a6002806020026040519081016040528092919082600260200280828437600092019190915250611003915050565b915091506040516101008a82377f29da872e48126af96305ef70eb5b73433b9c1c36ac16fa350a07cbc4f62508a16101008201527f2bdcf4a6f99f7c8a7ade53d212f06e9a06837d6609c1694705a4725bc9679f216101208201527f12c38ae3c0d8b89d140f6ed18e7b911b7e1173d4b80ac594ff23eeda028d71dc6101408201527f10cc7bba2c19c761904630b6faf7248c60d9fcb8ff444a99a449ce233df489256101608201527f17b4b10dbbd2a05dfb674b5d892bc651d0a55976c1613fed3152cbb65027ad7e6101808201527f288814ea49b95ec9439bafc71bc9d31ec35ac5919873e842c9d942896f13f7976101a08201527f0ba9549a9c12c213ebaab06479cc14389071ec391dc95c71505e44cd1971384c6101c08201527f26ec031ca7378081a5cbb74bd4ec5732f1732a70ad92bd0605cdcc75e8b998916101e08201527f1b1b553a91179991d067e10bd0cf8b885409a4047b2eb59517546ddb1838bf096102008201527f030e010702a6fbcf1e569475d1dc21145bbb14774ba5d1ba757a76c961d74d7a61022082015282610240820152816102608201527f1426d4e62629bc57f7224b9d60b4e0b7f90564499e64888500f7580e1595e7c26102808201527f09994f7ae17b798cbf83aed008d5701464ffc51fd36fcd72d95c5e4f95b518f36102a08201527f2ba2ca8a61969c46ebe77da3ad9a13c7067d09f8c9acb79d7b6663819b78e0bc6102c08201527f0391592ac2691059d80aa6af263a979795ca2be05ea06ec818108f907dd351106102e08201526020816103008360085afa90511692508261065857604051631ff3747d60e21b815260040160405180910390fd5b505050505050505050565b61066b6118bd565b6106736118db565b61067b6118f9565b61068c8660005b6020020135611349565b6020840152825260008061069f87611349565b6040805160028082526060808301845294965092945091906020830190803683370190505090506020810160408881018237508451602080870151604051600080516020611e57833981519152936106fc93909291869101611c1b565b6040516020818303038152906040528051906020012060001c61071f9190611c74565b865284518452602085810151858201527f211e4e4a8d918a0713db0a7f7b3881cbd4fb530106b2eeeef9b6a2def37b83856040808701919091527f0581211531b4b26155c1440909f874871a4884a8cc6d7318c756ebd6f92d9d8960608701527f23e4263bdb7dae31b45b625db2c630e7d8377f84bf00fb25b7a6b21ded1ad98260808701527f044d47716e320bebbb2364aa60a049be5a7a068aa3852b48a091b25b92bc945f60a087015260c0860185905260e086018490527f150af895ccbbc62fea1d9ac23322ee0231ba5d729c573746fa32300a8c3629296101008701527f1ee8202074e339786c8eac9d38fde4a12e569b977d36b27ce36ed521a881b0096101208701527f2a9d6bcbd408e8e2e7450020fefadd3d7d6c776dd5df00fa93b3acd9f4e9c14f6101408701527ee22982050ab74a2b58e88f8a3a5f7a20cecddd9c4bc12796724de17c57f9d761016087015251600091816101808860085afa9051169050806108a4576040516351d49ff760e11b815260040160405180910390fd5b505050506000806108c18960006004811061068257610682611b83565b909250905060008080806108dd60408e013560208f01356113ef565b929650909450925090506000806108f58f6003610682565b915091506000806109078e8e8e611003565b8b8d5260208d018b905260408d0189905260608d018a905260808d0187905260a08d0188905260c08d0186905260e08d018590527f29da872e48126af96305ef70eb5b73433b9c1c36ac16fa350a07cbc4f62508a16101008e01527f2bdcf4a6f99f7c8a7ade53d212f06e9a06837d6609c1694705a4725bc9679f216101208e01527f12c38ae3c0d8b89d140f6ed18e7b911b7e1173d4b80ac594ff23eeda028d71dc6101408e01527f10cc7bba2c19c761904630b6faf7248c60d9fcb8ff444a99a449ce233df489256101608e01527f17b4b10dbbd2a05dfb674b5d892bc651d0a55976c1613fed3152cbb65027ad7e6101808e01527f288814ea49b95ec9439bafc71bc9d31ec35ac5919873e842c9d942896f13f7976101a08e01527f0ba9549a9c12c213ebaab06479cc14389071ec391dc95c71505e44cd1971384c6101c08e01527f26ec031ca7378081a5cbb74bd4ec5732f1732a70ad92bd0605cdcc75e8b998916101e08e01527f1b1b553a91179991d067e10bd0cf8b885409a4047b2eb59517546ddb1838bf096102008e01527f030e010702a6fbcf1e569475d1dc21145bbb14774ba5d1ba757a76c961d74d7a6102208e01526102408d018290526102608d018190527f1426d4e62629bc57f7224b9d60b4e0b7f90564499e64888500f7580e1595e7c26102808e01527f09994f7ae17b798cbf83aed008d5701464ffc51fd36fcd72d95c5e4f95b518f36102a08e01527f2ba2ca8a61969c46ebe77da3ad9a13c7067d09f8c9acb79d7b6663819b78e0bc6102c08e01527f0391592ac2691059d80aa6af263a979795ca2be05ea06ec818108f907dd351106102e08e015290925090506000610b7c6118bd565b6020816103008f60085afa9150811580610b9857508051600114155b15610bb657604051631ff3747d60e21b815260040160405180910390fd5b50505050505050505050505050505050505050565b6000600080516020611e3783398151915283101580610bf85750600080516020611e378339815191528210155b15610c1657604051631ff3747d60e21b815260040160405180910390fd5b82158015610c22575081155b15610c2f57506000610cba565b6000610c6e600080516020611e378339815191526003600080516020611e3783398151915287600080516020611e37833981519152898a0909086115d5565b9050808303610c83575050600182901b610cba565b610c8c81611639565b8303610c9f575050600182811b17610cba565b604051631ff3747d60e21b815260040160405180910390fd5b505b92915050565b600080600080516020611e3783398151915286101580610cee5750600080516020611e378339815191528510155b80610d075750600080516020611e378339815191528410155b80610d205750600080516020611e378339815191528310155b15610d3e57604051631ff3747d60e21b815260040160405180910390fd5b82848688171717600003610d5757506000905080610fae565b60008080600080516020611e37833981519152610d836003600080516020611e37833981519152611c96565b600080516020611e378339815191528a8c090990506000600080516020611e378339815191528a600080516020611e378339815191528c8d090990506000600080516020611e378339815191528a600080516020611e378339815191528c8d09099050600080516020611e3783398151915280600080516020611e378339815191528c860984087f2b149d40ceb8aaae81be18991be06ac3b5b4c5e559dbefa33267e6dc24a138e5089450610e7c600080516020611e3783398151915280600080516020611e378339815191528e870984087f2fcd3ac2a640a154eb23960892a85a68f031ca0c8344b23a577dcf1052b9e77508611639565b9350505050600080610ecd600080516020611e3783398151915280610ea357610ea3611c5e565b600080516020611e37833981519152858609600080516020611e37833981519152878809086115d5565b9050610f1a600080516020611e378339815191527f183227397098d014dc2822db40c0ac2ecbc0b548b438e5469e10460b6c3e7ea4600080516020611e3783398151915284880809611652565b15915050610f2983838361169c565b90935091508683148015610f3c57508186145b15610f665780610f4d576000610f50565b60025b60ff1660028a901b176000179450879350610faa565b610f6f83611639565b87148015610f845750610f8182611639565b86145b15610c9f5780610f95576000610f98565b60025b60ff1660028a901b1760011794508793505b5050505b94509492505050565b610fbf611918565b610fc76118db565b610fcf6118db565b610fdb84860186611d4c565b9250925092509250925092565b610ff061189f565b610ffc82840184611dce565b9392505050565b6000806000600190506040516040810160007f02cbd1596aacebc7c101eb5c580ccc6cb56b9c839750990ab2d4f76ff79747f383527f19f49ac4a7828f12fc6952eb61fa59a7dc5ef78b836416de6de8dbede2746c476020840152865182526020870151602083015260408360808560065afa841693507f2c89387e82aa74c5f20f41dd12a6065817915abba131f8fee1d2647c30909a4982527f12b810580955c65a89d61835f18405dfb50416e35211d84524028bd2508ac879602083015288359050806040830152600080516020611e5783398151915281108416935060408260608460075afa8416935060408360808560065afa841693507f2923a5b175c4518620c02d384d93a5b24690da2da33cf861e6fe4f731b8c5ab582527f014b1075d5d14ea370b80dd26bbad1f9ef3a481bb77142f18cd9d7b1344fae32602083015260208901359050806040830152600080516020611e5783398151915281108416935060408260608460075afa8416935060408360808560065afa841693507f239020e346119af73f5f84f16841885a1f8b8f0da00cac95d3f357a1b3994a2382527f089a617bcb3f783933baf633f2726828eb12d4d102e9bfacc267e6fdc2d2e277602083015260408901359050806040830152600080516020611e5783398151915281108416935060408260608460075afa8416935060408360808560065afa841693507f1a0846e5ec7bc1842503dd2970fb85f9f28e041b5f34f48040bfad00c594cf9982527f2015bc90c3f873389b3bcc77a8ac093e1cc27b1e9ae14c99d38c69617759e293602083015260608901359050806040830152600080516020611e5783398151915281108416935060408260608460075afa8416935060408360808560065afa7f27aa18e2691bd95561e006a1fc6e43312d118a9fbd576dfe9e2900ba1c4605b583527f25aeb0fdfcd8d5b33cb2796c1c57ab5369caa79000cece5cbfc4e86c28915766602084015288516040808501829052600080516020611e5783398151915290911091909516169390508160608160075afa831692505060408160808360065afa815160209092015191945090925016806113405760405163a54f8e2760e01b815260040160405180910390fd5b50935093915050565b6000808260000361135f57506000928392509050565b600183811c925080841614600080516020611e37833981519152831061139857604051631ff3747d60e21b815260040160405180910390fd5b6113d5600080516020611e378339815191526003600080516020611e3783398151915286600080516020611e3783398151915288890909086115d5565b915080156113e9576113e682611639565b91505b50915091565b600080808085158015611400575084155b15611416575060009250829150819050806115cc565b600286811c94508593506001808816149080881614600080516020611e37833981519152861015806114565750600080516020611e378339815191528510155b1561147457604051631ff3747d60e21b815260040160405180910390fd5b6000600080516020611e3783398151915261149e6003600080516020611e37833981519152611c96565b600080516020611e37833981519152888a090990506000600080516020611e3783398151915288600080516020611e378339815191528a8b090990506000600080516020611e3783398151915288600080516020611e378339815191528a8b09099050600080516020611e3783398151915280600080516020611e378339815191528a860984087f2b149d40ceb8aaae81be18991be06ac3b5b4c5e559dbefa33267e6dc24a138e5089650611597600080516020611e3783398151915280600080516020611e378339815191528c870984087f2fcd3ac2a640a154eb23960892a85a68f031ca0c8344b23a577dcf1052b9e77508611639565b95506115a487878661169c565b909750955084156115c6576115b887611639565b96506115c386611639565b95505b50505050505b92959194509250565b6000611601827f0c19139cb84c680a6e14116da060561765e05aa45a1c72a34f082305b61f3f526117da565b905081600080516020611e378339815191528283091461163457604051631ff3747d60e21b815260040160405180910390fd5b919050565b600080516020611e378339815191529081900681030690565b60008061167f837f0c19139cb84c680a6e14116da060561765e05aa45a1c72a34f082305b61f3f526117da565b905082600080516020611e37833981519152828309149392505050565b600080806116ce600080516020611e3783398151915280878809600080516020611e37833981519152898a09086115d5565b905083156116e2576116df81611639565b90505b61172d600080516020611e378339815191527f183227397098d014dc2822db40c0ac2ecbc0b548b438e5469e10460b6c3e7ea4600080516020611e37833981519152848a08096115d5565b9250600080516020611e37833981519152611759600080516020611e378339815191526002860961183f565b86099150600080516020611e37833981519152611786600080516020611e37833981519152848509611639565b600080516020611e3783398151915285860908861415806117bc5750600080516020611e37833981519152808385096002098514155b1561134057604051631ff3747d60e21b815260040160405180910390fd5b6000806040516020815260208082015260206040820152846060820152836080820152600080516020611e3783398151915260a082015260208160c08360055afa90519250905080610cb857604051631ff3747d60e21b815260040160405180910390fd5b600061186b827f30644e72e131a029b85045b68181585d97816a916871ca8d3c208c16d87cfd456117da565b9050600080516020611e3783398151915281830960011461163457604051631ff3747d60e21b815260040160405180910390fd5b60405180608001604052806004906020820280368337509192915050565b60405180602001604052806001906020820280368337509192915050565b60405180604001604052806002906020820280368337509192915050565b6040518061030001604052806018906020820280368337509192915050565b6040518061010001604052806008906020820280368337509192915050565b806101008101831015610cba57600080fd5b8060408101831015610cba57600080fd5b6000806000610180848603121561197057600080fd5b61197a8585611937565b925061198a856101008601611949565b915061199a856101408601611949565b90509250925092565b8060005b60048110156119c65781518452602093840193909101906001016119a7565b50505050565b60c081016119da82866119a3565b608082018460005b6001811015611a015781518352602092830192909101906001016119e2565b5050508260a0830152949350505050565b60008083601f840112611a2457600080fd5b50813567ffffffffffffffff811115611a3c57600080fd5b602083019150836020828501011115611a5457600080fd5b9250929050565b60008060008060408587031215611a7157600080fd5b843567ffffffffffffffff811115611a8857600080fd5b611a9487828801611a12565b909550935050602085013567ffffffffffffffff811115611ab457600080fd5b611ac087828801611a12565b95989497509550505050565b8060808101831015610cba57600080fd5b6000806000806102008587031215611af457600080fd5b611afe8686611937565b9350611b0e866101008701611949565b9250611b1e866101408701611949565b9150611b2e866101808701611acc565b905092959194509250565b6000806000806101408587031215611b5057600080fd5b611b5a8686611acc565b935060a0850186811115611b6d57600080fd5b608086019350359150611b2e8660c08701611acc565b634e487b7160e01b600052603260045260246000fd5b8060005b60028110156119c6578151845260209384019390910190600101611b9d565b6102008101818660005b6008811015611be5578151835260209283019290910190600101611bc6565b505050611bf6610100830186611b99565b611c04610140830185611b99565b611c126101808301846119a3565b95945050505050565b83815282602082015260006040820183516020850160005b82811015611c51578151845260209384019390910190600101611c33565b5091979650505050505050565b634e487b7160e01b600052601260045260246000fd5b600082611c9157634e487b7160e01b600052601260045260246000fd5b500690565b81810381811115610cba57634e487b7160e01b600052601160045260246000fd5b604051601f8201601f1916810167ffffffffffffffff81118282101715611cee57634e487b7160e01b600052604160045260246000fd5b604052919050565b600082601f830112611d0757600080fd5b6000611d136040611cb7565b9050806040840185811115611d2757600080fd5b845b81811015611d41578035835260209283019201611d29565b509195945050505050565b60008060006101808486031215611d6257600080fd5b600085601f860112611d72578081fd5b80610100611d7f81611cb7565b9250829150860187811115611d9357600080fd5b865b81811015611dad578035845260209384019301611d95565b50819550611dbb8882611cf6565b945050505061199a856101408601611cf6565b600060808284031215611de057600080fd5b600083601f840112611df0578081fd5b80611dfb6080611cb7565b90508091506080840185811115611e1157600080fd5b845b81811015611e2b578035845260209384019301611e13565b50909594505050505056fe30644e72e131a029b85045b68181585d97816a916871ca8d3c208c16d87cfd4730644e72e131a029b85045b68181585d2833e84879b9709143e1f593f0000001a2646970667358221220229ac3a81f6a6ce7855ad04fa0dfec6332c8ae605f1f65f73118a3e0b8d3c7fa64736f6c634300081c0033","opcodes":"PUSH1 0x80 PUSH1 0x40 MSTORE CALLVALUE DUP1 ISZERO PUSH1 0xF JUMPI PUSH1 0x0 DUP1 REVERT JUMPDEST POP PUSH2 0x1EAC DUP1 PUSH2 0x1F PUSH1 0x0 CODECOPY PUSH1 0x0 RETURN INVALID PUSH1 0x80 PUSH1 0x40 MSTORE CALLVALUE DUP1 ISZERO PUSH2 0x10 JUMPI PUSH1 0x0 DUP1 REVERT JUMPDEST POP PUSH1 0x4 CALLDATASIZE LT PUSH2 0x4C JUMPI PUSH1 0x0 CALLDATALOAD PUSH1 0xE0 SHR DUP1 PUSH4 0xB1C3A00E EQ PUSH2 0x51 JUMPI DUP1 PUSH4 0xB8E72AF6 EQ PUSH2 0x7C JUMPI DUP1 PUSH4 0xD148354C EQ PUSH2 0x91 JUMPI DUP1 PUSH4 0xE33974A8 EQ PUSH2 0xA4 JUMPI JUMPDEST PUSH1 0x0 DUP1 REVERT JUMPDEST PUSH2 0x64 PUSH2 0x5F CALLDATASIZE PUSH1 0x4 PUSH2 0x195A JUMP JUMPDEST PUSH2 0xB7 JUMP JUMPDEST PUSH1 0x40 MLOAD PUSH2 0x73 SWAP4 SWAP3 SWAP2 SWAP1 PUSH2 0x19CC JUMP JUMPDEST PUSH1 0x40 MLOAD DUP1 SWAP2 SUB SWAP1 RETURN JUMPDEST PUSH2 0x8F PUSH2 0x8A CALLDATASIZE PUSH1 0x4 PUSH2 0x1A5B JUMP JUMPDEST PUSH2 0x140 JUMP JUMPDEST STOP JUMPDEST PUSH2 0x8F PUSH2 0x9F CALLDATASIZE PUSH1 0x4 PUSH2 0x1ADD JUMP JUMPDEST PUSH2 0x1C1 JUMP JUMPDEST PUSH2 0x8F PUSH2 0xB2 CALLDATASIZE PUSH1 0x4 PUSH2 0x1B39 JUMP JUMPDEST PUSH2 0x663 JUMP JUMPDEST PUSH2 0xBF PUSH2 0x189F JUMP JUMPDEST PUSH2 0xC7 PUSH2 0x18BD JUMP JUMPDEST PUSH1 0x0 PUSH2 0xDC DUP7 CALLDATALOAD DUP8 PUSH1 0x1 JUMPDEST PUSH1 0x20 MUL ADD CALLDATALOAD PUSH2 0xBCB JUMP JUMPDEST DUP4 MSTORE PUSH2 0xFA PUSH1 0x60 DUP8 ADD CALLDATALOAD PUSH1 0x40 DUP9 ADD CALLDATALOAD PUSH1 0xA0 DUP10 ADD CALLDATALOAD PUSH1 0x80 DUP11 ADD CALLDATALOAD PUSH2 0xCC0 JUMP JUMPDEST PUSH1 0x20 DUP6 ADD MSTORE PUSH1 0x40 DUP5 ADD MSTORE PUSH2 0x114 PUSH1 0xC0 DUP8 ADD CALLDATALOAD DUP8 PUSH1 0x7 PUSH2 0xD2 JUMP JUMPDEST PUSH1 0x60 DUP5 ADD MSTORE PUSH2 0x126 DUP6 CALLDATALOAD DUP7 PUSH1 0x1 PUSH2 0xD2 JUMP JUMPDEST DUP3 MSTORE PUSH2 0x135 DUP5 CALLDATALOAD DUP6 PUSH1 0x1 PUSH2 0xD2 JUMP JUMPDEST SWAP1 POP SWAP4 POP SWAP4 POP SWAP4 SWAP1 POP JUMP JUMPDEST PUSH1 0x0 DUP1 PUSH1 0x0 PUSH2 0x14F DUP8 DUP8 PUSH2 0xFB7 JUMP JUMPDEST SWAP2 SWAP5 POP SWAP3 POP SWAP1 POP ADDRESS PUSH4 0xD148354C DUP5 DUP5 DUP5 PUSH2 0x169 DUP11 DUP11 PUSH2 0xFE8 JUMP JUMPDEST PUSH1 0x40 MLOAD DUP6 PUSH4 0xFFFFFFFF AND PUSH1 0xE0 SHL DUP2 MSTORE PUSH1 0x4 ADD PUSH2 0x188 SWAP5 SWAP4 SWAP3 SWAP2 SWAP1 PUSH2 0x1BBC JUMP JUMPDEST PUSH1 0x0 PUSH1 0x40 MLOAD DUP1 DUP4 SUB DUP2 DUP7 DUP1 EXTCODESIZE ISZERO DUP1 ISZERO PUSH2 0x1A0 JUMPI PUSH1 0x0 DUP1 REVERT JUMPDEST POP GAS STATICCALL ISZERO DUP1 ISZERO PUSH2 0x1B4 JUMPI RETURNDATASIZE PUSH1 0x0 DUP1 RETURNDATACOPY RETURNDATASIZE PUSH1 0x0 REVERT JUMPDEST POP POP POP POP POP POP POP POP POP POP POP JUMP JUMPDEST PUSH2 0x1C9 PUSH2 0x18BD JUMP JUMPDEST PUSH1 0x40 DUP1 MLOAD PUSH1 0x2 DUP1 DUP3 MSTORE PUSH1 0x60 DUP1 DUP4 ADD DUP5 MSTORE SWAP3 PUSH1 0x20 DUP4 ADD SWAP1 DUP1 CALLDATASIZE DUP4 CALLDATACOPY ADD SWAP1 POP POP SWAP1 POP PUSH1 0x20 DUP2 ADD PUSH1 0x40 DUP5 DUP2 ADD DUP3 CALLDATACOPY POP PUSH1 0x40 MLOAD PUSH1 0x0 DUP1 MLOAD PUSH1 0x20 PUSH2 0x1E57 DUP4 CODECOPY DUP2 MLOAD SWAP2 MSTORE SWAP1 PUSH2 0x21E SWAP1 DUP8 CALLDATALOAD SWAP1 PUSH1 0x20 DUP1 DUP11 ADD CALLDATALOAD SWAP2 DUP7 SWAP2 ADD PUSH2 0x1C1B JUMP JUMPDEST PUSH1 0x40 MLOAD PUSH1 0x20 DUP2 DUP4 SUB SUB DUP2 MSTORE SWAP1 PUSH1 0x40 MSTORE DUP1 MLOAD SWAP1 PUSH1 0x20 ADD KECCAK256 PUSH1 0x0 SHR PUSH2 0x241 SWAP2 SWAP1 PUSH2 0x1C74 JUMP JUMPDEST DUP3 MSTORE PUSH1 0x40 DUP1 MLOAD PUSH1 0x0 SWAP2 DUP8 DUP3 CALLDATACOPY PUSH32 0x211E4E4A8D918A0713DB0A7F7B3881CBD4FB530106B2EEEEF9B6A2DEF37B8385 PUSH1 0x40 DUP3 ADD MSTORE PUSH32 0x581211531B4B26155C1440909F874871A4884A8CC6D7318C756EBD6F92D9D89 PUSH1 0x60 DUP3 ADD MSTORE PUSH32 0x23E4263BDB7DAE31B45B625DB2C630E7D8377F84BF00FB25B7A6B21DED1AD982 PUSH1 0x80 DUP3 ADD MSTORE PUSH32 0x44D47716E320BEBBB2364AA60A049BE5A7A068AA3852B48A091B25B92BC945F PUSH1 0xA0 DUP3 ADD MSTORE PUSH1 0x40 DUP7 PUSH1 0xC0 DUP4 ADD CALLDATACOPY PUSH32 0x150AF895CCBBC62FEA1D9AC23322EE0231BA5D729C573746FA32300A8C362929 PUSH2 0x100 DUP3 ADD MSTORE PUSH32 0x1EE8202074E339786C8EAC9D38FDE4A12E569B977D36B27CE36ED521A881B009 PUSH2 0x120 DUP3 ADD MSTORE PUSH32 0x2A9D6BCBD408E8E2E7450020FEFADD3D7D6C776DD5DF00FA93B3ACD9F4E9C14F PUSH2 0x140 DUP3 ADD MSTORE PUSH31 0xE22982050AB74A2B58E88F8A3A5F7A20CECDDD9C4BC12796724DE17C57F9D7 PUSH2 0x160 DUP3 ADD MSTORE PUSH1 0x20 DUP2 PUSH2 0x180 DUP4 PUSH1 0x8 GAS STATICCALL SWAP1 MLOAD AND SWAP1 POP DUP1 PUSH2 0x3B6 JUMPI PUSH1 0x40 MLOAD PUSH4 0x51D49FF7 PUSH1 0xE1 SHL DUP2 MSTORE PUSH1 0x4 ADD PUSH1 0x40 MLOAD DUP1 SWAP2 SUB SWAP1 REVERT JUMPDEST PUSH1 0x0 DUP1 PUSH2 0x3ED DUP7 DUP7 DUP11 PUSH1 0x2 DUP1 PUSH1 0x20 MUL PUSH1 0x40 MLOAD SWAP1 DUP2 ADD PUSH1 0x40 MSTORE DUP1 SWAP3 SWAP2 SWAP1 DUP3 PUSH1 0x2 PUSH1 0x20 MUL DUP1 DUP3 DUP5 CALLDATACOPY PUSH1 0x0 SWAP3 ADD SWAP2 SWAP1 SWAP2 MSTORE POP PUSH2 0x1003 SWAP2 POP POP JUMP JUMPDEST SWAP2 POP SWAP2 POP PUSH1 0x40 MLOAD PUSH2 0x100 DUP11 DUP3 CALLDATACOPY PUSH32 0x29DA872E48126AF96305EF70EB5B73433B9C1C36AC16FA350A07CBC4F62508A1 PUSH2 0x100 DUP3 ADD MSTORE PUSH32 0x2BDCF4A6F99F7C8A7ADE53D212F06E9A06837D6609C1694705A4725BC9679F21 PUSH2 0x120 DUP3 ADD MSTORE PUSH32 0x12C38AE3C0D8B89D140F6ED18E7B911B7E1173D4B80AC594FF23EEDA028D71DC PUSH2 0x140 DUP3 ADD MSTORE PUSH32 0x10CC7BBA2C19C761904630B6FAF7248C60D9FCB8FF444A99A449CE233DF48925 PUSH2 0x160 DUP3 ADD MSTORE PUSH32 0x17B4B10DBBD2A05DFB674B5D892BC651D0A55976C1613FED3152CBB65027AD7E PUSH2 0x180 DUP3 ADD MSTORE PUSH32 0x288814EA49B95EC9439BAFC71BC9D31EC35AC5919873E842C9D942896F13F797 PUSH2 0x1A0 DUP3 ADD MSTORE PUSH32 0xBA9549A9C12C213EBAAB06479CC14389071EC391DC95C71505E44CD1971384C PUSH2 0x1C0 DUP3 ADD MSTORE PUSH32 0x26EC031CA7378081A5CBB74BD4EC5732F1732A70AD92BD0605CDCC75E8B99891 PUSH2 0x1E0 DUP3 ADD MSTORE PUSH32 0x1B1B553A91179991D067E10BD0CF8B885409A4047B2EB59517546DDB1838BF09 PUSH2 0x200 DUP3 ADD MSTORE PUSH32 0x30E010702A6FBCF1E569475D1DC21145BBB14774BA5D1BA757A76C961D74D7A PUSH2 0x220 DUP3 ADD MSTORE DUP3 PUSH2 0x240 DUP3 ADD MSTORE DUP2 PUSH2 0x260 DUP3 ADD MSTORE PUSH32 0x1426D4E62629BC57F7224B9D60B4E0B7F90564499E64888500F7580E1595E7C2 PUSH2 0x280 DUP3 ADD MSTORE PUSH32 0x9994F7AE17B798CBF83AED008D5701464FFC51FD36FCD72D95C5E4F95B518F3 PUSH2 0x2A0 DUP3 ADD MSTORE PUSH32 0x2BA2CA8A61969C46EBE77DA3AD9A13C7067D09F8C9ACB79D7B6663819B78E0BC PUSH2 0x2C0 DUP3 ADD MSTORE PUSH32 0x391592AC2691059D80AA6AF263A979795CA2BE05EA06EC818108F907DD35110 PUSH2 0x2E0 DUP3 ADD MSTORE PUSH1 0x20 DUP2 PUSH2 0x300 DUP4 PUSH1 0x8 GAS STATICCALL SWAP1 MLOAD AND SWAP3 POP DUP3 PUSH2 0x658 JUMPI PUSH1 0x40 MLOAD PUSH4 0x1FF3747D PUSH1 0xE2 SHL DUP2 MSTORE PUSH1 0x4 ADD PUSH1 0x40 MLOAD DUP1 SWAP2 SUB SWAP1 REVERT JUMPDEST POP POP POP POP POP POP POP POP POP JUMP JUMPDEST PUSH2 0x66B PUSH2 0x18BD JUMP JUMPDEST PUSH2 0x673 PUSH2 0x18DB JUMP JUMPDEST PUSH2 0x67B PUSH2 0x18F9 JUMP JUMPDEST PUSH2 0x68C DUP7 PUSH1 0x0 JUMPDEST PUSH1 0x20 MUL ADD CALLDATALOAD PUSH2 0x1349 JUMP JUMPDEST PUSH1 0x20 DUP5 ADD MSTORE DUP3 MSTORE PUSH1 0x0 DUP1 PUSH2 0x69F DUP8 PUSH2 0x1349 JUMP JUMPDEST PUSH1 0x40 DUP1 MLOAD PUSH1 0x2 DUP1 DUP3 MSTORE PUSH1 0x60 DUP1 DUP4 ADD DUP5 MSTORE SWAP5 SWAP7 POP SWAP3 SWAP5 POP SWAP2 SWAP1 PUSH1 0x20 DUP4 ADD SWAP1 DUP1 CALLDATASIZE DUP4 CALLDATACOPY ADD SWAP1 POP POP SWAP1 POP PUSH1 0x20 DUP2 ADD PUSH1 0x40 DUP9 DUP2 ADD DUP3 CALLDATACOPY POP DUP5 MLOAD PUSH1 0x20 DUP1 DUP8 ADD MLOAD PUSH1 0x40 MLOAD PUSH1 0x0 DUP1 MLOAD PUSH1 0x20 PUSH2 0x1E57 DUP4 CODECOPY DUP2 MLOAD SWAP2 MSTORE SWAP4 PUSH2 0x6FC SWAP4 SWAP1 SWAP3 SWAP2 DUP7 SWAP2 ADD PUSH2 0x1C1B JUMP JUMPDEST PUSH1 0x40 MLOAD PUSH1 0x20 DUP2 DUP4 SUB SUB DUP2 MSTORE SWAP1 PUSH1 0x40 MSTORE DUP1 MLOAD SWAP1 PUSH1 0x20 ADD KECCAK256 PUSH1 0x0 SHR PUSH2 0x71F SWAP2 SWAP1 PUSH2 0x1C74 JUMP JUMPDEST DUP7 MSTORE DUP5 MLOAD DUP5 MSTORE PUSH1 0x20 DUP6 DUP2 ADD MLOAD DUP6 DUP3 ADD MSTORE PUSH32 0x211E4E4A8D918A0713DB0A7F7B3881CBD4FB530106B2EEEEF9B6A2DEF37B8385 PUSH1 0x40 DUP1 DUP8 ADD SWAP2 SWAP1 SWAP2 MSTORE PUSH32 0x581211531B4B26155C1440909F874871A4884A8CC6D7318C756EBD6F92D9D89 PUSH1 0x60 DUP8 ADD MSTORE PUSH32 0x23E4263BDB7DAE31B45B625DB2C630E7D8377F84BF00FB25B7A6B21DED1AD982 PUSH1 0x80 DUP8 ADD MSTORE PUSH32 0x44D47716E320BEBBB2364AA60A049BE5A7A068AA3852B48A091B25B92BC945F PUSH1 0xA0 DUP8 ADD MSTORE PUSH1 0xC0 DUP7 ADD DUP6 SWAP1 MSTORE PUSH1 0xE0 DUP7 ADD DUP5 SWAP1 MSTORE PUSH32 0x150AF895CCBBC62FEA1D9AC23322EE0231BA5D729C573746FA32300A8C362929 PUSH2 0x100 DUP8 ADD MSTORE PUSH32 0x1EE8202074E339786C8EAC9D38FDE4A12E569B977D36B27CE36ED521A881B009 PUSH2 0x120 DUP8 ADD MSTORE PUSH32 0x2A9D6BCBD408E8E2E7450020FEFADD3D7D6C776DD5DF00FA93B3ACD9F4E9C14F PUSH2 0x140 DUP8 ADD MSTORE PUSH31 0xE22982050AB74A2B58E88F8A3A5F7A20CECDDD9C4BC12796724DE17C57F9D7 PUSH2 0x160 DUP8 ADD MSTORE MLOAD PUSH1 0x0 SWAP2 DUP2 PUSH2 0x180 DUP9 PUSH1 0x8 GAS STATICCALL SWAP1 MLOAD AND SWAP1 POP DUP1 PUSH2 0x8A4 JUMPI PUSH1 0x40 MLOAD PUSH4 0x51D49FF7 PUSH1 0xE1 SHL DUP2 MSTORE PUSH1 0x4 ADD PUSH1 0x40 MLOAD DUP1 SWAP2 SUB SWAP1 REVERT JUMPDEST POP POP POP POP PUSH1 0x0 DUP1 PUSH2 0x8C1 DUP10 PUSH1 0x0 PUSH1 0x4 DUP2 LT PUSH2 0x682 JUMPI PUSH2 0x682 PUSH2 0x1B83 JUMP JUMPDEST SWAP1 SWAP3 POP SWAP1 POP PUSH1 0x0 DUP1 DUP1 DUP1 PUSH2 0x8DD PUSH1 0x40 DUP15 ADD CALLDATALOAD PUSH1 0x20 DUP16 ADD CALLDATALOAD PUSH2 0x13EF JUMP JUMPDEST SWAP3 SWAP7 POP SWAP1 SWAP5 POP SWAP3 POP SWAP1 POP PUSH1 0x0 DUP1 PUSH2 0x8F5 DUP16 PUSH1 0x3 PUSH2 0x682 JUMP JUMPDEST SWAP2 POP SWAP2 POP PUSH1 0x0 DUP1 PUSH2 0x907 DUP15 DUP15 DUP15 PUSH2 0x1003 JUMP JUMPDEST DUP12 DUP14 MSTORE PUSH1 0x20 DUP14 ADD DUP12 SWAP1 MSTORE PUSH1 0x40 DUP14 ADD DUP10 SWAP1 MSTORE PUSH1 0x60 DUP14 ADD DUP11 SWAP1 MSTORE PUSH1 0x80 DUP14 ADD DUP8 SWAP1 MSTORE PUSH1 0xA0 DUP14 ADD DUP9 SWAP1 MSTORE PUSH1 0xC0 DUP14 ADD DUP7 SWAP1 MSTORE PUSH1 0xE0 DUP14 ADD DUP6 SWAP1 MSTORE PUSH32 0x29DA872E48126AF96305EF70EB5B73433B9C1C36AC16FA350A07CBC4F62508A1 PUSH2 0x100 DUP15 ADD MSTORE PUSH32 0x2BDCF4A6F99F7C8A7ADE53D212F06E9A06837D6609C1694705A4725BC9679F21 PUSH2 0x120 DUP15 ADD MSTORE PUSH32 0x12C38AE3C0D8B89D140F6ED18E7B911B7E1173D4B80AC594FF23EEDA028D71DC PUSH2 0x140 DUP15 ADD MSTORE PUSH32 0x10CC7BBA2C19C761904630B6FAF7248C60D9FCB8FF444A99A449CE233DF48925 PUSH2 0x160 DUP15 ADD MSTORE PUSH32 0x17B4B10DBBD2A05DFB674B5D892BC651D0A55976C1613FED3152CBB65027AD7E PUSH2 0x180 DUP15 ADD MSTORE PUSH32 0x288814EA49B95EC9439BAFC71BC9D31EC35AC5919873E842C9D942896F13F797 PUSH2 0x1A0 DUP15 ADD MSTORE PUSH32 0xBA9549A9C12C213EBAAB06479CC14389071EC391DC95C71505E44CD1971384C PUSH2 0x1C0 DUP15 ADD MSTORE PUSH32 0x26EC031CA7378081A5CBB74BD4EC5732F1732A70AD92BD0605CDCC75E8B99891 PUSH2 0x1E0 DUP15 ADD MSTORE PUSH32 0x1B1B553A91179991D067E10BD0CF8B885409A4047B2EB59517546DDB1838BF09 PUSH2 0x200 DUP15 ADD MSTORE PUSH32 0x30E010702A6FBCF1E569475D1DC21145BBB14774BA5D1BA757A76C961D74D7A PUSH2 0x220 DUP15 ADD MSTORE PUSH2 0x240 DUP14 ADD DUP3 SWAP1 MSTORE PUSH2 0x260 DUP14 ADD DUP2 SWAP1 MSTORE PUSH32 0x1426D4E62629BC57F7224B9D60B4E0B7F90564499E64888500F7580E1595E7C2 PUSH2 0x280 DUP15 ADD MSTORE PUSH32 0x9994F7AE17B798CBF83AED008D5701464FFC51FD36FCD72D95C5E4F95B518F3 PUSH2 0x2A0 DUP15 ADD MSTORE PUSH32 0x2BA2CA8A61969C46EBE77DA3AD9A13C7067D09F8C9ACB79D7B6663819B78E0BC PUSH2 0x2C0 DUP15 ADD MSTORE PUSH32 0x391592AC2691059D80AA6AF263A979795CA2BE05EA06EC818108F907DD35110 PUSH2 0x2E0 DUP15 ADD MSTORE SWAP1 SWAP3 POP SWAP1 POP PUSH1 0x0 PUSH2 0xB7C PUSH2 0x18BD JUMP JUMPDEST PUSH1 0x20 DUP2 PUSH2 0x300 DUP16 PUSH1 0x8 GAS STATICCALL SWAP2 POP DUP2 ISZERO DUP1 PUSH2 0xB98 JUMPI POP DUP1 MLOAD PUSH1 0x1 EQ ISZERO JUMPDEST ISZERO PUSH2 0xBB6 JUMPI PUSH1 0x40 MLOAD PUSH4 0x1FF3747D PUSH1 0xE2 SHL DUP2 MSTORE PUSH1 0x4 ADD PUSH1 0x40 MLOAD DUP1 SWAP2 SUB SWAP1 REVERT JUMPDEST POP POP POP POP POP POP POP POP POP POP POP POP POP POP POP POP POP POP POP JUMP JUMPDEST PUSH1 0x0 PUSH1 0x0 DUP1 MLOAD PUSH1 0x20 PUSH2 0x1E37 DUP4 CODECOPY DUP2 MLOAD SWAP2 MSTORE DUP4 LT ISZERO DUP1 PUSH2 0xBF8 JUMPI POP PUSH1 0x0 DUP1 MLOAD PUSH1 0x20 PUSH2 0x1E37 DUP4 CODECOPY DUP2 MLOAD SWAP2 MSTORE DUP3 LT ISZERO JUMPDEST ISZERO PUSH2 0xC16 JUMPI PUSH1 0x40 MLOAD PUSH4 0x1FF3747D PUSH1 0xE2 SHL DUP2 MSTORE PUSH1 0x4 ADD PUSH1 0x40 MLOAD DUP1 SWAP2 SUB SWAP1 REVERT JUMPDEST DUP3 ISZERO DUP1 ISZERO PUSH2 0xC22 JUMPI POP DUP2 ISZERO JUMPDEST ISZERO PUSH2 0xC2F JUMPI POP PUSH1 0x0 PUSH2 0xCBA JUMP JUMPDEST PUSH1 0x0 PUSH2 0xC6E PUSH1 0x0 DUP1 MLOAD PUSH1 0x20 PUSH2 0x1E37 DUP4 CODECOPY DUP2 MLOAD SWAP2 MSTORE PUSH1 0x3 PUSH1 0x0 DUP1 MLOAD PUSH1 0x20 PUSH2 0x1E37 DUP4 CODECOPY DUP2 MLOAD SWAP2 MSTORE DUP8 PUSH1 0x0 DUP1 MLOAD PUSH1 0x20 PUSH2 0x1E37 DUP4 CODECOPY DUP2 MLOAD SWAP2 MSTORE DUP10 DUP11 MULMOD MULMOD ADDMOD PUSH2 0x15D5 JUMP JUMPDEST SWAP1 POP DUP1 DUP4 SUB PUSH2 0xC83 JUMPI POP POP PUSH1 0x1 DUP3 SWAP1 SHL PUSH2 0xCBA JUMP JUMPDEST PUSH2 0xC8C DUP2 PUSH2 0x1639 JUMP JUMPDEST DUP4 SUB PUSH2 0xC9F JUMPI POP POP PUSH1 0x1 DUP3 DUP2 SHL OR PUSH2 0xCBA JUMP JUMPDEST PUSH1 0x40 MLOAD PUSH4 0x1FF3747D PUSH1 0xE2 SHL DUP2 MSTORE PUSH1 0x4 ADD PUSH1 0x40 MLOAD DUP1 SWAP2 SUB SWAP1 REVERT JUMPDEST POP JUMPDEST SWAP3 SWAP2 POP POP JUMP JUMPDEST PUSH1 0x0 DUP1 PUSH1 0x0 DUP1 MLOAD PUSH1 0x20 PUSH2 0x1E37 DUP4 CODECOPY DUP2 MLOAD SWAP2 MSTORE DUP7 LT ISZERO DUP1 PUSH2 0xCEE JUMPI POP PUSH1 0x0 DUP1 MLOAD PUSH1 0x20 PUSH2 0x1E37 DUP4 CODECOPY DUP2 MLOAD SWAP2 MSTORE DUP6 LT ISZERO JUMPDEST DUP1 PUSH2 0xD07 JUMPI POP PUSH1 0x0 DUP1 MLOAD PUSH1 0x20 PUSH2 0x1E37 DUP4 CODECOPY DUP2 MLOAD SWAP2 MSTORE DUP5 LT ISZERO JUMPDEST DUP1 PUSH2 0xD20 JUMPI POP PUSH1 0x0 DUP1 MLOAD PUSH1 0x20 PUSH2 0x1E37 DUP4 CODECOPY DUP2 MLOAD SWAP2 MSTORE DUP4 LT ISZERO JUMPDEST ISZERO PUSH2 0xD3E JUMPI PUSH1 0x40 MLOAD PUSH4 0x1FF3747D PUSH1 0xE2 SHL DUP2 MSTORE PUSH1 0x4 ADD PUSH1 0x40 MLOAD DUP1 SWAP2 SUB SWAP1 REVERT JUMPDEST DUP3 DUP5 DUP7 DUP9 OR OR OR PUSH1 0x0 SUB PUSH2 0xD57 JUMPI POP PUSH1 0x0 SWAP1 POP DUP1 PUSH2 0xFAE JUMP JUMPDEST PUSH1 0x0 DUP1 DUP1 PUSH1 0x0 DUP1 MLOAD PUSH1 0x20 PUSH2 0x1E37 DUP4 CODECOPY DUP2 MLOAD SWAP2 MSTORE PUSH2 0xD83 PUSH1 0x3 PUSH1 0x0 DUP1 MLOAD PUSH1 0x20 PUSH2 0x1E37 DUP4 CODECOPY DUP2 MLOAD SWAP2 MSTORE PUSH2 0x1C96 JUMP JUMPDEST PUSH1 0x0 DUP1 MLOAD PUSH1 0x20 PUSH2 0x1E37 DUP4 CODECOPY DUP2 MLOAD SWAP2 MSTORE DUP11 DUP13 MULMOD MULMOD SWAP1 POP PUSH1 0x0 PUSH1 0x0 DUP1 MLOAD PUSH1 0x20 PUSH2 0x1E37 DUP4 CODECOPY DUP2 MLOAD SWAP2 MSTORE DUP11 PUSH1 0x0 DUP1 MLOAD PUSH1 0x20 PUSH2 0x1E37 DUP4 CODECOPY DUP2 MLOAD SWAP2 MSTORE DUP13 DUP14 MULMOD MULMOD SWAP1 POP PUSH1 0x0 PUSH1 0x0 DUP1 MLOAD PUSH1 0x20 PUSH2 0x1E37 DUP4 CODECOPY DUP2 MLOAD SWAP2 MSTORE DUP11 PUSH1 0x0 DUP1 MLOAD PUSH1 0x20 PUSH2 0x1E37 DUP4 CODECOPY DUP2 MLOAD SWAP2 MSTORE DUP13 DUP14 MULMOD MULMOD SWAP1 POP PUSH1 0x0 DUP1 MLOAD PUSH1 0x20 PUSH2 0x1E37 DUP4 CODECOPY DUP2 MLOAD SWAP2 MSTORE DUP1 PUSH1 0x0 DUP1 MLOAD PUSH1 0x20 PUSH2 0x1E37 DUP4 CODECOPY DUP2 MLOAD SWAP2 MSTORE DUP13 DUP7 MULMOD DUP5 ADDMOD PUSH32 0x2B149D40CEB8AAAE81BE18991BE06AC3B5B4C5E559DBEFA33267E6DC24A138E5 ADDMOD SWAP5 POP PUSH2 0xE7C PUSH1 0x0 DUP1 MLOAD PUSH1 0x20 PUSH2 0x1E37 DUP4 CODECOPY DUP2 MLOAD SWAP2 MSTORE DUP1 PUSH1 0x0 DUP1 MLOAD PUSH1 0x20 PUSH2 0x1E37 DUP4 CODECOPY DUP2 MLOAD SWAP2 MSTORE DUP15 DUP8 MULMOD DUP5 ADDMOD PUSH32 0x2FCD3AC2A640A154EB23960892A85A68F031CA0C8344B23A577DCF1052B9E775 ADDMOD PUSH2 0x1639 JUMP JUMPDEST SWAP4 POP POP POP POP PUSH1 0x0 DUP1 PUSH2 0xECD PUSH1 0x0 DUP1 MLOAD PUSH1 0x20 PUSH2 0x1E37 DUP4 CODECOPY DUP2 MLOAD SWAP2 MSTORE DUP1 PUSH2 0xEA3 JUMPI PUSH2 0xEA3 PUSH2 0x1C5E JUMP JUMPDEST PUSH1 0x0 DUP1 MLOAD PUSH1 0x20 PUSH2 0x1E37 DUP4 CODECOPY DUP2 MLOAD SWAP2 MSTORE DUP6 DUP7 MULMOD PUSH1 0x0 DUP1 MLOAD PUSH1 0x20 PUSH2 0x1E37 DUP4 CODECOPY DUP2 MLOAD SWAP2 MSTORE DUP8 DUP9 MULMOD ADDMOD PUSH2 0x15D5 JUMP JUMPDEST SWAP1 POP PUSH2 0xF1A PUSH1 0x0 DUP1 MLOAD PUSH1 0x20 PUSH2 0x1E37 DUP4 CODECOPY DUP2 MLOAD SWAP2 MSTORE PUSH32 0x183227397098D014DC2822DB40C0AC2ECBC0B548B438E5469E10460B6C3E7EA4 PUSH1 0x0 DUP1 MLOAD PUSH1 0x20 PUSH2 0x1E37 DUP4 CODECOPY DUP2 MLOAD SWAP2 MSTORE DUP5 DUP9 ADDMOD MULMOD PUSH2 0x1652 JUMP JUMPDEST ISZERO SWAP2 POP POP PUSH2 0xF29 DUP4 DUP4 DUP4 PUSH2 0x169C JUMP JUMPDEST SWAP1 SWAP4 POP SWAP2 POP DUP7 DUP4 EQ DUP1 ISZERO PUSH2 0xF3C JUMPI POP DUP2 DUP7 EQ JUMPDEST ISZERO PUSH2 0xF66 JUMPI DUP1 PUSH2 0xF4D JUMPI PUSH1 0x0 PUSH2 0xF50 JUMP JUMPDEST PUSH1 0x2 JUMPDEST PUSH1 0xFF AND PUSH1 0x2 DUP11 SWAP1 SHL OR PUSH1 0x0 OR SWAP5 POP DUP8 SWAP4 POP PUSH2 0xFAA JUMP JUMPDEST PUSH2 0xF6F DUP4 PUSH2 0x1639 JUMP JUMPDEST DUP8 EQ DUP1 ISZERO PUSH2 0xF84 JUMPI POP PUSH2 0xF81 DUP3 PUSH2 0x1639 JUMP JUMPDEST DUP7 EQ JUMPDEST ISZERO PUSH2 0xC9F JUMPI DUP1 PUSH2 0xF95 JUMPI PUSH1 0x0 PUSH2 0xF98 JUMP JUMPDEST PUSH1 0x2 JUMPDEST PUSH1 0xFF AND PUSH1 0x2 DUP11 SWAP1 SHL OR PUSH1 0x1 OR SWAP5 POP DUP8 SWAP4 POP JUMPDEST POP POP POP JUMPDEST SWAP5 POP SWAP5 SWAP3 POP POP POP JUMP JUMPDEST PUSH2 0xFBF PUSH2 0x1918 JUMP JUMPDEST PUSH2 0xFC7 PUSH2 0x18DB JUMP JUMPDEST PUSH2 0xFCF PUSH2 0x18DB JUMP JUMPDEST PUSH2 0xFDB DUP5 DUP7 ADD DUP7 PUSH2 0x1D4C JUMP JUMPDEST SWAP3 POP SWAP3 POP SWAP3 POP SWAP3 POP SWAP3 POP SWAP3 JUMP JUMPDEST PUSH2 0xFF0 PUSH2 0x189F JUMP JUMPDEST PUSH2 0xFFC DUP3 DUP5 ADD DUP5 PUSH2 0x1DCE JUMP JUMPDEST SWAP4 SWAP3 POP POP POP JUMP JUMPDEST PUSH1 0x0 DUP1 PUSH1 0x0 PUSH1 0x1 SWAP1 POP PUSH1 0x40 MLOAD PUSH1 0x40 DUP2 ADD PUSH1 0x0 PUSH32 0x2CBD1596AACEBC7C101EB5C580CCC6CB56B9C839750990AB2D4F76FF79747F3 DUP4 MSTORE PUSH32 0x19F49AC4A7828F12FC6952EB61FA59A7DC5EF78B836416DE6DE8DBEDE2746C47 PUSH1 0x20 DUP5 ADD MSTORE DUP7 MLOAD DUP3 MSTORE PUSH1 0x20 DUP8 ADD MLOAD PUSH1 0x20 DUP4 ADD MSTORE PUSH1 0x40 DUP4 PUSH1 0x80 DUP6 PUSH1 0x6 GAS STATICCALL DUP5 AND SWAP4 POP PUSH32 0x2C89387E82AA74C5F20F41DD12A6065817915ABBA131F8FEE1D2647C30909A49 DUP3 MSTORE PUSH32 0x12B810580955C65A89D61835F18405DFB50416E35211D84524028BD2508AC879 PUSH1 0x20 DUP4 ADD MSTORE DUP9 CALLDATALOAD SWAP1 POP DUP1 PUSH1 0x40 DUP4 ADD MSTORE PUSH1 0x0 DUP1 MLOAD PUSH1 0x20 PUSH2 0x1E57 DUP4 CODECOPY DUP2 MLOAD SWAP2 MSTORE DUP2 LT DUP5 AND SWAP4 POP PUSH1 0x40 DUP3 PUSH1 0x60 DUP5 PUSH1 0x7 GAS STATICCALL DUP5 AND SWAP4 POP PUSH1 0x40 DUP4 PUSH1 0x80 DUP6 PUSH1 0x6 GAS STATICCALL DUP5 AND SWAP4 POP PUSH32 0x2923A5B175C4518620C02D384D93A5B24690DA2DA33CF861E6FE4F731B8C5AB5 DUP3 MSTORE PUSH32 0x14B1075D5D14EA370B80DD26BBAD1F9EF3A481BB77142F18CD9D7B1344FAE32 PUSH1 0x20 DUP4 ADD MSTORE PUSH1 0x20 DUP10 ADD CALLDATALOAD SWAP1 POP DUP1 PUSH1 0x40 DUP4 ADD MSTORE PUSH1 0x0 DUP1 MLOAD PUSH1 0x20 PUSH2 0x1E57 DUP4 CODECOPY DUP2 MLOAD SWAP2 MSTORE DUP2 LT DUP5 AND SWAP4 POP PUSH1 0x40 DUP3 PUSH1 0x60 DUP5 PUSH1 0x7 GAS STATICCALL DUP5 AND SWAP4 POP PUSH1 0x40 DUP4 PUSH1 0x80 DUP6 PUSH1 0x6 GAS STATICCALL DUP5 AND SWAP4 POP PUSH32 0x239020E346119AF73F5F84F16841885A1F8B8F0DA00CAC95D3F357A1B3994A23 DUP3 MSTORE PUSH32 0x89A617BCB3F783933BAF633F2726828EB12D4D102E9BFACC267E6FDC2D2E277 PUSH1 0x20 DUP4 ADD MSTORE PUSH1 0x40 DUP10 ADD CALLDATALOAD SWAP1 POP DUP1 PUSH1 0x40 DUP4 ADD MSTORE PUSH1 0x0 DUP1 MLOAD PUSH1 0x20 PUSH2 0x1E57 DUP4 CODECOPY DUP2 MLOAD SWAP2 MSTORE DUP2 LT DUP5 AND SWAP4 POP PUSH1 0x40 DUP3 PUSH1 0x60 DUP5 PUSH1 0x7 GAS STATICCALL DUP5 AND SWAP4 POP PUSH1 0x40 DUP4 PUSH1 0x80 DUP6 PUSH1 0x6 GAS STATICCALL DUP5 AND SWAP4 POP PUSH32 0x1A0846E5EC7BC1842503DD2970FB85F9F28E041B5F34F48040BFAD00C594CF99 DUP3 MSTORE PUSH32 0x2015BC90C3F873389B3BCC77A8AC093E1CC27B1E9AE14C99D38C69617759E293 PUSH1 0x20 DUP4 ADD MSTORE PUSH1 0x60 DUP10 ADD CALLDATALOAD SWAP1 POP DUP1 PUSH1 0x40 DUP4 ADD MSTORE PUSH1 0x0 DUP1 MLOAD PUSH1 0x20 PUSH2 0x1E57 DUP4 CODECOPY DUP2 MLOAD SWAP2 MSTORE DUP2 LT DUP5 AND SWAP4 POP PUSH1 0x40 DUP3 PUSH1 0x60 DUP5 PUSH1 0x7 GAS STATICCALL DUP5 AND SWAP4 POP PUSH1 0x40 DUP4 PUSH1 0x80 DUP6 PUSH1 0x6 GAS STATICCALL PUSH32 0x27AA18E2691BD95561E006A1FC6E43312D118A9FBD576DFE9E2900BA1C4605B5 DUP4 MSTORE PUSH32 0x25AEB0FDFCD8D5B33CB2796C1C57AB5369CAA79000CECE5CBFC4E86C28915766 PUSH1 0x20 DUP5 ADD MSTORE DUP9 MLOAD PUSH1 0x40 DUP1 DUP6 ADD DUP3 SWAP1 MSTORE PUSH1 0x0 DUP1 MLOAD PUSH1 0x20 PUSH2 0x1E57 DUP4 CODECOPY DUP2 MLOAD SWAP2 MSTORE SWAP1 SWAP2 LT SWAP2 SWAP1 SWAP6 AND AND SWAP4 SWAP1 POP DUP2 PUSH1 0x60 DUP2 PUSH1 0x7 GAS STATICCALL DUP4 AND SWAP3 POP POP PUSH1 0x40 DUP2 PUSH1 0x80 DUP4 PUSH1 0x6 GAS STATICCALL DUP2 MLOAD PUSH1 0x20 SWAP1 SWAP3 ADD MLOAD SWAP2 SWAP5 POP SWAP1 SWAP3 POP AND DUP1 PUSH2 0x1340 JUMPI PUSH1 0x40 MLOAD PUSH4 0xA54F8E27 PUSH1 0xE0 SHL DUP2 MSTORE PUSH1 0x4 ADD PUSH1 0x40 MLOAD DUP1 SWAP2 SUB SWAP1 REVERT JUMPDEST POP SWAP4 POP SWAP4 SWAP2 POP POP JUMP JUMPDEST PUSH1 0x0 DUP1 DUP3 PUSH1 0x0 SUB PUSH2 0x135F JUMPI POP PUSH1 0x0 SWAP3 DUP4 SWAP3 POP SWAP1 POP JUMP JUMPDEST PUSH1 0x1 DUP4 DUP2 SHR SWAP3 POP DUP1 DUP5 AND EQ PUSH1 0x0 DUP1 MLOAD PUSH1 0x20 PUSH2 0x1E37 DUP4 CODECOPY DUP2 MLOAD SWAP2 MSTORE DUP4 LT PUSH2 0x1398 JUMPI PUSH1 0x40 MLOAD PUSH4 0x1FF3747D PUSH1 0xE2 SHL DUP2 MSTORE PUSH1 0x4 ADD PUSH1 0x40 MLOAD DUP1 SWAP2 SUB SWAP1 REVERT JUMPDEST PUSH2 0x13D5 PUSH1 0x0 DUP1 MLOAD PUSH1 0x20 PUSH2 0x1E37 DUP4 CODECOPY DUP2 MLOAD SWAP2 MSTORE PUSH1 0x3 PUSH1 0x0 DUP1 MLOAD PUSH1 0x20 PUSH2 0x1E37 DUP4 CODECOPY DUP2 MLOAD SWAP2 MSTORE DUP7 PUSH1 0x0 DUP1 MLOAD PUSH1 0x20 PUSH2 0x1E37 DUP4 CODECOPY DUP2 MLOAD SWAP2 MSTORE DUP9 DUP10 MULMOD MULMOD ADDMOD PUSH2 0x15D5 JUMP JUMPDEST SWAP2 POP DUP1 ISZERO PUSH2 0x13E9 JUMPI PUSH2 0x13E6 DUP3 PUSH2 0x1639 JUMP JUMPDEST SWAP2 POP JUMPDEST POP SWAP2 POP SWAP2 JUMP JUMPDEST PUSH1 0x0 DUP1 DUP1 DUP1 DUP6 ISZERO DUP1 ISZERO PUSH2 0x1400 JUMPI POP DUP5 ISZERO JUMPDEST ISZERO PUSH2 0x1416 JUMPI POP PUSH1 0x0 SWAP3 POP DUP3 SWAP2 POP DUP2 SWAP1 POP DUP1 PUSH2 0x15CC JUMP JUMPDEST PUSH1 0x2 DUP7 DUP2 SHR SWAP5 POP DUP6 SWAP4 POP PUSH1 0x1 DUP1 DUP9 AND EQ SWAP1 DUP1 DUP9 AND EQ PUSH1 0x0 DUP1 MLOAD PUSH1 0x20 PUSH2 0x1E37 DUP4 CODECOPY DUP2 MLOAD SWAP2 MSTORE DUP7 LT ISZERO DUP1 PUSH2 0x1456 JUMPI POP PUSH1 0x0 DUP1 MLOAD PUSH1 0x20 PUSH2 0x1E37 DUP4 CODECOPY DUP2 MLOAD SWAP2 MSTORE DUP6 LT ISZERO JUMPDEST ISZERO PUSH2 0x1474 JUMPI PUSH1 0x40 MLOAD PUSH4 0x1FF3747D PUSH1 0xE2 SHL DUP2 MSTORE PUSH1 0x4 ADD PUSH1 0x40 MLOAD DUP1 SWAP2 SUB SWAP1 REVERT JUMPDEST PUSH1 0x0 PUSH1 0x0 DUP1 MLOAD PUSH1 0x20 PUSH2 0x1E37 DUP4 CODECOPY DUP2 MLOAD SWAP2 MSTORE PUSH2 0x149E PUSH1 0x3 PUSH1 0x0 DUP1 MLOAD PUSH1 0x20 PUSH2 0x1E37 DUP4 CODECOPY DUP2 MLOAD SWAP2 MSTORE PUSH2 0x1C96 JUMP JUMPDEST PUSH1 0x0 DUP1 MLOAD PUSH1 0x20 PUSH2 0x1E37 DUP4 CODECOPY DUP2 MLOAD SWAP2 MSTORE DUP9 DUP11 MULMOD MULMOD SWAP1 POP PUSH1 0x0 PUSH1 0x0 DUP1 MLOAD PUSH1 0x20 PUSH2 0x1E37 DUP4 CODECOPY DUP2 MLOAD SWAP2 MSTORE DUP9 PUSH1 0x0 DUP1 MLOAD PUSH1 0x20 PUSH2 0x1E37 DUP4 CODECOPY DUP2 MLOAD SWAP2 MSTORE DUP11 DUP12 MULMOD MULMOD SWAP1 POP PUSH1 0x0 PUSH1 0x0 DUP1 MLOAD PUSH1 0x20 PUSH2 0x1E37 DUP4 CODECOPY DUP2 MLOAD SWAP2 MSTORE DUP9 PUSH1 0x0 DUP1 MLOAD PUSH1 0x20 PUSH2 0x1E37 DUP4 CODECOPY DUP2 MLOAD SWAP2 MSTORE DUP11 DUP12 MULMOD MULMOD SWAP1 POP PUSH1 0x0 DUP1 MLOAD PUSH1 0x20 PUSH2 0x1E37 DUP4 CODECOPY DUP2 MLOAD SWAP2 MSTORE DUP1 PUSH1 0x0 DUP1 MLOAD PUSH1 0x20 PUSH2 0x1E37 DUP4 CODECOPY DUP2 MLOAD SWAP2 MSTORE DUP11 DUP7 MULMOD DUP5 ADDMOD PUSH32 0x2B149D40CEB8AAAE81BE18991BE06AC3B5B4C5E559DBEFA33267E6DC24A138E5 ADDMOD SWAP7 POP PUSH2 0x1597 PUSH1 0x0 DUP1 MLOAD PUSH1 0x20 PUSH2 0x1E37 DUP4 CODECOPY DUP2 MLOAD SWAP2 MSTORE DUP1 PUSH1 0x0 DUP1 MLOAD PUSH1 0x20 PUSH2 0x1E37 DUP4 CODECOPY DUP2 MLOAD SWAP2 MSTORE DUP13 DUP8 MULMOD DUP5 ADDMOD PUSH32 0x2FCD3AC2A640A154EB23960892A85A68F031CA0C8344B23A577DCF1052B9E775 ADDMOD PUSH2 0x1639 JUMP JUMPDEST SWAP6 POP PUSH2 0x15A4 DUP8 DUP8 DUP7 PUSH2 0x169C JUMP JUMPDEST SWAP1 SWAP8 POP SWAP6 POP DUP5 ISZERO PUSH2 0x15C6 JUMPI PUSH2 0x15B8 DUP8 PUSH2 0x1639 JUMP JUMPDEST SWAP7 POP PUSH2 0x15C3 DUP7 PUSH2 0x1639 JUMP JUMPDEST SWAP6 POP JUMPDEST POP POP POP POP POP JUMPDEST SWAP3 SWAP6 SWAP2 SWAP5 POP SWAP3 POP JUMP JUMPDEST PUSH1 0x0 PUSH2 0x1601 DUP3 PUSH32 0xC19139CB84C680A6E14116DA060561765E05AA45A1C72A34F082305B61F3F52 PUSH2 0x17DA JUMP JUMPDEST SWAP1 POP DUP2 PUSH1 0x0 DUP1 MLOAD PUSH1 0x20 PUSH2 0x1E37 DUP4 CODECOPY DUP2 MLOAD SWAP2 MSTORE DUP3 DUP4 MULMOD EQ PUSH2 0x1634 JUMPI PUSH1 0x40 MLOAD PUSH4 0x1FF3747D PUSH1 0xE2 SHL DUP2 MSTORE PUSH1 0x4 ADD PUSH1 0x40 MLOAD DUP1 SWAP2 SUB SWAP1 REVERT JUMPDEST SWAP2 SWAP1 POP JUMP JUMPDEST PUSH1 0x0 DUP1 MLOAD PUSH1 0x20 PUSH2 0x1E37 DUP4 CODECOPY DUP2 MLOAD SWAP2 MSTORE SWAP1 DUP2 SWAP1 MOD DUP2 SUB MOD SWAP1 JUMP JUMPDEST PUSH1 0x0 DUP1 PUSH2 0x167F DUP4 PUSH32 0xC19139CB84C680A6E14116DA060561765E05AA45A1C72A34F082305B61F3F52 PUSH2 0x17DA JUMP JUMPDEST SWAP1 POP DUP3 PUSH1 0x0 DUP1 MLOAD PUSH1 0x20 PUSH2 0x1E37 DUP4 CODECOPY DUP2 MLOAD SWAP2 MSTORE DUP3 DUP4 MULMOD EQ SWAP4 SWAP3 POP POP POP JUMP JUMPDEST PUSH1 0x0 DUP1 DUP1 PUSH2 0x16CE PUSH1 0x0 DUP1 MLOAD PUSH1 0x20 PUSH2 0x1E37 DUP4 CODECOPY DUP2 MLOAD SWAP2 MSTORE DUP1 DUP8 DUP9 MULMOD PUSH1 0x0 DUP1 MLOAD PUSH1 0x20 PUSH2 0x1E37 DUP4 CODECOPY DUP2 MLOAD SWAP2 MSTORE DUP10 DUP11 MULMOD ADDMOD PUSH2 0x15D5 JUMP JUMPDEST SWAP1 POP DUP4 ISZERO PUSH2 0x16E2 JUMPI PUSH2 0x16DF DUP2 PUSH2 0x1639 JUMP JUMPDEST SWAP1 POP JUMPDEST PUSH2 0x172D PUSH1 0x0 DUP1 MLOAD PUSH1 0x20 PUSH2 0x1E37 DUP4 CODECOPY DUP2 MLOAD SWAP2 MSTORE PUSH32 0x183227397098D014DC2822DB40C0AC2ECBC0B548B438E5469E10460B6C3E7EA4 PUSH1 0x0 DUP1 MLOAD PUSH1 0x20 PUSH2 0x1E37 DUP4 CODECOPY DUP2 MLOAD SWAP2 MSTORE DUP5 DUP11 ADDMOD MULMOD PUSH2 0x15D5 JUMP JUMPDEST SWAP3 POP PUSH1 0x0 DUP1 MLOAD PUSH1 0x20 PUSH2 0x1E37 DUP4 CODECOPY DUP2 MLOAD SWAP2 MSTORE PUSH2 0x1759 PUSH1 0x0 DUP1 MLOAD PUSH1 0x20 PUSH2 0x1E37 DUP4 CODECOPY DUP2 MLOAD SWAP2 MSTORE PUSH1 0x2 DUP7 MULMOD PUSH2 0x183F JUMP JUMPDEST DUP7 MULMOD SWAP2 POP PUSH1 0x0 DUP1 MLOAD PUSH1 0x20 PUSH2 0x1E37 DUP4 CODECOPY DUP2 MLOAD SWAP2 MSTORE PUSH2 0x1786 PUSH1 0x0 DUP1 MLOAD PUSH1 0x20 PUSH2 0x1E37 DUP4 CODECOPY DUP2 MLOAD SWAP2 MSTORE DUP5 DUP6 MULMOD PUSH2 0x1639 JUMP JUMPDEST PUSH1 0x0 DUP1 MLOAD PUSH1 0x20 PUSH2 0x1E37 DUP4 CODECOPY DUP2 MLOAD SWAP2 MSTORE DUP6 DUP7 MULMOD ADDMOD DUP7 EQ ISZERO DUP1 PUSH2 0x17BC JUMPI POP PUSH1 0x0 DUP1 MLOAD PUSH1 0x20 PUSH2 0x1E37 DUP4 CODECOPY DUP2 MLOAD SWAP2 MSTORE DUP1 DUP4 DUP6 MULMOD PUSH1 0x2 MULMOD DUP6 EQ ISZERO JUMPDEST ISZERO PUSH2 0x1340 JUMPI PUSH1 0x40 MLOAD PUSH4 0x1FF3747D PUSH1 0xE2 SHL DUP2 MSTORE PUSH1 0x4 ADD PUSH1 0x40 MLOAD DUP1 SWAP2 SUB SWAP1 REVERT JUMPDEST PUSH1 0x0 DUP1 PUSH1 0x40 MLOAD PUSH1 0x20 DUP2 MSTORE PUSH1 0x20 DUP1 DUP3 ADD MSTORE PUSH1 0x20 PUSH1 0x40 DUP3 ADD MSTORE DUP5 PUSH1 0x60 DUP3 ADD MSTORE DUP4 PUSH1 0x80 DUP3 ADD MSTORE PUSH1 0x0 DUP1 MLOAD PUSH1 0x20 PUSH2 0x1E37 DUP4 CODECOPY DUP2 MLOAD SWAP2 MSTORE PUSH1 0xA0 DUP3 ADD MSTORE PUSH1 0x20 DUP2 PUSH1 0xC0 DUP4 PUSH1 0x5 GAS STATICCALL SWAP1 MLOAD SWAP3 POP SWAP1 POP DUP1 PUSH2 0xCB8 JUMPI PUSH1 0x40 MLOAD PUSH4 0x1FF3747D PUSH1 0xE2 SHL DUP2 MSTORE PUSH1 0x4 ADD PUSH1 0x40 MLOAD DUP1 SWAP2 SUB SWAP1 REVERT JUMPDEST PUSH1 0x0 PUSH2 0x186B DUP3 PUSH32 0x30644E72E131A029B85045B68181585D97816A916871CA8D3C208C16D87CFD45 PUSH2 0x17DA JUMP JUMPDEST SWAP1 POP PUSH1 0x0 DUP1 MLOAD PUSH1 0x20 PUSH2 0x1E37 DUP4 CODECOPY DUP2 MLOAD SWAP2 MSTORE DUP2 DUP4 MULMOD PUSH1 0x1 EQ PUSH2 0x1634 JUMPI PUSH1 0x40 MLOAD PUSH4 0x1FF3747D PUSH1 0xE2 SHL DUP2 MSTORE PUSH1 0x4 ADD PUSH1 0x40 MLOAD DUP1 SWAP2 SUB SWAP1 REVERT JUMPDEST PUSH1 0x40 MLOAD DUP1 PUSH1 0x80 ADD PUSH1 0x40 MSTORE DUP1 PUSH1 0x4 SWAP1 PUSH1 0x20 DUP3 MUL DUP1 CALLDATASIZE DUP4 CALLDATACOPY POP SWAP2 SWAP3 SWAP2 POP POP JUMP JUMPDEST PUSH1 0x40 MLOAD DUP1 PUSH1 0x20 ADD PUSH1 0x40 MSTORE DUP1 PUSH1 0x1 SWAP1 PUSH1 0x20 DUP3 MUL DUP1 CALLDATASIZE DUP4 CALLDATACOPY POP SWAP2 SWAP3 SWAP2 POP POP JUMP JUMPDEST PUSH1 0x40 MLOAD DUP1 PUSH1 0x40 ADD PUSH1 0x40 MSTORE DUP1 PUSH1 0x2 SWAP1 PUSH1 0x20 DUP3 MUL DUP1 CALLDATASIZE DUP4 CALLDATACOPY POP SWAP2 SWAP3 SWAP2 POP POP JUMP JUMPDEST PUSH1 0x40 MLOAD DUP1 PUSH2 0x300 ADD PUSH1 0x40 MSTORE DUP1 PUSH1 0x18 SWAP1 PUSH1 0x20 DUP3 MUL DUP1 CALLDATASIZE DUP4 CALLDATACOPY POP SWAP2 SWAP3 SWAP2 POP POP JUMP JUMPDEST PUSH1 0x40 MLOAD DUP1 PUSH2 0x100 ADD PUSH1 0x40 MSTORE DUP1 PUSH1 0x8 SWAP1 PUSH1 0x20 DUP3 MUL DUP1 CALLDATASIZE DUP4 CALLDATACOPY POP SWAP2 SWAP3 SWAP2 POP POP JUMP JUMPDEST DUP1 PUSH2 0x100 DUP2 ADD DUP4 LT ISZERO PUSH2 0xCBA JUMPI PUSH1 0x0 DUP1 REVERT JUMPDEST DUP1 PUSH1 0x40 DUP2 ADD DUP4 LT ISZERO PUSH2 0xCBA JUMPI PUSH1 0x0 DUP1 REVERT JUMPDEST PUSH1 0x0 DUP1 PUSH1 0x0 PUSH2 0x180 DUP5 DUP7 SUB SLT ISZERO PUSH2 0x1970 JUMPI PUSH1 0x0 DUP1 REVERT JUMPDEST PUSH2 0x197A DUP6 DUP6 PUSH2 0x1937 JUMP JUMPDEST SWAP3 POP PUSH2 0x198A DUP6 PUSH2 0x100 DUP7 ADD PUSH2 0x1949 JUMP JUMPDEST SWAP2 POP PUSH2 0x199A DUP6 PUSH2 0x140 DUP7 ADD PUSH2 0x1949 JUMP JUMPDEST SWAP1 POP SWAP3 POP SWAP3 POP SWAP3 JUMP JUMPDEST DUP1 PUSH1 0x0 JUMPDEST PUSH1 0x4 DUP2 LT ISZERO PUSH2 0x19C6 JUMPI DUP2 MLOAD DUP5 MSTORE PUSH1 0x20 SWAP4 DUP5 ADD SWAP4 SWAP1 SWAP2 ADD SWAP1 PUSH1 0x1 ADD PUSH2 0x19A7 JUMP JUMPDEST POP POP POP POP JUMP JUMPDEST PUSH1 0xC0 DUP2 ADD PUSH2 0x19DA DUP3 DUP7 PUSH2 0x19A3 JUMP JUMPDEST PUSH1 0x80 DUP3 ADD DUP5 PUSH1 0x0 JUMPDEST PUSH1 0x1 DUP2 LT ISZERO PUSH2 0x1A01 JUMPI DUP2 MLOAD DUP4 MSTORE PUSH1 0x20 SWAP3 DUP4 ADD SWAP3 SWAP1 SWAP2 ADD SWAP1 PUSH1 0x1 ADD PUSH2 0x19E2 JUMP JUMPDEST POP POP POP DUP3 PUSH1 0xA0 DUP4 ADD MSTORE SWAP5 SWAP4 POP POP POP POP JUMP JUMPDEST PUSH1 0x0 DUP1 DUP4 PUSH1 0x1F DUP5 ADD SLT PUSH2 0x1A24 JUMPI PUSH1 0x0 DUP1 REVERT JUMPDEST POP DUP2 CALLDATALOAD PUSH8 0xFFFFFFFFFFFFFFFF DUP2 GT ISZERO PUSH2 0x1A3C JUMPI PUSH1 0x0 DUP1 REVERT JUMPDEST PUSH1 0x20 DUP4 ADD SWAP2 POP DUP4 PUSH1 0x20 DUP3 DUP6 ADD ADD GT ISZERO PUSH2 0x1A54 JUMPI PUSH1 0x0 DUP1 REVERT JUMPDEST SWAP3 POP SWAP3 SWAP1 POP JUMP JUMPDEST PUSH1 0x0 DUP1 PUSH1 0x0 DUP1 PUSH1 0x40 DUP6 DUP8 SUB SLT ISZERO PUSH2 0x1A71 JUMPI PUSH1 0x0 DUP1 REVERT JUMPDEST DUP5 CALLDATALOAD PUSH8 0xFFFFFFFFFFFFFFFF DUP2 GT ISZERO PUSH2 0x1A88 JUMPI PUSH1 0x0 DUP1 REVERT JUMPDEST PUSH2 0x1A94 DUP8 DUP3 DUP9 ADD PUSH2 0x1A12 JUMP JUMPDEST SWAP1 SWAP6 POP SWAP4 POP POP PUSH1 0x20 DUP6 ADD CALLDATALOAD PUSH8 0xFFFFFFFFFFFFFFFF DUP2 GT ISZERO PUSH2 0x1AB4 JUMPI PUSH1 0x0 DUP1 REVERT JUMPDEST PUSH2 0x1AC0 DUP8 DUP3 DUP9 ADD PUSH2 0x1A12 JUMP JUMPDEST SWAP6 SWAP9 SWAP5 SWAP8 POP SWAP6 POP POP POP POP JUMP JUMPDEST DUP1 PUSH1 0x80 DUP2 ADD DUP4 LT ISZERO PUSH2 0xCBA JUMPI PUSH1 0x0 DUP1 REVERT JUMPDEST PUSH1 0x0 DUP1 PUSH1 0x0 DUP1 PUSH2 0x200 DUP6 DUP8 SUB SLT ISZERO PUSH2 0x1AF4 JUMPI PUSH1 0x0 DUP1 REVERT JUMPDEST PUSH2 0x1AFE DUP7 DUP7 PUSH2 0x1937 JUMP JUMPDEST SWAP4 POP PUSH2 0x1B0E DUP7 PUSH2 0x100 DUP8 ADD PUSH2 0x1949 JUMP JUMPDEST SWAP3 POP PUSH2 0x1B1E DUP7 PUSH2 0x140 DUP8 ADD PUSH2 0x1949 JUMP JUMPDEST SWAP2 POP PUSH2 0x1B2E DUP7 PUSH2 0x180 DUP8 ADD PUSH2 0x1ACC JUMP JUMPDEST SWAP1 POP SWAP3 SWAP6 SWAP2 SWAP5 POP SWAP3 POP JUMP JUMPDEST PUSH1 0x0 DUP1 PUSH1 0x0 DUP1 PUSH2 0x140 DUP6 DUP8 SUB SLT ISZERO PUSH2 0x1B50 JUMPI PUSH1 0x0 DUP1 REVERT JUMPDEST PUSH2 0x1B5A DUP7 DUP7 PUSH2 0x1ACC JUMP JUMPDEST SWAP4 POP PUSH1 0xA0 DUP6 ADD DUP7 DUP2 GT ISZERO PUSH2 0x1B6D JUMPI PUSH1 0x0 DUP1 REVERT JUMPDEST PUSH1 0x80 DUP7 ADD SWAP4 POP CALLDATALOAD SWAP2 POP PUSH2 0x1B2E DUP7 PUSH1 0xC0 DUP8 ADD PUSH2 0x1ACC JUMP JUMPDEST PUSH4 0x4E487B71 PUSH1 0xE0 SHL PUSH1 0x0 MSTORE PUSH1 0x32 PUSH1 0x4 MSTORE PUSH1 0x24 PUSH1 0x0 REVERT JUMPDEST DUP1 PUSH1 0x0 JUMPDEST PUSH1 0x2 DUP2 LT ISZERO PUSH2 0x19C6 JUMPI DUP2 MLOAD DUP5 MSTORE PUSH1 0x20 SWAP4 DUP5 ADD SWAP4 SWAP1 SWAP2 ADD SWAP1 PUSH1 0x1 ADD PUSH2 0x1B9D JUMP JUMPDEST PUSH2 0x200 DUP2 ADD DUP2 DUP7 PUSH1 0x0 JUMPDEST PUSH1 0x8 DUP2 LT ISZERO PUSH2 0x1BE5 JUMPI DUP2 MLOAD DUP4 MSTORE PUSH1 0x20 SWAP3 DUP4 ADD SWAP3 SWAP1 SWAP2 ADD SWAP1 PUSH1 0x1 ADD PUSH2 0x1BC6 JUMP JUMPDEST POP POP POP PUSH2 0x1BF6 PUSH2 0x100 DUP4 ADD DUP7 PUSH2 0x1B99 JUMP JUMPDEST PUSH2 0x1C04 PUSH2 0x140 DUP4 ADD DUP6 PUSH2 0x1B99 JUMP JUMPDEST PUSH2 0x1C12 PUSH2 0x180 DUP4 ADD DUP5 PUSH2 0x19A3 JUMP JUMPDEST SWAP6 SWAP5 POP POP POP POP POP JUMP JUMPDEST DUP4 DUP2 MSTORE DUP3 PUSH1 0x20 DUP3 ADD MSTORE PUSH1 0x0 PUSH1 0x40 DUP3 ADD DUP4 MLOAD PUSH1 0x20 DUP6 ADD PUSH1 0x0 JUMPDEST DUP3 DUP2 LT ISZERO PUSH2 0x1C51 JUMPI DUP2 MLOAD DUP5 MSTORE PUSH1 0x20 SWAP4 DUP5 ADD SWAP4 SWAP1 SWAP2 ADD SWAP1 PUSH1 0x1 ADD PUSH2 0x1C33 JUMP JUMPDEST POP SWAP2 SWAP8 SWAP7 POP POP POP POP POP POP POP JUMP JUMPDEST PUSH4 0x4E487B71 PUSH1 0xE0 SHL PUSH1 0x0 MSTORE PUSH1 0x12 PUSH1 0x4 MSTORE PUSH1 0x24 PUSH1 0x0 REVERT JUMPDEST PUSH1 0x0 DUP3 PUSH2 0x1C91 JUMPI PUSH4 0x4E487B71 PUSH1 0xE0 SHL PUSH1 0x0 MSTORE PUSH1 0x12 PUSH1 0x4 MSTORE PUSH1 0x24 PUSH1 0x0 REVERT JUMPDEST POP MOD SWAP1 JUMP JUMPDEST DUP2 DUP2 SUB DUP2 DUP2 GT ISZERO PUSH2 0xCBA JUMPI PUSH4 0x4E487B71 PUSH1 0xE0 SHL PUSH1 0x0 MSTORE PUSH1 0x11 PUSH1 0x4 MSTORE PUSH1 0x24 PUSH1 0x0 REVERT JUMPDEST PUSH1 0x40 MLOAD PUSH1 0x1F DUP3 ADD PUSH1 0x1F NOT AND DUP2 ADD PUSH8 0xFFFFFFFFFFFFFFFF DUP2 GT DUP3 DUP3 LT OR ISZERO PUSH2 0x1CEE JUMPI PUSH4 0x4E487B71 PUSH1 0xE0 SHL PUSH1 0x0 MSTORE PUSH1 0x41 PUSH1 0x4 MSTORE PUSH1 0x24 PUSH1 0x0 REVERT JUMPDEST PUSH1 0x40 MSTORE SWAP2 SWAP1 POP JUMP JUMPDEST PUSH1 0x0 DUP3 PUSH1 0x1F DUP4 ADD SLT PUSH2 0x1D07 JUMPI PUSH1 0x0 DUP1 REVERT JUMPDEST PUSH1 0x0 PUSH2 0x1D13 PUSH1 0x40 PUSH2 0x1CB7 JUMP JUMPDEST SWAP1 POP DUP1 PUSH1 0x40 DUP5 ADD DUP6 DUP2 GT ISZERO PUSH2 0x1D27 JUMPI PUSH1 0x0 DUP1 REVERT JUMPDEST DUP5 JUMPDEST DUP2 DUP2 LT ISZERO PUSH2 0x1D41 JUMPI DUP1 CALLDATALOAD DUP4 MSTORE PUSH1 0x20 SWAP3 DUP4 ADD SWAP3 ADD PUSH2 0x1D29 JUMP JUMPDEST POP SWAP2 SWAP6 SWAP5 POP POP POP POP POP JUMP JUMPDEST PUSH1 0x0 DUP1 PUSH1 0x0 PUSH2 0x180 DUP5 DUP7 SUB SLT ISZERO PUSH2 0x1D62 JUMPI PUSH1 0x0 DUP1 REVERT JUMPDEST PUSH1 0x0 DUP6 PUSH1 0x1F DUP7 ADD SLT PUSH2 0x1D72 JUMPI DUP1 DUP2 REVERT JUMPDEST DUP1 PUSH2 0x100 PUSH2 0x1D7F DUP2 PUSH2 0x1CB7 JUMP JUMPDEST SWAP3 POP DUP3 SWAP2 POP DUP7 ADD DUP8 DUP2 GT ISZERO PUSH2 0x1D93 JUMPI PUSH1 0x0 DUP1 REVERT JUMPDEST DUP7 JUMPDEST DUP2 DUP2 LT ISZERO PUSH2 0x1DAD JUMPI DUP1 CALLDATALOAD DUP5 MSTORE PUSH1 0x20 SWAP4 DUP5 ADD SWAP4 ADD PUSH2 0x1D95 JUMP JUMPDEST POP DUP2 SWAP6 POP PUSH2 0x1DBB DUP9 DUP3 PUSH2 0x1CF6 JUMP JUMPDEST SWAP5 POP POP POP POP PUSH2 0x199A DUP6 PUSH2 0x140 DUP7 ADD PUSH2 0x1CF6 JUMP JUMPDEST PUSH1 0x0 PUSH1 0x80 DUP3 DUP5 SUB SLT ISZERO PUSH2 0x1DE0 JUMPI PUSH1 0x0 DUP1 REVERT JUMPDEST PUSH1 0x0 DUP4 PUSH1 0x1F DUP5 ADD SLT PUSH2 0x1DF0 JUMPI DUP1 DUP2 REVERT JUMPDEST DUP1 PUSH2 0x1DFB PUSH1 0x80 PUSH2 0x1CB7 JUMP JUMPDEST SWAP1 POP DUP1 SWAP2 POP PUSH1 0x80 DUP5 ADD DUP6 DUP2 GT ISZERO PUSH2 0x1E11 JUMPI PUSH1 0x0 DUP1 REVERT JUMPDEST DUP5 JUMPDEST DUP2 DUP2 LT ISZERO PUSH2 0x1E2B JUMPI DUP1 CALLDATALOAD DUP5 MSTORE PUSH1 0x20 SWAP4 DUP5 ADD SWAP4 ADD PUSH2 0x1E13 JUMP JUMPDEST POP SWAP1 SWAP6 SWAP5 POP POP POP POP POP JUMP INVALID ADDRESS PUSH5 0x4E72E131A0 0x29 0xB8 POP GASLIMIT 0xB6 DUP2 DUP2 PC TSTORE SWAP8 DUP2 PUSH11 0x916871CA8D3C208C16D87C REVERT SELFBALANCE ADDRESS PUSH5 0x4E72E131A0 0x29 0xB8 POP GASLIMIT 0xB6 DUP2 DUP2 PC TSTORE 0x28 CALLER 0xE8 BASEFEE PUSH26 0xB9709143E1F593F0000001A2646970667358221220229AC3A81F PUSH11 0x6CE7855AD04FA0DFEC6332 0xC8 0xAE PUSH1 0x5F 0x1F PUSH6 0xF73118A3E0B8 0xD3 0xC7 STATICCALL PUSH5 0x736F6C6343 STOP ADDMOD SHR STOP CALLER "},"methodIdentifiers":{"compressProof(uint256[8],uint256[2],uint256[2])":"b1c3a00e","verifyCompressedProof(uint256[4],uint256[1],uint256,uint256[4])":"e33974a8","verifyProof(bytes,bytes)":"b8e72af6","verifyProof(uint256[8],uint256[2],uint256[2],uint256[4])":"d148354c"}}}}}