{"src/verifiers/statetransition_vkey.sol":{"Verifier":{"abi":[{"inputs":[],"name":"CommitmentInvalid","type":"error"},{"inputs":[],"name":"ProofInvalid","type":"error"},{"inputs":[],"name":"PublicInputNotInField","type":"error"},{"inputs":[{"internalType":"uint256[8]","name":"proof","type":"uint256[8]"},{"internalType":"uint256[2]","name":"commitments","type":"uint256[2]"},{"internalType":"uint256[2]","name":"commitmentPok","type":"uint256[2]"}],"name":"compressProof","outputs":[{"internalType":"uint256[4]","name":"compressed","type":"uint256[4]"},{"internalType":"uint256[1]","name":"compressedCommitments","type":"uint256[1]"},{"internalType":"uint256","name":"compressedCommitmentPok","type":"uint256"}],"stateMutability":"view","type":"function"},{"inputs":[{"internalType":"uint256[4]","name":"compressedProof","type":"uint256[4]"},{"internalType":"uint256[1]","name":"compressedCommitments","type":"uint256[1]"},{"internalType":"uint256","name":"compressedCommitmentPok","type":"uint256"},{"internalType":"uint256[8]","name":"input","type":"uint256[8]"}],"name":"verifyCompressedProof","outputs":[],"stateMutability":"view","type":"function"},{"inputs":[{"internalType":"uint256[8]","name":"proof","type":"uint256[8]"},{"internalType":"uint256[2]","name":"commitments","type":"uint256[2]"},{"internalType":"uint256[2]","name":"commitmentPok","type":"uint256[2]"},{"internalType":"uint256[8]","name":"input","type":"uint256[8]"}],"name":"verifyProof","outputs":[],"stateMutability":"view","type":"function"}],"evm":{"bytecode":{"linkReferences":{},"object":"60808060405234601557611ae0908161001a8239f35b5f80fdfe60806040526004361015610011575f80fd5b5f3560e01c80639ed57f3214610b22578063b1c3a00e14610a115763e2dd9f471461003a575f80fd5b34610a0d576101c0366003190112610a0d5736608411610a0d573660a411610a0d57366101c411610a0d57604051602061007481836113a2565b80368337604080519061008781836113a2565b803683376103009381519261009c86856113a2565b853685376100ab6084356116e7565b8683015281526100bc60a4356116e7565b905f516020611a8b5f395f51905f5285516100d787826113a2565b6001815288610104818301601f198a01368237378451906101168a61010881890151938b51948593840196876113d8565b03601f1981018352826113a2565b5190200684528251865286830151878701527f129ea85df19445ba9e718bfc798832ec19fc54d6871ee992ee3644efe60361c0858701527f2eeee6c432f64a24931ad776307a61b99bab74b41c1c621b7c8df2ca0359c7bd60608701527f2bc629c54341a945ca3ec97522d445b5c7618c17ef06e822c9e007c3b24895e660808701527ec1d36a45205652c210cec488e2c0225d692544bfe895e4dea0041c71d7a18960a087015260c086015260e08501527f1a4ef41410348a77b7640f4c5e491410026ce6f14096d871a8331e57cc696f206101008501527f0cb03eb14330efcdc5a721900747b87232de16ec461bc8e61239939e39deed386101208501527f2ce3280e12a6069c70aa22955a5837eb207c418c279a9e7cad7cd0f4e6f8cfaa6101408501527f0155da331b524e59bbc31093bbb893dc7bc49566c4eee7f4f65e4a9e375993e6610160850152825185816101808760085afa905116156109fe5784906102856004356116e7565b610296602495929535604435611752565b92919093896102a66064356116e7565b9890977f0c4a62450775f19c01e7429ca32d5e7b05d57a81347b7aa7dcb66e0f1e433b3a83519b8c937f1d51a2cebd061916b84b001d2be570f4f4ddf347ff63449aa74639384996f58d85527f0220b2619e95a34954edaf5bb2cef83a8c30927a8e166c282970534793fdf73e828601528051868601520151606084019081527f125a5906e995d8b74e6d1c37a3a1721b58685d2e8ee2658b3f03e4f29cd4d54b858560808160065afa957f0629cf10d24fce1656b615f53d79eddee0705e223157bae926949e2c46c2c74f818701527f0aec8680b8b2d499ffd34f18aa16e7ee1dcf578191ec4e0e743adcb8da5780c48352600160c4356080880198818a525f516020611a8b5f395f51905f5284808b016060828d0160075afa92101616828860808160065afa16167f11ba9a7dd0fc2b6460f65e25fdae8bf29c6ea110ab41cbca6f183a084bcddea7828801527f1a0e182a16f03235233a0bdf69e6cc62d0b64bef1f7ea5e06dc53bfd76b2cb60845260e435908189525f516020611a8b5f395f51905f5283808a016060828c0160075afa92101616818760808160065afa167f19b7a440300b6fad49c2932a7de19ac45bd0c0e54fb5fc6f84a8852fb3d1bf3c828801527f296c7c6496a65377db64b25396844a9f284eff7de4a52be20b9d1313e73cf3a7845261010435908189525f516020611a8b5f395f51905f5283808a016060828c0160075afa92101616818760808160065afa167f1fc55b137d7f9f532b18026f3f36d7395fb12d1c30584133e310cef908696320828801527f192322785e18de98d9052e4ed2041859b7cc4c1daed7bc35b720e76006c05de8845261012435908189525f516020611a8b5f395f51905f5283808a016060828c0160075afa92101616818760808160065afa167f23b303bbc6d5d587270831635ae99a798b2daf7057fda73ff66ddda09e16ba83828801527eb1ff9fe1618b0c68cfa03c3484e6ad358feefb12e2e7b59f77aa2233c2fd8e845261014435908189525f516020611a8b5f395f51905f5283808a016060828c0160075afa92101616818760808160065afa167f07d064634eef00186a74b29eb92b1601b7f6bcfece8a7e6557b30c79e73a1d1c828801527f0da6793eb2498691be04464e0574016a52b679673abba4dcea4fb2e2c9a109e2845261016435908189525f516020611a8b5f395f51905f5283808a016060828c0160075afa92101616818760808160065afa167f139848a2a7c875a5b8834f97c536129ee22574aafb7ee24659feb3257c596dc6828801527f24d9a60d2c279ea55bfd179537a212b847b1076a95408bbf7c06e9f6cfa9a428845261018435908189525f516020611a8b5f395f51905f5283808a016060828c0160075afa92101616818760808160065afa167f08aa82d8ff4e425230ff25ee9c6633af86d3e3078c2ede53f4accb464baba410828801527f0e74ab57a507dc4717a3bddefeef61dbd0fdc664ef8b2480027f34f5b7eeac7784526101a435908189525f516020611a8b5f395f51905f5283808a016060828c0160075afa92101616818760808160065afa1695015252518092525f516020611a8b5f395f51905f528c8b606082808301920160075afa921016168a8960808160065afa16988c895199015199156109ef578b528b8b0152888a01526060890152608088015260a087015260c086015260e08501527f2405ca43b82e73302dc922162c5d06891235ae11a88461d7b9835b01c5c06aa56101008501527f2fbb411ac5f9e75b110fc9f8fd4ba389580a9a253c8c59f83a9bd7684c5b522e6101208501527f15e078edd0756ce3f96c7bca9d28bd2a8ad0e17ceb3287904f572cb88839ebd46101408501527f1fbf6495e01dfac5f4241e3fe068ec38b2b88653856939166b3a4e8de54cd4866101608501527f1f302f91957fb0acfbfe150cc040a0c9b6375a7d90e632b86bec96c7631492406101808501527f17c613ebc236baf72e453f81c76879a89c879e9fc9d93a94fecb4d68ea67c2626101a08501527f0fac29aa7d7e813379ad38c124c57dcedc88ada161c9e391c110a26d07412c976101c08501527f099a1db894a80ac96b7242026e0a80b7c40bad4064ea763948c6ce2a3b7b9e976101e08501527f1d0ba55682d8b0fa1ba6eed361d49bbabd28c6c2a7a354d1e08f522d326fb13b6102008501527f2225659acd03b38ab4167a0d653e817b00b3a420bc5393817881df3ff89f3f916102208501526102408401526102608301527f29609df80be2dab2fe3a262b1a0fd377107200c9a3cdc3eaf9fec484dd2f30f76102808301527f2b68ddc9fd8defbe00f4b8ca76434f8ab731da07ad29e62c6f89c4e1d09589e06102a08301527f06ff4f7edb850015ebf5c4a86f668dd748c92731167093a2cd89ce2336fde72e6102c08301527f1057eecfe6cd48bbd604b90ab35daf5bb7c66c3c5432d90de97f16f922799ecd6102e0830152519283916109bb84846113a2565b8336843760085afa159081156109e2575b506109d357005b631ff3747d60e21b5f5260045ffd5b600191505114155f6109cc565b63a54f8e2760e01b5f5260045ffd5b6351d49ff760e11b5f5260045ffd5b5f80fd5b34610a0d57610180366003190112610a0d573661010411610a0d573661014411610a0d573661018411610a0d57604051610a4c6080826113a2565b6080368237604051906020610a6181846113a2565b80368437610a73602435600435611412565b8252610a8960843560a4356044356064356114b3565b828401526040830152610aa060e43560c435611412565b6060830152610ab56101243561010435611412565b8352610ac76101643561014435611412565b9060405192835f905b60048210610b0c575050506080830193905f945b60018610610af75760c0858560a0820152f35b81806001928551815201930195019491610ae4565b8251815291830191600191909101908301610ad0565b34610a0d57610280366003190112610a0d573661010411610a0d573661014411610a0d573661018411610a0d573661028411610a0d576040516020610b6781836113a2565b803683376040915f516020611a8b5f395f51905f528351610b8885826113a2565b60018152836101c4818301601f198801368237378451610bb781610108878201946101243561010435876113d8565b51902006815282518361010482377f129ea85df19445ba9e718bfc798832ec19fc54d6871ee992ee3644efe60361c0848201527f2eeee6c432f64a24931ad776307a61b99bab74b41c1c621b7c8df2ca0359c7bd60608201527f2bc629c54341a945ca3ec97522d445b5c7618c17ef06e822c9e007c3b24895e660808201527ec1d36a45205652c210cec488e2c0225d692544bfe895e4dea0041c71d7a18960a08201528361014460c08301377f1a4ef41410348a77b7640f4c5e491410026ce6f14096d871a8331e57cc696f206101008201527f0cb03eb14330efcdc5a721900747b87232de16ec461bc8e61239939e39deed386101208201527f2ce3280e12a6069c70aa22955a5837eb207c418c279a9e7cad7cd0f4e6f8cfaa6101408201527f0155da331b524e59bbc31093bbb893dc7bc49566c4eee7f4f65e4a9e375993e661016082015282816101808160085afa905116156109fe57825192610d1f81856113a2565b61010483855b6101448310611392575050508051918183017f1d51a2cebd061916b84b001d2be570f4f4ddf347ff63449aa74639384996f58d84525f516020611a8b5f395f51905f528386808701987f0220b2619e95a34954edaf5bb2cef83a8c30927a8e166c282970534793fdf73e8a528051855201519260608701938452818760808160065afa947f0629cf10d24fce1656b615f53d79eddee0705e223157bae926949e2c46c2c74f82527f0aec8680b8b2d499ffd34f18aa16e7ee1dcf578191ec4e0e743adcb8da5780c485527f0c4a62450775f19c01e7429ca32d5e7b05d57a81347b7aa7dcb66e0f1e433b3a60016101843560808b0198818a5287878760608160075afa92101616858b60808160065afa16167f11ba9a7dd0fc2b6460f65e25fdae8bf29c6ea110ab41cbca6f183a084bcddea784527f1a0e182a16f03235233a0bdf69e6cc62d0b64bef1f7ea5e06dc53bfd76b2cb6087526101a4359081895286868660608160075afa92101616848a60808160065afa167f19b7a440300b6fad49c2932a7de19ac45bd0c0e54fb5fc6f84a8852fb3d1bf3c84527f296c7c6496a65377db64b25396844a9f284eff7de4a52be20b9d1313e73cf3a787526101c4359081895286868660608160075afa92101616848a60808160065afa167f1fc55b137d7f9f532b18026f3f36d7395fb12d1c30584133e310cef90869632084527f192322785e18de98d9052e4ed2041859b7cc4c1daed7bc35b720e76006c05de887526101e4359081895286868660608160075afa92101616848a60808160065afa167f23b303bbc6d5d587270831635ae99a798b2daf7057fda73ff66ddda09e16ba8384527eb1ff9fe1618b0c68cfa03c3484e6ad358feefb12e2e7b59f77aa2233c2fd8e8752610204359081895286868660608160075afa92101616848a60808160065afa167f07d064634eef00186a74b29eb92b1601b7f6bcfece8a7e6557b30c79e73a1d1c84527f0da6793eb2498691be04464e0574016a52b679673abba4dcea4fb2e2c9a109e28752610224359081895286868660608160075afa92101616848a60808160065afa167f139848a2a7c875a5b8834f97c536129ee22574aafb7ee24659feb3257c596dc684527f24d9a60d2c279ea55bfd179537a212b847b1076a95408bbf7c06e9f6cfa9a4288752610244359081895286868660608160075afa92101616848a60808160065afa167f08aa82d8ff4e425230ff25ee9c6633af86d3e3078c2ede53f4accb464baba41084527f0e74ab57a507dc4717a3bddefeef61dbd0fdc664ef8b2480027f34f5b7eeac778752610264359081895286868660608160075afa92101616848a60808160065afa16957f125a5906e995d8b74e6d1c37a3a1721b58685d2e8ee2658b3f03e4f29cd4d54b8452525180955260608160075afa92101616818360808160065afa169151935191156109ef575192610100600485377f2405ca43b82e73302dc922162c5d06891235ae11a88461d7b9835b01c5c06aa56101008501527f2fbb411ac5f9e75b110fc9f8fd4ba389580a9a253c8c59f83a9bd7684c5b522e6101208501527f15e078edd0756ce3f96c7bca9d28bd2a8ad0e17ceb3287904f572cb88839ebd46101408501527f1fbf6495e01dfac5f4241e3fe068ec38b2b88653856939166b3a4e8de54cd4866101608501527f1f302f91957fb0acfbfe150cc040a0c9b6375a7d90e632b86bec96c7631492406101808501527f17c613ebc236baf72e453f81c76879a89c879e9fc9d93a94fecb4d68ea67c2626101a08501527f0fac29aa7d7e813379ad38c124c57dcedc88ada161c9e391c110a26d07412c976101c08501527f099a1db894a80ac96b7242026e0a80b7c40bad4064ea763948c6ce2a3b7b9e976101e08501527f1d0ba55682d8b0fa1ba6eed361d49bbabd28c6c2a7a354d1e08f522d326fb13b6102008501527f2225659acd03b38ab4167a0d653e817b00b3a420bc5393817881df3ff89f3f916102208501526102408401526102608301527f29609df80be2dab2fe3a262b1a0fd377107200c9a3cdc3eaf9fec484dd2f30f76102808301527f2b68ddc9fd8defbe00f4b8ca76434f8ab731da07ad29e62c6f89c4e1d09589e06102a08301527f06ff4f7edb850015ebf5c4a86f668dd748c92731167093a2cd89ce2336fde72e6102c08301527f1057eecfe6cd48bbd604b90ab35daf5bb7c66c3c5432d90de97f16f922799ecd6102e0830152816103008160085afa905116156109d357005b8235815291810191859101610d25565b90601f8019910116810190811067ffffffffffffffff8211176113c457604052565b634e487b7160e01b5f52604160045260245ffd5b9091604092825260208201520160208251919201905f5b8181106113fc5750505090565b82518452602093840193909201916001016113ef565b905f516020611a6b5f395f51905f52821080159061149c575b6109d357811580611494575b61148e5761145b5f516020611a6b5f395f51905f526003818581818009090861188b565b81810361146a57505060011b90565b5f516020611a6b5f395f51905f52809106810306145f146109d357600190811b1790565b50505f90565b508015611437565b505f516020611a6b5f395f51905f5281101561142b565b919093925f516020611a6b5f395f51905f5283108015906116d0575b80156116b9575b80156116a2575b6109d3578082868517171715611697579082916115fa5f516020611a6b5f395f51905f5280808080888180808f9d7f30644e72e131a029b85045b68181585d97816a916871ca8d3c208c16d87cfd448f839290839109099d8e0981848181800909087f2b149d40ceb8aaae81be18991be06ac3b5b4c5e559dbefa33267e6dc24a138e5089a09818c8181800909087f2fcd3ac2a640a154eb23960892a85a68f031ca0c8344b23a577dcf1052b9e7750806810306945f516020611a6b5f395f51905f527f183227397098d014dc2822db40c0ac2ecbc0b548b438e5469e10460b6c3e7ea4816115d481808b8009818780090861188b565b8408095f516020611a6b5f395f51905f526115ee82611a02565b800914159586916118ae565b92908082148061168e575b1561162c5750505050905f146116245760ff60025b169060021b179190565b60ff5f61161a565b5f516020611a6b5f395f51905f5280910681030614918261166f575b5050156109d357600191156116675760ff60025b169060021b17179190565b60ff5f61165c565b5f516020611a6b5f395f51905f52919250819006810306145f80611648565b50838314611605565b50505090505f905f90565b505f516020611a6b5f395f51905f528110156114dd565b505f516020611a6b5f395f51905f528210156114d6565b505f516020611a6b5f395f51905f528510156114cf565b801561174b578060011c915f516020611a6b5f395f51905f528310156109d35760018061172a5f516020611a6b5f395f51905f526003818881818009090861188b565b93161461173357565b905f516020611a6b5f395f51905f5280910681030690565b505f905f90565b801580611883575b611877578060021c92825f516020611a6b5f395f51905f528510801590611860575b6109d35784815f516020611a6b5f395f51905f5280808080808080807f30644e72e131a029b85045b68181585d97816a916871ca8d3c208c16d87cfd448161182a9d8d0909998a0981898181800909087f2fcd3ac2a640a154eb23960892a85a68f031ca0c8344b23a577dcf1052b9e7750806810306936002808a16149509818a8181800909087f2b149d40ceb8aaae81be18991be06ac3b5b4c5e559dbefa33267e6dc24a138e5086118ae565b8092916001808296161461183c575050565b5f516020611a6b5f395f51905f528093945080929550809106810306930681030690565b505f516020611a6b5f395f51905f5281101561177c565b50505f905f905f905f90565b50811561175a565b9061189582611a02565b915f516020611a6b5f395f51905f52838009036109d357565b915f516020611a6b5f395f51905f527f183227397098d014dc2822db40c0ac2ecbc0b548b438e5469e10460b6c3e7ea481611906939694966118f882808a8009818a80090861188b565b906119f6575b86080961188b565b925f516020611a6b5f395f51905f52600285096040519060208252602080830152602060408301528060608301527f30644e72e131a029b85045b68181585d97816a916871ca8d3c208c16d87cfd4560808301525f516020611a6b5f395f51905f5260a083015260208260c08160055afa915191156109d3575f516020611a6b5f395f51905f528260019209036109d3575f516020611a6b5f395f51905f52908209925f516020611a6b5f395f51905f5280808087800906810306818780090814908115916119d7575b506109d357565b90505f516020611a6b5f395f51905f528084860960020914155f6119d0565b818091068103066118fe565b9060405191602083526020808401526020604084015260608301527f0c19139cb84c680a6e14116da060561765e05aa45a1c72a34f082305b61f3f5260808301525f516020611a6b5f395f51905f5260a083015260208260c08160055afa915191156109d35756fe30644e72e131a029b85045b68181585d97816a916871ca8d3c208c16d87cfd4730644e72e131a029b85045b68181585d2833e84879b9709143e1f593f0000001a26469706673582212204eabd031c4a600d5801fef20e6d8f4a08be1f821ad3cfcec5fb21b77b54c9cbc64736f6c634300081c0033","opcodes":"PUSH1 0x80 DUP1 PUSH1 0x40 MSTORE CALLVALUE PUSH1 0x15 JUMPI PUSH2 0x1AE0 SWAP1 DUP2 PUSH2 0x1A DUP3 CODECOPY RETURN JUMPDEST PUSH0 DUP1 REVERT INVALID PUSH1 0x80 PUSH1 0x40 MSTORE PUSH1 0x4 CALLDATASIZE LT ISZERO PUSH2 0x11 JUMPI PUSH0 DUP1 REVERT JUMPDEST PUSH0 CALLDATALOAD PUSH1 0xE0 SHR DUP1 PUSH4 0x9ED57F32 EQ PUSH2 0xB22 JUMPI DUP1 PUSH4 0xB1C3A00E EQ PUSH2 0xA11 JUMPI PUSH4 0xE2DD9F47 EQ PUSH2 0x3A JUMPI PUSH0 DUP1 REVERT JUMPDEST CALLVALUE PUSH2 0xA0D JUMPI PUSH2 0x1C0 CALLDATASIZE PUSH1 0x3 NOT ADD SLT PUSH2 0xA0D JUMPI CALLDATASIZE PUSH1 0x84 GT PUSH2 0xA0D JUMPI CALLDATASIZE PUSH1 0xA4 GT PUSH2 0xA0D JUMPI CALLDATASIZE PUSH2 0x1C4 GT PUSH2 0xA0D JUMPI PUSH1 0x40 MLOAD PUSH1 0x20 PUSH2 0x74 DUP2 DUP4 PUSH2 0x13A2 JUMP JUMPDEST DUP1 CALLDATASIZE DUP4 CALLDATACOPY PUSH1 0x40 DUP1 MLOAD SWAP1 PUSH2 0x87 DUP2 DUP4 PUSH2 0x13A2 JUMP JUMPDEST DUP1 CALLDATASIZE DUP4 CALLDATACOPY PUSH2 0x300 SWAP4 DUP2 MLOAD SWAP3 PUSH2 0x9C DUP7 DUP6 PUSH2 0x13A2 JUMP JUMPDEST DUP6 CALLDATASIZE DUP6 CALLDATACOPY PUSH2 0xAB PUSH1 0x84 CALLDATALOAD PUSH2 0x16E7 JUMP JUMPDEST DUP7 DUP4 ADD MSTORE DUP2 MSTORE PUSH2 0xBC PUSH1 0xA4 CALLDATALOAD PUSH2 0x16E7 JUMP JUMPDEST SWAP1 PUSH0 MLOAD PUSH1 0x20 PUSH2 0x1A8B PUSH0 CODECOPY PUSH0 MLOAD SWAP1 PUSH0 MSTORE DUP6 MLOAD PUSH2 0xD7 DUP8 DUP3 PUSH2 0x13A2 JUMP JUMPDEST PUSH1 0x1 DUP2 MSTORE DUP9 PUSH2 0x104 DUP2 DUP4 ADD PUSH1 0x1F NOT DUP11 ADD CALLDATASIZE DUP3 CALLDATACOPY CALLDATACOPY DUP5 MLOAD SWAP1 PUSH2 0x116 DUP11 PUSH2 0x108 DUP2 DUP10 ADD MLOAD SWAP4 DUP12 MLOAD SWAP5 DUP6 SWAP4 DUP5 ADD SWAP7 DUP8 PUSH2 0x13D8 JUMP JUMPDEST SUB PUSH1 0x1F NOT DUP2 ADD DUP4 MSTORE DUP3 PUSH2 0x13A2 JUMP JUMPDEST MLOAD SWAP1 KECCAK256 MOD DUP5 MSTORE DUP3 MLOAD DUP7 MSTORE DUP7 DUP4 ADD MLOAD DUP8 DUP8 ADD MSTORE PUSH32 0x129EA85DF19445BA9E718BFC798832EC19FC54D6871EE992EE3644EFE60361C0 DUP6 DUP8 ADD MSTORE PUSH32 0x2EEEE6C432F64A24931AD776307A61B99BAB74B41C1C621B7C8DF2CA0359C7BD PUSH1 0x60 DUP8 ADD MSTORE PUSH32 0x2BC629C54341A945CA3EC97522D445B5C7618C17EF06E822C9E007C3B24895E6 PUSH1 0x80 DUP8 ADD MSTORE PUSH31 0xC1D36A45205652C210CEC488E2C0225D692544BFE895E4DEA0041C71D7A189 PUSH1 0xA0 DUP8 ADD MSTORE PUSH1 0xC0 DUP7 ADD MSTORE PUSH1 0xE0 DUP6 ADD MSTORE PUSH32 0x1A4EF41410348A77B7640F4C5E491410026CE6F14096D871A8331E57CC696F20 PUSH2 0x100 DUP6 ADD MSTORE PUSH32 0xCB03EB14330EFCDC5A721900747B87232DE16EC461BC8E61239939E39DEED38 PUSH2 0x120 DUP6 ADD MSTORE PUSH32 0x2CE3280E12A6069C70AA22955A5837EB207C418C279A9E7CAD7CD0F4E6F8CFAA PUSH2 0x140 DUP6 ADD MSTORE PUSH32 0x155DA331B524E59BBC31093BBB893DC7BC49566C4EEE7F4F65E4A9E375993E6 PUSH2 0x160 DUP6 ADD MSTORE DUP3 MLOAD DUP6 DUP2 PUSH2 0x180 DUP8 PUSH1 0x8 GAS STATICCALL SWAP1 MLOAD AND ISZERO PUSH2 0x9FE JUMPI DUP5 SWAP1 PUSH2 0x285 PUSH1 0x4 CALLDATALOAD PUSH2 0x16E7 JUMP JUMPDEST PUSH2 0x296 PUSH1 0x24 SWAP6 SWAP3 SWAP6 CALLDATALOAD PUSH1 0x44 CALLDATALOAD PUSH2 0x1752 JUMP JUMPDEST SWAP3 SWAP2 SWAP1 SWAP4 DUP10 PUSH2 0x2A6 PUSH1 0x64 CALLDATALOAD PUSH2 0x16E7 JUMP JUMPDEST SWAP9 SWAP1 SWAP8 PUSH32 0xC4A62450775F19C01E7429CA32D5E7B05D57A81347B7AA7DCB66E0F1E433B3A DUP4 MLOAD SWAP12 DUP13 SWAP4 PUSH32 0x1D51A2CEBD061916B84B001D2BE570F4F4DDF347FF63449AA74639384996F58D DUP6 MSTORE PUSH32 0x220B2619E95A34954EDAF5BB2CEF83A8C30927A8E166C282970534793FDF73E DUP3 DUP7 ADD MSTORE DUP1 MLOAD DUP7 DUP7 ADD MSTORE ADD MLOAD PUSH1 0x60 DUP5 ADD SWAP1 DUP2 MSTORE PUSH32 0x125A5906E995D8B74E6D1C37A3A1721B58685D2E8EE2658B3F03E4F29CD4D54B DUP6 DUP6 PUSH1 0x80 DUP2 PUSH1 0x6 GAS STATICCALL SWAP6 PUSH32 0x629CF10D24FCE1656B615F53D79EDDEE0705E223157BAE926949E2C46C2C74F DUP2 DUP8 ADD MSTORE PUSH32 0xAEC8680B8B2D499FFD34F18AA16E7EE1DCF578191EC4E0E743ADCB8DA5780C4 DUP4 MSTORE PUSH1 0x1 PUSH1 0xC4 CALLDATALOAD PUSH1 0x80 DUP9 ADD SWAP9 DUP2 DUP11 MSTORE PUSH0 MLOAD PUSH1 0x20 PUSH2 0x1A8B PUSH0 CODECOPY PUSH0 MLOAD SWAP1 PUSH0 MSTORE DUP5 DUP1 DUP12 ADD PUSH1 0x60 DUP3 DUP14 ADD PUSH1 0x7 GAS STATICCALL SWAP3 LT AND AND DUP3 DUP9 PUSH1 0x80 DUP2 PUSH1 0x6 GAS STATICCALL AND AND PUSH32 0x11BA9A7DD0FC2B6460F65E25FDAE8BF29C6EA110AB41CBCA6F183A084BCDDEA7 DUP3 DUP9 ADD MSTORE PUSH32 0x1A0E182A16F03235233A0BDF69E6CC62D0B64BEF1F7EA5E06DC53BFD76B2CB60 DUP5 MSTORE PUSH1 0xE4 CALLDATALOAD SWAP1 DUP2 DUP10 MSTORE PUSH0 MLOAD PUSH1 0x20 PUSH2 0x1A8B PUSH0 CODECOPY PUSH0 MLOAD SWAP1 PUSH0 MSTORE DUP4 DUP1 DUP11 ADD PUSH1 0x60 DUP3 DUP13 ADD PUSH1 0x7 GAS STATICCALL SWAP3 LT AND AND DUP2 DUP8 PUSH1 0x80 DUP2 PUSH1 0x6 GAS STATICCALL AND PUSH32 0x19B7A440300B6FAD49C2932A7DE19AC45BD0C0E54FB5FC6F84A8852FB3D1BF3C DUP3 DUP9 ADD MSTORE PUSH32 0x296C7C6496A65377DB64B25396844A9F284EFF7DE4A52BE20B9D1313E73CF3A7 DUP5 MSTORE PUSH2 0x104 CALLDATALOAD SWAP1 DUP2 DUP10 MSTORE PUSH0 MLOAD PUSH1 0x20 PUSH2 0x1A8B PUSH0 CODECOPY PUSH0 MLOAD SWAP1 PUSH0 MSTORE DUP4 DUP1 DUP11 ADD PUSH1 0x60 DUP3 DUP13 ADD PUSH1 0x7 GAS STATICCALL SWAP3 LT AND AND DUP2 DUP8 PUSH1 0x80 DUP2 PUSH1 0x6 GAS STATICCALL AND PUSH32 0x1FC55B137D7F9F532B18026F3F36D7395FB12D1C30584133E310CEF908696320 DUP3 DUP9 ADD MSTORE PUSH32 0x192322785E18DE98D9052E4ED2041859B7CC4C1DAED7BC35B720E76006C05DE8 DUP5 MSTORE PUSH2 0x124 CALLDATALOAD SWAP1 DUP2 DUP10 MSTORE PUSH0 MLOAD PUSH1 0x20 PUSH2 0x1A8B PUSH0 CODECOPY PUSH0 MLOAD SWAP1 PUSH0 MSTORE DUP4 DUP1 DUP11 ADD PUSH1 0x60 DUP3 DUP13 ADD PUSH1 0x7 GAS STATICCALL SWAP3 LT AND AND DUP2 DUP8 PUSH1 0x80 DUP2 PUSH1 0x6 GAS STATICCALL AND PUSH32 0x23B303BBC6D5D587270831635AE99A798B2DAF7057FDA73FF66DDDA09E16BA83 DUP3 DUP9 ADD MSTORE PUSH31 0xB1FF9FE1618B0C68CFA03C3484E6AD358FEEFB12E2E7B59F77AA2233C2FD8E DUP5 MSTORE PUSH2 0x144 CALLDATALOAD SWAP1 DUP2 DUP10 MSTORE PUSH0 MLOAD PUSH1 0x20 PUSH2 0x1A8B PUSH0 CODECOPY PUSH0 MLOAD SWAP1 PUSH0 MSTORE DUP4 DUP1 DUP11 ADD PUSH1 0x60 DUP3 DUP13 ADD PUSH1 0x7 GAS STATICCALL SWAP3 LT AND AND DUP2 DUP8 PUSH1 0x80 DUP2 PUSH1 0x6 GAS STATICCALL AND PUSH32 0x7D064634EEF00186A74B29EB92B1601B7F6BCFECE8A7E6557B30C79E73A1D1C DUP3 DUP9 ADD MSTORE PUSH32 0xDA6793EB2498691BE04464E0574016A52B679673ABBA4DCEA4FB2E2C9A109E2 DUP5 MSTORE PUSH2 0x164 CALLDATALOAD SWAP1 DUP2 DUP10 MSTORE PUSH0 MLOAD PUSH1 0x20 PUSH2 0x1A8B PUSH0 CODECOPY PUSH0 MLOAD SWAP1 PUSH0 MSTORE DUP4 DUP1 DUP11 ADD PUSH1 0x60 DUP3 DUP13 ADD PUSH1 0x7 GAS STATICCALL SWAP3 LT AND AND DUP2 DUP8 PUSH1 0x80 DUP2 PUSH1 0x6 GAS STATICCALL AND PUSH32 0x139848A2A7C875A5B8834F97C536129EE22574AAFB7EE24659FEB3257C596DC6 DUP3 DUP9 ADD MSTORE PUSH32 0x24D9A60D2C279EA55BFD179537A212B847B1076A95408BBF7C06E9F6CFA9A428 DUP5 MSTORE PUSH2 0x184 CALLDATALOAD SWAP1 DUP2 DUP10 MSTORE PUSH0 MLOAD PUSH1 0x20 PUSH2 0x1A8B PUSH0 CODECOPY PUSH0 MLOAD SWAP1 PUSH0 MSTORE DUP4 DUP1 DUP11 ADD PUSH1 0x60 DUP3 DUP13 ADD PUSH1 0x7 GAS STATICCALL SWAP3 LT AND AND DUP2 DUP8 PUSH1 0x80 DUP2 PUSH1 0x6 GAS STATICCALL AND PUSH32 0x8AA82D8FF4E425230FF25EE9C6633AF86D3E3078C2EDE53F4ACCB464BABA410 DUP3 DUP9 ADD MSTORE PUSH32 0xE74AB57A507DC4717A3BDDEFEEF61DBD0FDC664EF8B2480027F34F5B7EEAC77 DUP5 MSTORE PUSH2 0x1A4 CALLDATALOAD SWAP1 DUP2 DUP10 MSTORE PUSH0 MLOAD PUSH1 0x20 PUSH2 0x1A8B PUSH0 CODECOPY PUSH0 MLOAD SWAP1 PUSH0 MSTORE DUP4 DUP1 DUP11 ADD PUSH1 0x60 DUP3 DUP13 ADD PUSH1 0x7 GAS STATICCALL SWAP3 LT AND AND DUP2 DUP8 PUSH1 0x80 DUP2 PUSH1 0x6 GAS STATICCALL AND SWAP6 ADD MSTORE MSTORE MLOAD DUP1 SWAP3 MSTORE PUSH0 MLOAD PUSH1 0x20 PUSH2 0x1A8B PUSH0 CODECOPY PUSH0 MLOAD SWAP1 PUSH0 MSTORE DUP13 DUP12 PUSH1 0x60 DUP3 DUP1 DUP4 ADD SWAP3 ADD PUSH1 0x7 GAS STATICCALL SWAP3 LT AND AND DUP11 DUP10 PUSH1 0x80 DUP2 PUSH1 0x6 GAS STATICCALL AND SWAP9 DUP13 DUP10 MLOAD SWAP10 ADD MLOAD SWAP10 ISZERO PUSH2 0x9EF JUMPI DUP12 MSTORE DUP12 DUP12 ADD MSTORE DUP9 DUP11 ADD MSTORE PUSH1 0x60 DUP10 ADD MSTORE PUSH1 0x80 DUP9 ADD MSTORE PUSH1 0xA0 DUP8 ADD MSTORE PUSH1 0xC0 DUP7 ADD MSTORE PUSH1 0xE0 DUP6 ADD MSTORE PUSH32 0x2405CA43B82E73302DC922162C5D06891235AE11A88461D7B9835B01C5C06AA5 PUSH2 0x100 DUP6 ADD MSTORE PUSH32 0x2FBB411AC5F9E75B110FC9F8FD4BA389580A9A253C8C59F83A9BD7684C5B522E PUSH2 0x120 DUP6 ADD MSTORE PUSH32 0x15E078EDD0756CE3F96C7BCA9D28BD2A8AD0E17CEB3287904F572CB88839EBD4 PUSH2 0x140 DUP6 ADD MSTORE PUSH32 0x1FBF6495E01DFAC5F4241E3FE068EC38B2B88653856939166B3A4E8DE54CD486 PUSH2 0x160 DUP6 ADD MSTORE PUSH32 0x1F302F91957FB0ACFBFE150CC040A0C9B6375A7D90E632B86BEC96C763149240 PUSH2 0x180 DUP6 ADD MSTORE PUSH32 0x17C613EBC236BAF72E453F81C76879A89C879E9FC9D93A94FECB4D68EA67C262 PUSH2 0x1A0 DUP6 ADD MSTORE PUSH32 0xFAC29AA7D7E813379AD38C124C57DCEDC88ADA161C9E391C110A26D07412C97 PUSH2 0x1C0 DUP6 ADD MSTORE PUSH32 0x99A1DB894A80AC96B7242026E0A80B7C40BAD4064EA763948C6CE2A3B7B9E97 PUSH2 0x1E0 DUP6 ADD MSTORE PUSH32 0x1D0BA55682D8B0FA1BA6EED361D49BBABD28C6C2A7A354D1E08F522D326FB13B PUSH2 0x200 DUP6 ADD MSTORE PUSH32 0x2225659ACD03B38AB4167A0D653E817B00B3A420BC5393817881DF3FF89F3F91 PUSH2 0x220 DUP6 ADD MSTORE PUSH2 0x240 DUP5 ADD MSTORE PUSH2 0x260 DUP4 ADD MSTORE PUSH32 0x29609DF80BE2DAB2FE3A262B1A0FD377107200C9A3CDC3EAF9FEC484DD2F30F7 PUSH2 0x280 DUP4 ADD MSTORE PUSH32 0x2B68DDC9FD8DEFBE00F4B8CA76434F8AB731DA07AD29E62C6F89C4E1D09589E0 PUSH2 0x2A0 DUP4 ADD MSTORE PUSH32 0x6FF4F7EDB850015EBF5C4A86F668DD748C92731167093A2CD89CE2336FDE72E PUSH2 0x2C0 DUP4 ADD MSTORE PUSH32 0x1057EECFE6CD48BBD604B90AB35DAF5BB7C66C3C5432D90DE97F16F922799ECD PUSH2 0x2E0 DUP4 ADD MSTORE MLOAD SWAP3 DUP4 SWAP2 PUSH2 0x9BB DUP5 DUP5 PUSH2 0x13A2 JUMP JUMPDEST DUP4 CALLDATASIZE DUP5 CALLDATACOPY PUSH1 0x8 GAS STATICCALL ISZERO SWAP1 DUP2 ISZERO PUSH2 0x9E2 JUMPI JUMPDEST POP PUSH2 0x9D3 JUMPI STOP JUMPDEST PUSH4 0x1FF3747D PUSH1 0xE2 SHL PUSH0 MSTORE PUSH1 0x4 PUSH0 REVERT JUMPDEST PUSH1 0x1 SWAP2 POP MLOAD EQ ISZERO PUSH0 PUSH2 0x9CC JUMP JUMPDEST PUSH4 0xA54F8E27 PUSH1 0xE0 SHL PUSH0 MSTORE PUSH1 0x4 PUSH0 REVERT JUMPDEST PUSH4 0x51D49FF7 PUSH1 0xE1 SHL PUSH0 MSTORE PUSH1 0x4 PUSH0 REVERT JUMPDEST PUSH0 DUP1 REVERT JUMPDEST CALLVALUE PUSH2 0xA0D JUMPI PUSH2 0x180 CALLDATASIZE PUSH1 0x3 NOT ADD SLT PUSH2 0xA0D JUMPI CALLDATASIZE PUSH2 0x104 GT PUSH2 0xA0D JUMPI CALLDATASIZE PUSH2 0x144 GT PUSH2 0xA0D JUMPI CALLDATASIZE PUSH2 0x184 GT PUSH2 0xA0D JUMPI PUSH1 0x40 MLOAD PUSH2 0xA4C PUSH1 0x80 DUP3 PUSH2 0x13A2 JUMP JUMPDEST PUSH1 0x80 CALLDATASIZE DUP3 CALLDATACOPY PUSH1 0x40 MLOAD SWAP1 PUSH1 0x20 PUSH2 0xA61 DUP2 DUP5 PUSH2 0x13A2 JUMP JUMPDEST DUP1 CALLDATASIZE DUP5 CALLDATACOPY PUSH2 0xA73 PUSH1 0x24 CALLDATALOAD PUSH1 0x4 CALLDATALOAD PUSH2 0x1412 JUMP JUMPDEST DUP3 MSTORE PUSH2 0xA89 PUSH1 0x84 CALLDATALOAD PUSH1 0xA4 CALLDATALOAD PUSH1 0x44 CALLDATALOAD PUSH1 0x64 CALLDATALOAD PUSH2 0x14B3 JUMP JUMPDEST DUP3 DUP5 ADD MSTORE PUSH1 0x40 DUP4 ADD MSTORE PUSH2 0xAA0 PUSH1 0xE4 CALLDATALOAD PUSH1 0xC4 CALLDATALOAD PUSH2 0x1412 JUMP JUMPDEST PUSH1 0x60 DUP4 ADD MSTORE PUSH2 0xAB5 PUSH2 0x124 CALLDATALOAD PUSH2 0x104 CALLDATALOAD PUSH2 0x1412 JUMP JUMPDEST DUP4 MSTORE PUSH2 0xAC7 PUSH2 0x164 CALLDATALOAD PUSH2 0x144 CALLDATALOAD PUSH2 0x1412 JUMP JUMPDEST SWAP1 PUSH1 0x40 MLOAD SWAP3 DUP4 PUSH0 SWAP1 JUMPDEST PUSH1 0x4 DUP3 LT PUSH2 0xB0C JUMPI POP POP POP PUSH1 0x80 DUP4 ADD SWAP4 SWAP1 PUSH0 SWAP5 JUMPDEST PUSH1 0x1 DUP7 LT PUSH2 0xAF7 JUMPI PUSH1 0xC0 DUP6 DUP6 PUSH1 0xA0 DUP3 ADD MSTORE RETURN JUMPDEST DUP2 DUP1 PUSH1 0x1 SWAP3 DUP6 MLOAD DUP2 MSTORE ADD SWAP4 ADD SWAP6 ADD SWAP5 SWAP2 PUSH2 0xAE4 JUMP JUMPDEST DUP3 MLOAD DUP2 MSTORE SWAP2 DUP4 ADD SWAP2 PUSH1 0x1 SWAP2 SWAP1 SWAP2 ADD SWAP1 DUP4 ADD PUSH2 0xAD0 JUMP JUMPDEST CALLVALUE PUSH2 0xA0D JUMPI PUSH2 0x280 CALLDATASIZE PUSH1 0x3 NOT ADD SLT PUSH2 0xA0D JUMPI CALLDATASIZE PUSH2 0x104 GT PUSH2 0xA0D JUMPI CALLDATASIZE PUSH2 0x144 GT PUSH2 0xA0D JUMPI CALLDATASIZE PUSH2 0x184 GT PUSH2 0xA0D JUMPI CALLDATASIZE PUSH2 0x284 GT PUSH2 0xA0D JUMPI PUSH1 0x40 MLOAD PUSH1 0x20 PUSH2 0xB67 DUP2 DUP4 PUSH2 0x13A2 JUMP JUMPDEST DUP1 CALLDATASIZE DUP4 CALLDATACOPY PUSH1 0x40 SWAP2 PUSH0 MLOAD PUSH1 0x20 PUSH2 0x1A8B PUSH0 CODECOPY PUSH0 MLOAD SWAP1 PUSH0 MSTORE DUP4 MLOAD PUSH2 0xB88 DUP6 DUP3 PUSH2 0x13A2 JUMP JUMPDEST PUSH1 0x1 DUP2 MSTORE DUP4 PUSH2 0x1C4 DUP2 DUP4 ADD PUSH1 0x1F NOT DUP9 ADD CALLDATASIZE DUP3 CALLDATACOPY CALLDATACOPY DUP5 MLOAD PUSH2 0xBB7 DUP2 PUSH2 0x108 DUP8 DUP3 ADD SWAP5 PUSH2 0x124 CALLDATALOAD PUSH2 0x104 CALLDATALOAD DUP8 PUSH2 0x13D8 JUMP JUMPDEST MLOAD SWAP1 KECCAK256 MOD DUP2 MSTORE DUP3 MLOAD DUP4 PUSH2 0x104 DUP3 CALLDATACOPY PUSH32 0x129EA85DF19445BA9E718BFC798832EC19FC54D6871EE992EE3644EFE60361C0 DUP5 DUP3 ADD MSTORE PUSH32 0x2EEEE6C432F64A24931AD776307A61B99BAB74B41C1C621B7C8DF2CA0359C7BD PUSH1 0x60 DUP3 ADD MSTORE PUSH32 0x2BC629C54341A945CA3EC97522D445B5C7618C17EF06E822C9E007C3B24895E6 PUSH1 0x80 DUP3 ADD MSTORE PUSH31 0xC1D36A45205652C210CEC488E2C0225D692544BFE895E4DEA0041C71D7A189 PUSH1 0xA0 DUP3 ADD MSTORE DUP4 PUSH2 0x144 PUSH1 0xC0 DUP4 ADD CALLDATACOPY PUSH32 0x1A4EF41410348A77B7640F4C5E491410026CE6F14096D871A8331E57CC696F20 PUSH2 0x100 DUP3 ADD MSTORE PUSH32 0xCB03EB14330EFCDC5A721900747B87232DE16EC461BC8E61239939E39DEED38 PUSH2 0x120 DUP3 ADD MSTORE PUSH32 0x2CE3280E12A6069C70AA22955A5837EB207C418C279A9E7CAD7CD0F4E6F8CFAA PUSH2 0x140 DUP3 ADD MSTORE PUSH32 0x155DA331B524E59BBC31093BBB893DC7BC49566C4EEE7F4F65E4A9E375993E6 PUSH2 0x160 DUP3 ADD MSTORE DUP3 DUP2 PUSH2 0x180 DUP2 PUSH1 0x8 GAS STATICCALL SWAP1 MLOAD AND ISZERO PUSH2 0x9FE JUMPI DUP3 MLOAD SWAP3 PUSH2 0xD1F DUP2 DUP6 PUSH2 0x13A2 JUMP JUMPDEST PUSH2 0x104 DUP4 DUP6 JUMPDEST PUSH2 0x144 DUP4 LT PUSH2 0x1392 JUMPI POP POP POP DUP1 MLOAD SWAP2 DUP2 DUP4 ADD PUSH32 0x1D51A2CEBD061916B84B001D2BE570F4F4DDF347FF63449AA74639384996F58D DUP5 MSTORE PUSH0 MLOAD PUSH1 0x20 PUSH2 0x1A8B PUSH0 CODECOPY PUSH0 MLOAD SWAP1 PUSH0 MSTORE DUP4 DUP7 DUP1 DUP8 ADD SWAP9 PUSH32 0x220B2619E95A34954EDAF5BB2CEF83A8C30927A8E166C282970534793FDF73E DUP11 MSTORE DUP1 MLOAD DUP6 MSTORE ADD MLOAD SWAP3 PUSH1 0x60 DUP8 ADD SWAP4 DUP5 MSTORE DUP2 DUP8 PUSH1 0x80 DUP2 PUSH1 0x6 GAS STATICCALL SWAP5 PUSH32 0x629CF10D24FCE1656B615F53D79EDDEE0705E223157BAE926949E2C46C2C74F DUP3 MSTORE PUSH32 0xAEC8680B8B2D499FFD34F18AA16E7EE1DCF578191EC4E0E743ADCB8DA5780C4 DUP6 MSTORE PUSH32 0xC4A62450775F19C01E7429CA32D5E7B05D57A81347B7AA7DCB66E0F1E433B3A PUSH1 0x1 PUSH2 0x184 CALLDATALOAD PUSH1 0x80 DUP12 ADD SWAP9 DUP2 DUP11 MSTORE DUP8 DUP8 DUP8 PUSH1 0x60 DUP2 PUSH1 0x7 GAS STATICCALL SWAP3 LT AND AND DUP6 DUP12 PUSH1 0x80 DUP2 PUSH1 0x6 GAS STATICCALL AND AND PUSH32 0x11BA9A7DD0FC2B6460F65E25FDAE8BF29C6EA110AB41CBCA6F183A084BCDDEA7 DUP5 MSTORE PUSH32 0x1A0E182A16F03235233A0BDF69E6CC62D0B64BEF1F7EA5E06DC53BFD76B2CB60 DUP8 MSTORE PUSH2 0x1A4 CALLDATALOAD SWAP1 DUP2 DUP10 MSTORE DUP7 DUP7 DUP7 PUSH1 0x60 DUP2 PUSH1 0x7 GAS STATICCALL SWAP3 LT AND AND DUP5 DUP11 PUSH1 0x80 DUP2 PUSH1 0x6 GAS STATICCALL AND PUSH32 0x19B7A440300B6FAD49C2932A7DE19AC45BD0C0E54FB5FC6F84A8852FB3D1BF3C DUP5 MSTORE PUSH32 0x296C7C6496A65377DB64B25396844A9F284EFF7DE4A52BE20B9D1313E73CF3A7 DUP8 MSTORE PUSH2 0x1C4 CALLDATALOAD SWAP1 DUP2 DUP10 MSTORE DUP7 DUP7 DUP7 PUSH1 0x60 DUP2 PUSH1 0x7 GAS STATICCALL SWAP3 LT AND AND DUP5 DUP11 PUSH1 0x80 DUP2 PUSH1 0x6 GAS STATICCALL AND PUSH32 0x1FC55B137D7F9F532B18026F3F36D7395FB12D1C30584133E310CEF908696320 DUP5 MSTORE PUSH32 0x192322785E18DE98D9052E4ED2041859B7CC4C1DAED7BC35B720E76006C05DE8 DUP8 MSTORE PUSH2 0x1E4 CALLDATALOAD SWAP1 DUP2 DUP10 MSTORE DUP7 DUP7 DUP7 PUSH1 0x60 DUP2 PUSH1 0x7 GAS STATICCALL SWAP3 LT AND AND DUP5 DUP11 PUSH1 0x80 DUP2 PUSH1 0x6 GAS STATICCALL AND PUSH32 0x23B303BBC6D5D587270831635AE99A798B2DAF7057FDA73FF66DDDA09E16BA83 DUP5 MSTORE PUSH31 0xB1FF9FE1618B0C68CFA03C3484E6AD358FEEFB12E2E7B59F77AA2233C2FD8E DUP8 MSTORE PUSH2 0x204 CALLDATALOAD SWAP1 DUP2 DUP10 MSTORE DUP7 DUP7 DUP7 PUSH1 0x60 DUP2 PUSH1 0x7 GAS STATICCALL SWAP3 LT AND AND DUP5 DUP11 PUSH1 0x80 DUP2 PUSH1 0x6 GAS STATICCALL AND PUSH32 0x7D064634EEF00186A74B29EB92B1601B7F6BCFECE8A7E6557B30C79E73A1D1C DUP5 MSTORE PUSH32 0xDA6793EB2498691BE04464E0574016A52B679673ABBA4DCEA4FB2E2C9A109E2 DUP8 MSTORE PUSH2 0x224 CALLDATALOAD SWAP1 DUP2 DUP10 MSTORE DUP7 DUP7 DUP7 PUSH1 0x60 DUP2 PUSH1 0x7 GAS STATICCALL SWAP3 LT AND AND DUP5 DUP11 PUSH1 0x80 DUP2 PUSH1 0x6 GAS STATICCALL AND PUSH32 0x139848A2A7C875A5B8834F97C536129EE22574AAFB7EE24659FEB3257C596DC6 DUP5 MSTORE PUSH32 0x24D9A60D2C279EA55BFD179537A212B847B1076A95408BBF7C06E9F6CFA9A428 DUP8 MSTORE PUSH2 0x244 CALLDATALOAD SWAP1 DUP2 DUP10 MSTORE DUP7 DUP7 DUP7 PUSH1 0x60 DUP2 PUSH1 0x7 GAS STATICCALL SWAP3 LT AND AND DUP5 DUP11 PUSH1 0x80 DUP2 PUSH1 0x6 GAS STATICCALL AND PUSH32 0x8AA82D8FF4E425230FF25EE9C6633AF86D3E3078C2EDE53F4ACCB464BABA410 DUP5 MSTORE PUSH32 0xE74AB57A507DC4717A3BDDEFEEF61DBD0FDC664EF8B2480027F34F5B7EEAC77 DUP8 MSTORE PUSH2 0x264 CALLDATALOAD SWAP1 DUP2 DUP10 MSTORE DUP7 DUP7 DUP7 PUSH1 0x60 DUP2 PUSH1 0x7 GAS STATICCALL SWAP3 LT AND AND DUP5 DUP11 PUSH1 0x80 DUP2 PUSH1 0x6 GAS STATICCALL AND SWAP6 PUSH32 0x125A5906E995D8B74E6D1C37A3A1721B58685D2E8EE2658B3F03E4F29CD4D54B DUP5 MSTORE MSTORE MLOAD DUP1 SWAP6 MSTORE PUSH1 0x60 DUP2 PUSH1 0x7 GAS STATICCALL SWAP3 LT AND AND DUP2 DUP4 PUSH1 0x80 DUP2 PUSH1 0x6 GAS STATICCALL AND SWAP2 MLOAD SWAP4 MLOAD SWAP2 ISZERO PUSH2 0x9EF JUMPI MLOAD SWAP3 PUSH2 0x100 PUSH1 0x4 DUP6 CALLDATACOPY PUSH32 0x2405CA43B82E73302DC922162C5D06891235AE11A88461D7B9835B01C5C06AA5 PUSH2 0x100 DUP6 ADD MSTORE PUSH32 0x2FBB411AC5F9E75B110FC9F8FD4BA389580A9A253C8C59F83A9BD7684C5B522E PUSH2 0x120 DUP6 ADD MSTORE PUSH32 0x15E078EDD0756CE3F96C7BCA9D28BD2A8AD0E17CEB3287904F572CB88839EBD4 PUSH2 0x140 DUP6 ADD MSTORE PUSH32 0x1FBF6495E01DFAC5F4241E3FE068EC38B2B88653856939166B3A4E8DE54CD486 PUSH2 0x160 DUP6 ADD MSTORE PUSH32 0x1F302F91957FB0ACFBFE150CC040A0C9B6375A7D90E632B86BEC96C763149240 PUSH2 0x180 DUP6 ADD MSTORE PUSH32 0x17C613EBC236BAF72E453F81C76879A89C879E9FC9D93A94FECB4D68EA67C262 PUSH2 0x1A0 DUP6 ADD MSTORE PUSH32 0xFAC29AA7D7E813379AD38C124C57DCEDC88ADA161C9E391C110A26D07412C97 PUSH2 0x1C0 DUP6 ADD MSTORE PUSH32 0x99A1DB894A80AC96B7242026E0A80B7C40BAD4064EA763948C6CE2A3B7B9E97 PUSH2 0x1E0 DUP6 ADD MSTORE PUSH32 0x1D0BA55682D8B0FA1BA6EED361D49BBABD28C6C2A7A354D1E08F522D326FB13B PUSH2 0x200 DUP6 ADD MSTORE PUSH32 0x2225659ACD03B38AB4167A0D653E817B00B3A420BC5393817881DF3FF89F3F91 PUSH2 0x220 DUP6 ADD MSTORE PUSH2 0x240 DUP5 ADD MSTORE PUSH2 0x260 DUP4 ADD MSTORE PUSH32 0x29609DF80BE2DAB2FE3A262B1A0FD377107200C9A3CDC3EAF9FEC484DD2F30F7 PUSH2 0x280 DUP4 ADD MSTORE PUSH32 0x2B68DDC9FD8DEFBE00F4B8CA76434F8AB731DA07AD29E62C6F89C4E1D09589E0 PUSH2 0x2A0 DUP4 ADD MSTORE PUSH32 0x6FF4F7EDB850015EBF5C4A86F668DD748C92731167093A2CD89CE2336FDE72E PUSH2 0x2C0 DUP4 ADD MSTORE PUSH32 0x1057EECFE6CD48BBD604B90AB35DAF5BB7C66C3C5432D90DE97F16F922799ECD PUSH2 0x2E0 DUP4 ADD MSTORE DUP2 PUSH2 0x300 DUP2 PUSH1 0x8 GAS STATICCALL SWAP1 MLOAD AND ISZERO PUSH2 0x9D3 JUMPI STOP JUMPDEST DUP3 CALLDATALOAD DUP2 MSTORE SWAP2 DUP2 ADD SWAP2 DUP6 SWAP2 ADD PUSH2 0xD25 JUMP JUMPDEST SWAP1 PUSH1 0x1F DUP1 NOT SWAP2 ADD AND DUP2 ADD SWAP1 DUP2 LT PUSH8 0xFFFFFFFFFFFFFFFF DUP3 GT OR PUSH2 0x13C4 JUMPI PUSH1 0x40 MSTORE JUMP JUMPDEST PUSH4 0x4E487B71 PUSH1 0xE0 SHL PUSH0 MSTORE PUSH1 0x41 PUSH1 0x4 MSTORE PUSH1 0x24 PUSH0 REVERT JUMPDEST SWAP1 SWAP2 PUSH1 0x40 SWAP3 DUP3 MSTORE PUSH1 0x20 DUP3 ADD MSTORE ADD PUSH1 0x20 DUP3 MLOAD SWAP2 SWAP3 ADD SWAP1 PUSH0 JUMPDEST DUP2 DUP2 LT PUSH2 0x13FC JUMPI POP POP POP SWAP1 JUMP JUMPDEST DUP3 MLOAD DUP5 MSTORE PUSH1 0x20 SWAP4 DUP5 ADD SWAP4 SWAP1 SWAP3 ADD SWAP2 PUSH1 0x1 ADD PUSH2 0x13EF JUMP JUMPDEST SWAP1 PUSH0 MLOAD PUSH1 0x20 PUSH2 0x1A6B PUSH0 CODECOPY PUSH0 MLOAD SWAP1 PUSH0 MSTORE DUP3 LT DUP1 ISZERO SWAP1 PUSH2 0x149C JUMPI JUMPDEST PUSH2 0x9D3 JUMPI DUP2 ISZERO DUP1 PUSH2 0x1494 JUMPI JUMPDEST PUSH2 0x148E JUMPI PUSH2 0x145B PUSH0 MLOAD PUSH1 0x20 PUSH2 0x1A6B PUSH0 CODECOPY PUSH0 MLOAD SWAP1 PUSH0 MSTORE PUSH1 0x3 DUP2 DUP6 DUP2 DUP2 DUP1 MULMOD MULMOD ADDMOD PUSH2 0x188B JUMP JUMPDEST DUP2 DUP2 SUB PUSH2 0x146A JUMPI POP POP PUSH1 0x1 SHL SWAP1 JUMP JUMPDEST PUSH0 MLOAD PUSH1 0x20 PUSH2 0x1A6B PUSH0 CODECOPY PUSH0 MLOAD SWAP1 PUSH0 MSTORE DUP1 SWAP2 MOD DUP2 SUB MOD EQ PUSH0 EQ PUSH2 0x9D3 JUMPI PUSH1 0x1 SWAP1 DUP2 SHL OR SWAP1 JUMP JUMPDEST POP POP PUSH0 SWAP1 JUMP JUMPDEST POP DUP1 ISZERO PUSH2 0x1437 JUMP JUMPDEST POP PUSH0 MLOAD PUSH1 0x20 PUSH2 0x1A6B PUSH0 CODECOPY PUSH0 MLOAD SWAP1 PUSH0 MSTORE DUP2 LT ISZERO PUSH2 0x142B JUMP JUMPDEST SWAP2 SWAP1 SWAP4 SWAP3 PUSH0 MLOAD PUSH1 0x20 PUSH2 0x1A6B PUSH0 CODECOPY PUSH0 MLOAD SWAP1 PUSH0 MSTORE DUP4 LT DUP1 ISZERO SWAP1 PUSH2 0x16D0 JUMPI JUMPDEST DUP1 ISZERO PUSH2 0x16B9 JUMPI JUMPDEST DUP1 ISZERO PUSH2 0x16A2 JUMPI JUMPDEST PUSH2 0x9D3 JUMPI DUP1 DUP3 DUP7 DUP6 OR OR OR ISZERO PUSH2 0x1697 JUMPI SWAP1 DUP3 SWAP2 PUSH2 0x15FA PUSH0 MLOAD PUSH1 0x20 PUSH2 0x1A6B PUSH0 CODECOPY PUSH0 MLOAD SWAP1 PUSH0 MSTORE DUP1 DUP1 DUP1 DUP1 DUP9 DUP2 DUP1 DUP1 DUP16 SWAP14 PUSH32 0x30644E72E131A029B85045B68181585D97816A916871CA8D3C208C16D87CFD44 DUP16 DUP4 SWAP3 SWAP1 DUP4 SWAP2 MULMOD MULMOD SWAP14 DUP15 MULMOD DUP2 DUP5 DUP2 DUP2 DUP1 MULMOD MULMOD ADDMOD PUSH32 0x2B149D40CEB8AAAE81BE18991BE06AC3B5B4C5E559DBEFA33267E6DC24A138E5 ADDMOD SWAP11 MULMOD DUP2 DUP13 DUP2 DUP2 DUP1 MULMOD MULMOD ADDMOD PUSH32 0x2FCD3AC2A640A154EB23960892A85A68F031CA0C8344B23A577DCF1052B9E775 ADDMOD MOD DUP2 SUB MOD SWAP5 PUSH0 MLOAD PUSH1 0x20 PUSH2 0x1A6B PUSH0 CODECOPY PUSH0 MLOAD SWAP1 PUSH0 MSTORE PUSH32 0x183227397098D014DC2822DB40C0AC2ECBC0B548B438E5469E10460B6C3E7EA4 DUP2 PUSH2 0x15D4 DUP2 DUP1 DUP12 DUP1 MULMOD DUP2 DUP8 DUP1 MULMOD ADDMOD PUSH2 0x188B JUMP JUMPDEST DUP5 ADDMOD MULMOD PUSH0 MLOAD PUSH1 0x20 PUSH2 0x1A6B PUSH0 CODECOPY PUSH0 MLOAD SWAP1 PUSH0 MSTORE PUSH2 0x15EE DUP3 PUSH2 0x1A02 JUMP JUMPDEST DUP1 MULMOD EQ ISZERO SWAP6 DUP7 SWAP2 PUSH2 0x18AE JUMP JUMPDEST SWAP3 SWAP1 DUP1 DUP3 EQ DUP1 PUSH2 0x168E JUMPI JUMPDEST ISZERO PUSH2 0x162C JUMPI POP POP POP POP SWAP1 PUSH0 EQ PUSH2 0x1624 JUMPI PUSH1 0xFF PUSH1 0x2 JUMPDEST AND SWAP1 PUSH1 0x2 SHL OR SWAP2 SWAP1 JUMP JUMPDEST PUSH1 0xFF PUSH0 PUSH2 0x161A JUMP JUMPDEST PUSH0 MLOAD PUSH1 0x20 PUSH2 0x1A6B PUSH0 CODECOPY PUSH0 MLOAD SWAP1 PUSH0 MSTORE DUP1 SWAP2 MOD DUP2 SUB MOD EQ SWAP2 DUP3 PUSH2 0x166F JUMPI JUMPDEST POP POP ISZERO PUSH2 0x9D3 JUMPI PUSH1 0x1 SWAP2 ISZERO PUSH2 0x1667 JUMPI PUSH1 0xFF PUSH1 0x2 JUMPDEST AND SWAP1 PUSH1 0x2 SHL OR OR SWAP2 SWAP1 JUMP JUMPDEST PUSH1 0xFF PUSH0 PUSH2 0x165C JUMP JUMPDEST PUSH0 MLOAD PUSH1 0x20 PUSH2 0x1A6B PUSH0 CODECOPY PUSH0 MLOAD SWAP1 PUSH0 MSTORE SWAP2 SWAP3 POP DUP2 SWAP1 MOD DUP2 SUB MOD EQ PUSH0 DUP1 PUSH2 0x1648 JUMP JUMPDEST POP DUP4 DUP4 EQ PUSH2 0x1605 JUMP JUMPDEST POP POP POP SWAP1 POP PUSH0 SWAP1 PUSH0 SWAP1 JUMP JUMPDEST POP PUSH0 MLOAD PUSH1 0x20 PUSH2 0x1A6B PUSH0 CODECOPY PUSH0 MLOAD SWAP1 PUSH0 MSTORE DUP2 LT ISZERO PUSH2 0x14DD JUMP JUMPDEST POP PUSH0 MLOAD PUSH1 0x20 PUSH2 0x1A6B PUSH0 CODECOPY PUSH0 MLOAD SWAP1 PUSH0 MSTORE DUP3 LT ISZERO PUSH2 0x14D6 JUMP JUMPDEST POP PUSH0 MLOAD PUSH1 0x20 PUSH2 0x1A6B PUSH0 CODECOPY PUSH0 MLOAD SWAP1 PUSH0 MSTORE DUP6 LT ISZERO PUSH2 0x14CF JUMP JUMPDEST DUP1 ISZERO PUSH2 0x174B JUMPI DUP1 PUSH1 0x1 SHR SWAP2 PUSH0 MLOAD PUSH1 0x20 PUSH2 0x1A6B PUSH0 CODECOPY PUSH0 MLOAD SWAP1 PUSH0 MSTORE DUP4 LT ISZERO PUSH2 0x9D3 JUMPI PUSH1 0x1 DUP1 PUSH2 0x172A PUSH0 MLOAD PUSH1 0x20 PUSH2 0x1A6B PUSH0 CODECOPY PUSH0 MLOAD SWAP1 PUSH0 MSTORE PUSH1 0x3 DUP2 DUP9 DUP2 DUP2 DUP1 MULMOD MULMOD ADDMOD PUSH2 0x188B JUMP JUMPDEST SWAP4 AND EQ PUSH2 0x1733 JUMPI JUMP JUMPDEST SWAP1 PUSH0 MLOAD PUSH1 0x20 PUSH2 0x1A6B PUSH0 CODECOPY PUSH0 MLOAD SWAP1 PUSH0 MSTORE DUP1 SWAP2 MOD DUP2 SUB MOD SWAP1 JUMP JUMPDEST POP PUSH0 SWAP1 PUSH0 SWAP1 JUMP JUMPDEST DUP1 ISZERO DUP1 PUSH2 0x1883 JUMPI JUMPDEST PUSH2 0x1877 JUMPI DUP1 PUSH1 0x2 SHR SWAP3 DUP3 PUSH0 MLOAD PUSH1 0x20 PUSH2 0x1A6B PUSH0 CODECOPY PUSH0 MLOAD SWAP1 PUSH0 MSTORE DUP6 LT DUP1 ISZERO SWAP1 PUSH2 0x1860 JUMPI JUMPDEST PUSH2 0x9D3 JUMPI DUP5 DUP2 PUSH0 MLOAD PUSH1 0x20 PUSH2 0x1A6B PUSH0 CODECOPY PUSH0 MLOAD SWAP1 PUSH0 MSTORE DUP1 DUP1 DUP1 DUP1 DUP1 DUP1 DUP1 DUP1 PUSH32 0x30644E72E131A029B85045B68181585D97816A916871CA8D3C208C16D87CFD44 DUP2 PUSH2 0x182A SWAP14 DUP14 MULMOD MULMOD SWAP10 DUP11 MULMOD DUP2 DUP10 DUP2 DUP2 DUP1 MULMOD MULMOD ADDMOD PUSH32 0x2FCD3AC2A640A154EB23960892A85A68F031CA0C8344B23A577DCF1052B9E775 ADDMOD MOD DUP2 SUB MOD SWAP4 PUSH1 0x2 DUP1 DUP11 AND EQ SWAP6 MULMOD DUP2 DUP11 DUP2 DUP2 DUP1 MULMOD MULMOD ADDMOD PUSH32 0x2B149D40CEB8AAAE81BE18991BE06AC3B5B4C5E559DBEFA33267E6DC24A138E5 ADDMOD PUSH2 0x18AE JUMP JUMPDEST DUP1 SWAP3 SWAP2 PUSH1 0x1 DUP1 DUP3 SWAP7 AND EQ PUSH2 0x183C JUMPI POP POP JUMP JUMPDEST PUSH0 MLOAD PUSH1 0x20 PUSH2 0x1A6B PUSH0 CODECOPY PUSH0 MLOAD SWAP1 PUSH0 MSTORE DUP1 SWAP4 SWAP5 POP DUP1 SWAP3 SWAP6 POP DUP1 SWAP2 MOD DUP2 SUB MOD SWAP4 MOD DUP2 SUB MOD SWAP1 JUMP JUMPDEST POP PUSH0 MLOAD PUSH1 0x20 PUSH2 0x1A6B PUSH0 CODECOPY PUSH0 MLOAD SWAP1 PUSH0 MSTORE DUP2 LT ISZERO PUSH2 0x177C JUMP JUMPDEST POP POP PUSH0 SWAP1 PUSH0 SWAP1 PUSH0 SWAP1 PUSH0 SWAP1 JUMP JUMPDEST POP DUP2 ISZERO PUSH2 0x175A JUMP JUMPDEST SWAP1 PUSH2 0x1895 DUP3 PUSH2 0x1A02 JUMP JUMPDEST SWAP2 PUSH0 MLOAD PUSH1 0x20 PUSH2 0x1A6B PUSH0 CODECOPY PUSH0 MLOAD SWAP1 PUSH0 MSTORE DUP4 DUP1 MULMOD SUB PUSH2 0x9D3 JUMPI JUMP JUMPDEST SWAP2 PUSH0 MLOAD PUSH1 0x20 PUSH2 0x1A6B PUSH0 CODECOPY PUSH0 MLOAD SWAP1 PUSH0 MSTORE PUSH32 0x183227397098D014DC2822DB40C0AC2ECBC0B548B438E5469E10460B6C3E7EA4 DUP2 PUSH2 0x1906 SWAP4 SWAP7 SWAP5 SWAP7 PUSH2 0x18F8 DUP3 DUP1 DUP11 DUP1 MULMOD DUP2 DUP11 DUP1 MULMOD ADDMOD PUSH2 0x188B JUMP JUMPDEST SWAP1 PUSH2 0x19F6 JUMPI JUMPDEST DUP7 ADDMOD MULMOD PUSH2 0x188B JUMP JUMPDEST SWAP3 PUSH0 MLOAD PUSH1 0x20 PUSH2 0x1A6B PUSH0 CODECOPY PUSH0 MLOAD SWAP1 PUSH0 MSTORE PUSH1 0x2 DUP6 MULMOD PUSH1 0x40 MLOAD SWAP1 PUSH1 0x20 DUP3 MSTORE PUSH1 0x20 DUP1 DUP4 ADD MSTORE PUSH1 0x20 PUSH1 0x40 DUP4 ADD MSTORE DUP1 PUSH1 0x60 DUP4 ADD MSTORE PUSH32 0x30644E72E131A029B85045B68181585D97816A916871CA8D3C208C16D87CFD45 PUSH1 0x80 DUP4 ADD MSTORE PUSH0 MLOAD PUSH1 0x20 PUSH2 0x1A6B PUSH0 CODECOPY PUSH0 MLOAD SWAP1 PUSH0 MSTORE PUSH1 0xA0 DUP4 ADD MSTORE PUSH1 0x20 DUP3 PUSH1 0xC0 DUP2 PUSH1 0x5 GAS STATICCALL SWAP2 MLOAD SWAP2 ISZERO PUSH2 0x9D3 JUMPI PUSH0 MLOAD PUSH1 0x20 PUSH2 0x1A6B PUSH0 CODECOPY PUSH0 MLOAD SWAP1 PUSH0 MSTORE DUP3 PUSH1 0x1 SWAP3 MULMOD SUB PUSH2 0x9D3 JUMPI PUSH0 MLOAD PUSH1 0x20 PUSH2 0x1A6B PUSH0 CODECOPY PUSH0 MLOAD SWAP1 PUSH0 MSTORE SWAP1 DUP3 MULMOD SWAP3 PUSH0 MLOAD PUSH1 0x20 PUSH2 0x1A6B PUSH0 CODECOPY PUSH0 MLOAD SWAP1 PUSH0 MSTORE DUP1 DUP1 DUP1 DUP8 DUP1 MULMOD MOD DUP2 SUB MOD DUP2 DUP8 DUP1 MULMOD ADDMOD EQ SWAP1 DUP2 ISZERO SWAP2 PUSH2 0x19D7 JUMPI JUMPDEST POP PUSH2 0x9D3 JUMPI JUMP JUMPDEST SWAP1 POP PUSH0 MLOAD PUSH1 0x20 PUSH2 0x1A6B PUSH0 CODECOPY PUSH0 MLOAD SWAP1 PUSH0 MSTORE DUP1 DUP5 DUP7 MULMOD PUSH1 0x2 MULMOD EQ ISZERO PUSH0 PUSH2 0x19D0 JUMP JUMPDEST DUP2 DUP1 SWAP2 MOD DUP2 SUB MOD PUSH2 0x18FE JUMP JUMPDEST SWAP1 PUSH1 0x40 MLOAD SWAP2 PUSH1 0x20 DUP4 MSTORE PUSH1 0x20 DUP1 DUP5 ADD MSTORE PUSH1 0x20 PUSH1 0x40 DUP5 ADD MSTORE PUSH1 0x60 DUP4 ADD MSTORE PUSH32 0xC19139CB84C680A6E14116DA060561765E05AA45A1C72A34F082305B61F3F52 PUSH1 0x80 DUP4 ADD MSTORE PUSH0 MLOAD PUSH1 0x20 PUSH2 0x1A6B PUSH0 CODECOPY PUSH0 MLOAD SWAP1 PUSH0 MSTORE PUSH1 0xA0 DUP4 ADD MSTORE PUSH1 0x20 DUP3 PUSH1 0xC0 DUP2 PUSH1 0x5 GAS STATICCALL SWAP2 MLOAD SWAP2 ISZERO PUSH2 0x9D3 JUMPI JUMP INVALID ADDRESS PUSH5 0x4E72E131A0 0x29 0xB8 POP GASLIMIT 0xB6 DUP2 DUP2 PC TSTORE SWAP8 DUP2 PUSH11 0x916871CA8D3C208C16D87C REVERT SELFBALANCE ADDRESS PUSH5 0x4E72E131A0 0x29 0xB8 POP GASLIMIT 0xB6 DUP2 DUP2 PC TSTORE 0x28 CALLER 0xE8 BASEFEE PUSH26 0xB9709143E1F593F0000001A26469706673582212204EABD031C4 0xA6 STOP 0xD5 DUP1 0x1F 0xEF KECCAK256 0xE6 0xD8 DELEGATECALL LOG0 DUP12 0xE1 0xF8 0x21 0xAD EXTCODECOPY 0xFC 0xEC PUSH0 0xB2 SHL PUSH24 0xB54C9CBC64736F6C634300081C0033000000000000000000 "},"methodIdentifiers":{"compressProof(uint256[8],uint256[2],uint256[2])":"b1c3a00e","verifyCompressedProof(uint256[4],uint256[1],uint256,uint256[8])":"e2dd9f47","verifyProof(uint256[8],uint256[2],uint256[2],uint256[8])":"9ed57f32"}}}}}