{"src/verifiers/StateTransitionVerifierBaseGroth16.sol":{"StateTransitionVerifierBaseGroth16":{"abi":[{"inputs":[],"name":"CommitmentInvalid","type":"error"},{"inputs":[],"name":"ProofInvalid","type":"error"},{"inputs":[],"name":"PublicInputNotInField","type":"error"},{"inputs":[{"internalType":"uint256[8]","name":"proof","type":"uint256[8]"},{"internalType":"uint256[2]","name":"commitments","type":"uint256[2]"},{"internalType":"uint256[2]","name":"commitmentPok","type":"uint256[2]"}],"name":"compressProof","outputs":[{"internalType":"uint256[4]","name":"compressed","type":"uint256[4]"},{"internalType":"uint256[1]","name":"compressedCommitments","type":"uint256[1]"},{"internalType":"uint256","name":"compressedCommitmentPok","type":"uint256"}],"stateMutability":"view","type":"function"},{"inputs":[{"internalType":"uint256[4]","name":"compressedProof","type":"uint256[4]"},{"internalType":"uint256[1]","name":"compressedCommitments","type":"uint256[1]"},{"internalType":"uint256","name":"compressedCommitmentPok","type":"uint256"},{"internalType":"uint256[10]","name":"input","type":"uint256[10]"}],"name":"verifyCompressedProof","outputs":[],"stateMutability":"view","type":"function"},{"inputs":[{"internalType":"uint256[8]","name":"proof","type":"uint256[8]"},{"internalType":"uint256[2]","name":"commitments","type":"uint256[2]"},{"internalType":"uint256[2]","name":"commitmentPok","type":"uint256[2]"},{"internalType":"uint256[10]","name":"input","type":"uint256[10]"}],"name":"verifyProof","outputs":[],"stateMutability":"view","type":"function"}],"evm":{"bytecode":{"linkReferences":{},"object":"6080604052348015600e575f5ffd5b50611d9c8061001c5f395ff3fe608060405234801561000f575f5ffd5b506004361061003f575f3560e01c8063b1c3a00e14610043578063dc37819a1461006e578063df078bef14610083575b5f5ffd5b610056610051366004611b24565b610096565b60405161006593929190611b6a565b60405180910390f35b61008161007c366004611bdc565b61011e565b005b610081610091366004611c31565b61068b565b61009e611a8a565b6100a6611aa8565b5f6100ba86358760015b6020020135610b38565b83526100d86060870135604088013560a089013560808a0135610c25565b602085015260408401526100f260c08701358760076100b0565b606084015261010485358660016100b0565b825261011384358560016100b0565b905093509350939050565b610126611aa8565b61012e611ac6565b610136611ae4565b610146865f5b6020020135610efe565b602084015282525f8061015887610efe565b60408051600580825260c08201909252929450909250606091906020820160a080368337019050509050602080820190604089018237608060c0890160208301375084516020808701516040515f516020611d475f395f51905f52936101c393909291869101611c93565b604051602081830303815290604052805190602001205f1c6101e59190611ce8565b865284518452602085810151858201527f2b71f483568229768a69da7e698972477f2e3542d4b495d0eb993e3847a566856040808701919091527f26bafb5a85d2dbd50000d08c33f1469c79b26a89826520f9ff975ad96b211ffb60608701527f2e7c08c0cbc9370df848e1bb9c4ef71c7658a55ae26b712c6f6196732f11469660808701527f0c8794566f2ee51e99fb8ce36cd1f37d8f1a14ddf2b2c3ee5754b08b623c05d560a087015260c0860185905260e086018490527f254db2e9700c2423d850234288cf96924440e71140f82503393a0b22e3b6ae656101008701527f28328f51a3fa4ddbbc83eb6b8f472e410e096b950f4833ca93ec3dbb42d15d606101208701527f2d701346b24558ab81687d7d34a24396676040c669328519fecd648bbf3abc8d6101408701527f06836192d1e46d45adc7ebbab6e238dc4f8efd52404bb8363c098a92e68188ec610160870152515f91816101808860085afa90511690508061036a576040516351d49ff760e11b815260040160405180910390fd5b505050505f5f610385895f6004811061013c5761013c611c7f565b90925090505f8080806103a060408e013560208f0135610f9d565b929650909450925090505f806103b78f600361013c565b915091505f5f6103c88e8e8e611171565b8b8d5260208d018b905260408d0189905260608d018a905260808d0187905260a08d0188905260c08d0186905260e08d018590527f1640030e1fa5aa0eedcce10297946856de426ea8fb18aad3e3b8d07df4b5e6f26101008e01527f1535472265363417848ec0efefb82d81e6f25d7218862a1a679dcfdf55c40f7f6101208e01527f2d0ec60e06a2e51cc2259493d46fb470af39a7e17ab9b2b98b528db4fd848b046101408e01527f17965ec004b8ec1b9b18d261fc673de88408f71fe079d7ee703c3d514f3c8a8b6101608e01527f04d6b7ad212268e819bb7bacd10c5944ad07bbb36e9dc3612d3f37f60ce0397a6101808e01527f1e4a8ef31f5c4db2eeed6c6546231667706ec6fd96227540c3a17c4cad510e8f6101a08e01527f0394475b99283702e6ccfaba92deb124a5c16662671d2b1f8f21ec595c046af66101c08e01527f3001f8d6f84ff942ff43daf811bbde4f601824e660ded326ffae517ef896ba4e6101e08e01527f25954d648f0d013f8e07766ae41411f3670872369105612c2edd8490861d5ed26102008e01527f11f0c42554cfddb592b8e19b5a9a6b2d80e4ac2c370f82dcae4535d53352c5a86102208e01526102408d018290526102608d018190527f20236b938a08f04c7665ad412cc08f040435f06e4303373fa562250a0221ee456102808e01527f0f541b7d2ab22298931832ad41c126b9a272494b81ef7d2f9d696e7a2cef58706102a08e01527f1c09a02f7e485d145fc533ce9fe9da3cabcf19fbd96d52d4f84b0f89cdc4fd516102c08e01527f1bf044c92252e420f3aef6da1aa03eeb895df2e28ae2023cf1e43aab2c153c8c6102e08e015290925090505f61063c611aa8565b6020816103008f60085afa915081158061065857508051600114155b1561067657604051631ff3747d60e21b815260040160405180910390fd5b50505050505050505050505050505050505050565b610693611aa8565b60408051600580825260c082019092526060916020820160a080368337019050509050602080820190604085018237608060c085016020830137506040515f516020611d475f395f51905f52906106f6908735906020808a013591869101611c93565b604051602081830303815290604052805190602001205f1c6107189190611ce8565b8252604080515f918782377f2b71f483568229768a69da7e698972477f2e3542d4b495d0eb993e3847a5668560408201527f26bafb5a85d2dbd50000d08c33f1469c79b26a89826520f9ff975ad96b211ffb60608201527f2e7c08c0cbc9370df848e1bb9c4ef71c7658a55ae26b712c6f6196732f11469660808201527f0c8794566f2ee51e99fb8ce36cd1f37d8f1a14ddf2b2c3ee5754b08b623c05d560a082015260408660c08301377f254db2e9700c2423d850234288cf96924440e71140f82503393a0b22e3b6ae656101008201527f28328f51a3fa4ddbbc83eb6b8f472e410e096b950f4833ca93ec3dbb42d15d606101208201527f2d701346b24558ab81687d7d34a24396676040c669328519fecd648bbf3abc8d6101408201527f06836192d1e46d45adc7ebbab6e238dc4f8efd52404bb8363c098a92e68188ec6101608201526020816101808360085afa90511690508061088d576040516351d49ff760e11b815260040160405180910390fd5b5f5f6108c286868a60028060200260405190810160405280929190826002602002808284375f92019190915250611171915050565b915091506040516101008a82377f1640030e1fa5aa0eedcce10297946856de426ea8fb18aad3e3b8d07df4b5e6f26101008201527f1535472265363417848ec0efefb82d81e6f25d7218862a1a679dcfdf55c40f7f6101208201527f2d0ec60e06a2e51cc2259493d46fb470af39a7e17ab9b2b98b528db4fd848b046101408201527f17965ec004b8ec1b9b18d261fc673de88408f71fe079d7ee703c3d514f3c8a8b6101608201527f04d6b7ad212268e819bb7bacd10c5944ad07bbb36e9dc3612d3f37f60ce0397a6101808201527f1e4a8ef31f5c4db2eeed6c6546231667706ec6fd96227540c3a17c4cad510e8f6101a08201527f0394475b99283702e6ccfaba92deb124a5c16662671d2b1f8f21ec595c046af66101c08201527f3001f8d6f84ff942ff43daf811bbde4f601824e660ded326ffae517ef896ba4e6101e08201527f25954d648f0d013f8e07766ae41411f3670872369105612c2edd8490861d5ed26102008201527f11f0c42554cfddb592b8e19b5a9a6b2d80e4ac2c370f82dcae4535d53352c5a861022082015282610240820152816102608201527f20236b938a08f04c7665ad412cc08f040435f06e4303373fa562250a0221ee456102808201527f0f541b7d2ab22298931832ad41c126b9a272494b81ef7d2f9d696e7a2cef58706102a08201527f1c09a02f7e485d145fc533ce9fe9da3cabcf19fbd96d52d4f84b0f89cdc4fd516102c08201527f1bf044c92252e420f3aef6da1aa03eeb895df2e28ae2023cf1e43aab2c153c8c6102e08201526020816103008360085afa905116925082610b2d57604051631ff3747d60e21b815260040160405180910390fd5b505050505050505050565b5f5f516020611d275f395f51905f5283101580610b6257505f516020611d275f395f51905f528210155b15610b8057604051631ff3747d60e21b815260040160405180910390fd5b82158015610b8c575081155b15610b9857505f610c1f565b5f610bd35f516020611d275f395f51905f5260035f516020611d275f395f51905f52875f516020611d275f395f51905f52898a0909086117d4565b9050808303610be8575050600182901b610c1f565b610bf181611836565b8303610c04575050600182811b17610c1f565b604051631ff3747d60e21b815260040160405180910390fd5b505b92915050565b5f5f5f516020611d275f395f51905f5286101580610c5057505f516020611d275f395f51905f528510155b80610c6857505f516020611d275f395f51905f528410155b80610c8057505f516020611d275f395f51905f528310155b15610c9e57604051631ff3747d60e21b815260040160405180910390fd5b828486881717175f03610cb557505f905080610ef5565b5f80805f516020611d275f395f51905f52610cde60035f516020611d275f395f51905f52611d07565b5f516020611d275f395f51905f528a8c090990505f5f516020611d275f395f51905f528a5f516020611d275f395f51905f528c8d090990505f5f516020611d275f395f51905f528a5f516020611d275f395f51905f528c8d090990505f516020611d275f395f51905f52805f516020611d275f395f51905f528c860984087f2b149d40ceb8aaae81be18991be06ac3b5b4c5e559dbefa33267e6dc24a138e5089450610dcc5f516020611d275f395f51905f52805f516020611d275f395f51905f528e870984087f2fcd3ac2a640a154eb23960892a85a68f031ca0c8344b23a577dcf1052b9e77508611836565b93505050505f5f610e195f516020611d275f395f51905f5280610df157610df1611cd4565b5f516020611d275f395f51905f528586095f516020611d275f395f51905f52878809086117d4565b9050610e645f516020611d275f395f51905f527f183227397098d014dc2822db40c0ac2ecbc0b548b438e5469e10460b6c3e7ea45f516020611d275f395f51905f528488080961184e565b15915050610e73838383611896565b90935091508683148015610e8657508186145b15610eae5780610e96575f610e99565b60025b60ff1660028a901b175f179450879350610ef1565b610eb783611836565b87148015610ecc5750610ec982611836565b86145b15610c045780610edc575f610edf565b60025b60ff1660028a901b1760011794508793505b5050505b94509492505050565b5f5f825f03610f1157505f928392509050565b600183811c9250808416145f516020611d275f395f51905f528310610f4957604051631ff3747d60e21b815260040160405180910390fd5b610f835f516020611d275f395f51905f5260035f516020611d275f395f51905f52865f516020611d275f395f51905f5288890909086117d4565b91508015610f9757610f9482611836565b91505b50915091565b5f80808085158015610fad575084155b15610fc257505f925082915081905080611168565b600286811c945085935060018088161490808816145f516020611d275f395f51905f528610158061100057505f516020611d275f395f51905f528510155b1561101e57604051631ff3747d60e21b815260040160405180910390fd5b5f5f516020611d275f395f51905f5261104560035f516020611d275f395f51905f52611d07565b5f516020611d275f395f51905f52888a090990505f5f516020611d275f395f51905f52885f516020611d275f395f51905f528a8b090990505f5f516020611d275f395f51905f52885f516020611d275f395f51905f528a8b090990505f516020611d275f395f51905f52805f516020611d275f395f51905f528a860984087f2b149d40ceb8aaae81be18991be06ac3b5b4c5e559dbefa33267e6dc24a138e50896506111335f516020611d275f395f51905f52805f516020611d275f395f51905f528c870984087f2fcd3ac2a640a154eb23960892a85a68f031ca0c8344b23a577dcf1052b9e77508611836565b9550611140878786611896565b909750955084156111625761115487611836565b965061115f86611836565b95505b50505050505b92959194509250565b5f5f5f60019050604051604081015f7f297ceb82bdfe8db334f6b543f9559ec25ca0f4d004994ad6dec0917c63f0d8aa83527f03e50ce2ab1556ffed2b8450ff49763ca548877bad5f8f56445f0d3be1b4bae86020840152865182526020870151602083015260408360808560065afa841693507f13a8982abb12cd59bc6264241cade3864edd5adbbf598c657610806ceaff573b82527f193f31ff52e1cdfa10fc7aaac2f40b1760c7057edab4aab79bcd20d8703b1c866020830152883590508060408301525f516020611d475f395f51905f5281108416935060408260608460075afa8416935060408360808560065afa841693507f08a881fffaa8323634fc86e3c0dba693e27fb8a2a819d44670ea721fc61396bf82527f1cafea2789eec4b42aab039bd039299d25249f07bb5e749c1f76cc180ce0a2e66020830152602089013590508060408301525f516020611d475f395f51905f5281108416935060408260608460075afa8416935060408360808560065afa841693507f159b86157f61e0c9360cf00ee256117ea6454973174d5a9204ab87e190a8453182527f2bf78f17af3642cc02387e12eb43fb6fe61c4d4fd265ea26e5f4c2c650f2aa226020830152604089013590508060408301525f516020611d475f395f51905f5281108416935060408260608460075afa8416935060408360808560065afa841693507f1d93cd620c0f05e1b8ad622666fd6b03a7c61b52cd1d13f522cea88aa9fcb6e582527f2eb3957fa77085bda6fd17d0c3d64dfedbb8aa8cc6b569defe59c0fa18499e656020830152606089013590508060408301525f516020611d475f395f51905f5281108416935060408260608460075afa8416935060408360808560065afa841693507f29a1fbbe6fcdd3163626722d04013639284b256888b91ab984d8424eebffccf582527f03982a556954f90fa1fa29c443aab9c371392d8606dc8e426ef74846f783bc0d6020830152608089013590508060408301525f516020611d475f395f51905f5281108416935060408260608460075afa8416935060408360808560065afa841693507f24cf8a1646e52613bc8b5823df74f95f62563836d673500b2675a9bc101d645c82527f281e4773ef450e3e7fc78b811ef425377757530d8bcac1288297b29e994bd0e8602083015260a089013590508060408301525f516020611d475f395f51905f5281108416935060408260608460075afa8416935060408360808560065afa841693507f0bd46762be872b588ae6273cce667445800e9b695e2ac2773743c4e5c5f9e48082527f25fb52129e50bb23eaccbfc6b94134fb7f49ae274f7b2610e38cefad1db1a269602083015260c089013590508060408301525f516020611d475f395f51905f5281108416935060408260608460075afa8416935060408360808560065afa841693507f2a29c157cb2c1dd9e42d82ae6a2be99baa7853ab63b5816743bcf2173b50698b82527eceeb858088daa1cd5866686880e3fc9b4023b51e282f991d9544422a9fa00d602083015260e089013590508060408301525f516020611d475f395f51905f5281108416935060408260608460075afa8416935060408360808560065afa841693507f2e46dec21f6fbf78c35c68c620e7a8f89a9121136e93b2c71c3b534585c1e90c82527f1383dae2a97927d456a1a86b962f707cc8e5b7b46086e76141eb3d692a79f969602083015261010089013590508060408301525f516020611d475f395f51905f5281108416935060408260608460075afa8416935060408360808560065afa841693507f2f71b71dbf209f5470a44bfc507edacdffcf87b36dd638afca87002118c8876282527f0f6fca30737c4bb639bd8830ddefc8357c187597b3d96de8c7634c11217a0655602083015261012089013590508060408301525f516020611d475f395f51905f5281108416935060408260608460075afa8416935060408360808560065afa7f0fb126a6fba958d6b39180b4d8eae22408207d5967042a99909060ba975edd0183527f07850edfddb48b7a9ff6c5dfb3ad8c95c49e160f6b265d985bb8e23d5db57e2a6020840152885160408085018290525f516020611d475f395f51905f5290911091909516169390508160608160075afa831692505060408160808360065afa815160209092015191945090925016806117cb5760405163a54f8e2760e01b815260040160405180910390fd5b50935093915050565b5f6117ff827f0c19139cb84c680a6e14116da060561765e05aa45a1c72a34f082305b61f3f526119c9565b9050815f516020611d275f395f51905f528283091461183157604051631ff3747d60e21b815260040160405180910390fd5b919050565b5f516020611d275f395f51905f529081900681030690565b5f5f61187a837f0c19139cb84c680a6e14116da060561765e05aa45a1c72a34f082305b61f3f526119c9565b9050825f516020611d275f395f51905f52828309149392505050565b5f80806118c55f516020611d275f395f51905f52808788095f516020611d275f395f51905f52898a09086117d4565b905083156118d9576118d681611836565b90505b6119225f516020611d275f395f51905f527f183227397098d014dc2822db40c0ac2ecbc0b548b438e5469e10460b6c3e7ea45f516020611d275f395f51905f52848a08096117d4565b92505f516020611d275f395f51905f5261194c5f516020611d275f395f51905f5260028609611a2c565b860991505f516020611d275f395f51905f526119775f516020611d275f395f51905f52848509611836565b5f516020611d275f395f51905f5285860908861415806119ab57505f516020611d275f395f51905f52808385096002098514155b156117cb57604051631ff3747d60e21b815260040160405180910390fd5b5f5f60405160208152602080820152602060408201528460608201528360808201525f516020611d275f395f51905f5260a082015260208160c08360055afa90519250905080610c1d57604051631ff3747d60e21b815260040160405180910390fd5b5f611a57827f30644e72e131a029b85045b68181585d97816a916871ca8d3c208c16d87cfd456119c9565b90505f516020611d275f395f51905f5281830960011461183157604051631ff3747d60e21b815260040160405180910390fd5b60405180608001604052806004906020820280368337509192915050565b60405180602001604052806001906020820280368337509192915050565b60405180604001604052806002906020820280368337509192915050565b6040518061030001604052806018906020820280368337509192915050565b806101008101831015610c1f575f5ffd5b8060408101831015610c1f575f5ffd5b5f5f5f6101808486031215611b37575f5ffd5b611b418585611b03565b9250611b51856101008601611b14565b9150611b61856101408601611b14565b90509250925092565b60c0810181855f5b6004811015611b91578151835260209283019290910190600101611b72565b50505060808201845f5b6001811015611bba578151835260209283019290910190600101611b9b565b5050508260a0830152949350505050565b806101408101831015610c1f575f5ffd5b5f5f5f5f6102008587031215611bf0575f5ffd5b6080850186811115611c00575f5ffd5b85945060a0860187811115611c13575f5ffd5b909350359150611c268660c08701611bcb565b905092959194509250565b5f5f5f5f6102c08587031215611c45575f5ffd5b611c4f8686611b03565b9350611c5f866101008701611b14565b9250611c6f866101408701611b14565b9150611c26866101808701611bcb565b634e487b7160e01b5f52603260045260245ffd5b8381528260208201525f604082018351602085015f5b82811015611cc7578151845260209384019390910190600101611ca9565b5091979650505050505050565b634e487b7160e01b5f52601260045260245ffd5b5f82611d0257634e487b7160e01b5f52601260045260245ffd5b500690565b81810381811115610c1f57634e487b7160e01b5f52601160045260245ffdfe30644e72e131a029b85045b68181585d97816a916871ca8d3c208c16d87cfd4730644e72e131a029b85045b68181585d2833e84879b9709143e1f593f0000001a2646970667358221220d3471f14eae39e7ed68815750cfb8f282df484e4c928ecb4f5f938406e1676ff64736f6c634300081c0033","opcodes":"PUSH1 0x80 PUSH1 0x40 MSTORE CALLVALUE DUP1 ISZERO PUSH1 0xE JUMPI PUSH0 PUSH0 REVERT JUMPDEST POP PUSH2 0x1D9C DUP1 PUSH2 0x1C PUSH0 CODECOPY PUSH0 RETURN INVALID PUSH1 0x80 PUSH1 0x40 MSTORE CALLVALUE DUP1 ISZERO PUSH2 0xF JUMPI PUSH0 PUSH0 REVERT JUMPDEST POP PUSH1 0x4 CALLDATASIZE LT PUSH2 0x3F JUMPI PUSH0 CALLDATALOAD PUSH1 0xE0 SHR DUP1 PUSH4 0xB1C3A00E EQ PUSH2 0x43 JUMPI DUP1 PUSH4 0xDC37819A EQ PUSH2 0x6E JUMPI DUP1 PUSH4 0xDF078BEF EQ PUSH2 0x83 JUMPI JUMPDEST PUSH0 PUSH0 REVERT JUMPDEST PUSH2 0x56 PUSH2 0x51 CALLDATASIZE PUSH1 0x4 PUSH2 0x1B24 JUMP JUMPDEST PUSH2 0x96 JUMP JUMPDEST PUSH1 0x40 MLOAD PUSH2 0x65 SWAP4 SWAP3 SWAP2 SWAP1 PUSH2 0x1B6A JUMP JUMPDEST PUSH1 0x40 MLOAD DUP1 SWAP2 SUB SWAP1 RETURN JUMPDEST PUSH2 0x81 PUSH2 0x7C CALLDATASIZE PUSH1 0x4 PUSH2 0x1BDC JUMP JUMPDEST PUSH2 0x11E JUMP JUMPDEST STOP JUMPDEST PUSH2 0x81 PUSH2 0x91 CALLDATASIZE PUSH1 0x4 PUSH2 0x1C31 JUMP JUMPDEST PUSH2 0x68B JUMP JUMPDEST PUSH2 0x9E PUSH2 0x1A8A JUMP JUMPDEST PUSH2 0xA6 PUSH2 0x1AA8 JUMP JUMPDEST PUSH0 PUSH2 0xBA DUP7 CALLDATALOAD DUP8 PUSH1 0x1 JUMPDEST PUSH1 0x20 MUL ADD CALLDATALOAD PUSH2 0xB38 JUMP JUMPDEST DUP4 MSTORE PUSH2 0xD8 PUSH1 0x60 DUP8 ADD CALLDATALOAD PUSH1 0x40 DUP9 ADD CALLDATALOAD PUSH1 0xA0 DUP10 ADD CALLDATALOAD PUSH1 0x80 DUP11 ADD CALLDATALOAD PUSH2 0xC25 JUMP JUMPDEST PUSH1 0x20 DUP6 ADD MSTORE PUSH1 0x40 DUP5 ADD MSTORE PUSH2 0xF2 PUSH1 0xC0 DUP8 ADD CALLDATALOAD DUP8 PUSH1 0x7 PUSH2 0xB0 JUMP JUMPDEST PUSH1 0x60 DUP5 ADD MSTORE PUSH2 0x104 DUP6 CALLDATALOAD DUP7 PUSH1 0x1 PUSH2 0xB0 JUMP JUMPDEST DUP3 MSTORE PUSH2 0x113 DUP5 CALLDATALOAD DUP6 PUSH1 0x1 PUSH2 0xB0 JUMP JUMPDEST SWAP1 POP SWAP4 POP SWAP4 POP SWAP4 SWAP1 POP JUMP JUMPDEST PUSH2 0x126 PUSH2 0x1AA8 JUMP JUMPDEST PUSH2 0x12E PUSH2 0x1AC6 JUMP JUMPDEST PUSH2 0x136 PUSH2 0x1AE4 JUMP JUMPDEST PUSH2 0x146 DUP7 PUSH0 JUMPDEST PUSH1 0x20 MUL ADD CALLDATALOAD PUSH2 0xEFE JUMP JUMPDEST PUSH1 0x20 DUP5 ADD MSTORE DUP3 MSTORE PUSH0 DUP1 PUSH2 0x158 DUP8 PUSH2 0xEFE JUMP JUMPDEST PUSH1 0x40 DUP1 MLOAD PUSH1 0x5 DUP1 DUP3 MSTORE PUSH1 0xC0 DUP3 ADD SWAP1 SWAP3 MSTORE SWAP3 SWAP5 POP SWAP1 SWAP3 POP PUSH1 0x60 SWAP2 SWAP1 PUSH1 0x20 DUP3 ADD PUSH1 0xA0 DUP1 CALLDATASIZE DUP4 CALLDATACOPY ADD SWAP1 POP POP SWAP1 POP PUSH1 0x20 DUP1 DUP3 ADD SWAP1 PUSH1 0x40 DUP10 ADD DUP3 CALLDATACOPY PUSH1 0x80 PUSH1 0xC0 DUP10 ADD PUSH1 0x20 DUP4 ADD CALLDATACOPY POP DUP5 MLOAD PUSH1 0x20 DUP1 DUP8 ADD MLOAD PUSH1 0x40 MLOAD PUSH0 MLOAD PUSH1 0x20 PUSH2 0x1D47 PUSH0 CODECOPY PUSH0 MLOAD SWAP1 PUSH0 MSTORE SWAP4 PUSH2 0x1C3 SWAP4 SWAP1 SWAP3 SWAP2 DUP7 SWAP2 ADD PUSH2 0x1C93 JUMP JUMPDEST PUSH1 0x40 MLOAD PUSH1 0x20 DUP2 DUP4 SUB SUB DUP2 MSTORE SWAP1 PUSH1 0x40 MSTORE DUP1 MLOAD SWAP1 PUSH1 0x20 ADD KECCAK256 PUSH0 SHR PUSH2 0x1E5 SWAP2 SWAP1 PUSH2 0x1CE8 JUMP JUMPDEST DUP7 MSTORE DUP5 MLOAD DUP5 MSTORE PUSH1 0x20 DUP6 DUP2 ADD MLOAD DUP6 DUP3 ADD MSTORE PUSH32 0x2B71F483568229768A69DA7E698972477F2E3542D4B495D0EB993E3847A56685 PUSH1 0x40 DUP1 DUP8 ADD SWAP2 SWAP1 SWAP2 MSTORE PUSH32 0x26BAFB5A85D2DBD50000D08C33F1469C79B26A89826520F9FF975AD96B211FFB PUSH1 0x60 DUP8 ADD MSTORE PUSH32 0x2E7C08C0CBC9370DF848E1BB9C4EF71C7658A55AE26B712C6F6196732F114696 PUSH1 0x80 DUP8 ADD MSTORE PUSH32 0xC8794566F2EE51E99FB8CE36CD1F37D8F1A14DDF2B2C3EE5754B08B623C05D5 PUSH1 0xA0 DUP8 ADD MSTORE PUSH1 0xC0 DUP7 ADD DUP6 SWAP1 MSTORE PUSH1 0xE0 DUP7 ADD DUP5 SWAP1 MSTORE PUSH32 0x254DB2E9700C2423D850234288CF96924440E71140F82503393A0B22E3B6AE65 PUSH2 0x100 DUP8 ADD MSTORE PUSH32 0x28328F51A3FA4DDBBC83EB6B8F472E410E096B950F4833CA93EC3DBB42D15D60 PUSH2 0x120 DUP8 ADD MSTORE PUSH32 0x2D701346B24558AB81687D7D34A24396676040C669328519FECD648BBF3ABC8D PUSH2 0x140 DUP8 ADD MSTORE PUSH32 0x6836192D1E46D45ADC7EBBAB6E238DC4F8EFD52404BB8363C098A92E68188EC PUSH2 0x160 DUP8 ADD MSTORE MLOAD PUSH0 SWAP2 DUP2 PUSH2 0x180 DUP9 PUSH1 0x8 GAS STATICCALL SWAP1 MLOAD AND SWAP1 POP DUP1 PUSH2 0x36A JUMPI PUSH1 0x40 MLOAD PUSH4 0x51D49FF7 PUSH1 0xE1 SHL DUP2 MSTORE PUSH1 0x4 ADD PUSH1 0x40 MLOAD DUP1 SWAP2 SUB SWAP1 REVERT JUMPDEST POP POP POP POP PUSH0 PUSH0 PUSH2 0x385 DUP10 PUSH0 PUSH1 0x4 DUP2 LT PUSH2 0x13C JUMPI PUSH2 0x13C PUSH2 0x1C7F JUMP JUMPDEST SWAP1 SWAP3 POP SWAP1 POP PUSH0 DUP1 DUP1 DUP1 PUSH2 0x3A0 PUSH1 0x40 DUP15 ADD CALLDATALOAD PUSH1 0x20 DUP16 ADD CALLDATALOAD PUSH2 0xF9D JUMP JUMPDEST SWAP3 SWAP7 POP SWAP1 SWAP5 POP SWAP3 POP SWAP1 POP PUSH0 DUP1 PUSH2 0x3B7 DUP16 PUSH1 0x3 PUSH2 0x13C JUMP JUMPDEST SWAP2 POP SWAP2 POP PUSH0 PUSH0 PUSH2 0x3C8 DUP15 DUP15 DUP15 PUSH2 0x1171 JUMP JUMPDEST DUP12 DUP14 MSTORE PUSH1 0x20 DUP14 ADD DUP12 SWAP1 MSTORE PUSH1 0x40 DUP14 ADD DUP10 SWAP1 MSTORE PUSH1 0x60 DUP14 ADD DUP11 SWAP1 MSTORE PUSH1 0x80 DUP14 ADD DUP8 SWAP1 MSTORE PUSH1 0xA0 DUP14 ADD DUP9 SWAP1 MSTORE PUSH1 0xC0 DUP14 ADD DUP7 SWAP1 MSTORE PUSH1 0xE0 DUP14 ADD DUP6 SWAP1 MSTORE PUSH32 0x1640030E1FA5AA0EEDCCE10297946856DE426EA8FB18AAD3E3B8D07DF4B5E6F2 PUSH2 0x100 DUP15 ADD MSTORE PUSH32 0x1535472265363417848EC0EFEFB82D81E6F25D7218862A1A679DCFDF55C40F7F PUSH2 0x120 DUP15 ADD MSTORE PUSH32 0x2D0EC60E06A2E51CC2259493D46FB470AF39A7E17AB9B2B98B528DB4FD848B04 PUSH2 0x140 DUP15 ADD MSTORE PUSH32 0x17965EC004B8EC1B9B18D261FC673DE88408F71FE079D7EE703C3D514F3C8A8B PUSH2 0x160 DUP15 ADD MSTORE PUSH32 0x4D6B7AD212268E819BB7BACD10C5944AD07BBB36E9DC3612D3F37F60CE0397A PUSH2 0x180 DUP15 ADD MSTORE PUSH32 0x1E4A8EF31F5C4DB2EEED6C6546231667706EC6FD96227540C3A17C4CAD510E8F PUSH2 0x1A0 DUP15 ADD MSTORE PUSH32 0x394475B99283702E6CCFABA92DEB124A5C16662671D2B1F8F21EC595C046AF6 PUSH2 0x1C0 DUP15 ADD MSTORE PUSH32 0x3001F8D6F84FF942FF43DAF811BBDE4F601824E660DED326FFAE517EF896BA4E PUSH2 0x1E0 DUP15 ADD MSTORE PUSH32 0x25954D648F0D013F8E07766AE41411F3670872369105612C2EDD8490861D5ED2 PUSH2 0x200 DUP15 ADD MSTORE PUSH32 0x11F0C42554CFDDB592B8E19B5A9A6B2D80E4AC2C370F82DCAE4535D53352C5A8 PUSH2 0x220 DUP15 ADD MSTORE PUSH2 0x240 DUP14 ADD DUP3 SWAP1 MSTORE PUSH2 0x260 DUP14 ADD DUP2 SWAP1 MSTORE PUSH32 0x20236B938A08F04C7665AD412CC08F040435F06E4303373FA562250A0221EE45 PUSH2 0x280 DUP15 ADD MSTORE PUSH32 0xF541B7D2AB22298931832AD41C126B9A272494B81EF7D2F9D696E7A2CEF5870 PUSH2 0x2A0 DUP15 ADD MSTORE PUSH32 0x1C09A02F7E485D145FC533CE9FE9DA3CABCF19FBD96D52D4F84B0F89CDC4FD51 PUSH2 0x2C0 DUP15 ADD MSTORE PUSH32 0x1BF044C92252E420F3AEF6DA1AA03EEB895DF2E28AE2023CF1E43AAB2C153C8C PUSH2 0x2E0 DUP15 ADD MSTORE SWAP1 SWAP3 POP SWAP1 POP PUSH0 PUSH2 0x63C PUSH2 0x1AA8 JUMP JUMPDEST PUSH1 0x20 DUP2 PUSH2 0x300 DUP16 PUSH1 0x8 GAS STATICCALL SWAP2 POP DUP2 ISZERO DUP1 PUSH2 0x658 JUMPI POP DUP1 MLOAD PUSH1 0x1 EQ ISZERO JUMPDEST ISZERO PUSH2 0x676 JUMPI PUSH1 0x40 MLOAD PUSH4 0x1FF3747D PUSH1 0xE2 SHL DUP2 MSTORE PUSH1 0x4 ADD PUSH1 0x40 MLOAD DUP1 SWAP2 SUB SWAP1 REVERT JUMPDEST POP POP POP POP POP POP POP POP POP POP POP POP POP POP POP POP POP POP POP JUMP JUMPDEST PUSH2 0x693 PUSH2 0x1AA8 JUMP JUMPDEST PUSH1 0x40 DUP1 MLOAD PUSH1 0x5 DUP1 DUP3 MSTORE PUSH1 0xC0 DUP3 ADD SWAP1 SWAP3 MSTORE PUSH1 0x60 SWAP2 PUSH1 0x20 DUP3 ADD PUSH1 0xA0 DUP1 CALLDATASIZE DUP4 CALLDATACOPY ADD SWAP1 POP POP SWAP1 POP PUSH1 0x20 DUP1 DUP3 ADD SWAP1 PUSH1 0x40 DUP6 ADD DUP3 CALLDATACOPY PUSH1 0x80 PUSH1 0xC0 DUP6 ADD PUSH1 0x20 DUP4 ADD CALLDATACOPY POP PUSH1 0x40 MLOAD PUSH0 MLOAD PUSH1 0x20 PUSH2 0x1D47 PUSH0 CODECOPY PUSH0 MLOAD SWAP1 PUSH0 MSTORE SWAP1 PUSH2 0x6F6 SWAP1 DUP8 CALLDATALOAD SWAP1 PUSH1 0x20 DUP1 DUP11 ADD CALLDATALOAD SWAP2 DUP7 SWAP2 ADD PUSH2 0x1C93 JUMP JUMPDEST PUSH1 0x40 MLOAD PUSH1 0x20 DUP2 DUP4 SUB SUB DUP2 MSTORE SWAP1 PUSH1 0x40 MSTORE DUP1 MLOAD SWAP1 PUSH1 0x20 ADD KECCAK256 PUSH0 SHR PUSH2 0x718 SWAP2 SWAP1 PUSH2 0x1CE8 JUMP JUMPDEST DUP3 MSTORE PUSH1 0x40 DUP1 MLOAD PUSH0 SWAP2 DUP8 DUP3 CALLDATACOPY PUSH32 0x2B71F483568229768A69DA7E698972477F2E3542D4B495D0EB993E3847A56685 PUSH1 0x40 DUP3 ADD MSTORE PUSH32 0x26BAFB5A85D2DBD50000D08C33F1469C79B26A89826520F9FF975AD96B211FFB PUSH1 0x60 DUP3 ADD MSTORE PUSH32 0x2E7C08C0CBC9370DF848E1BB9C4EF71C7658A55AE26B712C6F6196732F114696 PUSH1 0x80 DUP3 ADD MSTORE PUSH32 0xC8794566F2EE51E99FB8CE36CD1F37D8F1A14DDF2B2C3EE5754B08B623C05D5 PUSH1 0xA0 DUP3 ADD MSTORE PUSH1 0x40 DUP7 PUSH1 0xC0 DUP4 ADD CALLDATACOPY PUSH32 0x254DB2E9700C2423D850234288CF96924440E71140F82503393A0B22E3B6AE65 PUSH2 0x100 DUP3 ADD MSTORE PUSH32 0x28328F51A3FA4DDBBC83EB6B8F472E410E096B950F4833CA93EC3DBB42D15D60 PUSH2 0x120 DUP3 ADD MSTORE PUSH32 0x2D701346B24558AB81687D7D34A24396676040C669328519FECD648BBF3ABC8D PUSH2 0x140 DUP3 ADD MSTORE PUSH32 0x6836192D1E46D45ADC7EBBAB6E238DC4F8EFD52404BB8363C098A92E68188EC PUSH2 0x160 DUP3 ADD MSTORE PUSH1 0x20 DUP2 PUSH2 0x180 DUP4 PUSH1 0x8 GAS STATICCALL SWAP1 MLOAD AND SWAP1 POP DUP1 PUSH2 0x88D JUMPI PUSH1 0x40 MLOAD PUSH4 0x51D49FF7 PUSH1 0xE1 SHL DUP2 MSTORE PUSH1 0x4 ADD PUSH1 0x40 MLOAD DUP1 SWAP2 SUB SWAP1 REVERT JUMPDEST PUSH0 PUSH0 PUSH2 0x8C2 DUP7 DUP7 DUP11 PUSH1 0x2 DUP1 PUSH1 0x20 MUL PUSH1 0x40 MLOAD SWAP1 DUP2 ADD PUSH1 0x40 MSTORE DUP1 SWAP3 SWAP2 SWAP1 DUP3 PUSH1 0x2 PUSH1 0x20 MUL DUP1 DUP3 DUP5 CALLDATACOPY PUSH0 SWAP3 ADD SWAP2 SWAP1 SWAP2 MSTORE POP PUSH2 0x1171 SWAP2 POP POP JUMP JUMPDEST SWAP2 POP SWAP2 POP PUSH1 0x40 MLOAD PUSH2 0x100 DUP11 DUP3 CALLDATACOPY PUSH32 0x1640030E1FA5AA0EEDCCE10297946856DE426EA8FB18AAD3E3B8D07DF4B5E6F2 PUSH2 0x100 DUP3 ADD MSTORE PUSH32 0x1535472265363417848EC0EFEFB82D81E6F25D7218862A1A679DCFDF55C40F7F PUSH2 0x120 DUP3 ADD MSTORE PUSH32 0x2D0EC60E06A2E51CC2259493D46FB470AF39A7E17AB9B2B98B528DB4FD848B04 PUSH2 0x140 DUP3 ADD MSTORE PUSH32 0x17965EC004B8EC1B9B18D261FC673DE88408F71FE079D7EE703C3D514F3C8A8B PUSH2 0x160 DUP3 ADD MSTORE PUSH32 0x4D6B7AD212268E819BB7BACD10C5944AD07BBB36E9DC3612D3F37F60CE0397A PUSH2 0x180 DUP3 ADD MSTORE PUSH32 0x1E4A8EF31F5C4DB2EEED6C6546231667706EC6FD96227540C3A17C4CAD510E8F PUSH2 0x1A0 DUP3 ADD MSTORE PUSH32 0x394475B99283702E6CCFABA92DEB124A5C16662671D2B1F8F21EC595C046AF6 PUSH2 0x1C0 DUP3 ADD MSTORE PUSH32 0x3001F8D6F84FF942FF43DAF811BBDE4F601824E660DED326FFAE517EF896BA4E PUSH2 0x1E0 DUP3 ADD MSTORE PUSH32 0x25954D648F0D013F8E07766AE41411F3670872369105612C2EDD8490861D5ED2 PUSH2 0x200 DUP3 ADD MSTORE PUSH32 0x11F0C42554CFDDB592B8E19B5A9A6B2D80E4AC2C370F82DCAE4535D53352C5A8 PUSH2 0x220 DUP3 ADD MSTORE DUP3 PUSH2 0x240 DUP3 ADD MSTORE DUP2 PUSH2 0x260 DUP3 ADD MSTORE PUSH32 0x20236B938A08F04C7665AD412CC08F040435F06E4303373FA562250A0221EE45 PUSH2 0x280 DUP3 ADD MSTORE PUSH32 0xF541B7D2AB22298931832AD41C126B9A272494B81EF7D2F9D696E7A2CEF5870 PUSH2 0x2A0 DUP3 ADD MSTORE PUSH32 0x1C09A02F7E485D145FC533CE9FE9DA3CABCF19FBD96D52D4F84B0F89CDC4FD51 PUSH2 0x2C0 DUP3 ADD MSTORE PUSH32 0x1BF044C92252E420F3AEF6DA1AA03EEB895DF2E28AE2023CF1E43AAB2C153C8C PUSH2 0x2E0 DUP3 ADD MSTORE PUSH1 0x20 DUP2 PUSH2 0x300 DUP4 PUSH1 0x8 GAS STATICCALL SWAP1 MLOAD AND SWAP3 POP DUP3 PUSH2 0xB2D JUMPI PUSH1 0x40 MLOAD PUSH4 0x1FF3747D PUSH1 0xE2 SHL DUP2 MSTORE PUSH1 0x4 ADD PUSH1 0x40 MLOAD DUP1 SWAP2 SUB SWAP1 REVERT JUMPDEST POP POP POP POP POP POP POP POP POP JUMP JUMPDEST PUSH0 PUSH0 MLOAD PUSH1 0x20 PUSH2 0x1D27 PUSH0 CODECOPY PUSH0 MLOAD SWAP1 PUSH0 MSTORE DUP4 LT ISZERO DUP1 PUSH2 0xB62 JUMPI POP PUSH0 MLOAD PUSH1 0x20 PUSH2 0x1D27 PUSH0 CODECOPY PUSH0 MLOAD SWAP1 PUSH0 MSTORE DUP3 LT ISZERO JUMPDEST ISZERO PUSH2 0xB80 JUMPI PUSH1 0x40 MLOAD PUSH4 0x1FF3747D PUSH1 0xE2 SHL DUP2 MSTORE PUSH1 0x4 ADD PUSH1 0x40 MLOAD DUP1 SWAP2 SUB SWAP1 REVERT JUMPDEST DUP3 ISZERO DUP1 ISZERO PUSH2 0xB8C JUMPI POP DUP2 ISZERO JUMPDEST ISZERO PUSH2 0xB98 JUMPI POP PUSH0 PUSH2 0xC1F JUMP JUMPDEST PUSH0 PUSH2 0xBD3 PUSH0 MLOAD PUSH1 0x20 PUSH2 0x1D27 PUSH0 CODECOPY PUSH0 MLOAD SWAP1 PUSH0 MSTORE PUSH1 0x3 PUSH0 MLOAD PUSH1 0x20 PUSH2 0x1D27 PUSH0 CODECOPY PUSH0 MLOAD SWAP1 PUSH0 MSTORE DUP8 PUSH0 MLOAD PUSH1 0x20 PUSH2 0x1D27 PUSH0 CODECOPY PUSH0 MLOAD SWAP1 PUSH0 MSTORE DUP10 DUP11 MULMOD MULMOD ADDMOD PUSH2 0x17D4 JUMP JUMPDEST SWAP1 POP DUP1 DUP4 SUB PUSH2 0xBE8 JUMPI POP POP PUSH1 0x1 DUP3 SWAP1 SHL PUSH2 0xC1F JUMP JUMPDEST PUSH2 0xBF1 DUP2 PUSH2 0x1836 JUMP JUMPDEST DUP4 SUB PUSH2 0xC04 JUMPI POP POP PUSH1 0x1 DUP3 DUP2 SHL OR PUSH2 0xC1F JUMP JUMPDEST PUSH1 0x40 MLOAD PUSH4 0x1FF3747D PUSH1 0xE2 SHL DUP2 MSTORE PUSH1 0x4 ADD PUSH1 0x40 MLOAD DUP1 SWAP2 SUB SWAP1 REVERT JUMPDEST POP JUMPDEST SWAP3 SWAP2 POP POP JUMP JUMPDEST PUSH0 PUSH0 PUSH0 MLOAD PUSH1 0x20 PUSH2 0x1D27 PUSH0 CODECOPY PUSH0 MLOAD SWAP1 PUSH0 MSTORE DUP7 LT ISZERO DUP1 PUSH2 0xC50 JUMPI POP PUSH0 MLOAD PUSH1 0x20 PUSH2 0x1D27 PUSH0 CODECOPY PUSH0 MLOAD SWAP1 PUSH0 MSTORE DUP6 LT ISZERO JUMPDEST DUP1 PUSH2 0xC68 JUMPI POP PUSH0 MLOAD PUSH1 0x20 PUSH2 0x1D27 PUSH0 CODECOPY PUSH0 MLOAD SWAP1 PUSH0 MSTORE DUP5 LT ISZERO JUMPDEST DUP1 PUSH2 0xC80 JUMPI POP PUSH0 MLOAD PUSH1 0x20 PUSH2 0x1D27 PUSH0 CODECOPY PUSH0 MLOAD SWAP1 PUSH0 MSTORE DUP4 LT ISZERO JUMPDEST ISZERO PUSH2 0xC9E JUMPI PUSH1 0x40 MLOAD PUSH4 0x1FF3747D PUSH1 0xE2 SHL DUP2 MSTORE PUSH1 0x4 ADD PUSH1 0x40 MLOAD DUP1 SWAP2 SUB SWAP1 REVERT JUMPDEST DUP3 DUP5 DUP7 DUP9 OR OR OR PUSH0 SUB PUSH2 0xCB5 JUMPI POP PUSH0 SWAP1 POP DUP1 PUSH2 0xEF5 JUMP JUMPDEST PUSH0 DUP1 DUP1 PUSH0 MLOAD PUSH1 0x20 PUSH2 0x1D27 PUSH0 CODECOPY PUSH0 MLOAD SWAP1 PUSH0 MSTORE PUSH2 0xCDE PUSH1 0x3 PUSH0 MLOAD PUSH1 0x20 PUSH2 0x1D27 PUSH0 CODECOPY PUSH0 MLOAD SWAP1 PUSH0 MSTORE PUSH2 0x1D07 JUMP JUMPDEST PUSH0 MLOAD PUSH1 0x20 PUSH2 0x1D27 PUSH0 CODECOPY PUSH0 MLOAD SWAP1 PUSH0 MSTORE DUP11 DUP13 MULMOD MULMOD SWAP1 POP PUSH0 PUSH0 MLOAD PUSH1 0x20 PUSH2 0x1D27 PUSH0 CODECOPY PUSH0 MLOAD SWAP1 PUSH0 MSTORE DUP11 PUSH0 MLOAD PUSH1 0x20 PUSH2 0x1D27 PUSH0 CODECOPY PUSH0 MLOAD SWAP1 PUSH0 MSTORE DUP13 DUP14 MULMOD MULMOD SWAP1 POP PUSH0 PUSH0 MLOAD PUSH1 0x20 PUSH2 0x1D27 PUSH0 CODECOPY PUSH0 MLOAD SWAP1 PUSH0 MSTORE DUP11 PUSH0 MLOAD PUSH1 0x20 PUSH2 0x1D27 PUSH0 CODECOPY PUSH0 MLOAD SWAP1 PUSH0 MSTORE DUP13 DUP14 MULMOD MULMOD SWAP1 POP PUSH0 MLOAD PUSH1 0x20 PUSH2 0x1D27 PUSH0 CODECOPY PUSH0 MLOAD SWAP1 PUSH0 MSTORE DUP1 PUSH0 MLOAD PUSH1 0x20 PUSH2 0x1D27 PUSH0 CODECOPY PUSH0 MLOAD SWAP1 PUSH0 MSTORE DUP13 DUP7 MULMOD DUP5 ADDMOD PUSH32 0x2B149D40CEB8AAAE81BE18991BE06AC3B5B4C5E559DBEFA33267E6DC24A138E5 ADDMOD SWAP5 POP PUSH2 0xDCC PUSH0 MLOAD PUSH1 0x20 PUSH2 0x1D27 PUSH0 CODECOPY PUSH0 MLOAD SWAP1 PUSH0 MSTORE DUP1 PUSH0 MLOAD PUSH1 0x20 PUSH2 0x1D27 PUSH0 CODECOPY PUSH0 MLOAD SWAP1 PUSH0 MSTORE DUP15 DUP8 MULMOD DUP5 ADDMOD PUSH32 0x2FCD3AC2A640A154EB23960892A85A68F031CA0C8344B23A577DCF1052B9E775 ADDMOD PUSH2 0x1836 JUMP JUMPDEST SWAP4 POP POP POP POP PUSH0 PUSH0 PUSH2 0xE19 PUSH0 MLOAD PUSH1 0x20 PUSH2 0x1D27 PUSH0 CODECOPY PUSH0 MLOAD SWAP1 PUSH0 MSTORE DUP1 PUSH2 0xDF1 JUMPI PUSH2 0xDF1 PUSH2 0x1CD4 JUMP JUMPDEST PUSH0 MLOAD PUSH1 0x20 PUSH2 0x1D27 PUSH0 CODECOPY PUSH0 MLOAD SWAP1 PUSH0 MSTORE DUP6 DUP7 MULMOD PUSH0 MLOAD PUSH1 0x20 PUSH2 0x1D27 PUSH0 CODECOPY PUSH0 MLOAD SWAP1 PUSH0 MSTORE DUP8 DUP9 MULMOD ADDMOD PUSH2 0x17D4 JUMP JUMPDEST SWAP1 POP PUSH2 0xE64 PUSH0 MLOAD PUSH1 0x20 PUSH2 0x1D27 PUSH0 CODECOPY PUSH0 MLOAD SWAP1 PUSH0 MSTORE PUSH32 0x183227397098D014DC2822DB40C0AC2ECBC0B548B438E5469E10460B6C3E7EA4 PUSH0 MLOAD PUSH1 0x20 PUSH2 0x1D27 PUSH0 CODECOPY PUSH0 MLOAD SWAP1 PUSH0 MSTORE DUP5 DUP9 ADDMOD MULMOD PUSH2 0x184E JUMP JUMPDEST ISZERO SWAP2 POP POP PUSH2 0xE73 DUP4 DUP4 DUP4 PUSH2 0x1896 JUMP JUMPDEST SWAP1 SWAP4 POP SWAP2 POP DUP7 DUP4 EQ DUP1 ISZERO PUSH2 0xE86 JUMPI POP DUP2 DUP7 EQ JUMPDEST ISZERO PUSH2 0xEAE JUMPI DUP1 PUSH2 0xE96 JUMPI PUSH0 PUSH2 0xE99 JUMP JUMPDEST PUSH1 0x2 JUMPDEST PUSH1 0xFF AND PUSH1 0x2 DUP11 SWAP1 SHL OR PUSH0 OR SWAP5 POP DUP8 SWAP4 POP PUSH2 0xEF1 JUMP JUMPDEST PUSH2 0xEB7 DUP4 PUSH2 0x1836 JUMP JUMPDEST DUP8 EQ DUP1 ISZERO PUSH2 0xECC JUMPI POP PUSH2 0xEC9 DUP3 PUSH2 0x1836 JUMP JUMPDEST DUP7 EQ JUMPDEST ISZERO PUSH2 0xC04 JUMPI DUP1 PUSH2 0xEDC JUMPI PUSH0 PUSH2 0xEDF JUMP JUMPDEST PUSH1 0x2 JUMPDEST PUSH1 0xFF AND PUSH1 0x2 DUP11 SWAP1 SHL OR PUSH1 0x1 OR SWAP5 POP DUP8 SWAP4 POP JUMPDEST POP POP POP JUMPDEST SWAP5 POP SWAP5 SWAP3 POP POP POP JUMP JUMPDEST PUSH0 PUSH0 DUP3 PUSH0 SUB PUSH2 0xF11 JUMPI POP PUSH0 SWAP3 DUP4 SWAP3 POP SWAP1 POP JUMP JUMPDEST PUSH1 0x1 DUP4 DUP2 SHR SWAP3 POP DUP1 DUP5 AND EQ PUSH0 MLOAD PUSH1 0x20 PUSH2 0x1D27 PUSH0 CODECOPY PUSH0 MLOAD SWAP1 PUSH0 MSTORE DUP4 LT PUSH2 0xF49 JUMPI PUSH1 0x40 MLOAD PUSH4 0x1FF3747D PUSH1 0xE2 SHL DUP2 MSTORE PUSH1 0x4 ADD PUSH1 0x40 MLOAD DUP1 SWAP2 SUB SWAP1 REVERT JUMPDEST PUSH2 0xF83 PUSH0 MLOAD PUSH1 0x20 PUSH2 0x1D27 PUSH0 CODECOPY PUSH0 MLOAD SWAP1 PUSH0 MSTORE PUSH1 0x3 PUSH0 MLOAD PUSH1 0x20 PUSH2 0x1D27 PUSH0 CODECOPY PUSH0 MLOAD SWAP1 PUSH0 MSTORE DUP7 PUSH0 MLOAD PUSH1 0x20 PUSH2 0x1D27 PUSH0 CODECOPY PUSH0 MLOAD SWAP1 PUSH0 MSTORE DUP9 DUP10 MULMOD MULMOD ADDMOD PUSH2 0x17D4 JUMP JUMPDEST SWAP2 POP DUP1 ISZERO PUSH2 0xF97 JUMPI PUSH2 0xF94 DUP3 PUSH2 0x1836 JUMP JUMPDEST SWAP2 POP JUMPDEST POP SWAP2 POP SWAP2 JUMP JUMPDEST PUSH0 DUP1 DUP1 DUP1 DUP6 ISZERO DUP1 ISZERO PUSH2 0xFAD JUMPI POP DUP5 ISZERO JUMPDEST ISZERO PUSH2 0xFC2 JUMPI POP PUSH0 SWAP3 POP DUP3 SWAP2 POP DUP2 SWAP1 POP DUP1 PUSH2 0x1168 JUMP JUMPDEST PUSH1 0x2 DUP7 DUP2 SHR SWAP5 POP DUP6 SWAP4 POP PUSH1 0x1 DUP1 DUP9 AND EQ SWAP1 DUP1 DUP9 AND EQ PUSH0 MLOAD PUSH1 0x20 PUSH2 0x1D27 PUSH0 CODECOPY PUSH0 MLOAD SWAP1 PUSH0 MSTORE DUP7 LT ISZERO DUP1 PUSH2 0x1000 JUMPI POP PUSH0 MLOAD PUSH1 0x20 PUSH2 0x1D27 PUSH0 CODECOPY PUSH0 MLOAD SWAP1 PUSH0 MSTORE DUP6 LT ISZERO JUMPDEST ISZERO PUSH2 0x101E JUMPI PUSH1 0x40 MLOAD PUSH4 0x1FF3747D PUSH1 0xE2 SHL DUP2 MSTORE PUSH1 0x4 ADD PUSH1 0x40 MLOAD DUP1 SWAP2 SUB SWAP1 REVERT JUMPDEST PUSH0 PUSH0 MLOAD PUSH1 0x20 PUSH2 0x1D27 PUSH0 CODECOPY PUSH0 MLOAD SWAP1 PUSH0 MSTORE PUSH2 0x1045 PUSH1 0x3 PUSH0 MLOAD PUSH1 0x20 PUSH2 0x1D27 PUSH0 CODECOPY PUSH0 MLOAD SWAP1 PUSH0 MSTORE PUSH2 0x1D07 JUMP JUMPDEST PUSH0 MLOAD PUSH1 0x20 PUSH2 0x1D27 PUSH0 CODECOPY PUSH0 MLOAD SWAP1 PUSH0 MSTORE DUP9 DUP11 MULMOD MULMOD SWAP1 POP PUSH0 PUSH0 MLOAD PUSH1 0x20 PUSH2 0x1D27 PUSH0 CODECOPY PUSH0 MLOAD SWAP1 PUSH0 MSTORE DUP9 PUSH0 MLOAD PUSH1 0x20 PUSH2 0x1D27 PUSH0 CODECOPY PUSH0 MLOAD SWAP1 PUSH0 MSTORE DUP11 DUP12 MULMOD MULMOD SWAP1 POP PUSH0 PUSH0 MLOAD PUSH1 0x20 PUSH2 0x1D27 PUSH0 CODECOPY PUSH0 MLOAD SWAP1 PUSH0 MSTORE DUP9 PUSH0 MLOAD PUSH1 0x20 PUSH2 0x1D27 PUSH0 CODECOPY PUSH0 MLOAD SWAP1 PUSH0 MSTORE DUP11 DUP12 MULMOD MULMOD SWAP1 POP PUSH0 MLOAD PUSH1 0x20 PUSH2 0x1D27 PUSH0 CODECOPY PUSH0 MLOAD SWAP1 PUSH0 MSTORE DUP1 PUSH0 MLOAD PUSH1 0x20 PUSH2 0x1D27 PUSH0 CODECOPY PUSH0 MLOAD SWAP1 PUSH0 MSTORE DUP11 DUP7 MULMOD DUP5 ADDMOD PUSH32 0x2B149D40CEB8AAAE81BE18991BE06AC3B5B4C5E559DBEFA33267E6DC24A138E5 ADDMOD SWAP7 POP PUSH2 0x1133 PUSH0 MLOAD PUSH1 0x20 PUSH2 0x1D27 PUSH0 CODECOPY PUSH0 MLOAD SWAP1 PUSH0 MSTORE DUP1 PUSH0 MLOAD PUSH1 0x20 PUSH2 0x1D27 PUSH0 CODECOPY PUSH0 MLOAD SWAP1 PUSH0 MSTORE DUP13 DUP8 MULMOD DUP5 ADDMOD PUSH32 0x2FCD3AC2A640A154EB23960892A85A68F031CA0C8344B23A577DCF1052B9E775 ADDMOD PUSH2 0x1836 JUMP JUMPDEST SWAP6 POP PUSH2 0x1140 DUP8 DUP8 DUP7 PUSH2 0x1896 JUMP JUMPDEST SWAP1 SWAP8 POP SWAP6 POP DUP5 ISZERO PUSH2 0x1162 JUMPI PUSH2 0x1154 DUP8 PUSH2 0x1836 JUMP JUMPDEST SWAP7 POP PUSH2 0x115F DUP7 PUSH2 0x1836 JUMP JUMPDEST SWAP6 POP JUMPDEST POP POP POP POP POP JUMPDEST SWAP3 SWAP6 SWAP2 SWAP5 POP SWAP3 POP JUMP JUMPDEST PUSH0 PUSH0 PUSH0 PUSH1 0x1 SWAP1 POP PUSH1 0x40 MLOAD PUSH1 0x40 DUP2 ADD PUSH0 PUSH32 0x297CEB82BDFE8DB334F6B543F9559EC25CA0F4D004994AD6DEC0917C63F0D8AA DUP4 MSTORE PUSH32 0x3E50CE2AB1556FFED2B8450FF49763CA548877BAD5F8F56445F0D3BE1B4BAE8 PUSH1 0x20 DUP5 ADD MSTORE DUP7 MLOAD DUP3 MSTORE PUSH1 0x20 DUP8 ADD MLOAD PUSH1 0x20 DUP4 ADD MSTORE PUSH1 0x40 DUP4 PUSH1 0x80 DUP6 PUSH1 0x6 GAS STATICCALL DUP5 AND SWAP4 POP PUSH32 0x13A8982ABB12CD59BC6264241CADE3864EDD5ADBBF598C657610806CEAFF573B DUP3 MSTORE PUSH32 0x193F31FF52E1CDFA10FC7AAAC2F40B1760C7057EDAB4AAB79BCD20D8703B1C86 PUSH1 0x20 DUP4 ADD MSTORE DUP9 CALLDATALOAD SWAP1 POP DUP1 PUSH1 0x40 DUP4 ADD MSTORE PUSH0 MLOAD PUSH1 0x20 PUSH2 0x1D47 PUSH0 CODECOPY PUSH0 MLOAD SWAP1 PUSH0 MSTORE DUP2 LT DUP5 AND SWAP4 POP PUSH1 0x40 DUP3 PUSH1 0x60 DUP5 PUSH1 0x7 GAS STATICCALL DUP5 AND SWAP4 POP PUSH1 0x40 DUP4 PUSH1 0x80 DUP6 PUSH1 0x6 GAS STATICCALL DUP5 AND SWAP4 POP PUSH32 0x8A881FFFAA8323634FC86E3C0DBA693E27FB8A2A819D44670EA721FC61396BF DUP3 MSTORE PUSH32 0x1CAFEA2789EEC4B42AAB039BD039299D25249F07BB5E749C1F76CC180CE0A2E6 PUSH1 0x20 DUP4 ADD MSTORE PUSH1 0x20 DUP10 ADD CALLDATALOAD SWAP1 POP DUP1 PUSH1 0x40 DUP4 ADD MSTORE PUSH0 MLOAD PUSH1 0x20 PUSH2 0x1D47 PUSH0 CODECOPY PUSH0 MLOAD SWAP1 PUSH0 MSTORE DUP2 LT DUP5 AND SWAP4 POP PUSH1 0x40 DUP3 PUSH1 0x60 DUP5 PUSH1 0x7 GAS STATICCALL DUP5 AND SWAP4 POP PUSH1 0x40 DUP4 PUSH1 0x80 DUP6 PUSH1 0x6 GAS STATICCALL DUP5 AND SWAP4 POP PUSH32 0x159B86157F61E0C9360CF00EE256117EA6454973174D5A9204AB87E190A84531 DUP3 MSTORE PUSH32 0x2BF78F17AF3642CC02387E12EB43FB6FE61C4D4FD265EA26E5F4C2C650F2AA22 PUSH1 0x20 DUP4 ADD MSTORE PUSH1 0x40 DUP10 ADD CALLDATALOAD SWAP1 POP DUP1 PUSH1 0x40 DUP4 ADD MSTORE PUSH0 MLOAD PUSH1 0x20 PUSH2 0x1D47 PUSH0 CODECOPY PUSH0 MLOAD SWAP1 PUSH0 MSTORE DUP2 LT DUP5 AND SWAP4 POP PUSH1 0x40 DUP3 PUSH1 0x60 DUP5 PUSH1 0x7 GAS STATICCALL DUP5 AND SWAP4 POP PUSH1 0x40 DUP4 PUSH1 0x80 DUP6 PUSH1 0x6 GAS STATICCALL DUP5 AND SWAP4 POP PUSH32 0x1D93CD620C0F05E1B8AD622666FD6B03A7C61B52CD1D13F522CEA88AA9FCB6E5 DUP3 MSTORE PUSH32 0x2EB3957FA77085BDA6FD17D0C3D64DFEDBB8AA8CC6B569DEFE59C0FA18499E65 PUSH1 0x20 DUP4 ADD MSTORE PUSH1 0x60 DUP10 ADD CALLDATALOAD SWAP1 POP DUP1 PUSH1 0x40 DUP4 ADD MSTORE PUSH0 MLOAD PUSH1 0x20 PUSH2 0x1D47 PUSH0 CODECOPY PUSH0 MLOAD SWAP1 PUSH0 MSTORE DUP2 LT DUP5 AND SWAP4 POP PUSH1 0x40 DUP3 PUSH1 0x60 DUP5 PUSH1 0x7 GAS STATICCALL DUP5 AND SWAP4 POP PUSH1 0x40 DUP4 PUSH1 0x80 DUP6 PUSH1 0x6 GAS STATICCALL DUP5 AND SWAP4 POP PUSH32 0x29A1FBBE6FCDD3163626722D04013639284B256888B91AB984D8424EEBFFCCF5 DUP3 MSTORE PUSH32 0x3982A556954F90FA1FA29C443AAB9C371392D8606DC8E426EF74846F783BC0D PUSH1 0x20 DUP4 ADD MSTORE PUSH1 0x80 DUP10 ADD CALLDATALOAD SWAP1 POP DUP1 PUSH1 0x40 DUP4 ADD MSTORE PUSH0 MLOAD PUSH1 0x20 PUSH2 0x1D47 PUSH0 CODECOPY PUSH0 MLOAD SWAP1 PUSH0 MSTORE DUP2 LT DUP5 AND SWAP4 POP PUSH1 0x40 DUP3 PUSH1 0x60 DUP5 PUSH1 0x7 GAS STATICCALL DUP5 AND SWAP4 POP PUSH1 0x40 DUP4 PUSH1 0x80 DUP6 PUSH1 0x6 GAS STATICCALL DUP5 AND SWAP4 POP PUSH32 0x24CF8A1646E52613BC8B5823DF74F95F62563836D673500B2675A9BC101D645C DUP3 MSTORE PUSH32 0x281E4773EF450E3E7FC78B811EF425377757530D8BCAC1288297B29E994BD0E8 PUSH1 0x20 DUP4 ADD MSTORE PUSH1 0xA0 DUP10 ADD CALLDATALOAD SWAP1 POP DUP1 PUSH1 0x40 DUP4 ADD MSTORE PUSH0 MLOAD PUSH1 0x20 PUSH2 0x1D47 PUSH0 CODECOPY PUSH0 MLOAD SWAP1 PUSH0 MSTORE DUP2 LT DUP5 AND SWAP4 POP PUSH1 0x40 DUP3 PUSH1 0x60 DUP5 PUSH1 0x7 GAS STATICCALL DUP5 AND SWAP4 POP PUSH1 0x40 DUP4 PUSH1 0x80 DUP6 PUSH1 0x6 GAS STATICCALL DUP5 AND SWAP4 POP PUSH32 0xBD46762BE872B588AE6273CCE667445800E9B695E2AC2773743C4E5C5F9E480 DUP3 MSTORE PUSH32 0x25FB52129E50BB23EACCBFC6B94134FB7F49AE274F7B2610E38CEFAD1DB1A269 PUSH1 0x20 DUP4 ADD MSTORE PUSH1 0xC0 DUP10 ADD CALLDATALOAD SWAP1 POP DUP1 PUSH1 0x40 DUP4 ADD MSTORE PUSH0 MLOAD PUSH1 0x20 PUSH2 0x1D47 PUSH0 CODECOPY PUSH0 MLOAD SWAP1 PUSH0 MSTORE DUP2 LT DUP5 AND SWAP4 POP PUSH1 0x40 DUP3 PUSH1 0x60 DUP5 PUSH1 0x7 GAS STATICCALL DUP5 AND SWAP4 POP PUSH1 0x40 DUP4 PUSH1 0x80 DUP6 PUSH1 0x6 GAS STATICCALL DUP5 AND SWAP4 POP PUSH32 0x2A29C157CB2C1DD9E42D82AE6A2BE99BAA7853AB63B5816743BCF2173B50698B DUP3 MSTORE PUSH31 0xCEEB858088DAA1CD5866686880E3FC9B4023B51E282F991D9544422A9FA00D PUSH1 0x20 DUP4 ADD MSTORE PUSH1 0xE0 DUP10 ADD CALLDATALOAD SWAP1 POP DUP1 PUSH1 0x40 DUP4 ADD MSTORE PUSH0 MLOAD PUSH1 0x20 PUSH2 0x1D47 PUSH0 CODECOPY PUSH0 MLOAD SWAP1 PUSH0 MSTORE DUP2 LT DUP5 AND SWAP4 POP PUSH1 0x40 DUP3 PUSH1 0x60 DUP5 PUSH1 0x7 GAS STATICCALL DUP5 AND SWAP4 POP PUSH1 0x40 DUP4 PUSH1 0x80 DUP6 PUSH1 0x6 GAS STATICCALL DUP5 AND SWAP4 POP PUSH32 0x2E46DEC21F6FBF78C35C68C620E7A8F89A9121136E93B2C71C3B534585C1E90C DUP3 MSTORE PUSH32 0x1383DAE2A97927D456A1A86B962F707CC8E5B7B46086E76141EB3D692A79F969 PUSH1 0x20 DUP4 ADD MSTORE PUSH2 0x100 DUP10 ADD CALLDATALOAD SWAP1 POP DUP1 PUSH1 0x40 DUP4 ADD MSTORE PUSH0 MLOAD PUSH1 0x20 PUSH2 0x1D47 PUSH0 CODECOPY PUSH0 MLOAD SWAP1 PUSH0 MSTORE DUP2 LT DUP5 AND SWAP4 POP PUSH1 0x40 DUP3 PUSH1 0x60 DUP5 PUSH1 0x7 GAS STATICCALL DUP5 AND SWAP4 POP PUSH1 0x40 DUP4 PUSH1 0x80 DUP6 PUSH1 0x6 GAS STATICCALL DUP5 AND SWAP4 POP PUSH32 0x2F71B71DBF209F5470A44BFC507EDACDFFCF87B36DD638AFCA87002118C88762 DUP3 MSTORE PUSH32 0xF6FCA30737C4BB639BD8830DDEFC8357C187597B3D96DE8C7634C11217A0655 PUSH1 0x20 DUP4 ADD MSTORE PUSH2 0x120 DUP10 ADD CALLDATALOAD SWAP1 POP DUP1 PUSH1 0x40 DUP4 ADD MSTORE PUSH0 MLOAD PUSH1 0x20 PUSH2 0x1D47 PUSH0 CODECOPY PUSH0 MLOAD SWAP1 PUSH0 MSTORE DUP2 LT DUP5 AND SWAP4 POP PUSH1 0x40 DUP3 PUSH1 0x60 DUP5 PUSH1 0x7 GAS STATICCALL DUP5 AND SWAP4 POP PUSH1 0x40 DUP4 PUSH1 0x80 DUP6 PUSH1 0x6 GAS STATICCALL PUSH32 0xFB126A6FBA958D6B39180B4D8EAE22408207D5967042A99909060BA975EDD01 DUP4 MSTORE PUSH32 0x7850EDFDDB48B7A9FF6C5DFB3AD8C95C49E160F6B265D985BB8E23D5DB57E2A PUSH1 0x20 DUP5 ADD MSTORE DUP9 MLOAD PUSH1 0x40 DUP1 DUP6 ADD DUP3 SWAP1 MSTORE PUSH0 MLOAD PUSH1 0x20 PUSH2 0x1D47 PUSH0 CODECOPY PUSH0 MLOAD SWAP1 PUSH0 MSTORE SWAP1 SWAP2 LT SWAP2 SWAP1 SWAP6 AND AND SWAP4 SWAP1 POP DUP2 PUSH1 0x60 DUP2 PUSH1 0x7 GAS STATICCALL DUP4 AND SWAP3 POP POP PUSH1 0x40 DUP2 PUSH1 0x80 DUP4 PUSH1 0x6 GAS STATICCALL DUP2 MLOAD PUSH1 0x20 SWAP1 SWAP3 ADD MLOAD SWAP2 SWAP5 POP SWAP1 SWAP3 POP AND DUP1 PUSH2 0x17CB JUMPI PUSH1 0x40 MLOAD PUSH4 0xA54F8E27 PUSH1 0xE0 SHL DUP2 MSTORE PUSH1 0x4 ADD PUSH1 0x40 MLOAD DUP1 SWAP2 SUB SWAP1 REVERT JUMPDEST POP SWAP4 POP SWAP4 SWAP2 POP POP JUMP JUMPDEST PUSH0 PUSH2 0x17FF DUP3 PUSH32 0xC19139CB84C680A6E14116DA060561765E05AA45A1C72A34F082305B61F3F52 PUSH2 0x19C9 JUMP JUMPDEST SWAP1 POP DUP2 PUSH0 MLOAD PUSH1 0x20 PUSH2 0x1D27 PUSH0 CODECOPY PUSH0 MLOAD SWAP1 PUSH0 MSTORE DUP3 DUP4 MULMOD EQ PUSH2 0x1831 JUMPI PUSH1 0x40 MLOAD PUSH4 0x1FF3747D PUSH1 0xE2 SHL DUP2 MSTORE PUSH1 0x4 ADD PUSH1 0x40 MLOAD DUP1 SWAP2 SUB SWAP1 REVERT JUMPDEST SWAP2 SWAP1 POP JUMP JUMPDEST PUSH0 MLOAD PUSH1 0x20 PUSH2 0x1D27 PUSH0 CODECOPY PUSH0 MLOAD SWAP1 PUSH0 MSTORE SWAP1 DUP2 SWAP1 MOD DUP2 SUB MOD SWAP1 JUMP JUMPDEST PUSH0 PUSH0 PUSH2 0x187A DUP4 PUSH32 0xC19139CB84C680A6E14116DA060561765E05AA45A1C72A34F082305B61F3F52 PUSH2 0x19C9 JUMP JUMPDEST SWAP1 POP DUP3 PUSH0 MLOAD PUSH1 0x20 PUSH2 0x1D27 PUSH0 CODECOPY PUSH0 MLOAD SWAP1 PUSH0 MSTORE DUP3 DUP4 MULMOD EQ SWAP4 SWAP3 POP POP POP JUMP JUMPDEST PUSH0 DUP1 DUP1 PUSH2 0x18C5 PUSH0 MLOAD PUSH1 0x20 PUSH2 0x1D27 PUSH0 CODECOPY PUSH0 MLOAD SWAP1 PUSH0 MSTORE DUP1 DUP8 DUP9 MULMOD PUSH0 MLOAD PUSH1 0x20 PUSH2 0x1D27 PUSH0 CODECOPY PUSH0 MLOAD SWAP1 PUSH0 MSTORE DUP10 DUP11 MULMOD ADDMOD PUSH2 0x17D4 JUMP JUMPDEST SWAP1 POP DUP4 ISZERO PUSH2 0x18D9 JUMPI PUSH2 0x18D6 DUP2 PUSH2 0x1836 JUMP JUMPDEST SWAP1 POP JUMPDEST PUSH2 0x1922 PUSH0 MLOAD PUSH1 0x20 PUSH2 0x1D27 PUSH0 CODECOPY PUSH0 MLOAD SWAP1 PUSH0 MSTORE PUSH32 0x183227397098D014DC2822DB40C0AC2ECBC0B548B438E5469E10460B6C3E7EA4 PUSH0 MLOAD PUSH1 0x20 PUSH2 0x1D27 PUSH0 CODECOPY PUSH0 MLOAD SWAP1 PUSH0 MSTORE DUP5 DUP11 ADDMOD MULMOD PUSH2 0x17D4 JUMP JUMPDEST SWAP3 POP PUSH0 MLOAD PUSH1 0x20 PUSH2 0x1D27 PUSH0 CODECOPY PUSH0 MLOAD SWAP1 PUSH0 MSTORE PUSH2 0x194C PUSH0 MLOAD PUSH1 0x20 PUSH2 0x1D27 PUSH0 CODECOPY PUSH0 MLOAD SWAP1 PUSH0 MSTORE PUSH1 0x2 DUP7 MULMOD PUSH2 0x1A2C JUMP JUMPDEST DUP7 MULMOD SWAP2 POP PUSH0 MLOAD PUSH1 0x20 PUSH2 0x1D27 PUSH0 CODECOPY PUSH0 MLOAD SWAP1 PUSH0 MSTORE PUSH2 0x1977 PUSH0 MLOAD PUSH1 0x20 PUSH2 0x1D27 PUSH0 CODECOPY PUSH0 MLOAD SWAP1 PUSH0 MSTORE DUP5 DUP6 MULMOD PUSH2 0x1836 JUMP JUMPDEST PUSH0 MLOAD PUSH1 0x20 PUSH2 0x1D27 PUSH0 CODECOPY PUSH0 MLOAD SWAP1 PUSH0 MSTORE DUP6 DUP7 MULMOD ADDMOD DUP7 EQ ISZERO DUP1 PUSH2 0x19AB JUMPI POP PUSH0 MLOAD PUSH1 0x20 PUSH2 0x1D27 PUSH0 CODECOPY PUSH0 MLOAD SWAP1 PUSH0 MSTORE DUP1 DUP4 DUP6 MULMOD PUSH1 0x2 MULMOD DUP6 EQ ISZERO JUMPDEST ISZERO PUSH2 0x17CB JUMPI PUSH1 0x40 MLOAD PUSH4 0x1FF3747D PUSH1 0xE2 SHL DUP2 MSTORE PUSH1 0x4 ADD PUSH1 0x40 MLOAD DUP1 SWAP2 SUB SWAP1 REVERT JUMPDEST PUSH0 PUSH0 PUSH1 0x40 MLOAD PUSH1 0x20 DUP2 MSTORE PUSH1 0x20 DUP1 DUP3 ADD MSTORE PUSH1 0x20 PUSH1 0x40 DUP3 ADD MSTORE DUP5 PUSH1 0x60 DUP3 ADD MSTORE DUP4 PUSH1 0x80 DUP3 ADD MSTORE PUSH0 MLOAD PUSH1 0x20 PUSH2 0x1D27 PUSH0 CODECOPY PUSH0 MLOAD SWAP1 PUSH0 MSTORE PUSH1 0xA0 DUP3 ADD MSTORE PUSH1 0x20 DUP2 PUSH1 0xC0 DUP4 PUSH1 0x5 GAS STATICCALL SWAP1 MLOAD SWAP3 POP SWAP1 POP DUP1 PUSH2 0xC1D JUMPI PUSH1 0x40 MLOAD PUSH4 0x1FF3747D PUSH1 0xE2 SHL DUP2 MSTORE PUSH1 0x4 ADD PUSH1 0x40 MLOAD DUP1 SWAP2 SUB SWAP1 REVERT JUMPDEST PUSH0 PUSH2 0x1A57 DUP3 PUSH32 0x30644E72E131A029B85045B68181585D97816A916871CA8D3C208C16D87CFD45 PUSH2 0x19C9 JUMP JUMPDEST SWAP1 POP PUSH0 MLOAD PUSH1 0x20 PUSH2 0x1D27 PUSH0 CODECOPY PUSH0 MLOAD SWAP1 PUSH0 MSTORE DUP2 DUP4 MULMOD PUSH1 0x1 EQ PUSH2 0x1831 JUMPI PUSH1 0x40 MLOAD PUSH4 0x1FF3747D PUSH1 0xE2 SHL DUP2 MSTORE PUSH1 0x4 ADD PUSH1 0x40 MLOAD DUP1 SWAP2 SUB SWAP1 REVERT JUMPDEST PUSH1 0x40 MLOAD DUP1 PUSH1 0x80 ADD PUSH1 0x40 MSTORE DUP1 PUSH1 0x4 SWAP1 PUSH1 0x20 DUP3 MUL DUP1 CALLDATASIZE DUP4 CALLDATACOPY POP SWAP2 SWAP3 SWAP2 POP POP JUMP JUMPDEST PUSH1 0x40 MLOAD DUP1 PUSH1 0x20 ADD PUSH1 0x40 MSTORE DUP1 PUSH1 0x1 SWAP1 PUSH1 0x20 DUP3 MUL DUP1 CALLDATASIZE DUP4 CALLDATACOPY POP SWAP2 SWAP3 SWAP2 POP POP JUMP JUMPDEST PUSH1 0x40 MLOAD DUP1 PUSH1 0x40 ADD PUSH1 0x40 MSTORE DUP1 PUSH1 0x2 SWAP1 PUSH1 0x20 DUP3 MUL DUP1 CALLDATASIZE DUP4 CALLDATACOPY POP SWAP2 SWAP3 SWAP2 POP POP JUMP JUMPDEST PUSH1 0x40 MLOAD DUP1 PUSH2 0x300 ADD PUSH1 0x40 MSTORE DUP1 PUSH1 0x18 SWAP1 PUSH1 0x20 DUP3 MUL DUP1 CALLDATASIZE DUP4 CALLDATACOPY POP SWAP2 SWAP3 SWAP2 POP POP JUMP JUMPDEST DUP1 PUSH2 0x100 DUP2 ADD DUP4 LT ISZERO PUSH2 0xC1F JUMPI PUSH0 PUSH0 REVERT JUMPDEST DUP1 PUSH1 0x40 DUP2 ADD DUP4 LT ISZERO PUSH2 0xC1F JUMPI PUSH0 PUSH0 REVERT JUMPDEST PUSH0 PUSH0 PUSH0 PUSH2 0x180 DUP5 DUP7 SUB SLT ISZERO PUSH2 0x1B37 JUMPI PUSH0 PUSH0 REVERT JUMPDEST PUSH2 0x1B41 DUP6 DUP6 PUSH2 0x1B03 JUMP JUMPDEST SWAP3 POP PUSH2 0x1B51 DUP6 PUSH2 0x100 DUP7 ADD PUSH2 0x1B14 JUMP JUMPDEST SWAP2 POP PUSH2 0x1B61 DUP6 PUSH2 0x140 DUP7 ADD PUSH2 0x1B14 JUMP JUMPDEST SWAP1 POP SWAP3 POP SWAP3 POP SWAP3 JUMP JUMPDEST PUSH1 0xC0 DUP2 ADD DUP2 DUP6 PUSH0 JUMPDEST PUSH1 0x4 DUP2 LT ISZERO PUSH2 0x1B91 JUMPI DUP2 MLOAD DUP4 MSTORE PUSH1 0x20 SWAP3 DUP4 ADD SWAP3 SWAP1 SWAP2 ADD SWAP1 PUSH1 0x1 ADD PUSH2 0x1B72 JUMP JUMPDEST POP POP POP PUSH1 0x80 DUP3 ADD DUP5 PUSH0 JUMPDEST PUSH1 0x1 DUP2 LT ISZERO PUSH2 0x1BBA JUMPI DUP2 MLOAD DUP4 MSTORE PUSH1 0x20 SWAP3 DUP4 ADD SWAP3 SWAP1 SWAP2 ADD SWAP1 PUSH1 0x1 ADD PUSH2 0x1B9B JUMP JUMPDEST POP POP POP DUP3 PUSH1 0xA0 DUP4 ADD MSTORE SWAP5 SWAP4 POP POP POP POP JUMP JUMPDEST DUP1 PUSH2 0x140 DUP2 ADD DUP4 LT ISZERO PUSH2 0xC1F JUMPI PUSH0 PUSH0 REVERT JUMPDEST PUSH0 PUSH0 PUSH0 PUSH0 PUSH2 0x200 DUP6 DUP8 SUB SLT ISZERO PUSH2 0x1BF0 JUMPI PUSH0 PUSH0 REVERT JUMPDEST PUSH1 0x80 DUP6 ADD DUP7 DUP2 GT ISZERO PUSH2 0x1C00 JUMPI PUSH0 PUSH0 REVERT JUMPDEST DUP6 SWAP5 POP PUSH1 0xA0 DUP7 ADD DUP8 DUP2 GT ISZERO PUSH2 0x1C13 JUMPI PUSH0 PUSH0 REVERT JUMPDEST SWAP1 SWAP4 POP CALLDATALOAD SWAP2 POP PUSH2 0x1C26 DUP7 PUSH1 0xC0 DUP8 ADD PUSH2 0x1BCB JUMP JUMPDEST SWAP1 POP SWAP3 SWAP6 SWAP2 SWAP5 POP SWAP3 POP JUMP JUMPDEST PUSH0 PUSH0 PUSH0 PUSH0 PUSH2 0x2C0 DUP6 DUP8 SUB SLT ISZERO PUSH2 0x1C45 JUMPI PUSH0 PUSH0 REVERT JUMPDEST PUSH2 0x1C4F DUP7 DUP7 PUSH2 0x1B03 JUMP JUMPDEST SWAP4 POP PUSH2 0x1C5F DUP7 PUSH2 0x100 DUP8 ADD PUSH2 0x1B14 JUMP JUMPDEST SWAP3 POP PUSH2 0x1C6F DUP7 PUSH2 0x140 DUP8 ADD PUSH2 0x1B14 JUMP JUMPDEST SWAP2 POP PUSH2 0x1C26 DUP7 PUSH2 0x180 DUP8 ADD PUSH2 0x1BCB JUMP JUMPDEST PUSH4 0x4E487B71 PUSH1 0xE0 SHL PUSH0 MSTORE PUSH1 0x32 PUSH1 0x4 MSTORE PUSH1 0x24 PUSH0 REVERT JUMPDEST DUP4 DUP2 MSTORE DUP3 PUSH1 0x20 DUP3 ADD MSTORE PUSH0 PUSH1 0x40 DUP3 ADD DUP4 MLOAD PUSH1 0x20 DUP6 ADD PUSH0 JUMPDEST DUP3 DUP2 LT ISZERO PUSH2 0x1CC7 JUMPI DUP2 MLOAD DUP5 MSTORE PUSH1 0x20 SWAP4 DUP5 ADD SWAP4 SWAP1 SWAP2 ADD SWAP1 PUSH1 0x1 ADD PUSH2 0x1CA9 JUMP JUMPDEST POP SWAP2 SWAP8 SWAP7 POP POP POP POP POP POP POP JUMP JUMPDEST PUSH4 0x4E487B71 PUSH1 0xE0 SHL PUSH0 MSTORE PUSH1 0x12 PUSH1 0x4 MSTORE PUSH1 0x24 PUSH0 REVERT JUMPDEST PUSH0 DUP3 PUSH2 0x1D02 JUMPI PUSH4 0x4E487B71 PUSH1 0xE0 SHL PUSH0 MSTORE PUSH1 0x12 PUSH1 0x4 MSTORE PUSH1 0x24 PUSH0 REVERT JUMPDEST POP MOD SWAP1 JUMP JUMPDEST DUP2 DUP2 SUB DUP2 DUP2 GT ISZERO PUSH2 0xC1F JUMPI PUSH4 0x4E487B71 PUSH1 0xE0 SHL PUSH0 MSTORE PUSH1 0x11 PUSH1 0x4 MSTORE PUSH1 0x24 PUSH0 REVERT INVALID ADDRESS PUSH5 0x4E72E131A0 0x29 0xB8 POP GASLIMIT 0xB6 DUP2 DUP2 PC TSTORE SWAP8 DUP2 PUSH11 0x916871CA8D3C208C16D87C REVERT SELFBALANCE ADDRESS PUSH5 0x4E72E131A0 0x29 0xB8 POP GASLIMIT 0xB6 DUP2 DUP2 PC TSTORE 0x28 CALLER 0xE8 BASEFEE PUSH26 0xB9709143E1F593F0000001A2646970667358221220D3471F14EA 0xE3 SWAP15 PUSH31 0xD68815750CFB8F282DF484E4C928ECB4F5F938406E1676FF64736F6C634300 ADDMOD SHR STOP CALLER "},"methodIdentifiers":{"compressProof(uint256[8],uint256[2],uint256[2])":"b1c3a00e","verifyCompressedProof(uint256[4],uint256[1],uint256,uint256[10])":"dc37819a","verifyProof(uint256[8],uint256[2],uint256[2],uint256[10])":"df078bef"}}}}}