{"src/verifiers/ResultsVerifierBaseGroth16.sol":{"ResultsVerifierBaseGroth16":{"abi":[{"inputs":[],"name":"CommitmentInvalid","type":"error"},{"inputs":[],"name":"ProofInvalid","type":"error"},{"inputs":[],"name":"PublicInputNotInField","type":"error"},{"inputs":[{"internalType":"uint256[8]","name":"proof","type":"uint256[8]"},{"internalType":"uint256[2]","name":"commitments","type":"uint256[2]"},{"internalType":"uint256[2]","name":"commitmentPok","type":"uint256[2]"}],"name":"compressProof","outputs":[{"internalType":"uint256[4]","name":"compressed","type":"uint256[4]"},{"internalType":"uint256[1]","name":"compressedCommitments","type":"uint256[1]"},{"internalType":"uint256","name":"compressedCommitmentPok","type":"uint256"}],"stateMutability":"view","type":"function"},{"inputs":[{"internalType":"uint256[4]","name":"compressedProof","type":"uint256[4]"},{"internalType":"uint256[1]","name":"compressedCommitments","type":"uint256[1]"},{"internalType":"uint256","name":"compressedCommitmentPok","type":"uint256"},{"internalType":"uint256[9]","name":"input","type":"uint256[9]"}],"name":"verifyCompressedProof","outputs":[],"stateMutability":"view","type":"function"},{"inputs":[{"internalType":"uint256[8]","name":"proof","type":"uint256[8]"},{"internalType":"uint256[2]","name":"commitments","type":"uint256[2]"},{"internalType":"uint256[2]","name":"commitmentPok","type":"uint256[2]"},{"internalType":"uint256[9]","name":"input","type":"uint256[9]"}],"name":"verifyProof","outputs":[],"stateMutability":"view","type":"function"}],"evm":{"bytecode":{"linkReferences":{},"object":"6080604052348015600e575f5ffd5b50611ca58061001c5f395ff3fe608060405234801561000f575f5ffd5b506004361061003f575f3560e01c80635d26278e1461004357806360e5834614610058578063b1c3a00e1461006b575b5f5ffd5b610056610051366004611a1d565b610096565b005b610056610066366004611a93565b6105ca565b61007e610079366004611ae1565b610a3f565b60405161008d93929190611b27565b60405180910390f35b61009e611993565b6100a66119b1565b6100ae6119cf565b6100be865f5b6020020135610ac7565b602084015282525f806100d087610ac7565b85516020808801516040519496509294506060935f516020611c505f395f51905f529361010293929091869101611b9c565b604051602081830303815290604052805190602001205f1c6101249190611bf1565b865284518452602085810151858201527f211ff8deef47f7b18d590dd969d97f709265380a5136b34c64786345315dad396040808701919091527f01d7cd45b719f87eac10057f7379e440c0922a3412dcd32b0436473b89d7427b60608701527f255c8bc9e8345c3f8bcd6147c1388bb6501356fa2fe469a5007893932eab8e2f60808701527f22f94df65e194c5d6cf757479bf9687ac7fdb14032a33698b560c0f46069c54260a087015260c0860185905260e086018490527f1528fff24569cfc678cdd789ffd3343abc0851d686eb1cabcf3ba8cf49302d8e6101008701527f1b2b35e890c913bebb27da895d90dbaafa7616b5760ea1ce806986ea63100a9b6101208701527f162884dfbd7bde08ec1cf8d7d4e0da738cd41f9f6a620bb2bb3ada5df8afd9476101408701527f250522662efe74de1d604758bb845b99aa66ac6c9994d1504fcb9395948be240610160870152515f91816101808860085afa9051169050806102a9576040516351d49ff760e11b815260040160405180910390fd5b505050505f5f6102c4895f600481106100b4576100b4611b88565b90925090505f8080806102df60408e013560208f0135610b66565b929650909450925090505f806102f68f60036100b4565b915091505f5f6103078e8e8e610d3a565b8b8d5260208d018b905260408d0189905260608d018a905260808d0187905260a08d0188905260c08d0186905260e08d018590527f0eecb24262085e99b65419c1e4c888485cdb32473ee326239801cf4a8d1cf82c6101008e01527f2fa7d3d83dee8df972c3c21c69868c17a2cd314203c3db109385dd73693beab26101208e01527f1a4147ac39bd611466970f800e77797debe0990351ea3395a6d5eb28c30c912b6101408e01527f04982e9840950baf216ba05708d714af87f4aa9a5bf33126f7ba3570cab2222d6101608e01527f12a5c897f9f5dee909cde749656755075a9880041a10b8af5161697c7cf598076101808e01527f23e939072bce0953d0a50a897be1e341c9fc11cee4435aaafe5ad2571649e4446101a08e01527f0550475659d3772c0fd0b85a86c87a539f4c78a66bc3fd827be8f19078be2ea86101c08e01527f0b4a92742eda6296ba6cda1a3529374e1f41e358870521d88102c5b576d98b0c6101e08e01527f01bbc7c5f7c9c54bdefcefef695e2a8b4cb5bb44b5816421bb9947147b02f2ae6102008e01527f0d56275f7d98b9bb74077a740411de015a2d25da12818a30a8458860ec4c76c66102208e01526102408d018290526102608d018190527f050524ce5edabd2591ef58d16912159eab09717a4250ff2635e111165bd987da6102808e01527f186708bb623130cc1a0c236783120e1eb0d880ede43eaf0a60536af1f88ed7c66102a08e01527f2d31be59daae8edfb1f6eda8d869cfb619b6dfd22c5b0fcc238d955627bdc1016102c08e01527f11a1cfe83c57807915a9a0d0096f70404c9570295dbbf1aaef8a395b761ae53b6102e08e015290925090505f61057b611993565b6020816103008f60085afa915081158061059757508051600114155b156105b557604051631ff3747d60e21b815260040160405180910390fd5b50505050505050505050505050505050505050565b6105d2611993565b6040516060905f516020611c505f395f51905f52906105fd908735906020808a013591869101611b9c565b604051602081830303815290604052805190602001205f1c61061f9190611bf1565b8252604080515f918782377f211ff8deef47f7b18d590dd969d97f709265380a5136b34c64786345315dad3960408201527f01d7cd45b719f87eac10057f7379e440c0922a3412dcd32b0436473b89d7427b60608201527f255c8bc9e8345c3f8bcd6147c1388bb6501356fa2fe469a5007893932eab8e2f60808201527f22f94df65e194c5d6cf757479bf9687ac7fdb14032a33698b560c0f46069c54260a082015260408660c08301377f1528fff24569cfc678cdd789ffd3343abc0851d686eb1cabcf3ba8cf49302d8e6101008201527f1b2b35e890c913bebb27da895d90dbaafa7616b5760ea1ce806986ea63100a9b6101208201527f162884dfbd7bde08ec1cf8d7d4e0da738cd41f9f6a620bb2bb3ada5df8afd9476101408201527f250522662efe74de1d604758bb845b99aa66ac6c9994d1504fcb9395948be2406101608201526020816101808360085afa905116905080610794576040516351d49ff760e11b815260040160405180910390fd5b5f5f6107c986868a60028060200260405190810160405280929190826002602002808284375f92019190915250610d3a915050565b915091506040516101008a82377f0eecb24262085e99b65419c1e4c888485cdb32473ee326239801cf4a8d1cf82c6101008201527f2fa7d3d83dee8df972c3c21c69868c17a2cd314203c3db109385dd73693beab26101208201527f1a4147ac39bd611466970f800e77797debe0990351ea3395a6d5eb28c30c912b6101408201527f04982e9840950baf216ba05708d714af87f4aa9a5bf33126f7ba3570cab2222d6101608201527f12a5c897f9f5dee909cde749656755075a9880041a10b8af5161697c7cf598076101808201527f23e939072bce0953d0a50a897be1e341c9fc11cee4435aaafe5ad2571649e4446101a08201527f0550475659d3772c0fd0b85a86c87a539f4c78a66bc3fd827be8f19078be2ea86101c08201527f0b4a92742eda6296ba6cda1a3529374e1f41e358870521d88102c5b576d98b0c6101e08201527f01bbc7c5f7c9c54bdefcefef695e2a8b4cb5bb44b5816421bb9947147b02f2ae6102008201527f0d56275f7d98b9bb74077a740411de015a2d25da12818a30a8458860ec4c76c661022082015282610240820152816102608201527f050524ce5edabd2591ef58d16912159eab09717a4250ff2635e111165bd987da6102808201527f186708bb623130cc1a0c236783120e1eb0d880ede43eaf0a60536af1f88ed7c66102a08201527f2d31be59daae8edfb1f6eda8d869cfb619b6dfd22c5b0fcc238d955627bdc1016102c08201527f11a1cfe83c57807915a9a0d0096f70404c9570295dbbf1aaef8a395b761ae53b6102e08201526020816103008360085afa905116925082610a3457604051631ff3747d60e21b815260040160405180910390fd5b505050505050505050565b610a476119ee565b610a4f611993565b5f610a6386358760015b6020020135611317565b8352610a816060870135604088013560a089013560808a0135611404565b60208501526040840152610a9b60c0870135876007610a59565b6060840152610aad8535866001610a59565b8252610abc8435856001610a59565b905093509350939050565b5f5f825f03610ada57505f928392509050565b600183811c9250808416145f516020611c305f395f51905f528310610b1257604051631ff3747d60e21b815260040160405180910390fd5b610b4c5f516020611c305f395f51905f5260035f516020611c305f395f51905f52865f516020611c305f395f51905f5288890909086116dd565b91508015610b6057610b5d8261173f565b91505b50915091565b5f80808085158015610b76575084155b15610b8b57505f925082915081905080610d31565b600286811c945085935060018088161490808816145f516020611c305f395f51905f5286101580610bc957505f516020611c305f395f51905f528510155b15610be757604051631ff3747d60e21b815260040160405180910390fd5b5f5f516020611c305f395f51905f52610c0e60035f516020611c305f395f51905f52611c10565b5f516020611c305f395f51905f52888a090990505f5f516020611c305f395f51905f52885f516020611c305f395f51905f528a8b090990505f5f516020611c305f395f51905f52885f516020611c305f395f51905f528a8b090990505f516020611c305f395f51905f52805f516020611c305f395f51905f528a860984087f2b149d40ceb8aaae81be18991be06ac3b5b4c5e559dbefa33267e6dc24a138e5089650610cfc5f516020611c305f395f51905f52805f516020611c305f395f51905f528c870984087f2fcd3ac2a640a154eb23960892a85a68f031ca0c8344b23a577dcf1052b9e7750861173f565b9550610d09878786611757565b90975095508415610d2b57610d1d8761173f565b9650610d288661173f565b95505b50505050505b92959194509250565b5f5f5f60019050604051604081015f7f2ab09cb8fcafaef59e50b0487088a446dfda57456d3b134a3bb1df23ba44a12783527f268ca9d3a982ad31d5268ff85c2389c6e2f54be4e5e9b00f3a50d26c5e053d066020840152865182526020870151602083015260408360808560065afa841693507f0f726db784c78e7eda4ff06971518e8904c5340da6c9c77d160444396b1dd6e982527f127826b1655b7244f1d557c7c730bd35209f06199e7e4d2e06d201e881c23e856020830152883590508060408301525f516020611c505f395f51905f5281108416935060408260608460075afa8416935060408360808560065afa841693507f04b17dd1b884ae058be704ab843ba5db17a0c5fded35662968e873418aa7590182527f21d1e7b9d70f092be75cf4a6a27e419752068a521651b8d5878c3966b3ffdfe36020830152602089013590508060408301525f516020611c505f395f51905f5281108416935060408260608460075afa8416935060408360808560065afa841693507f0eeba1f9b315fc53ef73951702fd8a9328dbfe23439615bdee5e4c2d3afd5c8682527f248a679c8ec7dca891caaa80b5f41d4fb870cda19d966d834460379a089d89226020830152604089013590508060408301525f516020611c505f395f51905f5281108416935060408260608460075afa8416935060408360808560065afa841693507f1a1de355c62aae496d3fe952eae71d7128cd7ed9c05a0ca506be8aea4897363c82527f29bffdc8e90bdb5e9de4d51797adeddb5af00efadcc972d346321357221435646020830152606089013590508060408301525f516020611c505f395f51905f5281108416935060408260608460075afa8416935060408360808560065afa841693507f2db53fce60a452d7b4f81911b7020fa98976093efd43bfb632ef4bb00a21f86f82527f1d714d0dc7aaf7d4255e8d8416c8e27408cd59ebf86da5e5bc8d5d9a175d8e1f6020830152608089013590508060408301525f516020611c505f395f51905f5281108416935060408260608460075afa8416935060408360808560065afa841693507f127bcd3af7cc5896cd037055304b7bf57586e84ecc5980ae7d08cc6c475f0efa82527f26658108abe86c769c96f893ef434b35d46135414d716f6dee6cdeae5af23f93602083015260a089013590508060408301525f516020611c505f395f51905f5281108416935060408260608460075afa8416935060408360808560065afa841693507f0810138e75477bc1293dc9639554b49468043be373b9e55cbcc772794ffbd4cb82527f2dc12f0cdf894a5d58db4759ba23d19c93215813ff66e4f138c138403c0c376c602083015260c089013590508060408301525f516020611c505f395f51905f5281108416935060408260608460075afa8416935060408360808560065afa841693507f160535c9c9e1e940b0cebf35b59a26d3e050d092ba97b42badec196d88ba348882527f165d0287373b95a6480f7892bc8bcc085e336bd8af7475c9fdbc6ab535a83f73602083015260e089013590508060408301525f516020611c505f395f51905f5281108416935060408260608460075afa8416935060408360808560065afa841693507f04892e6e3f399ea317ab6bdf0de51e5f40e5de077448a1724b35ca570f00fd5882527f2bd3016fdfdca7a7be9035d82161411655ab2fe991ede89fdf5813635fe791bf602083015261010089013590508060408301525f516020611c505f395f51905f5281108416935060408260608460075afa8416935060408360808560065afa7f1b2351311fc2549a893f2c2fa3d5b49d8b4b12a93f798e9e59751f9450a3cb5883527f1f7b68348a2c73f6570b4fb594b75e42fd29fa4b723e93b2d166cbaf3f832d936020840152885160408085018290525f516020611c505f395f51905f5290911091909516169390508160608160075afa831692505060408160808360065afa8151602090920151919450909250168061130e5760405163a54f8e2760e01b815260040160405180910390fd5b50935093915050565b5f5f516020611c305f395f51905f528310158061134157505f516020611c305f395f51905f528210155b1561135f57604051631ff3747d60e21b815260040160405180910390fd5b8215801561136b575081155b1561137757505f6113fe565b5f6113b25f516020611c305f395f51905f5260035f516020611c305f395f51905f52875f516020611c305f395f51905f52898a0909086116dd565b90508083036113c7575050600182901b6113fe565b6113d08161173f565b83036113e3575050600182811b176113fe565b604051631ff3747d60e21b815260040160405180910390fd5b505b92915050565b5f5f5f516020611c305f395f51905f528610158061142f57505f516020611c305f395f51905f528510155b8061144757505f516020611c305f395f51905f528410155b8061145f57505f516020611c305f395f51905f528310155b1561147d57604051631ff3747d60e21b815260040160405180910390fd5b828486881717175f0361149457505f9050806116d4565b5f80805f516020611c305f395f51905f526114bd60035f516020611c305f395f51905f52611c10565b5f516020611c305f395f51905f528a8c090990505f5f516020611c305f395f51905f528a5f516020611c305f395f51905f528c8d090990505f5f516020611c305f395f51905f528a5f516020611c305f395f51905f528c8d090990505f516020611c305f395f51905f52805f516020611c305f395f51905f528c860984087f2b149d40ceb8aaae81be18991be06ac3b5b4c5e559dbefa33267e6dc24a138e50894506115ab5f516020611c305f395f51905f52805f516020611c305f395f51905f528e870984087f2fcd3ac2a640a154eb23960892a85a68f031ca0c8344b23a577dcf1052b9e7750861173f565b93505050505f5f6115f85f516020611c305f395f51905f52806115d0576115d0611bdd565b5f516020611c305f395f51905f528586095f516020611c305f395f51905f52878809086116dd565b90506116435f516020611c305f395f51905f527f183227397098d014dc2822db40c0ac2ecbc0b548b438e5469e10460b6c3e7ea45f516020611c305f395f51905f528488080961188a565b15915050611652838383611757565b9093509150868314801561166557508186145b1561168d5780611675575f611678565b60025b60ff1660028a901b175f1794508793506116d0565b6116968361173f565b871480156116ab57506116a88261173f565b86145b156113e357806116bb575f6116be565b60025b60ff1660028a901b1760011794508793505b5050505b94509492505050565b5f611708827f0c19139cb84c680a6e14116da060561765e05aa45a1c72a34f082305b61f3f526118d2565b9050815f516020611c305f395f51905f528283091461173a57604051631ff3747d60e21b815260040160405180910390fd5b919050565b5f516020611c305f395f51905f529081900681030690565b5f80806117865f516020611c305f395f51905f52808788095f516020611c305f395f51905f52898a09086116dd565b9050831561179a576117978161173f565b90505b6117e35f516020611c305f395f51905f527f183227397098d014dc2822db40c0ac2ecbc0b548b438e5469e10460b6c3e7ea45f516020611c305f395f51905f52848a08096116dd565b92505f516020611c305f395f51905f5261180d5f516020611c305f395f51905f5260028609611935565b860991505f516020611c305f395f51905f526118385f516020611c305f395f51905f5284850961173f565b5f516020611c305f395f51905f52858609088614158061186c57505f516020611c305f395f51905f52808385096002098514155b1561130e57604051631ff3747d60e21b815260040160405180910390fd5b5f5f6118b6837f0c19139cb84c680a6e14116da060561765e05aa45a1c72a34f082305b61f3f526118d2565b9050825f516020611c305f395f51905f52828309149392505050565b5f5f60405160208152602080820152602060408201528460608201528360808201525f516020611c305f395f51905f5260a082015260208160c08360055afa905192509050806113fc57604051631ff3747d60e21b815260040160405180910390fd5b5f611960827f30644e72e131a029b85045b68181585d97816a916871ca8d3c208c16d87cfd456118d2565b90505f516020611c305f395f51905f5281830960011461173a57604051631ff3747d60e21b815260040160405180910390fd5b60405180602001604052806001906020820280368337509192915050565b60405180604001604052806002906020820280368337509192915050565b6040518061030001604052806018906020820280368337509192915050565b60405180608001604052806004906020820280368337509192915050565b8061012081018310156113fe575f5ffd5b5f5f5f5f6101e08587031215611a31575f5ffd5b6080850186811115611a41575f5ffd5b85945060a0860187811115611a54575f5ffd5b909350359150611a678660c08701611a0c565b905092959194509250565b8061010081018310156113fe575f5ffd5b80604081018310156113fe575f5ffd5b5f5f5f5f6102a08587031215611aa7575f5ffd5b611ab18686611a72565b9350611ac1866101008701611a83565b9250611ad1866101408701611a83565b9150611a67866101808701611a0c565b5f5f5f6101808486031215611af4575f5ffd5b611afe8585611a72565b9250611b0e856101008601611a83565b9150611b1e856101408601611a83565b90509250925092565b60c0810181855f5b6004811015611b4e578151835260209283019290910190600101611b2f565b50505060808201845f5b6001811015611b77578151835260209283019290910190600101611b58565b5050508260a0830152949350505050565b634e487b7160e01b5f52603260045260245ffd5b8381528260208201525f604082018351602085015f5b82811015611bd0578151845260209384019390910190600101611bb2565b5091979650505050505050565b634e487b7160e01b5f52601260045260245ffd5b5f82611c0b57634e487b7160e01b5f52601260045260245ffd5b500690565b818103818111156113fe57634e487b7160e01b5f52601160045260245ffdfe30644e72e131a029b85045b68181585d97816a916871ca8d3c208c16d87cfd4730644e72e131a029b85045b68181585d2833e84879b9709143e1f593f0000001a264697066735822122071b9fec6cd5a8f1c8582ac177ef2e09fa69338b2d5343f65e8adb7bdd8cdd4a364736f6c634300081c0033","opcodes":"PUSH1 0x80 PUSH1 0x40 MSTORE CALLVALUE DUP1 ISZERO PUSH1 0xE JUMPI PUSH0 PUSH0 REVERT JUMPDEST POP PUSH2 0x1CA5 DUP1 PUSH2 0x1C PUSH0 CODECOPY PUSH0 RETURN INVALID PUSH1 0x80 PUSH1 0x40 MSTORE CALLVALUE DUP1 ISZERO PUSH2 0xF JUMPI PUSH0 PUSH0 REVERT JUMPDEST POP PUSH1 0x4 CALLDATASIZE LT PUSH2 0x3F JUMPI PUSH0 CALLDATALOAD PUSH1 0xE0 SHR DUP1 PUSH4 0x5D26278E EQ PUSH2 0x43 JUMPI DUP1 PUSH4 0x60E58346 EQ PUSH2 0x58 JUMPI DUP1 PUSH4 0xB1C3A00E EQ PUSH2 0x6B JUMPI JUMPDEST PUSH0 PUSH0 REVERT JUMPDEST PUSH2 0x56 PUSH2 0x51 CALLDATASIZE PUSH1 0x4 PUSH2 0x1A1D JUMP JUMPDEST PUSH2 0x96 JUMP JUMPDEST STOP JUMPDEST PUSH2 0x56 PUSH2 0x66 CALLDATASIZE PUSH1 0x4 PUSH2 0x1A93 JUMP JUMPDEST PUSH2 0x5CA JUMP JUMPDEST PUSH2 0x7E PUSH2 0x79 CALLDATASIZE PUSH1 0x4 PUSH2 0x1AE1 JUMP JUMPDEST PUSH2 0xA3F JUMP JUMPDEST PUSH1 0x40 MLOAD PUSH2 0x8D SWAP4 SWAP3 SWAP2 SWAP1 PUSH2 0x1B27 JUMP JUMPDEST PUSH1 0x40 MLOAD DUP1 SWAP2 SUB SWAP1 RETURN JUMPDEST PUSH2 0x9E PUSH2 0x1993 JUMP JUMPDEST PUSH2 0xA6 PUSH2 0x19B1 JUMP JUMPDEST PUSH2 0xAE PUSH2 0x19CF JUMP JUMPDEST PUSH2 0xBE DUP7 PUSH0 JUMPDEST PUSH1 0x20 MUL ADD CALLDATALOAD PUSH2 0xAC7 JUMP JUMPDEST PUSH1 0x20 DUP5 ADD MSTORE DUP3 MSTORE PUSH0 DUP1 PUSH2 0xD0 DUP8 PUSH2 0xAC7 JUMP JUMPDEST DUP6 MLOAD PUSH1 0x20 DUP1 DUP9 ADD MLOAD PUSH1 0x40 MLOAD SWAP5 SWAP7 POP SWAP3 SWAP5 POP PUSH1 0x60 SWAP4 PUSH0 MLOAD PUSH1 0x20 PUSH2 0x1C50 PUSH0 CODECOPY PUSH0 MLOAD SWAP1 PUSH0 MSTORE SWAP4 PUSH2 0x102 SWAP4 SWAP3 SWAP1 SWAP2 DUP7 SWAP2 ADD PUSH2 0x1B9C JUMP JUMPDEST PUSH1 0x40 MLOAD PUSH1 0x20 DUP2 DUP4 SUB SUB DUP2 MSTORE SWAP1 PUSH1 0x40 MSTORE DUP1 MLOAD SWAP1 PUSH1 0x20 ADD KECCAK256 PUSH0 SHR PUSH2 0x124 SWAP2 SWAP1 PUSH2 0x1BF1 JUMP JUMPDEST DUP7 MSTORE DUP5 MLOAD DUP5 MSTORE PUSH1 0x20 DUP6 DUP2 ADD MLOAD DUP6 DUP3 ADD MSTORE PUSH32 0x211FF8DEEF47F7B18D590DD969D97F709265380A5136B34C64786345315DAD39 PUSH1 0x40 DUP1 DUP8 ADD SWAP2 SWAP1 SWAP2 MSTORE PUSH32 0x1D7CD45B719F87EAC10057F7379E440C0922A3412DCD32B0436473B89D7427B PUSH1 0x60 DUP8 ADD MSTORE PUSH32 0x255C8BC9E8345C3F8BCD6147C1388BB6501356FA2FE469A5007893932EAB8E2F PUSH1 0x80 DUP8 ADD MSTORE PUSH32 0x22F94DF65E194C5D6CF757479BF9687AC7FDB14032A33698B560C0F46069C542 PUSH1 0xA0 DUP8 ADD MSTORE PUSH1 0xC0 DUP7 ADD DUP6 SWAP1 MSTORE PUSH1 0xE0 DUP7 ADD DUP5 SWAP1 MSTORE PUSH32 0x1528FFF24569CFC678CDD789FFD3343ABC0851D686EB1CABCF3BA8CF49302D8E PUSH2 0x100 DUP8 ADD MSTORE PUSH32 0x1B2B35E890C913BEBB27DA895D90DBAAFA7616B5760EA1CE806986EA63100A9B PUSH2 0x120 DUP8 ADD MSTORE PUSH32 0x162884DFBD7BDE08EC1CF8D7D4E0DA738CD41F9F6A620BB2BB3ADA5DF8AFD947 PUSH2 0x140 DUP8 ADD MSTORE PUSH32 0x250522662EFE74DE1D604758BB845B99AA66AC6C9994D1504FCB9395948BE240 PUSH2 0x160 DUP8 ADD MSTORE MLOAD PUSH0 SWAP2 DUP2 PUSH2 0x180 DUP9 PUSH1 0x8 GAS STATICCALL SWAP1 MLOAD AND SWAP1 POP DUP1 PUSH2 0x2A9 JUMPI PUSH1 0x40 MLOAD PUSH4 0x51D49FF7 PUSH1 0xE1 SHL DUP2 MSTORE PUSH1 0x4 ADD PUSH1 0x40 MLOAD DUP1 SWAP2 SUB SWAP1 REVERT JUMPDEST POP POP POP POP PUSH0 PUSH0 PUSH2 0x2C4 DUP10 PUSH0 PUSH1 0x4 DUP2 LT PUSH2 0xB4 JUMPI PUSH2 0xB4 PUSH2 0x1B88 JUMP JUMPDEST SWAP1 SWAP3 POP SWAP1 POP PUSH0 DUP1 DUP1 DUP1 PUSH2 0x2DF PUSH1 0x40 DUP15 ADD CALLDATALOAD PUSH1 0x20 DUP16 ADD CALLDATALOAD PUSH2 0xB66 JUMP JUMPDEST SWAP3 SWAP7 POP SWAP1 SWAP5 POP SWAP3 POP SWAP1 POP PUSH0 DUP1 PUSH2 0x2F6 DUP16 PUSH1 0x3 PUSH2 0xB4 JUMP JUMPDEST SWAP2 POP SWAP2 POP PUSH0 PUSH0 PUSH2 0x307 DUP15 DUP15 DUP15 PUSH2 0xD3A JUMP JUMPDEST DUP12 DUP14 MSTORE PUSH1 0x20 DUP14 ADD DUP12 SWAP1 MSTORE PUSH1 0x40 DUP14 ADD DUP10 SWAP1 MSTORE PUSH1 0x60 DUP14 ADD DUP11 SWAP1 MSTORE PUSH1 0x80 DUP14 ADD DUP8 SWAP1 MSTORE PUSH1 0xA0 DUP14 ADD DUP9 SWAP1 MSTORE PUSH1 0xC0 DUP14 ADD DUP7 SWAP1 MSTORE PUSH1 0xE0 DUP14 ADD DUP6 SWAP1 MSTORE PUSH32 0xEECB24262085E99B65419C1E4C888485CDB32473EE326239801CF4A8D1CF82C PUSH2 0x100 DUP15 ADD MSTORE PUSH32 0x2FA7D3D83DEE8DF972C3C21C69868C17A2CD314203C3DB109385DD73693BEAB2 PUSH2 0x120 DUP15 ADD MSTORE PUSH32 0x1A4147AC39BD611466970F800E77797DEBE0990351EA3395A6D5EB28C30C912B PUSH2 0x140 DUP15 ADD MSTORE PUSH32 0x4982E9840950BAF216BA05708D714AF87F4AA9A5BF33126F7BA3570CAB2222D PUSH2 0x160 DUP15 ADD MSTORE PUSH32 0x12A5C897F9F5DEE909CDE749656755075A9880041A10B8AF5161697C7CF59807 PUSH2 0x180 DUP15 ADD MSTORE PUSH32 0x23E939072BCE0953D0A50A897BE1E341C9FC11CEE4435AAAFE5AD2571649E444 PUSH2 0x1A0 DUP15 ADD MSTORE PUSH32 0x550475659D3772C0FD0B85A86C87A539F4C78A66BC3FD827BE8F19078BE2EA8 PUSH2 0x1C0 DUP15 ADD MSTORE PUSH32 0xB4A92742EDA6296BA6CDA1A3529374E1F41E358870521D88102C5B576D98B0C PUSH2 0x1E0 DUP15 ADD MSTORE PUSH32 0x1BBC7C5F7C9C54BDEFCEFEF695E2A8B4CB5BB44B5816421BB9947147B02F2AE PUSH2 0x200 DUP15 ADD MSTORE PUSH32 0xD56275F7D98B9BB74077A740411DE015A2D25DA12818A30A8458860EC4C76C6 PUSH2 0x220 DUP15 ADD MSTORE PUSH2 0x240 DUP14 ADD DUP3 SWAP1 MSTORE PUSH2 0x260 DUP14 ADD DUP2 SWAP1 MSTORE PUSH32 0x50524CE5EDABD2591EF58D16912159EAB09717A4250FF2635E111165BD987DA PUSH2 0x280 DUP15 ADD MSTORE PUSH32 0x186708BB623130CC1A0C236783120E1EB0D880EDE43EAF0A60536AF1F88ED7C6 PUSH2 0x2A0 DUP15 ADD MSTORE PUSH32 0x2D31BE59DAAE8EDFB1F6EDA8D869CFB619B6DFD22C5B0FCC238D955627BDC101 PUSH2 0x2C0 DUP15 ADD MSTORE PUSH32 0x11A1CFE83C57807915A9A0D0096F70404C9570295DBBF1AAEF8A395B761AE53B PUSH2 0x2E0 DUP15 ADD MSTORE SWAP1 SWAP3 POP SWAP1 POP PUSH0 PUSH2 0x57B PUSH2 0x1993 JUMP JUMPDEST PUSH1 0x20 DUP2 PUSH2 0x300 DUP16 PUSH1 0x8 GAS STATICCALL SWAP2 POP DUP2 ISZERO DUP1 PUSH2 0x597 JUMPI POP DUP1 MLOAD PUSH1 0x1 EQ ISZERO JUMPDEST ISZERO PUSH2 0x5B5 JUMPI PUSH1 0x40 MLOAD PUSH4 0x1FF3747D PUSH1 0xE2 SHL DUP2 MSTORE PUSH1 0x4 ADD PUSH1 0x40 MLOAD DUP1 SWAP2 SUB SWAP1 REVERT JUMPDEST POP POP POP POP POP POP POP POP POP POP POP POP POP POP POP POP POP POP POP JUMP JUMPDEST PUSH2 0x5D2 PUSH2 0x1993 JUMP JUMPDEST PUSH1 0x40 MLOAD PUSH1 0x60 SWAP1 PUSH0 MLOAD PUSH1 0x20 PUSH2 0x1C50 PUSH0 CODECOPY PUSH0 MLOAD SWAP1 PUSH0 MSTORE SWAP1 PUSH2 0x5FD SWAP1 DUP8 CALLDATALOAD SWAP1 PUSH1 0x20 DUP1 DUP11 ADD CALLDATALOAD SWAP2 DUP7 SWAP2 ADD PUSH2 0x1B9C JUMP JUMPDEST PUSH1 0x40 MLOAD PUSH1 0x20 DUP2 DUP4 SUB SUB DUP2 MSTORE SWAP1 PUSH1 0x40 MSTORE DUP1 MLOAD SWAP1 PUSH1 0x20 ADD KECCAK256 PUSH0 SHR PUSH2 0x61F SWAP2 SWAP1 PUSH2 0x1BF1 JUMP JUMPDEST DUP3 MSTORE PUSH1 0x40 DUP1 MLOAD PUSH0 SWAP2 DUP8 DUP3 CALLDATACOPY PUSH32 0x211FF8DEEF47F7B18D590DD969D97F709265380A5136B34C64786345315DAD39 PUSH1 0x40 DUP3 ADD MSTORE PUSH32 0x1D7CD45B719F87EAC10057F7379E440C0922A3412DCD32B0436473B89D7427B PUSH1 0x60 DUP3 ADD MSTORE PUSH32 0x255C8BC9E8345C3F8BCD6147C1388BB6501356FA2FE469A5007893932EAB8E2F PUSH1 0x80 DUP3 ADD MSTORE PUSH32 0x22F94DF65E194C5D6CF757479BF9687AC7FDB14032A33698B560C0F46069C542 PUSH1 0xA0 DUP3 ADD MSTORE PUSH1 0x40 DUP7 PUSH1 0xC0 DUP4 ADD CALLDATACOPY PUSH32 0x1528FFF24569CFC678CDD789FFD3343ABC0851D686EB1CABCF3BA8CF49302D8E PUSH2 0x100 DUP3 ADD MSTORE PUSH32 0x1B2B35E890C913BEBB27DA895D90DBAAFA7616B5760EA1CE806986EA63100A9B PUSH2 0x120 DUP3 ADD MSTORE PUSH32 0x162884DFBD7BDE08EC1CF8D7D4E0DA738CD41F9F6A620BB2BB3ADA5DF8AFD947 PUSH2 0x140 DUP3 ADD MSTORE PUSH32 0x250522662EFE74DE1D604758BB845B99AA66AC6C9994D1504FCB9395948BE240 PUSH2 0x160 DUP3 ADD MSTORE PUSH1 0x20 DUP2 PUSH2 0x180 DUP4 PUSH1 0x8 GAS STATICCALL SWAP1 MLOAD AND SWAP1 POP DUP1 PUSH2 0x794 JUMPI PUSH1 0x40 MLOAD PUSH4 0x51D49FF7 PUSH1 0xE1 SHL DUP2 MSTORE PUSH1 0x4 ADD PUSH1 0x40 MLOAD DUP1 SWAP2 SUB SWAP1 REVERT JUMPDEST PUSH0 PUSH0 PUSH2 0x7C9 DUP7 DUP7 DUP11 PUSH1 0x2 DUP1 PUSH1 0x20 MUL PUSH1 0x40 MLOAD SWAP1 DUP2 ADD PUSH1 0x40 MSTORE DUP1 SWAP3 SWAP2 SWAP1 DUP3 PUSH1 0x2 PUSH1 0x20 MUL DUP1 DUP3 DUP5 CALLDATACOPY PUSH0 SWAP3 ADD SWAP2 SWAP1 SWAP2 MSTORE POP PUSH2 0xD3A SWAP2 POP POP JUMP JUMPDEST SWAP2 POP SWAP2 POP PUSH1 0x40 MLOAD PUSH2 0x100 DUP11 DUP3 CALLDATACOPY PUSH32 0xEECB24262085E99B65419C1E4C888485CDB32473EE326239801CF4A8D1CF82C PUSH2 0x100 DUP3 ADD MSTORE PUSH32 0x2FA7D3D83DEE8DF972C3C21C69868C17A2CD314203C3DB109385DD73693BEAB2 PUSH2 0x120 DUP3 ADD MSTORE PUSH32 0x1A4147AC39BD611466970F800E77797DEBE0990351EA3395A6D5EB28C30C912B PUSH2 0x140 DUP3 ADD MSTORE PUSH32 0x4982E9840950BAF216BA05708D714AF87F4AA9A5BF33126F7BA3570CAB2222D PUSH2 0x160 DUP3 ADD MSTORE PUSH32 0x12A5C897F9F5DEE909CDE749656755075A9880041A10B8AF5161697C7CF59807 PUSH2 0x180 DUP3 ADD MSTORE PUSH32 0x23E939072BCE0953D0A50A897BE1E341C9FC11CEE4435AAAFE5AD2571649E444 PUSH2 0x1A0 DUP3 ADD MSTORE PUSH32 0x550475659D3772C0FD0B85A86C87A539F4C78A66BC3FD827BE8F19078BE2EA8 PUSH2 0x1C0 DUP3 ADD MSTORE PUSH32 0xB4A92742EDA6296BA6CDA1A3529374E1F41E358870521D88102C5B576D98B0C PUSH2 0x1E0 DUP3 ADD MSTORE PUSH32 0x1BBC7C5F7C9C54BDEFCEFEF695E2A8B4CB5BB44B5816421BB9947147B02F2AE PUSH2 0x200 DUP3 ADD MSTORE PUSH32 0xD56275F7D98B9BB74077A740411DE015A2D25DA12818A30A8458860EC4C76C6 PUSH2 0x220 DUP3 ADD MSTORE DUP3 PUSH2 0x240 DUP3 ADD MSTORE DUP2 PUSH2 0x260 DUP3 ADD MSTORE PUSH32 0x50524CE5EDABD2591EF58D16912159EAB09717A4250FF2635E111165BD987DA PUSH2 0x280 DUP3 ADD MSTORE PUSH32 0x186708BB623130CC1A0C236783120E1EB0D880EDE43EAF0A60536AF1F88ED7C6 PUSH2 0x2A0 DUP3 ADD MSTORE PUSH32 0x2D31BE59DAAE8EDFB1F6EDA8D869CFB619B6DFD22C5B0FCC238D955627BDC101 PUSH2 0x2C0 DUP3 ADD MSTORE PUSH32 0x11A1CFE83C57807915A9A0D0096F70404C9570295DBBF1AAEF8A395B761AE53B PUSH2 0x2E0 DUP3 ADD MSTORE PUSH1 0x20 DUP2 PUSH2 0x300 DUP4 PUSH1 0x8 GAS STATICCALL SWAP1 MLOAD AND SWAP3 POP DUP3 PUSH2 0xA34 JUMPI PUSH1 0x40 MLOAD PUSH4 0x1FF3747D PUSH1 0xE2 SHL DUP2 MSTORE PUSH1 0x4 ADD PUSH1 0x40 MLOAD DUP1 SWAP2 SUB SWAP1 REVERT JUMPDEST POP POP POP POP POP POP POP POP POP JUMP JUMPDEST PUSH2 0xA47 PUSH2 0x19EE JUMP JUMPDEST PUSH2 0xA4F PUSH2 0x1993 JUMP JUMPDEST PUSH0 PUSH2 0xA63 DUP7 CALLDATALOAD DUP8 PUSH1 0x1 JUMPDEST PUSH1 0x20 MUL ADD CALLDATALOAD PUSH2 0x1317 JUMP JUMPDEST DUP4 MSTORE PUSH2 0xA81 PUSH1 0x60 DUP8 ADD CALLDATALOAD PUSH1 0x40 DUP9 ADD CALLDATALOAD PUSH1 0xA0 DUP10 ADD CALLDATALOAD PUSH1 0x80 DUP11 ADD CALLDATALOAD PUSH2 0x1404 JUMP JUMPDEST PUSH1 0x20 DUP6 ADD MSTORE PUSH1 0x40 DUP5 ADD MSTORE PUSH2 0xA9B PUSH1 0xC0 DUP8 ADD CALLDATALOAD DUP8 PUSH1 0x7 PUSH2 0xA59 JUMP JUMPDEST PUSH1 0x60 DUP5 ADD MSTORE PUSH2 0xAAD DUP6 CALLDATALOAD DUP7 PUSH1 0x1 PUSH2 0xA59 JUMP JUMPDEST DUP3 MSTORE PUSH2 0xABC DUP5 CALLDATALOAD DUP6 PUSH1 0x1 PUSH2 0xA59 JUMP JUMPDEST SWAP1 POP SWAP4 POP SWAP4 POP SWAP4 SWAP1 POP JUMP JUMPDEST PUSH0 PUSH0 DUP3 PUSH0 SUB PUSH2 0xADA JUMPI POP PUSH0 SWAP3 DUP4 SWAP3 POP SWAP1 POP JUMP JUMPDEST PUSH1 0x1 DUP4 DUP2 SHR SWAP3 POP DUP1 DUP5 AND EQ PUSH0 MLOAD PUSH1 0x20 PUSH2 0x1C30 PUSH0 CODECOPY PUSH0 MLOAD SWAP1 PUSH0 MSTORE DUP4 LT PUSH2 0xB12 JUMPI PUSH1 0x40 MLOAD PUSH4 0x1FF3747D PUSH1 0xE2 SHL DUP2 MSTORE PUSH1 0x4 ADD PUSH1 0x40 MLOAD DUP1 SWAP2 SUB SWAP1 REVERT JUMPDEST PUSH2 0xB4C PUSH0 MLOAD PUSH1 0x20 PUSH2 0x1C30 PUSH0 CODECOPY PUSH0 MLOAD SWAP1 PUSH0 MSTORE PUSH1 0x3 PUSH0 MLOAD PUSH1 0x20 PUSH2 0x1C30 PUSH0 CODECOPY PUSH0 MLOAD SWAP1 PUSH0 MSTORE DUP7 PUSH0 MLOAD PUSH1 0x20 PUSH2 0x1C30 PUSH0 CODECOPY PUSH0 MLOAD SWAP1 PUSH0 MSTORE DUP9 DUP10 MULMOD MULMOD ADDMOD PUSH2 0x16DD JUMP JUMPDEST SWAP2 POP DUP1 ISZERO PUSH2 0xB60 JUMPI PUSH2 0xB5D DUP3 PUSH2 0x173F JUMP JUMPDEST SWAP2 POP JUMPDEST POP SWAP2 POP SWAP2 JUMP JUMPDEST PUSH0 DUP1 DUP1 DUP1 DUP6 ISZERO DUP1 ISZERO PUSH2 0xB76 JUMPI POP DUP5 ISZERO JUMPDEST ISZERO PUSH2 0xB8B JUMPI POP PUSH0 SWAP3 POP DUP3 SWAP2 POP DUP2 SWAP1 POP DUP1 PUSH2 0xD31 JUMP JUMPDEST PUSH1 0x2 DUP7 DUP2 SHR SWAP5 POP DUP6 SWAP4 POP PUSH1 0x1 DUP1 DUP9 AND EQ SWAP1 DUP1 DUP9 AND EQ PUSH0 MLOAD PUSH1 0x20 PUSH2 0x1C30 PUSH0 CODECOPY PUSH0 MLOAD SWAP1 PUSH0 MSTORE DUP7 LT ISZERO DUP1 PUSH2 0xBC9 JUMPI POP PUSH0 MLOAD PUSH1 0x20 PUSH2 0x1C30 PUSH0 CODECOPY PUSH0 MLOAD SWAP1 PUSH0 MSTORE DUP6 LT ISZERO JUMPDEST ISZERO PUSH2 0xBE7 JUMPI PUSH1 0x40 MLOAD PUSH4 0x1FF3747D PUSH1 0xE2 SHL DUP2 MSTORE PUSH1 0x4 ADD PUSH1 0x40 MLOAD DUP1 SWAP2 SUB SWAP1 REVERT JUMPDEST PUSH0 PUSH0 MLOAD PUSH1 0x20 PUSH2 0x1C30 PUSH0 CODECOPY PUSH0 MLOAD SWAP1 PUSH0 MSTORE PUSH2 0xC0E PUSH1 0x3 PUSH0 MLOAD PUSH1 0x20 PUSH2 0x1C30 PUSH0 CODECOPY PUSH0 MLOAD SWAP1 PUSH0 MSTORE PUSH2 0x1C10 JUMP JUMPDEST PUSH0 MLOAD PUSH1 0x20 PUSH2 0x1C30 PUSH0 CODECOPY PUSH0 MLOAD SWAP1 PUSH0 MSTORE DUP9 DUP11 MULMOD MULMOD SWAP1 POP PUSH0 PUSH0 MLOAD PUSH1 0x20 PUSH2 0x1C30 PUSH0 CODECOPY PUSH0 MLOAD SWAP1 PUSH0 MSTORE DUP9 PUSH0 MLOAD PUSH1 0x20 PUSH2 0x1C30 PUSH0 CODECOPY PUSH0 MLOAD SWAP1 PUSH0 MSTORE DUP11 DUP12 MULMOD MULMOD SWAP1 POP PUSH0 PUSH0 MLOAD PUSH1 0x20 PUSH2 0x1C30 PUSH0 CODECOPY PUSH0 MLOAD SWAP1 PUSH0 MSTORE DUP9 PUSH0 MLOAD PUSH1 0x20 PUSH2 0x1C30 PUSH0 CODECOPY PUSH0 MLOAD SWAP1 PUSH0 MSTORE DUP11 DUP12 MULMOD MULMOD SWAP1 POP PUSH0 MLOAD PUSH1 0x20 PUSH2 0x1C30 PUSH0 CODECOPY PUSH0 MLOAD SWAP1 PUSH0 MSTORE DUP1 PUSH0 MLOAD PUSH1 0x20 PUSH2 0x1C30 PUSH0 CODECOPY PUSH0 MLOAD SWAP1 PUSH0 MSTORE DUP11 DUP7 MULMOD DUP5 ADDMOD PUSH32 0x2B149D40CEB8AAAE81BE18991BE06AC3B5B4C5E559DBEFA33267E6DC24A138E5 ADDMOD SWAP7 POP PUSH2 0xCFC PUSH0 MLOAD PUSH1 0x20 PUSH2 0x1C30 PUSH0 CODECOPY PUSH0 MLOAD SWAP1 PUSH0 MSTORE DUP1 PUSH0 MLOAD PUSH1 0x20 PUSH2 0x1C30 PUSH0 CODECOPY PUSH0 MLOAD SWAP1 PUSH0 MSTORE DUP13 DUP8 MULMOD DUP5 ADDMOD PUSH32 0x2FCD3AC2A640A154EB23960892A85A68F031CA0C8344B23A577DCF1052B9E775 ADDMOD PUSH2 0x173F JUMP JUMPDEST SWAP6 POP PUSH2 0xD09 DUP8 DUP8 DUP7 PUSH2 0x1757 JUMP JUMPDEST SWAP1 SWAP8 POP SWAP6 POP DUP5 ISZERO PUSH2 0xD2B JUMPI PUSH2 0xD1D DUP8 PUSH2 0x173F JUMP JUMPDEST SWAP7 POP PUSH2 0xD28 DUP7 PUSH2 0x173F JUMP JUMPDEST SWAP6 POP JUMPDEST POP POP POP POP POP JUMPDEST SWAP3 SWAP6 SWAP2 SWAP5 POP SWAP3 POP JUMP JUMPDEST PUSH0 PUSH0 PUSH0 PUSH1 0x1 SWAP1 POP PUSH1 0x40 MLOAD PUSH1 0x40 DUP2 ADD PUSH0 PUSH32 0x2AB09CB8FCAFAEF59E50B0487088A446DFDA57456D3B134A3BB1DF23BA44A127 DUP4 MSTORE PUSH32 0x268CA9D3A982AD31D5268FF85C2389C6E2F54BE4E5E9B00F3A50D26C5E053D06 PUSH1 0x20 DUP5 ADD MSTORE DUP7 MLOAD DUP3 MSTORE PUSH1 0x20 DUP8 ADD MLOAD PUSH1 0x20 DUP4 ADD MSTORE PUSH1 0x40 DUP4 PUSH1 0x80 DUP6 PUSH1 0x6 GAS STATICCALL DUP5 AND SWAP4 POP PUSH32 0xF726DB784C78E7EDA4FF06971518E8904C5340DA6C9C77D160444396B1DD6E9 DUP3 MSTORE PUSH32 0x127826B1655B7244F1D557C7C730BD35209F06199E7E4D2E06D201E881C23E85 PUSH1 0x20 DUP4 ADD MSTORE DUP9 CALLDATALOAD SWAP1 POP DUP1 PUSH1 0x40 DUP4 ADD MSTORE PUSH0 MLOAD PUSH1 0x20 PUSH2 0x1C50 PUSH0 CODECOPY PUSH0 MLOAD SWAP1 PUSH0 MSTORE DUP2 LT DUP5 AND SWAP4 POP PUSH1 0x40 DUP3 PUSH1 0x60 DUP5 PUSH1 0x7 GAS STATICCALL DUP5 AND SWAP4 POP PUSH1 0x40 DUP4 PUSH1 0x80 DUP6 PUSH1 0x6 GAS STATICCALL DUP5 AND SWAP4 POP PUSH32 0x4B17DD1B884AE058BE704AB843BA5DB17A0C5FDED35662968E873418AA75901 DUP3 MSTORE PUSH32 0x21D1E7B9D70F092BE75CF4A6A27E419752068A521651B8D5878C3966B3FFDFE3 PUSH1 0x20 DUP4 ADD MSTORE PUSH1 0x20 DUP10 ADD CALLDATALOAD SWAP1 POP DUP1 PUSH1 0x40 DUP4 ADD MSTORE PUSH0 MLOAD PUSH1 0x20 PUSH2 0x1C50 PUSH0 CODECOPY PUSH0 MLOAD SWAP1 PUSH0 MSTORE DUP2 LT DUP5 AND SWAP4 POP PUSH1 0x40 DUP3 PUSH1 0x60 DUP5 PUSH1 0x7 GAS STATICCALL DUP5 AND SWAP4 POP PUSH1 0x40 DUP4 PUSH1 0x80 DUP6 PUSH1 0x6 GAS STATICCALL DUP5 AND SWAP4 POP PUSH32 0xEEBA1F9B315FC53EF73951702FD8A9328DBFE23439615BDEE5E4C2D3AFD5C86 DUP3 MSTORE PUSH32 0x248A679C8EC7DCA891CAAA80B5F41D4FB870CDA19D966D834460379A089D8922 PUSH1 0x20 DUP4 ADD MSTORE PUSH1 0x40 DUP10 ADD CALLDATALOAD SWAP1 POP DUP1 PUSH1 0x40 DUP4 ADD MSTORE PUSH0 MLOAD PUSH1 0x20 PUSH2 0x1C50 PUSH0 CODECOPY PUSH0 MLOAD SWAP1 PUSH0 MSTORE DUP2 LT DUP5 AND SWAP4 POP PUSH1 0x40 DUP3 PUSH1 0x60 DUP5 PUSH1 0x7 GAS STATICCALL DUP5 AND SWAP4 POP PUSH1 0x40 DUP4 PUSH1 0x80 DUP6 PUSH1 0x6 GAS STATICCALL DUP5 AND SWAP4 POP PUSH32 0x1A1DE355C62AAE496D3FE952EAE71D7128CD7ED9C05A0CA506BE8AEA4897363C DUP3 MSTORE PUSH32 0x29BFFDC8E90BDB5E9DE4D51797ADEDDB5AF00EFADCC972D34632135722143564 PUSH1 0x20 DUP4 ADD MSTORE PUSH1 0x60 DUP10 ADD CALLDATALOAD SWAP1 POP DUP1 PUSH1 0x40 DUP4 ADD MSTORE PUSH0 MLOAD PUSH1 0x20 PUSH2 0x1C50 PUSH0 CODECOPY PUSH0 MLOAD SWAP1 PUSH0 MSTORE DUP2 LT DUP5 AND SWAP4 POP PUSH1 0x40 DUP3 PUSH1 0x60 DUP5 PUSH1 0x7 GAS STATICCALL DUP5 AND SWAP4 POP PUSH1 0x40 DUP4 PUSH1 0x80 DUP6 PUSH1 0x6 GAS STATICCALL DUP5 AND SWAP4 POP PUSH32 0x2DB53FCE60A452D7B4F81911B7020FA98976093EFD43BFB632EF4BB00A21F86F DUP3 MSTORE PUSH32 0x1D714D0DC7AAF7D4255E8D8416C8E27408CD59EBF86DA5E5BC8D5D9A175D8E1F PUSH1 0x20 DUP4 ADD MSTORE PUSH1 0x80 DUP10 ADD CALLDATALOAD SWAP1 POP DUP1 PUSH1 0x40 DUP4 ADD MSTORE PUSH0 MLOAD PUSH1 0x20 PUSH2 0x1C50 PUSH0 CODECOPY PUSH0 MLOAD SWAP1 PUSH0 MSTORE DUP2 LT DUP5 AND SWAP4 POP PUSH1 0x40 DUP3 PUSH1 0x60 DUP5 PUSH1 0x7 GAS STATICCALL DUP5 AND SWAP4 POP PUSH1 0x40 DUP4 PUSH1 0x80 DUP6 PUSH1 0x6 GAS STATICCALL DUP5 AND SWAP4 POP PUSH32 0x127BCD3AF7CC5896CD037055304B7BF57586E84ECC5980AE7D08CC6C475F0EFA DUP3 MSTORE PUSH32 0x26658108ABE86C769C96F893EF434B35D46135414D716F6DEE6CDEAE5AF23F93 PUSH1 0x20 DUP4 ADD MSTORE PUSH1 0xA0 DUP10 ADD CALLDATALOAD SWAP1 POP DUP1 PUSH1 0x40 DUP4 ADD MSTORE PUSH0 MLOAD PUSH1 0x20 PUSH2 0x1C50 PUSH0 CODECOPY PUSH0 MLOAD SWAP1 PUSH0 MSTORE DUP2 LT DUP5 AND SWAP4 POP PUSH1 0x40 DUP3 PUSH1 0x60 DUP5 PUSH1 0x7 GAS STATICCALL DUP5 AND SWAP4 POP PUSH1 0x40 DUP4 PUSH1 0x80 DUP6 PUSH1 0x6 GAS STATICCALL DUP5 AND SWAP4 POP PUSH32 0x810138E75477BC1293DC9639554B49468043BE373B9E55CBCC772794FFBD4CB DUP3 MSTORE PUSH32 0x2DC12F0CDF894A5D58DB4759BA23D19C93215813FF66E4F138C138403C0C376C PUSH1 0x20 DUP4 ADD MSTORE PUSH1 0xC0 DUP10 ADD CALLDATALOAD SWAP1 POP DUP1 PUSH1 0x40 DUP4 ADD MSTORE PUSH0 MLOAD PUSH1 0x20 PUSH2 0x1C50 PUSH0 CODECOPY PUSH0 MLOAD SWAP1 PUSH0 MSTORE DUP2 LT DUP5 AND SWAP4 POP PUSH1 0x40 DUP3 PUSH1 0x60 DUP5 PUSH1 0x7 GAS STATICCALL DUP5 AND SWAP4 POP PUSH1 0x40 DUP4 PUSH1 0x80 DUP6 PUSH1 0x6 GAS STATICCALL DUP5 AND SWAP4 POP PUSH32 0x160535C9C9E1E940B0CEBF35B59A26D3E050D092BA97B42BADEC196D88BA3488 DUP3 MSTORE PUSH32 0x165D0287373B95A6480F7892BC8BCC085E336BD8AF7475C9FDBC6AB535A83F73 PUSH1 0x20 DUP4 ADD MSTORE PUSH1 0xE0 DUP10 ADD CALLDATALOAD SWAP1 POP DUP1 PUSH1 0x40 DUP4 ADD MSTORE PUSH0 MLOAD PUSH1 0x20 PUSH2 0x1C50 PUSH0 CODECOPY PUSH0 MLOAD SWAP1 PUSH0 MSTORE DUP2 LT DUP5 AND SWAP4 POP PUSH1 0x40 DUP3 PUSH1 0x60 DUP5 PUSH1 0x7 GAS STATICCALL DUP5 AND SWAP4 POP PUSH1 0x40 DUP4 PUSH1 0x80 DUP6 PUSH1 0x6 GAS STATICCALL DUP5 AND SWAP4 POP PUSH32 0x4892E6E3F399EA317AB6BDF0DE51E5F40E5DE077448A1724B35CA570F00FD58 DUP3 MSTORE PUSH32 0x2BD3016FDFDCA7A7BE9035D82161411655AB2FE991EDE89FDF5813635FE791BF PUSH1 0x20 DUP4 ADD MSTORE PUSH2 0x100 DUP10 ADD CALLDATALOAD SWAP1 POP DUP1 PUSH1 0x40 DUP4 ADD MSTORE PUSH0 MLOAD PUSH1 0x20 PUSH2 0x1C50 PUSH0 CODECOPY PUSH0 MLOAD SWAP1 PUSH0 MSTORE DUP2 LT DUP5 AND SWAP4 POP PUSH1 0x40 DUP3 PUSH1 0x60 DUP5 PUSH1 0x7 GAS STATICCALL DUP5 AND SWAP4 POP PUSH1 0x40 DUP4 PUSH1 0x80 DUP6 PUSH1 0x6 GAS STATICCALL PUSH32 0x1B2351311FC2549A893F2C2FA3D5B49D8B4B12A93F798E9E59751F9450A3CB58 DUP4 MSTORE PUSH32 0x1F7B68348A2C73F6570B4FB594B75E42FD29FA4B723E93B2D166CBAF3F832D93 PUSH1 0x20 DUP5 ADD MSTORE DUP9 MLOAD PUSH1 0x40 DUP1 DUP6 ADD DUP3 SWAP1 MSTORE PUSH0 MLOAD PUSH1 0x20 PUSH2 0x1C50 PUSH0 CODECOPY PUSH0 MLOAD SWAP1 PUSH0 MSTORE SWAP1 SWAP2 LT SWAP2 SWAP1 SWAP6 AND AND SWAP4 SWAP1 POP DUP2 PUSH1 0x60 DUP2 PUSH1 0x7 GAS STATICCALL DUP4 AND SWAP3 POP POP PUSH1 0x40 DUP2 PUSH1 0x80 DUP4 PUSH1 0x6 GAS STATICCALL DUP2 MLOAD PUSH1 0x20 SWAP1 SWAP3 ADD MLOAD SWAP2 SWAP5 POP SWAP1 SWAP3 POP AND DUP1 PUSH2 0x130E JUMPI PUSH1 0x40 MLOAD PUSH4 0xA54F8E27 PUSH1 0xE0 SHL DUP2 MSTORE PUSH1 0x4 ADD PUSH1 0x40 MLOAD DUP1 SWAP2 SUB SWAP1 REVERT JUMPDEST POP SWAP4 POP SWAP4 SWAP2 POP POP JUMP JUMPDEST PUSH0 PUSH0 MLOAD PUSH1 0x20 PUSH2 0x1C30 PUSH0 CODECOPY PUSH0 MLOAD SWAP1 PUSH0 MSTORE DUP4 LT ISZERO DUP1 PUSH2 0x1341 JUMPI POP PUSH0 MLOAD PUSH1 0x20 PUSH2 0x1C30 PUSH0 CODECOPY PUSH0 MLOAD SWAP1 PUSH0 MSTORE DUP3 LT ISZERO JUMPDEST ISZERO PUSH2 0x135F JUMPI PUSH1 0x40 MLOAD PUSH4 0x1FF3747D PUSH1 0xE2 SHL DUP2 MSTORE PUSH1 0x4 ADD PUSH1 0x40 MLOAD DUP1 SWAP2 SUB SWAP1 REVERT JUMPDEST DUP3 ISZERO DUP1 ISZERO PUSH2 0x136B JUMPI POP DUP2 ISZERO JUMPDEST ISZERO PUSH2 0x1377 JUMPI POP PUSH0 PUSH2 0x13FE JUMP JUMPDEST PUSH0 PUSH2 0x13B2 PUSH0 MLOAD PUSH1 0x20 PUSH2 0x1C30 PUSH0 CODECOPY PUSH0 MLOAD SWAP1 PUSH0 MSTORE PUSH1 0x3 PUSH0 MLOAD PUSH1 0x20 PUSH2 0x1C30 PUSH0 CODECOPY PUSH0 MLOAD SWAP1 PUSH0 MSTORE DUP8 PUSH0 MLOAD PUSH1 0x20 PUSH2 0x1C30 PUSH0 CODECOPY PUSH0 MLOAD SWAP1 PUSH0 MSTORE DUP10 DUP11 MULMOD MULMOD ADDMOD PUSH2 0x16DD JUMP JUMPDEST SWAP1 POP DUP1 DUP4 SUB PUSH2 0x13C7 JUMPI POP POP PUSH1 0x1 DUP3 SWAP1 SHL PUSH2 0x13FE JUMP JUMPDEST PUSH2 0x13D0 DUP2 PUSH2 0x173F JUMP JUMPDEST DUP4 SUB PUSH2 0x13E3 JUMPI POP POP PUSH1 0x1 DUP3 DUP2 SHL OR PUSH2 0x13FE JUMP JUMPDEST PUSH1 0x40 MLOAD PUSH4 0x1FF3747D PUSH1 0xE2 SHL DUP2 MSTORE PUSH1 0x4 ADD PUSH1 0x40 MLOAD DUP1 SWAP2 SUB SWAP1 REVERT JUMPDEST POP JUMPDEST SWAP3 SWAP2 POP POP JUMP JUMPDEST PUSH0 PUSH0 PUSH0 MLOAD PUSH1 0x20 PUSH2 0x1C30 PUSH0 CODECOPY PUSH0 MLOAD SWAP1 PUSH0 MSTORE DUP7 LT ISZERO DUP1 PUSH2 0x142F JUMPI POP PUSH0 MLOAD PUSH1 0x20 PUSH2 0x1C30 PUSH0 CODECOPY PUSH0 MLOAD SWAP1 PUSH0 MSTORE DUP6 LT ISZERO JUMPDEST DUP1 PUSH2 0x1447 JUMPI POP PUSH0 MLOAD PUSH1 0x20 PUSH2 0x1C30 PUSH0 CODECOPY PUSH0 MLOAD SWAP1 PUSH0 MSTORE DUP5 LT ISZERO JUMPDEST DUP1 PUSH2 0x145F JUMPI POP PUSH0 MLOAD PUSH1 0x20 PUSH2 0x1C30 PUSH0 CODECOPY PUSH0 MLOAD SWAP1 PUSH0 MSTORE DUP4 LT ISZERO JUMPDEST ISZERO PUSH2 0x147D JUMPI PUSH1 0x40 MLOAD PUSH4 0x1FF3747D PUSH1 0xE2 SHL DUP2 MSTORE PUSH1 0x4 ADD PUSH1 0x40 MLOAD DUP1 SWAP2 SUB SWAP1 REVERT JUMPDEST DUP3 DUP5 DUP7 DUP9 OR OR OR PUSH0 SUB PUSH2 0x1494 JUMPI POP PUSH0 SWAP1 POP DUP1 PUSH2 0x16D4 JUMP JUMPDEST PUSH0 DUP1 DUP1 PUSH0 MLOAD PUSH1 0x20 PUSH2 0x1C30 PUSH0 CODECOPY PUSH0 MLOAD SWAP1 PUSH0 MSTORE PUSH2 0x14BD PUSH1 0x3 PUSH0 MLOAD PUSH1 0x20 PUSH2 0x1C30 PUSH0 CODECOPY PUSH0 MLOAD SWAP1 PUSH0 MSTORE PUSH2 0x1C10 JUMP JUMPDEST PUSH0 MLOAD PUSH1 0x20 PUSH2 0x1C30 PUSH0 CODECOPY PUSH0 MLOAD SWAP1 PUSH0 MSTORE DUP11 DUP13 MULMOD MULMOD SWAP1 POP PUSH0 PUSH0 MLOAD PUSH1 0x20 PUSH2 0x1C30 PUSH0 CODECOPY PUSH0 MLOAD SWAP1 PUSH0 MSTORE DUP11 PUSH0 MLOAD PUSH1 0x20 PUSH2 0x1C30 PUSH0 CODECOPY PUSH0 MLOAD SWAP1 PUSH0 MSTORE DUP13 DUP14 MULMOD MULMOD SWAP1 POP PUSH0 PUSH0 MLOAD PUSH1 0x20 PUSH2 0x1C30 PUSH0 CODECOPY PUSH0 MLOAD SWAP1 PUSH0 MSTORE DUP11 PUSH0 MLOAD PUSH1 0x20 PUSH2 0x1C30 PUSH0 CODECOPY PUSH0 MLOAD SWAP1 PUSH0 MSTORE DUP13 DUP14 MULMOD MULMOD SWAP1 POP PUSH0 MLOAD PUSH1 0x20 PUSH2 0x1C30 PUSH0 CODECOPY PUSH0 MLOAD SWAP1 PUSH0 MSTORE DUP1 PUSH0 MLOAD PUSH1 0x20 PUSH2 0x1C30 PUSH0 CODECOPY PUSH0 MLOAD SWAP1 PUSH0 MSTORE DUP13 DUP7 MULMOD DUP5 ADDMOD PUSH32 0x2B149D40CEB8AAAE81BE18991BE06AC3B5B4C5E559DBEFA33267E6DC24A138E5 ADDMOD SWAP5 POP PUSH2 0x15AB PUSH0 MLOAD PUSH1 0x20 PUSH2 0x1C30 PUSH0 CODECOPY PUSH0 MLOAD SWAP1 PUSH0 MSTORE DUP1 PUSH0 MLOAD PUSH1 0x20 PUSH2 0x1C30 PUSH0 CODECOPY PUSH0 MLOAD SWAP1 PUSH0 MSTORE DUP15 DUP8 MULMOD DUP5 ADDMOD PUSH32 0x2FCD3AC2A640A154EB23960892A85A68F031CA0C8344B23A577DCF1052B9E775 ADDMOD PUSH2 0x173F JUMP JUMPDEST SWAP4 POP POP POP POP PUSH0 PUSH0 PUSH2 0x15F8 PUSH0 MLOAD PUSH1 0x20 PUSH2 0x1C30 PUSH0 CODECOPY PUSH0 MLOAD SWAP1 PUSH0 MSTORE DUP1 PUSH2 0x15D0 JUMPI PUSH2 0x15D0 PUSH2 0x1BDD JUMP JUMPDEST PUSH0 MLOAD PUSH1 0x20 PUSH2 0x1C30 PUSH0 CODECOPY PUSH0 MLOAD SWAP1 PUSH0 MSTORE DUP6 DUP7 MULMOD PUSH0 MLOAD PUSH1 0x20 PUSH2 0x1C30 PUSH0 CODECOPY PUSH0 MLOAD SWAP1 PUSH0 MSTORE DUP8 DUP9 MULMOD ADDMOD PUSH2 0x16DD JUMP JUMPDEST SWAP1 POP PUSH2 0x1643 PUSH0 MLOAD PUSH1 0x20 PUSH2 0x1C30 PUSH0 CODECOPY PUSH0 MLOAD SWAP1 PUSH0 MSTORE PUSH32 0x183227397098D014DC2822DB40C0AC2ECBC0B548B438E5469E10460B6C3E7EA4 PUSH0 MLOAD PUSH1 0x20 PUSH2 0x1C30 PUSH0 CODECOPY PUSH0 MLOAD SWAP1 PUSH0 MSTORE DUP5 DUP9 ADDMOD MULMOD PUSH2 0x188A JUMP JUMPDEST ISZERO SWAP2 POP POP PUSH2 0x1652 DUP4 DUP4 DUP4 PUSH2 0x1757 JUMP JUMPDEST SWAP1 SWAP4 POP SWAP2 POP DUP7 DUP4 EQ DUP1 ISZERO PUSH2 0x1665 JUMPI POP DUP2 DUP7 EQ JUMPDEST ISZERO PUSH2 0x168D JUMPI DUP1 PUSH2 0x1675 JUMPI PUSH0 PUSH2 0x1678 JUMP JUMPDEST PUSH1 0x2 JUMPDEST PUSH1 0xFF AND PUSH1 0x2 DUP11 SWAP1 SHL OR PUSH0 OR SWAP5 POP DUP8 SWAP4 POP PUSH2 0x16D0 JUMP JUMPDEST PUSH2 0x1696 DUP4 PUSH2 0x173F JUMP JUMPDEST DUP8 EQ DUP1 ISZERO PUSH2 0x16AB JUMPI POP PUSH2 0x16A8 DUP3 PUSH2 0x173F JUMP JUMPDEST DUP7 EQ JUMPDEST ISZERO PUSH2 0x13E3 JUMPI DUP1 PUSH2 0x16BB JUMPI PUSH0 PUSH2 0x16BE JUMP JUMPDEST PUSH1 0x2 JUMPDEST PUSH1 0xFF AND PUSH1 0x2 DUP11 SWAP1 SHL OR PUSH1 0x1 OR SWAP5 POP DUP8 SWAP4 POP JUMPDEST POP POP POP JUMPDEST SWAP5 POP SWAP5 SWAP3 POP POP POP JUMP JUMPDEST PUSH0 PUSH2 0x1708 DUP3 PUSH32 0xC19139CB84C680A6E14116DA060561765E05AA45A1C72A34F082305B61F3F52 PUSH2 0x18D2 JUMP JUMPDEST SWAP1 POP DUP2 PUSH0 MLOAD PUSH1 0x20 PUSH2 0x1C30 PUSH0 CODECOPY PUSH0 MLOAD SWAP1 PUSH0 MSTORE DUP3 DUP4 MULMOD EQ PUSH2 0x173A JUMPI PUSH1 0x40 MLOAD PUSH4 0x1FF3747D PUSH1 0xE2 SHL DUP2 MSTORE PUSH1 0x4 ADD PUSH1 0x40 MLOAD DUP1 SWAP2 SUB SWAP1 REVERT JUMPDEST SWAP2 SWAP1 POP JUMP JUMPDEST PUSH0 MLOAD PUSH1 0x20 PUSH2 0x1C30 PUSH0 CODECOPY PUSH0 MLOAD SWAP1 PUSH0 MSTORE SWAP1 DUP2 SWAP1 MOD DUP2 SUB MOD SWAP1 JUMP JUMPDEST PUSH0 DUP1 DUP1 PUSH2 0x1786 PUSH0 MLOAD PUSH1 0x20 PUSH2 0x1C30 PUSH0 CODECOPY PUSH0 MLOAD SWAP1 PUSH0 MSTORE DUP1 DUP8 DUP9 MULMOD PUSH0 MLOAD PUSH1 0x20 PUSH2 0x1C30 PUSH0 CODECOPY PUSH0 MLOAD SWAP1 PUSH0 MSTORE DUP10 DUP11 MULMOD ADDMOD PUSH2 0x16DD JUMP JUMPDEST SWAP1 POP DUP4 ISZERO PUSH2 0x179A JUMPI PUSH2 0x1797 DUP2 PUSH2 0x173F JUMP JUMPDEST SWAP1 POP JUMPDEST PUSH2 0x17E3 PUSH0 MLOAD PUSH1 0x20 PUSH2 0x1C30 PUSH0 CODECOPY PUSH0 MLOAD SWAP1 PUSH0 MSTORE PUSH32 0x183227397098D014DC2822DB40C0AC2ECBC0B548B438E5469E10460B6C3E7EA4 PUSH0 MLOAD PUSH1 0x20 PUSH2 0x1C30 PUSH0 CODECOPY PUSH0 MLOAD SWAP1 PUSH0 MSTORE DUP5 DUP11 ADDMOD MULMOD PUSH2 0x16DD JUMP JUMPDEST SWAP3 POP PUSH0 MLOAD PUSH1 0x20 PUSH2 0x1C30 PUSH0 CODECOPY PUSH0 MLOAD SWAP1 PUSH0 MSTORE PUSH2 0x180D PUSH0 MLOAD PUSH1 0x20 PUSH2 0x1C30 PUSH0 CODECOPY PUSH0 MLOAD SWAP1 PUSH0 MSTORE PUSH1 0x2 DUP7 MULMOD PUSH2 0x1935 JUMP JUMPDEST DUP7 MULMOD SWAP2 POP PUSH0 MLOAD PUSH1 0x20 PUSH2 0x1C30 PUSH0 CODECOPY PUSH0 MLOAD SWAP1 PUSH0 MSTORE PUSH2 0x1838 PUSH0 MLOAD PUSH1 0x20 PUSH2 0x1C30 PUSH0 CODECOPY PUSH0 MLOAD SWAP1 PUSH0 MSTORE DUP5 DUP6 MULMOD PUSH2 0x173F JUMP JUMPDEST PUSH0 MLOAD PUSH1 0x20 PUSH2 0x1C30 PUSH0 CODECOPY PUSH0 MLOAD SWAP1 PUSH0 MSTORE DUP6 DUP7 MULMOD ADDMOD DUP7 EQ ISZERO DUP1 PUSH2 0x186C JUMPI POP PUSH0 MLOAD PUSH1 0x20 PUSH2 0x1C30 PUSH0 CODECOPY PUSH0 MLOAD SWAP1 PUSH0 MSTORE DUP1 DUP4 DUP6 MULMOD PUSH1 0x2 MULMOD DUP6 EQ ISZERO JUMPDEST ISZERO PUSH2 0x130E JUMPI PUSH1 0x40 MLOAD PUSH4 0x1FF3747D PUSH1 0xE2 SHL DUP2 MSTORE PUSH1 0x4 ADD PUSH1 0x40 MLOAD DUP1 SWAP2 SUB SWAP1 REVERT JUMPDEST PUSH0 PUSH0 PUSH2 0x18B6 DUP4 PUSH32 0xC19139CB84C680A6E14116DA060561765E05AA45A1C72A34F082305B61F3F52 PUSH2 0x18D2 JUMP JUMPDEST SWAP1 POP DUP3 PUSH0 MLOAD PUSH1 0x20 PUSH2 0x1C30 PUSH0 CODECOPY PUSH0 MLOAD SWAP1 PUSH0 MSTORE DUP3 DUP4 MULMOD EQ SWAP4 SWAP3 POP POP POP JUMP JUMPDEST PUSH0 PUSH0 PUSH1 0x40 MLOAD PUSH1 0x20 DUP2 MSTORE PUSH1 0x20 DUP1 DUP3 ADD MSTORE PUSH1 0x20 PUSH1 0x40 DUP3 ADD MSTORE DUP5 PUSH1 0x60 DUP3 ADD MSTORE DUP4 PUSH1 0x80 DUP3 ADD MSTORE PUSH0 MLOAD PUSH1 0x20 PUSH2 0x1C30 PUSH0 CODECOPY PUSH0 MLOAD SWAP1 PUSH0 MSTORE PUSH1 0xA0 DUP3 ADD MSTORE PUSH1 0x20 DUP2 PUSH1 0xC0 DUP4 PUSH1 0x5 GAS STATICCALL SWAP1 MLOAD SWAP3 POP SWAP1 POP DUP1 PUSH2 0x13FC JUMPI PUSH1 0x40 MLOAD PUSH4 0x1FF3747D PUSH1 0xE2 SHL DUP2 MSTORE PUSH1 0x4 ADD PUSH1 0x40 MLOAD DUP1 SWAP2 SUB SWAP1 REVERT JUMPDEST PUSH0 PUSH2 0x1960 DUP3 PUSH32 0x30644E72E131A029B85045B68181585D97816A916871CA8D3C208C16D87CFD45 PUSH2 0x18D2 JUMP JUMPDEST SWAP1 POP PUSH0 MLOAD PUSH1 0x20 PUSH2 0x1C30 PUSH0 CODECOPY PUSH0 MLOAD SWAP1 PUSH0 MSTORE DUP2 DUP4 MULMOD PUSH1 0x1 EQ PUSH2 0x173A JUMPI PUSH1 0x40 MLOAD PUSH4 0x1FF3747D PUSH1 0xE2 SHL DUP2 MSTORE PUSH1 0x4 ADD PUSH1 0x40 MLOAD DUP1 SWAP2 SUB SWAP1 REVERT JUMPDEST PUSH1 0x40 MLOAD DUP1 PUSH1 0x20 ADD PUSH1 0x40 MSTORE DUP1 PUSH1 0x1 SWAP1 PUSH1 0x20 DUP3 MUL DUP1 CALLDATASIZE DUP4 CALLDATACOPY POP SWAP2 SWAP3 SWAP2 POP POP JUMP JUMPDEST PUSH1 0x40 MLOAD DUP1 PUSH1 0x40 ADD PUSH1 0x40 MSTORE DUP1 PUSH1 0x2 SWAP1 PUSH1 0x20 DUP3 MUL DUP1 CALLDATASIZE DUP4 CALLDATACOPY POP SWAP2 SWAP3 SWAP2 POP POP JUMP JUMPDEST PUSH1 0x40 MLOAD DUP1 PUSH2 0x300 ADD PUSH1 0x40 MSTORE DUP1 PUSH1 0x18 SWAP1 PUSH1 0x20 DUP3 MUL DUP1 CALLDATASIZE DUP4 CALLDATACOPY POP SWAP2 SWAP3 SWAP2 POP POP JUMP JUMPDEST PUSH1 0x40 MLOAD DUP1 PUSH1 0x80 ADD PUSH1 0x40 MSTORE DUP1 PUSH1 0x4 SWAP1 PUSH1 0x20 DUP3 MUL DUP1 CALLDATASIZE DUP4 CALLDATACOPY POP SWAP2 SWAP3 SWAP2 POP POP JUMP JUMPDEST DUP1 PUSH2 0x120 DUP2 ADD DUP4 LT ISZERO PUSH2 0x13FE JUMPI PUSH0 PUSH0 REVERT JUMPDEST PUSH0 PUSH0 PUSH0 PUSH0 PUSH2 0x1E0 DUP6 DUP8 SUB SLT ISZERO PUSH2 0x1A31 JUMPI PUSH0 PUSH0 REVERT JUMPDEST PUSH1 0x80 DUP6 ADD DUP7 DUP2 GT ISZERO PUSH2 0x1A41 JUMPI PUSH0 PUSH0 REVERT JUMPDEST DUP6 SWAP5 POP PUSH1 0xA0 DUP7 ADD DUP8 DUP2 GT ISZERO PUSH2 0x1A54 JUMPI PUSH0 PUSH0 REVERT JUMPDEST SWAP1 SWAP4 POP CALLDATALOAD SWAP2 POP PUSH2 0x1A67 DUP7 PUSH1 0xC0 DUP8 ADD PUSH2 0x1A0C JUMP JUMPDEST SWAP1 POP SWAP3 SWAP6 SWAP2 SWAP5 POP SWAP3 POP JUMP JUMPDEST DUP1 PUSH2 0x100 DUP2 ADD DUP4 LT ISZERO PUSH2 0x13FE JUMPI PUSH0 PUSH0 REVERT JUMPDEST DUP1 PUSH1 0x40 DUP2 ADD DUP4 LT ISZERO PUSH2 0x13FE JUMPI PUSH0 PUSH0 REVERT JUMPDEST PUSH0 PUSH0 PUSH0 PUSH0 PUSH2 0x2A0 DUP6 DUP8 SUB SLT ISZERO PUSH2 0x1AA7 JUMPI PUSH0 PUSH0 REVERT JUMPDEST PUSH2 0x1AB1 DUP7 DUP7 PUSH2 0x1A72 JUMP JUMPDEST SWAP4 POP PUSH2 0x1AC1 DUP7 PUSH2 0x100 DUP8 ADD PUSH2 0x1A83 JUMP JUMPDEST SWAP3 POP PUSH2 0x1AD1 DUP7 PUSH2 0x140 DUP8 ADD PUSH2 0x1A83 JUMP JUMPDEST SWAP2 POP PUSH2 0x1A67 DUP7 PUSH2 0x180 DUP8 ADD PUSH2 0x1A0C JUMP JUMPDEST PUSH0 PUSH0 PUSH0 PUSH2 0x180 DUP5 DUP7 SUB SLT ISZERO PUSH2 0x1AF4 JUMPI PUSH0 PUSH0 REVERT JUMPDEST PUSH2 0x1AFE DUP6 DUP6 PUSH2 0x1A72 JUMP JUMPDEST SWAP3 POP PUSH2 0x1B0E DUP6 PUSH2 0x100 DUP7 ADD PUSH2 0x1A83 JUMP JUMPDEST SWAP2 POP PUSH2 0x1B1E DUP6 PUSH2 0x140 DUP7 ADD PUSH2 0x1A83 JUMP JUMPDEST SWAP1 POP SWAP3 POP SWAP3 POP SWAP3 JUMP JUMPDEST PUSH1 0xC0 DUP2 ADD DUP2 DUP6 PUSH0 JUMPDEST PUSH1 0x4 DUP2 LT ISZERO PUSH2 0x1B4E JUMPI DUP2 MLOAD DUP4 MSTORE PUSH1 0x20 SWAP3 DUP4 ADD SWAP3 SWAP1 SWAP2 ADD SWAP1 PUSH1 0x1 ADD PUSH2 0x1B2F JUMP JUMPDEST POP POP POP PUSH1 0x80 DUP3 ADD DUP5 PUSH0 JUMPDEST PUSH1 0x1 DUP2 LT ISZERO PUSH2 0x1B77 JUMPI DUP2 MLOAD DUP4 MSTORE PUSH1 0x20 SWAP3 DUP4 ADD SWAP3 SWAP1 SWAP2 ADD SWAP1 PUSH1 0x1 ADD PUSH2 0x1B58 JUMP JUMPDEST POP POP POP DUP3 PUSH1 0xA0 DUP4 ADD MSTORE SWAP5 SWAP4 POP POP POP POP JUMP JUMPDEST PUSH4 0x4E487B71 PUSH1 0xE0 SHL PUSH0 MSTORE PUSH1 0x32 PUSH1 0x4 MSTORE PUSH1 0x24 PUSH0 REVERT JUMPDEST DUP4 DUP2 MSTORE DUP3 PUSH1 0x20 DUP3 ADD MSTORE PUSH0 PUSH1 0x40 DUP3 ADD DUP4 MLOAD PUSH1 0x20 DUP6 ADD PUSH0 JUMPDEST DUP3 DUP2 LT ISZERO PUSH2 0x1BD0 JUMPI DUP2 MLOAD DUP5 MSTORE PUSH1 0x20 SWAP4 DUP5 ADD SWAP4 SWAP1 SWAP2 ADD SWAP1 PUSH1 0x1 ADD PUSH2 0x1BB2 JUMP JUMPDEST POP SWAP2 SWAP8 SWAP7 POP POP POP POP POP POP POP JUMP JUMPDEST PUSH4 0x4E487B71 PUSH1 0xE0 SHL PUSH0 MSTORE PUSH1 0x12 PUSH1 0x4 MSTORE PUSH1 0x24 PUSH0 REVERT JUMPDEST PUSH0 DUP3 PUSH2 0x1C0B JUMPI PUSH4 0x4E487B71 PUSH1 0xE0 SHL PUSH0 MSTORE PUSH1 0x12 PUSH1 0x4 MSTORE PUSH1 0x24 PUSH0 REVERT JUMPDEST POP MOD SWAP1 JUMP JUMPDEST DUP2 DUP2 SUB DUP2 DUP2 GT ISZERO PUSH2 0x13FE JUMPI PUSH4 0x4E487B71 PUSH1 0xE0 SHL PUSH0 MSTORE PUSH1 0x11 PUSH1 0x4 MSTORE PUSH1 0x24 PUSH0 REVERT INVALID ADDRESS PUSH5 0x4E72E131A0 0x29 0xB8 POP GASLIMIT 0xB6 DUP2 DUP2 PC TSTORE SWAP8 DUP2 PUSH11 0x916871CA8D3C208C16D87C REVERT SELFBALANCE ADDRESS PUSH5 0x4E72E131A0 0x29 0xB8 POP GASLIMIT 0xB6 DUP2 DUP2 PC TSTORE 0x28 CALLER 0xE8 BASEFEE PUSH26 0xB9709143E1F593F0000001A264697066735822122071B9FEC6CD GAS DUP16 SHR DUP6 DUP3 0xAC OR PUSH31 0xF2E09FA69338B2D5343F65E8ADB7BDD8CDD4A364736F6C634300081C003300 "},"methodIdentifiers":{"compressProof(uint256[8],uint256[2],uint256[2])":"b1c3a00e","verifyCompressedProof(uint256[4],uint256[1],uint256,uint256[9])":"5d26278e","verifyProof(uint256[8],uint256[2],uint256[2],uint256[9])":"60e58346"}}}}}