{"src/ProcessRegistry.sol":{"ProcessRegistry":{"abi":[{"inputs":[{"internalType":"uint32","name":"_chainID","type":"uint32"},{"internalType":"address","name":"_stVerifier","type":"address"},{"internalType":"address","name":"_rVerifier","type":"address"},{"internalType":"bool","name":"_blobsDA","type":"bool"}],"stateMutability":"nonpayable","type":"constructor"},{"inputs":[],"name":"BlobNotFoundInTx","type":"error"},{"inputs":[],"name":"CannotAcceptResult","type":"error"},{"inputs":[],"name":"CensusNotUpdatable","type":"error"},{"inputs":[{"internalType":"uint8","name":"limbIndex","type":"uint8"}],"name":"InvalidBlobCommitmentLimb","type":"error"},{"inputs":[],"name":"InvalidCensusOrigin","type":"error"},{"inputs":[],"name":"InvalidCensusRoot","type":"error"},{"inputs":[],"name":"InvalidCensusURI","type":"error"},{"inputs":[],"name":"InvalidDuration","type":"error"},{"inputs":[],"name":"InvalidMaxCount","type":"error"},{"inputs":[],"name":"InvalidMaxMinValueBounds","type":"error"},{"inputs":[],"name":"InvalidMaxValue","type":"error"},{"inputs":[],"name":"InvalidMaxValueSum","type":"error"},{"inputs":[],"name":"InvalidMaxVoters","type":"error"},{"inputs":[],"name":"InvalidMinTotalCost","type":"error"},{"inputs":[],"name":"InvalidMinValue","type":"error"},{"inputs":[],"name":"InvalidProcessId","type":"error"},{"inputs":[],"name":"InvalidStartTime","type":"error"},{"inputs":[],"name":"InvalidStateRoot","type":"error"},{"inputs":[],"name":"InvalidStatus","type":"error"},{"inputs":[],"name":"InvalidTimeBounds","type":"error"},{"inputs":[],"name":"InvalidUniqueValues","type":"error"},{"inputs":[],"name":"InvalidValueSumBounds","type":"error"},{"inputs":[],"name":"MaxVotersReached","type":"error"},{"inputs":[],"name":"ProcessAlreadyExists","type":"error"},{"inputs":[],"name":"ProcessNotEnded","type":"error"},{"inputs":[],"name":"ProcessNotFound","type":"error"},{"inputs":[],"name":"ProofInvalid","type":"error"},{"inputs":[],"name":"Unauthorized","type":"error"},{"inputs":[],"name":"UnknownProcessIdPrefix","type":"error"},{"anonymous":false,"inputs":[{"indexed":true,"internalType":"bytes32","name":"processId","type":"bytes32"},{"indexed":false,"internalType":"bytes32","name":"censusRoot","type":"bytes32"},{"indexed":false,"internalType":"string","name":"censusURI","type":"string"}],"name":"CensusUpdated","type":"event"},{"anonymous":false,"inputs":[{"indexed":true,"internalType":"bytes32","name":"processId","type":"bytes32"},{"indexed":true,"internalType":"address","name":"creator","type":"address"}],"name":"ProcessCreated","type":"event"},{"anonymous":false,"inputs":[{"indexed":true,"internalType":"bytes32","name":"processId","type":"bytes32"},{"indexed":false,"internalType":"uint256","name":"duration","type":"uint256"}],"name":"ProcessDurationChanged","type":"event"},{"anonymous":false,"inputs":[{"indexed":true,"internalType":"bytes32","name":"processId","type":"bytes32"},{"indexed":false,"internalType":"uint256","name":"maxVoters","type":"uint256"}],"name":"ProcessMaxVotersChanged","type":"event"},{"anonymous":false,"inputs":[{"indexed":true,"internalType":"bytes32","name":"processId","type":"bytes32"},{"indexed":true,"internalType":"address","name":"sender","type":"address"},{"indexed":false,"internalType":"uint256[]","name":"result","type":"uint256[]"}],"name":"ProcessResultsSet","type":"event"},{"anonymous":false,"inputs":[{"indexed":true,"internalType":"bytes32","name":"processId","type":"bytes32"},{"indexed":true,"internalType":"address","name":"sender","type":"address"},{"indexed":false,"internalType":"uint256","name":"oldStateRoot","type":"uint256"},{"indexed":false,"internalType":"uint256","name":"newStateRoot","type":"uint256"},{"indexed":false,"internalType":"uint256","name":"newVotersCount","type":"uint256"},{"indexed":false,"internalType":"uint256","name":"newOverwrittenVotesCount","type":"uint256"}],"name":"ProcessStateTransitioned","type":"event"},{"anonymous":false,"inputs":[{"indexed":true,"internalType":"bytes32","name":"processId","type":"bytes32"},{"indexed":false,"internalType":"enum IProcessRegistry.ProcessStatus","name":"oldStatus","type":"uint8"},{"indexed":false,"internalType":"enum IProcessRegistry.ProcessStatus","name":"newStatus","type":"uint8"}],"name":"ProcessStatusChanged","type":"event"},{"inputs":[],"name":"BLOB_INDEX","outputs":[{"internalType":"uint8","name":"","type":"uint8"}],"stateMutability":"view","type":"function"},{"inputs":[],"name":"MAX_CENSUS_ORIGIN","outputs":[{"internalType":"uint8","name":"","type":"uint8"}],"stateMutability":"view","type":"function"},{"inputs":[],"name":"MAX_STATUS","outputs":[{"internalType":"uint8","name":"","type":"uint8"}],"stateMutability":"view","type":"function"},{"inputs":[],"name":"blobsDA","outputs":[{"internalType":"bool","name":"","type":"bool"}],"stateMutability":"view","type":"function"},{"inputs":[],"name":"chainID","outputs":[{"internalType":"uint32","name":"","type":"uint32"}],"stateMutability":"view","type":"function"},{"inputs":[{"internalType":"address","name":"organizationId","type":"address"}],"name":"getNextProcessId","outputs":[{"internalType":"bytes32","name":"","type":"bytes32"}],"stateMutability":"view","type":"function"},{"inputs":[{"internalType":"bytes32","name":"processId","type":"bytes32"}],"name":"getProcess","outputs":[{"components":[{"internalType":"enum IProcessRegistry.ProcessStatus","name":"status","type":"uint8"},{"internalType":"address","name":"organizationId","type":"address"},{"components":[{"internalType":"uint256","name":"x","type":"uint256"},{"internalType":"uint256","name":"y","type":"uint256"}],"internalType":"struct IProcessRegistry.EncryptionKey","name":"encryptionKey","type":"tuple"},{"internalType":"uint256","name":"latestStateRoot","type":"uint256"},{"internalType":"uint256[]","name":"result","type":"uint256[]"},{"internalType":"uint256","name":"startTime","type":"uint256"},{"internalType":"uint256","name":"duration","type":"uint256"},{"internalType":"uint256","name":"maxVoters","type":"uint256"},{"internalType":"uint256","name":"votersCount","type":"uint256"},{"internalType":"uint256","name":"overwrittenVotesCount","type":"uint256"},{"internalType":"uint256","name":"creationBlock","type":"uint256"},{"internalType":"uint256","name":"batchNumber","type":"uint256"},{"internalType":"string","name":"metadataURI","type":"string"},{"components":[{"internalType":"bool","name":"costFromWeight","type":"bool"},{"internalType":"bool","name":"uniqueValues","type":"bool"},{"internalType":"uint8","name":"numFields","type":"uint8"},{"internalType":"uint8","name":"costExponent","type":"uint8"},{"internalType":"uint256","name":"maxValue","type":"uint256"},{"internalType":"uint256","name":"minValue","type":"uint256"},{"internalType":"uint256","name":"maxValueSum","type":"uint256"},{"internalType":"uint256","name":"minValueSum","type":"uint256"}],"internalType":"struct IProcessRegistry.BallotMode","name":"ballotMode","type":"tuple"},{"components":[{"internalType":"enum IProcessRegistry.CensusOrigin","name":"censusOrigin","type":"uint8"},{"internalType":"bytes32","name":"censusRoot","type":"bytes32"},{"internalType":"string","name":"censusURI","type":"string"}],"internalType":"struct IProcessRegistry.Census","name":"census","type":"tuple"}],"internalType":"struct IProcessRegistry.Process","name":"","type":"tuple"}],"stateMutability":"view","type":"function"},{"inputs":[{"internalType":"bytes32","name":"processId","type":"bytes32"}],"name":"getProcessEndTime","outputs":[{"internalType":"uint256","name":"","type":"uint256"}],"stateMutability":"view","type":"function"},{"inputs":[],"name":"getRVerifierVKeyHash","outputs":[{"internalType":"bytes32","name":"","type":"bytes32"}],"stateMutability":"view","type":"function"},{"inputs":[],"name":"getSTVerifierVKeyHash","outputs":[{"internalType":"bytes32","name":"","type":"bytes32"}],"stateMutability":"view","type":"function"},{"inputs":[{"internalType":"enum IProcessRegistry.ProcessStatus","name":"status","type":"uint8"},{"internalType":"uint256","name":"startTime","type":"uint256"},{"internalType":"uint256","name":"duration","type":"uint256"},{"internalType":"uint256","name":"maxVoters","type":"uint256"},{"components":[{"internalType":"bool","name":"costFromWeight","type":"bool"},{"internalType":"bool","name":"uniqueValues","type":"bool"},{"internalType":"uint8","name":"numFields","type":"uint8"},{"internalType":"uint8","name":"costExponent","type":"uint8"},{"internalType":"uint256","name":"maxValue","type":"uint256"},{"internalType":"uint256","name":"minValue","type":"uint256"},{"internalType":"uint256","name":"maxValueSum","type":"uint256"},{"internalType":"uint256","name":"minValueSum","type":"uint256"}],"internalType":"struct IProcessRegistry.BallotMode","name":"ballotMode","type":"tuple"},{"components":[{"internalType":"enum IProcessRegistry.CensusOrigin","name":"censusOrigin","type":"uint8"},{"internalType":"bytes32","name":"censusRoot","type":"bytes32"},{"internalType":"string","name":"censusURI","type":"string"}],"internalType":"struct IProcessRegistry.Census","name":"census","type":"tuple"},{"internalType":"string","name":"metadata","type":"string"},{"components":[{"internalType":"uint256","name":"x","type":"uint256"},{"internalType":"uint256","name":"y","type":"uint256"}],"internalType":"struct IProcessRegistry.EncryptionKey","name":"encryptionKey","type":"tuple"},{"internalType":"uint256","name":"initStateRoot","type":"uint256"}],"name":"newProcess","outputs":[{"internalType":"bytes32","name":"","type":"bytes32"}],"stateMutability":"nonpayable","type":"function"},{"inputs":[],"name":"pidPrefix","outputs":[{"internalType":"uint32","name":"","type":"uint32"}],"stateMutability":"view","type":"function"},{"inputs":[],"name":"processCount","outputs":[{"internalType":"uint32","name":"","type":"uint32"}],"stateMutability":"view","type":"function"},{"inputs":[{"internalType":"address","name":"","type":"address"}],"name":"processNonce","outputs":[{"internalType":"uint64","name":"","type":"uint64"}],"stateMutability":"view","type":"function"},{"inputs":[{"internalType":"bytes32","name":"","type":"bytes32"}],"name":"processes","outputs":[{"internalType":"enum IProcessRegistry.ProcessStatus","name":"status","type":"uint8"},{"internalType":"address","name":"organizationId","type":"address"},{"components":[{"internalType":"uint256","name":"x","type":"uint256"},{"internalType":"uint256","name":"y","type":"uint256"}],"internalType":"struct IProcessRegistry.EncryptionKey","name":"encryptionKey","type":"tuple"},{"internalType":"uint256","name":"latestStateRoot","type":"uint256"},{"internalType":"uint256","name":"startTime","type":"uint256"},{"internalType":"uint256","name":"duration","type":"uint256"},{"internalType":"uint256","name":"maxVoters","type":"uint256"},{"internalType":"uint256","name":"votersCount","type":"uint256"},{"internalType":"uint256","name":"overwrittenVotesCount","type":"uint256"},{"internalType":"uint256","name":"creationBlock","type":"uint256"},{"internalType":"uint256","name":"batchNumber","type":"uint256"},{"internalType":"string","name":"metadataURI","type":"string"},{"components":[{"internalType":"bool","name":"costFromWeight","type":"bool"},{"internalType":"bool","name":"uniqueValues","type":"bool"},{"internalType":"uint8","name":"numFields","type":"uint8"},{"internalType":"uint8","name":"costExponent","type":"uint8"},{"internalType":"uint256","name":"maxValue","type":"uint256"},{"internalType":"uint256","name":"minValue","type":"uint256"},{"internalType":"uint256","name":"maxValueSum","type":"uint256"},{"internalType":"uint256","name":"minValueSum","type":"uint256"}],"internalType":"struct IProcessRegistry.BallotMode","name":"ballotMode","type":"tuple"},{"components":[{"internalType":"enum IProcessRegistry.CensusOrigin","name":"censusOrigin","type":"uint8"},{"internalType":"bytes32","name":"censusRoot","type":"bytes32"},{"internalType":"string","name":"censusURI","type":"string"}],"internalType":"struct IProcessRegistry.Census","name":"census","type":"tuple"}],"stateMutability":"view","type":"function"},{"inputs":[],"name":"rVerifier","outputs":[{"internalType":"address","name":"","type":"address"}],"stateMutability":"view","type":"function"},{"inputs":[{"internalType":"bytes32","name":"processId","type":"bytes32"},{"components":[{"internalType":"enum IProcessRegistry.CensusOrigin","name":"censusOrigin","type":"uint8"},{"internalType":"bytes32","name":"censusRoot","type":"bytes32"},{"internalType":"string","name":"censusURI","type":"string"}],"internalType":"struct IProcessRegistry.Census","name":"census","type":"tuple"}],"name":"setProcessCensus","outputs":[],"stateMutability":"nonpayable","type":"function"},{"inputs":[{"internalType":"bytes32","name":"processId","type":"bytes32"},{"internalType":"uint256","name":"_duration","type":"uint256"}],"name":"setProcessDuration","outputs":[],"stateMutability":"nonpayable","type":"function"},{"inputs":[{"internalType":"bytes32","name":"processId","type":"bytes32"},{"internalType":"uint256","name":"_maxVoters","type":"uint256"}],"name":"setProcessMaxVoters","outputs":[],"stateMutability":"nonpayable","type":"function"},{"inputs":[{"internalType":"bytes32","name":"processId","type":"bytes32"},{"internalType":"bytes","name":"proof","type":"bytes"},{"internalType":"bytes","name":"input","type":"bytes"}],"name":"setProcessResults","outputs":[],"stateMutability":"nonpayable","type":"function"},{"inputs":[{"internalType":"bytes32","name":"processId","type":"bytes32"},{"internalType":"enum IProcessRegistry.ProcessStatus","name":"newStatus","type":"uint8"}],"name":"setProcessStatus","outputs":[],"stateMutability":"nonpayable","type":"function"},{"inputs":[],"name":"stVerifier","outputs":[{"internalType":"address","name":"","type":"address"}],"stateMutability":"view","type":"function"},{"inputs":[{"internalType":"bytes32","name":"processId","type":"bytes32"},{"internalType":"bytes","name":"proof","type":"bytes"},{"internalType":"bytes","name":"input","type":"bytes"}],"name":"submitStateTransition","outputs":[],"stateMutability":"nonpayable","type":"function"}],"evm":{"bytecode":{"linkReferences":{},"object":"6080806040523461011e57608081612636803803809161001f8285610122565b83398101031261011e57805163ffffffff8116810361011e5761004460208301610159565b606061005260408501610159565b9301519182151580930361011e5760028054600354600160201b600160e01b0319909116604094851b600160401b600160e01b031617602084811b67ffffffff000000001691909117909255925160e09290921b6001600160e01b0319169082019081523060601b6024830152601882526100ce603883610122565b9051902063ffffffff60a01b60a09190911b166001600160a01b03939093166001600160c81b0319919091161760ff60c01b60c09290921b9190911617176003556040516124c8908161016e8239f35b5f80fd5b601f909101601f19168101906001600160401b0382119082101761014557604052565b634e487b7160e01b5f52604160045260245ffd5b51906001600160a01b038216820361011e5756fe6080806040526004361015610012575f80fd5b5f905f3560e01c90816302cc919a14611e79575080630535fece14611d5b5780630970639214611d3157806326795bc314611d175780634c0acc5614611cc757806356a6f1e214611b8e57806362fa11fc14611b4957806368141f2c14611adb57806372c628ef14611ac057806374e07826146119e457806375462f70146113b3578063848df54014611390578063992bc45b146110ba5780639c18deaf14611092578063a5b110de14610d16578063a5f01e1914610bb1578063adc879e914610b8b578063c718c01f14610a14578063cddf08bc146109ed578063cdf497c8146109c7578063d71d072e14610513578063f4c2a3bb146101b05763f9aa44991461011b575f80fd5b346101ad57806003193601126101ad5760035460405163233ace1160e01b81529190602090839060049082906001600160a01b03165afa9081156101a1579061016a575b602090604051908152f35b506020813d602011610199575b8161018460209383611f00565b81010312610195576020905161015f565b5f80fd5b3d9150610177565b604051903d90823e3d90fd5b80fd5b50346101ad5760403660031901126101ad576004356024356001600160401b03811161050f57806004016060600319833603011261050b5782156104fc5763ffffffff8060035460a01c161663ffffffff8460401c16036104ed5782845260208490526040842080549190600883901c6001600160a01b031680156104de5733036104d05760ff601282015416600681101561047c57600281036104c15782359060068210156104bd57036104ae57602484013593841561049f5760440192610279848461228a565b9050156104905760ff16600581101561047c578015159081610470575b50610461576102ae60058201546006830154906122f8565b4210156104525783601382015560146102c7848461228a565b91909201916001600160401b03821161043e576102e48354611f3f565b601f8111610403575b508790601f831160011461037557928261036496937f87e1c82bc035c552e997ec2f1cf023790ced0cc01098d516dc6e7200835ffb27989693610349968c9261036a575b50508160011b915f199060031b1c191617905561228a565b92906040519384938452604060208501526040840191612305565b0390a280f35b013590505f80610331565b8389526020892091601f1984168a5b8181106103eb5750937f87e1c82bc035c552e997ec2f1cf023790ced0cc01098d516dc6e7200835ffb279896936103499693600193836103649b98106103d2575b505050811b01905561228a565b01355f19600384901b60f8161c191690555f80806103c5565b91936020600181928787013581550195019201610384565b61042e90848a5260208a20601f850160051c81019160208610610434575b601f0160051c0190612264565b5f6102ed565b9091508190610421565b634e487b7160e01b88526041600452602488fd5b63e843c5eb60e01b8652600486fd5b6307a92f1960e51b8652600486fd5b6003915014155f610296565b634e487b7160e01b87526021600452602487fd5b630f8b932160e11b8752600487fd5b635e32eadd60e01b8752600487fd5b63f37f7b5d60e01b8652600486fd5b8780fd5b63050b77c760e21b8752600487fd5b6282b42960e81b8652600486fd5b634d36eb6960e01b8752600487fd5b632299770d60e11b8452600484fd5b63cbf4a64560e01b8452600484fd5b8380fd5b8280fd5b50346101ad57610522366121ea565b9093929183156109b8576003549163ffffffff808460a01c161663ffffffff8660401c16036109a957848752866020526040872093845460018060a01b038160081c161561099a5760ff166005811015610986576109775761058d60058601546006870154906122f8565b4210156109685761059c6122bc565b5081870196610100818903126109645787601f8201121561096457604051976101006105c8818b611f00565b899083019182116109605782905b82821061095057505050875193602089015198604081015195606082015160808301519060a08401519860c08501519460e00151936040519e8f9161061a83611ee4565b825260208201526040015260608d015260808c0190815260a08c0197885260c08c0192835260e08c0191825260128a015460ff16600681101561093c5760031461087e575b508a519660038a019788540361086f5760408c015160608d015161068291612257565b988915158061085d575b61084e579060ff8e9897969594939260c01c1661079b575b505060025460401c6001600160a01b0316919050813b1561078c5785936106e160405196879586948594635c73957b60e11b865260048601612325565b03915afa801561079057610777575b505060208501519055610708600883019182546122f8565b809155600b606085015192610722600982019485546122f8565b80945501610730815461234c565b9055602084519401516040519485526020850152604084015260608301527f43b1a882c73bc84ae667608d3a61baececd99134224962eba9d13eb63c595ae160803393a380f35b8161078191611f00565b61078c57855f6106f0565b8580fd5b6040513d84823e3d90fd5b9091929394959650519151905190604051926107b8606085611f00565b60308452602084019060403683378060801c61083a5760801b90528060801c6108265760801b60308301528060801c610812576108058c969594939261080a9260801b604082015261241e565b612461565b5f80806106a4565b6316416a3d60e01b8c52600260045260248cfd5b6316416a3d60e01b8d52600160045260248dfd5b6316416a3d60e01b8f5260048f905260248ffd5b6357d18d5360e11b8e5260048efd5b5060088b015460078c0154111561068c565b630b6fac0360e41b8d5260048dfd5b8c604060018060a01b0360138d015416925160248251809581936306c8442b60e01b835260048301525afa91821561092f5781926108e4575b50159081156108db575b506108cc575f61065f565b635e32eadd60e01b8c5260048cfd5b9050155f6108c1565b9150506040813d604011610927575b8161090060409383611f00565b8101031261092357805190811515820361091f5760200151905f6108b7565b8d80fd5b8c80fd5b3d91506108f3565b50604051903d90823e3d90fd5b634e487b7160e01b8e52602160045260248efd5b81358152602091820191016105d6565b8a80fd5b8880fd5b63e843c5eb60e01b8852600488fd5b6307a92f1960e51b8852600488fd5b634e487b7160e01b89526021600452602489fd5b634d36eb6960e01b8952600489fd5b632299770d60e11b8752600487fd5b63cbf4a64560e01b8652600486fd5b50346101ad57806003193601126101ad57602060ff60035460c01c166040519015158152f35b50346101ad57806003193601126101ad57602063ffffffff60035460a01c16604051908152f35b50346101ad57610a2336612174565b8115610b7c5763ffffffff8060035460a01c161663ffffffff8360401c1603610b6d578183526020839052604083208054600881901c6001600160a01b03168015610b5e573303610b505760ff166005811015610b3c578015159081610b30575b50610b2157600660058201549101908154908315918215610b0c575b8215610aed575b5050610ade57817f0f759826327c668a220d576485ac38ddc4f83fbc414b984c00e79f669b649f469260209255604051908152a280f35b637616640160e01b8452600484fd5b819250610afd85610b03936122f8565b926122f8565b10155f80610aa7565b9150610b1884826122f8565b42101591610aa0565b6307a92f1960e51b8452600484fd5b6003915014155f610a84565b634e487b7160e01b85526021600452602485fd5b6282b42960e81b8552600485fd5b634d36eb6960e01b8652600486fd5b632299770d60e11b8352600483fd5b63cbf4a64560e01b8352600483fd5b50346101ad57806003193601126101ad57602063ffffffff600254821c16604051908152f35b50346101ad5760203660031901126101ad57600435815280602052604081209060405190610bde82611e92565b825460ff81166005811015610d0257835260081c6001600160a01b03166020830152610c0c60018401611f21565b60408301526003830154606083015260048301604051918260208354918281520192825260208220915b818110610cec576020610ce4888888610c51818a0382611f00565b608082015260058201549060a081019182526101c0610cd8601260068601549560c08501968752600781015460e086015260088101546101008601526009810154610120860152600a810154610140860152600b810154610160860152610cba600c8201611f77565b610180860152610ccc600d8201612017565b6101a08601520161207b565b910152519051906122f8565b604051908152f35b8254845260209093019260019283019201610c36565b634e487b7160e01b83526021600452602483fd5b503461019557610d25366121ea565b8491929495939515611083576003549563ffffffff808860a01c161663ffffffff8460401c160361107457825f525f60205260405f2095865460018060a01b038160081c16156110655760ff16976005891015806110365760028a148015611059575b61104a576110365760018914158061101b575b61100c576001600160a01b031691823b156101955783925f928792610dd660405196879586948594635c73957b60e11b865260048601612325565b03915afa801561100157610fec575b508201946101208387031261050b5785601f8401121561050b576101209560405193610e118886611f00565b8490888101928311610fe857905b828210610fd8575050508251600386015403610fc95760405195610e438188611f00565b600887526020870190601f190136823760015b6009811015610eb3578060051b8501515f198201828111610e9f578951811015610e8b5760051b890160200152600101610e56565b634e487b7160e01b88526032600452602488fd5b634e487b7160e01b88526011600452602488fd5b508693506004868160ff19825416178155018451916001600160401b038311610fb557680100000000000000008311610fb5578154838355808410610f9a575b50908493929190875260208720875b838110610f83575050505060407f2f25f350b681441b5bb45430fbe61e78d0170cff4ad02cb0aa48a6427909aa8c91610f3d825180926120b9565b60046020820152a27f5da8009aeb11de7ef64598b0de897a03d2f93efabda8507a70e29cca4530cf5d6040516020815280610f7d339560208301906121b7565b0390a380f35b825181830155869550602090920191600101610f02565b82885260208820610faf918101908501612264565b87610ef3565b634e487b7160e01b87526041600452602487fd5b630b6fac0360e41b8452600484fd5b8135815260209182019101610e1f565b8680fd5b610ff99194505f90611f00565b5f925f610de5565b6040513d5f823e3d90fd5b63e843c5eb60e01b5f5260045ffd5b5061102f600589015460068a0154906122f8565b4210610d9b565b634e487b7160e01b5f52602160045260245ffd5b6307a92f1960e51b5f5260045ffd5b50505f60048a14610d88565b634d36eb6960e01b5f5260045ffd5b632299770d60e11b5f5260045ffd5b63cbf4a64560e01b5f5260045ffd5b34610195575f366003190112610195576003546040516001600160a01b039091168152602090f35b34610195576020366003190112610195576040516110d781611e92565b5f81525f60208201526040516110ec81611eae565b5f81525f602082015260408201525f6060820152606060808201525f60a08201525f60c08201525f60e08201525f6101008201525f6101208201525f6101408201525f61016082015260606101808201526111456122bc565b6101a08201526101c06040519161115b83611ec9565b5f83525f60208401526060604084015201526004355f525f60205260405f206040519061118782611e92565b80549060ff8216600581101561103657835260089190911c6001600160a01b031660208301908152906111bc60018201611f21565b9260408101938452600382015460608201908152600483019060405180928391602082549182815201915f5260205f20905f5b81811061137757505050036112049083611f00565b6080830191825260058401549160a08401928352600685015460c08501908152600786015460e08601908152600887015461010087019081526009880154916101208801928352600a890154936101408901948552600b8a0154956101608a01968752600c8b0161127490611f77565b6101808b0190815297611289600d8d01612017565b9b6101a08c019c8d5260120161129e9061207b565b9a6101c081019b8c526040519e8f9e8f9260208452602084019051906112c3916120b9565b516001600160a01b031660408301525180516060830152602001516080909101525160a08d0152516102e060c08d0152611302906103008d01906121b7565b975160e08c0152516101008b0152516101208a0152516101408901525161016088015251610180870152516101a086015251848203601f19016101c086015261134b91906120c6565b91516101e0840161135b916120ea565b51828203601f19016102e0840152611373919061213f565b0390f35b82548452869450602090930192600192830192016111ef565b34610195575f36600319011261019557602063ffffffff60025416604051908152f35b346101955761022036600319011261019557600435600581101561019557602435906044359060643561010036608319011261019557610184356001600160401b03811161019557806004019460606003198336030112610195576101a4356001600160401b0381116101955761142e90369060040161218a565b91909560406101c31936011261019557600354335f81815260016020526040902054606091821b6bffffffffffffffffffffffff19169290911c63ffffffff60401b16919091176001600160401b039190911617968293885f525f6020523360018060a01b0360405f205460081c16146119d55760ff6114ac61227a565b161580156119c1575b6119b257610144359161ffff83116119a35761012435916101043598898411611994576101643595858711611985578115611976578d3560068110156101955760ff1697600589116119675760248b0135998a15611958578f9b604461151d9101809d61228a565b90501561194957600460ff8f1611801561192c575b61104a578115611925575b4281106119165761154f8342926122f8565b1115611907578d5f525f60205261156a60405f209d8e61223f565b60058d015560068c015560078b01558954610100600160a81b0319163360081b610100600160a81b0316178a556101c43560018b01556101e43560028b01556102043560038b0155600c8a01916001600160401b0382116118515781906115d18454611f3f565b601f81116118d7575b505f90601f8311600114611870575f92611865575b50508160011b915f199060031b1c19161790555b600d88019660843597881515988981036101955750805460a43580151590818103610195575062ff000061163561227a565b60101b169060e43560ff81168103610195576116a99c63ff0000008261ff00935060181b169460ff63ff0000001992169062ffffff191617169160081b161717179055600e890155600f88015560108701556011860155601285019060ff198254161790556013840155601483019461228a565b6001600160401b038195929511611851576116c48254611f3f565b601f8111611821575b505f601f82116001146117be5781929394955f926117b3575b50508160011b915f199060031b1c19161790555b600a4391015560025463ffffffff811663ffffffff811461179f57600163ffffffff9101169063ffffffff191617600255335f52600160205260405f20908154916001600160401b038316926001600160401b03841461179f576001600160401b0360016020950116906001600160401b0319161790556040519033817fada6f87a2a16a0c9c169ca36754c5f33f7c1a973b575d068f888a549ed4faefa5f80a38152f35b634e487b7160e01b5f52601160045260245ffd5b0135905085806116e6565b601f19821695835f5260205f20915f5b888110611809575083600195969798106117f0575b505050811b0190556116fa565b01355f19600384901b60f8161c191690558580806117e3565b909260206001819286860135815501940191016117ce565b61184b90835f5260205f20601f840160051c8101916020851061043457601f0160051c0190612264565b856116cd565b634e487b7160e01b5f52604160045260245ffd5b013590508d806115ef565b909150601f19831691845f5260205f20925f5b8181106118bf57509084600195949392106118a6575b505050811b019055611603565b01355f19600384901b60f8161c191690558d8080611899565b91936020600181928787013581550195019201611883565b61190190855f5260205f20601f850160051c8101916020861061043457601f0160051c0190612264565b8e6115da565b637616640160e01b5f5260045ffd5b632ca4094f60e21b5f5260045ffd5b504261153d565b508d15158e8161193d575b50611532565b6003915014158e611937565b630f8b932160e11b5f5260045ffd5b635e32eadd60e01b5f5260045ffd5b63f37f7b5d60e01b5f5260045ffd5b632c45be6f60e01b5f5260045ffd5b636d403ec760e11b5f5260045ffd5b63207ea56d60e01b5f5260045ffd5b634dba795160e01b5f5260045ffd5b63ac38930b60e01b5f5260045ffd5b50600860ff6119ce61227a565b16116114b5565b635040c4d360e11b5f5260045ffd5b34610195576119f236612174565b81156110835763ffffffff8060035460a01c161663ffffffff8360401c1603611074575f8281526020819052604090208054600881901c6001600160a01b03168015611065573303611ab25760ff166005811015611036578015159081611aa6575b5061104a5781158015611a99575b61197657817fdbed30289c8edb9c8e40449ce45792cee5b9eba7c798afbadbcb4345699f1e249260076020930155604051908152a2005b5060088101548210611a62565b60039150141584611a54565b6282b42960e81b5f5260045ffd5b34610195575f36600319011261019557602060405160048152f35b34610195576020366003190112610195576004356001600160a01b03811690818103610195576003545f92835260016020908152604090932054606092831b6bffffffffffffffffffffffff19169190921c63ffffffff60401b16176001600160401b039190911617610ce4565b34610195576020366003190112610195576004356001600160a01b03811690819003610195575f52600160205260206001600160401b0360405f205416604051908152f35b346101955760403660031901126101955760043560243560058110156101955781156110835763ffffffff8060035460a01c161663ffffffff8360401c160361107457600460ff82161161104a57815f525f60205260405f2090815460018060a01b038160081c168015611065573303611ab25760ff16611c0f828261235a565b1561104a57611c68828585611c476040967f2f25f350b681441b5bb45430fbe61e78d0170cff4ad02cb0aa48a6427909aa8c9861223f565b60018314611c6b575b5050611c5e845180946120b9565b60208301906120b9565ba2005b602060067f0f759826327c668a220d576485ac38ddc4f83fbc414b984c00e79f669b649f46926005810154804210155f14611cbd57611caa9042612257565b9182915b01558751908152a28587611c50565b505f918291611cae565b34610195575f366003190112610195576002546040805163233ace1160e01b81529160209183916004918391901c6001600160a01b03165afa8015611001575f9061016a57602090604051908152f35b34610195575f3660031901126101955760206040515f8152f35b34610195575f366003190112610195576002546040805191901c6001600160a01b03168152602090f35b34610195576020366003190112610195576004355f525f60205260405f20805460018201611d8890611f21565b916003810154906005810154600682015460078301546008840154600985015490600a86015492600b87015494600c8801611dc290611f77565b96611dcf600d8a01612017565b98601201611ddc9061207b565b996040519c8d8d819e60ff83911690611df4916120b9565b60081c6001600160a01b0316602091820152815160408f0152015160608d015260808c015260a08b015260c08a015260e08901526101008801526101208701526101408601526101608501526102c06101808501819052611e5891908501906120c6565b906101a08401611e67916120ea565b8281036102a08401526113739161213f565b34610195575f3660031901126101955780600560209252f35b6101e081019081106001600160401b0382111761185157604052565b604081019081106001600160401b0382111761185157604052565b606081019081106001600160401b0382111761185157604052565b61010081019081106001600160401b0382111761185157604052565b90601f801991011681019081106001600160401b0382111761185157604052565b90604051611f2e81611eae565b602060018294805484520154910152565b90600182811c92168015611f6d575b6020831014611f5957565b634e487b7160e01b5f52602260045260245ffd5b91607f1691611f4e565b9060405191825f825492611f8a84611f3f565b8084529360018116908115611ff55750600114611fb1575b50611faf92500383611f00565b565b90505f9291925260205f20905f915b818310611fd9575050906020611faf928201015f611fa2565b6020919350806001915483858901015201910190918492611fc0565b905060209250611faf94915060ff191682840152151560051b8201015f611fa2565b9060405161202481611ee4565b60e06004829460ff815481811615158652818160081c1615156020870152818160101c16604087015260181c16606085015260018101546080850152600281015460a0850152600381015460c08501520154910152565b9060405161208881611ec9565b809260ff8154169060068210156110365760026120b49160409385526001810154602086015201611f77565b910152565b9060058210156110365752565b805180835260209291819084018484015e5f828201840152601f01601f1916010190565b60e0809180511515845260208101511515602085015260ff604082015116604085015260ff60608201511660608501526080810151608085015260a081015160a085015260c081015160c08501520151910152565b9081519160068310156110365760406060916121719484526020810151602085015201519181604082015201906120c6565b90565b6040906003190112610195576004359060243590565b9181601f84011215610195578235916001600160401b038311610195576020838186019501011161019557565b90602080835192838152019201905f5b8181106121d45750505090565b82518452602093840193909201916001016121c7565b90606060031983011261019557600435916024356001600160401b03811161019557816122199160040161218a565b92909291604435906001600160401b0382116101955761223b9160040161218a565b9091565b9060058110156110365760ff80198354169116179055565b9190820391821161179f57565b81811061226f575050565b5f8155600101612264565b60c43560ff811681036101955790565b903590601e198136030182121561019557018035906001600160401b0382116101955760200191813603831361019557565b604051906122c982611ee4565b5f60e0838281528260208201528260408201528260608201528260808201528260a08201528260c08201520152565b9190820180921161179f57565b908060209392818452848401375f828201840152601f01601f1916010190565b929061233e906121719593604086526040860191612305565b926020818503910152612305565b5f19811461179f5760010190565b906005821015611036576005811015918261103657808214612417575f60028214801561240b575b8181156123fb575b506123f3576110365780156123da576003146123a65750505f90565b816110365780159182156123cd575b82156123c057505090565b9091506110365760011490565b506002811491505f6123b5565b506003811491505f82156123cd5782156123c057505090565b505050505f90565b905061103657600182148161238a565b50505f60048214612382565b5050505f90565b805190811561245b5760205f9183829460405193849301835e8101838152039060025afa15611001575f516001600160f81b0316600160f81b1790565b50505f90565b5f5b8049801561248357821461247f5761247a9061234c565b612463565b5050565b630110b90960e61b5f5260045ffdfea2646970667358221220ba692e27cdc82c8663978cf47dc95aaa027f730557b12a2c2919b9c4eabcd10a64736f6c634300081c0033","opcodes":"PUSH1 0x80 DUP1 PUSH1 0x40 MSTORE CALLVALUE PUSH2 0x11E JUMPI PUSH1 0x80 DUP2 PUSH2 0x2636 DUP1 CODESIZE SUB DUP1 SWAP2 PUSH2 0x1F DUP3 DUP6 PUSH2 0x122 JUMP JUMPDEST DUP4 CODECOPY DUP2 ADD SUB SLT PUSH2 0x11E JUMPI DUP1 MLOAD PUSH4 0xFFFFFFFF DUP2 AND DUP2 SUB PUSH2 0x11E JUMPI PUSH2 0x44 PUSH1 0x20 DUP4 ADD PUSH2 0x159 JUMP JUMPDEST PUSH1 0x60 PUSH2 0x52 PUSH1 0x40 DUP6 ADD PUSH2 0x159 JUMP JUMPDEST SWAP4 ADD MLOAD SWAP2 DUP3 ISZERO ISZERO DUP1 SWAP4 SUB PUSH2 0x11E JUMPI PUSH1 0x2 DUP1 SLOAD PUSH1 0x3 SLOAD PUSH1 0x1 PUSH1 0x20 SHL PUSH1 0x1 PUSH1 0xE0 SHL SUB NOT SWAP1 SWAP2 AND PUSH1 0x40 SWAP5 DUP6 SHL PUSH1 0x1 PUSH1 0x40 SHL PUSH1 0x1 PUSH1 0xE0 SHL SUB AND OR PUSH1 0x20 DUP5 DUP2 SHL PUSH8 0xFFFFFFFF00000000 AND SWAP2 SWAP1 SWAP2 OR SWAP1 SWAP3 SSTORE SWAP3 MLOAD PUSH1 0xE0 SWAP3 SWAP1 SWAP3 SHL PUSH1 0x1 PUSH1 0x1 PUSH1 0xE0 SHL SUB NOT AND SWAP1 DUP3 ADD SWAP1 DUP2 MSTORE ADDRESS PUSH1 0x60 SHL PUSH1 0x24 DUP4 ADD MSTORE PUSH1 0x18 DUP3 MSTORE PUSH2 0xCE PUSH1 0x38 DUP4 PUSH2 0x122 JUMP JUMPDEST SWAP1 MLOAD SWAP1 KECCAK256 PUSH4 0xFFFFFFFF PUSH1 0xA0 SHL PUSH1 0xA0 SWAP2 SWAP1 SWAP2 SHL AND PUSH1 0x1 PUSH1 0x1 PUSH1 0xA0 SHL SUB SWAP4 SWAP1 SWAP4 AND PUSH1 0x1 PUSH1 0x1 PUSH1 0xC8 SHL SUB NOT SWAP2 SWAP1 SWAP2 AND OR PUSH1 0xFF PUSH1 0xC0 SHL PUSH1 0xC0 SWAP3 SWAP1 SWAP3 SHL SWAP2 SWAP1 SWAP2 AND OR OR PUSH1 0x3 SSTORE PUSH1 0x40 MLOAD PUSH2 0x24C8 SWAP1 DUP2 PUSH2 0x16E DUP3 CODECOPY RETURN JUMPDEST PUSH0 DUP1 REVERT JUMPDEST PUSH1 0x1F SWAP1 SWAP2 ADD PUSH1 0x1F NOT AND DUP2 ADD SWAP1 PUSH1 0x1 PUSH1 0x1 PUSH1 0x40 SHL SUB DUP3 GT SWAP1 DUP3 LT OR PUSH2 0x145 JUMPI PUSH1 0x40 MSTORE JUMP JUMPDEST PUSH4 0x4E487B71 PUSH1 0xE0 SHL PUSH0 MSTORE PUSH1 0x41 PUSH1 0x4 MSTORE PUSH1 0x24 PUSH0 REVERT JUMPDEST MLOAD SWAP1 PUSH1 0x1 PUSH1 0x1 PUSH1 0xA0 SHL SUB DUP3 AND DUP3 SUB PUSH2 0x11E JUMPI JUMP INVALID PUSH1 0x80 DUP1 PUSH1 0x40 MSTORE PUSH1 0x4 CALLDATASIZE LT ISZERO PUSH2 0x12 JUMPI PUSH0 DUP1 REVERT JUMPDEST PUSH0 SWAP1 PUSH0 CALLDATALOAD PUSH1 0xE0 SHR SWAP1 DUP2 PUSH4 0x2CC919A EQ PUSH2 0x1E79 JUMPI POP DUP1 PUSH4 0x535FECE EQ PUSH2 0x1D5B JUMPI DUP1 PUSH4 0x9706392 EQ PUSH2 0x1D31 JUMPI DUP1 PUSH4 0x26795BC3 EQ PUSH2 0x1D17 JUMPI DUP1 PUSH4 0x4C0ACC56 EQ PUSH2 0x1CC7 JUMPI DUP1 PUSH4 0x56A6F1E2 EQ PUSH2 0x1B8E JUMPI DUP1 PUSH4 0x62FA11FC EQ PUSH2 0x1B49 JUMPI DUP1 PUSH4 0x68141F2C EQ PUSH2 0x1ADB JUMPI DUP1 PUSH4 0x72C628EF EQ PUSH2 0x1AC0 JUMPI DUP1 PUSH4 0x74E07826 EQ PUSH2 0x19E4 JUMPI DUP1 PUSH4 0x75462F70 EQ PUSH2 0x13B3 JUMPI DUP1 PUSH4 0x848DF540 EQ PUSH2 0x1390 JUMPI DUP1 PUSH4 0x992BC45B EQ PUSH2 0x10BA JUMPI DUP1 PUSH4 0x9C18DEAF EQ PUSH2 0x1092 JUMPI DUP1 PUSH4 0xA5B110DE EQ PUSH2 0xD16 JUMPI DUP1 PUSH4 0xA5F01E19 EQ PUSH2 0xBB1 JUMPI DUP1 PUSH4 0xADC879E9 EQ PUSH2 0xB8B JUMPI DUP1 PUSH4 0xC718C01F EQ PUSH2 0xA14 JUMPI DUP1 PUSH4 0xCDDF08BC EQ PUSH2 0x9ED JUMPI DUP1 PUSH4 0xCDF497C8 EQ PUSH2 0x9C7 JUMPI DUP1 PUSH4 0xD71D072E EQ PUSH2 0x513 JUMPI DUP1 PUSH4 0xF4C2A3BB EQ PUSH2 0x1B0 JUMPI PUSH4 0xF9AA4499 EQ PUSH2 0x11B JUMPI PUSH0 DUP1 REVERT JUMPDEST CALLVALUE PUSH2 0x1AD JUMPI DUP1 PUSH1 0x3 NOT CALLDATASIZE ADD SLT PUSH2 0x1AD JUMPI PUSH1 0x3 SLOAD PUSH1 0x40 MLOAD PUSH4 0x233ACE11 PUSH1 0xE0 SHL DUP2 MSTORE SWAP2 SWAP1 PUSH1 0x20 SWAP1 DUP4 SWAP1 PUSH1 0x4 SWAP1 DUP3 SWAP1 PUSH1 0x1 PUSH1 0x1 PUSH1 0xA0 SHL SUB AND GAS STATICCALL SWAP1 DUP2 ISZERO PUSH2 0x1A1 JUMPI SWAP1 PUSH2 0x16A JUMPI JUMPDEST PUSH1 0x20 SWAP1 PUSH1 0x40 MLOAD SWAP1 DUP2 MSTORE RETURN JUMPDEST POP PUSH1 0x20 DUP2 RETURNDATASIZE PUSH1 0x20 GT PUSH2 0x199 JUMPI JUMPDEST DUP2 PUSH2 0x184 PUSH1 0x20 SWAP4 DUP4 PUSH2 0x1F00 JUMP JUMPDEST DUP2 ADD SUB SLT PUSH2 0x195 JUMPI PUSH1 0x20 SWAP1 MLOAD PUSH2 0x15F JUMP JUMPDEST PUSH0 DUP1 REVERT JUMPDEST RETURNDATASIZE SWAP2 POP PUSH2 0x177 JUMP JUMPDEST PUSH1 0x40 MLOAD SWAP1 RETURNDATASIZE SWAP1 DUP3 RETURNDATACOPY RETURNDATASIZE SWAP1 REVERT JUMPDEST DUP1 REVERT JUMPDEST POP CALLVALUE PUSH2 0x1AD JUMPI PUSH1 0x40 CALLDATASIZE PUSH1 0x3 NOT ADD SLT PUSH2 0x1AD JUMPI PUSH1 0x4 CALLDATALOAD PUSH1 0x24 CALLDATALOAD PUSH1 0x1 PUSH1 0x1 PUSH1 0x40 SHL SUB DUP2 GT PUSH2 0x50F JUMPI DUP1 PUSH1 0x4 ADD PUSH1 0x60 PUSH1 0x3 NOT DUP4 CALLDATASIZE SUB ADD SLT PUSH2 0x50B JUMPI DUP3 ISZERO PUSH2 0x4FC JUMPI PUSH4 0xFFFFFFFF DUP1 PUSH1 0x3 SLOAD PUSH1 0xA0 SHR AND AND PUSH4 0xFFFFFFFF DUP5 PUSH1 0x40 SHR AND SUB PUSH2 0x4ED JUMPI DUP3 DUP5 MSTORE PUSH1 0x20 DUP5 SWAP1 MSTORE PUSH1 0x40 DUP5 KECCAK256 DUP1 SLOAD SWAP2 SWAP1 PUSH1 0x8 DUP4 SWAP1 SHR PUSH1 0x1 PUSH1 0x1 PUSH1 0xA0 SHL SUB AND DUP1 ISZERO PUSH2 0x4DE JUMPI CALLER SUB PUSH2 0x4D0 JUMPI PUSH1 0xFF PUSH1 0x12 DUP3 ADD SLOAD AND PUSH1 0x6 DUP2 LT ISZERO PUSH2 0x47C JUMPI PUSH1 0x2 DUP2 SUB PUSH2 0x4C1 JUMPI DUP3 CALLDATALOAD SWAP1 PUSH1 0x6 DUP3 LT ISZERO PUSH2 0x4BD JUMPI SUB PUSH2 0x4AE JUMPI PUSH1 0x24 DUP5 ADD CALLDATALOAD SWAP4 DUP5 ISZERO PUSH2 0x49F JUMPI PUSH1 0x44 ADD SWAP3 PUSH2 0x279 DUP5 DUP5 PUSH2 0x228A JUMP JUMPDEST SWAP1 POP ISZERO PUSH2 0x490 JUMPI PUSH1 0xFF AND PUSH1 0x5 DUP2 LT ISZERO PUSH2 0x47C JUMPI DUP1 ISZERO ISZERO SWAP1 DUP2 PUSH2 0x470 JUMPI JUMPDEST POP PUSH2 0x461 JUMPI PUSH2 0x2AE PUSH1 0x5 DUP3 ADD SLOAD PUSH1 0x6 DUP4 ADD SLOAD SWAP1 PUSH2 0x22F8 JUMP JUMPDEST TIMESTAMP LT ISZERO PUSH2 0x452 JUMPI DUP4 PUSH1 0x13 DUP3 ADD SSTORE PUSH1 0x14 PUSH2 0x2C7 DUP5 DUP5 PUSH2 0x228A JUMP JUMPDEST SWAP2 SWAP1 SWAP3 ADD SWAP2 PUSH1 0x1 PUSH1 0x1 PUSH1 0x40 SHL SUB DUP3 GT PUSH2 0x43E JUMPI PUSH2 0x2E4 DUP4 SLOAD PUSH2 0x1F3F JUMP JUMPDEST PUSH1 0x1F DUP2 GT PUSH2 0x403 JUMPI JUMPDEST POP DUP8 SWAP1 PUSH1 0x1F DUP4 GT PUSH1 0x1 EQ PUSH2 0x375 JUMPI SWAP3 DUP3 PUSH2 0x364 SWAP7 SWAP4 PUSH32 0x87E1C82BC035C552E997EC2F1CF023790CED0CC01098D516DC6E7200835FFB27 SWAP9 SWAP7 SWAP4 PUSH2 0x349 SWAP7 DUP13 SWAP3 PUSH2 0x36A JUMPI JUMPDEST POP POP DUP2 PUSH1 0x1 SHL SWAP2 PUSH0 NOT SWAP1 PUSH1 0x3 SHL SHR NOT AND OR SWAP1 SSTORE PUSH2 0x228A JUMP JUMPDEST SWAP3 SWAP1 PUSH1 0x40 MLOAD SWAP4 DUP5 SWAP4 DUP5 MSTORE PUSH1 0x40 PUSH1 0x20 DUP6 ADD MSTORE PUSH1 0x40 DUP5 ADD SWAP2 PUSH2 0x2305 JUMP JUMPDEST SUB SWAP1 LOG2 DUP1 RETURN JUMPDEST ADD CALLDATALOAD SWAP1 POP PUSH0 DUP1 PUSH2 0x331 JUMP JUMPDEST DUP4 DUP10 MSTORE PUSH1 0x20 DUP10 KECCAK256 SWAP2 PUSH1 0x1F NOT DUP5 AND DUP11 JUMPDEST DUP2 DUP2 LT PUSH2 0x3EB JUMPI POP SWAP4 PUSH32 0x87E1C82BC035C552E997EC2F1CF023790CED0CC01098D516DC6E7200835FFB27 SWAP9 SWAP7 SWAP4 PUSH2 0x349 SWAP7 SWAP4 PUSH1 0x1 SWAP4 DUP4 PUSH2 0x364 SWAP12 SWAP9 LT PUSH2 0x3D2 JUMPI JUMPDEST POP POP POP DUP2 SHL ADD SWAP1 SSTORE PUSH2 0x228A JUMP JUMPDEST ADD CALLDATALOAD PUSH0 NOT PUSH1 0x3 DUP5 SWAP1 SHL PUSH1 0xF8 AND SHR NOT AND SWAP1 SSTORE PUSH0 DUP1 DUP1 PUSH2 0x3C5 JUMP JUMPDEST SWAP2 SWAP4 PUSH1 0x20 PUSH1 0x1 DUP2 SWAP3 DUP8 DUP8 ADD CALLDATALOAD DUP2 SSTORE ADD SWAP6 ADD SWAP3 ADD PUSH2 0x384 JUMP JUMPDEST PUSH2 0x42E SWAP1 DUP5 DUP11 MSTORE PUSH1 0x20 DUP11 KECCAK256 PUSH1 0x1F DUP6 ADD PUSH1 0x5 SHR DUP2 ADD SWAP2 PUSH1 0x20 DUP7 LT PUSH2 0x434 JUMPI JUMPDEST PUSH1 0x1F ADD PUSH1 0x5 SHR ADD SWAP1 PUSH2 0x2264 JUMP JUMPDEST PUSH0 PUSH2 0x2ED JUMP JUMPDEST SWAP1 SWAP2 POP DUP2 SWAP1 PUSH2 0x421 JUMP JUMPDEST PUSH4 0x4E487B71 PUSH1 0xE0 SHL DUP9 MSTORE PUSH1 0x41 PUSH1 0x4 MSTORE PUSH1 0x24 DUP9 REVERT JUMPDEST PUSH4 0xE843C5EB PUSH1 0xE0 SHL DUP7 MSTORE PUSH1 0x4 DUP7 REVERT JUMPDEST PUSH4 0x7A92F19 PUSH1 0xE5 SHL DUP7 MSTORE PUSH1 0x4 DUP7 REVERT JUMPDEST PUSH1 0x3 SWAP2 POP EQ ISZERO PUSH0 PUSH2 0x296 JUMP JUMPDEST PUSH4 0x4E487B71 PUSH1 0xE0 SHL DUP8 MSTORE PUSH1 0x21 PUSH1 0x4 MSTORE PUSH1 0x24 DUP8 REVERT JUMPDEST PUSH4 0xF8B9321 PUSH1 0xE1 SHL DUP8 MSTORE PUSH1 0x4 DUP8 REVERT JUMPDEST PUSH4 0x5E32EADD PUSH1 0xE0 SHL DUP8 MSTORE PUSH1 0x4 DUP8 REVERT JUMPDEST PUSH4 0xF37F7B5D PUSH1 0xE0 SHL DUP7 MSTORE PUSH1 0x4 DUP7 REVERT JUMPDEST DUP8 DUP1 REVERT JUMPDEST PUSH4 0x50B77C7 PUSH1 0xE2 SHL DUP8 MSTORE PUSH1 0x4 DUP8 REVERT JUMPDEST PUSH3 0x82B429 PUSH1 0xE8 SHL DUP7 MSTORE PUSH1 0x4 DUP7 REVERT JUMPDEST PUSH4 0x4D36EB69 PUSH1 0xE0 SHL DUP8 MSTORE PUSH1 0x4 DUP8 REVERT JUMPDEST PUSH4 0x2299770D PUSH1 0xE1 SHL DUP5 MSTORE PUSH1 0x4 DUP5 REVERT JUMPDEST PUSH4 0xCBF4A645 PUSH1 0xE0 SHL DUP5 MSTORE PUSH1 0x4 DUP5 REVERT JUMPDEST DUP4 DUP1 REVERT JUMPDEST DUP3 DUP1 REVERT JUMPDEST POP CALLVALUE PUSH2 0x1AD JUMPI PUSH2 0x522 CALLDATASIZE PUSH2 0x21EA JUMP JUMPDEST SWAP1 SWAP4 SWAP3 SWAP2 DUP4 ISZERO PUSH2 0x9B8 JUMPI PUSH1 0x3 SLOAD SWAP2 PUSH4 0xFFFFFFFF DUP1 DUP5 PUSH1 0xA0 SHR AND AND PUSH4 0xFFFFFFFF DUP7 PUSH1 0x40 SHR AND SUB PUSH2 0x9A9 JUMPI DUP5 DUP8 MSTORE DUP7 PUSH1 0x20 MSTORE PUSH1 0x40 DUP8 KECCAK256 SWAP4 DUP5 SLOAD PUSH1 0x1 DUP1 PUSH1 0xA0 SHL SUB DUP2 PUSH1 0x8 SHR AND ISZERO PUSH2 0x99A JUMPI PUSH1 0xFF AND PUSH1 0x5 DUP2 LT ISZERO PUSH2 0x986 JUMPI PUSH2 0x977 JUMPI PUSH2 0x58D PUSH1 0x5 DUP7 ADD SLOAD PUSH1 0x6 DUP8 ADD SLOAD SWAP1 PUSH2 0x22F8 JUMP JUMPDEST TIMESTAMP LT ISZERO PUSH2 0x968 JUMPI PUSH2 0x59C PUSH2 0x22BC JUMP JUMPDEST POP DUP2 DUP8 ADD SWAP7 PUSH2 0x100 DUP2 DUP10 SUB SLT PUSH2 0x964 JUMPI DUP8 PUSH1 0x1F DUP3 ADD SLT ISZERO PUSH2 0x964 JUMPI PUSH1 0x40 MLOAD SWAP8 PUSH2 0x100 PUSH2 0x5C8 DUP2 DUP12 PUSH2 0x1F00 JUMP JUMPDEST DUP10 SWAP1 DUP4 ADD SWAP2 DUP3 GT PUSH2 0x960 JUMPI DUP3 SWAP1 JUMPDEST DUP3 DUP3 LT PUSH2 0x950 JUMPI POP POP POP DUP8 MLOAD SWAP4 PUSH1 0x20 DUP10 ADD MLOAD SWAP9 PUSH1 0x40 DUP2 ADD MLOAD SWAP6 PUSH1 0x60 DUP3 ADD MLOAD PUSH1 0x80 DUP4 ADD MLOAD SWAP1 PUSH1 0xA0 DUP5 ADD MLOAD SWAP9 PUSH1 0xC0 DUP6 ADD MLOAD SWAP5 PUSH1 0xE0 ADD MLOAD SWAP4 PUSH1 0x40 MLOAD SWAP15 DUP16 SWAP2 PUSH2 0x61A DUP4 PUSH2 0x1EE4 JUMP JUMPDEST DUP3 MSTORE PUSH1 0x20 DUP3 ADD MSTORE PUSH1 0x40 ADD MSTORE PUSH1 0x60 DUP14 ADD MSTORE PUSH1 0x80 DUP13 ADD SWAP1 DUP2 MSTORE PUSH1 0xA0 DUP13 ADD SWAP8 DUP9 MSTORE PUSH1 0xC0 DUP13 ADD SWAP3 DUP4 MSTORE PUSH1 0xE0 DUP13 ADD SWAP2 DUP3 MSTORE PUSH1 0x12 DUP11 ADD SLOAD PUSH1 0xFF AND PUSH1 0x6 DUP2 LT ISZERO PUSH2 0x93C JUMPI PUSH1 0x3 EQ PUSH2 0x87E JUMPI JUMPDEST POP DUP11 MLOAD SWAP7 PUSH1 0x3 DUP11 ADD SWAP8 DUP9 SLOAD SUB PUSH2 0x86F JUMPI PUSH1 0x40 DUP13 ADD MLOAD PUSH1 0x60 DUP14 ADD MLOAD PUSH2 0x682 SWAP2 PUSH2 0x2257 JUMP JUMPDEST SWAP9 DUP10 ISZERO ISZERO DUP1 PUSH2 0x85D JUMPI JUMPDEST PUSH2 0x84E JUMPI SWAP1 PUSH1 0xFF DUP15 SWAP9 SWAP8 SWAP7 SWAP6 SWAP5 SWAP4 SWAP3 PUSH1 0xC0 SHR AND PUSH2 0x79B JUMPI JUMPDEST POP POP PUSH1 0x2 SLOAD PUSH1 0x40 SHR PUSH1 0x1 PUSH1 0x1 PUSH1 0xA0 SHL SUB AND SWAP2 SWAP1 POP DUP2 EXTCODESIZE ISZERO PUSH2 0x78C JUMPI DUP6 SWAP4 PUSH2 0x6E1 PUSH1 0x40 MLOAD SWAP7 DUP8 SWAP6 DUP7 SWAP5 DUP6 SWAP5 PUSH4 0x5C73957B PUSH1 0xE1 SHL DUP7 MSTORE PUSH1 0x4 DUP7 ADD PUSH2 0x2325 JUMP JUMPDEST SUB SWAP2 GAS STATICCALL DUP1 ISZERO PUSH2 0x790 JUMPI PUSH2 0x777 JUMPI JUMPDEST POP POP PUSH1 0x20 DUP6 ADD MLOAD SWAP1 SSTORE PUSH2 0x708 PUSH1 0x8 DUP4 ADD SWAP2 DUP3 SLOAD PUSH2 0x22F8 JUMP JUMPDEST DUP1 SWAP2 SSTORE PUSH1 0xB PUSH1 0x60 DUP6 ADD MLOAD SWAP3 PUSH2 0x722 PUSH1 0x9 DUP3 ADD SWAP5 DUP6 SLOAD PUSH2 0x22F8 JUMP JUMPDEST DUP1 SWAP5 SSTORE ADD PUSH2 0x730 DUP2 SLOAD PUSH2 0x234C JUMP JUMPDEST SWAP1 SSTORE PUSH1 0x20 DUP5 MLOAD SWAP5 ADD MLOAD PUSH1 0x40 MLOAD SWAP5 DUP6 MSTORE PUSH1 0x20 DUP6 ADD MSTORE PUSH1 0x40 DUP5 ADD MSTORE PUSH1 0x60 DUP4 ADD MSTORE PUSH32 0x43B1A882C73BC84AE667608D3A61BAECECD99134224962EBA9D13EB63C595AE1 PUSH1 0x80 CALLER SWAP4 LOG3 DUP1 RETURN JUMPDEST DUP2 PUSH2 0x781 SWAP2 PUSH2 0x1F00 JUMP JUMPDEST PUSH2 0x78C JUMPI DUP6 PUSH0 PUSH2 0x6F0 JUMP JUMPDEST DUP6 DUP1 REVERT JUMPDEST PUSH1 0x40 MLOAD RETURNDATASIZE DUP5 DUP3 RETURNDATACOPY RETURNDATASIZE SWAP1 REVERT JUMPDEST SWAP1 SWAP2 SWAP3 SWAP4 SWAP5 SWAP6 SWAP7 POP MLOAD SWAP2 MLOAD SWAP1 MLOAD SWAP1 PUSH1 0x40 MLOAD SWAP3 PUSH2 0x7B8 PUSH1 0x60 DUP6 PUSH2 0x1F00 JUMP JUMPDEST PUSH1 0x30 DUP5 MSTORE PUSH1 0x20 DUP5 ADD SWAP1 PUSH1 0x40 CALLDATASIZE DUP4 CALLDATACOPY DUP1 PUSH1 0x80 SHR PUSH2 0x83A JUMPI PUSH1 0x80 SHL SWAP1 MSTORE DUP1 PUSH1 0x80 SHR PUSH2 0x826 JUMPI PUSH1 0x80 SHL PUSH1 0x30 DUP4 ADD MSTORE DUP1 PUSH1 0x80 SHR PUSH2 0x812 JUMPI PUSH2 0x805 DUP13 SWAP7 SWAP6 SWAP5 SWAP4 SWAP3 PUSH2 0x80A SWAP3 PUSH1 0x80 SHL PUSH1 0x40 DUP3 ADD MSTORE PUSH2 0x241E JUMP JUMPDEST PUSH2 0x2461 JUMP JUMPDEST PUSH0 DUP1 DUP1 PUSH2 0x6A4 JUMP JUMPDEST PUSH4 0x16416A3D PUSH1 0xE0 SHL DUP13 MSTORE PUSH1 0x2 PUSH1 0x4 MSTORE PUSH1 0x24 DUP13 REVERT JUMPDEST PUSH4 0x16416A3D PUSH1 0xE0 SHL DUP14 MSTORE PUSH1 0x1 PUSH1 0x4 MSTORE PUSH1 0x24 DUP14 REVERT JUMPDEST PUSH4 0x16416A3D PUSH1 0xE0 SHL DUP16 MSTORE PUSH1 0x4 DUP16 SWAP1 MSTORE PUSH1 0x24 DUP16 REVERT JUMPDEST PUSH4 0x57D18D53 PUSH1 0xE1 SHL DUP15 MSTORE PUSH1 0x4 DUP15 REVERT JUMPDEST POP PUSH1 0x8 DUP12 ADD SLOAD PUSH1 0x7 DUP13 ADD SLOAD GT ISZERO PUSH2 0x68C JUMP JUMPDEST PUSH4 0xB6FAC03 PUSH1 0xE4 SHL DUP14 MSTORE PUSH1 0x4 DUP14 REVERT JUMPDEST DUP13 PUSH1 0x40 PUSH1 0x1 DUP1 PUSH1 0xA0 SHL SUB PUSH1 0x13 DUP14 ADD SLOAD AND SWAP3 MLOAD PUSH1 0x24 DUP3 MLOAD DUP1 SWAP6 DUP2 SWAP4 PUSH4 0x6C8442B PUSH1 0xE0 SHL DUP4 MSTORE PUSH1 0x4 DUP4 ADD MSTORE GAS STATICCALL SWAP2 DUP3 ISZERO PUSH2 0x92F JUMPI DUP2 SWAP3 PUSH2 0x8E4 JUMPI JUMPDEST POP ISZERO SWAP1 DUP2 ISZERO PUSH2 0x8DB JUMPI JUMPDEST POP PUSH2 0x8CC JUMPI PUSH0 PUSH2 0x65F JUMP JUMPDEST PUSH4 0x5E32EADD PUSH1 0xE0 SHL DUP13 MSTORE PUSH1 0x4 DUP13 REVERT JUMPDEST SWAP1 POP ISZERO PUSH0 PUSH2 0x8C1 JUMP JUMPDEST SWAP2 POP POP PUSH1 0x40 DUP2 RETURNDATASIZE PUSH1 0x40 GT PUSH2 0x927 JUMPI JUMPDEST DUP2 PUSH2 0x900 PUSH1 0x40 SWAP4 DUP4 PUSH2 0x1F00 JUMP JUMPDEST DUP2 ADD SUB SLT PUSH2 0x923 JUMPI DUP1 MLOAD SWAP1 DUP2 ISZERO ISZERO DUP3 SUB PUSH2 0x91F JUMPI PUSH1 0x20 ADD MLOAD SWAP1 PUSH0 PUSH2 0x8B7 JUMP JUMPDEST DUP14 DUP1 REVERT JUMPDEST DUP13 DUP1 REVERT JUMPDEST RETURNDATASIZE SWAP2 POP PUSH2 0x8F3 JUMP JUMPDEST POP PUSH1 0x40 MLOAD SWAP1 RETURNDATASIZE SWAP1 DUP3 RETURNDATACOPY RETURNDATASIZE SWAP1 REVERT JUMPDEST PUSH4 0x4E487B71 PUSH1 0xE0 SHL DUP15 MSTORE PUSH1 0x21 PUSH1 0x4 MSTORE PUSH1 0x24 DUP15 REVERT JUMPDEST DUP2 CALLDATALOAD DUP2 MSTORE PUSH1 0x20 SWAP2 DUP3 ADD SWAP2 ADD PUSH2 0x5D6 JUMP JUMPDEST DUP11 DUP1 REVERT JUMPDEST DUP9 DUP1 REVERT JUMPDEST PUSH4 0xE843C5EB PUSH1 0xE0 SHL DUP9 MSTORE PUSH1 0x4 DUP9 REVERT JUMPDEST PUSH4 0x7A92F19 PUSH1 0xE5 SHL DUP9 MSTORE PUSH1 0x4 DUP9 REVERT JUMPDEST PUSH4 0x4E487B71 PUSH1 0xE0 SHL DUP10 MSTORE PUSH1 0x21 PUSH1 0x4 MSTORE PUSH1 0x24 DUP10 REVERT JUMPDEST PUSH4 0x4D36EB69 PUSH1 0xE0 SHL DUP10 MSTORE PUSH1 0x4 DUP10 REVERT JUMPDEST PUSH4 0x2299770D PUSH1 0xE1 SHL DUP8 MSTORE PUSH1 0x4 DUP8 REVERT JUMPDEST PUSH4 0xCBF4A645 PUSH1 0xE0 SHL DUP7 MSTORE PUSH1 0x4 DUP7 REVERT JUMPDEST POP CALLVALUE PUSH2 0x1AD JUMPI DUP1 PUSH1 0x3 NOT CALLDATASIZE ADD SLT PUSH2 0x1AD JUMPI PUSH1 0x20 PUSH1 0xFF PUSH1 0x3 SLOAD PUSH1 0xC0 SHR AND PUSH1 0x40 MLOAD SWAP1 ISZERO ISZERO DUP2 MSTORE RETURN JUMPDEST POP CALLVALUE PUSH2 0x1AD JUMPI DUP1 PUSH1 0x3 NOT CALLDATASIZE ADD SLT PUSH2 0x1AD JUMPI PUSH1 0x20 PUSH4 0xFFFFFFFF PUSH1 0x3 SLOAD PUSH1 0xA0 SHR AND PUSH1 0x40 MLOAD SWAP1 DUP2 MSTORE RETURN JUMPDEST POP CALLVALUE PUSH2 0x1AD JUMPI PUSH2 0xA23 CALLDATASIZE PUSH2 0x2174 JUMP JUMPDEST DUP2 ISZERO PUSH2 0xB7C JUMPI PUSH4 0xFFFFFFFF DUP1 PUSH1 0x3 SLOAD PUSH1 0xA0 SHR AND AND PUSH4 0xFFFFFFFF DUP4 PUSH1 0x40 SHR AND SUB PUSH2 0xB6D JUMPI DUP2 DUP4 MSTORE PUSH1 0x20 DUP4 SWAP1 MSTORE PUSH1 0x40 DUP4 KECCAK256 DUP1 SLOAD PUSH1 0x8 DUP2 SWAP1 SHR PUSH1 0x1 PUSH1 0x1 PUSH1 0xA0 SHL SUB AND DUP1 ISZERO PUSH2 0xB5E JUMPI CALLER SUB PUSH2 0xB50 JUMPI PUSH1 0xFF AND PUSH1 0x5 DUP2 LT ISZERO PUSH2 0xB3C JUMPI DUP1 ISZERO ISZERO SWAP1 DUP2 PUSH2 0xB30 JUMPI JUMPDEST POP PUSH2 0xB21 JUMPI PUSH1 0x6 PUSH1 0x5 DUP3 ADD SLOAD SWAP2 ADD SWAP1 DUP2 SLOAD SWAP1 DUP4 ISZERO SWAP2 DUP3 ISZERO PUSH2 0xB0C JUMPI JUMPDEST DUP3 ISZERO PUSH2 0xAED JUMPI JUMPDEST POP POP PUSH2 0xADE JUMPI DUP2 PUSH32 0xF759826327C668A220D576485AC38DDC4F83FBC414B984C00E79F669B649F46 SWAP3 PUSH1 0x20 SWAP3 SSTORE PUSH1 0x40 MLOAD SWAP1 DUP2 MSTORE LOG2 DUP1 RETURN JUMPDEST PUSH4 0x76166401 PUSH1 0xE0 SHL DUP5 MSTORE PUSH1 0x4 DUP5 REVERT JUMPDEST DUP2 SWAP3 POP PUSH2 0xAFD DUP6 PUSH2 0xB03 SWAP4 PUSH2 0x22F8 JUMP JUMPDEST SWAP3 PUSH2 0x22F8 JUMP JUMPDEST LT ISZERO PUSH0 DUP1 PUSH2 0xAA7 JUMP JUMPDEST SWAP2 POP PUSH2 0xB18 DUP5 DUP3 PUSH2 0x22F8 JUMP JUMPDEST TIMESTAMP LT ISZERO SWAP2 PUSH2 0xAA0 JUMP JUMPDEST PUSH4 0x7A92F19 PUSH1 0xE5 SHL DUP5 MSTORE PUSH1 0x4 DUP5 REVERT JUMPDEST PUSH1 0x3 SWAP2 POP EQ ISZERO PUSH0 PUSH2 0xA84 JUMP JUMPDEST PUSH4 0x4E487B71 PUSH1 0xE0 SHL DUP6 MSTORE PUSH1 0x21 PUSH1 0x4 MSTORE PUSH1 0x24 DUP6 REVERT JUMPDEST PUSH3 0x82B429 PUSH1 0xE8 SHL DUP6 MSTORE PUSH1 0x4 DUP6 REVERT JUMPDEST PUSH4 0x4D36EB69 PUSH1 0xE0 SHL DUP7 MSTORE PUSH1 0x4 DUP7 REVERT JUMPDEST PUSH4 0x2299770D PUSH1 0xE1 SHL DUP4 MSTORE PUSH1 0x4 DUP4 REVERT JUMPDEST PUSH4 0xCBF4A645 PUSH1 0xE0 SHL DUP4 MSTORE PUSH1 0x4 DUP4 REVERT JUMPDEST POP CALLVALUE PUSH2 0x1AD JUMPI DUP1 PUSH1 0x3 NOT CALLDATASIZE ADD SLT PUSH2 0x1AD JUMPI PUSH1 0x20 PUSH4 0xFFFFFFFF PUSH1 0x2 SLOAD DUP3 SHR AND PUSH1 0x40 MLOAD SWAP1 DUP2 MSTORE RETURN JUMPDEST POP CALLVALUE PUSH2 0x1AD JUMPI PUSH1 0x20 CALLDATASIZE PUSH1 0x3 NOT ADD SLT PUSH2 0x1AD JUMPI PUSH1 0x4 CALLDATALOAD DUP2 MSTORE DUP1 PUSH1 0x20 MSTORE PUSH1 0x40 DUP2 KECCAK256 SWAP1 PUSH1 0x40 MLOAD SWAP1 PUSH2 0xBDE DUP3 PUSH2 0x1E92 JUMP JUMPDEST DUP3 SLOAD PUSH1 0xFF DUP2 AND PUSH1 0x5 DUP2 LT ISZERO PUSH2 0xD02 JUMPI DUP4 MSTORE PUSH1 0x8 SHR PUSH1 0x1 PUSH1 0x1 PUSH1 0xA0 SHL SUB AND PUSH1 0x20 DUP4 ADD MSTORE PUSH2 0xC0C PUSH1 0x1 DUP5 ADD PUSH2 0x1F21 JUMP JUMPDEST PUSH1 0x40 DUP4 ADD MSTORE PUSH1 0x3 DUP4 ADD SLOAD PUSH1 0x60 DUP4 ADD MSTORE PUSH1 0x4 DUP4 ADD PUSH1 0x40 MLOAD SWAP2 DUP3 PUSH1 0x20 DUP4 SLOAD SWAP2 DUP3 DUP2 MSTORE ADD SWAP3 DUP3 MSTORE PUSH1 0x20 DUP3 KECCAK256 SWAP2 JUMPDEST DUP2 DUP2 LT PUSH2 0xCEC JUMPI PUSH1 0x20 PUSH2 0xCE4 DUP9 DUP9 DUP9 PUSH2 0xC51 DUP2 DUP11 SUB DUP3 PUSH2 0x1F00 JUMP JUMPDEST PUSH1 0x80 DUP3 ADD MSTORE PUSH1 0x5 DUP3 ADD SLOAD SWAP1 PUSH1 0xA0 DUP2 ADD SWAP2 DUP3 MSTORE PUSH2 0x1C0 PUSH2 0xCD8 PUSH1 0x12 PUSH1 0x6 DUP7 ADD SLOAD SWAP6 PUSH1 0xC0 DUP6 ADD SWAP7 DUP8 MSTORE PUSH1 0x7 DUP2 ADD SLOAD PUSH1 0xE0 DUP7 ADD MSTORE PUSH1 0x8 DUP2 ADD SLOAD PUSH2 0x100 DUP7 ADD MSTORE PUSH1 0x9 DUP2 ADD SLOAD PUSH2 0x120 DUP7 ADD MSTORE PUSH1 0xA DUP2 ADD SLOAD PUSH2 0x140 DUP7 ADD MSTORE PUSH1 0xB DUP2 ADD SLOAD PUSH2 0x160 DUP7 ADD MSTORE PUSH2 0xCBA PUSH1 0xC DUP3 ADD PUSH2 0x1F77 JUMP JUMPDEST PUSH2 0x180 DUP7 ADD MSTORE PUSH2 0xCCC PUSH1 0xD DUP3 ADD PUSH2 0x2017 JUMP JUMPDEST PUSH2 0x1A0 DUP7 ADD MSTORE ADD PUSH2 0x207B JUMP JUMPDEST SWAP2 ADD MSTORE MLOAD SWAP1 MLOAD SWAP1 PUSH2 0x22F8 JUMP JUMPDEST PUSH1 0x40 MLOAD SWAP1 DUP2 MSTORE RETURN JUMPDEST DUP3 SLOAD DUP5 MSTORE PUSH1 0x20 SWAP1 SWAP4 ADD SWAP3 PUSH1 0x1 SWAP3 DUP4 ADD SWAP3 ADD PUSH2 0xC36 JUMP JUMPDEST PUSH4 0x4E487B71 PUSH1 0xE0 SHL DUP4 MSTORE PUSH1 0x21 PUSH1 0x4 MSTORE PUSH1 0x24 DUP4 REVERT JUMPDEST POP CALLVALUE PUSH2 0x195 JUMPI PUSH2 0xD25 CALLDATASIZE PUSH2 0x21EA JUMP JUMPDEST DUP5 SWAP2 SWAP3 SWAP5 SWAP6 SWAP4 SWAP6 ISZERO PUSH2 0x1083 JUMPI PUSH1 0x3 SLOAD SWAP6 PUSH4 0xFFFFFFFF DUP1 DUP9 PUSH1 0xA0 SHR AND AND PUSH4 0xFFFFFFFF DUP5 PUSH1 0x40 SHR AND SUB PUSH2 0x1074 JUMPI DUP3 PUSH0 MSTORE PUSH0 PUSH1 0x20 MSTORE PUSH1 0x40 PUSH0 KECCAK256 SWAP6 DUP7 SLOAD PUSH1 0x1 DUP1 PUSH1 0xA0 SHL SUB DUP2 PUSH1 0x8 SHR AND ISZERO PUSH2 0x1065 JUMPI PUSH1 0xFF AND SWAP8 PUSH1 0x5 DUP10 LT ISZERO DUP1 PUSH2 0x1036 JUMPI PUSH1 0x2 DUP11 EQ DUP1 ISZERO PUSH2 0x1059 JUMPI JUMPDEST PUSH2 0x104A JUMPI PUSH2 0x1036 JUMPI PUSH1 0x1 DUP10 EQ ISZERO DUP1 PUSH2 0x101B JUMPI JUMPDEST PUSH2 0x100C JUMPI PUSH1 0x1 PUSH1 0x1 PUSH1 0xA0 SHL SUB AND SWAP2 DUP3 EXTCODESIZE ISZERO PUSH2 0x195 JUMPI DUP4 SWAP3 PUSH0 SWAP3 DUP8 SWAP3 PUSH2 0xDD6 PUSH1 0x40 MLOAD SWAP7 DUP8 SWAP6 DUP7 SWAP5 DUP6 SWAP5 PUSH4 0x5C73957B PUSH1 0xE1 SHL DUP7 MSTORE PUSH1 0x4 DUP7 ADD PUSH2 0x2325 JUMP JUMPDEST SUB SWAP2 GAS STATICCALL DUP1 ISZERO PUSH2 0x1001 JUMPI PUSH2 0xFEC JUMPI JUMPDEST POP DUP3 ADD SWAP5 PUSH2 0x120 DUP4 DUP8 SUB SLT PUSH2 0x50B JUMPI DUP6 PUSH1 0x1F DUP5 ADD SLT ISZERO PUSH2 0x50B JUMPI PUSH2 0x120 SWAP6 PUSH1 0x40 MLOAD SWAP4 PUSH2 0xE11 DUP9 DUP7 PUSH2 0x1F00 JUMP JUMPDEST DUP5 SWAP1 DUP9 DUP2 ADD SWAP3 DUP4 GT PUSH2 0xFE8 JUMPI SWAP1 JUMPDEST DUP3 DUP3 LT PUSH2 0xFD8 JUMPI POP POP POP DUP3 MLOAD PUSH1 0x3 DUP7 ADD SLOAD SUB PUSH2 0xFC9 JUMPI PUSH1 0x40 MLOAD SWAP6 PUSH2 0xE43 DUP2 DUP9 PUSH2 0x1F00 JUMP JUMPDEST PUSH1 0x8 DUP8 MSTORE PUSH1 0x20 DUP8 ADD SWAP1 PUSH1 0x1F NOT ADD CALLDATASIZE DUP3 CALLDATACOPY PUSH1 0x1 JUMPDEST PUSH1 0x9 DUP2 LT ISZERO PUSH2 0xEB3 JUMPI DUP1 PUSH1 0x5 SHL DUP6 ADD MLOAD PUSH0 NOT DUP3 ADD DUP3 DUP2 GT PUSH2 0xE9F JUMPI DUP10 MLOAD DUP2 LT ISZERO PUSH2 0xE8B JUMPI PUSH1 0x5 SHL DUP10 ADD PUSH1 0x20 ADD MSTORE PUSH1 0x1 ADD PUSH2 0xE56 JUMP JUMPDEST PUSH4 0x4E487B71 PUSH1 0xE0 SHL DUP9 MSTORE PUSH1 0x32 PUSH1 0x4 MSTORE PUSH1 0x24 DUP9 REVERT JUMPDEST PUSH4 0x4E487B71 PUSH1 0xE0 SHL DUP9 MSTORE PUSH1 0x11 PUSH1 0x4 MSTORE PUSH1 0x24 DUP9 REVERT JUMPDEST POP DUP7 SWAP4 POP PUSH1 0x4 DUP7 DUP2 PUSH1 0xFF NOT DUP3 SLOAD AND OR DUP2 SSTORE ADD DUP5 MLOAD SWAP2 PUSH1 0x1 PUSH1 0x1 PUSH1 0x40 SHL SUB DUP4 GT PUSH2 0xFB5 JUMPI PUSH9 0x10000000000000000 DUP4 GT PUSH2 0xFB5 JUMPI DUP2 SLOAD DUP4 DUP4 SSTORE DUP1 DUP5 LT PUSH2 0xF9A JUMPI JUMPDEST POP SWAP1 DUP5 SWAP4 SWAP3 SWAP2 SWAP1 DUP8 MSTORE PUSH1 0x20 DUP8 KECCAK256 DUP8 JUMPDEST DUP4 DUP2 LT PUSH2 0xF83 JUMPI POP POP POP POP PUSH1 0x40 PUSH32 0x2F25F350B681441B5BB45430FBE61E78D0170CFF4AD02CB0AA48A6427909AA8C SWAP2 PUSH2 0xF3D DUP3 MLOAD DUP1 SWAP3 PUSH2 0x20B9 JUMP JUMPDEST PUSH1 0x4 PUSH1 0x20 DUP3 ADD MSTORE LOG2 PUSH32 0x5DA8009AEB11DE7EF64598B0DE897A03D2F93EFABDA8507A70E29CCA4530CF5D PUSH1 0x40 MLOAD PUSH1 0x20 DUP2 MSTORE DUP1 PUSH2 0xF7D CALLER SWAP6 PUSH1 0x20 DUP4 ADD SWAP1 PUSH2 0x21B7 JUMP JUMPDEST SUB SWAP1 LOG3 DUP1 RETURN JUMPDEST DUP3 MLOAD DUP2 DUP4 ADD SSTORE DUP7 SWAP6 POP PUSH1 0x20 SWAP1 SWAP3 ADD SWAP2 PUSH1 0x1 ADD PUSH2 0xF02 JUMP JUMPDEST DUP3 DUP9 MSTORE PUSH1 0x20 DUP9 KECCAK256 PUSH2 0xFAF SWAP2 DUP2 ADD SWAP1 DUP6 ADD PUSH2 0x2264 JUMP JUMPDEST DUP8 PUSH2 0xEF3 JUMP JUMPDEST PUSH4 0x4E487B71 PUSH1 0xE0 SHL DUP8 MSTORE PUSH1 0x41 PUSH1 0x4 MSTORE PUSH1 0x24 DUP8 REVERT JUMPDEST PUSH4 0xB6FAC03 PUSH1 0xE4 SHL DUP5 MSTORE PUSH1 0x4 DUP5 REVERT JUMPDEST DUP2 CALLDATALOAD DUP2 MSTORE PUSH1 0x20 SWAP2 DUP3 ADD SWAP2 ADD PUSH2 0xE1F JUMP JUMPDEST DUP7 DUP1 REVERT JUMPDEST PUSH2 0xFF9 SWAP2 SWAP5 POP PUSH0 SWAP1 PUSH2 0x1F00 JUMP JUMPDEST PUSH0 SWAP3 PUSH0 PUSH2 0xDE5 JUMP JUMPDEST PUSH1 0x40 MLOAD RETURNDATASIZE PUSH0 DUP3 RETURNDATACOPY RETURNDATASIZE SWAP1 REVERT JUMPDEST PUSH4 0xE843C5EB PUSH1 0xE0 SHL PUSH0 MSTORE PUSH1 0x4 PUSH0 REVERT JUMPDEST POP PUSH2 0x102F PUSH1 0x5 DUP10 ADD SLOAD PUSH1 0x6 DUP11 ADD SLOAD SWAP1 PUSH2 0x22F8 JUMP JUMPDEST TIMESTAMP LT PUSH2 0xD9B JUMP JUMPDEST PUSH4 0x4E487B71 PUSH1 0xE0 SHL PUSH0 MSTORE PUSH1 0x21 PUSH1 0x4 MSTORE PUSH1 0x24 PUSH0 REVERT JUMPDEST PUSH4 0x7A92F19 PUSH1 0xE5 SHL PUSH0 MSTORE PUSH1 0x4 PUSH0 REVERT JUMPDEST POP POP PUSH0 PUSH1 0x4 DUP11 EQ PUSH2 0xD88 JUMP JUMPDEST PUSH4 0x4D36EB69 PUSH1 0xE0 SHL PUSH0 MSTORE PUSH1 0x4 PUSH0 REVERT JUMPDEST PUSH4 0x2299770D PUSH1 0xE1 SHL PUSH0 MSTORE PUSH1 0x4 PUSH0 REVERT JUMPDEST PUSH4 0xCBF4A645 PUSH1 0xE0 SHL PUSH0 MSTORE PUSH1 0x4 PUSH0 REVERT JUMPDEST CALLVALUE PUSH2 0x195 JUMPI PUSH0 CALLDATASIZE PUSH1 0x3 NOT ADD SLT PUSH2 0x195 JUMPI PUSH1 0x3 SLOAD PUSH1 0x40 MLOAD PUSH1 0x1 PUSH1 0x1 PUSH1 0xA0 SHL SUB SWAP1 SWAP2 AND DUP2 MSTORE PUSH1 0x20 SWAP1 RETURN JUMPDEST CALLVALUE PUSH2 0x195 JUMPI PUSH1 0x20 CALLDATASIZE PUSH1 0x3 NOT ADD SLT PUSH2 0x195 JUMPI PUSH1 0x40 MLOAD PUSH2 0x10D7 DUP2 PUSH2 0x1E92 JUMP JUMPDEST PUSH0 DUP2 MSTORE PUSH0 PUSH1 0x20 DUP3 ADD MSTORE PUSH1 0x40 MLOAD PUSH2 0x10EC DUP2 PUSH2 0x1EAE JUMP JUMPDEST PUSH0 DUP2 MSTORE PUSH0 PUSH1 0x20 DUP3 ADD MSTORE PUSH1 0x40 DUP3 ADD MSTORE PUSH0 PUSH1 0x60 DUP3 ADD MSTORE PUSH1 0x60 PUSH1 0x80 DUP3 ADD MSTORE PUSH0 PUSH1 0xA0 DUP3 ADD MSTORE PUSH0 PUSH1 0xC0 DUP3 ADD MSTORE PUSH0 PUSH1 0xE0 DUP3 ADD MSTORE PUSH0 PUSH2 0x100 DUP3 ADD MSTORE PUSH0 PUSH2 0x120 DUP3 ADD MSTORE PUSH0 PUSH2 0x140 DUP3 ADD MSTORE PUSH0 PUSH2 0x160 DUP3 ADD MSTORE PUSH1 0x60 PUSH2 0x180 DUP3 ADD MSTORE PUSH2 0x1145 PUSH2 0x22BC JUMP JUMPDEST PUSH2 0x1A0 DUP3 ADD MSTORE PUSH2 0x1C0 PUSH1 0x40 MLOAD SWAP2 PUSH2 0x115B DUP4 PUSH2 0x1EC9 JUMP JUMPDEST PUSH0 DUP4 MSTORE PUSH0 PUSH1 0x20 DUP5 ADD MSTORE PUSH1 0x60 PUSH1 0x40 DUP5 ADD MSTORE ADD MSTORE PUSH1 0x4 CALLDATALOAD PUSH0 MSTORE PUSH0 PUSH1 0x20 MSTORE PUSH1 0x40 PUSH0 KECCAK256 PUSH1 0x40 MLOAD SWAP1 PUSH2 0x1187 DUP3 PUSH2 0x1E92 JUMP JUMPDEST DUP1 SLOAD SWAP1 PUSH1 0xFF DUP3 AND PUSH1 0x5 DUP2 LT ISZERO PUSH2 0x1036 JUMPI DUP4 MSTORE PUSH1 0x8 SWAP2 SWAP1 SWAP2 SHR PUSH1 0x1 PUSH1 0x1 PUSH1 0xA0 SHL SUB AND PUSH1 0x20 DUP4 ADD SWAP1 DUP2 MSTORE SWAP1 PUSH2 0x11BC PUSH1 0x1 DUP3 ADD PUSH2 0x1F21 JUMP JUMPDEST SWAP3 PUSH1 0x40 DUP2 ADD SWAP4 DUP5 MSTORE PUSH1 0x3 DUP3 ADD SLOAD PUSH1 0x60 DUP3 ADD SWAP1 DUP2 MSTORE PUSH1 0x4 DUP4 ADD SWAP1 PUSH1 0x40 MLOAD DUP1 SWAP3 DUP4 SWAP2 PUSH1 0x20 DUP3 SLOAD SWAP2 DUP3 DUP2 MSTORE ADD SWAP2 PUSH0 MSTORE PUSH1 0x20 PUSH0 KECCAK256 SWAP1 PUSH0 JUMPDEST DUP2 DUP2 LT PUSH2 0x1377 JUMPI POP POP POP SUB PUSH2 0x1204 SWAP1 DUP4 PUSH2 0x1F00 JUMP JUMPDEST PUSH1 0x80 DUP4 ADD SWAP2 DUP3 MSTORE PUSH1 0x5 DUP5 ADD SLOAD SWAP2 PUSH1 0xA0 DUP5 ADD SWAP3 DUP4 MSTORE PUSH1 0x6 DUP6 ADD SLOAD PUSH1 0xC0 DUP6 ADD SWAP1 DUP2 MSTORE PUSH1 0x7 DUP7 ADD SLOAD PUSH1 0xE0 DUP7 ADD SWAP1 DUP2 MSTORE PUSH1 0x8 DUP8 ADD SLOAD PUSH2 0x100 DUP8 ADD SWAP1 DUP2 MSTORE PUSH1 0x9 DUP9 ADD SLOAD SWAP2 PUSH2 0x120 DUP9 ADD SWAP3 DUP4 MSTORE PUSH1 0xA DUP10 ADD SLOAD SWAP4 PUSH2 0x140 DUP10 ADD SWAP5 DUP6 MSTORE PUSH1 0xB DUP11 ADD SLOAD SWAP6 PUSH2 0x160 DUP11 ADD SWAP7 DUP8 MSTORE PUSH1 0xC DUP12 ADD PUSH2 0x1274 SWAP1 PUSH2 0x1F77 JUMP JUMPDEST PUSH2 0x180 DUP12 ADD SWAP1 DUP2 MSTORE SWAP8 PUSH2 0x1289 PUSH1 0xD DUP14 ADD PUSH2 0x2017 JUMP JUMPDEST SWAP12 PUSH2 0x1A0 DUP13 ADD SWAP13 DUP14 MSTORE PUSH1 0x12 ADD PUSH2 0x129E SWAP1 PUSH2 0x207B JUMP JUMPDEST SWAP11 PUSH2 0x1C0 DUP2 ADD SWAP12 DUP13 MSTORE PUSH1 0x40 MLOAD SWAP15 DUP16 SWAP15 DUP16 SWAP3 PUSH1 0x20 DUP5 MSTORE PUSH1 0x20 DUP5 ADD SWAP1 MLOAD SWAP1 PUSH2 0x12C3 SWAP2 PUSH2 0x20B9 JUMP JUMPDEST MLOAD PUSH1 0x1 PUSH1 0x1 PUSH1 0xA0 SHL SUB AND PUSH1 0x40 DUP4 ADD MSTORE MLOAD DUP1 MLOAD PUSH1 0x60 DUP4 ADD MSTORE PUSH1 0x20 ADD MLOAD PUSH1 0x80 SWAP1 SWAP2 ADD MSTORE MLOAD PUSH1 0xA0 DUP14 ADD MSTORE MLOAD PUSH2 0x2E0 PUSH1 0xC0 DUP14 ADD MSTORE PUSH2 0x1302 SWAP1 PUSH2 0x300 DUP14 ADD SWAP1 PUSH2 0x21B7 JUMP JUMPDEST SWAP8 MLOAD PUSH1 0xE0 DUP13 ADD MSTORE MLOAD PUSH2 0x100 DUP12 ADD MSTORE MLOAD PUSH2 0x120 DUP11 ADD MSTORE MLOAD PUSH2 0x140 DUP10 ADD MSTORE MLOAD PUSH2 0x160 DUP9 ADD MSTORE MLOAD PUSH2 0x180 DUP8 ADD MSTORE MLOAD PUSH2 0x1A0 DUP7 ADD MSTORE MLOAD DUP5 DUP3 SUB PUSH1 0x1F NOT ADD PUSH2 0x1C0 DUP7 ADD MSTORE PUSH2 0x134B SWAP2 SWAP1 PUSH2 0x20C6 JUMP JUMPDEST SWAP2 MLOAD PUSH2 0x1E0 DUP5 ADD PUSH2 0x135B SWAP2 PUSH2 0x20EA JUMP JUMPDEST MLOAD DUP3 DUP3 SUB PUSH1 0x1F NOT ADD PUSH2 0x2E0 DUP5 ADD MSTORE PUSH2 0x1373 SWAP2 SWAP1 PUSH2 0x213F JUMP JUMPDEST SUB SWAP1 RETURN JUMPDEST DUP3 SLOAD DUP5 MSTORE DUP7 SWAP5 POP PUSH1 0x20 SWAP1 SWAP4 ADD SWAP3 PUSH1 0x1 SWAP3 DUP4 ADD SWAP3 ADD PUSH2 0x11EF JUMP JUMPDEST CALLVALUE PUSH2 0x195 JUMPI PUSH0 CALLDATASIZE PUSH1 0x3 NOT ADD SLT PUSH2 0x195 JUMPI PUSH1 0x20 PUSH4 0xFFFFFFFF PUSH1 0x2 SLOAD AND PUSH1 0x40 MLOAD SWAP1 DUP2 MSTORE RETURN JUMPDEST CALLVALUE PUSH2 0x195 JUMPI PUSH2 0x220 CALLDATASIZE PUSH1 0x3 NOT ADD SLT PUSH2 0x195 JUMPI PUSH1 0x4 CALLDATALOAD PUSH1 0x5 DUP2 LT ISZERO PUSH2 0x195 JUMPI PUSH1 0x24 CALLDATALOAD SWAP1 PUSH1 0x44 CALLDATALOAD SWAP1 PUSH1 0x64 CALLDATALOAD PUSH2 0x100 CALLDATASIZE PUSH1 0x83 NOT ADD SLT PUSH2 0x195 JUMPI PUSH2 0x184 CALLDATALOAD PUSH1 0x1 PUSH1 0x1 PUSH1 0x40 SHL SUB DUP2 GT PUSH2 0x195 JUMPI DUP1 PUSH1 0x4 ADD SWAP5 PUSH1 0x60 PUSH1 0x3 NOT DUP4 CALLDATASIZE SUB ADD SLT PUSH2 0x195 JUMPI PUSH2 0x1A4 CALLDATALOAD PUSH1 0x1 PUSH1 0x1 PUSH1 0x40 SHL SUB DUP2 GT PUSH2 0x195 JUMPI PUSH2 0x142E SWAP1 CALLDATASIZE SWAP1 PUSH1 0x4 ADD PUSH2 0x218A JUMP JUMPDEST SWAP2 SWAP1 SWAP6 PUSH1 0x40 PUSH2 0x1C3 NOT CALLDATASIZE ADD SLT PUSH2 0x195 JUMPI PUSH1 0x3 SLOAD CALLER PUSH0 DUP2 DUP2 MSTORE PUSH1 0x1 PUSH1 0x20 MSTORE PUSH1 0x40 SWAP1 KECCAK256 SLOAD PUSH1 0x60 SWAP2 DUP3 SHL PUSH12 0xFFFFFFFFFFFFFFFFFFFFFFFF NOT AND SWAP3 SWAP1 SWAP2 SHR PUSH4 0xFFFFFFFF PUSH1 0x40 SHL AND SWAP2 SWAP1 SWAP2 OR PUSH1 0x1 PUSH1 0x1 PUSH1 0x40 SHL SUB SWAP2 SWAP1 SWAP2 AND OR SWAP7 DUP3 SWAP4 DUP9 PUSH0 MSTORE PUSH0 PUSH1 0x20 MSTORE CALLER PUSH1 0x1 DUP1 PUSH1 0xA0 SHL SUB PUSH1 0x40 PUSH0 KECCAK256 SLOAD PUSH1 0x8 SHR AND EQ PUSH2 0x19D5 JUMPI PUSH1 0xFF PUSH2 0x14AC PUSH2 0x227A JUMP JUMPDEST AND ISZERO DUP1 ISZERO PUSH2 0x19C1 JUMPI JUMPDEST PUSH2 0x19B2 JUMPI PUSH2 0x144 CALLDATALOAD SWAP2 PUSH2 0xFFFF DUP4 GT PUSH2 0x19A3 JUMPI PUSH2 0x124 CALLDATALOAD SWAP2 PUSH2 0x104 CALLDATALOAD SWAP9 DUP10 DUP5 GT PUSH2 0x1994 JUMPI PUSH2 0x164 CALLDATALOAD SWAP6 DUP6 DUP8 GT PUSH2 0x1985 JUMPI DUP2 ISZERO PUSH2 0x1976 JUMPI DUP14 CALLDATALOAD PUSH1 0x6 DUP2 LT ISZERO PUSH2 0x195 JUMPI PUSH1 0xFF AND SWAP8 PUSH1 0x5 DUP10 GT PUSH2 0x1967 JUMPI PUSH1 0x24 DUP12 ADD CALLDATALOAD SWAP10 DUP11 ISZERO PUSH2 0x1958 JUMPI DUP16 SWAP12 PUSH1 0x44 PUSH2 0x151D SWAP2 ADD DUP1 SWAP14 PUSH2 0x228A JUMP JUMPDEST SWAP1 POP ISZERO PUSH2 0x1949 JUMPI PUSH1 0x4 PUSH1 0xFF DUP16 AND GT DUP1 ISZERO PUSH2 0x192C JUMPI JUMPDEST PUSH2 0x104A JUMPI DUP2 ISZERO PUSH2 0x1925 JUMPI JUMPDEST TIMESTAMP DUP2 LT PUSH2 0x1916 JUMPI PUSH2 0x154F DUP4 TIMESTAMP SWAP3 PUSH2 0x22F8 JUMP JUMPDEST GT ISZERO PUSH2 0x1907 JUMPI DUP14 PUSH0 MSTORE PUSH0 PUSH1 0x20 MSTORE PUSH2 0x156A PUSH1 0x40 PUSH0 KECCAK256 SWAP14 DUP15 PUSH2 0x223F JUMP JUMPDEST PUSH1 0x5 DUP14 ADD SSTORE PUSH1 0x6 DUP13 ADD SSTORE PUSH1 0x7 DUP12 ADD SSTORE DUP10 SLOAD PUSH2 0x100 PUSH1 0x1 PUSH1 0xA8 SHL SUB NOT AND CALLER PUSH1 0x8 SHL PUSH2 0x100 PUSH1 0x1 PUSH1 0xA8 SHL SUB AND OR DUP11 SSTORE PUSH2 0x1C4 CALLDATALOAD PUSH1 0x1 DUP12 ADD SSTORE PUSH2 0x1E4 CALLDATALOAD PUSH1 0x2 DUP12 ADD SSTORE PUSH2 0x204 CALLDATALOAD PUSH1 0x3 DUP12 ADD SSTORE PUSH1 0xC DUP11 ADD SWAP2 PUSH1 0x1 PUSH1 0x1 PUSH1 0x40 SHL SUB DUP3 GT PUSH2 0x1851 JUMPI DUP2 SWAP1 PUSH2 0x15D1 DUP5 SLOAD PUSH2 0x1F3F JUMP JUMPDEST PUSH1 0x1F DUP2 GT PUSH2 0x18D7 JUMPI JUMPDEST POP PUSH0 SWAP1 PUSH1 0x1F DUP4 GT PUSH1 0x1 EQ PUSH2 0x1870 JUMPI PUSH0 SWAP3 PUSH2 0x1865 JUMPI JUMPDEST POP POP DUP2 PUSH1 0x1 SHL SWAP2 PUSH0 NOT SWAP1 PUSH1 0x3 SHL SHR NOT AND OR SWAP1 SSTORE JUMPDEST PUSH1 0xD DUP9 ADD SWAP7 PUSH1 0x84 CALLDATALOAD SWAP8 DUP9 ISZERO ISZERO SWAP9 DUP10 DUP2 SUB PUSH2 0x195 JUMPI POP DUP1 SLOAD PUSH1 0xA4 CALLDATALOAD DUP1 ISZERO ISZERO SWAP1 DUP2 DUP2 SUB PUSH2 0x195 JUMPI POP PUSH3 0xFF0000 PUSH2 0x1635 PUSH2 0x227A JUMP JUMPDEST PUSH1 0x10 SHL AND SWAP1 PUSH1 0xE4 CALLDATALOAD PUSH1 0xFF DUP2 AND DUP2 SUB PUSH2 0x195 JUMPI PUSH2 0x16A9 SWAP13 PUSH4 0xFF000000 DUP3 PUSH2 0xFF00 SWAP4 POP PUSH1 0x18 SHL AND SWAP5 PUSH1 0xFF PUSH4 0xFF000000 NOT SWAP3 AND SWAP1 PUSH3 0xFFFFFF NOT AND OR AND SWAP2 PUSH1 0x8 SHL AND OR OR OR SWAP1 SSTORE PUSH1 0xE DUP10 ADD SSTORE PUSH1 0xF DUP9 ADD SSTORE PUSH1 0x10 DUP8 ADD SSTORE PUSH1 0x11 DUP7 ADD SSTORE PUSH1 0x12 DUP6 ADD SWAP1 PUSH1 0xFF NOT DUP3 SLOAD AND OR SWAP1 SSTORE PUSH1 0x13 DUP5 ADD SSTORE PUSH1 0x14 DUP4 ADD SWAP5 PUSH2 0x228A JUMP JUMPDEST PUSH1 0x1 PUSH1 0x1 PUSH1 0x40 SHL SUB DUP2 SWAP6 SWAP3 SWAP6 GT PUSH2 0x1851 JUMPI PUSH2 0x16C4 DUP3 SLOAD PUSH2 0x1F3F JUMP JUMPDEST PUSH1 0x1F DUP2 GT PUSH2 0x1821 JUMPI JUMPDEST POP PUSH0 PUSH1 0x1F DUP3 GT PUSH1 0x1 EQ PUSH2 0x17BE JUMPI DUP2 SWAP3 SWAP4 SWAP5 SWAP6 PUSH0 SWAP3 PUSH2 0x17B3 JUMPI JUMPDEST POP POP DUP2 PUSH1 0x1 SHL SWAP2 PUSH0 NOT SWAP1 PUSH1 0x3 SHL SHR NOT AND OR SWAP1 SSTORE JUMPDEST PUSH1 0xA NUMBER SWAP2 ADD SSTORE PUSH1 0x2 SLOAD PUSH4 0xFFFFFFFF DUP2 AND PUSH4 0xFFFFFFFF DUP2 EQ PUSH2 0x179F JUMPI PUSH1 0x1 PUSH4 0xFFFFFFFF SWAP2 ADD AND SWAP1 PUSH4 0xFFFFFFFF NOT AND OR PUSH1 0x2 SSTORE CALLER PUSH0 MSTORE PUSH1 0x1 PUSH1 0x20 MSTORE PUSH1 0x40 PUSH0 KECCAK256 SWAP1 DUP2 SLOAD SWAP2 PUSH1 0x1 PUSH1 0x1 PUSH1 0x40 SHL SUB DUP4 AND SWAP3 PUSH1 0x1 PUSH1 0x1 PUSH1 0x40 SHL SUB DUP5 EQ PUSH2 0x179F JUMPI PUSH1 0x1 PUSH1 0x1 PUSH1 0x40 SHL SUB PUSH1 0x1 PUSH1 0x20 SWAP6 ADD AND SWAP1 PUSH1 0x1 PUSH1 0x1 PUSH1 0x40 SHL SUB NOT AND OR SWAP1 SSTORE PUSH1 0x40 MLOAD SWAP1 CALLER DUP2 PUSH32 0xADA6F87A2A16A0C9C169CA36754C5F33F7C1A973B575D068F888A549ED4FAEFA PUSH0 DUP1 LOG3 DUP2 MSTORE RETURN JUMPDEST PUSH4 0x4E487B71 PUSH1 0xE0 SHL PUSH0 MSTORE PUSH1 0x11 PUSH1 0x4 MSTORE PUSH1 0x24 PUSH0 REVERT JUMPDEST ADD CALLDATALOAD SWAP1 POP DUP6 DUP1 PUSH2 0x16E6 JUMP JUMPDEST PUSH1 0x1F NOT DUP3 AND SWAP6 DUP4 PUSH0 MSTORE PUSH1 0x20 PUSH0 KECCAK256 SWAP2 PUSH0 JUMPDEST DUP9 DUP2 LT PUSH2 0x1809 JUMPI POP DUP4 PUSH1 0x1 SWAP6 SWAP7 SWAP8 SWAP9 LT PUSH2 0x17F0 JUMPI JUMPDEST POP POP POP DUP2 SHL ADD SWAP1 SSTORE PUSH2 0x16FA JUMP JUMPDEST ADD CALLDATALOAD PUSH0 NOT PUSH1 0x3 DUP5 SWAP1 SHL PUSH1 0xF8 AND SHR NOT AND SWAP1 SSTORE DUP6 DUP1 DUP1 PUSH2 0x17E3 JUMP JUMPDEST SWAP1 SWAP3 PUSH1 0x20 PUSH1 0x1 DUP2 SWAP3 DUP7 DUP7 ADD CALLDATALOAD DUP2 SSTORE ADD SWAP5 ADD SWAP2 ADD PUSH2 0x17CE JUMP JUMPDEST PUSH2 0x184B SWAP1 DUP4 PUSH0 MSTORE PUSH1 0x20 PUSH0 KECCAK256 PUSH1 0x1F DUP5 ADD PUSH1 0x5 SHR DUP2 ADD SWAP2 PUSH1 0x20 DUP6 LT PUSH2 0x434 JUMPI PUSH1 0x1F ADD PUSH1 0x5 SHR ADD SWAP1 PUSH2 0x2264 JUMP JUMPDEST DUP6 PUSH2 0x16CD JUMP JUMPDEST PUSH4 0x4E487B71 PUSH1 0xE0 SHL PUSH0 MSTORE PUSH1 0x41 PUSH1 0x4 MSTORE PUSH1 0x24 PUSH0 REVERT JUMPDEST ADD CALLDATALOAD SWAP1 POP DUP14 DUP1 PUSH2 0x15EF JUMP JUMPDEST SWAP1 SWAP2 POP PUSH1 0x1F NOT DUP4 AND SWAP2 DUP5 PUSH0 MSTORE PUSH1 0x20 PUSH0 KECCAK256 SWAP3 PUSH0 JUMPDEST DUP2 DUP2 LT PUSH2 0x18BF JUMPI POP SWAP1 DUP5 PUSH1 0x1 SWAP6 SWAP5 SWAP4 SWAP3 LT PUSH2 0x18A6 JUMPI JUMPDEST POP POP POP DUP2 SHL ADD SWAP1 SSTORE PUSH2 0x1603 JUMP JUMPDEST ADD CALLDATALOAD PUSH0 NOT PUSH1 0x3 DUP5 SWAP1 SHL PUSH1 0xF8 AND SHR NOT AND SWAP1 SSTORE DUP14 DUP1 DUP1 PUSH2 0x1899 JUMP JUMPDEST SWAP2 SWAP4 PUSH1 0x20 PUSH1 0x1 DUP2 SWAP3 DUP8 DUP8 ADD CALLDATALOAD DUP2 SSTORE ADD SWAP6 ADD SWAP3 ADD PUSH2 0x1883 JUMP JUMPDEST PUSH2 0x1901 SWAP1 DUP6 PUSH0 MSTORE PUSH1 0x20 PUSH0 KECCAK256 PUSH1 0x1F DUP6 ADD PUSH1 0x5 SHR DUP2 ADD SWAP2 PUSH1 0x20 DUP7 LT PUSH2 0x434 JUMPI PUSH1 0x1F ADD PUSH1 0x5 SHR ADD SWAP1 PUSH2 0x2264 JUMP JUMPDEST DUP15 PUSH2 0x15DA JUMP JUMPDEST PUSH4 0x76166401 PUSH1 0xE0 SHL PUSH0 MSTORE PUSH1 0x4 PUSH0 REVERT JUMPDEST PUSH4 0x2CA4094F PUSH1 0xE2 SHL PUSH0 MSTORE PUSH1 0x4 PUSH0 REVERT JUMPDEST POP TIMESTAMP PUSH2 0x153D JUMP JUMPDEST POP DUP14 ISZERO ISZERO DUP15 DUP2 PUSH2 0x193D JUMPI JUMPDEST POP PUSH2 0x1532 JUMP JUMPDEST PUSH1 0x3 SWAP2 POP EQ ISZERO DUP15 PUSH2 0x1937 JUMP JUMPDEST PUSH4 0xF8B9321 PUSH1 0xE1 SHL PUSH0 MSTORE PUSH1 0x4 PUSH0 REVERT JUMPDEST PUSH4 0x5E32EADD PUSH1 0xE0 SHL PUSH0 MSTORE PUSH1 0x4 PUSH0 REVERT JUMPDEST PUSH4 0xF37F7B5D PUSH1 0xE0 SHL PUSH0 MSTORE PUSH1 0x4 PUSH0 REVERT JUMPDEST PUSH4 0x2C45BE6F PUSH1 0xE0 SHL PUSH0 MSTORE PUSH1 0x4 PUSH0 REVERT JUMPDEST PUSH4 0x6D403EC7 PUSH1 0xE1 SHL PUSH0 MSTORE PUSH1 0x4 PUSH0 REVERT JUMPDEST PUSH4 0x207EA56D PUSH1 0xE0 SHL PUSH0 MSTORE PUSH1 0x4 PUSH0 REVERT JUMPDEST PUSH4 0x4DBA7951 PUSH1 0xE0 SHL PUSH0 MSTORE PUSH1 0x4 PUSH0 REVERT JUMPDEST PUSH4 0xAC38930B PUSH1 0xE0 SHL PUSH0 MSTORE PUSH1 0x4 PUSH0 REVERT JUMPDEST POP PUSH1 0x8 PUSH1 0xFF PUSH2 0x19CE PUSH2 0x227A JUMP JUMPDEST AND GT PUSH2 0x14B5 JUMP JUMPDEST PUSH4 0x5040C4D3 PUSH1 0xE1 SHL PUSH0 MSTORE PUSH1 0x4 PUSH0 REVERT JUMPDEST CALLVALUE PUSH2 0x195 JUMPI PUSH2 0x19F2 CALLDATASIZE PUSH2 0x2174 JUMP JUMPDEST DUP2 ISZERO PUSH2 0x1083 JUMPI PUSH4 0xFFFFFFFF DUP1 PUSH1 0x3 SLOAD PUSH1 0xA0 SHR AND AND PUSH4 0xFFFFFFFF DUP4 PUSH1 0x40 SHR AND SUB PUSH2 0x1074 JUMPI PUSH0 DUP3 DUP2 MSTORE PUSH1 0x20 DUP2 SWAP1 MSTORE PUSH1 0x40 SWAP1 KECCAK256 DUP1 SLOAD PUSH1 0x8 DUP2 SWAP1 SHR PUSH1 0x1 PUSH1 0x1 PUSH1 0xA0 SHL SUB AND DUP1 ISZERO PUSH2 0x1065 JUMPI CALLER SUB PUSH2 0x1AB2 JUMPI PUSH1 0xFF AND PUSH1 0x5 DUP2 LT ISZERO PUSH2 0x1036 JUMPI DUP1 ISZERO ISZERO SWAP1 DUP2 PUSH2 0x1AA6 JUMPI JUMPDEST POP PUSH2 0x104A JUMPI DUP2 ISZERO DUP1 ISZERO PUSH2 0x1A99 JUMPI JUMPDEST PUSH2 0x1976 JUMPI DUP2 PUSH32 0xDBED30289C8EDB9C8E40449CE45792CEE5B9EBA7C798AFBADBCB4345699F1E24 SWAP3 PUSH1 0x7 PUSH1 0x20 SWAP4 ADD SSTORE PUSH1 0x40 MLOAD SWAP1 DUP2 MSTORE LOG2 STOP JUMPDEST POP PUSH1 0x8 DUP2 ADD SLOAD DUP3 LT PUSH2 0x1A62 JUMP JUMPDEST PUSH1 0x3 SWAP2 POP EQ ISZERO DUP5 PUSH2 0x1A54 JUMP JUMPDEST PUSH3 0x82B429 PUSH1 0xE8 SHL PUSH0 MSTORE PUSH1 0x4 PUSH0 REVERT JUMPDEST CALLVALUE PUSH2 0x195 JUMPI PUSH0 CALLDATASIZE PUSH1 0x3 NOT ADD SLT PUSH2 0x195 JUMPI PUSH1 0x20 PUSH1 0x40 MLOAD PUSH1 0x4 DUP2 MSTORE RETURN JUMPDEST CALLVALUE PUSH2 0x195 JUMPI PUSH1 0x20 CALLDATASIZE PUSH1 0x3 NOT ADD SLT PUSH2 0x195 JUMPI PUSH1 0x4 CALLDATALOAD PUSH1 0x1 PUSH1 0x1 PUSH1 0xA0 SHL SUB DUP2 AND SWAP1 DUP2 DUP2 SUB PUSH2 0x195 JUMPI PUSH1 0x3 SLOAD PUSH0 SWAP3 DUP4 MSTORE PUSH1 0x1 PUSH1 0x20 SWAP1 DUP2 MSTORE PUSH1 0x40 SWAP1 SWAP4 KECCAK256 SLOAD PUSH1 0x60 SWAP3 DUP4 SHL PUSH12 0xFFFFFFFFFFFFFFFFFFFFFFFF NOT AND SWAP2 SWAP1 SWAP3 SHR PUSH4 0xFFFFFFFF PUSH1 0x40 SHL AND OR PUSH1 0x1 PUSH1 0x1 PUSH1 0x40 SHL SUB SWAP2 SWAP1 SWAP2 AND OR PUSH2 0xCE4 JUMP JUMPDEST CALLVALUE PUSH2 0x195 JUMPI PUSH1 0x20 CALLDATASIZE PUSH1 0x3 NOT ADD SLT PUSH2 0x195 JUMPI PUSH1 0x4 CALLDATALOAD PUSH1 0x1 PUSH1 0x1 PUSH1 0xA0 SHL SUB DUP2 AND SWAP1 DUP2 SWAP1 SUB PUSH2 0x195 JUMPI PUSH0 MSTORE PUSH1 0x1 PUSH1 0x20 MSTORE PUSH1 0x20 PUSH1 0x1 PUSH1 0x1 PUSH1 0x40 SHL SUB PUSH1 0x40 PUSH0 KECCAK256 SLOAD AND PUSH1 0x40 MLOAD SWAP1 DUP2 MSTORE RETURN JUMPDEST CALLVALUE PUSH2 0x195 JUMPI PUSH1 0x40 CALLDATASIZE PUSH1 0x3 NOT ADD SLT PUSH2 0x195 JUMPI PUSH1 0x4 CALLDATALOAD PUSH1 0x24 CALLDATALOAD PUSH1 0x5 DUP2 LT ISZERO PUSH2 0x195 JUMPI DUP2 ISZERO PUSH2 0x1083 JUMPI PUSH4 0xFFFFFFFF DUP1 PUSH1 0x3 SLOAD PUSH1 0xA0 SHR AND AND PUSH4 0xFFFFFFFF DUP4 PUSH1 0x40 SHR AND SUB PUSH2 0x1074 JUMPI PUSH1 0x4 PUSH1 0xFF DUP3 AND GT PUSH2 0x104A JUMPI DUP2 PUSH0 MSTORE PUSH0 PUSH1 0x20 MSTORE PUSH1 0x40 PUSH0 KECCAK256 SWAP1 DUP2 SLOAD PUSH1 0x1 DUP1 PUSH1 0xA0 SHL SUB DUP2 PUSH1 0x8 SHR AND DUP1 ISZERO PUSH2 0x1065 JUMPI CALLER SUB PUSH2 0x1AB2 JUMPI PUSH1 0xFF AND PUSH2 0x1C0F DUP3 DUP3 PUSH2 0x235A JUMP JUMPDEST ISZERO PUSH2 0x104A JUMPI PUSH2 0x1C68 DUP3 DUP6 DUP6 PUSH2 0x1C47 PUSH1 0x40 SWAP7 PUSH32 0x2F25F350B681441B5BB45430FBE61E78D0170CFF4AD02CB0AA48A6427909AA8C SWAP9 PUSH2 0x223F JUMP JUMPDEST PUSH1 0x1 DUP4 EQ PUSH2 0x1C6B JUMPI JUMPDEST POP POP PUSH2 0x1C5E DUP5 MLOAD DUP1 SWAP5 PUSH2 0x20B9 JUMP JUMPDEST PUSH1 0x20 DUP4 ADD SWAP1 PUSH2 0x20B9 JUMP JUMPDEST LOG2 STOP JUMPDEST PUSH1 0x20 PUSH1 0x6 PUSH32 0xF759826327C668A220D576485AC38DDC4F83FBC414B984C00E79F669B649F46 SWAP3 PUSH1 0x5 DUP2 ADD SLOAD DUP1 TIMESTAMP LT ISZERO PUSH0 EQ PUSH2 0x1CBD JUMPI PUSH2 0x1CAA SWAP1 TIMESTAMP PUSH2 0x2257 JUMP JUMPDEST SWAP2 DUP3 SWAP2 JUMPDEST ADD SSTORE DUP8 MLOAD SWAP1 DUP2 MSTORE LOG2 DUP6 DUP8 PUSH2 0x1C50 JUMP JUMPDEST POP PUSH0 SWAP2 DUP3 SWAP2 PUSH2 0x1CAE JUMP JUMPDEST CALLVALUE PUSH2 0x195 JUMPI PUSH0 CALLDATASIZE PUSH1 0x3 NOT ADD SLT PUSH2 0x195 JUMPI PUSH1 0x2 SLOAD PUSH1 0x40 DUP1 MLOAD PUSH4 0x233ACE11 PUSH1 0xE0 SHL DUP2 MSTORE SWAP2 PUSH1 0x20 SWAP2 DUP4 SWAP2 PUSH1 0x4 SWAP2 DUP4 SWAP2 SWAP1 SHR PUSH1 0x1 PUSH1 0x1 PUSH1 0xA0 SHL SUB AND GAS STATICCALL DUP1 ISZERO PUSH2 0x1001 JUMPI PUSH0 SWAP1 PUSH2 0x16A JUMPI PUSH1 0x20 SWAP1 PUSH1 0x40 MLOAD SWAP1 DUP2 MSTORE RETURN JUMPDEST CALLVALUE PUSH2 0x195 JUMPI PUSH0 CALLDATASIZE PUSH1 0x3 NOT ADD SLT PUSH2 0x195 JUMPI PUSH1 0x20 PUSH1 0x40 MLOAD PUSH0 DUP2 MSTORE RETURN JUMPDEST CALLVALUE PUSH2 0x195 JUMPI PUSH0 CALLDATASIZE PUSH1 0x3 NOT ADD SLT PUSH2 0x195 JUMPI PUSH1 0x2 SLOAD PUSH1 0x40 DUP1 MLOAD SWAP2 SWAP1 SHR PUSH1 0x1 PUSH1 0x1 PUSH1 0xA0 SHL SUB AND DUP2 MSTORE PUSH1 0x20 SWAP1 RETURN JUMPDEST CALLVALUE PUSH2 0x195 JUMPI PUSH1 0x20 CALLDATASIZE PUSH1 0x3 NOT ADD SLT PUSH2 0x195 JUMPI PUSH1 0x4 CALLDATALOAD PUSH0 MSTORE PUSH0 PUSH1 0x20 MSTORE PUSH1 0x40 PUSH0 KECCAK256 DUP1 SLOAD PUSH1 0x1 DUP3 ADD PUSH2 0x1D88 SWAP1 PUSH2 0x1F21 JUMP JUMPDEST SWAP2 PUSH1 0x3 DUP2 ADD SLOAD SWAP1 PUSH1 0x5 DUP2 ADD SLOAD PUSH1 0x6 DUP3 ADD SLOAD PUSH1 0x7 DUP4 ADD SLOAD PUSH1 0x8 DUP5 ADD SLOAD PUSH1 0x9 DUP6 ADD SLOAD SWAP1 PUSH1 0xA DUP7 ADD SLOAD SWAP3 PUSH1 0xB DUP8 ADD SLOAD SWAP5 PUSH1 0xC DUP9 ADD PUSH2 0x1DC2 SWAP1 PUSH2 0x1F77 JUMP JUMPDEST SWAP7 PUSH2 0x1DCF PUSH1 0xD DUP11 ADD PUSH2 0x2017 JUMP JUMPDEST SWAP9 PUSH1 0x12 ADD PUSH2 0x1DDC SWAP1 PUSH2 0x207B JUMP JUMPDEST SWAP10 PUSH1 0x40 MLOAD SWAP13 DUP14 DUP14 DUP2 SWAP15 PUSH1 0xFF DUP4 SWAP2 AND SWAP1 PUSH2 0x1DF4 SWAP2 PUSH2 0x20B9 JUMP JUMPDEST PUSH1 0x8 SHR PUSH1 0x1 PUSH1 0x1 PUSH1 0xA0 SHL SUB AND PUSH1 0x20 SWAP2 DUP3 ADD MSTORE DUP2 MLOAD PUSH1 0x40 DUP16 ADD MSTORE ADD MLOAD PUSH1 0x60 DUP14 ADD MSTORE PUSH1 0x80 DUP13 ADD MSTORE PUSH1 0xA0 DUP12 ADD MSTORE PUSH1 0xC0 DUP11 ADD MSTORE PUSH1 0xE0 DUP10 ADD MSTORE PUSH2 0x100 DUP9 ADD MSTORE PUSH2 0x120 DUP8 ADD MSTORE PUSH2 0x140 DUP7 ADD MSTORE PUSH2 0x160 DUP6 ADD MSTORE PUSH2 0x2C0 PUSH2 0x180 DUP6 ADD DUP2 SWAP1 MSTORE PUSH2 0x1E58 SWAP2 SWAP1 DUP6 ADD SWAP1 PUSH2 0x20C6 JUMP JUMPDEST SWAP1 PUSH2 0x1A0 DUP5 ADD PUSH2 0x1E67 SWAP2 PUSH2 0x20EA JUMP JUMPDEST DUP3 DUP2 SUB PUSH2 0x2A0 DUP5 ADD MSTORE PUSH2 0x1373 SWAP2 PUSH2 0x213F JUMP JUMPDEST CALLVALUE PUSH2 0x195 JUMPI PUSH0 CALLDATASIZE PUSH1 0x3 NOT ADD SLT PUSH2 0x195 JUMPI DUP1 PUSH1 0x5 PUSH1 0x20 SWAP3 MSTORE RETURN JUMPDEST PUSH2 0x1E0 DUP2 ADD SWAP1 DUP2 LT PUSH1 0x1 PUSH1 0x1 PUSH1 0x40 SHL SUB DUP3 GT OR PUSH2 0x1851 JUMPI PUSH1 0x40 MSTORE JUMP JUMPDEST PUSH1 0x40 DUP2 ADD SWAP1 DUP2 LT PUSH1 0x1 PUSH1 0x1 PUSH1 0x40 SHL SUB DUP3 GT OR PUSH2 0x1851 JUMPI PUSH1 0x40 MSTORE JUMP JUMPDEST PUSH1 0x60 DUP2 ADD SWAP1 DUP2 LT PUSH1 0x1 PUSH1 0x1 PUSH1 0x40 SHL SUB DUP3 GT OR PUSH2 0x1851 JUMPI PUSH1 0x40 MSTORE JUMP JUMPDEST PUSH2 0x100 DUP2 ADD SWAP1 DUP2 LT PUSH1 0x1 PUSH1 0x1 PUSH1 0x40 SHL SUB DUP3 GT OR PUSH2 0x1851 JUMPI PUSH1 0x40 MSTORE JUMP JUMPDEST SWAP1 PUSH1 0x1F DUP1 NOT SWAP2 ADD AND DUP2 ADD SWAP1 DUP2 LT PUSH1 0x1 PUSH1 0x1 PUSH1 0x40 SHL SUB DUP3 GT OR PUSH2 0x1851 JUMPI PUSH1 0x40 MSTORE JUMP JUMPDEST SWAP1 PUSH1 0x40 MLOAD PUSH2 0x1F2E DUP2 PUSH2 0x1EAE JUMP JUMPDEST PUSH1 0x20 PUSH1 0x1 DUP3 SWAP5 DUP1 SLOAD DUP5 MSTORE ADD SLOAD SWAP2 ADD MSTORE JUMP JUMPDEST SWAP1 PUSH1 0x1 DUP3 DUP2 SHR SWAP3 AND DUP1 ISZERO PUSH2 0x1F6D JUMPI JUMPDEST PUSH1 0x20 DUP4 LT EQ PUSH2 0x1F59 JUMPI JUMP JUMPDEST PUSH4 0x4E487B71 PUSH1 0xE0 SHL PUSH0 MSTORE PUSH1 0x22 PUSH1 0x4 MSTORE PUSH1 0x24 PUSH0 REVERT JUMPDEST SWAP2 PUSH1 0x7F AND SWAP2 PUSH2 0x1F4E JUMP JUMPDEST SWAP1 PUSH1 0x40 MLOAD SWAP2 DUP3 PUSH0 DUP3 SLOAD SWAP3 PUSH2 0x1F8A DUP5 PUSH2 0x1F3F JUMP JUMPDEST DUP1 DUP5 MSTORE SWAP4 PUSH1 0x1 DUP2 AND SWAP1 DUP2 ISZERO PUSH2 0x1FF5 JUMPI POP PUSH1 0x1 EQ PUSH2 0x1FB1 JUMPI JUMPDEST POP PUSH2 0x1FAF SWAP3 POP SUB DUP4 PUSH2 0x1F00 JUMP JUMPDEST JUMP JUMPDEST SWAP1 POP PUSH0 SWAP3 SWAP2 SWAP3 MSTORE PUSH1 0x20 PUSH0 KECCAK256 SWAP1 PUSH0 SWAP2 JUMPDEST DUP2 DUP4 LT PUSH2 0x1FD9 JUMPI POP POP SWAP1 PUSH1 0x20 PUSH2 0x1FAF SWAP3 DUP3 ADD ADD PUSH0 PUSH2 0x1FA2 JUMP JUMPDEST PUSH1 0x20 SWAP2 SWAP4 POP DUP1 PUSH1 0x1 SWAP2 SLOAD DUP4 DUP6 DUP10 ADD ADD MSTORE ADD SWAP2 ADD SWAP1 SWAP2 DUP5 SWAP3 PUSH2 0x1FC0 JUMP JUMPDEST SWAP1 POP PUSH1 0x20 SWAP3 POP PUSH2 0x1FAF SWAP5 SWAP2 POP PUSH1 0xFF NOT AND DUP3 DUP5 ADD MSTORE ISZERO ISZERO PUSH1 0x5 SHL DUP3 ADD ADD PUSH0 PUSH2 0x1FA2 JUMP JUMPDEST SWAP1 PUSH1 0x40 MLOAD PUSH2 0x2024 DUP2 PUSH2 0x1EE4 JUMP JUMPDEST PUSH1 0xE0 PUSH1 0x4 DUP3 SWAP5 PUSH1 0xFF DUP2 SLOAD DUP2 DUP2 AND ISZERO ISZERO DUP7 MSTORE DUP2 DUP2 PUSH1 0x8 SHR AND ISZERO ISZERO PUSH1 0x20 DUP8 ADD MSTORE DUP2 DUP2 PUSH1 0x10 SHR AND PUSH1 0x40 DUP8 ADD MSTORE PUSH1 0x18 SHR AND PUSH1 0x60 DUP6 ADD MSTORE PUSH1 0x1 DUP2 ADD SLOAD PUSH1 0x80 DUP6 ADD MSTORE PUSH1 0x2 DUP2 ADD SLOAD PUSH1 0xA0 DUP6 ADD MSTORE PUSH1 0x3 DUP2 ADD SLOAD PUSH1 0xC0 DUP6 ADD MSTORE ADD SLOAD SWAP2 ADD MSTORE JUMP JUMPDEST SWAP1 PUSH1 0x40 MLOAD PUSH2 0x2088 DUP2 PUSH2 0x1EC9 JUMP JUMPDEST DUP1 SWAP3 PUSH1 0xFF DUP2 SLOAD AND SWAP1 PUSH1 0x6 DUP3 LT ISZERO PUSH2 0x1036 JUMPI PUSH1 0x2 PUSH2 0x20B4 SWAP2 PUSH1 0x40 SWAP4 DUP6 MSTORE PUSH1 0x1 DUP2 ADD SLOAD PUSH1 0x20 DUP7 ADD MSTORE ADD PUSH2 0x1F77 JUMP JUMPDEST SWAP2 ADD MSTORE JUMP JUMPDEST SWAP1 PUSH1 0x5 DUP3 LT ISZERO PUSH2 0x1036 JUMPI MSTORE JUMP JUMPDEST DUP1 MLOAD DUP1 DUP4 MSTORE PUSH1 0x20 SWAP3 SWAP2 DUP2 SWAP1 DUP5 ADD DUP5 DUP5 ADD MCOPY PUSH0 DUP3 DUP3 ADD DUP5 ADD MSTORE PUSH1 0x1F ADD PUSH1 0x1F NOT AND ADD ADD SWAP1 JUMP JUMPDEST PUSH1 0xE0 DUP1 SWAP2 DUP1 MLOAD ISZERO ISZERO DUP5 MSTORE PUSH1 0x20 DUP2 ADD MLOAD ISZERO ISZERO PUSH1 0x20 DUP6 ADD MSTORE PUSH1 0xFF PUSH1 0x40 DUP3 ADD MLOAD AND PUSH1 0x40 DUP6 ADD MSTORE PUSH1 0xFF PUSH1 0x60 DUP3 ADD MLOAD AND PUSH1 0x60 DUP6 ADD MSTORE PUSH1 0x80 DUP2 ADD MLOAD PUSH1 0x80 DUP6 ADD MSTORE PUSH1 0xA0 DUP2 ADD MLOAD PUSH1 0xA0 DUP6 ADD MSTORE PUSH1 0xC0 DUP2 ADD MLOAD PUSH1 0xC0 DUP6 ADD MSTORE ADD MLOAD SWAP2 ADD MSTORE JUMP JUMPDEST SWAP1 DUP2 MLOAD SWAP2 PUSH1 0x6 DUP4 LT ISZERO PUSH2 0x1036 JUMPI PUSH1 0x40 PUSH1 0x60 SWAP2 PUSH2 0x2171 SWAP5 DUP5 MSTORE PUSH1 0x20 DUP2 ADD MLOAD PUSH1 0x20 DUP6 ADD MSTORE ADD MLOAD SWAP2 DUP2 PUSH1 0x40 DUP3 ADD MSTORE ADD SWAP1 PUSH2 0x20C6 JUMP JUMPDEST SWAP1 JUMP JUMPDEST PUSH1 0x40 SWAP1 PUSH1 0x3 NOT ADD SLT PUSH2 0x195 JUMPI PUSH1 0x4 CALLDATALOAD SWAP1 PUSH1 0x24 CALLDATALOAD SWAP1 JUMP JUMPDEST SWAP2 DUP2 PUSH1 0x1F DUP5 ADD SLT ISZERO PUSH2 0x195 JUMPI DUP3 CALLDATALOAD SWAP2 PUSH1 0x1 PUSH1 0x1 PUSH1 0x40 SHL SUB DUP4 GT PUSH2 0x195 JUMPI PUSH1 0x20 DUP4 DUP2 DUP7 ADD SWAP6 ADD ADD GT PUSH2 0x195 JUMPI JUMP JUMPDEST SWAP1 PUSH1 0x20 DUP1 DUP4 MLOAD SWAP3 DUP4 DUP2 MSTORE ADD SWAP3 ADD SWAP1 PUSH0 JUMPDEST DUP2 DUP2 LT PUSH2 0x21D4 JUMPI POP POP POP SWAP1 JUMP JUMPDEST DUP3 MLOAD DUP5 MSTORE PUSH1 0x20 SWAP4 DUP5 ADD SWAP4 SWAP1 SWAP3 ADD SWAP2 PUSH1 0x1 ADD PUSH2 0x21C7 JUMP JUMPDEST SWAP1 PUSH1 0x60 PUSH1 0x3 NOT DUP4 ADD SLT PUSH2 0x195 JUMPI PUSH1 0x4 CALLDATALOAD SWAP2 PUSH1 0x24 CALLDATALOAD PUSH1 0x1 PUSH1 0x1 PUSH1 0x40 SHL SUB DUP2 GT PUSH2 0x195 JUMPI DUP2 PUSH2 0x2219 SWAP2 PUSH1 0x4 ADD PUSH2 0x218A JUMP JUMPDEST SWAP3 SWAP1 SWAP3 SWAP2 PUSH1 0x44 CALLDATALOAD SWAP1 PUSH1 0x1 PUSH1 0x1 PUSH1 0x40 SHL SUB DUP3 GT PUSH2 0x195 JUMPI PUSH2 0x223B SWAP2 PUSH1 0x4 ADD PUSH2 0x218A JUMP JUMPDEST SWAP1 SWAP2 JUMP JUMPDEST SWAP1 PUSH1 0x5 DUP2 LT ISZERO PUSH2 0x1036 JUMPI PUSH1 0xFF DUP1 NOT DUP4 SLOAD AND SWAP2 AND OR SWAP1 SSTORE JUMP JUMPDEST SWAP2 SWAP1 DUP3 SUB SWAP2 DUP3 GT PUSH2 0x179F JUMPI JUMP JUMPDEST DUP2 DUP2 LT PUSH2 0x226F JUMPI POP POP JUMP JUMPDEST PUSH0 DUP2 SSTORE PUSH1 0x1 ADD PUSH2 0x2264 JUMP JUMPDEST PUSH1 0xC4 CALLDATALOAD PUSH1 0xFF DUP2 AND DUP2 SUB PUSH2 0x195 JUMPI SWAP1 JUMP JUMPDEST SWAP1 CALLDATALOAD SWAP1 PUSH1 0x1E NOT DUP2 CALLDATASIZE SUB ADD DUP3 SLT ISZERO PUSH2 0x195 JUMPI ADD DUP1 CALLDATALOAD SWAP1 PUSH1 0x1 PUSH1 0x1 PUSH1 0x40 SHL SUB DUP3 GT PUSH2 0x195 JUMPI PUSH1 0x20 ADD SWAP2 DUP2 CALLDATASIZE SUB DUP4 SGT PUSH2 0x195 JUMPI JUMP JUMPDEST PUSH1 0x40 MLOAD SWAP1 PUSH2 0x22C9 DUP3 PUSH2 0x1EE4 JUMP JUMPDEST PUSH0 PUSH1 0xE0 DUP4 DUP3 DUP2 MSTORE DUP3 PUSH1 0x20 DUP3 ADD MSTORE DUP3 PUSH1 0x40 DUP3 ADD MSTORE DUP3 PUSH1 0x60 DUP3 ADD MSTORE DUP3 PUSH1 0x80 DUP3 ADD MSTORE DUP3 PUSH1 0xA0 DUP3 ADD MSTORE DUP3 PUSH1 0xC0 DUP3 ADD MSTORE ADD MSTORE JUMP JUMPDEST SWAP2 SWAP1 DUP3 ADD DUP1 SWAP3 GT PUSH2 0x179F JUMPI JUMP JUMPDEST SWAP1 DUP1 PUSH1 0x20 SWAP4 SWAP3 DUP2 DUP5 MSTORE DUP5 DUP5 ADD CALLDATACOPY PUSH0 DUP3 DUP3 ADD DUP5 ADD MSTORE PUSH1 0x1F ADD PUSH1 0x1F NOT AND ADD ADD SWAP1 JUMP JUMPDEST SWAP3 SWAP1 PUSH2 0x233E SWAP1 PUSH2 0x2171 SWAP6 SWAP4 PUSH1 0x40 DUP7 MSTORE PUSH1 0x40 DUP7 ADD SWAP2 PUSH2 0x2305 JUMP JUMPDEST SWAP3 PUSH1 0x20 DUP2 DUP6 SUB SWAP2 ADD MSTORE PUSH2 0x2305 JUMP JUMPDEST PUSH0 NOT DUP2 EQ PUSH2 0x179F JUMPI PUSH1 0x1 ADD SWAP1 JUMP JUMPDEST SWAP1 PUSH1 0x5 DUP3 LT ISZERO PUSH2 0x1036 JUMPI PUSH1 0x5 DUP2 LT ISZERO SWAP2 DUP3 PUSH2 0x1036 JUMPI DUP1 DUP3 EQ PUSH2 0x2417 JUMPI PUSH0 PUSH1 0x2 DUP3 EQ DUP1 ISZERO PUSH2 0x240B JUMPI JUMPDEST DUP2 DUP2 ISZERO PUSH2 0x23FB JUMPI JUMPDEST POP PUSH2 0x23F3 JUMPI PUSH2 0x1036 JUMPI DUP1 ISZERO PUSH2 0x23DA JUMPI PUSH1 0x3 EQ PUSH2 0x23A6 JUMPI POP POP PUSH0 SWAP1 JUMP JUMPDEST DUP2 PUSH2 0x1036 JUMPI DUP1 ISZERO SWAP2 DUP3 ISZERO PUSH2 0x23CD JUMPI JUMPDEST DUP3 ISZERO PUSH2 0x23C0 JUMPI POP POP SWAP1 JUMP JUMPDEST SWAP1 SWAP2 POP PUSH2 0x1036 JUMPI PUSH1 0x1 EQ SWAP1 JUMP JUMPDEST POP PUSH1 0x2 DUP2 EQ SWAP2 POP PUSH0 PUSH2 0x23B5 JUMP JUMPDEST POP PUSH1 0x3 DUP2 EQ SWAP2 POP PUSH0 DUP3 ISZERO PUSH2 0x23CD JUMPI DUP3 ISZERO PUSH2 0x23C0 JUMPI POP POP SWAP1 JUMP JUMPDEST POP POP POP POP PUSH0 SWAP1 JUMP JUMPDEST SWAP1 POP PUSH2 0x1036 JUMPI PUSH1 0x1 DUP3 EQ DUP2 PUSH2 0x238A JUMP JUMPDEST POP POP PUSH0 PUSH1 0x4 DUP3 EQ PUSH2 0x2382 JUMP JUMPDEST POP POP POP PUSH0 SWAP1 JUMP JUMPDEST DUP1 MLOAD SWAP1 DUP2 ISZERO PUSH2 0x245B JUMPI PUSH1 0x20 PUSH0 SWAP2 DUP4 DUP3 SWAP5 PUSH1 0x40 MLOAD SWAP4 DUP5 SWAP4 ADD DUP4 MCOPY DUP2 ADD DUP4 DUP2 MSTORE SUB SWAP1 PUSH1 0x2 GAS STATICCALL ISZERO PUSH2 0x1001 JUMPI PUSH0 MLOAD PUSH1 0x1 PUSH1 0x1 PUSH1 0xF8 SHL SUB AND PUSH1 0x1 PUSH1 0xF8 SHL OR SWAP1 JUMP JUMPDEST POP POP PUSH0 SWAP1 JUMP JUMPDEST PUSH0 JUMPDEST DUP1 BLOBHASH DUP1 ISZERO PUSH2 0x2483 JUMPI DUP3 EQ PUSH2 0x247F JUMPI PUSH2 0x247A SWAP1 PUSH2 0x234C JUMP JUMPDEST PUSH2 0x2463 JUMP JUMPDEST POP POP JUMP JUMPDEST PUSH4 0x110B909 PUSH1 0xE6 SHL PUSH0 MSTORE PUSH1 0x4 PUSH0 REVERT INVALID LOG2 PUSH5 0x6970667358 0x22 SLT KECCAK256 0xBA PUSH10 0x2E27CDC82C8663978CF4 PUSH30 0xC95AAA027F730557B12A2C2919B9C4EABCD10A64736F6C634300081C0033 "},"methodIdentifiers":{"BLOB_INDEX()":"26795bc3","MAX_CENSUS_ORIGIN()":"02cc919a","MAX_STATUS()":"72c628ef","blobsDA()":"cdf497c8","chainID()":"adc879e9","getNextProcessId(address)":"68141f2c","getProcess(bytes32)":"992bc45b","getProcessEndTime(bytes32)":"a5f01e19","getRVerifierVKeyHash()":"f9aa4499","getSTVerifierVKeyHash()":"4c0acc56","newProcess(uint8,uint256,uint256,uint256,(bool,bool,uint8,uint8,uint256,uint256,uint256,uint256),(uint8,bytes32,string),string,(uint256,uint256),uint256)":"75462f70","pidPrefix()":"cddf08bc","processCount()":"848df540","processNonce(address)":"62fa11fc","processes(bytes32)":"0535fece","rVerifier()":"9c18deaf","setProcessCensus(bytes32,(uint8,bytes32,string))":"f4c2a3bb","setProcessDuration(bytes32,uint256)":"c718c01f","setProcessMaxVoters(bytes32,uint256)":"74e07826","setProcessResults(bytes32,bytes,bytes)":"a5b110de","setProcessStatus(bytes32,uint8)":"56a6f1e2","stVerifier()":"09706392","submitStateTransition(bytes32,bytes,bytes)":"d71d072e"}}}}}