{"src/verifiers/resultsverifier_vkey.sol":{"Verifier":{"abi":[{"inputs":[],"name":"CommitmentInvalid","type":"error"},{"inputs":[],"name":"ProofInvalid","type":"error"},{"inputs":[],"name":"PublicInputNotInField","type":"error"},{"inputs":[{"internalType":"uint256[8]","name":"proof","type":"uint256[8]"},{"internalType":"uint256[2]","name":"commitments","type":"uint256[2]"},{"internalType":"uint256[2]","name":"commitmentPok","type":"uint256[2]"}],"name":"compressProof","outputs":[{"internalType":"uint256[4]","name":"compressed","type":"uint256[4]"},{"internalType":"uint256[1]","name":"compressedCommitments","type":"uint256[1]"},{"internalType":"uint256","name":"compressedCommitmentPok","type":"uint256"}],"stateMutability":"view","type":"function"},{"inputs":[{"internalType":"uint256[4]","name":"compressedProof","type":"uint256[4]"},{"internalType":"uint256[1]","name":"compressedCommitments","type":"uint256[1]"},{"internalType":"uint256","name":"compressedCommitmentPok","type":"uint256"},{"internalType":"uint256[9]","name":"input","type":"uint256[9]"}],"name":"verifyCompressedProof","outputs":[],"stateMutability":"view","type":"function"},{"inputs":[{"internalType":"uint256[8]","name":"proof","type":"uint256[8]"},{"internalType":"uint256[2]","name":"commitments","type":"uint256[2]"},{"internalType":"uint256[2]","name":"commitmentPok","type":"uint256[2]"},{"internalType":"uint256[9]","name":"input","type":"uint256[9]"}],"name":"verifyProof","outputs":[],"stateMutability":"view","type":"function"}],"evm":{"bytecode":{"linkReferences":{},"object":"60808060405234601557611b84908161001a8239f35b5f80fdfe60806040526004361015610011575f80fd5b5f3560e01c80635d26278e14610a5757806360e583461461014f5763b1c3a00e1461003a575f80fd5b3461014b5761018036600319011261014b57366101041161014b57366101441161014b57366101841161014b57604051610075608082611448565b608036823760405190602061008a8184611448565b8036843761009c60243560043561165a565b82526100b260843560a4356044356064356116fb565b8284015260408301526100c960e43560c43561165a565b60608301526100de610124356101043561165a565b83526100f0610164356101443561165a565b9060405192835f905b60048210610135575050506080830193905f945b600186106101205760c0858560a0820152f35b8180600192855181520193019501949161010d565b82518152918301916001919091019083016100f9565b5f80fd5b3461014b576102a036600319011261014b57366101041161014b57366101441161014b57366101841161014b57366102a41161014b5760405160206101948183611448565b803683375f516020611b2f5f395f51905f52604051828101906101d0816101c261012435610104358661147e565b03601f198101835282611448565b519020068252604051604061010482377f222a11e5a1fa455473a7d8ee37037b7360f26184362f37931965f306f9fb02a460408201527f2c3841a672fd7ebd288ffc216ed99f9f948602cc2b598b060a2c5c38051b249b60608201527f20a4faaf8edd4f1ca3a79fdc4549aa3de0497adc3277b662aa02231cd31b70c260808201527f254eddb67c04de0e884152db574a42fa772ef20f18ee78c53f80fd77c014739760a0820152604061014460c08301377f1197eee61cc440c73efb850b21936d39424f00466970e4312c8610a25b2d1bb96101008201527f2f58382774fd44cd86350ec4739ac86a4c88c25d389629d7cdf1f4d238d8400a6101208201527f1ef12d9c41366f9e89041c590ad60025322c377a17fbd52a6042e39ce3b6e9836101408201527f222ea6108d7d4dbc652743ebab55fa4cba8ec4313889097aa749c4fe94226cbb61016082015281816101808160085afa90511615610a48576040918251926103408185611448565b61010483855b6101448310610a38575050508051918183017f2b11d2aad66b2e5de7bc5c32dea8d7c6e6f61b91fe0274879914fba5b9a4fa2e84525f516020611b2f5f395f51905f528386808701987f085ed1f31aee200e0e4fe1f2e4dce72625a6a0f443fab336ac52d36288d94fc88a528051855201519260608701938452818760808160065afa947f22bc9d1bd5bd55ba95b4705ef3915f3ae54f106cc341d68fa3d8ddb1413c719682527f057cc358f348d3d428b2ed1f7597d5ac6270964c04292f938bf2881768b1298885527f2e6d4b0d9931eab376671ee5c9e8956a92e71ee9db8a8e7a28cb24e73c8b8a7260016101843560808b0198818a5287878760608160075afa92101616858b60808160065afa16167f0c44fbf8a54d7e1be9dccec9c0055e5cb443543559d01141f0c2fc1b24bddfc984527f2625162083823a129368b22f4976ee21ba246283f409cca35147a0daa082a9dc87526101a4359081895286868660608160075afa92101616848a60808160065afa167f2d817d224dba2ca8ae799a71fd04d3eae7e317c4716064126e78eadf1bddc19384527f07360180b1e6209c27e0f0ab9aaf8a1cfc82b580ccba300159cceca7e1e0435a87526101c4359081895286868660608160075afa92101616848a60808160065afa167f084d7c3a02f36da14bb43c7f6a2496d526bbd8022cfc93cdd60dda08414137b484527f2c052811f54cee8f3d1e678d0830c59725b92d18e1a78008789335fc04b42c7287526101e4359081895286868660608160075afa92101616848a60808160065afa167f01c000ed078e0e50fb92cddc5c7f63f795b7930ad01c4e0fac6977602311b2a684527f12661b14b3517a2037010a4e59b62efa6c7665a279d90c7f2162c27ae30b28378752610204359081895286868660608160075afa92101616848a60808160065afa167f1930f6e6c400e96eaf3fd146d05ce4189ea36a77dfd20895ecd05e1aa590d6e284527f2555538e1bb4d818d6e2c3f37440f2114172e879b1feabb026f3f5eed9a614d38752610224359081895286868660608160075afa92101616848a60808160065afa167f052cecd0a6c307d8fa3c1c4e093b30aa79cd8753bb7b6ad569e803e20311198384527f158c8e0e1754b73c255823b606690f73f5204af05a24cbd300cabf4091559ca08752610244359081895286868660608160075afa92101616848a60808160065afa167f2169dfcfc704758ce2eedc72026f89e2500534c97cb451252caf3da17aa7b26b84527f2524c400945827a371220bedea45ceb55f78f9e0253fbe19c396b55793b7a5558752610264359081895286868660608160075afa92101616848a60808160065afa167f25dd3501e409e81e21dc8bb9b8b19422403525555179db5c3eb57e0b7ad2eba284527f1771134d12ef003c358932c33b3b191f89e04e1307a3181c5415b490afcfe0ee8752610284359081895286868660608160075afa92101616848a60808160065afa16957f131592a6da4b7dd846d1e4315e44b4e0c23e5c032f60c4a94825b4fd2292ec578452525180955260608160075afa92101616818360808160065afa16915193519115610a29575192610100600485377f130a3b67f543deda846445d6230f06dbcc4fc9230d34f91a4b1faad0efe61a8a6101008501527f10e55a50c7b08a64e18b7bde27ec4110fe7fb12202121e6ff101944c875337146101208501527f27bca9fe60d54b8da5015075996a8c1809d5147158087f42e6b066a1141f51776101408501527f1b75effaed932252e6501d6431f3903cd63e860385d61a30a674af708bb976616101608501527f0e414ca47ed0d06cea28bb089a5c55a8f2b279595f96720bfddcdaa56719edda6101808501527f0b60dc69b88f82c08f96b4cfa6b9a2529850f6dd7c665caee80756132e412bf46101a08501527f0b5cbe03d20f03e13c4091fbcddce607c89ce811700287e0ce57f7bf7673c9716101c08501527f217b18acf2565725c2ca9da0ed7d01d58e4d7755cc0d65e2df8be4308782291f6101e08501527f0e39b086089c4a1bd56a58c895756919edabd8a5db92c37d0820c45f1d7404506102008501527f22ac99990ad6874151104f5ceb45277f14c37b1c62ef0396e5c76b9378d740cc6102208501526102408401526102608301527f050b4460d2b42db249c2a912daa47cdbd1a63d9d3f802869aba28520d98aaa346102808301527f2cc154a7a501fb364878767578b3e84476fb3b15e1e4f1f36c41e6e3c4a4f0066102a08301527f021624c1c2e20436e57f00c869b4f4aae66e8f16607b9027306b9abd91bab7156102c08301527f253dffdc41beb8cb4a01c3068dc7a60501047d6003fef6f81a418f3dd70ae7bf6102e0830152816103008160085afa90511615610a1a57005b631ff3747d60e21b5f5260045ffd5b63a54f8e2760e01b5f5260045ffd5b8235815291810191859101610346565b6351d49ff760e11b5f5260045ffd5b3461014b576101e036600319011261014b573660841161014b573660a41161014b57366101e41161014b576040516020610a918183611448565b803683376040805190610aa48183611448565b8036833761030093815192610ab98685611448565b85368537610ac86084356114b6565b868301528152610ad960a4356114b6565b905f516020611b2f5f395f51905f5283516101c2610b038a87015189519283918d8301958661147e565b5190200684528251865286830151878701527f222a11e5a1fa455473a7d8ee37037b7360f26184362f37931965f306f9fb02a4858701527f2c3841a672fd7ebd288ffc216ed99f9f948602cc2b598b060a2c5c38051b249b60608701527f20a4faaf8edd4f1ca3a79fdc4549aa3de0497adc3277b662aa02231cd31b70c260808701527f254eddb67c04de0e884152db574a42fa772ef20f18ee78c53f80fd77c014739760a087015260c086015260e08501527f1197eee61cc440c73efb850b21936d39424f00466970e4312c8610a25b2d1bb96101008501527f2f58382774fd44cd86350ec4739ac86a4c88c25d389629d7cdf1f4d238d8400a6101208501527f1ef12d9c41366f9e89041c590ad60025322c377a17fbd52a6042e39ce3b6e9836101408501527f222ea6108d7d4dbc652743ebab55fa4cba8ec4313889097aa749c4fe94226cbb610160850152825185816101808760085afa90511615610a48578490610c736004356114b6565b610c84602495929535604435611521565b9291909389610c946064356114b6565b9890977f2e6d4b0d9931eab376671ee5c9e8956a92e71ee9db8a8e7a28cb24e73c8b8a7283519b8c937f2b11d2aad66b2e5de7bc5c32dea8d7c6e6f61b91fe0274879914fba5b9a4fa2e85527f085ed1f31aee200e0e4fe1f2e4dce72625a6a0f443fab336ac52d36288d94fc8828601528051868601520151606084019081527f131592a6da4b7dd846d1e4315e44b4e0c23e5c032f60c4a94825b4fd2292ec57858560808160065afa957f22bc9d1bd5bd55ba95b4705ef3915f3ae54f106cc341d68fa3d8ddb1413c7196818701527f057cc358f348d3d428b2ed1f7597d5ac6270964c04292f938bf2881768b129888352600160c4356080880198818a525f516020611b2f5f395f51905f5284808b016060828d0160075afa92101616828860808160065afa16167f0c44fbf8a54d7e1be9dccec9c0055e5cb443543559d01141f0c2fc1b24bddfc9828801527f2625162083823a129368b22f4976ee21ba246283f409cca35147a0daa082a9dc845260e435908189525f516020611b2f5f395f51905f5283808a016060828c0160075afa92101616818760808160065afa167f2d817d224dba2ca8ae799a71fd04d3eae7e317c4716064126e78eadf1bddc193828801527f07360180b1e6209c27e0f0ab9aaf8a1cfc82b580ccba300159cceca7e1e0435a845261010435908189525f516020611b2f5f395f51905f5283808a016060828c0160075afa92101616818760808160065afa167f084d7c3a02f36da14bb43c7f6a2496d526bbd8022cfc93cdd60dda08414137b4828801527f2c052811f54cee8f3d1e678d0830c59725b92d18e1a78008789335fc04b42c72845261012435908189525f516020611b2f5f395f51905f5283808a016060828c0160075afa92101616818760808160065afa167f01c000ed078e0e50fb92cddc5c7f63f795b7930ad01c4e0fac6977602311b2a6828801527f12661b14b3517a2037010a4e59b62efa6c7665a279d90c7f2162c27ae30b2837845261014435908189525f516020611b2f5f395f51905f5283808a016060828c0160075afa92101616818760808160065afa167f1930f6e6c400e96eaf3fd146d05ce4189ea36a77dfd20895ecd05e1aa590d6e2828801527f2555538e1bb4d818d6e2c3f37440f2114172e879b1feabb026f3f5eed9a614d3845261016435908189525f516020611b2f5f395f51905f5283808a016060828c0160075afa92101616818760808160065afa167f052cecd0a6c307d8fa3c1c4e093b30aa79cd8753bb7b6ad569e803e203111983828801527f158c8e0e1754b73c255823b606690f73f5204af05a24cbd300cabf4091559ca0845261018435908189525f516020611b2f5f395f51905f5283808a016060828c0160075afa92101616818760808160065afa167f2169dfcfc704758ce2eedc72026f89e2500534c97cb451252caf3da17aa7b26b828801527f2524c400945827a371220bedea45ceb55f78f9e0253fbe19c396b55793b7a55584526101a435908189525f516020611b2f5f395f51905f5283808a016060828c0160075afa92101616818760808160065afa167f25dd3501e409e81e21dc8bb9b8b19422403525555179db5c3eb57e0b7ad2eba2828801527f1771134d12ef003c358932c33b3b191f89e04e1307a3181c5415b490afcfe0ee84526101c435908189525f516020611b2f5f395f51905f5283808a016060828c0160075afa92101616818760808160065afa1695015252518092525f516020611b2f5f395f51905f528c8b606082808301920160075afa921016168a8960808160065afa16988c89519901519915610a29578b528b8b0152888a01526060890152608088015260a087015260c086015260e08501527f130a3b67f543deda846445d6230f06dbcc4fc9230d34f91a4b1faad0efe61a8a6101008501527f10e55a50c7b08a64e18b7bde27ec4110fe7fb12202121e6ff101944c875337146101208501527f27bca9fe60d54b8da5015075996a8c1809d5147158087f42e6b066a1141f51776101408501527f1b75effaed932252e6501d6431f3903cd63e860385d61a30a674af708bb976616101608501527f0e414ca47ed0d06cea28bb089a5c55a8f2b279595f96720bfddcdaa56719edda6101808501527f0b60dc69b88f82c08f96b4cfa6b9a2529850f6dd7c665caee80756132e412bf46101a08501527f0b5cbe03d20f03e13c4091fbcddce607c89ce811700287e0ce57f7bf7673c9716101c08501527f217b18acf2565725c2ca9da0ed7d01d58e4d7755cc0d65e2df8be4308782291f6101e08501527f0e39b086089c4a1bd56a58c895756919edabd8a5db92c37d0820c45f1d7404506102008501527f22ac99990ad6874151104f5ceb45277f14c37b1c62ef0396e5c76b9378d740cc6102208501526102408401526102608301527f050b4460d2b42db249c2a912daa47cdbd1a63d9d3f802869aba28520d98aaa346102808301527f2cc154a7a501fb364878767578b3e84476fb3b15e1e4f1f36c41e6e3c4a4f0066102a08301527f021624c1c2e20436e57f00c869b4f4aae66e8f16607b9027306b9abd91bab7156102c08301527f253dffdc41beb8cb4a01c3068dc7a60501047d6003fef6f81a418f3dd70ae7bf6102e0830152519283916114238484611448565b8336843760085afa1590811561143b575b50610a1a57005b6001915051141581611434565b90601f8019910116810190811067ffffffffffffffff82111761146a57604052565b634e487b7160e01b5f52604160045260245ffd5b909160409282526020820152016060516080905f5b8181106114a05750505090565b8251845260209384019390920191600101611493565b801561151a578060011c915f516020611b0f5f395f51905f52831015610a1a576001806114f95f516020611b0f5f395f51905f526003818881818009090861192f565b93161461150257565b905f516020611b0f5f395f51905f5280910681030690565b505f905f90565b801580611652575b611646578060021c92825f516020611b0f5f395f51905f52851080159061162f575b610a1a5784815f516020611b0f5f395f51905f5280808080808080807f30644e72e131a029b85045b68181585d97816a916871ca8d3c208c16d87cfd44816115f99d8d0909998a0981898181800909087f2fcd3ac2a640a154eb23960892a85a68f031ca0c8344b23a577dcf1052b9e7750806810306936002808a16149509818a8181800909087f2b149d40ceb8aaae81be18991be06ac3b5b4c5e559dbefa33267e6dc24a138e508611952565b8092916001808296161461160b575050565b5f516020611b0f5f395f51905f528093945080929550809106810306930681030690565b505f516020611b0f5f395f51905f5281101561154b565b50505f905f905f905f90565b508115611529565b905f516020611b0f5f395f51905f5282108015906116e4575b610a1a578115806116dc575b6116d6576116a35f516020611b0f5f395f51905f526003818581818009090861192f565b8181036116b257505060011b90565b5f516020611b0f5f395f51905f52809106810306145f14610a1a57600190811b1790565b50505f90565b50801561167f565b505f516020611b0f5f395f51905f52811015611673565b919093925f516020611b0f5f395f51905f528310801590611918575b8015611901575b80156118ea575b610a1a5780828685171717156118df579082916118425f516020611b0f5f395f51905f5280808080888180808f9d7f30644e72e131a029b85045b68181585d97816a916871ca8d3c208c16d87cfd448f839290839109099d8e0981848181800909087f2b149d40ceb8aaae81be18991be06ac3b5b4c5e559dbefa33267e6dc24a138e5089a09818c8181800909087f2fcd3ac2a640a154eb23960892a85a68f031ca0c8344b23a577dcf1052b9e7750806810306945f516020611b0f5f395f51905f527f183227397098d014dc2822db40c0ac2ecbc0b548b438e5469e10460b6c3e7ea48161181c81808b8009818780090861192f565b8408095f516020611b0f5f395f51905f5261183682611aa6565b80091415958691611952565b9290808214806118d6575b156118745750505050905f1461186c5760ff60025b169060021b179190565b60ff5f611862565b5f516020611b0f5f395f51905f528091068103061491826118b7575b505015610a1a57600191156118af5760ff60025b169060021b17179190565b60ff5f6118a4565b5f516020611b0f5f395f51905f52919250819006810306145f80611890565b5083831461184d565b50505090505f905f90565b505f516020611b0f5f395f51905f52811015611725565b505f516020611b0f5f395f51905f5282101561171e565b505f516020611b0f5f395f51905f52851015611717565b9061193982611aa6565b915f516020611b0f5f395f51905f5283800903610a1a57565b915f516020611b0f5f395f51905f527f183227397098d014dc2822db40c0ac2ecbc0b548b438e5469e10460b6c3e7ea4816119aa9396949661199c82808a8009818a80090861192f565b90611a9a575b86080961192f565b925f516020611b0f5f395f51905f52600285096040519060208252602080830152602060408301528060608301527f30644e72e131a029b85045b68181585d97816a916871ca8d3c208c16d87cfd4560808301525f516020611b0f5f395f51905f5260a083015260208260c08160055afa91519115610a1a575f516020611b0f5f395f51905f52826001920903610a1a575f516020611b0f5f395f51905f52908209925f516020611b0f5f395f51905f528080808780090681030681878009081490811591611a7b575b50610a1a57565b90505f516020611b0f5f395f51905f528084860960020914155f611a74565b818091068103066119a2565b9060405191602083526020808401526020604084015260608301527f0c19139cb84c680a6e14116da060561765e05aa45a1c72a34f082305b61f3f5260808301525f516020611b0f5f395f51905f5260a083015260208260c08160055afa91519115610a1a5756fe30644e72e131a029b85045b68181585d97816a916871ca8d3c208c16d87cfd4730644e72e131a029b85045b68181585d2833e84879b9709143e1f593f0000001a26469706673582212206d05c7c7f2185eb35e91307f68bb1f78732b163f81fe93f974d398784729b5f064736f6c634300081c0033","opcodes":"PUSH1 0x80 DUP1 PUSH1 0x40 MSTORE CALLVALUE PUSH1 0x15 JUMPI PUSH2 0x1B84 SWAP1 DUP2 PUSH2 0x1A DUP3 CODECOPY RETURN JUMPDEST PUSH0 DUP1 REVERT INVALID PUSH1 0x80 PUSH1 0x40 MSTORE PUSH1 0x4 CALLDATASIZE LT ISZERO PUSH2 0x11 JUMPI PUSH0 DUP1 REVERT JUMPDEST PUSH0 CALLDATALOAD PUSH1 0xE0 SHR DUP1 PUSH4 0x5D26278E EQ PUSH2 0xA57 JUMPI DUP1 PUSH4 0x60E58346 EQ PUSH2 0x14F JUMPI PUSH4 0xB1C3A00E EQ PUSH2 0x3A JUMPI PUSH0 DUP1 REVERT JUMPDEST CALLVALUE PUSH2 0x14B JUMPI PUSH2 0x180 CALLDATASIZE PUSH1 0x3 NOT ADD SLT PUSH2 0x14B JUMPI CALLDATASIZE PUSH2 0x104 GT PUSH2 0x14B JUMPI CALLDATASIZE PUSH2 0x144 GT PUSH2 0x14B JUMPI CALLDATASIZE PUSH2 0x184 GT PUSH2 0x14B JUMPI PUSH1 0x40 MLOAD PUSH2 0x75 PUSH1 0x80 DUP3 PUSH2 0x1448 JUMP JUMPDEST PUSH1 0x80 CALLDATASIZE DUP3 CALLDATACOPY PUSH1 0x40 MLOAD SWAP1 PUSH1 0x20 PUSH2 0x8A DUP2 DUP5 PUSH2 0x1448 JUMP JUMPDEST DUP1 CALLDATASIZE DUP5 CALLDATACOPY PUSH2 0x9C PUSH1 0x24 CALLDATALOAD PUSH1 0x4 CALLDATALOAD PUSH2 0x165A JUMP JUMPDEST DUP3 MSTORE PUSH2 0xB2 PUSH1 0x84 CALLDATALOAD PUSH1 0xA4 CALLDATALOAD PUSH1 0x44 CALLDATALOAD PUSH1 0x64 CALLDATALOAD PUSH2 0x16FB JUMP JUMPDEST DUP3 DUP5 ADD MSTORE PUSH1 0x40 DUP4 ADD MSTORE PUSH2 0xC9 PUSH1 0xE4 CALLDATALOAD PUSH1 0xC4 CALLDATALOAD PUSH2 0x165A JUMP JUMPDEST PUSH1 0x60 DUP4 ADD MSTORE PUSH2 0xDE PUSH2 0x124 CALLDATALOAD PUSH2 0x104 CALLDATALOAD PUSH2 0x165A JUMP JUMPDEST DUP4 MSTORE PUSH2 0xF0 PUSH2 0x164 CALLDATALOAD PUSH2 0x144 CALLDATALOAD PUSH2 0x165A JUMP JUMPDEST SWAP1 PUSH1 0x40 MLOAD SWAP3 DUP4 PUSH0 SWAP1 JUMPDEST PUSH1 0x4 DUP3 LT PUSH2 0x135 JUMPI POP POP POP PUSH1 0x80 DUP4 ADD SWAP4 SWAP1 PUSH0 SWAP5 JUMPDEST PUSH1 0x1 DUP7 LT PUSH2 0x120 JUMPI PUSH1 0xC0 DUP6 DUP6 PUSH1 0xA0 DUP3 ADD MSTORE RETURN JUMPDEST DUP2 DUP1 PUSH1 0x1 SWAP3 DUP6 MLOAD DUP2 MSTORE ADD SWAP4 ADD SWAP6 ADD SWAP5 SWAP2 PUSH2 0x10D JUMP JUMPDEST DUP3 MLOAD DUP2 MSTORE SWAP2 DUP4 ADD SWAP2 PUSH1 0x1 SWAP2 SWAP1 SWAP2 ADD SWAP1 DUP4 ADD PUSH2 0xF9 JUMP JUMPDEST PUSH0 DUP1 REVERT JUMPDEST CALLVALUE PUSH2 0x14B JUMPI PUSH2 0x2A0 CALLDATASIZE PUSH1 0x3 NOT ADD SLT PUSH2 0x14B JUMPI CALLDATASIZE PUSH2 0x104 GT PUSH2 0x14B JUMPI CALLDATASIZE PUSH2 0x144 GT PUSH2 0x14B JUMPI CALLDATASIZE PUSH2 0x184 GT PUSH2 0x14B JUMPI CALLDATASIZE PUSH2 0x2A4 GT PUSH2 0x14B JUMPI PUSH1 0x40 MLOAD PUSH1 0x20 PUSH2 0x194 DUP2 DUP4 PUSH2 0x1448 JUMP JUMPDEST DUP1 CALLDATASIZE DUP4 CALLDATACOPY PUSH0 MLOAD PUSH1 0x20 PUSH2 0x1B2F PUSH0 CODECOPY PUSH0 MLOAD SWAP1 PUSH0 MSTORE PUSH1 0x40 MLOAD DUP3 DUP2 ADD SWAP1 PUSH2 0x1D0 DUP2 PUSH2 0x1C2 PUSH2 0x124 CALLDATALOAD PUSH2 0x104 CALLDATALOAD DUP7 PUSH2 0x147E JUMP JUMPDEST SUB PUSH1 0x1F NOT DUP2 ADD DUP4 MSTORE DUP3 PUSH2 0x1448 JUMP JUMPDEST MLOAD SWAP1 KECCAK256 MOD DUP3 MSTORE PUSH1 0x40 MLOAD PUSH1 0x40 PUSH2 0x104 DUP3 CALLDATACOPY PUSH32 0x222A11E5A1FA455473A7D8EE37037B7360F26184362F37931965F306F9FB02A4 PUSH1 0x40 DUP3 ADD MSTORE PUSH32 0x2C3841A672FD7EBD288FFC216ED99F9F948602CC2B598B060A2C5C38051B249B PUSH1 0x60 DUP3 ADD MSTORE PUSH32 0x20A4FAAF8EDD4F1CA3A79FDC4549AA3DE0497ADC3277B662AA02231CD31B70C2 PUSH1 0x80 DUP3 ADD MSTORE PUSH32 0x254EDDB67C04DE0E884152DB574A42FA772EF20F18EE78C53F80FD77C0147397 PUSH1 0xA0 DUP3 ADD MSTORE PUSH1 0x40 PUSH2 0x144 PUSH1 0xC0 DUP4 ADD CALLDATACOPY PUSH32 0x1197EEE61CC440C73EFB850B21936D39424F00466970E4312C8610A25B2D1BB9 PUSH2 0x100 DUP3 ADD MSTORE PUSH32 0x2F58382774FD44CD86350EC4739AC86A4C88C25D389629D7CDF1F4D238D8400A PUSH2 0x120 DUP3 ADD MSTORE PUSH32 0x1EF12D9C41366F9E89041C590AD60025322C377A17FBD52A6042E39CE3B6E983 PUSH2 0x140 DUP3 ADD MSTORE PUSH32 0x222EA6108D7D4DBC652743EBAB55FA4CBA8EC4313889097AA749C4FE94226CBB PUSH2 0x160 DUP3 ADD MSTORE DUP2 DUP2 PUSH2 0x180 DUP2 PUSH1 0x8 GAS STATICCALL SWAP1 MLOAD AND ISZERO PUSH2 0xA48 JUMPI PUSH1 0x40 SWAP2 DUP3 MLOAD SWAP3 PUSH2 0x340 DUP2 DUP6 PUSH2 0x1448 JUMP JUMPDEST PUSH2 0x104 DUP4 DUP6 JUMPDEST PUSH2 0x144 DUP4 LT PUSH2 0xA38 JUMPI POP POP POP DUP1 MLOAD SWAP2 DUP2 DUP4 ADD PUSH32 0x2B11D2AAD66B2E5DE7BC5C32DEA8D7C6E6F61B91FE0274879914FBA5B9A4FA2E DUP5 MSTORE PUSH0 MLOAD PUSH1 0x20 PUSH2 0x1B2F PUSH0 CODECOPY PUSH0 MLOAD SWAP1 PUSH0 MSTORE DUP4 DUP7 DUP1 DUP8 ADD SWAP9 PUSH32 0x85ED1F31AEE200E0E4FE1F2E4DCE72625A6A0F443FAB336AC52D36288D94FC8 DUP11 MSTORE DUP1 MLOAD DUP6 MSTORE ADD MLOAD SWAP3 PUSH1 0x60 DUP8 ADD SWAP4 DUP5 MSTORE DUP2 DUP8 PUSH1 0x80 DUP2 PUSH1 0x6 GAS STATICCALL SWAP5 PUSH32 0x22BC9D1BD5BD55BA95B4705EF3915F3AE54F106CC341D68FA3D8DDB1413C7196 DUP3 MSTORE PUSH32 0x57CC358F348D3D428B2ED1F7597D5AC6270964C04292F938BF2881768B12988 DUP6 MSTORE PUSH32 0x2E6D4B0D9931EAB376671EE5C9E8956A92E71EE9DB8A8E7A28CB24E73C8B8A72 PUSH1 0x1 PUSH2 0x184 CALLDATALOAD PUSH1 0x80 DUP12 ADD SWAP9 DUP2 DUP11 MSTORE DUP8 DUP8 DUP8 PUSH1 0x60 DUP2 PUSH1 0x7 GAS STATICCALL SWAP3 LT AND AND DUP6 DUP12 PUSH1 0x80 DUP2 PUSH1 0x6 GAS STATICCALL AND AND PUSH32 0xC44FBF8A54D7E1BE9DCCEC9C0055E5CB443543559D01141F0C2FC1B24BDDFC9 DUP5 MSTORE PUSH32 0x2625162083823A129368B22F4976EE21BA246283F409CCA35147A0DAA082A9DC DUP8 MSTORE PUSH2 0x1A4 CALLDATALOAD SWAP1 DUP2 DUP10 MSTORE DUP7 DUP7 DUP7 PUSH1 0x60 DUP2 PUSH1 0x7 GAS STATICCALL SWAP3 LT AND AND DUP5 DUP11 PUSH1 0x80 DUP2 PUSH1 0x6 GAS STATICCALL AND PUSH32 0x2D817D224DBA2CA8AE799A71FD04D3EAE7E317C4716064126E78EADF1BDDC193 DUP5 MSTORE PUSH32 0x7360180B1E6209C27E0F0AB9AAF8A1CFC82B580CCBA300159CCECA7E1E0435A DUP8 MSTORE PUSH2 0x1C4 CALLDATALOAD SWAP1 DUP2 DUP10 MSTORE DUP7 DUP7 DUP7 PUSH1 0x60 DUP2 PUSH1 0x7 GAS STATICCALL SWAP3 LT AND AND DUP5 DUP11 PUSH1 0x80 DUP2 PUSH1 0x6 GAS STATICCALL AND PUSH32 0x84D7C3A02F36DA14BB43C7F6A2496D526BBD8022CFC93CDD60DDA08414137B4 DUP5 MSTORE PUSH32 0x2C052811F54CEE8F3D1E678D0830C59725B92D18E1A78008789335FC04B42C72 DUP8 MSTORE PUSH2 0x1E4 CALLDATALOAD SWAP1 DUP2 DUP10 MSTORE DUP7 DUP7 DUP7 PUSH1 0x60 DUP2 PUSH1 0x7 GAS STATICCALL SWAP3 LT AND AND DUP5 DUP11 PUSH1 0x80 DUP2 PUSH1 0x6 GAS STATICCALL AND PUSH32 0x1C000ED078E0E50FB92CDDC5C7F63F795B7930AD01C4E0FAC6977602311B2A6 DUP5 MSTORE PUSH32 0x12661B14B3517A2037010A4E59B62EFA6C7665A279D90C7F2162C27AE30B2837 DUP8 MSTORE PUSH2 0x204 CALLDATALOAD SWAP1 DUP2 DUP10 MSTORE DUP7 DUP7 DUP7 PUSH1 0x60 DUP2 PUSH1 0x7 GAS STATICCALL SWAP3 LT AND AND DUP5 DUP11 PUSH1 0x80 DUP2 PUSH1 0x6 GAS STATICCALL AND PUSH32 0x1930F6E6C400E96EAF3FD146D05CE4189EA36A77DFD20895ECD05E1AA590D6E2 DUP5 MSTORE PUSH32 0x2555538E1BB4D818D6E2C3F37440F2114172E879B1FEABB026F3F5EED9A614D3 DUP8 MSTORE PUSH2 0x224 CALLDATALOAD SWAP1 DUP2 DUP10 MSTORE DUP7 DUP7 DUP7 PUSH1 0x60 DUP2 PUSH1 0x7 GAS STATICCALL SWAP3 LT AND AND DUP5 DUP11 PUSH1 0x80 DUP2 PUSH1 0x6 GAS STATICCALL AND PUSH32 0x52CECD0A6C307D8FA3C1C4E093B30AA79CD8753BB7B6AD569E803E203111983 DUP5 MSTORE PUSH32 0x158C8E0E1754B73C255823B606690F73F5204AF05A24CBD300CABF4091559CA0 DUP8 MSTORE PUSH2 0x244 CALLDATALOAD SWAP1 DUP2 DUP10 MSTORE DUP7 DUP7 DUP7 PUSH1 0x60 DUP2 PUSH1 0x7 GAS STATICCALL SWAP3 LT AND AND DUP5 DUP11 PUSH1 0x80 DUP2 PUSH1 0x6 GAS STATICCALL AND PUSH32 0x2169DFCFC704758CE2EEDC72026F89E2500534C97CB451252CAF3DA17AA7B26B DUP5 MSTORE PUSH32 0x2524C400945827A371220BEDEA45CEB55F78F9E0253FBE19C396B55793B7A555 DUP8 MSTORE PUSH2 0x264 CALLDATALOAD SWAP1 DUP2 DUP10 MSTORE DUP7 DUP7 DUP7 PUSH1 0x60 DUP2 PUSH1 0x7 GAS STATICCALL SWAP3 LT AND AND DUP5 DUP11 PUSH1 0x80 DUP2 PUSH1 0x6 GAS STATICCALL AND PUSH32 0x25DD3501E409E81E21DC8BB9B8B19422403525555179DB5C3EB57E0B7AD2EBA2 DUP5 MSTORE PUSH32 0x1771134D12EF003C358932C33B3B191F89E04E1307A3181C5415B490AFCFE0EE DUP8 MSTORE PUSH2 0x284 CALLDATALOAD SWAP1 DUP2 DUP10 MSTORE DUP7 DUP7 DUP7 PUSH1 0x60 DUP2 PUSH1 0x7 GAS STATICCALL SWAP3 LT AND AND DUP5 DUP11 PUSH1 0x80 DUP2 PUSH1 0x6 GAS STATICCALL AND SWAP6 PUSH32 0x131592A6DA4B7DD846D1E4315E44B4E0C23E5C032F60C4A94825B4FD2292EC57 DUP5 MSTORE MSTORE MLOAD DUP1 SWAP6 MSTORE PUSH1 0x60 DUP2 PUSH1 0x7 GAS STATICCALL SWAP3 LT AND AND DUP2 DUP4 PUSH1 0x80 DUP2 PUSH1 0x6 GAS STATICCALL AND SWAP2 MLOAD SWAP4 MLOAD SWAP2 ISZERO PUSH2 0xA29 JUMPI MLOAD SWAP3 PUSH2 0x100 PUSH1 0x4 DUP6 CALLDATACOPY PUSH32 0x130A3B67F543DEDA846445D6230F06DBCC4FC9230D34F91A4B1FAAD0EFE61A8A PUSH2 0x100 DUP6 ADD MSTORE PUSH32 0x10E55A50C7B08A64E18B7BDE27EC4110FE7FB12202121E6FF101944C87533714 PUSH2 0x120 DUP6 ADD MSTORE PUSH32 0x27BCA9FE60D54B8DA5015075996A8C1809D5147158087F42E6B066A1141F5177 PUSH2 0x140 DUP6 ADD MSTORE PUSH32 0x1B75EFFAED932252E6501D6431F3903CD63E860385D61A30A674AF708BB97661 PUSH2 0x160 DUP6 ADD MSTORE PUSH32 0xE414CA47ED0D06CEA28BB089A5C55A8F2B279595F96720BFDDCDAA56719EDDA PUSH2 0x180 DUP6 ADD MSTORE PUSH32 0xB60DC69B88F82C08F96B4CFA6B9A2529850F6DD7C665CAEE80756132E412BF4 PUSH2 0x1A0 DUP6 ADD MSTORE PUSH32 0xB5CBE03D20F03E13C4091FBCDDCE607C89CE811700287E0CE57F7BF7673C971 PUSH2 0x1C0 DUP6 ADD MSTORE PUSH32 0x217B18ACF2565725C2CA9DA0ED7D01D58E4D7755CC0D65E2DF8BE4308782291F PUSH2 0x1E0 DUP6 ADD MSTORE PUSH32 0xE39B086089C4A1BD56A58C895756919EDABD8A5DB92C37D0820C45F1D740450 PUSH2 0x200 DUP6 ADD MSTORE PUSH32 0x22AC99990AD6874151104F5CEB45277F14C37B1C62EF0396E5C76B9378D740CC PUSH2 0x220 DUP6 ADD MSTORE PUSH2 0x240 DUP5 ADD MSTORE PUSH2 0x260 DUP4 ADD MSTORE PUSH32 0x50B4460D2B42DB249C2A912DAA47CDBD1A63D9D3F802869ABA28520D98AAA34 PUSH2 0x280 DUP4 ADD MSTORE PUSH32 0x2CC154A7A501FB364878767578B3E84476FB3B15E1E4F1F36C41E6E3C4A4F006 PUSH2 0x2A0 DUP4 ADD MSTORE PUSH32 0x21624C1C2E20436E57F00C869B4F4AAE66E8F16607B9027306B9ABD91BAB715 PUSH2 0x2C0 DUP4 ADD MSTORE PUSH32 0x253DFFDC41BEB8CB4A01C3068DC7A60501047D6003FEF6F81A418F3DD70AE7BF PUSH2 0x2E0 DUP4 ADD MSTORE DUP2 PUSH2 0x300 DUP2 PUSH1 0x8 GAS STATICCALL SWAP1 MLOAD AND ISZERO PUSH2 0xA1A JUMPI STOP JUMPDEST PUSH4 0x1FF3747D PUSH1 0xE2 SHL PUSH0 MSTORE PUSH1 0x4 PUSH0 REVERT JUMPDEST PUSH4 0xA54F8E27 PUSH1 0xE0 SHL PUSH0 MSTORE PUSH1 0x4 PUSH0 REVERT JUMPDEST DUP3 CALLDATALOAD DUP2 MSTORE SWAP2 DUP2 ADD SWAP2 DUP6 SWAP2 ADD PUSH2 0x346 JUMP JUMPDEST PUSH4 0x51D49FF7 PUSH1 0xE1 SHL PUSH0 MSTORE PUSH1 0x4 PUSH0 REVERT JUMPDEST CALLVALUE PUSH2 0x14B JUMPI PUSH2 0x1E0 CALLDATASIZE PUSH1 0x3 NOT ADD SLT PUSH2 0x14B JUMPI CALLDATASIZE PUSH1 0x84 GT PUSH2 0x14B JUMPI CALLDATASIZE PUSH1 0xA4 GT PUSH2 0x14B JUMPI CALLDATASIZE PUSH2 0x1E4 GT PUSH2 0x14B JUMPI PUSH1 0x40 MLOAD PUSH1 0x20 PUSH2 0xA91 DUP2 DUP4 PUSH2 0x1448 JUMP JUMPDEST DUP1 CALLDATASIZE DUP4 CALLDATACOPY PUSH1 0x40 DUP1 MLOAD SWAP1 PUSH2 0xAA4 DUP2 DUP4 PUSH2 0x1448 JUMP JUMPDEST DUP1 CALLDATASIZE DUP4 CALLDATACOPY PUSH2 0x300 SWAP4 DUP2 MLOAD SWAP3 PUSH2 0xAB9 DUP7 DUP6 PUSH2 0x1448 JUMP JUMPDEST DUP6 CALLDATASIZE DUP6 CALLDATACOPY PUSH2 0xAC8 PUSH1 0x84 CALLDATALOAD PUSH2 0x14B6 JUMP JUMPDEST DUP7 DUP4 ADD MSTORE DUP2 MSTORE PUSH2 0xAD9 PUSH1 0xA4 CALLDATALOAD PUSH2 0x14B6 JUMP JUMPDEST SWAP1 PUSH0 MLOAD PUSH1 0x20 PUSH2 0x1B2F PUSH0 CODECOPY PUSH0 MLOAD SWAP1 PUSH0 MSTORE DUP4 MLOAD PUSH2 0x1C2 PUSH2 0xB03 DUP11 DUP8 ADD MLOAD DUP10 MLOAD SWAP3 DUP4 SWAP2 DUP14 DUP4 ADD SWAP6 DUP7 PUSH2 0x147E JUMP JUMPDEST MLOAD SWAP1 KECCAK256 MOD DUP5 MSTORE DUP3 MLOAD DUP7 MSTORE DUP7 DUP4 ADD MLOAD DUP8 DUP8 ADD MSTORE PUSH32 0x222A11E5A1FA455473A7D8EE37037B7360F26184362F37931965F306F9FB02A4 DUP6 DUP8 ADD MSTORE PUSH32 0x2C3841A672FD7EBD288FFC216ED99F9F948602CC2B598B060A2C5C38051B249B PUSH1 0x60 DUP8 ADD MSTORE PUSH32 0x20A4FAAF8EDD4F1CA3A79FDC4549AA3DE0497ADC3277B662AA02231CD31B70C2 PUSH1 0x80 DUP8 ADD MSTORE PUSH32 0x254EDDB67C04DE0E884152DB574A42FA772EF20F18EE78C53F80FD77C0147397 PUSH1 0xA0 DUP8 ADD MSTORE PUSH1 0xC0 DUP7 ADD MSTORE PUSH1 0xE0 DUP6 ADD MSTORE PUSH32 0x1197EEE61CC440C73EFB850B21936D39424F00466970E4312C8610A25B2D1BB9 PUSH2 0x100 DUP6 ADD MSTORE PUSH32 0x2F58382774FD44CD86350EC4739AC86A4C88C25D389629D7CDF1F4D238D8400A PUSH2 0x120 DUP6 ADD MSTORE PUSH32 0x1EF12D9C41366F9E89041C590AD60025322C377A17FBD52A6042E39CE3B6E983 PUSH2 0x140 DUP6 ADD MSTORE PUSH32 0x222EA6108D7D4DBC652743EBAB55FA4CBA8EC4313889097AA749C4FE94226CBB PUSH2 0x160 DUP6 ADD MSTORE DUP3 MLOAD DUP6 DUP2 PUSH2 0x180 DUP8 PUSH1 0x8 GAS STATICCALL SWAP1 MLOAD AND ISZERO PUSH2 0xA48 JUMPI DUP5 SWAP1 PUSH2 0xC73 PUSH1 0x4 CALLDATALOAD PUSH2 0x14B6 JUMP JUMPDEST PUSH2 0xC84 PUSH1 0x24 SWAP6 SWAP3 SWAP6 CALLDATALOAD PUSH1 0x44 CALLDATALOAD PUSH2 0x1521 JUMP JUMPDEST SWAP3 SWAP2 SWAP1 SWAP4 DUP10 PUSH2 0xC94 PUSH1 0x64 CALLDATALOAD PUSH2 0x14B6 JUMP JUMPDEST SWAP9 SWAP1 SWAP8 PUSH32 0x2E6D4B0D9931EAB376671EE5C9E8956A92E71EE9DB8A8E7A28CB24E73C8B8A72 DUP4 MLOAD SWAP12 DUP13 SWAP4 PUSH32 0x2B11D2AAD66B2E5DE7BC5C32DEA8D7C6E6F61B91FE0274879914FBA5B9A4FA2E DUP6 MSTORE PUSH32 0x85ED1F31AEE200E0E4FE1F2E4DCE72625A6A0F443FAB336AC52D36288D94FC8 DUP3 DUP7 ADD MSTORE DUP1 MLOAD DUP7 DUP7 ADD MSTORE ADD MLOAD PUSH1 0x60 DUP5 ADD SWAP1 DUP2 MSTORE PUSH32 0x131592A6DA4B7DD846D1E4315E44B4E0C23E5C032F60C4A94825B4FD2292EC57 DUP6 DUP6 PUSH1 0x80 DUP2 PUSH1 0x6 GAS STATICCALL SWAP6 PUSH32 0x22BC9D1BD5BD55BA95B4705EF3915F3AE54F106CC341D68FA3D8DDB1413C7196 DUP2 DUP8 ADD MSTORE PUSH32 0x57CC358F348D3D428B2ED1F7597D5AC6270964C04292F938BF2881768B12988 DUP4 MSTORE PUSH1 0x1 PUSH1 0xC4 CALLDATALOAD PUSH1 0x80 DUP9 ADD SWAP9 DUP2 DUP11 MSTORE PUSH0 MLOAD PUSH1 0x20 PUSH2 0x1B2F PUSH0 CODECOPY PUSH0 MLOAD SWAP1 PUSH0 MSTORE DUP5 DUP1 DUP12 ADD PUSH1 0x60 DUP3 DUP14 ADD PUSH1 0x7 GAS STATICCALL SWAP3 LT AND AND DUP3 DUP9 PUSH1 0x80 DUP2 PUSH1 0x6 GAS STATICCALL AND AND PUSH32 0xC44FBF8A54D7E1BE9DCCEC9C0055E5CB443543559D01141F0C2FC1B24BDDFC9 DUP3 DUP9 ADD MSTORE PUSH32 0x2625162083823A129368B22F4976EE21BA246283F409CCA35147A0DAA082A9DC DUP5 MSTORE PUSH1 0xE4 CALLDATALOAD SWAP1 DUP2 DUP10 MSTORE PUSH0 MLOAD PUSH1 0x20 PUSH2 0x1B2F PUSH0 CODECOPY PUSH0 MLOAD SWAP1 PUSH0 MSTORE DUP4 DUP1 DUP11 ADD PUSH1 0x60 DUP3 DUP13 ADD PUSH1 0x7 GAS STATICCALL SWAP3 LT AND AND DUP2 DUP8 PUSH1 0x80 DUP2 PUSH1 0x6 GAS STATICCALL AND PUSH32 0x2D817D224DBA2CA8AE799A71FD04D3EAE7E317C4716064126E78EADF1BDDC193 DUP3 DUP9 ADD MSTORE PUSH32 0x7360180B1E6209C27E0F0AB9AAF8A1CFC82B580CCBA300159CCECA7E1E0435A DUP5 MSTORE PUSH2 0x104 CALLDATALOAD SWAP1 DUP2 DUP10 MSTORE PUSH0 MLOAD PUSH1 0x20 PUSH2 0x1B2F PUSH0 CODECOPY PUSH0 MLOAD SWAP1 PUSH0 MSTORE DUP4 DUP1 DUP11 ADD PUSH1 0x60 DUP3 DUP13 ADD PUSH1 0x7 GAS STATICCALL SWAP3 LT AND AND DUP2 DUP8 PUSH1 0x80 DUP2 PUSH1 0x6 GAS STATICCALL AND PUSH32 0x84D7C3A02F36DA14BB43C7F6A2496D526BBD8022CFC93CDD60DDA08414137B4 DUP3 DUP9 ADD MSTORE PUSH32 0x2C052811F54CEE8F3D1E678D0830C59725B92D18E1A78008789335FC04B42C72 DUP5 MSTORE PUSH2 0x124 CALLDATALOAD SWAP1 DUP2 DUP10 MSTORE PUSH0 MLOAD PUSH1 0x20 PUSH2 0x1B2F PUSH0 CODECOPY PUSH0 MLOAD SWAP1 PUSH0 MSTORE DUP4 DUP1 DUP11 ADD PUSH1 0x60 DUP3 DUP13 ADD PUSH1 0x7 GAS STATICCALL SWAP3 LT AND AND DUP2 DUP8 PUSH1 0x80 DUP2 PUSH1 0x6 GAS STATICCALL AND PUSH32 0x1C000ED078E0E50FB92CDDC5C7F63F795B7930AD01C4E0FAC6977602311B2A6 DUP3 DUP9 ADD MSTORE PUSH32 0x12661B14B3517A2037010A4E59B62EFA6C7665A279D90C7F2162C27AE30B2837 DUP5 MSTORE PUSH2 0x144 CALLDATALOAD SWAP1 DUP2 DUP10 MSTORE PUSH0 MLOAD PUSH1 0x20 PUSH2 0x1B2F PUSH0 CODECOPY PUSH0 MLOAD SWAP1 PUSH0 MSTORE DUP4 DUP1 DUP11 ADD PUSH1 0x60 DUP3 DUP13 ADD PUSH1 0x7 GAS STATICCALL SWAP3 LT AND AND DUP2 DUP8 PUSH1 0x80 DUP2 PUSH1 0x6 GAS STATICCALL AND PUSH32 0x1930F6E6C400E96EAF3FD146D05CE4189EA36A77DFD20895ECD05E1AA590D6E2 DUP3 DUP9 ADD MSTORE PUSH32 0x2555538E1BB4D818D6E2C3F37440F2114172E879B1FEABB026F3F5EED9A614D3 DUP5 MSTORE PUSH2 0x164 CALLDATALOAD SWAP1 DUP2 DUP10 MSTORE PUSH0 MLOAD PUSH1 0x20 PUSH2 0x1B2F PUSH0 CODECOPY PUSH0 MLOAD SWAP1 PUSH0 MSTORE DUP4 DUP1 DUP11 ADD PUSH1 0x60 DUP3 DUP13 ADD PUSH1 0x7 GAS STATICCALL SWAP3 LT AND AND DUP2 DUP8 PUSH1 0x80 DUP2 PUSH1 0x6 GAS STATICCALL AND PUSH32 0x52CECD0A6C307D8FA3C1C4E093B30AA79CD8753BB7B6AD569E803E203111983 DUP3 DUP9 ADD MSTORE PUSH32 0x158C8E0E1754B73C255823B606690F73F5204AF05A24CBD300CABF4091559CA0 DUP5 MSTORE PUSH2 0x184 CALLDATALOAD SWAP1 DUP2 DUP10 MSTORE PUSH0 MLOAD PUSH1 0x20 PUSH2 0x1B2F PUSH0 CODECOPY PUSH0 MLOAD SWAP1 PUSH0 MSTORE DUP4 DUP1 DUP11 ADD PUSH1 0x60 DUP3 DUP13 ADD PUSH1 0x7 GAS STATICCALL SWAP3 LT AND AND DUP2 DUP8 PUSH1 0x80 DUP2 PUSH1 0x6 GAS STATICCALL AND PUSH32 0x2169DFCFC704758CE2EEDC72026F89E2500534C97CB451252CAF3DA17AA7B26B DUP3 DUP9 ADD MSTORE PUSH32 0x2524C400945827A371220BEDEA45CEB55F78F9E0253FBE19C396B55793B7A555 DUP5 MSTORE PUSH2 0x1A4 CALLDATALOAD SWAP1 DUP2 DUP10 MSTORE PUSH0 MLOAD PUSH1 0x20 PUSH2 0x1B2F PUSH0 CODECOPY PUSH0 MLOAD SWAP1 PUSH0 MSTORE DUP4 DUP1 DUP11 ADD PUSH1 0x60 DUP3 DUP13 ADD PUSH1 0x7 GAS STATICCALL SWAP3 LT AND AND DUP2 DUP8 PUSH1 0x80 DUP2 PUSH1 0x6 GAS STATICCALL AND PUSH32 0x25DD3501E409E81E21DC8BB9B8B19422403525555179DB5C3EB57E0B7AD2EBA2 DUP3 DUP9 ADD MSTORE PUSH32 0x1771134D12EF003C358932C33B3B191F89E04E1307A3181C5415B490AFCFE0EE DUP5 MSTORE PUSH2 0x1C4 CALLDATALOAD SWAP1 DUP2 DUP10 MSTORE PUSH0 MLOAD PUSH1 0x20 PUSH2 0x1B2F PUSH0 CODECOPY PUSH0 MLOAD SWAP1 PUSH0 MSTORE DUP4 DUP1 DUP11 ADD PUSH1 0x60 DUP3 DUP13 ADD PUSH1 0x7 GAS STATICCALL SWAP3 LT AND AND DUP2 DUP8 PUSH1 0x80 DUP2 PUSH1 0x6 GAS STATICCALL AND SWAP6 ADD MSTORE MSTORE MLOAD DUP1 SWAP3 MSTORE PUSH0 MLOAD PUSH1 0x20 PUSH2 0x1B2F PUSH0 CODECOPY PUSH0 MLOAD SWAP1 PUSH0 MSTORE DUP13 DUP12 PUSH1 0x60 DUP3 DUP1 DUP4 ADD SWAP3 ADD PUSH1 0x7 GAS STATICCALL SWAP3 LT AND AND DUP11 DUP10 PUSH1 0x80 DUP2 PUSH1 0x6 GAS STATICCALL AND SWAP9 DUP13 DUP10 MLOAD SWAP10 ADD MLOAD SWAP10 ISZERO PUSH2 0xA29 JUMPI DUP12 MSTORE DUP12 DUP12 ADD MSTORE DUP9 DUP11 ADD MSTORE PUSH1 0x60 DUP10 ADD MSTORE PUSH1 0x80 DUP9 ADD MSTORE PUSH1 0xA0 DUP8 ADD MSTORE PUSH1 0xC0 DUP7 ADD MSTORE PUSH1 0xE0 DUP6 ADD MSTORE PUSH32 0x130A3B67F543DEDA846445D6230F06DBCC4FC9230D34F91A4B1FAAD0EFE61A8A PUSH2 0x100 DUP6 ADD MSTORE PUSH32 0x10E55A50C7B08A64E18B7BDE27EC4110FE7FB12202121E6FF101944C87533714 PUSH2 0x120 DUP6 ADD MSTORE PUSH32 0x27BCA9FE60D54B8DA5015075996A8C1809D5147158087F42E6B066A1141F5177 PUSH2 0x140 DUP6 ADD MSTORE PUSH32 0x1B75EFFAED932252E6501D6431F3903CD63E860385D61A30A674AF708BB97661 PUSH2 0x160 DUP6 ADD MSTORE PUSH32 0xE414CA47ED0D06CEA28BB089A5C55A8F2B279595F96720BFDDCDAA56719EDDA PUSH2 0x180 DUP6 ADD MSTORE PUSH32 0xB60DC69B88F82C08F96B4CFA6B9A2529850F6DD7C665CAEE80756132E412BF4 PUSH2 0x1A0 DUP6 ADD MSTORE PUSH32 0xB5CBE03D20F03E13C4091FBCDDCE607C89CE811700287E0CE57F7BF7673C971 PUSH2 0x1C0 DUP6 ADD MSTORE PUSH32 0x217B18ACF2565725C2CA9DA0ED7D01D58E4D7755CC0D65E2DF8BE4308782291F PUSH2 0x1E0 DUP6 ADD MSTORE PUSH32 0xE39B086089C4A1BD56A58C895756919EDABD8A5DB92C37D0820C45F1D740450 PUSH2 0x200 DUP6 ADD MSTORE PUSH32 0x22AC99990AD6874151104F5CEB45277F14C37B1C62EF0396E5C76B9378D740CC PUSH2 0x220 DUP6 ADD MSTORE PUSH2 0x240 DUP5 ADD MSTORE PUSH2 0x260 DUP4 ADD MSTORE PUSH32 0x50B4460D2B42DB249C2A912DAA47CDBD1A63D9D3F802869ABA28520D98AAA34 PUSH2 0x280 DUP4 ADD MSTORE PUSH32 0x2CC154A7A501FB364878767578B3E84476FB3B15E1E4F1F36C41E6E3C4A4F006 PUSH2 0x2A0 DUP4 ADD MSTORE PUSH32 0x21624C1C2E20436E57F00C869B4F4AAE66E8F16607B9027306B9ABD91BAB715 PUSH2 0x2C0 DUP4 ADD MSTORE PUSH32 0x253DFFDC41BEB8CB4A01C3068DC7A60501047D6003FEF6F81A418F3DD70AE7BF PUSH2 0x2E0 DUP4 ADD MSTORE MLOAD SWAP3 DUP4 SWAP2 PUSH2 0x1423 DUP5 DUP5 PUSH2 0x1448 JUMP JUMPDEST DUP4 CALLDATASIZE DUP5 CALLDATACOPY PUSH1 0x8 GAS STATICCALL ISZERO SWAP1 DUP2 ISZERO PUSH2 0x143B JUMPI JUMPDEST POP PUSH2 0xA1A JUMPI STOP JUMPDEST PUSH1 0x1 SWAP2 POP MLOAD EQ ISZERO DUP2 PUSH2 0x1434 JUMP JUMPDEST SWAP1 PUSH1 0x1F DUP1 NOT SWAP2 ADD AND DUP2 ADD SWAP1 DUP2 LT PUSH8 0xFFFFFFFFFFFFFFFF DUP3 GT OR PUSH2 0x146A JUMPI PUSH1 0x40 MSTORE JUMP JUMPDEST PUSH4 0x4E487B71 PUSH1 0xE0 SHL PUSH0 MSTORE PUSH1 0x41 PUSH1 0x4 MSTORE PUSH1 0x24 PUSH0 REVERT JUMPDEST SWAP1 SWAP2 PUSH1 0x40 SWAP3 DUP3 MSTORE PUSH1 0x20 DUP3 ADD MSTORE ADD PUSH1 0x60 MLOAD PUSH1 0x80 SWAP1 PUSH0 JUMPDEST DUP2 DUP2 LT PUSH2 0x14A0 JUMPI POP POP POP SWAP1 JUMP JUMPDEST DUP3 MLOAD DUP5 MSTORE PUSH1 0x20 SWAP4 DUP5 ADD SWAP4 SWAP1 SWAP3 ADD SWAP2 PUSH1 0x1 ADD PUSH2 0x1493 JUMP JUMPDEST DUP1 ISZERO PUSH2 0x151A JUMPI DUP1 PUSH1 0x1 SHR SWAP2 PUSH0 MLOAD PUSH1 0x20 PUSH2 0x1B0F PUSH0 CODECOPY PUSH0 MLOAD SWAP1 PUSH0 MSTORE DUP4 LT ISZERO PUSH2 0xA1A JUMPI PUSH1 0x1 DUP1 PUSH2 0x14F9 PUSH0 MLOAD PUSH1 0x20 PUSH2 0x1B0F PUSH0 CODECOPY PUSH0 MLOAD SWAP1 PUSH0 MSTORE PUSH1 0x3 DUP2 DUP9 DUP2 DUP2 DUP1 MULMOD MULMOD ADDMOD PUSH2 0x192F JUMP JUMPDEST SWAP4 AND EQ PUSH2 0x1502 JUMPI JUMP JUMPDEST SWAP1 PUSH0 MLOAD PUSH1 0x20 PUSH2 0x1B0F PUSH0 CODECOPY PUSH0 MLOAD SWAP1 PUSH0 MSTORE DUP1 SWAP2 MOD DUP2 SUB MOD SWAP1 JUMP JUMPDEST POP PUSH0 SWAP1 PUSH0 SWAP1 JUMP JUMPDEST DUP1 ISZERO DUP1 PUSH2 0x1652 JUMPI JUMPDEST PUSH2 0x1646 JUMPI DUP1 PUSH1 0x2 SHR SWAP3 DUP3 PUSH0 MLOAD PUSH1 0x20 PUSH2 0x1B0F PUSH0 CODECOPY PUSH0 MLOAD SWAP1 PUSH0 MSTORE DUP6 LT DUP1 ISZERO SWAP1 PUSH2 0x162F JUMPI JUMPDEST PUSH2 0xA1A JUMPI DUP5 DUP2 PUSH0 MLOAD PUSH1 0x20 PUSH2 0x1B0F PUSH0 CODECOPY PUSH0 MLOAD SWAP1 PUSH0 MSTORE DUP1 DUP1 DUP1 DUP1 DUP1 DUP1 DUP1 DUP1 PUSH32 0x30644E72E131A029B85045B68181585D97816A916871CA8D3C208C16D87CFD44 DUP2 PUSH2 0x15F9 SWAP14 DUP14 MULMOD MULMOD SWAP10 DUP11 MULMOD DUP2 DUP10 DUP2 DUP2 DUP1 MULMOD MULMOD ADDMOD PUSH32 0x2FCD3AC2A640A154EB23960892A85A68F031CA0C8344B23A577DCF1052B9E775 ADDMOD MOD DUP2 SUB MOD SWAP4 PUSH1 0x2 DUP1 DUP11 AND EQ SWAP6 MULMOD DUP2 DUP11 DUP2 DUP2 DUP1 MULMOD MULMOD ADDMOD PUSH32 0x2B149D40CEB8AAAE81BE18991BE06AC3B5B4C5E559DBEFA33267E6DC24A138E5 ADDMOD PUSH2 0x1952 JUMP JUMPDEST DUP1 SWAP3 SWAP2 PUSH1 0x1 DUP1 DUP3 SWAP7 AND EQ PUSH2 0x160B JUMPI POP POP JUMP JUMPDEST PUSH0 MLOAD PUSH1 0x20 PUSH2 0x1B0F PUSH0 CODECOPY PUSH0 MLOAD SWAP1 PUSH0 MSTORE DUP1 SWAP4 SWAP5 POP DUP1 SWAP3 SWAP6 POP DUP1 SWAP2 MOD DUP2 SUB MOD SWAP4 MOD DUP2 SUB MOD SWAP1 JUMP JUMPDEST POP PUSH0 MLOAD PUSH1 0x20 PUSH2 0x1B0F PUSH0 CODECOPY PUSH0 MLOAD SWAP1 PUSH0 MSTORE DUP2 LT ISZERO PUSH2 0x154B JUMP JUMPDEST POP POP PUSH0 SWAP1 PUSH0 SWAP1 PUSH0 SWAP1 PUSH0 SWAP1 JUMP JUMPDEST POP DUP2 ISZERO PUSH2 0x1529 JUMP JUMPDEST SWAP1 PUSH0 MLOAD PUSH1 0x20 PUSH2 0x1B0F PUSH0 CODECOPY PUSH0 MLOAD SWAP1 PUSH0 MSTORE DUP3 LT DUP1 ISZERO SWAP1 PUSH2 0x16E4 JUMPI JUMPDEST PUSH2 0xA1A JUMPI DUP2 ISZERO DUP1 PUSH2 0x16DC JUMPI JUMPDEST PUSH2 0x16D6 JUMPI PUSH2 0x16A3 PUSH0 MLOAD PUSH1 0x20 PUSH2 0x1B0F PUSH0 CODECOPY PUSH0 MLOAD SWAP1 PUSH0 MSTORE PUSH1 0x3 DUP2 DUP6 DUP2 DUP2 DUP1 MULMOD MULMOD ADDMOD PUSH2 0x192F JUMP JUMPDEST DUP2 DUP2 SUB PUSH2 0x16B2 JUMPI POP POP PUSH1 0x1 SHL SWAP1 JUMP JUMPDEST PUSH0 MLOAD PUSH1 0x20 PUSH2 0x1B0F PUSH0 CODECOPY PUSH0 MLOAD SWAP1 PUSH0 MSTORE DUP1 SWAP2 MOD DUP2 SUB MOD EQ PUSH0 EQ PUSH2 0xA1A JUMPI PUSH1 0x1 SWAP1 DUP2 SHL OR SWAP1 JUMP JUMPDEST POP POP PUSH0 SWAP1 JUMP JUMPDEST POP DUP1 ISZERO PUSH2 0x167F JUMP JUMPDEST POP PUSH0 MLOAD PUSH1 0x20 PUSH2 0x1B0F PUSH0 CODECOPY PUSH0 MLOAD SWAP1 PUSH0 MSTORE DUP2 LT ISZERO PUSH2 0x1673 JUMP JUMPDEST SWAP2 SWAP1 SWAP4 SWAP3 PUSH0 MLOAD PUSH1 0x20 PUSH2 0x1B0F PUSH0 CODECOPY PUSH0 MLOAD SWAP1 PUSH0 MSTORE DUP4 LT DUP1 ISZERO SWAP1 PUSH2 0x1918 JUMPI JUMPDEST DUP1 ISZERO PUSH2 0x1901 JUMPI JUMPDEST DUP1 ISZERO PUSH2 0x18EA JUMPI JUMPDEST PUSH2 0xA1A JUMPI DUP1 DUP3 DUP7 DUP6 OR OR OR ISZERO PUSH2 0x18DF JUMPI SWAP1 DUP3 SWAP2 PUSH2 0x1842 PUSH0 MLOAD PUSH1 0x20 PUSH2 0x1B0F PUSH0 CODECOPY PUSH0 MLOAD SWAP1 PUSH0 MSTORE DUP1 DUP1 DUP1 DUP1 DUP9 DUP2 DUP1 DUP1 DUP16 SWAP14 PUSH32 0x30644E72E131A029B85045B68181585D97816A916871CA8D3C208C16D87CFD44 DUP16 DUP4 SWAP3 SWAP1 DUP4 SWAP2 MULMOD MULMOD SWAP14 DUP15 MULMOD DUP2 DUP5 DUP2 DUP2 DUP1 MULMOD MULMOD ADDMOD PUSH32 0x2B149D40CEB8AAAE81BE18991BE06AC3B5B4C5E559DBEFA33267E6DC24A138E5 ADDMOD SWAP11 MULMOD DUP2 DUP13 DUP2 DUP2 DUP1 MULMOD MULMOD ADDMOD PUSH32 0x2FCD3AC2A640A154EB23960892A85A68F031CA0C8344B23A577DCF1052B9E775 ADDMOD MOD DUP2 SUB MOD SWAP5 PUSH0 MLOAD PUSH1 0x20 PUSH2 0x1B0F PUSH0 CODECOPY PUSH0 MLOAD SWAP1 PUSH0 MSTORE PUSH32 0x183227397098D014DC2822DB40C0AC2ECBC0B548B438E5469E10460B6C3E7EA4 DUP2 PUSH2 0x181C DUP2 DUP1 DUP12 DUP1 MULMOD DUP2 DUP8 DUP1 MULMOD ADDMOD PUSH2 0x192F JUMP JUMPDEST DUP5 ADDMOD MULMOD PUSH0 MLOAD PUSH1 0x20 PUSH2 0x1B0F PUSH0 CODECOPY PUSH0 MLOAD SWAP1 PUSH0 MSTORE PUSH2 0x1836 DUP3 PUSH2 0x1AA6 JUMP JUMPDEST DUP1 MULMOD EQ ISZERO SWAP6 DUP7 SWAP2 PUSH2 0x1952 JUMP JUMPDEST SWAP3 SWAP1 DUP1 DUP3 EQ DUP1 PUSH2 0x18D6 JUMPI JUMPDEST ISZERO PUSH2 0x1874 JUMPI POP POP POP POP SWAP1 PUSH0 EQ PUSH2 0x186C JUMPI PUSH1 0xFF PUSH1 0x2 JUMPDEST AND SWAP1 PUSH1 0x2 SHL OR SWAP2 SWAP1 JUMP JUMPDEST PUSH1 0xFF PUSH0 PUSH2 0x1862 JUMP JUMPDEST PUSH0 MLOAD PUSH1 0x20 PUSH2 0x1B0F PUSH0 CODECOPY PUSH0 MLOAD SWAP1 PUSH0 MSTORE DUP1 SWAP2 MOD DUP2 SUB MOD EQ SWAP2 DUP3 PUSH2 0x18B7 JUMPI JUMPDEST POP POP ISZERO PUSH2 0xA1A JUMPI PUSH1 0x1 SWAP2 ISZERO PUSH2 0x18AF JUMPI PUSH1 0xFF PUSH1 0x2 JUMPDEST AND SWAP1 PUSH1 0x2 SHL OR OR SWAP2 SWAP1 JUMP JUMPDEST PUSH1 0xFF PUSH0 PUSH2 0x18A4 JUMP JUMPDEST PUSH0 MLOAD PUSH1 0x20 PUSH2 0x1B0F PUSH0 CODECOPY PUSH0 MLOAD SWAP1 PUSH0 MSTORE SWAP2 SWAP3 POP DUP2 SWAP1 MOD DUP2 SUB MOD EQ PUSH0 DUP1 PUSH2 0x1890 JUMP JUMPDEST POP DUP4 DUP4 EQ PUSH2 0x184D JUMP JUMPDEST POP POP POP SWAP1 POP PUSH0 SWAP1 PUSH0 SWAP1 JUMP JUMPDEST POP PUSH0 MLOAD PUSH1 0x20 PUSH2 0x1B0F PUSH0 CODECOPY PUSH0 MLOAD SWAP1 PUSH0 MSTORE DUP2 LT ISZERO PUSH2 0x1725 JUMP JUMPDEST POP PUSH0 MLOAD PUSH1 0x20 PUSH2 0x1B0F PUSH0 CODECOPY PUSH0 MLOAD SWAP1 PUSH0 MSTORE DUP3 LT ISZERO PUSH2 0x171E JUMP JUMPDEST POP PUSH0 MLOAD PUSH1 0x20 PUSH2 0x1B0F PUSH0 CODECOPY PUSH0 MLOAD SWAP1 PUSH0 MSTORE DUP6 LT ISZERO PUSH2 0x1717 JUMP JUMPDEST SWAP1 PUSH2 0x1939 DUP3 PUSH2 0x1AA6 JUMP JUMPDEST SWAP2 PUSH0 MLOAD PUSH1 0x20 PUSH2 0x1B0F PUSH0 CODECOPY PUSH0 MLOAD SWAP1 PUSH0 MSTORE DUP4 DUP1 MULMOD SUB PUSH2 0xA1A JUMPI JUMP JUMPDEST SWAP2 PUSH0 MLOAD PUSH1 0x20 PUSH2 0x1B0F PUSH0 CODECOPY PUSH0 MLOAD SWAP1 PUSH0 MSTORE PUSH32 0x183227397098D014DC2822DB40C0AC2ECBC0B548B438E5469E10460B6C3E7EA4 DUP2 PUSH2 0x19AA SWAP4 SWAP7 SWAP5 SWAP7 PUSH2 0x199C DUP3 DUP1 DUP11 DUP1 MULMOD DUP2 DUP11 DUP1 MULMOD ADDMOD PUSH2 0x192F JUMP JUMPDEST SWAP1 PUSH2 0x1A9A JUMPI JUMPDEST DUP7 ADDMOD MULMOD PUSH2 0x192F JUMP JUMPDEST SWAP3 PUSH0 MLOAD PUSH1 0x20 PUSH2 0x1B0F PUSH0 CODECOPY PUSH0 MLOAD SWAP1 PUSH0 MSTORE PUSH1 0x2 DUP6 MULMOD PUSH1 0x40 MLOAD SWAP1 PUSH1 0x20 DUP3 MSTORE PUSH1 0x20 DUP1 DUP4 ADD MSTORE PUSH1 0x20 PUSH1 0x40 DUP4 ADD MSTORE DUP1 PUSH1 0x60 DUP4 ADD MSTORE PUSH32 0x30644E72E131A029B85045B68181585D97816A916871CA8D3C208C16D87CFD45 PUSH1 0x80 DUP4 ADD MSTORE PUSH0 MLOAD PUSH1 0x20 PUSH2 0x1B0F PUSH0 CODECOPY PUSH0 MLOAD SWAP1 PUSH0 MSTORE PUSH1 0xA0 DUP4 ADD MSTORE PUSH1 0x20 DUP3 PUSH1 0xC0 DUP2 PUSH1 0x5 GAS STATICCALL SWAP2 MLOAD SWAP2 ISZERO PUSH2 0xA1A JUMPI PUSH0 MLOAD PUSH1 0x20 PUSH2 0x1B0F PUSH0 CODECOPY PUSH0 MLOAD SWAP1 PUSH0 MSTORE DUP3 PUSH1 0x1 SWAP3 MULMOD SUB PUSH2 0xA1A JUMPI PUSH0 MLOAD PUSH1 0x20 PUSH2 0x1B0F PUSH0 CODECOPY PUSH0 MLOAD SWAP1 PUSH0 MSTORE SWAP1 DUP3 MULMOD SWAP3 PUSH0 MLOAD PUSH1 0x20 PUSH2 0x1B0F PUSH0 CODECOPY PUSH0 MLOAD SWAP1 PUSH0 MSTORE DUP1 DUP1 DUP1 DUP8 DUP1 MULMOD MOD DUP2 SUB MOD DUP2 DUP8 DUP1 MULMOD ADDMOD EQ SWAP1 DUP2 ISZERO SWAP2 PUSH2 0x1A7B JUMPI JUMPDEST POP PUSH2 0xA1A JUMPI JUMP JUMPDEST SWAP1 POP PUSH0 MLOAD PUSH1 0x20 PUSH2 0x1B0F PUSH0 CODECOPY PUSH0 MLOAD SWAP1 PUSH0 MSTORE DUP1 DUP5 DUP7 MULMOD PUSH1 0x2 MULMOD EQ ISZERO PUSH0 PUSH2 0x1A74 JUMP JUMPDEST DUP2 DUP1 SWAP2 MOD DUP2 SUB MOD PUSH2 0x19A2 JUMP JUMPDEST SWAP1 PUSH1 0x40 MLOAD SWAP2 PUSH1 0x20 DUP4 MSTORE PUSH1 0x20 DUP1 DUP5 ADD MSTORE PUSH1 0x20 PUSH1 0x40 DUP5 ADD MSTORE PUSH1 0x60 DUP4 ADD MSTORE PUSH32 0xC19139CB84C680A6E14116DA060561765E05AA45A1C72A34F082305B61F3F52 PUSH1 0x80 DUP4 ADD MSTORE PUSH0 MLOAD PUSH1 0x20 PUSH2 0x1B0F PUSH0 CODECOPY PUSH0 MLOAD SWAP1 PUSH0 MSTORE PUSH1 0xA0 DUP4 ADD MSTORE PUSH1 0x20 DUP3 PUSH1 0xC0 DUP2 PUSH1 0x5 GAS STATICCALL SWAP2 MLOAD SWAP2 ISZERO PUSH2 0xA1A JUMPI JUMP INVALID ADDRESS PUSH5 0x4E72E131A0 0x29 0xB8 POP GASLIMIT 0xB6 DUP2 DUP2 PC TSTORE SWAP8 DUP2 PUSH11 0x916871CA8D3C208C16D87C REVERT SELFBALANCE ADDRESS PUSH5 0x4E72E131A0 0x29 0xB8 POP GASLIMIT 0xB6 DUP2 DUP2 PC TSTORE 0x28 CALLER 0xE8 BASEFEE PUSH26 0xB9709143E1F593F0000001A26469706673582212206D05C7C7F2 XOR MCOPY 0xB3 MCOPY SWAP2 ADDRESS PUSH32 0x68BB1F78732B163F81FE93F974D398784729B5F064736F6C634300081C003300 "},"methodIdentifiers":{"compressProof(uint256[8],uint256[2],uint256[2])":"b1c3a00e","verifyCompressedProof(uint256[4],uint256[1],uint256,uint256[9])":"5d26278e","verifyProof(uint256[8],uint256[2],uint256[2],uint256[9])":"60e58346"}}}}}