{"src/verifiers/ResultsVerifierGroth16.sol":{"ResultsVerifierGroth16":{"abi":[{"inputs":[],"name":"CommitmentInvalid","type":"error"},{"inputs":[],"name":"ProofInvalid","type":"error"},{"inputs":[],"name":"PublicInputNotInField","type":"error"},{"inputs":[{"internalType":"uint256[8]","name":"proof","type":"uint256[8]"},{"internalType":"uint256[2]","name":"commitments","type":"uint256[2]"},{"internalType":"uint256[2]","name":"commitmentPok","type":"uint256[2]"}],"name":"compressProof","outputs":[{"internalType":"uint256[4]","name":"compressed","type":"uint256[4]"},{"internalType":"uint256[1]","name":"compressedCommitments","type":"uint256[1]"},{"internalType":"uint256","name":"compressedCommitmentPok","type":"uint256"}],"stateMutability":"view","type":"function"},{"inputs":[],"name":"provingKeyHash","outputs":[{"internalType":"bytes32","name":"","type":"bytes32"}],"stateMutability":"pure","type":"function"},{"inputs":[{"internalType":"uint256[4]","name":"compressedProof","type":"uint256[4]"},{"internalType":"uint256[1]","name":"compressedCommitments","type":"uint256[1]"},{"internalType":"uint256","name":"compressedCommitmentPok","type":"uint256"},{"internalType":"uint256[9]","name":"input","type":"uint256[9]"}],"name":"verifyCompressedProof","outputs":[],"stateMutability":"view","type":"function"},{"inputs":[{"internalType":"uint256[8]","name":"proof","type":"uint256[8]"},{"internalType":"uint256[2]","name":"commitments","type":"uint256[2]"},{"internalType":"uint256[2]","name":"commitmentPok","type":"uint256[2]"},{"internalType":"uint256[9]","name":"input","type":"uint256[9]"}],"name":"verifyProof","outputs":[],"stateMutability":"view","type":"function"},{"inputs":[{"internalType":"bytes","name":"_proof","type":"bytes"},{"internalType":"bytes","name":"_input","type":"bytes"}],"name":"verifyProof","outputs":[],"stateMutability":"view","type":"function"}],"evm":{"bytecode":{"linkReferences":{},"object":"60808060405234601557611e7b908161001a8239f35b5f80fdfe6080806040526004361015610012575f80fd5b5f905f3560e01c908163233ace111461167e575080635d26278e14610c8d57806360e583461461037f578063b1c3a00e1461026e5763b8e72af614610055575f80fd5b346102365760403660031901126102365760043567ffffffffffffffff8111610236576100869036906004016116b6565b60243567ffffffffffffffff8111610236576100a69036906004016116b6565b61010093846040516100b882826116e4565b3690376040938480516100cb82826116e4565b3690378480516100db82826116e4565b3690378101610180828203126102365780601f8301121561023657845195610105610100886116e4565b8201868282116102365783905b82821061025e5750509061014061012c8261013394611bde565b9301611bde565b916101209081865161014582826116e4565b36903784019080858303126102365781601f860112156102365785519461016e610120876116e4565b8591810192831161023657905b82821061023a57505050303b15610236578351633072c1a360e11b8152945f600487015b6008821061022057505050906101bd6101c89261010487019061173e565b61014485019061173e565b5f61018484015b6009821061020a575050505f826102a481305afa90811561020157506101f3575080f35b6101ff91505f906116e4565b005b513d5f823e3d90fd5b60208060019285518152019301910190916101cf565b602080600192855181520193019101909161019f565b5f80fd5b813581526020918201910161017b565b634e487b7160e01b5f52604160045260245ffd5b8135815260209182019101610112565b3461023657610180366003190112610236573661010411610236573661014411610236573661018411610236576040516102a96080826116e4565b60803682376040519060206102be81846116e4565b803684376102d0602435600435611909565b82526102e660843560a4356044356064356119aa565b8284015260408301526102fd60e43560c435611909565b60608301526103126101243561010435611909565b83526103246101643561014435611909565b9060405192835f905b60048210610369575050506080830193905f945b600186106103545760c0858560a0820152f35b81806001928551815201930195019491610341565b825181529183019160019190910190830161032d565b34610236576102a036600319011261023657366101041161023657366101441161023657366101841161023657366102a4116102365760405160206103c481836116e4565b803683375f516020611e265f395f51905f5260405182810190610400816103f2610124356101043586611706565b03601f1981018352826116e4565b519020068252604051604061010482377f222a11e5a1fa455473a7d8ee37037b7360f26184362f37931965f306f9fb02a460408201527f2c3841a672fd7ebd288ffc216ed99f9f948602cc2b598b060a2c5c38051b249b60608201527f20a4faaf8edd4f1ca3a79fdc4549aa3de0497adc3277b662aa02231cd31b70c260808201527f254eddb67c04de0e884152db574a42fa772ef20f18ee78c53f80fd77c014739760a0820152604061014460c08301377f1197eee61cc440c73efb850b21936d39424f00466970e4312c8610a25b2d1bb96101008201527f2f58382774fd44cd86350ec4739ac86a4c88c25d389629d7cdf1f4d238d8400a6101208201527f1ef12d9c41366f9e89041c590ad60025322c377a17fbd52a6042e39ce3b6e9836101408201527f222ea6108d7d4dbc652743ebab55fa4cba8ec4313889097aa749c4fe94226cbb61016082015281816101808160085afa90511615610c7e5760408051929061057090846116e4565b61010482845b6101448310610c6e5750505060405190604082017f2b11d2aad66b2e5de7bc5c32dea8d7c6e6f61b91fe0274879914fba5b9a4fa2e83525f516020611e265f395f51905f52604085808601977f085ed1f31aee200e0e4fe1f2e4dce72625a6a0f443fab336ac52d36288d94fc889528051855201519260608601938452818660808160065afa947f22bc9d1bd5bd55ba95b4705ef3915f3ae54f106cc341d68fa3d8ddb1413c719682527f057cc358f348d3d428b2ed1f7597d5ac6270964c04292f938bf2881768b1298885527f2e6d4b0d9931eab376671ee5c9e8956a92e71ee9db8a8e7a28cb24e73c8b8a7260016101843560808a0198818a5287878760608160075afa92101616858a60808160065afa16167f0c44fbf8a54d7e1be9dccec9c0055e5cb443543559d01141f0c2fc1b24bddfc984527f2625162083823a129368b22f4976ee21ba246283f409cca35147a0daa082a9dc87526101a4359081895286868660608160075afa92101616848960808160065afa167f2d817d224dba2ca8ae799a71fd04d3eae7e317c4716064126e78eadf1bddc19384527f07360180b1e6209c27e0f0ab9aaf8a1cfc82b580ccba300159cceca7e1e0435a87526101c4359081895286868660608160075afa92101616848960808160065afa167f084d7c3a02f36da14bb43c7f6a2496d526bbd8022cfc93cdd60dda08414137b484527f2c052811f54cee8f3d1e678d0830c59725b92d18e1a78008789335fc04b42c7287526101e4359081895286868660608160075afa92101616848960808160065afa167f01c000ed078e0e50fb92cddc5c7f63f795b7930ad01c4e0fac6977602311b2a684527f12661b14b3517a2037010a4e59b62efa6c7665a279d90c7f2162c27ae30b28378752610204359081895286868660608160075afa92101616848960808160065afa167f1930f6e6c400e96eaf3fd146d05ce4189ea36a77dfd20895ecd05e1aa590d6e284527f2555538e1bb4d818d6e2c3f37440f2114172e879b1feabb026f3f5eed9a614d38752610224359081895286868660608160075afa92101616848960808160065afa167f052cecd0a6c307d8fa3c1c4e093b30aa79cd8753bb7b6ad569e803e20311198384527f158c8e0e1754b73c255823b606690f73f5204af05a24cbd300cabf4091559ca08752610244359081895286868660608160075afa92101616848960808160065afa167f2169dfcfc704758ce2eedc72026f89e2500534c97cb451252caf3da17aa7b26b84527f2524c400945827a371220bedea45ceb55f78f9e0253fbe19c396b55793b7a5558752610264359081895286868660608160075afa92101616848960808160065afa167f25dd3501e409e81e21dc8bb9b8b19422403525555179db5c3eb57e0b7ad2eba284527f1771134d12ef003c358932c33b3b191f89e04e1307a3181c5415b490afcfe0ee8752610284359081895286868660608160075afa92101616848960808160065afa16957f131592a6da4b7dd846d1e4315e44b4e0c23e5c032f60c4a94825b4fd2292ec578452525180955260608160075afa9210161660408260808160065afa16905192519015610c5f5760405192610100600485377f130a3b67f543deda846445d6230f06dbcc4fc9230d34f91a4b1faad0efe61a8a6101008501527f10e55a50c7b08a64e18b7bde27ec4110fe7fb12202121e6ff101944c875337146101208501527f27bca9fe60d54b8da5015075996a8c1809d5147158087f42e6b066a1141f51776101408501527f1b75effaed932252e6501d6431f3903cd63e860385d61a30a674af708bb976616101608501527f0e414ca47ed0d06cea28bb089a5c55a8f2b279595f96720bfddcdaa56719edda6101808501527f0b60dc69b88f82c08f96b4cfa6b9a2529850f6dd7c665caee80756132e412bf46101a08501527f0b5cbe03d20f03e13c4091fbcddce607c89ce811700287e0ce57f7bf7673c9716101c08501527f217b18acf2565725c2ca9da0ed7d01d58e4d7755cc0d65e2df8be4308782291f6101e08501527f0e39b086089c4a1bd56a58c895756919edabd8a5db92c37d0820c45f1d7404506102008501527f22ac99990ad6874151104f5ceb45277f14c37b1c62ef0396e5c76b9378d740cc6102208501526102408401526102608301527f050b4460d2b42db249c2a912daa47cdbd1a63d9d3f802869aba28520d98aaa346102808301527f2cc154a7a501fb364878767578b3e84476fb3b15e1e4f1f36c41e6e3c4a4f0066102a08301527f021624c1c2e20436e57f00c869b4f4aae66e8f16607b9027306b9abd91bab7156102c08301527f253dffdc41beb8cb4a01c3068dc7a60501047d6003fef6f81a418f3dd70ae7bf6102e0830152816103008160085afa90511615610c5057005b631ff3747d60e21b5f5260045ffd5b63a54f8e2760e01b5f5260045ffd5b8235815291810191849101610576565b6351d49ff760e11b5f5260045ffd5b34610236576101e03660031901126102365736608411610236573660a41161023657366101e411610236576040516020610cc781836116e4565b803683376040805190610cda81836116e4565b8036833761030093815192610cef86856116e4565b85368537610cfe608435611765565b868301528152610d0f60a435611765565b905f516020611e265f395f51905f5283516103f2610d398a87015189519283918d83019586611706565b5190200684528251865286830151878701527f222a11e5a1fa455473a7d8ee37037b7360f26184362f37931965f306f9fb02a4858701527f2c3841a672fd7ebd288ffc216ed99f9f948602cc2b598b060a2c5c38051b249b60608701527f20a4faaf8edd4f1ca3a79fdc4549aa3de0497adc3277b662aa02231cd31b70c260808701527f254eddb67c04de0e884152db574a42fa772ef20f18ee78c53f80fd77c014739760a087015260c086015260e08501527f1197eee61cc440c73efb850b21936d39424f00466970e4312c8610a25b2d1bb96101008501527f2f58382774fd44cd86350ec4739ac86a4c88c25d389629d7cdf1f4d238d8400a6101208501527f1ef12d9c41366f9e89041c590ad60025322c377a17fbd52a6042e39ce3b6e9836101408501527f222ea6108d7d4dbc652743ebab55fa4cba8ec4313889097aa749c4fe94226cbb610160850152825185816101808760085afa90511615610c7e578490610ea9600435611765565b610eba6024959295356044356117d0565b9291909389610eca606435611765565b9890977f2e6d4b0d9931eab376671ee5c9e8956a92e71ee9db8a8e7a28cb24e73c8b8a7283519b8c937f2b11d2aad66b2e5de7bc5c32dea8d7c6e6f61b91fe0274879914fba5b9a4fa2e85527f085ed1f31aee200e0e4fe1f2e4dce72625a6a0f443fab336ac52d36288d94fc8828601528051868601520151606084019081527f131592a6da4b7dd846d1e4315e44b4e0c23e5c032f60c4a94825b4fd2292ec57858560808160065afa957f22bc9d1bd5bd55ba95b4705ef3915f3ae54f106cc341d68fa3d8ddb1413c7196818701527f057cc358f348d3d428b2ed1f7597d5ac6270964c04292f938bf2881768b129888352600160c4356080880198818a525f516020611e265f395f51905f5284808b016060828d0160075afa92101616828860808160065afa16167f0c44fbf8a54d7e1be9dccec9c0055e5cb443543559d01141f0c2fc1b24bddfc9828801527f2625162083823a129368b22f4976ee21ba246283f409cca35147a0daa082a9dc845260e435908189525f516020611e265f395f51905f5283808a016060828c0160075afa92101616818760808160065afa167f2d817d224dba2ca8ae799a71fd04d3eae7e317c4716064126e78eadf1bddc193828801527f07360180b1e6209c27e0f0ab9aaf8a1cfc82b580ccba300159cceca7e1e0435a845261010435908189525f516020611e265f395f51905f5283808a016060828c0160075afa92101616818760808160065afa167f084d7c3a02f36da14bb43c7f6a2496d526bbd8022cfc93cdd60dda08414137b4828801527f2c052811f54cee8f3d1e678d0830c59725b92d18e1a78008789335fc04b42c72845261012435908189525f516020611e265f395f51905f5283808a016060828c0160075afa92101616818760808160065afa167f01c000ed078e0e50fb92cddc5c7f63f795b7930ad01c4e0fac6977602311b2a6828801527f12661b14b3517a2037010a4e59b62efa6c7665a279d90c7f2162c27ae30b2837845261014435908189525f516020611e265f395f51905f5283808a016060828c0160075afa92101616818760808160065afa167f1930f6e6c400e96eaf3fd146d05ce4189ea36a77dfd20895ecd05e1aa590d6e2828801527f2555538e1bb4d818d6e2c3f37440f2114172e879b1feabb026f3f5eed9a614d3845261016435908189525f516020611e265f395f51905f5283808a016060828c0160075afa92101616818760808160065afa167f052cecd0a6c307d8fa3c1c4e093b30aa79cd8753bb7b6ad569e803e203111983828801527f158c8e0e1754b73c255823b606690f73f5204af05a24cbd300cabf4091559ca0845261018435908189525f516020611e265f395f51905f5283808a016060828c0160075afa92101616818760808160065afa167f2169dfcfc704758ce2eedc72026f89e2500534c97cb451252caf3da17aa7b26b828801527f2524c400945827a371220bedea45ceb55f78f9e0253fbe19c396b55793b7a55584526101a435908189525f516020611e265f395f51905f5283808a016060828c0160075afa92101616818760808160065afa167f25dd3501e409e81e21dc8bb9b8b19422403525555179db5c3eb57e0b7ad2eba2828801527f1771134d12ef003c358932c33b3b191f89e04e1307a3181c5415b490afcfe0ee84526101c435908189525f516020611e265f395f51905f5283808a016060828c0160075afa92101616818760808160065afa1695015252518092525f516020611e265f395f51905f528c8b606082808301920160075afa921016168a8960808160065afa16988c89519901519915610c5f578b528b8b0152888a01526060890152608088015260a087015260c086015260e08501527f130a3b67f543deda846445d6230f06dbcc4fc9230d34f91a4b1faad0efe61a8a6101008501527f10e55a50c7b08a64e18b7bde27ec4110fe7fb12202121e6ff101944c875337146101208501527f27bca9fe60d54b8da5015075996a8c1809d5147158087f42e6b066a1141f51776101408501527f1b75effaed932252e6501d6431f3903cd63e860385d61a30a674af708bb976616101608501527f0e414ca47ed0d06cea28bb089a5c55a8f2b279595f96720bfddcdaa56719edda6101808501527f0b60dc69b88f82c08f96b4cfa6b9a2529850f6dd7c665caee80756132e412bf46101a08501527f0b5cbe03d20f03e13c4091fbcddce607c89ce811700287e0ce57f7bf7673c9716101c08501527f217b18acf2565725c2ca9da0ed7d01d58e4d7755cc0d65e2df8be4308782291f6101e08501527f0e39b086089c4a1bd56a58c895756919edabd8a5db92c37d0820c45f1d7404506102008501527f22ac99990ad6874151104f5ceb45277f14c37b1c62ef0396e5c76b9378d740cc6102208501526102408401526102608301527f050b4460d2b42db249c2a912daa47cdbd1a63d9d3f802869aba28520d98aaa346102808301527f2cc154a7a501fb364878767578b3e84476fb3b15e1e4f1f36c41e6e3c4a4f0066102a08301527f021624c1c2e20436e57f00c869b4f4aae66e8f16607b9027306b9abd91bab7156102c08301527f253dffdc41beb8cb4a01c3068dc7a60501047d6003fef6f81a418f3dd70ae7bf6102e08301525192839161165984846116e4565b8336843760085afa15908115611671575b50610c5057005b600191505114158161166a565b34610236575f36600319011261023657807f0e408af9c063d217680deb42b0570387d9ca2e6f9a87710af091f3491cc45c9960209252f35b9181601f840112156102365782359167ffffffffffffffff8311610236576020838186019501011161023657565b90601f8019910116810190811067ffffffffffffffff82111761024a57604052565b909160409282526020820152016060516080905f5b8181106117285750505090565b825184526020938401939092019160010161171b565b905f905b6002821061174f57505050565b6020806001928551815201930191019091611742565b80156117c9578060011c915f516020611e065f395f51905f52831015610c50576001806117a85f516020611e065f395f51905f5260038188818180090908611c26565b9316146117b157565b905f516020611e065f395f51905f5280910681030690565b505f905f90565b801580611901575b6118f5578060021c92825f516020611e065f395f51905f5285108015906118de575b610c505784815f516020611e065f395f51905f5280808080808080807f30644e72e131a029b85045b68181585d97816a916871ca8d3c208c16d87cfd44816118a89d8d0909998a0981898181800909087f2fcd3ac2a640a154eb23960892a85a68f031ca0c8344b23a577dcf1052b9e7750806810306936002808a16149509818a8181800909087f2b149d40ceb8aaae81be18991be06ac3b5b4c5e559dbefa33267e6dc24a138e508611c49565b809291600180829616146118ba575050565b5f516020611e065f395f51905f528093945080929550809106810306930681030690565b505f516020611e065f395f51905f528110156117fa565b50505f905f905f905f90565b5081156117d8565b905f516020611e065f395f51905f528210801590611993575b610c505781158061198b575b611985576119525f516020611e065f395f51905f5260038185818180090908611c26565b81810361196157505060011b90565b5f516020611e065f395f51905f52809106810306145f14610c5057600190811b1790565b50505f90565b50801561192e565b505f516020611e065f395f51905f52811015611922565b919093925f516020611e065f395f51905f528310801590611bc7575b8015611bb0575b8015611b99575b610c50578082868517171715611b8e57908291611af15f516020611e065f395f51905f5280808080888180808f9d7f30644e72e131a029b85045b68181585d97816a916871ca8d3c208c16d87cfd448f839290839109099d8e0981848181800909087f2b149d40ceb8aaae81be18991be06ac3b5b4c5e559dbefa33267e6dc24a138e5089a09818c8181800909087f2fcd3ac2a640a154eb23960892a85a68f031ca0c8344b23a577dcf1052b9e7750806810306945f516020611e065f395f51905f527f183227397098d014dc2822db40c0ac2ecbc0b548b438e5469e10460b6c3e7ea481611acb81808b80098187800908611c26565b8408095f516020611e065f395f51905f52611ae582611d9d565b80091415958691611c49565b929080821480611b85575b15611b235750505050905f14611b1b5760ff60025b169060021b179190565b60ff5f611b11565b5f516020611e065f395f51905f52809106810306149182611b66575b505015610c505760019115611b5e5760ff60025b169060021b17179190565b60ff5f611b53565b5f516020611e065f395f51905f52919250819006810306145f80611b3f565b50838314611afc565b50505090505f905f90565b505f516020611e065f395f51905f528110156119d4565b505f516020611e065f395f51905f528210156119cd565b505f516020611e065f395f51905f528510156119c6565b9080601f8301121561023657604080519290611bfa90846116e4565b82906040810192831161023657905b828210611c165750505090565b8135815260209182019101611c09565b90611c3082611d9d565b915f516020611e065f395f51905f5283800903610c5057565b915f516020611e065f395f51905f527f183227397098d014dc2822db40c0ac2ecbc0b548b438e5469e10460b6c3e7ea481611ca193969496611c9382808a8009818a800908611c26565b90611d91575b860809611c26565b925f516020611e065f395f51905f52600285096040519060208252602080830152602060408301528060608301527f30644e72e131a029b85045b68181585d97816a916871ca8d3c208c16d87cfd4560808301525f516020611e065f395f51905f5260a083015260208260c08160055afa91519115610c50575f516020611e065f395f51905f52826001920903610c50575f516020611e065f395f51905f52908209925f516020611e065f395f51905f528080808780090681030681878009081490811591611d72575b50610c5057565b90505f516020611e065f395f51905f528084860960020914155f611d6b565b81809106810306611c99565b9060405191602083526020808401526020604084015260608301527f0c19139cb84c680a6e14116da060561765e05aa45a1c72a34f082305b61f3f5260808301525f516020611e065f395f51905f5260a083015260208260c08160055afa91519115610c505756fe30644e72e131a029b85045b68181585d97816a916871ca8d3c208c16d87cfd4730644e72e131a029b85045b68181585d2833e84879b9709143e1f593f0000001a2646970667358221220cbbf26a311ec3345a663d7afcbf885cbea1907432a33e8d9d30357dbb104123964736f6c634300081c0033","opcodes":"PUSH1 0x80 DUP1 PUSH1 0x40 MSTORE CALLVALUE PUSH1 0x15 JUMPI PUSH2 0x1E7B SWAP1 DUP2 PUSH2 0x1A DUP3 CODECOPY RETURN JUMPDEST PUSH0 DUP1 REVERT INVALID PUSH1 0x80 DUP1 PUSH1 0x40 MSTORE PUSH1 0x4 CALLDATASIZE LT ISZERO PUSH2 0x12 JUMPI PUSH0 DUP1 REVERT JUMPDEST PUSH0 SWAP1 PUSH0 CALLDATALOAD PUSH1 0xE0 SHR SWAP1 DUP2 PUSH4 0x233ACE11 EQ PUSH2 0x167E JUMPI POP DUP1 PUSH4 0x5D26278E EQ PUSH2 0xC8D JUMPI DUP1 PUSH4 0x60E58346 EQ PUSH2 0x37F JUMPI DUP1 PUSH4 0xB1C3A00E EQ PUSH2 0x26E JUMPI PUSH4 0xB8E72AF6 EQ PUSH2 0x55 JUMPI PUSH0 DUP1 REVERT JUMPDEST CALLVALUE PUSH2 0x236 JUMPI PUSH1 0x40 CALLDATASIZE PUSH1 0x3 NOT ADD SLT PUSH2 0x236 JUMPI PUSH1 0x4 CALLDATALOAD PUSH8 0xFFFFFFFFFFFFFFFF DUP2 GT PUSH2 0x236 JUMPI PUSH2 0x86 SWAP1 CALLDATASIZE SWAP1 PUSH1 0x4 ADD PUSH2 0x16B6 JUMP JUMPDEST PUSH1 0x24 CALLDATALOAD PUSH8 0xFFFFFFFFFFFFFFFF DUP2 GT PUSH2 0x236 JUMPI PUSH2 0xA6 SWAP1 CALLDATASIZE SWAP1 PUSH1 0x4 ADD PUSH2 0x16B6 JUMP JUMPDEST PUSH2 0x100 SWAP4 DUP5 PUSH1 0x40 MLOAD PUSH2 0xB8 DUP3 DUP3 PUSH2 0x16E4 JUMP JUMPDEST CALLDATASIZE SWAP1 CALLDATACOPY PUSH1 0x40 SWAP4 DUP5 DUP1 MLOAD PUSH2 0xCB DUP3 DUP3 PUSH2 0x16E4 JUMP JUMPDEST CALLDATASIZE SWAP1 CALLDATACOPY DUP5 DUP1 MLOAD PUSH2 0xDB DUP3 DUP3 PUSH2 0x16E4 JUMP JUMPDEST CALLDATASIZE SWAP1 CALLDATACOPY DUP2 ADD PUSH2 0x180 DUP3 DUP3 SUB SLT PUSH2 0x236 JUMPI DUP1 PUSH1 0x1F DUP4 ADD SLT ISZERO PUSH2 0x236 JUMPI DUP5 MLOAD SWAP6 PUSH2 0x105 PUSH2 0x100 DUP9 PUSH2 0x16E4 JUMP JUMPDEST DUP3 ADD DUP7 DUP3 DUP3 GT PUSH2 0x236 JUMPI DUP4 SWAP1 JUMPDEST DUP3 DUP3 LT PUSH2 0x25E JUMPI POP POP SWAP1 PUSH2 0x140 PUSH2 0x12C DUP3 PUSH2 0x133 SWAP5 PUSH2 0x1BDE JUMP JUMPDEST SWAP4 ADD PUSH2 0x1BDE JUMP JUMPDEST SWAP2 PUSH2 0x120 SWAP1 DUP2 DUP7 MLOAD PUSH2 0x145 DUP3 DUP3 PUSH2 0x16E4 JUMP JUMPDEST CALLDATASIZE SWAP1 CALLDATACOPY DUP5 ADD SWAP1 DUP1 DUP6 DUP4 SUB SLT PUSH2 0x236 JUMPI DUP2 PUSH1 0x1F DUP7 ADD SLT ISZERO PUSH2 0x236 JUMPI DUP6 MLOAD SWAP5 PUSH2 0x16E PUSH2 0x120 DUP8 PUSH2 0x16E4 JUMP JUMPDEST DUP6 SWAP2 DUP2 ADD SWAP3 DUP4 GT PUSH2 0x236 JUMPI SWAP1 JUMPDEST DUP3 DUP3 LT PUSH2 0x23A JUMPI POP POP POP ADDRESS EXTCODESIZE ISZERO PUSH2 0x236 JUMPI DUP4 MLOAD PUSH4 0x3072C1A3 PUSH1 0xE1 SHL DUP2 MSTORE SWAP5 PUSH0 PUSH1 0x4 DUP8 ADD JUMPDEST PUSH1 0x8 DUP3 LT PUSH2 0x220 JUMPI POP POP POP SWAP1 PUSH2 0x1BD PUSH2 0x1C8 SWAP3 PUSH2 0x104 DUP8 ADD SWAP1 PUSH2 0x173E JUMP JUMPDEST PUSH2 0x144 DUP6 ADD SWAP1 PUSH2 0x173E JUMP JUMPDEST PUSH0 PUSH2 0x184 DUP5 ADD JUMPDEST PUSH1 0x9 DUP3 LT PUSH2 0x20A JUMPI POP POP POP PUSH0 DUP3 PUSH2 0x2A4 DUP2 ADDRESS GAS STATICCALL SWAP1 DUP2 ISZERO PUSH2 0x201 JUMPI POP PUSH2 0x1F3 JUMPI POP DUP1 RETURN JUMPDEST PUSH2 0x1FF SWAP2 POP PUSH0 SWAP1 PUSH2 0x16E4 JUMP JUMPDEST STOP JUMPDEST MLOAD RETURNDATASIZE PUSH0 DUP3 RETURNDATACOPY RETURNDATASIZE SWAP1 REVERT JUMPDEST PUSH1 0x20 DUP1 PUSH1 0x1 SWAP3 DUP6 MLOAD DUP2 MSTORE ADD SWAP4 ADD SWAP2 ADD SWAP1 SWAP2 PUSH2 0x1CF JUMP JUMPDEST PUSH1 0x20 DUP1 PUSH1 0x1 SWAP3 DUP6 MLOAD DUP2 MSTORE ADD SWAP4 ADD SWAP2 ADD SWAP1 SWAP2 PUSH2 0x19F JUMP JUMPDEST PUSH0 DUP1 REVERT JUMPDEST DUP2 CALLDATALOAD DUP2 MSTORE PUSH1 0x20 SWAP2 DUP3 ADD SWAP2 ADD PUSH2 0x17B JUMP JUMPDEST PUSH4 0x4E487B71 PUSH1 0xE0 SHL PUSH0 MSTORE PUSH1 0x41 PUSH1 0x4 MSTORE PUSH1 0x24 PUSH0 REVERT JUMPDEST DUP2 CALLDATALOAD DUP2 MSTORE PUSH1 0x20 SWAP2 DUP3 ADD SWAP2 ADD PUSH2 0x112 JUMP JUMPDEST CALLVALUE PUSH2 0x236 JUMPI PUSH2 0x180 CALLDATASIZE PUSH1 0x3 NOT ADD SLT PUSH2 0x236 JUMPI CALLDATASIZE PUSH2 0x104 GT PUSH2 0x236 JUMPI CALLDATASIZE PUSH2 0x144 GT PUSH2 0x236 JUMPI CALLDATASIZE PUSH2 0x184 GT PUSH2 0x236 JUMPI PUSH1 0x40 MLOAD PUSH2 0x2A9 PUSH1 0x80 DUP3 PUSH2 0x16E4 JUMP JUMPDEST PUSH1 0x80 CALLDATASIZE DUP3 CALLDATACOPY PUSH1 0x40 MLOAD SWAP1 PUSH1 0x20 PUSH2 0x2BE DUP2 DUP5 PUSH2 0x16E4 JUMP JUMPDEST DUP1 CALLDATASIZE DUP5 CALLDATACOPY PUSH2 0x2D0 PUSH1 0x24 CALLDATALOAD PUSH1 0x4 CALLDATALOAD PUSH2 0x1909 JUMP JUMPDEST DUP3 MSTORE PUSH2 0x2E6 PUSH1 0x84 CALLDATALOAD PUSH1 0xA4 CALLDATALOAD PUSH1 0x44 CALLDATALOAD PUSH1 0x64 CALLDATALOAD PUSH2 0x19AA JUMP JUMPDEST DUP3 DUP5 ADD MSTORE PUSH1 0x40 DUP4 ADD MSTORE PUSH2 0x2FD PUSH1 0xE4 CALLDATALOAD PUSH1 0xC4 CALLDATALOAD PUSH2 0x1909 JUMP JUMPDEST PUSH1 0x60 DUP4 ADD MSTORE PUSH2 0x312 PUSH2 0x124 CALLDATALOAD PUSH2 0x104 CALLDATALOAD PUSH2 0x1909 JUMP JUMPDEST DUP4 MSTORE PUSH2 0x324 PUSH2 0x164 CALLDATALOAD PUSH2 0x144 CALLDATALOAD PUSH2 0x1909 JUMP JUMPDEST SWAP1 PUSH1 0x40 MLOAD SWAP3 DUP4 PUSH0 SWAP1 JUMPDEST PUSH1 0x4 DUP3 LT PUSH2 0x369 JUMPI POP POP POP PUSH1 0x80 DUP4 ADD SWAP4 SWAP1 PUSH0 SWAP5 JUMPDEST PUSH1 0x1 DUP7 LT PUSH2 0x354 JUMPI PUSH1 0xC0 DUP6 DUP6 PUSH1 0xA0 DUP3 ADD MSTORE RETURN JUMPDEST DUP2 DUP1 PUSH1 0x1 SWAP3 DUP6 MLOAD DUP2 MSTORE ADD SWAP4 ADD SWAP6 ADD SWAP5 SWAP2 PUSH2 0x341 JUMP JUMPDEST DUP3 MLOAD DUP2 MSTORE SWAP2 DUP4 ADD SWAP2 PUSH1 0x1 SWAP2 SWAP1 SWAP2 ADD SWAP1 DUP4 ADD PUSH2 0x32D JUMP JUMPDEST CALLVALUE PUSH2 0x236 JUMPI PUSH2 0x2A0 CALLDATASIZE PUSH1 0x3 NOT ADD SLT PUSH2 0x236 JUMPI CALLDATASIZE PUSH2 0x104 GT PUSH2 0x236 JUMPI CALLDATASIZE PUSH2 0x144 GT PUSH2 0x236 JUMPI CALLDATASIZE PUSH2 0x184 GT PUSH2 0x236 JUMPI CALLDATASIZE PUSH2 0x2A4 GT PUSH2 0x236 JUMPI PUSH1 0x40 MLOAD PUSH1 0x20 PUSH2 0x3C4 DUP2 DUP4 PUSH2 0x16E4 JUMP JUMPDEST DUP1 CALLDATASIZE DUP4 CALLDATACOPY PUSH0 MLOAD PUSH1 0x20 PUSH2 0x1E26 PUSH0 CODECOPY PUSH0 MLOAD SWAP1 PUSH0 MSTORE PUSH1 0x40 MLOAD DUP3 DUP2 ADD SWAP1 PUSH2 0x400 DUP2 PUSH2 0x3F2 PUSH2 0x124 CALLDATALOAD PUSH2 0x104 CALLDATALOAD DUP7 PUSH2 0x1706 JUMP JUMPDEST SUB PUSH1 0x1F NOT DUP2 ADD DUP4 MSTORE DUP3 PUSH2 0x16E4 JUMP JUMPDEST MLOAD SWAP1 KECCAK256 MOD DUP3 MSTORE PUSH1 0x40 MLOAD PUSH1 0x40 PUSH2 0x104 DUP3 CALLDATACOPY PUSH32 0x222A11E5A1FA455473A7D8EE37037B7360F26184362F37931965F306F9FB02A4 PUSH1 0x40 DUP3 ADD MSTORE PUSH32 0x2C3841A672FD7EBD288FFC216ED99F9F948602CC2B598B060A2C5C38051B249B PUSH1 0x60 DUP3 ADD MSTORE PUSH32 0x20A4FAAF8EDD4F1CA3A79FDC4549AA3DE0497ADC3277B662AA02231CD31B70C2 PUSH1 0x80 DUP3 ADD MSTORE PUSH32 0x254EDDB67C04DE0E884152DB574A42FA772EF20F18EE78C53F80FD77C0147397 PUSH1 0xA0 DUP3 ADD MSTORE PUSH1 0x40 PUSH2 0x144 PUSH1 0xC0 DUP4 ADD CALLDATACOPY PUSH32 0x1197EEE61CC440C73EFB850B21936D39424F00466970E4312C8610A25B2D1BB9 PUSH2 0x100 DUP3 ADD MSTORE PUSH32 0x2F58382774FD44CD86350EC4739AC86A4C88C25D389629D7CDF1F4D238D8400A PUSH2 0x120 DUP3 ADD MSTORE PUSH32 0x1EF12D9C41366F9E89041C590AD60025322C377A17FBD52A6042E39CE3B6E983 PUSH2 0x140 DUP3 ADD MSTORE PUSH32 0x222EA6108D7D4DBC652743EBAB55FA4CBA8EC4313889097AA749C4FE94226CBB PUSH2 0x160 DUP3 ADD MSTORE DUP2 DUP2 PUSH2 0x180 DUP2 PUSH1 0x8 GAS STATICCALL SWAP1 MLOAD AND ISZERO PUSH2 0xC7E JUMPI PUSH1 0x40 DUP1 MLOAD SWAP3 SWAP1 PUSH2 0x570 SWAP1 DUP5 PUSH2 0x16E4 JUMP JUMPDEST PUSH2 0x104 DUP3 DUP5 JUMPDEST PUSH2 0x144 DUP4 LT PUSH2 0xC6E JUMPI POP POP POP PUSH1 0x40 MLOAD SWAP1 PUSH1 0x40 DUP3 ADD PUSH32 0x2B11D2AAD66B2E5DE7BC5C32DEA8D7C6E6F61B91FE0274879914FBA5B9A4FA2E DUP4 MSTORE PUSH0 MLOAD PUSH1 0x20 PUSH2 0x1E26 PUSH0 CODECOPY PUSH0 MLOAD SWAP1 PUSH0 MSTORE PUSH1 0x40 DUP6 DUP1 DUP7 ADD SWAP8 PUSH32 0x85ED1F31AEE200E0E4FE1F2E4DCE72625A6A0F443FAB336AC52D36288D94FC8 DUP10 MSTORE DUP1 MLOAD DUP6 MSTORE ADD MLOAD SWAP3 PUSH1 0x60 DUP7 ADD SWAP4 DUP5 MSTORE DUP2 DUP7 PUSH1 0x80 DUP2 PUSH1 0x6 GAS STATICCALL SWAP5 PUSH32 0x22BC9D1BD5BD55BA95B4705EF3915F3AE54F106CC341D68FA3D8DDB1413C7196 DUP3 MSTORE PUSH32 0x57CC358F348D3D428B2ED1F7597D5AC6270964C04292F938BF2881768B12988 DUP6 MSTORE PUSH32 0x2E6D4B0D9931EAB376671EE5C9E8956A92E71EE9DB8A8E7A28CB24E73C8B8A72 PUSH1 0x1 PUSH2 0x184 CALLDATALOAD PUSH1 0x80 DUP11 ADD SWAP9 DUP2 DUP11 MSTORE DUP8 DUP8 DUP8 PUSH1 0x60 DUP2 PUSH1 0x7 GAS STATICCALL SWAP3 LT AND AND DUP6 DUP11 PUSH1 0x80 DUP2 PUSH1 0x6 GAS STATICCALL AND AND PUSH32 0xC44FBF8A54D7E1BE9DCCEC9C0055E5CB443543559D01141F0C2FC1B24BDDFC9 DUP5 MSTORE PUSH32 0x2625162083823A129368B22F4976EE21BA246283F409CCA35147A0DAA082A9DC DUP8 MSTORE PUSH2 0x1A4 CALLDATALOAD SWAP1 DUP2 DUP10 MSTORE DUP7 DUP7 DUP7 PUSH1 0x60 DUP2 PUSH1 0x7 GAS STATICCALL SWAP3 LT AND AND DUP5 DUP10 PUSH1 0x80 DUP2 PUSH1 0x6 GAS STATICCALL AND PUSH32 0x2D817D224DBA2CA8AE799A71FD04D3EAE7E317C4716064126E78EADF1BDDC193 DUP5 MSTORE PUSH32 0x7360180B1E6209C27E0F0AB9AAF8A1CFC82B580CCBA300159CCECA7E1E0435A DUP8 MSTORE PUSH2 0x1C4 CALLDATALOAD SWAP1 DUP2 DUP10 MSTORE DUP7 DUP7 DUP7 PUSH1 0x60 DUP2 PUSH1 0x7 GAS STATICCALL SWAP3 LT AND AND DUP5 DUP10 PUSH1 0x80 DUP2 PUSH1 0x6 GAS STATICCALL AND PUSH32 0x84D7C3A02F36DA14BB43C7F6A2496D526BBD8022CFC93CDD60DDA08414137B4 DUP5 MSTORE PUSH32 0x2C052811F54CEE8F3D1E678D0830C59725B92D18E1A78008789335FC04B42C72 DUP8 MSTORE PUSH2 0x1E4 CALLDATALOAD SWAP1 DUP2 DUP10 MSTORE DUP7 DUP7 DUP7 PUSH1 0x60 DUP2 PUSH1 0x7 GAS STATICCALL SWAP3 LT AND AND DUP5 DUP10 PUSH1 0x80 DUP2 PUSH1 0x6 GAS STATICCALL AND PUSH32 0x1C000ED078E0E50FB92CDDC5C7F63F795B7930AD01C4E0FAC6977602311B2A6 DUP5 MSTORE PUSH32 0x12661B14B3517A2037010A4E59B62EFA6C7665A279D90C7F2162C27AE30B2837 DUP8 MSTORE PUSH2 0x204 CALLDATALOAD SWAP1 DUP2 DUP10 MSTORE DUP7 DUP7 DUP7 PUSH1 0x60 DUP2 PUSH1 0x7 GAS STATICCALL SWAP3 LT AND AND DUP5 DUP10 PUSH1 0x80 DUP2 PUSH1 0x6 GAS STATICCALL AND PUSH32 0x1930F6E6C400E96EAF3FD146D05CE4189EA36A77DFD20895ECD05E1AA590D6E2 DUP5 MSTORE PUSH32 0x2555538E1BB4D818D6E2C3F37440F2114172E879B1FEABB026F3F5EED9A614D3 DUP8 MSTORE PUSH2 0x224 CALLDATALOAD SWAP1 DUP2 DUP10 MSTORE DUP7 DUP7 DUP7 PUSH1 0x60 DUP2 PUSH1 0x7 GAS STATICCALL SWAP3 LT AND AND DUP5 DUP10 PUSH1 0x80 DUP2 PUSH1 0x6 GAS STATICCALL AND PUSH32 0x52CECD0A6C307D8FA3C1C4E093B30AA79CD8753BB7B6AD569E803E203111983 DUP5 MSTORE PUSH32 0x158C8E0E1754B73C255823B606690F73F5204AF05A24CBD300CABF4091559CA0 DUP8 MSTORE PUSH2 0x244 CALLDATALOAD SWAP1 DUP2 DUP10 MSTORE DUP7 DUP7 DUP7 PUSH1 0x60 DUP2 PUSH1 0x7 GAS STATICCALL SWAP3 LT AND AND DUP5 DUP10 PUSH1 0x80 DUP2 PUSH1 0x6 GAS STATICCALL AND PUSH32 0x2169DFCFC704758CE2EEDC72026F89E2500534C97CB451252CAF3DA17AA7B26B DUP5 MSTORE PUSH32 0x2524C400945827A371220BEDEA45CEB55F78F9E0253FBE19C396B55793B7A555 DUP8 MSTORE PUSH2 0x264 CALLDATALOAD SWAP1 DUP2 DUP10 MSTORE DUP7 DUP7 DUP7 PUSH1 0x60 DUP2 PUSH1 0x7 GAS STATICCALL SWAP3 LT AND AND DUP5 DUP10 PUSH1 0x80 DUP2 PUSH1 0x6 GAS STATICCALL AND PUSH32 0x25DD3501E409E81E21DC8BB9B8B19422403525555179DB5C3EB57E0B7AD2EBA2 DUP5 MSTORE PUSH32 0x1771134D12EF003C358932C33B3B191F89E04E1307A3181C5415B490AFCFE0EE DUP8 MSTORE PUSH2 0x284 CALLDATALOAD SWAP1 DUP2 DUP10 MSTORE DUP7 DUP7 DUP7 PUSH1 0x60 DUP2 PUSH1 0x7 GAS STATICCALL SWAP3 LT AND AND DUP5 DUP10 PUSH1 0x80 DUP2 PUSH1 0x6 GAS STATICCALL AND SWAP6 PUSH32 0x131592A6DA4B7DD846D1E4315E44B4E0C23E5C032F60C4A94825B4FD2292EC57 DUP5 MSTORE MSTORE MLOAD DUP1 SWAP6 MSTORE PUSH1 0x60 DUP2 PUSH1 0x7 GAS STATICCALL SWAP3 LT AND AND PUSH1 0x40 DUP3 PUSH1 0x80 DUP2 PUSH1 0x6 GAS STATICCALL AND SWAP1 MLOAD SWAP3 MLOAD SWAP1 ISZERO PUSH2 0xC5F JUMPI PUSH1 0x40 MLOAD SWAP3 PUSH2 0x100 PUSH1 0x4 DUP6 CALLDATACOPY PUSH32 0x130A3B67F543DEDA846445D6230F06DBCC4FC9230D34F91A4B1FAAD0EFE61A8A PUSH2 0x100 DUP6 ADD MSTORE PUSH32 0x10E55A50C7B08A64E18B7BDE27EC4110FE7FB12202121E6FF101944C87533714 PUSH2 0x120 DUP6 ADD MSTORE PUSH32 0x27BCA9FE60D54B8DA5015075996A8C1809D5147158087F42E6B066A1141F5177 PUSH2 0x140 DUP6 ADD MSTORE PUSH32 0x1B75EFFAED932252E6501D6431F3903CD63E860385D61A30A674AF708BB97661 PUSH2 0x160 DUP6 ADD MSTORE PUSH32 0xE414CA47ED0D06CEA28BB089A5C55A8F2B279595F96720BFDDCDAA56719EDDA PUSH2 0x180 DUP6 ADD MSTORE PUSH32 0xB60DC69B88F82C08F96B4CFA6B9A2529850F6DD7C665CAEE80756132E412BF4 PUSH2 0x1A0 DUP6 ADD MSTORE PUSH32 0xB5CBE03D20F03E13C4091FBCDDCE607C89CE811700287E0CE57F7BF7673C971 PUSH2 0x1C0 DUP6 ADD MSTORE PUSH32 0x217B18ACF2565725C2CA9DA0ED7D01D58E4D7755CC0D65E2DF8BE4308782291F PUSH2 0x1E0 DUP6 ADD MSTORE PUSH32 0xE39B086089C4A1BD56A58C895756919EDABD8A5DB92C37D0820C45F1D740450 PUSH2 0x200 DUP6 ADD MSTORE PUSH32 0x22AC99990AD6874151104F5CEB45277F14C37B1C62EF0396E5C76B9378D740CC PUSH2 0x220 DUP6 ADD MSTORE PUSH2 0x240 DUP5 ADD MSTORE PUSH2 0x260 DUP4 ADD MSTORE PUSH32 0x50B4460D2B42DB249C2A912DAA47CDBD1A63D9D3F802869ABA28520D98AAA34 PUSH2 0x280 DUP4 ADD MSTORE PUSH32 0x2CC154A7A501FB364878767578B3E84476FB3B15E1E4F1F36C41E6E3C4A4F006 PUSH2 0x2A0 DUP4 ADD MSTORE PUSH32 0x21624C1C2E20436E57F00C869B4F4AAE66E8F16607B9027306B9ABD91BAB715 PUSH2 0x2C0 DUP4 ADD MSTORE PUSH32 0x253DFFDC41BEB8CB4A01C3068DC7A60501047D6003FEF6F81A418F3DD70AE7BF PUSH2 0x2E0 DUP4 ADD MSTORE DUP2 PUSH2 0x300 DUP2 PUSH1 0x8 GAS STATICCALL SWAP1 MLOAD AND ISZERO PUSH2 0xC50 JUMPI STOP JUMPDEST PUSH4 0x1FF3747D PUSH1 0xE2 SHL PUSH0 MSTORE PUSH1 0x4 PUSH0 REVERT JUMPDEST PUSH4 0xA54F8E27 PUSH1 0xE0 SHL PUSH0 MSTORE PUSH1 0x4 PUSH0 REVERT JUMPDEST DUP3 CALLDATALOAD DUP2 MSTORE SWAP2 DUP2 ADD SWAP2 DUP5 SWAP2 ADD PUSH2 0x576 JUMP JUMPDEST PUSH4 0x51D49FF7 PUSH1 0xE1 SHL PUSH0 MSTORE PUSH1 0x4 PUSH0 REVERT JUMPDEST CALLVALUE PUSH2 0x236 JUMPI PUSH2 0x1E0 CALLDATASIZE PUSH1 0x3 NOT ADD SLT PUSH2 0x236 JUMPI CALLDATASIZE PUSH1 0x84 GT PUSH2 0x236 JUMPI CALLDATASIZE PUSH1 0xA4 GT PUSH2 0x236 JUMPI CALLDATASIZE PUSH2 0x1E4 GT PUSH2 0x236 JUMPI PUSH1 0x40 MLOAD PUSH1 0x20 PUSH2 0xCC7 DUP2 DUP4 PUSH2 0x16E4 JUMP JUMPDEST DUP1 CALLDATASIZE DUP4 CALLDATACOPY PUSH1 0x40 DUP1 MLOAD SWAP1 PUSH2 0xCDA DUP2 DUP4 PUSH2 0x16E4 JUMP JUMPDEST DUP1 CALLDATASIZE DUP4 CALLDATACOPY PUSH2 0x300 SWAP4 DUP2 MLOAD SWAP3 PUSH2 0xCEF DUP7 DUP6 PUSH2 0x16E4 JUMP JUMPDEST DUP6 CALLDATASIZE DUP6 CALLDATACOPY PUSH2 0xCFE PUSH1 0x84 CALLDATALOAD PUSH2 0x1765 JUMP JUMPDEST DUP7 DUP4 ADD MSTORE DUP2 MSTORE PUSH2 0xD0F PUSH1 0xA4 CALLDATALOAD PUSH2 0x1765 JUMP JUMPDEST SWAP1 PUSH0 MLOAD PUSH1 0x20 PUSH2 0x1E26 PUSH0 CODECOPY PUSH0 MLOAD SWAP1 PUSH0 MSTORE DUP4 MLOAD PUSH2 0x3F2 PUSH2 0xD39 DUP11 DUP8 ADD MLOAD DUP10 MLOAD SWAP3 DUP4 SWAP2 DUP14 DUP4 ADD SWAP6 DUP7 PUSH2 0x1706 JUMP JUMPDEST MLOAD SWAP1 KECCAK256 MOD DUP5 MSTORE DUP3 MLOAD DUP7 MSTORE DUP7 DUP4 ADD MLOAD DUP8 DUP8 ADD MSTORE PUSH32 0x222A11E5A1FA455473A7D8EE37037B7360F26184362F37931965F306F9FB02A4 DUP6 DUP8 ADD MSTORE PUSH32 0x2C3841A672FD7EBD288FFC216ED99F9F948602CC2B598B060A2C5C38051B249B PUSH1 0x60 DUP8 ADD MSTORE PUSH32 0x20A4FAAF8EDD4F1CA3A79FDC4549AA3DE0497ADC3277B662AA02231CD31B70C2 PUSH1 0x80 DUP8 ADD MSTORE PUSH32 0x254EDDB67C04DE0E884152DB574A42FA772EF20F18EE78C53F80FD77C0147397 PUSH1 0xA0 DUP8 ADD MSTORE PUSH1 0xC0 DUP7 ADD MSTORE PUSH1 0xE0 DUP6 ADD MSTORE PUSH32 0x1197EEE61CC440C73EFB850B21936D39424F00466970E4312C8610A25B2D1BB9 PUSH2 0x100 DUP6 ADD MSTORE PUSH32 0x2F58382774FD44CD86350EC4739AC86A4C88C25D389629D7CDF1F4D238D8400A PUSH2 0x120 DUP6 ADD MSTORE PUSH32 0x1EF12D9C41366F9E89041C590AD60025322C377A17FBD52A6042E39CE3B6E983 PUSH2 0x140 DUP6 ADD MSTORE PUSH32 0x222EA6108D7D4DBC652743EBAB55FA4CBA8EC4313889097AA749C4FE94226CBB PUSH2 0x160 DUP6 ADD MSTORE DUP3 MLOAD DUP6 DUP2 PUSH2 0x180 DUP8 PUSH1 0x8 GAS STATICCALL SWAP1 MLOAD AND ISZERO PUSH2 0xC7E JUMPI DUP5 SWAP1 PUSH2 0xEA9 PUSH1 0x4 CALLDATALOAD PUSH2 0x1765 JUMP JUMPDEST PUSH2 0xEBA PUSH1 0x24 SWAP6 SWAP3 SWAP6 CALLDATALOAD PUSH1 0x44 CALLDATALOAD PUSH2 0x17D0 JUMP JUMPDEST SWAP3 SWAP2 SWAP1 SWAP4 DUP10 PUSH2 0xECA PUSH1 0x64 CALLDATALOAD PUSH2 0x1765 JUMP JUMPDEST SWAP9 SWAP1 SWAP8 PUSH32 0x2E6D4B0D9931EAB376671EE5C9E8956A92E71EE9DB8A8E7A28CB24E73C8B8A72 DUP4 MLOAD SWAP12 DUP13 SWAP4 PUSH32 0x2B11D2AAD66B2E5DE7BC5C32DEA8D7C6E6F61B91FE0274879914FBA5B9A4FA2E DUP6 MSTORE PUSH32 0x85ED1F31AEE200E0E4FE1F2E4DCE72625A6A0F443FAB336AC52D36288D94FC8 DUP3 DUP7 ADD MSTORE DUP1 MLOAD DUP7 DUP7 ADD MSTORE ADD MLOAD PUSH1 0x60 DUP5 ADD SWAP1 DUP2 MSTORE PUSH32 0x131592A6DA4B7DD846D1E4315E44B4E0C23E5C032F60C4A94825B4FD2292EC57 DUP6 DUP6 PUSH1 0x80 DUP2 PUSH1 0x6 GAS STATICCALL SWAP6 PUSH32 0x22BC9D1BD5BD55BA95B4705EF3915F3AE54F106CC341D68FA3D8DDB1413C7196 DUP2 DUP8 ADD MSTORE PUSH32 0x57CC358F348D3D428B2ED1F7597D5AC6270964C04292F938BF2881768B12988 DUP4 MSTORE PUSH1 0x1 PUSH1 0xC4 CALLDATALOAD PUSH1 0x80 DUP9 ADD SWAP9 DUP2 DUP11 MSTORE PUSH0 MLOAD PUSH1 0x20 PUSH2 0x1E26 PUSH0 CODECOPY PUSH0 MLOAD SWAP1 PUSH0 MSTORE DUP5 DUP1 DUP12 ADD PUSH1 0x60 DUP3 DUP14 ADD PUSH1 0x7 GAS STATICCALL SWAP3 LT AND AND DUP3 DUP9 PUSH1 0x80 DUP2 PUSH1 0x6 GAS STATICCALL AND AND PUSH32 0xC44FBF8A54D7E1BE9DCCEC9C0055E5CB443543559D01141F0C2FC1B24BDDFC9 DUP3 DUP9 ADD MSTORE PUSH32 0x2625162083823A129368B22F4976EE21BA246283F409CCA35147A0DAA082A9DC DUP5 MSTORE PUSH1 0xE4 CALLDATALOAD SWAP1 DUP2 DUP10 MSTORE PUSH0 MLOAD PUSH1 0x20 PUSH2 0x1E26 PUSH0 CODECOPY PUSH0 MLOAD SWAP1 PUSH0 MSTORE DUP4 DUP1 DUP11 ADD PUSH1 0x60 DUP3 DUP13 ADD PUSH1 0x7 GAS STATICCALL SWAP3 LT AND AND DUP2 DUP8 PUSH1 0x80 DUP2 PUSH1 0x6 GAS STATICCALL AND PUSH32 0x2D817D224DBA2CA8AE799A71FD04D3EAE7E317C4716064126E78EADF1BDDC193 DUP3 DUP9 ADD MSTORE PUSH32 0x7360180B1E6209C27E0F0AB9AAF8A1CFC82B580CCBA300159CCECA7E1E0435A DUP5 MSTORE PUSH2 0x104 CALLDATALOAD SWAP1 DUP2 DUP10 MSTORE PUSH0 MLOAD PUSH1 0x20 PUSH2 0x1E26 PUSH0 CODECOPY PUSH0 MLOAD SWAP1 PUSH0 MSTORE DUP4 DUP1 DUP11 ADD PUSH1 0x60 DUP3 DUP13 ADD PUSH1 0x7 GAS STATICCALL SWAP3 LT AND AND DUP2 DUP8 PUSH1 0x80 DUP2 PUSH1 0x6 GAS STATICCALL AND PUSH32 0x84D7C3A02F36DA14BB43C7F6A2496D526BBD8022CFC93CDD60DDA08414137B4 DUP3 DUP9 ADD MSTORE PUSH32 0x2C052811F54CEE8F3D1E678D0830C59725B92D18E1A78008789335FC04B42C72 DUP5 MSTORE PUSH2 0x124 CALLDATALOAD SWAP1 DUP2 DUP10 MSTORE PUSH0 MLOAD PUSH1 0x20 PUSH2 0x1E26 PUSH0 CODECOPY PUSH0 MLOAD SWAP1 PUSH0 MSTORE DUP4 DUP1 DUP11 ADD PUSH1 0x60 DUP3 DUP13 ADD PUSH1 0x7 GAS STATICCALL SWAP3 LT AND AND DUP2 DUP8 PUSH1 0x80 DUP2 PUSH1 0x6 GAS STATICCALL AND PUSH32 0x1C000ED078E0E50FB92CDDC5C7F63F795B7930AD01C4E0FAC6977602311B2A6 DUP3 DUP9 ADD MSTORE PUSH32 0x12661B14B3517A2037010A4E59B62EFA6C7665A279D90C7F2162C27AE30B2837 DUP5 MSTORE PUSH2 0x144 CALLDATALOAD SWAP1 DUP2 DUP10 MSTORE PUSH0 MLOAD PUSH1 0x20 PUSH2 0x1E26 PUSH0 CODECOPY PUSH0 MLOAD SWAP1 PUSH0 MSTORE DUP4 DUP1 DUP11 ADD PUSH1 0x60 DUP3 DUP13 ADD PUSH1 0x7 GAS STATICCALL SWAP3 LT AND AND DUP2 DUP8 PUSH1 0x80 DUP2 PUSH1 0x6 GAS STATICCALL AND PUSH32 0x1930F6E6C400E96EAF3FD146D05CE4189EA36A77DFD20895ECD05E1AA590D6E2 DUP3 DUP9 ADD MSTORE PUSH32 0x2555538E1BB4D818D6E2C3F37440F2114172E879B1FEABB026F3F5EED9A614D3 DUP5 MSTORE PUSH2 0x164 CALLDATALOAD SWAP1 DUP2 DUP10 MSTORE PUSH0 MLOAD PUSH1 0x20 PUSH2 0x1E26 PUSH0 CODECOPY PUSH0 MLOAD SWAP1 PUSH0 MSTORE DUP4 DUP1 DUP11 ADD PUSH1 0x60 DUP3 DUP13 ADD PUSH1 0x7 GAS STATICCALL SWAP3 LT AND AND DUP2 DUP8 PUSH1 0x80 DUP2 PUSH1 0x6 GAS STATICCALL AND PUSH32 0x52CECD0A6C307D8FA3C1C4E093B30AA79CD8753BB7B6AD569E803E203111983 DUP3 DUP9 ADD MSTORE PUSH32 0x158C8E0E1754B73C255823B606690F73F5204AF05A24CBD300CABF4091559CA0 DUP5 MSTORE PUSH2 0x184 CALLDATALOAD SWAP1 DUP2 DUP10 MSTORE PUSH0 MLOAD PUSH1 0x20 PUSH2 0x1E26 PUSH0 CODECOPY PUSH0 MLOAD SWAP1 PUSH0 MSTORE DUP4 DUP1 DUP11 ADD PUSH1 0x60 DUP3 DUP13 ADD PUSH1 0x7 GAS STATICCALL SWAP3 LT AND AND DUP2 DUP8 PUSH1 0x80 DUP2 PUSH1 0x6 GAS STATICCALL AND PUSH32 0x2169DFCFC704758CE2EEDC72026F89E2500534C97CB451252CAF3DA17AA7B26B DUP3 DUP9 ADD MSTORE PUSH32 0x2524C400945827A371220BEDEA45CEB55F78F9E0253FBE19C396B55793B7A555 DUP5 MSTORE PUSH2 0x1A4 CALLDATALOAD SWAP1 DUP2 DUP10 MSTORE PUSH0 MLOAD PUSH1 0x20 PUSH2 0x1E26 PUSH0 CODECOPY PUSH0 MLOAD SWAP1 PUSH0 MSTORE DUP4 DUP1 DUP11 ADD PUSH1 0x60 DUP3 DUP13 ADD PUSH1 0x7 GAS STATICCALL SWAP3 LT AND AND DUP2 DUP8 PUSH1 0x80 DUP2 PUSH1 0x6 GAS STATICCALL AND PUSH32 0x25DD3501E409E81E21DC8BB9B8B19422403525555179DB5C3EB57E0B7AD2EBA2 DUP3 DUP9 ADD MSTORE PUSH32 0x1771134D12EF003C358932C33B3B191F89E04E1307A3181C5415B490AFCFE0EE DUP5 MSTORE PUSH2 0x1C4 CALLDATALOAD SWAP1 DUP2 DUP10 MSTORE PUSH0 MLOAD PUSH1 0x20 PUSH2 0x1E26 PUSH0 CODECOPY PUSH0 MLOAD SWAP1 PUSH0 MSTORE DUP4 DUP1 DUP11 ADD PUSH1 0x60 DUP3 DUP13 ADD PUSH1 0x7 GAS STATICCALL SWAP3 LT AND AND DUP2 DUP8 PUSH1 0x80 DUP2 PUSH1 0x6 GAS STATICCALL AND SWAP6 ADD MSTORE MSTORE MLOAD DUP1 SWAP3 MSTORE PUSH0 MLOAD PUSH1 0x20 PUSH2 0x1E26 PUSH0 CODECOPY PUSH0 MLOAD SWAP1 PUSH0 MSTORE DUP13 DUP12 PUSH1 0x60 DUP3 DUP1 DUP4 ADD SWAP3 ADD PUSH1 0x7 GAS STATICCALL SWAP3 LT AND AND DUP11 DUP10 PUSH1 0x80 DUP2 PUSH1 0x6 GAS STATICCALL AND SWAP9 DUP13 DUP10 MLOAD SWAP10 ADD MLOAD SWAP10 ISZERO PUSH2 0xC5F JUMPI DUP12 MSTORE DUP12 DUP12 ADD MSTORE DUP9 DUP11 ADD MSTORE PUSH1 0x60 DUP10 ADD MSTORE PUSH1 0x80 DUP9 ADD MSTORE PUSH1 0xA0 DUP8 ADD MSTORE PUSH1 0xC0 DUP7 ADD MSTORE PUSH1 0xE0 DUP6 ADD MSTORE PUSH32 0x130A3B67F543DEDA846445D6230F06DBCC4FC9230D34F91A4B1FAAD0EFE61A8A PUSH2 0x100 DUP6 ADD MSTORE PUSH32 0x10E55A50C7B08A64E18B7BDE27EC4110FE7FB12202121E6FF101944C87533714 PUSH2 0x120 DUP6 ADD MSTORE PUSH32 0x27BCA9FE60D54B8DA5015075996A8C1809D5147158087F42E6B066A1141F5177 PUSH2 0x140 DUP6 ADD MSTORE PUSH32 0x1B75EFFAED932252E6501D6431F3903CD63E860385D61A30A674AF708BB97661 PUSH2 0x160 DUP6 ADD MSTORE PUSH32 0xE414CA47ED0D06CEA28BB089A5C55A8F2B279595F96720BFDDCDAA56719EDDA PUSH2 0x180 DUP6 ADD MSTORE PUSH32 0xB60DC69B88F82C08F96B4CFA6B9A2529850F6DD7C665CAEE80756132E412BF4 PUSH2 0x1A0 DUP6 ADD MSTORE PUSH32 0xB5CBE03D20F03E13C4091FBCDDCE607C89CE811700287E0CE57F7BF7673C971 PUSH2 0x1C0 DUP6 ADD MSTORE PUSH32 0x217B18ACF2565725C2CA9DA0ED7D01D58E4D7755CC0D65E2DF8BE4308782291F PUSH2 0x1E0 DUP6 ADD MSTORE PUSH32 0xE39B086089C4A1BD56A58C895756919EDABD8A5DB92C37D0820C45F1D740450 PUSH2 0x200 DUP6 ADD MSTORE PUSH32 0x22AC99990AD6874151104F5CEB45277F14C37B1C62EF0396E5C76B9378D740CC PUSH2 0x220 DUP6 ADD MSTORE PUSH2 0x240 DUP5 ADD MSTORE PUSH2 0x260 DUP4 ADD MSTORE PUSH32 0x50B4460D2B42DB249C2A912DAA47CDBD1A63D9D3F802869ABA28520D98AAA34 PUSH2 0x280 DUP4 ADD MSTORE PUSH32 0x2CC154A7A501FB364878767578B3E84476FB3B15E1E4F1F36C41E6E3C4A4F006 PUSH2 0x2A0 DUP4 ADD MSTORE PUSH32 0x21624C1C2E20436E57F00C869B4F4AAE66E8F16607B9027306B9ABD91BAB715 PUSH2 0x2C0 DUP4 ADD MSTORE PUSH32 0x253DFFDC41BEB8CB4A01C3068DC7A60501047D6003FEF6F81A418F3DD70AE7BF PUSH2 0x2E0 DUP4 ADD MSTORE MLOAD SWAP3 DUP4 SWAP2 PUSH2 0x1659 DUP5 DUP5 PUSH2 0x16E4 JUMP JUMPDEST DUP4 CALLDATASIZE DUP5 CALLDATACOPY PUSH1 0x8 GAS STATICCALL ISZERO SWAP1 DUP2 ISZERO PUSH2 0x1671 JUMPI JUMPDEST POP PUSH2 0xC50 JUMPI STOP JUMPDEST PUSH1 0x1 SWAP2 POP MLOAD EQ ISZERO DUP2 PUSH2 0x166A JUMP JUMPDEST CALLVALUE PUSH2 0x236 JUMPI PUSH0 CALLDATASIZE PUSH1 0x3 NOT ADD SLT PUSH2 0x236 JUMPI DUP1 PUSH32 0xE408AF9C063D217680DEB42B0570387D9CA2E6F9A87710AF091F3491CC45C99 PUSH1 0x20 SWAP3 MSTORE RETURN JUMPDEST SWAP2 DUP2 PUSH1 0x1F DUP5 ADD SLT ISZERO PUSH2 0x236 JUMPI DUP3 CALLDATALOAD SWAP2 PUSH8 0xFFFFFFFFFFFFFFFF DUP4 GT PUSH2 0x236 JUMPI PUSH1 0x20 DUP4 DUP2 DUP7 ADD SWAP6 ADD ADD GT PUSH2 0x236 JUMPI JUMP JUMPDEST SWAP1 PUSH1 0x1F DUP1 NOT SWAP2 ADD AND DUP2 ADD SWAP1 DUP2 LT PUSH8 0xFFFFFFFFFFFFFFFF DUP3 GT OR PUSH2 0x24A JUMPI PUSH1 0x40 MSTORE JUMP JUMPDEST SWAP1 SWAP2 PUSH1 0x40 SWAP3 DUP3 MSTORE PUSH1 0x20 DUP3 ADD MSTORE ADD PUSH1 0x60 MLOAD PUSH1 0x80 SWAP1 PUSH0 JUMPDEST DUP2 DUP2 LT PUSH2 0x1728 JUMPI POP POP POP SWAP1 JUMP JUMPDEST DUP3 MLOAD DUP5 MSTORE PUSH1 0x20 SWAP4 DUP5 ADD SWAP4 SWAP1 SWAP3 ADD SWAP2 PUSH1 0x1 ADD PUSH2 0x171B JUMP JUMPDEST SWAP1 PUSH0 SWAP1 JUMPDEST PUSH1 0x2 DUP3 LT PUSH2 0x174F JUMPI POP POP POP JUMP JUMPDEST PUSH1 0x20 DUP1 PUSH1 0x1 SWAP3 DUP6 MLOAD DUP2 MSTORE ADD SWAP4 ADD SWAP2 ADD SWAP1 SWAP2 PUSH2 0x1742 JUMP JUMPDEST DUP1 ISZERO PUSH2 0x17C9 JUMPI DUP1 PUSH1 0x1 SHR SWAP2 PUSH0 MLOAD PUSH1 0x20 PUSH2 0x1E06 PUSH0 CODECOPY PUSH0 MLOAD SWAP1 PUSH0 MSTORE DUP4 LT ISZERO PUSH2 0xC50 JUMPI PUSH1 0x1 DUP1 PUSH2 0x17A8 PUSH0 MLOAD PUSH1 0x20 PUSH2 0x1E06 PUSH0 CODECOPY PUSH0 MLOAD SWAP1 PUSH0 MSTORE PUSH1 0x3 DUP2 DUP9 DUP2 DUP2 DUP1 MULMOD MULMOD ADDMOD PUSH2 0x1C26 JUMP JUMPDEST SWAP4 AND EQ PUSH2 0x17B1 JUMPI JUMP JUMPDEST SWAP1 PUSH0 MLOAD PUSH1 0x20 PUSH2 0x1E06 PUSH0 CODECOPY PUSH0 MLOAD SWAP1 PUSH0 MSTORE DUP1 SWAP2 MOD DUP2 SUB MOD SWAP1 JUMP JUMPDEST POP PUSH0 SWAP1 PUSH0 SWAP1 JUMP JUMPDEST DUP1 ISZERO DUP1 PUSH2 0x1901 JUMPI JUMPDEST PUSH2 0x18F5 JUMPI DUP1 PUSH1 0x2 SHR SWAP3 DUP3 PUSH0 MLOAD PUSH1 0x20 PUSH2 0x1E06 PUSH0 CODECOPY PUSH0 MLOAD SWAP1 PUSH0 MSTORE DUP6 LT DUP1 ISZERO SWAP1 PUSH2 0x18DE JUMPI JUMPDEST PUSH2 0xC50 JUMPI DUP5 DUP2 PUSH0 MLOAD PUSH1 0x20 PUSH2 0x1E06 PUSH0 CODECOPY PUSH0 MLOAD SWAP1 PUSH0 MSTORE DUP1 DUP1 DUP1 DUP1 DUP1 DUP1 DUP1 DUP1 PUSH32 0x30644E72E131A029B85045B68181585D97816A916871CA8D3C208C16D87CFD44 DUP2 PUSH2 0x18A8 SWAP14 DUP14 MULMOD MULMOD SWAP10 DUP11 MULMOD DUP2 DUP10 DUP2 DUP2 DUP1 MULMOD MULMOD ADDMOD PUSH32 0x2FCD3AC2A640A154EB23960892A85A68F031CA0C8344B23A577DCF1052B9E775 ADDMOD MOD DUP2 SUB MOD SWAP4 PUSH1 0x2 DUP1 DUP11 AND EQ SWAP6 MULMOD DUP2 DUP11 DUP2 DUP2 DUP1 MULMOD MULMOD ADDMOD PUSH32 0x2B149D40CEB8AAAE81BE18991BE06AC3B5B4C5E559DBEFA33267E6DC24A138E5 ADDMOD PUSH2 0x1C49 JUMP JUMPDEST DUP1 SWAP3 SWAP2 PUSH1 0x1 DUP1 DUP3 SWAP7 AND EQ PUSH2 0x18BA JUMPI POP POP JUMP JUMPDEST PUSH0 MLOAD PUSH1 0x20 PUSH2 0x1E06 PUSH0 CODECOPY PUSH0 MLOAD SWAP1 PUSH0 MSTORE DUP1 SWAP4 SWAP5 POP DUP1 SWAP3 SWAP6 POP DUP1 SWAP2 MOD DUP2 SUB MOD SWAP4 MOD DUP2 SUB MOD SWAP1 JUMP JUMPDEST POP PUSH0 MLOAD PUSH1 0x20 PUSH2 0x1E06 PUSH0 CODECOPY PUSH0 MLOAD SWAP1 PUSH0 MSTORE DUP2 LT ISZERO PUSH2 0x17FA JUMP JUMPDEST POP POP PUSH0 SWAP1 PUSH0 SWAP1 PUSH0 SWAP1 PUSH0 SWAP1 JUMP JUMPDEST POP DUP2 ISZERO PUSH2 0x17D8 JUMP JUMPDEST SWAP1 PUSH0 MLOAD PUSH1 0x20 PUSH2 0x1E06 PUSH0 CODECOPY PUSH0 MLOAD SWAP1 PUSH0 MSTORE DUP3 LT DUP1 ISZERO SWAP1 PUSH2 0x1993 JUMPI JUMPDEST PUSH2 0xC50 JUMPI DUP2 ISZERO DUP1 PUSH2 0x198B JUMPI JUMPDEST PUSH2 0x1985 JUMPI PUSH2 0x1952 PUSH0 MLOAD PUSH1 0x20 PUSH2 0x1E06 PUSH0 CODECOPY PUSH0 MLOAD SWAP1 PUSH0 MSTORE PUSH1 0x3 DUP2 DUP6 DUP2 DUP2 DUP1 MULMOD MULMOD ADDMOD PUSH2 0x1C26 JUMP JUMPDEST DUP2 DUP2 SUB PUSH2 0x1961 JUMPI POP POP PUSH1 0x1 SHL SWAP1 JUMP JUMPDEST PUSH0 MLOAD PUSH1 0x20 PUSH2 0x1E06 PUSH0 CODECOPY PUSH0 MLOAD SWAP1 PUSH0 MSTORE DUP1 SWAP2 MOD DUP2 SUB MOD EQ PUSH0 EQ PUSH2 0xC50 JUMPI PUSH1 0x1 SWAP1 DUP2 SHL OR SWAP1 JUMP JUMPDEST POP POP PUSH0 SWAP1 JUMP JUMPDEST POP DUP1 ISZERO PUSH2 0x192E JUMP JUMPDEST POP PUSH0 MLOAD PUSH1 0x20 PUSH2 0x1E06 PUSH0 CODECOPY PUSH0 MLOAD SWAP1 PUSH0 MSTORE DUP2 LT ISZERO PUSH2 0x1922 JUMP JUMPDEST SWAP2 SWAP1 SWAP4 SWAP3 PUSH0 MLOAD PUSH1 0x20 PUSH2 0x1E06 PUSH0 CODECOPY PUSH0 MLOAD SWAP1 PUSH0 MSTORE DUP4 LT DUP1 ISZERO SWAP1 PUSH2 0x1BC7 JUMPI JUMPDEST DUP1 ISZERO PUSH2 0x1BB0 JUMPI JUMPDEST DUP1 ISZERO PUSH2 0x1B99 JUMPI JUMPDEST PUSH2 0xC50 JUMPI DUP1 DUP3 DUP7 DUP6 OR OR OR ISZERO PUSH2 0x1B8E JUMPI SWAP1 DUP3 SWAP2 PUSH2 0x1AF1 PUSH0 MLOAD PUSH1 0x20 PUSH2 0x1E06 PUSH0 CODECOPY PUSH0 MLOAD SWAP1 PUSH0 MSTORE DUP1 DUP1 DUP1 DUP1 DUP9 DUP2 DUP1 DUP1 DUP16 SWAP14 PUSH32 0x30644E72E131A029B85045B68181585D97816A916871CA8D3C208C16D87CFD44 DUP16 DUP4 SWAP3 SWAP1 DUP4 SWAP2 MULMOD MULMOD SWAP14 DUP15 MULMOD DUP2 DUP5 DUP2 DUP2 DUP1 MULMOD MULMOD ADDMOD PUSH32 0x2B149D40CEB8AAAE81BE18991BE06AC3B5B4C5E559DBEFA33267E6DC24A138E5 ADDMOD SWAP11 MULMOD DUP2 DUP13 DUP2 DUP2 DUP1 MULMOD MULMOD ADDMOD PUSH32 0x2FCD3AC2A640A154EB23960892A85A68F031CA0C8344B23A577DCF1052B9E775 ADDMOD MOD DUP2 SUB MOD SWAP5 PUSH0 MLOAD PUSH1 0x20 PUSH2 0x1E06 PUSH0 CODECOPY PUSH0 MLOAD SWAP1 PUSH0 MSTORE PUSH32 0x183227397098D014DC2822DB40C0AC2ECBC0B548B438E5469E10460B6C3E7EA4 DUP2 PUSH2 0x1ACB DUP2 DUP1 DUP12 DUP1 MULMOD DUP2 DUP8 DUP1 MULMOD ADDMOD PUSH2 0x1C26 JUMP JUMPDEST DUP5 ADDMOD MULMOD PUSH0 MLOAD PUSH1 0x20 PUSH2 0x1E06 PUSH0 CODECOPY PUSH0 MLOAD SWAP1 PUSH0 MSTORE PUSH2 0x1AE5 DUP3 PUSH2 0x1D9D JUMP JUMPDEST DUP1 MULMOD EQ ISZERO SWAP6 DUP7 SWAP2 PUSH2 0x1C49 JUMP JUMPDEST SWAP3 SWAP1 DUP1 DUP3 EQ DUP1 PUSH2 0x1B85 JUMPI JUMPDEST ISZERO PUSH2 0x1B23 JUMPI POP POP POP POP SWAP1 PUSH0 EQ PUSH2 0x1B1B JUMPI PUSH1 0xFF PUSH1 0x2 JUMPDEST AND SWAP1 PUSH1 0x2 SHL OR SWAP2 SWAP1 JUMP JUMPDEST PUSH1 0xFF PUSH0 PUSH2 0x1B11 JUMP JUMPDEST PUSH0 MLOAD PUSH1 0x20 PUSH2 0x1E06 PUSH0 CODECOPY PUSH0 MLOAD SWAP1 PUSH0 MSTORE DUP1 SWAP2 MOD DUP2 SUB MOD EQ SWAP2 DUP3 PUSH2 0x1B66 JUMPI JUMPDEST POP POP ISZERO PUSH2 0xC50 JUMPI PUSH1 0x1 SWAP2 ISZERO PUSH2 0x1B5E JUMPI PUSH1 0xFF PUSH1 0x2 JUMPDEST AND SWAP1 PUSH1 0x2 SHL OR OR SWAP2 SWAP1 JUMP JUMPDEST PUSH1 0xFF PUSH0 PUSH2 0x1B53 JUMP JUMPDEST PUSH0 MLOAD PUSH1 0x20 PUSH2 0x1E06 PUSH0 CODECOPY PUSH0 MLOAD SWAP1 PUSH0 MSTORE SWAP2 SWAP3 POP DUP2 SWAP1 MOD DUP2 SUB MOD EQ PUSH0 DUP1 PUSH2 0x1B3F JUMP JUMPDEST POP DUP4 DUP4 EQ PUSH2 0x1AFC JUMP JUMPDEST POP POP POP SWAP1 POP PUSH0 SWAP1 PUSH0 SWAP1 JUMP JUMPDEST POP PUSH0 MLOAD PUSH1 0x20 PUSH2 0x1E06 PUSH0 CODECOPY PUSH0 MLOAD SWAP1 PUSH0 MSTORE DUP2 LT ISZERO PUSH2 0x19D4 JUMP JUMPDEST POP PUSH0 MLOAD PUSH1 0x20 PUSH2 0x1E06 PUSH0 CODECOPY PUSH0 MLOAD SWAP1 PUSH0 MSTORE DUP3 LT ISZERO PUSH2 0x19CD JUMP JUMPDEST POP PUSH0 MLOAD PUSH1 0x20 PUSH2 0x1E06 PUSH0 CODECOPY PUSH0 MLOAD SWAP1 PUSH0 MSTORE DUP6 LT ISZERO PUSH2 0x19C6 JUMP JUMPDEST SWAP1 DUP1 PUSH1 0x1F DUP4 ADD SLT ISZERO PUSH2 0x236 JUMPI PUSH1 0x40 DUP1 MLOAD SWAP3 SWAP1 PUSH2 0x1BFA SWAP1 DUP5 PUSH2 0x16E4 JUMP JUMPDEST DUP3 SWAP1 PUSH1 0x40 DUP2 ADD SWAP3 DUP4 GT PUSH2 0x236 JUMPI SWAP1 JUMPDEST DUP3 DUP3 LT PUSH2 0x1C16 JUMPI POP POP POP SWAP1 JUMP JUMPDEST DUP2 CALLDATALOAD DUP2 MSTORE PUSH1 0x20 SWAP2 DUP3 ADD SWAP2 ADD PUSH2 0x1C09 JUMP JUMPDEST SWAP1 PUSH2 0x1C30 DUP3 PUSH2 0x1D9D JUMP JUMPDEST SWAP2 PUSH0 MLOAD PUSH1 0x20 PUSH2 0x1E06 PUSH0 CODECOPY PUSH0 MLOAD SWAP1 PUSH0 MSTORE DUP4 DUP1 MULMOD SUB PUSH2 0xC50 JUMPI JUMP JUMPDEST SWAP2 PUSH0 MLOAD PUSH1 0x20 PUSH2 0x1E06 PUSH0 CODECOPY PUSH0 MLOAD SWAP1 PUSH0 MSTORE PUSH32 0x183227397098D014DC2822DB40C0AC2ECBC0B548B438E5469E10460B6C3E7EA4 DUP2 PUSH2 0x1CA1 SWAP4 SWAP7 SWAP5 SWAP7 PUSH2 0x1C93 DUP3 DUP1 DUP11 DUP1 MULMOD DUP2 DUP11 DUP1 MULMOD ADDMOD PUSH2 0x1C26 JUMP JUMPDEST SWAP1 PUSH2 0x1D91 JUMPI JUMPDEST DUP7 ADDMOD MULMOD PUSH2 0x1C26 JUMP JUMPDEST SWAP3 PUSH0 MLOAD PUSH1 0x20 PUSH2 0x1E06 PUSH0 CODECOPY PUSH0 MLOAD SWAP1 PUSH0 MSTORE PUSH1 0x2 DUP6 MULMOD PUSH1 0x40 MLOAD SWAP1 PUSH1 0x20 DUP3 MSTORE PUSH1 0x20 DUP1 DUP4 ADD MSTORE PUSH1 0x20 PUSH1 0x40 DUP4 ADD MSTORE DUP1 PUSH1 0x60 DUP4 ADD MSTORE PUSH32 0x30644E72E131A029B85045B68181585D97816A916871CA8D3C208C16D87CFD45 PUSH1 0x80 DUP4 ADD MSTORE PUSH0 MLOAD PUSH1 0x20 PUSH2 0x1E06 PUSH0 CODECOPY PUSH0 MLOAD SWAP1 PUSH0 MSTORE PUSH1 0xA0 DUP4 ADD MSTORE PUSH1 0x20 DUP3 PUSH1 0xC0 DUP2 PUSH1 0x5 GAS STATICCALL SWAP2 MLOAD SWAP2 ISZERO PUSH2 0xC50 JUMPI PUSH0 MLOAD PUSH1 0x20 PUSH2 0x1E06 PUSH0 CODECOPY PUSH0 MLOAD SWAP1 PUSH0 MSTORE DUP3 PUSH1 0x1 SWAP3 MULMOD SUB PUSH2 0xC50 JUMPI PUSH0 MLOAD PUSH1 0x20 PUSH2 0x1E06 PUSH0 CODECOPY PUSH0 MLOAD SWAP1 PUSH0 MSTORE SWAP1 DUP3 MULMOD SWAP3 PUSH0 MLOAD PUSH1 0x20 PUSH2 0x1E06 PUSH0 CODECOPY PUSH0 MLOAD SWAP1 PUSH0 MSTORE DUP1 DUP1 DUP1 DUP8 DUP1 MULMOD MOD DUP2 SUB MOD DUP2 DUP8 DUP1 MULMOD ADDMOD EQ SWAP1 DUP2 ISZERO SWAP2 PUSH2 0x1D72 JUMPI JUMPDEST POP PUSH2 0xC50 JUMPI JUMP JUMPDEST SWAP1 POP PUSH0 MLOAD PUSH1 0x20 PUSH2 0x1E06 PUSH0 CODECOPY PUSH0 MLOAD SWAP1 PUSH0 MSTORE DUP1 DUP5 DUP7 MULMOD PUSH1 0x2 MULMOD EQ ISZERO PUSH0 PUSH2 0x1D6B JUMP JUMPDEST DUP2 DUP1 SWAP2 MOD DUP2 SUB MOD PUSH2 0x1C99 JUMP JUMPDEST SWAP1 PUSH1 0x40 MLOAD SWAP2 PUSH1 0x20 DUP4 MSTORE PUSH1 0x20 DUP1 DUP5 ADD MSTORE PUSH1 0x20 PUSH1 0x40 DUP5 ADD MSTORE PUSH1 0x60 DUP4 ADD MSTORE PUSH32 0xC19139CB84C680A6E14116DA060561765E05AA45A1C72A34F082305B61F3F52 PUSH1 0x80 DUP4 ADD MSTORE PUSH0 MLOAD PUSH1 0x20 PUSH2 0x1E06 PUSH0 CODECOPY PUSH0 MLOAD SWAP1 PUSH0 MSTORE PUSH1 0xA0 DUP4 ADD MSTORE PUSH1 0x20 DUP3 PUSH1 0xC0 DUP2 PUSH1 0x5 GAS STATICCALL SWAP2 MLOAD SWAP2 ISZERO PUSH2 0xC50 JUMPI JUMP INVALID ADDRESS PUSH5 0x4E72E131A0 0x29 0xB8 POP GASLIMIT 0xB6 DUP2 DUP2 PC TSTORE SWAP8 DUP2 PUSH11 0x916871CA8D3C208C16D87C REVERT SELFBALANCE ADDRESS PUSH5 0x4E72E131A0 0x29 0xB8 POP GASLIMIT 0xB6 DUP2 DUP2 PC TSTORE 0x28 CALLER 0xE8 BASEFEE PUSH26 0xB9709143E1F593F0000001A2646970667358221220CBBF26A311 0xEC CALLER GASLIMIT 0xA6 PUSH4 0xD7AFCBF8 DUP6 0xCB 0xEA NOT SMOD NUMBER 0x2A CALLER 0xE8 0xD9 0xD3 SUB JUMPI 0xDB 0xB1 DIV SLT CODECOPY PUSH5 0x736F6C6343 STOP ADDMOD SHR STOP CALLER "},"methodIdentifiers":{"compressProof(uint256[8],uint256[2],uint256[2])":"b1c3a00e","provingKeyHash()":"233ace11","verifyCompressedProof(uint256[4],uint256[1],uint256,uint256[9])":"5d26278e","verifyProof(bytes,bytes)":"b8e72af6","verifyProof(uint256[8],uint256[2],uint256[2],uint256[9])":"60e58346"}}}}}