{"src/non-proxy/OrganizationRegistry.sol":{"OrganizationRegistry":{"abi":[{"anonymous":false,"inputs":[{"indexed":true,"internalType":"address","name":"id","type":"address"},{"indexed":true,"internalType":"address","name":"creator","type":"address"}],"name":"OrganizationCreated","type":"event"},{"anonymous":false,"inputs":[{"indexed":true,"internalType":"address","name":"id","type":"address"},{"indexed":true,"internalType":"address","name":"updater","type":"address"}],"name":"OrganizationUpdated","type":"event"},{"inputs":[{"internalType":"address","name":"id","type":"address"},{"internalType":"address","name":"administrator","type":"address"}],"name":"addAdministrator","outputs":[],"stateMutability":"nonpayable","type":"function"},{"inputs":[{"internalType":"address","name":"id","type":"address"},{"internalType":"string","name":"name","type":"string"},{"internalType":"string","name":"metadataURI","type":"string"},{"internalType":"address[]","name":"administrators","type":"address[]"}],"name":"createOrganization","outputs":[],"stateMutability":"nonpayable","type":"function"},{"inputs":[{"internalType":"address","name":"id","type":"address"}],"name":"deleteOrganization","outputs":[],"stateMutability":"nonpayable","type":"function"},{"inputs":[{"internalType":"address","name":"id","type":"address"}],"name":"getOrganization","outputs":[{"internalType":"string","name":"","type":"string"},{"internalType":"string","name":"","type":"string"}],"stateMutability":"view","type":"function"},{"inputs":[{"internalType":"address","name":"id","type":"address"},{"internalType":"address","name":"account","type":"address"}],"name":"isAdministrator","outputs":[{"internalType":"bool","name":"","type":"bool"}],"stateMutability":"view","type":"function"},{"inputs":[],"name":"organizationCount","outputs":[{"internalType":"uint32","name":"","type":"uint32"}],"stateMutability":"view","type":"function"},{"inputs":[{"internalType":"address","name":"","type":"address"}],"name":"organizations","outputs":[{"internalType":"string","name":"name","type":"string"},{"internalType":"string","name":"metadataURI","type":"string"}],"stateMutability":"view","type":"function"},{"inputs":[{"internalType":"address","name":"id","type":"address"},{"internalType":"address","name":"administrator","type":"address"}],"name":"removeAdministrator","outputs":[],"stateMutability":"nonpayable","type":"function"},{"inputs":[{"internalType":"address","name":"id","type":"address"},{"internalType":"string","name":"name","type":"string"},{"internalType":"string","name":"metadataURI","type":"string"}],"name":"updateOrganization","outputs":[],"stateMutability":"nonpayable","type":"function"}],"evm":{"bytecode":{"linkReferences":{},"object":"6080604052348015600f57600080fd5b506110cc8061001f6000396000f3fe608060405234801561001057600080fd5b50600436106100935760003560e01c80637acbb8af116100665780637acbb8af146100fd578063c1af6e0314610110578063c2a950be1461015e578063d2c30a6d14610171578063f1c621041461018457600080fd5b80631c2e3d82146100985780633c10eee5146100ad5780635a1f7406146100c05780636cca67bf146100ea575b600080fd5b6100ab6100a6366004610b12565b6101a9565b005b6100ab6100bb366004610b12565b610297565b6100d36100ce366004610b45565b610379565b6040516100e1929190610bad565b60405180910390f35b6100ab6100f8366004610c24565b6104a5565b6100ab61010b366004610b45565b61061d565b61014e61011e366004610b12565b6001600160a01b039182166000908152602081815260408083209390941682526002909201909152205460ff1690565b60405190151581526020016100e1565b6100ab61016c366004610caa565b6106ca565b6100d361017f366004610b45565b610959565b6001546101949063ffffffff1681565b60405163ffffffff90911681526020016100e1565b6001600160a01b038216600090815260208181526040808320338452600201909152902054829060ff166101f85760405162461bcd60e51b81526004016101ef90610d96565b60405180910390fd5b6001600160a01b0383166000908152602081905260408120805461021b90610de0565b90501161023a5760405162461bcd60e51b81526004016101ef90610e1a565b6001600160a01b0382166102605760405162461bcd60e51b81526004016101ef90610e6b565b506001600160a01b03918216600090815260208181526040808320939094168252600290920190915220805460ff19166001179055565b6001600160a01b038216600090815260208181526040808320338452600201909152902054829060ff166102dd5760405162461bcd60e51b81526004016101ef90610d96565b6001600160a01b0383166000908152602081905260408120805461030090610de0565b90501161031f5760405162461bcd60e51b81526004016101ef90610e1a565b6001600160a01b0382166103455760405162461bcd60e51b81526004016101ef90610e6b565b506001600160a01b03918216600090815260208181526040808320939094168252600290920190915220805460ff19169055565b60006020819052908152604090208054819061039490610de0565b80601f01602080910402602001604051908101604052809291908181526020018280546103c090610de0565b801561040d5780601f106103e25761010080835404028352916020019161040d565b820191906000526020600020905b8154815290600101906020018083116103f057829003601f168201915b50505050509080600101805461042290610de0565b80601f016020809104026020016040519081016040528092919081815260200182805461044e90610de0565b801561049b5780601f106104705761010080835404028352916020019161049b565b820191906000526020600020905b81548152906001019060200180831161047e57829003601f168201915b5050505050905082565b6001600160a01b038516600090815260208181526040808320338452600201909152902054859060ff166104eb5760405162461bcd60e51b81526004016101ef90610d96565b836105085760405162461bcd60e51b81526004016101ef90610ebe565b816105675760405162461bcd60e51b815260206004820152602960248201527f4f7267616e697a6174696f6e52656769737472793a20696e76616c6964206d6560448201526874616461746155524960b81b60648201526084016101ef565b6001600160a01b0386166000908152602081905260408120805461058a90610de0565b9050116105a95760405162461bcd60e51b81526004016101ef90610e1a565b6001600160a01b0386166000908152602081905260409020806105cd868883610f65565b50600181016105dd848683610f65565b5060405133906001600160a01b038916907fdcd663553eb7f5f57b83637c17d95d22a764affd6dbcc98f8ce9dcbac3e239f690600090a350505050505050565b6001600160a01b0381166000908152602081905260408120805461064090610de0565b90501161065f5760405162461bcd60e51b81526004016101ef90610e1a565b6001600160a01b0381166000908152602081905260408120906106828282610aa0565b610690600183016000610aa0565b50506001805463ffffffff169060006106a88361103b565b91906101000a81548163ffffffff021916908363ffffffff1602179055505050565b6001600160a01b0387166107205760405162461bcd60e51b815260206004820181905260248201527f4f7267616e697a6174696f6e52656769737472793a20696e76616c696420696460448201526064016101ef565b8461073d5760405162461bcd60e51b81526004016101ef90610ebe565b6001600160a01b0387166000908152602081905260409020805461076090610de0565b1590506107c95760405162461bcd60e51b815260206004820152603160248201527f4f7267616e697a6174696f6e52656769737472793a206f7267616e697a6174696044820152706f6e20616c72656164792065786973747360781b60648201526084016101ef565b6001600160a01b0387166000908152602081905260409020806107ed878983610f65565b50600181016107fd858783610f65565b5081156108bf5760005b828110156108bd5760008484838181106108235761082361105b565b90506020020160208101906108389190610b45565b6001600160a01b03160361085e5760405162461bcd60e51b81526004016101ef90610e6b565b60018260020160008686858181106108785761087861105b565b905060200201602081019061088d9190610b45565b6001600160a01b031681526020810191909152604001600020805460ff1916911515919091179055600101610807565b505b3360009081526002820160205260408120805460ff19166001908117909155805463ffffffff16916108f083611071565b91906101000a81548163ffffffff021916908363ffffffff16021790555050336001600160a01b0316886001600160a01b03167f2725ca0bb6f842da395a595005373aaa8e052b21133359b3c75f59a1247e6e7a60405160405180910390a35050505050505050565b6001600160a01b03811660009081526020819052604090208054606091829181906001820190829061098a90610de0565b80601f01602080910402602001604051908101604052809291908181526020018280546109b690610de0565b8015610a035780601f106109d857610100808354040283529160200191610a03565b820191906000526020600020905b8154815290600101906020018083116109e657829003601f168201915b50505050509150808054610a1690610de0565b80601f0160208091040260200160405190810160405280929190818152602001828054610a4290610de0565b8015610a8f5780601f10610a6457610100808354040283529160200191610a8f565b820191906000526020600020905b815481529060010190602001808311610a7257829003601f168201915b505050505090509250925050915091565b508054610aac90610de0565b6000825580601f10610abc575050565b601f016020900490600052602060002090810190610ada9190610add565b50565b5b80821115610af25760008155600101610ade565b5090565b80356001600160a01b0381168114610b0d57600080fd5b919050565b60008060408385031215610b2557600080fd5b610b2e83610af6565b9150610b3c60208401610af6565b90509250929050565b600060208284031215610b5757600080fd5b610b6082610af6565b9392505050565b6000815180845260005b81811015610b8d57602081850181015186830182015201610b71565b506000602082860101526020601f19601f83011685010191505092915050565b604081526000610bc06040830185610b67565b8281036020840152610bd28185610b67565b95945050505050565b60008083601f840112610bed57600080fd5b50813567ffffffffffffffff811115610c0557600080fd5b602083019150836020828501011115610c1d57600080fd5b9250929050565b600080600080600060608688031215610c3c57600080fd5b610c4586610af6565b9450602086013567ffffffffffffffff811115610c6157600080fd5b610c6d88828901610bdb565b909550935050604086013567ffffffffffffffff811115610c8d57600080fd5b610c9988828901610bdb565b969995985093965092949392505050565b60008060008060008060006080888a031215610cc557600080fd5b610cce88610af6565b9650602088013567ffffffffffffffff811115610cea57600080fd5b610cf68a828b01610bdb565b909750955050604088013567ffffffffffffffff811115610d1657600080fd5b610d228a828b01610bdb565b909550935050606088013567ffffffffffffffff811115610d4257600080fd5b8801601f81018a13610d5357600080fd5b803567ffffffffffffffff811115610d6a57600080fd5b8a60208260051b8401011115610d7f57600080fd5b602082019350809250505092959891949750929550565b6020808252602a908201527f4f7267616e697a6174696f6e52656769737472793a206e6f7420616e2061646d60408201526934b734b9ba3930ba37b960b11b606082015260800190565b600181811c90821680610df457607f821691505b602082108103610e1457634e487b7160e01b600052602260045260246000fd5b50919050565b60208082526031908201527f4f7267616e697a6174696f6e52656769737472793a206f7267616e697a6174696040820152701bdb88191bd95cc81b9bdd08195e1a5cdd607a1b606082015260800190565b60208082526033908201527f4f7267616e697a6174696f6e52656769737472793a20696e76616c69642061646040820152726d696e6973747261746f72206164647265737360681b606082015260800190565b60208082526022908201527f4f7267616e697a6174696f6e52656769737472793a20696e76616c6964206e616040820152616d6560f01b606082015260800190565b634e487b7160e01b600052604160045260246000fd5b601f821115610f6057806000526020600020601f840160051c81016020851015610f3d5750805b601f840160051c820191505b81811015610f5d5760008155600101610f49565b50505b505050565b67ffffffffffffffff831115610f7d57610f7d610f00565b610f9183610f8b8354610de0565b83610f16565b6000601f841160018114610fc55760008515610fad5750838201355b600019600387901b1c1916600186901b178355610f5d565b600083815260209020601f19861690835b82811015610ff65786850135825560209485019460019092019101610fd6565b50868210156110135760001960f88860031b161c19848701351681555b505060018560011b0183555050505050565b634e487b7160e01b600052601160045260246000fd5b600063ffffffff82168061105157611051611025565b6000190192915050565b634e487b7160e01b600052603260045260246000fd5b600063ffffffff821663ffffffff810361108d5761108d611025565b6001019291505056fea264697066735822122018ec8b7c61b34b841bd77f4f39528684570248481d630500ba9705e45287160d64736f6c634300081c0033","opcodes":"PUSH1 0x80 PUSH1 0x40 MSTORE CALLVALUE DUP1 ISZERO PUSH1 0xF JUMPI PUSH1 0x0 DUP1 REVERT JUMPDEST POP PUSH2 0x10CC DUP1 PUSH2 0x1F PUSH1 0x0 CODECOPY PUSH1 0x0 RETURN INVALID PUSH1 0x80 PUSH1 0x40 MSTORE CALLVALUE DUP1 ISZERO PUSH2 0x10 JUMPI PUSH1 0x0 DUP1 REVERT JUMPDEST POP PUSH1 0x4 CALLDATASIZE LT PUSH2 0x93 JUMPI PUSH1 0x0 CALLDATALOAD PUSH1 0xE0 SHR DUP1 PUSH4 0x7ACBB8AF GT PUSH2 0x66 JUMPI DUP1 PUSH4 0x7ACBB8AF EQ PUSH2 0xFD JUMPI DUP1 PUSH4 0xC1AF6E03 EQ PUSH2 0x110 JUMPI DUP1 PUSH4 0xC2A950BE EQ PUSH2 0x15E JUMPI DUP1 PUSH4 0xD2C30A6D EQ PUSH2 0x171 JUMPI DUP1 PUSH4 0xF1C62104 EQ PUSH2 0x184 JUMPI PUSH1 0x0 DUP1 REVERT JUMPDEST DUP1 PUSH4 0x1C2E3D82 EQ PUSH2 0x98 JUMPI DUP1 PUSH4 0x3C10EEE5 EQ PUSH2 0xAD JUMPI DUP1 PUSH4 0x5A1F7406 EQ PUSH2 0xC0 JUMPI DUP1 PUSH4 0x6CCA67BF EQ PUSH2 0xEA JUMPI JUMPDEST PUSH1 0x0 DUP1 REVERT JUMPDEST PUSH2 0xAB PUSH2 0xA6 CALLDATASIZE PUSH1 0x4 PUSH2 0xB12 JUMP JUMPDEST PUSH2 0x1A9 JUMP JUMPDEST STOP JUMPDEST PUSH2 0xAB PUSH2 0xBB CALLDATASIZE PUSH1 0x4 PUSH2 0xB12 JUMP JUMPDEST PUSH2 0x297 JUMP JUMPDEST PUSH2 0xD3 PUSH2 0xCE CALLDATASIZE PUSH1 0x4 PUSH2 0xB45 JUMP JUMPDEST PUSH2 0x379 JUMP JUMPDEST PUSH1 0x40 MLOAD PUSH2 0xE1 SWAP3 SWAP2 SWAP1 PUSH2 0xBAD JUMP JUMPDEST PUSH1 0x40 MLOAD DUP1 SWAP2 SUB SWAP1 RETURN JUMPDEST PUSH2 0xAB PUSH2 0xF8 CALLDATASIZE PUSH1 0x4 PUSH2 0xC24 JUMP JUMPDEST PUSH2 0x4A5 JUMP JUMPDEST PUSH2 0xAB PUSH2 0x10B CALLDATASIZE PUSH1 0x4 PUSH2 0xB45 JUMP JUMPDEST PUSH2 0x61D JUMP JUMPDEST PUSH2 0x14E PUSH2 0x11E CALLDATASIZE PUSH1 0x4 PUSH2 0xB12 JUMP JUMPDEST PUSH1 0x1 PUSH1 0x1 PUSH1 0xA0 SHL SUB SWAP2 DUP3 AND PUSH1 0x0 SWAP1 DUP2 MSTORE PUSH1 0x20 DUP2 DUP2 MSTORE PUSH1 0x40 DUP1 DUP4 KECCAK256 SWAP4 SWAP1 SWAP5 AND DUP3 MSTORE PUSH1 0x2 SWAP1 SWAP3 ADD SWAP1 SWAP2 MSTORE KECCAK256 SLOAD PUSH1 0xFF AND SWAP1 JUMP JUMPDEST PUSH1 0x40 MLOAD SWAP1 ISZERO ISZERO DUP2 MSTORE PUSH1 0x20 ADD PUSH2 0xE1 JUMP JUMPDEST PUSH2 0xAB PUSH2 0x16C CALLDATASIZE PUSH1 0x4 PUSH2 0xCAA JUMP JUMPDEST PUSH2 0x6CA JUMP JUMPDEST PUSH2 0xD3 PUSH2 0x17F CALLDATASIZE PUSH1 0x4 PUSH2 0xB45 JUMP JUMPDEST PUSH2 0x959 JUMP JUMPDEST PUSH1 0x1 SLOAD PUSH2 0x194 SWAP1 PUSH4 0xFFFFFFFF AND DUP2 JUMP JUMPDEST PUSH1 0x40 MLOAD PUSH4 0xFFFFFFFF SWAP1 SWAP2 AND DUP2 MSTORE PUSH1 0x20 ADD PUSH2 0xE1 JUMP JUMPDEST PUSH1 0x1 PUSH1 0x1 PUSH1 0xA0 SHL SUB DUP3 AND PUSH1 0x0 SWAP1 DUP2 MSTORE PUSH1 0x20 DUP2 DUP2 MSTORE PUSH1 0x40 DUP1 DUP4 KECCAK256 CALLER DUP5 MSTORE PUSH1 0x2 ADD SWAP1 SWAP2 MSTORE SWAP1 KECCAK256 SLOAD DUP3 SWAP1 PUSH1 0xFF AND PUSH2 0x1F8 JUMPI PUSH1 0x40 MLOAD PUSH3 0x461BCD PUSH1 0xE5 SHL DUP2 MSTORE PUSH1 0x4 ADD PUSH2 0x1EF SWAP1 PUSH2 0xD96 JUMP JUMPDEST PUSH1 0x40 MLOAD DUP1 SWAP2 SUB SWAP1 REVERT JUMPDEST PUSH1 0x1 PUSH1 0x1 PUSH1 0xA0 SHL SUB DUP4 AND PUSH1 0x0 SWAP1 DUP2 MSTORE PUSH1 0x20 DUP2 SWAP1 MSTORE PUSH1 0x40 DUP2 KECCAK256 DUP1 SLOAD PUSH2 0x21B SWAP1 PUSH2 0xDE0 JUMP JUMPDEST SWAP1 POP GT PUSH2 0x23A JUMPI PUSH1 0x40 MLOAD PUSH3 0x461BCD PUSH1 0xE5 SHL DUP2 MSTORE PUSH1 0x4 ADD PUSH2 0x1EF SWAP1 PUSH2 0xE1A JUMP JUMPDEST PUSH1 0x1 PUSH1 0x1 PUSH1 0xA0 SHL SUB DUP3 AND PUSH2 0x260 JUMPI PUSH1 0x40 MLOAD PUSH3 0x461BCD PUSH1 0xE5 SHL DUP2 MSTORE PUSH1 0x4 ADD PUSH2 0x1EF SWAP1 PUSH2 0xE6B JUMP JUMPDEST POP PUSH1 0x1 PUSH1 0x1 PUSH1 0xA0 SHL SUB SWAP2 DUP3 AND PUSH1 0x0 SWAP1 DUP2 MSTORE PUSH1 0x20 DUP2 DUP2 MSTORE PUSH1 0x40 DUP1 DUP4 KECCAK256 SWAP4 SWAP1 SWAP5 AND DUP3 MSTORE PUSH1 0x2 SWAP1 SWAP3 ADD SWAP1 SWAP2 MSTORE KECCAK256 DUP1 SLOAD PUSH1 0xFF NOT AND PUSH1 0x1 OR SWAP1 SSTORE JUMP JUMPDEST PUSH1 0x1 PUSH1 0x1 PUSH1 0xA0 SHL SUB DUP3 AND PUSH1 0x0 SWAP1 DUP2 MSTORE PUSH1 0x20 DUP2 DUP2 MSTORE PUSH1 0x40 DUP1 DUP4 KECCAK256 CALLER DUP5 MSTORE PUSH1 0x2 ADD SWAP1 SWAP2 MSTORE SWAP1 KECCAK256 SLOAD DUP3 SWAP1 PUSH1 0xFF AND PUSH2 0x2DD JUMPI PUSH1 0x40 MLOAD PUSH3 0x461BCD PUSH1 0xE5 SHL DUP2 MSTORE PUSH1 0x4 ADD PUSH2 0x1EF SWAP1 PUSH2 0xD96 JUMP JUMPDEST PUSH1 0x1 PUSH1 0x1 PUSH1 0xA0 SHL SUB DUP4 AND PUSH1 0x0 SWAP1 DUP2 MSTORE PUSH1 0x20 DUP2 SWAP1 MSTORE PUSH1 0x40 DUP2 KECCAK256 DUP1 SLOAD PUSH2 0x300 SWAP1 PUSH2 0xDE0 JUMP JUMPDEST SWAP1 POP GT PUSH2 0x31F JUMPI PUSH1 0x40 MLOAD PUSH3 0x461BCD PUSH1 0xE5 SHL DUP2 MSTORE PUSH1 0x4 ADD PUSH2 0x1EF SWAP1 PUSH2 0xE1A JUMP JUMPDEST PUSH1 0x1 PUSH1 0x1 PUSH1 0xA0 SHL SUB DUP3 AND PUSH2 0x345 JUMPI PUSH1 0x40 MLOAD PUSH3 0x461BCD PUSH1 0xE5 SHL DUP2 MSTORE PUSH1 0x4 ADD PUSH2 0x1EF SWAP1 PUSH2 0xE6B JUMP JUMPDEST POP PUSH1 0x1 PUSH1 0x1 PUSH1 0xA0 SHL SUB SWAP2 DUP3 AND PUSH1 0x0 SWAP1 DUP2 MSTORE PUSH1 0x20 DUP2 DUP2 MSTORE PUSH1 0x40 DUP1 DUP4 KECCAK256 SWAP4 SWAP1 SWAP5 AND DUP3 MSTORE PUSH1 0x2 SWAP1 SWAP3 ADD SWAP1 SWAP2 MSTORE KECCAK256 DUP1 SLOAD PUSH1 0xFF NOT AND SWAP1 SSTORE JUMP JUMPDEST PUSH1 0x0 PUSH1 0x20 DUP2 SWAP1 MSTORE SWAP1 DUP2 MSTORE PUSH1 0x40 SWAP1 KECCAK256 DUP1 SLOAD DUP2 SWAP1 PUSH2 0x394 SWAP1 PUSH2 0xDE0 JUMP JUMPDEST DUP1 PUSH1 0x1F ADD PUSH1 0x20 DUP1 SWAP2 DIV MUL PUSH1 0x20 ADD PUSH1 0x40 MLOAD SWAP1 DUP2 ADD PUSH1 0x40 MSTORE DUP1 SWAP3 SWAP2 SWAP1 DUP2 DUP2 MSTORE PUSH1 0x20 ADD DUP3 DUP1 SLOAD PUSH2 0x3C0 SWAP1 PUSH2 0xDE0 JUMP JUMPDEST DUP1 ISZERO PUSH2 0x40D JUMPI DUP1 PUSH1 0x1F LT PUSH2 0x3E2 JUMPI PUSH2 0x100 DUP1 DUP4 SLOAD DIV MUL DUP4 MSTORE SWAP2 PUSH1 0x20 ADD SWAP2 PUSH2 0x40D JUMP JUMPDEST DUP3 ADD SWAP2 SWAP1 PUSH1 0x0 MSTORE PUSH1 0x20 PUSH1 0x0 KECCAK256 SWAP1 JUMPDEST DUP2 SLOAD DUP2 MSTORE SWAP1 PUSH1 0x1 ADD SWAP1 PUSH1 0x20 ADD DUP1 DUP4 GT PUSH2 0x3F0 JUMPI DUP3 SWAP1 SUB PUSH1 0x1F AND DUP3 ADD SWAP2 JUMPDEST POP POP POP POP POP SWAP1 DUP1 PUSH1 0x1 ADD DUP1 SLOAD PUSH2 0x422 SWAP1 PUSH2 0xDE0 JUMP JUMPDEST DUP1 PUSH1 0x1F ADD PUSH1 0x20 DUP1 SWAP2 DIV MUL PUSH1 0x20 ADD PUSH1 0x40 MLOAD SWAP1 DUP2 ADD PUSH1 0x40 MSTORE DUP1 SWAP3 SWAP2 SWAP1 DUP2 DUP2 MSTORE PUSH1 0x20 ADD DUP3 DUP1 SLOAD PUSH2 0x44E SWAP1 PUSH2 0xDE0 JUMP JUMPDEST DUP1 ISZERO PUSH2 0x49B JUMPI DUP1 PUSH1 0x1F LT PUSH2 0x470 JUMPI PUSH2 0x100 DUP1 DUP4 SLOAD DIV MUL DUP4 MSTORE SWAP2 PUSH1 0x20 ADD SWAP2 PUSH2 0x49B JUMP JUMPDEST DUP3 ADD SWAP2 SWAP1 PUSH1 0x0 MSTORE PUSH1 0x20 PUSH1 0x0 KECCAK256 SWAP1 JUMPDEST DUP2 SLOAD DUP2 MSTORE SWAP1 PUSH1 0x1 ADD SWAP1 PUSH1 0x20 ADD DUP1 DUP4 GT PUSH2 0x47E JUMPI DUP3 SWAP1 SUB PUSH1 0x1F AND DUP3 ADD SWAP2 JUMPDEST POP POP POP POP POP SWAP1 POP DUP3 JUMP JUMPDEST PUSH1 0x1 PUSH1 0x1 PUSH1 0xA0 SHL SUB DUP6 AND PUSH1 0x0 SWAP1 DUP2 MSTORE PUSH1 0x20 DUP2 DUP2 MSTORE PUSH1 0x40 DUP1 DUP4 KECCAK256 CALLER DUP5 MSTORE PUSH1 0x2 ADD SWAP1 SWAP2 MSTORE SWAP1 KECCAK256 SLOAD DUP6 SWAP1 PUSH1 0xFF AND PUSH2 0x4EB JUMPI PUSH1 0x40 MLOAD PUSH3 0x461BCD PUSH1 0xE5 SHL DUP2 MSTORE PUSH1 0x4 ADD PUSH2 0x1EF SWAP1 PUSH2 0xD96 JUMP JUMPDEST DUP4 PUSH2 0x508 JUMPI PUSH1 0x40 MLOAD PUSH3 0x461BCD PUSH1 0xE5 SHL DUP2 MSTORE PUSH1 0x4 ADD PUSH2 0x1EF SWAP1 PUSH2 0xEBE JUMP JUMPDEST DUP2 PUSH2 0x567 JUMPI PUSH1 0x40 MLOAD PUSH3 0x461BCD PUSH1 0xE5 SHL DUP2 MSTORE PUSH1 0x20 PUSH1 0x4 DUP3 ADD MSTORE PUSH1 0x29 PUSH1 0x24 DUP3 ADD MSTORE PUSH32 0x4F7267616E697A6174696F6E52656769737472793A20696E76616C6964206D65 PUSH1 0x44 DUP3 ADD MSTORE PUSH9 0x746164617461555249 PUSH1 0xB8 SHL PUSH1 0x64 DUP3 ADD MSTORE PUSH1 0x84 ADD PUSH2 0x1EF JUMP JUMPDEST PUSH1 0x1 PUSH1 0x1 PUSH1 0xA0 SHL SUB DUP7 AND PUSH1 0x0 SWAP1 DUP2 MSTORE PUSH1 0x20 DUP2 SWAP1 MSTORE PUSH1 0x40 DUP2 KECCAK256 DUP1 SLOAD PUSH2 0x58A SWAP1 PUSH2 0xDE0 JUMP JUMPDEST SWAP1 POP GT PUSH2 0x5A9 JUMPI PUSH1 0x40 MLOAD PUSH3 0x461BCD PUSH1 0xE5 SHL DUP2 MSTORE PUSH1 0x4 ADD PUSH2 0x1EF SWAP1 PUSH2 0xE1A JUMP JUMPDEST PUSH1 0x1 PUSH1 0x1 PUSH1 0xA0 SHL SUB DUP7 AND PUSH1 0x0 SWAP1 DUP2 MSTORE PUSH1 0x20 DUP2 SWAP1 MSTORE PUSH1 0x40 SWAP1 KECCAK256 DUP1 PUSH2 0x5CD DUP7 DUP9 DUP4 PUSH2 0xF65 JUMP JUMPDEST POP PUSH1 0x1 DUP2 ADD PUSH2 0x5DD DUP5 DUP7 DUP4 PUSH2 0xF65 JUMP JUMPDEST POP PUSH1 0x40 MLOAD CALLER SWAP1 PUSH1 0x1 PUSH1 0x1 PUSH1 0xA0 SHL SUB DUP10 AND SWAP1 PUSH32 0xDCD663553EB7F5F57B83637C17D95D22A764AFFD6DBCC98F8CE9DCBAC3E239F6 SWAP1 PUSH1 0x0 SWAP1 LOG3 POP POP POP POP POP POP POP JUMP JUMPDEST PUSH1 0x1 PUSH1 0x1 PUSH1 0xA0 SHL SUB DUP2 AND PUSH1 0x0 SWAP1 DUP2 MSTORE PUSH1 0x20 DUP2 SWAP1 MSTORE PUSH1 0x40 DUP2 KECCAK256 DUP1 SLOAD PUSH2 0x640 SWAP1 PUSH2 0xDE0 JUMP JUMPDEST SWAP1 POP GT PUSH2 0x65F JUMPI PUSH1 0x40 MLOAD PUSH3 0x461BCD PUSH1 0xE5 SHL DUP2 MSTORE PUSH1 0x4 ADD PUSH2 0x1EF SWAP1 PUSH2 0xE1A JUMP JUMPDEST PUSH1 0x1 PUSH1 0x1 PUSH1 0xA0 SHL SUB DUP2 AND PUSH1 0x0 SWAP1 DUP2 MSTORE PUSH1 0x20 DUP2 SWAP1 MSTORE PUSH1 0x40 DUP2 KECCAK256 SWAP1 PUSH2 0x682 DUP3 DUP3 PUSH2 0xAA0 JUMP JUMPDEST PUSH2 0x690 PUSH1 0x1 DUP4 ADD PUSH1 0x0 PUSH2 0xAA0 JUMP JUMPDEST POP POP PUSH1 0x1 DUP1 SLOAD PUSH4 0xFFFFFFFF AND SWAP1 PUSH1 0x0 PUSH2 0x6A8 DUP4 PUSH2 0x103B JUMP JUMPDEST SWAP2 SWAP1 PUSH2 0x100 EXP DUP2 SLOAD DUP2 PUSH4 0xFFFFFFFF MUL NOT AND SWAP1 DUP4 PUSH4 0xFFFFFFFF AND MUL OR SWAP1 SSTORE POP POP POP JUMP JUMPDEST PUSH1 0x1 PUSH1 0x1 PUSH1 0xA0 SHL SUB DUP8 AND PUSH2 0x720 JUMPI PUSH1 0x40 MLOAD PUSH3 0x461BCD PUSH1 0xE5 SHL DUP2 MSTORE PUSH1 0x20 PUSH1 0x4 DUP3 ADD DUP2 SWAP1 MSTORE PUSH1 0x24 DUP3 ADD MSTORE PUSH32 0x4F7267616E697A6174696F6E52656769737472793A20696E76616C6964206964 PUSH1 0x44 DUP3 ADD MSTORE PUSH1 0x64 ADD PUSH2 0x1EF JUMP JUMPDEST DUP5 PUSH2 0x73D JUMPI PUSH1 0x40 MLOAD PUSH3 0x461BCD PUSH1 0xE5 SHL DUP2 MSTORE PUSH1 0x4 ADD PUSH2 0x1EF SWAP1 PUSH2 0xEBE JUMP JUMPDEST PUSH1 0x1 PUSH1 0x1 PUSH1 0xA0 SHL SUB DUP8 AND PUSH1 0x0 SWAP1 DUP2 MSTORE PUSH1 0x20 DUP2 SWAP1 MSTORE PUSH1 0x40 SWAP1 KECCAK256 DUP1 SLOAD PUSH2 0x760 SWAP1 PUSH2 0xDE0 JUMP JUMPDEST ISZERO SWAP1 POP PUSH2 0x7C9 JUMPI PUSH1 0x40 MLOAD PUSH3 0x461BCD PUSH1 0xE5 SHL DUP2 MSTORE PUSH1 0x20 PUSH1 0x4 DUP3 ADD MSTORE PUSH1 0x31 PUSH1 0x24 DUP3 ADD MSTORE PUSH32 0x4F7267616E697A6174696F6E52656769737472793A206F7267616E697A617469 PUSH1 0x44 DUP3 ADD MSTORE PUSH17 0x6F6E20616C726561647920657869737473 PUSH1 0x78 SHL PUSH1 0x64 DUP3 ADD MSTORE PUSH1 0x84 ADD PUSH2 0x1EF JUMP JUMPDEST PUSH1 0x1 PUSH1 0x1 PUSH1 0xA0 SHL SUB DUP8 AND PUSH1 0x0 SWAP1 DUP2 MSTORE PUSH1 0x20 DUP2 SWAP1 MSTORE PUSH1 0x40 SWAP1 KECCAK256 DUP1 PUSH2 0x7ED DUP8 DUP10 DUP4 PUSH2 0xF65 JUMP JUMPDEST POP PUSH1 0x1 DUP2 ADD PUSH2 0x7FD DUP6 DUP8 DUP4 PUSH2 0xF65 JUMP JUMPDEST POP DUP2 ISZERO PUSH2 0x8BF JUMPI PUSH1 0x0 JUMPDEST DUP3 DUP2 LT ISZERO PUSH2 0x8BD JUMPI PUSH1 0x0 DUP5 DUP5 DUP4 DUP2 DUP2 LT PUSH2 0x823 JUMPI PUSH2 0x823 PUSH2 0x105B JUMP JUMPDEST SWAP1 POP PUSH1 0x20 MUL ADD PUSH1 0x20 DUP2 ADD SWAP1 PUSH2 0x838 SWAP2 SWAP1 PUSH2 0xB45 JUMP JUMPDEST PUSH1 0x1 PUSH1 0x1 PUSH1 0xA0 SHL SUB AND SUB PUSH2 0x85E JUMPI PUSH1 0x40 MLOAD PUSH3 0x461BCD PUSH1 0xE5 SHL DUP2 MSTORE PUSH1 0x4 ADD PUSH2 0x1EF SWAP1 PUSH2 0xE6B JUMP JUMPDEST PUSH1 0x1 DUP3 PUSH1 0x2 ADD PUSH1 0x0 DUP7 DUP7 DUP6 DUP2 DUP2 LT PUSH2 0x878 JUMPI PUSH2 0x878 PUSH2 0x105B JUMP JUMPDEST SWAP1 POP PUSH1 0x20 MUL ADD PUSH1 0x20 DUP2 ADD SWAP1 PUSH2 0x88D SWAP2 SWAP1 PUSH2 0xB45 JUMP JUMPDEST PUSH1 0x1 PUSH1 0x1 PUSH1 0xA0 SHL SUB AND DUP2 MSTORE PUSH1 0x20 DUP2 ADD SWAP2 SWAP1 SWAP2 MSTORE PUSH1 0x40 ADD PUSH1 0x0 KECCAK256 DUP1 SLOAD PUSH1 0xFF NOT AND SWAP2 ISZERO ISZERO SWAP2 SWAP1 SWAP2 OR SWAP1 SSTORE PUSH1 0x1 ADD PUSH2 0x807 JUMP JUMPDEST POP JUMPDEST CALLER PUSH1 0x0 SWAP1 DUP2 MSTORE PUSH1 0x2 DUP3 ADD PUSH1 0x20 MSTORE PUSH1 0x40 DUP2 KECCAK256 DUP1 SLOAD PUSH1 0xFF NOT AND PUSH1 0x1 SWAP1 DUP2 OR SWAP1 SWAP2 SSTORE DUP1 SLOAD PUSH4 0xFFFFFFFF AND SWAP2 PUSH2 0x8F0 DUP4 PUSH2 0x1071 JUMP JUMPDEST SWAP2 SWAP1 PUSH2 0x100 EXP DUP2 SLOAD DUP2 PUSH4 0xFFFFFFFF MUL NOT AND SWAP1 DUP4 PUSH4 0xFFFFFFFF AND MUL OR SWAP1 SSTORE POP POP CALLER PUSH1 0x1 PUSH1 0x1 PUSH1 0xA0 SHL SUB AND DUP9 PUSH1 0x1 PUSH1 0x1 PUSH1 0xA0 SHL SUB AND PUSH32 0x2725CA0BB6F842DA395A595005373AAA8E052B21133359B3C75F59A1247E6E7A PUSH1 0x40 MLOAD PUSH1 0x40 MLOAD DUP1 SWAP2 SUB SWAP1 LOG3 POP POP POP POP POP POP POP POP JUMP JUMPDEST PUSH1 0x1 PUSH1 0x1 PUSH1 0xA0 SHL SUB DUP2 AND PUSH1 0x0 SWAP1 DUP2 MSTORE PUSH1 0x20 DUP2 SWAP1 MSTORE PUSH1 0x40 SWAP1 KECCAK256 DUP1 SLOAD PUSH1 0x60 SWAP2 DUP3 SWAP2 DUP2 SWAP1 PUSH1 0x1 DUP3 ADD SWAP1 DUP3 SWAP1 PUSH2 0x98A SWAP1 PUSH2 0xDE0 JUMP JUMPDEST DUP1 PUSH1 0x1F ADD PUSH1 0x20 DUP1 SWAP2 DIV MUL PUSH1 0x20 ADD PUSH1 0x40 MLOAD SWAP1 DUP2 ADD PUSH1 0x40 MSTORE DUP1 SWAP3 SWAP2 SWAP1 DUP2 DUP2 MSTORE PUSH1 0x20 ADD DUP3 DUP1 SLOAD PUSH2 0x9B6 SWAP1 PUSH2 0xDE0 JUMP JUMPDEST DUP1 ISZERO PUSH2 0xA03 JUMPI DUP1 PUSH1 0x1F LT PUSH2 0x9D8 JUMPI PUSH2 0x100 DUP1 DUP4 SLOAD DIV MUL DUP4 MSTORE SWAP2 PUSH1 0x20 ADD SWAP2 PUSH2 0xA03 JUMP JUMPDEST DUP3 ADD SWAP2 SWAP1 PUSH1 0x0 MSTORE PUSH1 0x20 PUSH1 0x0 KECCAK256 SWAP1 JUMPDEST DUP2 SLOAD DUP2 MSTORE SWAP1 PUSH1 0x1 ADD SWAP1 PUSH1 0x20 ADD DUP1 DUP4 GT PUSH2 0x9E6 JUMPI DUP3 SWAP1 SUB PUSH1 0x1F AND DUP3 ADD SWAP2 JUMPDEST POP POP POP POP POP SWAP2 POP DUP1 DUP1 SLOAD PUSH2 0xA16 SWAP1 PUSH2 0xDE0 JUMP JUMPDEST DUP1 PUSH1 0x1F ADD PUSH1 0x20 DUP1 SWAP2 DIV MUL PUSH1 0x20 ADD PUSH1 0x40 MLOAD SWAP1 DUP2 ADD PUSH1 0x40 MSTORE DUP1 SWAP3 SWAP2 SWAP1 DUP2 DUP2 MSTORE PUSH1 0x20 ADD DUP3 DUP1 SLOAD PUSH2 0xA42 SWAP1 PUSH2 0xDE0 JUMP JUMPDEST DUP1 ISZERO PUSH2 0xA8F JUMPI DUP1 PUSH1 0x1F LT PUSH2 0xA64 JUMPI PUSH2 0x100 DUP1 DUP4 SLOAD DIV MUL DUP4 MSTORE SWAP2 PUSH1 0x20 ADD SWAP2 PUSH2 0xA8F JUMP JUMPDEST DUP3 ADD SWAP2 SWAP1 PUSH1 0x0 MSTORE PUSH1 0x20 PUSH1 0x0 KECCAK256 SWAP1 JUMPDEST DUP2 SLOAD DUP2 MSTORE SWAP1 PUSH1 0x1 ADD SWAP1 PUSH1 0x20 ADD DUP1 DUP4 GT PUSH2 0xA72 JUMPI DUP3 SWAP1 SUB PUSH1 0x1F AND DUP3 ADD SWAP2 JUMPDEST POP POP POP POP POP SWAP1 POP SWAP3 POP SWAP3 POP POP SWAP2 POP SWAP2 JUMP JUMPDEST POP DUP1 SLOAD PUSH2 0xAAC SWAP1 PUSH2 0xDE0 JUMP JUMPDEST PUSH1 0x0 DUP3 SSTORE DUP1 PUSH1 0x1F LT PUSH2 0xABC JUMPI POP POP JUMP JUMPDEST PUSH1 0x1F ADD PUSH1 0x20 SWAP1 DIV SWAP1 PUSH1 0x0 MSTORE PUSH1 0x20 PUSH1 0x0 KECCAK256 SWAP1 DUP2 ADD SWAP1 PUSH2 0xADA SWAP2 SWAP1 PUSH2 0xADD JUMP JUMPDEST POP JUMP JUMPDEST JUMPDEST DUP1 DUP3 GT ISZERO PUSH2 0xAF2 JUMPI PUSH1 0x0 DUP2 SSTORE PUSH1 0x1 ADD PUSH2 0xADE JUMP JUMPDEST POP SWAP1 JUMP JUMPDEST DUP1 CALLDATALOAD PUSH1 0x1 PUSH1 0x1 PUSH1 0xA0 SHL SUB DUP2 AND DUP2 EQ PUSH2 0xB0D JUMPI PUSH1 0x0 DUP1 REVERT JUMPDEST SWAP2 SWAP1 POP JUMP JUMPDEST PUSH1 0x0 DUP1 PUSH1 0x40 DUP4 DUP6 SUB SLT ISZERO PUSH2 0xB25 JUMPI PUSH1 0x0 DUP1 REVERT JUMPDEST PUSH2 0xB2E DUP4 PUSH2 0xAF6 JUMP JUMPDEST SWAP2 POP PUSH2 0xB3C PUSH1 0x20 DUP5 ADD PUSH2 0xAF6 JUMP JUMPDEST SWAP1 POP SWAP3 POP SWAP3 SWAP1 POP JUMP JUMPDEST PUSH1 0x0 PUSH1 0x20 DUP3 DUP5 SUB SLT ISZERO PUSH2 0xB57 JUMPI PUSH1 0x0 DUP1 REVERT JUMPDEST PUSH2 0xB60 DUP3 PUSH2 0xAF6 JUMP JUMPDEST SWAP4 SWAP3 POP POP POP JUMP JUMPDEST PUSH1 0x0 DUP2 MLOAD DUP1 DUP5 MSTORE PUSH1 0x0 JUMPDEST DUP2 DUP2 LT ISZERO PUSH2 0xB8D JUMPI PUSH1 0x20 DUP2 DUP6 ADD DUP2 ADD MLOAD DUP7 DUP4 ADD DUP3 ADD MSTORE ADD PUSH2 0xB71 JUMP JUMPDEST POP PUSH1 0x0 PUSH1 0x20 DUP3 DUP7 ADD ADD MSTORE PUSH1 0x20 PUSH1 0x1F NOT PUSH1 0x1F DUP4 ADD AND DUP6 ADD ADD SWAP2 POP POP SWAP3 SWAP2 POP POP JUMP JUMPDEST PUSH1 0x40 DUP2 MSTORE PUSH1 0x0 PUSH2 0xBC0 PUSH1 0x40 DUP4 ADD DUP6 PUSH2 0xB67 JUMP JUMPDEST DUP3 DUP2 SUB PUSH1 0x20 DUP5 ADD MSTORE PUSH2 0xBD2 DUP2 DUP6 PUSH2 0xB67 JUMP JUMPDEST SWAP6 SWAP5 POP POP POP POP POP JUMP JUMPDEST PUSH1 0x0 DUP1 DUP4 PUSH1 0x1F DUP5 ADD SLT PUSH2 0xBED JUMPI PUSH1 0x0 DUP1 REVERT JUMPDEST POP DUP2 CALLDATALOAD PUSH8 0xFFFFFFFFFFFFFFFF DUP2 GT ISZERO PUSH2 0xC05 JUMPI PUSH1 0x0 DUP1 REVERT JUMPDEST PUSH1 0x20 DUP4 ADD SWAP2 POP DUP4 PUSH1 0x20 DUP3 DUP6 ADD ADD GT ISZERO PUSH2 0xC1D JUMPI PUSH1 0x0 DUP1 REVERT JUMPDEST SWAP3 POP SWAP3 SWAP1 POP JUMP JUMPDEST PUSH1 0x0 DUP1 PUSH1 0x0 DUP1 PUSH1 0x0 PUSH1 0x60 DUP7 DUP9 SUB SLT ISZERO PUSH2 0xC3C JUMPI PUSH1 0x0 DUP1 REVERT JUMPDEST PUSH2 0xC45 DUP7 PUSH2 0xAF6 JUMP JUMPDEST SWAP5 POP PUSH1 0x20 DUP7 ADD CALLDATALOAD PUSH8 0xFFFFFFFFFFFFFFFF DUP2 GT ISZERO PUSH2 0xC61 JUMPI PUSH1 0x0 DUP1 REVERT JUMPDEST PUSH2 0xC6D DUP9 DUP3 DUP10 ADD PUSH2 0xBDB JUMP JUMPDEST SWAP1 SWAP6 POP SWAP4 POP POP PUSH1 0x40 DUP7 ADD CALLDATALOAD PUSH8 0xFFFFFFFFFFFFFFFF DUP2 GT ISZERO PUSH2 0xC8D JUMPI PUSH1 0x0 DUP1 REVERT JUMPDEST PUSH2 0xC99 DUP9 DUP3 DUP10 ADD PUSH2 0xBDB JUMP JUMPDEST SWAP7 SWAP10 SWAP6 SWAP9 POP SWAP4 SWAP7 POP SWAP3 SWAP5 SWAP4 SWAP3 POP POP POP JUMP JUMPDEST PUSH1 0x0 DUP1 PUSH1 0x0 DUP1 PUSH1 0x0 DUP1 PUSH1 0x0 PUSH1 0x80 DUP9 DUP11 SUB SLT ISZERO PUSH2 0xCC5 JUMPI PUSH1 0x0 DUP1 REVERT JUMPDEST PUSH2 0xCCE DUP9 PUSH2 0xAF6 JUMP JUMPDEST SWAP7 POP PUSH1 0x20 DUP9 ADD CALLDATALOAD PUSH8 0xFFFFFFFFFFFFFFFF DUP2 GT ISZERO PUSH2 0xCEA JUMPI PUSH1 0x0 DUP1 REVERT JUMPDEST PUSH2 0xCF6 DUP11 DUP3 DUP12 ADD PUSH2 0xBDB JUMP JUMPDEST SWAP1 SWAP8 POP SWAP6 POP POP PUSH1 0x40 DUP9 ADD CALLDATALOAD PUSH8 0xFFFFFFFFFFFFFFFF DUP2 GT ISZERO PUSH2 0xD16 JUMPI PUSH1 0x0 DUP1 REVERT JUMPDEST PUSH2 0xD22 DUP11 DUP3 DUP12 ADD PUSH2 0xBDB JUMP JUMPDEST SWAP1 SWAP6 POP SWAP4 POP POP PUSH1 0x60 DUP9 ADD CALLDATALOAD PUSH8 0xFFFFFFFFFFFFFFFF DUP2 GT ISZERO PUSH2 0xD42 JUMPI PUSH1 0x0 DUP1 REVERT JUMPDEST DUP9 ADD PUSH1 0x1F DUP2 ADD DUP11 SGT PUSH2 0xD53 JUMPI PUSH1 0x0 DUP1 REVERT JUMPDEST DUP1 CALLDATALOAD PUSH8 0xFFFFFFFFFFFFFFFF DUP2 GT ISZERO PUSH2 0xD6A JUMPI PUSH1 0x0 DUP1 REVERT JUMPDEST DUP11 PUSH1 0x20 DUP3 PUSH1 0x5 SHL DUP5 ADD ADD GT ISZERO PUSH2 0xD7F JUMPI PUSH1 0x0 DUP1 REVERT JUMPDEST PUSH1 0x20 DUP3 ADD SWAP4 POP DUP1 SWAP3 POP POP POP SWAP3 SWAP6 SWAP9 SWAP2 SWAP5 SWAP8 POP SWAP3 SWAP6 POP JUMP JUMPDEST PUSH1 0x20 DUP1 DUP3 MSTORE PUSH1 0x2A SWAP1 DUP3 ADD MSTORE PUSH32 0x4F7267616E697A6174696F6E52656769737472793A206E6F7420616E2061646D PUSH1 0x40 DUP3 ADD MSTORE PUSH10 0x34B734B9BA3930BA37B9 PUSH1 0xB1 SHL PUSH1 0x60 DUP3 ADD MSTORE PUSH1 0x80 ADD SWAP1 JUMP JUMPDEST PUSH1 0x1 DUP2 DUP2 SHR SWAP1 DUP3 AND DUP1 PUSH2 0xDF4 JUMPI PUSH1 0x7F DUP3 AND SWAP2 POP JUMPDEST PUSH1 0x20 DUP3 LT DUP2 SUB PUSH2 0xE14 JUMPI PUSH4 0x4E487B71 PUSH1 0xE0 SHL PUSH1 0x0 MSTORE PUSH1 0x22 PUSH1 0x4 MSTORE PUSH1 0x24 PUSH1 0x0 REVERT JUMPDEST POP SWAP2 SWAP1 POP JUMP JUMPDEST PUSH1 0x20 DUP1 DUP3 MSTORE PUSH1 0x31 SWAP1 DUP3 ADD MSTORE PUSH32 0x4F7267616E697A6174696F6E52656769737472793A206F7267616E697A617469 PUSH1 0x40 DUP3 ADD MSTORE PUSH17 0x1BDB88191BD95CC81B9BDD08195E1A5CDD PUSH1 0x7A SHL PUSH1 0x60 DUP3 ADD MSTORE PUSH1 0x80 ADD SWAP1 JUMP JUMPDEST PUSH1 0x20 DUP1 DUP3 MSTORE PUSH1 0x33 SWAP1 DUP3 ADD MSTORE PUSH32 0x4F7267616E697A6174696F6E52656769737472793A20696E76616C6964206164 PUSH1 0x40 DUP3 ADD MSTORE PUSH19 0x6D696E6973747261746F722061646472657373 PUSH1 0x68 SHL PUSH1 0x60 DUP3 ADD MSTORE PUSH1 0x80 ADD SWAP1 JUMP JUMPDEST PUSH1 0x20 DUP1 DUP3 MSTORE PUSH1 0x22 SWAP1 DUP3 ADD MSTORE PUSH32 0x4F7267616E697A6174696F6E52656769737472793A20696E76616C6964206E61 PUSH1 0x40 DUP3 ADD MSTORE PUSH2 0x6D65 PUSH1 0xF0 SHL PUSH1 0x60 DUP3 ADD MSTORE PUSH1 0x80 ADD SWAP1 JUMP JUMPDEST PUSH4 0x4E487B71 PUSH1 0xE0 SHL PUSH1 0x0 MSTORE PUSH1 0x41 PUSH1 0x4 MSTORE PUSH1 0x24 PUSH1 0x0 REVERT JUMPDEST PUSH1 0x1F DUP3 GT ISZERO PUSH2 0xF60 JUMPI DUP1 PUSH1 0x0 MSTORE PUSH1 0x20 PUSH1 0x0 KECCAK256 PUSH1 0x1F DUP5 ADD PUSH1 0x5 SHR DUP2 ADD PUSH1 0x20 DUP6 LT ISZERO PUSH2 0xF3D JUMPI POP DUP1 JUMPDEST PUSH1 0x1F DUP5 ADD PUSH1 0x5 SHR DUP3 ADD SWAP2 POP JUMPDEST DUP2 DUP2 LT ISZERO PUSH2 0xF5D JUMPI PUSH1 0x0 DUP2 SSTORE PUSH1 0x1 ADD PUSH2 0xF49 JUMP JUMPDEST POP POP JUMPDEST POP POP POP JUMP JUMPDEST PUSH8 0xFFFFFFFFFFFFFFFF DUP4 GT ISZERO PUSH2 0xF7D JUMPI PUSH2 0xF7D PUSH2 0xF00 JUMP JUMPDEST PUSH2 0xF91 DUP4 PUSH2 0xF8B DUP4 SLOAD PUSH2 0xDE0 JUMP JUMPDEST DUP4 PUSH2 0xF16 JUMP JUMPDEST PUSH1 0x0 PUSH1 0x1F DUP5 GT PUSH1 0x1 DUP2 EQ PUSH2 0xFC5 JUMPI PUSH1 0x0 DUP6 ISZERO PUSH2 0xFAD JUMPI POP DUP4 DUP3 ADD CALLDATALOAD JUMPDEST PUSH1 0x0 NOT PUSH1 0x3 DUP8 SWAP1 SHL SHR NOT AND PUSH1 0x1 DUP7 SWAP1 SHL OR DUP4 SSTORE PUSH2 0xF5D JUMP JUMPDEST PUSH1 0x0 DUP4 DUP2 MSTORE PUSH1 0x20 SWAP1 KECCAK256 PUSH1 0x1F NOT DUP7 AND SWAP1 DUP4 JUMPDEST DUP3 DUP2 LT ISZERO PUSH2 0xFF6 JUMPI DUP7 DUP6 ADD CALLDATALOAD DUP3 SSTORE PUSH1 0x20 SWAP5 DUP6 ADD SWAP5 PUSH1 0x1 SWAP1 SWAP3 ADD SWAP2 ADD PUSH2 0xFD6 JUMP JUMPDEST POP DUP7 DUP3 LT ISZERO PUSH2 0x1013 JUMPI PUSH1 0x0 NOT PUSH1 0xF8 DUP9 PUSH1 0x3 SHL AND SHR NOT DUP5 DUP8 ADD CALLDATALOAD AND DUP2 SSTORE JUMPDEST POP POP PUSH1 0x1 DUP6 PUSH1 0x1 SHL ADD DUP4 SSTORE POP POP POP POP POP JUMP JUMPDEST PUSH4 0x4E487B71 PUSH1 0xE0 SHL PUSH1 0x0 MSTORE PUSH1 0x11 PUSH1 0x4 MSTORE PUSH1 0x24 PUSH1 0x0 REVERT JUMPDEST PUSH1 0x0 PUSH4 0xFFFFFFFF DUP3 AND DUP1 PUSH2 0x1051 JUMPI PUSH2 0x1051 PUSH2 0x1025 JUMP JUMPDEST PUSH1 0x0 NOT ADD SWAP3 SWAP2 POP POP JUMP JUMPDEST PUSH4 0x4E487B71 PUSH1 0xE0 SHL PUSH1 0x0 MSTORE PUSH1 0x32 PUSH1 0x4 MSTORE PUSH1 0x24 PUSH1 0x0 REVERT JUMPDEST PUSH1 0x0 PUSH4 0xFFFFFFFF DUP3 AND PUSH4 0xFFFFFFFF DUP2 SUB PUSH2 0x108D JUMPI PUSH2 0x108D PUSH2 0x1025 JUMP JUMPDEST PUSH1 0x1 ADD SWAP3 SWAP2 POP POP JUMP INVALID LOG2 PUSH5 0x6970667358 0x22 SLT KECCAK256 XOR 0xEC DUP12 PUSH29 0x61B34B841BD77F4F39528684570248481D630500BA9705E45287160D64 PUSH20 0x6F6C634300081C00330000000000000000000000 "},"methodIdentifiers":{"addAdministrator(address,address)":"1c2e3d82","createOrganization(address,string,string,address[])":"c2a950be","deleteOrganization(address)":"7acbb8af","getOrganization(address)":"d2c30a6d","isAdministrator(address,address)":"c1af6e03","organizationCount()":"f1c62104","organizations(address)":"5a1f7406","removeAdministrator(address,address)":"3c10eee5","updateOrganization(address,string,string)":"6cca67bf"}}}}}