{"src/Groth16Verifier2.sol":{"Groth16Verifier2":{"abi":[{"inputs":[],"name":"CommitmentInvalid","type":"error"},{"inputs":[],"name":"ProofInvalid","type":"error"},{"inputs":[],"name":"PublicInputNotInField","type":"error"},{"inputs":[{"internalType":"uint256[8]","name":"proof","type":"uint256[8]"},{"internalType":"uint256[2]","name":"commitments","type":"uint256[2]"},{"internalType":"uint256[2]","name":"commitmentPok","type":"uint256[2]"}],"name":"compressProof","outputs":[{"internalType":"uint256[4]","name":"compressed","type":"uint256[4]"},{"internalType":"uint256[1]","name":"compressedCommitments","type":"uint256[1]"},{"internalType":"uint256","name":"compressedCommitmentPok","type":"uint256"}],"stateMutability":"view","type":"function"},{"inputs":[{"internalType":"uint256[4]","name":"compressedProof","type":"uint256[4]"},{"internalType":"uint256[1]","name":"compressedCommitments","type":"uint256[1]"},{"internalType":"uint256","name":"compressedCommitmentPok","type":"uint256"},{"internalType":"uint256[3]","name":"input","type":"uint256[3]"}],"name":"verifyCompressedProof","outputs":[],"stateMutability":"view","type":"function"},{"inputs":[{"internalType":"uint256[8]","name":"proof","type":"uint256[8]"},{"internalType":"uint256[2]","name":"commitments","type":"uint256[2]"},{"internalType":"uint256[2]","name":"commitmentPok","type":"uint256[2]"},{"internalType":"uint256[3]","name":"input","type":"uint256[3]"}],"name":"verifyProof","outputs":[],"stateMutability":"view","type":"function"}],"evm":{"bytecode":{"linkReferences":{},"object":"6080604052348015600f57600080fd5b50611a088061001f6000396000f3fe608060405234801561001057600080fd5b50600436106100415760003560e01c80632865dfb91461004657806330bb0bd91461005b578063b1c3a00e1461006e575b600080fd5b610059610054366004611789565b610099565b005b6100596100693660046117e5565b610513565b61008161007c366004611834565b610a52565b6040516100909392919061187d565b60405180910390f35b6100a16116dc565b6040516060906000805160206119b3833981519152906100cd908735906020808a0135918691016118f6565b6040516020818303038152906040528051906020012060001c6100f0919061194f565b8252604080516000918782377f2e56fe5059e0e9170dee81cf361d829e381f04c6696d02ebf1a13ad7110a8e1060408201527f2d53a322e9706d55779d3dc87a82d9e425be0379e06c2d4f0c81ff27f1c2a28060608201527f0ecfb5e16109fe1163de90c090cc9d0e74ba41376759264254e5c78d33d68dc060808201527f1cee980cf8c07ac14e9d854a86bcc6d099a5adbdf101863de0fabe9a96fdd80660a082015260408660c08301377f10007b7f79d148749e5e8a8841d3042dfdb2deb317c1690179473b3d1e6a30df6101008201527f162aa6325ab01236296888f47ca1dd7ac0f31e9002417269d1a356e1283fc2986101208201527f27ed4aac10da4f1d7e2471bd557e74147cbc98ee35e4346292eaf2f5ffe333876101408201527f0276c4346a595f07d30a3c9f5a1b70d065b9838792584270da81dc69e8144d9f6101608201526020816101808360085afa905116905080610266576040516351d49ff760e11b815260040160405180910390fd5b60008061029d86868a6002806020026040519081016040528092919082600260200280828437600092019190915250610adb915050565b915091506040516101008a82377f284fdaf9225bfde6274f4ea3d4ffe49509c2f8553dcfa81a0a4bf2e61f87ee366101008201527f16dc5685aa8868acb440289f8d4f6241841a0f09e5c2c7de2525f77c353a41826101208201527f23e30cf6d233797afa4b0260f8765d31eff3aacfab8e07b468149afc408854c36101408201527f03089711372e858b1e675170613ecf1847a2facf3a626945a972372a7c4fe1546101608201527f0904e5ff31c401fa2ca8bbd3b6e04ddc01f1bfb4f74f1be596f75e0ad808b82f6101808201527f28e68bfd88ac03e1759f5c9e8a3acad97985a1b5aa27a6820a173bc9217060486101a08201527f28ac63a733ec201540a6225522b47d679200b4f8bb4c6bdf87bdba27339871fb6101c08201527f1f0263524620a490b5e7df03e9d35437eacc70d929ff0701e66ab2ed26a6bb5b6101e08201527f0ddd6545cf6a5e86850308b85a2bf0129738b7cdd3e4f0630485fdb784ed08ef6102008201527f251b6e7701aafdc7177cd535e922973860d39c8b6c3d2fce3d12c287be83baa761022082015282610240820152816102608201527f2ad3f37c66103b68dc5db419505a8c6af34e080bb642540c12d70122845281c36102808201527f175223a21dc814d82cf495c0aa52dc77a31cb0f88d187ff9665fcdcc664ececd6102a08201527f18f5759e5af2a9f6d2431a3fbbc34aa186bd42387e6bf1abe56ec765bfb79d7c6102c08201527f1c2d72897f7aa74d5756ac6d082a3fd3422d1f208d7c30e5f870764ff984e87a6102e08201526020816103008360085afa90511692508261050857604051631ff3747d60e21b815260040160405180910390fd5b505050505050505050565b61051b6116dc565b6105236116fa565b61052b611718565b61053c8660005b6020020135610d9a565b6020840152825260008061054f87610d9a565b85516020808801516040519496509294506060936000805160206119b383398151915293610582939290918691016118f6565b6040516020818303038152906040528051906020012060001c6105a5919061194f565b865284518452602085810151858201527f2e56fe5059e0e9170dee81cf361d829e381f04c6696d02ebf1a13ad7110a8e106040808701919091527f2d53a322e9706d55779d3dc87a82d9e425be0379e06c2d4f0c81ff27f1c2a28060608701527f0ecfb5e16109fe1163de90c090cc9d0e74ba41376759264254e5c78d33d68dc060808701527f1cee980cf8c07ac14e9d854a86bcc6d099a5adbdf101863de0fabe9a96fdd80660a087015260c0860185905260e086018490527f10007b7f79d148749e5e8a8841d3042dfdb2deb317c1690179473b3d1e6a30df6101008701527f162aa6325ab01236296888f47ca1dd7ac0f31e9002417269d1a356e1283fc2986101208701527f27ed4aac10da4f1d7e2471bd557e74147cbc98ee35e4346292eaf2f5ffe333876101408701527f0276c4346a595f07d30a3c9f5a1b70d065b9838792584270da81dc69e8144d9f61016087015251600091816101808860085afa90511690508061072b576040516351d49ff760e11b815260040160405180910390fd5b5050505060008061074889600060048110610532576105326118e0565b9092509050600080808061076460408e013560208f0135610e40565b9296509094509250905060008061077c8f6003610532565b9150915060008061078e8e8e8e610adb565b8b8d5260208d018b905260408d0189905260608d018a905260808d0187905260a08d0188905260c08d0186905260e08d018590527f284fdaf9225bfde6274f4ea3d4ffe49509c2f8553dcfa81a0a4bf2e61f87ee366101008e01527f16dc5685aa8868acb440289f8d4f6241841a0f09e5c2c7de2525f77c353a41826101208e01527f23e30cf6d233797afa4b0260f8765d31eff3aacfab8e07b468149afc408854c36101408e01527f03089711372e858b1e675170613ecf1847a2facf3a626945a972372a7c4fe1546101608e01527f0904e5ff31c401fa2ca8bbd3b6e04ddc01f1bfb4f74f1be596f75e0ad808b82f6101808e01527f28e68bfd88ac03e1759f5c9e8a3acad97985a1b5aa27a6820a173bc9217060486101a08e01527f28ac63a733ec201540a6225522b47d679200b4f8bb4c6bdf87bdba27339871fb6101c08e01527f1f0263524620a490b5e7df03e9d35437eacc70d929ff0701e66ab2ed26a6bb5b6101e08e01527f0ddd6545cf6a5e86850308b85a2bf0129738b7cdd3e4f0630485fdb784ed08ef6102008e01527f251b6e7701aafdc7177cd535e922973860d39c8b6c3d2fce3d12c287be83baa76102208e01526102408d018290526102608d018190527f2ad3f37c66103b68dc5db419505a8c6af34e080bb642540c12d70122845281c36102808e01527f175223a21dc814d82cf495c0aa52dc77a31cb0f88d187ff9665fcdcc664ececd6102a08e01527f18f5759e5af2a9f6d2431a3fbbc34aa186bd42387e6bf1abe56ec765bfb79d7c6102c08e01527f1c2d72897f7aa74d5756ac6d082a3fd3422d1f208d7c30e5f870764ff984e87a6102e08e015290925090506000610a036116dc565b6020816103008f60085afa9150811580610a1f57508051600114155b15610a3d57604051631ff3747d60e21b815260040160405180910390fd5b50505050505050505050505050505050505050565b610a5a611737565b610a626116dc565b6000610a7786358760015b6020020135611026565b8352610a956060870135604088013560a089013560808a013561111b565b60208501526040840152610aaf60c0870135876007610a6d565b6060840152610ac18535866001610a6d565b8252610ad08435856001610a6d565b905093509350939050565b6000806000600190506040516040810160007f28657b38bf55121fcf574f8cfcadeeabe4f2f4fdc669d9dbadf1b38fc895ee5483527f1f00065269ed5c2a81482e1c9f4a12367d74420409bdc8d879e1f927eec96025602084015260408260408960065afa8416935060408360808560065afa841693507f2fdfe4927150759754ec43babeed28b7bca8385ebfa8494713d5d7e9671ea5ae82527f0ac2dfbe37509124cf0c82d56b4bd29703ed8552324b5847956f5bec7aeccc936020830152883590508060408301526000805160206119b383398151915281108416935060408260608460075afa8416935060408360808560065afa841693507f0e0d21a5736fd8e506904256878db3fdffe046d3cea0bd180f3942298f2bd5e382527f3006a05a7cd573c06bc56e864409cc5fec0484a657ba85a947da4c842176cf186020830152602089013590508060408301526000805160206119b383398151915281108416935060408260608460075afa8416935060408360808560065afa841693507f0397a95ad1898b2f5072b97af95df2d1081dab901a5e86bbc0f9274b76bc3b6582527f2d4950ce1e2382da6b7e8c59a8abf4531ac5406eb9415b656fd488a1aba703fe6020830152604089013590508060408301526000805160206119b383398151915281108416935060408260608460075afa8416935060408360808560065afa7f0a491e0c29a0292f9559c8092d95a649a6a8e3078656a79ab2494a60d4df7af183527f1648256f5c885cfedd782015a3e7ee5cd77a4788d3046888d99b87baaae19df26020840152885160408085018290526000805160206119b383398151915290911091909516169390508160608160075afa831692505060408160808360065afa81516020909201519194509092501680610d915760405163a54f8e2760e01b815260040160405180910390fd5b50935093915050565b60008082600003610db057506000928392509050565b600183811c9250808416146000805160206119938339815191528310610de957604051631ff3747d60e21b815260040160405180910390fd5b610e266000805160206119938339815191526003600080516020611993833981519152866000805160206119938339815191528889090908611412565b91508015610e3a57610e3782611476565b91505b50915091565b600080808085158015610e51575084155b15610e675750600092508291508190508061101d565b600286811c9450859350600180881614908088161460008051602061199383398151915286101580610ea757506000805160206119938339815191528510155b15610ec557604051631ff3747d60e21b815260040160405180910390fd5b6000600080516020611993833981519152610eef6003600080516020611993833981519152611971565b600080516020611993833981519152888a090990506000600080516020611993833981519152886000805160206119938339815191528a8b090990506000600080516020611993833981519152886000805160206119938339815191528a8b09099050600080516020611993833981519152806000805160206119938339815191528a860984087f2b149d40ceb8aaae81be18991be06ac3b5b4c5e559dbefa33267e6dc24a138e5089650610fe8600080516020611993833981519152806000805160206119938339815191528c870984087f2fcd3ac2a640a154eb23960892a85a68f031ca0c8344b23a577dcf1052b9e77508611476565b9550610ff587878661148f565b909750955084156110175761100987611476565b965061101486611476565b95505b50505050505b92959194509250565b60006000805160206119938339815191528310158061105357506000805160206119938339815191528210155b1561107157604051631ff3747d60e21b815260040160405180910390fd5b8215801561107d575081155b1561108a57506000611115565b60006110c9600080516020611993833981519152600360008051602061199383398151915287600080516020611993833981519152898a090908611412565b90508083036110de575050600182901b611115565b6110e781611476565b83036110fa575050600182811b17611115565b604051631ff3747d60e21b815260040160405180910390fd5b505b92915050565b6000806000805160206119938339815191528610158061114957506000805160206119938339815191528510155b8061116257506000805160206119938339815191528410155b8061117b57506000805160206119938339815191528310155b1561119957604051631ff3747d60e21b815260040160405180910390fd5b828486881717176000036111b257506000905080611409565b600080806000805160206119938339815191526111de6003600080516020611993833981519152611971565b6000805160206119938339815191528a8c0909905060006000805160206119938339815191528a6000805160206119938339815191528c8d0909905060006000805160206119938339815191528a6000805160206119938339815191528c8d09099050600080516020611993833981519152806000805160206119938339815191528c860984087f2b149d40ceb8aaae81be18991be06ac3b5b4c5e559dbefa33267e6dc24a138e50894506112d7600080516020611993833981519152806000805160206119938339815191528e870984087f2fcd3ac2a640a154eb23960892a85a68f031ca0c8344b23a577dcf1052b9e77508611476565b9350505050600080611328600080516020611993833981519152806112fe576112fe611939565b60008051602061199383398151915285860960008051602061199383398151915287880908611412565b90506113756000805160206119938339815191527f183227397098d014dc2822db40c0ac2ecbc0b548b438e5469e10460b6c3e7ea4600080516020611993833981519152848808096115cd565b1591505061138483838361148f565b9093509150868314801561139757508186145b156113c157806113a85760006113ab565b60025b60ff1660028a901b176000179450879350611405565b6113ca83611476565b871480156113df57506113dc82611476565b86145b156110fa57806113f05760006113f3565b60025b60ff1660028a901b1760011794508793505b5050505b94509492505050565b600061143e827f0c19139cb84c680a6e14116da060561765e05aa45a1c72a34f082305b61f3f52611617565b9050816000805160206119938339815191528283091461147157604051631ff3747d60e21b815260040160405180910390fd5b919050565b6000805160206119938339815191529081900681030690565b600080806114c160008051602061199383398151915280878809600080516020611993833981519152898a0908611412565b905083156114d5576114d281611476565b90505b6115206000805160206119938339815191527f183227397098d014dc2822db40c0ac2ecbc0b548b438e5469e10460b6c3e7ea4600080516020611993833981519152848a0809611412565b925060008051602061199383398151915261154c6000805160206119938339815191526002860961167c565b86099150600080516020611993833981519152611579600080516020611993833981519152848509611476565b60008051602061199383398151915285860908861415806115af5750600080516020611993833981519152808385096002098514155b15610d9157604051631ff3747d60e21b815260040160405180910390fd5b6000806115fa837f0c19139cb84c680a6e14116da060561765e05aa45a1c72a34f082305b61f3f52611617565b905082600080516020611993833981519152828309149392505050565b600080604051602081526020808201526020604082015284606082015283608082015260008051602061199383398151915260a082015260208160c08360055afa9051925090508061111357604051631ff3747d60e21b815260040160405180910390fd5b60006116a8827f30644e72e131a029b85045b68181585d97816a916871ca8d3c208c16d87cfd45611617565b905060008051602061199383398151915281830960011461147157604051631ff3747d60e21b815260040160405180910390fd5b60405180602001604052806001906020820280368337509192915050565b60405180604001604052806002906020820280368337509192915050565b6040518061030001604052806018906020820280368337509192915050565b60405180608001604052806004906020820280368337509192915050565b80610100810183101561111557600080fd5b806040810183101561111557600080fd5b806060810183101561111557600080fd5b6000806000806101e085870312156117a057600080fd5b6117aa8686611755565b93506117ba866101008701611767565b92506117ca866101408701611767565b91506117da866101808701611778565b905092959194509250565b60008060008061012085870312156117fc57600080fd5b608085018681111561180d57600080fd5b85945060a086018781111561182157600080fd5b9093503591506117da8660c08701611778565b6000806000610180848603121561184a57600080fd5b6118548585611755565b9250611864856101008601611767565b9150611874856101408601611767565b90509250925092565b60c08101818560005b60048110156118a5578151835260209283019290910190600101611886565b505050608082018460005b60018110156118cf5781518352602092830192909101906001016118b0565b5050508260a0830152949350505050565b634e487b7160e01b600052603260045260246000fd5b83815282602082015260006040820183516020850160005b8281101561192c57815184526020938401939091019060010161190e565b5091979650505050505050565b634e487b7160e01b600052601260045260246000fd5b60008261196c57634e487b7160e01b600052601260045260246000fd5b500690565b8181038181111561111557634e487b7160e01b600052601160045260246000fdfe30644e72e131a029b85045b68181585d97816a916871ca8d3c208c16d87cfd4730644e72e131a029b85045b68181585d2833e84879b9709143e1f593f0000001a2646970667358221220dcd873250b474655c72a6c1925325d580044a78feda3b1a6cf0e521abe72451264736f6c634300081c0033","opcodes":"PUSH1 0x80 PUSH1 0x40 MSTORE CALLVALUE DUP1 ISZERO PUSH1 0xF JUMPI PUSH1 0x0 DUP1 REVERT JUMPDEST POP PUSH2 0x1A08 DUP1 PUSH2 0x1F PUSH1 0x0 CODECOPY PUSH1 0x0 RETURN INVALID PUSH1 0x80 PUSH1 0x40 MSTORE CALLVALUE DUP1 ISZERO PUSH2 0x10 JUMPI PUSH1 0x0 DUP1 REVERT JUMPDEST POP PUSH1 0x4 CALLDATASIZE LT PUSH2 0x41 JUMPI PUSH1 0x0 CALLDATALOAD PUSH1 0xE0 SHR DUP1 PUSH4 0x2865DFB9 EQ PUSH2 0x46 JUMPI DUP1 PUSH4 0x30BB0BD9 EQ PUSH2 0x5B JUMPI DUP1 PUSH4 0xB1C3A00E EQ PUSH2 0x6E JUMPI JUMPDEST PUSH1 0x0 DUP1 REVERT JUMPDEST PUSH2 0x59 PUSH2 0x54 CALLDATASIZE PUSH1 0x4 PUSH2 0x1789 JUMP JUMPDEST PUSH2 0x99 JUMP JUMPDEST STOP JUMPDEST PUSH2 0x59 PUSH2 0x69 CALLDATASIZE PUSH1 0x4 PUSH2 0x17E5 JUMP JUMPDEST PUSH2 0x513 JUMP JUMPDEST PUSH2 0x81 PUSH2 0x7C CALLDATASIZE PUSH1 0x4 PUSH2 0x1834 JUMP JUMPDEST PUSH2 0xA52 JUMP JUMPDEST PUSH1 0x40 MLOAD PUSH2 0x90 SWAP4 SWAP3 SWAP2 SWAP1 PUSH2 0x187D JUMP JUMPDEST PUSH1 0x40 MLOAD DUP1 SWAP2 SUB SWAP1 RETURN JUMPDEST PUSH2 0xA1 PUSH2 0x16DC JUMP JUMPDEST PUSH1 0x40 MLOAD PUSH1 0x60 SWAP1 PUSH1 0x0 DUP1 MLOAD PUSH1 0x20 PUSH2 0x19B3 DUP4 CODECOPY DUP2 MLOAD SWAP2 MSTORE SWAP1 PUSH2 0xCD SWAP1 DUP8 CALLDATALOAD SWAP1 PUSH1 0x20 DUP1 DUP11 ADD CALLDATALOAD SWAP2 DUP7 SWAP2 ADD PUSH2 0x18F6 JUMP JUMPDEST PUSH1 0x40 MLOAD PUSH1 0x20 DUP2 DUP4 SUB SUB DUP2 MSTORE SWAP1 PUSH1 0x40 MSTORE DUP1 MLOAD SWAP1 PUSH1 0x20 ADD KECCAK256 PUSH1 0x0 SHR PUSH2 0xF0 SWAP2 SWAP1 PUSH2 0x194F JUMP JUMPDEST DUP3 MSTORE PUSH1 0x40 DUP1 MLOAD PUSH1 0x0 SWAP2 DUP8 DUP3 CALLDATACOPY PUSH32 0x2E56FE5059E0E9170DEE81CF361D829E381F04C6696D02EBF1A13AD7110A8E10 PUSH1 0x40 DUP3 ADD MSTORE PUSH32 0x2D53A322E9706D55779D3DC87A82D9E425BE0379E06C2D4F0C81FF27F1C2A280 PUSH1 0x60 DUP3 ADD MSTORE PUSH32 0xECFB5E16109FE1163DE90C090CC9D0E74BA41376759264254E5C78D33D68DC0 PUSH1 0x80 DUP3 ADD MSTORE PUSH32 0x1CEE980CF8C07AC14E9D854A86BCC6D099A5ADBDF101863DE0FABE9A96FDD806 PUSH1 0xA0 DUP3 ADD MSTORE PUSH1 0x40 DUP7 PUSH1 0xC0 DUP4 ADD CALLDATACOPY PUSH32 0x10007B7F79D148749E5E8A8841D3042DFDB2DEB317C1690179473B3D1E6A30DF PUSH2 0x100 DUP3 ADD MSTORE PUSH32 0x162AA6325AB01236296888F47CA1DD7AC0F31E9002417269D1A356E1283FC298 PUSH2 0x120 DUP3 ADD MSTORE PUSH32 0x27ED4AAC10DA4F1D7E2471BD557E74147CBC98EE35E4346292EAF2F5FFE33387 PUSH2 0x140 DUP3 ADD MSTORE PUSH32 0x276C4346A595F07D30A3C9F5A1B70D065B9838792584270DA81DC69E8144D9F PUSH2 0x160 DUP3 ADD MSTORE PUSH1 0x20 DUP2 PUSH2 0x180 DUP4 PUSH1 0x8 GAS STATICCALL SWAP1 MLOAD AND SWAP1 POP DUP1 PUSH2 0x266 JUMPI PUSH1 0x40 MLOAD PUSH4 0x51D49FF7 PUSH1 0xE1 SHL DUP2 MSTORE PUSH1 0x4 ADD PUSH1 0x40 MLOAD DUP1 SWAP2 SUB SWAP1 REVERT JUMPDEST PUSH1 0x0 DUP1 PUSH2 0x29D DUP7 DUP7 DUP11 PUSH1 0x2 DUP1 PUSH1 0x20 MUL PUSH1 0x40 MLOAD SWAP1 DUP2 ADD PUSH1 0x40 MSTORE DUP1 SWAP3 SWAP2 SWAP1 DUP3 PUSH1 0x2 PUSH1 0x20 MUL DUP1 DUP3 DUP5 CALLDATACOPY PUSH1 0x0 SWAP3 ADD SWAP2 SWAP1 SWAP2 MSTORE POP PUSH2 0xADB SWAP2 POP POP JUMP JUMPDEST SWAP2 POP SWAP2 POP PUSH1 0x40 MLOAD PUSH2 0x100 DUP11 DUP3 CALLDATACOPY PUSH32 0x284FDAF9225BFDE6274F4EA3D4FFE49509C2F8553DCFA81A0A4BF2E61F87EE36 PUSH2 0x100 DUP3 ADD MSTORE PUSH32 0x16DC5685AA8868ACB440289F8D4F6241841A0F09E5C2C7DE2525F77C353A4182 PUSH2 0x120 DUP3 ADD MSTORE PUSH32 0x23E30CF6D233797AFA4B0260F8765D31EFF3AACFAB8E07B468149AFC408854C3 PUSH2 0x140 DUP3 ADD MSTORE PUSH32 0x3089711372E858B1E675170613ECF1847A2FACF3A626945A972372A7C4FE154 PUSH2 0x160 DUP3 ADD MSTORE PUSH32 0x904E5FF31C401FA2CA8BBD3B6E04DDC01F1BFB4F74F1BE596F75E0AD808B82F PUSH2 0x180 DUP3 ADD MSTORE PUSH32 0x28E68BFD88AC03E1759F5C9E8A3ACAD97985A1B5AA27A6820A173BC921706048 PUSH2 0x1A0 DUP3 ADD MSTORE PUSH32 0x28AC63A733EC201540A6225522B47D679200B4F8BB4C6BDF87BDBA27339871FB PUSH2 0x1C0 DUP3 ADD MSTORE PUSH32 0x1F0263524620A490B5E7DF03E9D35437EACC70D929FF0701E66AB2ED26A6BB5B PUSH2 0x1E0 DUP3 ADD MSTORE PUSH32 0xDDD6545CF6A5E86850308B85A2BF0129738B7CDD3E4F0630485FDB784ED08EF PUSH2 0x200 DUP3 ADD MSTORE PUSH32 0x251B6E7701AAFDC7177CD535E922973860D39C8B6C3D2FCE3D12C287BE83BAA7 PUSH2 0x220 DUP3 ADD MSTORE DUP3 PUSH2 0x240 DUP3 ADD MSTORE DUP2 PUSH2 0x260 DUP3 ADD MSTORE PUSH32 0x2AD3F37C66103B68DC5DB419505A8C6AF34E080BB642540C12D70122845281C3 PUSH2 0x280 DUP3 ADD MSTORE PUSH32 0x175223A21DC814D82CF495C0AA52DC77A31CB0F88D187FF9665FCDCC664ECECD PUSH2 0x2A0 DUP3 ADD MSTORE PUSH32 0x18F5759E5AF2A9F6D2431A3FBBC34AA186BD42387E6BF1ABE56EC765BFB79D7C PUSH2 0x2C0 DUP3 ADD MSTORE PUSH32 0x1C2D72897F7AA74D5756AC6D082A3FD3422D1F208D7C30E5F870764FF984E87A PUSH2 0x2E0 DUP3 ADD MSTORE PUSH1 0x20 DUP2 PUSH2 0x300 DUP4 PUSH1 0x8 GAS STATICCALL SWAP1 MLOAD AND SWAP3 POP DUP3 PUSH2 0x508 JUMPI PUSH1 0x40 MLOAD PUSH4 0x1FF3747D PUSH1 0xE2 SHL DUP2 MSTORE PUSH1 0x4 ADD PUSH1 0x40 MLOAD DUP1 SWAP2 SUB SWAP1 REVERT JUMPDEST POP POP POP POP POP POP POP POP POP JUMP JUMPDEST PUSH2 0x51B PUSH2 0x16DC JUMP JUMPDEST PUSH2 0x523 PUSH2 0x16FA JUMP JUMPDEST PUSH2 0x52B PUSH2 0x1718 JUMP JUMPDEST PUSH2 0x53C DUP7 PUSH1 0x0 JUMPDEST PUSH1 0x20 MUL ADD CALLDATALOAD PUSH2 0xD9A JUMP JUMPDEST PUSH1 0x20 DUP5 ADD MSTORE DUP3 MSTORE PUSH1 0x0 DUP1 PUSH2 0x54F DUP8 PUSH2 0xD9A JUMP JUMPDEST DUP6 MLOAD PUSH1 0x20 DUP1 DUP9 ADD MLOAD PUSH1 0x40 MLOAD SWAP5 SWAP7 POP SWAP3 SWAP5 POP PUSH1 0x60 SWAP4 PUSH1 0x0 DUP1 MLOAD PUSH1 0x20 PUSH2 0x19B3 DUP4 CODECOPY DUP2 MLOAD SWAP2 MSTORE SWAP4 PUSH2 0x582 SWAP4 SWAP3 SWAP1 SWAP2 DUP7 SWAP2 ADD PUSH2 0x18F6 JUMP JUMPDEST PUSH1 0x40 MLOAD PUSH1 0x20 DUP2 DUP4 SUB SUB DUP2 MSTORE SWAP1 PUSH1 0x40 MSTORE DUP1 MLOAD SWAP1 PUSH1 0x20 ADD KECCAK256 PUSH1 0x0 SHR PUSH2 0x5A5 SWAP2 SWAP1 PUSH2 0x194F JUMP JUMPDEST DUP7 MSTORE DUP5 MLOAD DUP5 MSTORE PUSH1 0x20 DUP6 DUP2 ADD MLOAD DUP6 DUP3 ADD MSTORE PUSH32 0x2E56FE5059E0E9170DEE81CF361D829E381F04C6696D02EBF1A13AD7110A8E10 PUSH1 0x40 DUP1 DUP8 ADD SWAP2 SWAP1 SWAP2 MSTORE PUSH32 0x2D53A322E9706D55779D3DC87A82D9E425BE0379E06C2D4F0C81FF27F1C2A280 PUSH1 0x60 DUP8 ADD MSTORE PUSH32 0xECFB5E16109FE1163DE90C090CC9D0E74BA41376759264254E5C78D33D68DC0 PUSH1 0x80 DUP8 ADD MSTORE PUSH32 0x1CEE980CF8C07AC14E9D854A86BCC6D099A5ADBDF101863DE0FABE9A96FDD806 PUSH1 0xA0 DUP8 ADD MSTORE PUSH1 0xC0 DUP7 ADD DUP6 SWAP1 MSTORE PUSH1 0xE0 DUP7 ADD DUP5 SWAP1 MSTORE PUSH32 0x10007B7F79D148749E5E8A8841D3042DFDB2DEB317C1690179473B3D1E6A30DF PUSH2 0x100 DUP8 ADD MSTORE PUSH32 0x162AA6325AB01236296888F47CA1DD7AC0F31E9002417269D1A356E1283FC298 PUSH2 0x120 DUP8 ADD MSTORE PUSH32 0x27ED4AAC10DA4F1D7E2471BD557E74147CBC98EE35E4346292EAF2F5FFE33387 PUSH2 0x140 DUP8 ADD MSTORE PUSH32 0x276C4346A595F07D30A3C9F5A1B70D065B9838792584270DA81DC69E8144D9F PUSH2 0x160 DUP8 ADD MSTORE MLOAD PUSH1 0x0 SWAP2 DUP2 PUSH2 0x180 DUP9 PUSH1 0x8 GAS STATICCALL SWAP1 MLOAD AND SWAP1 POP DUP1 PUSH2 0x72B JUMPI PUSH1 0x40 MLOAD PUSH4 0x51D49FF7 PUSH1 0xE1 SHL DUP2 MSTORE PUSH1 0x4 ADD PUSH1 0x40 MLOAD DUP1 SWAP2 SUB SWAP1 REVERT JUMPDEST POP POP POP POP PUSH1 0x0 DUP1 PUSH2 0x748 DUP10 PUSH1 0x0 PUSH1 0x4 DUP2 LT PUSH2 0x532 JUMPI PUSH2 0x532 PUSH2 0x18E0 JUMP JUMPDEST SWAP1 SWAP3 POP SWAP1 POP PUSH1 0x0 DUP1 DUP1 DUP1 PUSH2 0x764 PUSH1 0x40 DUP15 ADD CALLDATALOAD PUSH1 0x20 DUP16 ADD CALLDATALOAD PUSH2 0xE40 JUMP JUMPDEST SWAP3 SWAP7 POP SWAP1 SWAP5 POP SWAP3 POP SWAP1 POP PUSH1 0x0 DUP1 PUSH2 0x77C DUP16 PUSH1 0x3 PUSH2 0x532 JUMP JUMPDEST SWAP2 POP SWAP2 POP PUSH1 0x0 DUP1 PUSH2 0x78E DUP15 DUP15 DUP15 PUSH2 0xADB JUMP JUMPDEST DUP12 DUP14 MSTORE PUSH1 0x20 DUP14 ADD DUP12 SWAP1 MSTORE PUSH1 0x40 DUP14 ADD DUP10 SWAP1 MSTORE PUSH1 0x60 DUP14 ADD DUP11 SWAP1 MSTORE PUSH1 0x80 DUP14 ADD DUP8 SWAP1 MSTORE PUSH1 0xA0 DUP14 ADD DUP9 SWAP1 MSTORE PUSH1 0xC0 DUP14 ADD DUP7 SWAP1 MSTORE PUSH1 0xE0 DUP14 ADD DUP6 SWAP1 MSTORE PUSH32 0x284FDAF9225BFDE6274F4EA3D4FFE49509C2F8553DCFA81A0A4BF2E61F87EE36 PUSH2 0x100 DUP15 ADD MSTORE PUSH32 0x16DC5685AA8868ACB440289F8D4F6241841A0F09E5C2C7DE2525F77C353A4182 PUSH2 0x120 DUP15 ADD MSTORE PUSH32 0x23E30CF6D233797AFA4B0260F8765D31EFF3AACFAB8E07B468149AFC408854C3 PUSH2 0x140 DUP15 ADD MSTORE PUSH32 0x3089711372E858B1E675170613ECF1847A2FACF3A626945A972372A7C4FE154 PUSH2 0x160 DUP15 ADD MSTORE PUSH32 0x904E5FF31C401FA2CA8BBD3B6E04DDC01F1BFB4F74F1BE596F75E0AD808B82F PUSH2 0x180 DUP15 ADD MSTORE PUSH32 0x28E68BFD88AC03E1759F5C9E8A3ACAD97985A1B5AA27A6820A173BC921706048 PUSH2 0x1A0 DUP15 ADD MSTORE PUSH32 0x28AC63A733EC201540A6225522B47D679200B4F8BB4C6BDF87BDBA27339871FB PUSH2 0x1C0 DUP15 ADD MSTORE PUSH32 0x1F0263524620A490B5E7DF03E9D35437EACC70D929FF0701E66AB2ED26A6BB5B PUSH2 0x1E0 DUP15 ADD MSTORE PUSH32 0xDDD6545CF6A5E86850308B85A2BF0129738B7CDD3E4F0630485FDB784ED08EF PUSH2 0x200 DUP15 ADD MSTORE PUSH32 0x251B6E7701AAFDC7177CD535E922973860D39C8B6C3D2FCE3D12C287BE83BAA7 PUSH2 0x220 DUP15 ADD MSTORE PUSH2 0x240 DUP14 ADD DUP3 SWAP1 MSTORE PUSH2 0x260 DUP14 ADD DUP2 SWAP1 MSTORE PUSH32 0x2AD3F37C66103B68DC5DB419505A8C6AF34E080BB642540C12D70122845281C3 PUSH2 0x280 DUP15 ADD MSTORE PUSH32 0x175223A21DC814D82CF495C0AA52DC77A31CB0F88D187FF9665FCDCC664ECECD PUSH2 0x2A0 DUP15 ADD MSTORE PUSH32 0x18F5759E5AF2A9F6D2431A3FBBC34AA186BD42387E6BF1ABE56EC765BFB79D7C PUSH2 0x2C0 DUP15 ADD MSTORE PUSH32 0x1C2D72897F7AA74D5756AC6D082A3FD3422D1F208D7C30E5F870764FF984E87A PUSH2 0x2E0 DUP15 ADD MSTORE SWAP1 SWAP3 POP SWAP1 POP PUSH1 0x0 PUSH2 0xA03 PUSH2 0x16DC JUMP JUMPDEST PUSH1 0x20 DUP2 PUSH2 0x300 DUP16 PUSH1 0x8 GAS STATICCALL SWAP2 POP DUP2 ISZERO DUP1 PUSH2 0xA1F JUMPI POP DUP1 MLOAD PUSH1 0x1 EQ ISZERO JUMPDEST ISZERO PUSH2 0xA3D JUMPI PUSH1 0x40 MLOAD PUSH4 0x1FF3747D PUSH1 0xE2 SHL DUP2 MSTORE PUSH1 0x4 ADD PUSH1 0x40 MLOAD DUP1 SWAP2 SUB SWAP1 REVERT JUMPDEST POP POP POP POP POP POP POP POP POP POP POP POP POP POP POP POP POP POP POP JUMP JUMPDEST PUSH2 0xA5A PUSH2 0x1737 JUMP JUMPDEST PUSH2 0xA62 PUSH2 0x16DC JUMP JUMPDEST PUSH1 0x0 PUSH2 0xA77 DUP7 CALLDATALOAD DUP8 PUSH1 0x1 JUMPDEST PUSH1 0x20 MUL ADD CALLDATALOAD PUSH2 0x1026 JUMP JUMPDEST DUP4 MSTORE PUSH2 0xA95 PUSH1 0x60 DUP8 ADD CALLDATALOAD PUSH1 0x40 DUP9 ADD CALLDATALOAD PUSH1 0xA0 DUP10 ADD CALLDATALOAD PUSH1 0x80 DUP11 ADD CALLDATALOAD PUSH2 0x111B JUMP JUMPDEST PUSH1 0x20 DUP6 ADD MSTORE PUSH1 0x40 DUP5 ADD MSTORE PUSH2 0xAAF PUSH1 0xC0 DUP8 ADD CALLDATALOAD DUP8 PUSH1 0x7 PUSH2 0xA6D JUMP JUMPDEST PUSH1 0x60 DUP5 ADD MSTORE PUSH2 0xAC1 DUP6 CALLDATALOAD DUP7 PUSH1 0x1 PUSH2 0xA6D JUMP JUMPDEST DUP3 MSTORE PUSH2 0xAD0 DUP5 CALLDATALOAD DUP6 PUSH1 0x1 PUSH2 0xA6D JUMP JUMPDEST SWAP1 POP SWAP4 POP SWAP4 POP SWAP4 SWAP1 POP JUMP JUMPDEST PUSH1 0x0 DUP1 PUSH1 0x0 PUSH1 0x1 SWAP1 POP PUSH1 0x40 MLOAD PUSH1 0x40 DUP2 ADD PUSH1 0x0 PUSH32 0x28657B38BF55121FCF574F8CFCADEEABE4F2F4FDC669D9DBADF1B38FC895EE54 DUP4 MSTORE PUSH32 0x1F00065269ED5C2A81482E1C9F4A12367D74420409BDC8D879E1F927EEC96025 PUSH1 0x20 DUP5 ADD MSTORE PUSH1 0x40 DUP3 PUSH1 0x40 DUP10 PUSH1 0x6 GAS STATICCALL DUP5 AND SWAP4 POP PUSH1 0x40 DUP4 PUSH1 0x80 DUP6 PUSH1 0x6 GAS STATICCALL DUP5 AND SWAP4 POP PUSH32 0x2FDFE4927150759754EC43BABEED28B7BCA8385EBFA8494713D5D7E9671EA5AE DUP3 MSTORE PUSH32 0xAC2DFBE37509124CF0C82D56B4BD29703ED8552324B5847956F5BEC7AECCC93 PUSH1 0x20 DUP4 ADD MSTORE DUP9 CALLDATALOAD SWAP1 POP DUP1 PUSH1 0x40 DUP4 ADD MSTORE PUSH1 0x0 DUP1 MLOAD PUSH1 0x20 PUSH2 0x19B3 DUP4 CODECOPY DUP2 MLOAD SWAP2 MSTORE DUP2 LT DUP5 AND SWAP4 POP PUSH1 0x40 DUP3 PUSH1 0x60 DUP5 PUSH1 0x7 GAS STATICCALL DUP5 AND SWAP4 POP PUSH1 0x40 DUP4 PUSH1 0x80 DUP6 PUSH1 0x6 GAS STATICCALL DUP5 AND SWAP4 POP PUSH32 0xE0D21A5736FD8E506904256878DB3FDFFE046D3CEA0BD180F3942298F2BD5E3 DUP3 MSTORE PUSH32 0x3006A05A7CD573C06BC56E864409CC5FEC0484A657BA85A947DA4C842176CF18 PUSH1 0x20 DUP4 ADD MSTORE PUSH1 0x20 DUP10 ADD CALLDATALOAD SWAP1 POP DUP1 PUSH1 0x40 DUP4 ADD MSTORE PUSH1 0x0 DUP1 MLOAD PUSH1 0x20 PUSH2 0x19B3 DUP4 CODECOPY DUP2 MLOAD SWAP2 MSTORE DUP2 LT DUP5 AND SWAP4 POP PUSH1 0x40 DUP3 PUSH1 0x60 DUP5 PUSH1 0x7 GAS STATICCALL DUP5 AND SWAP4 POP PUSH1 0x40 DUP4 PUSH1 0x80 DUP6 PUSH1 0x6 GAS STATICCALL DUP5 AND SWAP4 POP PUSH32 0x397A95AD1898B2F5072B97AF95DF2D1081DAB901A5E86BBC0F9274B76BC3B65 DUP3 MSTORE PUSH32 0x2D4950CE1E2382DA6B7E8C59A8ABF4531AC5406EB9415B656FD488A1ABA703FE PUSH1 0x20 DUP4 ADD MSTORE PUSH1 0x40 DUP10 ADD CALLDATALOAD SWAP1 POP DUP1 PUSH1 0x40 DUP4 ADD MSTORE PUSH1 0x0 DUP1 MLOAD PUSH1 0x20 PUSH2 0x19B3 DUP4 CODECOPY DUP2 MLOAD SWAP2 MSTORE DUP2 LT DUP5 AND SWAP4 POP PUSH1 0x40 DUP3 PUSH1 0x60 DUP5 PUSH1 0x7 GAS STATICCALL DUP5 AND SWAP4 POP PUSH1 0x40 DUP4 PUSH1 0x80 DUP6 PUSH1 0x6 GAS STATICCALL PUSH32 0xA491E0C29A0292F9559C8092D95A649A6A8E3078656A79AB2494A60D4DF7AF1 DUP4 MSTORE PUSH32 0x1648256F5C885CFEDD782015A3E7EE5CD77A4788D3046888D99B87BAAAE19DF2 PUSH1 0x20 DUP5 ADD MSTORE DUP9 MLOAD PUSH1 0x40 DUP1 DUP6 ADD DUP3 SWAP1 MSTORE PUSH1 0x0 DUP1 MLOAD PUSH1 0x20 PUSH2 0x19B3 DUP4 CODECOPY DUP2 MLOAD SWAP2 MSTORE SWAP1 SWAP2 LT SWAP2 SWAP1 SWAP6 AND AND SWAP4 SWAP1 POP DUP2 PUSH1 0x60 DUP2 PUSH1 0x7 GAS STATICCALL DUP4 AND SWAP3 POP POP PUSH1 0x40 DUP2 PUSH1 0x80 DUP4 PUSH1 0x6 GAS STATICCALL DUP2 MLOAD PUSH1 0x20 SWAP1 SWAP3 ADD MLOAD SWAP2 SWAP5 POP SWAP1 SWAP3 POP AND DUP1 PUSH2 0xD91 JUMPI PUSH1 0x40 MLOAD PUSH4 0xA54F8E27 PUSH1 0xE0 SHL DUP2 MSTORE PUSH1 0x4 ADD PUSH1 0x40 MLOAD DUP1 SWAP2 SUB SWAP1 REVERT JUMPDEST POP SWAP4 POP SWAP4 SWAP2 POP POP JUMP JUMPDEST PUSH1 0x0 DUP1 DUP3 PUSH1 0x0 SUB PUSH2 0xDB0 JUMPI POP PUSH1 0x0 SWAP3 DUP4 SWAP3 POP SWAP1 POP JUMP JUMPDEST PUSH1 0x1 DUP4 DUP2 SHR SWAP3 POP DUP1 DUP5 AND EQ PUSH1 0x0 DUP1 MLOAD PUSH1 0x20 PUSH2 0x1993 DUP4 CODECOPY DUP2 MLOAD SWAP2 MSTORE DUP4 LT PUSH2 0xDE9 JUMPI PUSH1 0x40 MLOAD PUSH4 0x1FF3747D PUSH1 0xE2 SHL DUP2 MSTORE PUSH1 0x4 ADD PUSH1 0x40 MLOAD DUP1 SWAP2 SUB SWAP1 REVERT JUMPDEST PUSH2 0xE26 PUSH1 0x0 DUP1 MLOAD PUSH1 0x20 PUSH2 0x1993 DUP4 CODECOPY DUP2 MLOAD SWAP2 MSTORE PUSH1 0x3 PUSH1 0x0 DUP1 MLOAD PUSH1 0x20 PUSH2 0x1993 DUP4 CODECOPY DUP2 MLOAD SWAP2 MSTORE DUP7 PUSH1 0x0 DUP1 MLOAD PUSH1 0x20 PUSH2 0x1993 DUP4 CODECOPY DUP2 MLOAD SWAP2 MSTORE DUP9 DUP10 MULMOD MULMOD ADDMOD PUSH2 0x1412 JUMP JUMPDEST SWAP2 POP DUP1 ISZERO PUSH2 0xE3A JUMPI PUSH2 0xE37 DUP3 PUSH2 0x1476 JUMP JUMPDEST SWAP2 POP JUMPDEST POP SWAP2 POP SWAP2 JUMP JUMPDEST PUSH1 0x0 DUP1 DUP1 DUP1 DUP6 ISZERO DUP1 ISZERO PUSH2 0xE51 JUMPI POP DUP5 ISZERO JUMPDEST ISZERO PUSH2 0xE67 JUMPI POP PUSH1 0x0 SWAP3 POP DUP3 SWAP2 POP DUP2 SWAP1 POP DUP1 PUSH2 0x101D JUMP JUMPDEST PUSH1 0x2 DUP7 DUP2 SHR SWAP5 POP DUP6 SWAP4 POP PUSH1 0x1 DUP1 DUP9 AND EQ SWAP1 DUP1 DUP9 AND EQ PUSH1 0x0 DUP1 MLOAD PUSH1 0x20 PUSH2 0x1993 DUP4 CODECOPY DUP2 MLOAD SWAP2 MSTORE DUP7 LT ISZERO DUP1 PUSH2 0xEA7 JUMPI POP PUSH1 0x0 DUP1 MLOAD PUSH1 0x20 PUSH2 0x1993 DUP4 CODECOPY DUP2 MLOAD SWAP2 MSTORE DUP6 LT ISZERO JUMPDEST ISZERO PUSH2 0xEC5 JUMPI PUSH1 0x40 MLOAD PUSH4 0x1FF3747D PUSH1 0xE2 SHL DUP2 MSTORE PUSH1 0x4 ADD PUSH1 0x40 MLOAD DUP1 SWAP2 SUB SWAP1 REVERT JUMPDEST PUSH1 0x0 PUSH1 0x0 DUP1 MLOAD PUSH1 0x20 PUSH2 0x1993 DUP4 CODECOPY DUP2 MLOAD SWAP2 MSTORE PUSH2 0xEEF PUSH1 0x3 PUSH1 0x0 DUP1 MLOAD PUSH1 0x20 PUSH2 0x1993 DUP4 CODECOPY DUP2 MLOAD SWAP2 MSTORE PUSH2 0x1971 JUMP JUMPDEST PUSH1 0x0 DUP1 MLOAD PUSH1 0x20 PUSH2 0x1993 DUP4 CODECOPY DUP2 MLOAD SWAP2 MSTORE DUP9 DUP11 MULMOD MULMOD SWAP1 POP PUSH1 0x0 PUSH1 0x0 DUP1 MLOAD PUSH1 0x20 PUSH2 0x1993 DUP4 CODECOPY DUP2 MLOAD SWAP2 MSTORE DUP9 PUSH1 0x0 DUP1 MLOAD PUSH1 0x20 PUSH2 0x1993 DUP4 CODECOPY DUP2 MLOAD SWAP2 MSTORE DUP11 DUP12 MULMOD MULMOD SWAP1 POP PUSH1 0x0 PUSH1 0x0 DUP1 MLOAD PUSH1 0x20 PUSH2 0x1993 DUP4 CODECOPY DUP2 MLOAD SWAP2 MSTORE DUP9 PUSH1 0x0 DUP1 MLOAD PUSH1 0x20 PUSH2 0x1993 DUP4 CODECOPY DUP2 MLOAD SWAP2 MSTORE DUP11 DUP12 MULMOD MULMOD SWAP1 POP PUSH1 0x0 DUP1 MLOAD PUSH1 0x20 PUSH2 0x1993 DUP4 CODECOPY DUP2 MLOAD SWAP2 MSTORE DUP1 PUSH1 0x0 DUP1 MLOAD PUSH1 0x20 PUSH2 0x1993 DUP4 CODECOPY DUP2 MLOAD SWAP2 MSTORE DUP11 DUP7 MULMOD DUP5 ADDMOD PUSH32 0x2B149D40CEB8AAAE81BE18991BE06AC3B5B4C5E559DBEFA33267E6DC24A138E5 ADDMOD SWAP7 POP PUSH2 0xFE8 PUSH1 0x0 DUP1 MLOAD PUSH1 0x20 PUSH2 0x1993 DUP4 CODECOPY DUP2 MLOAD SWAP2 MSTORE DUP1 PUSH1 0x0 DUP1 MLOAD PUSH1 0x20 PUSH2 0x1993 DUP4 CODECOPY DUP2 MLOAD SWAP2 MSTORE DUP13 DUP8 MULMOD DUP5 ADDMOD PUSH32 0x2FCD3AC2A640A154EB23960892A85A68F031CA0C8344B23A577DCF1052B9E775 ADDMOD PUSH2 0x1476 JUMP JUMPDEST SWAP6 POP PUSH2 0xFF5 DUP8 DUP8 DUP7 PUSH2 0x148F JUMP JUMPDEST SWAP1 SWAP8 POP SWAP6 POP DUP5 ISZERO PUSH2 0x1017 JUMPI PUSH2 0x1009 DUP8 PUSH2 0x1476 JUMP JUMPDEST SWAP7 POP PUSH2 0x1014 DUP7 PUSH2 0x1476 JUMP JUMPDEST SWAP6 POP JUMPDEST POP POP POP POP POP JUMPDEST SWAP3 SWAP6 SWAP2 SWAP5 POP SWAP3 POP JUMP JUMPDEST PUSH1 0x0 PUSH1 0x0 DUP1 MLOAD PUSH1 0x20 PUSH2 0x1993 DUP4 CODECOPY DUP2 MLOAD SWAP2 MSTORE DUP4 LT ISZERO DUP1 PUSH2 0x1053 JUMPI POP PUSH1 0x0 DUP1 MLOAD PUSH1 0x20 PUSH2 0x1993 DUP4 CODECOPY DUP2 MLOAD SWAP2 MSTORE DUP3 LT ISZERO JUMPDEST ISZERO PUSH2 0x1071 JUMPI PUSH1 0x40 MLOAD PUSH4 0x1FF3747D PUSH1 0xE2 SHL DUP2 MSTORE PUSH1 0x4 ADD PUSH1 0x40 MLOAD DUP1 SWAP2 SUB SWAP1 REVERT JUMPDEST DUP3 ISZERO DUP1 ISZERO PUSH2 0x107D JUMPI POP DUP2 ISZERO JUMPDEST ISZERO PUSH2 0x108A JUMPI POP PUSH1 0x0 PUSH2 0x1115 JUMP JUMPDEST PUSH1 0x0 PUSH2 0x10C9 PUSH1 0x0 DUP1 MLOAD PUSH1 0x20 PUSH2 0x1993 DUP4 CODECOPY DUP2 MLOAD SWAP2 MSTORE PUSH1 0x3 PUSH1 0x0 DUP1 MLOAD PUSH1 0x20 PUSH2 0x1993 DUP4 CODECOPY DUP2 MLOAD SWAP2 MSTORE DUP8 PUSH1 0x0 DUP1 MLOAD PUSH1 0x20 PUSH2 0x1993 DUP4 CODECOPY DUP2 MLOAD SWAP2 MSTORE DUP10 DUP11 MULMOD MULMOD ADDMOD PUSH2 0x1412 JUMP JUMPDEST SWAP1 POP DUP1 DUP4 SUB PUSH2 0x10DE JUMPI POP POP PUSH1 0x1 DUP3 SWAP1 SHL PUSH2 0x1115 JUMP JUMPDEST PUSH2 0x10E7 DUP2 PUSH2 0x1476 JUMP JUMPDEST DUP4 SUB PUSH2 0x10FA JUMPI POP POP PUSH1 0x1 DUP3 DUP2 SHL OR PUSH2 0x1115 JUMP JUMPDEST PUSH1 0x40 MLOAD PUSH4 0x1FF3747D PUSH1 0xE2 SHL DUP2 MSTORE PUSH1 0x4 ADD PUSH1 0x40 MLOAD DUP1 SWAP2 SUB SWAP1 REVERT JUMPDEST POP JUMPDEST SWAP3 SWAP2 POP POP JUMP JUMPDEST PUSH1 0x0 DUP1 PUSH1 0x0 DUP1 MLOAD PUSH1 0x20 PUSH2 0x1993 DUP4 CODECOPY DUP2 MLOAD SWAP2 MSTORE DUP7 LT ISZERO DUP1 PUSH2 0x1149 JUMPI POP PUSH1 0x0 DUP1 MLOAD PUSH1 0x20 PUSH2 0x1993 DUP4 CODECOPY DUP2 MLOAD SWAP2 MSTORE DUP6 LT ISZERO JUMPDEST DUP1 PUSH2 0x1162 JUMPI POP PUSH1 0x0 DUP1 MLOAD PUSH1 0x20 PUSH2 0x1993 DUP4 CODECOPY DUP2 MLOAD SWAP2 MSTORE DUP5 LT ISZERO JUMPDEST DUP1 PUSH2 0x117B JUMPI POP PUSH1 0x0 DUP1 MLOAD PUSH1 0x20 PUSH2 0x1993 DUP4 CODECOPY DUP2 MLOAD SWAP2 MSTORE DUP4 LT ISZERO JUMPDEST ISZERO PUSH2 0x1199 JUMPI PUSH1 0x40 MLOAD PUSH4 0x1FF3747D PUSH1 0xE2 SHL DUP2 MSTORE PUSH1 0x4 ADD PUSH1 0x40 MLOAD DUP1 SWAP2 SUB SWAP1 REVERT JUMPDEST DUP3 DUP5 DUP7 DUP9 OR OR OR PUSH1 0x0 SUB PUSH2 0x11B2 JUMPI POP PUSH1 0x0 SWAP1 POP DUP1 PUSH2 0x1409 JUMP JUMPDEST PUSH1 0x0 DUP1 DUP1 PUSH1 0x0 DUP1 MLOAD PUSH1 0x20 PUSH2 0x1993 DUP4 CODECOPY DUP2 MLOAD SWAP2 MSTORE PUSH2 0x11DE PUSH1 0x3 PUSH1 0x0 DUP1 MLOAD PUSH1 0x20 PUSH2 0x1993 DUP4 CODECOPY DUP2 MLOAD SWAP2 MSTORE PUSH2 0x1971 JUMP JUMPDEST PUSH1 0x0 DUP1 MLOAD PUSH1 0x20 PUSH2 0x1993 DUP4 CODECOPY DUP2 MLOAD SWAP2 MSTORE DUP11 DUP13 MULMOD MULMOD SWAP1 POP PUSH1 0x0 PUSH1 0x0 DUP1 MLOAD PUSH1 0x20 PUSH2 0x1993 DUP4 CODECOPY DUP2 MLOAD SWAP2 MSTORE DUP11 PUSH1 0x0 DUP1 MLOAD PUSH1 0x20 PUSH2 0x1993 DUP4 CODECOPY DUP2 MLOAD SWAP2 MSTORE DUP13 DUP14 MULMOD MULMOD SWAP1 POP PUSH1 0x0 PUSH1 0x0 DUP1 MLOAD PUSH1 0x20 PUSH2 0x1993 DUP4 CODECOPY DUP2 MLOAD SWAP2 MSTORE DUP11 PUSH1 0x0 DUP1 MLOAD PUSH1 0x20 PUSH2 0x1993 DUP4 CODECOPY DUP2 MLOAD SWAP2 MSTORE DUP13 DUP14 MULMOD MULMOD SWAP1 POP PUSH1 0x0 DUP1 MLOAD PUSH1 0x20 PUSH2 0x1993 DUP4 CODECOPY DUP2 MLOAD SWAP2 MSTORE DUP1 PUSH1 0x0 DUP1 MLOAD PUSH1 0x20 PUSH2 0x1993 DUP4 CODECOPY DUP2 MLOAD SWAP2 MSTORE DUP13 DUP7 MULMOD DUP5 ADDMOD PUSH32 0x2B149D40CEB8AAAE81BE18991BE06AC3B5B4C5E559DBEFA33267E6DC24A138E5 ADDMOD SWAP5 POP PUSH2 0x12D7 PUSH1 0x0 DUP1 MLOAD PUSH1 0x20 PUSH2 0x1993 DUP4 CODECOPY DUP2 MLOAD SWAP2 MSTORE DUP1 PUSH1 0x0 DUP1 MLOAD PUSH1 0x20 PUSH2 0x1993 DUP4 CODECOPY DUP2 MLOAD SWAP2 MSTORE DUP15 DUP8 MULMOD DUP5 ADDMOD PUSH32 0x2FCD3AC2A640A154EB23960892A85A68F031CA0C8344B23A577DCF1052B9E775 ADDMOD PUSH2 0x1476 JUMP JUMPDEST SWAP4 POP POP POP POP PUSH1 0x0 DUP1 PUSH2 0x1328 PUSH1 0x0 DUP1 MLOAD PUSH1 0x20 PUSH2 0x1993 DUP4 CODECOPY DUP2 MLOAD SWAP2 MSTORE DUP1 PUSH2 0x12FE JUMPI PUSH2 0x12FE PUSH2 0x1939 JUMP JUMPDEST PUSH1 0x0 DUP1 MLOAD PUSH1 0x20 PUSH2 0x1993 DUP4 CODECOPY DUP2 MLOAD SWAP2 MSTORE DUP6 DUP7 MULMOD PUSH1 0x0 DUP1 MLOAD PUSH1 0x20 PUSH2 0x1993 DUP4 CODECOPY DUP2 MLOAD SWAP2 MSTORE DUP8 DUP9 MULMOD ADDMOD PUSH2 0x1412 JUMP JUMPDEST SWAP1 POP PUSH2 0x1375 PUSH1 0x0 DUP1 MLOAD PUSH1 0x20 PUSH2 0x1993 DUP4 CODECOPY DUP2 MLOAD SWAP2 MSTORE PUSH32 0x183227397098D014DC2822DB40C0AC2ECBC0B548B438E5469E10460B6C3E7EA4 PUSH1 0x0 DUP1 MLOAD PUSH1 0x20 PUSH2 0x1993 DUP4 CODECOPY DUP2 MLOAD SWAP2 MSTORE DUP5 DUP9 ADDMOD MULMOD PUSH2 0x15CD JUMP JUMPDEST ISZERO SWAP2 POP POP PUSH2 0x1384 DUP4 DUP4 DUP4 PUSH2 0x148F JUMP JUMPDEST SWAP1 SWAP4 POP SWAP2 POP DUP7 DUP4 EQ DUP1 ISZERO PUSH2 0x1397 JUMPI POP DUP2 DUP7 EQ JUMPDEST ISZERO PUSH2 0x13C1 JUMPI DUP1 PUSH2 0x13A8 JUMPI PUSH1 0x0 PUSH2 0x13AB JUMP JUMPDEST PUSH1 0x2 JUMPDEST PUSH1 0xFF AND PUSH1 0x2 DUP11 SWAP1 SHL OR PUSH1 0x0 OR SWAP5 POP DUP8 SWAP4 POP PUSH2 0x1405 JUMP JUMPDEST PUSH2 0x13CA DUP4 PUSH2 0x1476 JUMP JUMPDEST DUP8 EQ DUP1 ISZERO PUSH2 0x13DF JUMPI POP PUSH2 0x13DC DUP3 PUSH2 0x1476 JUMP JUMPDEST DUP7 EQ JUMPDEST ISZERO PUSH2 0x10FA JUMPI DUP1 PUSH2 0x13F0 JUMPI PUSH1 0x0 PUSH2 0x13F3 JUMP JUMPDEST PUSH1 0x2 JUMPDEST PUSH1 0xFF AND PUSH1 0x2 DUP11 SWAP1 SHL OR PUSH1 0x1 OR SWAP5 POP DUP8 SWAP4 POP JUMPDEST POP POP POP JUMPDEST SWAP5 POP SWAP5 SWAP3 POP POP POP JUMP JUMPDEST PUSH1 0x0 PUSH2 0x143E DUP3 PUSH32 0xC19139CB84C680A6E14116DA060561765E05AA45A1C72A34F082305B61F3F52 PUSH2 0x1617 JUMP JUMPDEST SWAP1 POP DUP2 PUSH1 0x0 DUP1 MLOAD PUSH1 0x20 PUSH2 0x1993 DUP4 CODECOPY DUP2 MLOAD SWAP2 MSTORE DUP3 DUP4 MULMOD EQ PUSH2 0x1471 JUMPI PUSH1 0x40 MLOAD PUSH4 0x1FF3747D PUSH1 0xE2 SHL DUP2 MSTORE PUSH1 0x4 ADD PUSH1 0x40 MLOAD DUP1 SWAP2 SUB SWAP1 REVERT JUMPDEST SWAP2 SWAP1 POP JUMP JUMPDEST PUSH1 0x0 DUP1 MLOAD PUSH1 0x20 PUSH2 0x1993 DUP4 CODECOPY DUP2 MLOAD SWAP2 MSTORE SWAP1 DUP2 SWAP1 MOD DUP2 SUB MOD SWAP1 JUMP JUMPDEST PUSH1 0x0 DUP1 DUP1 PUSH2 0x14C1 PUSH1 0x0 DUP1 MLOAD PUSH1 0x20 PUSH2 0x1993 DUP4 CODECOPY DUP2 MLOAD SWAP2 MSTORE DUP1 DUP8 DUP9 MULMOD PUSH1 0x0 DUP1 MLOAD PUSH1 0x20 PUSH2 0x1993 DUP4 CODECOPY DUP2 MLOAD SWAP2 MSTORE DUP10 DUP11 MULMOD ADDMOD PUSH2 0x1412 JUMP JUMPDEST SWAP1 POP DUP4 ISZERO PUSH2 0x14D5 JUMPI PUSH2 0x14D2 DUP2 PUSH2 0x1476 JUMP JUMPDEST SWAP1 POP JUMPDEST PUSH2 0x1520 PUSH1 0x0 DUP1 MLOAD PUSH1 0x20 PUSH2 0x1993 DUP4 CODECOPY DUP2 MLOAD SWAP2 MSTORE PUSH32 0x183227397098D014DC2822DB40C0AC2ECBC0B548B438E5469E10460B6C3E7EA4 PUSH1 0x0 DUP1 MLOAD PUSH1 0x20 PUSH2 0x1993 DUP4 CODECOPY DUP2 MLOAD SWAP2 MSTORE DUP5 DUP11 ADDMOD MULMOD PUSH2 0x1412 JUMP JUMPDEST SWAP3 POP PUSH1 0x0 DUP1 MLOAD PUSH1 0x20 PUSH2 0x1993 DUP4 CODECOPY DUP2 MLOAD SWAP2 MSTORE PUSH2 0x154C PUSH1 0x0 DUP1 MLOAD PUSH1 0x20 PUSH2 0x1993 DUP4 CODECOPY DUP2 MLOAD SWAP2 MSTORE PUSH1 0x2 DUP7 MULMOD PUSH2 0x167C JUMP JUMPDEST DUP7 MULMOD SWAP2 POP PUSH1 0x0 DUP1 MLOAD PUSH1 0x20 PUSH2 0x1993 DUP4 CODECOPY DUP2 MLOAD SWAP2 MSTORE PUSH2 0x1579 PUSH1 0x0 DUP1 MLOAD PUSH1 0x20 PUSH2 0x1993 DUP4 CODECOPY DUP2 MLOAD SWAP2 MSTORE DUP5 DUP6 MULMOD PUSH2 0x1476 JUMP JUMPDEST PUSH1 0x0 DUP1 MLOAD PUSH1 0x20 PUSH2 0x1993 DUP4 CODECOPY DUP2 MLOAD SWAP2 MSTORE DUP6 DUP7 MULMOD ADDMOD DUP7 EQ ISZERO DUP1 PUSH2 0x15AF JUMPI POP PUSH1 0x0 DUP1 MLOAD PUSH1 0x20 PUSH2 0x1993 DUP4 CODECOPY DUP2 MLOAD SWAP2 MSTORE DUP1 DUP4 DUP6 MULMOD PUSH1 0x2 MULMOD DUP6 EQ ISZERO JUMPDEST ISZERO PUSH2 0xD91 JUMPI PUSH1 0x40 MLOAD PUSH4 0x1FF3747D PUSH1 0xE2 SHL DUP2 MSTORE PUSH1 0x4 ADD PUSH1 0x40 MLOAD DUP1 SWAP2 SUB SWAP1 REVERT JUMPDEST PUSH1 0x0 DUP1 PUSH2 0x15FA DUP4 PUSH32 0xC19139CB84C680A6E14116DA060561765E05AA45A1C72A34F082305B61F3F52 PUSH2 0x1617 JUMP JUMPDEST SWAP1 POP DUP3 PUSH1 0x0 DUP1 MLOAD PUSH1 0x20 PUSH2 0x1993 DUP4 CODECOPY DUP2 MLOAD SWAP2 MSTORE DUP3 DUP4 MULMOD EQ SWAP4 SWAP3 POP POP POP JUMP JUMPDEST PUSH1 0x0 DUP1 PUSH1 0x40 MLOAD PUSH1 0x20 DUP2 MSTORE PUSH1 0x20 DUP1 DUP3 ADD MSTORE PUSH1 0x20 PUSH1 0x40 DUP3 ADD MSTORE DUP5 PUSH1 0x60 DUP3 ADD MSTORE DUP4 PUSH1 0x80 DUP3 ADD MSTORE PUSH1 0x0 DUP1 MLOAD PUSH1 0x20 PUSH2 0x1993 DUP4 CODECOPY DUP2 MLOAD SWAP2 MSTORE PUSH1 0xA0 DUP3 ADD MSTORE PUSH1 0x20 DUP2 PUSH1 0xC0 DUP4 PUSH1 0x5 GAS STATICCALL SWAP1 MLOAD SWAP3 POP SWAP1 POP DUP1 PUSH2 0x1113 JUMPI PUSH1 0x40 MLOAD PUSH4 0x1FF3747D PUSH1 0xE2 SHL DUP2 MSTORE PUSH1 0x4 ADD PUSH1 0x40 MLOAD DUP1 SWAP2 SUB SWAP1 REVERT JUMPDEST PUSH1 0x0 PUSH2 0x16A8 DUP3 PUSH32 0x30644E72E131A029B85045B68181585D97816A916871CA8D3C208C16D87CFD45 PUSH2 0x1617 JUMP JUMPDEST SWAP1 POP PUSH1 0x0 DUP1 MLOAD PUSH1 0x20 PUSH2 0x1993 DUP4 CODECOPY DUP2 MLOAD SWAP2 MSTORE DUP2 DUP4 MULMOD PUSH1 0x1 EQ PUSH2 0x1471 JUMPI PUSH1 0x40 MLOAD PUSH4 0x1FF3747D PUSH1 0xE2 SHL DUP2 MSTORE PUSH1 0x4 ADD PUSH1 0x40 MLOAD DUP1 SWAP2 SUB SWAP1 REVERT JUMPDEST PUSH1 0x40 MLOAD DUP1 PUSH1 0x20 ADD PUSH1 0x40 MSTORE DUP1 PUSH1 0x1 SWAP1 PUSH1 0x20 DUP3 MUL DUP1 CALLDATASIZE DUP4 CALLDATACOPY POP SWAP2 SWAP3 SWAP2 POP POP JUMP JUMPDEST PUSH1 0x40 MLOAD DUP1 PUSH1 0x40 ADD PUSH1 0x40 MSTORE DUP1 PUSH1 0x2 SWAP1 PUSH1 0x20 DUP3 MUL DUP1 CALLDATASIZE DUP4 CALLDATACOPY POP SWAP2 SWAP3 SWAP2 POP POP JUMP JUMPDEST PUSH1 0x40 MLOAD DUP1 PUSH2 0x300 ADD PUSH1 0x40 MSTORE DUP1 PUSH1 0x18 SWAP1 PUSH1 0x20 DUP3 MUL DUP1 CALLDATASIZE DUP4 CALLDATACOPY POP SWAP2 SWAP3 SWAP2 POP POP JUMP JUMPDEST PUSH1 0x40 MLOAD DUP1 PUSH1 0x80 ADD PUSH1 0x40 MSTORE DUP1 PUSH1 0x4 SWAP1 PUSH1 0x20 DUP3 MUL DUP1 CALLDATASIZE DUP4 CALLDATACOPY POP SWAP2 SWAP3 SWAP2 POP POP JUMP JUMPDEST DUP1 PUSH2 0x100 DUP2 ADD DUP4 LT ISZERO PUSH2 0x1115 JUMPI PUSH1 0x0 DUP1 REVERT JUMPDEST DUP1 PUSH1 0x40 DUP2 ADD DUP4 LT ISZERO PUSH2 0x1115 JUMPI PUSH1 0x0 DUP1 REVERT JUMPDEST DUP1 PUSH1 0x60 DUP2 ADD DUP4 LT ISZERO PUSH2 0x1115 JUMPI PUSH1 0x0 DUP1 REVERT JUMPDEST PUSH1 0x0 DUP1 PUSH1 0x0 DUP1 PUSH2 0x1E0 DUP6 DUP8 SUB SLT ISZERO PUSH2 0x17A0 JUMPI PUSH1 0x0 DUP1 REVERT JUMPDEST PUSH2 0x17AA DUP7 DUP7 PUSH2 0x1755 JUMP JUMPDEST SWAP4 POP PUSH2 0x17BA DUP7 PUSH2 0x100 DUP8 ADD PUSH2 0x1767 JUMP JUMPDEST SWAP3 POP PUSH2 0x17CA DUP7 PUSH2 0x140 DUP8 ADD PUSH2 0x1767 JUMP JUMPDEST SWAP2 POP PUSH2 0x17DA DUP7 PUSH2 0x180 DUP8 ADD PUSH2 0x1778 JUMP JUMPDEST SWAP1 POP SWAP3 SWAP6 SWAP2 SWAP5 POP SWAP3 POP JUMP JUMPDEST PUSH1 0x0 DUP1 PUSH1 0x0 DUP1 PUSH2 0x120 DUP6 DUP8 SUB SLT ISZERO PUSH2 0x17FC JUMPI PUSH1 0x0 DUP1 REVERT JUMPDEST PUSH1 0x80 DUP6 ADD DUP7 DUP2 GT ISZERO PUSH2 0x180D JUMPI PUSH1 0x0 DUP1 REVERT JUMPDEST DUP6 SWAP5 POP PUSH1 0xA0 DUP7 ADD DUP8 DUP2 GT ISZERO PUSH2 0x1821 JUMPI PUSH1 0x0 DUP1 REVERT JUMPDEST SWAP1 SWAP4 POP CALLDATALOAD SWAP2 POP PUSH2 0x17DA DUP7 PUSH1 0xC0 DUP8 ADD PUSH2 0x1778 JUMP JUMPDEST PUSH1 0x0 DUP1 PUSH1 0x0 PUSH2 0x180 DUP5 DUP7 SUB SLT ISZERO PUSH2 0x184A JUMPI PUSH1 0x0 DUP1 REVERT JUMPDEST PUSH2 0x1854 DUP6 DUP6 PUSH2 0x1755 JUMP JUMPDEST SWAP3 POP PUSH2 0x1864 DUP6 PUSH2 0x100 DUP7 ADD PUSH2 0x1767 JUMP JUMPDEST SWAP2 POP PUSH2 0x1874 DUP6 PUSH2 0x140 DUP7 ADD PUSH2 0x1767 JUMP JUMPDEST SWAP1 POP SWAP3 POP SWAP3 POP SWAP3 JUMP JUMPDEST PUSH1 0xC0 DUP2 ADD DUP2 DUP6 PUSH1 0x0 JUMPDEST PUSH1 0x4 DUP2 LT ISZERO PUSH2 0x18A5 JUMPI DUP2 MLOAD DUP4 MSTORE PUSH1 0x20 SWAP3 DUP4 ADD SWAP3 SWAP1 SWAP2 ADD SWAP1 PUSH1 0x1 ADD PUSH2 0x1886 JUMP JUMPDEST POP POP POP PUSH1 0x80 DUP3 ADD DUP5 PUSH1 0x0 JUMPDEST PUSH1 0x1 DUP2 LT ISZERO PUSH2 0x18CF JUMPI DUP2 MLOAD DUP4 MSTORE PUSH1 0x20 SWAP3 DUP4 ADD SWAP3 SWAP1 SWAP2 ADD SWAP1 PUSH1 0x1 ADD PUSH2 0x18B0 JUMP JUMPDEST POP POP POP DUP3 PUSH1 0xA0 DUP4 ADD MSTORE SWAP5 SWAP4 POP POP POP POP JUMP JUMPDEST PUSH4 0x4E487B71 PUSH1 0xE0 SHL PUSH1 0x0 MSTORE PUSH1 0x32 PUSH1 0x4 MSTORE PUSH1 0x24 PUSH1 0x0 REVERT JUMPDEST DUP4 DUP2 MSTORE DUP3 PUSH1 0x20 DUP3 ADD MSTORE PUSH1 0x0 PUSH1 0x40 DUP3 ADD DUP4 MLOAD PUSH1 0x20 DUP6 ADD PUSH1 0x0 JUMPDEST DUP3 DUP2 LT ISZERO PUSH2 0x192C JUMPI DUP2 MLOAD DUP5 MSTORE PUSH1 0x20 SWAP4 DUP5 ADD SWAP4 SWAP1 SWAP2 ADD SWAP1 PUSH1 0x1 ADD PUSH2 0x190E JUMP JUMPDEST POP SWAP2 SWAP8 SWAP7 POP POP POP POP POP POP POP JUMP JUMPDEST PUSH4 0x4E487B71 PUSH1 0xE0 SHL PUSH1 0x0 MSTORE PUSH1 0x12 PUSH1 0x4 MSTORE PUSH1 0x24 PUSH1 0x0 REVERT JUMPDEST PUSH1 0x0 DUP3 PUSH2 0x196C JUMPI PUSH4 0x4E487B71 PUSH1 0xE0 SHL PUSH1 0x0 MSTORE PUSH1 0x12 PUSH1 0x4 MSTORE PUSH1 0x24 PUSH1 0x0 REVERT JUMPDEST POP MOD SWAP1 JUMP JUMPDEST DUP2 DUP2 SUB DUP2 DUP2 GT ISZERO PUSH2 0x1115 JUMPI PUSH4 0x4E487B71 PUSH1 0xE0 SHL PUSH1 0x0 MSTORE PUSH1 0x11 PUSH1 0x4 MSTORE PUSH1 0x24 PUSH1 0x0 REVERT INVALID ADDRESS PUSH5 0x4E72E131A0 0x29 0xB8 POP GASLIMIT 0xB6 DUP2 DUP2 PC TSTORE SWAP8 DUP2 PUSH11 0x916871CA8D3C208C16D87C REVERT SELFBALANCE ADDRESS PUSH5 0x4E72E131A0 0x29 0xB8 POP GASLIMIT 0xB6 DUP2 DUP2 PC TSTORE 0x28 CALLER 0xE8 BASEFEE PUSH26 0xB9709143E1F593F0000001A2646970667358221220DCD873250B SELFBALANCE CHAINID SSTORE 0xC7 0x2A PUSH13 0x1925325D580044A78FEDA3B1A6 0xCF 0xE MSTORE BYTE 0xBE PUSH19 0x451264736F6C634300081C0033000000000000 "},"methodIdentifiers":{"compressProof(uint256[8],uint256[2],uint256[2])":"b1c3a00e","verifyCompressedProof(uint256[4],uint256[1],uint256,uint256[3])":"30bb0bd9","verifyProof(uint256[8],uint256[2],uint256[2],uint256[3])":"2865dfb9"}}}}}