{"src/Groth16Verifier.sol":{"Groth16Verifier":{"abi":[{"inputs":[],"name":"ProofInvalid","type":"error"},{"inputs":[],"name":"PublicInputNotInField","type":"error"},{"inputs":[{"internalType":"uint256[8]","name":"proof","type":"uint256[8]"}],"name":"compressProof","outputs":[{"internalType":"uint256[4]","name":"compressed","type":"uint256[4]"}],"stateMutability":"view","type":"function"},{"inputs":[{"internalType":"uint256[4]","name":"compressedProof","type":"uint256[4]"},{"internalType":"uint256[4]","name":"input","type":"uint256[4]"}],"name":"verifyCompressedProof","outputs":[],"stateMutability":"view","type":"function"},{"inputs":[{"internalType":"uint256[8]","name":"proof","type":"uint256[8]"},{"internalType":"uint256[4]","name":"input","type":"uint256[4]"}],"name":"verifyProof","outputs":[],"stateMutability":"view","type":"function"}],"evm":{"bytecode":{"linkReferences":{},"object":"6080604052348015600f57600080fd5b506113e88061001f6000396000f3fe608060405234801561001057600080fd5b50600436106100415760003560e01c8063235725111461004657806344f636921461005b578063f2457c8d14610084575b600080fd5b610059610054366004611282565b610097565b005b61006e6100693660046112b9565b610316565b60405161007b91906112dd565b60405180910390f35b61005961009236600461130e565b610373565b6000806100a383610691565b9150915060006040516101008682377edc4ec4d6ceb56cea9513654c5d3822bf5a448f6547a1867bea3c3f4af405826101008201527f1848d6ab0d020e9707d065f09d9847f449b1516015af2958d4aacacb543595066101208201527f156c0140103691caf37787e0930b42274f98ba557cfd4012d617d0d97a5b439d6101408201527f0f4587c2f0c7f5f3e48c9fe859ff3390be9ca99dac833c92be37b6624452cc586101608201527f156acdb4c47eb32981e023e989ddce420d13ad3771d1e0e5b2ed6d0cfa409f666101808201527f2541708b575b819ee507975f0eeaeaf827a371a7b9ed5b0c2d704cfbebdcfd2b6101a08201527f13c040640e3a99b9cca3c5aa80be86f5906e2aaaecd95978376eb728ce02c7e06101c08201527f082959fd0a7165b00ed92828be942ebfacccfabcf99172eb0267d43d67f3d45c6101e08201527f0203fe888aacf3d86cb52115d9c1ce451da86eeea1d020609e94b58556e22cf26102008201527f226488901e7eb23228e6f884c4ec6e7d9f6e466c50dd6df27770cf730b638ef861022082015283610240820152826102608201527f14ef4e24b04f5a4d9dbb80db107c3b3495036a9bb83434ad67caa81b5b775ee36102808201527f176827524b489c94c4fd12b30623c161a9f3953579d35895e10285cd7c3236696102a08201527f119417bec62ae8c0ea24c13ae359ce206a90bfab2b43950e88394fa821fbc6996102c08201527f2bf2b5034394d69091d24090e2c8506003867f9c2e7c2d5a226f5aaecb3ee22f6102e08201526020816103008360085afa90511690508061030f57604051631ff3747d60e21b815260040160405180910390fd5b5050505050565b61031e611204565b61033182358360015b60200201356108ba565b815261034f6060830135604084013560a085013560808601356109af565b6020830152604082015261036960c0830135836007610327565b6060820152919050565b61037b611222565b60008061038e85825b6020020135610ca6565b909250905060008080806103aa60408a013560208b0135610d4b565b929650909450925090506000806103c28b6003610384565b915091506000806103d28c610691565b8b8d5260208d018b905260408d0189905260608d018a905260808d0187905260a08d0188905260c08d0186905260e08d018590527edc4ec4d6ceb56cea9513654c5d3822bf5a448f6547a1867bea3c3f4af405826101008e01527f1848d6ab0d020e9707d065f09d9847f449b1516015af2958d4aacacb543595066101208e01527f156c0140103691caf37787e0930b42274f98ba557cfd4012d617d0d97a5b439d6101408e01527f0f4587c2f0c7f5f3e48c9fe859ff3390be9ca99dac833c92be37b6624452cc586101608e01527f156acdb4c47eb32981e023e989ddce420d13ad3771d1e0e5b2ed6d0cfa409f666101808e01527f2541708b575b819ee507975f0eeaeaf827a371a7b9ed5b0c2d704cfbebdcfd2b6101a08e01527f13c040640e3a99b9cca3c5aa80be86f5906e2aaaecd95978376eb728ce02c7e06101c08e01527f082959fd0a7165b00ed92828be942ebfacccfabcf99172eb0267d43d67f3d45c6101e08e01527f0203fe888aacf3d86cb52115d9c1ce451da86eeea1d020609e94b58556e22cf26102008e01527f226488901e7eb23228e6f884c4ec6e7d9f6e466c50dd6df27770cf730b638ef86102208e01526102408d018290526102608d018190527f14ef4e24b04f5a4d9dbb80db107c3b3495036a9bb83434ad67caa81b5b775ee36102808e01527f176827524b489c94c4fd12b30623c161a9f3953579d35895e10285cd7c3236696102a08e01527f119417bec62ae8c0ea24c13ae359ce206a90bfab2b43950e88394fa821fbc6996102c08e01527f2bf2b5034394d69091d24090e2c8506003867f9c2e7c2d5a226f5aaecb3ee22f6102e08e015290925090506000610646611241565b6020816103008f60085afa915081158061066257508051600114155b1561068057604051631ff3747d60e21b815260040160405180910390fd5b505050505050505050505050505050565b6000806000600190506040516040810160007f271cd18b027ea2bbab9d02c8598a91c8e491110a841683cf2b5cc92f096205e183527f01dfa1c1e25650d784a9f48ee14593ad2319dae66d359b634c941de141cf58e860208401527f02aec8b2e792b7be89e6daf32d2cbb3047b8f088050af932dc89f4ead43e5d9282527f0eeccd9b4c5d9560ac1f978dfdd85a4ca02296c4e4316e659e520968544f80bd60208301528635905080604083015260008051602061139383398151915281108416935060408260608460075afa8416935060408360808560065afa841693507f2153cecd95ee8ce236930d023b4e84a418a3abc3d29b88bf640302b0014815f182527f25ec7526e116c1f999bf92681e17524e158cedebe83a9155309eaffb2dd189d560208301526020870135905080604083015260008051602061139383398151915281108416935060408260608460075afa8416935060408360808560065afa8416935060008252600060208301526040870135905080604083015260008051602061139383398151915281108416935060408260608460075afa8416935060408360808560065afa841693506000825260006020830152606087013590508060408301526000805160206113938339815191528110841693505060408160608360075afa831692505060408160808360065afa815160209092015191945090925016806108b45760405163a54f8e2760e01b815260040160405180910390fd5b50915091565b6000600080516020611373833981519152831015806108e757506000805160206113738339815191528210155b1561090557604051631ff3747d60e21b815260040160405180910390fd5b82158015610911575081155b1561091e575060006109a9565b600061095d600080516020611373833981519152600360008051602061137383398151915287600080516020611373833981519152898a090908610f31565b9050808303610972575050600182901b6109a9565b61097b81610f95565b830361098e575050600182811b176109a9565b604051631ff3747d60e21b815260040160405180910390fd5b505b92915050565b600080600080516020611373833981519152861015806109dd57506000805160206113738339815191528510155b806109f657506000805160206113738339815191528410155b80610a0f57506000805160206113738339815191528310155b15610a2d57604051631ff3747d60e21b815260040160405180910390fd5b82848688171717600003610a4657506000905080610c9d565b60008080600080516020611373833981519152610a726003600080516020611373833981519152611351565b6000805160206113738339815191528a8c0909905060006000805160206113738339815191528a6000805160206113738339815191528c8d0909905060006000805160206113738339815191528a6000805160206113738339815191528c8d09099050600080516020611373833981519152806000805160206113738339815191528c860984087f2b149d40ceb8aaae81be18991be06ac3b5b4c5e559dbefa33267e6dc24a138e5089450610b6b600080516020611373833981519152806000805160206113738339815191528e870984087f2fcd3ac2a640a154eb23960892a85a68f031ca0c8344b23a577dcf1052b9e77508610f95565b9350505050600080610bbc60008051602061137383398151915280610b9257610b9261133b565b60008051602061137383398151915285860960008051602061137383398151915287880908610f31565b9050610c096000805160206113738339815191527f183227397098d014dc2822db40c0ac2ecbc0b548b438e5469e10460b6c3e7ea460008051602061137383398151915284880809610fae565b15915050610c18838383610ff8565b90935091508683148015610c2b57508186145b15610c555780610c3c576000610c3f565b60025b60ff1660028a901b176000179450879350610c99565b610c5e83610f95565b87148015610c735750610c7082610f95565b86145b1561098e5780610c84576000610c87565b60025b60ff1660028a901b1760011794508793505b5050505b94509492505050565b60008082600003610cbc57506000928392509050565b600183811c9250808416146000805160206113738339815191528310610cf557604051631ff3747d60e21b815260040160405180910390fd5b610d326000805160206113738339815191526003600080516020611373833981519152866000805160206113738339815191528889090908610f31565b915080156108b457610d4382610f95565b915050915091565b600080808085158015610d5c575084155b15610d7257506000925082915081905080610f28565b600286811c9450859350600180881614908088161460008051602061137383398151915286101580610db257506000805160206113738339815191528510155b15610dd057604051631ff3747d60e21b815260040160405180910390fd5b6000600080516020611373833981519152610dfa6003600080516020611373833981519152611351565b600080516020611373833981519152888a090990506000600080516020611373833981519152886000805160206113738339815191528a8b090990506000600080516020611373833981519152886000805160206113738339815191528a8b09099050600080516020611373833981519152806000805160206113738339815191528a860984087f2b149d40ceb8aaae81be18991be06ac3b5b4c5e559dbefa33267e6dc24a138e5089650610ef3600080516020611373833981519152806000805160206113738339815191528c870984087f2fcd3ac2a640a154eb23960892a85a68f031ca0c8344b23a577dcf1052b9e77508610f95565b9550610f00878786610ff8565b90975095508415610f2257610f1487610f95565b9650610f1f86610f95565b95505b50505050505b92959194509250565b6000610f5d827f0c19139cb84c680a6e14116da060561765e05aa45a1c72a34f082305b61f3f5261113f565b90508160008051602061137383398151915282830914610f9057604051631ff3747d60e21b815260040160405180910390fd5b919050565b6000805160206113738339815191529081900681030690565b600080610fdb837f0c19139cb84c680a6e14116da060561765e05aa45a1c72a34f082305b61f3f5261113f565b905082600080516020611373833981519152828309149392505050565b6000808061102a60008051602061137383398151915280878809600080516020611373833981519152898a0908610f31565b9050831561103e5761103b81610f95565b90505b6110896000805160206113738339815191527f183227397098d014dc2822db40c0ac2ecbc0b548b438e5469e10460b6c3e7ea4600080516020611373833981519152848a0809610f31565b92506000805160206113738339815191526110b5600080516020611373833981519152600286096111a4565b860991506000805160206113738339815191526110e2600080516020611373833981519152848509610f95565b60008051602061137383398151915285860908861415806111185750600080516020611373833981519152808385096002098514155b1561113657604051631ff3747d60e21b815260040160405180910390fd5b50935093915050565b600080604051602081526020808201526020604082015284606082015283608082015260008051602061137383398151915260a082015260208160c08360055afa905192509050806109a757604051631ff3747d60e21b815260040160405180910390fd5b60006111d0827f30644e72e131a029b85045b68181585d97816a916871ca8d3c208c16d87cfd4561113f565b9050600080516020611373833981519152818309600114610f9057604051631ff3747d60e21b815260040160405180910390fd5b60405180608001604052806004906020820280368337509192915050565b6040518061030001604052806018906020820280368337509192915050565b60405180602001604052806001906020820280368337509192915050565b8061010081018310156109a957600080fd5b80608081018310156109a957600080fd5b600080610180838503121561129657600080fd5b6112a0848461125f565b91506112b0846101008501611271565b90509250929050565b600061010082840312156112cc57600080fd5b6112d6838361125f565b9392505050565b60808101818360005b60048110156113055781518352602092830192909101906001016112e6565b50505092915050565b600080610100838503121561132257600080fd5b61132c8484611271565b91506112b08460808501611271565b634e487b7160e01b600052601260045260246000fd5b818103818111156109a957634e487b7160e01b600052601160045260246000fdfe30644e72e131a029b85045b68181585d97816a916871ca8d3c208c16d87cfd4730644e72e131a029b85045b68181585d2833e84879b9709143e1f593f0000001a26469706673582212205c22fbb0547679aa26c16d820e0e40b3566688cc7d9caebafa0550b8b131ddb464736f6c634300081c0033","opcodes":"PUSH1 0x80 PUSH1 0x40 MSTORE CALLVALUE DUP1 ISZERO PUSH1 0xF JUMPI PUSH1 0x0 DUP1 REVERT JUMPDEST POP PUSH2 0x13E8 DUP1 PUSH2 0x1F PUSH1 0x0 CODECOPY PUSH1 0x0 RETURN INVALID PUSH1 0x80 PUSH1 0x40 MSTORE CALLVALUE DUP1 ISZERO PUSH2 0x10 JUMPI PUSH1 0x0 DUP1 REVERT JUMPDEST POP PUSH1 0x4 CALLDATASIZE LT PUSH2 0x41 JUMPI PUSH1 0x0 CALLDATALOAD PUSH1 0xE0 SHR DUP1 PUSH4 0x23572511 EQ PUSH2 0x46 JUMPI DUP1 PUSH4 0x44F63692 EQ PUSH2 0x5B JUMPI DUP1 PUSH4 0xF2457C8D EQ PUSH2 0x84 JUMPI JUMPDEST PUSH1 0x0 DUP1 REVERT JUMPDEST PUSH2 0x59 PUSH2 0x54 CALLDATASIZE PUSH1 0x4 PUSH2 0x1282 JUMP JUMPDEST PUSH2 0x97 JUMP JUMPDEST STOP JUMPDEST PUSH2 0x6E PUSH2 0x69 CALLDATASIZE PUSH1 0x4 PUSH2 0x12B9 JUMP JUMPDEST PUSH2 0x316 JUMP JUMPDEST PUSH1 0x40 MLOAD PUSH2 0x7B SWAP2 SWAP1 PUSH2 0x12DD JUMP JUMPDEST PUSH1 0x40 MLOAD DUP1 SWAP2 SUB SWAP1 RETURN JUMPDEST PUSH2 0x59 PUSH2 0x92 CALLDATASIZE PUSH1 0x4 PUSH2 0x130E JUMP JUMPDEST PUSH2 0x373 JUMP JUMPDEST PUSH1 0x0 DUP1 PUSH2 0xA3 DUP4 PUSH2 0x691 JUMP JUMPDEST SWAP2 POP SWAP2 POP PUSH1 0x0 PUSH1 0x40 MLOAD PUSH2 0x100 DUP7 DUP3 CALLDATACOPY PUSH31 0xDC4EC4D6CEB56CEA9513654C5D3822BF5A448F6547A1867BEA3C3F4AF40582 PUSH2 0x100 DUP3 ADD MSTORE PUSH32 0x1848D6AB0D020E9707D065F09D9847F449B1516015AF2958D4AACACB54359506 PUSH2 0x120 DUP3 ADD MSTORE PUSH32 0x156C0140103691CAF37787E0930B42274F98BA557CFD4012D617D0D97A5B439D PUSH2 0x140 DUP3 ADD MSTORE PUSH32 0xF4587C2F0C7F5F3E48C9FE859FF3390BE9CA99DAC833C92BE37B6624452CC58 PUSH2 0x160 DUP3 ADD MSTORE PUSH32 0x156ACDB4C47EB32981E023E989DDCE420D13AD3771D1E0E5B2ED6D0CFA409F66 PUSH2 0x180 DUP3 ADD MSTORE PUSH32 0x2541708B575B819EE507975F0EEAEAF827A371A7B9ED5B0C2D704CFBEBDCFD2B PUSH2 0x1A0 DUP3 ADD MSTORE PUSH32 0x13C040640E3A99B9CCA3C5AA80BE86F5906E2AAAECD95978376EB728CE02C7E0 PUSH2 0x1C0 DUP3 ADD MSTORE PUSH32 0x82959FD0A7165B00ED92828BE942EBFACCCFABCF99172EB0267D43D67F3D45C PUSH2 0x1E0 DUP3 ADD MSTORE PUSH32 0x203FE888AACF3D86CB52115D9C1CE451DA86EEEA1D020609E94B58556E22CF2 PUSH2 0x200 DUP3 ADD MSTORE PUSH32 0x226488901E7EB23228E6F884C4EC6E7D9F6E466C50DD6DF27770CF730B638EF8 PUSH2 0x220 DUP3 ADD MSTORE DUP4 PUSH2 0x240 DUP3 ADD MSTORE DUP3 PUSH2 0x260 DUP3 ADD MSTORE PUSH32 0x14EF4E24B04F5A4D9DBB80DB107C3B3495036A9BB83434AD67CAA81B5B775EE3 PUSH2 0x280 DUP3 ADD MSTORE PUSH32 0x176827524B489C94C4FD12B30623C161A9F3953579D35895E10285CD7C323669 PUSH2 0x2A0 DUP3 ADD MSTORE PUSH32 0x119417BEC62AE8C0EA24C13AE359CE206A90BFAB2B43950E88394FA821FBC699 PUSH2 0x2C0 DUP3 ADD MSTORE PUSH32 0x2BF2B5034394D69091D24090E2C8506003867F9C2E7C2D5A226F5AAECB3EE22F PUSH2 0x2E0 DUP3 ADD MSTORE PUSH1 0x20 DUP2 PUSH2 0x300 DUP4 PUSH1 0x8 GAS STATICCALL SWAP1 MLOAD AND SWAP1 POP DUP1 PUSH2 0x30F JUMPI PUSH1 0x40 MLOAD PUSH4 0x1FF3747D PUSH1 0xE2 SHL DUP2 MSTORE PUSH1 0x4 ADD PUSH1 0x40 MLOAD DUP1 SWAP2 SUB SWAP1 REVERT JUMPDEST POP POP POP POP POP JUMP JUMPDEST PUSH2 0x31E PUSH2 0x1204 JUMP JUMPDEST PUSH2 0x331 DUP3 CALLDATALOAD DUP4 PUSH1 0x1 JUMPDEST PUSH1 0x20 MUL ADD CALLDATALOAD PUSH2 0x8BA JUMP JUMPDEST DUP2 MSTORE PUSH2 0x34F PUSH1 0x60 DUP4 ADD CALLDATALOAD PUSH1 0x40 DUP5 ADD CALLDATALOAD PUSH1 0xA0 DUP6 ADD CALLDATALOAD PUSH1 0x80 DUP7 ADD CALLDATALOAD PUSH2 0x9AF JUMP JUMPDEST PUSH1 0x20 DUP4 ADD MSTORE PUSH1 0x40 DUP3 ADD MSTORE PUSH2 0x369 PUSH1 0xC0 DUP4 ADD CALLDATALOAD DUP4 PUSH1 0x7 PUSH2 0x327 JUMP JUMPDEST PUSH1 0x60 DUP3 ADD MSTORE SWAP2 SWAP1 POP JUMP JUMPDEST PUSH2 0x37B PUSH2 0x1222 JUMP JUMPDEST PUSH1 0x0 DUP1 PUSH2 0x38E DUP6 DUP3 JUMPDEST PUSH1 0x20 MUL ADD CALLDATALOAD PUSH2 0xCA6 JUMP JUMPDEST SWAP1 SWAP3 POP SWAP1 POP PUSH1 0x0 DUP1 DUP1 DUP1 PUSH2 0x3AA PUSH1 0x40 DUP11 ADD CALLDATALOAD PUSH1 0x20 DUP12 ADD CALLDATALOAD PUSH2 0xD4B JUMP JUMPDEST SWAP3 SWAP7 POP SWAP1 SWAP5 POP SWAP3 POP SWAP1 POP PUSH1 0x0 DUP1 PUSH2 0x3C2 DUP12 PUSH1 0x3 PUSH2 0x384 JUMP JUMPDEST SWAP2 POP SWAP2 POP PUSH1 0x0 DUP1 PUSH2 0x3D2 DUP13 PUSH2 0x691 JUMP JUMPDEST DUP12 DUP14 MSTORE PUSH1 0x20 DUP14 ADD DUP12 SWAP1 MSTORE PUSH1 0x40 DUP14 ADD DUP10 SWAP1 MSTORE PUSH1 0x60 DUP14 ADD DUP11 SWAP1 MSTORE PUSH1 0x80 DUP14 ADD DUP8 SWAP1 MSTORE PUSH1 0xA0 DUP14 ADD DUP9 SWAP1 MSTORE PUSH1 0xC0 DUP14 ADD DUP7 SWAP1 MSTORE PUSH1 0xE0 DUP14 ADD DUP6 SWAP1 MSTORE PUSH31 0xDC4EC4D6CEB56CEA9513654C5D3822BF5A448F6547A1867BEA3C3F4AF40582 PUSH2 0x100 DUP15 ADD MSTORE PUSH32 0x1848D6AB0D020E9707D065F09D9847F449B1516015AF2958D4AACACB54359506 PUSH2 0x120 DUP15 ADD MSTORE PUSH32 0x156C0140103691CAF37787E0930B42274F98BA557CFD4012D617D0D97A5B439D PUSH2 0x140 DUP15 ADD MSTORE PUSH32 0xF4587C2F0C7F5F3E48C9FE859FF3390BE9CA99DAC833C92BE37B6624452CC58 PUSH2 0x160 DUP15 ADD MSTORE PUSH32 0x156ACDB4C47EB32981E023E989DDCE420D13AD3771D1E0E5B2ED6D0CFA409F66 PUSH2 0x180 DUP15 ADD MSTORE PUSH32 0x2541708B575B819EE507975F0EEAEAF827A371A7B9ED5B0C2D704CFBEBDCFD2B PUSH2 0x1A0 DUP15 ADD MSTORE PUSH32 0x13C040640E3A99B9CCA3C5AA80BE86F5906E2AAAECD95978376EB728CE02C7E0 PUSH2 0x1C0 DUP15 ADD MSTORE PUSH32 0x82959FD0A7165B00ED92828BE942EBFACCCFABCF99172EB0267D43D67F3D45C PUSH2 0x1E0 DUP15 ADD MSTORE PUSH32 0x203FE888AACF3D86CB52115D9C1CE451DA86EEEA1D020609E94B58556E22CF2 PUSH2 0x200 DUP15 ADD MSTORE PUSH32 0x226488901E7EB23228E6F884C4EC6E7D9F6E466C50DD6DF27770CF730B638EF8 PUSH2 0x220 DUP15 ADD MSTORE PUSH2 0x240 DUP14 ADD DUP3 SWAP1 MSTORE PUSH2 0x260 DUP14 ADD DUP2 SWAP1 MSTORE PUSH32 0x14EF4E24B04F5A4D9DBB80DB107C3B3495036A9BB83434AD67CAA81B5B775EE3 PUSH2 0x280 DUP15 ADD MSTORE PUSH32 0x176827524B489C94C4FD12B30623C161A9F3953579D35895E10285CD7C323669 PUSH2 0x2A0 DUP15 ADD MSTORE PUSH32 0x119417BEC62AE8C0EA24C13AE359CE206A90BFAB2B43950E88394FA821FBC699 PUSH2 0x2C0 DUP15 ADD MSTORE PUSH32 0x2BF2B5034394D69091D24090E2C8506003867F9C2E7C2D5A226F5AAECB3EE22F PUSH2 0x2E0 DUP15 ADD MSTORE SWAP1 SWAP3 POP SWAP1 POP PUSH1 0x0 PUSH2 0x646 PUSH2 0x1241 JUMP JUMPDEST PUSH1 0x20 DUP2 PUSH2 0x300 DUP16 PUSH1 0x8 GAS STATICCALL SWAP2 POP DUP2 ISZERO DUP1 PUSH2 0x662 JUMPI POP DUP1 MLOAD PUSH1 0x1 EQ ISZERO JUMPDEST ISZERO PUSH2 0x680 JUMPI PUSH1 0x40 MLOAD PUSH4 0x1FF3747D PUSH1 0xE2 SHL DUP2 MSTORE PUSH1 0x4 ADD PUSH1 0x40 MLOAD DUP1 SWAP2 SUB SWAP1 REVERT JUMPDEST POP POP POP POP POP POP POP POP POP POP POP POP POP POP POP JUMP JUMPDEST PUSH1 0x0 DUP1 PUSH1 0x0 PUSH1 0x1 SWAP1 POP PUSH1 0x40 MLOAD PUSH1 0x40 DUP2 ADD PUSH1 0x0 PUSH32 0x271CD18B027EA2BBAB9D02C8598A91C8E491110A841683CF2B5CC92F096205E1 DUP4 MSTORE PUSH32 0x1DFA1C1E25650D784A9F48EE14593AD2319DAE66D359B634C941DE141CF58E8 PUSH1 0x20 DUP5 ADD MSTORE PUSH32 0x2AEC8B2E792B7BE89E6DAF32D2CBB3047B8F088050AF932DC89F4EAD43E5D92 DUP3 MSTORE PUSH32 0xEECCD9B4C5D9560AC1F978DFDD85A4CA02296C4E4316E659E520968544F80BD PUSH1 0x20 DUP4 ADD MSTORE DUP7 CALLDATALOAD SWAP1 POP DUP1 PUSH1 0x40 DUP4 ADD MSTORE PUSH1 0x0 DUP1 MLOAD PUSH1 0x20 PUSH2 0x1393 DUP4 CODECOPY DUP2 MLOAD SWAP2 MSTORE DUP2 LT DUP5 AND SWAP4 POP PUSH1 0x40 DUP3 PUSH1 0x60 DUP5 PUSH1 0x7 GAS STATICCALL DUP5 AND SWAP4 POP PUSH1 0x40 DUP4 PUSH1 0x80 DUP6 PUSH1 0x6 GAS STATICCALL DUP5 AND SWAP4 POP PUSH32 0x2153CECD95EE8CE236930D023B4E84A418A3ABC3D29B88BF640302B0014815F1 DUP3 MSTORE PUSH32 0x25EC7526E116C1F999BF92681E17524E158CEDEBE83A9155309EAFFB2DD189D5 PUSH1 0x20 DUP4 ADD MSTORE PUSH1 0x20 DUP8 ADD CALLDATALOAD SWAP1 POP DUP1 PUSH1 0x40 DUP4 ADD MSTORE PUSH1 0x0 DUP1 MLOAD PUSH1 0x20 PUSH2 0x1393 DUP4 CODECOPY DUP2 MLOAD SWAP2 MSTORE DUP2 LT DUP5 AND SWAP4 POP PUSH1 0x40 DUP3 PUSH1 0x60 DUP5 PUSH1 0x7 GAS STATICCALL DUP5 AND SWAP4 POP PUSH1 0x40 DUP4 PUSH1 0x80 DUP6 PUSH1 0x6 GAS STATICCALL DUP5 AND SWAP4 POP PUSH1 0x0 DUP3 MSTORE PUSH1 0x0 PUSH1 0x20 DUP4 ADD MSTORE PUSH1 0x40 DUP8 ADD CALLDATALOAD SWAP1 POP DUP1 PUSH1 0x40 DUP4 ADD MSTORE PUSH1 0x0 DUP1 MLOAD PUSH1 0x20 PUSH2 0x1393 DUP4 CODECOPY DUP2 MLOAD SWAP2 MSTORE DUP2 LT DUP5 AND SWAP4 POP PUSH1 0x40 DUP3 PUSH1 0x60 DUP5 PUSH1 0x7 GAS STATICCALL DUP5 AND SWAP4 POP PUSH1 0x40 DUP4 PUSH1 0x80 DUP6 PUSH1 0x6 GAS STATICCALL DUP5 AND SWAP4 POP PUSH1 0x0 DUP3 MSTORE PUSH1 0x0 PUSH1 0x20 DUP4 ADD MSTORE PUSH1 0x60 DUP8 ADD CALLDATALOAD SWAP1 POP DUP1 PUSH1 0x40 DUP4 ADD MSTORE PUSH1 0x0 DUP1 MLOAD PUSH1 0x20 PUSH2 0x1393 DUP4 CODECOPY DUP2 MLOAD SWAP2 MSTORE DUP2 LT DUP5 AND SWAP4 POP POP PUSH1 0x40 DUP2 PUSH1 0x60 DUP4 PUSH1 0x7 GAS STATICCALL DUP4 AND SWAP3 POP POP PUSH1 0x40 DUP2 PUSH1 0x80 DUP4 PUSH1 0x6 GAS STATICCALL DUP2 MLOAD PUSH1 0x20 SWAP1 SWAP3 ADD MLOAD SWAP2 SWAP5 POP SWAP1 SWAP3 POP AND DUP1 PUSH2 0x8B4 JUMPI PUSH1 0x40 MLOAD PUSH4 0xA54F8E27 PUSH1 0xE0 SHL DUP2 MSTORE PUSH1 0x4 ADD PUSH1 0x40 MLOAD DUP1 SWAP2 SUB SWAP1 REVERT JUMPDEST POP SWAP2 POP SWAP2 JUMP JUMPDEST PUSH1 0x0 PUSH1 0x0 DUP1 MLOAD PUSH1 0x20 PUSH2 0x1373 DUP4 CODECOPY DUP2 MLOAD SWAP2 MSTORE DUP4 LT ISZERO DUP1 PUSH2 0x8E7 JUMPI POP PUSH1 0x0 DUP1 MLOAD PUSH1 0x20 PUSH2 0x1373 DUP4 CODECOPY DUP2 MLOAD SWAP2 MSTORE DUP3 LT ISZERO JUMPDEST ISZERO PUSH2 0x905 JUMPI PUSH1 0x40 MLOAD PUSH4 0x1FF3747D PUSH1 0xE2 SHL DUP2 MSTORE PUSH1 0x4 ADD PUSH1 0x40 MLOAD DUP1 SWAP2 SUB SWAP1 REVERT JUMPDEST DUP3 ISZERO DUP1 ISZERO PUSH2 0x911 JUMPI POP DUP2 ISZERO JUMPDEST ISZERO PUSH2 0x91E JUMPI POP PUSH1 0x0 PUSH2 0x9A9 JUMP JUMPDEST PUSH1 0x0 PUSH2 0x95D PUSH1 0x0 DUP1 MLOAD PUSH1 0x20 PUSH2 0x1373 DUP4 CODECOPY DUP2 MLOAD SWAP2 MSTORE PUSH1 0x3 PUSH1 0x0 DUP1 MLOAD PUSH1 0x20 PUSH2 0x1373 DUP4 CODECOPY DUP2 MLOAD SWAP2 MSTORE DUP8 PUSH1 0x0 DUP1 MLOAD PUSH1 0x20 PUSH2 0x1373 DUP4 CODECOPY DUP2 MLOAD SWAP2 MSTORE DUP10 DUP11 MULMOD MULMOD ADDMOD PUSH2 0xF31 JUMP JUMPDEST SWAP1 POP DUP1 DUP4 SUB PUSH2 0x972 JUMPI POP POP PUSH1 0x1 DUP3 SWAP1 SHL PUSH2 0x9A9 JUMP JUMPDEST PUSH2 0x97B DUP2 PUSH2 0xF95 JUMP JUMPDEST DUP4 SUB PUSH2 0x98E JUMPI POP POP PUSH1 0x1 DUP3 DUP2 SHL OR PUSH2 0x9A9 JUMP JUMPDEST PUSH1 0x40 MLOAD PUSH4 0x1FF3747D PUSH1 0xE2 SHL DUP2 MSTORE PUSH1 0x4 ADD PUSH1 0x40 MLOAD DUP1 SWAP2 SUB SWAP1 REVERT JUMPDEST POP JUMPDEST SWAP3 SWAP2 POP POP JUMP JUMPDEST PUSH1 0x0 DUP1 PUSH1 0x0 DUP1 MLOAD PUSH1 0x20 PUSH2 0x1373 DUP4 CODECOPY DUP2 MLOAD SWAP2 MSTORE DUP7 LT ISZERO DUP1 PUSH2 0x9DD JUMPI POP PUSH1 0x0 DUP1 MLOAD PUSH1 0x20 PUSH2 0x1373 DUP4 CODECOPY DUP2 MLOAD SWAP2 MSTORE DUP6 LT ISZERO JUMPDEST DUP1 PUSH2 0x9F6 JUMPI POP PUSH1 0x0 DUP1 MLOAD PUSH1 0x20 PUSH2 0x1373 DUP4 CODECOPY DUP2 MLOAD SWAP2 MSTORE DUP5 LT ISZERO JUMPDEST DUP1 PUSH2 0xA0F JUMPI POP PUSH1 0x0 DUP1 MLOAD PUSH1 0x20 PUSH2 0x1373 DUP4 CODECOPY DUP2 MLOAD SWAP2 MSTORE DUP4 LT ISZERO JUMPDEST ISZERO PUSH2 0xA2D JUMPI PUSH1 0x40 MLOAD PUSH4 0x1FF3747D PUSH1 0xE2 SHL DUP2 MSTORE PUSH1 0x4 ADD PUSH1 0x40 MLOAD DUP1 SWAP2 SUB SWAP1 REVERT JUMPDEST DUP3 DUP5 DUP7 DUP9 OR OR OR PUSH1 0x0 SUB PUSH2 0xA46 JUMPI POP PUSH1 0x0 SWAP1 POP DUP1 PUSH2 0xC9D JUMP JUMPDEST PUSH1 0x0 DUP1 DUP1 PUSH1 0x0 DUP1 MLOAD PUSH1 0x20 PUSH2 0x1373 DUP4 CODECOPY DUP2 MLOAD SWAP2 MSTORE PUSH2 0xA72 PUSH1 0x3 PUSH1 0x0 DUP1 MLOAD PUSH1 0x20 PUSH2 0x1373 DUP4 CODECOPY DUP2 MLOAD SWAP2 MSTORE PUSH2 0x1351 JUMP JUMPDEST PUSH1 0x0 DUP1 MLOAD PUSH1 0x20 PUSH2 0x1373 DUP4 CODECOPY DUP2 MLOAD SWAP2 MSTORE DUP11 DUP13 MULMOD MULMOD SWAP1 POP PUSH1 0x0 PUSH1 0x0 DUP1 MLOAD PUSH1 0x20 PUSH2 0x1373 DUP4 CODECOPY DUP2 MLOAD SWAP2 MSTORE DUP11 PUSH1 0x0 DUP1 MLOAD PUSH1 0x20 PUSH2 0x1373 DUP4 CODECOPY DUP2 MLOAD SWAP2 MSTORE DUP13 DUP14 MULMOD MULMOD SWAP1 POP PUSH1 0x0 PUSH1 0x0 DUP1 MLOAD PUSH1 0x20 PUSH2 0x1373 DUP4 CODECOPY DUP2 MLOAD SWAP2 MSTORE DUP11 PUSH1 0x0 DUP1 MLOAD PUSH1 0x20 PUSH2 0x1373 DUP4 CODECOPY DUP2 MLOAD SWAP2 MSTORE DUP13 DUP14 MULMOD MULMOD SWAP1 POP PUSH1 0x0 DUP1 MLOAD PUSH1 0x20 PUSH2 0x1373 DUP4 CODECOPY DUP2 MLOAD SWAP2 MSTORE DUP1 PUSH1 0x0 DUP1 MLOAD PUSH1 0x20 PUSH2 0x1373 DUP4 CODECOPY DUP2 MLOAD SWAP2 MSTORE DUP13 DUP7 MULMOD DUP5 ADDMOD PUSH32 0x2B149D40CEB8AAAE81BE18991BE06AC3B5B4C5E559DBEFA33267E6DC24A138E5 ADDMOD SWAP5 POP PUSH2 0xB6B PUSH1 0x0 DUP1 MLOAD PUSH1 0x20 PUSH2 0x1373 DUP4 CODECOPY DUP2 MLOAD SWAP2 MSTORE DUP1 PUSH1 0x0 DUP1 MLOAD PUSH1 0x20 PUSH2 0x1373 DUP4 CODECOPY DUP2 MLOAD SWAP2 MSTORE DUP15 DUP8 MULMOD DUP5 ADDMOD PUSH32 0x2FCD3AC2A640A154EB23960892A85A68F031CA0C8344B23A577DCF1052B9E775 ADDMOD PUSH2 0xF95 JUMP JUMPDEST SWAP4 POP POP POP POP PUSH1 0x0 DUP1 PUSH2 0xBBC PUSH1 0x0 DUP1 MLOAD PUSH1 0x20 PUSH2 0x1373 DUP4 CODECOPY DUP2 MLOAD SWAP2 MSTORE DUP1 PUSH2 0xB92 JUMPI PUSH2 0xB92 PUSH2 0x133B JUMP JUMPDEST PUSH1 0x0 DUP1 MLOAD PUSH1 0x20 PUSH2 0x1373 DUP4 CODECOPY DUP2 MLOAD SWAP2 MSTORE DUP6 DUP7 MULMOD PUSH1 0x0 DUP1 MLOAD PUSH1 0x20 PUSH2 0x1373 DUP4 CODECOPY DUP2 MLOAD SWAP2 MSTORE DUP8 DUP9 MULMOD ADDMOD PUSH2 0xF31 JUMP JUMPDEST SWAP1 POP PUSH2 0xC09 PUSH1 0x0 DUP1 MLOAD PUSH1 0x20 PUSH2 0x1373 DUP4 CODECOPY DUP2 MLOAD SWAP2 MSTORE PUSH32 0x183227397098D014DC2822DB40C0AC2ECBC0B548B438E5469E10460B6C3E7EA4 PUSH1 0x0 DUP1 MLOAD PUSH1 0x20 PUSH2 0x1373 DUP4 CODECOPY DUP2 MLOAD SWAP2 MSTORE DUP5 DUP9 ADDMOD MULMOD PUSH2 0xFAE JUMP JUMPDEST ISZERO SWAP2 POP POP PUSH2 0xC18 DUP4 DUP4 DUP4 PUSH2 0xFF8 JUMP JUMPDEST SWAP1 SWAP4 POP SWAP2 POP DUP7 DUP4 EQ DUP1 ISZERO PUSH2 0xC2B JUMPI POP DUP2 DUP7 EQ JUMPDEST ISZERO PUSH2 0xC55 JUMPI DUP1 PUSH2 0xC3C JUMPI PUSH1 0x0 PUSH2 0xC3F JUMP JUMPDEST PUSH1 0x2 JUMPDEST PUSH1 0xFF AND PUSH1 0x2 DUP11 SWAP1 SHL OR PUSH1 0x0 OR SWAP5 POP DUP8 SWAP4 POP PUSH2 0xC99 JUMP JUMPDEST PUSH2 0xC5E DUP4 PUSH2 0xF95 JUMP JUMPDEST DUP8 EQ DUP1 ISZERO PUSH2 0xC73 JUMPI POP PUSH2 0xC70 DUP3 PUSH2 0xF95 JUMP JUMPDEST DUP7 EQ JUMPDEST ISZERO PUSH2 0x98E JUMPI DUP1 PUSH2 0xC84 JUMPI PUSH1 0x0 PUSH2 0xC87 JUMP JUMPDEST PUSH1 0x2 JUMPDEST PUSH1 0xFF AND PUSH1 0x2 DUP11 SWAP1 SHL OR PUSH1 0x1 OR SWAP5 POP DUP8 SWAP4 POP JUMPDEST POP POP POP JUMPDEST SWAP5 POP SWAP5 SWAP3 POP POP POP JUMP JUMPDEST PUSH1 0x0 DUP1 DUP3 PUSH1 0x0 SUB PUSH2 0xCBC JUMPI POP PUSH1 0x0 SWAP3 DUP4 SWAP3 POP SWAP1 POP JUMP JUMPDEST PUSH1 0x1 DUP4 DUP2 SHR SWAP3 POP DUP1 DUP5 AND EQ PUSH1 0x0 DUP1 MLOAD PUSH1 0x20 PUSH2 0x1373 DUP4 CODECOPY DUP2 MLOAD SWAP2 MSTORE DUP4 LT PUSH2 0xCF5 JUMPI PUSH1 0x40 MLOAD PUSH4 0x1FF3747D PUSH1 0xE2 SHL DUP2 MSTORE PUSH1 0x4 ADD PUSH1 0x40 MLOAD DUP1 SWAP2 SUB SWAP1 REVERT JUMPDEST PUSH2 0xD32 PUSH1 0x0 DUP1 MLOAD PUSH1 0x20 PUSH2 0x1373 DUP4 CODECOPY DUP2 MLOAD SWAP2 MSTORE PUSH1 0x3 PUSH1 0x0 DUP1 MLOAD PUSH1 0x20 PUSH2 0x1373 DUP4 CODECOPY DUP2 MLOAD SWAP2 MSTORE DUP7 PUSH1 0x0 DUP1 MLOAD PUSH1 0x20 PUSH2 0x1373 DUP4 CODECOPY DUP2 MLOAD SWAP2 MSTORE DUP9 DUP10 MULMOD MULMOD ADDMOD PUSH2 0xF31 JUMP JUMPDEST SWAP2 POP DUP1 ISZERO PUSH2 0x8B4 JUMPI PUSH2 0xD43 DUP3 PUSH2 0xF95 JUMP JUMPDEST SWAP2 POP POP SWAP2 POP SWAP2 JUMP JUMPDEST PUSH1 0x0 DUP1 DUP1 DUP1 DUP6 ISZERO DUP1 ISZERO PUSH2 0xD5C JUMPI POP DUP5 ISZERO JUMPDEST ISZERO PUSH2 0xD72 JUMPI POP PUSH1 0x0 SWAP3 POP DUP3 SWAP2 POP DUP2 SWAP1 POP DUP1 PUSH2 0xF28 JUMP JUMPDEST PUSH1 0x2 DUP7 DUP2 SHR SWAP5 POP DUP6 SWAP4 POP PUSH1 0x1 DUP1 DUP9 AND EQ SWAP1 DUP1 DUP9 AND EQ PUSH1 0x0 DUP1 MLOAD PUSH1 0x20 PUSH2 0x1373 DUP4 CODECOPY DUP2 MLOAD SWAP2 MSTORE DUP7 LT ISZERO DUP1 PUSH2 0xDB2 JUMPI POP PUSH1 0x0 DUP1 MLOAD PUSH1 0x20 PUSH2 0x1373 DUP4 CODECOPY DUP2 MLOAD SWAP2 MSTORE DUP6 LT ISZERO JUMPDEST ISZERO PUSH2 0xDD0 JUMPI PUSH1 0x40 MLOAD PUSH4 0x1FF3747D PUSH1 0xE2 SHL DUP2 MSTORE PUSH1 0x4 ADD PUSH1 0x40 MLOAD DUP1 SWAP2 SUB SWAP1 REVERT JUMPDEST PUSH1 0x0 PUSH1 0x0 DUP1 MLOAD PUSH1 0x20 PUSH2 0x1373 DUP4 CODECOPY DUP2 MLOAD SWAP2 MSTORE PUSH2 0xDFA PUSH1 0x3 PUSH1 0x0 DUP1 MLOAD PUSH1 0x20 PUSH2 0x1373 DUP4 CODECOPY DUP2 MLOAD SWAP2 MSTORE PUSH2 0x1351 JUMP JUMPDEST PUSH1 0x0 DUP1 MLOAD PUSH1 0x20 PUSH2 0x1373 DUP4 CODECOPY DUP2 MLOAD SWAP2 MSTORE DUP9 DUP11 MULMOD MULMOD SWAP1 POP PUSH1 0x0 PUSH1 0x0 DUP1 MLOAD PUSH1 0x20 PUSH2 0x1373 DUP4 CODECOPY DUP2 MLOAD SWAP2 MSTORE DUP9 PUSH1 0x0 DUP1 MLOAD PUSH1 0x20 PUSH2 0x1373 DUP4 CODECOPY DUP2 MLOAD SWAP2 MSTORE DUP11 DUP12 MULMOD MULMOD SWAP1 POP PUSH1 0x0 PUSH1 0x0 DUP1 MLOAD PUSH1 0x20 PUSH2 0x1373 DUP4 CODECOPY DUP2 MLOAD SWAP2 MSTORE DUP9 PUSH1 0x0 DUP1 MLOAD PUSH1 0x20 PUSH2 0x1373 DUP4 CODECOPY DUP2 MLOAD SWAP2 MSTORE DUP11 DUP12 MULMOD MULMOD SWAP1 POP PUSH1 0x0 DUP1 MLOAD PUSH1 0x20 PUSH2 0x1373 DUP4 CODECOPY DUP2 MLOAD SWAP2 MSTORE DUP1 PUSH1 0x0 DUP1 MLOAD PUSH1 0x20 PUSH2 0x1373 DUP4 CODECOPY DUP2 MLOAD SWAP2 MSTORE DUP11 DUP7 MULMOD DUP5 ADDMOD PUSH32 0x2B149D40CEB8AAAE81BE18991BE06AC3B5B4C5E559DBEFA33267E6DC24A138E5 ADDMOD SWAP7 POP PUSH2 0xEF3 PUSH1 0x0 DUP1 MLOAD PUSH1 0x20 PUSH2 0x1373 DUP4 CODECOPY DUP2 MLOAD SWAP2 MSTORE DUP1 PUSH1 0x0 DUP1 MLOAD PUSH1 0x20 PUSH2 0x1373 DUP4 CODECOPY DUP2 MLOAD SWAP2 MSTORE DUP13 DUP8 MULMOD DUP5 ADDMOD PUSH32 0x2FCD3AC2A640A154EB23960892A85A68F031CA0C8344B23A577DCF1052B9E775 ADDMOD PUSH2 0xF95 JUMP JUMPDEST SWAP6 POP PUSH2 0xF00 DUP8 DUP8 DUP7 PUSH2 0xFF8 JUMP JUMPDEST SWAP1 SWAP8 POP SWAP6 POP DUP5 ISZERO PUSH2 0xF22 JUMPI PUSH2 0xF14 DUP8 PUSH2 0xF95 JUMP JUMPDEST SWAP7 POP PUSH2 0xF1F DUP7 PUSH2 0xF95 JUMP JUMPDEST SWAP6 POP JUMPDEST POP POP POP POP POP JUMPDEST SWAP3 SWAP6 SWAP2 SWAP5 POP SWAP3 POP JUMP JUMPDEST PUSH1 0x0 PUSH2 0xF5D DUP3 PUSH32 0xC19139CB84C680A6E14116DA060561765E05AA45A1C72A34F082305B61F3F52 PUSH2 0x113F JUMP JUMPDEST SWAP1 POP DUP2 PUSH1 0x0 DUP1 MLOAD PUSH1 0x20 PUSH2 0x1373 DUP4 CODECOPY DUP2 MLOAD SWAP2 MSTORE DUP3 DUP4 MULMOD EQ PUSH2 0xF90 JUMPI PUSH1 0x40 MLOAD PUSH4 0x1FF3747D PUSH1 0xE2 SHL DUP2 MSTORE PUSH1 0x4 ADD PUSH1 0x40 MLOAD DUP1 SWAP2 SUB SWAP1 REVERT JUMPDEST SWAP2 SWAP1 POP JUMP JUMPDEST PUSH1 0x0 DUP1 MLOAD PUSH1 0x20 PUSH2 0x1373 DUP4 CODECOPY DUP2 MLOAD SWAP2 MSTORE SWAP1 DUP2 SWAP1 MOD DUP2 SUB MOD SWAP1 JUMP JUMPDEST PUSH1 0x0 DUP1 PUSH2 0xFDB DUP4 PUSH32 0xC19139CB84C680A6E14116DA060561765E05AA45A1C72A34F082305B61F3F52 PUSH2 0x113F JUMP JUMPDEST SWAP1 POP DUP3 PUSH1 0x0 DUP1 MLOAD PUSH1 0x20 PUSH2 0x1373 DUP4 CODECOPY DUP2 MLOAD SWAP2 MSTORE DUP3 DUP4 MULMOD EQ SWAP4 SWAP3 POP POP POP JUMP JUMPDEST PUSH1 0x0 DUP1 DUP1 PUSH2 0x102A PUSH1 0x0 DUP1 MLOAD PUSH1 0x20 PUSH2 0x1373 DUP4 CODECOPY DUP2 MLOAD SWAP2 MSTORE DUP1 DUP8 DUP9 MULMOD PUSH1 0x0 DUP1 MLOAD PUSH1 0x20 PUSH2 0x1373 DUP4 CODECOPY DUP2 MLOAD SWAP2 MSTORE DUP10 DUP11 MULMOD ADDMOD PUSH2 0xF31 JUMP JUMPDEST SWAP1 POP DUP4 ISZERO PUSH2 0x103E JUMPI PUSH2 0x103B DUP2 PUSH2 0xF95 JUMP JUMPDEST SWAP1 POP JUMPDEST PUSH2 0x1089 PUSH1 0x0 DUP1 MLOAD PUSH1 0x20 PUSH2 0x1373 DUP4 CODECOPY DUP2 MLOAD SWAP2 MSTORE PUSH32 0x183227397098D014DC2822DB40C0AC2ECBC0B548B438E5469E10460B6C3E7EA4 PUSH1 0x0 DUP1 MLOAD PUSH1 0x20 PUSH2 0x1373 DUP4 CODECOPY DUP2 MLOAD SWAP2 MSTORE DUP5 DUP11 ADDMOD MULMOD PUSH2 0xF31 JUMP JUMPDEST SWAP3 POP PUSH1 0x0 DUP1 MLOAD PUSH1 0x20 PUSH2 0x1373 DUP4 CODECOPY DUP2 MLOAD SWAP2 MSTORE PUSH2 0x10B5 PUSH1 0x0 DUP1 MLOAD PUSH1 0x20 PUSH2 0x1373 DUP4 CODECOPY DUP2 MLOAD SWAP2 MSTORE PUSH1 0x2 DUP7 MULMOD PUSH2 0x11A4 JUMP JUMPDEST DUP7 MULMOD SWAP2 POP PUSH1 0x0 DUP1 MLOAD PUSH1 0x20 PUSH2 0x1373 DUP4 CODECOPY DUP2 MLOAD SWAP2 MSTORE PUSH2 0x10E2 PUSH1 0x0 DUP1 MLOAD PUSH1 0x20 PUSH2 0x1373 DUP4 CODECOPY DUP2 MLOAD SWAP2 MSTORE DUP5 DUP6 MULMOD PUSH2 0xF95 JUMP JUMPDEST PUSH1 0x0 DUP1 MLOAD PUSH1 0x20 PUSH2 0x1373 DUP4 CODECOPY DUP2 MLOAD SWAP2 MSTORE DUP6 DUP7 MULMOD ADDMOD DUP7 EQ ISZERO DUP1 PUSH2 0x1118 JUMPI POP PUSH1 0x0 DUP1 MLOAD PUSH1 0x20 PUSH2 0x1373 DUP4 CODECOPY DUP2 MLOAD SWAP2 MSTORE DUP1 DUP4 DUP6 MULMOD PUSH1 0x2 MULMOD DUP6 EQ ISZERO JUMPDEST ISZERO PUSH2 0x1136 JUMPI PUSH1 0x40 MLOAD PUSH4 0x1FF3747D PUSH1 0xE2 SHL DUP2 MSTORE PUSH1 0x4 ADD PUSH1 0x40 MLOAD DUP1 SWAP2 SUB SWAP1 REVERT JUMPDEST POP SWAP4 POP SWAP4 SWAP2 POP POP JUMP JUMPDEST PUSH1 0x0 DUP1 PUSH1 0x40 MLOAD PUSH1 0x20 DUP2 MSTORE PUSH1 0x20 DUP1 DUP3 ADD MSTORE PUSH1 0x20 PUSH1 0x40 DUP3 ADD MSTORE DUP5 PUSH1 0x60 DUP3 ADD MSTORE DUP4 PUSH1 0x80 DUP3 ADD MSTORE PUSH1 0x0 DUP1 MLOAD PUSH1 0x20 PUSH2 0x1373 DUP4 CODECOPY DUP2 MLOAD SWAP2 MSTORE PUSH1 0xA0 DUP3 ADD MSTORE PUSH1 0x20 DUP2 PUSH1 0xC0 DUP4 PUSH1 0x5 GAS STATICCALL SWAP1 MLOAD SWAP3 POP SWAP1 POP DUP1 PUSH2 0x9A7 JUMPI PUSH1 0x40 MLOAD PUSH4 0x1FF3747D PUSH1 0xE2 SHL DUP2 MSTORE PUSH1 0x4 ADD PUSH1 0x40 MLOAD DUP1 SWAP2 SUB SWAP1 REVERT JUMPDEST PUSH1 0x0 PUSH2 0x11D0 DUP3 PUSH32 0x30644E72E131A029B85045B68181585D97816A916871CA8D3C208C16D87CFD45 PUSH2 0x113F JUMP JUMPDEST SWAP1 POP PUSH1 0x0 DUP1 MLOAD PUSH1 0x20 PUSH2 0x1373 DUP4 CODECOPY DUP2 MLOAD SWAP2 MSTORE DUP2 DUP4 MULMOD PUSH1 0x1 EQ PUSH2 0xF90 JUMPI PUSH1 0x40 MLOAD PUSH4 0x1FF3747D PUSH1 0xE2 SHL DUP2 MSTORE PUSH1 0x4 ADD PUSH1 0x40 MLOAD DUP1 SWAP2 SUB SWAP1 REVERT JUMPDEST PUSH1 0x40 MLOAD DUP1 PUSH1 0x80 ADD PUSH1 0x40 MSTORE DUP1 PUSH1 0x4 SWAP1 PUSH1 0x20 DUP3 MUL DUP1 CALLDATASIZE DUP4 CALLDATACOPY POP SWAP2 SWAP3 SWAP2 POP POP JUMP JUMPDEST PUSH1 0x40 MLOAD DUP1 PUSH2 0x300 ADD PUSH1 0x40 MSTORE DUP1 PUSH1 0x18 SWAP1 PUSH1 0x20 DUP3 MUL DUP1 CALLDATASIZE DUP4 CALLDATACOPY POP SWAP2 SWAP3 SWAP2 POP POP JUMP JUMPDEST PUSH1 0x40 MLOAD DUP1 PUSH1 0x20 ADD PUSH1 0x40 MSTORE DUP1 PUSH1 0x1 SWAP1 PUSH1 0x20 DUP3 MUL DUP1 CALLDATASIZE DUP4 CALLDATACOPY POP SWAP2 SWAP3 SWAP2 POP POP JUMP JUMPDEST DUP1 PUSH2 0x100 DUP2 ADD DUP4 LT ISZERO PUSH2 0x9A9 JUMPI PUSH1 0x0 DUP1 REVERT JUMPDEST DUP1 PUSH1 0x80 DUP2 ADD DUP4 LT ISZERO PUSH2 0x9A9 JUMPI PUSH1 0x0 DUP1 REVERT JUMPDEST PUSH1 0x0 DUP1 PUSH2 0x180 DUP4 DUP6 SUB SLT ISZERO PUSH2 0x1296 JUMPI PUSH1 0x0 DUP1 REVERT JUMPDEST PUSH2 0x12A0 DUP5 DUP5 PUSH2 0x125F JUMP JUMPDEST SWAP2 POP PUSH2 0x12B0 DUP5 PUSH2 0x100 DUP6 ADD PUSH2 0x1271 JUMP JUMPDEST SWAP1 POP SWAP3 POP SWAP3 SWAP1 POP JUMP JUMPDEST PUSH1 0x0 PUSH2 0x100 DUP3 DUP5 SUB SLT ISZERO PUSH2 0x12CC JUMPI PUSH1 0x0 DUP1 REVERT JUMPDEST PUSH2 0x12D6 DUP4 DUP4 PUSH2 0x125F JUMP JUMPDEST SWAP4 SWAP3 POP POP POP JUMP JUMPDEST PUSH1 0x80 DUP2 ADD DUP2 DUP4 PUSH1 0x0 JUMPDEST PUSH1 0x4 DUP2 LT ISZERO PUSH2 0x1305 JUMPI DUP2 MLOAD DUP4 MSTORE PUSH1 0x20 SWAP3 DUP4 ADD SWAP3 SWAP1 SWAP2 ADD SWAP1 PUSH1 0x1 ADD PUSH2 0x12E6 JUMP JUMPDEST POP POP POP SWAP3 SWAP2 POP POP JUMP JUMPDEST PUSH1 0x0 DUP1 PUSH2 0x100 DUP4 DUP6 SUB SLT ISZERO PUSH2 0x1322 JUMPI PUSH1 0x0 DUP1 REVERT JUMPDEST PUSH2 0x132C DUP5 DUP5 PUSH2 0x1271 JUMP JUMPDEST SWAP2 POP PUSH2 0x12B0 DUP5 PUSH1 0x80 DUP6 ADD PUSH2 0x1271 JUMP JUMPDEST PUSH4 0x4E487B71 PUSH1 0xE0 SHL PUSH1 0x0 MSTORE PUSH1 0x12 PUSH1 0x4 MSTORE PUSH1 0x24 PUSH1 0x0 REVERT JUMPDEST DUP2 DUP2 SUB DUP2 DUP2 GT ISZERO PUSH2 0x9A9 JUMPI PUSH4 0x4E487B71 PUSH1 0xE0 SHL PUSH1 0x0 MSTORE PUSH1 0x11 PUSH1 0x4 MSTORE PUSH1 0x24 PUSH1 0x0 REVERT INVALID ADDRESS PUSH5 0x4E72E131A0 0x29 0xB8 POP GASLIMIT 0xB6 DUP2 DUP2 PC TSTORE SWAP8 DUP2 PUSH11 0x916871CA8D3C208C16D87C REVERT SELFBALANCE ADDRESS PUSH5 0x4E72E131A0 0x29 0xB8 POP GASLIMIT 0xB6 DUP2 DUP2 PC TSTORE 0x28 CALLER 0xE8 BASEFEE PUSH26 0xB9709143E1F593F0000001A26469706673582212205C22FBB054 PUSH23 0x79AA26C16D820E0E40B3566688CC7D9CAEBAFA0550B8B1 BALANCE 0xDD 0xB4 PUSH5 0x736F6C6343 STOP ADDMOD SHR STOP CALLER "},"methodIdentifiers":{"compressProof(uint256[8])":"44f63692","verifyCompressedProof(uint256[4],uint256[4])":"f2457c8d","verifyProof(uint256[8],uint256[4])":"23572511"}}}}}