{"src/ProposalRegistry.sol":{"ProposalRegistry":{"abi":[{"inputs":[{"internalType":"address","name":"target","type":"address"}],"name":"AddressEmptyCode","type":"error"},{"inputs":[{"internalType":"address","name":"implementation","type":"address"}],"name":"ERC1967InvalidImplementation","type":"error"},{"inputs":[],"name":"ERC1967NonPayable","type":"error"},{"inputs":[],"name":"FailedInnerCall","type":"error"},{"inputs":[],"name":"InvalidInitialization","type":"error"},{"inputs":[],"name":"NotInitializing","type":"error"},{"inputs":[{"internalType":"address","name":"owner","type":"address"}],"name":"OwnableInvalidOwner","type":"error"},{"inputs":[{"internalType":"address","name":"account","type":"address"}],"name":"OwnableUnauthorizedAccount","type":"error"},{"inputs":[],"name":"UUPSUnauthorizedCallContext","type":"error"},{"inputs":[{"internalType":"bytes32","name":"slot","type":"bytes32"}],"name":"UUPSUnsupportedProxiableUUID","type":"error"},{"anonymous":false,"inputs":[{"indexed":true,"internalType":"bytes32","name":"proposalID","type":"bytes32"},{"indexed":false,"internalType":"bytes32","name":"censusRoot","type":"bytes32"},{"indexed":false,"internalType":"string","name":"censusURI","type":"string"},{"indexed":false,"internalType":"uint256","name":"maxCensusSize","type":"uint256"}],"name":"CensusUpdated","type":"event"},{"anonymous":false,"inputs":[{"indexed":false,"internalType":"uint64","name":"version","type":"uint64"}],"name":"Initialized","type":"event"},{"anonymous":false,"inputs":[{"indexed":true,"internalType":"address","name":"previousOwner","type":"address"},{"indexed":true,"internalType":"address","name":"newOwner","type":"address"}],"name":"OwnershipTransferred","type":"event"},{"anonymous":false,"inputs":[{"indexed":true,"internalType":"bytes32","name":"proposalID","type":"bytes32"},{"indexed":true,"internalType":"address","name":"creator","type":"address"}],"name":"ProposalCreated","type":"event"},{"anonymous":false,"inputs":[{"indexed":true,"internalType":"bytes32","name":"proposalID","type":"bytes32"},{"indexed":false,"internalType":"uint256","name":"duration","type":"uint256"}],"name":"ProposalDurationChanged","type":"event"},{"anonymous":false,"inputs":[{"indexed":true,"internalType":"bytes32","name":"proposalID","type":"bytes32"},{"indexed":false,"internalType":"bytes32","name":"newStateRoot","type":"bytes32"}],"name":"ProposalStateRootUpdated","type":"event"},{"anonymous":false,"inputs":[{"indexed":true,"internalType":"bytes32","name":"proposalID","type":"bytes32"},{"indexed":false,"internalType":"enum ProposalRegistry.ProposalStatus","name":"newStatus","type":"uint8"}],"name":"ProposalStatusChanged","type":"event"},{"anonymous":false,"inputs":[{"indexed":true,"internalType":"address","name":"implementation","type":"address"}],"name":"Upgraded","type":"event"},{"inputs":[{"components":[{"internalType":"uint8","name":"envelopeType","type":"uint8"},{"internalType":"uint8","name":"proposalMode","type":"uint8"},{"internalType":"uint256","name":"startTime","type":"uint256"},{"internalType":"uint256","name":"duration","type":"uint256"},{"internalType":"enum ProposalRegistry.ProposalStatus","name":"status","type":"uint8"},{"components":[{"internalType":"bool","name":"uniqueValues","type":"bool"},{"internalType":"uint256","name":"maxCount","type":"uint256"},{"internalType":"uint256","name":"maxValue","type":"uint256"},{"internalType":"uint256","name":"minValue","type":"uint256"},{"internalType":"uint256","name":"maxOverwrites","type":"uint256"},{"internalType":"uint256","name":"maxTotalCost","type":"uint256"},{"internalType":"uint256","name":"minTotalCost","type":"uint256"},{"internalType":"uint256","name":"costExponent","type":"uint256"}],"internalType":"struct ProposalRegistry.VoteOptions","name":"voteOptions","type":"tuple"}],"internalType":"struct ProposalRegistry.ProposalOptions","name":"_options","type":"tuple"},{"components":[{"internalType":"enum ProposalRegistry.CensusOrigin","name":"censusOrigin","type":"uint8"},{"internalType":"uint256","name":"maxCensusSize","type":"uint256"},{"internalType":"bytes32","name":"censusRoot","type":"bytes32"},{"internalType":"string","name":"censusURI","type":"string"}],"internalType":"struct ProposalRegistry.Census","name":"_census","type":"tuple"},{"internalType":"string","name":"_metadata","type":"string"},{"internalType":"bytes32","name":"_organizationID","type":"bytes32"},{"internalType":"bytes32","name":"_proposalID","type":"bytes32"},{"internalType":"bytes32","name":"_encryptionPubKey","type":"bytes32"},{"internalType":"bytes32","name":"_initStateRoot","type":"bytes32"}],"name":"NewProposal","outputs":[],"stateMutability":"nonpayable","type":"function"},{"inputs":[{"internalType":"bytes32","name":"_proposalID","type":"bytes32"},{"components":[{"internalType":"enum ProposalRegistry.CensusOrigin","name":"censusOrigin","type":"uint8"},{"internalType":"uint256","name":"maxCensusSize","type":"uint256"},{"internalType":"bytes32","name":"censusRoot","type":"bytes32"},{"internalType":"string","name":"censusURI","type":"string"}],"internalType":"struct ProposalRegistry.Census","name":"_census","type":"tuple"}],"name":"SetProposalCensus","outputs":[],"stateMutability":"nonpayable","type":"function"},{"inputs":[{"internalType":"bytes32","name":"_proposalID","type":"bytes32"},{"internalType":"uint256","name":"_duration","type":"uint256"}],"name":"SetProposalDuration","outputs":[],"stateMutability":"nonpayable","type":"function"},{"inputs":[{"internalType":"bytes32","name":"_proposalID","type":"bytes32"},{"internalType":"uint256[][]","name":"_result","type":"uint256[][]"},{"internalType":"bytes","name":"_proof","type":"bytes"}],"name":"SetProposalResult","outputs":[],"stateMutability":"nonpayable","type":"function"},{"inputs":[{"internalType":"bytes32","name":"_proposalID","type":"bytes32"},{"internalType":"enum ProposalRegistry.ProposalStatus","name":"_newStatus","type":"uint8"}],"name":"SetProposalStatus","outputs":[],"stateMutability":"nonpayable","type":"function"},{"inputs":[],"name":"UPGRADE_INTERFACE_VERSION","outputs":[{"internalType":"string","name":"","type":"string"}],"stateMutability":"view","type":"function"},{"inputs":[],"name":"chainID","outputs":[{"internalType":"string","name":"","type":"string"}],"stateMutability":"view","type":"function"},{"inputs":[{"internalType":"bytes32","name":"_proposalID","type":"bytes32"}],"name":"endProposal","outputs":[],"stateMutability":"nonpayable","type":"function"},{"inputs":[{"internalType":"bytes32","name":"_proposalID","type":"bytes32"}],"name":"getProposal","outputs":[{"components":[{"internalType":"enum ProposalRegistry.ProposalStatus","name":"status","type":"uint8"},{"internalType":"bytes32","name":"organizationId","type":"bytes32"},{"internalType":"bytes32[2]","name":"encryptionKeys","type":"bytes32[2]"},{"internalType":"bytes32","name":"latestStateRoot","type":"bytes32"},{"internalType":"uint256[][]","name":"result","type":"uint256[][]"},{"internalType":"uint256","name":"startTime","type":"uint256"},{"internalType":"uint256","name":"duration","type":"uint256"},{"internalType":"string","name":"metadataURI","type":"string"},{"components":[{"internalType":"uint8","name":"envelopeType","type":"uint8"},{"internalType":"uint8","name":"proposalMode","type":"uint8"},{"internalType":"uint256","name":"startTime","type":"uint256"},{"internalType":"uint256","name":"duration","type":"uint256"},{"internalType":"enum ProposalRegistry.ProposalStatus","name":"status","type":"uint8"},{"components":[{"internalType":"bool","name":"uniqueValues","type":"bool"},{"internalType":"uint256","name":"maxCount","type":"uint256"},{"internalType":"uint256","name":"maxValue","type":"uint256"},{"internalType":"uint256","name":"minValue","type":"uint256"},{"internalType":"uint256","name":"maxOverwrites","type":"uint256"},{"internalType":"uint256","name":"maxTotalCost","type":"uint256"},{"internalType":"uint256","name":"minTotalCost","type":"uint256"},{"internalType":"uint256","name":"costExponent","type":"uint256"}],"internalType":"struct ProposalRegistry.VoteOptions","name":"voteOptions","type":"tuple"}],"internalType":"struct ProposalRegistry.ProposalOptions","name":"options","type":"tuple"},{"components":[{"internalType":"enum ProposalRegistry.CensusOrigin","name":"censusOrigin","type":"uint8"},{"internalType":"uint256","name":"maxCensusSize","type":"uint256"},{"internalType":"bytes32","name":"censusRoot","type":"bytes32"},{"internalType":"string","name":"censusURI","type":"string"}],"internalType":"struct ProposalRegistry.Census","name":"census","type":"tuple"}],"internalType":"struct ProposalRegistry.Proposal","name":"","type":"tuple"}],"stateMutability":"view","type":"function"},{"inputs":[{"internalType":"string","name":"_chainID","type":"string"},{"internalType":"address","name":"_organizationRegistry","type":"address"}],"name":"initialize","outputs":[],"stateMutability":"nonpayable","type":"function"},{"inputs":[],"name":"organizationRegistry","outputs":[{"internalType":"address","name":"","type":"address"}],"stateMutability":"view","type":"function"},{"inputs":[],"name":"owner","outputs":[{"internalType":"address","name":"","type":"address"}],"stateMutability":"view","type":"function"},{"inputs":[],"name":"proposalCount","outputs":[{"internalType":"uint32","name":"","type":"uint32"}],"stateMutability":"view","type":"function"},{"inputs":[{"internalType":"bytes32","name":"","type":"bytes32"}],"name":"proposals","outputs":[{"internalType":"enum ProposalRegistry.ProposalStatus","name":"status","type":"uint8"},{"internalType":"bytes32","name":"organizationId","type":"bytes32"},{"internalType":"bytes32","name":"latestStateRoot","type":"bytes32"},{"internalType":"uint256","name":"startTime","type":"uint256"},{"internalType":"uint256","name":"duration","type":"uint256"},{"internalType":"string","name":"metadataURI","type":"string"},{"components":[{"internalType":"uint8","name":"envelopeType","type":"uint8"},{"internalType":"uint8","name":"proposalMode","type":"uint8"},{"internalType":"uint256","name":"startTime","type":"uint256"},{"internalType":"uint256","name":"duration","type":"uint256"},{"internalType":"enum ProposalRegistry.ProposalStatus","name":"status","type":"uint8"},{"components":[{"internalType":"bool","name":"uniqueValues","type":"bool"},{"internalType":"uint256","name":"maxCount","type":"uint256"},{"internalType":"uint256","name":"maxValue","type":"uint256"},{"internalType":"uint256","name":"minValue","type":"uint256"},{"internalType":"uint256","name":"maxOverwrites","type":"uint256"},{"internalType":"uint256","name":"maxTotalCost","type":"uint256"},{"internalType":"uint256","name":"minTotalCost","type":"uint256"},{"internalType":"uint256","name":"costExponent","type":"uint256"}],"internalType":"struct ProposalRegistry.VoteOptions","name":"voteOptions","type":"tuple"}],"internalType":"struct ProposalRegistry.ProposalOptions","name":"options","type":"tuple"},{"components":[{"internalType":"enum ProposalRegistry.CensusOrigin","name":"censusOrigin","type":"uint8"},{"internalType":"uint256","name":"maxCensusSize","type":"uint256"},{"internalType":"bytes32","name":"censusRoot","type":"bytes32"},{"internalType":"string","name":"censusURI","type":"string"}],"internalType":"struct ProposalRegistry.Census","name":"census","type":"tuple"}],"stateMutability":"view","type":"function"},{"inputs":[],"name":"proxiableUUID","outputs":[{"internalType":"bytes32","name":"","type":"bytes32"}],"stateMutability":"view","type":"function"},{"inputs":[],"name":"renounceOwnership","outputs":[],"stateMutability":"nonpayable","type":"function"},{"inputs":[{"internalType":"bytes32","name":"_proposalID","type":"bytes32"},{"internalType":"bytes32","name":"_oldRoot","type":"bytes32"},{"internalType":"bytes32","name":"_newRoot","type":"bytes32"},{"internalType":"bytes","name":"_proof","type":"bytes"}],"name":"submitStateTransition","outputs":[],"stateMutability":"nonpayable","type":"function"},{"inputs":[{"internalType":"address","name":"newOwner","type":"address"}],"name":"transferOwnership","outputs":[],"stateMutability":"nonpayable","type":"function"},{"inputs":[{"internalType":"address","name":"newImplementation","type":"address"},{"internalType":"bytes","name":"data","type":"bytes"}],"name":"upgradeToAndCall","outputs":[],"stateMutability":"payable","type":"function"}],"evm":{"bytecode":{"linkReferences":{},"object":"60a06040523073ffffffffffffffffffffffffffffffffffffffff1660809073ffffffffffffffffffffffffffffffffffffffff1681525034801561004357600080fd5b50608051615dbc6200006e60003960008181612865015281816128ba0152612a750152615dbc6000f3fe6080604052600436106101145760003560e01c80638da5cb5b116100a0578063bd83d99a11610064578063bd83d99a14610371578063c4a6ec9a1461039a578063c5b05e5d146103c3578063da35c664146103ec578063f2fde38b1461041757610114565b80638da5cb5b1461029e578063ad3cb1cc146102c9578063adc879e9146102f4578063b3b470611461031f578063b66ba6eb1461034857610114565b80634f1ef286116100e75780634f1ef286146101ec57806352d1902d14610208578063715018a6146102335780637ab4339d1461024a5780638cafab7f1461027357610114565b806316b407d91461011957806332ed5b1214610142578063430694cf1461018657806344fd129b146101c3575b600080fd5b34801561012557600080fd5b50610140600480360381019061013b919061344d565b610440565b005b34801561014e57600080fd5b506101696004803603810190610164919061348d565b6106fe565b60405161017d989796959493929190613856565b60405180910390f35b34801561019257600080fd5b506101ad60048036038101906101a8919061348d565b6109cf565b6040516101ba9190613cb8565b60405180910390f35b3480156101cf57600080fd5b506101ea60048036038101906101e59190613cff565b610ddd565b005b61020660048036038101906102019190613ed2565b6111ab565b005b34801561021457600080fd5b5061021d6111ca565b60405161022a9190613f2e565b60405180910390f35b34801561023f57600080fd5b506102486111fd565b005b34801561025657600080fd5b50610271600480360381019061026c9190613fa9565b611211565b005b34801561027f57600080fd5b506102886113fd565b6040516102959190614018565b60405180910390f35b3480156102aa57600080fd5b506102b3611423565b6040516102c09190614018565b60405180910390f35b3480156102d557600080fd5b506102de61145b565b6040516102eb9190614033565b60405180910390f35b34801561030057600080fd5b50610309611494565b6040516103169190614033565b60405180910390f35b34801561032b57600080fd5b506103466004803603810190610341919061348d565b611522565b005b34801561035457600080fd5b5061036f600480360381019061036a91906140ab565b611768565b005b34801561037d57600080fd5b50610398600480360381019061039391906142d7565b61194e565b005b3480156103a657600080fd5b506103c160048036038101906103bc919061438b565b611a9f565b005b3480156103cf57600080fd5b506103ea60048036038101906103e59190614407565b611ec5565b005b3480156103f857600080fd5b506104016127c7565b60405161040e919061450b565b60405180910390f35b34801561042357600080fd5b5061043e60048036038101906104399190614526565b6127dd565b005b600160009054906101000a900473ffffffffffffffffffffffffffffffffffffffff1673ffffffffffffffffffffffffffffffffffffffff166364dd489f60008085815260200190815260200160002060010154336040518363ffffffff1660e01b81526004016104b2929190614553565b602060405180830381865afa1580156104cf573d6000803e3d6000fd5b505050506040513d601f19601f820116820180604052508101906104f391906145a8565b610532576040517f08c379a000000000000000000000000000000000000000000000000000000000815260040161052990614647565b60405180910390fd5b6000801b600080848152602001908152602001600020600101540361058c576040517f08c379a0000000000000000000000000000000000000000000000000000000008152600401610583906146b3565b60405180910390fd5b600060048111156105a05761059f6134ba565b5b60008084815260200190815260200160002060000160009054906101000a900460ff1660048111156105d5576105d46134ba565b5b14806106275750600360048111156105f0576105ef6134ba565b5b60008084815260200190815260200160002060000160009054906101000a900460ff166004811115610625576106246134ba565b5b145b610666576040517f08c379a000000000000000000000000000000000000000000000000000000000815260040161065d9061471f565b60405180910390fd5b4281116106a8576040517f08c379a000000000000000000000000000000000000000000000000000000000815260040161069f9061478b565b60405180910390fd5b8060008084815260200190815260200160002060070181905550817f983165304729e1c4e36ce532740769c8a5c4b56dc61c3c60b3f96322dac48091826040516106f291906147ab565b60405180910390a25050565b60006020528060005260406000206000915090508060000160009054906101000a900460ff169080600101549080600401549080600601549080600701549080600801805461074c906147f5565b80601f0160208091040260200160405190810160405280929190818152602001828054610778906147f5565b80156107c55780601f1061079a576101008083540402835291602001916107c5565b820191906000526020600020905b8154815290600101906020018083116107a857829003601f168201915b505050505090806009016040518060c00160405290816000820160009054906101000a900460ff1660ff1660ff1681526020016000820160019054906101000a900460ff1660ff1660ff16815260200160018201548152602001600282015481526020016003820160009054906101000a900460ff16600481111561084d5761084c6134ba565b5b600481111561085f5761085e6134ba565b5b815260200160048201604051806101000160405290816000820160009054906101000a900460ff161515151581526020016001820154815260200160028201548152602001600382015481526020016004820154815260200160058201548152602001600682015481526020016007820154815250508152505090806015016040518060800160405290816000820160009054906101000a900460ff16600981111561090e5761090d6134ba565b5b60098111156109205761091f6134ba565b5b81526020016001820154815260200160028201548152602001600382018054610948906147f5565b80601f0160208091040260200160405190810160405280929190818152602001828054610974906147f5565b80156109c15780601f10610996576101008083540402835291602001916109c1565b820191906000526020600020905b8154815290600101906020018083116109a457829003601f168201915b505050505081525050905088565b6109d76130ea565b600080838152602001908152602001600020604051806101400160405290816000820160009054906101000a900460ff166004811115610a1a57610a196134ba565b5b6004811115610a2c57610a2b6134ba565b5b81526020016001820154815260200160028201600280602002604051908101604052809291908260028015610a76576020028201915b815481526020019060010190808311610a62575b505050505081526020016004820154815260200160058201805480602002602001604051908101604052809291908181526020016000905b82821015610b2057838290600052602060002001805480602002602001604051908101604052809291908181526020018280548015610b0c57602002820191906000526020600020905b815481526020019060010190808311610af8575b505050505081526020019060010190610aae565b5050505081526020016006820154815260200160078201548152602001600882018054610b4c906147f5565b80601f0160208091040260200160405190810160405280929190818152602001828054610b78906147f5565b8015610bc55780601f10610b9a57610100808354040283529160200191610bc5565b820191906000526020600020905b815481529060010190602001808311610ba857829003601f168201915b50505050508152602001600982016040518060c00160405290816000820160009054906101000a900460ff1660ff1660ff1681526020016000820160019054906101000a900460ff1660ff1660ff16815260200160018201548152602001600282015481526020016003820160009054906101000a900460ff166004811115610c5157610c506134ba565b5b6004811115610c6357610c626134ba565b5b815260200160048201604051806101000160405290816000820160009054906101000a900460ff16151515158152602001600182015481526020016002820154815260200160038201548152602001600482015481526020016005820154815260200160068201548152602001600782015481525050815250508152602001601582016040518060800160405290816000820160009054906101000a900460ff166009811115610d1657610d156134ba565b5b6009811115610d2857610d276134ba565b5b81526020016001820154815260200160028201548152602001600382018054610d50906147f5565b80601f0160208091040260200160405190810160405280929190818152602001828054610d7c906147f5565b8015610dc95780601f10610d9e57610100808354040283529160200191610dc9565b820191906000526020600020905b815481529060010190602001808311610dac57829003601f168201915b505050505081525050815250509050919050565b600160009054906101000a900473ffffffffffffffffffffffffffffffffffffffff1673ffffffffffffffffffffffffffffffffffffffff166364dd489f60008085815260200190815260200160002060010154336040518363ffffffff1660e01b8152600401610e4f929190614553565b602060405180830381865afa158015610e6c573d6000803e3d6000fd5b505050506040513d601f19601f82011682018060405250810190610e9091906145a8565b610ecf576040517f08c379a0000000000000000000000000000000000000000000000000000000008152600401610ec690614898565b60405180910390fd5b600080600084815260200190815260200160002060000160009054906101000a900460ff16905060006004811115610f0a57610f096134ba565b5b816004811115610f1d57610f1c6134ba565b5b14158015610f50575060036004811115610f3a57610f396134ba565b5b816004811115610f4d57610f4c6134ba565b5b14155b15610f90576040517f08c379a0000000000000000000000000000000000000000000000000000000008152600401610f879061471f565b60405180910390fd5b60036004811115610fa457610fa36134ba565b5b816004811115610fb757610fb66134ba565b5b0361105c576000600260008086815260200190815260200160002060090160000160019054906101000a900460ff161660ff16036110575760006004811115611003576110026134ba565b5b826004811115611016576110156134ba565b5b14611056576040517f08c379a000000000000000000000000000000000000000000000000000000000815260040161104d90614904565b60405180910390fd5b5b6110cb565b6000600260008086815260200190815260200160002060090160000160019054906101000a900460ff161660ff16036110ca576040517f08c379a00000000000000000000000000000000000000000000000000000000081526004016110c190614904565b60405180910390fd5b5b8060048111156110de576110dd6134ba565b5b8260048111156110f1576110f06134ba565b5b03611131576040517f08c379a000000000000000000000000000000000000000000000000000000000815260040161112890614970565b60405180910390fd5b8160008085815260200190815260200160002060000160006101000a81548160ff02191690836004811115611169576111686134ba565b5b0217905550827f7def22fee322edec5f79e74d0747e712935e3076161cceab960aa0daca48e8d28360405161119e9190614990565b60405180910390a2505050565b6111b3612863565b6111bc82612949565b6111c68282612954565b5050565b60006111d4612a73565b7f360894a13ba1a3210667c828492db98dca3e2076cc3735a920a3ca505d382bbc60001b905090565b611205612afa565b61120f6000612b81565b565b600061121b612c58565b905060008160000160089054906101000a900460ff1615905060008260000160009054906101000a900467ffffffffffffffff1690506000808267ffffffffffffffff161480156112695750825b9050600060018367ffffffffffffffff1614801561129e575060003073ffffffffffffffffffffffffffffffffffffffff163b145b9050811580156112ac575080155b156112e3576040517ff92ee8a900000000000000000000000000000000000000000000000000000000815260040160405180910390fd5b60018560000160006101000a81548167ffffffffffffffff021916908367ffffffffffffffff16021790555083156113335760018560000160086101000a81548160ff0219169083151502179055505b61133c33612c80565b611344612c94565b878760029182611355929190614b62565b5085600160006101000a81548173ffffffffffffffffffffffffffffffffffffffff021916908373ffffffffffffffffffffffffffffffffffffffff16021790555083156113f35760008560000160086101000a81548160ff0219169083151502179055507fc7f505b2f371ae2175ee4913f4499e1f2633a7b5936321eed1cdaeb6115181d260016040516113ea9190614c81565b60405180910390a15b5050505050505050565b600160009054906101000a900473ffffffffffffffffffffffffffffffffffffffff1681565b60008061142e612c9e565b90508060000160009054906101000a900473ffffffffffffffffffffffffffffffffffffffff1691505090565b6040518060400160405280600581526020017f352e302e3000000000000000000000000000000000000000000000000000000081525081565b600280546114a1906147f5565b80601f01602080910402602001604051908101604052809291908181526020018280546114cd906147f5565b801561151a5780601f106114ef5761010080835404028352916020019161151a565b820191906000526020600020905b8154815290600101906020018083116114fd57829003601f168201915b505050505081565b600160009054906101000a900473ffffffffffffffffffffffffffffffffffffffff1673ffffffffffffffffffffffffffffffffffffffff166364dd489f60008084815260200190815260200160002060010154336040518363ffffffff1660e01b8152600401611594929190614553565b602060405180830381865afa1580156115b1573d6000803e3d6000fd5b505050506040513d601f19601f820116820180604052508101906115d591906145a8565b611614576040517f08c379a000000000000000000000000000000000000000000000000000000000815260040161160b90614d0e565b60405180910390fd5b60006004811115611628576116276134ba565b5b60008083815260200190815260200160002060000160009054906101000a900460ff16600481111561165d5761165c6134ba565b5b14806116af575060036004811115611678576116776134ba565b5b60008083815260200190815260200160002060000160009054906101000a900460ff1660048111156116ad576116ac6134ba565b5b145b6116ee576040517f08c379a00000000000000000000000000000000000000000000000000000000081526004016116e59061471f565b60405180910390fd5b600160008083815260200190815260200160002060000160006101000a81548160ff02191690836004811115611727576117266134ba565b5b0217905550807f7def22fee322edec5f79e74d0747e712935e3076161cceab960aa0daca48e8d2600160405161175d9190614990565b60405180910390a250565b6000801b60008087815260200190815260200160002060010154036117c2576040517f08c379a00000000000000000000000000000000000000000000000000000000081526004016117b9906146b3565b60405180910390fd5b6004808111156117d5576117d46134ba565b5b60008087815260200190815260200160002060000160009054906101000a900460ff16600481111561180a576118096134ba565b5b1415801561185f575060026004811115611827576118266134ba565b5b60008087815260200190815260200160002060000160009054906101000a900460ff16600481111561185c5761185b6134ba565b5b14155b61189e576040517f08c379a000000000000000000000000000000000000000000000000000000000815260040161189590614da0565b60405180910390fd5b8360008087815260200190815260200160002060040154146118f5576040517f08c379a00000000000000000000000000000000000000000000000000000000081526004016118ec90614e0c565b60405180910390fd5b8260008087815260200190815260200160002060040181905550847f6fff2d70a00d754c43c8c120be5e18415b3443738a8cff4b907faa8c52e173a28460405161193f9190613f2e565b60405180910390a25050505050565b6000801b60008086815260200190815260200160002060010154036119a8576040517f08c379a000000000000000000000000000000000000000000000000000000000815260040161199f906146b3565b60405180910390fd5b600160048111156119bc576119bb6134ba565b5b60008086815260200190815260200160002060000160009054906101000a900460ff1660048111156119f1576119f06134ba565b5b14611a31576040517f08c379a0000000000000000000000000000000000000000000000000000000008152600401611a2890614e78565b60405180910390fd5b826000808681526020019081526020016000206005019080519060200190611a5a929190613167565b50600460008086815260200190815260200160002060000160006101000a81548160ff02191690836004811115611a9457611a936134ba565b5b021790555050505050565b600160009054906101000a900473ffffffffffffffffffffffffffffffffffffffff1673ffffffffffffffffffffffffffffffffffffffff166364dd489f60008085815260200190815260200160002060010154336040518363ffffffff1660e01b8152600401611b11929190614553565b602060405180830381865afa158015611b2e573d6000803e3d6000fd5b505050506040513d601f19601f82011682018060405250810190611b5291906145a8565b611b91576040517f08c379a0000000000000000000000000000000000000000000000000000000008152600401611b8890614f0a565b60405180910390fd5b6000818060600190611ba39190614f39565b905011611be5576040517f08c379a0000000000000000000000000000000000000000000000000000000008152600401611bdc90614fe8565b60405180910390fd5b6000801b816040013503611c2e576040517f08c379a0000000000000000000000000000000000000000000000000000000008152600401611c2590615054565b60405180910390fd5b6000801b6000808481526020019081526020016000206001015403611c88576040517f08c379a0000000000000000000000000000000000000000000000000000000008152600401611c7f906146b3565b60405180910390fd5b60006004811115611c9c57611c9b6134ba565b5b60008084815260200190815260200160002060000160009054906101000a900460ff166004811115611cd157611cd06134ba565b5b1480611d23575060036004811115611cec57611ceb6134ba565b5b60008084815260200190815260200160002060000160009054906101000a900460ff166004811115611d2157611d206134ba565b5b145b611d62576040517f08c379a0000000000000000000000000000000000000000000000000000000008152600401611d599061471f565b60405180910390fd5b6000600460008085815260200190815260200160002060090160000160019054906101000a900460ff161660ff1603611dd0576040517f08c379a0000000000000000000000000000000000000000000000000000000008152600401611dc7906150c0565b60405180910390fd5b8060200135600080848152602001908152602001600020601501600101541015611e16578060200135600080848152602001908152602001600020601501600101819055505b806040013560008084815260200190815260200160002060150160020181905550808060600190611e479190614f39565b6000808581526020019081526020016000206015016003019182611e6c929190614b62565b50817f35947a8913e2156f19b018078c9f0667e49cb3dc24af3434a4d0b16b82675b1b8260400135838060600190611ea49190614f39565b8560200135604051611eb9949392919061510d565b60405180910390a25050565b60008860a0016020013511611f0f576040517f08c379a0000000000000000000000000000000000000000000000000000000008152600401611f0690615199565b60405180910390fd5b8760a001602001358860a0016040013511611f5f576040517f08c379a0000000000000000000000000000000000000000000000000000000008152600401611f5690615205565b60405180910390fd5b60006004811115611f7357611f726134ba565b5b886080016020810190611f869190615225565b6004811115611f9857611f976134ba565b5b1480611fda575060036004811115611fb357611fb26134ba565b5b886080016020810190611fc69190615225565b6004811115611fd857611fd76134ba565b5b145b612019576040517f08c379a00000000000000000000000000000000000000000000000000000000081526004016120109061529e565b60405180910390fd5b6003600981111561202d5761202c6134ba565b5b87600001602081019061204091906152e3565b6009811115612052576120516134ba565b5b036120b3576000600289600001602081019061206e919061533c565b1660ff16146120b2576040517f08c379a00000000000000000000000000000000000000000000000000000000081526004016120a990615401565b60405180910390fd5b5b6009808111156120c6576120c56134ba565b5b8760000160208101906120d991906152e3565b60098111156120eb576120ea6134ba565b5b036121f15760018860a001602001351461213a576040517f08c379a000000000000000000000000000000000000000000000000000000000815260040161213190615493565b60405180910390fd5b60006002896000016020810190612151919061533c565b1660ff1614612195576040517f08c379a000000000000000000000000000000000000000000000000000000000815260040161218c9061554b565b60405180910390fd5b600060048960000160208101906121ac919061533c565b1660ff16146121f0576040517f08c379a00000000000000000000000000000000000000000000000000000000081526004016121e790615603565b60405180910390fd5b5b42886040013511612237576040517f08c379a000000000000000000000000000000000000000000000000000000000815260040161222e9061566f565b60405180910390fd5b428860600135896040013561224c91906156be565b1161228c576040517f08c379a00000000000000000000000000000000000000000000000000000000081526004016122839061573e565b60405180910390fd5b600060018960000160208101906122a3919061533c565b1660ff16146122e7576040517f08c379a00000000000000000000000000000000000000000000000000000000081526004016122de906157d0565b60405180910390fd5b600160009054906101000a900473ffffffffffffffffffffffffffffffffffffffff1673ffffffffffffffffffffffffffffffffffffffff166364dd489f85336040518363ffffffff1660e01b8152600401612344929190614553565b602060405180830381865afa158015612361573d6000803e3d6000fd5b505050506040513d601f19601f8201168201806040525081019061238591906145a8565b6123c4576040517f08c379a00000000000000000000000000000000000000000000000000000000081526004016123bb90615862565b60405180910390fd5b6000801b600080858152602001908152602001600020600101541461241e576040517f08c379a0000000000000000000000000000000000000000000000000000000008152600401612415906158f4565b60405180910390fd5b60006040518061014001604052808a608001602081019061243f9190615225565b6004811115612451576124506134ba565b5b815260200186815260200160405180604001604052808681526020016000801b8152508152602001838152602001600067ffffffffffffffff81111561249a57612499613da7565b5b6040519080825280602002602001820160405280156124cd57816020015b60608152602001906001900390816124b85790505b5081526020018a6040013581526020018a60600135815260200188888080601f016020809104026020016040519081016040528093929190818152602001838380828437600081840152601f19601f8201169050808301925050505050505081526020018a8036038101906125429190615a9e565b81526020018961255190615c01565b81525090508060008086815260200190815260200160002060008201518160000160006101000a81548160ff02191690836004811115612594576125936134ba565b5b0217905550602082015181600101556040820151816002019060026125ba9291906131c7565b506060820151816004015560808201518160050190805190602001906125e1929190613167565b5060a0820151816006015560c0820151816007015560e082015181600801908161260b9190615c14565b506101008201518160090160008201518160000160006101000a81548160ff021916908360ff16021790555060208201518160000160016101000a81548160ff021916908360ff160217905550604082015181600101556060820151816002015560808201518160030160006101000a81548160ff02191690836004811115612697576126966134ba565b5b021790555060a08201518160040160008201518160000160006101000a81548160ff0219169083151502179055506020820151816001015560408201518160020155606082015181600301556080820151816004015560a0820151816005015560c0820151816006015560e08201518160070155505050506101208201518160150160008201518160000160006101000a81548160ff02191690836009811115612744576127436134ba565b5b0217905550602082015181600101556040820151816002015560608201518160030190816127729190615c14565b5050509050503373ffffffffffffffffffffffffffffffffffffffff16847fe90bb18a6fc9203e3678a7f41e132910465e0fce1421609662d02c481fbfbcf860405160405180910390a3505050505050505050565b600160149054906101000a900463ffffffff1681565b6127e5612afa565b600073ffffffffffffffffffffffffffffffffffffffff168173ffffffffffffffffffffffffffffffffffffffff16036128575760006040517f1e4fbdf700000000000000000000000000000000000000000000000000000000815260040161284e9190614018565b60405180910390fd5b61286081612b81565b50565b7f000000000000000000000000000000000000000000000000000000000000000073ffffffffffffffffffffffffffffffffffffffff163073ffffffffffffffffffffffffffffffffffffffff16148061291057507f000000000000000000000000000000000000000000000000000000000000000073ffffffffffffffffffffffffffffffffffffffff166128f7612cc6565b73ffffffffffffffffffffffffffffffffffffffff1614155b15612947576040517fe07c8dba00000000000000000000000000000000000000000000000000000000815260040160405180910390fd5b565b612951612afa565b50565b8173ffffffffffffffffffffffffffffffffffffffff166352d1902d6040518163ffffffff1660e01b8152600401602060405180830381865afa9250505080156129bc57506040513d601f19601f820116820180604052508101906129b99190615cfb565b60015b6129fd57816040517f4c9c8ce30000000000000000000000000000000000000000000000000000000081526004016129f49190614018565b60405180910390fd5b7f360894a13ba1a3210667c828492db98dca3e2076cc3735a920a3ca505d382bbc60001b8114612a6457806040517faa1d49a4000000000000000000000000000000000000000000000000000000008152600401612a5b9190613f2e565b60405180910390fd5b612a6e8383612d1d565b505050565b7f000000000000000000000000000000000000000000000000000000000000000073ffffffffffffffffffffffffffffffffffffffff163073ffffffffffffffffffffffffffffffffffffffff1614612af8576040517fe07c8dba00000000000000000000000000000000000000000000000000000000815260040160405180910390fd5b565b612b02612d90565b73ffffffffffffffffffffffffffffffffffffffff16612b20611423565b73ffffffffffffffffffffffffffffffffffffffff1614612b7f57612b43612d90565b6040517f118cdaa7000000000000000000000000000000000000000000000000000000008152600401612b769190614018565b60405180910390fd5b565b6000612b8b612c9e565b905060008160000160009054906101000a900473ffffffffffffffffffffffffffffffffffffffff169050828260000160006101000a81548173ffffffffffffffffffffffffffffffffffffffff021916908373ffffffffffffffffffffffffffffffffffffffff1602179055508273ffffffffffffffffffffffffffffffffffffffff168173ffffffffffffffffffffffffffffffffffffffff167f8be0079c531659141344cd1fd0a4f28419497f9722a3daafe3b4186f6b6457e060405160405180910390a3505050565b60007ff0c57e16840df040f15088dc2f81fe391c3923bec73e23a9662efc9c229c6a00905090565b612c88612d98565b612c9181612dd8565b50565b612c9c612d98565b565b60007f9016d09d72d40fdae2fd8ceac6b6234c7706214fd39c1cd1e609a0528c199300905090565b6000612cf47f360894a13ba1a3210667c828492db98dca3e2076cc3735a920a3ca505d382bbc60001b612e5e565b60000160009054906101000a900473ffffffffffffffffffffffffffffffffffffffff16905090565b612d2682612e68565b8173ffffffffffffffffffffffffffffffffffffffff167fbc7cd75a20ee27fd9adebab32041f755214dbc6bffa90cc0225b39da2e5c2d3b60405160405180910390a2600081511115612d8357612d7d8282612f35565b50612d8c565b612d8b612fb9565b5b5050565b600033905090565b612da0612ff6565b612dd6576040517fd7e6bcf800000000000000000000000000000000000000000000000000000000815260040160405180910390fd5b565b612de0612d98565b600073ffffffffffffffffffffffffffffffffffffffff168173ffffffffffffffffffffffffffffffffffffffff1603612e525760006040517f1e4fbdf7000000000000000000000000000000000000000000000000000000008152600401612e499190614018565b60405180910390fd5b612e5b81612b81565b50565b6000819050919050565b60008173ffffffffffffffffffffffffffffffffffffffff163b03612ec457806040517f4c9c8ce3000000000000000000000000000000000000000000000000000000008152600401612ebb9190614018565b60405180910390fd5b80612ef17f360894a13ba1a3210667c828492db98dca3e2076cc3735a920a3ca505d382bbc60001b612e5e565b60000160006101000a81548173ffffffffffffffffffffffffffffffffffffffff021916908373ffffffffffffffffffffffffffffffffffffffff16021790555050565b60606000808473ffffffffffffffffffffffffffffffffffffffff1684604051612f5f9190615d6f565b600060405180830381855af49150503d8060008114612f9a576040519150601f19603f3d011682016040523d82523d6000602084013e612f9f565b606091505b5091509150612faf858383613016565b9250505092915050565b6000341115612ff4576040517fb398979f00000000000000000000000000000000000000000000000000000000815260040160405180910390fd5b565b6000613000612c58565b60000160089054906101000a900460ff16905090565b60608261302b57613026826130a5565b61309d565b60008251148015613053575060008473ffffffffffffffffffffffffffffffffffffffff163b145b1561309557836040517f9996b31500000000000000000000000000000000000000000000000000000000815260040161308c9190614018565b60405180910390fd5b81905061309e565b5b9392505050565b6000815111156130b85780518082602001fd5b6040517f1425ea4200000000000000000000000000000000000000000000000000000000815260040160405180910390fd5b6040518061014001604052806000600481111561310a576131096134ba565b5b815260200160008019168152602001613121613207565b81526020016000801916815260200160608152602001600081526020016000815260200160608152602001613154613229565b815260200161316161327d565b81525090565b8280548282559060005260206000209081019282156131b6579160200282015b828111156131b55782518290805190602001906131a59291906132ba565b5091602001919060010190613187565b5b5090506131c39190613307565b5090565b82600281019282156131f6579160200282015b828111156131f55782518255916020019190600101906131da565b5b509050613203919061332b565b5090565b6040518060400160405280600290602082028036833780820191505090505090565b6040518060c00160405280600060ff168152602001600060ff16815260200160008152602001600081526020016000600481111561326a576132696134ba565b5b8152602001613277613348565b81525090565b60405180608001604052806000600981111561329c5761329b6134ba565b5b81526020016000815260200160008019168152602001606081525090565b8280548282559060005260206000209081019282156132f6579160200282015b828111156132f55782518255916020019190600101906132da565b5b509050613303919061338f565b5090565b5b80821115613327576000818161331e91906133ac565b50600101613308565b5090565b5b8082111561334457600081600090555060010161332c565b5090565b604051806101000160405280600015158152602001600081526020016000815260200160008152602001600081526020016000815260200160008152602001600081525090565b5b808211156133a8576000816000905550600101613390565b5090565b50805460008255906000526020600020908101906133ca919061338f565b50565b6000604051905090565b600080fd5b600080fd5b6000819050919050565b6133f4816133e1565b81146133ff57600080fd5b50565b600081359050613411816133eb565b92915050565b6000819050919050565b61342a81613417565b811461343557600080fd5b50565b60008135905061344781613421565b92915050565b60008060408385031215613464576134636133d7565b5b600061347285828601613402565b925050602061348385828601613438565b9150509250929050565b6000602082840312156134a3576134a26133d7565b5b60006134b184828501613402565b91505092915050565b7f4e487b7100000000000000000000000000000000000000000000000000000000600052602160045260246000fd5b600581106134fa576134f96134ba565b5b50565b600081905061350b826134e9565b919050565b600061351b826134fd565b9050919050565b61352b81613510565b82525050565b61353a816133e1565b82525050565b61354981613417565b82525050565b600081519050919050565b600082825260208201905092915050565b60005b8381101561358957808201518184015260208101905061356e565b60008484015250505050565b6000601f19601f8301169050919050565b60006135b18261354f565b6135bb818561355a565b93506135cb81856020860161356b565b6135d481613595565b840191505092915050565b600060ff82169050919050565b6135f5816135df565b82525050565b61360481613417565b82525050565b61361381613510565b82525050565b60008115159050919050565b61362e81613619565b82525050565b6101008201600082015161364b6000850182613625565b50602082015161365e60208501826135fb565b50604082015161367160408501826135fb565b50606082015161368460608501826135fb565b50608082015161369760808501826135fb565b5060a08201516136aa60a08501826135fb565b5060c08201516136bd60c08501826135fb565b5060e08201516136d060e08501826135fb565b50505050565b6101a0820160008201516136ed60008501826135ec565b50602082015161370060208501826135ec565b50604082015161371360408501826135fb565b50606082015161372660608501826135fb565b506080820151613739608085018261360a565b5060a082015161374c60a0850182613634565b50505050565b600a8110613763576137626134ba565b5b50565b600081905061377482613752565b919050565b600061378482613766565b9050919050565b61379481613779565b82525050565b6137a3816133e1565b82525050565b600082825260208201905092915050565b60006137c58261354f565b6137cf81856137a9565b93506137df81856020860161356b565b6137e881613595565b840191505092915050565b600060808301600083015161380b600086018261378b565b50602083015161381e60208601826135fb565b506040830151613831604086018261379a565b506060830151848203606086015261384982826137ba565b9150508091505092915050565b60006102808201905061386c600083018b613522565b613879602083018a613531565b6138866040830189613531565b6138936060830188613540565b6138a06080830187613540565b81810360a08301526138b281866135a6565b90506138c160c08301856136d6565b8181036102608301526138d481846137f3565b90509998505050505050505050565b600060029050919050565b600081905092915050565b6000819050919050565b600061390f838361379a565b60208301905092915050565b6000602082019050919050565b613931816138e3565b61393b81846138ee565b9250613946826138f9565b8060005b8381101561397757815161395e8782613903565b96506139698361391b565b92505060018101905061394a565b505050505050565b600081519050919050565b600082825260208201905092915050565b6000819050602082019050919050565b600081519050919050565b600082825260208201905092915050565b6000819050602082019050919050565b60006139e383836135fb565b60208301905092915050565b6000602082019050919050565b6000613a07826139ab565b613a1181856139b6565b9350613a1c836139c7565b8060005b83811015613a4d578151613a3488826139d7565b9750613a3f836139ef565b925050600181019050613a20565b5085935050505092915050565b6000613a6683836139fc565b905092915050565b6000602082019050919050565b6000613a868261397f565b613a90818561398a565b935083602082028501613aa28561399b565b8060005b85811015613ade5784840389528151613abf8582613a5a565b9450613aca83613a6e565b925060208a01995050600181019050613aa6565b50829750879550505050505092915050565b6101a082016000820151613b0760008501826135ec565b506020820151613b1a60208501826135ec565b506040820151613b2d60408501826135fb565b506060820151613b4060608501826135fb565b506080820151613b53608085018261360a565b5060a0820151613b6660a0850182613634565b50505050565b6000608083016000830151613b84600086018261378b565b506020830151613b9760208601826135fb565b506040830151613baa604086018261379a565b5060608301518482036060860152613bc282826137ba565b9150508091505092915050565b60006102e083016000830151613be8600086018261360a565b506020830151613bfb602086018261379a565b506040830151613c0e6040860182613928565b506060830151613c21608086018261379a565b50608083015184820360a0860152613c398282613a7b565b91505060a0830151613c4e60c08601826135fb565b5060c0830151613c6160e08601826135fb565b5060e0830151848203610100860152613c7a82826137ba565b915050610100830151613c91610120860182613af0565b506101208301518482036102c0860152613cab8282613b6c565b9150508091505092915050565b60006020820190508181036000830152613cd28184613bcf565b905092915050565b60058110613ce757600080fd5b50565b600081359050613cf981613cda565b92915050565b60008060408385031215613d1657613d156133d7565b5b6000613d2485828601613402565b9250506020613d3585828601613cea565b9150509250929050565b600073ffffffffffffffffffffffffffffffffffffffff82169050919050565b6000613d6a82613d3f565b9050919050565b613d7a81613d5f565b8114613d8557600080fd5b50565b600081359050613d9781613d71565b92915050565b600080fd5b600080fd5b7f4e487b7100000000000000000000000000000000000000000000000000000000600052604160045260246000fd5b613ddf82613595565b810181811067ffffffffffffffff82111715613dfe57613dfd613da7565b5b80604052505050565b6000613e116133cd565b9050613e1d8282613dd6565b919050565b600067ffffffffffffffff821115613e3d57613e3c613da7565b5b613e4682613595565b9050602081019050919050565b82818337600083830152505050565b6000613e75613e7084613e22565b613e07565b905082815260208101848484011115613e9157613e90613da2565b5b613e9c848285613e53565b509392505050565b600082601f830112613eb957613eb8613d9d565b5b8135613ec9848260208601613e62565b91505092915050565b60008060408385031215613ee957613ee86133d7565b5b6000613ef785828601613d88565b925050602083013567ffffffffffffffff811115613f1857613f176133dc565b5b613f2485828601613ea4565b9150509250929050565b6000602082019050613f436000830184613531565b92915050565b600080fd5b600080fd5b60008083601f840112613f6957613f68613d9d565b5b8235905067ffffffffffffffff811115613f8657613f85613f49565b5b602083019150836001820283011115613fa257613fa1613f4e565b5b9250929050565b600080600060408486031215613fc257613fc16133d7565b5b600084013567ffffffffffffffff811115613fe057613fdf6133dc565b5b613fec86828701613f53565b93509350506020613fff86828701613d88565b9150509250925092565b61401281613d5f565b82525050565b600060208201905061402d6000830184614009565b92915050565b6000602082019050818103600083015261404d81846135a6565b905092915050565b60008083601f84011261406b5761406a613d9d565b5b8235905067ffffffffffffffff81111561408857614087613f49565b5b6020830191508360018202830111156140a4576140a3613f4e565b5b9250929050565b6000806000806000608086880312156140c7576140c66133d7565b5b60006140d588828901613402565b95505060206140e688828901613402565b94505060406140f788828901613402565b935050606086013567ffffffffffffffff811115614118576141176133dc565b5b61412488828901614055565b92509250509295509295909350565b600067ffffffffffffffff82111561414e5761414d613da7565b5b602082029050602081019050919050565b600067ffffffffffffffff82111561417a57614179613da7565b5b602082029050602081019050919050565b600061419e6141998461415f565b613e07565b905080838252602082019050602084028301858111156141c1576141c0613f4e565b5b835b818110156141ea57806141d68882613438565b8452602084019350506020810190506141c3565b5050509392505050565b600082601f83011261420957614208613d9d565b5b813561421984826020860161418b565b91505092915050565b600061423561423084614133565b613e07565b9050808382526020820190506020840283018581111561425857614257613f4e565b5b835b8181101561429f57803567ffffffffffffffff81111561427d5761427c613d9d565b5b80860161428a89826141f4565b8552602085019450505060208101905061425a565b5050509392505050565b600082601f8301126142be576142bd613d9d565b5b81356142ce848260208601614222565b91505092915050565b600080600080606085870312156142f1576142f06133d7565b5b60006142ff87828801613402565b945050602085013567ffffffffffffffff8111156143205761431f6133dc565b5b61432c878288016142a9565b935050604085013567ffffffffffffffff81111561434d5761434c6133dc565b5b61435987828801614055565b925092505092959194509250565b600080fd5b60006080828403121561438257614381614367565b5b81905092915050565b600080604083850312156143a2576143a16133d7565b5b60006143b085828601613402565b925050602083013567ffffffffffffffff8111156143d1576143d06133dc565b5b6143dd8582860161436c565b9150509250929050565b60006101a082840312156143fe576143fd614367565b5b81905092915050565b600080600080600080600080610260898b031215614428576144276133d7565b5b60006144368b828c016143e7565b9850506101a089013567ffffffffffffffff811115614458576144576133dc565b5b6144648b828c0161436c565b9750506101c089013567ffffffffffffffff811115614486576144856133dc565b5b6144928b828c01613f53565b96509650506101e06144a68b828c01613402565b9450506102006144b88b828c01613402565b9350506102206144ca8b828c01613402565b9250506102406144dc8b828c01613402565b9150509295985092959890939650565b600063ffffffff82169050919050565b614505816144ec565b82525050565b600060208201905061452060008301846144fc565b92915050565b60006020828403121561453c5761453b6133d7565b5b600061454a84828501613d88565b91505092915050565b60006040820190506145686000830185613531565b6145756020830184614009565b9392505050565b61458581613619565b811461459057600080fd5b50565b6000815190506145a28161457c565b92915050565b6000602082840312156145be576145bd6133d7565b5b60006145cc84828501614593565b91505092915050565b7f53657450726f706f73616c4475726174696f6e3a206e6f7420616e2061646d6960008201527f6e6973747261746f720000000000000000000000000000000000000000000000602082015250565b600061463160298361355a565b915061463c826145d5565b604082019050919050565b6000602082019050818103600083015261466081614624565b9050919050565b7f50726f706f73616c206e6f7420666f756e640000000000000000000000000000600082015250565b600061469d60128361355a565b91506146a882614667565b602082019050919050565b600060208201905081810360008301526146cc81614690565b9050919050565b7f50726f63657373207465726d696e617465640000000000000000000000000000600082015250565b600061470960128361355a565b9150614714826146d3565b602082019050919050565b60006020820190508181036000830152614738816146fc565b9050919050565b7f496e76616c6964206475726174696f6e00000000000000000000000000000000600082015250565b600061477560108361355a565b91506147808261473f565b602082019050919050565b600060208201905081810360008301526147a481614768565b9050919050565b60006020820190506147c06000830184613540565b92915050565b7f4e487b7100000000000000000000000000000000000000000000000000000000600052602260045260246000fd5b6000600282049050600182168061480d57607f821691505b6020821081036148205761481f6147c6565b5b50919050565b7f53657450726f706f73616c5374617475733a206e6f7420616e2061646d696e6960008201527f73747261746f7200000000000000000000000000000000000000000000000000602082015250565b600061488260278361355a565b915061488d82614826565b604082019050919050565b600060208201905081810360008301526148b181614875565b9050919050565b7f4e6f7420696e7465727275707469626c65000000000000000000000000000000600082015250565b60006148ee60118361355a565b91506148f9826148b8565b602082019050919050565b6000602082019050818103600083015261491d816148e1565b9050919050565b7f4d75737420646966666572000000000000000000000000000000000000000000600082015250565b600061495a600b8361355a565b915061496582614924565b602082019050919050565b600060208201905081810360008301526149898161494d565b9050919050565b60006020820190506149a56000830184613522565b92915050565b600082905092915050565b60008190508160005260206000209050919050565b60006020601f8301049050919050565b600082821b905092915050565b600060088302614a187fffffffffffffffffffffffffffffffffffffffffffffffffffffffffffffffff826149db565b614a2286836149db565b95508019841693508086168417925050509392505050565b6000819050919050565b6000614a5f614a5a614a5584613417565b614a3a565b613417565b9050919050565b6000819050919050565b614a7983614a44565b614a8d614a8582614a66565b8484546149e8565b825550505050565b600090565b614aa2614a95565b614aad818484614a70565b505050565b5b81811015614ad157614ac6600082614a9a565b600181019050614ab3565b5050565b601f821115614b1657614ae7816149b6565b614af0846149cb565b81016020851015614aff578190505b614b13614b0b856149cb565b830182614ab2565b50505b505050565b600082821c905092915050565b6000614b3960001984600802614b1b565b1980831691505092915050565b6000614b528383614b28565b9150826002028217905092915050565b614b6c83836149ab565b67ffffffffffffffff811115614b8557614b84613da7565b5b614b8f82546147f5565b614b9a828285614ad5565b6000601f831160018114614bc95760008415614bb7578287013590505b614bc18582614b46565b865550614c29565b601f198416614bd7866149b6565b60005b82811015614bff57848901358255600182019150602085019450602081019050614bda565b86831015614c1c5784890135614c18601f891682614b28565b8355505b6001600288020188555050505b50505050505050565b6000819050919050565b600067ffffffffffffffff82169050919050565b6000614c6b614c66614c6184614c32565b614a3a565b614c3c565b9050919050565b614c7b81614c50565b82525050565b6000602082019050614c966000830184614c72565b92915050565b7f656e6450726f706f73616c3a206e6f7420616e2061646d696e6973747261746f60008201527f7200000000000000000000000000000000000000000000000000000000000000602082015250565b6000614cf860218361355a565b9150614d0382614c9c565b604082019050919050565b60006020820190508181036000830152614d2781614ceb565b9050919050565b7f496e76616c69642073746174757320666f72207375626d697474696e6720737460008201527f617465207472616e736974696f6e000000000000000000000000000000000000602082015250565b6000614d8a602e8361355a565b9150614d9582614d2e565b604082019050919050565b60006020820190508181036000830152614db981614d7d565b9050919050565b7f496e76616c6964206f6c6420726f6f7400000000000000000000000000000000600082015250565b6000614df660108361355a565b9150614e0182614dc0565b602082019050919050565b60006020820190508181036000830152614e2581614de9565b9050919050565b7f50726f63657373206e6f7420656e646564000000000000000000000000000000600082015250565b6000614e6260118361355a565b9150614e6d82614e2c565b602082019050919050565b60006020820190508181036000830152614e9181614e55565b9050919050565b7f53657450726f706f73616c43656e7375733a206e6f7420616e2061646d696e6960008201527f73747261746f7200000000000000000000000000000000000000000000000000602082015250565b6000614ef460278361355a565b9150614eff82614e98565b604082019050919050565b60006020820190508181036000830152614f2381614ee7565b9050919050565b600080fd5b600080fd5b600080fd5b60008083356001602003843603038112614f5657614f55614f2a565b5b80840192508235915067ffffffffffffffff821115614f7857614f77614f2f565b5b602083019250600182023603831315614f9457614f93614f34565b5b509250929050565b7f456d707479205552490000000000000000000000000000000000000000000000600082015250565b6000614fd260098361355a565b9150614fdd82614f9c565b602082019050919050565b6000602082019050818103600083015261500181614fc5565b9050919050565b7f456d70747920726f6f7400000000000000000000000000000000000000000000600082015250565b600061503e600a8361355a565b915061504982615008565b602082019050919050565b6000602082019050818103600083015261506d81615031565b9050919050565b7f526561642d6f6e6c792063656e73757300000000000000000000000000000000600082015250565b60006150aa60108361355a565b91506150b582615074565b602082019050919050565b600060208201905081810360008301526150d98161509d565b9050919050565b60006150ec838561355a565b93506150f9838584613e53565b61510283613595565b840190509392505050565b60006060820190506151226000830187613531565b81810360208301526151358185876150e0565b90506151446040830184613540565b95945050505050565b7f4e657750726f706f73616c3a20696e76616c6964206d6178436f756e74000000600082015250565b6000615183601d8361355a565b915061518e8261514d565b602082019050919050565b600060208201905081810360008301526151b281615176565b9050919050565b7f4e657750726f706f73616c3a206d6178436f756e74203e206d617856616c7565600082015250565b60006151ef60208361355a565b91506151fa826151b9565b602082019050919050565b6000602082019050818103600083015261521e816151e2565b9050919050565b60006020828403121561523b5761523a6133d7565b5b600061524984828501613cea565b91505092915050565b7f4e657750726f706f73616c3a20696e76616c6964207374617475730000000000600082015250565b6000615288601b8361355a565b915061529382615252565b602082019050919050565b600060208201905081810360008301526152b78161527b565b9050919050565b600a81106152cb57600080fd5b50565b6000813590506152dd816152be565b92915050565b6000602082840312156152f9576152f86133d7565b5b6000615307848285016152ce565b91505092915050565b615319816135df565b811461532457600080fd5b50565b60008135905061533681615310565b92915050565b600060208284031215615352576153516133d7565b5b600061536084828501615327565b91505092915050565b7f4e657750726f706f73616c3a2063656e737573206f726967696e20434120726560008201527f717569726573206e6f6e2d616e6f6e796d6f757320656e76656c6f706520747960208201527f7065000000000000000000000000000000000000000000000000000000000000604082015250565b60006153eb60428361355a565b91506153f682615369565b606082019050919050565b6000602082019050818103600083015261541a816153de565b9050919050565b7f4e657750726f706f73616c3a206d6178436f756e74206d75737420626520312060008201527f666f722046617263617374657200000000000000000000000000000000000000602082015250565b600061547d602d8361355a565b915061548882615421565b604082019050919050565b600060208201905081810360008301526154ac81615470565b9050919050565b7f4e657750726f706f73616c3a2063656e737573206f726967696e20466172636160008201527f73746572207265717569726573206e6f6e2d616e6f6e796d6f757320656e766560208201527f6c6f706520747970650000000000000000000000000000000000000000000000604082015250565b600061553560498361355a565b9150615540826154b3565b606082019050919050565b6000602082019050818103600083015261556481615528565b9050919050565b7f4e657750726f706f73616c3a2063656e737573206f726967696e20466172636160008201527f73746572207265717569726573206e6f6e2d656e6372797074656420656e766560208201527f6c6f706520747970650000000000000000000000000000000000000000000000604082015250565b60006155ed60498361355a565b91506155f88261556b565b606082019050919050565b6000602082019050818103600083015261561c816155e0565b9050919050565b7f4e657750726f706f73616c3a20696e76616c696420737461727454696d650000600082015250565b6000615659601e8361355a565b915061566482615623565b602082019050919050565b600060208201905081810360008301526156888161564c565b9050919050565b7f4e487b7100000000000000000000000000000000000000000000000000000000600052601160045260246000fd5b60006156c982613417565b91506156d483613417565b92508282019050808211156156ec576156eb61568f565b5b92915050565b7f4e657750726f706f73616c3a20696e76616c6964206475726174696f6e000000600082015250565b6000615728601d8361355a565b9150615733826156f2565b602082019050919050565b600060208201905081810360008301526157578161571b565b9050919050565b7f4e657750726f706f73616c3a2073657269616c20656e76656c6f70652074797060008201527f65206e6f7420696d706c656d656e746564000000000000000000000000000000602082015250565b60006157ba60318361355a565b91506157c58261575e565b604082019050919050565b600060208201905081810360008301526157e9816157ad565b9050919050565b7f4e657750726f706f73616c3a206e6f7420616e2061646d696e6973747261746f60008201527f7200000000000000000000000000000000000000000000000000000000000000602082015250565b600061584c60218361355a565b9150615857826157f0565b604082019050919050565b6000602082019050818103600083015261587b8161583f565b9050919050565b7f4e657750726f706f73616c3a2070726f706f73616c20616c726561647920657860008201527f6973747300000000000000000000000000000000000000000000000000000000602082015250565b60006158de60248361355a565b91506158e982615882565b604082019050919050565b6000602082019050818103600083015261590d816158d1565b9050919050565b600080fd5b600080fd5b60008135905061592d8161457c565b92915050565b6000610100828403121561594a57615949615914565b5b615955610100613e07565b905060006159658482850161591e565b600083015250602061597984828501613438565b602083015250604061598d84828501613438565b60408301525060606159a184828501613438565b60608301525060806159b584828501613438565b60808301525060a06159c984828501613438565b60a08301525060c06159dd84828501613438565b60c08301525060e06159f184828501613438565b60e08301525092915050565b60006101a08284031215615a1457615a13615914565b5b615a1e60c0613e07565b90506000615a2e84828501615327565b6000830152506020615a4284828501615327565b6020830152506040615a5684828501613438565b6040830152506060615a6a84828501613438565b6060830152506080615a7e84828501613cea565b60808301525060a0615a9284828501615933565b60a08301525092915050565b60006101a08284031215615ab557615ab46133d7565b5b6000615ac3848285016159fd565b91505092915050565b600067ffffffffffffffff821115615ae757615ae6613da7565b5b615af082613595565b9050602081019050919050565b6000615b10615b0b84615acc565b613e07565b905082815260208101848484011115615b2c57615b2b613da2565b5b615b37848285613e53565b509392505050565b600082601f830112615b5457615b53613d9d565b5b8135615b64848260208601615afd565b91505092915050565b600060808284031215615b8357615b82615914565b5b615b8d6080613e07565b90506000615b9d848285016152ce565b6000830152506020615bb184828501613438565b6020830152506040615bc584828501613402565b604083015250606082013567ffffffffffffffff811115615be957615be8615919565b5b615bf584828501615b3f565b60608301525092915050565b6000615c0d3683615b6d565b9050919050565b615c1d8261354f565b67ffffffffffffffff811115615c3657615c35613da7565b5b615c4082546147f5565b615c4b828285614ad5565b600060209050601f831160018114615c7e5760008415615c6c578287015190505b615c768582614b46565b865550615cde565b601f198416615c8c866149b6565b60005b82811015615cb457848901518255600182019150602085019450602081019050615c8f565b86831015615cd15784890151615ccd601f891682614b28565b8355505b6001600288020188555050505b505050505050565b600081519050615cf5816133eb565b92915050565b600060208284031215615d1157615d106133d7565b5b6000615d1f84828501615ce6565b91505092915050565b600081519050919050565b600081905092915050565b6000615d4982615d28565b615d538185615d33565b9350615d6381856020860161356b565b80840191505092915050565b6000615d7b8284615d3e565b91508190509291505056fea2646970667358221220bfe60747909b2129787ca5d0d7d5c9c7969187448353c6b4b345ae117a81e37064736f6c63430008180033","opcodes":"PUSH1 0xA0 PUSH1 0x40 MSTORE ADDRESS PUSH20 0xFFFFFFFFFFFFFFFFFFFFFFFFFFFFFFFFFFFFFFFF AND PUSH1 0x80 SWAP1 PUSH20 0xFFFFFFFFFFFFFFFFFFFFFFFFFFFFFFFFFFFFFFFF AND DUP2 MSTORE POP CALLVALUE DUP1 ISZERO PUSH2 0x43 JUMPI PUSH1 0x0 DUP1 REVERT JUMPDEST POP PUSH1 0x80 MLOAD PUSH2 0x5DBC PUSH3 0x6E PUSH1 0x0 CODECOPY PUSH1 0x0 DUP2 DUP2 PUSH2 0x2865 ADD MSTORE DUP2 DUP2 PUSH2 0x28BA ADD MSTORE PUSH2 0x2A75 ADD MSTORE PUSH2 0x5DBC PUSH1 0x0 RETURN INVALID PUSH1 0x80 PUSH1 0x40 MSTORE PUSH1 0x4 CALLDATASIZE LT PUSH2 0x114 JUMPI PUSH1 0x0 CALLDATALOAD PUSH1 0xE0 SHR DUP1 PUSH4 0x8DA5CB5B GT PUSH2 0xA0 JUMPI DUP1 PUSH4 0xBD83D99A GT PUSH2 0x64 JUMPI DUP1 PUSH4 0xBD83D99A EQ PUSH2 0x371 JUMPI DUP1 PUSH4 0xC4A6EC9A EQ PUSH2 0x39A JUMPI DUP1 PUSH4 0xC5B05E5D EQ PUSH2 0x3C3 JUMPI DUP1 PUSH4 0xDA35C664 EQ PUSH2 0x3EC JUMPI DUP1 PUSH4 0xF2FDE38B EQ PUSH2 0x417 JUMPI PUSH2 0x114 JUMP JUMPDEST DUP1 PUSH4 0x8DA5CB5B EQ PUSH2 0x29E JUMPI DUP1 PUSH4 0xAD3CB1CC EQ PUSH2 0x2C9 JUMPI DUP1 PUSH4 0xADC879E9 EQ PUSH2 0x2F4 JUMPI DUP1 PUSH4 0xB3B47061 EQ PUSH2 0x31F JUMPI DUP1 PUSH4 0xB66BA6EB EQ PUSH2 0x348 JUMPI PUSH2 0x114 JUMP JUMPDEST DUP1 PUSH4 0x4F1EF286 GT PUSH2 0xE7 JUMPI DUP1 PUSH4 0x4F1EF286 EQ PUSH2 0x1EC JUMPI DUP1 PUSH4 0x52D1902D EQ PUSH2 0x208 JUMPI DUP1 PUSH4 0x715018A6 EQ PUSH2 0x233 JUMPI DUP1 PUSH4 0x7AB4339D EQ PUSH2 0x24A JUMPI DUP1 PUSH4 0x8CAFAB7F EQ PUSH2 0x273 JUMPI PUSH2 0x114 JUMP JUMPDEST DUP1 PUSH4 0x16B407D9 EQ PUSH2 0x119 JUMPI DUP1 PUSH4 0x32ED5B12 EQ PUSH2 0x142 JUMPI DUP1 PUSH4 0x430694CF EQ PUSH2 0x186 JUMPI DUP1 PUSH4 0x44FD129B EQ PUSH2 0x1C3 JUMPI JUMPDEST PUSH1 0x0 DUP1 REVERT JUMPDEST CALLVALUE DUP1 ISZERO PUSH2 0x125 JUMPI PUSH1 0x0 DUP1 REVERT JUMPDEST POP PUSH2 0x140 PUSH1 0x4 DUP1 CALLDATASIZE SUB DUP2 ADD SWAP1 PUSH2 0x13B SWAP2 SWAP1 PUSH2 0x344D JUMP JUMPDEST PUSH2 0x440 JUMP JUMPDEST STOP JUMPDEST CALLVALUE DUP1 ISZERO PUSH2 0x14E JUMPI PUSH1 0x0 DUP1 REVERT JUMPDEST POP PUSH2 0x169 PUSH1 0x4 DUP1 CALLDATASIZE SUB DUP2 ADD SWAP1 PUSH2 0x164 SWAP2 SWAP1 PUSH2 0x348D JUMP JUMPDEST PUSH2 0x6FE JUMP JUMPDEST PUSH1 0x40 MLOAD PUSH2 0x17D SWAP9 SWAP8 SWAP7 SWAP6 SWAP5 SWAP4 SWAP3 SWAP2 SWAP1 PUSH2 0x3856 JUMP JUMPDEST PUSH1 0x40 MLOAD DUP1 SWAP2 SUB SWAP1 RETURN JUMPDEST CALLVALUE DUP1 ISZERO PUSH2 0x192 JUMPI PUSH1 0x0 DUP1 REVERT JUMPDEST POP PUSH2 0x1AD PUSH1 0x4 DUP1 CALLDATASIZE SUB DUP2 ADD SWAP1 PUSH2 0x1A8 SWAP2 SWAP1 PUSH2 0x348D JUMP JUMPDEST PUSH2 0x9CF JUMP JUMPDEST PUSH1 0x40 MLOAD PUSH2 0x1BA SWAP2 SWAP1 PUSH2 0x3CB8 JUMP JUMPDEST PUSH1 0x40 MLOAD DUP1 SWAP2 SUB SWAP1 RETURN JUMPDEST CALLVALUE DUP1 ISZERO PUSH2 0x1CF JUMPI PUSH1 0x0 DUP1 REVERT JUMPDEST POP PUSH2 0x1EA PUSH1 0x4 DUP1 CALLDATASIZE SUB DUP2 ADD SWAP1 PUSH2 0x1E5 SWAP2 SWAP1 PUSH2 0x3CFF JUMP JUMPDEST PUSH2 0xDDD JUMP JUMPDEST STOP JUMPDEST PUSH2 0x206 PUSH1 0x4 DUP1 CALLDATASIZE SUB DUP2 ADD SWAP1 PUSH2 0x201 SWAP2 SWAP1 PUSH2 0x3ED2 JUMP JUMPDEST PUSH2 0x11AB JUMP JUMPDEST STOP JUMPDEST CALLVALUE DUP1 ISZERO PUSH2 0x214 JUMPI PUSH1 0x0 DUP1 REVERT JUMPDEST POP PUSH2 0x21D PUSH2 0x11CA JUMP JUMPDEST PUSH1 0x40 MLOAD PUSH2 0x22A SWAP2 SWAP1 PUSH2 0x3F2E JUMP JUMPDEST PUSH1 0x40 MLOAD DUP1 SWAP2 SUB SWAP1 RETURN JUMPDEST CALLVALUE DUP1 ISZERO PUSH2 0x23F JUMPI PUSH1 0x0 DUP1 REVERT JUMPDEST POP PUSH2 0x248 PUSH2 0x11FD JUMP JUMPDEST STOP JUMPDEST CALLVALUE DUP1 ISZERO PUSH2 0x256 JUMPI PUSH1 0x0 DUP1 REVERT JUMPDEST POP PUSH2 0x271 PUSH1 0x4 DUP1 CALLDATASIZE SUB DUP2 ADD SWAP1 PUSH2 0x26C SWAP2 SWAP1 PUSH2 0x3FA9 JUMP JUMPDEST PUSH2 0x1211 JUMP JUMPDEST STOP JUMPDEST CALLVALUE DUP1 ISZERO PUSH2 0x27F JUMPI PUSH1 0x0 DUP1 REVERT JUMPDEST POP PUSH2 0x288 PUSH2 0x13FD JUMP JUMPDEST PUSH1 0x40 MLOAD PUSH2 0x295 SWAP2 SWAP1 PUSH2 0x4018 JUMP JUMPDEST PUSH1 0x40 MLOAD DUP1 SWAP2 SUB SWAP1 RETURN JUMPDEST CALLVALUE DUP1 ISZERO PUSH2 0x2AA JUMPI PUSH1 0x0 DUP1 REVERT JUMPDEST POP PUSH2 0x2B3 PUSH2 0x1423 JUMP JUMPDEST PUSH1 0x40 MLOAD PUSH2 0x2C0 SWAP2 SWAP1 PUSH2 0x4018 JUMP JUMPDEST PUSH1 0x40 MLOAD DUP1 SWAP2 SUB SWAP1 RETURN JUMPDEST CALLVALUE DUP1 ISZERO PUSH2 0x2D5 JUMPI PUSH1 0x0 DUP1 REVERT JUMPDEST POP PUSH2 0x2DE PUSH2 0x145B JUMP JUMPDEST PUSH1 0x40 MLOAD PUSH2 0x2EB SWAP2 SWAP1 PUSH2 0x4033 JUMP JUMPDEST PUSH1 0x40 MLOAD DUP1 SWAP2 SUB SWAP1 RETURN JUMPDEST CALLVALUE DUP1 ISZERO PUSH2 0x300 JUMPI PUSH1 0x0 DUP1 REVERT JUMPDEST POP PUSH2 0x309 PUSH2 0x1494 JUMP JUMPDEST PUSH1 0x40 MLOAD PUSH2 0x316 SWAP2 SWAP1 PUSH2 0x4033 JUMP JUMPDEST PUSH1 0x40 MLOAD DUP1 SWAP2 SUB SWAP1 RETURN JUMPDEST CALLVALUE DUP1 ISZERO PUSH2 0x32B JUMPI PUSH1 0x0 DUP1 REVERT JUMPDEST POP PUSH2 0x346 PUSH1 0x4 DUP1 CALLDATASIZE SUB DUP2 ADD SWAP1 PUSH2 0x341 SWAP2 SWAP1 PUSH2 0x348D JUMP JUMPDEST PUSH2 0x1522 JUMP JUMPDEST STOP JUMPDEST CALLVALUE DUP1 ISZERO PUSH2 0x354 JUMPI PUSH1 0x0 DUP1 REVERT JUMPDEST POP PUSH2 0x36F PUSH1 0x4 DUP1 CALLDATASIZE SUB DUP2 ADD SWAP1 PUSH2 0x36A SWAP2 SWAP1 PUSH2 0x40AB JUMP JUMPDEST PUSH2 0x1768 JUMP JUMPDEST STOP JUMPDEST CALLVALUE DUP1 ISZERO PUSH2 0x37D JUMPI PUSH1 0x0 DUP1 REVERT JUMPDEST POP PUSH2 0x398 PUSH1 0x4 DUP1 CALLDATASIZE SUB DUP2 ADD SWAP1 PUSH2 0x393 SWAP2 SWAP1 PUSH2 0x42D7 JUMP JUMPDEST PUSH2 0x194E JUMP JUMPDEST STOP JUMPDEST CALLVALUE DUP1 ISZERO PUSH2 0x3A6 JUMPI PUSH1 0x0 DUP1 REVERT JUMPDEST POP PUSH2 0x3C1 PUSH1 0x4 DUP1 CALLDATASIZE SUB DUP2 ADD SWAP1 PUSH2 0x3BC SWAP2 SWAP1 PUSH2 0x438B JUMP JUMPDEST PUSH2 0x1A9F JUMP JUMPDEST STOP JUMPDEST CALLVALUE DUP1 ISZERO PUSH2 0x3CF JUMPI PUSH1 0x0 DUP1 REVERT JUMPDEST POP PUSH2 0x3EA PUSH1 0x4 DUP1 CALLDATASIZE SUB DUP2 ADD SWAP1 PUSH2 0x3E5 SWAP2 SWAP1 PUSH2 0x4407 JUMP JUMPDEST PUSH2 0x1EC5 JUMP JUMPDEST STOP JUMPDEST CALLVALUE DUP1 ISZERO PUSH2 0x3F8 JUMPI PUSH1 0x0 DUP1 REVERT JUMPDEST POP PUSH2 0x401 PUSH2 0x27C7 JUMP JUMPDEST PUSH1 0x40 MLOAD PUSH2 0x40E SWAP2 SWAP1 PUSH2 0x450B JUMP JUMPDEST PUSH1 0x40 MLOAD DUP1 SWAP2 SUB SWAP1 RETURN JUMPDEST CALLVALUE DUP1 ISZERO PUSH2 0x423 JUMPI PUSH1 0x0 DUP1 REVERT JUMPDEST POP PUSH2 0x43E PUSH1 0x4 DUP1 CALLDATASIZE SUB DUP2 ADD SWAP1 PUSH2 0x439 SWAP2 SWAP1 PUSH2 0x4526 JUMP JUMPDEST PUSH2 0x27DD JUMP JUMPDEST STOP JUMPDEST PUSH1 0x1 PUSH1 0x0 SWAP1 SLOAD SWAP1 PUSH2 0x100 EXP SWAP1 DIV PUSH20 0xFFFFFFFFFFFFFFFFFFFFFFFFFFFFFFFFFFFFFFFF AND PUSH20 0xFFFFFFFFFFFFFFFFFFFFFFFFFFFFFFFFFFFFFFFF AND PUSH4 0x64DD489F PUSH1 0x0 DUP1 DUP6 DUP2 MSTORE PUSH1 0x20 ADD SWAP1 DUP2 MSTORE PUSH1 0x20 ADD PUSH1 0x0 KECCAK256 PUSH1 0x1 ADD SLOAD CALLER PUSH1 0x40 MLOAD DUP4 PUSH4 0xFFFFFFFF AND PUSH1 0xE0 SHL DUP2 MSTORE PUSH1 0x4 ADD PUSH2 0x4B2 SWAP3 SWAP2 SWAP1 PUSH2 0x4553 JUMP JUMPDEST PUSH1 0x20 PUSH1 0x40 MLOAD DUP1 DUP4 SUB DUP2 DUP7 GAS STATICCALL ISZERO DUP1 ISZERO PUSH2 0x4CF JUMPI RETURNDATASIZE PUSH1 0x0 DUP1 RETURNDATACOPY RETURNDATASIZE PUSH1 0x0 REVERT JUMPDEST POP POP POP POP PUSH1 0x40 MLOAD RETURNDATASIZE PUSH1 0x1F NOT PUSH1 0x1F DUP3 ADD AND DUP3 ADD DUP1 PUSH1 0x40 MSTORE POP DUP2 ADD SWAP1 PUSH2 0x4F3 SWAP2 SWAP1 PUSH2 0x45A8 JUMP JUMPDEST PUSH2 0x532 JUMPI PUSH1 0x40 MLOAD PUSH32 0x8C379A000000000000000000000000000000000000000000000000000000000 DUP2 MSTORE PUSH1 0x4 ADD PUSH2 0x529 SWAP1 PUSH2 0x4647 JUMP JUMPDEST PUSH1 0x40 MLOAD DUP1 SWAP2 SUB SWAP1 REVERT JUMPDEST PUSH1 0x0 DUP1 SHL PUSH1 0x0 DUP1 DUP5 DUP2 MSTORE PUSH1 0x20 ADD SWAP1 DUP2 MSTORE PUSH1 0x20 ADD PUSH1 0x0 KECCAK256 PUSH1 0x1 ADD SLOAD SUB PUSH2 0x58C JUMPI PUSH1 0x40 MLOAD PUSH32 0x8C379A000000000000000000000000000000000000000000000000000000000 DUP2 MSTORE PUSH1 0x4 ADD PUSH2 0x583 SWAP1 PUSH2 0x46B3 JUMP JUMPDEST PUSH1 0x40 MLOAD DUP1 SWAP2 SUB SWAP1 REVERT JUMPDEST PUSH1 0x0 PUSH1 0x4 DUP2 GT ISZERO PUSH2 0x5A0 JUMPI PUSH2 0x59F PUSH2 0x34BA JUMP JUMPDEST JUMPDEST PUSH1 0x0 DUP1 DUP5 DUP2 MSTORE PUSH1 0x20 ADD SWAP1 DUP2 MSTORE PUSH1 0x20 ADD PUSH1 0x0 KECCAK256 PUSH1 0x0 ADD PUSH1 0x0 SWAP1 SLOAD SWAP1 PUSH2 0x100 EXP SWAP1 DIV PUSH1 0xFF AND PUSH1 0x4 DUP2 GT ISZERO PUSH2 0x5D5 JUMPI PUSH2 0x5D4 PUSH2 0x34BA JUMP JUMPDEST JUMPDEST EQ DUP1 PUSH2 0x627 JUMPI POP PUSH1 0x3 PUSH1 0x4 DUP2 GT ISZERO PUSH2 0x5F0 JUMPI PUSH2 0x5EF PUSH2 0x34BA JUMP JUMPDEST JUMPDEST PUSH1 0x0 DUP1 DUP5 DUP2 MSTORE PUSH1 0x20 ADD SWAP1 DUP2 MSTORE PUSH1 0x20 ADD PUSH1 0x0 KECCAK256 PUSH1 0x0 ADD PUSH1 0x0 SWAP1 SLOAD SWAP1 PUSH2 0x100 EXP SWAP1 DIV PUSH1 0xFF AND PUSH1 0x4 DUP2 GT ISZERO PUSH2 0x625 JUMPI PUSH2 0x624 PUSH2 0x34BA JUMP JUMPDEST JUMPDEST EQ JUMPDEST PUSH2 0x666 JUMPI PUSH1 0x40 MLOAD PUSH32 0x8C379A000000000000000000000000000000000000000000000000000000000 DUP2 MSTORE PUSH1 0x4 ADD PUSH2 0x65D SWAP1 PUSH2 0x471F JUMP JUMPDEST PUSH1 0x40 MLOAD DUP1 SWAP2 SUB SWAP1 REVERT JUMPDEST TIMESTAMP DUP2 GT PUSH2 0x6A8 JUMPI PUSH1 0x40 MLOAD PUSH32 0x8C379A000000000000000000000000000000000000000000000000000000000 DUP2 MSTORE PUSH1 0x4 ADD PUSH2 0x69F SWAP1 PUSH2 0x478B JUMP JUMPDEST PUSH1 0x40 MLOAD DUP1 SWAP2 SUB SWAP1 REVERT JUMPDEST DUP1 PUSH1 0x0 DUP1 DUP5 DUP2 MSTORE PUSH1 0x20 ADD SWAP1 DUP2 MSTORE PUSH1 0x20 ADD PUSH1 0x0 KECCAK256 PUSH1 0x7 ADD DUP2 SWAP1 SSTORE POP DUP2 PUSH32 0x983165304729E1C4E36CE532740769C8A5C4B56DC61C3C60B3F96322DAC48091 DUP3 PUSH1 0x40 MLOAD PUSH2 0x6F2 SWAP2 SWAP1 PUSH2 0x47AB JUMP JUMPDEST PUSH1 0x40 MLOAD DUP1 SWAP2 SUB SWAP1 LOG2 POP POP JUMP JUMPDEST PUSH1 0x0 PUSH1 0x20 MSTORE DUP1 PUSH1 0x0 MSTORE PUSH1 0x40 PUSH1 0x0 KECCAK256 PUSH1 0x0 SWAP2 POP SWAP1 POP DUP1 PUSH1 0x0 ADD PUSH1 0x0 SWAP1 SLOAD SWAP1 PUSH2 0x100 EXP SWAP1 DIV PUSH1 0xFF AND SWAP1 DUP1 PUSH1 0x1 ADD SLOAD SWAP1 DUP1 PUSH1 0x4 ADD SLOAD SWAP1 DUP1 PUSH1 0x6 ADD SLOAD SWAP1 DUP1 PUSH1 0x7 ADD SLOAD SWAP1 DUP1 PUSH1 0x8 ADD DUP1 SLOAD PUSH2 0x74C SWAP1 PUSH2 0x47F5 JUMP JUMPDEST DUP1 PUSH1 0x1F ADD PUSH1 0x20 DUP1 SWAP2 DIV MUL PUSH1 0x20 ADD PUSH1 0x40 MLOAD SWAP1 DUP2 ADD PUSH1 0x40 MSTORE DUP1 SWAP3 SWAP2 SWAP1 DUP2 DUP2 MSTORE PUSH1 0x20 ADD DUP3 DUP1 SLOAD PUSH2 0x778 SWAP1 PUSH2 0x47F5 JUMP JUMPDEST DUP1 ISZERO PUSH2 0x7C5 JUMPI DUP1 PUSH1 0x1F LT PUSH2 0x79A JUMPI PUSH2 0x100 DUP1 DUP4 SLOAD DIV MUL DUP4 MSTORE SWAP2 PUSH1 0x20 ADD SWAP2 PUSH2 0x7C5 JUMP JUMPDEST DUP3 ADD SWAP2 SWAP1 PUSH1 0x0 MSTORE PUSH1 0x20 PUSH1 0x0 KECCAK256 SWAP1 JUMPDEST DUP2 SLOAD DUP2 MSTORE SWAP1 PUSH1 0x1 ADD SWAP1 PUSH1 0x20 ADD DUP1 DUP4 GT PUSH2 0x7A8 JUMPI DUP3 SWAP1 SUB PUSH1 0x1F AND DUP3 ADD SWAP2 JUMPDEST POP POP POP POP POP SWAP1 DUP1 PUSH1 0x9 ADD PUSH1 0x40 MLOAD DUP1 PUSH1 0xC0 ADD PUSH1 0x40 MSTORE SWAP1 DUP2 PUSH1 0x0 DUP3 ADD PUSH1 0x0 SWAP1 SLOAD SWAP1 PUSH2 0x100 EXP SWAP1 DIV PUSH1 0xFF AND PUSH1 0xFF AND PUSH1 0xFF AND DUP2 MSTORE PUSH1 0x20 ADD PUSH1 0x0 DUP3 ADD PUSH1 0x1 SWAP1 SLOAD SWAP1 PUSH2 0x100 EXP SWAP1 DIV PUSH1 0xFF AND PUSH1 0xFF AND PUSH1 0xFF AND DUP2 MSTORE PUSH1 0x20 ADD PUSH1 0x1 DUP3 ADD SLOAD DUP2 MSTORE PUSH1 0x20 ADD PUSH1 0x2 DUP3 ADD SLOAD DUP2 MSTORE PUSH1 0x20 ADD PUSH1 0x3 DUP3 ADD PUSH1 0x0 SWAP1 SLOAD SWAP1 PUSH2 0x100 EXP SWAP1 DIV PUSH1 0xFF AND PUSH1 0x4 DUP2 GT ISZERO PUSH2 0x84D JUMPI PUSH2 0x84C PUSH2 0x34BA JUMP JUMPDEST JUMPDEST PUSH1 0x4 DUP2 GT ISZERO PUSH2 0x85F JUMPI PUSH2 0x85E PUSH2 0x34BA JUMP JUMPDEST JUMPDEST DUP2 MSTORE PUSH1 0x20 ADD PUSH1 0x4 DUP3 ADD PUSH1 0x40 MLOAD DUP1 PUSH2 0x100 ADD PUSH1 0x40 MSTORE SWAP1 DUP2 PUSH1 0x0 DUP3 ADD PUSH1 0x0 SWAP1 SLOAD SWAP1 PUSH2 0x100 EXP SWAP1 DIV PUSH1 0xFF AND ISZERO ISZERO ISZERO ISZERO DUP2 MSTORE PUSH1 0x20 ADD PUSH1 0x1 DUP3 ADD SLOAD DUP2 MSTORE PUSH1 0x20 ADD PUSH1 0x2 DUP3 ADD SLOAD DUP2 MSTORE PUSH1 0x20 ADD PUSH1 0x3 DUP3 ADD SLOAD DUP2 MSTORE PUSH1 0x20 ADD PUSH1 0x4 DUP3 ADD SLOAD DUP2 MSTORE PUSH1 0x20 ADD PUSH1 0x5 DUP3 ADD SLOAD DUP2 MSTORE PUSH1 0x20 ADD PUSH1 0x6 DUP3 ADD SLOAD DUP2 MSTORE PUSH1 0x20 ADD PUSH1 0x7 DUP3 ADD SLOAD DUP2 MSTORE POP POP DUP2 MSTORE POP POP SWAP1 DUP1 PUSH1 0x15 ADD PUSH1 0x40 MLOAD DUP1 PUSH1 0x80 ADD PUSH1 0x40 MSTORE SWAP1 DUP2 PUSH1 0x0 DUP3 ADD PUSH1 0x0 SWAP1 SLOAD SWAP1 PUSH2 0x100 EXP SWAP1 DIV PUSH1 0xFF AND PUSH1 0x9 DUP2 GT ISZERO PUSH2 0x90E JUMPI PUSH2 0x90D PUSH2 0x34BA JUMP JUMPDEST JUMPDEST PUSH1 0x9 DUP2 GT ISZERO PUSH2 0x920 JUMPI PUSH2 0x91F PUSH2 0x34BA JUMP JUMPDEST JUMPDEST DUP2 MSTORE PUSH1 0x20 ADD PUSH1 0x1 DUP3 ADD SLOAD DUP2 MSTORE PUSH1 0x20 ADD PUSH1 0x2 DUP3 ADD SLOAD DUP2 MSTORE PUSH1 0x20 ADD PUSH1 0x3 DUP3 ADD DUP1 SLOAD PUSH2 0x948 SWAP1 PUSH2 0x47F5 JUMP JUMPDEST DUP1 PUSH1 0x1F ADD PUSH1 0x20 DUP1 SWAP2 DIV MUL PUSH1 0x20 ADD PUSH1 0x40 MLOAD SWAP1 DUP2 ADD PUSH1 0x40 MSTORE DUP1 SWAP3 SWAP2 SWAP1 DUP2 DUP2 MSTORE PUSH1 0x20 ADD DUP3 DUP1 SLOAD PUSH2 0x974 SWAP1 PUSH2 0x47F5 JUMP JUMPDEST DUP1 ISZERO PUSH2 0x9C1 JUMPI DUP1 PUSH1 0x1F LT PUSH2 0x996 JUMPI PUSH2 0x100 DUP1 DUP4 SLOAD DIV MUL DUP4 MSTORE SWAP2 PUSH1 0x20 ADD SWAP2 PUSH2 0x9C1 JUMP JUMPDEST DUP3 ADD SWAP2 SWAP1 PUSH1 0x0 MSTORE PUSH1 0x20 PUSH1 0x0 KECCAK256 SWAP1 JUMPDEST DUP2 SLOAD DUP2 MSTORE SWAP1 PUSH1 0x1 ADD SWAP1 PUSH1 0x20 ADD DUP1 DUP4 GT PUSH2 0x9A4 JUMPI DUP3 SWAP1 SUB PUSH1 0x1F AND DUP3 ADD SWAP2 JUMPDEST POP POP POP POP POP DUP2 MSTORE POP POP SWAP1 POP DUP9 JUMP JUMPDEST PUSH2 0x9D7 PUSH2 0x30EA JUMP JUMPDEST PUSH1 0x0 DUP1 DUP4 DUP2 MSTORE PUSH1 0x20 ADD SWAP1 DUP2 MSTORE PUSH1 0x20 ADD PUSH1 0x0 KECCAK256 PUSH1 0x40 MLOAD DUP1 PUSH2 0x140 ADD PUSH1 0x40 MSTORE SWAP1 DUP2 PUSH1 0x0 DUP3 ADD PUSH1 0x0 SWAP1 SLOAD SWAP1 PUSH2 0x100 EXP SWAP1 DIV PUSH1 0xFF AND PUSH1 0x4 DUP2 GT ISZERO PUSH2 0xA1A JUMPI PUSH2 0xA19 PUSH2 0x34BA JUMP JUMPDEST JUMPDEST PUSH1 0x4 DUP2 GT ISZERO PUSH2 0xA2C JUMPI PUSH2 0xA2B PUSH2 0x34BA JUMP JUMPDEST JUMPDEST DUP2 MSTORE PUSH1 0x20 ADD PUSH1 0x1 DUP3 ADD SLOAD DUP2 MSTORE PUSH1 0x20 ADD PUSH1 0x2 DUP3 ADD PUSH1 0x2 DUP1 PUSH1 0x20 MUL PUSH1 0x40 MLOAD SWAP1 DUP2 ADD PUSH1 0x40 MSTORE DUP1 SWAP3 SWAP2 SWAP1 DUP3 PUSH1 0x2 DUP1 ISZERO PUSH2 0xA76 JUMPI PUSH1 0x20 MUL DUP3 ADD SWAP2 JUMPDEST DUP2 SLOAD DUP2 MSTORE PUSH1 0x20 ADD SWAP1 PUSH1 0x1 ADD SWAP1 DUP1 DUP4 GT PUSH2 0xA62 JUMPI JUMPDEST POP POP POP POP POP DUP2 MSTORE PUSH1 0x20 ADD PUSH1 0x4 DUP3 ADD SLOAD DUP2 MSTORE PUSH1 0x20 ADD PUSH1 0x5 DUP3 ADD DUP1 SLOAD DUP1 PUSH1 0x20 MUL PUSH1 0x20 ADD PUSH1 0x40 MLOAD SWAP1 DUP2 ADD PUSH1 0x40 MSTORE DUP1 SWAP3 SWAP2 SWAP1 DUP2 DUP2 MSTORE PUSH1 0x20 ADD PUSH1 0x0 SWAP1 JUMPDEST DUP3 DUP3 LT ISZERO PUSH2 0xB20 JUMPI DUP4 DUP3 SWAP1 PUSH1 0x0 MSTORE PUSH1 0x20 PUSH1 0x0 KECCAK256 ADD DUP1 SLOAD DUP1 PUSH1 0x20 MUL PUSH1 0x20 ADD PUSH1 0x40 MLOAD SWAP1 DUP2 ADD PUSH1 0x40 MSTORE DUP1 SWAP3 SWAP2 SWAP1 DUP2 DUP2 MSTORE PUSH1 0x20 ADD DUP3 DUP1 SLOAD DUP1 ISZERO PUSH2 0xB0C JUMPI PUSH1 0x20 MUL DUP3 ADD SWAP2 SWAP1 PUSH1 0x0 MSTORE PUSH1 0x20 PUSH1 0x0 KECCAK256 SWAP1 JUMPDEST DUP2 SLOAD DUP2 MSTORE PUSH1 0x20 ADD SWAP1 PUSH1 0x1 ADD SWAP1 DUP1 DUP4 GT PUSH2 0xAF8 JUMPI JUMPDEST POP POP POP POP POP DUP2 MSTORE PUSH1 0x20 ADD SWAP1 PUSH1 0x1 ADD SWAP1 PUSH2 0xAAE JUMP JUMPDEST POP POP POP POP DUP2 MSTORE PUSH1 0x20 ADD PUSH1 0x6 DUP3 ADD SLOAD DUP2 MSTORE PUSH1 0x20 ADD PUSH1 0x7 DUP3 ADD SLOAD DUP2 MSTORE PUSH1 0x20 ADD PUSH1 0x8 DUP3 ADD DUP1 SLOAD PUSH2 0xB4C SWAP1 PUSH2 0x47F5 JUMP JUMPDEST DUP1 PUSH1 0x1F ADD PUSH1 0x20 DUP1 SWAP2 DIV MUL PUSH1 0x20 ADD PUSH1 0x40 MLOAD SWAP1 DUP2 ADD PUSH1 0x40 MSTORE DUP1 SWAP3 SWAP2 SWAP1 DUP2 DUP2 MSTORE PUSH1 0x20 ADD DUP3 DUP1 SLOAD PUSH2 0xB78 SWAP1 PUSH2 0x47F5 JUMP JUMPDEST DUP1 ISZERO PUSH2 0xBC5 JUMPI DUP1 PUSH1 0x1F LT PUSH2 0xB9A JUMPI PUSH2 0x100 DUP1 DUP4 SLOAD DIV MUL DUP4 MSTORE SWAP2 PUSH1 0x20 ADD SWAP2 PUSH2 0xBC5 JUMP JUMPDEST DUP3 ADD SWAP2 SWAP1 PUSH1 0x0 MSTORE PUSH1 0x20 PUSH1 0x0 KECCAK256 SWAP1 JUMPDEST DUP2 SLOAD DUP2 MSTORE SWAP1 PUSH1 0x1 ADD SWAP1 PUSH1 0x20 ADD DUP1 DUP4 GT PUSH2 0xBA8 JUMPI DUP3 SWAP1 SUB PUSH1 0x1F AND DUP3 ADD SWAP2 JUMPDEST POP POP POP POP POP DUP2 MSTORE PUSH1 0x20 ADD PUSH1 0x9 DUP3 ADD PUSH1 0x40 MLOAD DUP1 PUSH1 0xC0 ADD PUSH1 0x40 MSTORE SWAP1 DUP2 PUSH1 0x0 DUP3 ADD PUSH1 0x0 SWAP1 SLOAD SWAP1 PUSH2 0x100 EXP SWAP1 DIV PUSH1 0xFF AND PUSH1 0xFF AND PUSH1 0xFF AND DUP2 MSTORE PUSH1 0x20 ADD PUSH1 0x0 DUP3 ADD PUSH1 0x1 SWAP1 SLOAD SWAP1 PUSH2 0x100 EXP SWAP1 DIV PUSH1 0xFF AND PUSH1 0xFF AND PUSH1 0xFF AND DUP2 MSTORE PUSH1 0x20 ADD PUSH1 0x1 DUP3 ADD SLOAD DUP2 MSTORE PUSH1 0x20 ADD PUSH1 0x2 DUP3 ADD SLOAD DUP2 MSTORE PUSH1 0x20 ADD PUSH1 0x3 DUP3 ADD PUSH1 0x0 SWAP1 SLOAD SWAP1 PUSH2 0x100 EXP SWAP1 DIV PUSH1 0xFF AND PUSH1 0x4 DUP2 GT ISZERO PUSH2 0xC51 JUMPI PUSH2 0xC50 PUSH2 0x34BA JUMP JUMPDEST JUMPDEST PUSH1 0x4 DUP2 GT ISZERO PUSH2 0xC63 JUMPI PUSH2 0xC62 PUSH2 0x34BA JUMP JUMPDEST JUMPDEST DUP2 MSTORE PUSH1 0x20 ADD PUSH1 0x4 DUP3 ADD PUSH1 0x40 MLOAD DUP1 PUSH2 0x100 ADD PUSH1 0x40 MSTORE SWAP1 DUP2 PUSH1 0x0 DUP3 ADD PUSH1 0x0 SWAP1 SLOAD SWAP1 PUSH2 0x100 EXP SWAP1 DIV PUSH1 0xFF AND ISZERO ISZERO ISZERO ISZERO DUP2 MSTORE PUSH1 0x20 ADD PUSH1 0x1 DUP3 ADD SLOAD DUP2 MSTORE PUSH1 0x20 ADD PUSH1 0x2 DUP3 ADD SLOAD DUP2 MSTORE PUSH1 0x20 ADD PUSH1 0x3 DUP3 ADD SLOAD DUP2 MSTORE PUSH1 0x20 ADD PUSH1 0x4 DUP3 ADD SLOAD DUP2 MSTORE PUSH1 0x20 ADD PUSH1 0x5 DUP3 ADD SLOAD DUP2 MSTORE PUSH1 0x20 ADD PUSH1 0x6 DUP3 ADD SLOAD DUP2 MSTORE PUSH1 0x20 ADD PUSH1 0x7 DUP3 ADD SLOAD DUP2 MSTORE POP POP DUP2 MSTORE POP POP DUP2 MSTORE PUSH1 0x20 ADD PUSH1 0x15 DUP3 ADD PUSH1 0x40 MLOAD DUP1 PUSH1 0x80 ADD PUSH1 0x40 MSTORE SWAP1 DUP2 PUSH1 0x0 DUP3 ADD PUSH1 0x0 SWAP1 SLOAD SWAP1 PUSH2 0x100 EXP SWAP1 DIV PUSH1 0xFF AND PUSH1 0x9 DUP2 GT ISZERO PUSH2 0xD16 JUMPI PUSH2 0xD15 PUSH2 0x34BA JUMP JUMPDEST JUMPDEST PUSH1 0x9 DUP2 GT ISZERO PUSH2 0xD28 JUMPI PUSH2 0xD27 PUSH2 0x34BA JUMP JUMPDEST JUMPDEST DUP2 MSTORE PUSH1 0x20 ADD PUSH1 0x1 DUP3 ADD SLOAD DUP2 MSTORE PUSH1 0x20 ADD PUSH1 0x2 DUP3 ADD SLOAD DUP2 MSTORE PUSH1 0x20 ADD PUSH1 0x3 DUP3 ADD DUP1 SLOAD PUSH2 0xD50 SWAP1 PUSH2 0x47F5 JUMP JUMPDEST DUP1 PUSH1 0x1F ADD PUSH1 0x20 DUP1 SWAP2 DIV MUL PUSH1 0x20 ADD PUSH1 0x40 MLOAD SWAP1 DUP2 ADD PUSH1 0x40 MSTORE DUP1 SWAP3 SWAP2 SWAP1 DUP2 DUP2 MSTORE PUSH1 0x20 ADD DUP3 DUP1 SLOAD PUSH2 0xD7C SWAP1 PUSH2 0x47F5 JUMP JUMPDEST DUP1 ISZERO PUSH2 0xDC9 JUMPI DUP1 PUSH1 0x1F LT PUSH2 0xD9E JUMPI PUSH2 0x100 DUP1 DUP4 SLOAD DIV MUL DUP4 MSTORE SWAP2 PUSH1 0x20 ADD SWAP2 PUSH2 0xDC9 JUMP JUMPDEST DUP3 ADD SWAP2 SWAP1 PUSH1 0x0 MSTORE PUSH1 0x20 PUSH1 0x0 KECCAK256 SWAP1 JUMPDEST DUP2 SLOAD DUP2 MSTORE SWAP1 PUSH1 0x1 ADD SWAP1 PUSH1 0x20 ADD DUP1 DUP4 GT PUSH2 0xDAC JUMPI DUP3 SWAP1 SUB PUSH1 0x1F AND DUP3 ADD SWAP2 JUMPDEST POP POP POP POP POP DUP2 MSTORE POP POP DUP2 MSTORE POP POP SWAP1 POP SWAP2 SWAP1 POP JUMP JUMPDEST PUSH1 0x1 PUSH1 0x0 SWAP1 SLOAD SWAP1 PUSH2 0x100 EXP SWAP1 DIV PUSH20 0xFFFFFFFFFFFFFFFFFFFFFFFFFFFFFFFFFFFFFFFF AND PUSH20 0xFFFFFFFFFFFFFFFFFFFFFFFFFFFFFFFFFFFFFFFF AND PUSH4 0x64DD489F PUSH1 0x0 DUP1 DUP6 DUP2 MSTORE PUSH1 0x20 ADD SWAP1 DUP2 MSTORE PUSH1 0x20 ADD PUSH1 0x0 KECCAK256 PUSH1 0x1 ADD SLOAD CALLER PUSH1 0x40 MLOAD DUP4 PUSH4 0xFFFFFFFF AND PUSH1 0xE0 SHL DUP2 MSTORE PUSH1 0x4 ADD PUSH2 0xE4F SWAP3 SWAP2 SWAP1 PUSH2 0x4553 JUMP JUMPDEST PUSH1 0x20 PUSH1 0x40 MLOAD DUP1 DUP4 SUB DUP2 DUP7 GAS STATICCALL ISZERO DUP1 ISZERO PUSH2 0xE6C JUMPI RETURNDATASIZE PUSH1 0x0 DUP1 RETURNDATACOPY RETURNDATASIZE PUSH1 0x0 REVERT JUMPDEST POP POP POP POP PUSH1 0x40 MLOAD RETURNDATASIZE PUSH1 0x1F NOT PUSH1 0x1F DUP3 ADD AND DUP3 ADD DUP1 PUSH1 0x40 MSTORE POP DUP2 ADD SWAP1 PUSH2 0xE90 SWAP2 SWAP1 PUSH2 0x45A8 JUMP JUMPDEST PUSH2 0xECF JUMPI PUSH1 0x40 MLOAD PUSH32 0x8C379A000000000000000000000000000000000000000000000000000000000 DUP2 MSTORE PUSH1 0x4 ADD PUSH2 0xEC6 SWAP1 PUSH2 0x4898 JUMP JUMPDEST PUSH1 0x40 MLOAD DUP1 SWAP2 SUB SWAP1 REVERT JUMPDEST PUSH1 0x0 DUP1 PUSH1 0x0 DUP5 DUP2 MSTORE PUSH1 0x20 ADD SWAP1 DUP2 MSTORE PUSH1 0x20 ADD PUSH1 0x0 KECCAK256 PUSH1 0x0 ADD PUSH1 0x0 SWAP1 SLOAD SWAP1 PUSH2 0x100 EXP SWAP1 DIV PUSH1 0xFF AND SWAP1 POP PUSH1 0x0 PUSH1 0x4 DUP2 GT ISZERO PUSH2 0xF0A JUMPI PUSH2 0xF09 PUSH2 0x34BA JUMP JUMPDEST JUMPDEST DUP2 PUSH1 0x4 DUP2 GT ISZERO PUSH2 0xF1D JUMPI PUSH2 0xF1C PUSH2 0x34BA JUMP JUMPDEST JUMPDEST EQ ISZERO DUP1 ISZERO PUSH2 0xF50 JUMPI POP PUSH1 0x3 PUSH1 0x4 DUP2 GT ISZERO PUSH2 0xF3A JUMPI PUSH2 0xF39 PUSH2 0x34BA JUMP JUMPDEST JUMPDEST DUP2 PUSH1 0x4 DUP2 GT ISZERO PUSH2 0xF4D JUMPI PUSH2 0xF4C PUSH2 0x34BA JUMP JUMPDEST JUMPDEST EQ ISZERO JUMPDEST ISZERO PUSH2 0xF90 JUMPI PUSH1 0x40 MLOAD PUSH32 0x8C379A000000000000000000000000000000000000000000000000000000000 DUP2 MSTORE PUSH1 0x4 ADD PUSH2 0xF87 SWAP1 PUSH2 0x471F JUMP JUMPDEST PUSH1 0x40 MLOAD DUP1 SWAP2 SUB SWAP1 REVERT JUMPDEST PUSH1 0x3 PUSH1 0x4 DUP2 GT ISZERO PUSH2 0xFA4 JUMPI PUSH2 0xFA3 PUSH2 0x34BA JUMP JUMPDEST JUMPDEST DUP2 PUSH1 0x4 DUP2 GT ISZERO PUSH2 0xFB7 JUMPI PUSH2 0xFB6 PUSH2 0x34BA JUMP JUMPDEST JUMPDEST SUB PUSH2 0x105C JUMPI PUSH1 0x0 PUSH1 0x2 PUSH1 0x0 DUP1 DUP7 DUP2 MSTORE PUSH1 0x20 ADD SWAP1 DUP2 MSTORE PUSH1 0x20 ADD PUSH1 0x0 KECCAK256 PUSH1 0x9 ADD PUSH1 0x0 ADD PUSH1 0x1 SWAP1 SLOAD SWAP1 PUSH2 0x100 EXP SWAP1 DIV PUSH1 0xFF AND AND PUSH1 0xFF AND SUB PUSH2 0x1057 JUMPI PUSH1 0x0 PUSH1 0x4 DUP2 GT ISZERO PUSH2 0x1003 JUMPI PUSH2 0x1002 PUSH2 0x34BA JUMP JUMPDEST JUMPDEST DUP3 PUSH1 0x4 DUP2 GT ISZERO PUSH2 0x1016 JUMPI PUSH2 0x1015 PUSH2 0x34BA JUMP JUMPDEST JUMPDEST EQ PUSH2 0x1056 JUMPI PUSH1 0x40 MLOAD PUSH32 0x8C379A000000000000000000000000000000000000000000000000000000000 DUP2 MSTORE PUSH1 0x4 ADD PUSH2 0x104D SWAP1 PUSH2 0x4904 JUMP JUMPDEST PUSH1 0x40 MLOAD DUP1 SWAP2 SUB SWAP1 REVERT JUMPDEST JUMPDEST PUSH2 0x10CB JUMP JUMPDEST PUSH1 0x0 PUSH1 0x2 PUSH1 0x0 DUP1 DUP7 DUP2 MSTORE PUSH1 0x20 ADD SWAP1 DUP2 MSTORE PUSH1 0x20 ADD PUSH1 0x0 KECCAK256 PUSH1 0x9 ADD PUSH1 0x0 ADD PUSH1 0x1 SWAP1 SLOAD SWAP1 PUSH2 0x100 EXP SWAP1 DIV PUSH1 0xFF AND AND PUSH1 0xFF AND SUB PUSH2 0x10CA JUMPI PUSH1 0x40 MLOAD PUSH32 0x8C379A000000000000000000000000000000000000000000000000000000000 DUP2 MSTORE PUSH1 0x4 ADD PUSH2 0x10C1 SWAP1 PUSH2 0x4904 JUMP JUMPDEST PUSH1 0x40 MLOAD DUP1 SWAP2 SUB SWAP1 REVERT JUMPDEST JUMPDEST DUP1 PUSH1 0x4 DUP2 GT ISZERO PUSH2 0x10DE JUMPI PUSH2 0x10DD PUSH2 0x34BA JUMP JUMPDEST JUMPDEST DUP3 PUSH1 0x4 DUP2 GT ISZERO PUSH2 0x10F1 JUMPI PUSH2 0x10F0 PUSH2 0x34BA JUMP JUMPDEST JUMPDEST SUB PUSH2 0x1131 JUMPI PUSH1 0x40 MLOAD PUSH32 0x8C379A000000000000000000000000000000000000000000000000000000000 DUP2 MSTORE PUSH1 0x4 ADD PUSH2 0x1128 SWAP1 PUSH2 0x4970 JUMP JUMPDEST PUSH1 0x40 MLOAD DUP1 SWAP2 SUB SWAP1 REVERT JUMPDEST DUP2 PUSH1 0x0 DUP1 DUP6 DUP2 MSTORE PUSH1 0x20 ADD SWAP1 DUP2 MSTORE PUSH1 0x20 ADD PUSH1 0x0 KECCAK256 PUSH1 0x0 ADD PUSH1 0x0 PUSH2 0x100 EXP DUP2 SLOAD DUP2 PUSH1 0xFF MUL NOT AND SWAP1 DUP4 PUSH1 0x4 DUP2 GT ISZERO PUSH2 0x1169 JUMPI PUSH2 0x1168 PUSH2 0x34BA JUMP JUMPDEST JUMPDEST MUL OR SWAP1 SSTORE POP DUP3 PUSH32 0x7DEF22FEE322EDEC5F79E74D0747E712935E3076161CCEAB960AA0DACA48E8D2 DUP4 PUSH1 0x40 MLOAD PUSH2 0x119E SWAP2 SWAP1 PUSH2 0x4990 JUMP JUMPDEST PUSH1 0x40 MLOAD DUP1 SWAP2 SUB SWAP1 LOG2 POP POP POP JUMP JUMPDEST PUSH2 0x11B3 PUSH2 0x2863 JUMP JUMPDEST PUSH2 0x11BC DUP3 PUSH2 0x2949 JUMP JUMPDEST PUSH2 0x11C6 DUP3 DUP3 PUSH2 0x2954 JUMP JUMPDEST POP POP JUMP JUMPDEST PUSH1 0x0 PUSH2 0x11D4 PUSH2 0x2A73 JUMP JUMPDEST PUSH32 0x360894A13BA1A3210667C828492DB98DCA3E2076CC3735A920A3CA505D382BBC PUSH1 0x0 SHL SWAP1 POP SWAP1 JUMP JUMPDEST PUSH2 0x1205 PUSH2 0x2AFA JUMP JUMPDEST PUSH2 0x120F PUSH1 0x0 PUSH2 0x2B81 JUMP JUMPDEST JUMP JUMPDEST PUSH1 0x0 PUSH2 0x121B PUSH2 0x2C58 JUMP JUMPDEST SWAP1 POP PUSH1 0x0 DUP2 PUSH1 0x0 ADD PUSH1 0x8 SWAP1 SLOAD SWAP1 PUSH2 0x100 EXP SWAP1 DIV PUSH1 0xFF AND ISZERO SWAP1 POP PUSH1 0x0 DUP3 PUSH1 0x0 ADD PUSH1 0x0 SWAP1 SLOAD SWAP1 PUSH2 0x100 EXP SWAP1 DIV PUSH8 0xFFFFFFFFFFFFFFFF AND SWAP1 POP PUSH1 0x0 DUP1 DUP3 PUSH8 0xFFFFFFFFFFFFFFFF AND EQ DUP1 ISZERO PUSH2 0x1269 JUMPI POP DUP3 JUMPDEST SWAP1 POP PUSH1 0x0 PUSH1 0x1 DUP4 PUSH8 0xFFFFFFFFFFFFFFFF AND EQ DUP1 ISZERO PUSH2 0x129E JUMPI POP PUSH1 0x0 ADDRESS PUSH20 0xFFFFFFFFFFFFFFFFFFFFFFFFFFFFFFFFFFFFFFFF AND EXTCODESIZE EQ JUMPDEST SWAP1 POP DUP2 ISZERO DUP1 ISZERO PUSH2 0x12AC JUMPI POP DUP1 ISZERO JUMPDEST ISZERO PUSH2 0x12E3 JUMPI PUSH1 0x40 MLOAD PUSH32 0xF92EE8A900000000000000000000000000000000000000000000000000000000 DUP2 MSTORE PUSH1 0x4 ADD PUSH1 0x40 MLOAD DUP1 SWAP2 SUB SWAP1 REVERT JUMPDEST PUSH1 0x1 DUP6 PUSH1 0x0 ADD PUSH1 0x0 PUSH2 0x100 EXP DUP2 SLOAD DUP2 PUSH8 0xFFFFFFFFFFFFFFFF MUL NOT AND SWAP1 DUP4 PUSH8 0xFFFFFFFFFFFFFFFF AND MUL OR SWAP1 SSTORE POP DUP4 ISZERO PUSH2 0x1333 JUMPI PUSH1 0x1 DUP6 PUSH1 0x0 ADD PUSH1 0x8 PUSH2 0x100 EXP DUP2 SLOAD DUP2 PUSH1 0xFF MUL NOT AND SWAP1 DUP4 ISZERO ISZERO MUL OR SWAP1 SSTORE POP JUMPDEST PUSH2 0x133C CALLER PUSH2 0x2C80 JUMP JUMPDEST PUSH2 0x1344 PUSH2 0x2C94 JUMP JUMPDEST DUP8 DUP8 PUSH1 0x2 SWAP2 DUP3 PUSH2 0x1355 SWAP3 SWAP2 SWAP1 PUSH2 0x4B62 JUMP JUMPDEST POP DUP6 PUSH1 0x1 PUSH1 0x0 PUSH2 0x100 EXP DUP2 SLOAD DUP2 PUSH20 0xFFFFFFFFFFFFFFFFFFFFFFFFFFFFFFFFFFFFFFFF MUL NOT AND SWAP1 DUP4 PUSH20 0xFFFFFFFFFFFFFFFFFFFFFFFFFFFFFFFFFFFFFFFF AND MUL OR SWAP1 SSTORE POP DUP4 ISZERO PUSH2 0x13F3 JUMPI PUSH1 0x0 DUP6 PUSH1 0x0 ADD PUSH1 0x8 PUSH2 0x100 EXP DUP2 SLOAD DUP2 PUSH1 0xFF MUL NOT AND SWAP1 DUP4 ISZERO ISZERO MUL OR SWAP1 SSTORE POP PUSH32 0xC7F505B2F371AE2175EE4913F4499E1F2633A7B5936321EED1CDAEB6115181D2 PUSH1 0x1 PUSH1 0x40 MLOAD PUSH2 0x13EA SWAP2 SWAP1 PUSH2 0x4C81 JUMP JUMPDEST PUSH1 0x40 MLOAD DUP1 SWAP2 SUB SWAP1 LOG1 JUMPDEST POP POP POP POP POP POP POP POP JUMP JUMPDEST PUSH1 0x1 PUSH1 0x0 SWAP1 SLOAD SWAP1 PUSH2 0x100 EXP SWAP1 DIV PUSH20 0xFFFFFFFFFFFFFFFFFFFFFFFFFFFFFFFFFFFFFFFF AND DUP2 JUMP JUMPDEST PUSH1 0x0 DUP1 PUSH2 0x142E PUSH2 0x2C9E JUMP JUMPDEST SWAP1 POP DUP1 PUSH1 0x0 ADD PUSH1 0x0 SWAP1 SLOAD SWAP1 PUSH2 0x100 EXP SWAP1 DIV PUSH20 0xFFFFFFFFFFFFFFFFFFFFFFFFFFFFFFFFFFFFFFFF AND SWAP2 POP POP SWAP1 JUMP JUMPDEST PUSH1 0x40 MLOAD DUP1 PUSH1 0x40 ADD PUSH1 0x40 MSTORE DUP1 PUSH1 0x5 DUP2 MSTORE PUSH1 0x20 ADD PUSH32 0x352E302E30000000000000000000000000000000000000000000000000000000 DUP2 MSTORE POP DUP2 JUMP JUMPDEST PUSH1 0x2 DUP1 SLOAD PUSH2 0x14A1 SWAP1 PUSH2 0x47F5 JUMP JUMPDEST DUP1 PUSH1 0x1F ADD PUSH1 0x20 DUP1 SWAP2 DIV MUL PUSH1 0x20 ADD PUSH1 0x40 MLOAD SWAP1 DUP2 ADD PUSH1 0x40 MSTORE DUP1 SWAP3 SWAP2 SWAP1 DUP2 DUP2 MSTORE PUSH1 0x20 ADD DUP3 DUP1 SLOAD PUSH2 0x14CD SWAP1 PUSH2 0x47F5 JUMP JUMPDEST DUP1 ISZERO PUSH2 0x151A JUMPI DUP1 PUSH1 0x1F LT PUSH2 0x14EF JUMPI PUSH2 0x100 DUP1 DUP4 SLOAD DIV MUL DUP4 MSTORE SWAP2 PUSH1 0x20 ADD SWAP2 PUSH2 0x151A JUMP JUMPDEST DUP3 ADD SWAP2 SWAP1 PUSH1 0x0 MSTORE PUSH1 0x20 PUSH1 0x0 KECCAK256 SWAP1 JUMPDEST DUP2 SLOAD DUP2 MSTORE SWAP1 PUSH1 0x1 ADD SWAP1 PUSH1 0x20 ADD DUP1 DUP4 GT PUSH2 0x14FD JUMPI DUP3 SWAP1 SUB PUSH1 0x1F AND DUP3 ADD SWAP2 JUMPDEST POP POP POP POP POP DUP2 JUMP JUMPDEST PUSH1 0x1 PUSH1 0x0 SWAP1 SLOAD SWAP1 PUSH2 0x100 EXP SWAP1 DIV PUSH20 0xFFFFFFFFFFFFFFFFFFFFFFFFFFFFFFFFFFFFFFFF AND PUSH20 0xFFFFFFFFFFFFFFFFFFFFFFFFFFFFFFFFFFFFFFFF AND PUSH4 0x64DD489F PUSH1 0x0 DUP1 DUP5 DUP2 MSTORE PUSH1 0x20 ADD SWAP1 DUP2 MSTORE PUSH1 0x20 ADD PUSH1 0x0 KECCAK256 PUSH1 0x1 ADD SLOAD CALLER PUSH1 0x40 MLOAD DUP4 PUSH4 0xFFFFFFFF AND PUSH1 0xE0 SHL DUP2 MSTORE PUSH1 0x4 ADD PUSH2 0x1594 SWAP3 SWAP2 SWAP1 PUSH2 0x4553 JUMP JUMPDEST PUSH1 0x20 PUSH1 0x40 MLOAD DUP1 DUP4 SUB DUP2 DUP7 GAS STATICCALL ISZERO DUP1 ISZERO PUSH2 0x15B1 JUMPI RETURNDATASIZE PUSH1 0x0 DUP1 RETURNDATACOPY RETURNDATASIZE PUSH1 0x0 REVERT JUMPDEST POP POP POP POP PUSH1 0x40 MLOAD RETURNDATASIZE PUSH1 0x1F NOT PUSH1 0x1F DUP3 ADD AND DUP3 ADD DUP1 PUSH1 0x40 MSTORE POP DUP2 ADD SWAP1 PUSH2 0x15D5 SWAP2 SWAP1 PUSH2 0x45A8 JUMP JUMPDEST PUSH2 0x1614 JUMPI PUSH1 0x40 MLOAD PUSH32 0x8C379A000000000000000000000000000000000000000000000000000000000 DUP2 MSTORE PUSH1 0x4 ADD PUSH2 0x160B SWAP1 PUSH2 0x4D0E JUMP JUMPDEST PUSH1 0x40 MLOAD DUP1 SWAP2 SUB SWAP1 REVERT JUMPDEST PUSH1 0x0 PUSH1 0x4 DUP2 GT ISZERO PUSH2 0x1628 JUMPI PUSH2 0x1627 PUSH2 0x34BA JUMP JUMPDEST JUMPDEST PUSH1 0x0 DUP1 DUP4 DUP2 MSTORE PUSH1 0x20 ADD SWAP1 DUP2 MSTORE PUSH1 0x20 ADD PUSH1 0x0 KECCAK256 PUSH1 0x0 ADD PUSH1 0x0 SWAP1 SLOAD SWAP1 PUSH2 0x100 EXP SWAP1 DIV PUSH1 0xFF AND PUSH1 0x4 DUP2 GT ISZERO PUSH2 0x165D JUMPI PUSH2 0x165C PUSH2 0x34BA JUMP JUMPDEST JUMPDEST EQ DUP1 PUSH2 0x16AF JUMPI POP PUSH1 0x3 PUSH1 0x4 DUP2 GT ISZERO PUSH2 0x1678 JUMPI PUSH2 0x1677 PUSH2 0x34BA JUMP JUMPDEST JUMPDEST PUSH1 0x0 DUP1 DUP4 DUP2 MSTORE PUSH1 0x20 ADD SWAP1 DUP2 MSTORE PUSH1 0x20 ADD PUSH1 0x0 KECCAK256 PUSH1 0x0 ADD PUSH1 0x0 SWAP1 SLOAD SWAP1 PUSH2 0x100 EXP SWAP1 DIV PUSH1 0xFF AND PUSH1 0x4 DUP2 GT ISZERO PUSH2 0x16AD JUMPI PUSH2 0x16AC PUSH2 0x34BA JUMP JUMPDEST JUMPDEST EQ JUMPDEST PUSH2 0x16EE JUMPI PUSH1 0x40 MLOAD PUSH32 0x8C379A000000000000000000000000000000000000000000000000000000000 DUP2 MSTORE PUSH1 0x4 ADD PUSH2 0x16E5 SWAP1 PUSH2 0x471F JUMP JUMPDEST PUSH1 0x40 MLOAD DUP1 SWAP2 SUB SWAP1 REVERT JUMPDEST PUSH1 0x1 PUSH1 0x0 DUP1 DUP4 DUP2 MSTORE PUSH1 0x20 ADD SWAP1 DUP2 MSTORE PUSH1 0x20 ADD PUSH1 0x0 KECCAK256 PUSH1 0x0 ADD PUSH1 0x0 PUSH2 0x100 EXP DUP2 SLOAD DUP2 PUSH1 0xFF MUL NOT AND SWAP1 DUP4 PUSH1 0x4 DUP2 GT ISZERO PUSH2 0x1727 JUMPI PUSH2 0x1726 PUSH2 0x34BA JUMP JUMPDEST JUMPDEST MUL OR SWAP1 SSTORE POP DUP1 PUSH32 0x7DEF22FEE322EDEC5F79E74D0747E712935E3076161CCEAB960AA0DACA48E8D2 PUSH1 0x1 PUSH1 0x40 MLOAD PUSH2 0x175D SWAP2 SWAP1 PUSH2 0x4990 JUMP JUMPDEST PUSH1 0x40 MLOAD DUP1 SWAP2 SUB SWAP1 LOG2 POP JUMP JUMPDEST PUSH1 0x0 DUP1 SHL PUSH1 0x0 DUP1 DUP8 DUP2 MSTORE PUSH1 0x20 ADD SWAP1 DUP2 MSTORE PUSH1 0x20 ADD PUSH1 0x0 KECCAK256 PUSH1 0x1 ADD SLOAD SUB PUSH2 0x17C2 JUMPI PUSH1 0x40 MLOAD PUSH32 0x8C379A000000000000000000000000000000000000000000000000000000000 DUP2 MSTORE PUSH1 0x4 ADD PUSH2 0x17B9 SWAP1 PUSH2 0x46B3 JUMP JUMPDEST PUSH1 0x40 MLOAD DUP1 SWAP2 SUB SWAP1 REVERT JUMPDEST PUSH1 0x4 DUP1 DUP2 GT ISZERO PUSH2 0x17D5 JUMPI PUSH2 0x17D4 PUSH2 0x34BA JUMP JUMPDEST JUMPDEST PUSH1 0x0 DUP1 DUP8 DUP2 MSTORE PUSH1 0x20 ADD SWAP1 DUP2 MSTORE PUSH1 0x20 ADD PUSH1 0x0 KECCAK256 PUSH1 0x0 ADD PUSH1 0x0 SWAP1 SLOAD SWAP1 PUSH2 0x100 EXP SWAP1 DIV PUSH1 0xFF AND PUSH1 0x4 DUP2 GT ISZERO PUSH2 0x180A JUMPI PUSH2 0x1809 PUSH2 0x34BA JUMP JUMPDEST JUMPDEST EQ ISZERO DUP1 ISZERO PUSH2 0x185F JUMPI POP PUSH1 0x2 PUSH1 0x4 DUP2 GT ISZERO PUSH2 0x1827 JUMPI PUSH2 0x1826 PUSH2 0x34BA JUMP JUMPDEST JUMPDEST PUSH1 0x0 DUP1 DUP8 DUP2 MSTORE PUSH1 0x20 ADD SWAP1 DUP2 MSTORE PUSH1 0x20 ADD PUSH1 0x0 KECCAK256 PUSH1 0x0 ADD PUSH1 0x0 SWAP1 SLOAD SWAP1 PUSH2 0x100 EXP SWAP1 DIV PUSH1 0xFF AND PUSH1 0x4 DUP2 GT ISZERO PUSH2 0x185C JUMPI PUSH2 0x185B PUSH2 0x34BA JUMP JUMPDEST JUMPDEST EQ ISZERO JUMPDEST PUSH2 0x189E JUMPI PUSH1 0x40 MLOAD PUSH32 0x8C379A000000000000000000000000000000000000000000000000000000000 DUP2 MSTORE PUSH1 0x4 ADD PUSH2 0x1895 SWAP1 PUSH2 0x4DA0 JUMP JUMPDEST PUSH1 0x40 MLOAD DUP1 SWAP2 SUB SWAP1 REVERT JUMPDEST DUP4 PUSH1 0x0 DUP1 DUP8 DUP2 MSTORE PUSH1 0x20 ADD SWAP1 DUP2 MSTORE PUSH1 0x20 ADD PUSH1 0x0 KECCAK256 PUSH1 0x4 ADD SLOAD EQ PUSH2 0x18F5 JUMPI PUSH1 0x40 MLOAD PUSH32 0x8C379A000000000000000000000000000000000000000000000000000000000 DUP2 MSTORE PUSH1 0x4 ADD PUSH2 0x18EC SWAP1 PUSH2 0x4E0C JUMP JUMPDEST PUSH1 0x40 MLOAD DUP1 SWAP2 SUB SWAP1 REVERT JUMPDEST DUP3 PUSH1 0x0 DUP1 DUP8 DUP2 MSTORE PUSH1 0x20 ADD SWAP1 DUP2 MSTORE PUSH1 0x20 ADD PUSH1 0x0 KECCAK256 PUSH1 0x4 ADD DUP2 SWAP1 SSTORE POP DUP5 PUSH32 0x6FFF2D70A00D754C43C8C120BE5E18415B3443738A8CFF4B907FAA8C52E173A2 DUP5 PUSH1 0x40 MLOAD PUSH2 0x193F SWAP2 SWAP1 PUSH2 0x3F2E JUMP JUMPDEST PUSH1 0x40 MLOAD DUP1 SWAP2 SUB SWAP1 LOG2 POP POP POP POP POP JUMP JUMPDEST PUSH1 0x0 DUP1 SHL PUSH1 0x0 DUP1 DUP7 DUP2 MSTORE PUSH1 0x20 ADD SWAP1 DUP2 MSTORE PUSH1 0x20 ADD PUSH1 0x0 KECCAK256 PUSH1 0x1 ADD SLOAD SUB PUSH2 0x19A8 JUMPI PUSH1 0x40 MLOAD PUSH32 0x8C379A000000000000000000000000000000000000000000000000000000000 DUP2 MSTORE PUSH1 0x4 ADD PUSH2 0x199F SWAP1 PUSH2 0x46B3 JUMP JUMPDEST PUSH1 0x40 MLOAD DUP1 SWAP2 SUB SWAP1 REVERT JUMPDEST PUSH1 0x1 PUSH1 0x4 DUP2 GT ISZERO PUSH2 0x19BC JUMPI PUSH2 0x19BB PUSH2 0x34BA JUMP JUMPDEST JUMPDEST PUSH1 0x0 DUP1 DUP7 DUP2 MSTORE PUSH1 0x20 ADD SWAP1 DUP2 MSTORE PUSH1 0x20 ADD PUSH1 0x0 KECCAK256 PUSH1 0x0 ADD PUSH1 0x0 SWAP1 SLOAD SWAP1 PUSH2 0x100 EXP SWAP1 DIV PUSH1 0xFF AND PUSH1 0x4 DUP2 GT ISZERO PUSH2 0x19F1 JUMPI PUSH2 0x19F0 PUSH2 0x34BA JUMP JUMPDEST JUMPDEST EQ PUSH2 0x1A31 JUMPI PUSH1 0x40 MLOAD PUSH32 0x8C379A000000000000000000000000000000000000000000000000000000000 DUP2 MSTORE PUSH1 0x4 ADD PUSH2 0x1A28 SWAP1 PUSH2 0x4E78 JUMP JUMPDEST PUSH1 0x40 MLOAD DUP1 SWAP2 SUB SWAP1 REVERT JUMPDEST DUP3 PUSH1 0x0 DUP1 DUP7 DUP2 MSTORE PUSH1 0x20 ADD SWAP1 DUP2 MSTORE PUSH1 0x20 ADD PUSH1 0x0 KECCAK256 PUSH1 0x5 ADD SWAP1 DUP1 MLOAD SWAP1 PUSH1 0x20 ADD SWAP1 PUSH2 0x1A5A SWAP3 SWAP2 SWAP1 PUSH2 0x3167 JUMP JUMPDEST POP PUSH1 0x4 PUSH1 0x0 DUP1 DUP7 DUP2 MSTORE PUSH1 0x20 ADD SWAP1 DUP2 MSTORE PUSH1 0x20 ADD PUSH1 0x0 KECCAK256 PUSH1 0x0 ADD PUSH1 0x0 PUSH2 0x100 EXP DUP2 SLOAD DUP2 PUSH1 0xFF MUL NOT AND SWAP1 DUP4 PUSH1 0x4 DUP2 GT ISZERO PUSH2 0x1A94 JUMPI PUSH2 0x1A93 PUSH2 0x34BA JUMP JUMPDEST JUMPDEST MUL OR SWAP1 SSTORE POP POP POP POP POP JUMP JUMPDEST PUSH1 0x1 PUSH1 0x0 SWAP1 SLOAD SWAP1 PUSH2 0x100 EXP SWAP1 DIV PUSH20 0xFFFFFFFFFFFFFFFFFFFFFFFFFFFFFFFFFFFFFFFF AND PUSH20 0xFFFFFFFFFFFFFFFFFFFFFFFFFFFFFFFFFFFFFFFF AND PUSH4 0x64DD489F PUSH1 0x0 DUP1 DUP6 DUP2 MSTORE PUSH1 0x20 ADD SWAP1 DUP2 MSTORE PUSH1 0x20 ADD PUSH1 0x0 KECCAK256 PUSH1 0x1 ADD SLOAD CALLER PUSH1 0x40 MLOAD DUP4 PUSH4 0xFFFFFFFF AND PUSH1 0xE0 SHL DUP2 MSTORE PUSH1 0x4 ADD PUSH2 0x1B11 SWAP3 SWAP2 SWAP1 PUSH2 0x4553 JUMP JUMPDEST PUSH1 0x20 PUSH1 0x40 MLOAD DUP1 DUP4 SUB DUP2 DUP7 GAS STATICCALL ISZERO DUP1 ISZERO PUSH2 0x1B2E JUMPI RETURNDATASIZE PUSH1 0x0 DUP1 RETURNDATACOPY RETURNDATASIZE PUSH1 0x0 REVERT JUMPDEST POP POP POP POP PUSH1 0x40 MLOAD RETURNDATASIZE PUSH1 0x1F NOT PUSH1 0x1F DUP3 ADD AND DUP3 ADD DUP1 PUSH1 0x40 MSTORE POP DUP2 ADD SWAP1 PUSH2 0x1B52 SWAP2 SWAP1 PUSH2 0x45A8 JUMP JUMPDEST PUSH2 0x1B91 JUMPI PUSH1 0x40 MLOAD PUSH32 0x8C379A000000000000000000000000000000000000000000000000000000000 DUP2 MSTORE PUSH1 0x4 ADD PUSH2 0x1B88 SWAP1 PUSH2 0x4F0A JUMP JUMPDEST PUSH1 0x40 MLOAD DUP1 SWAP2 SUB SWAP1 REVERT JUMPDEST PUSH1 0x0 DUP2 DUP1 PUSH1 0x60 ADD SWAP1 PUSH2 0x1BA3 SWAP2 SWAP1 PUSH2 0x4F39 JUMP JUMPDEST SWAP1 POP GT PUSH2 0x1BE5 JUMPI PUSH1 0x40 MLOAD PUSH32 0x8C379A000000000000000000000000000000000000000000000000000000000 DUP2 MSTORE PUSH1 0x4 ADD PUSH2 0x1BDC SWAP1 PUSH2 0x4FE8 JUMP JUMPDEST PUSH1 0x40 MLOAD DUP1 SWAP2 SUB SWAP1 REVERT JUMPDEST PUSH1 0x0 DUP1 SHL DUP2 PUSH1 0x40 ADD CALLDATALOAD SUB PUSH2 0x1C2E JUMPI PUSH1 0x40 MLOAD PUSH32 0x8C379A000000000000000000000000000000000000000000000000000000000 DUP2 MSTORE PUSH1 0x4 ADD PUSH2 0x1C25 SWAP1 PUSH2 0x5054 JUMP JUMPDEST PUSH1 0x40 MLOAD DUP1 SWAP2 SUB SWAP1 REVERT JUMPDEST PUSH1 0x0 DUP1 SHL PUSH1 0x0 DUP1 DUP5 DUP2 MSTORE PUSH1 0x20 ADD SWAP1 DUP2 MSTORE PUSH1 0x20 ADD PUSH1 0x0 KECCAK256 PUSH1 0x1 ADD SLOAD SUB PUSH2 0x1C88 JUMPI PUSH1 0x40 MLOAD PUSH32 0x8C379A000000000000000000000000000000000000000000000000000000000 DUP2 MSTORE PUSH1 0x4 ADD PUSH2 0x1C7F SWAP1 PUSH2 0x46B3 JUMP JUMPDEST PUSH1 0x40 MLOAD DUP1 SWAP2 SUB SWAP1 REVERT JUMPDEST PUSH1 0x0 PUSH1 0x4 DUP2 GT ISZERO PUSH2 0x1C9C JUMPI PUSH2 0x1C9B PUSH2 0x34BA JUMP JUMPDEST JUMPDEST PUSH1 0x0 DUP1 DUP5 DUP2 MSTORE PUSH1 0x20 ADD SWAP1 DUP2 MSTORE PUSH1 0x20 ADD PUSH1 0x0 KECCAK256 PUSH1 0x0 ADD PUSH1 0x0 SWAP1 SLOAD SWAP1 PUSH2 0x100 EXP SWAP1 DIV PUSH1 0xFF AND PUSH1 0x4 DUP2 GT ISZERO PUSH2 0x1CD1 JUMPI PUSH2 0x1CD0 PUSH2 0x34BA JUMP JUMPDEST JUMPDEST EQ DUP1 PUSH2 0x1D23 JUMPI POP PUSH1 0x3 PUSH1 0x4 DUP2 GT ISZERO PUSH2 0x1CEC JUMPI PUSH2 0x1CEB PUSH2 0x34BA JUMP JUMPDEST JUMPDEST PUSH1 0x0 DUP1 DUP5 DUP2 MSTORE PUSH1 0x20 ADD SWAP1 DUP2 MSTORE PUSH1 0x20 ADD PUSH1 0x0 KECCAK256 PUSH1 0x0 ADD PUSH1 0x0 SWAP1 SLOAD SWAP1 PUSH2 0x100 EXP SWAP1 DIV PUSH1 0xFF AND PUSH1 0x4 DUP2 GT ISZERO PUSH2 0x1D21 JUMPI PUSH2 0x1D20 PUSH2 0x34BA JUMP JUMPDEST JUMPDEST EQ JUMPDEST PUSH2 0x1D62 JUMPI PUSH1 0x40 MLOAD PUSH32 0x8C379A000000000000000000000000000000000000000000000000000000000 DUP2 MSTORE PUSH1 0x4 ADD PUSH2 0x1D59 SWAP1 PUSH2 0x471F JUMP JUMPDEST PUSH1 0x40 MLOAD DUP1 SWAP2 SUB SWAP1 REVERT JUMPDEST PUSH1 0x0 PUSH1 0x4 PUSH1 0x0 DUP1 DUP6 DUP2 MSTORE PUSH1 0x20 ADD SWAP1 DUP2 MSTORE PUSH1 0x20 ADD PUSH1 0x0 KECCAK256 PUSH1 0x9 ADD PUSH1 0x0 ADD PUSH1 0x1 SWAP1 SLOAD SWAP1 PUSH2 0x100 EXP SWAP1 DIV PUSH1 0xFF AND AND PUSH1 0xFF AND SUB PUSH2 0x1DD0 JUMPI PUSH1 0x40 MLOAD PUSH32 0x8C379A000000000000000000000000000000000000000000000000000000000 DUP2 MSTORE PUSH1 0x4 ADD PUSH2 0x1DC7 SWAP1 PUSH2 0x50C0 JUMP JUMPDEST PUSH1 0x40 MLOAD DUP1 SWAP2 SUB SWAP1 REVERT JUMPDEST DUP1 PUSH1 0x20 ADD CALLDATALOAD PUSH1 0x0 DUP1 DUP5 DUP2 MSTORE PUSH1 0x20 ADD SWAP1 DUP2 MSTORE PUSH1 0x20 ADD PUSH1 0x0 KECCAK256 PUSH1 0x15 ADD PUSH1 0x1 ADD SLOAD LT ISZERO PUSH2 0x1E16 JUMPI DUP1 PUSH1 0x20 ADD CALLDATALOAD PUSH1 0x0 DUP1 DUP5 DUP2 MSTORE PUSH1 0x20 ADD SWAP1 DUP2 MSTORE PUSH1 0x20 ADD PUSH1 0x0 KECCAK256 PUSH1 0x15 ADD PUSH1 0x1 ADD DUP2 SWAP1 SSTORE POP JUMPDEST DUP1 PUSH1 0x40 ADD CALLDATALOAD PUSH1 0x0 DUP1 DUP5 DUP2 MSTORE PUSH1 0x20 ADD SWAP1 DUP2 MSTORE PUSH1 0x20 ADD PUSH1 0x0 KECCAK256 PUSH1 0x15 ADD PUSH1 0x2 ADD DUP2 SWAP1 SSTORE POP DUP1 DUP1 PUSH1 0x60 ADD SWAP1 PUSH2 0x1E47 SWAP2 SWAP1 PUSH2 0x4F39 JUMP JUMPDEST PUSH1 0x0 DUP1 DUP6 DUP2 MSTORE PUSH1 0x20 ADD SWAP1 DUP2 MSTORE PUSH1 0x20 ADD PUSH1 0x0 KECCAK256 PUSH1 0x15 ADD PUSH1 0x3 ADD SWAP2 DUP3 PUSH2 0x1E6C SWAP3 SWAP2 SWAP1 PUSH2 0x4B62 JUMP JUMPDEST POP DUP2 PUSH32 0x35947A8913E2156F19B018078C9F0667E49CB3DC24AF3434A4D0B16B82675B1B DUP3 PUSH1 0x40 ADD CALLDATALOAD DUP4 DUP1 PUSH1 0x60 ADD SWAP1 PUSH2 0x1EA4 SWAP2 SWAP1 PUSH2 0x4F39 JUMP JUMPDEST DUP6 PUSH1 0x20 ADD CALLDATALOAD PUSH1 0x40 MLOAD PUSH2 0x1EB9 SWAP5 SWAP4 SWAP3 SWAP2 SWAP1 PUSH2 0x510D JUMP JUMPDEST PUSH1 0x40 MLOAD DUP1 SWAP2 SUB SWAP1 LOG2 POP POP JUMP JUMPDEST PUSH1 0x0 DUP9 PUSH1 0xA0 ADD PUSH1 0x20 ADD CALLDATALOAD GT PUSH2 0x1F0F JUMPI PUSH1 0x40 MLOAD PUSH32 0x8C379A000000000000000000000000000000000000000000000000000000000 DUP2 MSTORE PUSH1 0x4 ADD PUSH2 0x1F06 SWAP1 PUSH2 0x5199 JUMP JUMPDEST PUSH1 0x40 MLOAD DUP1 SWAP2 SUB SWAP1 REVERT JUMPDEST DUP8 PUSH1 0xA0 ADD PUSH1 0x20 ADD CALLDATALOAD DUP9 PUSH1 0xA0 ADD PUSH1 0x40 ADD CALLDATALOAD GT PUSH2 0x1F5F JUMPI PUSH1 0x40 MLOAD PUSH32 0x8C379A000000000000000000000000000000000000000000000000000000000 DUP2 MSTORE PUSH1 0x4 ADD PUSH2 0x1F56 SWAP1 PUSH2 0x5205 JUMP JUMPDEST PUSH1 0x40 MLOAD DUP1 SWAP2 SUB SWAP1 REVERT JUMPDEST PUSH1 0x0 PUSH1 0x4 DUP2 GT ISZERO PUSH2 0x1F73 JUMPI PUSH2 0x1F72 PUSH2 0x34BA JUMP JUMPDEST JUMPDEST DUP9 PUSH1 0x80 ADD PUSH1 0x20 DUP2 ADD SWAP1 PUSH2 0x1F86 SWAP2 SWAP1 PUSH2 0x5225 JUMP JUMPDEST PUSH1 0x4 DUP2 GT ISZERO PUSH2 0x1F98 JUMPI PUSH2 0x1F97 PUSH2 0x34BA JUMP JUMPDEST JUMPDEST EQ DUP1 PUSH2 0x1FDA JUMPI POP PUSH1 0x3 PUSH1 0x4 DUP2 GT ISZERO PUSH2 0x1FB3 JUMPI PUSH2 0x1FB2 PUSH2 0x34BA JUMP JUMPDEST JUMPDEST DUP9 PUSH1 0x80 ADD PUSH1 0x20 DUP2 ADD SWAP1 PUSH2 0x1FC6 SWAP2 SWAP1 PUSH2 0x5225 JUMP JUMPDEST PUSH1 0x4 DUP2 GT ISZERO PUSH2 0x1FD8 JUMPI PUSH2 0x1FD7 PUSH2 0x34BA JUMP JUMPDEST JUMPDEST EQ JUMPDEST PUSH2 0x2019 JUMPI PUSH1 0x40 MLOAD PUSH32 0x8C379A000000000000000000000000000000000000000000000000000000000 DUP2 MSTORE PUSH1 0x4 ADD PUSH2 0x2010 SWAP1 PUSH2 0x529E JUMP JUMPDEST PUSH1 0x40 MLOAD DUP1 SWAP2 SUB SWAP1 REVERT JUMPDEST PUSH1 0x3 PUSH1 0x9 DUP2 GT ISZERO PUSH2 0x202D JUMPI PUSH2 0x202C PUSH2 0x34BA JUMP JUMPDEST JUMPDEST DUP8 PUSH1 0x0 ADD PUSH1 0x20 DUP2 ADD SWAP1 PUSH2 0x2040 SWAP2 SWAP1 PUSH2 0x52E3 JUMP JUMPDEST PUSH1 0x9 DUP2 GT ISZERO PUSH2 0x2052 JUMPI PUSH2 0x2051 PUSH2 0x34BA JUMP JUMPDEST JUMPDEST SUB PUSH2 0x20B3 JUMPI PUSH1 0x0 PUSH1 0x2 DUP10 PUSH1 0x0 ADD PUSH1 0x20 DUP2 ADD SWAP1 PUSH2 0x206E SWAP2 SWAP1 PUSH2 0x533C JUMP JUMPDEST AND PUSH1 0xFF AND EQ PUSH2 0x20B2 JUMPI PUSH1 0x40 MLOAD PUSH32 0x8C379A000000000000000000000000000000000000000000000000000000000 DUP2 MSTORE PUSH1 0x4 ADD PUSH2 0x20A9 SWAP1 PUSH2 0x5401 JUMP JUMPDEST PUSH1 0x40 MLOAD DUP1 SWAP2 SUB SWAP1 REVERT JUMPDEST JUMPDEST PUSH1 0x9 DUP1 DUP2 GT ISZERO PUSH2 0x20C6 JUMPI PUSH2 0x20C5 PUSH2 0x34BA JUMP JUMPDEST JUMPDEST DUP8 PUSH1 0x0 ADD PUSH1 0x20 DUP2 ADD SWAP1 PUSH2 0x20D9 SWAP2 SWAP1 PUSH2 0x52E3 JUMP JUMPDEST PUSH1 0x9 DUP2 GT ISZERO PUSH2 0x20EB JUMPI PUSH2 0x20EA PUSH2 0x34BA JUMP JUMPDEST JUMPDEST SUB PUSH2 0x21F1 JUMPI PUSH1 0x1 DUP9 PUSH1 0xA0 ADD PUSH1 0x20 ADD CALLDATALOAD EQ PUSH2 0x213A JUMPI PUSH1 0x40 MLOAD PUSH32 0x8C379A000000000000000000000000000000000000000000000000000000000 DUP2 MSTORE PUSH1 0x4 ADD PUSH2 0x2131 SWAP1 PUSH2 0x5493 JUMP JUMPDEST PUSH1 0x40 MLOAD DUP1 SWAP2 SUB SWAP1 REVERT JUMPDEST PUSH1 0x0 PUSH1 0x2 DUP10 PUSH1 0x0 ADD PUSH1 0x20 DUP2 ADD SWAP1 PUSH2 0x2151 SWAP2 SWAP1 PUSH2 0x533C JUMP JUMPDEST AND PUSH1 0xFF AND EQ PUSH2 0x2195 JUMPI PUSH1 0x40 MLOAD PUSH32 0x8C379A000000000000000000000000000000000000000000000000000000000 DUP2 MSTORE PUSH1 0x4 ADD PUSH2 0x218C SWAP1 PUSH2 0x554B JUMP JUMPDEST PUSH1 0x40 MLOAD DUP1 SWAP2 SUB SWAP1 REVERT JUMPDEST PUSH1 0x0 PUSH1 0x4 DUP10 PUSH1 0x0 ADD PUSH1 0x20 DUP2 ADD SWAP1 PUSH2 0x21AC SWAP2 SWAP1 PUSH2 0x533C JUMP JUMPDEST AND PUSH1 0xFF AND EQ PUSH2 0x21F0 JUMPI PUSH1 0x40 MLOAD PUSH32 0x8C379A000000000000000000000000000000000000000000000000000000000 DUP2 MSTORE PUSH1 0x4 ADD PUSH2 0x21E7 SWAP1 PUSH2 0x5603 JUMP JUMPDEST PUSH1 0x40 MLOAD DUP1 SWAP2 SUB SWAP1 REVERT JUMPDEST JUMPDEST TIMESTAMP DUP9 PUSH1 0x40 ADD CALLDATALOAD GT PUSH2 0x2237 JUMPI PUSH1 0x40 MLOAD PUSH32 0x8C379A000000000000000000000000000000000000000000000000000000000 DUP2 MSTORE PUSH1 0x4 ADD PUSH2 0x222E SWAP1 PUSH2 0x566F JUMP JUMPDEST PUSH1 0x40 MLOAD DUP1 SWAP2 SUB SWAP1 REVERT JUMPDEST TIMESTAMP DUP9 PUSH1 0x60 ADD CALLDATALOAD DUP10 PUSH1 0x40 ADD CALLDATALOAD PUSH2 0x224C SWAP2 SWAP1 PUSH2 0x56BE JUMP JUMPDEST GT PUSH2 0x228C JUMPI PUSH1 0x40 MLOAD PUSH32 0x8C379A000000000000000000000000000000000000000000000000000000000 DUP2 MSTORE PUSH1 0x4 ADD PUSH2 0x2283 SWAP1 PUSH2 0x573E JUMP JUMPDEST PUSH1 0x40 MLOAD DUP1 SWAP2 SUB SWAP1 REVERT JUMPDEST PUSH1 0x0 PUSH1 0x1 DUP10 PUSH1 0x0 ADD PUSH1 0x20 DUP2 ADD SWAP1 PUSH2 0x22A3 SWAP2 SWAP1 PUSH2 0x533C JUMP JUMPDEST AND PUSH1 0xFF AND EQ PUSH2 0x22E7 JUMPI PUSH1 0x40 MLOAD PUSH32 0x8C379A000000000000000000000000000000000000000000000000000000000 DUP2 MSTORE PUSH1 0x4 ADD PUSH2 0x22DE SWAP1 PUSH2 0x57D0 JUMP JUMPDEST PUSH1 0x40 MLOAD DUP1 SWAP2 SUB SWAP1 REVERT JUMPDEST PUSH1 0x1 PUSH1 0x0 SWAP1 SLOAD SWAP1 PUSH2 0x100 EXP SWAP1 DIV PUSH20 0xFFFFFFFFFFFFFFFFFFFFFFFFFFFFFFFFFFFFFFFF AND PUSH20 0xFFFFFFFFFFFFFFFFFFFFFFFFFFFFFFFFFFFFFFFF AND PUSH4 0x64DD489F DUP6 CALLER PUSH1 0x40 MLOAD DUP4 PUSH4 0xFFFFFFFF AND PUSH1 0xE0 SHL DUP2 MSTORE PUSH1 0x4 ADD PUSH2 0x2344 SWAP3 SWAP2 SWAP1 PUSH2 0x4553 JUMP JUMPDEST PUSH1 0x20 PUSH1 0x40 MLOAD DUP1 DUP4 SUB DUP2 DUP7 GAS STATICCALL ISZERO DUP1 ISZERO PUSH2 0x2361 JUMPI RETURNDATASIZE PUSH1 0x0 DUP1 RETURNDATACOPY RETURNDATASIZE PUSH1 0x0 REVERT JUMPDEST POP POP POP POP PUSH1 0x40 MLOAD RETURNDATASIZE PUSH1 0x1F NOT PUSH1 0x1F DUP3 ADD AND DUP3 ADD DUP1 PUSH1 0x40 MSTORE POP DUP2 ADD SWAP1 PUSH2 0x2385 SWAP2 SWAP1 PUSH2 0x45A8 JUMP JUMPDEST PUSH2 0x23C4 JUMPI PUSH1 0x40 MLOAD PUSH32 0x8C379A000000000000000000000000000000000000000000000000000000000 DUP2 MSTORE PUSH1 0x4 ADD PUSH2 0x23BB SWAP1 PUSH2 0x5862 JUMP JUMPDEST PUSH1 0x40 MLOAD DUP1 SWAP2 SUB SWAP1 REVERT JUMPDEST PUSH1 0x0 DUP1 SHL PUSH1 0x0 DUP1 DUP6 DUP2 MSTORE PUSH1 0x20 ADD SWAP1 DUP2 MSTORE PUSH1 0x20 ADD PUSH1 0x0 KECCAK256 PUSH1 0x1 ADD SLOAD EQ PUSH2 0x241E JUMPI PUSH1 0x40 MLOAD PUSH32 0x8C379A000000000000000000000000000000000000000000000000000000000 DUP2 MSTORE PUSH1 0x4 ADD PUSH2 0x2415 SWAP1 PUSH2 0x58F4 JUMP JUMPDEST PUSH1 0x40 MLOAD DUP1 SWAP2 SUB SWAP1 REVERT JUMPDEST PUSH1 0x0 PUSH1 0x40 MLOAD DUP1 PUSH2 0x140 ADD PUSH1 0x40 MSTORE DUP1 DUP11 PUSH1 0x80 ADD PUSH1 0x20 DUP2 ADD SWAP1 PUSH2 0x243F SWAP2 SWAP1 PUSH2 0x5225 JUMP JUMPDEST PUSH1 0x4 DUP2 GT ISZERO PUSH2 0x2451 JUMPI PUSH2 0x2450 PUSH2 0x34BA JUMP JUMPDEST JUMPDEST DUP2 MSTORE PUSH1 0x20 ADD DUP7 DUP2 MSTORE PUSH1 0x20 ADD PUSH1 0x40 MLOAD DUP1 PUSH1 0x40 ADD PUSH1 0x40 MSTORE DUP1 DUP7 DUP2 MSTORE PUSH1 0x20 ADD PUSH1 0x0 DUP1 SHL DUP2 MSTORE POP DUP2 MSTORE PUSH1 0x20 ADD DUP4 DUP2 MSTORE PUSH1 0x20 ADD PUSH1 0x0 PUSH8 0xFFFFFFFFFFFFFFFF DUP2 GT ISZERO PUSH2 0x249A JUMPI PUSH2 0x2499 PUSH2 0x3DA7 JUMP JUMPDEST JUMPDEST PUSH1 0x40 MLOAD SWAP1 DUP1 DUP3 MSTORE DUP1 PUSH1 0x20 MUL PUSH1 0x20 ADD DUP3 ADD PUSH1 0x40 MSTORE DUP1 ISZERO PUSH2 0x24CD JUMPI DUP2 PUSH1 0x20 ADD JUMPDEST PUSH1 0x60 DUP2 MSTORE PUSH1 0x20 ADD SWAP1 PUSH1 0x1 SWAP1 SUB SWAP1 DUP2 PUSH2 0x24B8 JUMPI SWAP1 POP JUMPDEST POP DUP2 MSTORE PUSH1 0x20 ADD DUP11 PUSH1 0x40 ADD CALLDATALOAD DUP2 MSTORE PUSH1 0x20 ADD DUP11 PUSH1 0x60 ADD CALLDATALOAD DUP2 MSTORE PUSH1 0x20 ADD DUP9 DUP9 DUP1 DUP1 PUSH1 0x1F ADD PUSH1 0x20 DUP1 SWAP2 DIV MUL PUSH1 0x20 ADD PUSH1 0x40 MLOAD SWAP1 DUP2 ADD PUSH1 0x40 MSTORE DUP1 SWAP4 SWAP3 SWAP2 SWAP1 DUP2 DUP2 MSTORE PUSH1 0x20 ADD DUP4 DUP4 DUP1 DUP3 DUP5 CALLDATACOPY PUSH1 0x0 DUP2 DUP5 ADD MSTORE PUSH1 0x1F NOT PUSH1 0x1F DUP3 ADD AND SWAP1 POP DUP1 DUP4 ADD SWAP3 POP POP POP POP POP POP POP DUP2 MSTORE PUSH1 0x20 ADD DUP11 DUP1 CALLDATASIZE SUB DUP2 ADD SWAP1 PUSH2 0x2542 SWAP2 SWAP1 PUSH2 0x5A9E JUMP JUMPDEST DUP2 MSTORE PUSH1 0x20 ADD DUP10 PUSH2 0x2551 SWAP1 PUSH2 0x5C01 JUMP JUMPDEST DUP2 MSTORE POP SWAP1 POP DUP1 PUSH1 0x0 DUP1 DUP7 DUP2 MSTORE PUSH1 0x20 ADD SWAP1 DUP2 MSTORE PUSH1 0x20 ADD PUSH1 0x0 KECCAK256 PUSH1 0x0 DUP3 ADD MLOAD DUP2 PUSH1 0x0 ADD PUSH1 0x0 PUSH2 0x100 EXP DUP2 SLOAD DUP2 PUSH1 0xFF MUL NOT AND SWAP1 DUP4 PUSH1 0x4 DUP2 GT ISZERO PUSH2 0x2594 JUMPI PUSH2 0x2593 PUSH2 0x34BA JUMP JUMPDEST JUMPDEST MUL OR SWAP1 SSTORE POP PUSH1 0x20 DUP3 ADD MLOAD DUP2 PUSH1 0x1 ADD SSTORE PUSH1 0x40 DUP3 ADD MLOAD DUP2 PUSH1 0x2 ADD SWAP1 PUSH1 0x2 PUSH2 0x25BA SWAP3 SWAP2 SWAP1 PUSH2 0x31C7 JUMP JUMPDEST POP PUSH1 0x60 DUP3 ADD MLOAD DUP2 PUSH1 0x4 ADD SSTORE PUSH1 0x80 DUP3 ADD MLOAD DUP2 PUSH1 0x5 ADD SWAP1 DUP1 MLOAD SWAP1 PUSH1 0x20 ADD SWAP1 PUSH2 0x25E1 SWAP3 SWAP2 SWAP1 PUSH2 0x3167 JUMP JUMPDEST POP PUSH1 0xA0 DUP3 ADD MLOAD DUP2 PUSH1 0x6 ADD SSTORE PUSH1 0xC0 DUP3 ADD MLOAD DUP2 PUSH1 0x7 ADD SSTORE PUSH1 0xE0 DUP3 ADD MLOAD DUP2 PUSH1 0x8 ADD SWAP1 DUP2 PUSH2 0x260B SWAP2 SWAP1 PUSH2 0x5C14 JUMP JUMPDEST POP PUSH2 0x100 DUP3 ADD MLOAD DUP2 PUSH1 0x9 ADD PUSH1 0x0 DUP3 ADD MLOAD DUP2 PUSH1 0x0 ADD PUSH1 0x0 PUSH2 0x100 EXP DUP2 SLOAD DUP2 PUSH1 0xFF MUL NOT AND SWAP1 DUP4 PUSH1 0xFF AND MUL OR SWAP1 SSTORE POP PUSH1 0x20 DUP3 ADD MLOAD DUP2 PUSH1 0x0 ADD PUSH1 0x1 PUSH2 0x100 EXP DUP2 SLOAD DUP2 PUSH1 0xFF MUL NOT AND SWAP1 DUP4 PUSH1 0xFF AND MUL OR SWAP1 SSTORE POP PUSH1 0x40 DUP3 ADD MLOAD DUP2 PUSH1 0x1 ADD SSTORE PUSH1 0x60 DUP3 ADD MLOAD DUP2 PUSH1 0x2 ADD SSTORE PUSH1 0x80 DUP3 ADD MLOAD DUP2 PUSH1 0x3 ADD PUSH1 0x0 PUSH2 0x100 EXP DUP2 SLOAD DUP2 PUSH1 0xFF MUL NOT AND SWAP1 DUP4 PUSH1 0x4 DUP2 GT ISZERO PUSH2 0x2697 JUMPI PUSH2 0x2696 PUSH2 0x34BA JUMP JUMPDEST JUMPDEST MUL OR SWAP1 SSTORE POP PUSH1 0xA0 DUP3 ADD MLOAD DUP2 PUSH1 0x4 ADD PUSH1 0x0 DUP3 ADD MLOAD DUP2 PUSH1 0x0 ADD PUSH1 0x0 PUSH2 0x100 EXP DUP2 SLOAD DUP2 PUSH1 0xFF MUL NOT AND SWAP1 DUP4 ISZERO ISZERO MUL OR SWAP1 SSTORE POP PUSH1 0x20 DUP3 ADD MLOAD DUP2 PUSH1 0x1 ADD SSTORE PUSH1 0x40 DUP3 ADD MLOAD DUP2 PUSH1 0x2 ADD SSTORE PUSH1 0x60 DUP3 ADD MLOAD DUP2 PUSH1 0x3 ADD SSTORE PUSH1 0x80 DUP3 ADD MLOAD DUP2 PUSH1 0x4 ADD SSTORE PUSH1 0xA0 DUP3 ADD MLOAD DUP2 PUSH1 0x5 ADD SSTORE PUSH1 0xC0 DUP3 ADD MLOAD DUP2 PUSH1 0x6 ADD SSTORE PUSH1 0xE0 DUP3 ADD MLOAD DUP2 PUSH1 0x7 ADD SSTORE POP POP POP POP PUSH2 0x120 DUP3 ADD MLOAD DUP2 PUSH1 0x15 ADD PUSH1 0x0 DUP3 ADD MLOAD DUP2 PUSH1 0x0 ADD PUSH1 0x0 PUSH2 0x100 EXP DUP2 SLOAD DUP2 PUSH1 0xFF MUL NOT AND SWAP1 DUP4 PUSH1 0x9 DUP2 GT ISZERO PUSH2 0x2744 JUMPI PUSH2 0x2743 PUSH2 0x34BA JUMP JUMPDEST JUMPDEST MUL OR SWAP1 SSTORE POP PUSH1 0x20 DUP3 ADD MLOAD DUP2 PUSH1 0x1 ADD SSTORE PUSH1 0x40 DUP3 ADD MLOAD DUP2 PUSH1 0x2 ADD SSTORE PUSH1 0x60 DUP3 ADD MLOAD DUP2 PUSH1 0x3 ADD SWAP1 DUP2 PUSH2 0x2772 SWAP2 SWAP1 PUSH2 0x5C14 JUMP JUMPDEST POP POP POP SWAP1 POP POP CALLER PUSH20 0xFFFFFFFFFFFFFFFFFFFFFFFFFFFFFFFFFFFFFFFF AND DUP5 PUSH32 0xE90BB18A6FC9203E3678A7F41E132910465E0FCE1421609662D02C481FBFBCF8 PUSH1 0x40 MLOAD PUSH1 0x40 MLOAD DUP1 SWAP2 SUB SWAP1 LOG3 POP POP POP POP POP POP POP POP POP JUMP JUMPDEST PUSH1 0x1 PUSH1 0x14 SWAP1 SLOAD SWAP1 PUSH2 0x100 EXP SWAP1 DIV PUSH4 0xFFFFFFFF AND DUP2 JUMP JUMPDEST PUSH2 0x27E5 PUSH2 0x2AFA JUMP JUMPDEST PUSH1 0x0 PUSH20 0xFFFFFFFFFFFFFFFFFFFFFFFFFFFFFFFFFFFFFFFF AND DUP2 PUSH20 0xFFFFFFFFFFFFFFFFFFFFFFFFFFFFFFFFFFFFFFFF AND SUB PUSH2 0x2857 JUMPI PUSH1 0x0 PUSH1 0x40 MLOAD PUSH32 0x1E4FBDF700000000000000000000000000000000000000000000000000000000 DUP2 MSTORE PUSH1 0x4 ADD PUSH2 0x284E SWAP2 SWAP1 PUSH2 0x4018 JUMP JUMPDEST PUSH1 0x40 MLOAD DUP1 SWAP2 SUB SWAP1 REVERT JUMPDEST PUSH2 0x2860 DUP2 PUSH2 0x2B81 JUMP JUMPDEST POP JUMP JUMPDEST PUSH32 0x0 PUSH20 0xFFFFFFFFFFFFFFFFFFFFFFFFFFFFFFFFFFFFFFFF AND ADDRESS PUSH20 0xFFFFFFFFFFFFFFFFFFFFFFFFFFFFFFFFFFFFFFFF AND EQ DUP1 PUSH2 0x2910 JUMPI POP PUSH32 0x0 PUSH20 0xFFFFFFFFFFFFFFFFFFFFFFFFFFFFFFFFFFFFFFFF AND PUSH2 0x28F7 PUSH2 0x2CC6 JUMP JUMPDEST PUSH20 0xFFFFFFFFFFFFFFFFFFFFFFFFFFFFFFFFFFFFFFFF AND EQ ISZERO JUMPDEST ISZERO PUSH2 0x2947 JUMPI PUSH1 0x40 MLOAD PUSH32 0xE07C8DBA00000000000000000000000000000000000000000000000000000000 DUP2 MSTORE PUSH1 0x4 ADD PUSH1 0x40 MLOAD DUP1 SWAP2 SUB SWAP1 REVERT JUMPDEST JUMP JUMPDEST PUSH2 0x2951 PUSH2 0x2AFA JUMP JUMPDEST POP JUMP JUMPDEST DUP2 PUSH20 0xFFFFFFFFFFFFFFFFFFFFFFFFFFFFFFFFFFFFFFFF AND PUSH4 0x52D1902D PUSH1 0x40 MLOAD DUP2 PUSH4 0xFFFFFFFF AND PUSH1 0xE0 SHL DUP2 MSTORE PUSH1 0x4 ADD PUSH1 0x20 PUSH1 0x40 MLOAD DUP1 DUP4 SUB DUP2 DUP7 GAS STATICCALL SWAP3 POP POP POP DUP1 ISZERO PUSH2 0x29BC JUMPI POP PUSH1 0x40 MLOAD RETURNDATASIZE PUSH1 0x1F NOT PUSH1 0x1F DUP3 ADD AND DUP3 ADD DUP1 PUSH1 0x40 MSTORE POP DUP2 ADD SWAP1 PUSH2 0x29B9 SWAP2 SWAP1 PUSH2 0x5CFB JUMP JUMPDEST PUSH1 0x1 JUMPDEST PUSH2 0x29FD JUMPI DUP2 PUSH1 0x40 MLOAD PUSH32 0x4C9C8CE300000000000000000000000000000000000000000000000000000000 DUP2 MSTORE PUSH1 0x4 ADD PUSH2 0x29F4 SWAP2 SWAP1 PUSH2 0x4018 JUMP JUMPDEST PUSH1 0x40 MLOAD DUP1 SWAP2 SUB SWAP1 REVERT JUMPDEST PUSH32 0x360894A13BA1A3210667C828492DB98DCA3E2076CC3735A920A3CA505D382BBC PUSH1 0x0 SHL DUP2 EQ PUSH2 0x2A64 JUMPI DUP1 PUSH1 0x40 MLOAD PUSH32 0xAA1D49A400000000000000000000000000000000000000000000000000000000 DUP2 MSTORE PUSH1 0x4 ADD PUSH2 0x2A5B SWAP2 SWAP1 PUSH2 0x3F2E JUMP JUMPDEST PUSH1 0x40 MLOAD DUP1 SWAP2 SUB SWAP1 REVERT JUMPDEST PUSH2 0x2A6E DUP4 DUP4 PUSH2 0x2D1D JUMP JUMPDEST POP POP POP JUMP JUMPDEST PUSH32 0x0 PUSH20 0xFFFFFFFFFFFFFFFFFFFFFFFFFFFFFFFFFFFFFFFF AND ADDRESS PUSH20 0xFFFFFFFFFFFFFFFFFFFFFFFFFFFFFFFFFFFFFFFF AND EQ PUSH2 0x2AF8 JUMPI PUSH1 0x40 MLOAD PUSH32 0xE07C8DBA00000000000000000000000000000000000000000000000000000000 DUP2 MSTORE PUSH1 0x4 ADD PUSH1 0x40 MLOAD DUP1 SWAP2 SUB SWAP1 REVERT JUMPDEST JUMP JUMPDEST PUSH2 0x2B02 PUSH2 0x2D90 JUMP JUMPDEST PUSH20 0xFFFFFFFFFFFFFFFFFFFFFFFFFFFFFFFFFFFFFFFF AND PUSH2 0x2B20 PUSH2 0x1423 JUMP JUMPDEST PUSH20 0xFFFFFFFFFFFFFFFFFFFFFFFFFFFFFFFFFFFFFFFF AND EQ PUSH2 0x2B7F JUMPI PUSH2 0x2B43 PUSH2 0x2D90 JUMP JUMPDEST PUSH1 0x40 MLOAD PUSH32 0x118CDAA700000000000000000000000000000000000000000000000000000000 DUP2 MSTORE PUSH1 0x4 ADD PUSH2 0x2B76 SWAP2 SWAP1 PUSH2 0x4018 JUMP JUMPDEST PUSH1 0x40 MLOAD DUP1 SWAP2 SUB SWAP1 REVERT JUMPDEST JUMP JUMPDEST PUSH1 0x0 PUSH2 0x2B8B PUSH2 0x2C9E JUMP JUMPDEST SWAP1 POP PUSH1 0x0 DUP2 PUSH1 0x0 ADD PUSH1 0x0 SWAP1 SLOAD SWAP1 PUSH2 0x100 EXP SWAP1 DIV PUSH20 0xFFFFFFFFFFFFFFFFFFFFFFFFFFFFFFFFFFFFFFFF AND SWAP1 POP DUP3 DUP3 PUSH1 0x0 ADD PUSH1 0x0 PUSH2 0x100 EXP DUP2 SLOAD DUP2 PUSH20 0xFFFFFFFFFFFFFFFFFFFFFFFFFFFFFFFFFFFFFFFF MUL NOT AND SWAP1 DUP4 PUSH20 0xFFFFFFFFFFFFFFFFFFFFFFFFFFFFFFFFFFFFFFFF AND MUL OR SWAP1 SSTORE POP DUP3 PUSH20 0xFFFFFFFFFFFFFFFFFFFFFFFFFFFFFFFFFFFFFFFF AND DUP2 PUSH20 0xFFFFFFFFFFFFFFFFFFFFFFFFFFFFFFFFFFFFFFFF AND PUSH32 0x8BE0079C531659141344CD1FD0A4F28419497F9722A3DAAFE3B4186F6B6457E0 PUSH1 0x40 MLOAD PUSH1 0x40 MLOAD DUP1 SWAP2 SUB SWAP1 LOG3 POP POP POP JUMP JUMPDEST PUSH1 0x0 PUSH32 0xF0C57E16840DF040F15088DC2F81FE391C3923BEC73E23A9662EFC9C229C6A00 SWAP1 POP SWAP1 JUMP JUMPDEST PUSH2 0x2C88 PUSH2 0x2D98 JUMP JUMPDEST PUSH2 0x2C91 DUP2 PUSH2 0x2DD8 JUMP JUMPDEST POP JUMP JUMPDEST PUSH2 0x2C9C PUSH2 0x2D98 JUMP JUMPDEST JUMP JUMPDEST PUSH1 0x0 PUSH32 0x9016D09D72D40FDAE2FD8CEAC6B6234C7706214FD39C1CD1E609A0528C199300 SWAP1 POP SWAP1 JUMP JUMPDEST PUSH1 0x0 PUSH2 0x2CF4 PUSH32 0x360894A13BA1A3210667C828492DB98DCA3E2076CC3735A920A3CA505D382BBC PUSH1 0x0 SHL PUSH2 0x2E5E JUMP JUMPDEST PUSH1 0x0 ADD PUSH1 0x0 SWAP1 SLOAD SWAP1 PUSH2 0x100 EXP SWAP1 DIV PUSH20 0xFFFFFFFFFFFFFFFFFFFFFFFFFFFFFFFFFFFFFFFF AND SWAP1 POP SWAP1 JUMP JUMPDEST PUSH2 0x2D26 DUP3 PUSH2 0x2E68 JUMP JUMPDEST DUP2 PUSH20 0xFFFFFFFFFFFFFFFFFFFFFFFFFFFFFFFFFFFFFFFF AND PUSH32 0xBC7CD75A20EE27FD9ADEBAB32041F755214DBC6BFFA90CC0225B39DA2E5C2D3B PUSH1 0x40 MLOAD PUSH1 0x40 MLOAD DUP1 SWAP2 SUB SWAP1 LOG2 PUSH1 0x0 DUP2 MLOAD GT ISZERO PUSH2 0x2D83 JUMPI PUSH2 0x2D7D DUP3 DUP3 PUSH2 0x2F35 JUMP JUMPDEST POP PUSH2 0x2D8C JUMP JUMPDEST PUSH2 0x2D8B PUSH2 0x2FB9 JUMP JUMPDEST JUMPDEST POP POP JUMP JUMPDEST PUSH1 0x0 CALLER SWAP1 POP SWAP1 JUMP JUMPDEST PUSH2 0x2DA0 PUSH2 0x2FF6 JUMP JUMPDEST PUSH2 0x2DD6 JUMPI PUSH1 0x40 MLOAD PUSH32 0xD7E6BCF800000000000000000000000000000000000000000000000000000000 DUP2 MSTORE PUSH1 0x4 ADD PUSH1 0x40 MLOAD DUP1 SWAP2 SUB SWAP1 REVERT JUMPDEST JUMP JUMPDEST PUSH2 0x2DE0 PUSH2 0x2D98 JUMP JUMPDEST PUSH1 0x0 PUSH20 0xFFFFFFFFFFFFFFFFFFFFFFFFFFFFFFFFFFFFFFFF AND DUP2 PUSH20 0xFFFFFFFFFFFFFFFFFFFFFFFFFFFFFFFFFFFFFFFF AND SUB PUSH2 0x2E52 JUMPI PUSH1 0x0 PUSH1 0x40 MLOAD PUSH32 0x1E4FBDF700000000000000000000000000000000000000000000000000000000 DUP2 MSTORE PUSH1 0x4 ADD PUSH2 0x2E49 SWAP2 SWAP1 PUSH2 0x4018 JUMP JUMPDEST PUSH1 0x40 MLOAD DUP1 SWAP2 SUB SWAP1 REVERT JUMPDEST PUSH2 0x2E5B DUP2 PUSH2 0x2B81 JUMP JUMPDEST POP JUMP JUMPDEST PUSH1 0x0 DUP2 SWAP1 POP SWAP2 SWAP1 POP JUMP JUMPDEST PUSH1 0x0 DUP2 PUSH20 0xFFFFFFFFFFFFFFFFFFFFFFFFFFFFFFFFFFFFFFFF AND EXTCODESIZE SUB PUSH2 0x2EC4 JUMPI DUP1 PUSH1 0x40 MLOAD PUSH32 0x4C9C8CE300000000000000000000000000000000000000000000000000000000 DUP2 MSTORE PUSH1 0x4 ADD PUSH2 0x2EBB SWAP2 SWAP1 PUSH2 0x4018 JUMP JUMPDEST PUSH1 0x40 MLOAD DUP1 SWAP2 SUB SWAP1 REVERT JUMPDEST DUP1 PUSH2 0x2EF1 PUSH32 0x360894A13BA1A3210667C828492DB98DCA3E2076CC3735A920A3CA505D382BBC PUSH1 0x0 SHL PUSH2 0x2E5E JUMP JUMPDEST PUSH1 0x0 ADD PUSH1 0x0 PUSH2 0x100 EXP DUP2 SLOAD DUP2 PUSH20 0xFFFFFFFFFFFFFFFFFFFFFFFFFFFFFFFFFFFFFFFF MUL NOT AND SWAP1 DUP4 PUSH20 0xFFFFFFFFFFFFFFFFFFFFFFFFFFFFFFFFFFFFFFFF AND MUL OR SWAP1 SSTORE POP POP JUMP JUMPDEST PUSH1 0x60 PUSH1 0x0 DUP1 DUP5 PUSH20 0xFFFFFFFFFFFFFFFFFFFFFFFFFFFFFFFFFFFFFFFF AND DUP5 PUSH1 0x40 MLOAD PUSH2 0x2F5F SWAP2 SWAP1 PUSH2 0x5D6F JUMP JUMPDEST PUSH1 0x0 PUSH1 0x40 MLOAD DUP1 DUP4 SUB DUP2 DUP6 GAS DELEGATECALL SWAP2 POP POP RETURNDATASIZE DUP1 PUSH1 0x0 DUP2 EQ PUSH2 0x2F9A JUMPI PUSH1 0x40 MLOAD SWAP2 POP PUSH1 0x1F NOT PUSH1 0x3F RETURNDATASIZE ADD AND DUP3 ADD PUSH1 0x40 MSTORE RETURNDATASIZE DUP3 MSTORE RETURNDATASIZE PUSH1 0x0 PUSH1 0x20 DUP5 ADD RETURNDATACOPY PUSH2 0x2F9F JUMP JUMPDEST PUSH1 0x60 SWAP2 POP JUMPDEST POP SWAP2 POP SWAP2 POP PUSH2 0x2FAF DUP6 DUP4 DUP4 PUSH2 0x3016 JUMP JUMPDEST SWAP3 POP POP POP SWAP3 SWAP2 POP POP JUMP JUMPDEST PUSH1 0x0 CALLVALUE GT ISZERO PUSH2 0x2FF4 JUMPI PUSH1 0x40 MLOAD PUSH32 0xB398979F00000000000000000000000000000000000000000000000000000000 DUP2 MSTORE PUSH1 0x4 ADD PUSH1 0x40 MLOAD DUP1 SWAP2 SUB SWAP1 REVERT JUMPDEST JUMP JUMPDEST PUSH1 0x0 PUSH2 0x3000 PUSH2 0x2C58 JUMP JUMPDEST PUSH1 0x0 ADD PUSH1 0x8 SWAP1 SLOAD SWAP1 PUSH2 0x100 EXP SWAP1 DIV PUSH1 0xFF AND SWAP1 POP SWAP1 JUMP JUMPDEST PUSH1 0x60 DUP3 PUSH2 0x302B JUMPI PUSH2 0x3026 DUP3 PUSH2 0x30A5 JUMP JUMPDEST PUSH2 0x309D JUMP JUMPDEST PUSH1 0x0 DUP3 MLOAD EQ DUP1 ISZERO PUSH2 0x3053 JUMPI POP PUSH1 0x0 DUP5 PUSH20 0xFFFFFFFFFFFFFFFFFFFFFFFFFFFFFFFFFFFFFFFF AND EXTCODESIZE EQ JUMPDEST ISZERO PUSH2 0x3095 JUMPI DUP4 PUSH1 0x40 MLOAD PUSH32 0x9996B31500000000000000000000000000000000000000000000000000000000 DUP2 MSTORE PUSH1 0x4 ADD PUSH2 0x308C SWAP2 SWAP1 PUSH2 0x4018 JUMP JUMPDEST PUSH1 0x40 MLOAD DUP1 SWAP2 SUB SWAP1 REVERT JUMPDEST DUP2 SWAP1 POP PUSH2 0x309E JUMP JUMPDEST JUMPDEST SWAP4 SWAP3 POP POP POP JUMP JUMPDEST PUSH1 0x0 DUP2 MLOAD GT ISZERO PUSH2 0x30B8 JUMPI DUP1 MLOAD DUP1 DUP3 PUSH1 0x20 ADD REVERT JUMPDEST PUSH1 0x40 MLOAD PUSH32 0x1425EA4200000000000000000000000000000000000000000000000000000000 DUP2 MSTORE PUSH1 0x4 ADD PUSH1 0x40 MLOAD DUP1 SWAP2 SUB SWAP1 REVERT JUMPDEST PUSH1 0x40 MLOAD DUP1 PUSH2 0x140 ADD PUSH1 0x40 MSTORE DUP1 PUSH1 0x0 PUSH1 0x4 DUP2 GT ISZERO PUSH2 0x310A JUMPI PUSH2 0x3109 PUSH2 0x34BA JUMP JUMPDEST JUMPDEST DUP2 MSTORE PUSH1 0x20 ADD PUSH1 0x0 DUP1 NOT AND DUP2 MSTORE PUSH1 0x20 ADD PUSH2 0x3121 PUSH2 0x3207 JUMP JUMPDEST DUP2 MSTORE PUSH1 0x20 ADD PUSH1 0x0 DUP1 NOT AND DUP2 MSTORE PUSH1 0x20 ADD PUSH1 0x60 DUP2 MSTORE PUSH1 0x20 ADD PUSH1 0x0 DUP2 MSTORE PUSH1 0x20 ADD PUSH1 0x0 DUP2 MSTORE PUSH1 0x20 ADD PUSH1 0x60 DUP2 MSTORE PUSH1 0x20 ADD PUSH2 0x3154 PUSH2 0x3229 JUMP JUMPDEST DUP2 MSTORE PUSH1 0x20 ADD PUSH2 0x3161 PUSH2 0x327D JUMP JUMPDEST DUP2 MSTORE POP SWAP1 JUMP JUMPDEST DUP3 DUP1 SLOAD DUP3 DUP3 SSTORE SWAP1 PUSH1 0x0 MSTORE PUSH1 0x20 PUSH1 0x0 KECCAK256 SWAP1 DUP2 ADD SWAP3 DUP3 ISZERO PUSH2 0x31B6 JUMPI SWAP2 PUSH1 0x20 MUL DUP3 ADD JUMPDEST DUP3 DUP2 GT ISZERO PUSH2 0x31B5 JUMPI DUP3 MLOAD DUP3 SWAP1 DUP1 MLOAD SWAP1 PUSH1 0x20 ADD SWAP1 PUSH2 0x31A5 SWAP3 SWAP2 SWAP1 PUSH2 0x32BA JUMP JUMPDEST POP SWAP2 PUSH1 0x20 ADD SWAP2 SWAP1 PUSH1 0x1 ADD SWAP1 PUSH2 0x3187 JUMP JUMPDEST JUMPDEST POP SWAP1 POP PUSH2 0x31C3 SWAP2 SWAP1 PUSH2 0x3307 JUMP JUMPDEST POP SWAP1 JUMP JUMPDEST DUP3 PUSH1 0x2 DUP2 ADD SWAP3 DUP3 ISZERO PUSH2 0x31F6 JUMPI SWAP2 PUSH1 0x20 MUL DUP3 ADD JUMPDEST DUP3 DUP2 GT ISZERO PUSH2 0x31F5 JUMPI DUP3 MLOAD DUP3 SSTORE SWAP2 PUSH1 0x20 ADD SWAP2 SWAP1 PUSH1 0x1 ADD SWAP1 PUSH2 0x31DA JUMP JUMPDEST JUMPDEST POP SWAP1 POP PUSH2 0x3203 SWAP2 SWAP1 PUSH2 0x332B JUMP JUMPDEST POP SWAP1 JUMP JUMPDEST PUSH1 0x40 MLOAD DUP1 PUSH1 0x40 ADD PUSH1 0x40 MSTORE DUP1 PUSH1 0x2 SWAP1 PUSH1 0x20 DUP3 MUL DUP1 CALLDATASIZE DUP4 CALLDATACOPY DUP1 DUP3 ADD SWAP2 POP POP SWAP1 POP POP SWAP1 JUMP JUMPDEST PUSH1 0x40 MLOAD DUP1 PUSH1 0xC0 ADD PUSH1 0x40 MSTORE DUP1 PUSH1 0x0 PUSH1 0xFF AND DUP2 MSTORE PUSH1 0x20 ADD PUSH1 0x0 PUSH1 0xFF AND DUP2 MSTORE PUSH1 0x20 ADD PUSH1 0x0 DUP2 MSTORE PUSH1 0x20 ADD PUSH1 0x0 DUP2 MSTORE PUSH1 0x20 ADD PUSH1 0x0 PUSH1 0x4 DUP2 GT ISZERO PUSH2 0x326A JUMPI PUSH2 0x3269 PUSH2 0x34BA JUMP JUMPDEST JUMPDEST DUP2 MSTORE PUSH1 0x20 ADD PUSH2 0x3277 PUSH2 0x3348 JUMP JUMPDEST DUP2 MSTORE POP SWAP1 JUMP JUMPDEST PUSH1 0x40 MLOAD DUP1 PUSH1 0x80 ADD PUSH1 0x40 MSTORE DUP1 PUSH1 0x0 PUSH1 0x9 DUP2 GT ISZERO PUSH2 0x329C JUMPI PUSH2 0x329B PUSH2 0x34BA JUMP JUMPDEST JUMPDEST DUP2 MSTORE PUSH1 0x20 ADD PUSH1 0x0 DUP2 MSTORE PUSH1 0x20 ADD PUSH1 0x0 DUP1 NOT AND DUP2 MSTORE PUSH1 0x20 ADD PUSH1 0x60 DUP2 MSTORE POP SWAP1 JUMP JUMPDEST DUP3 DUP1 SLOAD DUP3 DUP3 SSTORE SWAP1 PUSH1 0x0 MSTORE PUSH1 0x20 PUSH1 0x0 KECCAK256 SWAP1 DUP2 ADD SWAP3 DUP3 ISZERO PUSH2 0x32F6 JUMPI SWAP2 PUSH1 0x20 MUL DUP3 ADD JUMPDEST DUP3 DUP2 GT ISZERO PUSH2 0x32F5 JUMPI DUP3 MLOAD DUP3 SSTORE SWAP2 PUSH1 0x20 ADD SWAP2 SWAP1 PUSH1 0x1 ADD SWAP1 PUSH2 0x32DA JUMP JUMPDEST JUMPDEST POP SWAP1 POP PUSH2 0x3303 SWAP2 SWAP1 PUSH2 0x338F JUMP JUMPDEST POP SWAP1 JUMP JUMPDEST JUMPDEST DUP1 DUP3 GT ISZERO PUSH2 0x3327 JUMPI PUSH1 0x0 DUP2 DUP2 PUSH2 0x331E SWAP2 SWAP1 PUSH2 0x33AC JUMP JUMPDEST POP PUSH1 0x1 ADD PUSH2 0x3308 JUMP JUMPDEST POP SWAP1 JUMP JUMPDEST JUMPDEST DUP1 DUP3 GT ISZERO PUSH2 0x3344 JUMPI PUSH1 0x0 DUP2 PUSH1 0x0 SWAP1 SSTORE POP PUSH1 0x1 ADD PUSH2 0x332C JUMP JUMPDEST POP SWAP1 JUMP JUMPDEST PUSH1 0x40 MLOAD DUP1 PUSH2 0x100 ADD PUSH1 0x40 MSTORE DUP1 PUSH1 0x0 ISZERO ISZERO DUP2 MSTORE PUSH1 0x20 ADD PUSH1 0x0 DUP2 MSTORE PUSH1 0x20 ADD PUSH1 0x0 DUP2 MSTORE PUSH1 0x20 ADD PUSH1 0x0 DUP2 MSTORE PUSH1 0x20 ADD PUSH1 0x0 DUP2 MSTORE PUSH1 0x20 ADD PUSH1 0x0 DUP2 MSTORE PUSH1 0x20 ADD PUSH1 0x0 DUP2 MSTORE PUSH1 0x20 ADD PUSH1 0x0 DUP2 MSTORE POP SWAP1 JUMP JUMPDEST JUMPDEST DUP1 DUP3 GT ISZERO PUSH2 0x33A8 JUMPI PUSH1 0x0 DUP2 PUSH1 0x0 SWAP1 SSTORE POP PUSH1 0x1 ADD PUSH2 0x3390 JUMP JUMPDEST POP SWAP1 JUMP JUMPDEST POP DUP1 SLOAD PUSH1 0x0 DUP3 SSTORE SWAP1 PUSH1 0x0 MSTORE PUSH1 0x20 PUSH1 0x0 KECCAK256 SWAP1 DUP2 ADD SWAP1 PUSH2 0x33CA SWAP2 SWAP1 PUSH2 0x338F JUMP JUMPDEST POP JUMP JUMPDEST PUSH1 0x0 PUSH1 0x40 MLOAD SWAP1 POP SWAP1 JUMP JUMPDEST PUSH1 0x0 DUP1 REVERT JUMPDEST PUSH1 0x0 DUP1 REVERT JUMPDEST PUSH1 0x0 DUP2 SWAP1 POP SWAP2 SWAP1 POP JUMP JUMPDEST PUSH2 0x33F4 DUP2 PUSH2 0x33E1 JUMP JUMPDEST DUP2 EQ PUSH2 0x33FF JUMPI PUSH1 0x0 DUP1 REVERT JUMPDEST POP JUMP JUMPDEST PUSH1 0x0 DUP2 CALLDATALOAD SWAP1 POP PUSH2 0x3411 DUP2 PUSH2 0x33EB JUMP JUMPDEST SWAP3 SWAP2 POP POP JUMP JUMPDEST PUSH1 0x0 DUP2 SWAP1 POP SWAP2 SWAP1 POP JUMP JUMPDEST PUSH2 0x342A DUP2 PUSH2 0x3417 JUMP JUMPDEST DUP2 EQ PUSH2 0x3435 JUMPI PUSH1 0x0 DUP1 REVERT JUMPDEST POP JUMP JUMPDEST PUSH1 0x0 DUP2 CALLDATALOAD SWAP1 POP PUSH2 0x3447 DUP2 PUSH2 0x3421 JUMP JUMPDEST SWAP3 SWAP2 POP POP JUMP JUMPDEST PUSH1 0x0 DUP1 PUSH1 0x40 DUP4 DUP6 SUB SLT ISZERO PUSH2 0x3464 JUMPI PUSH2 0x3463 PUSH2 0x33D7 JUMP JUMPDEST JUMPDEST PUSH1 0x0 PUSH2 0x3472 DUP6 DUP3 DUP7 ADD PUSH2 0x3402 JUMP JUMPDEST SWAP3 POP POP PUSH1 0x20 PUSH2 0x3483 DUP6 DUP3 DUP7 ADD PUSH2 0x3438 JUMP JUMPDEST SWAP2 POP POP SWAP3 POP SWAP3 SWAP1 POP JUMP JUMPDEST PUSH1 0x0 PUSH1 0x20 DUP3 DUP5 SUB SLT ISZERO PUSH2 0x34A3 JUMPI PUSH2 0x34A2 PUSH2 0x33D7 JUMP JUMPDEST JUMPDEST PUSH1 0x0 PUSH2 0x34B1 DUP5 DUP3 DUP6 ADD PUSH2 0x3402 JUMP JUMPDEST SWAP2 POP POP SWAP3 SWAP2 POP POP JUMP JUMPDEST PUSH32 0x4E487B7100000000000000000000000000000000000000000000000000000000 PUSH1 0x0 MSTORE PUSH1 0x21 PUSH1 0x4 MSTORE PUSH1 0x24 PUSH1 0x0 REVERT JUMPDEST PUSH1 0x5 DUP2 LT PUSH2 0x34FA JUMPI PUSH2 0x34F9 PUSH2 0x34BA JUMP JUMPDEST JUMPDEST POP JUMP JUMPDEST PUSH1 0x0 DUP2 SWAP1 POP PUSH2 0x350B DUP3 PUSH2 0x34E9 JUMP JUMPDEST SWAP2 SWAP1 POP JUMP JUMPDEST PUSH1 0x0 PUSH2 0x351B DUP3 PUSH2 0x34FD JUMP JUMPDEST SWAP1 POP SWAP2 SWAP1 POP JUMP JUMPDEST PUSH2 0x352B DUP2 PUSH2 0x3510 JUMP JUMPDEST DUP3 MSTORE POP POP JUMP JUMPDEST PUSH2 0x353A DUP2 PUSH2 0x33E1 JUMP JUMPDEST DUP3 MSTORE POP POP JUMP JUMPDEST PUSH2 0x3549 DUP2 PUSH2 0x3417 JUMP JUMPDEST DUP3 MSTORE POP POP JUMP JUMPDEST PUSH1 0x0 DUP2 MLOAD SWAP1 POP SWAP2 SWAP1 POP JUMP JUMPDEST PUSH1 0x0 DUP3 DUP3 MSTORE PUSH1 0x20 DUP3 ADD SWAP1 POP SWAP3 SWAP2 POP POP JUMP JUMPDEST PUSH1 0x0 JUMPDEST DUP4 DUP2 LT ISZERO PUSH2 0x3589 JUMPI DUP1 DUP3 ADD MLOAD DUP2 DUP5 ADD MSTORE PUSH1 0x20 DUP2 ADD SWAP1 POP PUSH2 0x356E JUMP JUMPDEST PUSH1 0x0 DUP5 DUP5 ADD MSTORE POP POP POP POP JUMP JUMPDEST PUSH1 0x0 PUSH1 0x1F NOT PUSH1 0x1F DUP4 ADD AND SWAP1 POP SWAP2 SWAP1 POP JUMP JUMPDEST PUSH1 0x0 PUSH2 0x35B1 DUP3 PUSH2 0x354F JUMP JUMPDEST PUSH2 0x35BB DUP2 DUP6 PUSH2 0x355A JUMP JUMPDEST SWAP4 POP PUSH2 0x35CB DUP2 DUP6 PUSH1 0x20 DUP7 ADD PUSH2 0x356B JUMP JUMPDEST PUSH2 0x35D4 DUP2 PUSH2 0x3595 JUMP JUMPDEST DUP5 ADD SWAP2 POP POP SWAP3 SWAP2 POP POP JUMP JUMPDEST PUSH1 0x0 PUSH1 0xFF DUP3 AND SWAP1 POP SWAP2 SWAP1 POP JUMP JUMPDEST PUSH2 0x35F5 DUP2 PUSH2 0x35DF JUMP JUMPDEST DUP3 MSTORE POP POP JUMP JUMPDEST PUSH2 0x3604 DUP2 PUSH2 0x3417 JUMP JUMPDEST DUP3 MSTORE POP POP JUMP JUMPDEST PUSH2 0x3613 DUP2 PUSH2 0x3510 JUMP JUMPDEST DUP3 MSTORE POP POP JUMP JUMPDEST PUSH1 0x0 DUP2 ISZERO ISZERO SWAP1 POP SWAP2 SWAP1 POP JUMP JUMPDEST PUSH2 0x362E DUP2 PUSH2 0x3619 JUMP JUMPDEST DUP3 MSTORE POP POP JUMP JUMPDEST PUSH2 0x100 DUP3 ADD PUSH1 0x0 DUP3 ADD MLOAD PUSH2 0x364B PUSH1 0x0 DUP6 ADD DUP3 PUSH2 0x3625 JUMP JUMPDEST POP PUSH1 0x20 DUP3 ADD MLOAD PUSH2 0x365E PUSH1 0x20 DUP6 ADD DUP3 PUSH2 0x35FB JUMP JUMPDEST POP PUSH1 0x40 DUP3 ADD MLOAD PUSH2 0x3671 PUSH1 0x40 DUP6 ADD DUP3 PUSH2 0x35FB JUMP JUMPDEST POP PUSH1 0x60 DUP3 ADD MLOAD PUSH2 0x3684 PUSH1 0x60 DUP6 ADD DUP3 PUSH2 0x35FB JUMP JUMPDEST POP PUSH1 0x80 DUP3 ADD MLOAD PUSH2 0x3697 PUSH1 0x80 DUP6 ADD DUP3 PUSH2 0x35FB JUMP JUMPDEST POP PUSH1 0xA0 DUP3 ADD MLOAD PUSH2 0x36AA PUSH1 0xA0 DUP6 ADD DUP3 PUSH2 0x35FB JUMP JUMPDEST POP PUSH1 0xC0 DUP3 ADD MLOAD PUSH2 0x36BD PUSH1 0xC0 DUP6 ADD DUP3 PUSH2 0x35FB JUMP JUMPDEST POP PUSH1 0xE0 DUP3 ADD MLOAD PUSH2 0x36D0 PUSH1 0xE0 DUP6 ADD DUP3 PUSH2 0x35FB JUMP JUMPDEST POP POP POP POP JUMP JUMPDEST PUSH2 0x1A0 DUP3 ADD PUSH1 0x0 DUP3 ADD MLOAD PUSH2 0x36ED PUSH1 0x0 DUP6 ADD DUP3 PUSH2 0x35EC JUMP JUMPDEST POP PUSH1 0x20 DUP3 ADD MLOAD PUSH2 0x3700 PUSH1 0x20 DUP6 ADD DUP3 PUSH2 0x35EC JUMP JUMPDEST POP PUSH1 0x40 DUP3 ADD MLOAD PUSH2 0x3713 PUSH1 0x40 DUP6 ADD DUP3 PUSH2 0x35FB JUMP JUMPDEST POP PUSH1 0x60 DUP3 ADD MLOAD PUSH2 0x3726 PUSH1 0x60 DUP6 ADD DUP3 PUSH2 0x35FB JUMP JUMPDEST POP PUSH1 0x80 DUP3 ADD MLOAD PUSH2 0x3739 PUSH1 0x80 DUP6 ADD DUP3 PUSH2 0x360A JUMP JUMPDEST POP PUSH1 0xA0 DUP3 ADD MLOAD PUSH2 0x374C PUSH1 0xA0 DUP6 ADD DUP3 PUSH2 0x3634 JUMP JUMPDEST POP POP POP POP JUMP JUMPDEST PUSH1 0xA DUP2 LT PUSH2 0x3763 JUMPI PUSH2 0x3762 PUSH2 0x34BA JUMP JUMPDEST JUMPDEST POP JUMP JUMPDEST PUSH1 0x0 DUP2 SWAP1 POP PUSH2 0x3774 DUP3 PUSH2 0x3752 JUMP JUMPDEST SWAP2 SWAP1 POP JUMP JUMPDEST PUSH1 0x0 PUSH2 0x3784 DUP3 PUSH2 0x3766 JUMP JUMPDEST SWAP1 POP SWAP2 SWAP1 POP JUMP JUMPDEST PUSH2 0x3794 DUP2 PUSH2 0x3779 JUMP JUMPDEST DUP3 MSTORE POP POP JUMP JUMPDEST PUSH2 0x37A3 DUP2 PUSH2 0x33E1 JUMP JUMPDEST DUP3 MSTORE POP POP JUMP JUMPDEST PUSH1 0x0 DUP3 DUP3 MSTORE PUSH1 0x20 DUP3 ADD SWAP1 POP SWAP3 SWAP2 POP POP JUMP JUMPDEST PUSH1 0x0 PUSH2 0x37C5 DUP3 PUSH2 0x354F JUMP JUMPDEST PUSH2 0x37CF DUP2 DUP6 PUSH2 0x37A9 JUMP JUMPDEST SWAP4 POP PUSH2 0x37DF DUP2 DUP6 PUSH1 0x20 DUP7 ADD PUSH2 0x356B JUMP JUMPDEST PUSH2 0x37E8 DUP2 PUSH2 0x3595 JUMP JUMPDEST DUP5 ADD SWAP2 POP POP SWAP3 SWAP2 POP POP JUMP JUMPDEST PUSH1 0x0 PUSH1 0x80 DUP4 ADD PUSH1 0x0 DUP4 ADD MLOAD PUSH2 0x380B PUSH1 0x0 DUP7 ADD DUP3 PUSH2 0x378B JUMP JUMPDEST POP PUSH1 0x20 DUP4 ADD MLOAD PUSH2 0x381E PUSH1 0x20 DUP7 ADD DUP3 PUSH2 0x35FB JUMP JUMPDEST POP PUSH1 0x40 DUP4 ADD MLOAD PUSH2 0x3831 PUSH1 0x40 DUP7 ADD DUP3 PUSH2 0x379A JUMP JUMPDEST POP PUSH1 0x60 DUP4 ADD MLOAD DUP5 DUP3 SUB PUSH1 0x60 DUP7 ADD MSTORE PUSH2 0x3849 DUP3 DUP3 PUSH2 0x37BA JUMP JUMPDEST SWAP2 POP POP DUP1 SWAP2 POP POP SWAP3 SWAP2 POP POP JUMP JUMPDEST PUSH1 0x0 PUSH2 0x280 DUP3 ADD SWAP1 POP PUSH2 0x386C PUSH1 0x0 DUP4 ADD DUP12 PUSH2 0x3522 JUMP JUMPDEST PUSH2 0x3879 PUSH1 0x20 DUP4 ADD DUP11 PUSH2 0x3531 JUMP JUMPDEST PUSH2 0x3886 PUSH1 0x40 DUP4 ADD DUP10 PUSH2 0x3531 JUMP JUMPDEST PUSH2 0x3893 PUSH1 0x60 DUP4 ADD DUP9 PUSH2 0x3540 JUMP JUMPDEST PUSH2 0x38A0 PUSH1 0x80 DUP4 ADD DUP8 PUSH2 0x3540 JUMP JUMPDEST DUP2 DUP2 SUB PUSH1 0xA0 DUP4 ADD MSTORE PUSH2 0x38B2 DUP2 DUP7 PUSH2 0x35A6 JUMP JUMPDEST SWAP1 POP PUSH2 0x38C1 PUSH1 0xC0 DUP4 ADD DUP6 PUSH2 0x36D6 JUMP JUMPDEST DUP2 DUP2 SUB PUSH2 0x260 DUP4 ADD MSTORE PUSH2 0x38D4 DUP2 DUP5 PUSH2 0x37F3 JUMP JUMPDEST SWAP1 POP SWAP10 SWAP9 POP POP POP POP POP POP POP POP POP JUMP JUMPDEST PUSH1 0x0 PUSH1 0x2 SWAP1 POP SWAP2 SWAP1 POP JUMP JUMPDEST PUSH1 0x0 DUP2 SWAP1 POP SWAP3 SWAP2 POP POP JUMP JUMPDEST PUSH1 0x0 DUP2 SWAP1 POP SWAP2 SWAP1 POP JUMP JUMPDEST PUSH1 0x0 PUSH2 0x390F DUP4 DUP4 PUSH2 0x379A JUMP JUMPDEST PUSH1 0x20 DUP4 ADD SWAP1 POP SWAP3 SWAP2 POP POP JUMP JUMPDEST PUSH1 0x0 PUSH1 0x20 DUP3 ADD SWAP1 POP SWAP2 SWAP1 POP JUMP JUMPDEST PUSH2 0x3931 DUP2 PUSH2 0x38E3 JUMP JUMPDEST PUSH2 0x393B DUP2 DUP5 PUSH2 0x38EE JUMP JUMPDEST SWAP3 POP PUSH2 0x3946 DUP3 PUSH2 0x38F9 JUMP JUMPDEST DUP1 PUSH1 0x0 JUMPDEST DUP4 DUP2 LT ISZERO PUSH2 0x3977 JUMPI DUP2 MLOAD PUSH2 0x395E DUP8 DUP3 PUSH2 0x3903 JUMP JUMPDEST SWAP7 POP PUSH2 0x3969 DUP4 PUSH2 0x391B JUMP JUMPDEST SWAP3 POP POP PUSH1 0x1 DUP2 ADD SWAP1 POP PUSH2 0x394A JUMP JUMPDEST POP POP POP POP POP POP JUMP JUMPDEST PUSH1 0x0 DUP2 MLOAD SWAP1 POP SWAP2 SWAP1 POP JUMP JUMPDEST PUSH1 0x0 DUP3 DUP3 MSTORE PUSH1 0x20 DUP3 ADD SWAP1 POP SWAP3 SWAP2 POP POP JUMP JUMPDEST PUSH1 0x0 DUP2 SWAP1 POP PUSH1 0x20 DUP3 ADD SWAP1 POP SWAP2 SWAP1 POP JUMP JUMPDEST PUSH1 0x0 DUP2 MLOAD SWAP1 POP SWAP2 SWAP1 POP JUMP JUMPDEST PUSH1 0x0 DUP3 DUP3 MSTORE PUSH1 0x20 DUP3 ADD SWAP1 POP SWAP3 SWAP2 POP POP JUMP JUMPDEST PUSH1 0x0 DUP2 SWAP1 POP PUSH1 0x20 DUP3 ADD SWAP1 POP SWAP2 SWAP1 POP JUMP JUMPDEST PUSH1 0x0 PUSH2 0x39E3 DUP4 DUP4 PUSH2 0x35FB JUMP JUMPDEST PUSH1 0x20 DUP4 ADD SWAP1 POP SWAP3 SWAP2 POP POP JUMP JUMPDEST PUSH1 0x0 PUSH1 0x20 DUP3 ADD SWAP1 POP SWAP2 SWAP1 POP JUMP JUMPDEST PUSH1 0x0 PUSH2 0x3A07 DUP3 PUSH2 0x39AB JUMP JUMPDEST PUSH2 0x3A11 DUP2 DUP6 PUSH2 0x39B6 JUMP JUMPDEST SWAP4 POP PUSH2 0x3A1C DUP4 PUSH2 0x39C7 JUMP JUMPDEST DUP1 PUSH1 0x0 JUMPDEST DUP4 DUP2 LT ISZERO PUSH2 0x3A4D JUMPI DUP2 MLOAD PUSH2 0x3A34 DUP9 DUP3 PUSH2 0x39D7 JUMP JUMPDEST SWAP8 POP PUSH2 0x3A3F DUP4 PUSH2 0x39EF JUMP JUMPDEST SWAP3 POP POP PUSH1 0x1 DUP2 ADD SWAP1 POP PUSH2 0x3A20 JUMP JUMPDEST POP DUP6 SWAP4 POP POP POP POP SWAP3 SWAP2 POP POP JUMP JUMPDEST PUSH1 0x0 PUSH2 0x3A66 DUP4 DUP4 PUSH2 0x39FC JUMP JUMPDEST SWAP1 POP SWAP3 SWAP2 POP POP JUMP JUMPDEST PUSH1 0x0 PUSH1 0x20 DUP3 ADD SWAP1 POP SWAP2 SWAP1 POP JUMP JUMPDEST PUSH1 0x0 PUSH2 0x3A86 DUP3 PUSH2 0x397F JUMP JUMPDEST PUSH2 0x3A90 DUP2 DUP6 PUSH2 0x398A JUMP JUMPDEST SWAP4 POP DUP4 PUSH1 0x20 DUP3 MUL DUP6 ADD PUSH2 0x3AA2 DUP6 PUSH2 0x399B JUMP JUMPDEST DUP1 PUSH1 0x0 JUMPDEST DUP6 DUP2 LT ISZERO PUSH2 0x3ADE JUMPI DUP5 DUP5 SUB DUP10 MSTORE DUP2 MLOAD PUSH2 0x3ABF DUP6 DUP3 PUSH2 0x3A5A JUMP JUMPDEST SWAP5 POP PUSH2 0x3ACA DUP4 PUSH2 0x3A6E JUMP JUMPDEST SWAP3 POP PUSH1 0x20 DUP11 ADD SWAP10 POP POP PUSH1 0x1 DUP2 ADD SWAP1 POP PUSH2 0x3AA6 JUMP JUMPDEST POP DUP3 SWAP8 POP DUP8 SWAP6 POP POP POP POP POP POP SWAP3 SWAP2 POP POP JUMP JUMPDEST PUSH2 0x1A0 DUP3 ADD PUSH1 0x0 DUP3 ADD MLOAD PUSH2 0x3B07 PUSH1 0x0 DUP6 ADD DUP3 PUSH2 0x35EC JUMP JUMPDEST POP PUSH1 0x20 DUP3 ADD MLOAD PUSH2 0x3B1A PUSH1 0x20 DUP6 ADD DUP3 PUSH2 0x35EC JUMP JUMPDEST POP PUSH1 0x40 DUP3 ADD MLOAD PUSH2 0x3B2D PUSH1 0x40 DUP6 ADD DUP3 PUSH2 0x35FB JUMP JUMPDEST POP PUSH1 0x60 DUP3 ADD MLOAD PUSH2 0x3B40 PUSH1 0x60 DUP6 ADD DUP3 PUSH2 0x35FB JUMP JUMPDEST POP PUSH1 0x80 DUP3 ADD MLOAD PUSH2 0x3B53 PUSH1 0x80 DUP6 ADD DUP3 PUSH2 0x360A JUMP JUMPDEST POP PUSH1 0xA0 DUP3 ADD MLOAD PUSH2 0x3B66 PUSH1 0xA0 DUP6 ADD DUP3 PUSH2 0x3634 JUMP JUMPDEST POP POP POP POP JUMP JUMPDEST PUSH1 0x0 PUSH1 0x80 DUP4 ADD PUSH1 0x0 DUP4 ADD MLOAD PUSH2 0x3B84 PUSH1 0x0 DUP7 ADD DUP3 PUSH2 0x378B JUMP JUMPDEST POP PUSH1 0x20 DUP4 ADD MLOAD PUSH2 0x3B97 PUSH1 0x20 DUP7 ADD DUP3 PUSH2 0x35FB JUMP JUMPDEST POP PUSH1 0x40 DUP4 ADD MLOAD PUSH2 0x3BAA PUSH1 0x40 DUP7 ADD DUP3 PUSH2 0x379A JUMP JUMPDEST POP PUSH1 0x60 DUP4 ADD MLOAD DUP5 DUP3 SUB PUSH1 0x60 DUP7 ADD MSTORE PUSH2 0x3BC2 DUP3 DUP3 PUSH2 0x37BA JUMP JUMPDEST SWAP2 POP POP DUP1 SWAP2 POP POP SWAP3 SWAP2 POP POP JUMP JUMPDEST PUSH1 0x0 PUSH2 0x2E0 DUP4 ADD PUSH1 0x0 DUP4 ADD MLOAD PUSH2 0x3BE8 PUSH1 0x0 DUP7 ADD DUP3 PUSH2 0x360A JUMP JUMPDEST POP PUSH1 0x20 DUP4 ADD MLOAD PUSH2 0x3BFB PUSH1 0x20 DUP7 ADD DUP3 PUSH2 0x379A JUMP JUMPDEST POP PUSH1 0x40 DUP4 ADD MLOAD PUSH2 0x3C0E PUSH1 0x40 DUP7 ADD DUP3 PUSH2 0x3928 JUMP JUMPDEST POP PUSH1 0x60 DUP4 ADD MLOAD PUSH2 0x3C21 PUSH1 0x80 DUP7 ADD DUP3 PUSH2 0x379A JUMP JUMPDEST POP PUSH1 0x80 DUP4 ADD MLOAD DUP5 DUP3 SUB PUSH1 0xA0 DUP7 ADD MSTORE PUSH2 0x3C39 DUP3 DUP3 PUSH2 0x3A7B JUMP JUMPDEST SWAP2 POP POP PUSH1 0xA0 DUP4 ADD MLOAD PUSH2 0x3C4E PUSH1 0xC0 DUP7 ADD DUP3 PUSH2 0x35FB JUMP JUMPDEST POP PUSH1 0xC0 DUP4 ADD MLOAD PUSH2 0x3C61 PUSH1 0xE0 DUP7 ADD DUP3 PUSH2 0x35FB JUMP JUMPDEST POP PUSH1 0xE0 DUP4 ADD MLOAD DUP5 DUP3 SUB PUSH2 0x100 DUP7 ADD MSTORE PUSH2 0x3C7A DUP3 DUP3 PUSH2 0x37BA JUMP JUMPDEST SWAP2 POP POP PUSH2 0x100 DUP4 ADD MLOAD PUSH2 0x3C91 PUSH2 0x120 DUP7 ADD DUP3 PUSH2 0x3AF0 JUMP JUMPDEST POP PUSH2 0x120 DUP4 ADD MLOAD DUP5 DUP3 SUB PUSH2 0x2C0 DUP7 ADD MSTORE PUSH2 0x3CAB DUP3 DUP3 PUSH2 0x3B6C JUMP JUMPDEST SWAP2 POP POP DUP1 SWAP2 POP POP SWAP3 SWAP2 POP POP JUMP JUMPDEST PUSH1 0x0 PUSH1 0x20 DUP3 ADD SWAP1 POP DUP2 DUP2 SUB PUSH1 0x0 DUP4 ADD MSTORE PUSH2 0x3CD2 DUP2 DUP5 PUSH2 0x3BCF JUMP JUMPDEST SWAP1 POP SWAP3 SWAP2 POP POP JUMP JUMPDEST PUSH1 0x5 DUP2 LT PUSH2 0x3CE7 JUMPI PUSH1 0x0 DUP1 REVERT JUMPDEST POP JUMP JUMPDEST PUSH1 0x0 DUP2 CALLDATALOAD SWAP1 POP PUSH2 0x3CF9 DUP2 PUSH2 0x3CDA JUMP JUMPDEST SWAP3 SWAP2 POP POP JUMP JUMPDEST PUSH1 0x0 DUP1 PUSH1 0x40 DUP4 DUP6 SUB SLT ISZERO PUSH2 0x3D16 JUMPI PUSH2 0x3D15 PUSH2 0x33D7 JUMP JUMPDEST JUMPDEST PUSH1 0x0 PUSH2 0x3D24 DUP6 DUP3 DUP7 ADD PUSH2 0x3402 JUMP JUMPDEST SWAP3 POP POP PUSH1 0x20 PUSH2 0x3D35 DUP6 DUP3 DUP7 ADD PUSH2 0x3CEA JUMP JUMPDEST SWAP2 POP POP SWAP3 POP SWAP3 SWAP1 POP JUMP JUMPDEST PUSH1 0x0 PUSH20 0xFFFFFFFFFFFFFFFFFFFFFFFFFFFFFFFFFFFFFFFF DUP3 AND SWAP1 POP SWAP2 SWAP1 POP JUMP JUMPDEST PUSH1 0x0 PUSH2 0x3D6A DUP3 PUSH2 0x3D3F JUMP JUMPDEST SWAP1 POP SWAP2 SWAP1 POP JUMP JUMPDEST PUSH2 0x3D7A DUP2 PUSH2 0x3D5F JUMP JUMPDEST DUP2 EQ PUSH2 0x3D85 JUMPI PUSH1 0x0 DUP1 REVERT JUMPDEST POP JUMP JUMPDEST PUSH1 0x0 DUP2 CALLDATALOAD SWAP1 POP PUSH2 0x3D97 DUP2 PUSH2 0x3D71 JUMP JUMPDEST SWAP3 SWAP2 POP POP JUMP JUMPDEST PUSH1 0x0 DUP1 REVERT JUMPDEST PUSH1 0x0 DUP1 REVERT JUMPDEST PUSH32 0x4E487B7100000000000000000000000000000000000000000000000000000000 PUSH1 0x0 MSTORE PUSH1 0x41 PUSH1 0x4 MSTORE PUSH1 0x24 PUSH1 0x0 REVERT JUMPDEST PUSH2 0x3DDF DUP3 PUSH2 0x3595 JUMP JUMPDEST DUP2 ADD DUP2 DUP2 LT PUSH8 0xFFFFFFFFFFFFFFFF DUP3 GT OR ISZERO PUSH2 0x3DFE JUMPI PUSH2 0x3DFD PUSH2 0x3DA7 JUMP JUMPDEST JUMPDEST DUP1 PUSH1 0x40 MSTORE POP POP POP JUMP JUMPDEST PUSH1 0x0 PUSH2 0x3E11 PUSH2 0x33CD JUMP JUMPDEST SWAP1 POP PUSH2 0x3E1D DUP3 DUP3 PUSH2 0x3DD6 JUMP JUMPDEST SWAP2 SWAP1 POP JUMP JUMPDEST PUSH1 0x0 PUSH8 0xFFFFFFFFFFFFFFFF DUP3 GT ISZERO PUSH2 0x3E3D JUMPI PUSH2 0x3E3C PUSH2 0x3DA7 JUMP JUMPDEST JUMPDEST PUSH2 0x3E46 DUP3 PUSH2 0x3595 JUMP JUMPDEST SWAP1 POP PUSH1 0x20 DUP2 ADD SWAP1 POP SWAP2 SWAP1 POP JUMP JUMPDEST DUP3 DUP2 DUP4 CALLDATACOPY PUSH1 0x0 DUP4 DUP4 ADD MSTORE POP POP POP JUMP JUMPDEST PUSH1 0x0 PUSH2 0x3E75 PUSH2 0x3E70 DUP5 PUSH2 0x3E22 JUMP JUMPDEST PUSH2 0x3E07 JUMP JUMPDEST SWAP1 POP DUP3 DUP2 MSTORE PUSH1 0x20 DUP2 ADD DUP5 DUP5 DUP5 ADD GT ISZERO PUSH2 0x3E91 JUMPI PUSH2 0x3E90 PUSH2 0x3DA2 JUMP JUMPDEST JUMPDEST PUSH2 0x3E9C DUP5 DUP3 DUP6 PUSH2 0x3E53 JUMP JUMPDEST POP SWAP4 SWAP3 POP POP POP JUMP JUMPDEST PUSH1 0x0 DUP3 PUSH1 0x1F DUP4 ADD SLT PUSH2 0x3EB9 JUMPI PUSH2 0x3EB8 PUSH2 0x3D9D JUMP JUMPDEST JUMPDEST DUP2 CALLDATALOAD PUSH2 0x3EC9 DUP5 DUP3 PUSH1 0x20 DUP7 ADD PUSH2 0x3E62 JUMP JUMPDEST SWAP2 POP POP SWAP3 SWAP2 POP POP JUMP JUMPDEST PUSH1 0x0 DUP1 PUSH1 0x40 DUP4 DUP6 SUB SLT ISZERO PUSH2 0x3EE9 JUMPI PUSH2 0x3EE8 PUSH2 0x33D7 JUMP JUMPDEST JUMPDEST PUSH1 0x0 PUSH2 0x3EF7 DUP6 DUP3 DUP7 ADD PUSH2 0x3D88 JUMP JUMPDEST SWAP3 POP POP PUSH1 0x20 DUP4 ADD CALLDATALOAD PUSH8 0xFFFFFFFFFFFFFFFF DUP2 GT ISZERO PUSH2 0x3F18 JUMPI PUSH2 0x3F17 PUSH2 0x33DC JUMP JUMPDEST JUMPDEST PUSH2 0x3F24 DUP6 DUP3 DUP7 ADD PUSH2 0x3EA4 JUMP JUMPDEST SWAP2 POP POP SWAP3 POP SWAP3 SWAP1 POP JUMP JUMPDEST PUSH1 0x0 PUSH1 0x20 DUP3 ADD SWAP1 POP PUSH2 0x3F43 PUSH1 0x0 DUP4 ADD DUP5 PUSH2 0x3531 JUMP JUMPDEST SWAP3 SWAP2 POP POP JUMP JUMPDEST PUSH1 0x0 DUP1 REVERT JUMPDEST PUSH1 0x0 DUP1 REVERT JUMPDEST PUSH1 0x0 DUP1 DUP4 PUSH1 0x1F DUP5 ADD SLT PUSH2 0x3F69 JUMPI PUSH2 0x3F68 PUSH2 0x3D9D JUMP JUMPDEST JUMPDEST DUP3 CALLDATALOAD SWAP1 POP PUSH8 0xFFFFFFFFFFFFFFFF DUP2 GT ISZERO PUSH2 0x3F86 JUMPI PUSH2 0x3F85 PUSH2 0x3F49 JUMP JUMPDEST JUMPDEST PUSH1 0x20 DUP4 ADD SWAP2 POP DUP4 PUSH1 0x1 DUP3 MUL DUP4 ADD GT ISZERO PUSH2 0x3FA2 JUMPI PUSH2 0x3FA1 PUSH2 0x3F4E JUMP JUMPDEST JUMPDEST SWAP3 POP SWAP3 SWAP1 POP JUMP JUMPDEST PUSH1 0x0 DUP1 PUSH1 0x0 PUSH1 0x40 DUP5 DUP7 SUB SLT ISZERO PUSH2 0x3FC2 JUMPI PUSH2 0x3FC1 PUSH2 0x33D7 JUMP JUMPDEST JUMPDEST PUSH1 0x0 DUP5 ADD CALLDATALOAD PUSH8 0xFFFFFFFFFFFFFFFF DUP2 GT ISZERO PUSH2 0x3FE0 JUMPI PUSH2 0x3FDF PUSH2 0x33DC JUMP JUMPDEST JUMPDEST PUSH2 0x3FEC DUP7 DUP3 DUP8 ADD PUSH2 0x3F53 JUMP JUMPDEST SWAP4 POP SWAP4 POP POP PUSH1 0x20 PUSH2 0x3FFF DUP7 DUP3 DUP8 ADD PUSH2 0x3D88 JUMP JUMPDEST SWAP2 POP POP SWAP3 POP SWAP3 POP SWAP3 JUMP JUMPDEST PUSH2 0x4012 DUP2 PUSH2 0x3D5F JUMP JUMPDEST DUP3 MSTORE POP POP JUMP JUMPDEST PUSH1 0x0 PUSH1 0x20 DUP3 ADD SWAP1 POP PUSH2 0x402D PUSH1 0x0 DUP4 ADD DUP5 PUSH2 0x4009 JUMP JUMPDEST SWAP3 SWAP2 POP POP JUMP JUMPDEST PUSH1 0x0 PUSH1 0x20 DUP3 ADD SWAP1 POP DUP2 DUP2 SUB PUSH1 0x0 DUP4 ADD MSTORE PUSH2 0x404D DUP2 DUP5 PUSH2 0x35A6 JUMP JUMPDEST SWAP1 POP SWAP3 SWAP2 POP POP JUMP JUMPDEST PUSH1 0x0 DUP1 DUP4 PUSH1 0x1F DUP5 ADD SLT PUSH2 0x406B JUMPI PUSH2 0x406A PUSH2 0x3D9D JUMP JUMPDEST JUMPDEST DUP3 CALLDATALOAD SWAP1 POP PUSH8 0xFFFFFFFFFFFFFFFF DUP2 GT ISZERO PUSH2 0x4088 JUMPI PUSH2 0x4087 PUSH2 0x3F49 JUMP JUMPDEST JUMPDEST PUSH1 0x20 DUP4 ADD SWAP2 POP DUP4 PUSH1 0x1 DUP3 MUL DUP4 ADD GT ISZERO PUSH2 0x40A4 JUMPI PUSH2 0x40A3 PUSH2 0x3F4E JUMP JUMPDEST JUMPDEST SWAP3 POP SWAP3 SWAP1 POP JUMP JUMPDEST PUSH1 0x0 DUP1 PUSH1 0x0 DUP1 PUSH1 0x0 PUSH1 0x80 DUP7 DUP9 SUB SLT ISZERO PUSH2 0x40C7 JUMPI PUSH2 0x40C6 PUSH2 0x33D7 JUMP JUMPDEST JUMPDEST PUSH1 0x0 PUSH2 0x40D5 DUP9 DUP3 DUP10 ADD PUSH2 0x3402 JUMP JUMPDEST SWAP6 POP POP PUSH1 0x20 PUSH2 0x40E6 DUP9 DUP3 DUP10 ADD PUSH2 0x3402 JUMP JUMPDEST SWAP5 POP POP PUSH1 0x40 PUSH2 0x40F7 DUP9 DUP3 DUP10 ADD PUSH2 0x3402 JUMP JUMPDEST SWAP4 POP POP PUSH1 0x60 DUP7 ADD CALLDATALOAD PUSH8 0xFFFFFFFFFFFFFFFF DUP2 GT ISZERO PUSH2 0x4118 JUMPI PUSH2 0x4117 PUSH2 0x33DC JUMP JUMPDEST JUMPDEST PUSH2 0x4124 DUP9 DUP3 DUP10 ADD PUSH2 0x4055 JUMP JUMPDEST SWAP3 POP SWAP3 POP POP SWAP3 SWAP6 POP SWAP3 SWAP6 SWAP1 SWAP4 POP JUMP JUMPDEST PUSH1 0x0 PUSH8 0xFFFFFFFFFFFFFFFF DUP3 GT ISZERO PUSH2 0x414E JUMPI PUSH2 0x414D PUSH2 0x3DA7 JUMP JUMPDEST JUMPDEST PUSH1 0x20 DUP3 MUL SWAP1 POP PUSH1 0x20 DUP2 ADD SWAP1 POP SWAP2 SWAP1 POP JUMP JUMPDEST PUSH1 0x0 PUSH8 0xFFFFFFFFFFFFFFFF DUP3 GT ISZERO PUSH2 0x417A JUMPI PUSH2 0x4179 PUSH2 0x3DA7 JUMP JUMPDEST JUMPDEST PUSH1 0x20 DUP3 MUL SWAP1 POP PUSH1 0x20 DUP2 ADD SWAP1 POP SWAP2 SWAP1 POP JUMP JUMPDEST PUSH1 0x0 PUSH2 0x419E PUSH2 0x4199 DUP5 PUSH2 0x415F JUMP JUMPDEST PUSH2 0x3E07 JUMP JUMPDEST SWAP1 POP DUP1 DUP4 DUP3 MSTORE PUSH1 0x20 DUP3 ADD SWAP1 POP PUSH1 0x20 DUP5 MUL DUP4 ADD DUP6 DUP2 GT ISZERO PUSH2 0x41C1 JUMPI PUSH2 0x41C0 PUSH2 0x3F4E JUMP JUMPDEST JUMPDEST DUP4 JUMPDEST DUP2 DUP2 LT ISZERO PUSH2 0x41EA JUMPI DUP1 PUSH2 0x41D6 DUP9 DUP3 PUSH2 0x3438 JUMP JUMPDEST DUP5 MSTORE PUSH1 0x20 DUP5 ADD SWAP4 POP POP PUSH1 0x20 DUP2 ADD SWAP1 POP PUSH2 0x41C3 JUMP JUMPDEST POP POP POP SWAP4 SWAP3 POP POP POP JUMP JUMPDEST PUSH1 0x0 DUP3 PUSH1 0x1F DUP4 ADD SLT PUSH2 0x4209 JUMPI PUSH2 0x4208 PUSH2 0x3D9D JUMP JUMPDEST JUMPDEST DUP2 CALLDATALOAD PUSH2 0x4219 DUP5 DUP3 PUSH1 0x20 DUP7 ADD PUSH2 0x418B JUMP JUMPDEST SWAP2 POP POP SWAP3 SWAP2 POP POP JUMP JUMPDEST PUSH1 0x0 PUSH2 0x4235 PUSH2 0x4230 DUP5 PUSH2 0x4133 JUMP JUMPDEST PUSH2 0x3E07 JUMP JUMPDEST SWAP1 POP DUP1 DUP4 DUP3 MSTORE PUSH1 0x20 DUP3 ADD SWAP1 POP PUSH1 0x20 DUP5 MUL DUP4 ADD DUP6 DUP2 GT ISZERO PUSH2 0x4258 JUMPI PUSH2 0x4257 PUSH2 0x3F4E JUMP JUMPDEST JUMPDEST DUP4 JUMPDEST DUP2 DUP2 LT ISZERO PUSH2 0x429F JUMPI DUP1 CALLDATALOAD PUSH8 0xFFFFFFFFFFFFFFFF DUP2 GT ISZERO PUSH2 0x427D JUMPI PUSH2 0x427C PUSH2 0x3D9D JUMP JUMPDEST JUMPDEST DUP1 DUP7 ADD PUSH2 0x428A DUP10 DUP3 PUSH2 0x41F4 JUMP JUMPDEST DUP6 MSTORE PUSH1 0x20 DUP6 ADD SWAP5 POP POP POP PUSH1 0x20 DUP2 ADD SWAP1 POP PUSH2 0x425A JUMP JUMPDEST POP POP POP SWAP4 SWAP3 POP POP POP JUMP JUMPDEST PUSH1 0x0 DUP3 PUSH1 0x1F DUP4 ADD SLT PUSH2 0x42BE JUMPI PUSH2 0x42BD PUSH2 0x3D9D JUMP JUMPDEST JUMPDEST DUP2 CALLDATALOAD PUSH2 0x42CE DUP5 DUP3 PUSH1 0x20 DUP7 ADD PUSH2 0x4222 JUMP JUMPDEST SWAP2 POP POP SWAP3 SWAP2 POP POP JUMP JUMPDEST PUSH1 0x0 DUP1 PUSH1 0x0 DUP1 PUSH1 0x60 DUP6 DUP8 SUB SLT ISZERO PUSH2 0x42F1 JUMPI PUSH2 0x42F0 PUSH2 0x33D7 JUMP JUMPDEST JUMPDEST PUSH1 0x0 PUSH2 0x42FF DUP8 DUP3 DUP9 ADD PUSH2 0x3402 JUMP JUMPDEST SWAP5 POP POP PUSH1 0x20 DUP6 ADD CALLDATALOAD PUSH8 0xFFFFFFFFFFFFFFFF DUP2 GT ISZERO PUSH2 0x4320 JUMPI PUSH2 0x431F PUSH2 0x33DC JUMP JUMPDEST JUMPDEST PUSH2 0x432C DUP8 DUP3 DUP9 ADD PUSH2 0x42A9 JUMP JUMPDEST SWAP4 POP POP PUSH1 0x40 DUP6 ADD CALLDATALOAD PUSH8 0xFFFFFFFFFFFFFFFF DUP2 GT ISZERO PUSH2 0x434D JUMPI PUSH2 0x434C PUSH2 0x33DC JUMP JUMPDEST JUMPDEST PUSH2 0x4359 DUP8 DUP3 DUP9 ADD PUSH2 0x4055 JUMP JUMPDEST SWAP3 POP SWAP3 POP POP SWAP3 SWAP6 SWAP2 SWAP5 POP SWAP3 POP JUMP JUMPDEST PUSH1 0x0 DUP1 REVERT JUMPDEST PUSH1 0x0 PUSH1 0x80 DUP3 DUP5 SUB SLT ISZERO PUSH2 0x4382 JUMPI PUSH2 0x4381 PUSH2 0x4367 JUMP JUMPDEST JUMPDEST DUP2 SWAP1 POP SWAP3 SWAP2 POP POP JUMP JUMPDEST PUSH1 0x0 DUP1 PUSH1 0x40 DUP4 DUP6 SUB SLT ISZERO PUSH2 0x43A2 JUMPI PUSH2 0x43A1 PUSH2 0x33D7 JUMP JUMPDEST JUMPDEST PUSH1 0x0 PUSH2 0x43B0 DUP6 DUP3 DUP7 ADD PUSH2 0x3402 JUMP JUMPDEST SWAP3 POP POP PUSH1 0x20 DUP4 ADD CALLDATALOAD PUSH8 0xFFFFFFFFFFFFFFFF DUP2 GT ISZERO PUSH2 0x43D1 JUMPI PUSH2 0x43D0 PUSH2 0x33DC JUMP JUMPDEST JUMPDEST PUSH2 0x43DD DUP6 DUP3 DUP7 ADD PUSH2 0x436C JUMP JUMPDEST SWAP2 POP POP SWAP3 POP SWAP3 SWAP1 POP JUMP JUMPDEST PUSH1 0x0 PUSH2 0x1A0 DUP3 DUP5 SUB SLT ISZERO PUSH2 0x43FE JUMPI PUSH2 0x43FD PUSH2 0x4367 JUMP JUMPDEST JUMPDEST DUP2 SWAP1 POP SWAP3 SWAP2 POP POP JUMP JUMPDEST PUSH1 0x0 DUP1 PUSH1 0x0 DUP1 PUSH1 0x0 DUP1 PUSH1 0x0 DUP1 PUSH2 0x260 DUP10 DUP12 SUB SLT ISZERO PUSH2 0x4428 JUMPI PUSH2 0x4427 PUSH2 0x33D7 JUMP JUMPDEST JUMPDEST PUSH1 0x0 PUSH2 0x4436 DUP12 DUP3 DUP13 ADD PUSH2 0x43E7 JUMP JUMPDEST SWAP9 POP POP PUSH2 0x1A0 DUP10 ADD CALLDATALOAD PUSH8 0xFFFFFFFFFFFFFFFF DUP2 GT ISZERO PUSH2 0x4458 JUMPI PUSH2 0x4457 PUSH2 0x33DC JUMP JUMPDEST JUMPDEST PUSH2 0x4464 DUP12 DUP3 DUP13 ADD PUSH2 0x436C JUMP JUMPDEST SWAP8 POP POP PUSH2 0x1C0 DUP10 ADD CALLDATALOAD PUSH8 0xFFFFFFFFFFFFFFFF DUP2 GT ISZERO PUSH2 0x4486 JUMPI PUSH2 0x4485 PUSH2 0x33DC JUMP JUMPDEST JUMPDEST PUSH2 0x4492 DUP12 DUP3 DUP13 ADD PUSH2 0x3F53 JUMP JUMPDEST SWAP7 POP SWAP7 POP POP PUSH2 0x1E0 PUSH2 0x44A6 DUP12 DUP3 DUP13 ADD PUSH2 0x3402 JUMP JUMPDEST SWAP5 POP POP PUSH2 0x200 PUSH2 0x44B8 DUP12 DUP3 DUP13 ADD PUSH2 0x3402 JUMP JUMPDEST SWAP4 POP POP PUSH2 0x220 PUSH2 0x44CA DUP12 DUP3 DUP13 ADD PUSH2 0x3402 JUMP JUMPDEST SWAP3 POP POP PUSH2 0x240 PUSH2 0x44DC DUP12 DUP3 DUP13 ADD PUSH2 0x3402 JUMP JUMPDEST SWAP2 POP POP SWAP3 SWAP6 SWAP9 POP SWAP3 SWAP6 SWAP9 SWAP1 SWAP4 SWAP7 POP JUMP JUMPDEST PUSH1 0x0 PUSH4 0xFFFFFFFF DUP3 AND SWAP1 POP SWAP2 SWAP1 POP JUMP JUMPDEST PUSH2 0x4505 DUP2 PUSH2 0x44EC JUMP JUMPDEST DUP3 MSTORE POP POP JUMP JUMPDEST PUSH1 0x0 PUSH1 0x20 DUP3 ADD SWAP1 POP PUSH2 0x4520 PUSH1 0x0 DUP4 ADD DUP5 PUSH2 0x44FC JUMP JUMPDEST SWAP3 SWAP2 POP POP JUMP JUMPDEST PUSH1 0x0 PUSH1 0x20 DUP3 DUP5 SUB SLT ISZERO PUSH2 0x453C JUMPI PUSH2 0x453B PUSH2 0x33D7 JUMP JUMPDEST JUMPDEST PUSH1 0x0 PUSH2 0x454A DUP5 DUP3 DUP6 ADD PUSH2 0x3D88 JUMP JUMPDEST SWAP2 POP POP SWAP3 SWAP2 POP POP JUMP JUMPDEST PUSH1 0x0 PUSH1 0x40 DUP3 ADD SWAP1 POP PUSH2 0x4568 PUSH1 0x0 DUP4 ADD DUP6 PUSH2 0x3531 JUMP JUMPDEST PUSH2 0x4575 PUSH1 0x20 DUP4 ADD DUP5 PUSH2 0x4009 JUMP JUMPDEST SWAP4 SWAP3 POP POP POP JUMP JUMPDEST PUSH2 0x4585 DUP2 PUSH2 0x3619 JUMP JUMPDEST DUP2 EQ PUSH2 0x4590 JUMPI PUSH1 0x0 DUP1 REVERT JUMPDEST POP JUMP JUMPDEST PUSH1 0x0 DUP2 MLOAD SWAP1 POP PUSH2 0x45A2 DUP2 PUSH2 0x457C JUMP JUMPDEST SWAP3 SWAP2 POP POP JUMP JUMPDEST PUSH1 0x0 PUSH1 0x20 DUP3 DUP5 SUB SLT ISZERO PUSH2 0x45BE JUMPI PUSH2 0x45BD PUSH2 0x33D7 JUMP JUMPDEST JUMPDEST PUSH1 0x0 PUSH2 0x45CC DUP5 DUP3 DUP6 ADD PUSH2 0x4593 JUMP JUMPDEST SWAP2 POP POP SWAP3 SWAP2 POP POP JUMP JUMPDEST PUSH32 0x53657450726F706F73616C4475726174696F6E3A206E6F7420616E2061646D69 PUSH1 0x0 DUP3 ADD MSTORE PUSH32 0x6E6973747261746F720000000000000000000000000000000000000000000000 PUSH1 0x20 DUP3 ADD MSTORE POP JUMP JUMPDEST PUSH1 0x0 PUSH2 0x4631 PUSH1 0x29 DUP4 PUSH2 0x355A JUMP JUMPDEST SWAP2 POP PUSH2 0x463C DUP3 PUSH2 0x45D5 JUMP JUMPDEST PUSH1 0x40 DUP3 ADD SWAP1 POP SWAP2 SWAP1 POP JUMP JUMPDEST PUSH1 0x0 PUSH1 0x20 DUP3 ADD SWAP1 POP DUP2 DUP2 SUB PUSH1 0x0 DUP4 ADD MSTORE PUSH2 0x4660 DUP2 PUSH2 0x4624 JUMP JUMPDEST SWAP1 POP SWAP2 SWAP1 POP JUMP JUMPDEST PUSH32 0x50726F706F73616C206E6F7420666F756E640000000000000000000000000000 PUSH1 0x0 DUP3 ADD MSTORE POP JUMP JUMPDEST PUSH1 0x0 PUSH2 0x469D PUSH1 0x12 DUP4 PUSH2 0x355A JUMP JUMPDEST SWAP2 POP PUSH2 0x46A8 DUP3 PUSH2 0x4667 JUMP JUMPDEST PUSH1 0x20 DUP3 ADD SWAP1 POP SWAP2 SWAP1 POP JUMP JUMPDEST PUSH1 0x0 PUSH1 0x20 DUP3 ADD SWAP1 POP DUP2 DUP2 SUB PUSH1 0x0 DUP4 ADD MSTORE PUSH2 0x46CC DUP2 PUSH2 0x4690 JUMP JUMPDEST SWAP1 POP SWAP2 SWAP1 POP JUMP JUMPDEST PUSH32 0x50726F63657373207465726D696E617465640000000000000000000000000000 PUSH1 0x0 DUP3 ADD MSTORE POP JUMP JUMPDEST PUSH1 0x0 PUSH2 0x4709 PUSH1 0x12 DUP4 PUSH2 0x355A JUMP JUMPDEST SWAP2 POP PUSH2 0x4714 DUP3 PUSH2 0x46D3 JUMP JUMPDEST PUSH1 0x20 DUP3 ADD SWAP1 POP SWAP2 SWAP1 POP JUMP JUMPDEST PUSH1 0x0 PUSH1 0x20 DUP3 ADD SWAP1 POP DUP2 DUP2 SUB PUSH1 0x0 DUP4 ADD MSTORE PUSH2 0x4738 DUP2 PUSH2 0x46FC JUMP JUMPDEST SWAP1 POP SWAP2 SWAP1 POP JUMP JUMPDEST PUSH32 0x496E76616C6964206475726174696F6E00000000000000000000000000000000 PUSH1 0x0 DUP3 ADD MSTORE POP JUMP JUMPDEST PUSH1 0x0 PUSH2 0x4775 PUSH1 0x10 DUP4 PUSH2 0x355A JUMP JUMPDEST SWAP2 POP PUSH2 0x4780 DUP3 PUSH2 0x473F JUMP JUMPDEST PUSH1 0x20 DUP3 ADD SWAP1 POP SWAP2 SWAP1 POP JUMP JUMPDEST PUSH1 0x0 PUSH1 0x20 DUP3 ADD SWAP1 POP DUP2 DUP2 SUB PUSH1 0x0 DUP4 ADD MSTORE PUSH2 0x47A4 DUP2 PUSH2 0x4768 JUMP JUMPDEST SWAP1 POP SWAP2 SWAP1 POP JUMP JUMPDEST PUSH1 0x0 PUSH1 0x20 DUP3 ADD SWAP1 POP PUSH2 0x47C0 PUSH1 0x0 DUP4 ADD DUP5 PUSH2 0x3540 JUMP JUMPDEST SWAP3 SWAP2 POP POP JUMP JUMPDEST PUSH32 0x4E487B7100000000000000000000000000000000000000000000000000000000 PUSH1 0x0 MSTORE PUSH1 0x22 PUSH1 0x4 MSTORE PUSH1 0x24 PUSH1 0x0 REVERT JUMPDEST PUSH1 0x0 PUSH1 0x2 DUP3 DIV SWAP1 POP PUSH1 0x1 DUP3 AND DUP1 PUSH2 0x480D JUMPI PUSH1 0x7F DUP3 AND SWAP2 POP JUMPDEST PUSH1 0x20 DUP3 LT DUP2 SUB PUSH2 0x4820 JUMPI PUSH2 0x481F PUSH2 0x47C6 JUMP JUMPDEST JUMPDEST POP SWAP2 SWAP1 POP JUMP JUMPDEST PUSH32 0x53657450726F706F73616C5374617475733A206E6F7420616E2061646D696E69 PUSH1 0x0 DUP3 ADD MSTORE PUSH32 0x73747261746F7200000000000000000000000000000000000000000000000000 PUSH1 0x20 DUP3 ADD MSTORE POP JUMP JUMPDEST PUSH1 0x0 PUSH2 0x4882 PUSH1 0x27 DUP4 PUSH2 0x355A JUMP JUMPDEST SWAP2 POP PUSH2 0x488D DUP3 PUSH2 0x4826 JUMP JUMPDEST PUSH1 0x40 DUP3 ADD SWAP1 POP SWAP2 SWAP1 POP JUMP JUMPDEST PUSH1 0x0 PUSH1 0x20 DUP3 ADD SWAP1 POP DUP2 DUP2 SUB PUSH1 0x0 DUP4 ADD MSTORE PUSH2 0x48B1 DUP2 PUSH2 0x4875 JUMP JUMPDEST SWAP1 POP SWAP2 SWAP1 POP JUMP JUMPDEST PUSH32 0x4E6F7420696E7465727275707469626C65000000000000000000000000000000 PUSH1 0x0 DUP3 ADD MSTORE POP JUMP JUMPDEST PUSH1 0x0 PUSH2 0x48EE PUSH1 0x11 DUP4 PUSH2 0x355A JUMP JUMPDEST SWAP2 POP PUSH2 0x48F9 DUP3 PUSH2 0x48B8 JUMP JUMPDEST PUSH1 0x20 DUP3 ADD SWAP1 POP SWAP2 SWAP1 POP JUMP JUMPDEST PUSH1 0x0 PUSH1 0x20 DUP3 ADD SWAP1 POP DUP2 DUP2 SUB PUSH1 0x0 DUP4 ADD MSTORE PUSH2 0x491D DUP2 PUSH2 0x48E1 JUMP JUMPDEST SWAP1 POP SWAP2 SWAP1 POP JUMP JUMPDEST PUSH32 0x4D75737420646966666572000000000000000000000000000000000000000000 PUSH1 0x0 DUP3 ADD MSTORE POP JUMP JUMPDEST PUSH1 0x0 PUSH2 0x495A PUSH1 0xB DUP4 PUSH2 0x355A JUMP JUMPDEST SWAP2 POP PUSH2 0x4965 DUP3 PUSH2 0x4924 JUMP JUMPDEST PUSH1 0x20 DUP3 ADD SWAP1 POP SWAP2 SWAP1 POP JUMP JUMPDEST PUSH1 0x0 PUSH1 0x20 DUP3 ADD SWAP1 POP DUP2 DUP2 SUB PUSH1 0x0 DUP4 ADD MSTORE PUSH2 0x4989 DUP2 PUSH2 0x494D JUMP JUMPDEST SWAP1 POP SWAP2 SWAP1 POP JUMP JUMPDEST PUSH1 0x0 PUSH1 0x20 DUP3 ADD SWAP1 POP PUSH2 0x49A5 PUSH1 0x0 DUP4 ADD DUP5 PUSH2 0x3522 JUMP JUMPDEST SWAP3 SWAP2 POP POP JUMP JUMPDEST PUSH1 0x0 DUP3 SWAP1 POP SWAP3 SWAP2 POP POP JUMP JUMPDEST PUSH1 0x0 DUP2 SWAP1 POP DUP2 PUSH1 0x0 MSTORE PUSH1 0x20 PUSH1 0x0 KECCAK256 SWAP1 POP SWAP2 SWAP1 POP JUMP JUMPDEST PUSH1 0x0 PUSH1 0x20 PUSH1 0x1F DUP4 ADD DIV SWAP1 POP SWAP2 SWAP1 POP JUMP JUMPDEST PUSH1 0x0 DUP3 DUP3 SHL SWAP1 POP SWAP3 SWAP2 POP POP JUMP JUMPDEST PUSH1 0x0 PUSH1 0x8 DUP4 MUL PUSH2 0x4A18 PUSH32 0xFFFFFFFFFFFFFFFFFFFFFFFFFFFFFFFFFFFFFFFFFFFFFFFFFFFFFFFFFFFFFFFF DUP3 PUSH2 0x49DB JUMP JUMPDEST PUSH2 0x4A22 DUP7 DUP4 PUSH2 0x49DB JUMP JUMPDEST SWAP6 POP DUP1 NOT DUP5 AND SWAP4 POP DUP1 DUP7 AND DUP5 OR SWAP3 POP POP POP SWAP4 SWAP3 POP POP POP JUMP JUMPDEST PUSH1 0x0 DUP2 SWAP1 POP SWAP2 SWAP1 POP JUMP JUMPDEST PUSH1 0x0 PUSH2 0x4A5F PUSH2 0x4A5A PUSH2 0x4A55 DUP5 PUSH2 0x3417 JUMP JUMPDEST PUSH2 0x4A3A JUMP JUMPDEST PUSH2 0x3417 JUMP JUMPDEST SWAP1 POP SWAP2 SWAP1 POP JUMP JUMPDEST PUSH1 0x0 DUP2 SWAP1 POP SWAP2 SWAP1 POP JUMP JUMPDEST PUSH2 0x4A79 DUP4 PUSH2 0x4A44 JUMP JUMPDEST PUSH2 0x4A8D PUSH2 0x4A85 DUP3 PUSH2 0x4A66 JUMP JUMPDEST DUP5 DUP5 SLOAD PUSH2 0x49E8 JUMP JUMPDEST DUP3 SSTORE POP POP POP POP JUMP JUMPDEST PUSH1 0x0 SWAP1 JUMP JUMPDEST PUSH2 0x4AA2 PUSH2 0x4A95 JUMP JUMPDEST PUSH2 0x4AAD DUP2 DUP5 DUP5 PUSH2 0x4A70 JUMP JUMPDEST POP POP POP JUMP JUMPDEST JUMPDEST DUP2 DUP2 LT ISZERO PUSH2 0x4AD1 JUMPI PUSH2 0x4AC6 PUSH1 0x0 DUP3 PUSH2 0x4A9A JUMP JUMPDEST PUSH1 0x1 DUP2 ADD SWAP1 POP PUSH2 0x4AB3 JUMP JUMPDEST POP POP JUMP JUMPDEST PUSH1 0x1F DUP3 GT ISZERO PUSH2 0x4B16 JUMPI PUSH2 0x4AE7 DUP2 PUSH2 0x49B6 JUMP JUMPDEST PUSH2 0x4AF0 DUP5 PUSH2 0x49CB JUMP JUMPDEST DUP2 ADD PUSH1 0x20 DUP6 LT ISZERO PUSH2 0x4AFF JUMPI DUP2 SWAP1 POP JUMPDEST PUSH2 0x4B13 PUSH2 0x4B0B DUP6 PUSH2 0x49CB JUMP JUMPDEST DUP4 ADD DUP3 PUSH2 0x4AB2 JUMP JUMPDEST POP POP JUMPDEST POP POP POP JUMP JUMPDEST PUSH1 0x0 DUP3 DUP3 SHR SWAP1 POP SWAP3 SWAP2 POP POP JUMP JUMPDEST PUSH1 0x0 PUSH2 0x4B39 PUSH1 0x0 NOT DUP5 PUSH1 0x8 MUL PUSH2 0x4B1B JUMP JUMPDEST NOT DUP1 DUP4 AND SWAP2 POP POP SWAP3 SWAP2 POP POP JUMP JUMPDEST PUSH1 0x0 PUSH2 0x4B52 DUP4 DUP4 PUSH2 0x4B28 JUMP JUMPDEST SWAP2 POP DUP3 PUSH1 0x2 MUL DUP3 OR SWAP1 POP SWAP3 SWAP2 POP POP JUMP JUMPDEST PUSH2 0x4B6C DUP4 DUP4 PUSH2 0x49AB JUMP JUMPDEST PUSH8 0xFFFFFFFFFFFFFFFF DUP2 GT ISZERO PUSH2 0x4B85 JUMPI PUSH2 0x4B84 PUSH2 0x3DA7 JUMP JUMPDEST JUMPDEST PUSH2 0x4B8F DUP3 SLOAD PUSH2 0x47F5 JUMP JUMPDEST PUSH2 0x4B9A DUP3 DUP3 DUP6 PUSH2 0x4AD5 JUMP JUMPDEST PUSH1 0x0 PUSH1 0x1F DUP4 GT PUSH1 0x1 DUP2 EQ PUSH2 0x4BC9 JUMPI PUSH1 0x0 DUP5 ISZERO PUSH2 0x4BB7 JUMPI DUP3 DUP8 ADD CALLDATALOAD SWAP1 POP JUMPDEST PUSH2 0x4BC1 DUP6 DUP3 PUSH2 0x4B46 JUMP JUMPDEST DUP7 SSTORE POP PUSH2 0x4C29 JUMP JUMPDEST PUSH1 0x1F NOT DUP5 AND PUSH2 0x4BD7 DUP7 PUSH2 0x49B6 JUMP JUMPDEST PUSH1 0x0 JUMPDEST DUP3 DUP2 LT ISZERO PUSH2 0x4BFF JUMPI DUP5 DUP10 ADD CALLDATALOAD DUP3 SSTORE PUSH1 0x1 DUP3 ADD SWAP2 POP PUSH1 0x20 DUP6 ADD SWAP5 POP PUSH1 0x20 DUP2 ADD SWAP1 POP PUSH2 0x4BDA JUMP JUMPDEST DUP7 DUP4 LT ISZERO PUSH2 0x4C1C JUMPI DUP5 DUP10 ADD CALLDATALOAD PUSH2 0x4C18 PUSH1 0x1F DUP10 AND DUP3 PUSH2 0x4B28 JUMP JUMPDEST DUP4 SSTORE POP JUMPDEST PUSH1 0x1 PUSH1 0x2 DUP9 MUL ADD DUP9 SSTORE POP POP POP JUMPDEST POP POP POP POP POP POP POP JUMP JUMPDEST PUSH1 0x0 DUP2 SWAP1 POP SWAP2 SWAP1 POP JUMP JUMPDEST PUSH1 0x0 PUSH8 0xFFFFFFFFFFFFFFFF DUP3 AND SWAP1 POP SWAP2 SWAP1 POP JUMP JUMPDEST PUSH1 0x0 PUSH2 0x4C6B PUSH2 0x4C66 PUSH2 0x4C61 DUP5 PUSH2 0x4C32 JUMP JUMPDEST PUSH2 0x4A3A JUMP JUMPDEST PUSH2 0x4C3C JUMP JUMPDEST SWAP1 POP SWAP2 SWAP1 POP JUMP JUMPDEST PUSH2 0x4C7B DUP2 PUSH2 0x4C50 JUMP JUMPDEST DUP3 MSTORE POP POP JUMP JUMPDEST PUSH1 0x0 PUSH1 0x20 DUP3 ADD SWAP1 POP PUSH2 0x4C96 PUSH1 0x0 DUP4 ADD DUP5 PUSH2 0x4C72 JUMP JUMPDEST SWAP3 SWAP2 POP POP JUMP JUMPDEST PUSH32 0x656E6450726F706F73616C3A206E6F7420616E2061646D696E6973747261746F PUSH1 0x0 DUP3 ADD MSTORE PUSH32 0x7200000000000000000000000000000000000000000000000000000000000000 PUSH1 0x20 DUP3 ADD MSTORE POP JUMP JUMPDEST PUSH1 0x0 PUSH2 0x4CF8 PUSH1 0x21 DUP4 PUSH2 0x355A JUMP JUMPDEST SWAP2 POP PUSH2 0x4D03 DUP3 PUSH2 0x4C9C JUMP JUMPDEST PUSH1 0x40 DUP3 ADD SWAP1 POP SWAP2 SWAP1 POP JUMP JUMPDEST PUSH1 0x0 PUSH1 0x20 DUP3 ADD SWAP1 POP DUP2 DUP2 SUB PUSH1 0x0 DUP4 ADD MSTORE PUSH2 0x4D27 DUP2 PUSH2 0x4CEB JUMP JUMPDEST SWAP1 POP SWAP2 SWAP1 POP JUMP JUMPDEST PUSH32 0x496E76616C69642073746174757320666F72207375626D697474696E67207374 PUSH1 0x0 DUP3 ADD MSTORE PUSH32 0x617465207472616E736974696F6E000000000000000000000000000000000000 PUSH1 0x20 DUP3 ADD MSTORE POP JUMP JUMPDEST PUSH1 0x0 PUSH2 0x4D8A PUSH1 0x2E DUP4 PUSH2 0x355A JUMP JUMPDEST SWAP2 POP PUSH2 0x4D95 DUP3 PUSH2 0x4D2E JUMP JUMPDEST PUSH1 0x40 DUP3 ADD SWAP1 POP SWAP2 SWAP1 POP JUMP JUMPDEST PUSH1 0x0 PUSH1 0x20 DUP3 ADD SWAP1 POP DUP2 DUP2 SUB PUSH1 0x0 DUP4 ADD MSTORE PUSH2 0x4DB9 DUP2 PUSH2 0x4D7D JUMP JUMPDEST SWAP1 POP SWAP2 SWAP1 POP JUMP JUMPDEST PUSH32 0x496E76616C6964206F6C6420726F6F7400000000000000000000000000000000 PUSH1 0x0 DUP3 ADD MSTORE POP JUMP JUMPDEST PUSH1 0x0 PUSH2 0x4DF6 PUSH1 0x10 DUP4 PUSH2 0x355A JUMP JUMPDEST SWAP2 POP PUSH2 0x4E01 DUP3 PUSH2 0x4DC0 JUMP JUMPDEST PUSH1 0x20 DUP3 ADD SWAP1 POP SWAP2 SWAP1 POP JUMP JUMPDEST PUSH1 0x0 PUSH1 0x20 DUP3 ADD SWAP1 POP DUP2 DUP2 SUB PUSH1 0x0 DUP4 ADD MSTORE PUSH2 0x4E25 DUP2 PUSH2 0x4DE9 JUMP JUMPDEST SWAP1 POP SWAP2 SWAP1 POP JUMP JUMPDEST PUSH32 0x50726F63657373206E6F7420656E646564000000000000000000000000000000 PUSH1 0x0 DUP3 ADD MSTORE POP JUMP JUMPDEST PUSH1 0x0 PUSH2 0x4E62 PUSH1 0x11 DUP4 PUSH2 0x355A JUMP JUMPDEST SWAP2 POP PUSH2 0x4E6D DUP3 PUSH2 0x4E2C JUMP JUMPDEST PUSH1 0x20 DUP3 ADD SWAP1 POP SWAP2 SWAP1 POP JUMP JUMPDEST PUSH1 0x0 PUSH1 0x20 DUP3 ADD SWAP1 POP DUP2 DUP2 SUB PUSH1 0x0 DUP4 ADD MSTORE PUSH2 0x4E91 DUP2 PUSH2 0x4E55 JUMP JUMPDEST SWAP1 POP SWAP2 SWAP1 POP JUMP JUMPDEST PUSH32 0x53657450726F706F73616C43656E7375733A206E6F7420616E2061646D696E69 PUSH1 0x0 DUP3 ADD MSTORE PUSH32 0x73747261746F7200000000000000000000000000000000000000000000000000 PUSH1 0x20 DUP3 ADD MSTORE POP JUMP JUMPDEST PUSH1 0x0 PUSH2 0x4EF4 PUSH1 0x27 DUP4 PUSH2 0x355A JUMP JUMPDEST SWAP2 POP PUSH2 0x4EFF DUP3 PUSH2 0x4E98 JUMP JUMPDEST PUSH1 0x40 DUP3 ADD SWAP1 POP SWAP2 SWAP1 POP JUMP JUMPDEST PUSH1 0x0 PUSH1 0x20 DUP3 ADD SWAP1 POP DUP2 DUP2 SUB PUSH1 0x0 DUP4 ADD MSTORE PUSH2 0x4F23 DUP2 PUSH2 0x4EE7 JUMP JUMPDEST SWAP1 POP SWAP2 SWAP1 POP JUMP JUMPDEST PUSH1 0x0 DUP1 REVERT JUMPDEST PUSH1 0x0 DUP1 REVERT JUMPDEST PUSH1 0x0 DUP1 REVERT JUMPDEST PUSH1 0x0 DUP1 DUP4 CALLDATALOAD PUSH1 0x1 PUSH1 0x20 SUB DUP5 CALLDATASIZE SUB SUB DUP2 SLT PUSH2 0x4F56 JUMPI PUSH2 0x4F55 PUSH2 0x4F2A JUMP JUMPDEST JUMPDEST DUP1 DUP5 ADD SWAP3 POP DUP3 CALLDATALOAD SWAP2 POP PUSH8 0xFFFFFFFFFFFFFFFF DUP3 GT ISZERO PUSH2 0x4F78 JUMPI PUSH2 0x4F77 PUSH2 0x4F2F JUMP JUMPDEST JUMPDEST PUSH1 0x20 DUP4 ADD SWAP3 POP PUSH1 0x1 DUP3 MUL CALLDATASIZE SUB DUP4 SGT ISZERO PUSH2 0x4F94 JUMPI PUSH2 0x4F93 PUSH2 0x4F34 JUMP JUMPDEST JUMPDEST POP SWAP3 POP SWAP3 SWAP1 POP JUMP JUMPDEST PUSH32 0x456D707479205552490000000000000000000000000000000000000000000000 PUSH1 0x0 DUP3 ADD MSTORE POP JUMP JUMPDEST PUSH1 0x0 PUSH2 0x4FD2 PUSH1 0x9 DUP4 PUSH2 0x355A JUMP JUMPDEST SWAP2 POP PUSH2 0x4FDD DUP3 PUSH2 0x4F9C JUMP JUMPDEST PUSH1 0x20 DUP3 ADD SWAP1 POP SWAP2 SWAP1 POP JUMP JUMPDEST PUSH1 0x0 PUSH1 0x20 DUP3 ADD SWAP1 POP DUP2 DUP2 SUB PUSH1 0x0 DUP4 ADD MSTORE PUSH2 0x5001 DUP2 PUSH2 0x4FC5 JUMP JUMPDEST SWAP1 POP SWAP2 SWAP1 POP JUMP JUMPDEST PUSH32 0x456D70747920726F6F7400000000000000000000000000000000000000000000 PUSH1 0x0 DUP3 ADD MSTORE POP JUMP JUMPDEST PUSH1 0x0 PUSH2 0x503E PUSH1 0xA DUP4 PUSH2 0x355A JUMP JUMPDEST SWAP2 POP PUSH2 0x5049 DUP3 PUSH2 0x5008 JUMP JUMPDEST PUSH1 0x20 DUP3 ADD SWAP1 POP SWAP2 SWAP1 POP JUMP JUMPDEST PUSH1 0x0 PUSH1 0x20 DUP3 ADD SWAP1 POP DUP2 DUP2 SUB PUSH1 0x0 DUP4 ADD MSTORE PUSH2 0x506D DUP2 PUSH2 0x5031 JUMP JUMPDEST SWAP1 POP SWAP2 SWAP1 POP JUMP JUMPDEST PUSH32 0x526561642D6F6E6C792063656E73757300000000000000000000000000000000 PUSH1 0x0 DUP3 ADD MSTORE POP JUMP JUMPDEST PUSH1 0x0 PUSH2 0x50AA PUSH1 0x10 DUP4 PUSH2 0x355A JUMP JUMPDEST SWAP2 POP PUSH2 0x50B5 DUP3 PUSH2 0x5074 JUMP JUMPDEST PUSH1 0x20 DUP3 ADD SWAP1 POP SWAP2 SWAP1 POP JUMP JUMPDEST PUSH1 0x0 PUSH1 0x20 DUP3 ADD SWAP1 POP DUP2 DUP2 SUB PUSH1 0x0 DUP4 ADD MSTORE PUSH2 0x50D9 DUP2 PUSH2 0x509D JUMP JUMPDEST SWAP1 POP SWAP2 SWAP1 POP JUMP JUMPDEST PUSH1 0x0 PUSH2 0x50EC DUP4 DUP6 PUSH2 0x355A JUMP JUMPDEST SWAP4 POP PUSH2 0x50F9 DUP4 DUP6 DUP5 PUSH2 0x3E53 JUMP JUMPDEST PUSH2 0x5102 DUP4 PUSH2 0x3595 JUMP JUMPDEST DUP5 ADD SWAP1 POP SWAP4 SWAP3 POP POP POP JUMP JUMPDEST PUSH1 0x0 PUSH1 0x60 DUP3 ADD SWAP1 POP PUSH2 0x5122 PUSH1 0x0 DUP4 ADD DUP8 PUSH2 0x3531 JUMP JUMPDEST DUP2 DUP2 SUB PUSH1 0x20 DUP4 ADD MSTORE PUSH2 0x5135 DUP2 DUP6 DUP8 PUSH2 0x50E0 JUMP JUMPDEST SWAP1 POP PUSH2 0x5144 PUSH1 0x40 DUP4 ADD DUP5 PUSH2 0x3540 JUMP JUMPDEST SWAP6 SWAP5 POP POP POP POP POP JUMP JUMPDEST PUSH32 0x4E657750726F706F73616C3A20696E76616C6964206D6178436F756E74000000 PUSH1 0x0 DUP3 ADD MSTORE POP JUMP JUMPDEST PUSH1 0x0 PUSH2 0x5183 PUSH1 0x1D DUP4 PUSH2 0x355A JUMP JUMPDEST SWAP2 POP PUSH2 0x518E DUP3 PUSH2 0x514D JUMP JUMPDEST PUSH1 0x20 DUP3 ADD SWAP1 POP SWAP2 SWAP1 POP JUMP JUMPDEST PUSH1 0x0 PUSH1 0x20 DUP3 ADD SWAP1 POP DUP2 DUP2 SUB PUSH1 0x0 DUP4 ADD MSTORE PUSH2 0x51B2 DUP2 PUSH2 0x5176 JUMP JUMPDEST SWAP1 POP SWAP2 SWAP1 POP JUMP JUMPDEST PUSH32 0x4E657750726F706F73616C3A206D6178436F756E74203E206D617856616C7565 PUSH1 0x0 DUP3 ADD MSTORE POP JUMP JUMPDEST PUSH1 0x0 PUSH2 0x51EF PUSH1 0x20 DUP4 PUSH2 0x355A JUMP JUMPDEST SWAP2 POP PUSH2 0x51FA DUP3 PUSH2 0x51B9 JUMP JUMPDEST PUSH1 0x20 DUP3 ADD SWAP1 POP SWAP2 SWAP1 POP JUMP JUMPDEST PUSH1 0x0 PUSH1 0x20 DUP3 ADD SWAP1 POP DUP2 DUP2 SUB PUSH1 0x0 DUP4 ADD MSTORE PUSH2 0x521E DUP2 PUSH2 0x51E2 JUMP JUMPDEST SWAP1 POP SWAP2 SWAP1 POP JUMP JUMPDEST PUSH1 0x0 PUSH1 0x20 DUP3 DUP5 SUB SLT ISZERO PUSH2 0x523B JUMPI PUSH2 0x523A PUSH2 0x33D7 JUMP JUMPDEST JUMPDEST PUSH1 0x0 PUSH2 0x5249 DUP5 DUP3 DUP6 ADD PUSH2 0x3CEA JUMP JUMPDEST SWAP2 POP POP SWAP3 SWAP2 POP POP JUMP JUMPDEST PUSH32 0x4E657750726F706F73616C3A20696E76616C6964207374617475730000000000 PUSH1 0x0 DUP3 ADD MSTORE POP JUMP JUMPDEST PUSH1 0x0 PUSH2 0x5288 PUSH1 0x1B DUP4 PUSH2 0x355A JUMP JUMPDEST SWAP2 POP PUSH2 0x5293 DUP3 PUSH2 0x5252 JUMP JUMPDEST PUSH1 0x20 DUP3 ADD SWAP1 POP SWAP2 SWAP1 POP JUMP JUMPDEST PUSH1 0x0 PUSH1 0x20 DUP3 ADD SWAP1 POP DUP2 DUP2 SUB PUSH1 0x0 DUP4 ADD MSTORE PUSH2 0x52B7 DUP2 PUSH2 0x527B JUMP JUMPDEST SWAP1 POP SWAP2 SWAP1 POP JUMP JUMPDEST PUSH1 0xA DUP2 LT PUSH2 0x52CB JUMPI PUSH1 0x0 DUP1 REVERT JUMPDEST POP JUMP JUMPDEST PUSH1 0x0 DUP2 CALLDATALOAD SWAP1 POP PUSH2 0x52DD DUP2 PUSH2 0x52BE JUMP JUMPDEST SWAP3 SWAP2 POP POP JUMP JUMPDEST PUSH1 0x0 PUSH1 0x20 DUP3 DUP5 SUB SLT ISZERO PUSH2 0x52F9 JUMPI PUSH2 0x52F8 PUSH2 0x33D7 JUMP JUMPDEST JUMPDEST PUSH1 0x0 PUSH2 0x5307 DUP5 DUP3 DUP6 ADD PUSH2 0x52CE JUMP JUMPDEST SWAP2 POP POP SWAP3 SWAP2 POP POP JUMP JUMPDEST PUSH2 0x5319 DUP2 PUSH2 0x35DF JUMP JUMPDEST DUP2 EQ PUSH2 0x5324 JUMPI PUSH1 0x0 DUP1 REVERT JUMPDEST POP JUMP JUMPDEST PUSH1 0x0 DUP2 CALLDATALOAD SWAP1 POP PUSH2 0x5336 DUP2 PUSH2 0x5310 JUMP JUMPDEST SWAP3 SWAP2 POP POP JUMP JUMPDEST PUSH1 0x0 PUSH1 0x20 DUP3 DUP5 SUB SLT ISZERO PUSH2 0x5352 JUMPI PUSH2 0x5351 PUSH2 0x33D7 JUMP JUMPDEST JUMPDEST PUSH1 0x0 PUSH2 0x5360 DUP5 DUP3 DUP6 ADD PUSH2 0x5327 JUMP JUMPDEST SWAP2 POP POP SWAP3 SWAP2 POP POP JUMP JUMPDEST PUSH32 0x4E657750726F706F73616C3A2063656E737573206F726967696E204341207265 PUSH1 0x0 DUP3 ADD MSTORE PUSH32 0x717569726573206E6F6E2D616E6F6E796D6F757320656E76656C6F7065207479 PUSH1 0x20 DUP3 ADD MSTORE PUSH32 0x7065000000000000000000000000000000000000000000000000000000000000 PUSH1 0x40 DUP3 ADD MSTORE POP JUMP JUMPDEST PUSH1 0x0 PUSH2 0x53EB PUSH1 0x42 DUP4 PUSH2 0x355A JUMP JUMPDEST SWAP2 POP PUSH2 0x53F6 DUP3 PUSH2 0x5369 JUMP JUMPDEST PUSH1 0x60 DUP3 ADD SWAP1 POP SWAP2 SWAP1 POP JUMP JUMPDEST PUSH1 0x0 PUSH1 0x20 DUP3 ADD SWAP1 POP DUP2 DUP2 SUB PUSH1 0x0 DUP4 ADD MSTORE PUSH2 0x541A DUP2 PUSH2 0x53DE JUMP JUMPDEST SWAP1 POP SWAP2 SWAP1 POP JUMP JUMPDEST PUSH32 0x4E657750726F706F73616C3A206D6178436F756E74206D757374206265203120 PUSH1 0x0 DUP3 ADD MSTORE PUSH32 0x666F722046617263617374657200000000000000000000000000000000000000 PUSH1 0x20 DUP3 ADD MSTORE POP JUMP JUMPDEST PUSH1 0x0 PUSH2 0x547D PUSH1 0x2D DUP4 PUSH2 0x355A JUMP JUMPDEST SWAP2 POP PUSH2 0x5488 DUP3 PUSH2 0x5421 JUMP JUMPDEST PUSH1 0x40 DUP3 ADD SWAP1 POP SWAP2 SWAP1 POP JUMP JUMPDEST PUSH1 0x0 PUSH1 0x20 DUP3 ADD SWAP1 POP DUP2 DUP2 SUB PUSH1 0x0 DUP4 ADD MSTORE PUSH2 0x54AC DUP2 PUSH2 0x5470 JUMP JUMPDEST SWAP1 POP SWAP2 SWAP1 POP JUMP JUMPDEST PUSH32 0x4E657750726F706F73616C3A2063656E737573206F726967696E204661726361 PUSH1 0x0 DUP3 ADD MSTORE PUSH32 0x73746572207265717569726573206E6F6E2D616E6F6E796D6F757320656E7665 PUSH1 0x20 DUP3 ADD MSTORE PUSH32 0x6C6F706520747970650000000000000000000000000000000000000000000000 PUSH1 0x40 DUP3 ADD MSTORE POP JUMP JUMPDEST PUSH1 0x0 PUSH2 0x5535 PUSH1 0x49 DUP4 PUSH2 0x355A JUMP JUMPDEST SWAP2 POP PUSH2 0x5540 DUP3 PUSH2 0x54B3 JUMP JUMPDEST PUSH1 0x60 DUP3 ADD SWAP1 POP SWAP2 SWAP1 POP JUMP JUMPDEST PUSH1 0x0 PUSH1 0x20 DUP3 ADD SWAP1 POP DUP2 DUP2 SUB PUSH1 0x0 DUP4 ADD MSTORE PUSH2 0x5564 DUP2 PUSH2 0x5528 JUMP JUMPDEST SWAP1 POP SWAP2 SWAP1 POP JUMP JUMPDEST PUSH32 0x4E657750726F706F73616C3A2063656E737573206F726967696E204661726361 PUSH1 0x0 DUP3 ADD MSTORE PUSH32 0x73746572207265717569726573206E6F6E2D656E6372797074656420656E7665 PUSH1 0x20 DUP3 ADD MSTORE PUSH32 0x6C6F706520747970650000000000000000000000000000000000000000000000 PUSH1 0x40 DUP3 ADD MSTORE POP JUMP JUMPDEST PUSH1 0x0 PUSH2 0x55ED PUSH1 0x49 DUP4 PUSH2 0x355A JUMP JUMPDEST SWAP2 POP PUSH2 0x55F8 DUP3 PUSH2 0x556B JUMP JUMPDEST PUSH1 0x60 DUP3 ADD SWAP1 POP SWAP2 SWAP1 POP JUMP JUMPDEST PUSH1 0x0 PUSH1 0x20 DUP3 ADD SWAP1 POP DUP2 DUP2 SUB PUSH1 0x0 DUP4 ADD MSTORE PUSH2 0x561C DUP2 PUSH2 0x55E0 JUMP JUMPDEST SWAP1 POP SWAP2 SWAP1 POP JUMP JUMPDEST PUSH32 0x4E657750726F706F73616C3A20696E76616C696420737461727454696D650000 PUSH1 0x0 DUP3 ADD MSTORE POP JUMP JUMPDEST PUSH1 0x0 PUSH2 0x5659 PUSH1 0x1E DUP4 PUSH2 0x355A JUMP JUMPDEST SWAP2 POP PUSH2 0x5664 DUP3 PUSH2 0x5623 JUMP JUMPDEST PUSH1 0x20 DUP3 ADD SWAP1 POP SWAP2 SWAP1 POP JUMP JUMPDEST PUSH1 0x0 PUSH1 0x20 DUP3 ADD SWAP1 POP DUP2 DUP2 SUB PUSH1 0x0 DUP4 ADD MSTORE PUSH2 0x5688 DUP2 PUSH2 0x564C JUMP JUMPDEST SWAP1 POP SWAP2 SWAP1 POP JUMP JUMPDEST PUSH32 0x4E487B7100000000000000000000000000000000000000000000000000000000 PUSH1 0x0 MSTORE PUSH1 0x11 PUSH1 0x4 MSTORE PUSH1 0x24 PUSH1 0x0 REVERT JUMPDEST PUSH1 0x0 PUSH2 0x56C9 DUP3 PUSH2 0x3417 JUMP JUMPDEST SWAP2 POP PUSH2 0x56D4 DUP4 PUSH2 0x3417 JUMP JUMPDEST SWAP3 POP DUP3 DUP3 ADD SWAP1 POP DUP1 DUP3 GT ISZERO PUSH2 0x56EC JUMPI PUSH2 0x56EB PUSH2 0x568F JUMP JUMPDEST JUMPDEST SWAP3 SWAP2 POP POP JUMP JUMPDEST PUSH32 0x4E657750726F706F73616C3A20696E76616C6964206475726174696F6E000000 PUSH1 0x0 DUP3 ADD MSTORE POP JUMP JUMPDEST PUSH1 0x0 PUSH2 0x5728 PUSH1 0x1D DUP4 PUSH2 0x355A JUMP JUMPDEST SWAP2 POP PUSH2 0x5733 DUP3 PUSH2 0x56F2 JUMP JUMPDEST PUSH1 0x20 DUP3 ADD SWAP1 POP SWAP2 SWAP1 POP JUMP JUMPDEST PUSH1 0x0 PUSH1 0x20 DUP3 ADD SWAP1 POP DUP2 DUP2 SUB PUSH1 0x0 DUP4 ADD MSTORE PUSH2 0x5757 DUP2 PUSH2 0x571B JUMP JUMPDEST SWAP1 POP SWAP2 SWAP1 POP JUMP JUMPDEST PUSH32 0x4E657750726F706F73616C3A2073657269616C20656E76656C6F706520747970 PUSH1 0x0 DUP3 ADD MSTORE PUSH32 0x65206E6F7420696D706C656D656E746564000000000000000000000000000000 PUSH1 0x20 DUP3 ADD MSTORE POP JUMP JUMPDEST PUSH1 0x0 PUSH2 0x57BA PUSH1 0x31 DUP4 PUSH2 0x355A JUMP JUMPDEST SWAP2 POP PUSH2 0x57C5 DUP3 PUSH2 0x575E JUMP JUMPDEST PUSH1 0x40 DUP3 ADD SWAP1 POP SWAP2 SWAP1 POP JUMP JUMPDEST PUSH1 0x0 PUSH1 0x20 DUP3 ADD SWAP1 POP DUP2 DUP2 SUB PUSH1 0x0 DUP4 ADD MSTORE PUSH2 0x57E9 DUP2 PUSH2 0x57AD JUMP JUMPDEST SWAP1 POP SWAP2 SWAP1 POP JUMP JUMPDEST PUSH32 0x4E657750726F706F73616C3A206E6F7420616E2061646D696E6973747261746F PUSH1 0x0 DUP3 ADD MSTORE PUSH32 0x7200000000000000000000000000000000000000000000000000000000000000 PUSH1 0x20 DUP3 ADD MSTORE POP JUMP JUMPDEST PUSH1 0x0 PUSH2 0x584C PUSH1 0x21 DUP4 PUSH2 0x355A JUMP JUMPDEST SWAP2 POP PUSH2 0x5857 DUP3 PUSH2 0x57F0 JUMP JUMPDEST PUSH1 0x40 DUP3 ADD SWAP1 POP SWAP2 SWAP1 POP JUMP JUMPDEST PUSH1 0x0 PUSH1 0x20 DUP3 ADD SWAP1 POP DUP2 DUP2 SUB PUSH1 0x0 DUP4 ADD MSTORE PUSH2 0x587B DUP2 PUSH2 0x583F JUMP JUMPDEST SWAP1 POP SWAP2 SWAP1 POP JUMP JUMPDEST PUSH32 0x4E657750726F706F73616C3A2070726F706F73616C20616C7265616479206578 PUSH1 0x0 DUP3 ADD MSTORE PUSH32 0x6973747300000000000000000000000000000000000000000000000000000000 PUSH1 0x20 DUP3 ADD MSTORE POP JUMP JUMPDEST PUSH1 0x0 PUSH2 0x58DE PUSH1 0x24 DUP4 PUSH2 0x355A JUMP JUMPDEST SWAP2 POP PUSH2 0x58E9 DUP3 PUSH2 0x5882 JUMP JUMPDEST PUSH1 0x40 DUP3 ADD SWAP1 POP SWAP2 SWAP1 POP JUMP JUMPDEST PUSH1 0x0 PUSH1 0x20 DUP3 ADD SWAP1 POP DUP2 DUP2 SUB PUSH1 0x0 DUP4 ADD MSTORE PUSH2 0x590D DUP2 PUSH2 0x58D1 JUMP JUMPDEST SWAP1 POP SWAP2 SWAP1 POP JUMP JUMPDEST PUSH1 0x0 DUP1 REVERT JUMPDEST PUSH1 0x0 DUP1 REVERT JUMPDEST PUSH1 0x0 DUP2 CALLDATALOAD SWAP1 POP PUSH2 0x592D DUP2 PUSH2 0x457C JUMP JUMPDEST SWAP3 SWAP2 POP POP JUMP JUMPDEST PUSH1 0x0 PUSH2 0x100 DUP3 DUP5 SUB SLT ISZERO PUSH2 0x594A JUMPI PUSH2 0x5949 PUSH2 0x5914 JUMP JUMPDEST JUMPDEST PUSH2 0x5955 PUSH2 0x100 PUSH2 0x3E07 JUMP JUMPDEST SWAP1 POP PUSH1 0x0 PUSH2 0x5965 DUP5 DUP3 DUP6 ADD PUSH2 0x591E JUMP JUMPDEST PUSH1 0x0 DUP4 ADD MSTORE POP PUSH1 0x20 PUSH2 0x5979 DUP5 DUP3 DUP6 ADD PUSH2 0x3438 JUMP JUMPDEST PUSH1 0x20 DUP4 ADD MSTORE POP PUSH1 0x40 PUSH2 0x598D DUP5 DUP3 DUP6 ADD PUSH2 0x3438 JUMP JUMPDEST PUSH1 0x40 DUP4 ADD MSTORE POP PUSH1 0x60 PUSH2 0x59A1 DUP5 DUP3 DUP6 ADD PUSH2 0x3438 JUMP JUMPDEST PUSH1 0x60 DUP4 ADD MSTORE POP PUSH1 0x80 PUSH2 0x59B5 DUP5 DUP3 DUP6 ADD PUSH2 0x3438 JUMP JUMPDEST PUSH1 0x80 DUP4 ADD MSTORE POP PUSH1 0xA0 PUSH2 0x59C9 DUP5 DUP3 DUP6 ADD PUSH2 0x3438 JUMP JUMPDEST PUSH1 0xA0 DUP4 ADD MSTORE POP PUSH1 0xC0 PUSH2 0x59DD DUP5 DUP3 DUP6 ADD PUSH2 0x3438 JUMP JUMPDEST PUSH1 0xC0 DUP4 ADD MSTORE POP PUSH1 0xE0 PUSH2 0x59F1 DUP5 DUP3 DUP6 ADD PUSH2 0x3438 JUMP JUMPDEST PUSH1 0xE0 DUP4 ADD MSTORE POP SWAP3 SWAP2 POP POP JUMP JUMPDEST PUSH1 0x0 PUSH2 0x1A0 DUP3 DUP5 SUB SLT ISZERO PUSH2 0x5A14 JUMPI PUSH2 0x5A13 PUSH2 0x5914 JUMP JUMPDEST JUMPDEST PUSH2 0x5A1E PUSH1 0xC0 PUSH2 0x3E07 JUMP JUMPDEST SWAP1 POP PUSH1 0x0 PUSH2 0x5A2E DUP5 DUP3 DUP6 ADD PUSH2 0x5327 JUMP JUMPDEST PUSH1 0x0 DUP4 ADD MSTORE POP PUSH1 0x20 PUSH2 0x5A42 DUP5 DUP3 DUP6 ADD PUSH2 0x5327 JUMP JUMPDEST PUSH1 0x20 DUP4 ADD MSTORE POP PUSH1 0x40 PUSH2 0x5A56 DUP5 DUP3 DUP6 ADD PUSH2 0x3438 JUMP JUMPDEST PUSH1 0x40 DUP4 ADD MSTORE POP PUSH1 0x60 PUSH2 0x5A6A DUP5 DUP3 DUP6 ADD PUSH2 0x3438 JUMP JUMPDEST PUSH1 0x60 DUP4 ADD MSTORE POP PUSH1 0x80 PUSH2 0x5A7E DUP5 DUP3 DUP6 ADD PUSH2 0x3CEA JUMP JUMPDEST PUSH1 0x80 DUP4 ADD MSTORE POP PUSH1 0xA0 PUSH2 0x5A92 DUP5 DUP3 DUP6 ADD PUSH2 0x5933 JUMP JUMPDEST PUSH1 0xA0 DUP4 ADD MSTORE POP SWAP3 SWAP2 POP POP JUMP JUMPDEST PUSH1 0x0 PUSH2 0x1A0 DUP3 DUP5 SUB SLT ISZERO PUSH2 0x5AB5 JUMPI PUSH2 0x5AB4 PUSH2 0x33D7 JUMP JUMPDEST JUMPDEST PUSH1 0x0 PUSH2 0x5AC3 DUP5 DUP3 DUP6 ADD PUSH2 0x59FD JUMP JUMPDEST SWAP2 POP POP SWAP3 SWAP2 POP POP JUMP JUMPDEST PUSH1 0x0 PUSH8 0xFFFFFFFFFFFFFFFF DUP3 GT ISZERO PUSH2 0x5AE7 JUMPI PUSH2 0x5AE6 PUSH2 0x3DA7 JUMP JUMPDEST JUMPDEST PUSH2 0x5AF0 DUP3 PUSH2 0x3595 JUMP JUMPDEST SWAP1 POP PUSH1 0x20 DUP2 ADD SWAP1 POP SWAP2 SWAP1 POP JUMP JUMPDEST PUSH1 0x0 PUSH2 0x5B10 PUSH2 0x5B0B DUP5 PUSH2 0x5ACC JUMP JUMPDEST PUSH2 0x3E07 JUMP JUMPDEST SWAP1 POP DUP3 DUP2 MSTORE PUSH1 0x20 DUP2 ADD DUP5 DUP5 DUP5 ADD GT ISZERO PUSH2 0x5B2C JUMPI PUSH2 0x5B2B PUSH2 0x3DA2 JUMP JUMPDEST JUMPDEST PUSH2 0x5B37 DUP5 DUP3 DUP6 PUSH2 0x3E53 JUMP JUMPDEST POP SWAP4 SWAP3 POP POP POP JUMP JUMPDEST PUSH1 0x0 DUP3 PUSH1 0x1F DUP4 ADD SLT PUSH2 0x5B54 JUMPI PUSH2 0x5B53 PUSH2 0x3D9D JUMP JUMPDEST JUMPDEST DUP2 CALLDATALOAD PUSH2 0x5B64 DUP5 DUP3 PUSH1 0x20 DUP7 ADD PUSH2 0x5AFD JUMP JUMPDEST SWAP2 POP POP SWAP3 SWAP2 POP POP JUMP JUMPDEST PUSH1 0x0 PUSH1 0x80 DUP3 DUP5 SUB SLT ISZERO PUSH2 0x5B83 JUMPI PUSH2 0x5B82 PUSH2 0x5914 JUMP JUMPDEST JUMPDEST PUSH2 0x5B8D PUSH1 0x80 PUSH2 0x3E07 JUMP JUMPDEST SWAP1 POP PUSH1 0x0 PUSH2 0x5B9D DUP5 DUP3 DUP6 ADD PUSH2 0x52CE JUMP JUMPDEST PUSH1 0x0 DUP4 ADD MSTORE POP PUSH1 0x20 PUSH2 0x5BB1 DUP5 DUP3 DUP6 ADD PUSH2 0x3438 JUMP JUMPDEST PUSH1 0x20 DUP4 ADD MSTORE POP PUSH1 0x40 PUSH2 0x5BC5 DUP5 DUP3 DUP6 ADD PUSH2 0x3402 JUMP JUMPDEST PUSH1 0x40 DUP4 ADD MSTORE POP PUSH1 0x60 DUP3 ADD CALLDATALOAD PUSH8 0xFFFFFFFFFFFFFFFF DUP2 GT ISZERO PUSH2 0x5BE9 JUMPI PUSH2 0x5BE8 PUSH2 0x5919 JUMP JUMPDEST JUMPDEST PUSH2 0x5BF5 DUP5 DUP3 DUP6 ADD PUSH2 0x5B3F JUMP JUMPDEST PUSH1 0x60 DUP4 ADD MSTORE POP SWAP3 SWAP2 POP POP JUMP JUMPDEST PUSH1 0x0 PUSH2 0x5C0D CALLDATASIZE DUP4 PUSH2 0x5B6D JUMP JUMPDEST SWAP1 POP SWAP2 SWAP1 POP JUMP JUMPDEST PUSH2 0x5C1D DUP3 PUSH2 0x354F JUMP JUMPDEST PUSH8 0xFFFFFFFFFFFFFFFF DUP2 GT ISZERO PUSH2 0x5C36 JUMPI PUSH2 0x5C35 PUSH2 0x3DA7 JUMP JUMPDEST JUMPDEST PUSH2 0x5C40 DUP3 SLOAD PUSH2 0x47F5 JUMP JUMPDEST PUSH2 0x5C4B DUP3 DUP3 DUP6 PUSH2 0x4AD5 JUMP JUMPDEST PUSH1 0x0 PUSH1 0x20 SWAP1 POP PUSH1 0x1F DUP4 GT PUSH1 0x1 DUP2 EQ PUSH2 0x5C7E JUMPI PUSH1 0x0 DUP5 ISZERO PUSH2 0x5C6C JUMPI DUP3 DUP8 ADD MLOAD SWAP1 POP JUMPDEST PUSH2 0x5C76 DUP6 DUP3 PUSH2 0x4B46 JUMP JUMPDEST DUP7 SSTORE POP PUSH2 0x5CDE JUMP JUMPDEST PUSH1 0x1F NOT DUP5 AND PUSH2 0x5C8C DUP7 PUSH2 0x49B6 JUMP JUMPDEST PUSH1 0x0 JUMPDEST DUP3 DUP2 LT ISZERO PUSH2 0x5CB4 JUMPI DUP5 DUP10 ADD MLOAD DUP3 SSTORE PUSH1 0x1 DUP3 ADD SWAP2 POP PUSH1 0x20 DUP6 ADD SWAP5 POP PUSH1 0x20 DUP2 ADD SWAP1 POP PUSH2 0x5C8F JUMP JUMPDEST DUP7 DUP4 LT ISZERO PUSH2 0x5CD1 JUMPI DUP5 DUP10 ADD MLOAD PUSH2 0x5CCD PUSH1 0x1F DUP10 AND DUP3 PUSH2 0x4B28 JUMP JUMPDEST DUP4 SSTORE POP JUMPDEST PUSH1 0x1 PUSH1 0x2 DUP9 MUL ADD DUP9 SSTORE POP POP POP JUMPDEST POP POP POP POP POP POP JUMP JUMPDEST PUSH1 0x0 DUP2 MLOAD SWAP1 POP PUSH2 0x5CF5 DUP2 PUSH2 0x33EB JUMP JUMPDEST SWAP3 SWAP2 POP POP JUMP JUMPDEST PUSH1 0x0 PUSH1 0x20 DUP3 DUP5 SUB SLT ISZERO PUSH2 0x5D11 JUMPI PUSH2 0x5D10 PUSH2 0x33D7 JUMP JUMPDEST JUMPDEST PUSH1 0x0 PUSH2 0x5D1F DUP5 DUP3 DUP6 ADD PUSH2 0x5CE6 JUMP JUMPDEST SWAP2 POP POP SWAP3 SWAP2 POP POP JUMP JUMPDEST PUSH1 0x0 DUP2 MLOAD SWAP1 POP SWAP2 SWAP1 POP JUMP JUMPDEST PUSH1 0x0 DUP2 SWAP1 POP SWAP3 SWAP2 POP POP JUMP JUMPDEST PUSH1 0x0 PUSH2 0x5D49 DUP3 PUSH2 0x5D28 JUMP JUMPDEST PUSH2 0x5D53 DUP2 DUP6 PUSH2 0x5D33 JUMP JUMPDEST SWAP4 POP PUSH2 0x5D63 DUP2 DUP6 PUSH1 0x20 DUP7 ADD PUSH2 0x356B JUMP JUMPDEST DUP1 DUP5 ADD SWAP2 POP POP SWAP3 SWAP2 POP POP JUMP JUMPDEST PUSH1 0x0 PUSH2 0x5D7B DUP3 DUP5 PUSH2 0x5D3E JUMP JUMPDEST SWAP2 POP DUP2 SWAP1 POP SWAP3 SWAP2 POP POP JUMP INVALID LOG2 PUSH5 0x6970667358 0x22 SLT KECCAK256 0xBF 0xE6 SMOD SELFBALANCE SWAP1 SWAP12 0x21 0x29 PUSH25 0x7CA5D0D7D5C9C7969187448353C6B4B345AE117A81E3706473 PUSH16 0x6C634300081800330000000000000000 "},"methodIdentifiers":{"NewProposal((uint8,uint8,uint256,uint256,uint8,(bool,uint256,uint256,uint256,uint256,uint256,uint256,uint256)),(uint8,uint256,bytes32,string),string,bytes32,bytes32,bytes32,bytes32)":"c5b05e5d","SetProposalCensus(bytes32,(uint8,uint256,bytes32,string))":"c4a6ec9a","SetProposalDuration(bytes32,uint256)":"16b407d9","SetProposalResult(bytes32,uint256[][],bytes)":"bd83d99a","SetProposalStatus(bytes32,uint8)":"44fd129b","UPGRADE_INTERFACE_VERSION()":"ad3cb1cc","chainID()":"adc879e9","endProposal(bytes32)":"b3b47061","getProposal(bytes32)":"430694cf","initialize(string,address)":"7ab4339d","organizationRegistry()":"8cafab7f","owner()":"8da5cb5b","proposalCount()":"da35c664","proposals(bytes32)":"32ed5b12","proxiableUUID()":"52d1902d","renounceOwnership()":"715018a6","submitStateTransition(bytes32,bytes32,bytes32,bytes)":"b66ba6eb","transferOwnership(address)":"f2fde38b","upgradeToAndCall(address,bytes)":"4f1ef286"}}}}}