{"src/OrganizationRegistry.sol":{"OrganizationRegistry":{"abi":[{"inputs":[],"stateMutability":"nonpayable","type":"constructor"},{"inputs":[],"name":"AlreadyAdministrator","type":"error"},{"inputs":[],"name":"InvalidAddress","type":"error"},{"inputs":[],"name":"InvalidMetadataURI","type":"error"},{"inputs":[],"name":"InvalidOrganizationID","type":"error"},{"inputs":[],"name":"InvalidOrganizationName","type":"error"},{"inputs":[],"name":"NotAdministrator","type":"error"},{"inputs":[],"name":"OrganizationAlreadyExists","type":"error"},{"inputs":[],"name":"OrganizationNotFound","type":"error"},{"inputs":[{"internalType":"address","name":"owner","type":"address"}],"name":"OwnableInvalidOwner","type":"error"},{"inputs":[{"internalType":"address","name":"account","type":"address"}],"name":"OwnableUnauthorizedAccount","type":"error"},{"inputs":[],"name":"Unauthorized","type":"error"},{"anonymous":false,"inputs":[{"indexed":true,"internalType":"address","name":"id","type":"address"},{"indexed":true,"internalType":"address","name":"administrator","type":"address"}],"name":"AdministratorAdded","type":"event"},{"anonymous":false,"inputs":[{"indexed":true,"internalType":"address","name":"id","type":"address"},{"indexed":true,"internalType":"address","name":"administrator","type":"address"},{"indexed":true,"internalType":"address","name":"remover","type":"address"}],"name":"AdministratorRemoved","type":"event"},{"anonymous":false,"inputs":[{"indexed":true,"internalType":"address","name":"id","type":"address"}],"name":"OrganizationCreated","type":"event"},{"anonymous":false,"inputs":[{"indexed":true,"internalType":"address","name":"id","type":"address"},{"indexed":true,"internalType":"address","name":"updater","type":"address"}],"name":"OrganizationUpdated","type":"event"},{"anonymous":false,"inputs":[{"indexed":true,"internalType":"address","name":"previousOwner","type":"address"},{"indexed":true,"internalType":"address","name":"newOwner","type":"address"}],"name":"OwnershipTransferred","type":"event"},{"inputs":[{"internalType":"address","name":"id","type":"address"},{"internalType":"address","name":"administrator","type":"address"}],"name":"addAdministrator","outputs":[],"stateMutability":"nonpayable","type":"function"},{"inputs":[{"internalType":"string","name":"name","type":"string"},{"internalType":"string","name":"metadataURI","type":"string"},{"internalType":"address[]","name":"administrators","type":"address[]"}],"name":"createOrganization","outputs":[],"stateMutability":"nonpayable","type":"function"},{"inputs":[{"internalType":"address","name":"id","type":"address"}],"name":"deleteOrganization","outputs":[],"stateMutability":"nonpayable","type":"function"},{"inputs":[{"internalType":"address","name":"id","type":"address"}],"name":"exists","outputs":[{"internalType":"bool","name":"","type":"bool"}],"stateMutability":"view","type":"function"},{"inputs":[{"internalType":"address","name":"id","type":"address"}],"name":"getOrganization","outputs":[{"components":[{"internalType":"string","name":"name","type":"string"},{"internalType":"string","name":"metadataURI","type":"string"},{"internalType":"address[]","name":"administrators","type":"address[]"}],"internalType":"struct IOrganizationRegistry.Organization","name":"","type":"tuple"}],"stateMutability":"view","type":"function"},{"inputs":[{"internalType":"address","name":"id","type":"address"},{"internalType":"address","name":"account","type":"address"}],"name":"isAdministrator","outputs":[{"internalType":"bool","name":"","type":"bool"}],"stateMutability":"view","type":"function"},{"inputs":[],"name":"organizationCount","outputs":[{"internalType":"uint32","name":"","type":"uint32"}],"stateMutability":"view","type":"function"},{"inputs":[{"internalType":"address","name":"","type":"address"}],"name":"organizations","outputs":[{"internalType":"string","name":"name","type":"string"},{"internalType":"string","name":"metadataURI","type":"string"}],"stateMutability":"view","type":"function"},{"inputs":[],"name":"owner","outputs":[{"internalType":"address","name":"","type":"address"}],"stateMutability":"view","type":"function"},{"inputs":[{"internalType":"address","name":"id","type":"address"},{"internalType":"address","name":"administrator","type":"address"}],"name":"removeAdministrator","outputs":[],"stateMutability":"nonpayable","type":"function"},{"inputs":[],"name":"renounceOwnership","outputs":[],"stateMutability":"nonpayable","type":"function"},{"inputs":[{"internalType":"address","name":"newOwner","type":"address"}],"name":"transferOwnership","outputs":[],"stateMutability":"nonpayable","type":"function"},{"inputs":[{"internalType":"address","name":"id","type":"address"},{"internalType":"string","name":"name","type":"string"},{"internalType":"string","name":"metadataURI","type":"string"}],"name":"updateOrganization","outputs":[],"stateMutability":"nonpayable","type":"function"}],"evm":{"bytecode":{"linkReferences":{},"object":"608080604052346071573315605e575f8054336001600160a01b0319821681178355916001600160a01b03909116907f8be0079c531659141344cd1fd0a4f28419497f9722a3daafe3b4186f6b6457e09080a36111af90816100768239f35b631e4fbdf760e01b5f525f60045260245ffd5b5f80fdfe60806040526004361015610011575f80fd5b5f3560e01c80631c2e3d8214610cd85780633c10eee514610b485780635a1f740614610ada5780636cca67bf14610810578063715018a6146107b957806375f1373f146103e35780637acbb8af146102fb5780638da5cb5b146102d4578063c1af6e031461029e578063d2c30a6d14610196578063f1c6210414610173578063f2fde38b146100ee5763f6a3d24e146100a8575f80fd5b346100ea5760203660031901126100ea576001600160a01b036100c9610dbc565b165f52600160205260206100e060405f2054610de8565b1515604051908152f35b5f80fd5b346100ea5760203660031901126100ea57610107610dbc565b61010f611153565b6001600160a01b03168015610160575f80546001600160a01b03198116831782556001600160a01b0316907f8be0079c531659141344cd1fd0a4f28419497f9722a3daafe3b4186f6b6457e09080a3005b631e4fbdf760e01b5f525f60045260245ffd5b346100ea575f3660031901126100ea57602063ffffffff60025416604051908152f35b346100ea5760203660031901126100ea576101af610dbc565b6060604080516101be81610e20565b828152826020820152015260018060a01b03165f52600160205261023d60405f20604051906101ec82610e20565b6101f581610e5c565b8252610250610219600261020b60018501610e5c565b936020860194855201611026565b91604084019283526040519485946020865251606060208701526080860190610efc565b9051848203601f19016040860152610efc565b905190601f19838203016060840152602080835192838152019201905f5b81811061027c575050500390f35b82516001600160a01b031684528594506020938401939092019160010161026e565b346100ea5760403660031901126100ea5760206102ca6102bc610dbc565b6102c4610dd2565b90611077565b6040519015158152f35b346100ea575f3660031901126100ea575f546040516001600160a01b039091168152602090f35b346100ea5760203660031901126100ea576001600160a01b0361031c610dbc565b16805f52600160205261033260405f2054610de8565b156103d4578033036103c6575f526001602052600260405f2061035481610fd8565b61036060018201610fd8565b0180545f8255806103ac575b505060025463ffffffff811680156103985763ffffffff199091165f1990910163ffffffff1617600255005b634e487b7160e01b5f52601160045260245ffd5b6103bf915f5260205f2090810190610f9e565b808061036c565b6282b42960e81b5f5260045ffd5b639551f8b360e01b5f5260045ffd5b346100ea5760603660031901126100ea576004356001600160401b0381116100ea57610413903690600401610f20565b906024356001600160401b0381116100ea57610433903690600401610f20565b90604435916001600160401b0383116100ea57366023840112156100ea578260040135946001600160401b0386116100ea576024840193602436918860051b0101116100ea5780156107aa57335f52600160205261049460405f2054610de8565b61079b57335f52600160205260405f20946001600160401b0382116106e8576104bd8654610de8565b601f811161076b575b505f90601f8311600114610707576104f592915f91836106fc575b50508160011b915f199060031b1c19161790565b84555b60018401916001600160401b0382116106e8576105158354610de8565b601f81116106ad575b505f90601f83116001146106495761054c92915f918361063e5750508160011b915f199060031b1c19161790565b90555b826105b7575b5061056591506002339101610f76565b60025463ffffffff811663ffffffff811461039857600163ffffffff9101169063ffffffff191617600255337f47b688936cae1ca5de00ac709e05309381fb9f18b4c5adb358a5b542ce67caea5f80a2005b60028201905f5b8481106105cc575050610555565b6001600160a01b036105e76105e2838886610fb4565b610fc4565b161561062f57600190336001600160a01b036106076105e2848a88610fb4565b161461062a5761062461061e6105e2838987610fb4565b85610f76565b016105be565b610624565b63e6c4247b60e01b5f5260045ffd5b0135905087806104e1565b601f19831691845f5260205f20925f5b818110610695575090846001959493921061067c575b505050811b01905561054f565b01355f19600384901b60f8161c1916905586808061066f565b91936020600181928787013581550195019201610659565b6106d890845f5260205f20601f850160051c810191602086106106de575b601f0160051c0190610f9e565b8661051e565b90915081906106cb565b634e487b7160e01b5f52604160045260245ffd5b0135905088806104e1565b601f19831691875f5260205f20925f5b818110610753575090846001959493921061073a575b505050811b0184556104f8565b01355f19600384901b60f8161c1916905587808061072d565b91936020600181928787013581550195019201610717565b61079590875f5260205f20601f850160051c810191602086106106de57601f0160051c0190610f9e565b876104c6565b6369c24f0b60e01b5f5260045ffd5b631b0b678d60e31b5f5260045ffd5b346100ea575f3660031901126100ea576107d1611153565b5f80546001600160a01b0319811682556001600160a01b03167f8be0079c531659141344cd1fd0a4f28419497f9722a3daafe3b4186f6b6457e08280a3005b346100ea5760603660031901126100ea57610829610dbc565b6024356001600160401b0381116100ea57610848903690600401610f20565b906044356001600160401b0381116100ea57610868903690600401610f20565b919093610874816110f6565b15610acb5783156107aa578215610abc5760018060a01b031692835f5260016020526108a360405f2054610de8565b156103d457835f52600160205260405f20916001600160401b0382116106e8576108cd8354610de8565b601f8111610a8c575b505f90601f8311600114610a2557918061090892600195945f926106fc5750508160011b915f199060031b1c19161790565b81555b01906001600160401b0381116106e8576109258254610de8565b601f81116109f5575b505f601f821160011461099357819061095d9394955f926109885750508160011b915f199060031b1c19161790565b90555b33907fdcd663553eb7f5f57b83637c17d95d22a764affd6dbcc98f8ce9dcbac3e239f65f80a3005b0135905085806104e1565b601f19821694835f5260205f20915f5b8781106109dd5750836001959697106109c4575b505050811b019055610960565b01355f19600384901b60f8161c191690558480806109b7565b909260206001819286860135815501940191016109a3565b610a1f90835f5260205f20601f840160051c810191602085106106de57601f0160051c0190610f9e565b8461092e565b601f19831691845f5260205f20925f5b818110610a745750916001959492918387959310610a5b575b505050811b01815561090b565b01355f19600384901b60f8161c19169055878080610a4e565b91936020600181928787013581550195019201610a35565b610ab690845f5260205f20601f850160051c810191602086106106de57601f0160051c0190610f9e565b866108d6565b630eec403f60e41b5f5260045ffd5b63e85bbb2160e01b5f5260045ffd5b346100ea5760203660031901126100ea576001600160a01b03610afb610dbc565b165f526001602052610b3660405f20610b44610b226001610b1b84610e5c565b9301610e5c565b604051938493604085526040850190610efc565b908382036020850152610efc565b0390f35b346100ea5760403660031901126100ea57610b61610dbc565b610b69610dd2565b610b72826110f6565b15610acb576001600160a01b039091169033829003610cd1575b815f526001602052610ba160405f2054610de8565b156103d4576001600160a01b0316801561062f575f90825f526001602052600260405f20015f5b815480821015610cc85783610bdd8385610f4d565b905460039190911b1c6001600160a01b031614610bfd5750600101610bc8565b9293506001925f1981019190821161039857610c38610c1f610c5c9385610f4d565b905460039190911b1c6001600160a01b03169184610f4d565b81546001600160a01b0393841660039290921b91821b9390911b1916919091179055565b80548015610cb4575f190190610c728282610f4d565b81549060018060a01b039060031b1b19169055555b15610acb5733917f9312053150f18090e219209afedf7c42617a23f1202a19d2289891a2aa6d7fd75f80a4005b634e487b7160e01b5f52603160045260245ffd5b50505090610c87565b5033610b8c565b346100ea5760403660031901126100ea57610cf1610dbc565b610cf9610dd2565b906001600160a01b0316338190036103c657805f526001602052610d2060405f2054610de8565b156103d4576001600160a01b03821690811561062f575f818152600160205260408120600201805494915b858110610d83575090610d5d91610f76565b7fa2f792d5cab45450daed47916f25d9bd3443d275c51ecbccfbeb727a3b4eda0e5f80a3005b84610d8e8284610f4d565b905460039190911b1c6001600160a01b031614610dad57600101610d4b565b63b598ce3d60e01b5f5260045ffd5b600435906001600160a01b03821682036100ea57565b602435906001600160a01b03821682036100ea57565b90600182811c92168015610e16575b6020831014610e0257565b634e487b7160e01b5f52602260045260245ffd5b91607f1691610df7565b606081019081106001600160401b038211176106e857604052565b90601f801991011681019081106001600160401b038211176106e857604052565b9060405191825f825492610e6f84610de8565b8084529360018116908115610eda5750600114610e96575b50610e9492500383610e3b565b565b90505f9291925260205f20905f915b818310610ebe575050906020610e94928201015f610e87565b6020919350806001915483858901015201910190918492610ea5565b905060209250610e9494915060ff191682840152151560051b8201015f610e87565b805180835260209291819084018484015e5f828201840152601f01601f1916010190565b9181601f840112156100ea578235916001600160401b0383116100ea57602083818601950101116100ea57565b8054821015610f62575f5260205f2001905f90565b634e487b7160e01b5f52603260045260245ffd5b90815491680100000000000000008310156106e85782610c38916001610e9495018155610f4d565b818110610fa9575050565b5f8155600101610f9e565b9190811015610f625760051b0190565b356001600160a01b03811681036100ea5790565b610fe28154610de8565b9081610fec575050565b81601f5f9311600114610ffd575055565b8183526020832061101991601f0160051c810190600101610f9e565b8082528160208120915555565b90604051918281549182825260208201905f5260205f20925f5b818110611055575050610e9492500383610e3b565b84546001600160a01b0316835260019485019487945060209093019201611040565b6001600160a01b03165f8181526001602052604090205461109790610de8565b156103d4575f5260016020526110b2600260405f2001611026565b805191905f5b838110156110ee57600581901b8201602001516001600160a01b038481169116146110e5576001016110b8565b50505050600190565b505050505f90565b6001600160a01b03165f9081526001602052604081206002018054915b828110611121575050505f90565b61112b8183610f4d565b905460039190911b1c6001600160a01b0316331461114b57600101611113565b505050600190565b5f546001600160a01b0316330361116657565b63118cdaa760e01b5f523360045260245ffdfea264697066735822122073810d6a4817d363ec19d318f1b8972f0a698de18c1f9332b367c4c4173e8f7664736f6c634300081c0033","opcodes":"PUSH1 0x80 DUP1 PUSH1 0x40 MSTORE CALLVALUE PUSH1 0x71 JUMPI CALLER ISZERO PUSH1 0x5E JUMPI PUSH0 DUP1 SLOAD CALLER PUSH1 0x1 PUSH1 0x1 PUSH1 0xA0 SHL SUB NOT DUP3 AND DUP2 OR DUP4 SSTORE SWAP2 PUSH1 0x1 PUSH1 0x1 PUSH1 0xA0 SHL SUB SWAP1 SWAP2 AND SWAP1 PUSH32 0x8BE0079C531659141344CD1FD0A4F28419497F9722A3DAAFE3B4186F6B6457E0 SWAP1 DUP1 LOG3 PUSH2 0x11AF SWAP1 DUP2 PUSH2 0x76 DUP3 CODECOPY RETURN JUMPDEST PUSH4 0x1E4FBDF7 PUSH1 0xE0 SHL PUSH0 MSTORE PUSH0 PUSH1 0x4 MSTORE PUSH1 0x24 PUSH0 REVERT JUMPDEST PUSH0 DUP1 REVERT INVALID PUSH1 0x80 PUSH1 0x40 MSTORE PUSH1 0x4 CALLDATASIZE LT ISZERO PUSH2 0x11 JUMPI PUSH0 DUP1 REVERT JUMPDEST PUSH0 CALLDATALOAD PUSH1 0xE0 SHR DUP1 PUSH4 0x1C2E3D82 EQ PUSH2 0xCD8 JUMPI DUP1 PUSH4 0x3C10EEE5 EQ PUSH2 0xB48 JUMPI DUP1 PUSH4 0x5A1F7406 EQ PUSH2 0xADA JUMPI DUP1 PUSH4 0x6CCA67BF EQ PUSH2 0x810 JUMPI DUP1 PUSH4 0x715018A6 EQ PUSH2 0x7B9 JUMPI DUP1 PUSH4 0x75F1373F EQ PUSH2 0x3E3 JUMPI DUP1 PUSH4 0x7ACBB8AF EQ PUSH2 0x2FB JUMPI DUP1 PUSH4 0x8DA5CB5B EQ PUSH2 0x2D4 JUMPI DUP1 PUSH4 0xC1AF6E03 EQ PUSH2 0x29E JUMPI DUP1 PUSH4 0xD2C30A6D EQ PUSH2 0x196 JUMPI DUP1 PUSH4 0xF1C62104 EQ PUSH2 0x173 JUMPI DUP1 PUSH4 0xF2FDE38B EQ PUSH2 0xEE JUMPI PUSH4 0xF6A3D24E EQ PUSH2 0xA8 JUMPI PUSH0 DUP1 REVERT JUMPDEST CALLVALUE PUSH2 0xEA JUMPI PUSH1 0x20 CALLDATASIZE PUSH1 0x3 NOT ADD SLT PUSH2 0xEA JUMPI PUSH1 0x1 PUSH1 0x1 PUSH1 0xA0 SHL SUB PUSH2 0xC9 PUSH2 0xDBC JUMP JUMPDEST AND PUSH0 MSTORE PUSH1 0x1 PUSH1 0x20 MSTORE PUSH1 0x20 PUSH2 0xE0 PUSH1 0x40 PUSH0 KECCAK256 SLOAD PUSH2 0xDE8 JUMP JUMPDEST ISZERO ISZERO PUSH1 0x40 MLOAD SWAP1 DUP2 MSTORE RETURN JUMPDEST PUSH0 DUP1 REVERT JUMPDEST CALLVALUE PUSH2 0xEA JUMPI PUSH1 0x20 CALLDATASIZE PUSH1 0x3 NOT ADD SLT PUSH2 0xEA JUMPI PUSH2 0x107 PUSH2 0xDBC JUMP JUMPDEST PUSH2 0x10F PUSH2 0x1153 JUMP JUMPDEST PUSH1 0x1 PUSH1 0x1 PUSH1 0xA0 SHL SUB AND DUP1 ISZERO PUSH2 0x160 JUMPI PUSH0 DUP1 SLOAD PUSH1 0x1 PUSH1 0x1 PUSH1 0xA0 SHL SUB NOT DUP2 AND DUP4 OR DUP3 SSTORE PUSH1 0x1 PUSH1 0x1 PUSH1 0xA0 SHL SUB AND SWAP1 PUSH32 0x8BE0079C531659141344CD1FD0A4F28419497F9722A3DAAFE3B4186F6B6457E0 SWAP1 DUP1 LOG3 STOP JUMPDEST PUSH4 0x1E4FBDF7 PUSH1 0xE0 SHL PUSH0 MSTORE PUSH0 PUSH1 0x4 MSTORE PUSH1 0x24 PUSH0 REVERT JUMPDEST CALLVALUE PUSH2 0xEA JUMPI PUSH0 CALLDATASIZE PUSH1 0x3 NOT ADD SLT PUSH2 0xEA JUMPI PUSH1 0x20 PUSH4 0xFFFFFFFF PUSH1 0x2 SLOAD AND PUSH1 0x40 MLOAD SWAP1 DUP2 MSTORE RETURN JUMPDEST CALLVALUE PUSH2 0xEA JUMPI PUSH1 0x20 CALLDATASIZE PUSH1 0x3 NOT ADD SLT PUSH2 0xEA JUMPI PUSH2 0x1AF PUSH2 0xDBC JUMP JUMPDEST PUSH1 0x60 PUSH1 0x40 DUP1 MLOAD PUSH2 0x1BE DUP2 PUSH2 0xE20 JUMP JUMPDEST DUP3 DUP2 MSTORE DUP3 PUSH1 0x20 DUP3 ADD MSTORE ADD MSTORE PUSH1 0x1 DUP1 PUSH1 0xA0 SHL SUB AND PUSH0 MSTORE PUSH1 0x1 PUSH1 0x20 MSTORE PUSH2 0x23D PUSH1 0x40 PUSH0 KECCAK256 PUSH1 0x40 MLOAD SWAP1 PUSH2 0x1EC DUP3 PUSH2 0xE20 JUMP JUMPDEST PUSH2 0x1F5 DUP2 PUSH2 0xE5C JUMP JUMPDEST DUP3 MSTORE PUSH2 0x250 PUSH2 0x219 PUSH1 0x2 PUSH2 0x20B PUSH1 0x1 DUP6 ADD PUSH2 0xE5C JUMP JUMPDEST SWAP4 PUSH1 0x20 DUP7 ADD SWAP5 DUP6 MSTORE ADD PUSH2 0x1026 JUMP JUMPDEST SWAP2 PUSH1 0x40 DUP5 ADD SWAP3 DUP4 MSTORE PUSH1 0x40 MLOAD SWAP5 DUP6 SWAP5 PUSH1 0x20 DUP7 MSTORE MLOAD PUSH1 0x60 PUSH1 0x20 DUP8 ADD MSTORE PUSH1 0x80 DUP7 ADD SWAP1 PUSH2 0xEFC JUMP JUMPDEST SWAP1 MLOAD DUP5 DUP3 SUB PUSH1 0x1F NOT ADD PUSH1 0x40 DUP7 ADD MSTORE PUSH2 0xEFC JUMP JUMPDEST SWAP1 MLOAD SWAP1 PUSH1 0x1F NOT DUP4 DUP3 SUB ADD PUSH1 0x60 DUP5 ADD MSTORE PUSH1 0x20 DUP1 DUP4 MLOAD SWAP3 DUP4 DUP2 MSTORE ADD SWAP3 ADD SWAP1 PUSH0 JUMPDEST DUP2 DUP2 LT PUSH2 0x27C JUMPI POP POP POP SUB SWAP1 RETURN JUMPDEST DUP3 MLOAD PUSH1 0x1 PUSH1 0x1 PUSH1 0xA0 SHL SUB AND DUP5 MSTORE DUP6 SWAP5 POP PUSH1 0x20 SWAP4 DUP5 ADD SWAP4 SWAP1 SWAP3 ADD SWAP2 PUSH1 0x1 ADD PUSH2 0x26E JUMP JUMPDEST CALLVALUE PUSH2 0xEA JUMPI PUSH1 0x40 CALLDATASIZE PUSH1 0x3 NOT ADD SLT PUSH2 0xEA JUMPI PUSH1 0x20 PUSH2 0x2CA PUSH2 0x2BC PUSH2 0xDBC JUMP JUMPDEST PUSH2 0x2C4 PUSH2 0xDD2 JUMP JUMPDEST SWAP1 PUSH2 0x1077 JUMP JUMPDEST PUSH1 0x40 MLOAD SWAP1 ISZERO ISZERO DUP2 MSTORE RETURN JUMPDEST CALLVALUE PUSH2 0xEA JUMPI PUSH0 CALLDATASIZE PUSH1 0x3 NOT ADD SLT PUSH2 0xEA JUMPI PUSH0 SLOAD PUSH1 0x40 MLOAD PUSH1 0x1 PUSH1 0x1 PUSH1 0xA0 SHL SUB SWAP1 SWAP2 AND DUP2 MSTORE PUSH1 0x20 SWAP1 RETURN JUMPDEST CALLVALUE PUSH2 0xEA JUMPI PUSH1 0x20 CALLDATASIZE PUSH1 0x3 NOT ADD SLT PUSH2 0xEA JUMPI PUSH1 0x1 PUSH1 0x1 PUSH1 0xA0 SHL SUB PUSH2 0x31C PUSH2 0xDBC JUMP JUMPDEST AND DUP1 PUSH0 MSTORE PUSH1 0x1 PUSH1 0x20 MSTORE PUSH2 0x332 PUSH1 0x40 PUSH0 KECCAK256 SLOAD PUSH2 0xDE8 JUMP JUMPDEST ISZERO PUSH2 0x3D4 JUMPI DUP1 CALLER SUB PUSH2 0x3C6 JUMPI PUSH0 MSTORE PUSH1 0x1 PUSH1 0x20 MSTORE PUSH1 0x2 PUSH1 0x40 PUSH0 KECCAK256 PUSH2 0x354 DUP2 PUSH2 0xFD8 JUMP JUMPDEST PUSH2 0x360 PUSH1 0x1 DUP3 ADD PUSH2 0xFD8 JUMP JUMPDEST ADD DUP1 SLOAD PUSH0 DUP3 SSTORE DUP1 PUSH2 0x3AC JUMPI JUMPDEST POP POP PUSH1 0x2 SLOAD PUSH4 0xFFFFFFFF DUP2 AND DUP1 ISZERO PUSH2 0x398 JUMPI PUSH4 0xFFFFFFFF NOT SWAP1 SWAP2 AND PUSH0 NOT SWAP1 SWAP2 ADD PUSH4 0xFFFFFFFF AND OR PUSH1 0x2 SSTORE STOP JUMPDEST PUSH4 0x4E487B71 PUSH1 0xE0 SHL PUSH0 MSTORE PUSH1 0x11 PUSH1 0x4 MSTORE PUSH1 0x24 PUSH0 REVERT JUMPDEST PUSH2 0x3BF SWAP2 PUSH0 MSTORE PUSH1 0x20 PUSH0 KECCAK256 SWAP1 DUP2 ADD SWAP1 PUSH2 0xF9E JUMP JUMPDEST DUP1 DUP1 PUSH2 0x36C JUMP JUMPDEST PUSH3 0x82B429 PUSH1 0xE8 SHL PUSH0 MSTORE PUSH1 0x4 PUSH0 REVERT JUMPDEST PUSH4 0x9551F8B3 PUSH1 0xE0 SHL PUSH0 MSTORE PUSH1 0x4 PUSH0 REVERT JUMPDEST CALLVALUE PUSH2 0xEA JUMPI PUSH1 0x60 CALLDATASIZE PUSH1 0x3 NOT ADD SLT PUSH2 0xEA JUMPI PUSH1 0x4 CALLDATALOAD PUSH1 0x1 PUSH1 0x1 PUSH1 0x40 SHL SUB DUP2 GT PUSH2 0xEA JUMPI PUSH2 0x413 SWAP1 CALLDATASIZE SWAP1 PUSH1 0x4 ADD PUSH2 0xF20 JUMP JUMPDEST SWAP1 PUSH1 0x24 CALLDATALOAD PUSH1 0x1 PUSH1 0x1 PUSH1 0x40 SHL SUB DUP2 GT PUSH2 0xEA JUMPI PUSH2 0x433 SWAP1 CALLDATASIZE SWAP1 PUSH1 0x4 ADD PUSH2 0xF20 JUMP JUMPDEST SWAP1 PUSH1 0x44 CALLDATALOAD SWAP2 PUSH1 0x1 PUSH1 0x1 PUSH1 0x40 SHL SUB DUP4 GT PUSH2 0xEA JUMPI CALLDATASIZE PUSH1 0x23 DUP5 ADD SLT ISZERO PUSH2 0xEA JUMPI DUP3 PUSH1 0x4 ADD CALLDATALOAD SWAP5 PUSH1 0x1 PUSH1 0x1 PUSH1 0x40 SHL SUB DUP7 GT PUSH2 0xEA JUMPI PUSH1 0x24 DUP5 ADD SWAP4 PUSH1 0x24 CALLDATASIZE SWAP2 DUP9 PUSH1 0x5 SHL ADD ADD GT PUSH2 0xEA JUMPI DUP1 ISZERO PUSH2 0x7AA JUMPI CALLER PUSH0 MSTORE PUSH1 0x1 PUSH1 0x20 MSTORE PUSH2 0x494 PUSH1 0x40 PUSH0 KECCAK256 SLOAD PUSH2 0xDE8 JUMP JUMPDEST PUSH2 0x79B JUMPI CALLER PUSH0 MSTORE PUSH1 0x1 PUSH1 0x20 MSTORE PUSH1 0x40 PUSH0 KECCAK256 SWAP5 PUSH1 0x1 PUSH1 0x1 PUSH1 0x40 SHL SUB DUP3 GT PUSH2 0x6E8 JUMPI PUSH2 0x4BD DUP7 SLOAD PUSH2 0xDE8 JUMP JUMPDEST PUSH1 0x1F DUP2 GT PUSH2 0x76B JUMPI JUMPDEST POP PUSH0 SWAP1 PUSH1 0x1F DUP4 GT PUSH1 0x1 EQ PUSH2 0x707 JUMPI PUSH2 0x4F5 SWAP3 SWAP2 PUSH0 SWAP2 DUP4 PUSH2 0x6FC JUMPI JUMPDEST POP POP DUP2 PUSH1 0x1 SHL SWAP2 PUSH0 NOT SWAP1 PUSH1 0x3 SHL SHR NOT AND OR SWAP1 JUMP JUMPDEST DUP5 SSTORE JUMPDEST PUSH1 0x1 DUP5 ADD SWAP2 PUSH1 0x1 PUSH1 0x1 PUSH1 0x40 SHL SUB DUP3 GT PUSH2 0x6E8 JUMPI PUSH2 0x515 DUP4 SLOAD PUSH2 0xDE8 JUMP JUMPDEST PUSH1 0x1F DUP2 GT PUSH2 0x6AD JUMPI JUMPDEST POP PUSH0 SWAP1 PUSH1 0x1F DUP4 GT PUSH1 0x1 EQ PUSH2 0x649 JUMPI PUSH2 0x54C SWAP3 SWAP2 PUSH0 SWAP2 DUP4 PUSH2 0x63E JUMPI POP POP DUP2 PUSH1 0x1 SHL SWAP2 PUSH0 NOT SWAP1 PUSH1 0x3 SHL SHR NOT AND OR SWAP1 JUMP JUMPDEST SWAP1 SSTORE JUMPDEST DUP3 PUSH2 0x5B7 JUMPI JUMPDEST POP PUSH2 0x565 SWAP2 POP PUSH1 0x2 CALLER SWAP2 ADD PUSH2 0xF76 JUMP JUMPDEST PUSH1 0x2 SLOAD PUSH4 0xFFFFFFFF DUP2 AND PUSH4 0xFFFFFFFF DUP2 EQ PUSH2 0x398 JUMPI PUSH1 0x1 PUSH4 0xFFFFFFFF SWAP2 ADD AND SWAP1 PUSH4 0xFFFFFFFF NOT AND OR PUSH1 0x2 SSTORE CALLER PUSH32 0x47B688936CAE1CA5DE00AC709E05309381FB9F18B4C5ADB358A5B542CE67CAEA PUSH0 DUP1 LOG2 STOP JUMPDEST PUSH1 0x2 DUP3 ADD SWAP1 PUSH0 JUMPDEST DUP5 DUP2 LT PUSH2 0x5CC JUMPI POP POP PUSH2 0x555 JUMP JUMPDEST PUSH1 0x1 PUSH1 0x1 PUSH1 0xA0 SHL SUB PUSH2 0x5E7 PUSH2 0x5E2 DUP4 DUP9 DUP7 PUSH2 0xFB4 JUMP JUMPDEST PUSH2 0xFC4 JUMP JUMPDEST AND ISZERO PUSH2 0x62F JUMPI PUSH1 0x1 SWAP1 CALLER PUSH1 0x1 PUSH1 0x1 PUSH1 0xA0 SHL SUB PUSH2 0x607 PUSH2 0x5E2 DUP5 DUP11 DUP9 PUSH2 0xFB4 JUMP JUMPDEST AND EQ PUSH2 0x62A JUMPI PUSH2 0x624 PUSH2 0x61E PUSH2 0x5E2 DUP4 DUP10 DUP8 PUSH2 0xFB4 JUMP JUMPDEST DUP6 PUSH2 0xF76 JUMP JUMPDEST ADD PUSH2 0x5BE JUMP JUMPDEST PUSH2 0x624 JUMP JUMPDEST PUSH4 0xE6C4247B PUSH1 0xE0 SHL PUSH0 MSTORE PUSH1 0x4 PUSH0 REVERT JUMPDEST ADD CALLDATALOAD SWAP1 POP DUP8 DUP1 PUSH2 0x4E1 JUMP JUMPDEST PUSH1 0x1F NOT DUP4 AND SWAP2 DUP5 PUSH0 MSTORE PUSH1 0x20 PUSH0 KECCAK256 SWAP3 PUSH0 JUMPDEST DUP2 DUP2 LT PUSH2 0x695 JUMPI POP SWAP1 DUP5 PUSH1 0x1 SWAP6 SWAP5 SWAP4 SWAP3 LT PUSH2 0x67C JUMPI JUMPDEST POP POP POP DUP2 SHL ADD SWAP1 SSTORE PUSH2 0x54F JUMP JUMPDEST ADD CALLDATALOAD PUSH0 NOT PUSH1 0x3 DUP5 SWAP1 SHL PUSH1 0xF8 AND SHR NOT AND SWAP1 SSTORE DUP7 DUP1 DUP1 PUSH2 0x66F JUMP JUMPDEST SWAP2 SWAP4 PUSH1 0x20 PUSH1 0x1 DUP2 SWAP3 DUP8 DUP8 ADD CALLDATALOAD DUP2 SSTORE ADD SWAP6 ADD SWAP3 ADD PUSH2 0x659 JUMP JUMPDEST PUSH2 0x6D8 SWAP1 DUP5 PUSH0 MSTORE PUSH1 0x20 PUSH0 KECCAK256 PUSH1 0x1F DUP6 ADD PUSH1 0x5 SHR DUP2 ADD SWAP2 PUSH1 0x20 DUP7 LT PUSH2 0x6DE JUMPI JUMPDEST PUSH1 0x1F ADD PUSH1 0x5 SHR ADD SWAP1 PUSH2 0xF9E JUMP JUMPDEST DUP7 PUSH2 0x51E JUMP JUMPDEST SWAP1 SWAP2 POP DUP2 SWAP1 PUSH2 0x6CB JUMP JUMPDEST PUSH4 0x4E487B71 PUSH1 0xE0 SHL PUSH0 MSTORE PUSH1 0x41 PUSH1 0x4 MSTORE PUSH1 0x24 PUSH0 REVERT JUMPDEST ADD CALLDATALOAD SWAP1 POP DUP9 DUP1 PUSH2 0x4E1 JUMP JUMPDEST PUSH1 0x1F NOT DUP4 AND SWAP2 DUP8 PUSH0 MSTORE PUSH1 0x20 PUSH0 KECCAK256 SWAP3 PUSH0 JUMPDEST DUP2 DUP2 LT PUSH2 0x753 JUMPI POP SWAP1 DUP5 PUSH1 0x1 SWAP6 SWAP5 SWAP4 SWAP3 LT PUSH2 0x73A JUMPI JUMPDEST POP POP POP DUP2 SHL ADD DUP5 SSTORE PUSH2 0x4F8 JUMP JUMPDEST ADD CALLDATALOAD PUSH0 NOT PUSH1 0x3 DUP5 SWAP1 SHL PUSH1 0xF8 AND SHR NOT AND SWAP1 SSTORE DUP8 DUP1 DUP1 PUSH2 0x72D JUMP JUMPDEST SWAP2 SWAP4 PUSH1 0x20 PUSH1 0x1 DUP2 SWAP3 DUP8 DUP8 ADD CALLDATALOAD DUP2 SSTORE ADD SWAP6 ADD SWAP3 ADD PUSH2 0x717 JUMP JUMPDEST PUSH2 0x795 SWAP1 DUP8 PUSH0 MSTORE PUSH1 0x20 PUSH0 KECCAK256 PUSH1 0x1F DUP6 ADD PUSH1 0x5 SHR DUP2 ADD SWAP2 PUSH1 0x20 DUP7 LT PUSH2 0x6DE JUMPI PUSH1 0x1F ADD PUSH1 0x5 SHR ADD SWAP1 PUSH2 0xF9E JUMP JUMPDEST DUP8 PUSH2 0x4C6 JUMP JUMPDEST PUSH4 0x69C24F0B PUSH1 0xE0 SHL PUSH0 MSTORE PUSH1 0x4 PUSH0 REVERT JUMPDEST PUSH4 0x1B0B678D PUSH1 0xE3 SHL PUSH0 MSTORE PUSH1 0x4 PUSH0 REVERT JUMPDEST CALLVALUE PUSH2 0xEA JUMPI PUSH0 CALLDATASIZE PUSH1 0x3 NOT ADD SLT PUSH2 0xEA JUMPI PUSH2 0x7D1 PUSH2 0x1153 JUMP JUMPDEST PUSH0 DUP1 SLOAD PUSH1 0x1 PUSH1 0x1 PUSH1 0xA0 SHL SUB NOT DUP2 AND DUP3 SSTORE PUSH1 0x1 PUSH1 0x1 PUSH1 0xA0 SHL SUB AND PUSH32 0x8BE0079C531659141344CD1FD0A4F28419497F9722A3DAAFE3B4186F6B6457E0 DUP3 DUP1 LOG3 STOP JUMPDEST CALLVALUE PUSH2 0xEA JUMPI PUSH1 0x60 CALLDATASIZE PUSH1 0x3 NOT ADD SLT PUSH2 0xEA JUMPI PUSH2 0x829 PUSH2 0xDBC JUMP JUMPDEST PUSH1 0x24 CALLDATALOAD PUSH1 0x1 PUSH1 0x1 PUSH1 0x40 SHL SUB DUP2 GT PUSH2 0xEA JUMPI PUSH2 0x848 SWAP1 CALLDATASIZE SWAP1 PUSH1 0x4 ADD PUSH2 0xF20 JUMP JUMPDEST SWAP1 PUSH1 0x44 CALLDATALOAD PUSH1 0x1 PUSH1 0x1 PUSH1 0x40 SHL SUB DUP2 GT PUSH2 0xEA JUMPI PUSH2 0x868 SWAP1 CALLDATASIZE SWAP1 PUSH1 0x4 ADD PUSH2 0xF20 JUMP JUMPDEST SWAP2 SWAP1 SWAP4 PUSH2 0x874 DUP2 PUSH2 0x10F6 JUMP JUMPDEST ISZERO PUSH2 0xACB JUMPI DUP4 ISZERO PUSH2 0x7AA JUMPI DUP3 ISZERO PUSH2 0xABC JUMPI PUSH1 0x1 DUP1 PUSH1 0xA0 SHL SUB AND SWAP3 DUP4 PUSH0 MSTORE PUSH1 0x1 PUSH1 0x20 MSTORE PUSH2 0x8A3 PUSH1 0x40 PUSH0 KECCAK256 SLOAD PUSH2 0xDE8 JUMP JUMPDEST ISZERO PUSH2 0x3D4 JUMPI DUP4 PUSH0 MSTORE PUSH1 0x1 PUSH1 0x20 MSTORE PUSH1 0x40 PUSH0 KECCAK256 SWAP2 PUSH1 0x1 PUSH1 0x1 PUSH1 0x40 SHL SUB DUP3 GT PUSH2 0x6E8 JUMPI PUSH2 0x8CD DUP4 SLOAD PUSH2 0xDE8 JUMP JUMPDEST PUSH1 0x1F DUP2 GT PUSH2 0xA8C JUMPI JUMPDEST POP PUSH0 SWAP1 PUSH1 0x1F DUP4 GT PUSH1 0x1 EQ PUSH2 0xA25 JUMPI SWAP2 DUP1 PUSH2 0x908 SWAP3 PUSH1 0x1 SWAP6 SWAP5 PUSH0 SWAP3 PUSH2 0x6FC JUMPI POP POP DUP2 PUSH1 0x1 SHL SWAP2 PUSH0 NOT SWAP1 PUSH1 0x3 SHL SHR NOT AND OR SWAP1 JUMP JUMPDEST DUP2 SSTORE JUMPDEST ADD SWAP1 PUSH1 0x1 PUSH1 0x1 PUSH1 0x40 SHL SUB DUP2 GT PUSH2 0x6E8 JUMPI PUSH2 0x925 DUP3 SLOAD PUSH2 0xDE8 JUMP JUMPDEST PUSH1 0x1F DUP2 GT PUSH2 0x9F5 JUMPI JUMPDEST POP PUSH0 PUSH1 0x1F DUP3 GT PUSH1 0x1 EQ PUSH2 0x993 JUMPI DUP2 SWAP1 PUSH2 0x95D SWAP4 SWAP5 SWAP6 PUSH0 SWAP3 PUSH2 0x988 JUMPI POP POP DUP2 PUSH1 0x1 SHL SWAP2 PUSH0 NOT SWAP1 PUSH1 0x3 SHL SHR NOT AND OR SWAP1 JUMP JUMPDEST SWAP1 SSTORE JUMPDEST CALLER SWAP1 PUSH32 0xDCD663553EB7F5F57B83637C17D95D22A764AFFD6DBCC98F8CE9DCBAC3E239F6 PUSH0 DUP1 LOG3 STOP JUMPDEST ADD CALLDATALOAD SWAP1 POP DUP6 DUP1 PUSH2 0x4E1 JUMP JUMPDEST PUSH1 0x1F NOT DUP3 AND SWAP5 DUP4 PUSH0 MSTORE PUSH1 0x20 PUSH0 KECCAK256 SWAP2 PUSH0 JUMPDEST DUP8 DUP2 LT PUSH2 0x9DD JUMPI POP DUP4 PUSH1 0x1 SWAP6 SWAP7 SWAP8 LT PUSH2 0x9C4 JUMPI JUMPDEST POP POP POP DUP2 SHL ADD SWAP1 SSTORE PUSH2 0x960 JUMP JUMPDEST ADD CALLDATALOAD PUSH0 NOT PUSH1 0x3 DUP5 SWAP1 SHL PUSH1 0xF8 AND SHR NOT AND SWAP1 SSTORE DUP5 DUP1 DUP1 PUSH2 0x9B7 JUMP JUMPDEST SWAP1 SWAP3 PUSH1 0x20 PUSH1 0x1 DUP2 SWAP3 DUP7 DUP7 ADD CALLDATALOAD DUP2 SSTORE ADD SWAP5 ADD SWAP2 ADD PUSH2 0x9A3 JUMP JUMPDEST PUSH2 0xA1F SWAP1 DUP4 PUSH0 MSTORE PUSH1 0x20 PUSH0 KECCAK256 PUSH1 0x1F DUP5 ADD PUSH1 0x5 SHR DUP2 ADD SWAP2 PUSH1 0x20 DUP6 LT PUSH2 0x6DE JUMPI PUSH1 0x1F ADD PUSH1 0x5 SHR ADD SWAP1 PUSH2 0xF9E JUMP JUMPDEST DUP5 PUSH2 0x92E JUMP JUMPDEST PUSH1 0x1F NOT DUP4 AND SWAP2 DUP5 PUSH0 MSTORE PUSH1 0x20 PUSH0 KECCAK256 SWAP3 PUSH0 JUMPDEST DUP2 DUP2 LT PUSH2 0xA74 JUMPI POP SWAP2 PUSH1 0x1 SWAP6 SWAP5 SWAP3 SWAP2 DUP4 DUP8 SWAP6 SWAP4 LT PUSH2 0xA5B JUMPI JUMPDEST POP POP POP DUP2 SHL ADD DUP2 SSTORE PUSH2 0x90B JUMP JUMPDEST ADD CALLDATALOAD PUSH0 NOT PUSH1 0x3 DUP5 SWAP1 SHL PUSH1 0xF8 AND SHR NOT AND SWAP1 SSTORE DUP8 DUP1 DUP1 PUSH2 0xA4E JUMP JUMPDEST SWAP2 SWAP4 PUSH1 0x20 PUSH1 0x1 DUP2 SWAP3 DUP8 DUP8 ADD CALLDATALOAD DUP2 SSTORE ADD SWAP6 ADD SWAP3 ADD PUSH2 0xA35 JUMP JUMPDEST PUSH2 0xAB6 SWAP1 DUP5 PUSH0 MSTORE PUSH1 0x20 PUSH0 KECCAK256 PUSH1 0x1F DUP6 ADD PUSH1 0x5 SHR DUP2 ADD SWAP2 PUSH1 0x20 DUP7 LT PUSH2 0x6DE JUMPI PUSH1 0x1F ADD PUSH1 0x5 SHR ADD SWAP1 PUSH2 0xF9E JUMP JUMPDEST DUP7 PUSH2 0x8D6 JUMP JUMPDEST PUSH4 0xEEC403F PUSH1 0xE4 SHL PUSH0 MSTORE PUSH1 0x4 PUSH0 REVERT JUMPDEST PUSH4 0xE85BBB21 PUSH1 0xE0 SHL PUSH0 MSTORE PUSH1 0x4 PUSH0 REVERT JUMPDEST CALLVALUE PUSH2 0xEA JUMPI PUSH1 0x20 CALLDATASIZE PUSH1 0x3 NOT ADD SLT PUSH2 0xEA JUMPI PUSH1 0x1 PUSH1 0x1 PUSH1 0xA0 SHL SUB PUSH2 0xAFB PUSH2 0xDBC JUMP JUMPDEST AND PUSH0 MSTORE PUSH1 0x1 PUSH1 0x20 MSTORE PUSH2 0xB36 PUSH1 0x40 PUSH0 KECCAK256 PUSH2 0xB44 PUSH2 0xB22 PUSH1 0x1 PUSH2 0xB1B DUP5 PUSH2 0xE5C JUMP JUMPDEST SWAP4 ADD PUSH2 0xE5C JUMP JUMPDEST PUSH1 0x40 MLOAD SWAP4 DUP5 SWAP4 PUSH1 0x40 DUP6 MSTORE PUSH1 0x40 DUP6 ADD SWAP1 PUSH2 0xEFC JUMP JUMPDEST SWAP1 DUP4 DUP3 SUB PUSH1 0x20 DUP6 ADD MSTORE PUSH2 0xEFC JUMP JUMPDEST SUB SWAP1 RETURN JUMPDEST CALLVALUE PUSH2 0xEA JUMPI PUSH1 0x40 CALLDATASIZE PUSH1 0x3 NOT ADD SLT PUSH2 0xEA JUMPI PUSH2 0xB61 PUSH2 0xDBC JUMP JUMPDEST PUSH2 0xB69 PUSH2 0xDD2 JUMP JUMPDEST PUSH2 0xB72 DUP3 PUSH2 0x10F6 JUMP JUMPDEST ISZERO PUSH2 0xACB JUMPI PUSH1 0x1 PUSH1 0x1 PUSH1 0xA0 SHL SUB SWAP1 SWAP2 AND SWAP1 CALLER DUP3 SWAP1 SUB PUSH2 0xCD1 JUMPI JUMPDEST DUP2 PUSH0 MSTORE PUSH1 0x1 PUSH1 0x20 MSTORE PUSH2 0xBA1 PUSH1 0x40 PUSH0 KECCAK256 SLOAD PUSH2 0xDE8 JUMP JUMPDEST ISZERO PUSH2 0x3D4 JUMPI PUSH1 0x1 PUSH1 0x1 PUSH1 0xA0 SHL SUB AND DUP1 ISZERO PUSH2 0x62F JUMPI PUSH0 SWAP1 DUP3 PUSH0 MSTORE PUSH1 0x1 PUSH1 0x20 MSTORE PUSH1 0x2 PUSH1 0x40 PUSH0 KECCAK256 ADD PUSH0 JUMPDEST DUP2 SLOAD DUP1 DUP3 LT ISZERO PUSH2 0xCC8 JUMPI DUP4 PUSH2 0xBDD DUP4 DUP6 PUSH2 0xF4D JUMP JUMPDEST SWAP1 SLOAD PUSH1 0x3 SWAP2 SWAP1 SWAP2 SHL SHR PUSH1 0x1 PUSH1 0x1 PUSH1 0xA0 SHL SUB AND EQ PUSH2 0xBFD JUMPI POP PUSH1 0x1 ADD PUSH2 0xBC8 JUMP JUMPDEST SWAP3 SWAP4 POP PUSH1 0x1 SWAP3 PUSH0 NOT DUP2 ADD SWAP2 SWAP1 DUP3 GT PUSH2 0x398 JUMPI PUSH2 0xC38 PUSH2 0xC1F PUSH2 0xC5C SWAP4 DUP6 PUSH2 0xF4D JUMP JUMPDEST SWAP1 SLOAD PUSH1 0x3 SWAP2 SWAP1 SWAP2 SHL SHR PUSH1 0x1 PUSH1 0x1 PUSH1 0xA0 SHL SUB AND SWAP2 DUP5 PUSH2 0xF4D JUMP JUMPDEST DUP2 SLOAD PUSH1 0x1 PUSH1 0x1 PUSH1 0xA0 SHL SUB SWAP4 DUP5 AND PUSH1 0x3 SWAP3 SWAP1 SWAP3 SHL SWAP2 DUP3 SHL SWAP4 SWAP1 SWAP2 SHL NOT AND SWAP2 SWAP1 SWAP2 OR SWAP1 SSTORE JUMP JUMPDEST DUP1 SLOAD DUP1 ISZERO PUSH2 0xCB4 JUMPI PUSH0 NOT ADD SWAP1 PUSH2 0xC72 DUP3 DUP3 PUSH2 0xF4D JUMP JUMPDEST DUP2 SLOAD SWAP1 PUSH1 0x1 DUP1 PUSH1 0xA0 SHL SUB SWAP1 PUSH1 0x3 SHL SHL NOT AND SWAP1 SSTORE SSTORE JUMPDEST ISZERO PUSH2 0xACB JUMPI CALLER SWAP2 PUSH32 0x9312053150F18090E219209AFEDF7C42617A23F1202A19D2289891A2AA6D7FD7 PUSH0 DUP1 LOG4 STOP JUMPDEST PUSH4 0x4E487B71 PUSH1 0xE0 SHL PUSH0 MSTORE PUSH1 0x31 PUSH1 0x4 MSTORE PUSH1 0x24 PUSH0 REVERT JUMPDEST POP POP POP SWAP1 PUSH2 0xC87 JUMP JUMPDEST POP CALLER PUSH2 0xB8C JUMP JUMPDEST CALLVALUE PUSH2 0xEA JUMPI PUSH1 0x40 CALLDATASIZE PUSH1 0x3 NOT ADD SLT PUSH2 0xEA JUMPI PUSH2 0xCF1 PUSH2 0xDBC JUMP JUMPDEST PUSH2 0xCF9 PUSH2 0xDD2 JUMP JUMPDEST SWAP1 PUSH1 0x1 PUSH1 0x1 PUSH1 0xA0 SHL SUB AND CALLER DUP2 SWAP1 SUB PUSH2 0x3C6 JUMPI DUP1 PUSH0 MSTORE PUSH1 0x1 PUSH1 0x20 MSTORE PUSH2 0xD20 PUSH1 0x40 PUSH0 KECCAK256 SLOAD PUSH2 0xDE8 JUMP JUMPDEST ISZERO PUSH2 0x3D4 JUMPI PUSH1 0x1 PUSH1 0x1 PUSH1 0xA0 SHL SUB DUP3 AND SWAP1 DUP2 ISZERO PUSH2 0x62F JUMPI PUSH0 DUP2 DUP2 MSTORE PUSH1 0x1 PUSH1 0x20 MSTORE PUSH1 0x40 DUP2 KECCAK256 PUSH1 0x2 ADD DUP1 SLOAD SWAP5 SWAP2 JUMPDEST DUP6 DUP2 LT PUSH2 0xD83 JUMPI POP SWAP1 PUSH2 0xD5D SWAP2 PUSH2 0xF76 JUMP JUMPDEST PUSH32 0xA2F792D5CAB45450DAED47916F25D9BD3443D275C51ECBCCFBEB727A3B4EDA0E PUSH0 DUP1 LOG3 STOP JUMPDEST DUP5 PUSH2 0xD8E DUP3 DUP5 PUSH2 0xF4D JUMP JUMPDEST SWAP1 SLOAD PUSH1 0x3 SWAP2 SWAP1 SWAP2 SHL SHR PUSH1 0x1 PUSH1 0x1 PUSH1 0xA0 SHL SUB AND EQ PUSH2 0xDAD JUMPI PUSH1 0x1 ADD PUSH2 0xD4B JUMP JUMPDEST PUSH4 0xB598CE3D PUSH1 0xE0 SHL PUSH0 MSTORE PUSH1 0x4 PUSH0 REVERT JUMPDEST PUSH1 0x4 CALLDATALOAD SWAP1 PUSH1 0x1 PUSH1 0x1 PUSH1 0xA0 SHL SUB DUP3 AND DUP3 SUB PUSH2 0xEA JUMPI JUMP JUMPDEST PUSH1 0x24 CALLDATALOAD SWAP1 PUSH1 0x1 PUSH1 0x1 PUSH1 0xA0 SHL SUB DUP3 AND DUP3 SUB PUSH2 0xEA JUMPI JUMP JUMPDEST SWAP1 PUSH1 0x1 DUP3 DUP2 SHR SWAP3 AND DUP1 ISZERO PUSH2 0xE16 JUMPI JUMPDEST PUSH1 0x20 DUP4 LT EQ PUSH2 0xE02 JUMPI JUMP JUMPDEST PUSH4 0x4E487B71 PUSH1 0xE0 SHL PUSH0 MSTORE PUSH1 0x22 PUSH1 0x4 MSTORE PUSH1 0x24 PUSH0 REVERT JUMPDEST SWAP2 PUSH1 0x7F AND SWAP2 PUSH2 0xDF7 JUMP JUMPDEST PUSH1 0x60 DUP2 ADD SWAP1 DUP2 LT PUSH1 0x1 PUSH1 0x1 PUSH1 0x40 SHL SUB DUP3 GT OR PUSH2 0x6E8 JUMPI PUSH1 0x40 MSTORE JUMP JUMPDEST SWAP1 PUSH1 0x1F DUP1 NOT SWAP2 ADD AND DUP2 ADD SWAP1 DUP2 LT PUSH1 0x1 PUSH1 0x1 PUSH1 0x40 SHL SUB DUP3 GT OR PUSH2 0x6E8 JUMPI PUSH1 0x40 MSTORE JUMP JUMPDEST SWAP1 PUSH1 0x40 MLOAD SWAP2 DUP3 PUSH0 DUP3 SLOAD SWAP3 PUSH2 0xE6F DUP5 PUSH2 0xDE8 JUMP JUMPDEST DUP1 DUP5 MSTORE SWAP4 PUSH1 0x1 DUP2 AND SWAP1 DUP2 ISZERO PUSH2 0xEDA JUMPI POP PUSH1 0x1 EQ PUSH2 0xE96 JUMPI JUMPDEST POP PUSH2 0xE94 SWAP3 POP SUB DUP4 PUSH2 0xE3B JUMP JUMPDEST JUMP JUMPDEST SWAP1 POP PUSH0 SWAP3 SWAP2 SWAP3 MSTORE PUSH1 0x20 PUSH0 KECCAK256 SWAP1 PUSH0 SWAP2 JUMPDEST DUP2 DUP4 LT PUSH2 0xEBE JUMPI POP POP SWAP1 PUSH1 0x20 PUSH2 0xE94 SWAP3 DUP3 ADD ADD PUSH0 PUSH2 0xE87 JUMP JUMPDEST PUSH1 0x20 SWAP2 SWAP4 POP DUP1 PUSH1 0x1 SWAP2 SLOAD DUP4 DUP6 DUP10 ADD ADD MSTORE ADD SWAP2 ADD SWAP1 SWAP2 DUP5 SWAP3 PUSH2 0xEA5 JUMP JUMPDEST SWAP1 POP PUSH1 0x20 SWAP3 POP PUSH2 0xE94 SWAP5 SWAP2 POP PUSH1 0xFF NOT AND DUP3 DUP5 ADD MSTORE ISZERO ISZERO PUSH1 0x5 SHL DUP3 ADD ADD PUSH0 PUSH2 0xE87 JUMP JUMPDEST DUP1 MLOAD DUP1 DUP4 MSTORE PUSH1 0x20 SWAP3 SWAP2 DUP2 SWAP1 DUP5 ADD DUP5 DUP5 ADD MCOPY PUSH0 DUP3 DUP3 ADD DUP5 ADD MSTORE PUSH1 0x1F ADD PUSH1 0x1F NOT AND ADD ADD SWAP1 JUMP JUMPDEST SWAP2 DUP2 PUSH1 0x1F DUP5 ADD SLT ISZERO PUSH2 0xEA JUMPI DUP3 CALLDATALOAD SWAP2 PUSH1 0x1 PUSH1 0x1 PUSH1 0x40 SHL SUB DUP4 GT PUSH2 0xEA JUMPI PUSH1 0x20 DUP4 DUP2 DUP7 ADD SWAP6 ADD ADD GT PUSH2 0xEA JUMPI JUMP JUMPDEST DUP1 SLOAD DUP3 LT ISZERO PUSH2 0xF62 JUMPI PUSH0 MSTORE PUSH1 0x20 PUSH0 KECCAK256 ADD SWAP1 PUSH0 SWAP1 JUMP JUMPDEST PUSH4 0x4E487B71 PUSH1 0xE0 SHL PUSH0 MSTORE PUSH1 0x32 PUSH1 0x4 MSTORE PUSH1 0x24 PUSH0 REVERT JUMPDEST SWAP1 DUP2 SLOAD SWAP2 PUSH9 0x10000000000000000 DUP4 LT ISZERO PUSH2 0x6E8 JUMPI DUP3 PUSH2 0xC38 SWAP2 PUSH1 0x1 PUSH2 0xE94 SWAP6 ADD DUP2 SSTORE PUSH2 0xF4D JUMP JUMPDEST DUP2 DUP2 LT PUSH2 0xFA9 JUMPI POP POP JUMP JUMPDEST PUSH0 DUP2 SSTORE PUSH1 0x1 ADD PUSH2 0xF9E JUMP JUMPDEST SWAP2 SWAP1 DUP2 LT ISZERO PUSH2 0xF62 JUMPI PUSH1 0x5 SHL ADD SWAP1 JUMP JUMPDEST CALLDATALOAD PUSH1 0x1 PUSH1 0x1 PUSH1 0xA0 SHL SUB DUP2 AND DUP2 SUB PUSH2 0xEA JUMPI SWAP1 JUMP JUMPDEST PUSH2 0xFE2 DUP2 SLOAD PUSH2 0xDE8 JUMP JUMPDEST SWAP1 DUP2 PUSH2 0xFEC JUMPI POP POP JUMP JUMPDEST DUP2 PUSH1 0x1F PUSH0 SWAP4 GT PUSH1 0x1 EQ PUSH2 0xFFD JUMPI POP SSTORE JUMP JUMPDEST DUP2 DUP4 MSTORE PUSH1 0x20 DUP4 KECCAK256 PUSH2 0x1019 SWAP2 PUSH1 0x1F ADD PUSH1 0x5 SHR DUP2 ADD SWAP1 PUSH1 0x1 ADD PUSH2 0xF9E JUMP JUMPDEST DUP1 DUP3 MSTORE DUP2 PUSH1 0x20 DUP2 KECCAK256 SWAP2 SSTORE SSTORE JUMP JUMPDEST SWAP1 PUSH1 0x40 MLOAD SWAP2 DUP3 DUP2 SLOAD SWAP2 DUP3 DUP3 MSTORE PUSH1 0x20 DUP3 ADD SWAP1 PUSH0 MSTORE PUSH1 0x20 PUSH0 KECCAK256 SWAP3 PUSH0 JUMPDEST DUP2 DUP2 LT PUSH2 0x1055 JUMPI POP POP PUSH2 0xE94 SWAP3 POP SUB DUP4 PUSH2 0xE3B JUMP JUMPDEST DUP5 SLOAD PUSH1 0x1 PUSH1 0x1 PUSH1 0xA0 SHL SUB AND DUP4 MSTORE PUSH1 0x1 SWAP5 DUP6 ADD SWAP5 DUP8 SWAP5 POP PUSH1 0x20 SWAP1 SWAP4 ADD SWAP3 ADD PUSH2 0x1040 JUMP JUMPDEST PUSH1 0x1 PUSH1 0x1 PUSH1 0xA0 SHL SUB AND PUSH0 DUP2 DUP2 MSTORE PUSH1 0x1 PUSH1 0x20 MSTORE PUSH1 0x40 SWAP1 KECCAK256 SLOAD PUSH2 0x1097 SWAP1 PUSH2 0xDE8 JUMP JUMPDEST ISZERO PUSH2 0x3D4 JUMPI PUSH0 MSTORE PUSH1 0x1 PUSH1 0x20 MSTORE PUSH2 0x10B2 PUSH1 0x2 PUSH1 0x40 PUSH0 KECCAK256 ADD PUSH2 0x1026 JUMP JUMPDEST DUP1 MLOAD SWAP2 SWAP1 PUSH0 JUMPDEST DUP4 DUP2 LT ISZERO PUSH2 0x10EE JUMPI PUSH1 0x5 DUP2 SWAP1 SHL DUP3 ADD PUSH1 0x20 ADD MLOAD PUSH1 0x1 PUSH1 0x1 PUSH1 0xA0 SHL SUB DUP5 DUP2 AND SWAP2 AND EQ PUSH2 0x10E5 JUMPI PUSH1 0x1 ADD PUSH2 0x10B8 JUMP JUMPDEST POP POP POP POP PUSH1 0x1 SWAP1 JUMP JUMPDEST POP POP POP POP PUSH0 SWAP1 JUMP JUMPDEST PUSH1 0x1 PUSH1 0x1 PUSH1 0xA0 SHL SUB AND PUSH0 SWAP1 DUP2 MSTORE PUSH1 0x1 PUSH1 0x20 MSTORE PUSH1 0x40 DUP2 KECCAK256 PUSH1 0x2 ADD DUP1 SLOAD SWAP2 JUMPDEST DUP3 DUP2 LT PUSH2 0x1121 JUMPI POP POP POP PUSH0 SWAP1 JUMP JUMPDEST PUSH2 0x112B DUP2 DUP4 PUSH2 0xF4D JUMP JUMPDEST SWAP1 SLOAD PUSH1 0x3 SWAP2 SWAP1 SWAP2 SHL SHR PUSH1 0x1 PUSH1 0x1 PUSH1 0xA0 SHL SUB AND CALLER EQ PUSH2 0x114B JUMPI PUSH1 0x1 ADD PUSH2 0x1113 JUMP JUMPDEST POP POP POP PUSH1 0x1 SWAP1 JUMP JUMPDEST PUSH0 SLOAD PUSH1 0x1 PUSH1 0x1 PUSH1 0xA0 SHL SUB AND CALLER SUB PUSH2 0x1166 JUMPI JUMP JUMPDEST PUSH4 0x118CDAA7 PUSH1 0xE0 SHL PUSH0 MSTORE CALLER PUSH1 0x4 MSTORE PUSH1 0x24 PUSH0 REVERT INVALID LOG2 PUSH5 0x6970667358 0x22 SLT KECCAK256 PUSH20 0x810D6A4817D363EC19D318F1B8972F0A698DE18C 0x1F SWAP4 ORIGIN 0xB3 PUSH8 0xC4C4173E8F766473 PUSH16 0x6C634300081C00330000000000000000 "},"methodIdentifiers":{"addAdministrator(address,address)":"1c2e3d82","createOrganization(string,string,address[])":"75f1373f","deleteOrganization(address)":"7acbb8af","exists(address)":"f6a3d24e","getOrganization(address)":"d2c30a6d","isAdministrator(address,address)":"c1af6e03","organizationCount()":"f1c62104","organizations(address)":"5a1f7406","owner()":"8da5cb5b","removeAdministrator(address,address)":"3c10eee5","renounceOwnership()":"715018a6","transferOwnership(address)":"f2fde38b","updateOrganization(address,string,string)":"6cca67bf"}}}}}