{
  "_format": "hh-sol-artifact-1",
  "contractName": "Groth16Verifier",
  "sourceName": "src/Groth16Verifier.sol",
  "abi": [
    {
      "inputs": [],
      "name": "ProofInvalid",
      "type": "error"
    },
    {
      "inputs": [],
      "name": "PublicInputNotInField",
      "type": "error"
    },
    {
      "inputs": [
        {
          "internalType": "uint256[8]",
          "name": "proof",
          "type": "uint256[8]"
        }
      ],
      "name": "compressProof",
      "outputs": [
        {
          "internalType": "uint256[4]",
          "name": "compressed",
          "type": "uint256[4]"
        }
      ],
      "stateMutability": "view",
      "type": "function"
    },
    {
      "inputs": [
        {
          "internalType": "uint256[4]",
          "name": "compressedProof",
          "type": "uint256[4]"
        },
        {
          "internalType": "uint256[4]",
          "name": "input",
          "type": "uint256[4]"
        }
      ],
      "name": "verifyCompressedProof",
      "outputs": [],
      "stateMutability": "view",
      "type": "function"
    },
    {
      "inputs": [
        {
          "internalType": "uint256[8]",
          "name": "proof",
          "type": "uint256[8]"
        },
        {
          "internalType": "uint256[4]",
          "name": "input",
          "type": "uint256[4]"
        }
      ],
      "name": "verifyProof",
      "outputs": [],
      "stateMutability": "view",
      "type": "function"
    }
  ],
  "bytecode": "0x6080604052348015600f57600080fd5b506113e88061001f6000396000f3fe608060405234801561001057600080fd5b50600436106100415760003560e01c8063235725111461004657806344f636921461005b578063f2457c8d14610084575b600080fd5b610059610054366004611282565b610097565b005b61006e6100693660046112b9565b610316565b60405161007b91906112dd565b60405180910390f35b61005961009236600461130e565b610373565b6000806100a383610691565b9150915060006040516101008682377edc4ec4d6ceb56cea9513654c5d3822bf5a448f6547a1867bea3c3f4af405826101008201527f1848d6ab0d020e9707d065f09d9847f449b1516015af2958d4aacacb543595066101208201527f156c0140103691caf37787e0930b42274f98ba557cfd4012d617d0d97a5b439d6101408201527f0f4587c2f0c7f5f3e48c9fe859ff3390be9ca99dac833c92be37b6624452cc586101608201527f156acdb4c47eb32981e023e989ddce420d13ad3771d1e0e5b2ed6d0cfa409f666101808201527f2541708b575b819ee507975f0eeaeaf827a371a7b9ed5b0c2d704cfbebdcfd2b6101a08201527f13c040640e3a99b9cca3c5aa80be86f5906e2aaaecd95978376eb728ce02c7e06101c08201527f082959fd0a7165b00ed92828be942ebfacccfabcf99172eb0267d43d67f3d45c6101e08201527f0203fe888aacf3d86cb52115d9c1ce451da86eeea1d020609e94b58556e22cf26102008201527f226488901e7eb23228e6f884c4ec6e7d9f6e466c50dd6df27770cf730b638ef861022082015283610240820152826102608201527f14ef4e24b04f5a4d9dbb80db107c3b3495036a9bb83434ad67caa81b5b775ee36102808201527f176827524b489c94c4fd12b30623c161a9f3953579d35895e10285cd7c3236696102a08201527f119417bec62ae8c0ea24c13ae359ce206a90bfab2b43950e88394fa821fbc6996102c08201527f2bf2b5034394d69091d24090e2c8506003867f9c2e7c2d5a226f5aaecb3ee22f6102e08201526020816103008360085afa90511690508061030f57604051631ff3747d60e21b815260040160405180910390fd5b5050505050565b61031e611204565b61033182358360015b60200201356108ba565b815261034f6060830135604084013560a085013560808601356109af565b6020830152604082015261036960c0830135836007610327565b6060820152919050565b61037b611222565b60008061038e85825b6020020135610ca6565b909250905060008080806103aa60408a013560208b0135610d4b565b929650909450925090506000806103c28b6003610384565b915091506000806103d28c610691565b8b8d5260208d018b905260408d0189905260608d018a905260808d0187905260a08d0188905260c08d0186905260e08d018590527edc4ec4d6ceb56cea9513654c5d3822bf5a448f6547a1867bea3c3f4af405826101008e01527f1848d6ab0d020e9707d065f09d9847f449b1516015af2958d4aacacb543595066101208e01527f156c0140103691caf37787e0930b42274f98ba557cfd4012d617d0d97a5b439d6101408e01527f0f4587c2f0c7f5f3e48c9fe859ff3390be9ca99dac833c92be37b6624452cc586101608e01527f156acdb4c47eb32981e023e989ddce420d13ad3771d1e0e5b2ed6d0cfa409f666101808e01527f2541708b575b819ee507975f0eeaeaf827a371a7b9ed5b0c2d704cfbebdcfd2b6101a08e01527f13c040640e3a99b9cca3c5aa80be86f5906e2aaaecd95978376eb728ce02c7e06101c08e01527f082959fd0a7165b00ed92828be942ebfacccfabcf99172eb0267d43d67f3d45c6101e08e01527f0203fe888aacf3d86cb52115d9c1ce451da86eeea1d020609e94b58556e22cf26102008e01527f226488901e7eb23228e6f884c4ec6e7d9f6e466c50dd6df27770cf730b638ef86102208e01526102408d018290526102608d018190527f14ef4e24b04f5a4d9dbb80db107c3b3495036a9bb83434ad67caa81b5b775ee36102808e01527f176827524b489c94c4fd12b30623c161a9f3953579d35895e10285cd7c3236696102a08e01527f119417bec62ae8c0ea24c13ae359ce206a90bfab2b43950e88394fa821fbc6996102c08e01527f2bf2b5034394d69091d24090e2c8506003867f9c2e7c2d5a226f5aaecb3ee22f6102e08e015290925090506000610646611241565b6020816103008f60085afa915081158061066257508051600114155b1561068057604051631ff3747d60e21b815260040160405180910390fd5b505050505050505050505050505050565b6000806000600190506040516040810160007f271cd18b027ea2bbab9d02c8598a91c8e491110a841683cf2b5cc92f096205e183527f01dfa1c1e25650d784a9f48ee14593ad2319dae66d359b634c941de141cf58e860208401527f02aec8b2e792b7be89e6daf32d2cbb3047b8f088050af932dc89f4ead43e5d9282527f0eeccd9b4c5d9560ac1f978dfdd85a4ca02296c4e4316e659e520968544f80bd60208301528635905080604083015260008051602061139383398151915281108416935060408260608460075afa8416935060408360808560065afa841693507f2153cecd95ee8ce236930d023b4e84a418a3abc3d29b88bf640302b0014815f182527f25ec7526e116c1f999bf92681e17524e158cedebe83a9155309eaffb2dd189d560208301526020870135905080604083015260008051602061139383398151915281108416935060408260608460075afa8416935060408360808560065afa8416935060008252600060208301526040870135905080604083015260008051602061139383398151915281108416935060408260608460075afa8416935060408360808560065afa841693506000825260006020830152606087013590508060408301526000805160206113938339815191528110841693505060408160608360075afa831692505060408160808360065afa815160209092015191945090925016806108b45760405163a54f8e2760e01b815260040160405180910390fd5b50915091565b6000600080516020611373833981519152831015806108e757506000805160206113738339815191528210155b1561090557604051631ff3747d60e21b815260040160405180910390fd5b82158015610911575081155b1561091e575060006109a9565b600061095d600080516020611373833981519152600360008051602061137383398151915287600080516020611373833981519152898a090908610f31565b9050808303610972575050600182901b6109a9565b61097b81610f95565b830361098e575050600182811b176109a9565b604051631ff3747d60e21b815260040160405180910390fd5b505b92915050565b600080600080516020611373833981519152861015806109dd57506000805160206113738339815191528510155b806109f657506000805160206113738339815191528410155b80610a0f57506000805160206113738339815191528310155b15610a2d57604051631ff3747d60e21b815260040160405180910390fd5b82848688171717600003610a4657506000905080610c9d565b60008080600080516020611373833981519152610a726003600080516020611373833981519152611351565b6000805160206113738339815191528a8c0909905060006000805160206113738339815191528a6000805160206113738339815191528c8d0909905060006000805160206113738339815191528a6000805160206113738339815191528c8d09099050600080516020611373833981519152806000805160206113738339815191528c860984087f2b149d40ceb8aaae81be18991be06ac3b5b4c5e559dbefa33267e6dc24a138e5089450610b6b600080516020611373833981519152806000805160206113738339815191528e870984087f2fcd3ac2a640a154eb23960892a85a68f031ca0c8344b23a577dcf1052b9e77508610f95565b9350505050600080610bbc60008051602061137383398151915280610b9257610b9261133b565b60008051602061137383398151915285860960008051602061137383398151915287880908610f31565b9050610c096000805160206113738339815191527f183227397098d014dc2822db40c0ac2ecbc0b548b438e5469e10460b6c3e7ea460008051602061137383398151915284880809610fae565b15915050610c18838383610ff8565b90935091508683148015610c2b57508186145b15610c555780610c3c576000610c3f565b60025b60ff1660028a901b176000179450879350610c99565b610c5e83610f95565b87148015610c735750610c7082610f95565b86145b1561098e5780610c84576000610c87565b60025b60ff1660028a901b1760011794508793505b5050505b94509492505050565b60008082600003610cbc57506000928392509050565b600183811c9250808416146000805160206113738339815191528310610cf557604051631ff3747d60e21b815260040160405180910390fd5b610d326000805160206113738339815191526003600080516020611373833981519152866000805160206113738339815191528889090908610f31565b915080156108b457610d4382610f95565b915050915091565b600080808085158015610d5c575084155b15610d7257506000925082915081905080610f28565b600286811c9450859350600180881614908088161460008051602061137383398151915286101580610db257506000805160206113738339815191528510155b15610dd057604051631ff3747d60e21b815260040160405180910390fd5b6000600080516020611373833981519152610dfa6003600080516020611373833981519152611351565b600080516020611373833981519152888a090990506000600080516020611373833981519152886000805160206113738339815191528a8b090990506000600080516020611373833981519152886000805160206113738339815191528a8b09099050600080516020611373833981519152806000805160206113738339815191528a860984087f2b149d40ceb8aaae81be18991be06ac3b5b4c5e559dbefa33267e6dc24a138e5089650610ef3600080516020611373833981519152806000805160206113738339815191528c870984087f2fcd3ac2a640a154eb23960892a85a68f031ca0c8344b23a577dcf1052b9e77508610f95565b9550610f00878786610ff8565b90975095508415610f2257610f1487610f95565b9650610f1f86610f95565b95505b50505050505b92959194509250565b6000610f5d827f0c19139cb84c680a6e14116da060561765e05aa45a1c72a34f082305b61f3f5261113f565b90508160008051602061137383398151915282830914610f9057604051631ff3747d60e21b815260040160405180910390fd5b919050565b6000805160206113738339815191529081900681030690565b600080610fdb837f0c19139cb84c680a6e14116da060561765e05aa45a1c72a34f082305b61f3f5261113f565b905082600080516020611373833981519152828309149392505050565b6000808061102a60008051602061137383398151915280878809600080516020611373833981519152898a0908610f31565b9050831561103e5761103b81610f95565b90505b6110896000805160206113738339815191527f183227397098d014dc2822db40c0ac2ecbc0b548b438e5469e10460b6c3e7ea4600080516020611373833981519152848a0809610f31565b92506000805160206113738339815191526110b5600080516020611373833981519152600286096111a4565b860991506000805160206113738339815191526110e2600080516020611373833981519152848509610f95565b60008051602061137383398151915285860908861415806111185750600080516020611373833981519152808385096002098514155b1561113657604051631ff3747d60e21b815260040160405180910390fd5b50935093915050565b600080604051602081526020808201526020604082015284606082015283608082015260008051602061137383398151915260a082015260208160c08360055afa905192509050806109a757604051631ff3747d60e21b815260040160405180910390fd5b60006111d0827f30644e72e131a029b85045b68181585d97816a916871ca8d3c208c16d87cfd4561113f565b9050600080516020611373833981519152818309600114610f9057604051631ff3747d60e21b815260040160405180910390fd5b60405180608001604052806004906020820280368337509192915050565b6040518061030001604052806018906020820280368337509192915050565b60405180602001604052806001906020820280368337509192915050565b8061010081018310156109a957600080fd5b80608081018310156109a957600080fd5b600080610180838503121561129657600080fd5b6112a0848461125f565b91506112b0846101008501611271565b90509250929050565b600061010082840312156112cc57600080fd5b6112d6838361125f565b9392505050565b60808101818360005b60048110156113055781518352602092830192909101906001016112e6565b50505092915050565b600080610100838503121561132257600080fd5b61132c8484611271565b91506112b08460808501611271565b634e487b7160e01b600052601260045260246000fd5b818103818111156109a957634e487b7160e01b600052601160045260246000fdfe30644e72e131a029b85045b68181585d97816a916871ca8d3c208c16d87cfd4730644e72e131a029b85045b68181585d2833e84879b9709143e1f593f0000001a26469706673582212205c22fbb0547679aa26c16d820e0e40b3566688cc7d9caebafa0550b8b131ddb464736f6c634300081c0033",
  "linkReferences": {},
  "deployedLinkReferences": {}
}