{
  "_format": "hh-sol-artifact-1",
  "contractName": "Groth16Verifier",
  "sourceName": "src/Groth16Verifier.sol",
  "abi": [
    {
      "inputs": [],
      "name": "CommitmentInvalid",
      "type": "error"
    },
    {
      "inputs": [],
      "name": "InvalidProof",
      "type": "error"
    },
    {
      "inputs": [],
      "name": "ProofInvalid",
      "type": "error"
    },
    {
      "inputs": [],
      "name": "PublicInputNotInField",
      "type": "error"
    },
    {
      "inputs": [
        {
          "internalType": "uint256[8]",
          "name": "proof",
          "type": "uint256[8]"
        },
        {
          "internalType": "uint256[2]",
          "name": "commitments",
          "type": "uint256[2]"
        },
        {
          "internalType": "uint256[2]",
          "name": "commitmentPok",
          "type": "uint256[2]"
        }
      ],
      "name": "compressProof",
      "outputs": [
        {
          "internalType": "uint256[4]",
          "name": "compressed",
          "type": "uint256[4]"
        },
        {
          "internalType": "uint256[1]",
          "name": "compressedCommitments",
          "type": "uint256[1]"
        },
        {
          "internalType": "uint256",
          "name": "compressedCommitmentPok",
          "type": "uint256"
        }
      ],
      "stateMutability": "view",
      "type": "function"
    },
    {
      "inputs": [
        {
          "internalType": "uint256[4]",
          "name": "compressedProof",
          "type": "uint256[4]"
        },
        {
          "internalType": "uint256[1]",
          "name": "compressedCommitments",
          "type": "uint256[1]"
        },
        {
          "internalType": "uint256",
          "name": "compressedCommitmentPok",
          "type": "uint256"
        },
        {
          "internalType": "uint256[4]",
          "name": "input",
          "type": "uint256[4]"
        }
      ],
      "name": "verifyCompressedProof",
      "outputs": [],
      "stateMutability": "view",
      "type": "function"
    },
    {
      "inputs": [
        {
          "internalType": "bytes",
          "name": "_proof",
          "type": "bytes"
        },
        {
          "internalType": "bytes",
          "name": "_input",
          "type": "bytes"
        }
      ],
      "name": "verifyProof",
      "outputs": [],
      "stateMutability": "view",
      "type": "function"
    },
    {
      "inputs": [
        {
          "internalType": "uint256[8]",
          "name": "proof",
          "type": "uint256[8]"
        },
        {
          "internalType": "uint256[2]",
          "name": "commitments",
          "type": "uint256[2]"
        },
        {
          "internalType": "uint256[2]",
          "name": "commitmentPok",
          "type": "uint256[2]"
        },
        {
          "internalType": "uint256[4]",
          "name": "input",
          "type": "uint256[4]"
        }
      ],
      "name": "verifyProof",
      "outputs": [],
      "stateMutability": "view",
      "type": "function"
    }
  ],
  "bytecode": "0x6080604052348015600f57600080fd5b50611eac8061001f6000396000f3fe608060405234801561001057600080fd5b506004361061004c5760003560e01c8063b1c3a00e14610051578063b8e72af61461007c578063d148354c14610091578063e33974a8146100a4575b600080fd5b61006461005f36600461195a565b6100b7565b604051610073939291906119cc565b60405180910390f35b61008f61008a366004611a5b565b610140565b005b61008f61009f366004611add565b6101c1565b61008f6100b2366004611b39565b610663565b6100bf61189f565b6100c76118bd565b60006100dc86358760015b6020020135610bcb565b83526100fa6060870135604088013560a089013560808a0135610cc0565b6020850152604084015261011460c08701358760076100d2565b606084015261012685358660016100d2565b825261013584358560016100d2565b905093509350939050565b600080600061014f8787610fb7565b919450925090503063d148354c8484846101698a8a610fe8565b6040518563ffffffff1660e01b81526004016101889493929190611bbc565b60006040518083038186803b1580156101a057600080fd5b505afa1580156101b4573d6000803e3d6000fd5b5050505050505050505050565b6101c96118bd565b6040805160028082526060808301845292602083019080368337019050509050602081016040848101823750604051600080516020611e578339815191529061021e908735906020808a013591869101611c1b565b6040516020818303038152906040528051906020012060001c6102419190611c74565b8252604080516000918782377f211e4e4a8d918a0713db0a7f7b3881cbd4fb530106b2eeeef9b6a2def37b838560408201527f0581211531b4b26155c1440909f874871a4884a8cc6d7318c756ebd6f92d9d8960608201527f23e4263bdb7dae31b45b625db2c630e7d8377f84bf00fb25b7a6b21ded1ad98260808201527f044d47716e320bebbb2364aa60a049be5a7a068aa3852b48a091b25b92bc945f60a082015260408660c08301377f150af895ccbbc62fea1d9ac23322ee0231ba5d729c573746fa32300a8c3629296101008201527f1ee8202074e339786c8eac9d38fde4a12e569b977d36b27ce36ed521a881b0096101208201527f2a9d6bcbd408e8e2e7450020fefadd3d7d6c776dd5df00fa93b3acd9f4e9c14f6101408201527ee22982050ab74a2b58e88f8a3a5f7a20cecddd9c4bc12796724de17c57f9d76101608201526020816101808360085afa9051169050806103b6576040516351d49ff760e11b815260040160405180910390fd5b6000806103ed86868a6002806020026040519081016040528092919082600260200280828437600092019190915250611003915050565b915091506040516101008a82377f29da872e48126af96305ef70eb5b73433b9c1c36ac16fa350a07cbc4f62508a16101008201527f2bdcf4a6f99f7c8a7ade53d212f06e9a06837d6609c1694705a4725bc9679f216101208201527f12c38ae3c0d8b89d140f6ed18e7b911b7e1173d4b80ac594ff23eeda028d71dc6101408201527f10cc7bba2c19c761904630b6faf7248c60d9fcb8ff444a99a449ce233df489256101608201527f17b4b10dbbd2a05dfb674b5d892bc651d0a55976c1613fed3152cbb65027ad7e6101808201527f288814ea49b95ec9439bafc71bc9d31ec35ac5919873e842c9d942896f13f7976101a08201527f0ba9549a9c12c213ebaab06479cc14389071ec391dc95c71505e44cd1971384c6101c08201527f26ec031ca7378081a5cbb74bd4ec5732f1732a70ad92bd0605cdcc75e8b998916101e08201527f1b1b553a91179991d067e10bd0cf8b885409a4047b2eb59517546ddb1838bf096102008201527f030e010702a6fbcf1e569475d1dc21145bbb14774ba5d1ba757a76c961d74d7a61022082015282610240820152816102608201527f1426d4e62629bc57f7224b9d60b4e0b7f90564499e64888500f7580e1595e7c26102808201527f09994f7ae17b798cbf83aed008d5701464ffc51fd36fcd72d95c5e4f95b518f36102a08201527f2ba2ca8a61969c46ebe77da3ad9a13c7067d09f8c9acb79d7b6663819b78e0bc6102c08201527f0391592ac2691059d80aa6af263a979795ca2be05ea06ec818108f907dd351106102e08201526020816103008360085afa90511692508261065857604051631ff3747d60e21b815260040160405180910390fd5b505050505050505050565b61066b6118bd565b6106736118db565b61067b6118f9565b61068c8660005b6020020135611349565b6020840152825260008061069f87611349565b6040805160028082526060808301845294965092945091906020830190803683370190505090506020810160408881018237508451602080870151604051600080516020611e57833981519152936106fc93909291869101611c1b565b6040516020818303038152906040528051906020012060001c61071f9190611c74565b865284518452602085810151858201527f211e4e4a8d918a0713db0a7f7b3881cbd4fb530106b2eeeef9b6a2def37b83856040808701919091527f0581211531b4b26155c1440909f874871a4884a8cc6d7318c756ebd6f92d9d8960608701527f23e4263bdb7dae31b45b625db2c630e7d8377f84bf00fb25b7a6b21ded1ad98260808701527f044d47716e320bebbb2364aa60a049be5a7a068aa3852b48a091b25b92bc945f60a087015260c0860185905260e086018490527f150af895ccbbc62fea1d9ac23322ee0231ba5d729c573746fa32300a8c3629296101008701527f1ee8202074e339786c8eac9d38fde4a12e569b977d36b27ce36ed521a881b0096101208701527f2a9d6bcbd408e8e2e7450020fefadd3d7d6c776dd5df00fa93b3acd9f4e9c14f6101408701527ee22982050ab74a2b58e88f8a3a5f7a20cecddd9c4bc12796724de17c57f9d761016087015251600091816101808860085afa9051169050806108a4576040516351d49ff760e11b815260040160405180910390fd5b505050506000806108c18960006004811061068257610682611b83565b909250905060008080806108dd60408e013560208f01356113ef565b929650909450925090506000806108f58f6003610682565b915091506000806109078e8e8e611003565b8b8d5260208d018b905260408d0189905260608d018a905260808d0187905260a08d0188905260c08d0186905260e08d018590527f29da872e48126af96305ef70eb5b73433b9c1c36ac16fa350a07cbc4f62508a16101008e01527f2bdcf4a6f99f7c8a7ade53d212f06e9a06837d6609c1694705a4725bc9679f216101208e01527f12c38ae3c0d8b89d140f6ed18e7b911b7e1173d4b80ac594ff23eeda028d71dc6101408e01527f10cc7bba2c19c761904630b6faf7248c60d9fcb8ff444a99a449ce233df489256101608e01527f17b4b10dbbd2a05dfb674b5d892bc651d0a55976c1613fed3152cbb65027ad7e6101808e01527f288814ea49b95ec9439bafc71bc9d31ec35ac5919873e842c9d942896f13f7976101a08e01527f0ba9549a9c12c213ebaab06479cc14389071ec391dc95c71505e44cd1971384c6101c08e01527f26ec031ca7378081a5cbb74bd4ec5732f1732a70ad92bd0605cdcc75e8b998916101e08e01527f1b1b553a91179991d067e10bd0cf8b885409a4047b2eb59517546ddb1838bf096102008e01527f030e010702a6fbcf1e569475d1dc21145bbb14774ba5d1ba757a76c961d74d7a6102208e01526102408d018290526102608d018190527f1426d4e62629bc57f7224b9d60b4e0b7f90564499e64888500f7580e1595e7c26102808e01527f09994f7ae17b798cbf83aed008d5701464ffc51fd36fcd72d95c5e4f95b518f36102a08e01527f2ba2ca8a61969c46ebe77da3ad9a13c7067d09f8c9acb79d7b6663819b78e0bc6102c08e01527f0391592ac2691059d80aa6af263a979795ca2be05ea06ec818108f907dd351106102e08e015290925090506000610b7c6118bd565b6020816103008f60085afa9150811580610b9857508051600114155b15610bb657604051631ff3747d60e21b815260040160405180910390fd5b50505050505050505050505050505050505050565b6000600080516020611e3783398151915283101580610bf85750600080516020611e378339815191528210155b15610c1657604051631ff3747d60e21b815260040160405180910390fd5b82158015610c22575081155b15610c2f57506000610cba565b6000610c6e600080516020611e378339815191526003600080516020611e3783398151915287600080516020611e37833981519152898a0909086115d5565b9050808303610c83575050600182901b610cba565b610c8c81611639565b8303610c9f575050600182811b17610cba565b604051631ff3747d60e21b815260040160405180910390fd5b505b92915050565b600080600080516020611e3783398151915286101580610cee5750600080516020611e378339815191528510155b80610d075750600080516020611e378339815191528410155b80610d205750600080516020611e378339815191528310155b15610d3e57604051631ff3747d60e21b815260040160405180910390fd5b82848688171717600003610d5757506000905080610fae565b60008080600080516020611e37833981519152610d836003600080516020611e37833981519152611c96565b600080516020611e378339815191528a8c090990506000600080516020611e378339815191528a600080516020611e378339815191528c8d090990506000600080516020611e378339815191528a600080516020611e378339815191528c8d09099050600080516020611e3783398151915280600080516020611e378339815191528c860984087f2b149d40ceb8aaae81be18991be06ac3b5b4c5e559dbefa33267e6dc24a138e5089450610e7c600080516020611e3783398151915280600080516020611e378339815191528e870984087f2fcd3ac2a640a154eb23960892a85a68f031ca0c8344b23a577dcf1052b9e77508611639565b9350505050600080610ecd600080516020611e3783398151915280610ea357610ea3611c5e565b600080516020611e37833981519152858609600080516020611e37833981519152878809086115d5565b9050610f1a600080516020611e378339815191527f183227397098d014dc2822db40c0ac2ecbc0b548b438e5469e10460b6c3e7ea4600080516020611e3783398151915284880809611652565b15915050610f2983838361169c565b90935091508683148015610f3c57508186145b15610f665780610f4d576000610f50565b60025b60ff1660028a901b176000179450879350610faa565b610f6f83611639565b87148015610f845750610f8182611639565b86145b15610c9f5780610f95576000610f98565b60025b60ff1660028a901b1760011794508793505b5050505b94509492505050565b610fbf611918565b610fc76118db565b610fcf6118db565b610fdb84860186611d4c565b9250925092509250925092565b610ff061189f565b610ffc82840184611dce565b9392505050565b6000806000600190506040516040810160007f02cbd1596aacebc7c101eb5c580ccc6cb56b9c839750990ab2d4f76ff79747f383527f19f49ac4a7828f12fc6952eb61fa59a7dc5ef78b836416de6de8dbede2746c476020840152865182526020870151602083015260408360808560065afa841693507f2c89387e82aa74c5f20f41dd12a6065817915abba131f8fee1d2647c30909a4982527f12b810580955c65a89d61835f18405dfb50416e35211d84524028bd2508ac879602083015288359050806040830152600080516020611e5783398151915281108416935060408260608460075afa8416935060408360808560065afa841693507f2923a5b175c4518620c02d384d93a5b24690da2da33cf861e6fe4f731b8c5ab582527f014b1075d5d14ea370b80dd26bbad1f9ef3a481bb77142f18cd9d7b1344fae32602083015260208901359050806040830152600080516020611e5783398151915281108416935060408260608460075afa8416935060408360808560065afa841693507f239020e346119af73f5f84f16841885a1f8b8f0da00cac95d3f357a1b3994a2382527f089a617bcb3f783933baf633f2726828eb12d4d102e9bfacc267e6fdc2d2e277602083015260408901359050806040830152600080516020611e5783398151915281108416935060408260608460075afa8416935060408360808560065afa841693507f1a0846e5ec7bc1842503dd2970fb85f9f28e041b5f34f48040bfad00c594cf9982527f2015bc90c3f873389b3bcc77a8ac093e1cc27b1e9ae14c99d38c69617759e293602083015260608901359050806040830152600080516020611e5783398151915281108416935060408260608460075afa8416935060408360808560065afa7f27aa18e2691bd95561e006a1fc6e43312d118a9fbd576dfe9e2900ba1c4605b583527f25aeb0fdfcd8d5b33cb2796c1c57ab5369caa79000cece5cbfc4e86c28915766602084015288516040808501829052600080516020611e5783398151915290911091909516169390508160608160075afa831692505060408160808360065afa815160209092015191945090925016806113405760405163a54f8e2760e01b815260040160405180910390fd5b50935093915050565b6000808260000361135f57506000928392509050565b600183811c925080841614600080516020611e37833981519152831061139857604051631ff3747d60e21b815260040160405180910390fd5b6113d5600080516020611e378339815191526003600080516020611e3783398151915286600080516020611e3783398151915288890909086115d5565b915080156113e9576113e682611639565b91505b50915091565b600080808085158015611400575084155b15611416575060009250829150819050806115cc565b600286811c94508593506001808816149080881614600080516020611e37833981519152861015806114565750600080516020611e378339815191528510155b1561147457604051631ff3747d60e21b815260040160405180910390fd5b6000600080516020611e3783398151915261149e6003600080516020611e37833981519152611c96565b600080516020611e37833981519152888a090990506000600080516020611e3783398151915288600080516020611e378339815191528a8b090990506000600080516020611e3783398151915288600080516020611e378339815191528a8b09099050600080516020611e3783398151915280600080516020611e378339815191528a860984087f2b149d40ceb8aaae81be18991be06ac3b5b4c5e559dbefa33267e6dc24a138e5089650611597600080516020611e3783398151915280600080516020611e378339815191528c870984087f2fcd3ac2a640a154eb23960892a85a68f031ca0c8344b23a577dcf1052b9e77508611639565b95506115a487878661169c565b909750955084156115c6576115b887611639565b96506115c386611639565b95505b50505050505b92959194509250565b6000611601827f0c19139cb84c680a6e14116da060561765e05aa45a1c72a34f082305b61f3f526117da565b905081600080516020611e378339815191528283091461163457604051631ff3747d60e21b815260040160405180910390fd5b919050565b600080516020611e378339815191529081900681030690565b60008061167f837f0c19139cb84c680a6e14116da060561765e05aa45a1c72a34f082305b61f3f526117da565b905082600080516020611e37833981519152828309149392505050565b600080806116ce600080516020611e3783398151915280878809600080516020611e37833981519152898a09086115d5565b905083156116e2576116df81611639565b90505b61172d600080516020611e378339815191527f183227397098d014dc2822db40c0ac2ecbc0b548b438e5469e10460b6c3e7ea4600080516020611e37833981519152848a08096115d5565b9250600080516020611e37833981519152611759600080516020611e378339815191526002860961183f565b86099150600080516020611e37833981519152611786600080516020611e37833981519152848509611639565b600080516020611e3783398151915285860908861415806117bc5750600080516020611e37833981519152808385096002098514155b1561134057604051631ff3747d60e21b815260040160405180910390fd5b6000806040516020815260208082015260206040820152846060820152836080820152600080516020611e3783398151915260a082015260208160c08360055afa90519250905080610cb857604051631ff3747d60e21b815260040160405180910390fd5b600061186b827f30644e72e131a029b85045b68181585d97816a916871ca8d3c208c16d87cfd456117da565b9050600080516020611e3783398151915281830960011461163457604051631ff3747d60e21b815260040160405180910390fd5b60405180608001604052806004906020820280368337509192915050565b60405180602001604052806001906020820280368337509192915050565b60405180604001604052806002906020820280368337509192915050565b6040518061030001604052806018906020820280368337509192915050565b6040518061010001604052806008906020820280368337509192915050565b806101008101831015610cba57600080fd5b8060408101831015610cba57600080fd5b6000806000610180848603121561197057600080fd5b61197a8585611937565b925061198a856101008601611949565b915061199a856101408601611949565b90509250925092565b8060005b60048110156119c65781518452602093840193909101906001016119a7565b50505050565b60c081016119da82866119a3565b608082018460005b6001811015611a015781518352602092830192909101906001016119e2565b5050508260a0830152949350505050565b60008083601f840112611a2457600080fd5b50813567ffffffffffffffff811115611a3c57600080fd5b602083019150836020828501011115611a5457600080fd5b9250929050565b60008060008060408587031215611a7157600080fd5b843567ffffffffffffffff811115611a8857600080fd5b611a9487828801611a12565b909550935050602085013567ffffffffffffffff811115611ab457600080fd5b611ac087828801611a12565b95989497509550505050565b8060808101831015610cba57600080fd5b6000806000806102008587031215611af457600080fd5b611afe8686611937565b9350611b0e866101008701611949565b9250611b1e866101408701611949565b9150611b2e866101808701611acc565b905092959194509250565b6000806000806101408587031215611b5057600080fd5b611b5a8686611acc565b935060a0850186811115611b6d57600080fd5b608086019350359150611b2e8660c08701611acc565b634e487b7160e01b600052603260045260246000fd5b8060005b60028110156119c6578151845260209384019390910190600101611b9d565b6102008101818660005b6008811015611be5578151835260209283019290910190600101611bc6565b505050611bf6610100830186611b99565b611c04610140830185611b99565b611c126101808301846119a3565b95945050505050565b83815282602082015260006040820183516020850160005b82811015611c51578151845260209384019390910190600101611c33565b5091979650505050505050565b634e487b7160e01b600052601260045260246000fd5b600082611c9157634e487b7160e01b600052601260045260246000fd5b500690565b81810381811115610cba57634e487b7160e01b600052601160045260246000fd5b604051601f8201601f1916810167ffffffffffffffff81118282101715611cee57634e487b7160e01b600052604160045260246000fd5b604052919050565b600082601f830112611d0757600080fd5b6000611d136040611cb7565b9050806040840185811115611d2757600080fd5b845b81811015611d41578035835260209283019201611d29565b509195945050505050565b60008060006101808486031215611d6257600080fd5b600085601f860112611d72578081fd5b80610100611d7f81611cb7565b9250829150860187811115611d9357600080fd5b865b81811015611dad578035845260209384019301611d95565b50819550611dbb8882611cf6565b945050505061199a856101408601611cf6565b600060808284031215611de057600080fd5b600083601f840112611df0578081fd5b80611dfb6080611cb7565b90508091506080840185811115611e1157600080fd5b845b81811015611e2b578035845260209384019301611e13565b50909594505050505056fe30644e72e131a029b85045b68181585d97816a916871ca8d3c208c16d87cfd4730644e72e131a029b85045b68181585d2833e84879b9709143e1f593f0000001a2646970667358221220229ac3a81f6a6ce7855ad04fa0dfec6332c8ae605f1f65f73118a3e0b8d3c7fa64736f6c634300081c0033",
  "linkReferences": {},
  "deployedLinkReferences": {}
}