{
  "_format": "hh-sol-artifact-1",
  "contractName": "OrganizationRegistry",
  "sourceName": "src/OrganizationRegistry.sol",
  "abi": [
    {
      "inputs": [
        {
          "internalType": "address",
          "name": "target",
          "type": "address"
        }
      ],
      "name": "AddressEmptyCode",
      "type": "error"
    },
    {
      "inputs": [
        {
          "internalType": "address",
          "name": "implementation",
          "type": "address"
        }
      ],
      "name": "ERC1967InvalidImplementation",
      "type": "error"
    },
    {
      "inputs": [],
      "name": "ERC1967NonPayable",
      "type": "error"
    },
    {
      "inputs": [],
      "name": "FailedInnerCall",
      "type": "error"
    },
    {
      "inputs": [],
      "name": "InvalidInitialization",
      "type": "error"
    },
    {
      "inputs": [],
      "name": "NotInitializing",
      "type": "error"
    },
    {
      "inputs": [
        {
          "internalType": "address",
          "name": "owner",
          "type": "address"
        }
      ],
      "name": "OwnableInvalidOwner",
      "type": "error"
    },
    {
      "inputs": [
        {
          "internalType": "address",
          "name": "account",
          "type": "address"
        }
      ],
      "name": "OwnableUnauthorizedAccount",
      "type": "error"
    },
    {
      "inputs": [],
      "name": "UUPSUnauthorizedCallContext",
      "type": "error"
    },
    {
      "inputs": [
        {
          "internalType": "bytes32",
          "name": "slot",
          "type": "bytes32"
        }
      ],
      "name": "UUPSUnsupportedProxiableUUID",
      "type": "error"
    },
    {
      "anonymous": false,
      "inputs": [
        {
          "indexed": false,
          "internalType": "uint64",
          "name": "version",
          "type": "uint64"
        }
      ],
      "name": "Initialized",
      "type": "event"
    },
    {
      "anonymous": false,
      "inputs": [
        {
          "indexed": true,
          "internalType": "address",
          "name": "id",
          "type": "address"
        },
        {
          "indexed": true,
          "internalType": "address",
          "name": "creator",
          "type": "address"
        }
      ],
      "name": "OrganizationCreated",
      "type": "event"
    },
    {
      "anonymous": false,
      "inputs": [
        {
          "indexed": true,
          "internalType": "address",
          "name": "id",
          "type": "address"
        },
        {
          "indexed": true,
          "internalType": "address",
          "name": "updater",
          "type": "address"
        }
      ],
      "name": "OrganizationUpdated",
      "type": "event"
    },
    {
      "anonymous": false,
      "inputs": [
        {
          "indexed": true,
          "internalType": "address",
          "name": "previousOwner",
          "type": "address"
        },
        {
          "indexed": true,
          "internalType": "address",
          "name": "newOwner",
          "type": "address"
        }
      ],
      "name": "OwnershipTransferred",
      "type": "event"
    },
    {
      "anonymous": false,
      "inputs": [
        {
          "indexed": true,
          "internalType": "address",
          "name": "implementation",
          "type": "address"
        }
      ],
      "name": "Upgraded",
      "type": "event"
    },
    {
      "inputs": [],
      "name": "UPGRADE_INTERFACE_VERSION",
      "outputs": [
        {
          "internalType": "string",
          "name": "",
          "type": "string"
        }
      ],
      "stateMutability": "view",
      "type": "function"
    },
    {
      "inputs": [
        {
          "internalType": "address",
          "name": "id",
          "type": "address"
        },
        {
          "internalType": "address",
          "name": "administrator",
          "type": "address"
        }
      ],
      "name": "addAdministrator",
      "outputs": [],
      "stateMutability": "nonpayable",
      "type": "function"
    },
    {
      "inputs": [
        {
          "internalType": "address",
          "name": "id",
          "type": "address"
        },
        {
          "internalType": "string",
          "name": "name",
          "type": "string"
        },
        {
          "internalType": "string",
          "name": "metadataURI",
          "type": "string"
        },
        {
          "internalType": "address[]",
          "name": "administrators",
          "type": "address[]"
        }
      ],
      "name": "createOrganization",
      "outputs": [],
      "stateMutability": "nonpayable",
      "type": "function"
    },
    {
      "inputs": [
        {
          "internalType": "address",
          "name": "id",
          "type": "address"
        }
      ],
      "name": "deleteOrganization",
      "outputs": [],
      "stateMutability": "nonpayable",
      "type": "function"
    },
    {
      "inputs": [
        {
          "internalType": "address",
          "name": "id",
          "type": "address"
        }
      ],
      "name": "getOrganization",
      "outputs": [
        {
          "internalType": "uint32",
          "name": "",
          "type": "uint32"
        },
        {
          "internalType": "string",
          "name": "",
          "type": "string"
        },
        {
          "internalType": "string",
          "name": "",
          "type": "string"
        }
      ],
      "stateMutability": "view",
      "type": "function"
    },
    {
      "inputs": [],
      "name": "initialize",
      "outputs": [],
      "stateMutability": "nonpayable",
      "type": "function"
    },
    {
      "inputs": [
        {
          "internalType": "address",
          "name": "id",
          "type": "address"
        },
        {
          "internalType": "address",
          "name": "account",
          "type": "address"
        }
      ],
      "name": "isAdministrator",
      "outputs": [
        {
          "internalType": "bool",
          "name": "",
          "type": "bool"
        }
      ],
      "stateMutability": "view",
      "type": "function"
    },
    {
      "inputs": [],
      "name": "organizationCount",
      "outputs": [
        {
          "internalType": "uint32",
          "name": "",
          "type": "uint32"
        }
      ],
      "stateMutability": "view",
      "type": "function"
    },
    {
      "inputs": [
        {
          "internalType": "address",
          "name": "",
          "type": "address"
        }
      ],
      "name": "organizations",
      "outputs": [
        {
          "internalType": "uint32",
          "name": "processCount",
          "type": "uint32"
        },
        {
          "internalType": "string",
          "name": "name",
          "type": "string"
        },
        {
          "internalType": "string",
          "name": "metadataURI",
          "type": "string"
        }
      ],
      "stateMutability": "view",
      "type": "function"
    },
    {
      "inputs": [],
      "name": "owner",
      "outputs": [
        {
          "internalType": "address",
          "name": "",
          "type": "address"
        }
      ],
      "stateMutability": "view",
      "type": "function"
    },
    {
      "inputs": [],
      "name": "proxiableUUID",
      "outputs": [
        {
          "internalType": "bytes32",
          "name": "",
          "type": "bytes32"
        }
      ],
      "stateMutability": "view",
      "type": "function"
    },
    {
      "inputs": [
        {
          "internalType": "address",
          "name": "id",
          "type": "address"
        },
        {
          "internalType": "address",
          "name": "administrator",
          "type": "address"
        }
      ],
      "name": "removeAdministrator",
      "outputs": [],
      "stateMutability": "nonpayable",
      "type": "function"
    },
    {
      "inputs": [],
      "name": "renounceOwnership",
      "outputs": [],
      "stateMutability": "nonpayable",
      "type": "function"
    },
    {
      "inputs": [
        {
          "internalType": "address",
          "name": "newOwner",
          "type": "address"
        }
      ],
      "name": "transferOwnership",
      "outputs": [],
      "stateMutability": "nonpayable",
      "type": "function"
    },
    {
      "inputs": [
        {
          "internalType": "address",
          "name": "id",
          "type": "address"
        },
        {
          "internalType": "string",
          "name": "name",
          "type": "string"
        },
        {
          "internalType": "string",
          "name": "metadataURI",
          "type": "string"
        }
      ],
      "name": "updateOrganization",
      "outputs": [],
      "stateMutability": "nonpayable",
      "type": "function"
    },
    {
      "inputs": [
        {
          "internalType": "address",
          "name": "newImplementation",
          "type": "address"
        },
        {
          "internalType": "bytes",
          "name": "data",
          "type": "bytes"
        }
      ],
      "name": "upgradeToAndCall",
      "outputs": [],
      "stateMutability": "payable",
      "type": "function"
    }
  ],
  "bytecode": "0x60a06040523073ffffffffffffffffffffffffffffffffffffffff1660809073ffffffffffffffffffffffffffffffffffffffff16815250348015604257600080fd5b50608051612ed761006c600039600081816116d90152818161172e01526118e90152612ed76000f3fe6080604052600436106100f35760003560e01c80638129fc1c1161008a578063c2a950be11610059578063c2a950be146102e3578063d2c30a6d1461030c578063f1c621041461034b578063f2fde38b14610376576100f3565b80638129fc1c146102395780638da5cb5b14610250578063ad3cb1cc1461027b578063c1af6e03146102a6576100f3565b80635a1f7406116100c65780635a1f7406146101915780636cca67bf146101d0578063715018a6146101f95780637acbb8af14610210576100f3565b80631c2e3d82146100f85780633c10eee5146101215780634f1ef2861461014a57806352d1902d14610166575b600080fd5b34801561010457600080fd5b5061011f600480360381019061011a919061202d565b61039f565b005b34801561012d57600080fd5b506101486004803603810190610143919061202d565b610606565b005b610164600480360381019061015f91906121b3565b61086d565b005b34801561017257600080fd5b5061017b61088c565b6040516101889190612228565b60405180910390f35b34801561019d57600080fd5b506101b860048036038101906101b39190612243565b6108bf565b6040516101c79392919061230e565b60405180910390f35b3480156101dc57600080fd5b506101f760048036038101906101f291906123b3565b610a09565b005b34801561020557600080fd5b5061020e610cbe565b005b34801561021c57600080fd5b5061023760048036038101906102329190612243565b610cd2565b005b34801561024557600080fd5b5061024e610e26565b005b34801561025c57600080fd5b50610265610fbc565b6040516102729190612457565b60405180910390f35b34801561028757600080fd5b50610290610ff4565b60405161029d9190612472565b60405180910390f35b3480156102b257600080fd5b506102cd60048036038101906102c8919061202d565b61102d565b6040516102da91906124af565b60405180910390f35b3480156102ef57600080fd5b5061030a60048036038101906103059190612520565b6110c3565b005b34801561031857600080fd5b50610333600480360381019061032e9190612243565b6114b1565b6040516103429392919061230e565b60405180910390f35b34801561035757600080fd5b5061036061163b565b60405161036d91906125e9565b60405180910390f35b34801561038257600080fd5b5061039d60048036038101906103989190612243565b611651565b005b816000808273ffffffffffffffffffffffffffffffffffffffff1673ffffffffffffffffffffffffffffffffffffffff16815260200190815260200160002060030160003373ffffffffffffffffffffffffffffffffffffffff1673ffffffffffffffffffffffffffffffffffffffff16815260200190815260200160002060009054906101000a900460ff1661046b576040517f08c379a000000000000000000000000000000000000000000000000000000000815260040161046290612676565b60405180910390fd5b60008060008573ffffffffffffffffffffffffffffffffffffffff1673ffffffffffffffffffffffffffffffffffffffff16815260200190815260200160002060010180546104b9906126c5565b9050116104fb576040517f08c379a00000000000000000000000000000000000000000000000000000000081526004016104f290612768565b60405180910390fd5b600073ffffffffffffffffffffffffffffffffffffffff168273ffffffffffffffffffffffffffffffffffffffff160361056a576040517f08c379a0000000000000000000000000000000000000000000000000000000008152600401610561906127fa565b60405180910390fd5b60016000808573ffffffffffffffffffffffffffffffffffffffff1673ffffffffffffffffffffffffffffffffffffffff16815260200190815260200160002060030160008473ffffffffffffffffffffffffffffffffffffffff1673ffffffffffffffffffffffffffffffffffffffff16815260200190815260200160002060006101000a81548160ff021916908315150217905550505050565b816000808273ffffffffffffffffffffffffffffffffffffffff1673ffffffffffffffffffffffffffffffffffffffff16815260200190815260200160002060030160003373ffffffffffffffffffffffffffffffffffffffff1673ffffffffffffffffffffffffffffffffffffffff16815260200190815260200160002060009054906101000a900460ff166106d2576040517f08c379a00000000000000000000000000000000000000000000000000000000081526004016106c990612676565b60405180910390fd5b60008060008573ffffffffffffffffffffffffffffffffffffffff1673ffffffffffffffffffffffffffffffffffffffff1681526020019081526020016000206001018054610720906126c5565b905011610762576040517f08c379a000000000000000000000000000000000000000000000000000000000815260040161075990612768565b60405180910390fd5b600073ffffffffffffffffffffffffffffffffffffffff168273ffffffffffffffffffffffffffffffffffffffff16036107d1576040517f08c379a00000000000000000000000000000000000000000000000000000000081526004016107c8906127fa565b60405180910390fd5b60008060008573ffffffffffffffffffffffffffffffffffffffff1673ffffffffffffffffffffffffffffffffffffffff16815260200190815260200160002060030160008473ffffffffffffffffffffffffffffffffffffffff1673ffffffffffffffffffffffffffffffffffffffff16815260200190815260200160002060006101000a81548160ff021916908315150217905550505050565b6108756116d7565b61087e826117bd565b61088882826117c8565b5050565b60006108966118e7565b7f360894a13ba1a3210667c828492db98dca3e2076cc3735a920a3ca505d382bbc60001b905090565b60006020528060005260406000206000915090508060000160009054906101000a900463ffffffff16908060010180546108f8906126c5565b80601f0160208091040260200160405190810160405280929190818152602001828054610924906126c5565b80156109715780601f1061094657610100808354040283529160200191610971565b820191906000526020600020905b81548152906001019060200180831161095457829003601f168201915b505050505090806002018054610986906126c5565b80601f01602080910402602001604051908101604052809291908181526020018280546109b2906126c5565b80156109ff5780601f106109d4576101008083540402835291602001916109ff565b820191906000526020600020905b8154815290600101906020018083116109e257829003601f168201915b5050505050905083565b846000808273ffffffffffffffffffffffffffffffffffffffff1673ffffffffffffffffffffffffffffffffffffffff16815260200190815260200160002060030160003373ffffffffffffffffffffffffffffffffffffffff1673ffffffffffffffffffffffffffffffffffffffff16815260200190815260200160002060009054906101000a900460ff16610ad5576040517f08c379a0000000000000000000000000000000000000000000000000000000008152600401610acc90612676565b60405180910390fd5b60008585905011610b1b576040517f08c379a0000000000000000000000000000000000000000000000000000000008152600401610b129061288c565b60405180910390fd5b60008383905011610b61576040517f08c379a0000000000000000000000000000000000000000000000000000000008152600401610b589061291e565b60405180910390fd5b60008060008873ffffffffffffffffffffffffffffffffffffffff1673ffffffffffffffffffffffffffffffffffffffff1681526020019081526020016000206001018054610baf906126c5565b905011610bf1576040517f08c379a0000000000000000000000000000000000000000000000000000000008152600401610be890612768565b60405180910390fd5b60008060008873ffffffffffffffffffffffffffffffffffffffff1673ffffffffffffffffffffffffffffffffffffffff16815260200190815260200160002090508585826001019182610c46929190612aff565b508383826002019182610c5a929190612aff565b503373ffffffffffffffffffffffffffffffffffffffff168773ffffffffffffffffffffffffffffffffffffffff167fdcd663553eb7f5f57b83637c17d95d22a764affd6dbcc98f8ce9dcbac3e239f660405160405180910390a350505050505050565b610cc661196e565b610cd060006119f5565b565b610cda61196e565b60008060008373ffffffffffffffffffffffffffffffffffffffff1673ffffffffffffffffffffffffffffffffffffffff1681526020019081526020016000206001018054610d28906126c5565b905011610d6a576040517f08c379a0000000000000000000000000000000000000000000000000000000008152600401610d6190612768565b60405180910390fd5b6000808273ffffffffffffffffffffffffffffffffffffffff1673ffffffffffffffffffffffffffffffffffffffff168152602001908152602001600020600080820160006101000a81549063ffffffff0219169055600182016000610dd09190611f5e565b600282016000610de09190611f5e565b50506001600081819054906101000a900463ffffffff1680929190610e0490612bfe565b91906101000a81548163ffffffff021916908363ffffffff1602179055505050565b6000610e30611acc565b905060008160000160089054906101000a900460ff1615905060008260000160009054906101000a900467ffffffffffffffff1690506000808267ffffffffffffffff16148015610e7e5750825b9050600060018367ffffffffffffffff16148015610eb3575060003073ffffffffffffffffffffffffffffffffffffffff163b145b905081158015610ec1575080155b15610ef8576040517ff92ee8a900000000000000000000000000000000000000000000000000000000815260040160405180910390fd5b60018560000160006101000a81548167ffffffffffffffff021916908367ffffffffffffffff1602179055508315610f485760018560000160086101000a81548160ff0219169083151502179055505b610f5133611af4565b610f59611b08565b8315610fb55760008560000160086101000a81548160ff0219169083151502179055507fc7f505b2f371ae2175ee4913f4499e1f2633a7b5936321eed1cdaeb6115181d26001604051610fac9190612c76565b60405180910390a15b5050505050565b600080610fc7611b12565b90508060000160009054906101000a900473ffffffffffffffffffffffffffffffffffffffff1691505090565b6040518060400160405280600581526020017f352e302e3000000000000000000000000000000000000000000000000000000081525081565b60008060008473ffffffffffffffffffffffffffffffffffffffff1673ffffffffffffffffffffffffffffffffffffffff16815260200190815260200160002060030160008373ffffffffffffffffffffffffffffffffffffffff1673ffffffffffffffffffffffffffffffffffffffff16815260200190815260200160002060009054906101000a900460ff16905092915050565b600073ffffffffffffffffffffffffffffffffffffffff168773ffffffffffffffffffffffffffffffffffffffff1603611132576040517f08c379a000000000000000000000000000000000000000000000000000000000815260040161112990612cdd565b60405180910390fd5b60008686905011611178576040517f08c379a000000000000000000000000000000000000000000000000000000000815260040161116f9061288c565b60405180910390fd5b60008060008973ffffffffffffffffffffffffffffffffffffffff1673ffffffffffffffffffffffffffffffffffffffff16815260200190815260200160002060010180546111c6906126c5565b905014611208576040517f08c379a00000000000000000000000000000000000000000000000000000000081526004016111ff90612d6f565b60405180910390fd5b60008060008973ffffffffffffffffffffffffffffffffffffffff1673ffffffffffffffffffffffffffffffffffffffff1681526020019081526020016000209050868682600101918261125d929190612aff565b508484826002019182611271929190612aff565b5060008383905011156113b25760005b838390508110156113b057600073ffffffffffffffffffffffffffffffffffffffff168484838181106112b7576112b6612d8f565b5b90506020020160208101906112cc9190612243565b73ffffffffffffffffffffffffffffffffffffffff1603611322576040517f08c379a0000000000000000000000000000000000000000000000000000000008152600401611319906127fa565b60405180910390fd5b600182600301600086868581811061133d5761133c612d8f565b5b90506020020160208101906113529190612243565b73ffffffffffffffffffffffffffffffffffffffff1673ffffffffffffffffffffffffffffffffffffffff16815260200190815260200160002060006101000a81548160ff0219169083151502179055508080600101915050611281565b505b60018160030160003373ffffffffffffffffffffffffffffffffffffffff1673ffffffffffffffffffffffffffffffffffffffff16815260200190815260200160002060006101000a81548160ff0219169083151502179055506001600081819054906101000a900463ffffffff168092919061142e90612dbe565b91906101000a81548163ffffffff021916908363ffffffff160217905550503373ffffffffffffffffffffffffffffffffffffffff168873ffffffffffffffffffffffffffffffffffffffff167f2725ca0bb6f842da395a595005373aaa8e052b21133359b3c75f59a1247e6e7a60405160405180910390a35050505050505050565b600060608060008060008673ffffffffffffffffffffffffffffffffffffffff1673ffffffffffffffffffffffffffffffffffffffff16815260200190815260200160002090508060000160009054906101000a900463ffffffff168160010182600201818054611521906126c5565b80601f016020809104026020016040519081016040528092919081815260200182805461154d906126c5565b801561159a5780601f1061156f5761010080835404028352916020019161159a565b820191906000526020600020905b81548152906001019060200180831161157d57829003601f168201915b505050505091508080546115ad906126c5565b80601f01602080910402602001604051908101604052809291908181526020018280546115d9906126c5565b80156116265780601f106115fb57610100808354040283529160200191611626565b820191906000526020600020905b81548152906001019060200180831161160957829003601f168201915b50505050509050935093509350509193909250565b600160009054906101000a900463ffffffff1681565b61165961196e565b600073ffffffffffffffffffffffffffffffffffffffff168173ffffffffffffffffffffffffffffffffffffffff16036116cb5760006040517f1e4fbdf70000000000000000000000000000000000000000000000000000000081526004016116c29190612457565b60405180910390fd5b6116d4816119f5565b50565b7f000000000000000000000000000000000000000000000000000000000000000073ffffffffffffffffffffffffffffffffffffffff163073ffffffffffffffffffffffffffffffffffffffff16148061178457507f000000000000000000000000000000000000000000000000000000000000000073ffffffffffffffffffffffffffffffffffffffff1661176b611b3a565b73ffffffffffffffffffffffffffffffffffffffff1614155b156117bb576040517fe07c8dba00000000000000000000000000000000000000000000000000000000815260040160405180910390fd5b565b6117c561196e565b50565b8173ffffffffffffffffffffffffffffffffffffffff166352d1902d6040518163ffffffff1660e01b8152600401602060405180830381865afa92505050801561183057506040513d601f19601f8201168201806040525081019061182d9190612e16565b60015b61187157816040517f4c9c8ce30000000000000000000000000000000000000000000000000000000081526004016118689190612457565b60405180910390fd5b7f360894a13ba1a3210667c828492db98dca3e2076cc3735a920a3ca505d382bbc60001b81146118d857806040517faa1d49a40000000000000000000000000000000000000000000000000000000081526004016118cf9190612228565b60405180910390fd5b6118e28383611b91565b505050565b7f000000000000000000000000000000000000000000000000000000000000000073ffffffffffffffffffffffffffffffffffffffff163073ffffffffffffffffffffffffffffffffffffffff161461196c576040517fe07c8dba00000000000000000000000000000000000000000000000000000000815260040160405180910390fd5b565b611976611c04565b73ffffffffffffffffffffffffffffffffffffffff16611994610fbc565b73ffffffffffffffffffffffffffffffffffffffff16146119f3576119b7611c04565b6040517f118cdaa70000000000000000000000000000000000000000000000000000000081526004016119ea9190612457565b60405180910390fd5b565b60006119ff611b12565b905060008160000160009054906101000a900473ffffffffffffffffffffffffffffffffffffffff169050828260000160006101000a81548173ffffffffffffffffffffffffffffffffffffffff021916908373ffffffffffffffffffffffffffffffffffffffff1602179055508273ffffffffffffffffffffffffffffffffffffffff168173ffffffffffffffffffffffffffffffffffffffff167f8be0079c531659141344cd1fd0a4f28419497f9722a3daafe3b4186f6b6457e060405160405180910390a3505050565b60007ff0c57e16840df040f15088dc2f81fe391c3923bec73e23a9662efc9c229c6a00905090565b611afc611c0c565b611b0581611c4c565b50565b611b10611c0c565b565b60007f9016d09d72d40fdae2fd8ceac6b6234c7706214fd39c1cd1e609a0528c199300905090565b6000611b687f360894a13ba1a3210667c828492db98dca3e2076cc3735a920a3ca505d382bbc60001b611cd2565b60000160009054906101000a900473ffffffffffffffffffffffffffffffffffffffff16905090565b611b9a82611cdc565b8173ffffffffffffffffffffffffffffffffffffffff167fbc7cd75a20ee27fd9adebab32041f755214dbc6bffa90cc0225b39da2e5c2d3b60405160405180910390a2600081511115611bf757611bf18282611da9565b50611c00565b611bff611e2d565b5b5050565b600033905090565b611c14611e6a565b611c4a576040517fd7e6bcf800000000000000000000000000000000000000000000000000000000815260040160405180910390fd5b565b611c54611c0c565b600073ffffffffffffffffffffffffffffffffffffffff168173ffffffffffffffffffffffffffffffffffffffff1603611cc65760006040517f1e4fbdf7000000000000000000000000000000000000000000000000000000008152600401611cbd9190612457565b60405180910390fd5b611ccf816119f5565b50565b6000819050919050565b60008173ffffffffffffffffffffffffffffffffffffffff163b03611d3857806040517f4c9c8ce3000000000000000000000000000000000000000000000000000000008152600401611d2f9190612457565b60405180910390fd5b80611d657f360894a13ba1a3210667c828492db98dca3e2076cc3735a920a3ca505d382bbc60001b611cd2565b60000160006101000a81548173ffffffffffffffffffffffffffffffffffffffff021916908373ffffffffffffffffffffffffffffffffffffffff16021790555050565b60606000808473ffffffffffffffffffffffffffffffffffffffff1684604051611dd39190612e8a565b600060405180830381855af49150503d8060008114611e0e576040519150601f19603f3d011682016040523d82523d6000602084013e611e13565b606091505b5091509150611e23858383611e8a565b9250505092915050565b6000341115611e68576040517fb398979f00000000000000000000000000000000000000000000000000000000815260040160405180910390fd5b565b6000611e74611acc565b60000160089054906101000a900460ff16905090565b606082611e9f57611e9a82611f19565b611f11565b60008251148015611ec7575060008473ffffffffffffffffffffffffffffffffffffffff163b145b15611f0957836040517f9996b315000000000000000000000000000000000000000000000000000000008152600401611f009190612457565b60405180910390fd5b819050611f12565b5b9392505050565b600081511115611f2c5780518082602001fd5b6040517f1425ea4200000000000000000000000000000000000000000000000000000000815260040160405180910390fd5b508054611f6a906126c5565b6000825580601f10611f7c5750611f9b565b601f016020900490600052602060002090810190611f9a9190611f9e565b5b50565b5b80821115611fb7576000816000905550600101611f9f565b5090565b6000604051905090565b600080fd5b600080fd5b600073ffffffffffffffffffffffffffffffffffffffff82169050919050565b6000611ffa82611fcf565b9050919050565b61200a81611fef565b811461201557600080fd5b50565b60008135905061202781612001565b92915050565b6000806040838503121561204457612043611fc5565b5b600061205285828601612018565b925050602061206385828601612018565b9150509250929050565b600080fd5b600080fd5b6000601f19601f8301169050919050565b7f4e487b7100000000000000000000000000000000000000000000000000000000600052604160045260246000fd5b6120c082612077565b810181811067ffffffffffffffff821117156120df576120de612088565b5b80604052505050565b60006120f2611fbb565b90506120fe82826120b7565b919050565b600067ffffffffffffffff82111561211e5761211d612088565b5b61212782612077565b9050602081019050919050565b82818337600083830152505050565b600061215661215184612103565b6120e8565b90508281526020810184848401111561217257612171612072565b5b61217d848285612134565b509392505050565b600082601f83011261219a5761219961206d565b5b81356121aa848260208601612143565b91505092915050565b600080604083850312156121ca576121c9611fc5565b5b60006121d885828601612018565b925050602083013567ffffffffffffffff8111156121f9576121f8611fca565b5b61220585828601612185565b9150509250929050565b6000819050919050565b6122228161220f565b82525050565b600060208201905061223d6000830184612219565b92915050565b60006020828403121561225957612258611fc5565b5b600061226784828501612018565b91505092915050565b600063ffffffff82169050919050565b61228981612270565b82525050565b600081519050919050565b600082825260208201905092915050565b60005b838110156122c95780820151818401526020810190506122ae565b60008484015250505050565b60006122e08261228f565b6122ea818561229a565b93506122fa8185602086016122ab565b61230381612077565b840191505092915050565b60006060820190506123236000830186612280565b818103602083015261233581856122d5565b9050818103604083015261234981846122d5565b9050949350505050565b600080fd5b600080fd5b60008083601f8401126123735761237261206d565b5b8235905067ffffffffffffffff8111156123905761238f612353565b5b6020830191508360018202830111156123ac576123ab612358565b5b9250929050565b6000806000806000606086880312156123cf576123ce611fc5565b5b60006123dd88828901612018565b955050602086013567ffffffffffffffff8111156123fe576123fd611fca565b5b61240a8882890161235d565b9450945050604086013567ffffffffffffffff81111561242d5761242c611fca565b5b6124398882890161235d565b92509250509295509295909350565b61245181611fef565b82525050565b600060208201905061246c6000830184612448565b92915050565b6000602082019050818103600083015261248c81846122d5565b905092915050565b60008115159050919050565b6124a981612494565b82525050565b60006020820190506124c460008301846124a0565b92915050565b60008083601f8401126124e0576124df61206d565b5b8235905067ffffffffffffffff8111156124fd576124fc612353565b5b60208301915083602082028301111561251957612518612358565b5b9250929050565b60008060008060008060006080888a03121561253f5761253e611fc5565b5b600061254d8a828b01612018565b975050602088013567ffffffffffffffff81111561256e5761256d611fca565b5b61257a8a828b0161235d565b9650965050604088013567ffffffffffffffff81111561259d5761259c611fca565b5b6125a98a828b0161235d565b9450945050606088013567ffffffffffffffff8111156125cc576125cb611fca565b5b6125d88a828b016124ca565b925092505092959891949750929550565b60006020820190506125fe6000830184612280565b92915050565b7f4f7267616e697a6174696f6e52656769737472793a206e6f7420616e2061646d60008201527f696e6973747261746f7200000000000000000000000000000000000000000000602082015250565b6000612660602a8361229a565b915061266b82612604565b604082019050919050565b6000602082019050818103600083015261268f81612653565b9050919050565b7f4e487b7100000000000000000000000000000000000000000000000000000000600052602260045260246000fd5b600060028204905060018216806126dd57607f821691505b6020821081036126f0576126ef612696565b5b50919050565b7f4f7267616e697a6174696f6e52656769737472793a206f7267616e697a61746960008201527f6f6e20646f6573206e6f74206578697374000000000000000000000000000000602082015250565b600061275260318361229a565b915061275d826126f6565b604082019050919050565b6000602082019050818103600083015261278181612745565b9050919050565b7f4f7267616e697a6174696f6e52656769737472793a20696e76616c696420616460008201527f6d696e6973747261746f72206164647265737300000000000000000000000000602082015250565b60006127e460338361229a565b91506127ef82612788565b604082019050919050565b60006020820190508181036000830152612813816127d7565b9050919050565b7f4f7267616e697a6174696f6e52656769737472793a20696e76616c6964206e6160008201527f6d65000000000000000000000000000000000000000000000000000000000000602082015250565b600061287660228361229a565b91506128818261281a565b604082019050919050565b600060208201905081810360008301526128a581612869565b9050919050565b7f4f7267616e697a6174696f6e52656769737472793a20696e76616c6964206d6560008201527f7461646174615552490000000000000000000000000000000000000000000000602082015250565b600061290860298361229a565b9150612913826128ac565b604082019050919050565b60006020820190508181036000830152612937816128fb565b9050919050565b600082905092915050565b60008190508160005260206000209050919050565b60006020601f8301049050919050565b600082821b905092915050565b6000600883026129ab7fffffffffffffffffffffffffffffffffffffffffffffffffffffffffffffffff8261296e565b6129b5868361296e565b95508019841693508086168417925050509392505050565b6000819050919050565b6000819050919050565b60006129fc6129f76129f2846129cd565b6129d7565b6129cd565b9050919050565b6000819050919050565b612a16836129e1565b612a2a612a2282612a03565b84845461297b565b825550505050565b600090565b612a3f612a32565b612a4a818484612a0d565b505050565b5b81811015612a6e57612a63600082612a37565b600181019050612a50565b5050565b601f821115612ab357612a8481612949565b612a8d8461295e565b81016020851015612a9c578190505b612ab0612aa88561295e565b830182612a4f565b50505b505050565b600082821c905092915050565b6000612ad660001984600802612ab8565b1980831691505092915050565b6000612aef8383612ac5565b9150826002028217905092915050565b612b09838361293e565b67ffffffffffffffff811115612b2257612b21612088565b5b612b2c82546126c5565b612b37828285612a72565b6000601f831160018114612b665760008415612b54578287013590505b612b5e8582612ae3565b865550612bc6565b601f198416612b7486612949565b60005b82811015612b9c57848901358255600182019150602085019450602081019050612b77565b86831015612bb95784890135612bb5601f891682612ac5565b8355505b6001600288020188555050505b50505050505050565b7f4e487b7100000000000000000000000000000000000000000000000000000000600052601160045260246000fd5b6000612c0982612270565b915060008203612c1c57612c1b612bcf565b5b600182039050919050565b6000819050919050565b600067ffffffffffffffff82169050919050565b6000612c60612c5b612c5684612c27565b6129d7565b612c31565b9050919050565b612c7081612c45565b82525050565b6000602082019050612c8b6000830184612c67565b92915050565b7f4f7267616e697a6174696f6e52656769737472793a20696e76616c6964206964600082015250565b6000612cc760208361229a565b9150612cd282612c91565b602082019050919050565b60006020820190508181036000830152612cf681612cba565b9050919050565b7f4f7267616e697a6174696f6e52656769737472793a206f7267616e697a61746960008201527f6f6e20616c726561647920657869737473000000000000000000000000000000602082015250565b6000612d5960318361229a565b9150612d6482612cfd565b604082019050919050565b60006020820190508181036000830152612d8881612d4c565b9050919050565b7f4e487b7100000000000000000000000000000000000000000000000000000000600052603260045260246000fd5b6000612dc982612270565b915063ffffffff8203612ddf57612dde612bcf565b5b600182019050919050565b612df38161220f565b8114612dfe57600080fd5b50565b600081519050612e1081612dea565b92915050565b600060208284031215612e2c57612e2b611fc5565b5b6000612e3a84828501612e01565b91505092915050565b600081519050919050565b600081905092915050565b6000612e6482612e43565b612e6e8185612e4e565b9350612e7e8185602086016122ab565b80840191505092915050565b6000612e968284612e59565b91508190509291505056fea2646970667358221220efedc1e47edc7f365186599d3f3f05ab5b0753070549db4703d021df91d55aac64736f6c634300081c0033",
  "linkReferences": {},
  "deployedLinkReferences": {}
}