{
  "_format": "hh-sol-artifact-1",
  "contractName": "ProposalRegistry",
  "sourceName": "src/ProposalRegistry.sol",
  "abi": [
    {
      "inputs": [
        {
          "internalType": "address",
          "name": "target",
          "type": "address"
        }
      ],
      "name": "AddressEmptyCode",
      "type": "error"
    },
    {
      "inputs": [
        {
          "internalType": "address",
          "name": "implementation",
          "type": "address"
        }
      ],
      "name": "ERC1967InvalidImplementation",
      "type": "error"
    },
    {
      "inputs": [],
      "name": "ERC1967NonPayable",
      "type": "error"
    },
    {
      "inputs": [],
      "name": "FailedInnerCall",
      "type": "error"
    },
    {
      "inputs": [],
      "name": "InvalidInitialization",
      "type": "error"
    },
    {
      "inputs": [],
      "name": "NotInitializing",
      "type": "error"
    },
    {
      "inputs": [
        {
          "internalType": "address",
          "name": "owner",
          "type": "address"
        }
      ],
      "name": "OwnableInvalidOwner",
      "type": "error"
    },
    {
      "inputs": [
        {
          "internalType": "address",
          "name": "account",
          "type": "address"
        }
      ],
      "name": "OwnableUnauthorizedAccount",
      "type": "error"
    },
    {
      "inputs": [],
      "name": "UUPSUnauthorizedCallContext",
      "type": "error"
    },
    {
      "inputs": [
        {
          "internalType": "bytes32",
          "name": "slot",
          "type": "bytes32"
        }
      ],
      "name": "UUPSUnsupportedProxiableUUID",
      "type": "error"
    },
    {
      "anonymous": false,
      "inputs": [
        {
          "indexed": true,
          "internalType": "bytes32",
          "name": "proposalID",
          "type": "bytes32"
        },
        {
          "indexed": false,
          "internalType": "bytes32",
          "name": "censusRoot",
          "type": "bytes32"
        },
        {
          "indexed": false,
          "internalType": "string",
          "name": "censusURI",
          "type": "string"
        },
        {
          "indexed": false,
          "internalType": "uint256",
          "name": "maxCensusSize",
          "type": "uint256"
        }
      ],
      "name": "CensusUpdated",
      "type": "event"
    },
    {
      "anonymous": false,
      "inputs": [
        {
          "indexed": false,
          "internalType": "uint64",
          "name": "version",
          "type": "uint64"
        }
      ],
      "name": "Initialized",
      "type": "event"
    },
    {
      "anonymous": false,
      "inputs": [
        {
          "indexed": true,
          "internalType": "address",
          "name": "previousOwner",
          "type": "address"
        },
        {
          "indexed": true,
          "internalType": "address",
          "name": "newOwner",
          "type": "address"
        }
      ],
      "name": "OwnershipTransferred",
      "type": "event"
    },
    {
      "anonymous": false,
      "inputs": [
        {
          "indexed": true,
          "internalType": "bytes32",
          "name": "proposalID",
          "type": "bytes32"
        },
        {
          "indexed": true,
          "internalType": "address",
          "name": "creator",
          "type": "address"
        }
      ],
      "name": "ProposalCreated",
      "type": "event"
    },
    {
      "anonymous": false,
      "inputs": [
        {
          "indexed": true,
          "internalType": "bytes32",
          "name": "proposalID",
          "type": "bytes32"
        },
        {
          "indexed": false,
          "internalType": "uint256",
          "name": "duration",
          "type": "uint256"
        }
      ],
      "name": "ProposalDurationChanged",
      "type": "event"
    },
    {
      "anonymous": false,
      "inputs": [
        {
          "indexed": true,
          "internalType": "bytes32",
          "name": "proposalID",
          "type": "bytes32"
        },
        {
          "indexed": false,
          "internalType": "bytes32",
          "name": "newStateRoot",
          "type": "bytes32"
        }
      ],
      "name": "ProposalStateRootUpdated",
      "type": "event"
    },
    {
      "anonymous": false,
      "inputs": [
        {
          "indexed": true,
          "internalType": "bytes32",
          "name": "proposalID",
          "type": "bytes32"
        },
        {
          "indexed": false,
          "internalType": "enum ProposalRegistry.ProposalStatus",
          "name": "newStatus",
          "type": "uint8"
        }
      ],
      "name": "ProposalStatusChanged",
      "type": "event"
    },
    {
      "anonymous": false,
      "inputs": [
        {
          "indexed": true,
          "internalType": "address",
          "name": "implementation",
          "type": "address"
        }
      ],
      "name": "Upgraded",
      "type": "event"
    },
    {
      "inputs": [],
      "name": "UPGRADE_INTERFACE_VERSION",
      "outputs": [
        {
          "internalType": "string",
          "name": "",
          "type": "string"
        }
      ],
      "stateMutability": "view",
      "type": "function"
    },
    {
      "inputs": [],
      "name": "chainID",
      "outputs": [
        {
          "internalType": "string",
          "name": "",
          "type": "string"
        }
      ],
      "stateMutability": "view",
      "type": "function"
    },
    {
      "inputs": [
        {
          "internalType": "bytes32",
          "name": "_proposalID",
          "type": "bytes32"
        }
      ],
      "name": "endProposal",
      "outputs": [],
      "stateMutability": "nonpayable",
      "type": "function"
    },
    {
      "inputs": [
        {
          "internalType": "bytes32",
          "name": "_proposalID",
          "type": "bytes32"
        }
      ],
      "name": "getProposal",
      "outputs": [
        {
          "components": [
            {
              "internalType": "enum ProposalRegistry.ProposalStatus",
              "name": "status",
              "type": "uint8"
            },
            {
              "internalType": "bytes32",
              "name": "organizationId",
              "type": "bytes32"
            },
            {
              "internalType": "bytes32[2]",
              "name": "encryptionKeys",
              "type": "bytes32[2]"
            },
            {
              "internalType": "bytes32",
              "name": "latestStateRoot",
              "type": "bytes32"
            },
            {
              "internalType": "uint256[][]",
              "name": "result",
              "type": "uint256[][]"
            },
            {
              "internalType": "uint256",
              "name": "startTime",
              "type": "uint256"
            },
            {
              "internalType": "uint256",
              "name": "duration",
              "type": "uint256"
            },
            {
              "internalType": "string",
              "name": "metadataURI",
              "type": "string"
            },
            {
              "components": [
                {
                  "internalType": "uint8",
                  "name": "envelopeType",
                  "type": "uint8"
                },
                {
                  "internalType": "uint8",
                  "name": "proposalMode",
                  "type": "uint8"
                },
                {
                  "internalType": "uint256",
                  "name": "startTime",
                  "type": "uint256"
                },
                {
                  "internalType": "uint256",
                  "name": "duration",
                  "type": "uint256"
                },
                {
                  "internalType": "enum ProposalRegistry.ProposalStatus",
                  "name": "status",
                  "type": "uint8"
                },
                {
                  "components": [
                    {
                      "internalType": "bool",
                      "name": "uniqueValues",
                      "type": "bool"
                    },
                    {
                      "internalType": "uint256",
                      "name": "maxCount",
                      "type": "uint256"
                    },
                    {
                      "internalType": "uint256",
                      "name": "maxValue",
                      "type": "uint256"
                    },
                    {
                      "internalType": "uint256",
                      "name": "minValue",
                      "type": "uint256"
                    },
                    {
                      "internalType": "uint256",
                      "name": "maxOverwrites",
                      "type": "uint256"
                    },
                    {
                      "internalType": "uint256",
                      "name": "maxTotalCost",
                      "type": "uint256"
                    },
                    {
                      "internalType": "uint256",
                      "name": "minTotalCost",
                      "type": "uint256"
                    },
                    {
                      "internalType": "uint256",
                      "name": "costExponent",
                      "type": "uint256"
                    }
                  ],
                  "internalType": "struct ProposalRegistry.VoteOptions",
                  "name": "voteOptions",
                  "type": "tuple"
                }
              ],
              "internalType": "struct ProposalRegistry.ProposalOptions",
              "name": "options",
              "type": "tuple"
            },
            {
              "components": [
                {
                  "internalType": "enum ProposalRegistry.CensusOrigin",
                  "name": "censusOrigin",
                  "type": "uint8"
                },
                {
                  "internalType": "uint256",
                  "name": "maxCensusSize",
                  "type": "uint256"
                },
                {
                  "internalType": "bytes32",
                  "name": "censusRoot",
                  "type": "bytes32"
                },
                {
                  "internalType": "string",
                  "name": "censusURI",
                  "type": "string"
                }
              ],
              "internalType": "struct ProposalRegistry.Census",
              "name": "census",
              "type": "tuple"
            }
          ],
          "internalType": "struct ProposalRegistry.Proposal",
          "name": "",
          "type": "tuple"
        }
      ],
      "stateMutability": "view",
      "type": "function"
    },
    {
      "inputs": [
        {
          "internalType": "string",
          "name": "_chainID",
          "type": "string"
        },
        {
          "internalType": "address",
          "name": "_organizationRegistry",
          "type": "address"
        }
      ],
      "name": "initialize",
      "outputs": [],
      "stateMutability": "nonpayable",
      "type": "function"
    },
    {
      "inputs": [
        {
          "components": [
            {
              "internalType": "uint8",
              "name": "envelopeType",
              "type": "uint8"
            },
            {
              "internalType": "uint8",
              "name": "proposalMode",
              "type": "uint8"
            },
            {
              "internalType": "uint256",
              "name": "startTime",
              "type": "uint256"
            },
            {
              "internalType": "uint256",
              "name": "duration",
              "type": "uint256"
            },
            {
              "internalType": "enum ProposalRegistry.ProposalStatus",
              "name": "status",
              "type": "uint8"
            },
            {
              "components": [
                {
                  "internalType": "bool",
                  "name": "uniqueValues",
                  "type": "bool"
                },
                {
                  "internalType": "uint256",
                  "name": "maxCount",
                  "type": "uint256"
                },
                {
                  "internalType": "uint256",
                  "name": "maxValue",
                  "type": "uint256"
                },
                {
                  "internalType": "uint256",
                  "name": "minValue",
                  "type": "uint256"
                },
                {
                  "internalType": "uint256",
                  "name": "maxOverwrites",
                  "type": "uint256"
                },
                {
                  "internalType": "uint256",
                  "name": "maxTotalCost",
                  "type": "uint256"
                },
                {
                  "internalType": "uint256",
                  "name": "minTotalCost",
                  "type": "uint256"
                },
                {
                  "internalType": "uint256",
                  "name": "costExponent",
                  "type": "uint256"
                }
              ],
              "internalType": "struct ProposalRegistry.VoteOptions",
              "name": "voteOptions",
              "type": "tuple"
            }
          ],
          "internalType": "struct ProposalRegistry.ProposalOptions",
          "name": "_options",
          "type": "tuple"
        },
        {
          "components": [
            {
              "internalType": "enum ProposalRegistry.CensusOrigin",
              "name": "censusOrigin",
              "type": "uint8"
            },
            {
              "internalType": "uint256",
              "name": "maxCensusSize",
              "type": "uint256"
            },
            {
              "internalType": "bytes32",
              "name": "censusRoot",
              "type": "bytes32"
            },
            {
              "internalType": "string",
              "name": "censusURI",
              "type": "string"
            }
          ],
          "internalType": "struct ProposalRegistry.Census",
          "name": "_census",
          "type": "tuple"
        },
        {
          "internalType": "string",
          "name": "_metadata",
          "type": "string"
        },
        {
          "internalType": "bytes32",
          "name": "_organizationID",
          "type": "bytes32"
        },
        {
          "internalType": "bytes32",
          "name": "_proposalID",
          "type": "bytes32"
        },
        {
          "internalType": "bytes32",
          "name": "_encryptionPubKey",
          "type": "bytes32"
        },
        {
          "internalType": "bytes32",
          "name": "_initStateRoot",
          "type": "bytes32"
        }
      ],
      "name": "newProposal",
      "outputs": [],
      "stateMutability": "nonpayable",
      "type": "function"
    },
    {
      "inputs": [],
      "name": "organizationRegistry",
      "outputs": [
        {
          "internalType": "address",
          "name": "",
          "type": "address"
        }
      ],
      "stateMutability": "view",
      "type": "function"
    },
    {
      "inputs": [],
      "name": "owner",
      "outputs": [
        {
          "internalType": "address",
          "name": "",
          "type": "address"
        }
      ],
      "stateMutability": "view",
      "type": "function"
    },
    {
      "inputs": [],
      "name": "proposalCount",
      "outputs": [
        {
          "internalType": "uint32",
          "name": "",
          "type": "uint32"
        }
      ],
      "stateMutability": "view",
      "type": "function"
    },
    {
      "inputs": [
        {
          "internalType": "bytes32",
          "name": "",
          "type": "bytes32"
        }
      ],
      "name": "proposals",
      "outputs": [
        {
          "internalType": "enum ProposalRegistry.ProposalStatus",
          "name": "status",
          "type": "uint8"
        },
        {
          "internalType": "bytes32",
          "name": "organizationId",
          "type": "bytes32"
        },
        {
          "internalType": "bytes32",
          "name": "latestStateRoot",
          "type": "bytes32"
        },
        {
          "internalType": "uint256",
          "name": "startTime",
          "type": "uint256"
        },
        {
          "internalType": "uint256",
          "name": "duration",
          "type": "uint256"
        },
        {
          "internalType": "string",
          "name": "metadataURI",
          "type": "string"
        },
        {
          "components": [
            {
              "internalType": "uint8",
              "name": "envelopeType",
              "type": "uint8"
            },
            {
              "internalType": "uint8",
              "name": "proposalMode",
              "type": "uint8"
            },
            {
              "internalType": "uint256",
              "name": "startTime",
              "type": "uint256"
            },
            {
              "internalType": "uint256",
              "name": "duration",
              "type": "uint256"
            },
            {
              "internalType": "enum ProposalRegistry.ProposalStatus",
              "name": "status",
              "type": "uint8"
            },
            {
              "components": [
                {
                  "internalType": "bool",
                  "name": "uniqueValues",
                  "type": "bool"
                },
                {
                  "internalType": "uint256",
                  "name": "maxCount",
                  "type": "uint256"
                },
                {
                  "internalType": "uint256",
                  "name": "maxValue",
                  "type": "uint256"
                },
                {
                  "internalType": "uint256",
                  "name": "minValue",
                  "type": "uint256"
                },
                {
                  "internalType": "uint256",
                  "name": "maxOverwrites",
                  "type": "uint256"
                },
                {
                  "internalType": "uint256",
                  "name": "maxTotalCost",
                  "type": "uint256"
                },
                {
                  "internalType": "uint256",
                  "name": "minTotalCost",
                  "type": "uint256"
                },
                {
                  "internalType": "uint256",
                  "name": "costExponent",
                  "type": "uint256"
                }
              ],
              "internalType": "struct ProposalRegistry.VoteOptions",
              "name": "voteOptions",
              "type": "tuple"
            }
          ],
          "internalType": "struct ProposalRegistry.ProposalOptions",
          "name": "options",
          "type": "tuple"
        },
        {
          "components": [
            {
              "internalType": "enum ProposalRegistry.CensusOrigin",
              "name": "censusOrigin",
              "type": "uint8"
            },
            {
              "internalType": "uint256",
              "name": "maxCensusSize",
              "type": "uint256"
            },
            {
              "internalType": "bytes32",
              "name": "censusRoot",
              "type": "bytes32"
            },
            {
              "internalType": "string",
              "name": "censusURI",
              "type": "string"
            }
          ],
          "internalType": "struct ProposalRegistry.Census",
          "name": "census",
          "type": "tuple"
        }
      ],
      "stateMutability": "view",
      "type": "function"
    },
    {
      "inputs": [],
      "name": "proxiableUUID",
      "outputs": [
        {
          "internalType": "bytes32",
          "name": "",
          "type": "bytes32"
        }
      ],
      "stateMutability": "view",
      "type": "function"
    },
    {
      "inputs": [],
      "name": "renounceOwnership",
      "outputs": [],
      "stateMutability": "nonpayable",
      "type": "function"
    },
    {
      "inputs": [
        {
          "internalType": "bytes32",
          "name": "_proposalID",
          "type": "bytes32"
        },
        {
          "components": [
            {
              "internalType": "enum ProposalRegistry.CensusOrigin",
              "name": "censusOrigin",
              "type": "uint8"
            },
            {
              "internalType": "uint256",
              "name": "maxCensusSize",
              "type": "uint256"
            },
            {
              "internalType": "bytes32",
              "name": "censusRoot",
              "type": "bytes32"
            },
            {
              "internalType": "string",
              "name": "censusURI",
              "type": "string"
            }
          ],
          "internalType": "struct ProposalRegistry.Census",
          "name": "_census",
          "type": "tuple"
        }
      ],
      "name": "setProposalCensus",
      "outputs": [],
      "stateMutability": "nonpayable",
      "type": "function"
    },
    {
      "inputs": [
        {
          "internalType": "bytes32",
          "name": "_proposalID",
          "type": "bytes32"
        },
        {
          "internalType": "uint256",
          "name": "_duration",
          "type": "uint256"
        }
      ],
      "name": "setProposalDuration",
      "outputs": [],
      "stateMutability": "nonpayable",
      "type": "function"
    },
    {
      "inputs": [
        {
          "internalType": "bytes32",
          "name": "_proposalID",
          "type": "bytes32"
        },
        {
          "internalType": "uint256[][]",
          "name": "_result",
          "type": "uint256[][]"
        },
        {
          "internalType": "bytes",
          "name": "_proof",
          "type": "bytes"
        }
      ],
      "name": "setProposalResult",
      "outputs": [],
      "stateMutability": "nonpayable",
      "type": "function"
    },
    {
      "inputs": [
        {
          "internalType": "bytes32",
          "name": "_proposalID",
          "type": "bytes32"
        },
        {
          "internalType": "enum ProposalRegistry.ProposalStatus",
          "name": "_newStatus",
          "type": "uint8"
        }
      ],
      "name": "setProposalStatus",
      "outputs": [],
      "stateMutability": "nonpayable",
      "type": "function"
    },
    {
      "inputs": [
        {
          "internalType": "bytes32",
          "name": "_proposalID",
          "type": "bytes32"
        },
        {
          "internalType": "bytes32",
          "name": "_oldRoot",
          "type": "bytes32"
        },
        {
          "internalType": "bytes32",
          "name": "_newRoot",
          "type": "bytes32"
        },
        {
          "internalType": "bytes",
          "name": "_proof",
          "type": "bytes"
        }
      ],
      "name": "submitStateTransition",
      "outputs": [],
      "stateMutability": "nonpayable",
      "type": "function"
    },
    {
      "inputs": [
        {
          "internalType": "address",
          "name": "newOwner",
          "type": "address"
        }
      ],
      "name": "transferOwnership",
      "outputs": [],
      "stateMutability": "nonpayable",
      "type": "function"
    },
    {
      "inputs": [
        {
          "internalType": "address",
          "name": "newImplementation",
          "type": "address"
        },
        {
          "internalType": "bytes",
          "name": "data",
          "type": "bytes"
        }
      ],
      "name": "upgradeToAndCall",
      "outputs": [],
      "stateMutability": "payable",
      "type": "function"
    }
  ],
  "bytecode": "0x60a06040523073ffffffffffffffffffffffffffffffffffffffff1660809073ffffffffffffffffffffffffffffffffffffffff1681525034801561004357600080fd5b50608051615dbc6200006e60003960008181612865015281816128ba0152612a750152615dbc6000f3fe6080604052600436106101145760003560e01c80638cafab7f116100a0578063b3b4706111610064578063b3b4706114610371578063b66ba6eb1461039a578063c0bd47a1146103c3578063da35c664146103ec578063f2fde38b1461041757610114565b80638cafab7f1461029c5780638da5cb5b146102c7578063ad3cb1cc146102f2578063adc879e91461031d578063b2dc5ded1461034857610114565b8063430694cf116100e7578063430694cf146101d85780634f1ef2861461021557806352d1902d14610231578063715018a61461025c5780637ab4339d1461027357610114565b806309d72ae71461011957806317f02ebe1461014257806332ed5b121461016b57806339eacf34146101af575b600080fd5b34801561012557600080fd5b50610140600480360381019061013b91906136e2565b610440565b005b34801561014e57600080fd5b5061016960048036038101906101649190613796565b610591565b005b34801561017757600080fd5b50610192600480360381019061018d91906137f2565b6109b7565b6040516101a6989796959493929190613baa565b60405180910390f35b3480156101bb57600080fd5b506101d660048036038101906101d19190613c5c565b610c88565b005b3480156101e457600080fd5b506101ff60048036038101906101fa91906137f2565b611056565b60405161020c9190614071565b60405180910390f35b61022f600480360381019061022a91906141a6565b611464565b005b34801561023d57600080fd5b50610246611483565b6040516102539190614202565b60405180910390f35b34801561026857600080fd5b506102716114b6565b005b34801561027f57600080fd5b5061029a60048036038101906102959190614273565b6114ca565b005b3480156102a857600080fd5b506102b16116b6565b6040516102be91906142e2565b60405180910390f35b3480156102d357600080fd5b506102dc6116dc565b6040516102e991906142e2565b60405180910390f35b3480156102fe57600080fd5b50610307611714565b60405161031491906142fd565b60405180910390f35b34801561032957600080fd5b5061033261174d565b60405161033f91906142fd565b60405180910390f35b34801561035457600080fd5b5061036f600480360381019061036a919061433f565b6117db565b005b34801561037d57600080fd5b50610398600480360381019061039391906137f2565b6120dd565b005b3480156103a657600080fd5b506103c160048036038101906103bc9190614424565b612323565b005b3480156103cf57600080fd5b506103ea60048036038101906103e591906144ac565b612509565b005b3480156103f857600080fd5b506104016127c7565b60405161040e919061450b565b60405180910390f35b34801561042357600080fd5b5061043e60048036038101906104399190614526565b6127dd565b005b6000801b600080868152602001908152602001600020600101540361049a576040517f08c379a00000000000000000000000000000000000000000000000000000000081526004016104919061459f565b60405180910390fd5b600160048111156104ae576104ad61381f565b5b60008086815260200190815260200160002060000160009054906101000a900460ff1660048111156104e3576104e261381f565b5b14610523576040517f08c379a000000000000000000000000000000000000000000000000000000000815260040161051a9061460b565b60405180910390fd5b82600080868152602001908152602001600020600501908051906020019061054c9291906130ea565b50600460008086815260200190815260200160002060000160006101000a81548160ff021916908360048111156105865761058561381f565b5b021790555050505050565b600160009054906101000a900473ffffffffffffffffffffffffffffffffffffffff1673ffffffffffffffffffffffffffffffffffffffff166364dd489f60008085815260200190815260200160002060010154336040518363ffffffff1660e01b815260040161060392919061462b565b602060405180830381865afa158015610620573d6000803e3d6000fd5b505050506040513d601f19601f820116820180604052508101906106449190614680565b610683576040517f08c379a000000000000000000000000000000000000000000000000000000000815260040161067a9061471f565b60405180910390fd5b6000818060600190610695919061474e565b9050116106d7576040517f08c379a00000000000000000000000000000000000000000000000000000000081526004016106ce906147fd565b60405180910390fd5b6000801b816040013503610720576040517f08c379a000000000000000000000000000000000000000000000000000000000815260040161071790614869565b60405180910390fd5b6000801b600080848152602001908152602001600020600101540361077a576040517f08c379a00000000000000000000000000000000000000000000000000000000081526004016107719061459f565b60405180910390fd5b6000600481111561078e5761078d61381f565b5b60008084815260200190815260200160002060000160009054906101000a900460ff1660048111156107c3576107c261381f565b5b14806108155750600360048111156107de576107dd61381f565b5b60008084815260200190815260200160002060000160009054906101000a900460ff1660048111156108135761081261381f565b5b145b610854576040517f08c379a000000000000000000000000000000000000000000000000000000000815260040161084b906148d5565b60405180910390fd5b6000600460008085815260200190815260200160002060090160000160019054906101000a900460ff161660ff16036108c2576040517f08c379a00000000000000000000000000000000000000000000000000000000081526004016108b990614941565b60405180910390fd5b8060200135600080848152602001908152602001600020601501600101541015610908578060200135600080848152602001908152602001600020601501600101819055505b806040013560008084815260200190815260200160002060150160020181905550808060600190610939919061474e565b600080858152602001908152602001600020601501600301918261095e929190614b78565b50817f35947a8913e2156f19b018078c9f0667e49cb3dc24af3434a4d0b16b82675b1b8260400135838060600190610996919061474e565b85602001356040516109ab9493929190614c75565b60405180910390a25050565b60006020528060005260406000206000915090508060000160009054906101000a900460ff1690806001015490806004015490806006015490806007015490806008018054610a059061499b565b80601f0160208091040260200160405190810160405280929190818152602001828054610a319061499b565b8015610a7e5780601f10610a5357610100808354040283529160200191610a7e565b820191906000526020600020905b815481529060010190602001808311610a6157829003601f168201915b505050505090806009016040518060c00160405290816000820160009054906101000a900460ff1660ff1660ff1681526020016000820160019054906101000a900460ff1660ff1660ff16815260200160018201548152602001600282015481526020016003820160009054906101000a900460ff166004811115610b0657610b0561381f565b5b6004811115610b1857610b1761381f565b5b815260200160048201604051806101000160405290816000820160009054906101000a900460ff161515151581526020016001820154815260200160028201548152602001600382015481526020016004820154815260200160058201548152602001600682015481526020016007820154815250508152505090806015016040518060800160405290816000820160009054906101000a900460ff166009811115610bc757610bc661381f565b5b6009811115610bd957610bd861381f565b5b81526020016001820154815260200160028201548152602001600382018054610c019061499b565b80601f0160208091040260200160405190810160405280929190818152602001828054610c2d9061499b565b8015610c7a5780601f10610c4f57610100808354040283529160200191610c7a565b820191906000526020600020905b815481529060010190602001808311610c5d57829003601f168201915b505050505081525050905088565b600160009054906101000a900473ffffffffffffffffffffffffffffffffffffffff1673ffffffffffffffffffffffffffffffffffffffff166364dd489f60008085815260200190815260200160002060010154336040518363ffffffff1660e01b8152600401610cfa92919061462b565b602060405180830381865afa158015610d17573d6000803e3d6000fd5b505050506040513d601f19601f82011682018060405250810190610d3b9190614680565b610d7a576040517f08c379a0000000000000000000000000000000000000000000000000000000008152600401610d7190614d27565b60405180910390fd5b600080600084815260200190815260200160002060000160009054906101000a900460ff16905060006004811115610db557610db461381f565b5b816004811115610dc857610dc761381f565b5b14158015610dfb575060036004811115610de557610de461381f565b5b816004811115610df857610df761381f565b5b14155b15610e3b576040517f08c379a0000000000000000000000000000000000000000000000000000000008152600401610e32906148d5565b60405180910390fd5b60036004811115610e4f57610e4e61381f565b5b816004811115610e6257610e6161381f565b5b03610f07576000600260008086815260200190815260200160002060090160000160019054906101000a900460ff161660ff1603610f025760006004811115610eae57610ead61381f565b5b826004811115610ec157610ec061381f565b5b14610f01576040517f08c379a0000000000000000000000000000000000000000000000000000000008152600401610ef890614d93565b60405180910390fd5b5b610f76565b6000600260008086815260200190815260200160002060090160000160019054906101000a900460ff161660ff1603610f75576040517f08c379a0000000000000000000000000000000000000000000000000000000008152600401610f6c90614d93565b60405180910390fd5b5b806004811115610f8957610f8861381f565b5b826004811115610f9c57610f9b61381f565b5b03610fdc576040517f08c379a0000000000000000000000000000000000000000000000000000000008152600401610fd390614dff565b60405180910390fd5b8160008085815260200190815260200160002060000160006101000a81548160ff021916908360048111156110145761101361381f565b5b0217905550827f7def22fee322edec5f79e74d0747e712935e3076161cceab960aa0daca48e8d2836040516110499190614e1f565b60405180910390a2505050565b61105e61314a565b600080838152602001908152602001600020604051806101400160405290816000820160009054906101000a900460ff1660048111156110a1576110a061381f565b5b60048111156110b3576110b261381f565b5b815260200160018201548152602001600282016002806020026040519081016040528092919082600280156110fd576020028201915b8154815260200190600101908083116110e9575b505050505081526020016004820154815260200160058201805480602002602001604051908101604052809291908181526020016000905b828210156111a75783829060005260206000200180548060200260200160405190810160405280929190818152602001828054801561119357602002820191906000526020600020905b81548152602001906001019080831161117f575b505050505081526020019060010190611135565b50505050815260200160068201548152602001600782015481526020016008820180546111d39061499b565b80601f01602080910402602001604051908101604052809291908181526020018280546111ff9061499b565b801561124c5780601f106112215761010080835404028352916020019161124c565b820191906000526020600020905b81548152906001019060200180831161122f57829003601f168201915b50505050508152602001600982016040518060c00160405290816000820160009054906101000a900460ff1660ff1660ff1681526020016000820160019054906101000a900460ff1660ff1660ff16815260200160018201548152602001600282015481526020016003820160009054906101000a900460ff1660048111156112d8576112d761381f565b5b60048111156112ea576112e961381f565b5b815260200160048201604051806101000160405290816000820160009054906101000a900460ff16151515158152602001600182015481526020016002820154815260200160038201548152602001600482015481526020016005820154815260200160068201548152602001600782015481525050815250508152602001601582016040518060800160405290816000820160009054906101000a900460ff16600981111561139d5761139c61381f565b5b60098111156113af576113ae61381f565b5b815260200160018201548152602001600282015481526020016003820180546113d79061499b565b80601f01602080910402602001604051908101604052809291908181526020018280546114039061499b565b80156114505780601f1061142557610100808354040283529160200191611450565b820191906000526020600020905b81548152906001019060200180831161143357829003601f168201915b505050505081525050815250509050919050565b61146c612863565b61147582612949565b61147f8282612954565b5050565b600061148d612a73565b7f360894a13ba1a3210667c828492db98dca3e2076cc3735a920a3ca505d382bbc60001b905090565b6114be612afa565b6114c86000612b81565b565b60006114d4612c58565b905060008160000160089054906101000a900460ff1615905060008260000160009054906101000a900467ffffffffffffffff1690506000808267ffffffffffffffff161480156115225750825b9050600060018367ffffffffffffffff16148015611557575060003073ffffffffffffffffffffffffffffffffffffffff163b145b905081158015611565575080155b1561159c576040517ff92ee8a900000000000000000000000000000000000000000000000000000000815260040160405180910390fd5b60018560000160006101000a81548167ffffffffffffffff021916908367ffffffffffffffff16021790555083156115ec5760018560000160086101000a81548160ff0219169083151502179055505b6115f533612c80565b6115fd612c94565b87876002918261160e929190614b78565b5085600160006101000a81548173ffffffffffffffffffffffffffffffffffffffff021916908373ffffffffffffffffffffffffffffffffffffffff16021790555083156116ac5760008560000160086101000a81548160ff0219169083151502179055507fc7f505b2f371ae2175ee4913f4499e1f2633a7b5936321eed1cdaeb6115181d260016040516116a39190614e89565b60405180910390a15b5050505050505050565b600160009054906101000a900473ffffffffffffffffffffffffffffffffffffffff1681565b6000806116e7612c9e565b90508060000160009054906101000a900473ffffffffffffffffffffffffffffffffffffffff1691505090565b6040518060400160405280600581526020017f352e302e3000000000000000000000000000000000000000000000000000000081525081565b6002805461175a9061499b565b80601f01602080910402602001604051908101604052809291908181526020018280546117869061499b565b80156117d35780601f106117a8576101008083540402835291602001916117d3565b820191906000526020600020905b8154815290600101906020018083116117b657829003601f168201915b505050505081565b60008860a0016020013511611825576040517f08c379a000000000000000000000000000000000000000000000000000000000815260040161181c90614ef0565b60405180910390fd5b8760a001602001358860a0016040013511611875576040517f08c379a000000000000000000000000000000000000000000000000000000000815260040161186c90614f5c565b60405180910390fd5b600060048111156118895761188861381f565b5b88608001602081019061189c9190614f7c565b60048111156118ae576118ad61381f565b5b14806118f05750600360048111156118c9576118c861381f565b5b8860800160208101906118dc9190614f7c565b60048111156118ee576118ed61381f565b5b145b61192f576040517f08c379a000000000000000000000000000000000000000000000000000000000815260040161192690614ff5565b60405180910390fd5b600360098111156119435761194261381f565b5b876000016020810190611956919061503a565b60098111156119685761196761381f565b5b036119c957600060028960000160208101906119849190615093565b1660ff16146119c8576040517f08c379a00000000000000000000000000000000000000000000000000000000081526004016119bf90615158565b60405180910390fd5b5b6009808111156119dc576119db61381f565b5b8760000160208101906119ef919061503a565b6009811115611a0157611a0061381f565b5b03611b075760018860a0016020013514611a50576040517f08c379a0000000000000000000000000000000000000000000000000000000008152600401611a47906151ea565b60405180910390fd5b60006002896000016020810190611a679190615093565b1660ff1614611aab576040517f08c379a0000000000000000000000000000000000000000000000000000000008152600401611aa2906152a2565b60405180910390fd5b60006004896000016020810190611ac29190615093565b1660ff1614611b06576040517f08c379a0000000000000000000000000000000000000000000000000000000008152600401611afd9061535a565b60405180910390fd5b5b42886040013511611b4d576040517f08c379a0000000000000000000000000000000000000000000000000000000008152600401611b44906153c6565b60405180910390fd5b4288606001358960400135611b629190615415565b11611ba2576040517f08c379a0000000000000000000000000000000000000000000000000000000008152600401611b9990615495565b60405180910390fd5b60006001896000016020810190611bb99190615093565b1660ff1614611bfd576040517f08c379a0000000000000000000000000000000000000000000000000000000008152600401611bf490615527565b60405180910390fd5b600160009054906101000a900473ffffffffffffffffffffffffffffffffffffffff1673ffffffffffffffffffffffffffffffffffffffff166364dd489f85336040518363ffffffff1660e01b8152600401611c5a92919061462b565b602060405180830381865afa158015611c77573d6000803e3d6000fd5b505050506040513d601f19601f82011682018060405250810190611c9b9190614680565b611cda576040517f08c379a0000000000000000000000000000000000000000000000000000000008152600401611cd1906155b9565b60405180910390fd5b6000801b6000808581526020019081526020016000206001015414611d34576040517f08c379a0000000000000000000000000000000000000000000000000000000008152600401611d2b9061564b565b60405180910390fd5b60006040518061014001604052808a6080016020810190611d559190614f7c565b6004811115611d6757611d6661381f565b5b815260200186815260200160405180604001604052808681526020016000801b8152508152602001838152602001600067ffffffffffffffff811115611db057611daf61342d565b5b604051908082528060200260200182016040528015611de357816020015b6060815260200190600190039081611dce5790505b5081526020018a6040013581526020018a60600135815260200188888080601f016020809104026020016040519081016040528093929190818152602001838380828437600081840152601f19601f8201169050808301925050505050505081526020018a803603810190611e5891906157f5565b815260200189611e6790615958565b81525090508060008086815260200190815260200160002060008201518160000160006101000a81548160ff02191690836004811115611eaa57611ea961381f565b5b021790555060208201518160010155604082015181600201906002611ed09291906131c7565b50606082015181600401556080820151816005019080519060200190611ef79291906130ea565b5060a0820151816006015560c0820151816007015560e0820151816008019081611f21919061596b565b506101008201518160090160008201518160000160006101000a81548160ff021916908360ff16021790555060208201518160000160016101000a81548160ff021916908360ff160217905550604082015181600101556060820151816002015560808201518160030160006101000a81548160ff02191690836004811115611fad57611fac61381f565b5b021790555060a08201518160040160008201518160000160006101000a81548160ff0219169083151502179055506020820151816001015560408201518160020155606082015181600301556080820151816004015560a0820151816005015560c0820151816006015560e08201518160070155505050506101208201518160150160008201518160000160006101000a81548160ff0219169083600981111561205a5761205961381f565b5b021790555060208201518160010155604082015181600201556060820151816003019081612088919061596b565b5050509050503373ffffffffffffffffffffffffffffffffffffffff16847fe90bb18a6fc9203e3678a7f41e132910465e0fce1421609662d02c481fbfbcf860405160405180910390a3505050505050505050565b600160009054906101000a900473ffffffffffffffffffffffffffffffffffffffff1673ffffffffffffffffffffffffffffffffffffffff166364dd489f60008084815260200190815260200160002060010154336040518363ffffffff1660e01b815260040161214f92919061462b565b602060405180830381865afa15801561216c573d6000803e3d6000fd5b505050506040513d601f19601f820116820180604052508101906121909190614680565b6121cf576040517f08c379a00000000000000000000000000000000000000000000000000000000081526004016121c690615aaf565b60405180910390fd5b600060048111156121e3576121e261381f565b5b60008083815260200190815260200160002060000160009054906101000a900460ff1660048111156122185761221761381f565b5b148061226a5750600360048111156122335761223261381f565b5b60008083815260200190815260200160002060000160009054906101000a900460ff1660048111156122685761226761381f565b5b145b6122a9576040517f08c379a00000000000000000000000000000000000000000000000000000000081526004016122a0906148d5565b60405180910390fd5b600160008083815260200190815260200160002060000160006101000a81548160ff021916908360048111156122e2576122e161381f565b5b0217905550807f7def22fee322edec5f79e74d0747e712935e3076161cceab960aa0daca48e8d260016040516123189190614e1f565b60405180910390a250565b6000801b600080878152602001908152602001600020600101540361237d576040517f08c379a00000000000000000000000000000000000000000000000000000000081526004016123749061459f565b60405180910390fd5b6004808111156123905761238f61381f565b5b60008087815260200190815260200160002060000160009054906101000a900460ff1660048111156123c5576123c461381f565b5b1415801561241a5750600260048111156123e2576123e161381f565b5b60008087815260200190815260200160002060000160009054906101000a900460ff1660048111156124175761241661381f565b5b14155b612459576040517f08c379a000000000000000000000000000000000000000000000000000000000815260040161245090615b41565b60405180910390fd5b8360008087815260200190815260200160002060040154146124b0576040517f08c379a00000000000000000000000000000000000000000000000000000000081526004016124a790615bad565b60405180910390fd5b8260008087815260200190815260200160002060040181905550847f6fff2d70a00d754c43c8c120be5e18415b3443738a8cff4b907faa8c52e173a2846040516124fa9190614202565b60405180910390a25050505050565b600160009054906101000a900473ffffffffffffffffffffffffffffffffffffffff1673ffffffffffffffffffffffffffffffffffffffff166364dd489f60008085815260200190815260200160002060010154336040518363ffffffff1660e01b815260040161257b92919061462b565b602060405180830381865afa158015612598573d6000803e3d6000fd5b505050506040513d601f19601f820116820180604052508101906125bc9190614680565b6125fb576040517f08c379a00000000000000000000000000000000000000000000000000000000081526004016125f290615c3f565b60405180910390fd5b6000801b6000808481526020019081526020016000206001015403612655576040517f08c379a000000000000000000000000000000000000000000000000000000000815260040161264c9061459f565b60405180910390fd5b600060048111156126695761266861381f565b5b60008084815260200190815260200160002060000160009054906101000a900460ff16600481111561269e5761269d61381f565b5b14806126f05750600360048111156126b9576126b861381f565b5b60008084815260200190815260200160002060000160009054906101000a900460ff1660048111156126ee576126ed61381f565b5b145b61272f576040517f08c379a0000000000000000000000000000000000000000000000000000000008152600401612726906148d5565b60405180910390fd5b428111612771576040517f08c379a000000000000000000000000000000000000000000000000000000000815260040161276890615cab565b60405180910390fd5b8060008084815260200190815260200160002060070181905550817f983165304729e1c4e36ce532740769c8a5c4b56dc61c3c60b3f96322dac48091826040516127bb9190615ccb565b60405180910390a25050565b600160149054906101000a900463ffffffff1681565b6127e5612afa565b600073ffffffffffffffffffffffffffffffffffffffff168173ffffffffffffffffffffffffffffffffffffffff16036128575760006040517f1e4fbdf700000000000000000000000000000000000000000000000000000000815260040161284e91906142e2565b60405180910390fd5b61286081612b81565b50565b7f000000000000000000000000000000000000000000000000000000000000000073ffffffffffffffffffffffffffffffffffffffff163073ffffffffffffffffffffffffffffffffffffffff16148061291057507f000000000000000000000000000000000000000000000000000000000000000073ffffffffffffffffffffffffffffffffffffffff166128f7612cc6565b73ffffffffffffffffffffffffffffffffffffffff1614155b15612947576040517fe07c8dba00000000000000000000000000000000000000000000000000000000815260040160405180910390fd5b565b612951612afa565b50565b8173ffffffffffffffffffffffffffffffffffffffff166352d1902d6040518163ffffffff1660e01b8152600401602060405180830381865afa9250505080156129bc57506040513d601f19601f820116820180604052508101906129b99190615cfb565b60015b6129fd57816040517f4c9c8ce30000000000000000000000000000000000000000000000000000000081526004016129f491906142e2565b60405180910390fd5b7f360894a13ba1a3210667c828492db98dca3e2076cc3735a920a3ca505d382bbc60001b8114612a6457806040517faa1d49a4000000000000000000000000000000000000000000000000000000008152600401612a5b9190614202565b60405180910390fd5b612a6e8383612d1d565b505050565b7f000000000000000000000000000000000000000000000000000000000000000073ffffffffffffffffffffffffffffffffffffffff163073ffffffffffffffffffffffffffffffffffffffff1614612af8576040517fe07c8dba00000000000000000000000000000000000000000000000000000000815260040160405180910390fd5b565b612b02612d90565b73ffffffffffffffffffffffffffffffffffffffff16612b206116dc565b73ffffffffffffffffffffffffffffffffffffffff1614612b7f57612b43612d90565b6040517f118cdaa7000000000000000000000000000000000000000000000000000000008152600401612b7691906142e2565b60405180910390fd5b565b6000612b8b612c9e565b905060008160000160009054906101000a900473ffffffffffffffffffffffffffffffffffffffff169050828260000160006101000a81548173ffffffffffffffffffffffffffffffffffffffff021916908373ffffffffffffffffffffffffffffffffffffffff1602179055508273ffffffffffffffffffffffffffffffffffffffff168173ffffffffffffffffffffffffffffffffffffffff167f8be0079c531659141344cd1fd0a4f28419497f9722a3daafe3b4186f6b6457e060405160405180910390a3505050565b60007ff0c57e16840df040f15088dc2f81fe391c3923bec73e23a9662efc9c229c6a00905090565b612c88612d98565b612c9181612dd8565b50565b612c9c612d98565b565b60007f9016d09d72d40fdae2fd8ceac6b6234c7706214fd39c1cd1e609a0528c199300905090565b6000612cf47f360894a13ba1a3210667c828492db98dca3e2076cc3735a920a3ca505d382bbc60001b612e5e565b60000160009054906101000a900473ffffffffffffffffffffffffffffffffffffffff16905090565b612d2682612e68565b8173ffffffffffffffffffffffffffffffffffffffff167fbc7cd75a20ee27fd9adebab32041f755214dbc6bffa90cc0225b39da2e5c2d3b60405160405180910390a2600081511115612d8357612d7d8282612f35565b50612d8c565b612d8b612fb9565b5b5050565b600033905090565b612da0612ff6565b612dd6576040517fd7e6bcf800000000000000000000000000000000000000000000000000000000815260040160405180910390fd5b565b612de0612d98565b600073ffffffffffffffffffffffffffffffffffffffff168173ffffffffffffffffffffffffffffffffffffffff1603612e525760006040517f1e4fbdf7000000000000000000000000000000000000000000000000000000008152600401612e4991906142e2565b60405180910390fd5b612e5b81612b81565b50565b6000819050919050565b60008173ffffffffffffffffffffffffffffffffffffffff163b03612ec457806040517f4c9c8ce3000000000000000000000000000000000000000000000000000000008152600401612ebb91906142e2565b60405180910390fd5b80612ef17f360894a13ba1a3210667c828492db98dca3e2076cc3735a920a3ca505d382bbc60001b612e5e565b60000160006101000a81548173ffffffffffffffffffffffffffffffffffffffff021916908373ffffffffffffffffffffffffffffffffffffffff16021790555050565b60606000808473ffffffffffffffffffffffffffffffffffffffff1684604051612f5f9190615d6f565b600060405180830381855af49150503d8060008114612f9a576040519150601f19603f3d011682016040523d82523d6000602084013e612f9f565b606091505b5091509150612faf858383613016565b9250505092915050565b6000341115612ff4576040517fb398979f00000000000000000000000000000000000000000000000000000000815260040160405180910390fd5b565b6000613000612c58565b60000160089054906101000a900460ff16905090565b60608261302b57613026826130a5565b61309d565b60008251148015613053575060008473ffffffffffffffffffffffffffffffffffffffff163b145b1561309557836040517f9996b31500000000000000000000000000000000000000000000000000000000815260040161308c91906142e2565b60405180910390fd5b81905061309e565b5b9392505050565b6000815111156130b85780518082602001fd5b6040517f1425ea4200000000000000000000000000000000000000000000000000000000815260040160405180910390fd5b828054828255906000526020600020908101928215613139579160200282015b82811115613138578251829080519060200190613128929190613207565b509160200191906001019061310a565b5b5090506131469190613254565b5090565b6040518061014001604052806000600481111561316a5761316961381f565b5b815260200160008019168152602001613181613278565b815260200160008019168152602001606081526020016000815260200160008152602001606081526020016131b461329a565b81526020016131c16132ee565b81525090565b82600281019282156131f6579160200282015b828111156131f55782518255916020019190600101906131da565b5b509050613203919061332b565b5090565b828054828255906000526020600020908101928215613243579160200282015b82811115613242578251825591602001919060010190613227565b5b5090506132509190613348565b5090565b5b80821115613274576000818161326b9190613365565b50600101613255565b5090565b6040518060400160405280600290602082028036833780820191505090505090565b6040518060c00160405280600060ff168152602001600060ff1681526020016000815260200160008152602001600060048111156132db576132da61381f565b5b81526020016132e8613386565b81525090565b60405180608001604052806000600981111561330d5761330c61381f565b5b81526020016000815260200160008019168152602001606081525090565b5b8082111561334457600081600090555060010161332c565b5090565b5b80821115613361576000816000905550600101613349565b5090565b50805460008255906000526020600020908101906133839190613348565b50565b604051806101000160405280600015158152602001600081526020016000815260200160008152602001600081526020016000815260200160008152602001600081525090565b6000604051905090565b600080fd5b600080fd5b6000819050919050565b6133f4816133e1565b81146133ff57600080fd5b50565b600081359050613411816133eb565b92915050565b600080fd5b6000601f19601f8301169050919050565b7f4e487b7100000000000000000000000000000000000000000000000000000000600052604160045260246000fd5b6134658261341c565b810181811067ffffffffffffffff821117156134845761348361342d565b5b80604052505050565b60006134976133cd565b90506134a3828261345c565b919050565b600067ffffffffffffffff8211156134c3576134c261342d565b5b602082029050602081019050919050565b600080fd5b600067ffffffffffffffff8211156134f4576134f361342d565b5b602082029050602081019050919050565b6000819050919050565b61351881613505565b811461352357600080fd5b50565b6000813590506135358161350f565b92915050565b600061354e613549846134d9565b61348d565b90508083825260208201905060208402830185811115613571576135706134d4565b5b835b8181101561359a57806135868882613526565b845260208401935050602081019050613573565b5050509392505050565b600082601f8301126135b9576135b8613417565b5b81356135c984826020860161353b565b91505092915050565b60006135e56135e0846134a8565b61348d565b90508083825260208201905060208402830185811115613608576136076134d4565b5b835b8181101561364f57803567ffffffffffffffff81111561362d5761362c613417565b5b80860161363a89826135a4565b8552602085019450505060208101905061360a565b5050509392505050565b600082601f83011261366e5761366d613417565b5b813561367e8482602086016135d2565b91505092915050565b600080fd5b60008083601f8401126136a2576136a1613417565b5b8235905067ffffffffffffffff8111156136bf576136be613687565b5b6020830191508360018202830111156136db576136da6134d4565b5b9250929050565b600080600080606085870312156136fc576136fb6133d7565b5b600061370a87828801613402565b945050602085013567ffffffffffffffff81111561372b5761372a6133dc565b5b61373787828801613659565b935050604085013567ffffffffffffffff811115613758576137576133dc565b5b6137648782880161368c565b925092505092959194509250565b600080fd5b60006080828403121561378d5761378c613772565b5b81905092915050565b600080604083850312156137ad576137ac6133d7565b5b60006137bb85828601613402565b925050602083013567ffffffffffffffff8111156137dc576137db6133dc565b5b6137e885828601613777565b9150509250929050565b600060208284031215613808576138076133d7565b5b600061381684828501613402565b91505092915050565b7f4e487b7100000000000000000000000000000000000000000000000000000000600052602160045260246000fd5b6005811061385f5761385e61381f565b5b50565b60008190506138708261384e565b919050565b600061388082613862565b9050919050565b61389081613875565b82525050565b61389f816133e1565b82525050565b6138ae81613505565b82525050565b600081519050919050565b600082825260208201905092915050565b60005b838110156138ee5780820151818401526020810190506138d3565b60008484015250505050565b6000613905826138b4565b61390f81856138bf565b935061391f8185602086016138d0565b6139288161341c565b840191505092915050565b600060ff82169050919050565b61394981613933565b82525050565b61395881613505565b82525050565b61396781613875565b82525050565b60008115159050919050565b6139828161396d565b82525050565b6101008201600082015161399f6000850182613979565b5060208201516139b2602085018261394f565b5060408201516139c5604085018261394f565b5060608201516139d8606085018261394f565b5060808201516139eb608085018261394f565b5060a08201516139fe60a085018261394f565b5060c0820151613a1160c085018261394f565b5060e0820151613a2460e085018261394f565b50505050565b6101a082016000820151613a416000850182613940565b506020820151613a546020850182613940565b506040820151613a67604085018261394f565b506060820151613a7a606085018261394f565b506080820151613a8d608085018261395e565b5060a0820151613aa060a0850182613988565b50505050565b600a8110613ab757613ab661381f565b5b50565b6000819050613ac882613aa6565b919050565b6000613ad882613aba565b9050919050565b613ae881613acd565b82525050565b613af7816133e1565b82525050565b600082825260208201905092915050565b6000613b19826138b4565b613b238185613afd565b9350613b338185602086016138d0565b613b3c8161341c565b840191505092915050565b6000608083016000830151613b5f6000860182613adf565b506020830151613b72602086018261394f565b506040830151613b856040860182613aee565b5060608301518482036060860152613b9d8282613b0e565b9150508091505092915050565b600061028082019050613bc0600083018b613887565b613bcd602083018a613896565b613bda6040830189613896565b613be760608301886138a5565b613bf460808301876138a5565b81810360a0830152613c0681866138fa565b9050613c1560c0830185613a2a565b818103610260830152613c288184613b47565b90509998505050505050505050565b60058110613c4457600080fd5b50565b600081359050613c5681613c37565b92915050565b60008060408385031215613c7357613c726133d7565b5b6000613c8185828601613402565b9250506020613c9285828601613c47565b9150509250929050565b600060029050919050565b600081905092915050565b6000819050919050565b6000613cc88383613aee565b60208301905092915050565b6000602082019050919050565b613cea81613c9c565b613cf48184613ca7565b9250613cff82613cb2565b8060005b83811015613d30578151613d178782613cbc565b9650613d2283613cd4565b925050600181019050613d03565b505050505050565b600081519050919050565b600082825260208201905092915050565b6000819050602082019050919050565b600081519050919050565b600082825260208201905092915050565b6000819050602082019050919050565b6000613d9c838361394f565b60208301905092915050565b6000602082019050919050565b6000613dc082613d64565b613dca8185613d6f565b9350613dd583613d80565b8060005b83811015613e06578151613ded8882613d90565b9750613df883613da8565b925050600181019050613dd9565b5085935050505092915050565b6000613e1f8383613db5565b905092915050565b6000602082019050919050565b6000613e3f82613d38565b613e498185613d43565b935083602082028501613e5b85613d54565b8060005b85811015613e975784840389528151613e788582613e13565b9450613e8383613e27565b925060208a01995050600181019050613e5f565b50829750879550505050505092915050565b6101a082016000820151613ec06000850182613940565b506020820151613ed36020850182613940565b506040820151613ee6604085018261394f565b506060820151613ef9606085018261394f565b506080820151613f0c608085018261395e565b5060a0820151613f1f60a0850182613988565b50505050565b6000608083016000830151613f3d6000860182613adf565b506020830151613f50602086018261394f565b506040830151613f636040860182613aee565b5060608301518482036060860152613f7b8282613b0e565b9150508091505092915050565b60006102e083016000830151613fa1600086018261395e565b506020830151613fb46020860182613aee565b506040830151613fc76040860182613ce1565b506060830151613fda6080860182613aee565b50608083015184820360a0860152613ff28282613e34565b91505060a083015161400760c086018261394f565b5060c083015161401a60e086018261394f565b5060e08301518482036101008601526140338282613b0e565b91505061010083015161404a610120860182613ea9565b506101208301518482036102c08601526140648282613f25565b9150508091505092915050565b6000602082019050818103600083015261408b8184613f88565b905092915050565b600073ffffffffffffffffffffffffffffffffffffffff82169050919050565b60006140be82614093565b9050919050565b6140ce816140b3565b81146140d957600080fd5b50565b6000813590506140eb816140c5565b92915050565b600080fd5b600067ffffffffffffffff8211156141115761411061342d565b5b61411a8261341c565b9050602081019050919050565b82818337600083830152505050565b6000614149614144846140f6565b61348d565b905082815260208101848484011115614165576141646140f1565b5b614170848285614127565b509392505050565b600082601f83011261418d5761418c613417565b5b813561419d848260208601614136565b91505092915050565b600080604083850312156141bd576141bc6133d7565b5b60006141cb858286016140dc565b925050602083013567ffffffffffffffff8111156141ec576141eb6133dc565b5b6141f885828601614178565b9150509250929050565b60006020820190506142176000830184613896565b92915050565b60008083601f84011261423357614232613417565b5b8235905067ffffffffffffffff8111156142505761424f613687565b5b60208301915083600182028301111561426c5761426b6134d4565b5b9250929050565b60008060006040848603121561428c5761428b6133d7565b5b600084013567ffffffffffffffff8111156142aa576142a96133dc565b5b6142b68682870161421d565b935093505060206142c9868287016140dc565b9150509250925092565b6142dc816140b3565b82525050565b60006020820190506142f760008301846142d3565b92915050565b6000602082019050818103600083015261431781846138fa565b905092915050565b60006101a0828403121561433657614335613772565b5b81905092915050565b600080600080600080600080610260898b0312156143605761435f6133d7565b5b600061436e8b828c0161431f565b9850506101a089013567ffffffffffffffff8111156143905761438f6133dc565b5b61439c8b828c01613777565b9750506101c089013567ffffffffffffffff8111156143be576143bd6133dc565b5b6143ca8b828c0161421d565b96509650506101e06143de8b828c01613402565b9450506102006143f08b828c01613402565b9350506102206144028b828c01613402565b9250506102406144148b828c01613402565b9150509295985092959890939650565b6000806000806000608086880312156144405761443f6133d7565b5b600061444e88828901613402565b955050602061445f88828901613402565b945050604061447088828901613402565b935050606086013567ffffffffffffffff811115614491576144906133dc565b5b61449d8882890161368c565b92509250509295509295909350565b600080604083850312156144c3576144c26133d7565b5b60006144d185828601613402565b92505060206144e285828601613526565b9150509250929050565b600063ffffffff82169050919050565b614505816144ec565b82525050565b600060208201905061452060008301846144fc565b92915050565b60006020828403121561453c5761453b6133d7565b5b600061454a848285016140dc565b91505092915050565b7f50726f706f73616c206e6f7420666f756e640000000000000000000000000000600082015250565b60006145896012836138bf565b915061459482614553565b602082019050919050565b600060208201905081810360008301526145b88161457c565b9050919050565b7f50726f63657373206e6f7420656e646564000000000000000000000000000000600082015250565b60006145f56011836138bf565b9150614600826145bf565b602082019050919050565b60006020820190508181036000830152614624816145e8565b9050919050565b60006040820190506146406000830185613896565b61464d60208301846142d3565b9392505050565b61465d8161396d565b811461466857600080fd5b50565b60008151905061467a81614654565b92915050565b600060208284031215614696576146956133d7565b5b60006146a48482850161466b565b91505092915050565b7f53657450726f706f73616c43656e7375733a206e6f7420616e2061646d696e6960008201527f73747261746f7200000000000000000000000000000000000000000000000000602082015250565b60006147096027836138bf565b9150614714826146ad565b604082019050919050565b60006020820190508181036000830152614738816146fc565b9050919050565b600080fd5b600080fd5b600080fd5b6000808335600160200384360303811261476b5761476a61473f565b5b80840192508235915067ffffffffffffffff82111561478d5761478c614744565b5b6020830192506001820236038313156147a9576147a8614749565b5b509250929050565b7f456d707479205552490000000000000000000000000000000000000000000000600082015250565b60006147e76009836138bf565b91506147f2826147b1565b602082019050919050565b60006020820190508181036000830152614816816147da565b9050919050565b7f456d70747920726f6f7400000000000000000000000000000000000000000000600082015250565b6000614853600a836138bf565b915061485e8261481d565b602082019050919050565b6000602082019050818103600083015261488281614846565b9050919050565b7f50726f63657373207465726d696e617465640000000000000000000000000000600082015250565b60006148bf6012836138bf565b91506148ca82614889565b602082019050919050565b600060208201905081810360008301526148ee816148b2565b9050919050565b7f526561642d6f6e6c792063656e73757300000000000000000000000000000000600082015250565b600061492b6010836138bf565b9150614936826148f5565b602082019050919050565b6000602082019050818103600083015261495a8161491e565b9050919050565b600082905092915050565b7f4e487b7100000000000000000000000000000000000000000000000000000000600052602260045260246000fd5b600060028204905060018216806149b357607f821691505b6020821081036149c6576149c561496c565b5b50919050565b60008190508160005260206000209050919050565b60006020601f8301049050919050565b600082821b905092915050565b600060088302614a2e7fffffffffffffffffffffffffffffffffffffffffffffffffffffffffffffffff826149f1565b614a3886836149f1565b95508019841693508086168417925050509392505050565b6000819050919050565b6000614a75614a70614a6b84613505565b614a50565b613505565b9050919050565b6000819050919050565b614a8f83614a5a565b614aa3614a9b82614a7c565b8484546149fe565b825550505050565b600090565b614ab8614aab565b614ac3818484614a86565b505050565b5b81811015614ae757614adc600082614ab0565b600181019050614ac9565b5050565b601f821115614b2c57614afd816149cc565b614b06846149e1565b81016020851015614b15578190505b614b29614b21856149e1565b830182614ac8565b50505b505050565b600082821c905092915050565b6000614b4f60001984600802614b31565b1980831691505092915050565b6000614b688383614b3e565b9150826002028217905092915050565b614b828383614961565b67ffffffffffffffff811115614b9b57614b9a61342d565b5b614ba5825461499b565b614bb0828285614aeb565b6000601f831160018114614bdf5760008415614bcd578287013590505b614bd78582614b5c565b865550614c3f565b601f198416614bed866149cc565b60005b82811015614c1557848901358255600182019150602085019450602081019050614bf0565b86831015614c325784890135614c2e601f891682614b3e565b8355505b6001600288020188555050505b50505050505050565b6000614c5483856138bf565b9350614c61838584614127565b614c6a8361341c565b840190509392505050565b6000606082019050614c8a6000830187613896565b8181036020830152614c9d818587614c48565b9050614cac60408301846138a5565b95945050505050565b7f53657450726f706f73616c5374617475733a206e6f7420616e2061646d696e6960008201527f73747261746f7200000000000000000000000000000000000000000000000000602082015250565b6000614d116027836138bf565b9150614d1c82614cb5565b604082019050919050565b60006020820190508181036000830152614d4081614d04565b9050919050565b7f4e6f7420696e7465727275707469626c65000000000000000000000000000000600082015250565b6000614d7d6011836138bf565b9150614d8882614d47565b602082019050919050565b60006020820190508181036000830152614dac81614d70565b9050919050565b7f4d75737420646966666572000000000000000000000000000000000000000000600082015250565b6000614de9600b836138bf565b9150614df482614db3565b602082019050919050565b60006020820190508181036000830152614e1881614ddc565b9050919050565b6000602082019050614e346000830184613887565b92915050565b6000819050919050565b600067ffffffffffffffff82169050919050565b6000614e73614e6e614e6984614e3a565b614a50565b614e44565b9050919050565b614e8381614e58565b82525050565b6000602082019050614e9e6000830184614e7a565b92915050565b7f4e657750726f706f73616c3a20696e76616c6964206d6178436f756e74000000600082015250565b6000614eda601d836138bf565b9150614ee582614ea4565b602082019050919050565b60006020820190508181036000830152614f0981614ecd565b9050919050565b7f4e657750726f706f73616c3a206d6178436f756e74203e206d617856616c7565600082015250565b6000614f466020836138bf565b9150614f5182614f10565b602082019050919050565b60006020820190508181036000830152614f7581614f39565b9050919050565b600060208284031215614f9257614f916133d7565b5b6000614fa084828501613c47565b91505092915050565b7f4e657750726f706f73616c3a20696e76616c6964207374617475730000000000600082015250565b6000614fdf601b836138bf565b9150614fea82614fa9565b602082019050919050565b6000602082019050818103600083015261500e81614fd2565b9050919050565b600a811061502257600080fd5b50565b60008135905061503481615015565b92915050565b6000602082840312156150505761504f6133d7565b5b600061505e84828501615025565b91505092915050565b61507081613933565b811461507b57600080fd5b50565b60008135905061508d81615067565b92915050565b6000602082840312156150a9576150a86133d7565b5b60006150b78482850161507e565b91505092915050565b7f4e657750726f706f73616c3a2063656e737573206f726967696e20434120726560008201527f717569726573206e6f6e2d616e6f6e796d6f757320656e76656c6f706520747960208201527f7065000000000000000000000000000000000000000000000000000000000000604082015250565b60006151426042836138bf565b915061514d826150c0565b606082019050919050565b6000602082019050818103600083015261517181615135565b9050919050565b7f4e657750726f706f73616c3a206d6178436f756e74206d75737420626520312060008201527f666f722046617263617374657200000000000000000000000000000000000000602082015250565b60006151d4602d836138bf565b91506151df82615178565b604082019050919050565b60006020820190508181036000830152615203816151c7565b9050919050565b7f4e657750726f706f73616c3a2063656e737573206f726967696e20466172636160008201527f73746572207265717569726573206e6f6e2d616e6f6e796d6f757320656e766560208201527f6c6f706520747970650000000000000000000000000000000000000000000000604082015250565b600061528c6049836138bf565b91506152978261520a565b606082019050919050565b600060208201905081810360008301526152bb8161527f565b9050919050565b7f4e657750726f706f73616c3a2063656e737573206f726967696e20466172636160008201527f73746572207265717569726573206e6f6e2d656e6372797074656420656e766560208201527f6c6f706520747970650000000000000000000000000000000000000000000000604082015250565b60006153446049836138bf565b915061534f826152c2565b606082019050919050565b6000602082019050818103600083015261537381615337565b9050919050565b7f4e657750726f706f73616c3a20696e76616c696420737461727454696d650000600082015250565b60006153b0601e836138bf565b91506153bb8261537a565b602082019050919050565b600060208201905081810360008301526153df816153a3565b9050919050565b7f4e487b7100000000000000000000000000000000000000000000000000000000600052601160045260246000fd5b600061542082613505565b915061542b83613505565b9250828201905080821115615443576154426153e6565b5b92915050565b7f4e657750726f706f73616c3a20696e76616c6964206475726174696f6e000000600082015250565b600061547f601d836138bf565b915061548a82615449565b602082019050919050565b600060208201905081810360008301526154ae81615472565b9050919050565b7f4e657750726f706f73616c3a2073657269616c20656e76656c6f70652074797060008201527f65206e6f7420696d706c656d656e746564000000000000000000000000000000602082015250565b60006155116031836138bf565b915061551c826154b5565b604082019050919050565b6000602082019050818103600083015261554081615504565b9050919050565b7f4e657750726f706f73616c3a206e6f7420616e2061646d696e6973747261746f60008201527f7200000000000000000000000000000000000000000000000000000000000000602082015250565b60006155a36021836138bf565b91506155ae82615547565b604082019050919050565b600060208201905081810360008301526155d281615596565b9050919050565b7f4e657750726f706f73616c3a2070726f706f73616c20616c726561647920657860008201527f6973747300000000000000000000000000000000000000000000000000000000602082015250565b60006156356024836138bf565b9150615640826155d9565b604082019050919050565b6000602082019050818103600083015261566481615628565b9050919050565b600080fd5b600080fd5b60008135905061568481614654565b92915050565b600061010082840312156156a1576156a061566b565b5b6156ac61010061348d565b905060006156bc84828501615675565b60008301525060206156d084828501613526565b60208301525060406156e484828501613526565b60408301525060606156f884828501613526565b606083015250608061570c84828501613526565b60808301525060a061572084828501613526565b60a08301525060c061573484828501613526565b60c08301525060e061574884828501613526565b60e08301525092915050565b60006101a0828403121561576b5761576a61566b565b5b61577560c061348d565b905060006157858482850161507e565b60008301525060206157998482850161507e565b60208301525060406157ad84828501613526565b60408301525060606157c184828501613526565b60608301525060806157d584828501613c47565b60808301525060a06157e98482850161568a565b60a08301525092915050565b60006101a0828403121561580c5761580b6133d7565b5b600061581a84828501615754565b91505092915050565b600067ffffffffffffffff82111561583e5761583d61342d565b5b6158478261341c565b9050602081019050919050565b600061586761586284615823565b61348d565b905082815260208101848484011115615883576158826140f1565b5b61588e848285614127565b509392505050565b600082601f8301126158ab576158aa613417565b5b81356158bb848260208601615854565b91505092915050565b6000608082840312156158da576158d961566b565b5b6158e4608061348d565b905060006158f484828501615025565b600083015250602061590884828501613526565b602083015250604061591c84828501613402565b604083015250606082013567ffffffffffffffff8111156159405761593f615670565b5b61594c84828501615896565b60608301525092915050565b600061596436836158c4565b9050919050565b615974826138b4565b67ffffffffffffffff81111561598d5761598c61342d565b5b615997825461499b565b6159a2828285614aeb565b600060209050601f8311600181146159d557600084156159c3578287015190505b6159cd8582614b5c565b865550615a35565b601f1984166159e3866149cc565b60005b82811015615a0b578489015182556001820191506020850194506020810190506159e6565b86831015615a285784890151615a24601f891682614b3e565b8355505b6001600288020188555050505b505050505050565b7f656e6450726f706f73616c3a206e6f7420616e2061646d696e6973747261746f60008201527f7200000000000000000000000000000000000000000000000000000000000000602082015250565b6000615a996021836138bf565b9150615aa482615a3d565b604082019050919050565b60006020820190508181036000830152615ac881615a8c565b9050919050565b7f496e76616c69642073746174757320666f72207375626d697474696e6720737460008201527f617465207472616e736974696f6e000000000000000000000000000000000000602082015250565b6000615b2b602e836138bf565b9150615b3682615acf565b604082019050919050565b60006020820190508181036000830152615b5a81615b1e565b9050919050565b7f496e76616c6964206f6c6420726f6f7400000000000000000000000000000000600082015250565b6000615b976010836138bf565b9150615ba282615b61565b602082019050919050565b60006020820190508181036000830152615bc681615b8a565b9050919050565b7f53657450726f706f73616c4475726174696f6e3a206e6f7420616e2061646d6960008201527f6e6973747261746f720000000000000000000000000000000000000000000000602082015250565b6000615c296029836138bf565b9150615c3482615bcd565b604082019050919050565b60006020820190508181036000830152615c5881615c1c565b9050919050565b7f496e76616c6964206475726174696f6e00000000000000000000000000000000600082015250565b6000615c956010836138bf565b9150615ca082615c5f565b602082019050919050565b60006020820190508181036000830152615cc481615c88565b9050919050565b6000602082019050615ce060008301846138a5565b92915050565b600081519050615cf5816133eb565b92915050565b600060208284031215615d1157615d106133d7565b5b6000615d1f84828501615ce6565b91505092915050565b600081519050919050565b600081905092915050565b6000615d4982615d28565b615d538185615d33565b9350615d638185602086016138d0565b80840191505092915050565b6000615d7b8284615d3e565b91508190509291505056fea26469706673582212206bb55bc255e891098f39c747774087df2add1983f7f0d6f356405dfc10693bd864736f6c63430008180033",
  "linkReferences": {},
  "deployedLinkReferences": {}
}