{
  "_format": "hh-sol-artifact-1",
  "contractName": "Groth16Verifier2",
  "sourceName": "src/Groth16Verifier2.sol",
  "abi": [
    {
      "inputs": [],
      "name": "CommitmentInvalid",
      "type": "error"
    },
    {
      "inputs": [],
      "name": "ProofInvalid",
      "type": "error"
    },
    {
      "inputs": [],
      "name": "PublicInputNotInField",
      "type": "error"
    },
    {
      "inputs": [
        {
          "internalType": "uint256[8]",
          "name": "proof",
          "type": "uint256[8]"
        },
        {
          "internalType": "uint256[2]",
          "name": "commitments",
          "type": "uint256[2]"
        },
        {
          "internalType": "uint256[2]",
          "name": "commitmentPok",
          "type": "uint256[2]"
        }
      ],
      "name": "compressProof",
      "outputs": [
        {
          "internalType": "uint256[4]",
          "name": "compressed",
          "type": "uint256[4]"
        },
        {
          "internalType": "uint256[1]",
          "name": "compressedCommitments",
          "type": "uint256[1]"
        },
        {
          "internalType": "uint256",
          "name": "compressedCommitmentPok",
          "type": "uint256"
        }
      ],
      "stateMutability": "view",
      "type": "function"
    },
    {
      "inputs": [
        {
          "internalType": "uint256[4]",
          "name": "compressedProof",
          "type": "uint256[4]"
        },
        {
          "internalType": "uint256[1]",
          "name": "compressedCommitments",
          "type": "uint256[1]"
        },
        {
          "internalType": "uint256",
          "name": "compressedCommitmentPok",
          "type": "uint256"
        },
        {
          "internalType": "uint256[3]",
          "name": "input",
          "type": "uint256[3]"
        }
      ],
      "name": "verifyCompressedProof",
      "outputs": [],
      "stateMutability": "view",
      "type": "function"
    },
    {
      "inputs": [
        {
          "internalType": "uint256[8]",
          "name": "proof",
          "type": "uint256[8]"
        },
        {
          "internalType": "uint256[2]",
          "name": "commitments",
          "type": "uint256[2]"
        },
        {
          "internalType": "uint256[2]",
          "name": "commitmentPok",
          "type": "uint256[2]"
        },
        {
          "internalType": "uint256[3]",
          "name": "input",
          "type": "uint256[3]"
        }
      ],
      "name": "verifyProof",
      "outputs": [],
      "stateMutability": "view",
      "type": "function"
    }
  ],
  "bytecode": "0x6080604052348015600f57600080fd5b50611a088061001f6000396000f3fe608060405234801561001057600080fd5b50600436106100415760003560e01c80632865dfb91461004657806330bb0bd91461005b578063b1c3a00e1461006e575b600080fd5b610059610054366004611789565b610099565b005b6100596100693660046117e5565b610513565b61008161007c366004611834565b610a52565b6040516100909392919061187d565b60405180910390f35b6100a16116dc565b6040516060906000805160206119b3833981519152906100cd908735906020808a0135918691016118f6565b6040516020818303038152906040528051906020012060001c6100f0919061194f565b8252604080516000918782377f2e56fe5059e0e9170dee81cf361d829e381f04c6696d02ebf1a13ad7110a8e1060408201527f2d53a322e9706d55779d3dc87a82d9e425be0379e06c2d4f0c81ff27f1c2a28060608201527f0ecfb5e16109fe1163de90c090cc9d0e74ba41376759264254e5c78d33d68dc060808201527f1cee980cf8c07ac14e9d854a86bcc6d099a5adbdf101863de0fabe9a96fdd80660a082015260408660c08301377f10007b7f79d148749e5e8a8841d3042dfdb2deb317c1690179473b3d1e6a30df6101008201527f162aa6325ab01236296888f47ca1dd7ac0f31e9002417269d1a356e1283fc2986101208201527f27ed4aac10da4f1d7e2471bd557e74147cbc98ee35e4346292eaf2f5ffe333876101408201527f0276c4346a595f07d30a3c9f5a1b70d065b9838792584270da81dc69e8144d9f6101608201526020816101808360085afa905116905080610266576040516351d49ff760e11b815260040160405180910390fd5b60008061029d86868a6002806020026040519081016040528092919082600260200280828437600092019190915250610adb915050565b915091506040516101008a82377f284fdaf9225bfde6274f4ea3d4ffe49509c2f8553dcfa81a0a4bf2e61f87ee366101008201527f16dc5685aa8868acb440289f8d4f6241841a0f09e5c2c7de2525f77c353a41826101208201527f23e30cf6d233797afa4b0260f8765d31eff3aacfab8e07b468149afc408854c36101408201527f03089711372e858b1e675170613ecf1847a2facf3a626945a972372a7c4fe1546101608201527f0904e5ff31c401fa2ca8bbd3b6e04ddc01f1bfb4f74f1be596f75e0ad808b82f6101808201527f28e68bfd88ac03e1759f5c9e8a3acad97985a1b5aa27a6820a173bc9217060486101a08201527f28ac63a733ec201540a6225522b47d679200b4f8bb4c6bdf87bdba27339871fb6101c08201527f1f0263524620a490b5e7df03e9d35437eacc70d929ff0701e66ab2ed26a6bb5b6101e08201527f0ddd6545cf6a5e86850308b85a2bf0129738b7cdd3e4f0630485fdb784ed08ef6102008201527f251b6e7701aafdc7177cd535e922973860d39c8b6c3d2fce3d12c287be83baa761022082015282610240820152816102608201527f2ad3f37c66103b68dc5db419505a8c6af34e080bb642540c12d70122845281c36102808201527f175223a21dc814d82cf495c0aa52dc77a31cb0f88d187ff9665fcdcc664ececd6102a08201527f18f5759e5af2a9f6d2431a3fbbc34aa186bd42387e6bf1abe56ec765bfb79d7c6102c08201527f1c2d72897f7aa74d5756ac6d082a3fd3422d1f208d7c30e5f870764ff984e87a6102e08201526020816103008360085afa90511692508261050857604051631ff3747d60e21b815260040160405180910390fd5b505050505050505050565b61051b6116dc565b6105236116fa565b61052b611718565b61053c8660005b6020020135610d9a565b6020840152825260008061054f87610d9a565b85516020808801516040519496509294506060936000805160206119b383398151915293610582939290918691016118f6565b6040516020818303038152906040528051906020012060001c6105a5919061194f565b865284518452602085810151858201527f2e56fe5059e0e9170dee81cf361d829e381f04c6696d02ebf1a13ad7110a8e106040808701919091527f2d53a322e9706d55779d3dc87a82d9e425be0379e06c2d4f0c81ff27f1c2a28060608701527f0ecfb5e16109fe1163de90c090cc9d0e74ba41376759264254e5c78d33d68dc060808701527f1cee980cf8c07ac14e9d854a86bcc6d099a5adbdf101863de0fabe9a96fdd80660a087015260c0860185905260e086018490527f10007b7f79d148749e5e8a8841d3042dfdb2deb317c1690179473b3d1e6a30df6101008701527f162aa6325ab01236296888f47ca1dd7ac0f31e9002417269d1a356e1283fc2986101208701527f27ed4aac10da4f1d7e2471bd557e74147cbc98ee35e4346292eaf2f5ffe333876101408701527f0276c4346a595f07d30a3c9f5a1b70d065b9838792584270da81dc69e8144d9f61016087015251600091816101808860085afa90511690508061072b576040516351d49ff760e11b815260040160405180910390fd5b5050505060008061074889600060048110610532576105326118e0565b9092509050600080808061076460408e013560208f0135610e40565b9296509094509250905060008061077c8f6003610532565b9150915060008061078e8e8e8e610adb565b8b8d5260208d018b905260408d0189905260608d018a905260808d0187905260a08d0188905260c08d0186905260e08d018590527f284fdaf9225bfde6274f4ea3d4ffe49509c2f8553dcfa81a0a4bf2e61f87ee366101008e01527f16dc5685aa8868acb440289f8d4f6241841a0f09e5c2c7de2525f77c353a41826101208e01527f23e30cf6d233797afa4b0260f8765d31eff3aacfab8e07b468149afc408854c36101408e01527f03089711372e858b1e675170613ecf1847a2facf3a626945a972372a7c4fe1546101608e01527f0904e5ff31c401fa2ca8bbd3b6e04ddc01f1bfb4f74f1be596f75e0ad808b82f6101808e01527f28e68bfd88ac03e1759f5c9e8a3acad97985a1b5aa27a6820a173bc9217060486101a08e01527f28ac63a733ec201540a6225522b47d679200b4f8bb4c6bdf87bdba27339871fb6101c08e01527f1f0263524620a490b5e7df03e9d35437eacc70d929ff0701e66ab2ed26a6bb5b6101e08e01527f0ddd6545cf6a5e86850308b85a2bf0129738b7cdd3e4f0630485fdb784ed08ef6102008e01527f251b6e7701aafdc7177cd535e922973860d39c8b6c3d2fce3d12c287be83baa76102208e01526102408d018290526102608d018190527f2ad3f37c66103b68dc5db419505a8c6af34e080bb642540c12d70122845281c36102808e01527f175223a21dc814d82cf495c0aa52dc77a31cb0f88d187ff9665fcdcc664ececd6102a08e01527f18f5759e5af2a9f6d2431a3fbbc34aa186bd42387e6bf1abe56ec765bfb79d7c6102c08e01527f1c2d72897f7aa74d5756ac6d082a3fd3422d1f208d7c30e5f870764ff984e87a6102e08e015290925090506000610a036116dc565b6020816103008f60085afa9150811580610a1f57508051600114155b15610a3d57604051631ff3747d60e21b815260040160405180910390fd5b50505050505050505050505050505050505050565b610a5a611737565b610a626116dc565b6000610a7786358760015b6020020135611026565b8352610a956060870135604088013560a089013560808a013561111b565b60208501526040840152610aaf60c0870135876007610a6d565b6060840152610ac18535866001610a6d565b8252610ad08435856001610a6d565b905093509350939050565b6000806000600190506040516040810160007f28657b38bf55121fcf574f8cfcadeeabe4f2f4fdc669d9dbadf1b38fc895ee5483527f1f00065269ed5c2a81482e1c9f4a12367d74420409bdc8d879e1f927eec96025602084015260408260408960065afa8416935060408360808560065afa841693507f2fdfe4927150759754ec43babeed28b7bca8385ebfa8494713d5d7e9671ea5ae82527f0ac2dfbe37509124cf0c82d56b4bd29703ed8552324b5847956f5bec7aeccc936020830152883590508060408301526000805160206119b383398151915281108416935060408260608460075afa8416935060408360808560065afa841693507f0e0d21a5736fd8e506904256878db3fdffe046d3cea0bd180f3942298f2bd5e382527f3006a05a7cd573c06bc56e864409cc5fec0484a657ba85a947da4c842176cf186020830152602089013590508060408301526000805160206119b383398151915281108416935060408260608460075afa8416935060408360808560065afa841693507f0397a95ad1898b2f5072b97af95df2d1081dab901a5e86bbc0f9274b76bc3b6582527f2d4950ce1e2382da6b7e8c59a8abf4531ac5406eb9415b656fd488a1aba703fe6020830152604089013590508060408301526000805160206119b383398151915281108416935060408260608460075afa8416935060408360808560065afa7f0a491e0c29a0292f9559c8092d95a649a6a8e3078656a79ab2494a60d4df7af183527f1648256f5c885cfedd782015a3e7ee5cd77a4788d3046888d99b87baaae19df26020840152885160408085018290526000805160206119b383398151915290911091909516169390508160608160075afa831692505060408160808360065afa81516020909201519194509092501680610d915760405163a54f8e2760e01b815260040160405180910390fd5b50935093915050565b60008082600003610db057506000928392509050565b600183811c9250808416146000805160206119938339815191528310610de957604051631ff3747d60e21b815260040160405180910390fd5b610e266000805160206119938339815191526003600080516020611993833981519152866000805160206119938339815191528889090908611412565b91508015610e3a57610e3782611476565b91505b50915091565b600080808085158015610e51575084155b15610e675750600092508291508190508061101d565b600286811c9450859350600180881614908088161460008051602061199383398151915286101580610ea757506000805160206119938339815191528510155b15610ec557604051631ff3747d60e21b815260040160405180910390fd5b6000600080516020611993833981519152610eef6003600080516020611993833981519152611971565b600080516020611993833981519152888a090990506000600080516020611993833981519152886000805160206119938339815191528a8b090990506000600080516020611993833981519152886000805160206119938339815191528a8b09099050600080516020611993833981519152806000805160206119938339815191528a860984087f2b149d40ceb8aaae81be18991be06ac3b5b4c5e559dbefa33267e6dc24a138e5089650610fe8600080516020611993833981519152806000805160206119938339815191528c870984087f2fcd3ac2a640a154eb23960892a85a68f031ca0c8344b23a577dcf1052b9e77508611476565b9550610ff587878661148f565b909750955084156110175761100987611476565b965061101486611476565b95505b50505050505b92959194509250565b60006000805160206119938339815191528310158061105357506000805160206119938339815191528210155b1561107157604051631ff3747d60e21b815260040160405180910390fd5b8215801561107d575081155b1561108a57506000611115565b60006110c9600080516020611993833981519152600360008051602061199383398151915287600080516020611993833981519152898a090908611412565b90508083036110de575050600182901b611115565b6110e781611476565b83036110fa575050600182811b17611115565b604051631ff3747d60e21b815260040160405180910390fd5b505b92915050565b6000806000805160206119938339815191528610158061114957506000805160206119938339815191528510155b8061116257506000805160206119938339815191528410155b8061117b57506000805160206119938339815191528310155b1561119957604051631ff3747d60e21b815260040160405180910390fd5b828486881717176000036111b257506000905080611409565b600080806000805160206119938339815191526111de6003600080516020611993833981519152611971565b6000805160206119938339815191528a8c0909905060006000805160206119938339815191528a6000805160206119938339815191528c8d0909905060006000805160206119938339815191528a6000805160206119938339815191528c8d09099050600080516020611993833981519152806000805160206119938339815191528c860984087f2b149d40ceb8aaae81be18991be06ac3b5b4c5e559dbefa33267e6dc24a138e50894506112d7600080516020611993833981519152806000805160206119938339815191528e870984087f2fcd3ac2a640a154eb23960892a85a68f031ca0c8344b23a577dcf1052b9e77508611476565b9350505050600080611328600080516020611993833981519152806112fe576112fe611939565b60008051602061199383398151915285860960008051602061199383398151915287880908611412565b90506113756000805160206119938339815191527f183227397098d014dc2822db40c0ac2ecbc0b548b438e5469e10460b6c3e7ea4600080516020611993833981519152848808096115cd565b1591505061138483838361148f565b9093509150868314801561139757508186145b156113c157806113a85760006113ab565b60025b60ff1660028a901b176000179450879350611405565b6113ca83611476565b871480156113df57506113dc82611476565b86145b156110fa57806113f05760006113f3565b60025b60ff1660028a901b1760011794508793505b5050505b94509492505050565b600061143e827f0c19139cb84c680a6e14116da060561765e05aa45a1c72a34f082305b61f3f52611617565b9050816000805160206119938339815191528283091461147157604051631ff3747d60e21b815260040160405180910390fd5b919050565b6000805160206119938339815191529081900681030690565b600080806114c160008051602061199383398151915280878809600080516020611993833981519152898a0908611412565b905083156114d5576114d281611476565b90505b6115206000805160206119938339815191527f183227397098d014dc2822db40c0ac2ecbc0b548b438e5469e10460b6c3e7ea4600080516020611993833981519152848a0809611412565b925060008051602061199383398151915261154c6000805160206119938339815191526002860961167c565b86099150600080516020611993833981519152611579600080516020611993833981519152848509611476565b60008051602061199383398151915285860908861415806115af5750600080516020611993833981519152808385096002098514155b15610d9157604051631ff3747d60e21b815260040160405180910390fd5b6000806115fa837f0c19139cb84c680a6e14116da060561765e05aa45a1c72a34f082305b61f3f52611617565b905082600080516020611993833981519152828309149392505050565b600080604051602081526020808201526020604082015284606082015283608082015260008051602061199383398151915260a082015260208160c08360055afa9051925090508061111357604051631ff3747d60e21b815260040160405180910390fd5b60006116a8827f30644e72e131a029b85045b68181585d97816a916871ca8d3c208c16d87cfd45611617565b905060008051602061199383398151915281830960011461147157604051631ff3747d60e21b815260040160405180910390fd5b60405180602001604052806001906020820280368337509192915050565b60405180604001604052806002906020820280368337509192915050565b6040518061030001604052806018906020820280368337509192915050565b60405180608001604052806004906020820280368337509192915050565b80610100810183101561111557600080fd5b806040810183101561111557600080fd5b806060810183101561111557600080fd5b6000806000806101e085870312156117a057600080fd5b6117aa8686611755565b93506117ba866101008701611767565b92506117ca866101408701611767565b91506117da866101808701611778565b905092959194509250565b60008060008061012085870312156117fc57600080fd5b608085018681111561180d57600080fd5b85945060a086018781111561182157600080fd5b9093503591506117da8660c08701611778565b6000806000610180848603121561184a57600080fd5b6118548585611755565b9250611864856101008601611767565b9150611874856101408601611767565b90509250925092565b60c08101818560005b60048110156118a5578151835260209283019290910190600101611886565b505050608082018460005b60018110156118cf5781518352602092830192909101906001016118b0565b5050508260a0830152949350505050565b634e487b7160e01b600052603260045260246000fd5b83815282602082015260006040820183516020850160005b8281101561192c57815184526020938401939091019060010161190e565b5091979650505050505050565b634e487b7160e01b600052601260045260246000fd5b60008261196c57634e487b7160e01b600052601260045260246000fd5b500690565b8181038181111561111557634e487b7160e01b600052601160045260246000fdfe30644e72e131a029b85045b68181585d97816a916871ca8d3c208c16d87cfd4730644e72e131a029b85045b68181585d2833e84879b9709143e1f593f0000001a2646970667358221220dcd873250b474655c72a6c1925325d580044a78feda3b1a6cf0e521abe72451264736f6c634300081c0033",
  "linkReferences": {},
  "deployedLinkReferences": {}
}