{
  "_format": "hh-sol-artifact-1",
  "contractName": "ResultsVerifierGroth16",
  "sourceName": "src/verifiers/ResultsVerifierGroth16.sol",
  "abi": [
    {
      "inputs": [],
      "name": "CommitmentInvalid",
      "type": "error"
    },
    {
      "inputs": [],
      "name": "ProofInvalid",
      "type": "error"
    },
    {
      "inputs": [],
      "name": "PublicInputNotInField",
      "type": "error"
    },
    {
      "inputs": [
        {
          "internalType": "uint256[8]",
          "name": "proof",
          "type": "uint256[8]"
        },
        {
          "internalType": "uint256[2]",
          "name": "commitments",
          "type": "uint256[2]"
        },
        {
          "internalType": "uint256[2]",
          "name": "commitmentPok",
          "type": "uint256[2]"
        }
      ],
      "name": "compressProof",
      "outputs": [
        {
          "internalType": "uint256[4]",
          "name": "compressed",
          "type": "uint256[4]"
        },
        {
          "internalType": "uint256[1]",
          "name": "compressedCommitments",
          "type": "uint256[1]"
        },
        {
          "internalType": "uint256",
          "name": "compressedCommitmentPok",
          "type": "uint256"
        }
      ],
      "stateMutability": "view",
      "type": "function"
    },
    {
      "inputs": [],
      "name": "provingKeyHash",
      "outputs": [
        {
          "internalType": "bytes32",
          "name": "",
          "type": "bytes32"
        }
      ],
      "stateMutability": "pure",
      "type": "function"
    },
    {
      "inputs": [
        {
          "internalType": "uint256[4]",
          "name": "compressedProof",
          "type": "uint256[4]"
        },
        {
          "internalType": "uint256[1]",
          "name": "compressedCommitments",
          "type": "uint256[1]"
        },
        {
          "internalType": "uint256",
          "name": "compressedCommitmentPok",
          "type": "uint256"
        },
        {
          "internalType": "uint256[9]",
          "name": "input",
          "type": "uint256[9]"
        }
      ],
      "name": "verifyCompressedProof",
      "outputs": [],
      "stateMutability": "view",
      "type": "function"
    },
    {
      "inputs": [
        {
          "internalType": "uint256[8]",
          "name": "proof",
          "type": "uint256[8]"
        },
        {
          "internalType": "uint256[2]",
          "name": "commitments",
          "type": "uint256[2]"
        },
        {
          "internalType": "uint256[2]",
          "name": "commitmentPok",
          "type": "uint256[2]"
        },
        {
          "internalType": "uint256[9]",
          "name": "input",
          "type": "uint256[9]"
        }
      ],
      "name": "verifyProof",
      "outputs": [],
      "stateMutability": "view",
      "type": "function"
    },
    {
      "inputs": [
        {
          "internalType": "bytes",
          "name": "_proof",
          "type": "bytes"
        },
        {
          "internalType": "bytes",
          "name": "_input",
          "type": "bytes"
        }
      ],
      "name": "verifyProof",
      "outputs": [],
      "stateMutability": "view",
      "type": "function"
    }
  ],
  "bytecode": "0x6080604052348015600e575f5ffd5b506120c58061001c5f395ff3fe608060405234801561000f575f5ffd5b5060043610610055575f3560e01c8063233ace11146100595780635d26278e1461008c57806360e58346146100a1578063b1c3a00e146100b4578063b8e72af6146100d6575b5f5ffd5b6040517f7ed9b61763a398981a656344cb842a3ce7445196767a143e38af3686a057a23781526020015b60405180910390f35b61009f61009a366004611b75565b6100e9565b005b61009f6100af366004611beb565b61061d565b6100c76100c2366004611c39565b610a92565b60405161008393929190611c7f565b61009f6100e4366004611d25565b610b1a565b6100f1611aad565b6100f9611acb565b610101611ae9565b610111865f5b6020020135610b95565b602084015282525f8061012387610b95565b85516020808801516040519496509294506060935f5160206120705f395f51905f529361015593929091869101611da5565b604051602081830303815290604052805190602001205f1c6101779190611dfa565b865284518452602085810151858201527f211ff8deef47f7b18d590dd969d97f709265380a5136b34c64786345315dad396040808701919091527f01d7cd45b719f87eac10057f7379e440c0922a3412dcd32b0436473b89d7427b60608701527f255c8bc9e8345c3f8bcd6147c1388bb6501356fa2fe469a5007893932eab8e2f60808701527f22f94df65e194c5d6cf757479bf9687ac7fdb14032a33698b560c0f46069c54260a087015260c0860185905260e086018490527f1528fff24569cfc678cdd789ffd3343abc0851d686eb1cabcf3ba8cf49302d8e6101008701527f1b2b35e890c913bebb27da895d90dbaafa7616b5760ea1ce806986ea63100a9b6101208701527f162884dfbd7bde08ec1cf8d7d4e0da738cd41f9f6a620bb2bb3ada5df8afd9476101408701527f250522662efe74de1d604758bb845b99aa66ac6c9994d1504fcb9395948be240610160870152515f91816101808860085afa9051169050806102fc576040516351d49ff760e11b815260040160405180910390fd5b505050505f5f610317895f6004811061010757610107611d91565b90925090505f80808061033260408e013560208f0135610c34565b929650909450925090505f806103498f6003610107565b915091505f5f61035a8e8e8e610e08565b8b8d5260208d018b905260408d0189905260608d018a905260808d0187905260a08d0188905260c08d0186905260e08d018590527f0eecb24262085e99b65419c1e4c888485cdb32473ee326239801cf4a8d1cf82c6101008e01527f2fa7d3d83dee8df972c3c21c69868c17a2cd314203c3db109385dd73693beab26101208e01527f1a4147ac39bd611466970f800e77797debe0990351ea3395a6d5eb28c30c912b6101408e01527f04982e9840950baf216ba05708d714af87f4aa9a5bf33126f7ba3570cab2222d6101608e01527f12a5c897f9f5dee909cde749656755075a9880041a10b8af5161697c7cf598076101808e01527f23e939072bce0953d0a50a897be1e341c9fc11cee4435aaafe5ad2571649e4446101a08e01527f0550475659d3772c0fd0b85a86c87a539f4c78a66bc3fd827be8f19078be2ea86101c08e01527f0b4a92742eda6296ba6cda1a3529374e1f41e358870521d88102c5b576d98b0c6101e08e01527f01bbc7c5f7c9c54bdefcefef695e2a8b4cb5bb44b5816421bb9947147b02f2ae6102008e01527f0d56275f7d98b9bb74077a740411de015a2d25da12818a30a8458860ec4c76c66102208e01526102408d018290526102608d018190527f050524ce5edabd2591ef58d16912159eab09717a4250ff2635e111165bd987da6102808e01527f186708bb623130cc1a0c236783120e1eb0d880ede43eaf0a60536af1f88ed7c66102a08e01527f2d31be59daae8edfb1f6eda8d869cfb619b6dfd22c5b0fcc238d955627bdc1016102c08e01527f11a1cfe83c57807915a9a0d0096f70404c9570295dbbf1aaef8a395b761ae53b6102e08e015290925090505f6105ce611aad565b6020816103008f60085afa91508115806105ea57508051600114155b1561060857604051631ff3747d60e21b815260040160405180910390fd5b50505050505050505050505050505050505050565b610625611aad565b6040516060905f5160206120705f395f51905f5290610650908735906020808a013591869101611da5565b604051602081830303815290604052805190602001205f1c6106729190611dfa565b8252604080515f918782377f211ff8deef47f7b18d590dd969d97f709265380a5136b34c64786345315dad3960408201527f01d7cd45b719f87eac10057f7379e440c0922a3412dcd32b0436473b89d7427b60608201527f255c8bc9e8345c3f8bcd6147c1388bb6501356fa2fe469a5007893932eab8e2f60808201527f22f94df65e194c5d6cf757479bf9687ac7fdb14032a33698b560c0f46069c54260a082015260408660c08301377f1528fff24569cfc678cdd789ffd3343abc0851d686eb1cabcf3ba8cf49302d8e6101008201527f1b2b35e890c913bebb27da895d90dbaafa7616b5760ea1ce806986ea63100a9b6101208201527f162884dfbd7bde08ec1cf8d7d4e0da738cd41f9f6a620bb2bb3ada5df8afd9476101408201527f250522662efe74de1d604758bb845b99aa66ac6c9994d1504fcb9395948be2406101608201526020816101808360085afa9051169050806107e7576040516351d49ff760e11b815260040160405180910390fd5b5f5f61081c86868a60028060200260405190810160405280929190826002602002808284375f92019190915250610e08915050565b915091506040516101008a82377f0eecb24262085e99b65419c1e4c888485cdb32473ee326239801cf4a8d1cf82c6101008201527f2fa7d3d83dee8df972c3c21c69868c17a2cd314203c3db109385dd73693beab26101208201527f1a4147ac39bd611466970f800e77797debe0990351ea3395a6d5eb28c30c912b6101408201527f04982e9840950baf216ba05708d714af87f4aa9a5bf33126f7ba3570cab2222d6101608201527f12a5c897f9f5dee909cde749656755075a9880041a10b8af5161697c7cf598076101808201527f23e939072bce0953d0a50a897be1e341c9fc11cee4435aaafe5ad2571649e4446101a08201527f0550475659d3772c0fd0b85a86c87a539f4c78a66bc3fd827be8f19078be2ea86101c08201527f0b4a92742eda6296ba6cda1a3529374e1f41e358870521d88102c5b576d98b0c6101e08201527f01bbc7c5f7c9c54bdefcefef695e2a8b4cb5bb44b5816421bb9947147b02f2ae6102008201527f0d56275f7d98b9bb74077a740411de015a2d25da12818a30a8458860ec4c76c661022082015282610240820152816102608201527f050524ce5edabd2591ef58d16912159eab09717a4250ff2635e111165bd987da6102808201527f186708bb623130cc1a0c236783120e1eb0d880ede43eaf0a60536af1f88ed7c66102a08201527f2d31be59daae8edfb1f6eda8d869cfb619b6dfd22c5b0fcc238d955627bdc1016102c08201527f11a1cfe83c57807915a9a0d0096f70404c9570295dbbf1aaef8a395b761ae53b6102e08201526020816103008360085afa905116925082610a8757604051631ff3747d60e21b815260040160405180910390fd5b505050505050505050565b610a9a611b08565b610aa2611aad565b5f610ab686358760015b60200201356113e5565b8352610ad46060870135604088013560a089013560808a01356114d2565b60208501526040840152610aee60c0870135876007610aac565b6060840152610b008535866001610aac565b8252610b0f8435856001610aac565b905093509350939050565b5f5f5f610b2787876117ab565b91945092509050306360e58346848484610b418a8a6117dc565b6040518563ffffffff1660e01b8152600401610b609493929190611e41565b5f6040518083038186803b158015610b76575f5ffd5b505afa158015610b88573d5f5f3e3d5ffd5b5050505050505050505050565b5f5f825f03610ba857505f928392509050565b600183811c9250808416145f5160206120505f395f51905f528310610be057604051631ff3747d60e21b815260040160405180910390fd5b610c1a5f5160206120505f395f51905f5260035f5160206120505f395f51905f52865f5160206120505f395f51905f5288890909086117f7565b91508015610c2e57610c2b82611859565b91505b50915091565b5f80808085158015610c44575084155b15610c5957505f925082915081905080610dff565b600286811c945085935060018088161490808816145f5160206120505f395f51905f5286101580610c9757505f5160206120505f395f51905f528510155b15610cb557604051631ff3747d60e21b815260040160405180910390fd5b5f5f5160206120505f395f51905f52610cdc60035f5160206120505f395f51905f52611ebb565b5f5160206120505f395f51905f52888a090990505f5f5160206120505f395f51905f52885f5160206120505f395f51905f528a8b090990505f5f5160206120505f395f51905f52885f5160206120505f395f51905f528a8b090990505f5160206120505f395f51905f52805f5160206120505f395f51905f528a860984087f2b149d40ceb8aaae81be18991be06ac3b5b4c5e559dbefa33267e6dc24a138e5089650610dca5f5160206120505f395f51905f52805f5160206120505f395f51905f528c870984087f2fcd3ac2a640a154eb23960892a85a68f031ca0c8344b23a577dcf1052b9e77508611859565b9550610dd7878786611871565b90975095508415610df957610deb87611859565b9650610df686611859565b95505b50505050505b92959194509250565b5f5f5f60019050604051604081015f7f2ab09cb8fcafaef59e50b0487088a446dfda57456d3b134a3bb1df23ba44a12783527f268ca9d3a982ad31d5268ff85c2389c6e2f54be4e5e9b00f3a50d26c5e053d066020840152865182526020870151602083015260408360808560065afa841693507f0f726db784c78e7eda4ff06971518e8904c5340da6c9c77d160444396b1dd6e982527f127826b1655b7244f1d557c7c730bd35209f06199e7e4d2e06d201e881c23e856020830152883590508060408301525f5160206120705f395f51905f5281108416935060408260608460075afa8416935060408360808560065afa841693507f04b17dd1b884ae058be704ab843ba5db17a0c5fded35662968e873418aa7590182527f21d1e7b9d70f092be75cf4a6a27e419752068a521651b8d5878c3966b3ffdfe36020830152602089013590508060408301525f5160206120705f395f51905f5281108416935060408260608460075afa8416935060408360808560065afa841693507f0eeba1f9b315fc53ef73951702fd8a9328dbfe23439615bdee5e4c2d3afd5c8682527f248a679c8ec7dca891caaa80b5f41d4fb870cda19d966d834460379a089d89226020830152604089013590508060408301525f5160206120705f395f51905f5281108416935060408260608460075afa8416935060408360808560065afa841693507f1a1de355c62aae496d3fe952eae71d7128cd7ed9c05a0ca506be8aea4897363c82527f29bffdc8e90bdb5e9de4d51797adeddb5af00efadcc972d346321357221435646020830152606089013590508060408301525f5160206120705f395f51905f5281108416935060408260608460075afa8416935060408360808560065afa841693507f2db53fce60a452d7b4f81911b7020fa98976093efd43bfb632ef4bb00a21f86f82527f1d714d0dc7aaf7d4255e8d8416c8e27408cd59ebf86da5e5bc8d5d9a175d8e1f6020830152608089013590508060408301525f5160206120705f395f51905f5281108416935060408260608460075afa8416935060408360808560065afa841693507f127bcd3af7cc5896cd037055304b7bf57586e84ecc5980ae7d08cc6c475f0efa82527f26658108abe86c769c96f893ef434b35d46135414d716f6dee6cdeae5af23f93602083015260a089013590508060408301525f5160206120705f395f51905f5281108416935060408260608460075afa8416935060408360808560065afa841693507f0810138e75477bc1293dc9639554b49468043be373b9e55cbcc772794ffbd4cb82527f2dc12f0cdf894a5d58db4759ba23d19c93215813ff66e4f138c138403c0c376c602083015260c089013590508060408301525f5160206120705f395f51905f5281108416935060408260608460075afa8416935060408360808560065afa841693507f160535c9c9e1e940b0cebf35b59a26d3e050d092ba97b42badec196d88ba348882527f165d0287373b95a6480f7892bc8bcc085e336bd8af7475c9fdbc6ab535a83f73602083015260e089013590508060408301525f5160206120705f395f51905f5281108416935060408260608460075afa8416935060408360808560065afa841693507f04892e6e3f399ea317ab6bdf0de51e5f40e5de077448a1724b35ca570f00fd5882527f2bd3016fdfdca7a7be9035d82161411655ab2fe991ede89fdf5813635fe791bf602083015261010089013590508060408301525f5160206120705f395f51905f5281108416935060408260608460075afa8416935060408360808560065afa7f1b2351311fc2549a893f2c2fa3d5b49d8b4b12a93f798e9e59751f9450a3cb5883527f1f7b68348a2c73f6570b4fb594b75e42fd29fa4b723e93b2d166cbaf3f832d936020840152885160408085018290525f5160206120705f395f51905f5290911091909516169390508160608160075afa831692505060408160808360065afa815160209092015191945090925016806113dc5760405163a54f8e2760e01b815260040160405180910390fd5b50935093915050565b5f5f5160206120505f395f51905f528310158061140f57505f5160206120505f395f51905f528210155b1561142d57604051631ff3747d60e21b815260040160405180910390fd5b82158015611439575081155b1561144557505f6114cc565b5f6114805f5160206120505f395f51905f5260035f5160206120505f395f51905f52875f5160206120505f395f51905f52898a0909086117f7565b9050808303611495575050600182901b6114cc565b61149e81611859565b83036114b1575050600182811b176114cc565b604051631ff3747d60e21b815260040160405180910390fd5b505b92915050565b5f5f5f5160206120505f395f51905f52861015806114fd57505f5160206120505f395f51905f528510155b8061151557505f5160206120505f395f51905f528410155b8061152d57505f5160206120505f395f51905f528310155b1561154b57604051631ff3747d60e21b815260040160405180910390fd5b828486881717175f0361156257505f9050806117a2565b5f80805f5160206120505f395f51905f5261158b60035f5160206120505f395f51905f52611ebb565b5f5160206120505f395f51905f528a8c090990505f5f5160206120505f395f51905f528a5f5160206120505f395f51905f528c8d090990505f5f5160206120505f395f51905f528a5f5160206120505f395f51905f528c8d090990505f5160206120505f395f51905f52805f5160206120505f395f51905f528c860984087f2b149d40ceb8aaae81be18991be06ac3b5b4c5e559dbefa33267e6dc24a138e50894506116795f5160206120505f395f51905f52805f5160206120505f395f51905f528e870984087f2fcd3ac2a640a154eb23960892a85a68f031ca0c8344b23a577dcf1052b9e77508611859565b93505050505f5f6116c65f5160206120505f395f51905f528061169e5761169e611de6565b5f5160206120505f395f51905f528586095f5160206120505f395f51905f52878809086117f7565b90506117115f5160206120505f395f51905f527f183227397098d014dc2822db40c0ac2ecbc0b548b438e5469e10460b6c3e7ea45f5160206120505f395f51905f52848808096119a4565b15915050611720838383611871565b9093509150868314801561173357508186145b1561175b5780611743575f611746565b60025b60ff1660028a901b175f17945087935061179e565b61176483611859565b87148015611779575061177682611859565b86145b156114b15780611789575f61178c565b60025b60ff1660028a901b1760011794508793505b5050505b94509492505050565b6117b3611b26565b6117bb611acb565b6117c3611acb565b6117cf84860186611f69565b9250925092509250925092565b6117e4611b45565b6117f082840184611fe8565b9392505050565b5f611822827f0c19139cb84c680a6e14116da060561765e05aa45a1c72a34f082305b61f3f526119ec565b9050815f5160206120505f395f51905f528283091461185457604051631ff3747d60e21b815260040160405180910390fd5b919050565b5f5160206120505f395f51905f529081900681030690565b5f80806118a05f5160206120505f395f51905f52808788095f5160206120505f395f51905f52898a09086117f7565b905083156118b4576118b181611859565b90505b6118fd5f5160206120505f395f51905f527f183227397098d014dc2822db40c0ac2ecbc0b548b438e5469e10460b6c3e7ea45f5160206120505f395f51905f52848a08096117f7565b92505f5160206120505f395f51905f526119275f5160206120505f395f51905f5260028609611a4f565b860991505f5160206120505f395f51905f526119525f5160206120505f395f51905f52848509611859565b5f5160206120505f395f51905f52858609088614158061198657505f5160206120505f395f51905f52808385096002098514155b156113dc57604051631ff3747d60e21b815260040160405180910390fd5b5f5f6119d0837f0c19139cb84c680a6e14116da060561765e05aa45a1c72a34f082305b61f3f526119ec565b9050825f5160206120505f395f51905f52828309149392505050565b5f5f60405160208152602080820152602060408201528460608201528360808201525f5160206120505f395f51905f5260a082015260208160c08360055afa905192509050806114ca57604051631ff3747d60e21b815260040160405180910390fd5b5f611a7a827f30644e72e131a029b85045b68181585d97816a916871ca8d3c208c16d87cfd456119ec565b90505f5160206120505f395f51905f5281830960011461185457604051631ff3747d60e21b815260040160405180910390fd5b60405180602001604052806001906020820280368337509192915050565b60405180604001604052806002906020820280368337509192915050565b6040518061030001604052806018906020820280368337509192915050565b60405180608001604052806004906020820280368337509192915050565b6040518061010001604052806008906020820280368337509192915050565b6040518061012001604052806009906020820280368337509192915050565b8061012081018310156114cc575f5ffd5b5f5f5f5f6101e08587031215611b89575f5ffd5b6080850186811115611b99575f5ffd5b85945060a0860187811115611bac575f5ffd5b909350359150611bbf8660c08701611b64565b905092959194509250565b8061010081018310156114cc575f5ffd5b80604081018310156114cc575f5ffd5b5f5f5f5f6102a08587031215611bff575f5ffd5b611c098686611bca565b9350611c19866101008701611bdb565b9250611c29866101408701611bdb565b9150611bbf866101808701611b64565b5f5f5f6101808486031215611c4c575f5ffd5b611c568585611bca565b9250611c66856101008601611bdb565b9150611c76856101408601611bdb565b90509250925092565b60c0810181855f5b6004811015611ca6578151835260209283019290910190600101611c87565b50505060808201845f5b6001811015611ccf578151835260209283019290910190600101611cb0565b5050508260a0830152949350505050565b5f5f83601f840112611cf0575f5ffd5b50813567ffffffffffffffff811115611d07575f5ffd5b602083019150836020828501011115611d1e575f5ffd5b9250929050565b5f5f5f5f60408587031215611d38575f5ffd5b843567ffffffffffffffff811115611d4e575f5ffd5b611d5a87828801611ce0565b909550935050602085013567ffffffffffffffff811115611d79575f5ffd5b611d8587828801611ce0565b95989497509550505050565b634e487b7160e01b5f52603260045260245ffd5b8381528260208201525f604082018351602085015f5b82811015611dd9578151845260209384019390910190600101611dbb565b5091979650505050505050565b634e487b7160e01b5f52601260045260245ffd5b5f82611e1457634e487b7160e01b5f52601260045260245ffd5b500690565b805f5b6002811015611e3b578151845260209384019390910190600101611e1c565b50505050565b6102a0810181865f5b6008811015611e69578151835260209283019290910190600101611e4a565b505050611e7a610100830186611e19565b611e88610140830185611e19565b6101808201835f5b6009811015611eaf578151835260209283019290910190600101611e90565b50505095945050505050565b818103818111156114cc57634e487b7160e01b5f52601160045260245ffd5b604051601f8201601f1916810167ffffffffffffffff81118282101715611f0f57634e487b7160e01b5f52604160045260245ffd5b604052919050565b5f82601f830112611f26575f5ffd5b5f611f316040611eda565b9050806040840185811115611f44575f5ffd5b845b81811015611f5e578035835260209283019201611f46565b509195945050505050565b5f5f5f6101808486031215611f7c575f5ffd5b5f85601f860112611f8b575f5ffd5b505f80610100611f9a81611eda565b9250829150860187811115611fad575f5ffd5b865b81811015611fc7578035845260209384019301611faf565b50819550611fd58882611f17565b9450505050611c76856101408601611f17565b5f6101208284031215611ff9575f5ffd5b5f83601f840112612008575f5ffd5b505f8061012061201781611eda565b925082915084018581111561202a575f5ffd5b845b8181101561204457803584526020938401930161202c565b50909594505050505056fe30644e72e131a029b85045b68181585d97816a916871ca8d3c208c16d87cfd4730644e72e131a029b85045b68181585d2833e84879b9709143e1f593f0000001a26469706673582212200d9d52048fb2a5dd5b559a67fd6ed39a3edb0644b00aee23019c1e7baac25fdc64736f6c634300081c0033",
  "linkReferences": {},
  "deployedLinkReferences": {}
}