{
  "_format": "hh-sol-artifact-1",
  "contractName": "ProcessRegistry",
  "sourceName": "src/ProcessRegistry.sol",
  "abi": [
    {
      "inputs": [
        {
          "internalType": "uint32",
          "name": "_chainID",
          "type": "uint32"
        },
        {
          "internalType": "address",
          "name": "_stVerifier",
          "type": "address"
        },
        {
          "internalType": "address",
          "name": "_rVerifier",
          "type": "address"
        }
      ],
      "stateMutability": "nonpayable",
      "type": "constructor"
    },
    {
      "inputs": [],
      "name": "BlobVerificationFailed",
      "type": "error"
    },
    {
      "inputs": [],
      "name": "CannotAcceptResult",
      "type": "error"
    },
    {
      "inputs": [],
      "name": "InvalidBlobHash",
      "type": "error"
    },
    {
      "inputs": [],
      "name": "InvalidCensusOrigin",
      "type": "error"
    },
    {
      "inputs": [],
      "name": "InvalidCensusRoot",
      "type": "error"
    },
    {
      "inputs": [],
      "name": "InvalidCensusURI",
      "type": "error"
    },
    {
      "inputs": [],
      "name": "InvalidDuration",
      "type": "error"
    },
    {
      "inputs": [],
      "name": "InvalidMaxCount",
      "type": "error"
    },
    {
      "inputs": [],
      "name": "InvalidMaxMinValueBounds",
      "type": "error"
    },
    {
      "inputs": [],
      "name": "InvalidMaxValue",
      "type": "error"
    },
    {
      "inputs": [],
      "name": "InvalidMaxValueSum",
      "type": "error"
    },
    {
      "inputs": [],
      "name": "InvalidMaxVotes",
      "type": "error"
    },
    {
      "inputs": [],
      "name": "InvalidMinTotalCost",
      "type": "error"
    },
    {
      "inputs": [],
      "name": "InvalidMinValue",
      "type": "error"
    },
    {
      "inputs": [],
      "name": "InvalidProcessId",
      "type": "error"
    },
    {
      "inputs": [],
      "name": "InvalidStartTime",
      "type": "error"
    },
    {
      "inputs": [],
      "name": "InvalidStateRoot",
      "type": "error"
    },
    {
      "inputs": [],
      "name": "InvalidStatus",
      "type": "error"
    },
    {
      "inputs": [],
      "name": "InvalidTimeBounds",
      "type": "error"
    },
    {
      "inputs": [],
      "name": "InvalidUniqueValues",
      "type": "error"
    },
    {
      "inputs": [],
      "name": "InvalidValueSumBounds",
      "type": "error"
    },
    {
      "inputs": [],
      "name": "ProcessAlreadyExists",
      "type": "error"
    },
    {
      "inputs": [],
      "name": "ProcessNotEnded",
      "type": "error"
    },
    {
      "inputs": [],
      "name": "ProcessNotFound",
      "type": "error"
    },
    {
      "inputs": [],
      "name": "ProofInvalid",
      "type": "error"
    },
    {
      "inputs": [],
      "name": "Unauthorized",
      "type": "error"
    },
    {
      "inputs": [],
      "name": "UnknownProcessIdPrefix",
      "type": "error"
    },
    {
      "anonymous": false,
      "inputs": [
        {
          "indexed": true,
          "internalType": "bytes32",
          "name": "processId",
          "type": "bytes32"
        },
        {
          "indexed": false,
          "internalType": "bytes32",
          "name": "censusRoot",
          "type": "bytes32"
        },
        {
          "indexed": false,
          "internalType": "string",
          "name": "censusURI",
          "type": "string"
        },
        {
          "indexed": false,
          "internalType": "uint256",
          "name": "maxVotes",
          "type": "uint256"
        }
      ],
      "name": "CensusUpdated",
      "type": "event"
    },
    {
      "anonymous": false,
      "inputs": [
        {
          "indexed": true,
          "internalType": "bytes32",
          "name": "processId",
          "type": "bytes32"
        },
        {
          "indexed": true,
          "internalType": "address",
          "name": "creator",
          "type": "address"
        }
      ],
      "name": "ProcessCreated",
      "type": "event"
    },
    {
      "anonymous": false,
      "inputs": [
        {
          "indexed": true,
          "internalType": "bytes32",
          "name": "processId",
          "type": "bytes32"
        },
        {
          "indexed": false,
          "internalType": "uint256",
          "name": "duration",
          "type": "uint256"
        }
      ],
      "name": "ProcessDurationChanged",
      "type": "event"
    },
    {
      "anonymous": false,
      "inputs": [
        {
          "indexed": true,
          "internalType": "bytes32",
          "name": "processId",
          "type": "bytes32"
        },
        {
          "indexed": true,
          "internalType": "address",
          "name": "sender",
          "type": "address"
        },
        {
          "indexed": false,
          "internalType": "uint256[]",
          "name": "result",
          "type": "uint256[]"
        }
      ],
      "name": "ProcessResultsSet",
      "type": "event"
    },
    {
      "anonymous": false,
      "inputs": [
        {
          "indexed": true,
          "internalType": "bytes32",
          "name": "processId",
          "type": "bytes32"
        },
        {
          "indexed": true,
          "internalType": "address",
          "name": "sender",
          "type": "address"
        },
        {
          "indexed": false,
          "internalType": "uint256",
          "name": "newStateRoot",
          "type": "uint256"
        }
      ],
      "name": "ProcessStateRootUpdated",
      "type": "event"
    },
    {
      "anonymous": false,
      "inputs": [
        {
          "indexed": true,
          "internalType": "bytes32",
          "name": "processId",
          "type": "bytes32"
        },
        {
          "indexed": false,
          "internalType": "enum IProcessRegistry.ProcessStatus",
          "name": "oldStatus",
          "type": "uint8"
        },
        {
          "indexed": false,
          "internalType": "enum IProcessRegistry.ProcessStatus",
          "name": "newStatus",
          "type": "uint8"
        }
      ],
      "name": "ProcessStatusChanged",
      "type": "event"
    },
    {
      "inputs": [],
      "name": "BLOB_INDEX",
      "outputs": [
        {
          "internalType": "uint8",
          "name": "",
          "type": "uint8"
        }
      ],
      "stateMutability": "view",
      "type": "function"
    },
    {
      "inputs": [],
      "name": "MAX_CENSUS_ORIGIN",
      "outputs": [
        {
          "internalType": "uint8",
          "name": "",
          "type": "uint8"
        }
      ],
      "stateMutability": "view",
      "type": "function"
    },
    {
      "inputs": [],
      "name": "MAX_STATUS",
      "outputs": [
        {
          "internalType": "uint8",
          "name": "",
          "type": "uint8"
        }
      ],
      "stateMutability": "view",
      "type": "function"
    },
    {
      "inputs": [],
      "name": "chainID",
      "outputs": [
        {
          "internalType": "uint32",
          "name": "",
          "type": "uint32"
        }
      ],
      "stateMutability": "view",
      "type": "function"
    },
    {
      "inputs": [
        {
          "internalType": "address",
          "name": "organizationId",
          "type": "address"
        }
      ],
      "name": "getNextProcessId",
      "outputs": [
        {
          "internalType": "bytes32",
          "name": "",
          "type": "bytes32"
        }
      ],
      "stateMutability": "view",
      "type": "function"
    },
    {
      "inputs": [
        {
          "internalType": "bytes32",
          "name": "processId",
          "type": "bytes32"
        }
      ],
      "name": "getProcess",
      "outputs": [
        {
          "components": [
            {
              "internalType": "enum IProcessRegistry.ProcessStatus",
              "name": "status",
              "type": "uint8"
            },
            {
              "internalType": "address",
              "name": "organizationId",
              "type": "address"
            },
            {
              "components": [
                {
                  "internalType": "uint256",
                  "name": "x",
                  "type": "uint256"
                },
                {
                  "internalType": "uint256",
                  "name": "y",
                  "type": "uint256"
                }
              ],
              "internalType": "struct IProcessRegistry.EncryptionKey",
              "name": "encryptionKey",
              "type": "tuple"
            },
            {
              "internalType": "uint256",
              "name": "latestStateRoot",
              "type": "uint256"
            },
            {
              "internalType": "uint256[]",
              "name": "result",
              "type": "uint256[]"
            },
            {
              "internalType": "uint256",
              "name": "startTime",
              "type": "uint256"
            },
            {
              "internalType": "uint256",
              "name": "duration",
              "type": "uint256"
            },
            {
              "internalType": "uint256",
              "name": "voteCount",
              "type": "uint256"
            },
            {
              "internalType": "uint256",
              "name": "voteOverwriteCount",
              "type": "uint256"
            },
            {
              "internalType": "uint256",
              "name": "creationBlock",
              "type": "uint256"
            },
            {
              "internalType": "uint256",
              "name": "batchNumber",
              "type": "uint256"
            },
            {
              "internalType": "string",
              "name": "metadataURI",
              "type": "string"
            },
            {
              "components": [
                {
                  "internalType": "bool",
                  "name": "costFromWeight",
                  "type": "bool"
                },
                {
                  "internalType": "bool",
                  "name": "uniqueValues",
                  "type": "bool"
                },
                {
                  "internalType": "uint8",
                  "name": "numFields",
                  "type": "uint8"
                },
                {
                  "internalType": "uint8",
                  "name": "costExponent",
                  "type": "uint8"
                },
                {
                  "internalType": "uint256",
                  "name": "maxValue",
                  "type": "uint256"
                },
                {
                  "internalType": "uint256",
                  "name": "minValue",
                  "type": "uint256"
                },
                {
                  "internalType": "uint256",
                  "name": "maxValueSum",
                  "type": "uint256"
                },
                {
                  "internalType": "uint256",
                  "name": "minValueSum",
                  "type": "uint256"
                }
              ],
              "internalType": "struct IProcessRegistry.BallotMode",
              "name": "ballotMode",
              "type": "tuple"
            },
            {
              "components": [
                {
                  "internalType": "enum IProcessRegistry.CensusOrigin",
                  "name": "censusOrigin",
                  "type": "uint8"
                },
                {
                  "internalType": "uint256",
                  "name": "maxVotes",
                  "type": "uint256"
                },
                {
                  "internalType": "bytes32",
                  "name": "censusRoot",
                  "type": "bytes32"
                },
                {
                  "internalType": "string",
                  "name": "censusURI",
                  "type": "string"
                }
              ],
              "internalType": "struct IProcessRegistry.Census",
              "name": "census",
              "type": "tuple"
            }
          ],
          "internalType": "struct IProcessRegistry.Process",
          "name": "",
          "type": "tuple"
        }
      ],
      "stateMutability": "view",
      "type": "function"
    },
    {
      "inputs": [
        {
          "internalType": "bytes32",
          "name": "processId",
          "type": "bytes32"
        }
      ],
      "name": "getProcessEndTime",
      "outputs": [
        {
          "internalType": "uint256",
          "name": "",
          "type": "uint256"
        }
      ],
      "stateMutability": "view",
      "type": "function"
    },
    {
      "inputs": [],
      "name": "getRVerifierVKeyHash",
      "outputs": [
        {
          "internalType": "bytes32",
          "name": "",
          "type": "bytes32"
        }
      ],
      "stateMutability": "view",
      "type": "function"
    },
    {
      "inputs": [],
      "name": "getSTVerifierVKeyHash",
      "outputs": [
        {
          "internalType": "bytes32",
          "name": "",
          "type": "bytes32"
        }
      ],
      "stateMutability": "view",
      "type": "function"
    },
    {
      "inputs": [
        {
          "internalType": "enum IProcessRegistry.ProcessStatus",
          "name": "status",
          "type": "uint8"
        },
        {
          "internalType": "uint256",
          "name": "startTime",
          "type": "uint256"
        },
        {
          "internalType": "uint256",
          "name": "duration",
          "type": "uint256"
        },
        {
          "components": [
            {
              "internalType": "bool",
              "name": "costFromWeight",
              "type": "bool"
            },
            {
              "internalType": "bool",
              "name": "uniqueValues",
              "type": "bool"
            },
            {
              "internalType": "uint8",
              "name": "numFields",
              "type": "uint8"
            },
            {
              "internalType": "uint8",
              "name": "costExponent",
              "type": "uint8"
            },
            {
              "internalType": "uint256",
              "name": "maxValue",
              "type": "uint256"
            },
            {
              "internalType": "uint256",
              "name": "minValue",
              "type": "uint256"
            },
            {
              "internalType": "uint256",
              "name": "maxValueSum",
              "type": "uint256"
            },
            {
              "internalType": "uint256",
              "name": "minValueSum",
              "type": "uint256"
            }
          ],
          "internalType": "struct IProcessRegistry.BallotMode",
          "name": "ballotMode",
          "type": "tuple"
        },
        {
          "components": [
            {
              "internalType": "enum IProcessRegistry.CensusOrigin",
              "name": "censusOrigin",
              "type": "uint8"
            },
            {
              "internalType": "uint256",
              "name": "maxVotes",
              "type": "uint256"
            },
            {
              "internalType": "bytes32",
              "name": "censusRoot",
              "type": "bytes32"
            },
            {
              "internalType": "string",
              "name": "censusURI",
              "type": "string"
            }
          ],
          "internalType": "struct IProcessRegistry.Census",
          "name": "census",
          "type": "tuple"
        },
        {
          "internalType": "string",
          "name": "metadata",
          "type": "string"
        },
        {
          "components": [
            {
              "internalType": "uint256",
              "name": "x",
              "type": "uint256"
            },
            {
              "internalType": "uint256",
              "name": "y",
              "type": "uint256"
            }
          ],
          "internalType": "struct IProcessRegistry.EncryptionKey",
          "name": "encryptionKey",
          "type": "tuple"
        },
        {
          "internalType": "uint256",
          "name": "initStateRoot",
          "type": "uint256"
        }
      ],
      "name": "newProcess",
      "outputs": [
        {
          "internalType": "bytes32",
          "name": "",
          "type": "bytes32"
        }
      ],
      "stateMutability": "nonpayable",
      "type": "function"
    },
    {
      "inputs": [],
      "name": "pidPrefix",
      "outputs": [
        {
          "internalType": "uint32",
          "name": "",
          "type": "uint32"
        }
      ],
      "stateMutability": "view",
      "type": "function"
    },
    {
      "inputs": [],
      "name": "processCount",
      "outputs": [
        {
          "internalType": "uint32",
          "name": "",
          "type": "uint32"
        }
      ],
      "stateMutability": "view",
      "type": "function"
    },
    {
      "inputs": [
        {
          "internalType": "address",
          "name": "",
          "type": "address"
        }
      ],
      "name": "processNonce",
      "outputs": [
        {
          "internalType": "uint64",
          "name": "",
          "type": "uint64"
        }
      ],
      "stateMutability": "view",
      "type": "function"
    },
    {
      "inputs": [
        {
          "internalType": "bytes32",
          "name": "",
          "type": "bytes32"
        }
      ],
      "name": "processes",
      "outputs": [
        {
          "internalType": "enum IProcessRegistry.ProcessStatus",
          "name": "status",
          "type": "uint8"
        },
        {
          "internalType": "address",
          "name": "organizationId",
          "type": "address"
        },
        {
          "components": [
            {
              "internalType": "uint256",
              "name": "x",
              "type": "uint256"
            },
            {
              "internalType": "uint256",
              "name": "y",
              "type": "uint256"
            }
          ],
          "internalType": "struct IProcessRegistry.EncryptionKey",
          "name": "encryptionKey",
          "type": "tuple"
        },
        {
          "internalType": "uint256",
          "name": "latestStateRoot",
          "type": "uint256"
        },
        {
          "internalType": "uint256",
          "name": "startTime",
          "type": "uint256"
        },
        {
          "internalType": "uint256",
          "name": "duration",
          "type": "uint256"
        },
        {
          "internalType": "uint256",
          "name": "voteCount",
          "type": "uint256"
        },
        {
          "internalType": "uint256",
          "name": "voteOverwriteCount",
          "type": "uint256"
        },
        {
          "internalType": "uint256",
          "name": "creationBlock",
          "type": "uint256"
        },
        {
          "internalType": "uint256",
          "name": "batchNumber",
          "type": "uint256"
        },
        {
          "internalType": "string",
          "name": "metadataURI",
          "type": "string"
        },
        {
          "components": [
            {
              "internalType": "bool",
              "name": "costFromWeight",
              "type": "bool"
            },
            {
              "internalType": "bool",
              "name": "uniqueValues",
              "type": "bool"
            },
            {
              "internalType": "uint8",
              "name": "numFields",
              "type": "uint8"
            },
            {
              "internalType": "uint8",
              "name": "costExponent",
              "type": "uint8"
            },
            {
              "internalType": "uint256",
              "name": "maxValue",
              "type": "uint256"
            },
            {
              "internalType": "uint256",
              "name": "minValue",
              "type": "uint256"
            },
            {
              "internalType": "uint256",
              "name": "maxValueSum",
              "type": "uint256"
            },
            {
              "internalType": "uint256",
              "name": "minValueSum",
              "type": "uint256"
            }
          ],
          "internalType": "struct IProcessRegistry.BallotMode",
          "name": "ballotMode",
          "type": "tuple"
        },
        {
          "components": [
            {
              "internalType": "enum IProcessRegistry.CensusOrigin",
              "name": "censusOrigin",
              "type": "uint8"
            },
            {
              "internalType": "uint256",
              "name": "maxVotes",
              "type": "uint256"
            },
            {
              "internalType": "bytes32",
              "name": "censusRoot",
              "type": "bytes32"
            },
            {
              "internalType": "string",
              "name": "censusURI",
              "type": "string"
            }
          ],
          "internalType": "struct IProcessRegistry.Census",
          "name": "census",
          "type": "tuple"
        }
      ],
      "stateMutability": "view",
      "type": "function"
    },
    {
      "inputs": [],
      "name": "rVerifier",
      "outputs": [
        {
          "internalType": "address",
          "name": "",
          "type": "address"
        }
      ],
      "stateMutability": "view",
      "type": "function"
    },
    {
      "inputs": [
        {
          "internalType": "bytes32",
          "name": "processId",
          "type": "bytes32"
        },
        {
          "components": [
            {
              "internalType": "enum IProcessRegistry.CensusOrigin",
              "name": "censusOrigin",
              "type": "uint8"
            },
            {
              "internalType": "uint256",
              "name": "maxVotes",
              "type": "uint256"
            },
            {
              "internalType": "bytes32",
              "name": "censusRoot",
              "type": "bytes32"
            },
            {
              "internalType": "string",
              "name": "censusURI",
              "type": "string"
            }
          ],
          "internalType": "struct IProcessRegistry.Census",
          "name": "census",
          "type": "tuple"
        }
      ],
      "name": "setProcessCensus",
      "outputs": [],
      "stateMutability": "nonpayable",
      "type": "function"
    },
    {
      "inputs": [
        {
          "internalType": "bytes32",
          "name": "processId",
          "type": "bytes32"
        },
        {
          "internalType": "uint256",
          "name": "_duration",
          "type": "uint256"
        }
      ],
      "name": "setProcessDuration",
      "outputs": [],
      "stateMutability": "nonpayable",
      "type": "function"
    },
    {
      "inputs": [
        {
          "internalType": "bytes32",
          "name": "processId",
          "type": "bytes32"
        },
        {
          "internalType": "bytes",
          "name": "proof",
          "type": "bytes"
        },
        {
          "internalType": "bytes",
          "name": "input",
          "type": "bytes"
        }
      ],
      "name": "setProcessResults",
      "outputs": [],
      "stateMutability": "nonpayable",
      "type": "function"
    },
    {
      "inputs": [
        {
          "internalType": "bytes32",
          "name": "processId",
          "type": "bytes32"
        },
        {
          "internalType": "enum IProcessRegistry.ProcessStatus",
          "name": "newStatus",
          "type": "uint8"
        }
      ],
      "name": "setProcessStatus",
      "outputs": [],
      "stateMutability": "nonpayable",
      "type": "function"
    },
    {
      "inputs": [],
      "name": "stVerifier",
      "outputs": [
        {
          "internalType": "address",
          "name": "",
          "type": "address"
        }
      ],
      "stateMutability": "view",
      "type": "function"
    },
    {
      "inputs": [
        {
          "internalType": "bytes32",
          "name": "processId",
          "type": "bytes32"
        },
        {
          "internalType": "bytes",
          "name": "proof",
          "type": "bytes"
        },
        {
          "internalType": "bytes",
          "name": "input",
          "type": "bytes"
        }
      ],
      "name": "submitStateTransition",
      "outputs": [],
      "stateMutability": "nonpayable",
      "type": "function"
    }
  ],
  "bytecode": "0x608060405234801561000f575f5ffd5b50604051612f65380380612f6583398101604081905261002e91610121565b60028054600380546001600160a01b0319166001600160a01b0385811691909117909155600160201b600160e01b0319909116680100000000000000009185169190910263ffffffff60201b19161764010000000063ffffffff8616021790556100de83306040805160e09390931b6001600160e01b03191660208085019190915260609290921b6001600160601b03191660248401528051601881850301815260389093019052815191012090565b600360146101000a81548163ffffffff021916908363ffffffff16021790555050505061016b565b80516001600160a01b038116811461011c575f5ffd5b919050565b5f5f5f60608486031215610133575f5ffd5b835163ffffffff81168114610146575f5ffd5b925061015460208501610106565b915061016260408501610106565b90509250925092565b612ded806101785f395ff3fe608060405234801561000f575f5ffd5b5060043610610132575f3560e01c806372c628ef116100b4578063a5f01e1911610079578063a5f01e19146102d1578063adc879e9146102e4578063c718c01f146102fc578063cddf08bc1461030f578063d71d072e14610326578063f9aa449914610339575f5ffd5b806372c628ef1461025e578063848df54014610266578063992bc45b1461028b5780639c18deaf146102ab578063a5b110de146102be575f5ffd5b80634c0acc56116100fa5780634c0acc56146101db57806356a6f1e2146101e357806362fa11fc146101f857806368141f2c146102385780636bae04ea1461024b575f5ffd5b806302cc919a146101365780630535fece14610155578063097063921461018157806326795bc3146101b35780633365133c146101ba575b5f5ffd5b61013e600981565b60405160ff90911681526020015b60405180910390f35b610168610163366004612174565b610341565b60405161014c9d9c9b9a9998979695949392919061228d565b60025461019b90600160401b90046001600160a01b031681565b6040516001600160a01b03909116815260200161014c565b61013e5f81565b6101cd6101c83660046123b5565b610588565b60405190815260200161014c565b6101cd61074b565b6101f66101f136600461247d565b6107c6565b005b6102206102063660046124a7565b60016020525f90815260409020546001600160401b031681565b6040516001600160401b03909116815260200161014c565b6101cd6102463660046124a7565b6109b2565b6101f66102593660046124cd565b610a0b565b61013e600481565b6002546102769063ffffffff1681565b60405163ffffffff909116815260200161014c565b61029e610299366004612174565b610caa565b60405161014c919061254a565b60035461019b906001600160a01b031681565b6101f66102cc36600461264c565b610fba565b6101cd6102df366004612174565b611298565b60025461027690640100000000900463ffffffff1681565b6101f661030a3660046126c3565b6115ba565b60035461027690600160a01b900463ffffffff1681565b6101f661033436600461264c565b61176c565b6101cd611a70565b5f60208181529181526040908190208054825180840190935260018201548352600282015493830193909352600381015460058201546006830154600784015460088501546009860154600a870154600b8801805460ff8c169b61010090046001600160a01b03169a9991906103b6906126e3565b80601f01602080910402602001604051908101604052809291908181526020018280546103e2906126e3565b801561042d5780601f106104045761010080835404028352916020019161042d565b820191905f5260205f20905b81548152906001019060200180831161041057829003601f168201915b5050604080516101008082018352600c88015460ff808216151584529181048216151560208401526201000081048216838501526301000000900481166060830152600d880154608080840191909152600e89015460a0840152600f89015460c0840152601089015460e084015283519081019093526011880180549798929792965092945091925083911660098111156104ca576104ca61218b565b60098111156104db576104db61218b565b81526020016001820154815260200160028201548152602001600382018054610503906126e3565b80601f016020809104026020016040519081016040528092919081815260200182805461052f906126e3565b801561057a5780601f106105515761010080835404028352916020019161057a565b820191905f5260205f20905b81548152906001019060200180831161055d57829003601f168201915b50505050508152505090508d565b600354335f818152600160205260408082205491936001600160401b03909216600160a01b909204901b63ffffffff60401b16606083901b17176105d181838e8e8e8e8e611ab7565b5f81815260208190526040902080548d90829060ff191660018360048111156105fc576105fc61218b565b0217905550600581018c9055600681018b90558054610100600160a81b0319166101006001600160a01b03851602178155853560018201556020860135600282015560038101859055600b8101610654888a83612775565b5089600c8201610664828261285b565b50899050601182016106768282612969565b50504360098201556002805463ffffffff16905f61069383612a11565b825463ffffffff9182166101009390930a9283029190920219909116179055506001600160a01b0383165f90815260016020526040812080546001600160401b0316916106df83612a35565b91906101000a8154816001600160401b0302191690836001600160401b0316021790555050826001600160a01b0316827fada6f87a2a16a0c9c169ca36754c5f33f7c1a973b575d068f888a549ed4faefa60405160405180910390a3509b9a5050505050505050505050565b5f600260089054906101000a90046001600160a01b03166001600160a01b031663233ace116040518163ffffffff1660e01b8152600401602060405180830381865afa15801561079d573d5f5f3e3d5ffd5b505050506040513d601f19601f820116820180604052508101906107c19190612a56565b905090565b816107e45760405163cbf4a64560e01b815260040160405180910390fd5b600354604083901c63ffffffff908116600160a01b909204161461081b57604051632299770d60e11b815260040160405180910390fd5b6004818181111561082e5761082e61218b565b60ff161115610850576040516307a92f1960e51b815260040160405180910390fd5b5f828152602081905260409020805461010090046001600160a01b031661088a57604051634d36eb6960e01b815260040160405180910390fd5b805461010090046001600160a01b031633146108b8576040516282b42960e81b815260040160405180910390fd5b805460ff166108c78184611d42565b6108e4576040516307a92f1960e51b815260040160405180910390fd5b81548390839060ff191660018360048111156109025761090261218b565b0217905550600183600481111561091b5761091b61218b565b03610972575f8260050154426109319190612a6d565b6006840181905560405181815290915085907f0f759826327c668a220d576485ac38ddc4f83fbc414b984c00e79f669b649f469060200160405180910390a2505b837f2f25f350b681441b5bb45430fbe61e78d0170cff4ad02cb0aa48a6427909aa8c82856040516109a4929190612a80565b60405180910390a250505050565b6003546001600160a01b0382165f908152600160205260408082205491926001600160401b03909216600160a01b909204901b63ffffffff60401b16606084901b6bffffffffffffffffffffffff191617175b92915050565b81610a295760405163cbf4a64560e01b815260040160405180910390fd5b600354604083901c63ffffffff908116600160a01b9092041614610a6057604051632299770d60e11b815260040160405180910390fd5b5f828152602081905260409020805461010090046001600160a01b0316610a9a57604051634d36eb6960e01b815260040160405180910390fd5b805461010090046001600160a01b03163314610ac8576040516282b42960e81b815260040160405180910390fd5b610ad56020830183612a9b565b6009811115610ae657610ae661218b565b601182015460ff166009811115610aff57610aff61218b565b14610b1d5760405163f37f7b5d60e01b815260040160405180910390fd5b601281015460208301351015610b4657604051634f9233a560e01b815260040160405180910390fd5b6040820135610b6857604051635e32eadd60e01b815260040160405180910390fd5b610b756060830183612927565b90505f03610b9657604051630f8b932160e11b815260040160405180910390fd5b5f815460ff166004811115610bad57610bad61218b565b14158015610bd157506003815460ff166004811115610bce57610bce61218b565b14155b15610bef576040516307a92f1960e51b815260040160405180910390fd5b4281600601548260050154610c049190612ab6565b11610c225760405163e843c5eb60e01b815260040160405180910390fd5b6020820135601282015560408201356013820155610c436060830183612927565b6014830191610c53919083612775565b50827f35947a8913e2156f19b018078c9f0667e49cb3dc24af3434a4d0b16b82675b1b6040840135610c886060860186612927565b8660200135604051610c9d9493929190612af1565b60405180910390a2505050565b610cb261202b565b5f828152602081905260409081902081516101c081019092528054829060ff166004811115610ce357610ce361218b565b6004811115610cf457610cf461218b565b8152815461010090046001600160a01b03166020808301919091526040805180820182526001850154815260028501548184015281840152600384015460608401526004840180548251818502810185019093528083526080909401939192909190830182828015610d8357602002820191905f5260205f20905b815481526020019060010190808311610d6f575b505050505081526020016005820154815260200160068201548152602001600782015481526020016008820154815260200160098201548152602001600a8201548152602001600b82018054610dd8906126e3565b80601f0160208091040260200160405190810160405280929190818152602001828054610e04906126e3565b8015610e4f5780601f10610e2657610100808354040283529160200191610e4f565b820191905f5260205f20905b815481529060010190602001808311610e3257829003601f168201915b5050509183525050604080516101008082018352600c85015460ff8082161515845291810482161515602084810191909152620100008204831684860152630100000090910482166060840152600d860154608080850191909152600e87015460a0850152600f87015460c0850152601087015460e08501529085019290925282519182018352601185018054939094019391928391166009811115610ef757610ef761218b565b6009811115610f0857610f0861218b565b81526020016001820154815260200160028201548152602001600382018054610f30906126e3565b80601f0160208091040260200160405190810160405280929190818152602001828054610f5c906126e3565b8015610fa75780601f10610f7e57610100808354040283529160200191610fa7565b820191905f5260205f20905b815481529060010190602001808311610f8a57829003601f168201915b5050509190925250505090525092915050565b84610fd85760405163cbf4a64560e01b815260040160405180910390fd5b600354604086901c63ffffffff908116600160a01b909204161461100f57604051632299770d60e11b815260040160405180910390fd5b5f858152602081905260409020805461010090046001600160a01b031661104957604051634d36eb6960e01b815260040160405180910390fd5b6001815460ff1660048111156110615761106161218b565b1461107f576040516307a92f1960e51b815260040160405180910390fd5b42816006015482600501546110949190612ab6565b11156110b35760405163e843c5eb60e01b815260040160405180910390fd5b600354604051635c73957b60e11b81526001600160a01b039091169063b8e72af6906110e9908890889088908890600401612b1b565b5f6040518083038186803b1580156110ff575f5ffd5b505afa158015611111573d5f5f3e3d5ffd5b505f925061112491505083850185612bb8565b600383015481519192501461114c57604051630b6fac0360e41b815260040160405180910390fd5b5f61115960016009612a6d565b6001600160401b0381111561117057611170612715565b604051908082528060200260200182016040528015611199578160200160208202803683370190505b50905060015b60098110156111ee578281600981106111ba576111ba612bd3565b6020020151826111cb600184612a6d565b815181106111db576111db612bd3565b602090810291909101015260010161119f565b50825460ff191660049081178455815161120f918501906020840190612117565b50877f2f25f350b681441b5bb45430fbe61e78d0170cff4ad02cb0aa48a6427909aa8c60016004604051611244929190612a80565b60405180910390a2336001600160a01b0316887f5da8009aeb11de7ef64598b0de897a03d2f93efabda8507a70e29cca4530cf5d836040516112869190612be7565b60405180910390a35050505050505050565b5f8181526020819052604080822081516101c08101909252805483929190829060ff1660048111156112cc576112cc61218b565b60048111156112dd576112dd61218b565b8152815461010090046001600160a01b0316602080830191909152604080518082018252600185015481526002850154818401528184015260038401546060840152600484018054825181850281018501909352808352608090940193919290919083018282801561136c57602002820191905f5260205f20905b815481526020019060010190808311611358575b505050505081526020016005820154815260200160068201548152602001600782015481526020016008820154815260200160098201548152602001600a8201548152602001600b820180546113c1906126e3565b80601f01602080910402602001604051908101604052809291908181526020018280546113ed906126e3565b80156114385780601f1061140f57610100808354040283529160200191611438565b820191905f5260205f20905b81548152906001019060200180831161141b57829003601f168201915b5050509183525050604080516101008082018352600c85015460ff8082161515845291810482161515602084810191909152620100008204831684860152630100000090910482166060840152600d860154608080850191909152600e87015460a0850152600f87015460c0850152601087015460e085015290850192909252825191820183526011850180549390940193919283911660098111156114e0576114e061218b565b60098111156114f1576114f161218b565b81526020016001820154815260200160028201548152602001600382018054611519906126e3565b80601f0160208091040260200160405190810160405280929190818152602001828054611545906126e3565b80156115905780601f1061156757610100808354040283529160200191611590565b820191905f5260205f20905b81548152906001019060200180831161157357829003601f168201915b5050505050815250508152505090508060c001518160a001516115b39190612ab6565b9392505050565b816115d85760405163cbf4a64560e01b815260040160405180910390fd5b600354604083901c63ffffffff908116600160a01b909204161461160f57604051632299770d60e11b815260040160405180910390fd5b5f828152602081905260409020805461010090046001600160a01b031661164957604051634d36eb6960e01b815260040160405180910390fd5b805461010090046001600160a01b03163314611677576040516282b42960e81b815260040160405180910390fd5b805460ff165f81600481111561168f5761168f61218b565b141580156116af575060038160048111156116ac576116ac61218b565b14155b156116cd576040516307a92f1960e51b815260040160405180910390fd5b600582015460068301548415806116ed5750426116ea8684612ab6565b11155b8061170a57506116fd8183612ab6565b6117078684612ab6565b11155b1561172857604051637616640160e01b815260040160405180910390fd5b6006840185905560405185815286907f0f759826327c668a220d576485ac38ddc4f83fbc414b984c00e79f669b649f469060200160405180910390a2505050505050565b8461178a5760405163cbf4a64560e01b815260040160405180910390fd5b600354604086901c63ffffffff908116600160a01b90920416146117c157604051632299770d60e11b815260040160405180910390fd5b5f858152602081905260409020805461010090046001600160a01b03166117fb57604051634d36eb6960e01b815260040160405180910390fd5b5f815460ff1660048111156118125761181261218b565b14611830576040516307a92f1960e51b815260040160405180910390fd5b42816006015482600501546118459190612ab6565b116118635760405163e843c5eb60e01b815260040160405180910390fd5b5f808061187285870187612cb2565b6003870154835193965091945092501461189f57604051630b6fac0360e41b815260040160405180910390fd5b5f6118a983611e60565b90505f4981146118cc57604051637ae4bd5f60e01b815260040160405180910390fd5b5f846004602002015190505f6001600160401b0380876008602002015116604082896007602002015116901b6080838a6006602002015116901b60c0848b6005602002015116901b17171791505f90506119298484848989611ed3565b905061193481611f7d565b61195157604051634776c3c760e01b815260040160405180910390fd5b600254604051635c73957b60e11b8152600160401b9091046001600160a01b03169063b8e72af69061198d908f908f908f908f90600401612b1b565b5f6040518083038186803b1580156119a3575f5ffd5b505afa1580156119b5573d5f5f3e3d5ffd5b50505050866001600981106119cc576119cc612bd3565b6020020151600389015560408701516007890180545f906119ee908490612ab6565b909155505060608701516008890180545f90611a0b908490612ab6565b9091555050600a88018054905f611a2183612d28565b909155505060208088015160405190815233918f917fdc9b2774f92abfeee93d8b2ef67d59cd90c2d6d740b01c24fd9ec109a71865fc910160405180910390a350505050505050505050505050565b6003546040805163233ace1160e01b815290515f926001600160a01b03169163233ace119160048083019260209291908290030181865afa15801561079d573d5f5f3e3d5ffd5b5f878152602081905260409020546001600160a01b038088166101009092041603611af557604051635040c4d360e11b815260040160405180910390fd5b611b056060830160408401612d40565b60ff161580611b2657506008611b216060840160408501612d40565b60ff16115b15611b445760405163ac38930b60e01b815260040160405180910390fd5b61ffff8260c001351115611b6b57604051634dba795160e01b815260040160405180910390fd5b81608001358260a001351115611b945760405163207ea56d60e01b815260040160405180910390fd5b8160c001358260e001351115611bbd57604051636d403ec760e11b815260040160405180910390fd5b6009611bcc6020830183612a9b565b6009811115611bdd57611bdd61218b565b60ff161115611bff5760405163f37f7b5d60e01b815260040160405180910390fd5b80602001355f03611c2357604051634f9233a560e01b815260040160405180910390fd5b6040810135611c4557604051635e32eadd60e01b815260040160405180910390fd5b611c526060820182612927565b90505f03611c7357604051630f8b932160e11b815260040160405180910390fd5b60048581811115611c8657611c8661218b565b60ff161180611cc357505f856004811115611ca357611ca361218b565b14158015611cc357506003856004811115611cc057611cc061218b565b14155b15611ce1576040516307a92f1960e51b815260040160405180910390fd5b425f859003611cee578094505b80851015611d0f57604051632ca4094f60e21b815260040160405180910390fd5b80611d1a8587612ab6565b11611d3857604051637616640160e01b815260040160405180910390fd5b5050505050505050565b5f826004811115611d5557611d5561218b565b826004811115611d6757611d6761218b565b03611d7357505f610a05565b6002836004811115611d8757611d8761218b565b1480611da457506004836004811115611da257611da261218b565b145b80611dc057506001836004811115611dbe57611dbe61218b565b145b15611dcc57505f610a05565b5f836004811115611ddf57611ddf61218b565b03611e395760035b826004811115611df957611df961218b565b1480611e1657506002826004811115611e1457611e1461218b565b145b80611e3257506001826004811115611e3057611e3061218b565b145b9050610a05565b6003836004811115611e4d57611e4d61218b565b03611e58575f611de7565b505f92915050565b5f81515f03611e7057505f919050565b600282604051611e809190612d72565b602060405180830381855afa158015611e9b573d5f5f3e3d5ffd5b5050506040513d601f19601f82011682018060405250810190611ebe9190612a56565b6001600160f81b0316600160f81b1792915050565b606060308351141580611ee857506030825114155b15611f395760405162461bcd60e51b815260206004820152601760248201527f4b5a47496e7075743a20626164204731206c656e677468000000000000000000604482015260640160405180910390fd5b8585858585604051602001611f52959493929190612d7d565b604051602081830303815290604052905060c0815114611f7457611f74612da3565b95945050505050565b5f60c0825114611f8e57505f919050565b5f5f600a6001600160a01b031684604051611fa99190612d72565b5f60405180830381855afa9150503d805f8114611fe1576040519150601f19603f3d011682016040523d82523d5f602084013e611fe6565b606091505b5091509150811580611ffa57506040815114155b1561200857505f9392505050565b6020810151611000811461202057505f949350505050565b506001949350505050565b604080516101c08101909152805f81526020015f6001600160a01b0316815260200161206860405180604001604052805f81526020015f81525090565b81526020015f8152602001606081526020015f81526020015f81526020015f81526020015f81526020015f81526020015f8152602001606081526020016120ef6040518061010001604052805f151581526020015f151581526020015f60ff1681526020015f60ff1681526020015f81526020015f81526020015f81526020015f81525090565b8152604080516080810182525f80825260208281018290529282015260608082015291015290565b828054828255905f5260205f20908101928215612150579160200282015b82811115612150578251825591602001919060010190612135565b5061215c929150612160565b5090565b5b8082111561215c575f8155600101612161565b5f60208284031215612184575f5ffd5b5035919050565b634e487b7160e01b5f52602160045260245ffd5b600581106121af576121af61218b565b9052565b5f81518084528060208401602086015e5f602082860101526020601f19601f83011685010191505092915050565b80511515825260208101511515602083015260ff60408201511660408301526060810151612214606084018260ff169052565b506080810151608083015260a081015160a083015260c081015160c083015260e081015160e08301525050565b5f8151600a81106122545761225461218b565b80845250602082015160208401526040820151604084015260608201516080606085015261228560808501826121b3565b949350505050565b612297818f61219f565b6001600160a01b038d1660208201526122bd604082018d80518252602090810151910152565b8a60808201528960a08201528860c08201528760e08201528661010082015285610120820152846101408201526102a06101608201525f6123026102a08301866121b3565b6123106101808401866121e1565b8281036102808401526123238185612241565b9150509e9d5050505050505050505050505050565b803560058110612346575f5ffd5b919050565b5f6080828403121561235b575f5ffd5b50919050565b5f5f83601f840112612371575f5ffd5b5081356001600160401b03811115612387575f5ffd5b60208301915083602082850101111561239e575f5ffd5b9250929050565b5f6040828403121561235b575f5ffd5b5f5f5f5f5f5f5f5f5f898b036102008112156123cf575f5ffd5b6123d88b612338565b995060208b0135985060408b01359750610100605f19820112156123fa575f5ffd5b5060608a0195506101608a01356001600160401b0381111561241a575f5ffd5b6124268c828d0161234b565b9550506101808a01356001600160401b03811115612442575f5ffd5b61244e8c828d01612361565b909550935061246390508b6101a08c016123a5565b989b979a5095989497939692955090936101e00135919050565b5f5f6040838503121561248e575f5ffd5b8235915061249e60208401612338565b90509250929050565b5f602082840312156124b7575f5ffd5b81356001600160a01b03811681146115b3575f5ffd5b5f5f604083850312156124de575f5ffd5b8235915060208301356001600160401b038111156124fa575f5ffd5b6125068582860161234b565b9150509250929050565b5f8151808452602084019350602083015f5b82811015612540578151865260209586019590910190600101612522565b5093949350505050565b6020815261255c60208201835161219f565b5f602083015161257760408401826001600160a01b03169052565b506040830151805160608401526020810151608084015250606083015160a083015260808301516102c060c08401526125b46102e0840182612510565b905060a084015160e084015260c084015161010084015260e0840151610120840152610100840151610140840152610120840151610160840152610140840151610180840152610160840151601f19848303016101a085015261261782826121b3565b91505061018084015161262e6101c08501826121e1565b506101a0840151838203601f19016102c0850152611f748282612241565b5f5f5f5f5f60608688031215612660575f5ffd5b8535945060208601356001600160401b0381111561267c575f5ffd5b61268888828901612361565b90955093505060408601356001600160401b038111156126a6575f5ffd5b6126b288828901612361565b969995985093965092949392505050565b5f5f604083850312156126d4575f5ffd5b50508035926020909101359150565b600181811c908216806126f757607f821691505b60208210810361235b57634e487b7160e01b5f52602260045260245ffd5b634e487b7160e01b5f52604160045260245ffd5b601f82111561277057805f5260205f20601f840160051c8101602085101561274e5750805b601f840160051c820191505b8181101561276d575f815560010161275a565b50505b505050565b6001600160401b0383111561278c5761278c612715565b6127a08361279a83546126e3565b83612729565b5f601f8411600181146127d1575f85156127ba5750838201355b5f19600387901b1c1916600186901b17835561276d565b5f83815260208120601f198716915b8281101561280057868501358255602094850194600190920191016127e0565b508682101561281c575f1960f88860031b161c19848701351681555b505060018560011b0183555050505050565b5f81358015158114610a05575f5ffd5b60ff8116811461284c575f5ffd5b50565b5f8135610a058161283e565b6128648261282e565b151560ff1982541660ff821681178355505061289f6128856020840161282e565b82805461ff00191691151560081b61ff0016919091179055565b6128c66128ae6040840161284f565b825462ff0000191660109190911b62ff000016178255565b6128ef6128d56060840161284f565b825463ff000000191660189190911b63ff00000016178255565b6080820135600182015560a0820135600282015560c0820135600382015560e090910135600490910155565b600a811061284c575f5ffd5b5f5f8335601e1984360301811261293c575f5ffd5b8301803591506001600160401b03821115612955575f5ffd5b60200191503681900382131561239e575f5ffd5b81356129748161291b565b600a81106129845761298461218b565b815460ff191660ff9190911617815560208201356001820155604082013560028201556060820135601e19368490030181126129be575f5ffd5b820180356001600160401b038111156129d5575f5ffd5b6020820191508036038213156129e9575f5ffd5b6129f7818360038601612775565b50505050565b634e487b7160e01b5f52601160045260245ffd5b5f63ffffffff821663ffffffff8103612a2c57612a2c6129fd565b60010192915050565b5f6001600160401b0382166001600160401b038103612a2c57612a2c6129fd565b5f60208284031215612a66575f5ffd5b5051919050565b81810381811115610a0557610a056129fd565b60408101612a8e828561219f565b6115b3602083018461219f565b5f60208284031215612aab575f5ffd5b81356115b38161291b565b80820180821115610a0557610a056129fd565b81835281816020850137505f828201602090810191909152601f909101601f19169091010190565b848152606060208201525f612b0a606083018587612ac9565b905082604083015295945050505050565b604081525f612b2e604083018688612ac9565b8281036020840152612b41818587612ac9565b979650505050505050565b5f82601f830112612b5b575f5ffd5b60405161012081016001600160401b0381118282101715612b7e57612b7e612715565b60405280610120840185811115612b93575f5ffd5b845b81811015612bad578035835260209283019201612b95565b509195945050505050565b5f6101208284031215612bc9575f5ffd5b6115b38383612b4c565b634e487b7160e01b5f52603260045260245ffd5b602080825282518282018190525f918401906040840190835b81811015612c1e578351835260209384019390920191600101612c00565b509095945050505050565b5f82601f830112612c38575f5ffd5b81356001600160401b03811115612c5157612c51612715565b604051601f8201601f19908116603f011681016001600160401b0381118282101715612c7f57612c7f612715565b604052818152838201602001851015612c96575f5ffd5b816020850160208301375f918101602001919091529392505050565b5f5f5f6101608486031215612cc5575f5ffd5b612ccf8585612b4c565b92506101208401356001600160401b03811115612cea575f5ffd5b612cf686828701612c29565b9250506101408401356001600160401b03811115612d12575f5ffd5b612d1e86828701612c29565b9150509250925092565b5f60018201612d3957612d396129fd565b5060010190565b5f60208284031215612d50575f5ffd5b81356115b38161283e565b5f81518060208401855e5f93019283525090919050565b5f6115b38284612d5b565b8581528460208201528360408201525f612b41612d9d6060840186612d5b565b84612d5b565b634e487b7160e01b5f52600160045260245ffdfea264697066735822122035d56c50167adee9c1b26ecd9f8385eb390fcc0c8031a7bac3456b7c983c782464736f6c634300081c0033",
  "linkReferences": {},
  "deployedLinkReferences": {}
}