{
  "_format": "hh-sol-artifact-1",
  "contractName": "ProcessRegistry",
  "sourceName": "src/ProcessRegistry.sol",
  "abi": [
    {
      "inputs": [
        {
          "internalType": "uint32",
          "name": "_chainID",
          "type": "uint32"
        },
        {
          "internalType": "address",
          "name": "_stVerifier",
          "type": "address"
        },
        {
          "internalType": "address",
          "name": "_rVerifier",
          "type": "address"
        }
      ],
      "stateMutability": "nonpayable",
      "type": "constructor"
    },
    {
      "inputs": [],
      "name": "BlobVerificationFailed",
      "type": "error"
    },
    {
      "inputs": [],
      "name": "CannotAcceptResult",
      "type": "error"
    },
    {
      "inputs": [],
      "name": "InvalidBlobHash",
      "type": "error"
    },
    {
      "inputs": [],
      "name": "InvalidCensusOrigin",
      "type": "error"
    },
    {
      "inputs": [],
      "name": "InvalidCensusRoot",
      "type": "error"
    },
    {
      "inputs": [],
      "name": "InvalidCensusURI",
      "type": "error"
    },
    {
      "inputs": [],
      "name": "InvalidDuration",
      "type": "error"
    },
    {
      "inputs": [],
      "name": "InvalidMaxCount",
      "type": "error"
    },
    {
      "inputs": [],
      "name": "InvalidMaxMinValueBounds",
      "type": "error"
    },
    {
      "inputs": [],
      "name": "InvalidMaxValue",
      "type": "error"
    },
    {
      "inputs": [],
      "name": "InvalidMaxValueSum",
      "type": "error"
    },
    {
      "inputs": [],
      "name": "InvalidMaxVotes",
      "type": "error"
    },
    {
      "inputs": [],
      "name": "InvalidMinTotalCost",
      "type": "error"
    },
    {
      "inputs": [],
      "name": "InvalidMinValue",
      "type": "error"
    },
    {
      "inputs": [],
      "name": "InvalidProcessId",
      "type": "error"
    },
    {
      "inputs": [],
      "name": "InvalidStartTime",
      "type": "error"
    },
    {
      "inputs": [],
      "name": "InvalidStateRoot",
      "type": "error"
    },
    {
      "inputs": [],
      "name": "InvalidStatus",
      "type": "error"
    },
    {
      "inputs": [],
      "name": "InvalidTimeBounds",
      "type": "error"
    },
    {
      "inputs": [],
      "name": "InvalidUniqueValues",
      "type": "error"
    },
    {
      "inputs": [],
      "name": "InvalidValueSumBounds",
      "type": "error"
    },
    {
      "inputs": [],
      "name": "ProcessAlreadyExists",
      "type": "error"
    },
    {
      "inputs": [],
      "name": "ProcessNotEnded",
      "type": "error"
    },
    {
      "inputs": [],
      "name": "ProcessNotFound",
      "type": "error"
    },
    {
      "inputs": [],
      "name": "ProofInvalid",
      "type": "error"
    },
    {
      "inputs": [],
      "name": "Unauthorized",
      "type": "error"
    },
    {
      "anonymous": false,
      "inputs": [
        {
          "indexed": true,
          "internalType": "bytes32",
          "name": "processId",
          "type": "bytes32"
        },
        {
          "indexed": false,
          "internalType": "bytes32",
          "name": "censusRoot",
          "type": "bytes32"
        },
        {
          "indexed": false,
          "internalType": "string",
          "name": "censusURI",
          "type": "string"
        },
        {
          "indexed": false,
          "internalType": "uint256",
          "name": "maxVotes",
          "type": "uint256"
        }
      ],
      "name": "CensusUpdated",
      "type": "event"
    },
    {
      "anonymous": false,
      "inputs": [
        {
          "indexed": true,
          "internalType": "bytes32",
          "name": "processId",
          "type": "bytes32"
        },
        {
          "indexed": true,
          "internalType": "address",
          "name": "creator",
          "type": "address"
        }
      ],
      "name": "ProcessCreated",
      "type": "event"
    },
    {
      "anonymous": false,
      "inputs": [
        {
          "indexed": true,
          "internalType": "bytes32",
          "name": "processId",
          "type": "bytes32"
        },
        {
          "indexed": false,
          "internalType": "uint256",
          "name": "duration",
          "type": "uint256"
        }
      ],
      "name": "ProcessDurationChanged",
      "type": "event"
    },
    {
      "anonymous": false,
      "inputs": [
        {
          "indexed": true,
          "internalType": "bytes32",
          "name": "processId",
          "type": "bytes32"
        },
        {
          "indexed": true,
          "internalType": "address",
          "name": "sender",
          "type": "address"
        },
        {
          "indexed": false,
          "internalType": "uint256[]",
          "name": "result",
          "type": "uint256[]"
        }
      ],
      "name": "ProcessResultsSet",
      "type": "event"
    },
    {
      "anonymous": false,
      "inputs": [
        {
          "indexed": true,
          "internalType": "bytes32",
          "name": "processId",
          "type": "bytes32"
        },
        {
          "indexed": true,
          "internalType": "address",
          "name": "sender",
          "type": "address"
        },
        {
          "indexed": false,
          "internalType": "uint256",
          "name": "newStateRoot",
          "type": "uint256"
        }
      ],
      "name": "ProcessStateRootUpdated",
      "type": "event"
    },
    {
      "anonymous": false,
      "inputs": [
        {
          "indexed": true,
          "internalType": "bytes32",
          "name": "processId",
          "type": "bytes32"
        },
        {
          "indexed": false,
          "internalType": "enum IProcessRegistry.ProcessStatus",
          "name": "oldStatus",
          "type": "uint8"
        },
        {
          "indexed": false,
          "internalType": "enum IProcessRegistry.ProcessStatus",
          "name": "newStatus",
          "type": "uint8"
        }
      ],
      "name": "ProcessStatusChanged",
      "type": "event"
    },
    {
      "inputs": [],
      "name": "BLOB_INDEX",
      "outputs": [
        {
          "internalType": "uint8",
          "name": "",
          "type": "uint8"
        }
      ],
      "stateMutability": "view",
      "type": "function"
    },
    {
      "inputs": [],
      "name": "MAX_CENSUS_ORIGIN",
      "outputs": [
        {
          "internalType": "uint8",
          "name": "",
          "type": "uint8"
        }
      ],
      "stateMutability": "view",
      "type": "function"
    },
    {
      "inputs": [],
      "name": "MAX_STATUS",
      "outputs": [
        {
          "internalType": "uint8",
          "name": "",
          "type": "uint8"
        }
      ],
      "stateMutability": "view",
      "type": "function"
    },
    {
      "inputs": [],
      "name": "chainID",
      "outputs": [
        {
          "internalType": "uint32",
          "name": "",
          "type": "uint32"
        }
      ],
      "stateMutability": "view",
      "type": "function"
    },
    {
      "inputs": [
        {
          "internalType": "address",
          "name": "organizationId",
          "type": "address"
        }
      ],
      "name": "getNextProcessId",
      "outputs": [
        {
          "internalType": "bytes32",
          "name": "",
          "type": "bytes32"
        }
      ],
      "stateMutability": "view",
      "type": "function"
    },
    {
      "inputs": [
        {
          "internalType": "bytes32",
          "name": "processId",
          "type": "bytes32"
        }
      ],
      "name": "getProcess",
      "outputs": [
        {
          "components": [
            {
              "internalType": "enum IProcessRegistry.ProcessStatus",
              "name": "status",
              "type": "uint8"
            },
            {
              "internalType": "address",
              "name": "organizationId",
              "type": "address"
            },
            {
              "components": [
                {
                  "internalType": "uint256",
                  "name": "x",
                  "type": "uint256"
                },
                {
                  "internalType": "uint256",
                  "name": "y",
                  "type": "uint256"
                }
              ],
              "internalType": "struct IProcessRegistry.EncryptionKey",
              "name": "encryptionKey",
              "type": "tuple"
            },
            {
              "internalType": "uint256",
              "name": "latestStateRoot",
              "type": "uint256"
            },
            {
              "internalType": "uint256[]",
              "name": "result",
              "type": "uint256[]"
            },
            {
              "internalType": "uint256",
              "name": "startTime",
              "type": "uint256"
            },
            {
              "internalType": "uint256",
              "name": "duration",
              "type": "uint256"
            },
            {
              "internalType": "uint256",
              "name": "voteCount",
              "type": "uint256"
            },
            {
              "internalType": "uint256",
              "name": "voteOverwriteCount",
              "type": "uint256"
            },
            {
              "internalType": "uint256",
              "name": "creationBlock",
              "type": "uint256"
            },
            {
              "internalType": "uint256",
              "name": "batchNumber",
              "type": "uint256"
            },
            {
              "internalType": "string",
              "name": "metadataURI",
              "type": "string"
            },
            {
              "components": [
                {
                  "internalType": "bool",
                  "name": "costFromWeight",
                  "type": "bool"
                },
                {
                  "internalType": "bool",
                  "name": "uniqueValues",
                  "type": "bool"
                },
                {
                  "internalType": "uint8",
                  "name": "numFields",
                  "type": "uint8"
                },
                {
                  "internalType": "uint8",
                  "name": "costExponent",
                  "type": "uint8"
                },
                {
                  "internalType": "uint256",
                  "name": "maxValue",
                  "type": "uint256"
                },
                {
                  "internalType": "uint256",
                  "name": "minValue",
                  "type": "uint256"
                },
                {
                  "internalType": "uint256",
                  "name": "maxValueSum",
                  "type": "uint256"
                },
                {
                  "internalType": "uint256",
                  "name": "minValueSum",
                  "type": "uint256"
                }
              ],
              "internalType": "struct IProcessRegistry.BallotMode",
              "name": "ballotMode",
              "type": "tuple"
            },
            {
              "components": [
                {
                  "internalType": "enum IProcessRegistry.CensusOrigin",
                  "name": "censusOrigin",
                  "type": "uint8"
                },
                {
                  "internalType": "uint256",
                  "name": "maxVotes",
                  "type": "uint256"
                },
                {
                  "internalType": "bytes32",
                  "name": "censusRoot",
                  "type": "bytes32"
                },
                {
                  "internalType": "string",
                  "name": "censusURI",
                  "type": "string"
                }
              ],
              "internalType": "struct IProcessRegistry.Census",
              "name": "census",
              "type": "tuple"
            }
          ],
          "internalType": "struct IProcessRegistry.Process",
          "name": "",
          "type": "tuple"
        }
      ],
      "stateMutability": "view",
      "type": "function"
    },
    {
      "inputs": [
        {
          "internalType": "bytes32",
          "name": "processId",
          "type": "bytes32"
        }
      ],
      "name": "getProcessEndTime",
      "outputs": [
        {
          "internalType": "uint256",
          "name": "",
          "type": "uint256"
        }
      ],
      "stateMutability": "view",
      "type": "function"
    },
    {
      "inputs": [],
      "name": "getRVerifierVKeyHash",
      "outputs": [
        {
          "internalType": "bytes32",
          "name": "",
          "type": "bytes32"
        }
      ],
      "stateMutability": "view",
      "type": "function"
    },
    {
      "inputs": [],
      "name": "getSTVerifierVKeyHash",
      "outputs": [
        {
          "internalType": "bytes32",
          "name": "",
          "type": "bytes32"
        }
      ],
      "stateMutability": "view",
      "type": "function"
    },
    {
      "inputs": [
        {
          "internalType": "enum IProcessRegistry.ProcessStatus",
          "name": "status",
          "type": "uint8"
        },
        {
          "internalType": "uint256",
          "name": "startTime",
          "type": "uint256"
        },
        {
          "internalType": "uint256",
          "name": "duration",
          "type": "uint256"
        },
        {
          "components": [
            {
              "internalType": "bool",
              "name": "costFromWeight",
              "type": "bool"
            },
            {
              "internalType": "bool",
              "name": "uniqueValues",
              "type": "bool"
            },
            {
              "internalType": "uint8",
              "name": "numFields",
              "type": "uint8"
            },
            {
              "internalType": "uint8",
              "name": "costExponent",
              "type": "uint8"
            },
            {
              "internalType": "uint256",
              "name": "maxValue",
              "type": "uint256"
            },
            {
              "internalType": "uint256",
              "name": "minValue",
              "type": "uint256"
            },
            {
              "internalType": "uint256",
              "name": "maxValueSum",
              "type": "uint256"
            },
            {
              "internalType": "uint256",
              "name": "minValueSum",
              "type": "uint256"
            }
          ],
          "internalType": "struct IProcessRegistry.BallotMode",
          "name": "ballotMode",
          "type": "tuple"
        },
        {
          "components": [
            {
              "internalType": "enum IProcessRegistry.CensusOrigin",
              "name": "censusOrigin",
              "type": "uint8"
            },
            {
              "internalType": "uint256",
              "name": "maxVotes",
              "type": "uint256"
            },
            {
              "internalType": "bytes32",
              "name": "censusRoot",
              "type": "bytes32"
            },
            {
              "internalType": "string",
              "name": "censusURI",
              "type": "string"
            }
          ],
          "internalType": "struct IProcessRegistry.Census",
          "name": "census",
          "type": "tuple"
        },
        {
          "internalType": "string",
          "name": "metadata",
          "type": "string"
        },
        {
          "components": [
            {
              "internalType": "uint256",
              "name": "x",
              "type": "uint256"
            },
            {
              "internalType": "uint256",
              "name": "y",
              "type": "uint256"
            }
          ],
          "internalType": "struct IProcessRegistry.EncryptionKey",
          "name": "encryptionKey",
          "type": "tuple"
        },
        {
          "internalType": "uint256",
          "name": "initStateRoot",
          "type": "uint256"
        }
      ],
      "name": "newProcess",
      "outputs": [
        {
          "internalType": "bytes32",
          "name": "",
          "type": "bytes32"
        }
      ],
      "stateMutability": "nonpayable",
      "type": "function"
    },
    {
      "inputs": [],
      "name": "processCount",
      "outputs": [
        {
          "internalType": "uint32",
          "name": "",
          "type": "uint32"
        }
      ],
      "stateMutability": "view",
      "type": "function"
    },
    {
      "inputs": [
        {
          "internalType": "address",
          "name": "",
          "type": "address"
        }
      ],
      "name": "processNonce",
      "outputs": [
        {
          "internalType": "uint64",
          "name": "",
          "type": "uint64"
        }
      ],
      "stateMutability": "view",
      "type": "function"
    },
    {
      "inputs": [
        {
          "internalType": "bytes32",
          "name": "",
          "type": "bytes32"
        }
      ],
      "name": "processes",
      "outputs": [
        {
          "internalType": "enum IProcessRegistry.ProcessStatus",
          "name": "status",
          "type": "uint8"
        },
        {
          "internalType": "address",
          "name": "organizationId",
          "type": "address"
        },
        {
          "components": [
            {
              "internalType": "uint256",
              "name": "x",
              "type": "uint256"
            },
            {
              "internalType": "uint256",
              "name": "y",
              "type": "uint256"
            }
          ],
          "internalType": "struct IProcessRegistry.EncryptionKey",
          "name": "encryptionKey",
          "type": "tuple"
        },
        {
          "internalType": "uint256",
          "name": "latestStateRoot",
          "type": "uint256"
        },
        {
          "internalType": "uint256",
          "name": "startTime",
          "type": "uint256"
        },
        {
          "internalType": "uint256",
          "name": "duration",
          "type": "uint256"
        },
        {
          "internalType": "uint256",
          "name": "voteCount",
          "type": "uint256"
        },
        {
          "internalType": "uint256",
          "name": "voteOverwriteCount",
          "type": "uint256"
        },
        {
          "internalType": "uint256",
          "name": "creationBlock",
          "type": "uint256"
        },
        {
          "internalType": "uint256",
          "name": "batchNumber",
          "type": "uint256"
        },
        {
          "internalType": "string",
          "name": "metadataURI",
          "type": "string"
        },
        {
          "components": [
            {
              "internalType": "bool",
              "name": "costFromWeight",
              "type": "bool"
            },
            {
              "internalType": "bool",
              "name": "uniqueValues",
              "type": "bool"
            },
            {
              "internalType": "uint8",
              "name": "numFields",
              "type": "uint8"
            },
            {
              "internalType": "uint8",
              "name": "costExponent",
              "type": "uint8"
            },
            {
              "internalType": "uint256",
              "name": "maxValue",
              "type": "uint256"
            },
            {
              "internalType": "uint256",
              "name": "minValue",
              "type": "uint256"
            },
            {
              "internalType": "uint256",
              "name": "maxValueSum",
              "type": "uint256"
            },
            {
              "internalType": "uint256",
              "name": "minValueSum",
              "type": "uint256"
            }
          ],
          "internalType": "struct IProcessRegistry.BallotMode",
          "name": "ballotMode",
          "type": "tuple"
        },
        {
          "components": [
            {
              "internalType": "enum IProcessRegistry.CensusOrigin",
              "name": "censusOrigin",
              "type": "uint8"
            },
            {
              "internalType": "uint256",
              "name": "maxVotes",
              "type": "uint256"
            },
            {
              "internalType": "bytes32",
              "name": "censusRoot",
              "type": "bytes32"
            },
            {
              "internalType": "string",
              "name": "censusURI",
              "type": "string"
            }
          ],
          "internalType": "struct IProcessRegistry.Census",
          "name": "census",
          "type": "tuple"
        }
      ],
      "stateMutability": "view",
      "type": "function"
    },
    {
      "inputs": [],
      "name": "rVerifier",
      "outputs": [
        {
          "internalType": "address",
          "name": "",
          "type": "address"
        }
      ],
      "stateMutability": "view",
      "type": "function"
    },
    {
      "inputs": [
        {
          "internalType": "bytes32",
          "name": "processId",
          "type": "bytes32"
        },
        {
          "components": [
            {
              "internalType": "enum IProcessRegistry.CensusOrigin",
              "name": "censusOrigin",
              "type": "uint8"
            },
            {
              "internalType": "uint256",
              "name": "maxVotes",
              "type": "uint256"
            },
            {
              "internalType": "bytes32",
              "name": "censusRoot",
              "type": "bytes32"
            },
            {
              "internalType": "string",
              "name": "censusURI",
              "type": "string"
            }
          ],
          "internalType": "struct IProcessRegistry.Census",
          "name": "census",
          "type": "tuple"
        }
      ],
      "name": "setProcessCensus",
      "outputs": [],
      "stateMutability": "nonpayable",
      "type": "function"
    },
    {
      "inputs": [
        {
          "internalType": "bytes32",
          "name": "processId",
          "type": "bytes32"
        },
        {
          "internalType": "uint256",
          "name": "_duration",
          "type": "uint256"
        }
      ],
      "name": "setProcessDuration",
      "outputs": [],
      "stateMutability": "nonpayable",
      "type": "function"
    },
    {
      "inputs": [
        {
          "internalType": "bytes32",
          "name": "processId",
          "type": "bytes32"
        },
        {
          "internalType": "bytes",
          "name": "proof",
          "type": "bytes"
        },
        {
          "internalType": "bytes",
          "name": "input",
          "type": "bytes"
        }
      ],
      "name": "setProcessResults",
      "outputs": [],
      "stateMutability": "nonpayable",
      "type": "function"
    },
    {
      "inputs": [
        {
          "internalType": "bytes32",
          "name": "processId",
          "type": "bytes32"
        },
        {
          "internalType": "enum IProcessRegistry.ProcessStatus",
          "name": "newStatus",
          "type": "uint8"
        }
      ],
      "name": "setProcessStatus",
      "outputs": [],
      "stateMutability": "nonpayable",
      "type": "function"
    },
    {
      "inputs": [],
      "name": "stVerifier",
      "outputs": [
        {
          "internalType": "address",
          "name": "",
          "type": "address"
        }
      ],
      "stateMutability": "view",
      "type": "function"
    },
    {
      "inputs": [
        {
          "internalType": "bytes32",
          "name": "processId",
          "type": "bytes32"
        },
        {
          "internalType": "bytes",
          "name": "proof",
          "type": "bytes"
        },
        {
          "internalType": "bytes",
          "name": "input",
          "type": "bytes"
        }
      ],
      "name": "submitStateTransition",
      "outputs": [],
      "stateMutability": "nonpayable",
      "type": "function"
    }
  ],
  "bytecode": "0x608060405234801561000f575f5ffd5b50604051612cac380380612cac83398101604081905261002e916100b1565b60028054600380546001600160a01b039485166001600160a01b031990911617905563ffffffff9094166401000000000263ffffffff60201b1992909316680100000000000000000291909116600160201b600160e01b0319909316929092171790556100fb565b80516001600160a01b03811681146100ac575f5ffd5b919050565b5f5f5f606084860312156100c3575f5ffd5b835163ffffffff811681146100d6575f5ffd5b92506100e460208501610096565b91506100f260408501610096565b90509250925092565b612ba4806101085f395ff3fe608060405234801561000f575f5ffd5b5060043610610127575f3560e01c806372c628ef116100a9578063a5f01e191161006e578063a5f01e19146102c6578063adc879e9146102d9578063c718c01f146102f1578063d71d072e14610304578063f9aa449914610317575f5ffd5b806372c628ef14610253578063848df5401461025b578063992bc45b146102805780639c18deaf146102a0578063a5b110de146102b3575f5ffd5b80634c0acc56116100ef5780634c0acc56146101d057806356a6f1e2146101d857806362fa11fc146101ed57806368141f2c1461022d5780636bae04ea14610240575f5ffd5b806302cc919a1461012b5780630535fece1461014a578063097063921461017657806326795bc3146101a85780633365133c146101af575b5f5ffd5b610133600981565b60405160ff90911681526020015b60405180910390f35b61015d610158366004612035565b61031f565b6040516101419d9c9b9a9998979695949392919061214e565b60025461019090600160401b90046001600160a01b031681565b6040516001600160a01b039091168152602001610141565b6101335f81565b6101c26101bd366004612276565b610566565b604051908152602001610141565b6101c261072a565b6101eb6101e636600461233e565b6107a5565b005b6102156101fb366004612368565b60016020525f90815260409020546001600160401b031681565b6040516001600160401b039091168152602001610141565b6101c261023b366004612368565b61095a565b6101eb61024e36600461238e565b6109a1565b610133600481565b60025461026b9063ffffffff1681565b60405163ffffffff9091168152602001610141565b61029361028e366004612035565b610c09565b604051610141919061240b565b600354610190906001600160a01b031681565b6101eb6102c136600461250d565b610f19565b6101c26102d4366004612035565b6111c0565b60025461026b90640100000000900463ffffffff1681565b6101eb6102ff366004612584565b6114e2565b6101eb61031236600461250d565b61165d565b6101c2611914565b5f60208181529181526040908190208054825180840190935260018201548352600282015493830193909352600381015460058201546006830154600784015460088501546009860154600a870154600b8801805460ff8c169b61010090046001600160a01b03169a999190610394906125a4565b80601f01602080910402602001604051908101604052809291908181526020018280546103c0906125a4565b801561040b5780601f106103e25761010080835404028352916020019161040b565b820191905f5260205f20905b8154815290600101906020018083116103ee57829003601f168201915b5050604080516101008082018352600c88015460ff808216151584529181048216151560208401526201000081048216838501526301000000900481166060830152600d880154608080840191909152600e89015460a0840152600f89015460c0840152601089015460e084015283519081019093526011880180549798929792965092945091925083911660098111156104a8576104a861204c565b60098111156104b9576104b961204c565b815260200160018201548152602001600282015481526020016003820180546104e1906125a4565b80601f016020809104026020016040519081016040528092919081815260200182805461050d906125a4565b80156105585780601f1061052f57610100808354040283529160200191610558565b820191905f5260205f20905b81548152906001019060200180831161053b57829003601f168201915b50505050508152505090508d565b600254335f818152600160205260408120549092839161059f91640100000000900463ffffffff169084906001600160401b031661195b565b90506105b081838e8e8e8e8e6119eb565b5f81815260208190526040902080548d90829060ff191660018360048111156105db576105db61204c565b0217905550600581018c9055600681018b90558054610100600160a81b0319166101006001600160a01b03851602178155853560018201556020860135600282015560038101859055600b8101610633888a83612636565b5089600c8201610643828261271c565b5089905060118201610655828261282a565b50504360098201556002805463ffffffff16905f610672836128d2565b825463ffffffff9182166101009390930a9283029190920219909116179055506001600160a01b0383165f90815260016020526040812080546001600160401b0316916106be836128f6565b91906101000a8154816001600160401b0302191690836001600160401b0316021790555050826001600160a01b0316827fada6f87a2a16a0c9c169ca36754c5f33f7c1a973b575d068f888a549ed4faefa60405160405180910390a3509b9a5050505050505050505050565b5f600260089054906101000a90046001600160a01b03166001600160a01b031663233ace116040518163ffffffff1660e01b8152600401602060405180830381865afa15801561077c573d5f5f3e3d5ffd5b505050506040513d601f19601f820116820180604052508101906107a09190612917565b905090565b816107c35760405163cbf4a64560e01b815260040160405180910390fd5b600481818111156107d6576107d661204c565b60ff1611156107f8576040516307a92f1960e51b815260040160405180910390fd5b5f828152602081905260409020805461010090046001600160a01b031661083257604051634d36eb6960e01b815260040160405180910390fd5b805461010090046001600160a01b03163314610860576040516282b42960e81b815260040160405180910390fd5b805460ff1661086f8184611c76565b61088c576040516307a92f1960e51b815260040160405180910390fd5b81548390839060ff191660018360048111156108aa576108aa61204c565b021790555060018360048111156108c3576108c361204c565b0361091a575f8260050154426108d9919061292e565b6006840181905560405181815290915085907f0f759826327c668a220d576485ac38ddc4f83fbc414b984c00e79f669b649f469060200160405180910390a2505b837f2f25f350b681441b5bb45430fbe61e78d0170cff4ad02cb0aa48a6427909aa8c828560405161094c929190612941565b60405180910390a250505050565b6002546001600160a01b0382165f90815260016020526040812054909161099b9164010000000090910463ffffffff169084906001600160401b031661195b565b92915050565b816109bf5760405163cbf4a64560e01b815260040160405180910390fd5b5f828152602081905260409020805461010090046001600160a01b03166109f957604051634d36eb6960e01b815260040160405180910390fd5b805461010090046001600160a01b03163314610a27576040516282b42960e81b815260040160405180910390fd5b610a34602083018361295c565b6009811115610a4557610a4561204c565b601182015460ff166009811115610a5e57610a5e61204c565b14610a7c5760405163f37f7b5d60e01b815260040160405180910390fd5b601281015460208301351015610aa557604051634f9233a560e01b815260040160405180910390fd5b6040820135610ac757604051635e32eadd60e01b815260040160405180910390fd5b610ad460608301836127e8565b90505f03610af557604051630f8b932160e11b815260040160405180910390fd5b5f815460ff166004811115610b0c57610b0c61204c565b14158015610b3057506003815460ff166004811115610b2d57610b2d61204c565b14155b15610b4e576040516307a92f1960e51b815260040160405180910390fd5b4281600601548260050154610b639190612977565b11610b815760405163e843c5eb60e01b815260040160405180910390fd5b6020820135601282015560408201356013820155610ba260608301836127e8565b6014830191610bb2919083612636565b50827f35947a8913e2156f19b018078c9f0667e49cb3dc24af3434a4d0b16b82675b1b6040840135610be760608601866127e8565b8660200135604051610bfc94939291906129b2565b60405180910390a2505050565b610c11611eec565b5f828152602081905260409081902081516101c081019092528054829060ff166004811115610c4257610c4261204c565b6004811115610c5357610c5361204c565b8152815461010090046001600160a01b03166020808301919091526040805180820182526001850154815260028501548184015281840152600384015460608401526004840180548251818502810185019093528083526080909401939192909190830182828015610ce257602002820191905f5260205f20905b815481526020019060010190808311610cce575b505050505081526020016005820154815260200160068201548152602001600782015481526020016008820154815260200160098201548152602001600a8201548152602001600b82018054610d37906125a4565b80601f0160208091040260200160405190810160405280929190818152602001828054610d63906125a4565b8015610dae5780601f10610d8557610100808354040283529160200191610dae565b820191905f5260205f20905b815481529060010190602001808311610d9157829003601f168201915b5050509183525050604080516101008082018352600c85015460ff8082161515845291810482161515602084810191909152620100008204831684860152630100000090910482166060840152600d860154608080850191909152600e87015460a0850152600f87015460c0850152601087015460e08501529085019290925282519182018352601185018054939094019391928391166009811115610e5657610e5661204c565b6009811115610e6757610e6761204c565b81526020016001820154815260200160028201548152602001600382018054610e8f906125a4565b80601f0160208091040260200160405190810160405280929190818152602001828054610ebb906125a4565b8015610f065780601f10610edd57610100808354040283529160200191610f06565b820191905f5260205f20905b815481529060010190602001808311610ee957829003601f168201915b5050509190925250505090525092915050565b84610f375760405163cbf4a64560e01b815260040160405180910390fd5b5f858152602081905260409020805461010090046001600160a01b0316610f7157604051634d36eb6960e01b815260040160405180910390fd5b6001815460ff166004811115610f8957610f8961204c565b14610fa7576040516307a92f1960e51b815260040160405180910390fd5b4281600601548260050154610fbc9190612977565b1115610fdb5760405163e843c5eb60e01b815260040160405180910390fd5b600354604051635c73957b60e11b81526001600160a01b039091169063b8e72af6906110119088908890889088906004016129dc565b5f6040518083038186803b158015611027575f5ffd5b505afa158015611039573d5f5f3e3d5ffd5b505f925061104c91505083850185612a0d565b600383015481519192501461107457604051630b6fac0360e41b815260040160405180910390fd5b5f6110816001600961292e565b6001600160401b03811115611098576110986125d6565b6040519080825280602002602001820160405280156110c1578160200160208202803683370190505b50905060015b6009811015611116578281600981106110e2576110e2612a89565b6020020151826110f360018461292e565b8151811061110357611103612a89565b60209081029190910101526001016110c7565b50825460ff1916600490811784558151611137918501906020840190611fd8565b50877f2f25f350b681441b5bb45430fbe61e78d0170cff4ad02cb0aa48a6427909aa8c6001600460405161116c929190612941565b60405180910390a2336001600160a01b0316887f5da8009aeb11de7ef64598b0de897a03d2f93efabda8507a70e29cca4530cf5d836040516111ae9190612a9d565b60405180910390a35050505050505050565b5f8181526020819052604080822081516101c08101909252805483929190829060ff1660048111156111f4576111f461204c565b60048111156112055761120561204c565b8152815461010090046001600160a01b0316602080830191909152604080518082018252600185015481526002850154818401528184015260038401546060840152600484018054825181850281018501909352808352608090940193919290919083018282801561129457602002820191905f5260205f20905b815481526020019060010190808311611280575b505050505081526020016005820154815260200160068201548152602001600782015481526020016008820154815260200160098201548152602001600a8201548152602001600b820180546112e9906125a4565b80601f0160208091040260200160405190810160405280929190818152602001828054611315906125a4565b80156113605780601f1061133757610100808354040283529160200191611360565b820191905f5260205f20905b81548152906001019060200180831161134357829003601f168201915b5050509183525050604080516101008082018352600c85015460ff8082161515845291810482161515602084810191909152620100008204831684860152630100000090910482166060840152600d860154608080850191909152600e87015460a0850152600f87015460c0850152601087015460e085015290850192909252825191820183526011850180549390940193919283911660098111156114085761140861204c565b60098111156114195761141961204c565b81526020016001820154815260200160028201548152602001600382018054611441906125a4565b80601f016020809104026020016040519081016040528092919081815260200182805461146d906125a4565b80156114b85780601f1061148f576101008083540402835291602001916114b8565b820191905f5260205f20905b81548152906001019060200180831161149b57829003601f168201915b5050505050815250508152505090508060c001518160a001516114db9190612977565b9392505050565b816115005760405163cbf4a64560e01b815260040160405180910390fd5b5f828152602081905260409020805461010090046001600160a01b031661153a57604051634d36eb6960e01b815260040160405180910390fd5b805461010090046001600160a01b03163314611568576040516282b42960e81b815260040160405180910390fd5b805460ff165f8160048111156115805761158061204c565b141580156115a05750600381600481111561159d5761159d61204c565b14155b156115be576040516307a92f1960e51b815260040160405180910390fd5b600582015460068301548415806115de5750426115db8684612977565b11155b806115fb57506115ee8183612977565b6115f88684612977565b11155b1561161957604051637616640160e01b815260040160405180910390fd5b6006840185905560405185815286907f0f759826327c668a220d576485ac38ddc4f83fbc414b984c00e79f669b649f469060200160405180910390a2505050505050565b8461167b5760405163cbf4a64560e01b815260040160405180910390fd5b5f858152602081905260409020805461010090046001600160a01b03166116b557604051634d36eb6960e01b815260040160405180910390fd5b5f815460ff1660048111156116cc576116cc61204c565b146116ea576040516307a92f1960e51b815260040160405180910390fd5b42816006015482600501546116ff9190612977565b1161171d5760405163e843c5eb60e01b815260040160405180910390fd5b5f61172a83850185612a0d565b600383015481519192501461175257604051630b6fac0360e41b815260040160405180910390fd5b5f6117b9826004602002015183600560200201518460066020020151856007602002015160405160200161178891815260200190565b60408051808303601f1901815282825261010089015160208401529101604051602081830303815290604052611d94565b60808301519091505f49146117e157604051637ae4bd5f60e01b815260040160405180910390fd5b6117ea81611e3e565b61180757604051634776c3c760e01b815260040160405180910390fd5b600254604051635c73957b60e11b8152600160401b9091046001600160a01b03169063b8e72af690611843908a908a908a908a906004016129dc565b5f6040518083038186803b158015611859575f5ffd5b505afa15801561186b573d5f5f3e3d5ffd5b505050508160016009811061188257611882612a89565b6020020151600384015560408201516007840180545f906118a4908490612977565b909155505060608201516008840180545f906118c1908490612977565b9091555050600a83018054905f6118d783612adf565b909155505060208083015160405190815233918a917fdc9b2774f92abfeee93d8b2ef67d59cd90c2d6d740b01c24fd9ec109a71865fc91016111ae565b6003546040805163233ace1160e01b815290515f926001600160a01b03169163233ace119160048083019260209291908290030181865afa15801561077c573d5f5f3e3d5ffd5b6001600160f81b031960e09390931b92831660ff60f01b84161760ff60e81b84161760ff60e01b939093169290921760409190911b68010000000000000000600160e01b03161767ff0000000000000082161766ff00000000000082161765ff000000000082161764ff0000000082161763ff00000082161762ff000082161761ff0082161760ff919091161790565b5f878152602081905260409020546001600160a01b038088166101009092041603611a2957604051635040c4d360e11b815260040160405180910390fd5b611a396060830160408401612af7565b60ff161580611a5a57506008611a556060840160408501612af7565b60ff16115b15611a785760405163ac38930b60e01b815260040160405180910390fd5b61ffff8260c001351115611a9f57604051634dba795160e01b815260040160405180910390fd5b81608001358260a001351115611ac85760405163207ea56d60e01b815260040160405180910390fd5b8160c001358260e001351115611af157604051636d403ec760e11b815260040160405180910390fd5b6009611b00602083018361295c565b6009811115611b1157611b1161204c565b60ff161115611b335760405163f37f7b5d60e01b815260040160405180910390fd5b80602001355f03611b5757604051634f9233a560e01b815260040160405180910390fd5b6040810135611b7957604051635e32eadd60e01b815260040160405180910390fd5b611b8660608201826127e8565b90505f03611ba757604051630f8b932160e11b815260040160405180910390fd5b60048581811115611bba57611bba61204c565b60ff161180611bf757505f856004811115611bd757611bd761204c565b14158015611bf757506003856004811115611bf457611bf461204c565b14155b15611c15576040516307a92f1960e51b815260040160405180910390fd5b425f859003611c22578094505b80851015611c4357604051632ca4094f60e21b815260040160405180910390fd5b80611c4e8587612977565b11611c6c57604051637616640160e01b815260040160405180910390fd5b5050505050505050565b5f826004811115611c8957611c8961204c565b826004811115611c9b57611c9b61204c565b03611ca757505f61099b565b6002836004811115611cbb57611cbb61204c565b1480611cd857506004836004811115611cd657611cd661204c565b145b80611cf457506001836004811115611cf257611cf261204c565b145b15611d0057505f61099b565b5f836004811115611d1357611d1361204c565b03611d6d5760035b826004811115611d2d57611d2d61204c565b1480611d4a57506002826004811115611d4857611d4861204c565b145b80611d6657506001826004811115611d6457611d6461204c565b145b905061099b565b6003836004811115611d8157611d8161204c565b03611d8c575f611d1b565b505f92915050565b606060308351141580611da957506030825114155b15611dfa5760405162461bcd60e51b815260206004820152601760248201527f4b5a47496e7075743a20626164204731206c656e677468000000000000000000604482015260640160405180910390fd5b8585858585604051602001611e13959493929190612b29565b604051602081830303815290604052905060c0815114611e3557611e35612b4f565b95945050505050565b5f60c0825114611e4f57505f919050565b5f5f600a6001600160a01b031684604051611e6a9190612b63565b5f60405180830381855afa9150503d805f8114611ea2576040519150601f19603f3d011682016040523d82523d5f602084013e611ea7565b606091505b5091509150811580611ebb57506040815114155b15611ec957505f9392505050565b60208101516110008114611ee157505f949350505050565b506001949350505050565b604080516101c08101909152805f81526020015f6001600160a01b03168152602001611f2960405180604001604052805f81526020015f81525090565b81526020015f8152602001606081526020015f81526020015f81526020015f81526020015f81526020015f81526020015f815260200160608152602001611fb06040518061010001604052805f151581526020015f151581526020015f60ff1681526020015f60ff1681526020015f81526020015f81526020015f81526020015f81525090565b8152604080516080810182525f80825260208281018290529282015260608082015291015290565b828054828255905f5260205f20908101928215612011579160200282015b82811115612011578251825591602001919060010190611ff6565b5061201d929150612021565b5090565b5b8082111561201d575f8155600101612022565b5f60208284031215612045575f5ffd5b5035919050565b634e487b7160e01b5f52602160045260245ffd5b600581106120705761207061204c565b9052565b5f81518084528060208401602086015e5f602082860101526020601f19601f83011685010191505092915050565b80511515825260208101511515602083015260ff604082015116604083015260608101516120d5606084018260ff169052565b506080810151608083015260a081015160a083015260c081015160c083015260e081015160e08301525050565b5f8151600a81106121155761211561204c565b8084525060208201516020840152604082015160408401526060820151608060608501526121466080850182612074565b949350505050565b612158818f612060565b6001600160a01b038d16602082015261217e604082018d80518252602090810151910152565b8a60808201528960a08201528860c08201528760e08201528661010082015285610120820152846101408201526102a06101608201525f6121c36102a0830186612074565b6121d16101808401866120a2565b8281036102808401526121e48185612102565b9150509e9d5050505050505050505050505050565b803560058110612207575f5ffd5b919050565b5f6080828403121561221c575f5ffd5b50919050565b5f5f83601f840112612232575f5ffd5b5081356001600160401b03811115612248575f5ffd5b60208301915083602082850101111561225f575f5ffd5b9250929050565b5f6040828403121561221c575f5ffd5b5f5f5f5f5f5f5f5f5f898b03610200811215612290575f5ffd5b6122998b6121f9565b995060208b0135985060408b01359750610100605f19820112156122bb575f5ffd5b5060608a0195506101608a01356001600160401b038111156122db575f5ffd5b6122e78c828d0161220c565b9550506101808a01356001600160401b03811115612303575f5ffd5b61230f8c828d01612222565b909550935061232490508b6101a08c01612266565b989b979a5095989497939692955090936101e00135919050565b5f5f6040838503121561234f575f5ffd5b8235915061235f602084016121f9565b90509250929050565b5f60208284031215612378575f5ffd5b81356001600160a01b03811681146114db575f5ffd5b5f5f6040838503121561239f575f5ffd5b8235915060208301356001600160401b038111156123bb575f5ffd5b6123c78582860161220c565b9150509250929050565b5f8151808452602084019350602083015f5b828110156124015781518652602095860195909101906001016123e3565b5093949350505050565b6020815261241d602082018351612060565b5f602083015161243860408401826001600160a01b03169052565b506040830151805160608401526020810151608084015250606083015160a083015260808301516102c060c08401526124756102e08401826123d1565b905060a084015160e084015260c084015161010084015260e0840151610120840152610100840151610140840152610120840151610160840152610140840151610180840152610160840151601f19848303016101a08501526124d88282612074565b9150506101808401516124ef6101c08501826120a2565b506101a0840151838203601f19016102c0850152611e358282612102565b5f5f5f5f5f60608688031215612521575f5ffd5b8535945060208601356001600160401b0381111561253d575f5ffd5b61254988828901612222565b90955093505060408601356001600160401b03811115612567575f5ffd5b61257388828901612222565b969995985093965092949392505050565b5f5f60408385031215612595575f5ffd5b50508035926020909101359150565b600181811c908216806125b857607f821691505b60208210810361221c57634e487b7160e01b5f52602260045260245ffd5b634e487b7160e01b5f52604160045260245ffd5b601f82111561263157805f5260205f20601f840160051c8101602085101561260f5750805b601f840160051c820191505b8181101561262e575f815560010161261b565b50505b505050565b6001600160401b0383111561264d5761264d6125d6565b6126618361265b83546125a4565b836125ea565b5f601f841160018114612692575f851561267b5750838201355b5f19600387901b1c1916600186901b17835561262e565b5f83815260208120601f198716915b828110156126c157868501358255602094850194600190920191016126a1565b50868210156126dd575f1960f88860031b161c19848701351681555b505060018560011b0183555050505050565b5f8135801515811461099b575f5ffd5b60ff8116811461270d575f5ffd5b50565b5f813561099b816126ff565b612725826126ef565b151560ff1982541660ff8216811783555050612760612746602084016126ef565b82805461ff00191691151560081b61ff0016919091179055565b61278761276f60408401612710565b825462ff0000191660109190911b62ff000016178255565b6127b061279660608401612710565b825463ff000000191660189190911b63ff00000016178255565b6080820135600182015560a0820135600282015560c0820135600382015560e090910135600490910155565b600a811061270d575f5ffd5b5f5f8335601e198436030181126127fd575f5ffd5b8301803591506001600160401b03821115612816575f5ffd5b60200191503681900382131561225f575f5ffd5b8135612835816127dc565b600a81106128455761284561204c565b815460ff191660ff9190911617815560208201356001820155604082013560028201556060820135601e193684900301811261287f575f5ffd5b820180356001600160401b03811115612896575f5ffd5b6020820191508036038213156128aa575f5ffd5b6128b8818360038601612636565b50505050565b634e487b7160e01b5f52601160045260245ffd5b5f63ffffffff821663ffffffff81036128ed576128ed6128be565b60010192915050565b5f6001600160401b0382166001600160401b0381036128ed576128ed6128be565b5f60208284031215612927575f5ffd5b5051919050565b8181038181111561099b5761099b6128be565b6040810161294f8285612060565b6114db6020830184612060565b5f6020828403121561296c575f5ffd5b81356114db816127dc565b8082018082111561099b5761099b6128be565b81835281816020850137505f828201602090810191909152601f909101601f19169091010190565b848152606060208201525f6129cb60608301858761298a565b905082604083015295945050505050565b604081525f6129ef60408301868861298a565b8281036020840152612a0281858761298a565b979650505050505050565b5f6101208284031215612a1e575f5ffd5b82601f830112612a2c575f5ffd5b60405161012081018181106001600160401b0382111715612a4f57612a4f6125d6565b60405280610120840185811115612a64575f5ffd5b845b81811015612a7e578035835260209283019201612a66565b509195945050505050565b634e487b7160e01b5f52603260045260245ffd5b602080825282518282018190525f918401906040840190835b81811015612ad4578351835260209384019390920191600101612ab6565b509095945050505050565b5f60018201612af057612af06128be565b5060010190565b5f60208284031215612b07575f5ffd5b81356114db816126ff565b5f81518060208401855e5f93019283525090919050565b8581528460208201528360408201525f612a02612b496060840186612b12565b84612b12565b634e487b7160e01b5f52600160045260245ffd5b5f6114db8284612b1256fea26469706673582212207297027b47eab1c3574f12faacc06d3cb02ef9e9322284496c7f3a94b4c5703864736f6c634300081c0033",
  "linkReferences": {},
  "deployedLinkReferences": {}
}