{
  "_format": "hh-sol-artifact-1",
  "contractName": "ProcessRegistry",
  "sourceName": "src/ProcessRegistry.sol",
  "abi": [
    {
      "inputs": [
        {
          "internalType": "uint32",
          "name": "_chainID",
          "type": "uint32"
        },
        {
          "internalType": "address",
          "name": "_stVerifier",
          "type": "address"
        },
        {
          "internalType": "address",
          "name": "_rVerifier",
          "type": "address"
        },
        {
          "internalType": "bool",
          "name": "_blobsDA",
          "type": "bool"
        }
      ],
      "stateMutability": "nonpayable",
      "type": "constructor"
    },
    {
      "inputs": [],
      "name": "BlobNotFoundInTx",
      "type": "error"
    },
    {
      "inputs": [
        {
          "internalType": "uint256",
          "name": "got",
          "type": "uint256"
        },
        {
          "internalType": "uint256",
          "name": "expected",
          "type": "uint256"
        }
      ],
      "name": "BlobVerificationInvalidBLSModulus",
      "type": "error"
    },
    {
      "inputs": [
        {
          "internalType": "uint256",
          "name": "got",
          "type": "uint256"
        },
        {
          "internalType": "uint256",
          "name": "expected",
          "type": "uint256"
        }
      ],
      "name": "BlobVerificationInvalidFieldElementCount",
      "type": "error"
    },
    {
      "inputs": [
        {
          "internalType": "uint256",
          "name": "got",
          "type": "uint256"
        },
        {
          "internalType": "uint256",
          "name": "expected",
          "type": "uint256"
        }
      ],
      "name": "BlobVerificationInvalidInputLength",
      "type": "error"
    },
    {
      "inputs": [
        {
          "internalType": "uint256",
          "name": "got",
          "type": "uint256"
        },
        {
          "internalType": "uint256",
          "name": "expected",
          "type": "uint256"
        }
      ],
      "name": "BlobVerificationInvalidOutputLength",
      "type": "error"
    },
    {
      "inputs": [],
      "name": "BlobVerificationPointEvaluationFailed",
      "type": "error"
    },
    {
      "inputs": [],
      "name": "CannotAcceptResult",
      "type": "error"
    },
    {
      "inputs": [],
      "name": "InvalidCensusOrigin",
      "type": "error"
    },
    {
      "inputs": [],
      "name": "InvalidCensusRoot",
      "type": "error"
    },
    {
      "inputs": [],
      "name": "InvalidCensusURI",
      "type": "error"
    },
    {
      "inputs": [],
      "name": "InvalidDuration",
      "type": "error"
    },
    {
      "inputs": [],
      "name": "InvalidMaxCount",
      "type": "error"
    },
    {
      "inputs": [],
      "name": "InvalidMaxMinValueBounds",
      "type": "error"
    },
    {
      "inputs": [],
      "name": "InvalidMaxValue",
      "type": "error"
    },
    {
      "inputs": [],
      "name": "InvalidMaxValueSum",
      "type": "error"
    },
    {
      "inputs": [],
      "name": "InvalidMinTotalCost",
      "type": "error"
    },
    {
      "inputs": [],
      "name": "InvalidMinValue",
      "type": "error"
    },
    {
      "inputs": [],
      "name": "InvalidProcessId",
      "type": "error"
    },
    {
      "inputs": [],
      "name": "InvalidStartTime",
      "type": "error"
    },
    {
      "inputs": [],
      "name": "InvalidStateRoot",
      "type": "error"
    },
    {
      "inputs": [],
      "name": "InvalidStatus",
      "type": "error"
    },
    {
      "inputs": [],
      "name": "InvalidTimeBounds",
      "type": "error"
    },
    {
      "inputs": [],
      "name": "InvalidUniqueValues",
      "type": "error"
    },
    {
      "inputs": [],
      "name": "InvalidValueSumBounds",
      "type": "error"
    },
    {
      "inputs": [
        {
          "internalType": "uint256",
          "name": "got",
          "type": "uint256"
        },
        {
          "internalType": "uint256",
          "name": "expected",
          "type": "uint256"
        }
      ],
      "name": "KZGInputBadCommitmentLength",
      "type": "error"
    },
    {
      "inputs": [
        {
          "internalType": "uint256",
          "name": "got",
          "type": "uint256"
        },
        {
          "internalType": "uint256",
          "name": "expected",
          "type": "uint256"
        }
      ],
      "name": "KZGInputBadProofLength",
      "type": "error"
    },
    {
      "inputs": [],
      "name": "ProcessAlreadyExists",
      "type": "error"
    },
    {
      "inputs": [],
      "name": "ProcessNotEnded",
      "type": "error"
    },
    {
      "inputs": [],
      "name": "ProcessNotFound",
      "type": "error"
    },
    {
      "inputs": [],
      "name": "ProofInvalid",
      "type": "error"
    },
    {
      "inputs": [],
      "name": "Unauthorized",
      "type": "error"
    },
    {
      "inputs": [],
      "name": "UnknownProcessIdPrefix",
      "type": "error"
    },
    {
      "anonymous": false,
      "inputs": [
        {
          "indexed": true,
          "internalType": "bytes32",
          "name": "processId",
          "type": "bytes32"
        },
        {
          "indexed": false,
          "internalType": "bytes32",
          "name": "censusRoot",
          "type": "bytes32"
        },
        {
          "indexed": false,
          "internalType": "string",
          "name": "censusURI",
          "type": "string"
        }
      ],
      "name": "CensusUpdated",
      "type": "event"
    },
    {
      "anonymous": false,
      "inputs": [
        {
          "indexed": true,
          "internalType": "bytes32",
          "name": "processId",
          "type": "bytes32"
        },
        {
          "indexed": true,
          "internalType": "address",
          "name": "creator",
          "type": "address"
        }
      ],
      "name": "ProcessCreated",
      "type": "event"
    },
    {
      "anonymous": false,
      "inputs": [
        {
          "indexed": true,
          "internalType": "bytes32",
          "name": "processId",
          "type": "bytes32"
        },
        {
          "indexed": false,
          "internalType": "uint256",
          "name": "duration",
          "type": "uint256"
        }
      ],
      "name": "ProcessDurationChanged",
      "type": "event"
    },
    {
      "anonymous": false,
      "inputs": [
        {
          "indexed": true,
          "internalType": "bytes32",
          "name": "processId",
          "type": "bytes32"
        },
        {
          "indexed": true,
          "internalType": "address",
          "name": "sender",
          "type": "address"
        },
        {
          "indexed": false,
          "internalType": "uint256[]",
          "name": "result",
          "type": "uint256[]"
        }
      ],
      "name": "ProcessResultsSet",
      "type": "event"
    },
    {
      "anonymous": false,
      "inputs": [
        {
          "indexed": true,
          "internalType": "bytes32",
          "name": "processId",
          "type": "bytes32"
        },
        {
          "indexed": true,
          "internalType": "address",
          "name": "sender",
          "type": "address"
        },
        {
          "indexed": false,
          "internalType": "uint256",
          "name": "newStateRoot",
          "type": "uint256"
        }
      ],
      "name": "ProcessStateRootUpdated",
      "type": "event"
    },
    {
      "anonymous": false,
      "inputs": [
        {
          "indexed": true,
          "internalType": "bytes32",
          "name": "processId",
          "type": "bytes32"
        },
        {
          "indexed": false,
          "internalType": "enum IProcessRegistry.ProcessStatus",
          "name": "oldStatus",
          "type": "uint8"
        },
        {
          "indexed": false,
          "internalType": "enum IProcessRegistry.ProcessStatus",
          "name": "newStatus",
          "type": "uint8"
        }
      ],
      "name": "ProcessStatusChanged",
      "type": "event"
    },
    {
      "inputs": [],
      "name": "BLOB_INDEX",
      "outputs": [
        {
          "internalType": "uint8",
          "name": "",
          "type": "uint8"
        }
      ],
      "stateMutability": "view",
      "type": "function"
    },
    {
      "inputs": [],
      "name": "MAX_CENSUS_ORIGIN",
      "outputs": [
        {
          "internalType": "uint8",
          "name": "",
          "type": "uint8"
        }
      ],
      "stateMutability": "view",
      "type": "function"
    },
    {
      "inputs": [],
      "name": "MAX_STATUS",
      "outputs": [
        {
          "internalType": "uint8",
          "name": "",
          "type": "uint8"
        }
      ],
      "stateMutability": "view",
      "type": "function"
    },
    {
      "inputs": [],
      "name": "blobsDA",
      "outputs": [
        {
          "internalType": "bool",
          "name": "",
          "type": "bool"
        }
      ],
      "stateMutability": "view",
      "type": "function"
    },
    {
      "inputs": [],
      "name": "chainID",
      "outputs": [
        {
          "internalType": "uint32",
          "name": "",
          "type": "uint32"
        }
      ],
      "stateMutability": "view",
      "type": "function"
    },
    {
      "inputs": [
        {
          "internalType": "address",
          "name": "organizationId",
          "type": "address"
        }
      ],
      "name": "getNextProcessId",
      "outputs": [
        {
          "internalType": "bytes32",
          "name": "",
          "type": "bytes32"
        }
      ],
      "stateMutability": "view",
      "type": "function"
    },
    {
      "inputs": [
        {
          "internalType": "bytes32",
          "name": "processId",
          "type": "bytes32"
        }
      ],
      "name": "getProcess",
      "outputs": [
        {
          "components": [
            {
              "internalType": "enum IProcessRegistry.ProcessStatus",
              "name": "status",
              "type": "uint8"
            },
            {
              "internalType": "address",
              "name": "organizationId",
              "type": "address"
            },
            {
              "components": [
                {
                  "internalType": "uint256",
                  "name": "x",
                  "type": "uint256"
                },
                {
                  "internalType": "uint256",
                  "name": "y",
                  "type": "uint256"
                }
              ],
              "internalType": "struct IProcessRegistry.EncryptionKey",
              "name": "encryptionKey",
              "type": "tuple"
            },
            {
              "internalType": "uint256",
              "name": "latestStateRoot",
              "type": "uint256"
            },
            {
              "internalType": "uint256[]",
              "name": "result",
              "type": "uint256[]"
            },
            {
              "internalType": "uint256",
              "name": "startTime",
              "type": "uint256"
            },
            {
              "internalType": "uint256",
              "name": "duration",
              "type": "uint256"
            },
            {
              "internalType": "uint256",
              "name": "voteCount",
              "type": "uint256"
            },
            {
              "internalType": "uint256",
              "name": "voteOverwriteCount",
              "type": "uint256"
            },
            {
              "internalType": "uint256",
              "name": "creationBlock",
              "type": "uint256"
            },
            {
              "internalType": "uint256",
              "name": "batchNumber",
              "type": "uint256"
            },
            {
              "internalType": "string",
              "name": "metadataURI",
              "type": "string"
            },
            {
              "components": [
                {
                  "internalType": "bool",
                  "name": "costFromWeight",
                  "type": "bool"
                },
                {
                  "internalType": "bool",
                  "name": "uniqueValues",
                  "type": "bool"
                },
                {
                  "internalType": "uint8",
                  "name": "numFields",
                  "type": "uint8"
                },
                {
                  "internalType": "uint8",
                  "name": "costExponent",
                  "type": "uint8"
                },
                {
                  "internalType": "uint256",
                  "name": "maxValue",
                  "type": "uint256"
                },
                {
                  "internalType": "uint256",
                  "name": "minValue",
                  "type": "uint256"
                },
                {
                  "internalType": "uint256",
                  "name": "maxValueSum",
                  "type": "uint256"
                },
                {
                  "internalType": "uint256",
                  "name": "minValueSum",
                  "type": "uint256"
                }
              ],
              "internalType": "struct IProcessRegistry.BallotMode",
              "name": "ballotMode",
              "type": "tuple"
            },
            {
              "components": [
                {
                  "internalType": "enum IProcessRegistry.CensusOrigin",
                  "name": "censusOrigin",
                  "type": "uint8"
                },
                {
                  "internalType": "bytes32",
                  "name": "censusRoot",
                  "type": "bytes32"
                },
                {
                  "internalType": "string",
                  "name": "censusURI",
                  "type": "string"
                }
              ],
              "internalType": "struct IProcessRegistry.Census",
              "name": "census",
              "type": "tuple"
            }
          ],
          "internalType": "struct IProcessRegistry.Process",
          "name": "",
          "type": "tuple"
        }
      ],
      "stateMutability": "view",
      "type": "function"
    },
    {
      "inputs": [
        {
          "internalType": "bytes32",
          "name": "processId",
          "type": "bytes32"
        }
      ],
      "name": "getProcessEndTime",
      "outputs": [
        {
          "internalType": "uint256",
          "name": "",
          "type": "uint256"
        }
      ],
      "stateMutability": "view",
      "type": "function"
    },
    {
      "inputs": [],
      "name": "getRVerifierVKeyHash",
      "outputs": [
        {
          "internalType": "bytes32",
          "name": "",
          "type": "bytes32"
        }
      ],
      "stateMutability": "view",
      "type": "function"
    },
    {
      "inputs": [],
      "name": "getSTVerifierVKeyHash",
      "outputs": [
        {
          "internalType": "bytes32",
          "name": "",
          "type": "bytes32"
        }
      ],
      "stateMutability": "view",
      "type": "function"
    },
    {
      "inputs": [
        {
          "internalType": "enum IProcessRegistry.ProcessStatus",
          "name": "status",
          "type": "uint8"
        },
        {
          "internalType": "uint256",
          "name": "startTime",
          "type": "uint256"
        },
        {
          "internalType": "uint256",
          "name": "duration",
          "type": "uint256"
        },
        {
          "components": [
            {
              "internalType": "bool",
              "name": "costFromWeight",
              "type": "bool"
            },
            {
              "internalType": "bool",
              "name": "uniqueValues",
              "type": "bool"
            },
            {
              "internalType": "uint8",
              "name": "numFields",
              "type": "uint8"
            },
            {
              "internalType": "uint8",
              "name": "costExponent",
              "type": "uint8"
            },
            {
              "internalType": "uint256",
              "name": "maxValue",
              "type": "uint256"
            },
            {
              "internalType": "uint256",
              "name": "minValue",
              "type": "uint256"
            },
            {
              "internalType": "uint256",
              "name": "maxValueSum",
              "type": "uint256"
            },
            {
              "internalType": "uint256",
              "name": "minValueSum",
              "type": "uint256"
            }
          ],
          "internalType": "struct IProcessRegistry.BallotMode",
          "name": "ballotMode",
          "type": "tuple"
        },
        {
          "components": [
            {
              "internalType": "enum IProcessRegistry.CensusOrigin",
              "name": "censusOrigin",
              "type": "uint8"
            },
            {
              "internalType": "bytes32",
              "name": "censusRoot",
              "type": "bytes32"
            },
            {
              "internalType": "string",
              "name": "censusURI",
              "type": "string"
            }
          ],
          "internalType": "struct IProcessRegistry.Census",
          "name": "census",
          "type": "tuple"
        },
        {
          "internalType": "string",
          "name": "metadata",
          "type": "string"
        },
        {
          "components": [
            {
              "internalType": "uint256",
              "name": "x",
              "type": "uint256"
            },
            {
              "internalType": "uint256",
              "name": "y",
              "type": "uint256"
            }
          ],
          "internalType": "struct IProcessRegistry.EncryptionKey",
          "name": "encryptionKey",
          "type": "tuple"
        },
        {
          "internalType": "uint256",
          "name": "initStateRoot",
          "type": "uint256"
        }
      ],
      "name": "newProcess",
      "outputs": [
        {
          "internalType": "bytes32",
          "name": "",
          "type": "bytes32"
        }
      ],
      "stateMutability": "nonpayable",
      "type": "function"
    },
    {
      "inputs": [],
      "name": "pidPrefix",
      "outputs": [
        {
          "internalType": "uint32",
          "name": "",
          "type": "uint32"
        }
      ],
      "stateMutability": "view",
      "type": "function"
    },
    {
      "inputs": [],
      "name": "processCount",
      "outputs": [
        {
          "internalType": "uint32",
          "name": "",
          "type": "uint32"
        }
      ],
      "stateMutability": "view",
      "type": "function"
    },
    {
      "inputs": [
        {
          "internalType": "address",
          "name": "",
          "type": "address"
        }
      ],
      "name": "processNonce",
      "outputs": [
        {
          "internalType": "uint64",
          "name": "",
          "type": "uint64"
        }
      ],
      "stateMutability": "view",
      "type": "function"
    },
    {
      "inputs": [
        {
          "internalType": "bytes32",
          "name": "",
          "type": "bytes32"
        }
      ],
      "name": "processes",
      "outputs": [
        {
          "internalType": "enum IProcessRegistry.ProcessStatus",
          "name": "status",
          "type": "uint8"
        },
        {
          "internalType": "address",
          "name": "organizationId",
          "type": "address"
        },
        {
          "components": [
            {
              "internalType": "uint256",
              "name": "x",
              "type": "uint256"
            },
            {
              "internalType": "uint256",
              "name": "y",
              "type": "uint256"
            }
          ],
          "internalType": "struct IProcessRegistry.EncryptionKey",
          "name": "encryptionKey",
          "type": "tuple"
        },
        {
          "internalType": "uint256",
          "name": "latestStateRoot",
          "type": "uint256"
        },
        {
          "internalType": "uint256",
          "name": "startTime",
          "type": "uint256"
        },
        {
          "internalType": "uint256",
          "name": "duration",
          "type": "uint256"
        },
        {
          "internalType": "uint256",
          "name": "voteCount",
          "type": "uint256"
        },
        {
          "internalType": "uint256",
          "name": "voteOverwriteCount",
          "type": "uint256"
        },
        {
          "internalType": "uint256",
          "name": "creationBlock",
          "type": "uint256"
        },
        {
          "internalType": "uint256",
          "name": "batchNumber",
          "type": "uint256"
        },
        {
          "internalType": "string",
          "name": "metadataURI",
          "type": "string"
        },
        {
          "components": [
            {
              "internalType": "bool",
              "name": "costFromWeight",
              "type": "bool"
            },
            {
              "internalType": "bool",
              "name": "uniqueValues",
              "type": "bool"
            },
            {
              "internalType": "uint8",
              "name": "numFields",
              "type": "uint8"
            },
            {
              "internalType": "uint8",
              "name": "costExponent",
              "type": "uint8"
            },
            {
              "internalType": "uint256",
              "name": "maxValue",
              "type": "uint256"
            },
            {
              "internalType": "uint256",
              "name": "minValue",
              "type": "uint256"
            },
            {
              "internalType": "uint256",
              "name": "maxValueSum",
              "type": "uint256"
            },
            {
              "internalType": "uint256",
              "name": "minValueSum",
              "type": "uint256"
            }
          ],
          "internalType": "struct IProcessRegistry.BallotMode",
          "name": "ballotMode",
          "type": "tuple"
        },
        {
          "components": [
            {
              "internalType": "enum IProcessRegistry.CensusOrigin",
              "name": "censusOrigin",
              "type": "uint8"
            },
            {
              "internalType": "bytes32",
              "name": "censusRoot",
              "type": "bytes32"
            },
            {
              "internalType": "string",
              "name": "censusURI",
              "type": "string"
            }
          ],
          "internalType": "struct IProcessRegistry.Census",
          "name": "census",
          "type": "tuple"
        }
      ],
      "stateMutability": "view",
      "type": "function"
    },
    {
      "inputs": [],
      "name": "rVerifier",
      "outputs": [
        {
          "internalType": "address",
          "name": "",
          "type": "address"
        }
      ],
      "stateMutability": "view",
      "type": "function"
    },
    {
      "inputs": [
        {
          "internalType": "bytes32",
          "name": "processId",
          "type": "bytes32"
        },
        {
          "components": [
            {
              "internalType": "enum IProcessRegistry.CensusOrigin",
              "name": "censusOrigin",
              "type": "uint8"
            },
            {
              "internalType": "bytes32",
              "name": "censusRoot",
              "type": "bytes32"
            },
            {
              "internalType": "string",
              "name": "censusURI",
              "type": "string"
            }
          ],
          "internalType": "struct IProcessRegistry.Census",
          "name": "census",
          "type": "tuple"
        }
      ],
      "name": "setProcessCensus",
      "outputs": [],
      "stateMutability": "nonpayable",
      "type": "function"
    },
    {
      "inputs": [
        {
          "internalType": "bytes32",
          "name": "processId",
          "type": "bytes32"
        },
        {
          "internalType": "uint256",
          "name": "_duration",
          "type": "uint256"
        }
      ],
      "name": "setProcessDuration",
      "outputs": [],
      "stateMutability": "nonpayable",
      "type": "function"
    },
    {
      "inputs": [
        {
          "internalType": "bytes32",
          "name": "processId",
          "type": "bytes32"
        },
        {
          "internalType": "bytes",
          "name": "proof",
          "type": "bytes"
        },
        {
          "internalType": "bytes",
          "name": "input",
          "type": "bytes"
        }
      ],
      "name": "setProcessResults",
      "outputs": [],
      "stateMutability": "nonpayable",
      "type": "function"
    },
    {
      "inputs": [
        {
          "internalType": "bytes32",
          "name": "processId",
          "type": "bytes32"
        },
        {
          "internalType": "enum IProcessRegistry.ProcessStatus",
          "name": "newStatus",
          "type": "uint8"
        }
      ],
      "name": "setProcessStatus",
      "outputs": [],
      "stateMutability": "nonpayable",
      "type": "function"
    },
    {
      "inputs": [],
      "name": "stVerifier",
      "outputs": [
        {
          "internalType": "address",
          "name": "",
          "type": "address"
        }
      ],
      "stateMutability": "view",
      "type": "function"
    },
    {
      "inputs": [
        {
          "internalType": "bytes32",
          "name": "processId",
          "type": "bytes32"
        },
        {
          "internalType": "bytes",
          "name": "proof",
          "type": "bytes"
        },
        {
          "internalType": "bytes",
          "name": "input",
          "type": "bytes"
        }
      ],
      "name": "submitStateTransition",
      "outputs": [],
      "stateMutability": "nonpayable",
      "type": "function"
    }
  ],
  "bytecode": "0x608060405234801561000f575f5ffd5b506040516130d73803806130d783398101604081905261002e91610132565b6002805460038054600160201b600160e01b0319909216680100000000000000006001600160a01b038881169190910263ffffffff60201b19169190911764010000000063ffffffff8a160217909355918416600164ff0000000160a01b031990911617600160c01b831515021790556100ee84306040805160e09390931b6001600160e01b03191660208085019190915260609290921b6001600160601b03191660248401528051601881850301815260389093019052815191012090565b600360146101000a81548163ffffffff021916908363ffffffff16021790555050505050610193565b80516001600160a01b038116811461012d575f5ffd5b919050565b5f5f5f5f60808587031215610145575f5ffd5b845163ffffffff81168114610158575f5ffd5b935061016660208601610117565b925061017460408601610117565b915060608501518015158114610188575f5ffd5b939692955090935050565b612f37806101a05f395ff3fe608060405234801561000f575f5ffd5b506004361061013d575f3560e01c8063992bc45b116100b4578063c718c01f11610079578063c718c01f146102f4578063cddf08bc14610307578063cdf497c81461031e578063d71d072e14610342578063f4c2a3bb14610355578063f9aa449914610368575f5ffd5b8063992bc45b146102835780639c18deaf146102a3578063a5b110de146102b6578063a5f01e19146102c9578063adc879e9146102dc575f5ffd5b80634c0acc56116101055780634c0acc56146101e657806356a6f1e2146101ee57806362fa11fc1461020357806368141f2c1461024357806372c628ef14610256578063848df5401461025e575f5ffd5b806302cc919a146101415780630535fece14610160578063097063921461018c57806326795bc3146101be5780632df8e91e146101c5575b5f5ffd5b610149600281565b60405160ff90911681526020015b60405180910390f35b61017361016e3660046122a0565b610370565b6040516101579d9c9b9a999897969594939291906123af565b6002546101a690600160401b90046001600160a01b031681565b6040516001600160a01b039091168152602001610157565b6101495f81565b6101d86101d33660046124d7565b6105ad565b604051908152602001610157565b6101d8610770565b6102016101fc36600461259f565b6107eb565b005b61022b6102113660046125c9565b60016020525f90815260409020546001600160401b031681565b6040516001600160401b039091168152602001610157565b6101d86102513660046125c9565b6109e8565b610149600481565b60025461026e9063ffffffff1681565b60405163ffffffff9091168152602001610157565b6102966102913660046122a0565b610a41565b6040516101579190612629565b6003546101a6906001600160a01b031681565b6102016102c436600461272b565b610d47565b6101d86102d73660046122a0565b611070565b60025461026e90640100000000900463ffffffff1681565b6102016103023660046127a2565b611388565b60035461026e90600160a01b900463ffffffff1681565b60035461033290600160c01b900460ff1681565b6040519015158152602001610157565b61020161035036600461272b565b61153a565b6102016103633660046127c2565b61182a565b6101d8611a90565b5f60208181529181526040908190208054825180840190935260018201548352600282015493830193909352600381015460058201546006830154600784015460088501546009860154600a870154600b8801805460ff8c169b61010090046001600160a01b03169a9991906103e590612805565b80601f016020809104026020016040519081016040528092919081815260200182805461041190612805565b801561045c5780601f106104335761010080835404028352916020019161045c565b820191905f5260205f20905b81548152906001019060200180831161043f57829003601f168201915b5050604080516101008082018352600c88015460ff80821615158452918104821615156020840152620100008104821683850152630100000090048116606080840191909152600d8901546080840152600e89015460a0840152600f89015460c0840152601089015460e084015283519081019093526011880180549798929792965092945091925083911660028111156104f9576104f96122b7565b600281111561050a5761050a6122b7565b81526020016001820154815260200160028201805461052890612805565b80601f016020809104026020016040519081016040528092919081815260200182805461055490612805565b801561059f5780601f106105765761010080835404028352916020019161059f565b820191905f5260205f20905b81548152906001019060200180831161058257829003601f168201915b50505050508152505090508d565b600354335f818152600160205260408082205491936001600160401b03909216600160a01b909204901b63ffffffff60401b16606083901b17176105f681838e8e8e8e8e611ad7565b5f81815260208190526040902080548d90829060ff19166001836004811115610621576106216122b7565b0217905550600581018c9055600681018b90558054610100600160a81b0319166101006001600160a01b03851602178155853560018201556020860135600282015560038101859055600b8101610679888a83612894565b5089600c82016106898282612977565b508990506011820161069b8282612a85565b50504360098201556002805463ffffffff16905f6106b883612b23565b825463ffffffff9182166101009390930a9283029190920219909116179055506001600160a01b0383165f90815260016020526040812080546001600160401b03169161070483612b47565b91906101000a8154816001600160401b0302191690836001600160401b0316021790555050826001600160a01b0316827fada6f87a2a16a0c9c169ca36754c5f33f7c1a973b575d068f888a549ed4faefa60405160405180910390a3509b9a5050505050505050505050565b5f600260089054906101000a90046001600160a01b03166001600160a01b031663233ace116040518163ffffffff1660e01b8152600401602060405180830381865afa1580156107c2573d5f5f3e3d5ffd5b505050506040513d601f19601f820116820180604052508101906107e69190612b68565b905090565b816108095760405163cbf4a64560e01b815260040160405180910390fd5b600354604083901c63ffffffff908116600160a01b909204161461084057604051632299770d60e11b815260040160405180910390fd5b60048181811115610853576108536122b7565b60ff161115610875576040516307a92f1960e51b815260040160405180910390fd5b5f828152602081905260409020805461010090046001600160a01b03166108af57604051634d36eb6960e01b815260040160405180910390fd5b805461010090046001600160a01b031633146108dd576040516282b42960e81b815260040160405180910390fd5b805460ff166108ec8184611d3e565b610909576040516307a92f1960e51b815260040160405180910390fd5b81548390839060ff19166001836004811115610927576109276122b7565b02179055506001836004811115610940576109406122b7565b036109a8575f826005015442106109675760058301546109609042612b7f565b905061096a565b505f5b6006830181905560405181815285907f0f759826327c668a220d576485ac38ddc4f83fbc414b984c00e79f669b649f469060200160405180910390a2505b837f2f25f350b681441b5bb45430fbe61e78d0170cff4ad02cb0aa48a6427909aa8c82856040516109da929190612b92565b60405180910390a250505050565b6003546001600160a01b0382165f908152600160205260408082205491926001600160401b03909216600160a01b909204901b63ffffffff60401b16606084901b6bffffffffffffffffffffffff191617175b92915050565b610a49612152565b5f828152602081905260409081902081516101c081019092528054829060ff166004811115610a7a57610a7a6122b7565b6004811115610a8b57610a8b6122b7565b8152815461010090046001600160a01b03166020808301919091526040805180820182526001850154815260028501548184015281840152600384015460608401526004840180548251818502810185019093528083526080909401939192909190830182828015610b1a57602002820191905f5260205f20905b815481526020019060010190808311610b06575b505050505081526020016005820154815260200160068201548152602001600782015481526020016008820154815260200160098201548152602001600a8201548152602001600b82018054610b6f90612805565b80601f0160208091040260200160405190810160405280929190818152602001828054610b9b90612805565b8015610be65780601f10610bbd57610100808354040283529160200191610be6565b820191905f5260205f20905b815481529060010190602001808311610bc957829003601f168201915b5050509183525050604080516101008082018352600c85015460ff808216151584529181048216151560208481019190915262010000820483168486015263010000009091048216606080850191909152600d8701546080850152600e87015460a0850152600f87015460c0850152601087015460e08501529085019290925282519182018352601185018054939094019391928391166002811115610c8e57610c8e6122b7565b6002811115610c9f57610c9f6122b7565b815260200160018201548152602001600282018054610cbd90612805565b80601f0160208091040260200160405190810160405280929190818152602001828054610ce990612805565b8015610d345780601f10610d0b57610100808354040283529160200191610d34565b820191905f5260205f20905b815481529060010190602001808311610d1757829003601f168201915b5050509190925250505090525092915050565b84610d655760405163cbf4a64560e01b815260040160405180910390fd5b600354604086901c63ffffffff908116600160a01b9092041614610d9c57604051632299770d60e11b815260040160405180910390fd5b5f858152602081905260409020805461010090046001600160a01b0316610dd657604051634d36eb6960e01b815260040160405180910390fd5b6002815460ff166004811115610dee57610dee6122b7565b1480610e0f57506004815460ff166004811115610e0d57610e0d6122b7565b145b15610e2d576040516307a92f1960e51b815260040160405180910390fd5b6001815460ff166004811115610e4557610e456122b7565b14158015610e6557504281600601548260050154610e639190612bad565b115b15610e835760405163e843c5eb60e01b815260040160405180910390fd5b8054600354604051635c73957b60e11b815260ff909216916001600160a01b039091169063b8e72af690610ec1908990899089908990600401612be8565b5f6040518083038186803b158015610ed7575f5ffd5b505afa158015610ee9573d5f5f3e3d5ffd5b505f9250610efc91505084860186612c49565b6003840154815191925014610f2457604051630b6fac0360e41b815260040160405180910390fd5b5f610f3160016009612b7f565b6001600160401b03811115610f4857610f48612837565b604051908082528060200260200182016040528015610f71578160200160208202803683370190505b50905060015b6009811015610fc657828160098110610f9257610f92612cb0565b602002015182610fa3600184612b7f565b81518110610fb357610fb3612cb0565b6020908102919091010152600101610f77565b50835460ff1916600490811785558151610fe7918601906020840190612243565b50887f2f25f350b681441b5bb45430fbe61e78d0170cff4ad02cb0aa48a6427909aa8c84600460405161101b929190612b92565b60405180910390a2336001600160a01b0316897f5da8009aeb11de7ef64598b0de897a03d2f93efabda8507a70e29cca4530cf5d8360405161105d9190612cc4565b60405180910390a3505050505050505050565b5f8181526020819052604080822081516101c08101909252805483929190829060ff1660048111156110a4576110a46122b7565b60048111156110b5576110b56122b7565b8152815461010090046001600160a01b0316602080830191909152604080518082018252600185015481526002850154818401528184015260038401546060840152600484018054825181850281018501909352808352608090940193919290919083018282801561114457602002820191905f5260205f20905b815481526020019060010190808311611130575b505050505081526020016005820154815260200160068201548152602001600782015481526020016008820154815260200160098201548152602001600a8201548152602001600b8201805461119990612805565b80601f01602080910402602001604051908101604052809291908181526020018280546111c590612805565b80156112105780601f106111e757610100808354040283529160200191611210565b820191905f5260205f20905b8154815290600101906020018083116111f357829003601f168201915b5050509183525050604080516101008082018352600c85015460ff808216151584529181048216151560208481019190915262010000820483168486015263010000009091048216606080850191909152600d8701546080850152600e87015460a0850152600f87015460c0850152601087015460e085015290850192909252825191820183526011850180549390940193919283911660028111156112b8576112b86122b7565b60028111156112c9576112c96122b7565b8152602001600182015481526020016002820180546112e790612805565b80601f016020809104026020016040519081016040528092919081815260200182805461131390612805565b801561135e5780601f106113355761010080835404028352916020019161135e565b820191905f5260205f20905b81548152906001019060200180831161134157829003601f168201915b5050505050815250508152505090508060c001518160a001516113819190612bad565b9392505050565b816113a65760405163cbf4a64560e01b815260040160405180910390fd5b600354604083901c63ffffffff908116600160a01b90920416146113dd57604051632299770d60e11b815260040160405180910390fd5b5f828152602081905260409020805461010090046001600160a01b031661141757604051634d36eb6960e01b815260040160405180910390fd5b805461010090046001600160a01b03163314611445576040516282b42960e81b815260040160405180910390fd5b805460ff165f81600481111561145d5761145d6122b7565b1415801561147d5750600381600481111561147a5761147a6122b7565b14155b1561149b576040516307a92f1960e51b815260040160405180910390fd5b600582015460068301548415806114bb5750426114b88684612bad565b11155b806114d857506114cb8183612bad565b6114d58684612bad565b11155b156114f657604051637616640160e01b815260040160405180910390fd5b6006840185905560405185815286907f0f759826327c668a220d576485ac38ddc4f83fbc414b984c00e79f669b649f469060200160405180910390a2505050505050565b846115585760405163cbf4a64560e01b815260040160405180910390fd5b600354604086901c63ffffffff908116600160a01b909204161461158f57604051632299770d60e11b815260040160405180910390fd5b5f858152602081905260409020805461010090046001600160a01b03166115c957604051634d36eb6960e01b815260040160405180910390fd5b5f815460ff1660048111156115e0576115e06122b7565b146115fe576040516307a92f1960e51b815260040160405180910390fd5b42816006015482600501546116139190612bad565b116116315760405163e843c5eb60e01b815260040160405180910390fd5b5f808061164085870187612d66565b6003870154835193965091945092501461166d57604051630b6fac0360e41b815260040160405180910390fd5b600354600160c01b900460ff161561171d575f61168983611e5c565b905061169481611ecf565b60a084015160c08086015160e08701516101008801516101208901515f946001600160401b0390941660409390931b6fffffffffffffffff00000000000000001660809290921b67ffffffffffffffff60801b16931b6001600160c01b03191692909217919091171790505f61170d8484848989611edb565b905061171881611f84565b505050505b600254604051635c73957b60e11b8152600160401b9091046001600160a01b03169063b8e72af690611759908b908b908b908b90600401612be8565b5f6040518083038186803b15801561176f575f5ffd5b505afa158015611781573d5f5f3e3d5ffd5b50505050826001600a811061179857611798612cb0565b6020020151600385015560408301516007850180545f906117ba908490612bad565b909155505060608301516008850180545f906117d7908490612bad565b9091555050600a84018054905f6117ed83612e1c565b909155505060208084015160405190815233918b917fdc9b2774f92abfeee93d8b2ef67d59cd90c2d6d740b01c24fd9ec109a71865fc910161105d565b816118485760405163cbf4a64560e01b815260040160405180910390fd5b600354604083901c63ffffffff908116600160a01b909204161461187f57604051632299770d60e11b815260040160405180910390fd5b5f828152602081905260409020805461010090046001600160a01b03166118b957604051634d36eb6960e01b815260040160405180910390fd5b805461010090046001600160a01b031633146118e7576040516282b42960e81b815260040160405180910390fd5b6118f46020830183612e34565b6002811115611905576119056122b7565b601182015460ff16600281111561191e5761191e6122b7565b1461193c5760405163f37f7b5d60e01b815260040160405180910390fd5b602082013561195e57604051635e32eadd60e01b815260040160405180910390fd5b61196b6040830183612a43565b90505f0361198c57604051630f8b932160e11b815260040160405180910390fd5b5f815460ff1660048111156119a3576119a36122b7565b141580156119c757506003815460ff1660048111156119c4576119c46122b7565b14155b156119e5576040516307a92f1960e51b815260040160405180910390fd5b42816006015482600501546119fa9190612bad565b11611a185760405163e843c5eb60e01b815260040160405180910390fd5b60208201356012820155611a2f6040830183612a43565b6013830191611a3f919083612894565b50827f87e1c82bc035c552e997ec2f1cf023790ced0cc01098d516dc6e7200835ffb276020840135611a746040860186612a43565b604051611a8393929190612e4f565b60405180910390a2505050565b6003546040805163233ace1160e01b815290515f926001600160a01b03169163233ace119160048083019260209291908290030181865afa1580156107c2573d5f5f3e3d5ffd5b5f878152602081905260409020546001600160a01b038088166101009092041603611b1557604051635040c4d360e11b815260040160405180910390fd5b611b256060830160408401612e68565b60ff161580611b4657506008611b416060840160408501612e68565b60ff16115b15611b645760405163ac38930b60e01b815260040160405180910390fd5b61ffff8260c001351115611b8b57604051634dba795160e01b815260040160405180910390fd5b81608001358260a001351115611bb45760405163207ea56d60e01b815260040160405180910390fd5b8160c001358260e001351115611bdd57604051636d403ec760e11b815260040160405180910390fd5b6002611bec6020830183612e34565b6002811115611bfd57611bfd6122b7565b60ff161115611c1f5760405163f37f7b5d60e01b815260040160405180910390fd5b6020810135611c4157604051635e32eadd60e01b815260040160405180910390fd5b611c4e6040820182612a43565b90505f03611c6f57604051630f8b932160e11b815260040160405180910390fd5b60048581811115611c8257611c826122b7565b60ff161180611cbf57505f856004811115611c9f57611c9f6122b7565b14158015611cbf57506003856004811115611cbc57611cbc6122b7565b14155b15611cdd576040516307a92f1960e51b815260040160405180910390fd5b425f859003611cea578094505b80851015611d0b57604051632ca4094f60e21b815260040160405180910390fd5b80611d168587612bad565b11611d3457604051637616640160e01b815260040160405180910390fd5b5050505050505050565b5f826004811115611d5157611d516122b7565b826004811115611d6357611d636122b7565b03611d6f57505f610a3b565b6002836004811115611d8357611d836122b7565b1480611da057506004836004811115611d9e57611d9e6122b7565b145b80611dbc57506001836004811115611dba57611dba6122b7565b145b15611dc857505f610a3b565b5f836004811115611ddb57611ddb6122b7565b03611e355760035b826004811115611df557611df56122b7565b1480611e1257506002826004811115611e1057611e106122b7565b145b80611e2e57506001826004811115611e2c57611e2c6122b7565b145b9050610a3b565b6003836004811115611e4957611e496122b7565b03611e54575f611de3565b505f92915050565b5f81515f03611e6c57505f919050565b600282604051611e7c9190612e9a565b602060405180830381855afa158015611e97573d5f5f3e3d5ffd5b5050506040513d601f19601f82011682018060405250810190611eba9190612b68565b6001600160f81b0316600160f81b1792915050565b611ed881612113565b50565b60606030835114611f115782516040516356b5c1b760e01b81526004810191909152603060248201526044015b60405180910390fd5b6030825114611f40578151604051636f3ac93f60e01b8152600481019190915260306024820152604401611f08565b8585858585604051602001611f59959493929190612ea5565b604051602081830303815290604052905060c0815114611f7b57611f7b612ecb565b95945050505050565b60c0815114611fb357805160405163295ebbbf60e21b8152600481019190915260c06024820152604401611f08565b5f5f600a6001600160a01b031683604051611fce9190612e9a565b5f60405180830381855afa9150503d805f8114612006576040519150601f19603f3d011682016040523d82523d5f602084013e61200b565b606091505b50915091508161202e57604051634187683560e01b815260040160405180910390fd5b604081511461205c5780516040805163aef3a5a960e01b815260048101929092526024820152604401611f08565b5f5f828060200190518101906120729190612edf565b9150915061100082146120a35760405163f4f0d4bf60e01b8152600481018390526110006024820152604401611f08565b7f73eda753299d7d483339d80809a1d80553bda402fffe5bfeffffffff00000001811461210c57604051632855e60d60e11b8152600481018290527f73eda753299d7d483339d80809a1d80553bda402fffe5bfeffffffff000000016024820152604401611f08565b5050505050565b5f5b80498061213557604051630110b90960e61b815260040160405180910390fd5b82810361214157505050565b5061214b81612e1c565b9050612115565b604080516101c08101909152805f81526020015f6001600160a01b0316815260200161218f60405180604001604052805f81526020015f81525090565b81526020015f8152602001606081526020015f81526020015f81526020015f81526020015f81526020015f81526020015f8152602001606081526020016122166040518061010001604052805f151581526020015f151581526020015f60ff1681526020015f60ff1681526020015f81526020015f81526020015f81526020015f81525090565b815260200161223e6040805160608101909152805f81526020015f8152602001606081525090565b905290565b828054828255905f5260205f2090810192821561227c579160200282015b8281111561227c578251825591602001919060010190612261565b5061228892915061228c565b5090565b5b80821115612288575f815560010161228d565b5f602082840312156122b0575f5ffd5b5035919050565b634e487b7160e01b5f52602160045260245ffd5b600581106122db576122db6122b7565b9052565b5f81518084528060208401602086015e5f602082860101526020601f19601f83011685010191505092915050565b80511515825260208101511515602083015260ff60408201511660408301526060810151612340606084018260ff169052565b506080810151608083015260a081015160a083015260c081015160c083015260e081015160e08301525050565b5f815160038110612380576123806122b7565b80845250602082015160208401526040820151606060408501526123a760608501826122df565b949350505050565b6123b9818f6122cb565b6001600160a01b038d1660208201526123df604082018d80518252602090810151910152565b8a60808201528960a08201528860c08201528760e08201528661010082015285610120820152846101408201526102a06101608201525f6124246102a08301866122df565b61243261018084018661230d565b828103610280840152612445818561236d565b9150509e9d5050505050505050505050505050565b803560058110612468575f5ffd5b919050565b5f6060828403121561247d575f5ffd5b50919050565b5f5f83601f840112612493575f5ffd5b5081356001600160401b038111156124a9575f5ffd5b6020830191508360208285010111156124c0575f5ffd5b9250929050565b5f6040828403121561247d575f5ffd5b5f5f5f5f5f5f5f5f5f898b036102008112156124f1575f5ffd5b6124fa8b61245a565b995060208b0135985060408b01359750610100605f198201121561251c575f5ffd5b5060608a0195506101608a01356001600160401b0381111561253c575f5ffd5b6125488c828d0161246d565b9550506101808a01356001600160401b03811115612564575f5ffd5b6125708c828d01612483565b909550935061258590508b6101a08c016124c7565b989b979a5095989497939692955090936101e00135919050565b5f5f604083850312156125b0575f5ffd5b823591506125c06020840161245a565b90509250929050565b5f602082840312156125d9575f5ffd5b81356001600160a01b0381168114611381575f5ffd5b5f8151808452602084019350602083015f5b8281101561261f578151865260209586019590910190600101612601565b5093949350505050565b6020815261263b6020820183516122cb565b5f602083015161265660408401826001600160a01b03169052565b506040830151805160608401526020810151608084015250606083015160a083015260808301516102c060c08401526126936102e08401826125ef565b905060a084015160e084015260c084015161010084015260e0840151610120840152610100840151610140840152610120840151610160840152610140840151610180840152610160840151601f19848303016101a08501526126f682826122df565b91505061018084015161270d6101c085018261230d565b506101a0840151838203601f19016102c0850152611f7b828261236d565b5f5f5f5f5f6060868803121561273f575f5ffd5b8535945060208601356001600160401b0381111561275b575f5ffd5b61276788828901612483565b90955093505060408601356001600160401b03811115612785575f5ffd5b61279188828901612483565b969995985093965092949392505050565b5f5f604083850312156127b3575f5ffd5b50508035926020909101359150565b5f5f604083850312156127d3575f5ffd5b8235915060208301356001600160401b038111156127ef575f5ffd5b6127fb8582860161246d565b9150509250929050565b600181811c9082168061281957607f821691505b60208210810361247d57634e487b7160e01b5f52602260045260245ffd5b634e487b7160e01b5f52604160045260245ffd5b601f82111561288f57805f5260205f20601f840160051c810160208510156128705750805b601f840160051c820191505b8181101561210c575f815560010161287c565b505050565b6001600160401b038311156128ab576128ab612837565b6128bf836128b98354612805565b8361284b565b5f601f8411600181146128f0575f85156128d95750838201355b5f19600387901b1c1916600186901b17835561210c565b5f83815260208120601f198716915b8281101561291f57868501358255602094850194600190920191016128ff565b508682101561293b575f1960f88860031b161c19848701351681555b505060018560011b0183555050505050565b5f81358015158114610a3b575f5ffd5b60ff81168114611ed8575f5ffd5b5f8135610a3b8161295d565b6129808261294d565b151560ff1982541660ff82168117835550506129bb6129a16020840161294d565b82805461ff00191691151560081b61ff0016919091179055565b6129e26129ca6040840161296b565b825462ff0000191660109190911b62ff000016178255565b612a0b6129f16060840161296b565b825463ff000000191660189190911b63ff00000016178255565b6080820135600182015560a0820135600282015560c0820135600382015560e090910135600490910155565b60038110611ed8575f5ffd5b5f5f8335601e19843603018112612a58575f5ffd5b8301803591506001600160401b03821115612a71575f5ffd5b6020019150368190038213156124c0575f5ffd5b8135612a9081612a37565b60038110612aa057612aa06122b7565b60ff1982541660ff8216811783555050602082013560018201556040820135601e19833603018112612ad0575f5ffd5b820180356001600160401b03811115612ae7575f5ffd5b602082019150803603821315612afb575f5ffd5b612b09818360028601612894565b50505050565b634e487b7160e01b5f52601160045260245ffd5b5f63ffffffff821663ffffffff8103612b3e57612b3e612b0f565b60010192915050565b5f6001600160401b0382166001600160401b038103612b3e57612b3e612b0f565b5f60208284031215612b78575f5ffd5b5051919050565b81810381811115610a3b57610a3b612b0f565b60408101612ba082856122cb565b61138160208301846122cb565b80820180821115610a3b57610a3b612b0f565b81835281816020850137505f828201602090810191909152601f909101601f19169091010190565b604081525f612bfb604083018688612bc0565b8281036020840152612c0e818587612bc0565b979650505050505050565b604051601f8201601f191681016001600160401b0381118282101715612c4157612c41612837565b604052919050565b5f6101208284031215612c5a575f5ffd5b5f83601f840112612c69575f5ffd5b505f80610120612c7881612c19565b9250829150840185811115612c8b575f5ffd5b845b81811015612ca5578035845260209384019301612c8d565b509095945050505050565b634e487b7160e01b5f52603260045260245ffd5b602080825282518282018190525f918401906040840190835b81811015612ca5578351835260209384019390920191600101612cdd565b5f82601f830112612d0a575f5ffd5b81356001600160401b03811115612d2357612d23612837565b612d36601f8201601f1916602001612c19565b818152846020838601011115612d4a575f5ffd5b816020850160208301375f918101602001919091529392505050565b5f5f5f6101808486031215612d79575f5ffd5b5f85601f860112612d88575f5ffd5b505f80610140612d9781612c19565b9250829150860187811115612daa575f5ffd5b865b81811015612dc4578035845260209384019301612dac565b509094503590506001600160401b03811115612dde575f5ffd5b612dea86828701612cfb565b9250506101608401356001600160401b03811115612e06575f5ffd5b612e1286828701612cfb565b9150509250925092565b5f60018201612e2d57612e2d612b0f565b5060010190565b5f60208284031215612e44575f5ffd5b813561138181612a37565b838152604060208201525f611f7b604083018486612bc0565b5f60208284031215612e78575f5ffd5b81356113818161295d565b5f81518060208401855e5f93019283525090919050565b5f6113818284612e83565b8581528460208201528360408201525f612c0e612ec56060840186612e83565b84612e83565b634e487b7160e01b5f52600160045260245ffd5b5f5f60408385031215612ef0575f5ffd5b50508051602090910151909290915056fea26469706673582212205a2d3d159bcd1a35d1d62cfa9708abfac6d92ae178785e22c92f55c5c1f27b1364736f6c634300081c0033",
  "linkReferences": {},
  "deployedLinkReferences": {}
}