{
  "_format": "hh-sol-artifact-1",
  "contractName": "ProcessRegistry",
  "sourceName": "src/ProcessRegistry.sol",
  "abi": [
    {
      "inputs": [
        {
          "internalType": "uint32",
          "name": "_chainID",
          "type": "uint32"
        },
        {
          "internalType": "address",
          "name": "_stVerifier",
          "type": "address"
        },
        {
          "internalType": "address",
          "name": "_rVerifier",
          "type": "address"
        }
      ],
      "stateMutability": "nonpayable",
      "type": "constructor"
    },
    {
      "inputs": [],
      "name": "BlobVerificationFailed",
      "type": "error"
    },
    {
      "inputs": [],
      "name": "CannotAcceptResult",
      "type": "error"
    },
    {
      "inputs": [],
      "name": "InvalidBlobHash",
      "type": "error"
    },
    {
      "inputs": [],
      "name": "InvalidCensusOrigin",
      "type": "error"
    },
    {
      "inputs": [],
      "name": "InvalidCensusRoot",
      "type": "error"
    },
    {
      "inputs": [],
      "name": "InvalidCensusURI",
      "type": "error"
    },
    {
      "inputs": [],
      "name": "InvalidDuration",
      "type": "error"
    },
    {
      "inputs": [],
      "name": "InvalidMaxCount",
      "type": "error"
    },
    {
      "inputs": [],
      "name": "InvalidMaxMinValueBounds",
      "type": "error"
    },
    {
      "inputs": [],
      "name": "InvalidMaxValue",
      "type": "error"
    },
    {
      "inputs": [],
      "name": "InvalidMaxValueSum",
      "type": "error"
    },
    {
      "inputs": [],
      "name": "InvalidMaxVotes",
      "type": "error"
    },
    {
      "inputs": [],
      "name": "InvalidMinTotalCost",
      "type": "error"
    },
    {
      "inputs": [],
      "name": "InvalidMinValue",
      "type": "error"
    },
    {
      "inputs": [],
      "name": "InvalidProcessId",
      "type": "error"
    },
    {
      "inputs": [],
      "name": "InvalidStartTime",
      "type": "error"
    },
    {
      "inputs": [],
      "name": "InvalidStateRoot",
      "type": "error"
    },
    {
      "inputs": [],
      "name": "InvalidStatus",
      "type": "error"
    },
    {
      "inputs": [],
      "name": "InvalidTimeBounds",
      "type": "error"
    },
    {
      "inputs": [],
      "name": "InvalidUniqueValues",
      "type": "error"
    },
    {
      "inputs": [],
      "name": "InvalidValueSumBounds",
      "type": "error"
    },
    {
      "inputs": [],
      "name": "ProcessAlreadyExists",
      "type": "error"
    },
    {
      "inputs": [],
      "name": "ProcessNotEnded",
      "type": "error"
    },
    {
      "inputs": [],
      "name": "ProcessNotFound",
      "type": "error"
    },
    {
      "inputs": [],
      "name": "ProofInvalid",
      "type": "error"
    },
    {
      "inputs": [],
      "name": "Unauthorized",
      "type": "error"
    },
    {
      "inputs": [],
      "name": "UnknownProcessIdPrefix",
      "type": "error"
    },
    {
      "anonymous": false,
      "inputs": [
        {
          "indexed": true,
          "internalType": "bytes32",
          "name": "processId",
          "type": "bytes32"
        },
        {
          "indexed": false,
          "internalType": "bytes32",
          "name": "censusRoot",
          "type": "bytes32"
        },
        {
          "indexed": false,
          "internalType": "string",
          "name": "censusURI",
          "type": "string"
        },
        {
          "indexed": false,
          "internalType": "uint256",
          "name": "maxVotes",
          "type": "uint256"
        }
      ],
      "name": "CensusUpdated",
      "type": "event"
    },
    {
      "anonymous": false,
      "inputs": [
        {
          "indexed": true,
          "internalType": "bytes32",
          "name": "processId",
          "type": "bytes32"
        },
        {
          "indexed": true,
          "internalType": "address",
          "name": "creator",
          "type": "address"
        }
      ],
      "name": "ProcessCreated",
      "type": "event"
    },
    {
      "anonymous": false,
      "inputs": [
        {
          "indexed": true,
          "internalType": "bytes32",
          "name": "processId",
          "type": "bytes32"
        },
        {
          "indexed": false,
          "internalType": "uint256",
          "name": "duration",
          "type": "uint256"
        }
      ],
      "name": "ProcessDurationChanged",
      "type": "event"
    },
    {
      "anonymous": false,
      "inputs": [
        {
          "indexed": true,
          "internalType": "bytes32",
          "name": "processId",
          "type": "bytes32"
        },
        {
          "indexed": true,
          "internalType": "address",
          "name": "sender",
          "type": "address"
        },
        {
          "indexed": false,
          "internalType": "uint256[]",
          "name": "result",
          "type": "uint256[]"
        }
      ],
      "name": "ProcessResultsSet",
      "type": "event"
    },
    {
      "anonymous": false,
      "inputs": [
        {
          "indexed": true,
          "internalType": "bytes32",
          "name": "processId",
          "type": "bytes32"
        },
        {
          "indexed": true,
          "internalType": "address",
          "name": "sender",
          "type": "address"
        },
        {
          "indexed": false,
          "internalType": "uint256",
          "name": "newStateRoot",
          "type": "uint256"
        }
      ],
      "name": "ProcessStateRootUpdated",
      "type": "event"
    },
    {
      "anonymous": false,
      "inputs": [
        {
          "indexed": true,
          "internalType": "bytes32",
          "name": "processId",
          "type": "bytes32"
        },
        {
          "indexed": false,
          "internalType": "enum IProcessRegistry.ProcessStatus",
          "name": "oldStatus",
          "type": "uint8"
        },
        {
          "indexed": false,
          "internalType": "enum IProcessRegistry.ProcessStatus",
          "name": "newStatus",
          "type": "uint8"
        }
      ],
      "name": "ProcessStatusChanged",
      "type": "event"
    },
    {
      "inputs": [],
      "name": "BLOB_INDEX",
      "outputs": [
        {
          "internalType": "uint8",
          "name": "",
          "type": "uint8"
        }
      ],
      "stateMutability": "view",
      "type": "function"
    },
    {
      "inputs": [],
      "name": "MAX_CENSUS_ORIGIN",
      "outputs": [
        {
          "internalType": "uint8",
          "name": "",
          "type": "uint8"
        }
      ],
      "stateMutability": "view",
      "type": "function"
    },
    {
      "inputs": [],
      "name": "MAX_STATUS",
      "outputs": [
        {
          "internalType": "uint8",
          "name": "",
          "type": "uint8"
        }
      ],
      "stateMutability": "view",
      "type": "function"
    },
    {
      "inputs": [],
      "name": "chainID",
      "outputs": [
        {
          "internalType": "uint32",
          "name": "",
          "type": "uint32"
        }
      ],
      "stateMutability": "view",
      "type": "function"
    },
    {
      "inputs": [
        {
          "internalType": "address",
          "name": "organizationId",
          "type": "address"
        }
      ],
      "name": "getNextProcessId",
      "outputs": [
        {
          "internalType": "bytes32",
          "name": "",
          "type": "bytes32"
        }
      ],
      "stateMutability": "view",
      "type": "function"
    },
    {
      "inputs": [
        {
          "internalType": "bytes32",
          "name": "processId",
          "type": "bytes32"
        }
      ],
      "name": "getProcess",
      "outputs": [
        {
          "components": [
            {
              "internalType": "enum IProcessRegistry.ProcessStatus",
              "name": "status",
              "type": "uint8"
            },
            {
              "internalType": "address",
              "name": "organizationId",
              "type": "address"
            },
            {
              "components": [
                {
                  "internalType": "uint256",
                  "name": "x",
                  "type": "uint256"
                },
                {
                  "internalType": "uint256",
                  "name": "y",
                  "type": "uint256"
                }
              ],
              "internalType": "struct IProcessRegistry.EncryptionKey",
              "name": "encryptionKey",
              "type": "tuple"
            },
            {
              "internalType": "uint256",
              "name": "latestStateRoot",
              "type": "uint256"
            },
            {
              "internalType": "uint256[]",
              "name": "result",
              "type": "uint256[]"
            },
            {
              "internalType": "uint256",
              "name": "startTime",
              "type": "uint256"
            },
            {
              "internalType": "uint256",
              "name": "duration",
              "type": "uint256"
            },
            {
              "internalType": "uint256",
              "name": "voteCount",
              "type": "uint256"
            },
            {
              "internalType": "uint256",
              "name": "voteOverwriteCount",
              "type": "uint256"
            },
            {
              "internalType": "uint256",
              "name": "creationBlock",
              "type": "uint256"
            },
            {
              "internalType": "uint256",
              "name": "batchNumber",
              "type": "uint256"
            },
            {
              "internalType": "string",
              "name": "metadataURI",
              "type": "string"
            },
            {
              "components": [
                {
                  "internalType": "bool",
                  "name": "costFromWeight",
                  "type": "bool"
                },
                {
                  "internalType": "bool",
                  "name": "uniqueValues",
                  "type": "bool"
                },
                {
                  "internalType": "uint8",
                  "name": "numFields",
                  "type": "uint8"
                },
                {
                  "internalType": "uint8",
                  "name": "costExponent",
                  "type": "uint8"
                },
                {
                  "internalType": "uint256",
                  "name": "maxValue",
                  "type": "uint256"
                },
                {
                  "internalType": "uint256",
                  "name": "minValue",
                  "type": "uint256"
                },
                {
                  "internalType": "uint256",
                  "name": "maxValueSum",
                  "type": "uint256"
                },
                {
                  "internalType": "uint256",
                  "name": "minValueSum",
                  "type": "uint256"
                }
              ],
              "internalType": "struct IProcessRegistry.BallotMode",
              "name": "ballotMode",
              "type": "tuple"
            },
            {
              "components": [
                {
                  "internalType": "enum IProcessRegistry.CensusOrigin",
                  "name": "censusOrigin",
                  "type": "uint8"
                },
                {
                  "internalType": "uint256",
                  "name": "maxVotes",
                  "type": "uint256"
                },
                {
                  "internalType": "bytes32",
                  "name": "censusRoot",
                  "type": "bytes32"
                },
                {
                  "internalType": "string",
                  "name": "censusURI",
                  "type": "string"
                }
              ],
              "internalType": "struct IProcessRegistry.Census",
              "name": "census",
              "type": "tuple"
            }
          ],
          "internalType": "struct IProcessRegistry.Process",
          "name": "",
          "type": "tuple"
        }
      ],
      "stateMutability": "view",
      "type": "function"
    },
    {
      "inputs": [
        {
          "internalType": "bytes32",
          "name": "processId",
          "type": "bytes32"
        }
      ],
      "name": "getProcessEndTime",
      "outputs": [
        {
          "internalType": "uint256",
          "name": "",
          "type": "uint256"
        }
      ],
      "stateMutability": "view",
      "type": "function"
    },
    {
      "inputs": [],
      "name": "getRVerifierVKeyHash",
      "outputs": [
        {
          "internalType": "bytes32",
          "name": "",
          "type": "bytes32"
        }
      ],
      "stateMutability": "view",
      "type": "function"
    },
    {
      "inputs": [],
      "name": "getSTVerifierVKeyHash",
      "outputs": [
        {
          "internalType": "bytes32",
          "name": "",
          "type": "bytes32"
        }
      ],
      "stateMutability": "view",
      "type": "function"
    },
    {
      "inputs": [
        {
          "internalType": "enum IProcessRegistry.ProcessStatus",
          "name": "status",
          "type": "uint8"
        },
        {
          "internalType": "uint256",
          "name": "startTime",
          "type": "uint256"
        },
        {
          "internalType": "uint256",
          "name": "duration",
          "type": "uint256"
        },
        {
          "components": [
            {
              "internalType": "bool",
              "name": "costFromWeight",
              "type": "bool"
            },
            {
              "internalType": "bool",
              "name": "uniqueValues",
              "type": "bool"
            },
            {
              "internalType": "uint8",
              "name": "numFields",
              "type": "uint8"
            },
            {
              "internalType": "uint8",
              "name": "costExponent",
              "type": "uint8"
            },
            {
              "internalType": "uint256",
              "name": "maxValue",
              "type": "uint256"
            },
            {
              "internalType": "uint256",
              "name": "minValue",
              "type": "uint256"
            },
            {
              "internalType": "uint256",
              "name": "maxValueSum",
              "type": "uint256"
            },
            {
              "internalType": "uint256",
              "name": "minValueSum",
              "type": "uint256"
            }
          ],
          "internalType": "struct IProcessRegistry.BallotMode",
          "name": "ballotMode",
          "type": "tuple"
        },
        {
          "components": [
            {
              "internalType": "enum IProcessRegistry.CensusOrigin",
              "name": "censusOrigin",
              "type": "uint8"
            },
            {
              "internalType": "uint256",
              "name": "maxVotes",
              "type": "uint256"
            },
            {
              "internalType": "bytes32",
              "name": "censusRoot",
              "type": "bytes32"
            },
            {
              "internalType": "string",
              "name": "censusURI",
              "type": "string"
            }
          ],
          "internalType": "struct IProcessRegistry.Census",
          "name": "census",
          "type": "tuple"
        },
        {
          "internalType": "string",
          "name": "metadata",
          "type": "string"
        },
        {
          "components": [
            {
              "internalType": "uint256",
              "name": "x",
              "type": "uint256"
            },
            {
              "internalType": "uint256",
              "name": "y",
              "type": "uint256"
            }
          ],
          "internalType": "struct IProcessRegistry.EncryptionKey",
          "name": "encryptionKey",
          "type": "tuple"
        },
        {
          "internalType": "uint256",
          "name": "initStateRoot",
          "type": "uint256"
        }
      ],
      "name": "newProcess",
      "outputs": [
        {
          "internalType": "bytes32",
          "name": "",
          "type": "bytes32"
        }
      ],
      "stateMutability": "nonpayable",
      "type": "function"
    },
    {
      "inputs": [],
      "name": "pidPrefix",
      "outputs": [
        {
          "internalType": "uint32",
          "name": "",
          "type": "uint32"
        }
      ],
      "stateMutability": "view",
      "type": "function"
    },
    {
      "inputs": [],
      "name": "processCount",
      "outputs": [
        {
          "internalType": "uint32",
          "name": "",
          "type": "uint32"
        }
      ],
      "stateMutability": "view",
      "type": "function"
    },
    {
      "inputs": [
        {
          "internalType": "address",
          "name": "",
          "type": "address"
        }
      ],
      "name": "processNonce",
      "outputs": [
        {
          "internalType": "uint64",
          "name": "",
          "type": "uint64"
        }
      ],
      "stateMutability": "view",
      "type": "function"
    },
    {
      "inputs": [
        {
          "internalType": "bytes32",
          "name": "",
          "type": "bytes32"
        }
      ],
      "name": "processes",
      "outputs": [
        {
          "internalType": "enum IProcessRegistry.ProcessStatus",
          "name": "status",
          "type": "uint8"
        },
        {
          "internalType": "address",
          "name": "organizationId",
          "type": "address"
        },
        {
          "components": [
            {
              "internalType": "uint256",
              "name": "x",
              "type": "uint256"
            },
            {
              "internalType": "uint256",
              "name": "y",
              "type": "uint256"
            }
          ],
          "internalType": "struct IProcessRegistry.EncryptionKey",
          "name": "encryptionKey",
          "type": "tuple"
        },
        {
          "internalType": "uint256",
          "name": "latestStateRoot",
          "type": "uint256"
        },
        {
          "internalType": "uint256",
          "name": "startTime",
          "type": "uint256"
        },
        {
          "internalType": "uint256",
          "name": "duration",
          "type": "uint256"
        },
        {
          "internalType": "uint256",
          "name": "voteCount",
          "type": "uint256"
        },
        {
          "internalType": "uint256",
          "name": "voteOverwriteCount",
          "type": "uint256"
        },
        {
          "internalType": "uint256",
          "name": "creationBlock",
          "type": "uint256"
        },
        {
          "internalType": "uint256",
          "name": "batchNumber",
          "type": "uint256"
        },
        {
          "internalType": "string",
          "name": "metadataURI",
          "type": "string"
        },
        {
          "components": [
            {
              "internalType": "bool",
              "name": "costFromWeight",
              "type": "bool"
            },
            {
              "internalType": "bool",
              "name": "uniqueValues",
              "type": "bool"
            },
            {
              "internalType": "uint8",
              "name": "numFields",
              "type": "uint8"
            },
            {
              "internalType": "uint8",
              "name": "costExponent",
              "type": "uint8"
            },
            {
              "internalType": "uint256",
              "name": "maxValue",
              "type": "uint256"
            },
            {
              "internalType": "uint256",
              "name": "minValue",
              "type": "uint256"
            },
            {
              "internalType": "uint256",
              "name": "maxValueSum",
              "type": "uint256"
            },
            {
              "internalType": "uint256",
              "name": "minValueSum",
              "type": "uint256"
            }
          ],
          "internalType": "struct IProcessRegistry.BallotMode",
          "name": "ballotMode",
          "type": "tuple"
        },
        {
          "components": [
            {
              "internalType": "enum IProcessRegistry.CensusOrigin",
              "name": "censusOrigin",
              "type": "uint8"
            },
            {
              "internalType": "uint256",
              "name": "maxVotes",
              "type": "uint256"
            },
            {
              "internalType": "bytes32",
              "name": "censusRoot",
              "type": "bytes32"
            },
            {
              "internalType": "string",
              "name": "censusURI",
              "type": "string"
            }
          ],
          "internalType": "struct IProcessRegistry.Census",
          "name": "census",
          "type": "tuple"
        }
      ],
      "stateMutability": "view",
      "type": "function"
    },
    {
      "inputs": [],
      "name": "rVerifier",
      "outputs": [
        {
          "internalType": "address",
          "name": "",
          "type": "address"
        }
      ],
      "stateMutability": "view",
      "type": "function"
    },
    {
      "inputs": [
        {
          "internalType": "bytes32",
          "name": "processId",
          "type": "bytes32"
        },
        {
          "components": [
            {
              "internalType": "enum IProcessRegistry.CensusOrigin",
              "name": "censusOrigin",
              "type": "uint8"
            },
            {
              "internalType": "uint256",
              "name": "maxVotes",
              "type": "uint256"
            },
            {
              "internalType": "bytes32",
              "name": "censusRoot",
              "type": "bytes32"
            },
            {
              "internalType": "string",
              "name": "censusURI",
              "type": "string"
            }
          ],
          "internalType": "struct IProcessRegistry.Census",
          "name": "census",
          "type": "tuple"
        }
      ],
      "name": "setProcessCensus",
      "outputs": [],
      "stateMutability": "nonpayable",
      "type": "function"
    },
    {
      "inputs": [
        {
          "internalType": "bytes32",
          "name": "processId",
          "type": "bytes32"
        },
        {
          "internalType": "uint256",
          "name": "_duration",
          "type": "uint256"
        }
      ],
      "name": "setProcessDuration",
      "outputs": [],
      "stateMutability": "nonpayable",
      "type": "function"
    },
    {
      "inputs": [
        {
          "internalType": "bytes32",
          "name": "processId",
          "type": "bytes32"
        },
        {
          "internalType": "bytes",
          "name": "proof",
          "type": "bytes"
        },
        {
          "internalType": "bytes",
          "name": "input",
          "type": "bytes"
        }
      ],
      "name": "setProcessResults",
      "outputs": [],
      "stateMutability": "nonpayable",
      "type": "function"
    },
    {
      "inputs": [
        {
          "internalType": "bytes32",
          "name": "processId",
          "type": "bytes32"
        },
        {
          "internalType": "enum IProcessRegistry.ProcessStatus",
          "name": "newStatus",
          "type": "uint8"
        }
      ],
      "name": "setProcessStatus",
      "outputs": [],
      "stateMutability": "nonpayable",
      "type": "function"
    },
    {
      "inputs": [],
      "name": "stVerifier",
      "outputs": [
        {
          "internalType": "address",
          "name": "",
          "type": "address"
        }
      ],
      "stateMutability": "view",
      "type": "function"
    },
    {
      "inputs": [
        {
          "internalType": "bytes32",
          "name": "processId",
          "type": "bytes32"
        },
        {
          "internalType": "bytes",
          "name": "proof",
          "type": "bytes"
        },
        {
          "internalType": "bytes",
          "name": "input",
          "type": "bytes"
        }
      ],
      "name": "submitStateTransition",
      "outputs": [],
      "stateMutability": "nonpayable",
      "type": "function"
    }
  ],
  "bytecode": "0x608060405234801561000f575f5ffd5b50604051612b6d380380612b6d83398101604081905261002e91610121565b60028054600380546001600160a01b0319166001600160a01b0385811691909117909155600160201b600160e01b0319909116680100000000000000009185169190910263ffffffff60201b19161764010000000063ffffffff8616021790556100de83306040805160e09390931b6001600160e01b03191660208085019190915260609290921b6001600160601b03191660248401528051601881850301815260389093019052815191012090565b600360146101000a81548163ffffffff021916908363ffffffff16021790555050505061016b565b80516001600160a01b038116811461011c575f5ffd5b919050565b5f5f5f60608486031215610133575f5ffd5b835163ffffffff81168114610146575f5ffd5b925061015460208501610106565b915061016260408501610106565b90509250925092565b6129f5806101785f395ff3fe608060405234801561000f575f5ffd5b5060043610610132575f3560e01c806372c628ef116100b4578063a5f01e1911610079578063a5f01e19146102d1578063adc879e9146102e4578063c718c01f146102fc578063cddf08bc1461030f578063d71d072e14610326578063f9aa449914610339575f5ffd5b806372c628ef1461025e578063848df54014610266578063992bc45b1461028b5780639c18deaf146102ab578063a5b110de146102be575f5ffd5b80634c0acc56116100fa5780634c0acc56146101db57806356a6f1e2146101e357806362fa11fc146101f857806368141f2c146102385780636bae04ea1461024b575f5ffd5b806302cc919a146101365780630535fece14610155578063097063921461018157806326795bc3146101b35780633365133c146101ba575b5f5ffd5b61013e600981565b60405160ff90911681526020015b60405180910390f35b610168610163366004611ed9565b610341565b60405161014c9d9c9b9a99989796959493929190611ff2565b60025461019b90600160401b90046001600160a01b031681565b6040516001600160a01b03909116815260200161014c565b61013e5f81565b6101cd6101c836600461211a565b610588565b60405190815260200161014c565b6101cd61074b565b6101f66101f13660046121e2565b6107c6565b005b61022061020636600461220c565b60016020525f90815260409020546001600160401b031681565b6040516001600160401b03909116815260200161014c565b6101cd61024636600461220c565b6109b2565b6101f6610259366004612232565b610a0b565b61013e600481565b6002546102769063ffffffff1681565b60405163ffffffff909116815260200161014c565b61029e610299366004611ed9565b610caa565b60405161014c91906122af565b60035461019b906001600160a01b031681565b6101f66102cc3660046123ba565b610fba565b6101cd6102df366004611ed9565b611298565b60025461027690640100000000900463ffffffff1681565b6101f661030a366004612431565b6115ba565b60035461027690600160a01b900463ffffffff1681565b6101f66103343660046123ba565b61176c565b6101cd6119a0565b5f60208181529181526040908190208054825180840190935260018201548352600282015493830193909352600381015460058201546006830154600784015460088501546009860154600a870154600b8801805460ff8c169b61010090046001600160a01b03169a9991906103b690612451565b80601f01602080910402602001604051908101604052809291908181526020018280546103e290612451565b801561042d5780601f106104045761010080835404028352916020019161042d565b820191905f5260205f20905b81548152906001019060200180831161041057829003601f168201915b5050604080516101008082018352600c88015460ff808216151584529181048216151560208401526201000081048216838501526301000000900481166060830152600d880154608080840191909152600e89015460a0840152600f89015460c0840152601089015460e084015283519081019093526011880180549798929792965092945091925083911660098111156104ca576104ca611ef0565b60098111156104db576104db611ef0565b8152602001600182015481526020016002820154815260200160038201805461050390612451565b80601f016020809104026020016040519081016040528092919081815260200182805461052f90612451565b801561057a5780601f106105515761010080835404028352916020019161057a565b820191905f5260205f20905b81548152906001019060200180831161055d57829003601f168201915b50505050508152505090508d565b600354335f818152600160205260408082205491936001600160401b03909216600160a01b909204901b63ffffffff60401b16606083901b17176105d181838e8e8e8e8e6119e7565b5f81815260208190526040902080548d90829060ff191660018360048111156105fc576105fc611ef0565b0217905550600581018c9055600681018b90558054610100600160a81b0319166101006001600160a01b03851602178155853560018201556020860135600282015560038101859055600b8101610654888a836124e3565b5089600c820161066482826125c9565b508990506011820161067682826126d7565b50504360098201556002805463ffffffff16905f6106938361277f565b825463ffffffff9182166101009390930a9283029190920219909116179055506001600160a01b0383165f90815260016020526040812080546001600160401b0316916106df836127a3565b91906101000a8154816001600160401b0302191690836001600160401b0316021790555050826001600160a01b0316827fada6f87a2a16a0c9c169ca36754c5f33f7c1a973b575d068f888a549ed4faefa60405160405180910390a3509b9a5050505050505050505050565b5f600260089054906101000a90046001600160a01b03166001600160a01b031663233ace116040518163ffffffff1660e01b8152600401602060405180830381865afa15801561079d573d5f5f3e3d5ffd5b505050506040513d601f19601f820116820180604052508101906107c191906127c4565b905090565b816107e45760405163cbf4a64560e01b815260040160405180910390fd5b600354604083901c63ffffffff908116600160a01b909204161461081b57604051632299770d60e11b815260040160405180910390fd5b6004818181111561082e5761082e611ef0565b60ff161115610850576040516307a92f1960e51b815260040160405180910390fd5b5f828152602081905260409020805461010090046001600160a01b031661088a57604051634d36eb6960e01b815260040160405180910390fd5b805461010090046001600160a01b031633146108b8576040516282b42960e81b815260040160405180910390fd5b805460ff166108c78184611c72565b6108e4576040516307a92f1960e51b815260040160405180910390fd5b81548390839060ff1916600183600481111561090257610902611ef0565b0217905550600183600481111561091b5761091b611ef0565b03610972575f82600501544261093191906127db565b6006840181905560405181815290915085907f0f759826327c668a220d576485ac38ddc4f83fbc414b984c00e79f669b649f469060200160405180910390a2505b837f2f25f350b681441b5bb45430fbe61e78d0170cff4ad02cb0aa48a6427909aa8c82856040516109a49291906127ee565b60405180910390a250505050565b6003546001600160a01b0382165f908152600160205260408082205491926001600160401b03909216600160a01b909204901b63ffffffff60401b16606084901b6bffffffffffffffffffffffff191617175b92915050565b81610a295760405163cbf4a64560e01b815260040160405180910390fd5b600354604083901c63ffffffff908116600160a01b9092041614610a6057604051632299770d60e11b815260040160405180910390fd5b5f828152602081905260409020805461010090046001600160a01b0316610a9a57604051634d36eb6960e01b815260040160405180910390fd5b805461010090046001600160a01b03163314610ac8576040516282b42960e81b815260040160405180910390fd5b610ad56020830183612809565b6009811115610ae657610ae6611ef0565b601182015460ff166009811115610aff57610aff611ef0565b14610b1d5760405163f37f7b5d60e01b815260040160405180910390fd5b601281015460208301351015610b4657604051634f9233a560e01b815260040160405180910390fd5b6040820135610b6857604051635e32eadd60e01b815260040160405180910390fd5b610b756060830183612695565b90505f03610b9657604051630f8b932160e11b815260040160405180910390fd5b5f815460ff166004811115610bad57610bad611ef0565b14158015610bd157506003815460ff166004811115610bce57610bce611ef0565b14155b15610bef576040516307a92f1960e51b815260040160405180910390fd5b4281600601548260050154610c049190612824565b11610c225760405163e843c5eb60e01b815260040160405180910390fd5b6020820135601282015560408201356013820155610c436060830183612695565b6014830191610c539190836124e3565b50827f35947a8913e2156f19b018078c9f0667e49cb3dc24af3434a4d0b16b82675b1b6040840135610c886060860186612695565b8660200135604051610c9d949392919061285f565b60405180910390a2505050565b610cb2611d90565b5f828152602081905260409081902081516101c081019092528054829060ff166004811115610ce357610ce3611ef0565b6004811115610cf457610cf4611ef0565b8152815461010090046001600160a01b03166020808301919091526040805180820182526001850154815260028501548184015281840152600384015460608401526004840180548251818502810185019093528083526080909401939192909190830182828015610d8357602002820191905f5260205f20905b815481526020019060010190808311610d6f575b505050505081526020016005820154815260200160068201548152602001600782015481526020016008820154815260200160098201548152602001600a8201548152602001600b82018054610dd890612451565b80601f0160208091040260200160405190810160405280929190818152602001828054610e0490612451565b8015610e4f5780601f10610e2657610100808354040283529160200191610e4f565b820191905f5260205f20905b815481529060010190602001808311610e3257829003601f168201915b5050509183525050604080516101008082018352600c85015460ff8082161515845291810482161515602084810191909152620100008204831684860152630100000090910482166060840152600d860154608080850191909152600e87015460a0850152600f87015460c0850152601087015460e08501529085019290925282519182018352601185018054939094019391928391166009811115610ef757610ef7611ef0565b6009811115610f0857610f08611ef0565b81526020016001820154815260200160028201548152602001600382018054610f3090612451565b80601f0160208091040260200160405190810160405280929190818152602001828054610f5c90612451565b8015610fa75780601f10610f7e57610100808354040283529160200191610fa7565b820191905f5260205f20905b815481529060010190602001808311610f8a57829003601f168201915b5050509190925250505090525092915050565b84610fd85760405163cbf4a64560e01b815260040160405180910390fd5b600354604086901c63ffffffff908116600160a01b909204161461100f57604051632299770d60e11b815260040160405180910390fd5b5f858152602081905260409020805461010090046001600160a01b031661104957604051634d36eb6960e01b815260040160405180910390fd5b6001815460ff16600481111561106157611061611ef0565b1461107f576040516307a92f1960e51b815260040160405180910390fd5b42816006015482600501546110949190612824565b11156110b35760405163e843c5eb60e01b815260040160405180910390fd5b600354604051635c73957b60e11b81526001600160a01b039091169063b8e72af6906110e9908890889088908890600401612889565b5f6040518083038186803b1580156110ff575f5ffd5b505afa158015611111573d5f5f3e3d5ffd5b505f9250611124915050838501856128ba565b600383015481519192501461114c57604051630b6fac0360e41b815260040160405180910390fd5b5f611159600160096127db565b6001600160401b0381111561117057611170612483565b604051908082528060200260200182016040528015611199578160200160208202803683370190505b50905060015b60098110156111ee578281600981106111ba576111ba612936565b6020020151826111cb6001846127db565b815181106111db576111db612936565b602090810291909101015260010161119f565b50825460ff191660049081178455815161120f918501906020840190611e7c565b50877f2f25f350b681441b5bb45430fbe61e78d0170cff4ad02cb0aa48a6427909aa8c600160046040516112449291906127ee565b60405180910390a2336001600160a01b0316887f5da8009aeb11de7ef64598b0de897a03d2f93efabda8507a70e29cca4530cf5d83604051611286919061294a565b60405180910390a35050505050505050565b5f8181526020819052604080822081516101c08101909252805483929190829060ff1660048111156112cc576112cc611ef0565b60048111156112dd576112dd611ef0565b8152815461010090046001600160a01b0316602080830191909152604080518082018252600185015481526002850154818401528184015260038401546060840152600484018054825181850281018501909352808352608090940193919290919083018282801561136c57602002820191905f5260205f20905b815481526020019060010190808311611358575b505050505081526020016005820154815260200160068201548152602001600782015481526020016008820154815260200160098201548152602001600a8201548152602001600b820180546113c190612451565b80601f01602080910402602001604051908101604052809291908181526020018280546113ed90612451565b80156114385780601f1061140f57610100808354040283529160200191611438565b820191905f5260205f20905b81548152906001019060200180831161141b57829003601f168201915b5050509183525050604080516101008082018352600c85015460ff8082161515845291810482161515602084810191909152620100008204831684860152630100000090910482166060840152600d860154608080850191909152600e87015460a0850152600f87015460c0850152601087015460e085015290850192909252825191820183526011850180549390940193919283911660098111156114e0576114e0611ef0565b60098111156114f1576114f1611ef0565b8152602001600182015481526020016002820154815260200160038201805461151990612451565b80601f016020809104026020016040519081016040528092919081815260200182805461154590612451565b80156115905780601f1061156757610100808354040283529160200191611590565b820191905f5260205f20905b81548152906001019060200180831161157357829003601f168201915b5050505050815250508152505090508060c001518160a001516115b39190612824565b9392505050565b816115d85760405163cbf4a64560e01b815260040160405180910390fd5b600354604083901c63ffffffff908116600160a01b909204161461160f57604051632299770d60e11b815260040160405180910390fd5b5f828152602081905260409020805461010090046001600160a01b031661164957604051634d36eb6960e01b815260040160405180910390fd5b805461010090046001600160a01b03163314611677576040516282b42960e81b815260040160405180910390fd5b805460ff165f81600481111561168f5761168f611ef0565b141580156116af575060038160048111156116ac576116ac611ef0565b14155b156116cd576040516307a92f1960e51b815260040160405180910390fd5b600582015460068301548415806116ed5750426116ea8684612824565b11155b8061170a57506116fd8183612824565b6117078684612824565b11155b1561172857604051637616640160e01b815260040160405180910390fd5b6006840185905560405185815286907f0f759826327c668a220d576485ac38ddc4f83fbc414b984c00e79f669b649f469060200160405180910390a2505050505050565b8461178a5760405163cbf4a64560e01b815260040160405180910390fd5b600354604086901c63ffffffff908116600160a01b90920416146117c157604051632299770d60e11b815260040160405180910390fd5b5f858152602081905260409020805461010090046001600160a01b03166117fb57604051634d36eb6960e01b815260040160405180910390fd5b5f815460ff16600481111561181257611812611ef0565b14611830576040516307a92f1960e51b815260040160405180910390fd5b42816006015482600501546118459190612824565b116118635760405163e843c5eb60e01b815260040160405180910390fd5b600254604051635c73957b60e11b8152600160401b9091046001600160a01b03169063b8e72af69061189f908890889088908890600401612889565b5f6040518083038186803b1580156118b5575f5ffd5b505afa1580156118c7573d5f5f3e3d5ffd5b505f92506118da915050838501856128ba565b600383015481519192501461190257604051630b6fac0360e41b815260040160405180910390fd5b6020810151600383015560408101516007830180545f90611924908490612824565b909155505060608101516008830180545f90611941908490612824565b9091555050600a82018054905f6119578361298c565b9091555050602080820151604051908152339189917fdc9b2774f92abfeee93d8b2ef67d59cd90c2d6d740b01c24fd9ec109a71865fc910160405180910390a350505050505050565b6003546040805163233ace1160e01b815290515f926001600160a01b03169163233ace119160048083019260209291908290030181865afa15801561079d573d5f5f3e3d5ffd5b5f878152602081905260409020546001600160a01b038088166101009092041603611a2557604051635040c4d360e11b815260040160405180910390fd5b611a3560608301604084016129a4565b60ff161580611a5657506008611a5160608401604085016129a4565b60ff16115b15611a745760405163ac38930b60e01b815260040160405180910390fd5b61ffff8260c001351115611a9b57604051634dba795160e01b815260040160405180910390fd5b81608001358260a001351115611ac45760405163207ea56d60e01b815260040160405180910390fd5b8160c001358260e001351115611aed57604051636d403ec760e11b815260040160405180910390fd5b6009611afc6020830183612809565b6009811115611b0d57611b0d611ef0565b60ff161115611b2f5760405163f37f7b5d60e01b815260040160405180910390fd5b80602001355f03611b5357604051634f9233a560e01b815260040160405180910390fd5b6040810135611b7557604051635e32eadd60e01b815260040160405180910390fd5b611b826060820182612695565b90505f03611ba357604051630f8b932160e11b815260040160405180910390fd5b60048581811115611bb657611bb6611ef0565b60ff161180611bf357505f856004811115611bd357611bd3611ef0565b14158015611bf357506003856004811115611bf057611bf0611ef0565b14155b15611c11576040516307a92f1960e51b815260040160405180910390fd5b425f859003611c1e578094505b80851015611c3f57604051632ca4094f60e21b815260040160405180910390fd5b80611c4a8587612824565b11611c6857604051637616640160e01b815260040160405180910390fd5b5050505050505050565b5f826004811115611c8557611c85611ef0565b826004811115611c9757611c97611ef0565b03611ca357505f610a05565b6002836004811115611cb757611cb7611ef0565b1480611cd457506004836004811115611cd257611cd2611ef0565b145b80611cf057506001836004811115611cee57611cee611ef0565b145b15611cfc57505f610a05565b5f836004811115611d0f57611d0f611ef0565b03611d695760035b826004811115611d2957611d29611ef0565b1480611d4657506002826004811115611d4457611d44611ef0565b145b80611d6257506001826004811115611d6057611d60611ef0565b145b9050610a05565b6003836004811115611d7d57611d7d611ef0565b03611d88575f611d17565b505f92915050565b604080516101c08101909152805f81526020015f6001600160a01b03168152602001611dcd60405180604001604052805f81526020015f81525090565b81526020015f8152602001606081526020015f81526020015f81526020015f81526020015f81526020015f81526020015f815260200160608152602001611e546040518061010001604052805f151581526020015f151581526020015f60ff1681526020015f60ff1681526020015f81526020015f81526020015f81526020015f81525090565b8152604080516080810182525f80825260208281018290529282015260608082015291015290565b828054828255905f5260205f20908101928215611eb5579160200282015b82811115611eb5578251825591602001919060010190611e9a565b50611ec1929150611ec5565b5090565b5b80821115611ec1575f8155600101611ec6565b5f60208284031215611ee9575f5ffd5b5035919050565b634e487b7160e01b5f52602160045260245ffd5b60058110611f1457611f14611ef0565b9052565b5f81518084528060208401602086015e5f602082860101526020601f19601f83011685010191505092915050565b80511515825260208101511515602083015260ff60408201511660408301526060810151611f79606084018260ff169052565b506080810151608083015260a081015160a083015260c081015160c083015260e081015160e08301525050565b5f8151600a8110611fb957611fb9611ef0565b808452506020820151602084015260408201516040840152606082015160806060850152611fea6080850182611f18565b949350505050565b611ffc818f611f04565b6001600160a01b038d166020820152612022604082018d80518252602090810151910152565b8a60808201528960a08201528860c08201528760e08201528661010082015285610120820152846101408201526102a06101608201525f6120676102a0830186611f18565b612075610180840186611f46565b8281036102808401526120888185611fa6565b9150509e9d5050505050505050505050505050565b8035600581106120ab575f5ffd5b919050565b5f608082840312156120c0575f5ffd5b50919050565b5f5f83601f8401126120d6575f5ffd5b5081356001600160401b038111156120ec575f5ffd5b602083019150836020828501011115612103575f5ffd5b9250929050565b5f604082840312156120c0575f5ffd5b5f5f5f5f5f5f5f5f5f898b03610200811215612134575f5ffd5b61213d8b61209d565b995060208b0135985060408b01359750610100605f198201121561215f575f5ffd5b5060608a0195506101608a01356001600160401b0381111561217f575f5ffd5b61218b8c828d016120b0565b9550506101808a01356001600160401b038111156121a7575f5ffd5b6121b38c828d016120c6565b90955093506121c890508b6101a08c0161210a565b989b979a5095989497939692955090936101e00135919050565b5f5f604083850312156121f3575f5ffd5b823591506122036020840161209d565b90509250929050565b5f6020828403121561221c575f5ffd5b81356001600160a01b03811681146115b3575f5ffd5b5f5f60408385031215612243575f5ffd5b8235915060208301356001600160401b0381111561225f575f5ffd5b61226b858286016120b0565b9150509250929050565b5f8151808452602084019350602083015f5b828110156122a5578151865260209586019590910190600101612287565b5093949350505050565b602081526122c1602082018351611f04565b5f60208301516122dc60408401826001600160a01b03169052565b506040830151805160608401526020810151608084015250606083015160a083015260808301516102c060c08401526123196102e0840182612275565b905060a084015160e084015260c084015161010084015260e0840151610120840152610100840151610140840152610120840151610160840152610140840151610180840152610160840151601f19848303016101a085015261237c8282611f18565b9150506101808401516123936101c0850182611f46565b506101a0840151838203601f19016102c08501526123b18282611fa6565b95945050505050565b5f5f5f5f5f606086880312156123ce575f5ffd5b8535945060208601356001600160401b038111156123ea575f5ffd5b6123f6888289016120c6565b90955093505060408601356001600160401b03811115612414575f5ffd5b612420888289016120c6565b969995985093965092949392505050565b5f5f60408385031215612442575f5ffd5b50508035926020909101359150565b600181811c9082168061246557607f821691505b6020821081036120c057634e487b7160e01b5f52602260045260245ffd5b634e487b7160e01b5f52604160045260245ffd5b601f8211156124de57805f5260205f20601f840160051c810160208510156124bc5750805b601f840160051c820191505b818110156124db575f81556001016124c8565b50505b505050565b6001600160401b038311156124fa576124fa612483565b61250e836125088354612451565b83612497565b5f601f84116001811461253f575f85156125285750838201355b5f19600387901b1c1916600186901b1783556124db565b5f83815260208120601f198716915b8281101561256e578685013582556020948501946001909201910161254e565b508682101561258a575f1960f88860031b161c19848701351681555b505060018560011b0183555050505050565b5f81358015158114610a05575f5ffd5b60ff811681146125ba575f5ffd5b50565b5f8135610a05816125ac565b6125d28261259c565b151560ff1982541660ff821681178355505061260d6125f36020840161259c565b82805461ff00191691151560081b61ff0016919091179055565b61263461261c604084016125bd565b825462ff0000191660109190911b62ff000016178255565b61265d612643606084016125bd565b825463ff000000191660189190911b63ff00000016178255565b6080820135600182015560a0820135600282015560c0820135600382015560e090910135600490910155565b600a81106125ba575f5ffd5b5f5f8335601e198436030181126126aa575f5ffd5b8301803591506001600160401b038211156126c3575f5ffd5b602001915036819003821315612103575f5ffd5b81356126e281612689565b600a81106126f2576126f2611ef0565b815460ff191660ff9190911617815560208201356001820155604082013560028201556060820135601e193684900301811261272c575f5ffd5b820180356001600160401b03811115612743575f5ffd5b602082019150803603821315612757575f5ffd5b6127658183600386016124e3565b50505050565b634e487b7160e01b5f52601160045260245ffd5b5f63ffffffff821663ffffffff810361279a5761279a61276b565b60010192915050565b5f6001600160401b0382166001600160401b03810361279a5761279a61276b565b5f602082840312156127d4575f5ffd5b5051919050565b81810381811115610a0557610a0561276b565b604081016127fc8285611f04565b6115b36020830184611f04565b5f60208284031215612819575f5ffd5b81356115b381612689565b80820180821115610a0557610a0561276b565b81835281816020850137505f828201602090810191909152601f909101601f19169091010190565b848152606060208201525f612878606083018587612837565b905082604083015295945050505050565b604081525f61289c604083018688612837565b82810360208401526128af818587612837565b979650505050505050565b5f61012082840312156128cb575f5ffd5b82601f8301126128d9575f5ffd5b60405161012081018181106001600160401b03821117156128fc576128fc612483565b60405280610120840185811115612911575f5ffd5b845b8181101561292b578035835260209283019201612913565b509195945050505050565b634e487b7160e01b5f52603260045260245ffd5b602080825282518282018190525f918401906040840190835b81811015612981578351835260209384019390920191600101612963565b509095945050505050565b5f6001820161299d5761299d61276b565b5060010190565b5f602082840312156129b4575f5ffd5b81356115b3816125ac56fea264697066735822122053a748c549f92e4784697eb1d66eb254e1b66c33aad4615677888735a31116bc64736f6c634300081c0033",
  "linkReferences": {},
  "deployedLinkReferences": {}
}