{
  "_format": "hh-sol-artifact-1",
  "contractName": "ProcessRegistry",
  "sourceName": "src/ProcessRegistry.sol",
  "abi": [
    {
      "inputs": [
        {
          "internalType": "address",
          "name": "target",
          "type": "address"
        }
      ],
      "name": "AddressEmptyCode",
      "type": "error"
    },
    {
      "inputs": [
        {
          "internalType": "address",
          "name": "implementation",
          "type": "address"
        }
      ],
      "name": "ERC1967InvalidImplementation",
      "type": "error"
    },
    {
      "inputs": [],
      "name": "ERC1967NonPayable",
      "type": "error"
    },
    {
      "inputs": [],
      "name": "FailedInnerCall",
      "type": "error"
    },
    {
      "inputs": [],
      "name": "InvalidInitialization",
      "type": "error"
    },
    {
      "inputs": [],
      "name": "NotInitializing",
      "type": "error"
    },
    {
      "inputs": [
        {
          "internalType": "address",
          "name": "owner",
          "type": "address"
        }
      ],
      "name": "OwnableInvalidOwner",
      "type": "error"
    },
    {
      "inputs": [
        {
          "internalType": "address",
          "name": "account",
          "type": "address"
        }
      ],
      "name": "OwnableUnauthorizedAccount",
      "type": "error"
    },
    {
      "inputs": [],
      "name": "UUPSUnauthorizedCallContext",
      "type": "error"
    },
    {
      "inputs": [
        {
          "internalType": "bytes32",
          "name": "slot",
          "type": "bytes32"
        }
      ],
      "name": "UUPSUnsupportedProxiableUUID",
      "type": "error"
    },
    {
      "anonymous": false,
      "inputs": [
        {
          "indexed": true,
          "internalType": "bytes32",
          "name": "processID",
          "type": "bytes32"
        },
        {
          "indexed": false,
          "internalType": "bytes32",
          "name": "censusRoot",
          "type": "bytes32"
        },
        {
          "indexed": false,
          "internalType": "string",
          "name": "censusURI",
          "type": "string"
        },
        {
          "indexed": false,
          "internalType": "uint256",
          "name": "maxVotes",
          "type": "uint256"
        }
      ],
      "name": "CensusUpdated",
      "type": "event"
    },
    {
      "anonymous": false,
      "inputs": [
        {
          "indexed": false,
          "internalType": "uint64",
          "name": "version",
          "type": "uint64"
        }
      ],
      "name": "Initialized",
      "type": "event"
    },
    {
      "anonymous": false,
      "inputs": [
        {
          "indexed": true,
          "internalType": "address",
          "name": "previousOwner",
          "type": "address"
        },
        {
          "indexed": true,
          "internalType": "address",
          "name": "newOwner",
          "type": "address"
        }
      ],
      "name": "OwnershipTransferred",
      "type": "event"
    },
    {
      "anonymous": false,
      "inputs": [
        {
          "indexed": true,
          "internalType": "bytes32",
          "name": "processID",
          "type": "bytes32"
        },
        {
          "indexed": true,
          "internalType": "address",
          "name": "creator",
          "type": "address"
        }
      ],
      "name": "ProcessCreated",
      "type": "event"
    },
    {
      "anonymous": false,
      "inputs": [
        {
          "indexed": true,
          "internalType": "bytes32",
          "name": "processID",
          "type": "bytes32"
        },
        {
          "indexed": false,
          "internalType": "uint256",
          "name": "duration",
          "type": "uint256"
        }
      ],
      "name": "ProcessDurationChanged",
      "type": "event"
    },
    {
      "anonymous": false,
      "inputs": [
        {
          "indexed": true,
          "internalType": "bytes32",
          "name": "processID",
          "type": "bytes32"
        },
        {
          "indexed": false,
          "internalType": "bytes32",
          "name": "newStateRoot",
          "type": "bytes32"
        }
      ],
      "name": "ProcessStateRootUpdated",
      "type": "event"
    },
    {
      "anonymous": false,
      "inputs": [
        {
          "indexed": true,
          "internalType": "bytes32",
          "name": "processID",
          "type": "bytes32"
        },
        {
          "indexed": false,
          "internalType": "enum ProcessRegistry.ProcessStatus",
          "name": "newStatus",
          "type": "uint8"
        }
      ],
      "name": "ProcessStatusChanged",
      "type": "event"
    },
    {
      "anonymous": false,
      "inputs": [
        {
          "indexed": true,
          "internalType": "address",
          "name": "implementation",
          "type": "address"
        }
      ],
      "name": "Upgraded",
      "type": "event"
    },
    {
      "inputs": [],
      "name": "UPGRADE_INTERFACE_VERSION",
      "outputs": [
        {
          "internalType": "string",
          "name": "",
          "type": "string"
        }
      ],
      "stateMutability": "view",
      "type": "function"
    },
    {
      "inputs": [],
      "name": "chainID",
      "outputs": [
        {
          "internalType": "string",
          "name": "",
          "type": "string"
        }
      ],
      "stateMutability": "view",
      "type": "function"
    },
    {
      "inputs": [
        {
          "internalType": "bytes32",
          "name": "_processID",
          "type": "bytes32"
        }
      ],
      "name": "endProcess",
      "outputs": [],
      "stateMutability": "nonpayable",
      "type": "function"
    },
    {
      "inputs": [
        {
          "internalType": "bytes32",
          "name": "_processID",
          "type": "bytes32"
        }
      ],
      "name": "getProcess",
      "outputs": [
        {
          "components": [
            {
              "internalType": "enum ProcessRegistry.ProcessStatus",
              "name": "status",
              "type": "uint8"
            },
            {
              "internalType": "address",
              "name": "organizationId",
              "type": "address"
            },
            {
              "components": [
                {
                  "internalType": "uint256",
                  "name": "x",
                  "type": "uint256"
                },
                {
                  "internalType": "uint256",
                  "name": "y",
                  "type": "uint256"
                }
              ],
              "internalType": "struct ProcessRegistry.EncryptionKey",
              "name": "encryptionKey",
              "type": "tuple"
            },
            {
              "internalType": "bytes32",
              "name": "latestStateRoot",
              "type": "bytes32"
            },
            {
              "internalType": "uint256[]",
              "name": "result",
              "type": "uint256[]"
            },
            {
              "internalType": "uint256",
              "name": "startTime",
              "type": "uint256"
            },
            {
              "internalType": "uint256",
              "name": "duration",
              "type": "uint256"
            },
            {
              "internalType": "string",
              "name": "metadataURI",
              "type": "string"
            },
            {
              "components": [
                {
                  "internalType": "bool",
                  "name": "costFromWeight",
                  "type": "bool"
                },
                {
                  "internalType": "bool",
                  "name": "forceUniqueness",
                  "type": "bool"
                },
                {
                  "internalType": "uint8",
                  "name": "maxCount",
                  "type": "uint8"
                },
                {
                  "internalType": "uint8",
                  "name": "costExponent",
                  "type": "uint8"
                },
                {
                  "internalType": "uint256",
                  "name": "maxValue",
                  "type": "uint256"
                },
                {
                  "internalType": "uint256",
                  "name": "minValue",
                  "type": "uint256"
                },
                {
                  "internalType": "uint256",
                  "name": "maxTotalCost",
                  "type": "uint256"
                },
                {
                  "internalType": "uint256",
                  "name": "minTotalCost",
                  "type": "uint256"
                }
              ],
              "internalType": "struct ProcessRegistry.BallotMode",
              "name": "ballotMode",
              "type": "tuple"
            },
            {
              "components": [
                {
                  "internalType": "enum ProcessRegistry.CensusOrigin",
                  "name": "censusOrigin",
                  "type": "uint8"
                },
                {
                  "internalType": "uint256",
                  "name": "maxVotes",
                  "type": "uint256"
                },
                {
                  "internalType": "bytes32",
                  "name": "censusRoot",
                  "type": "bytes32"
                },
                {
                  "internalType": "string",
                  "name": "censusURI",
                  "type": "string"
                }
              ],
              "internalType": "struct ProcessRegistry.Census",
              "name": "census",
              "type": "tuple"
            }
          ],
          "internalType": "struct ProcessRegistry.Process",
          "name": "",
          "type": "tuple"
        }
      ],
      "stateMutability": "view",
      "type": "function"
    },
    {
      "inputs": [
        {
          "internalType": "string",
          "name": "_chainID",
          "type": "string"
        },
        {
          "internalType": "address",
          "name": "_organizationRegistry",
          "type": "address"
        }
      ],
      "name": "initialize",
      "outputs": [],
      "stateMutability": "nonpayable",
      "type": "function"
    },
    {
      "inputs": [
        {
          "internalType": "enum ProcessRegistry.ProcessStatus",
          "name": "_status",
          "type": "uint8"
        },
        {
          "internalType": "uint256",
          "name": "_startTime",
          "type": "uint256"
        },
        {
          "internalType": "uint256",
          "name": "_duration",
          "type": "uint256"
        },
        {
          "components": [
            {
              "internalType": "bool",
              "name": "costFromWeight",
              "type": "bool"
            },
            {
              "internalType": "bool",
              "name": "forceUniqueness",
              "type": "bool"
            },
            {
              "internalType": "uint8",
              "name": "maxCount",
              "type": "uint8"
            },
            {
              "internalType": "uint8",
              "name": "costExponent",
              "type": "uint8"
            },
            {
              "internalType": "uint256",
              "name": "maxValue",
              "type": "uint256"
            },
            {
              "internalType": "uint256",
              "name": "minValue",
              "type": "uint256"
            },
            {
              "internalType": "uint256",
              "name": "maxTotalCost",
              "type": "uint256"
            },
            {
              "internalType": "uint256",
              "name": "minTotalCost",
              "type": "uint256"
            }
          ],
          "internalType": "struct ProcessRegistry.BallotMode",
          "name": "_ballotMode",
          "type": "tuple"
        },
        {
          "components": [
            {
              "internalType": "enum ProcessRegistry.CensusOrigin",
              "name": "censusOrigin",
              "type": "uint8"
            },
            {
              "internalType": "uint256",
              "name": "maxVotes",
              "type": "uint256"
            },
            {
              "internalType": "bytes32",
              "name": "censusRoot",
              "type": "bytes32"
            },
            {
              "internalType": "string",
              "name": "censusURI",
              "type": "string"
            }
          ],
          "internalType": "struct ProcessRegistry.Census",
          "name": "_census",
          "type": "tuple"
        },
        {
          "internalType": "string",
          "name": "_metadata",
          "type": "string"
        },
        {
          "internalType": "address",
          "name": "_organizationID",
          "type": "address"
        },
        {
          "internalType": "bytes32",
          "name": "_processID",
          "type": "bytes32"
        },
        {
          "components": [
            {
              "internalType": "uint256",
              "name": "x",
              "type": "uint256"
            },
            {
              "internalType": "uint256",
              "name": "y",
              "type": "uint256"
            }
          ],
          "internalType": "struct ProcessRegistry.EncryptionKey",
          "name": "_encryptionKey",
          "type": "tuple"
        },
        {
          "internalType": "bytes32",
          "name": "_initStateRoot",
          "type": "bytes32"
        }
      ],
      "name": "newProcess",
      "outputs": [],
      "stateMutability": "nonpayable",
      "type": "function"
    },
    {
      "inputs": [],
      "name": "organizationRegistry",
      "outputs": [
        {
          "internalType": "address",
          "name": "",
          "type": "address"
        }
      ],
      "stateMutability": "view",
      "type": "function"
    },
    {
      "inputs": [],
      "name": "owner",
      "outputs": [
        {
          "internalType": "address",
          "name": "",
          "type": "address"
        }
      ],
      "stateMutability": "view",
      "type": "function"
    },
    {
      "inputs": [],
      "name": "processCount",
      "outputs": [
        {
          "internalType": "uint32",
          "name": "",
          "type": "uint32"
        }
      ],
      "stateMutability": "view",
      "type": "function"
    },
    {
      "inputs": [
        {
          "internalType": "bytes32",
          "name": "",
          "type": "bytes32"
        }
      ],
      "name": "processes",
      "outputs": [
        {
          "internalType": "enum ProcessRegistry.ProcessStatus",
          "name": "status",
          "type": "uint8"
        },
        {
          "internalType": "address",
          "name": "organizationId",
          "type": "address"
        },
        {
          "components": [
            {
              "internalType": "uint256",
              "name": "x",
              "type": "uint256"
            },
            {
              "internalType": "uint256",
              "name": "y",
              "type": "uint256"
            }
          ],
          "internalType": "struct ProcessRegistry.EncryptionKey",
          "name": "encryptionKey",
          "type": "tuple"
        },
        {
          "internalType": "bytes32",
          "name": "latestStateRoot",
          "type": "bytes32"
        },
        {
          "internalType": "uint256",
          "name": "startTime",
          "type": "uint256"
        },
        {
          "internalType": "uint256",
          "name": "duration",
          "type": "uint256"
        },
        {
          "internalType": "string",
          "name": "metadataURI",
          "type": "string"
        },
        {
          "components": [
            {
              "internalType": "bool",
              "name": "costFromWeight",
              "type": "bool"
            },
            {
              "internalType": "bool",
              "name": "forceUniqueness",
              "type": "bool"
            },
            {
              "internalType": "uint8",
              "name": "maxCount",
              "type": "uint8"
            },
            {
              "internalType": "uint8",
              "name": "costExponent",
              "type": "uint8"
            },
            {
              "internalType": "uint256",
              "name": "maxValue",
              "type": "uint256"
            },
            {
              "internalType": "uint256",
              "name": "minValue",
              "type": "uint256"
            },
            {
              "internalType": "uint256",
              "name": "maxTotalCost",
              "type": "uint256"
            },
            {
              "internalType": "uint256",
              "name": "minTotalCost",
              "type": "uint256"
            }
          ],
          "internalType": "struct ProcessRegistry.BallotMode",
          "name": "ballotMode",
          "type": "tuple"
        },
        {
          "components": [
            {
              "internalType": "enum ProcessRegistry.CensusOrigin",
              "name": "censusOrigin",
              "type": "uint8"
            },
            {
              "internalType": "uint256",
              "name": "maxVotes",
              "type": "uint256"
            },
            {
              "internalType": "bytes32",
              "name": "censusRoot",
              "type": "bytes32"
            },
            {
              "internalType": "string",
              "name": "censusURI",
              "type": "string"
            }
          ],
          "internalType": "struct ProcessRegistry.Census",
          "name": "census",
          "type": "tuple"
        }
      ],
      "stateMutability": "view",
      "type": "function"
    },
    {
      "inputs": [],
      "name": "proxiableUUID",
      "outputs": [
        {
          "internalType": "bytes32",
          "name": "",
          "type": "bytes32"
        }
      ],
      "stateMutability": "view",
      "type": "function"
    },
    {
      "inputs": [],
      "name": "renounceOwnership",
      "outputs": [],
      "stateMutability": "nonpayable",
      "type": "function"
    },
    {
      "inputs": [
        {
          "internalType": "bytes32",
          "name": "_processID",
          "type": "bytes32"
        },
        {
          "components": [
            {
              "internalType": "enum ProcessRegistry.CensusOrigin",
              "name": "censusOrigin",
              "type": "uint8"
            },
            {
              "internalType": "uint256",
              "name": "maxVotes",
              "type": "uint256"
            },
            {
              "internalType": "bytes32",
              "name": "censusRoot",
              "type": "bytes32"
            },
            {
              "internalType": "string",
              "name": "censusURI",
              "type": "string"
            }
          ],
          "internalType": "struct ProcessRegistry.Census",
          "name": "_census",
          "type": "tuple"
        }
      ],
      "name": "setProcessCensus",
      "outputs": [],
      "stateMutability": "nonpayable",
      "type": "function"
    },
    {
      "inputs": [
        {
          "internalType": "bytes32",
          "name": "_processID",
          "type": "bytes32"
        },
        {
          "internalType": "uint256",
          "name": "_duration",
          "type": "uint256"
        }
      ],
      "name": "setProcessDuration",
      "outputs": [],
      "stateMutability": "nonpayable",
      "type": "function"
    },
    {
      "inputs": [
        {
          "internalType": "bytes32",
          "name": "_processID",
          "type": "bytes32"
        },
        {
          "internalType": "uint256[]",
          "name": "_result",
          "type": "uint256[]"
        },
        {
          "internalType": "bytes",
          "name": "_proof",
          "type": "bytes"
        }
      ],
      "name": "setProcessResult",
      "outputs": [],
      "stateMutability": "nonpayable",
      "type": "function"
    },
    {
      "inputs": [
        {
          "internalType": "bytes32",
          "name": "_processID",
          "type": "bytes32"
        },
        {
          "internalType": "enum ProcessRegistry.ProcessStatus",
          "name": "_newStatus",
          "type": "uint8"
        }
      ],
      "name": "setProcessStatus",
      "outputs": [],
      "stateMutability": "nonpayable",
      "type": "function"
    },
    {
      "inputs": [
        {
          "internalType": "bytes32",
          "name": "_processID",
          "type": "bytes32"
        },
        {
          "internalType": "bytes32",
          "name": "_oldRoot",
          "type": "bytes32"
        },
        {
          "internalType": "bytes32",
          "name": "_newRoot",
          "type": "bytes32"
        },
        {
          "internalType": "bytes",
          "name": "_proof",
          "type": "bytes"
        }
      ],
      "name": "submitStateTransition",
      "outputs": [],
      "stateMutability": "nonpayable",
      "type": "function"
    },
    {
      "inputs": [
        {
          "internalType": "address",
          "name": "newOwner",
          "type": "address"
        }
      ],
      "name": "transferOwnership",
      "outputs": [],
      "stateMutability": "nonpayable",
      "type": "function"
    },
    {
      "inputs": [
        {
          "internalType": "address",
          "name": "newImplementation",
          "type": "address"
        },
        {
          "internalType": "bytes",
          "name": "data",
          "type": "bytes"
        }
      ],
      "name": "upgradeToAndCall",
      "outputs": [],
      "stateMutability": "payable",
      "type": "function"
    }
  ],
  "bytecode": "0x60a060405230608052348015601357600080fd5b5060805161303261003d60003960008181611cc001528181611ce90152611e2f01526130326000f3fe6080604052600436106101145760003560e01c8063848df540116100a0578063adc879e911610064578063adc879e91461035d578063b66ba6eb14610372578063c718c01f14610392578063ea9bcaf6146103b2578063f2fde38b146103d257600080fd5b8063848df540146102445780638cafab7f1461027d5780638da5cb5b146102b5578063992bc45b146102f2578063ad3cb1cc1461031f57600080fd5b806352d1902d116100e757806352d1902d146101ac57806356a6f1e2146101cf5780636bae04ea146101ef578063715018a61461020f5780637ab4339d1461022457600080fd5b80630535fece14610119578063152f31281461015757806325402545146101795780634f1ef28614610199575b600080fd5b34801561012557600080fd5b506101396101343660046122ff565b6103f2565b60405161014e9998979695949392919061243f565b60405180910390f35b34801561016357600080fd5b5061017761017236600461257a565b61062b565b005b34801561018557600080fd5b5061017761019436600461265f565b610c51565b6101776101a73660046127e9565b610d2c565b3480156101b857600080fd5b506101c1610d4b565b60405190815260200161014e565b3480156101db57600080fd5b506101776101ea36600461284a565b610d68565b3480156101fb57600080fd5b5061017761020a366004612876565b610f79565b34801561021b57600080fd5b5061017761125e565b34801561023057600080fd5b5061017761023f3660046128b2565b611272565b34801561025057600080fd5b5060015461026890600160a01b900463ffffffff1681565b60405163ffffffff909116815260200161014e565b34801561028957600080fd5b5060015461029d906001600160a01b031681565b6040516001600160a01b03909116815260200161014e565b3480156102c157600080fd5b507f9016d09d72d40fdae2fd8ceac6b6234c7706214fd39c1cd1e609a0528c199300546001600160a01b031661029d565b3480156102fe57600080fd5b5061031261030d3660046122ff565b6113b3565b60405161014e9190612941565b34801561032b57600080fd5b50610350604051806040016040528060058152602001640352e302e360dc1b81525081565b60405161014e9190612a14565b34801561036957600080fd5b506103506116a7565b34801561037e57600080fd5b5061017761038d366004612a27565b611735565b34801561039e57600080fd5b506101776103ad366004612a6a565b6118c9565b3480156103be57600080fd5b506101776103cd3660046122ff565b611adb565b3480156103de57600080fd5b506101776103ed366004612a8c565b611c77565b60006020818152918152604090819020805482518084019093526001820154835260028201549383019390935260038101546005820154600683015460078401805460ff88169761010090046001600160a01b03169695919061045490612aa7565b80601f016020809104026020016040519081016040528092919081815260200182805461048090612aa7565b80156104cd5780601f106104a2576101008083540402835291602001916104cd565b820191906000526020600020905b8154815290600101906020018083116104b057829003601f168201915b5050604080516101008082018352600888015460ff808216151584529181048216151560208401526201000081048216838501526301000000900481166060830152600980890154608080850191909152600a8a015460a0850152600b8a015460c0850152600c8a015460e08501528451908101909452600d8901805498999398939750939550929350849291169081111561056b5761056b612318565b600981111561057c5761057c612318565b815260200160018201548152602001600282015481526020016003820180546105a490612aa7565b80601f01602080910402602001604051908101604052809291908181526020018280546105d090612aa7565b801561061d5780601f106105f25761010080835404028352916020019161061d565b820191906000526020600020905b81548152906001019060200180831161060057829003601f168201915b505050505081525050905089565b600061063d60608a0160408b01612aec565b60ff16116106925760405162461bcd60e51b815260206004820152601c60248201527f4e657750726f636573733a20696e76616c6964206d6178436f756e740000000060448201526064015b60405180910390fd5b6106a26060890160408a01612aec565b60ff168860800135116106f75760405162461bcd60e51b815260206004820152601f60248201527f4e657750726f636573733a206d6178436f756e74203e206d617856616c7565006044820152606401610689565b60008b600481111561070b5761070b612318565b1480610728575060038b600481111561072657610726612318565b145b6107745760405162461bcd60e51b815260206004820152601a60248201527f4e657750726f636573733a20696e76616c6964207374617475730000000000006044820152606401610689565b428a116107c35760405162461bcd60e51b815260206004820152601d60248201527f4e657750726f636573733a20696e76616c696420737461727454696d650000006044820152606401610689565b426107ce8a8c612b1d565b1161081b5760405162461bcd60e51b815260206004820152601c60248201527f4e657750726f636573733a20696e76616c6964206475726174696f6e000000006044820152606401610689565b60015460405163c1af6e0360e01b81526001600160a01b0386811660048301523360248301529091169063c1af6e0390604401602060405180830381865afa15801561086b573d6000803e3d6000fd5b505050506040513d601f19601f8201168201806040525081019061088f9190612b3e565b6108db5760405162461bcd60e51b815260206004820181905260248201527f4e657750726f636573733a206e6f7420616e2061646d696e6973747261746f726044820152606401610689565b60008381526020819052604090205461010090046001600160a01b0316156109505760405162461bcd60e51b815260206004820152602260248201527f4e657750726f636573733a2070726f6365737320616c72656164792065786973604482015261747360f01b6064820152608401610689565b60006040518061014001604052808d600481111561097057610970612318565b81526001600160a01b038716602082015260400161099336869003860186612b5b565b815260208082018590526040805160008082529281018252920191905081526020018c81526020018b815260200188888080601f016020809104026020016040519081016040528093929190818152602001838380828437600092019190915250505090825250602001610a0c368c90038c018c612bb6565b8152602001610a1a8a612c48565b90526000858152602081905260409020815181549293508392829060ff19166001836004811115610a4d57610a4d612318565b021790555060208281015182546001600160a01b0390911661010002610100600160a81b031990911617825560408301518051600184015581015160028301556060830151600383015560808301518051610aae926004850192019061217d565b5060a0820151600582015560c0820151600682015560e08201516007820190610ad79082612d1a565b5061010082810151805160088401805460208401516040850151606086015161ffff1990931694151561ff001916949094179015159095029490941763ffff000019166201000060ff9384160263ff0000001916176301000000929094169190910292909217909155608081015160098084019190915560a0820151600a84015560c0820151600b84015560e090910151600c8301556101208301518051600d8401805492939092839160ff19909116906001908490811115610b9c57610b9c612318565b0217905550602082015160018201556040820151600282015560608201516003820190610bc99082612d1a565b505060018054600160a01b900463ffffffff169350915060149050610bed83612dd8565b91906101000a81548163ffffffff021916908363ffffffff16021790555050336001600160a01b0316847fada6f87a2a16a0c9c169ca36754c5f33f7c1a973b575d068f888a549ed4faefa60405160405180910390a3505050505050505050505050565b60008581526020819052604090205461010090046001600160a01b0316610c8a5760405162461bcd60e51b815260040161068990612dfd565b600160008681526020819052604090205460ff166004811115610caf57610caf612318565b14610cf05760405162461bcd60e51b8152602060048201526011602482015270141c9bd8d95cdcc81b9bdd08195b991959607a1b6044820152606401610689565b6000858152602081905260409020610d0c9060040185856121c8565b50505060009283525050602081905260409020805460ff19166004179055565b610d34611cb5565b610d3d82611d5a565b610d478282611d62565b5050565b6000610d55611e24565b50600080516020612fdd83398151915290565b6001546000838152602081905260409081902054905163c1af6e0360e01b81526001600160a01b036101009092048216600482015233602482015291169063c1af6e0390604401602060405180830381865afa158015610dcc573d6000803e3d6000fd5b505050506040513d601f19601f82011682018060405250810190610df09190612b3e565b610e4b5760405162461bcd60e51b815260206004820152602660248201527f53657450726f636573735374617475733a206e6f7420616e2061646d696e69736044820152653a3930ba37b960d11b6064820152608401610689565b60008281526020819052604081205460ff1690816004811115610e7057610e70612318565b14158015610e9057506003816004811115610e8d57610e8d612318565b14155b15610ead5760405162461bcd60e51b815260040161068990612e28565b806004811115610ebf57610ebf612318565b826004811115610ed157610ed1612318565b03610f0c5760405162461bcd60e51b815260206004820152600b60248201526a26bab9ba103234b33332b960a91b6044820152606401610689565b6000838152602081905260409020805483919060ff19166001836004811115610f3757610f37612318565b0217905550827fac0c4085a30bc70d0d8893ee5d6466ac9c5f03e27fd7292dcef128a610e7c19083604051610f6c9190612e54565b60405180910390a2505050565b6001546000838152602081905260409081902054905163c1af6e0360e01b81526001600160a01b036101009092048216600482015233602482015291169063c1af6e0390604401602060405180830381865afa158015610fdd573d6000803e3d6000fd5b505050506040513d601f19601f820116820180604052508101906110019190612b3e565b61105c5760405162461bcd60e51b815260206004820152602660248201527f53657450726f6365737343656e7375733a206e6f7420616e2061646d696e69736044820152653a3930ba37b960d11b6064820152608401610689565b600061106b6060830183612e62565b9050116110a65760405162461bcd60e51b8152602060048201526009602482015268456d7074792055524960b81b6044820152606401610689565b60408101356000036110e75760405162461bcd60e51b815260206004820152600a602482015269115b5c1d1e481c9bdbdd60b21b6044820152606401610689565b60008281526020819052604090205461010090046001600160a01b03166111205760405162461bcd60e51b815260040161068990612dfd565b60008281526020819052604081205460ff16600481111561114357611143612318565b14806111715750600360008381526020819052604090205460ff16600481111561116f5761116f612318565b145b61118d5760405162461bcd60e51b815260040161068990612e28565b600082815260208181526040909120600e01549082013511156111c45760008281526020818152604090912090820135600e909101555b6000828152602081905260409081902090820135600f909101556111eb6060820182612e62565b600084815260208190526040902060100191611208919083612ea8565b50817f35947a8913e2156f19b018078c9f0667e49cb3dc24af3434a4d0b16b82675b1b604083013561123d6060850185612e62565b85602001356040516112529493929190612f67565b60405180910390a25050565b611266611e6d565b6112706000611ec8565b565b7ff0c57e16840df040f15088dc2f81fe391c3923bec73e23a9662efc9c229c6a008054600160401b810460ff1615906001600160401b03166000811580156112b75750825b90506000826001600160401b031660011480156112d35750303b155b9050811580156112e1575080155b156112ff5760405163f92ee8a960e01b815260040160405180910390fd5b845467ffffffffffffffff19166001178555831561132957845460ff60401b1916600160401b1785555b61133233611f39565b61133a611f4a565b6002611347888a83612ea8565b50600180546001600160a01b0319166001600160a01b03881617905583156113a957845460ff60401b19168555604051600181527fc7f505b2f371ae2175ee4913f4499e1f2633a7b5936321eed1cdaeb6115181d29060200160405180910390a15b5050505050505050565b6113bb612203565b60008281526020819052604090819020815161014081019092528054829060ff1660048111156113ed576113ed612318565b60048111156113fe576113fe612318565b8152815461010090046001600160a01b0316602080830191909152604080518082018252600185015481526002850154818401528184015260038401546060840152600484018054825181850281018501909352808352608090940193919290919083018282801561148f57602002820191906000526020600020905b81548152602001906001019080831161147b575b5050505050815260200160058201548152602001600682015481526020016007820180546114bc90612aa7565b80601f01602080910402602001604051908101604052809291908181526020018280546114e890612aa7565b80156115355780601f1061150a57610100808354040283529160200191611535565b820191906000526020600020905b81548152906001019060200180831161151857829003601f168201915b5050509183525050604080516101008082018352600885015460ff8082161515845291810482161515602084810191909152620100008204831684860152630100000090910482166060840152600980870154608080860191909152600a88015460a0860152600b88015460c0860152600c88015460e08601529186019390935283519081018452600d86018054949095019490939092849291909116908111156115e2576115e2612318565b60098111156115f3576115f3612318565b8152602001600182015481526020016002820154815260200160038201805461161b90612aa7565b80601f016020809104026020016040519081016040528092919081815260200182805461164790612aa7565b80156116945780601f1061166957610100808354040283529160200191611694565b820191906000526020600020905b81548152906001019060200180831161167757829003601f168201915b5050509190925250505090525092915050565b600280546116b490612aa7565b80601f01602080910402602001604051908101604052809291908181526020018280546116e090612aa7565b801561172d5780601f106117025761010080835404028352916020019161172d565b820191906000526020600020905b81548152906001019060200180831161171057829003601f168201915b505050505081565b60008581526020819052604090205461010090046001600160a01b031661176e5760405162461bcd60e51b815260040161068990612dfd565b600460008681526020819052604090205460ff16600481111561179357611793612318565b141580156117c45750600260008681526020819052604090205460ff1660048111156117c1576117c1612318565b14155b6118275760405162461bcd60e51b815260206004820152602e60248201527f496e76616c69642073746174757320666f72207375626d697474696e6720737460448201526d30ba32903a3930b739b4ba34b7b760911b6064820152608401610689565b600085815260208190526040902060030154841461187a5760405162461bcd60e51b815260206004820152601060248201526f125b9d985b1a59081bdb19081c9bdbdd60821b6044820152606401610689565b60008581526020818152604091829020600301859055905184815286917f734f931fe7a3776841211722ed18b29fc2947cc7a13e74d15fa612205c022db8910160405180910390a25050505050565b6001546000838152602081905260409081902054905163c1af6e0360e01b81526001600160a01b036101009092048216600482015233602482015291169063c1af6e0390604401602060405180830381865afa15801561192d573d6000803e3d6000fd5b505050506040513d601f19601f820116820180604052508101906119519190612b3e565b6119ae5760405162461bcd60e51b815260206004820152602860248201527f53657450726f636573734475726174696f6e3a206e6f7420616e2061646d696e60448201526734b9ba3930ba37b960c11b6064820152608401610689565b60008281526020819052604090205461010090046001600160a01b03166119e75760405162461bcd60e51b815260040161068990612dfd565b60008281526020819052604081205460ff166004811115611a0a57611a0a612318565b1480611a385750600360008381526020819052604090205460ff166004811115611a3657611a36612318565b145b611a545760405162461bcd60e51b815260040161068990612e28565b428111611a965760405162461bcd60e51b815260206004820152601060248201526f24b73b30b634b210323ab930ba34b7b760811b6044820152606401610689565b60008281526020818152604091829020600601839055905182815283917f0f759826327c668a220d576485ac38ddc4f83fbc414b984c00e79f669b649f469101611252565b6001546000828152602081905260409081902054905163c1af6e0360e01b81526001600160a01b036101009092048216600482015233602482015291169063c1af6e0390604401602060405180830381865afa158015611b3f573d6000803e3d6000fd5b505050506040513d601f19601f82011682018060405250810190611b639190612b3e565b611baf5760405162461bcd60e51b815260206004820181905260248201527f656e6450726f636573733a206e6f7420616e2061646d696e6973747261746f726044820152606401610689565b60008181526020819052604081205460ff166004811115611bd257611bd2612318565b1480611c005750600360008281526020819052604090205460ff166004811115611bfe57611bfe612318565b145b611c1c5760405162461bcd60e51b815260040161068990612e28565b600081815260208190526040902080546001919060ff191682800217905550807fac0c4085a30bc70d0d8893ee5d6466ac9c5f03e27fd7292dcef128a610e7c1906001604051611c6c9190612e54565b60405180910390a250565b611c7f611e6d565b6001600160a01b038116611ca957604051631e4fbdf760e01b815260006004820152602401610689565b611cb281611ec8565b50565b306001600160a01b037f0000000000000000000000000000000000000000000000000000000000000000161480611d3c57507f00000000000000000000000000000000000000000000000000000000000000006001600160a01b0316611d30600080516020612fdd833981519152546001600160a01b031690565b6001600160a01b031614155b156112705760405163703e46dd60e11b815260040160405180910390fd5b611cb2611e6d565b816001600160a01b03166352d1902d6040518163ffffffff1660e01b8152600401602060405180830381865afa925050508015611dbc575060408051601f3d908101601f19168201909252611db991810190612fa7565b60015b611de457604051634c9c8ce360e01b81526001600160a01b0383166004820152602401610689565b600080516020612fdd8339815191528114611e1557604051632a87526960e21b815260048101829052602401610689565b611e1f8383611f52565b505050565b306001600160a01b037f000000000000000000000000000000000000000000000000000000000000000016146112705760405163703e46dd60e11b815260040160405180910390fd5b33611e9f7f9016d09d72d40fdae2fd8ceac6b6234c7706214fd39c1cd1e609a0528c199300546001600160a01b031690565b6001600160a01b0316146112705760405163118cdaa760e01b8152336004820152602401610689565b7f9016d09d72d40fdae2fd8ceac6b6234c7706214fd39c1cd1e609a0528c19930080546001600160a01b031981166001600160a01b03848116918217845560405192169182907f8be0079c531659141344cd1fd0a4f28419497f9722a3daafe3b4186f6b6457e090600090a3505050565b611f41611fa8565b611cb281611ff1565b611270611fa8565b611f5b82611ff9565b6040516001600160a01b038316907fbc7cd75a20ee27fd9adebab32041f755214dbc6bffa90cc0225b39da2e5c2d3b90600090a2805115611fa057611e1f828261205e565b610d476120d6565b7ff0c57e16840df040f15088dc2f81fe391c3923bec73e23a9662efc9c229c6a0054600160401b900460ff1661127057604051631afcd79f60e31b815260040160405180910390fd5b611c7f611fa8565b806001600160a01b03163b60000361202f57604051634c9c8ce360e01b81526001600160a01b0382166004820152602401610689565b600080516020612fdd83398151915280546001600160a01b0319166001600160a01b0392909216919091179055565b6060600080846001600160a01b03168460405161207b9190612fc0565b600060405180830381855af49150503d80600081146120b6576040519150601f19603f3d011682016040523d82523d6000602084013e6120bb565b606091505b50915091506120cb8583836120f5565b925050505b92915050565b34156112705760405163b398979f60e01b815260040160405180910390fd5b60608261210a5761210582612154565b61214d565b815115801561212157506001600160a01b0384163b155b1561214a57604051639996b31560e01b81526001600160a01b0385166004820152602401610689565b50805b9392505050565b8051156121645780518082602001fd5b604051630a12f52160e11b815260040160405180910390fd5b8280548282559060005260206000209081019282156121b8579160200282015b828111156121b857825182559160200191906001019061219d565b506121c49291506122ea565b5090565b8280548282559060005260206000209081019282156121b8579160200282015b828111156121b85782358255916020019190600101906121e8565b604080516101408101909152806000815260200160006001600160a01b03168152602001612244604051806040016040528060008152602001600081525090565b815260200160008019168152602001606081526020016000815260200160008152602001606081526020016122c1604051806101000160405280600015158152602001600015158152602001600060ff168152602001600060ff168152602001600081526020016000815260200160008152602001600081525090565b815260408051608081018252600080825260208281018290529282015260608082015291015290565b5b808211156121c457600081556001016122eb565b60006020828403121561231157600080fd5b5035919050565b634e487b7160e01b600052602160045260246000fd5b6005811061233e5761233e612318565b9052565b60005b8381101561235d578181015183820152602001612345565b50506000910152565b6000815180845261237e816020860160208601612342565b601f01601f19169290920160200192915050565b80511515825260208101511515602083015260ff604082015116604083015260608101516123c5606084018260ff169052565b506080810151608083015260a081015160a083015260c081015160c083015260e081015160e08301525050565b60008151600a811061240657612406612318565b8084525060208201516020840152604082015160408401526060820151608060608501526124376080850182612366565b949350505050565b612449818b61232e565b6001600160a01b038916602082015261246f604082018980518252602090810151910152565b8660808201528560a08201528460c082015261022060e08201526000612499610220830186612366565b6124a7610100840186612392565b8281036102008401526124ba81856123f2565b9c9b505050505050505050505050565b8035600581106124d957600080fd5b919050565b600061010082840312156124f157600080fd5b50919050565b6000608082840312156124f157600080fd5b60008083601f84011261251b57600080fd5b5081356001600160401b0381111561253257600080fd5b60208301915083602082850101111561254a57600080fd5b9250929050565b80356001600160a01b03811681146124d957600080fd5b6000604082840312156124f157600080fd5b60008060008060008060008060008060006102408c8e03121561259c57600080fd5b6125a58c6124ca565b9a5060208c0135995060408c013598506125c28d60608e016124de565b97506101608c01356001600160401b038111156125de57600080fd5b6125ea8e828f016124f7565b9750506101808c01356001600160401b0381111561260757600080fd5b6126138e828f01612509565b909750955061262790506101a08d01612551565b93506101c08c0135925061263f8d6101e08e01612568565b915060006102208d01359050809150509295989b509295989b9093969950565b60008060008060006060868803121561267757600080fd5b8535945060208601356001600160401b0381111561269457600080fd5b8601601f810188136126a557600080fd5b80356001600160401b038111156126bb57600080fd5b8860208260051b84010111156126d057600080fd5b6020919091019450925060408601356001600160401b038111156126f357600080fd5b6126ff88828901612509565b969995985093965092949392505050565b634e487b7160e01b600052604160045260246000fd5b60405161010081016001600160401b038111828210171561274957612749612710565b60405290565b604051608081016001600160401b038111828210171561274957612749612710565b6000806001600160401b0384111561278b5761278b612710565b50604051601f19601f85018116603f011681018181106001600160401b03821117156127b9576127b9612710565b6040528381529050808284018510156127d157600080fd5b83836020830137600060208583010152509392505050565b600080604083850312156127fc57600080fd5b61280583612551565b915060208301356001600160401b0381111561282057600080fd5b8301601f8101851361283157600080fd5b61284085823560208401612771565b9150509250929050565b6000806040838503121561285d57600080fd5b8235915061286d602084016124ca565b90509250929050565b6000806040838503121561288957600080fd5b8235915060208301356001600160401b038111156128a657600080fd5b612840858286016124f7565b6000806000604084860312156128c757600080fd5b83356001600160401b038111156128dd57600080fd5b6128e986828701612509565b90945092506128fc905060208501612551565b90509250925092565b600081518084526020840193506020830160005b82811015612937578151865260209586019590910190600101612919565b5093949350505050565b6020815261295360208201835161232e565b6000602083015161296f60408401826001600160a01b03169052565b506040830151805160608401526020810151608084015250606083015160a0830152608083015161024060c08401526129ac610260840182612905565b905060a084015160e084015260c084015161010084015260e0840151601f19848303016101208501526129df8282612366565b9150506101008401516129f6610140850182612392565b50610120840151838203601f19016102408501526120cb82826123f2565b60208152600061214d6020830184612366565b600080600080600060808688031215612a3f57600080fd5b85359450602086013593506040860135925060608601356001600160401b038111156126f357600080fd5b60008060408385031215612a7d57600080fd5b50508035926020909101359150565b600060208284031215612a9e57600080fd5b61214d82612551565b600181811c90821680612abb57607f821691505b6020821081036124f157634e487b7160e01b600052602260045260246000fd5b803560ff811681146124d957600080fd5b600060208284031215612afe57600080fd5b61214d82612adb565b634e487b7160e01b600052601160045260246000fd5b808201808211156120d0576120d0612b07565b8015158114611cb257600080fd5b600060208284031215612b5057600080fd5b815161214d81612b30565b60006040828403128015612b6e57600080fd5b50604080519081016001600160401b0381118282101715612b9157612b91612710565b604052823581526020928301359281019290925250919050565b80356124d981612b30565b6000610100828403128015612bca57600080fd5b506000612bd5612726565b8335612be081612b30565b8152612bee60208501612bab565b6020820152612bff60408501612adb565b6040820152612c1060608501612adb565b60608201526080848101359082015260a0808501359082015260c0808501359082015260e09384013593810193909352509092915050565b600060808236031215612c5a57600080fd5b612c6261274f565b8235600a8110612c7157600080fd5b8152602083810135908201526040808401359082015260608301356001600160401b03811115612ca057600080fd5b830136601f820112612cb157600080fd5b612cc036823560208401612771565b60608301525092915050565b601f821115611e1f57806000526020600020601f840160051c81016020851015612cf35750805b601f840160051c820191505b81811015612d135760008155600101612cff565b5050505050565b81516001600160401b03811115612d3357612d33612710565b612d4781612d418454612aa7565b84612ccc565b6020601f821160018114612d7b5760008315612d635750848201515b600019600385901b1c1916600184901b178455612d13565b600084815260208120601f198516915b82811015612dab5787850151825560209485019460019092019101612d8b565b5084821015612dc95786840151600019600387901b60f8161c191681555b50505050600190811b01905550565b600063ffffffff821663ffffffff8103612df457612df4612b07565b60010192915050565b602080825260119082015270141c9bd8d95cdcc81b9bdd08199bdd5b99607a1b604082015260600190565b602080825260129082015271141c9bd8d95cdcc81d195c9b5a5b985d195960721b604082015260600190565b602081016120d0828461232e565b6000808335601e19843603018112612e7957600080fd5b8301803591506001600160401b03821115612e9357600080fd5b60200191503681900382131561254a57600080fd5b6001600160401b03831115612ebf57612ebf612710565b612ed383612ecd8354612aa7565b83612ccc565b6000601f841160018114612f075760008515612eef5750838201355b600019600387901b1c1916600186901b178355612d13565b600083815260209020601f19861690835b82811015612f385786850135825560209485019460019092019101612f18565b5086821015612f555760001960f88860031b161c19848701351681555b505060018560011b0183555050505050565b848152606060208201528260608201528284608083013760006080848301015260006080601f19601f860116830101905082604083015295945050505050565b600060208284031215612fb957600080fd5b5051919050565b60008251612fd2818460208701612342565b919091019291505056fe360894a13ba1a3210667c828492db98dca3e2076cc3735a920a3ca505d382bbca2646970667358221220b9961b37f4055625eaf24fb8de806b1a9331a5736dfd9a3e1de5c76f000a5bfe64736f6c634300081c0033",
  "linkReferences": {},
  "deployedLinkReferences": {}
}