{
  "_format": "hh-sol-artifact-1",
  "contractName": "ProcessRegistry",
  "sourceName": "src/ProcessRegistry.sol",
  "abi": [
    {
      "inputs": [
        {
          "internalType": "uint32",
          "name": "_chainID",
          "type": "uint32"
        },
        {
          "internalType": "address",
          "name": "_stVerifier",
          "type": "address"
        },
        {
          "internalType": "address",
          "name": "_rVerifier",
          "type": "address"
        }
      ],
      "stateMutability": "nonpayable",
      "type": "constructor"
    },
    {
      "inputs": [],
      "name": "CannotAcceptResult",
      "type": "error"
    },
    {
      "inputs": [],
      "name": "InvalidCensusOrigin",
      "type": "error"
    },
    {
      "inputs": [],
      "name": "InvalidCensusRoot",
      "type": "error"
    },
    {
      "inputs": [],
      "name": "InvalidCensusURI",
      "type": "error"
    },
    {
      "inputs": [],
      "name": "InvalidDuration",
      "type": "error"
    },
    {
      "inputs": [],
      "name": "InvalidMaxCount",
      "type": "error"
    },
    {
      "inputs": [],
      "name": "InvalidMaxMinValueBounds",
      "type": "error"
    },
    {
      "inputs": [],
      "name": "InvalidMaxTotalCost",
      "type": "error"
    },
    {
      "inputs": [],
      "name": "InvalidMaxValue",
      "type": "error"
    },
    {
      "inputs": [],
      "name": "InvalidMaxVotes",
      "type": "error"
    },
    {
      "inputs": [],
      "name": "InvalidMinTotalCost",
      "type": "error"
    },
    {
      "inputs": [],
      "name": "InvalidMinValue",
      "type": "error"
    },
    {
      "inputs": [],
      "name": "InvalidProcessId",
      "type": "error"
    },
    {
      "inputs": [],
      "name": "InvalidStartTime",
      "type": "error"
    },
    {
      "inputs": [],
      "name": "InvalidStateRoot",
      "type": "error"
    },
    {
      "inputs": [],
      "name": "InvalidStatus",
      "type": "error"
    },
    {
      "inputs": [],
      "name": "InvalidTimeBounds",
      "type": "error"
    },
    {
      "inputs": [],
      "name": "InvalidTotalCostBounds",
      "type": "error"
    },
    {
      "inputs": [],
      "name": "InvalidUniqueValues",
      "type": "error"
    },
    {
      "inputs": [],
      "name": "ProcessAlreadyExists",
      "type": "error"
    },
    {
      "inputs": [],
      "name": "ProcessNotEnded",
      "type": "error"
    },
    {
      "inputs": [],
      "name": "ProcessNotFound",
      "type": "error"
    },
    {
      "inputs": [],
      "name": "ProofInvalid",
      "type": "error"
    },
    {
      "inputs": [],
      "name": "Unauthorized",
      "type": "error"
    },
    {
      "anonymous": false,
      "inputs": [
        {
          "indexed": true,
          "internalType": "bytes32",
          "name": "processId",
          "type": "bytes32"
        },
        {
          "indexed": false,
          "internalType": "bytes32",
          "name": "censusRoot",
          "type": "bytes32"
        },
        {
          "indexed": false,
          "internalType": "string",
          "name": "censusURI",
          "type": "string"
        },
        {
          "indexed": false,
          "internalType": "uint256",
          "name": "maxVotes",
          "type": "uint256"
        }
      ],
      "name": "CensusUpdated",
      "type": "event"
    },
    {
      "anonymous": false,
      "inputs": [
        {
          "indexed": true,
          "internalType": "bytes32",
          "name": "processId",
          "type": "bytes32"
        },
        {
          "indexed": true,
          "internalType": "address",
          "name": "creator",
          "type": "address"
        }
      ],
      "name": "ProcessCreated",
      "type": "event"
    },
    {
      "anonymous": false,
      "inputs": [
        {
          "indexed": true,
          "internalType": "bytes32",
          "name": "processId",
          "type": "bytes32"
        },
        {
          "indexed": false,
          "internalType": "uint256",
          "name": "duration",
          "type": "uint256"
        }
      ],
      "name": "ProcessDurationChanged",
      "type": "event"
    },
    {
      "anonymous": false,
      "inputs": [
        {
          "indexed": true,
          "internalType": "bytes32",
          "name": "processId",
          "type": "bytes32"
        },
        {
          "indexed": true,
          "internalType": "address",
          "name": "sender",
          "type": "address"
        },
        {
          "indexed": false,
          "internalType": "uint256[]",
          "name": "result",
          "type": "uint256[]"
        }
      ],
      "name": "ProcessResultsSet",
      "type": "event"
    },
    {
      "anonymous": false,
      "inputs": [
        {
          "indexed": true,
          "internalType": "bytes32",
          "name": "processId",
          "type": "bytes32"
        },
        {
          "indexed": true,
          "internalType": "address",
          "name": "sender",
          "type": "address"
        },
        {
          "indexed": false,
          "internalType": "uint256",
          "name": "newStateRoot",
          "type": "uint256"
        }
      ],
      "name": "ProcessStateRootUpdated",
      "type": "event"
    },
    {
      "anonymous": false,
      "inputs": [
        {
          "indexed": true,
          "internalType": "bytes32",
          "name": "processId",
          "type": "bytes32"
        },
        {
          "indexed": false,
          "internalType": "enum IProcessRegistry.ProcessStatus",
          "name": "oldStatus",
          "type": "uint8"
        },
        {
          "indexed": false,
          "internalType": "enum IProcessRegistry.ProcessStatus",
          "name": "newStatus",
          "type": "uint8"
        }
      ],
      "name": "ProcessStatusChanged",
      "type": "event"
    },
    {
      "inputs": [],
      "name": "MAX_CENSUS_ORIGIN",
      "outputs": [
        {
          "internalType": "uint8",
          "name": "",
          "type": "uint8"
        }
      ],
      "stateMutability": "view",
      "type": "function"
    },
    {
      "inputs": [],
      "name": "MAX_STATUS",
      "outputs": [
        {
          "internalType": "uint8",
          "name": "",
          "type": "uint8"
        }
      ],
      "stateMutability": "view",
      "type": "function"
    },
    {
      "inputs": [],
      "name": "chainID",
      "outputs": [
        {
          "internalType": "uint32",
          "name": "",
          "type": "uint32"
        }
      ],
      "stateMutability": "view",
      "type": "function"
    },
    {
      "inputs": [
        {
          "internalType": "address",
          "name": "organizationId",
          "type": "address"
        }
      ],
      "name": "getNextProcessId",
      "outputs": [
        {
          "internalType": "bytes32",
          "name": "",
          "type": "bytes32"
        }
      ],
      "stateMutability": "view",
      "type": "function"
    },
    {
      "inputs": [
        {
          "internalType": "bytes32",
          "name": "processId",
          "type": "bytes32"
        }
      ],
      "name": "getProcess",
      "outputs": [
        {
          "components": [
            {
              "internalType": "enum IProcessRegistry.ProcessStatus",
              "name": "status",
              "type": "uint8"
            },
            {
              "internalType": "address",
              "name": "organizationId",
              "type": "address"
            },
            {
              "components": [
                {
                  "internalType": "uint256",
                  "name": "x",
                  "type": "uint256"
                },
                {
                  "internalType": "uint256",
                  "name": "y",
                  "type": "uint256"
                }
              ],
              "internalType": "struct IProcessRegistry.EncryptionKey",
              "name": "encryptionKey",
              "type": "tuple"
            },
            {
              "internalType": "uint256",
              "name": "latestStateRoot",
              "type": "uint256"
            },
            {
              "internalType": "uint256[]",
              "name": "result",
              "type": "uint256[]"
            },
            {
              "internalType": "uint256",
              "name": "startTime",
              "type": "uint256"
            },
            {
              "internalType": "uint256",
              "name": "duration",
              "type": "uint256"
            },
            {
              "internalType": "uint256",
              "name": "voteCount",
              "type": "uint256"
            },
            {
              "internalType": "uint256",
              "name": "voteOverwriteCount",
              "type": "uint256"
            },
            {
              "internalType": "string",
              "name": "metadataURI",
              "type": "string"
            },
            {
              "components": [
                {
                  "internalType": "bool",
                  "name": "costFromWeight",
                  "type": "bool"
                },
                {
                  "internalType": "bool",
                  "name": "forceUniqueness",
                  "type": "bool"
                },
                {
                  "internalType": "uint8",
                  "name": "maxCount",
                  "type": "uint8"
                },
                {
                  "internalType": "uint8",
                  "name": "costExponent",
                  "type": "uint8"
                },
                {
                  "internalType": "uint256",
                  "name": "maxValue",
                  "type": "uint256"
                },
                {
                  "internalType": "uint256",
                  "name": "minValue",
                  "type": "uint256"
                },
                {
                  "internalType": "uint256",
                  "name": "maxTotalCost",
                  "type": "uint256"
                },
                {
                  "internalType": "uint256",
                  "name": "minTotalCost",
                  "type": "uint256"
                }
              ],
              "internalType": "struct IProcessRegistry.BallotMode",
              "name": "ballotMode",
              "type": "tuple"
            },
            {
              "components": [
                {
                  "internalType": "enum IProcessRegistry.CensusOrigin",
                  "name": "censusOrigin",
                  "type": "uint8"
                },
                {
                  "internalType": "uint256",
                  "name": "maxVotes",
                  "type": "uint256"
                },
                {
                  "internalType": "bytes32",
                  "name": "censusRoot",
                  "type": "bytes32"
                },
                {
                  "internalType": "string",
                  "name": "censusURI",
                  "type": "string"
                }
              ],
              "internalType": "struct IProcessRegistry.Census",
              "name": "census",
              "type": "tuple"
            }
          ],
          "internalType": "struct IProcessRegistry.Process",
          "name": "",
          "type": "tuple"
        }
      ],
      "stateMutability": "view",
      "type": "function"
    },
    {
      "inputs": [
        {
          "internalType": "bytes32",
          "name": "processId",
          "type": "bytes32"
        }
      ],
      "name": "getProcessEndTime",
      "outputs": [
        {
          "internalType": "uint256",
          "name": "",
          "type": "uint256"
        }
      ],
      "stateMutability": "view",
      "type": "function"
    },
    {
      "inputs": [],
      "name": "getRVerifierVKeyHash",
      "outputs": [
        {
          "internalType": "bytes32",
          "name": "",
          "type": "bytes32"
        }
      ],
      "stateMutability": "view",
      "type": "function"
    },
    {
      "inputs": [],
      "name": "getSTVerifierVKeyHash",
      "outputs": [
        {
          "internalType": "bytes32",
          "name": "",
          "type": "bytes32"
        }
      ],
      "stateMutability": "view",
      "type": "function"
    },
    {
      "inputs": [
        {
          "internalType": "enum IProcessRegistry.ProcessStatus",
          "name": "status",
          "type": "uint8"
        },
        {
          "internalType": "uint256",
          "name": "startTime",
          "type": "uint256"
        },
        {
          "internalType": "uint256",
          "name": "duration",
          "type": "uint256"
        },
        {
          "components": [
            {
              "internalType": "bool",
              "name": "costFromWeight",
              "type": "bool"
            },
            {
              "internalType": "bool",
              "name": "forceUniqueness",
              "type": "bool"
            },
            {
              "internalType": "uint8",
              "name": "maxCount",
              "type": "uint8"
            },
            {
              "internalType": "uint8",
              "name": "costExponent",
              "type": "uint8"
            },
            {
              "internalType": "uint256",
              "name": "maxValue",
              "type": "uint256"
            },
            {
              "internalType": "uint256",
              "name": "minValue",
              "type": "uint256"
            },
            {
              "internalType": "uint256",
              "name": "maxTotalCost",
              "type": "uint256"
            },
            {
              "internalType": "uint256",
              "name": "minTotalCost",
              "type": "uint256"
            }
          ],
          "internalType": "struct IProcessRegistry.BallotMode",
          "name": "ballotMode",
          "type": "tuple"
        },
        {
          "components": [
            {
              "internalType": "enum IProcessRegistry.CensusOrigin",
              "name": "censusOrigin",
              "type": "uint8"
            },
            {
              "internalType": "uint256",
              "name": "maxVotes",
              "type": "uint256"
            },
            {
              "internalType": "bytes32",
              "name": "censusRoot",
              "type": "bytes32"
            },
            {
              "internalType": "string",
              "name": "censusURI",
              "type": "string"
            }
          ],
          "internalType": "struct IProcessRegistry.Census",
          "name": "census",
          "type": "tuple"
        },
        {
          "internalType": "string",
          "name": "metadata",
          "type": "string"
        },
        {
          "components": [
            {
              "internalType": "uint256",
              "name": "x",
              "type": "uint256"
            },
            {
              "internalType": "uint256",
              "name": "y",
              "type": "uint256"
            }
          ],
          "internalType": "struct IProcessRegistry.EncryptionKey",
          "name": "encryptionKey",
          "type": "tuple"
        },
        {
          "internalType": "uint256",
          "name": "initStateRoot",
          "type": "uint256"
        }
      ],
      "name": "newProcess",
      "outputs": [
        {
          "internalType": "bytes32",
          "name": "",
          "type": "bytes32"
        }
      ],
      "stateMutability": "nonpayable",
      "type": "function"
    },
    {
      "inputs": [],
      "name": "processCount",
      "outputs": [
        {
          "internalType": "uint32",
          "name": "",
          "type": "uint32"
        }
      ],
      "stateMutability": "view",
      "type": "function"
    },
    {
      "inputs": [
        {
          "internalType": "address",
          "name": "",
          "type": "address"
        }
      ],
      "name": "processNonce",
      "outputs": [
        {
          "internalType": "uint64",
          "name": "",
          "type": "uint64"
        }
      ],
      "stateMutability": "view",
      "type": "function"
    },
    {
      "inputs": [
        {
          "internalType": "bytes32",
          "name": "",
          "type": "bytes32"
        }
      ],
      "name": "processes",
      "outputs": [
        {
          "internalType": "enum IProcessRegistry.ProcessStatus",
          "name": "status",
          "type": "uint8"
        },
        {
          "internalType": "address",
          "name": "organizationId",
          "type": "address"
        },
        {
          "components": [
            {
              "internalType": "uint256",
              "name": "x",
              "type": "uint256"
            },
            {
              "internalType": "uint256",
              "name": "y",
              "type": "uint256"
            }
          ],
          "internalType": "struct IProcessRegistry.EncryptionKey",
          "name": "encryptionKey",
          "type": "tuple"
        },
        {
          "internalType": "uint256",
          "name": "latestStateRoot",
          "type": "uint256"
        },
        {
          "internalType": "uint256",
          "name": "startTime",
          "type": "uint256"
        },
        {
          "internalType": "uint256",
          "name": "duration",
          "type": "uint256"
        },
        {
          "internalType": "uint256",
          "name": "voteCount",
          "type": "uint256"
        },
        {
          "internalType": "uint256",
          "name": "voteOverwriteCount",
          "type": "uint256"
        },
        {
          "internalType": "string",
          "name": "metadataURI",
          "type": "string"
        },
        {
          "components": [
            {
              "internalType": "bool",
              "name": "costFromWeight",
              "type": "bool"
            },
            {
              "internalType": "bool",
              "name": "forceUniqueness",
              "type": "bool"
            },
            {
              "internalType": "uint8",
              "name": "maxCount",
              "type": "uint8"
            },
            {
              "internalType": "uint8",
              "name": "costExponent",
              "type": "uint8"
            },
            {
              "internalType": "uint256",
              "name": "maxValue",
              "type": "uint256"
            },
            {
              "internalType": "uint256",
              "name": "minValue",
              "type": "uint256"
            },
            {
              "internalType": "uint256",
              "name": "maxTotalCost",
              "type": "uint256"
            },
            {
              "internalType": "uint256",
              "name": "minTotalCost",
              "type": "uint256"
            }
          ],
          "internalType": "struct IProcessRegistry.BallotMode",
          "name": "ballotMode",
          "type": "tuple"
        },
        {
          "components": [
            {
              "internalType": "enum IProcessRegistry.CensusOrigin",
              "name": "censusOrigin",
              "type": "uint8"
            },
            {
              "internalType": "uint256",
              "name": "maxVotes",
              "type": "uint256"
            },
            {
              "internalType": "bytes32",
              "name": "censusRoot",
              "type": "bytes32"
            },
            {
              "internalType": "string",
              "name": "censusURI",
              "type": "string"
            }
          ],
          "internalType": "struct IProcessRegistry.Census",
          "name": "census",
          "type": "tuple"
        }
      ],
      "stateMutability": "view",
      "type": "function"
    },
    {
      "inputs": [],
      "name": "rVerifier",
      "outputs": [
        {
          "internalType": "address",
          "name": "",
          "type": "address"
        }
      ],
      "stateMutability": "view",
      "type": "function"
    },
    {
      "inputs": [
        {
          "internalType": "bytes32",
          "name": "processId",
          "type": "bytes32"
        },
        {
          "components": [
            {
              "internalType": "enum IProcessRegistry.CensusOrigin",
              "name": "censusOrigin",
              "type": "uint8"
            },
            {
              "internalType": "uint256",
              "name": "maxVotes",
              "type": "uint256"
            },
            {
              "internalType": "bytes32",
              "name": "censusRoot",
              "type": "bytes32"
            },
            {
              "internalType": "string",
              "name": "censusURI",
              "type": "string"
            }
          ],
          "internalType": "struct IProcessRegistry.Census",
          "name": "census",
          "type": "tuple"
        }
      ],
      "name": "setProcessCensus",
      "outputs": [],
      "stateMutability": "nonpayable",
      "type": "function"
    },
    {
      "inputs": [
        {
          "internalType": "bytes32",
          "name": "processId",
          "type": "bytes32"
        },
        {
          "internalType": "uint256",
          "name": "_duration",
          "type": "uint256"
        }
      ],
      "name": "setProcessDuration",
      "outputs": [],
      "stateMutability": "nonpayable",
      "type": "function"
    },
    {
      "inputs": [
        {
          "internalType": "bytes32",
          "name": "processId",
          "type": "bytes32"
        },
        {
          "internalType": "bytes",
          "name": "proof",
          "type": "bytes"
        },
        {
          "internalType": "bytes",
          "name": "input",
          "type": "bytes"
        }
      ],
      "name": "setProcessResults",
      "outputs": [],
      "stateMutability": "nonpayable",
      "type": "function"
    },
    {
      "inputs": [
        {
          "internalType": "bytes32",
          "name": "processId",
          "type": "bytes32"
        },
        {
          "internalType": "enum IProcessRegistry.ProcessStatus",
          "name": "newStatus",
          "type": "uint8"
        }
      ],
      "name": "setProcessStatus",
      "outputs": [],
      "stateMutability": "nonpayable",
      "type": "function"
    },
    {
      "inputs": [],
      "name": "stVerifier",
      "outputs": [
        {
          "internalType": "address",
          "name": "",
          "type": "address"
        }
      ],
      "stateMutability": "view",
      "type": "function"
    },
    {
      "inputs": [
        {
          "internalType": "bytes32",
          "name": "processId",
          "type": "bytes32"
        },
        {
          "internalType": "bytes",
          "name": "proof",
          "type": "bytes"
        },
        {
          "internalType": "bytes",
          "name": "input",
          "type": "bytes"
        }
      ],
      "name": "submitStateTransition",
      "outputs": [],
      "stateMutability": "nonpayable",
      "type": "function"
    }
  ],
  "bytecode": "0x608060405234801561001057600080fd5b50604051612a98380380612a9883398101604081905261002f916100b3565b60028054600380546001600160a01b039485166001600160a01b031990911617905563ffffffff9094166401000000000263ffffffff60201b1992909316680100000000000000000291909116600160201b600160e01b031990931692909217179055610101565b80516001600160a01b03811681146100ae57600080fd5b919050565b6000806000606084860312156100c857600080fd5b835163ffffffff811681146100dc57600080fd5b92506100ea60208501610097565b91506100f860408501610097565b90509250925092565b612988806101106000396000f3fe608060405234801561001057600080fd5b50600436106101215760003560e01c806372c628ef116100ad578063a5f01e1911610071578063a5f01e19146102b9578063adc879e9146102cc578063c718c01f146102e4578063d71d072e146102f7578063f9aa44991461030a57600080fd5b806372c628ef14610246578063848df5401461024e578063992bc45b146102735780639c18deaf14610293578063a5b110de146102a657600080fd5b80634c0acc56116100f45780634c0acc56146101c257806356a6f1e2146101ca57806362fa11fc146101df57806368141f2c146102205780636bae04ea1461023357600080fd5b806302cc919a146101265780630535fece14610145578063097063921461016f5780633365133c146101a1575b600080fd5b61012e600981565b60405160ff90911681526020015b60405180910390f35b610158610153366004611e11565b610312565b60405161013c9b9a99989796959493929190611f47565b60025461018990600160401b90046001600160a01b031681565b6040516001600160a01b03909116815260200161013c565b6101b46101af366004612068565b610554565b60405190815260200161013c565b6101b4610716565b6101dd6101d8366004612139565b610794565b005b6102086101ed366004612165565b6001602052600090815260409020546001600160401b031681565b6040516001600160401b03909116815260200161013c565b6101b461022e366004612165565b61094b565b6101dd61024136600461218e565b610993565b61012e600481565b60025461025e9063ffffffff1681565b60405163ffffffff909116815260200161013c565b610286610281366004611e11565b610bfe565b60405161013c9190612210565b600354610189906001600160a01b031681565b6101dd6102b4366004612304565b610f01565b6101b46102c7366004611e11565b6111af565b60025461025e90640100000000900463ffffffff1681565b6101dd6102f2366004612381565b6114c4565b6101dd610305366004612304565b611641565b6101b4611831565b6000602081815291815260409081902080548251808401909352600182015483526002820154938301939093526003810154600582015460068301546007840154600885015460098601805460ff8a169961010090046001600160a01b03169897919061037e906123a3565b80601f01602080910402602001604051908101604052809291908181526020018280546103aa906123a3565b80156103f75780601f106103cc576101008083540402835291602001916103f7565b820191906000526020600020905b8154815290600101906020018083116103da57829003601f168201915b5050604080516101008082018352600a88015460ff808216151584529181048216151560208401526201000081048216838501526301000000900481166060830152600b880154608080840191909152600c89015460a0840152600d89015460c0840152600e89015460e08401528351908101909352600f8801805497989297929650929450919250839116600981111561049457610494611e2a565b60098111156104a5576104a5611e2a565b815260200160018201548152602001600282015481526020016003820180546104cd906123a3565b80601f01602080910402602001604051908101604052809291908181526020018280546104f9906123a3565b80156105465780601f1061051b57610100808354040283529160200191610546565b820191906000526020600020905b81548152906001019060200180831161052957829003601f168201915b50505050508152505090508b565b600254336000818152600160205260408120549092839161058e91640100000000900463ffffffff169084906001600160401b031661187b565b905061059f81838e8e8e8e8e61190b565b600081815260208190526040902080548d90829060ff191660018360048111156105cb576105cb611e2a565b0217905550600581018c9055600681018b90558054610100600160a81b0319166101006001600160a01b0385160217815585356001820155602086013560028201556003810185905560098101610623888a8361243c565b5089600a8201610633828261252c565b50899050600f8201610645828261263f565b50506002805463ffffffff1690600061065d836126ec565b825463ffffffff9182166101009390930a9283029190920219909116179055506001600160a01b038316600090815260016020526040812080546001600160401b0316916106aa83612711565b91906101000a8154816001600160401b0302191690836001600160401b0316021790555050826001600160a01b0316827fada6f87a2a16a0c9c169ca36754c5f33f7c1a973b575d068f888a549ed4faefa60405160405180910390a3509b9a5050505050505050505050565b6000600260089054906101000a90046001600160a01b03166001600160a01b031663233ace116040518163ffffffff1660e01b8152600401602060405180830381865afa15801561076b573d6000803e3d6000fd5b505050506040513d601f19601f8201168201806040525081019061078f9190612733565b905090565b816107b25760405163cbf4a64560e01b815260040160405180910390fd5b600481818111156107c5576107c5611e2a565b60ff1611156107e7576040516307a92f1960e51b815260040160405180910390fd5b6000828152602081905260409020805461010090046001600160a01b031661082257604051634d36eb6960e01b815260040160405180910390fd5b805461010090046001600160a01b03163314610850576040516282b42960e81b815260040160405180910390fd5b805460ff1661085f8184611b9b565b61087c576040516307a92f1960e51b815260040160405180910390fd5b81548390839060ff1916600183600481111561089a5761089a611e2a565b021790555060018360048111156108b3576108b3611e2a565b0361090b5760008260050154426108ca919061274c565b6006840181905560405181815290915085907f0f759826327c668a220d576485ac38ddc4f83fbc414b984c00e79f669b649f469060200160405180910390a2505b837f2f25f350b681441b5bb45430fbe61e78d0170cff4ad02cb0aa48a6427909aa8c828560405161093d92919061275f565b60405180910390a250505050565b6002546001600160a01b038216600090815260016020526040812054909161098d9164010000000090910463ffffffff169084906001600160401b031661187b565b92915050565b816109b15760405163cbf4a64560e01b815260040160405180910390fd5b6000828152602081905260409020805461010090046001600160a01b03166109ec57604051634d36eb6960e01b815260040160405180910390fd5b805461010090046001600160a01b03163314610a1a576040516282b42960e81b815260040160405180910390fd5b610a27602083018361277a565b6009811115610a3857610a38611e2a565b600f82015460ff166009811115610a5157610a51611e2a565b14610a6f5760405163f37f7b5d60e01b815260040160405180910390fd5b601081015460208301351015610a9857604051634f9233a560e01b815260040160405180910390fd5b6040820135610aba57604051635e32eadd60e01b815260040160405180910390fd5b610ac760608301836125f9565b9050600003610ae957604051630f8b932160e11b815260040160405180910390fd5b6000815460ff166004811115610b0157610b01611e2a565b14158015610b2557506003815460ff166004811115610b2257610b22611e2a565b14155b15610b43576040516307a92f1960e51b815260040160405180910390fd5b4281600601548260050154610b589190612797565b11610b765760405163e843c5eb60e01b815260040160405180910390fd5b6020820135601082015560408201356011820155610b9760608301836125f9565b6012830191610ba791908361243c565b50827f35947a8913e2156f19b018078c9f0667e49cb3dc24af3434a4d0b16b82675b1b6040840135610bdc60608601866125f9565b8660200135604051610bf194939291906127d3565b60405180910390a2505050565b610c06611cbf565b60008281526020819052604090819020815161018081019092528054829060ff166004811115610c3857610c38611e2a565b6004811115610c4957610c49611e2a565b8152815461010090046001600160a01b03166020808301919091526040805180820182526001850154815260028501548184015281840152600384015460608401526004840180548251818502810185019093528083526080909401939192909190830182828015610cda57602002820191906000526020600020905b815481526020019060010190808311610cc6575b5050505050815260200160058201548152602001600682015481526020016007820154815260200160088201548152602001600982018054610d1b906123a3565b80601f0160208091040260200160405190810160405280929190818152602001828054610d47906123a3565b8015610d945780601f10610d6957610100808354040283529160200191610d94565b820191906000526020600020905b815481529060010190602001808311610d7757829003601f168201915b5050509183525050604080516101008082018352600a85015460ff8082161515845291810482161515602084810191909152620100008204831684860152630100000090910482166060840152600b860154608080850191909152600c87015460a0850152600d87015460c0850152600e87015460e08501529085019290925282519182018352600f85018054939094019391928391166009811115610e3c57610e3c611e2a565b6009811115610e4d57610e4d611e2a565b81526020016001820154815260200160028201548152602001600382018054610e75906123a3565b80601f0160208091040260200160405190810160405280929190818152602001828054610ea1906123a3565b8015610eee5780601f10610ec357610100808354040283529160200191610eee565b820191906000526020600020905b815481529060010190602001808311610ed157829003601f168201915b5050509190925250505090525092915050565b84610f1f5760405163cbf4a64560e01b815260040160405180910390fd5b6000858152602081905260409020805461010090046001600160a01b0316610f5a57604051634d36eb6960e01b815260040160405180910390fd5b6001815460ff166004811115610f7257610f72611e2a565b14610f90576040516307a92f1960e51b815260040160405180910390fd5b4281600601548260050154610fa59190612797565b1115610fc45760405163e843c5eb60e01b815260040160405180910390fd5b600354604051635c73957b60e11b81526001600160a01b039091169063b8e72af690610ffa9088908890889088906004016127fe565b60006040518083038186803b15801561101257600080fd5b505afa158015611026573d6000803e3d6000fd5b506000925061103a91505083850185612860565b600383015481519192501461106257604051630b6fac0360e41b815260040160405180910390fd5b60006110706001600961274c565b6001600160401b03811115611087576110876123d7565b6040519080825280602002602001820160405280156110b0578160200160208202803683370190505b50905060015b6009811015611105578281600981106110d1576110d16128c9565b6020020151826110e260018461274c565b815181106110f2576110f26128c9565b60209081029190910101526001016110b6565b50825460ff1916600490811784558151611126918501906020840190611db1565b50877f2f25f350b681441b5bb45430fbe61e78d0170cff4ad02cb0aa48a6427909aa8c6001600460405161115b92919061275f565b60405180910390a2336001600160a01b0316887f5da8009aeb11de7ef64598b0de897a03d2f93efabda8507a70e29cca4530cf5d8360405161119d91906128df565b60405180910390a35050505050505050565b60008181526020819052604080822081516101808101909252805483929190829060ff1660048111156111e4576111e4611e2a565b60048111156111f5576111f5611e2a565b8152815461010090046001600160a01b0316602080830191909152604080518082018252600185015481526002850154818401528184015260038401546060840152600484018054825181850281018501909352808352608090940193919290919083018282801561128657602002820191906000526020600020905b815481526020019060010190808311611272575b50505050508152602001600582015481526020016006820154815260200160078201548152602001600882015481526020016009820180546112c7906123a3565b80601f01602080910402602001604051908101604052809291908181526020018280546112f3906123a3565b80156113405780601f1061131557610100808354040283529160200191611340565b820191906000526020600020905b81548152906001019060200180831161132357829003601f168201915b5050509183525050604080516101008082018352600a85015460ff8082161515845291810482161515602084810191909152620100008204831684860152630100000090910482166060840152600b860154608080850191909152600c87015460a0850152600d87015460c0850152600e87015460e08501529085019290925282519182018352600f850180549390940193919283911660098111156113e8576113e8611e2a565b60098111156113f9576113f9611e2a565b81526020016001820154815260200160028201548152602001600382018054611421906123a3565b80601f016020809104026020016040519081016040528092919081815260200182805461144d906123a3565b801561149a5780601f1061146f5761010080835404028352916020019161149a565b820191906000526020600020905b81548152906001019060200180831161147d57829003601f168201915b5050505050815250508152505090508060c001518160a001516114bd9190612797565b9392505050565b816114e25760405163cbf4a64560e01b815260040160405180910390fd5b6000828152602081905260409020805461010090046001600160a01b031661151d57604051634d36eb6960e01b815260040160405180910390fd5b805461010090046001600160a01b0316331461154b576040516282b42960e81b815260040160405180910390fd5b805460ff16600081600481111561156457611564611e2a565b141580156115845750600381600481111561158157611581611e2a565b14155b156115a2576040516307a92f1960e51b815260040160405180910390fd5b600582015460068301548415806115c25750426115bf8684612797565b11155b806115df57506115d28183612797565b6115dc8684612797565b11155b156115fd57604051637616640160e01b815260040160405180910390fd5b6006840185905560405185815286907f0f759826327c668a220d576485ac38ddc4f83fbc414b984c00e79f669b649f469060200160405180910390a2505050505050565b8461165f5760405163cbf4a64560e01b815260040160405180910390fd5b6000858152602081905260409020805461010090046001600160a01b031661169a57604051634d36eb6960e01b815260040160405180910390fd5b6000815460ff1660048111156116b2576116b2611e2a565b146116d0576040516307a92f1960e51b815260040160405180910390fd5b42816006015482600501546116e59190612797565b116117035760405163e843c5eb60e01b815260040160405180910390fd5b600254604051635c73957b60e11b8152600160401b9091046001600160a01b03169063b8e72af69061173f9088908890889088906004016127fe565b60006040518083038186803b15801561175757600080fd5b505afa15801561176b573d6000803e3d6000fd5b506000925061177f915050838501856128f2565b60038301548151919250146117a757604051630b6fac0360e41b815260040160405180910390fd5b6020810151600383015560408101516007830180546000906117ca908490612797565b909155505060608101516008830180546000906117e8908490612797565b9091555050602080820151604051908152339189917fdc9b2774f92abfeee93d8b2ef67d59cd90c2d6d740b01c24fd9ec109a71865fc910160405180910390a350505050505050565b6003546040805163233ace1160e01b815290516000926001600160a01b03169163233ace119160048083019260209291908290030181865afa15801561076b573d6000803e3d6000fd5b6001600160f81b031960e09390931b92831660ff60f01b84161760ff60e81b84161760ff60e01b939093169290921760409190911b68010000000000000000600160e01b03161767ff0000000000000082161766ff00000000000082161765ff000000000082161764ff0000000082161763ff00000082161762ff000082161761ff0082161760ff919091161790565b6000878152602081905260409020546001600160a01b03808816610100909204160361194a57604051635040c4d360e11b815260040160405180910390fd5b61195a6060830160408401612935565b60ff16158061197b575060086119766060840160408501612935565b60ff16115b156119995760405163ac38930b60e01b815260040160405180910390fd5b61ffff8260c0013511156119c057604051630ac929fb60e41b815260040160405180910390fd5b81608001358260a0013511156119e95760405163207ea56d60e01b815260040160405180910390fd5b8160c001358260e001351115611a125760405163a159c01160e01b815260040160405180910390fd5b6009611a21602083018361277a565b6009811115611a3257611a32611e2a565b60ff161115611a545760405163f37f7b5d60e01b815260040160405180910390fd5b8060200135600003611a7957604051634f9233a560e01b815260040160405180910390fd5b6040810135611a9b57604051635e32eadd60e01b815260040160405180910390fd5b611aa860608201826125f9565b9050600003611aca57604051630f8b932160e11b815260040160405180910390fd5b60048581811115611add57611add611e2a565b60ff161180611b1b57506000856004811115611afb57611afb611e2a565b14158015611b1b57506003856004811115611b1857611b18611e2a565b14155b15611b39576040516307a92f1960e51b815260040160405180910390fd5b426000859003611b47578094505b80851015611b6857604051632ca4094f60e21b815260040160405180910390fd5b80611b738587612797565b11611b9157604051637616640160e01b815260040160405180910390fd5b5050505050505050565b6000826004811115611baf57611baf611e2a565b826004811115611bc157611bc1611e2a565b03611bce5750600061098d565b6002836004811115611be257611be2611e2a565b1480611bff57506004836004811115611bfd57611bfd611e2a565b145b80611c1b57506001836004811115611c1957611c19611e2a565b145b15611c285750600061098d565b6000836004811115611c3c57611c3c611e2a565b03611c965760035b826004811115611c5657611c56611e2a565b1480611c7357506002826004811115611c7157611c71611e2a565b145b80611c8f57506001826004811115611c8d57611c8d611e2a565b145b905061098d565b6003836004811115611caa57611caa611e2a565b03611cb6576000611c44565b50600092915050565b604080516101808101909152806000815260200160006001600160a01b03168152602001611d00604051806040016040528060008152602001600081525090565b815260200160008152602001606081526020016000815260200160008152602001600081526020016000815260200160608152602001611d88604051806101000160405280600015158152602001600015158152602001600060ff168152602001600060ff168152602001600081526020016000815260200160008152602001600081525090565b815260408051608081018252600080825260208281018290529282015260608082015291015290565b828054828255906000526020600020908101928215611dec579160200282015b82811115611dec578251825591602001919060010190611dd1565b50611df8929150611dfc565b5090565b5b80821115611df85760008155600101611dfd565b600060208284031215611e2357600080fd5b5035919050565b634e487b7160e01b600052602160045260246000fd5b60058110611e5057611e50611e2a565b9052565b6000815180845260005b81811015611e7a57602081850181015186830182015201611e5e565b506000602082860101526020601f19601f83011685010191505092915050565b80511515825260208101511515602083015260ff60408201511660408301526060810151611ecd606084018260ff169052565b506080810151608083015260a081015160a083015260c081015160c083015260e081015160e08301525050565b60008151600a8110611f0e57611f0e611e2a565b808452506020820151602084015260408201516040840152606082015160806060850152611f3f6080850182611e54565b949350505050565b611f51818d611e40565b6001600160a01b038b166020820152611f77604082018b80518252602090810151910152565b8860808201528760a08201528660c08201528560e0820152846101008201526102606101208201526000611faf610260830186611e54565b611fbd610140840186611e9a565b828103610240840152611fd08185611efa565b9e9d5050505050505050505050505050565b803560058110611ff157600080fd5b919050565b60006080828403121561200857600080fd5b50919050565b60008083601f84011261202057600080fd5b5081356001600160401b0381111561203757600080fd5b60208301915083602082850101111561204f57600080fd5b9250929050565b60006040828403121561200857600080fd5b6000806000806000806000806000898b0361020081121561208857600080fd5b6120918b611fe2565b995060208b0135985060408b01359750610100605f19820112156120b457600080fd5b5060608a0195506101608a01356001600160401b038111156120d557600080fd5b6120e18c828d01611ff6565b9550506101808a01356001600160401b038111156120fe57600080fd5b61210a8c828d0161200e565b909550935061211f90508b6101a08c01612056565b989b979a5095989497939692955090936101e00135919050565b6000806040838503121561214c57600080fd5b8235915061215c60208401611fe2565b90509250929050565b60006020828403121561217757600080fd5b81356001600160a01b03811681146114bd57600080fd5b600080604083850312156121a157600080fd5b8235915060208301356001600160401b038111156121be57600080fd5b6121ca85828601611ff6565b9150509250929050565b600081518084526020840193506020830160005b828110156122065781518652602095860195909101906001016121e8565b5093949350505050565b60208152612222602082018351611e40565b6000602083015161223e60408401826001600160a01b03169052565b506040830151805160608401526020810151608084015250606083015160a0830152608083015161028060c084015261227b6102a08401826121d4565b905060a084015160e084015260c084015161010084015260e0840151610120840152610100840151610140840152610120840151601f19848303016101608501526122c68282611e54565b9150506101408401516122dd610180850182611e9a565b50610160840151838203601f19016102808501526122fb8282611efa565b95945050505050565b60008060008060006060868803121561231c57600080fd5b8535945060208601356001600160401b0381111561233957600080fd5b6123458882890161200e565b90955093505060408601356001600160401b0381111561236457600080fd5b6123708882890161200e565b969995985093965092949392505050565b6000806040838503121561239457600080fd5b50508035926020909101359150565b600181811c908216806123b757607f821691505b60208210810361200857634e487b7160e01b600052602260045260246000fd5b634e487b7160e01b600052604160045260246000fd5b601f82111561243757806000526020600020601f840160051c810160208510156124145750805b601f840160051c820191505b818110156124345760008155600101612420565b50505b505050565b6001600160401b03831115612453576124536123d7565b6124678361246183546123a3565b836123ed565b6000601f84116001811461249b57600085156124835750838201355b600019600387901b1c1916600186901b178355612434565b600083815260209020601f19861690835b828110156124cc57868501358255602094850194600190920191016124ac565b50868210156124e95760001960f88860031b161c19848701351681555b505060018560011b0183555050505050565b60008135801515811461098d57600080fd5b60ff8116811461251c57600080fd5b50565b6000813561098d8161250d565b612535826124fb565b151560ff1982541660ff8216811783555050612570612556602084016124fb565b82805461ff00191691151560081b61ff0016919091179055565b61259761257f6040840161251f565b825462ff0000191660109190911b62ff000016178255565b6125c06125a66060840161251f565b825463ff000000191660189190911b63ff00000016178255565b6080820135600182015560a0820135600282015560c0820135600382015560e090910135600490910155565b600a811061251c57600080fd5b6000808335601e1984360301811261261057600080fd5b8301803591506001600160401b0382111561262a57600080fd5b60200191503681900382131561204f57600080fd5b813561264a816125ec565b600a811061265a5761265a611e2a565b815460ff191660ff9190911617815560208201356001820155604082013560028201556060820135601e193684900301811261269557600080fd5b820180356001600160401b038111156126ad57600080fd5b6020820191508036038213156126c257600080fd5b6126d081836003860161243c565b50505050565b634e487b7160e01b600052601160045260246000fd5b600063ffffffff821663ffffffff8103612708576127086126d6565b60010192915050565b60006001600160401b0382166001600160401b038103612708576127086126d6565b60006020828403121561274557600080fd5b5051919050565b8181038181111561098d5761098d6126d6565b6040810161276d8285611e40565b6114bd6020830184611e40565b60006020828403121561278c57600080fd5b81356114bd816125ec565b8082018082111561098d5761098d6126d6565b81835281816020850137506000828201602090810191909152601f909101601f19169091010190565b8481526060602082015260006127ed6060830185876127aa565b905082604083015295945050505050565b6040815260006128126040830186886127aa565b82810360208401526128258185876127aa565b979650505050505050565b604051601f8201601f191681016001600160401b0381118282101715612858576128586123d7565b604052919050565b6000610120828403121561287357600080fd5b600083601f840112612883578081fd5b8061012061289081612830565b92508291508401858111156128a457600080fd5b845b818110156128be5780358452602093840193016128a6565b509095945050505050565b634e487b7160e01b600052603260045260246000fd5b6020815260006114bd60208301846121d4565b60006080828403121561290457600080fd5b600083601f840112612914578081fd5b8061291f6080612830565b905080915060808401858111156128a457600080fd5b60006020828403121561294757600080fd5b81356114bd8161250d56fea2646970667358221220104120dc202ed0a0d8c7c9bc854e4194510267f7f331f491f4a49fc47fe6cd5d64736f6c634300081c0033",
  "linkReferences": {},
  "deployedLinkReferences": {}
}