{
    "_format": "hh-sol-artifact-1",
    "contractName": "ProcessRegistry",
    "sourceName": "src/ProcessRegistry.sol",
    "abi": [
        {
            "inputs": [
                {
                    "internalType": "address",
                    "name": "target",
                    "type": "address"
                }
            ],
            "name": "AddressEmptyCode",
            "type": "error"
        },
        {
            "inputs": [],
            "name": "CannotAcceptResult",
            "type": "error"
        },
        {
            "inputs": [
                {
                    "internalType": "address",
                    "name": "implementation",
                    "type": "address"
                }
            ],
            "name": "ERC1967InvalidImplementation",
            "type": "error"
        },
        {
            "inputs": [],
            "name": "ERC1967NonPayable",
            "type": "error"
        },
        {
            "inputs": [],
            "name": "FailedCall",
            "type": "error"
        },
        {
            "inputs": [],
            "name": "InvalidCensusOrigin",
            "type": "error"
        },
        {
            "inputs": [],
            "name": "InvalidCensusRoot",
            "type": "error"
        },
        {
            "inputs": [],
            "name": "InvalidCensusURI",
            "type": "error"
        },
        {
            "inputs": [],
            "name": "InvalidDuration",
            "type": "error"
        },
        {
            "inputs": [],
            "name": "InvalidInitialization",
            "type": "error"
        },
        {
            "inputs": [],
            "name": "InvalidMaxCount",
            "type": "error"
        },
        {
            "inputs": [],
            "name": "InvalidMaxTotalCost",
            "type": "error"
        },
        {
            "inputs": [],
            "name": "InvalidMaxValue",
            "type": "error"
        },
        {
            "inputs": [],
            "name": "InvalidMaxVotes",
            "type": "error"
        },
        {
            "inputs": [],
            "name": "InvalidMinTotalCost",
            "type": "error"
        },
        {
            "inputs": [],
            "name": "InvalidMinValue",
            "type": "error"
        },
        {
            "inputs": [],
            "name": "InvalidProcessId",
            "type": "error"
        },
        {
            "inputs": [],
            "name": "InvalidStartTime",
            "type": "error"
        },
        {
            "inputs": [],
            "name": "InvalidStateRoot",
            "type": "error"
        },
        {
            "inputs": [],
            "name": "InvalidStatus",
            "type": "error"
        },
        {
            "inputs": [],
            "name": "InvalidTimeBounds",
            "type": "error"
        },
        {
            "inputs": [],
            "name": "InvalidTotalCostBounds",
            "type": "error"
        },
        {
            "inputs": [],
            "name": "InvalidUniqueValues",
            "type": "error"
        },
        {
            "inputs": [],
            "name": "NotInitializing",
            "type": "error"
        },
        {
            "inputs": [
                {
                    "internalType": "address",
                    "name": "owner",
                    "type": "address"
                }
            ],
            "name": "OwnableInvalidOwner",
            "type": "error"
        },
        {
            "inputs": [
                {
                    "internalType": "address",
                    "name": "account",
                    "type": "address"
                }
            ],
            "name": "OwnableUnauthorizedAccount",
            "type": "error"
        },
        {
            "inputs": [],
            "name": "ProcessAlreadyExists",
            "type": "error"
        },
        {
            "inputs": [],
            "name": "ProcessNotEnded",
            "type": "error"
        },
        {
            "inputs": [],
            "name": "ProcessNotFound",
            "type": "error"
        },
        {
            "inputs": [],
            "name": "ProofInvalid",
            "type": "error"
        },
        {
            "inputs": [],
            "name": "UUPSUnauthorizedCallContext",
            "type": "error"
        },
        {
            "inputs": [
                {
                    "internalType": "bytes32",
                    "name": "slot",
                    "type": "bytes32"
                }
            ],
            "name": "UUPSUnsupportedProxiableUUID",
            "type": "error"
        },
        {
            "inputs": [],
            "name": "Unauthorized",
            "type": "error"
        },
        {
            "anonymous": false,
            "inputs": [
                {
                    "indexed": true,
                    "internalType": "bytes32",
                    "name": "processId",
                    "type": "bytes32"
                },
                {
                    "indexed": false,
                    "internalType": "bytes32",
                    "name": "censusRoot",
                    "type": "bytes32"
                },
                {
                    "indexed": false,
                    "internalType": "string",
                    "name": "censusURI",
                    "type": "string"
                },
                {
                    "indexed": false,
                    "internalType": "uint256",
                    "name": "maxVotes",
                    "type": "uint256"
                }
            ],
            "name": "CensusUpdated",
            "type": "event"
        },
        {
            "anonymous": false,
            "inputs": [
                {
                    "indexed": false,
                    "internalType": "uint64",
                    "name": "version",
                    "type": "uint64"
                }
            ],
            "name": "Initialized",
            "type": "event"
        },
        {
            "anonymous": false,
            "inputs": [
                {
                    "indexed": true,
                    "internalType": "address",
                    "name": "previousOwner",
                    "type": "address"
                },
                {
                    "indexed": true,
                    "internalType": "address",
                    "name": "newOwner",
                    "type": "address"
                }
            ],
            "name": "OwnershipTransferred",
            "type": "event"
        },
        {
            "anonymous": false,
            "inputs": [
                {
                    "indexed": true,
                    "internalType": "bytes32",
                    "name": "processId",
                    "type": "bytes32"
                },
                {
                    "indexed": true,
                    "internalType": "address",
                    "name": "creator",
                    "type": "address"
                }
            ],
            "name": "ProcessCreated",
            "type": "event"
        },
        {
            "anonymous": false,
            "inputs": [
                {
                    "indexed": true,
                    "internalType": "bytes32",
                    "name": "processId",
                    "type": "bytes32"
                },
                {
                    "indexed": false,
                    "internalType": "uint256",
                    "name": "duration",
                    "type": "uint256"
                }
            ],
            "name": "ProcessDurationChanged",
            "type": "event"
        },
        {
            "anonymous": false,
            "inputs": [
                {
                    "indexed": true,
                    "internalType": "bytes32",
                    "name": "processId",
                    "type": "bytes32"
                },
                {
                    "indexed": true,
                    "internalType": "address",
                    "name": "sender",
                    "type": "address"
                },
                {
                    "indexed": false,
                    "internalType": "uint256[]",
                    "name": "result",
                    "type": "uint256[]"
                }
            ],
            "name": "ProcessResultsSet",
            "type": "event"
        },
        {
            "anonymous": false,
            "inputs": [
                {
                    "indexed": true,
                    "internalType": "bytes32",
                    "name": "processId",
                    "type": "bytes32"
                },
                {
                    "indexed": true,
                    "internalType": "address",
                    "name": "sender",
                    "type": "address"
                },
                {
                    "indexed": false,
                    "internalType": "uint256",
                    "name": "newStateRoot",
                    "type": "uint256"
                }
            ],
            "name": "ProcessStateRootUpdated",
            "type": "event"
        },
        {
            "anonymous": false,
            "inputs": [
                {
                    "indexed": true,
                    "internalType": "bytes32",
                    "name": "processId",
                    "type": "bytes32"
                },
                {
                    "indexed": false,
                    "internalType": "enum IProcessRegistry.ProcessStatus",
                    "name": "oldStatus",
                    "type": "uint8"
                },
                {
                    "indexed": false,
                    "internalType": "enum IProcessRegistry.ProcessStatus",
                    "name": "newStatus",
                    "type": "uint8"
                }
            ],
            "name": "ProcessStatusChanged",
            "type": "event"
        },
        {
            "anonymous": false,
            "inputs": [
                {
                    "indexed": true,
                    "internalType": "address",
                    "name": "implementation",
                    "type": "address"
                }
            ],
            "name": "Upgraded",
            "type": "event"
        },
        {
            "inputs": [],
            "name": "MAX_CENSUS_ORIGIN",
            "outputs": [
                {
                    "internalType": "uint8",
                    "name": "",
                    "type": "uint8"
                }
            ],
            "stateMutability": "view",
            "type": "function"
        },
        {
            "inputs": [],
            "name": "MAX_STATUS",
            "outputs": [
                {
                    "internalType": "uint8",
                    "name": "",
                    "type": "uint8"
                }
            ],
            "stateMutability": "view",
            "type": "function"
        },
        {
            "inputs": [],
            "name": "UPGRADE_INTERFACE_VERSION",
            "outputs": [
                {
                    "internalType": "string",
                    "name": "",
                    "type": "string"
                }
            ],
            "stateMutability": "view",
            "type": "function"
        },
        {
            "inputs": [],
            "name": "chainID",
            "outputs": [
                {
                    "internalType": "uint32",
                    "name": "",
                    "type": "uint32"
                }
            ],
            "stateMutability": "view",
            "type": "function"
        },
        {
            "inputs": [],
            "name": "getNextProcessId",
            "outputs": [
                {
                    "internalType": "bytes32",
                    "name": "",
                    "type": "bytes32"
                }
            ],
            "stateMutability": "view",
            "type": "function"
        },
        {
            "inputs": [
                {
                    "internalType": "bytes32",
                    "name": "processId",
                    "type": "bytes32"
                }
            ],
            "name": "getProcess",
            "outputs": [
                {
                    "components": [
                        {
                            "internalType": "enum IProcessRegistry.ProcessStatus",
                            "name": "status",
                            "type": "uint8"
                        },
                        {
                            "internalType": "address",
                            "name": "organizationId",
                            "type": "address"
                        },
                        {
                            "components": [
                                {
                                    "internalType": "uint256",
                                    "name": "x",
                                    "type": "uint256"
                                },
                                {
                                    "internalType": "uint256",
                                    "name": "y",
                                    "type": "uint256"
                                }
                            ],
                            "internalType": "struct IProcessRegistry.EncryptionKey",
                            "name": "encryptionKey",
                            "type": "tuple"
                        },
                        {
                            "internalType": "uint256",
                            "name": "latestStateRoot",
                            "type": "uint256"
                        },
                        {
                            "internalType": "uint256[]",
                            "name": "result",
                            "type": "uint256[]"
                        },
                        {
                            "internalType": "uint256",
                            "name": "startTime",
                            "type": "uint256"
                        },
                        {
                            "internalType": "uint256",
                            "name": "duration",
                            "type": "uint256"
                        },
                        {
                            "internalType": "uint256",
                            "name": "voteCount",
                            "type": "uint256"
                        },
                        {
                            "internalType": "uint256",
                            "name": "voteOverwriteCount",
                            "type": "uint256"
                        },
                        {
                            "internalType": "string",
                            "name": "metadataURI",
                            "type": "string"
                        },
                        {
                            "components": [
                                {
                                    "internalType": "bool",
                                    "name": "costFromWeight",
                                    "type": "bool"
                                },
                                {
                                    "internalType": "bool",
                                    "name": "forceUniqueness",
                                    "type": "bool"
                                },
                                {
                                    "internalType": "uint8",
                                    "name": "maxCount",
                                    "type": "uint8"
                                },
                                {
                                    "internalType": "uint8",
                                    "name": "costExponent",
                                    "type": "uint8"
                                },
                                {
                                    "internalType": "uint256",
                                    "name": "maxValue",
                                    "type": "uint256"
                                },
                                {
                                    "internalType": "uint256",
                                    "name": "minValue",
                                    "type": "uint256"
                                },
                                {
                                    "internalType": "uint256",
                                    "name": "maxTotalCost",
                                    "type": "uint256"
                                },
                                {
                                    "internalType": "uint256",
                                    "name": "minTotalCost",
                                    "type": "uint256"
                                }
                            ],
                            "internalType": "struct IProcessRegistry.BallotMode",
                            "name": "ballotMode",
                            "type": "tuple"
                        },
                        {
                            "components": [
                                {
                                    "internalType": "enum IProcessRegistry.CensusOrigin",
                                    "name": "censusOrigin",
                                    "type": "uint8"
                                },
                                {
                                    "internalType": "uint256",
                                    "name": "maxVotes",
                                    "type": "uint256"
                                },
                                {
                                    "internalType": "bytes32",
                                    "name": "censusRoot",
                                    "type": "bytes32"
                                },
                                {
                                    "internalType": "string",
                                    "name": "censusURI",
                                    "type": "string"
                                }
                            ],
                            "internalType": "struct IProcessRegistry.Census",
                            "name": "census",
                            "type": "tuple"
                        }
                    ],
                    "internalType": "struct IProcessRegistry.Process",
                    "name": "",
                    "type": "tuple"
                }
            ],
            "stateMutability": "view",
            "type": "function"
        },
        {
            "inputs": [
                {
                    "internalType": "bytes32",
                    "name": "processId",
                    "type": "bytes32"
                }
            ],
            "name": "getProcessEndTime",
            "outputs": [
                {
                    "internalType": "uint256",
                    "name": "",
                    "type": "uint256"
                }
            ],
            "stateMutability": "view",
            "type": "function"
        },
        {
            "inputs": [],
            "name": "getRVerifierVKeyHash",
            "outputs": [
                {
                    "internalType": "bytes32",
                    "name": "",
                    "type": "bytes32"
                }
            ],
            "stateMutability": "view",
            "type": "function"
        },
        {
            "inputs": [],
            "name": "getSTVerifierVKeyHash",
            "outputs": [
                {
                    "internalType": "bytes32",
                    "name": "",
                    "type": "bytes32"
                }
            ],
            "stateMutability": "view",
            "type": "function"
        },
        {
            "inputs": [
                {
                    "internalType": "uint32",
                    "name": "_chainID",
                    "type": "uint32"
                },
                {
                    "internalType": "address",
                    "name": "_stVerifier",
                    "type": "address"
                },
                {
                    "internalType": "address",
                    "name": "_rVerifier",
                    "type": "address"
                }
            ],
            "name": "initialize",
            "outputs": [],
            "stateMutability": "nonpayable",
            "type": "function"
        },
        {
            "inputs": [
                {
                    "internalType": "enum IProcessRegistry.ProcessStatus",
                    "name": "status",
                    "type": "uint8"
                },
                {
                    "internalType": "uint256",
                    "name": "startTime",
                    "type": "uint256"
                },
                {
                    "internalType": "uint256",
                    "name": "duration",
                    "type": "uint256"
                },
                {
                    "components": [
                        {
                            "internalType": "bool",
                            "name": "costFromWeight",
                            "type": "bool"
                        },
                        {
                            "internalType": "bool",
                            "name": "forceUniqueness",
                            "type": "bool"
                        },
                        {
                            "internalType": "uint8",
                            "name": "maxCount",
                            "type": "uint8"
                        },
                        {
                            "internalType": "uint8",
                            "name": "costExponent",
                            "type": "uint8"
                        },
                        {
                            "internalType": "uint256",
                            "name": "maxValue",
                            "type": "uint256"
                        },
                        {
                            "internalType": "uint256",
                            "name": "minValue",
                            "type": "uint256"
                        },
                        {
                            "internalType": "uint256",
                            "name": "maxTotalCost",
                            "type": "uint256"
                        },
                        {
                            "internalType": "uint256",
                            "name": "minTotalCost",
                            "type": "uint256"
                        }
                    ],
                    "internalType": "struct IProcessRegistry.BallotMode",
                    "name": "ballotMode",
                    "type": "tuple"
                },
                {
                    "components": [
                        {
                            "internalType": "enum IProcessRegistry.CensusOrigin",
                            "name": "censusOrigin",
                            "type": "uint8"
                        },
                        {
                            "internalType": "uint256",
                            "name": "maxVotes",
                            "type": "uint256"
                        },
                        {
                            "internalType": "bytes32",
                            "name": "censusRoot",
                            "type": "bytes32"
                        },
                        {
                            "internalType": "string",
                            "name": "censusURI",
                            "type": "string"
                        }
                    ],
                    "internalType": "struct IProcessRegistry.Census",
                    "name": "census",
                    "type": "tuple"
                },
                {
                    "internalType": "string",
                    "name": "metadata",
                    "type": "string"
                },
                {
                    "components": [
                        {
                            "internalType": "uint256",
                            "name": "x",
                            "type": "uint256"
                        },
                        {
                            "internalType": "uint256",
                            "name": "y",
                            "type": "uint256"
                        }
                    ],
                    "internalType": "struct IProcessRegistry.EncryptionKey",
                    "name": "encryptionKey",
                    "type": "tuple"
                },
                {
                    "internalType": "uint256",
                    "name": "initStateRoot",
                    "type": "uint256"
                }
            ],
            "name": "newProcess",
            "outputs": [
                {
                    "internalType": "bytes32",
                    "name": "",
                    "type": "bytes32"
                }
            ],
            "stateMutability": "nonpayable",
            "type": "function"
        },
        {
            "inputs": [],
            "name": "owner",
            "outputs": [
                {
                    "internalType": "address",
                    "name": "",
                    "type": "address"
                }
            ],
            "stateMutability": "view",
            "type": "function"
        },
        {
            "inputs": [],
            "name": "processCount",
            "outputs": [
                {
                    "internalType": "uint32",
                    "name": "",
                    "type": "uint32"
                }
            ],
            "stateMutability": "view",
            "type": "function"
        },
        {
            "inputs": [
                {
                    "internalType": "address",
                    "name": "",
                    "type": "address"
                }
            ],
            "name": "processNonce",
            "outputs": [
                {
                    "internalType": "uint64",
                    "name": "",
                    "type": "uint64"
                }
            ],
            "stateMutability": "view",
            "type": "function"
        },
        {
            "inputs": [
                {
                    "internalType": "bytes32",
                    "name": "",
                    "type": "bytes32"
                }
            ],
            "name": "processes",
            "outputs": [
                {
                    "internalType": "enum IProcessRegistry.ProcessStatus",
                    "name": "status",
                    "type": "uint8"
                },
                {
                    "internalType": "address",
                    "name": "organizationId",
                    "type": "address"
                },
                {
                    "components": [
                        {
                            "internalType": "uint256",
                            "name": "x",
                            "type": "uint256"
                        },
                        {
                            "internalType": "uint256",
                            "name": "y",
                            "type": "uint256"
                        }
                    ],
                    "internalType": "struct IProcessRegistry.EncryptionKey",
                    "name": "encryptionKey",
                    "type": "tuple"
                },
                {
                    "internalType": "uint256",
                    "name": "latestStateRoot",
                    "type": "uint256"
                },
                {
                    "internalType": "uint256",
                    "name": "startTime",
                    "type": "uint256"
                },
                {
                    "internalType": "uint256",
                    "name": "duration",
                    "type": "uint256"
                },
                {
                    "internalType": "uint256",
                    "name": "voteCount",
                    "type": "uint256"
                },
                {
                    "internalType": "uint256",
                    "name": "voteOverwriteCount",
                    "type": "uint256"
                },
                {
                    "internalType": "string",
                    "name": "metadataURI",
                    "type": "string"
                },
                {
                    "components": [
                        {
                            "internalType": "bool",
                            "name": "costFromWeight",
                            "type": "bool"
                        },
                        {
                            "internalType": "bool",
                            "name": "forceUniqueness",
                            "type": "bool"
                        },
                        {
                            "internalType": "uint8",
                            "name": "maxCount",
                            "type": "uint8"
                        },
                        {
                            "internalType": "uint8",
                            "name": "costExponent",
                            "type": "uint8"
                        },
                        {
                            "internalType": "uint256",
                            "name": "maxValue",
                            "type": "uint256"
                        },
                        {
                            "internalType": "uint256",
                            "name": "minValue",
                            "type": "uint256"
                        },
                        {
                            "internalType": "uint256",
                            "name": "maxTotalCost",
                            "type": "uint256"
                        },
                        {
                            "internalType": "uint256",
                            "name": "minTotalCost",
                            "type": "uint256"
                        }
                    ],
                    "internalType": "struct IProcessRegistry.BallotMode",
                    "name": "ballotMode",
                    "type": "tuple"
                },
                {
                    "components": [
                        {
                            "internalType": "enum IProcessRegistry.CensusOrigin",
                            "name": "censusOrigin",
                            "type": "uint8"
                        },
                        {
                            "internalType": "uint256",
                            "name": "maxVotes",
                            "type": "uint256"
                        },
                        {
                            "internalType": "bytes32",
                            "name": "censusRoot",
                            "type": "bytes32"
                        },
                        {
                            "internalType": "string",
                            "name": "censusURI",
                            "type": "string"
                        }
                    ],
                    "internalType": "struct IProcessRegistry.Census",
                    "name": "census",
                    "type": "tuple"
                }
            ],
            "stateMutability": "view",
            "type": "function"
        },
        {
            "inputs": [],
            "name": "proxiableUUID",
            "outputs": [
                {
                    "internalType": "bytes32",
                    "name": "",
                    "type": "bytes32"
                }
            ],
            "stateMutability": "view",
            "type": "function"
        },
        {
            "inputs": [],
            "name": "rVerifier",
            "outputs": [
                {
                    "internalType": "address",
                    "name": "",
                    "type": "address"
                }
            ],
            "stateMutability": "view",
            "type": "function"
        },
        {
            "inputs": [],
            "name": "renounceOwnership",
            "outputs": [],
            "stateMutability": "nonpayable",
            "type": "function"
        },
        {
            "inputs": [
                {
                    "internalType": "bytes32",
                    "name": "processId",
                    "type": "bytes32"
                },
                {
                    "components": [
                        {
                            "internalType": "enum IProcessRegistry.CensusOrigin",
                            "name": "censusOrigin",
                            "type": "uint8"
                        },
                        {
                            "internalType": "uint256",
                            "name": "maxVotes",
                            "type": "uint256"
                        },
                        {
                            "internalType": "bytes32",
                            "name": "censusRoot",
                            "type": "bytes32"
                        },
                        {
                            "internalType": "string",
                            "name": "censusURI",
                            "type": "string"
                        }
                    ],
                    "internalType": "struct IProcessRegistry.Census",
                    "name": "census",
                    "type": "tuple"
                }
            ],
            "name": "setProcessCensus",
            "outputs": [],
            "stateMutability": "nonpayable",
            "type": "function"
        },
        {
            "inputs": [
                {
                    "internalType": "bytes32",
                    "name": "processId",
                    "type": "bytes32"
                },
                {
                    "internalType": "uint256",
                    "name": "_duration",
                    "type": "uint256"
                }
            ],
            "name": "setProcessDuration",
            "outputs": [],
            "stateMutability": "nonpayable",
            "type": "function"
        },
        {
            "inputs": [
                {
                    "internalType": "bytes32",
                    "name": "processId",
                    "type": "bytes32"
                },
                {
                    "internalType": "bytes",
                    "name": "proof",
                    "type": "bytes"
                },
                {
                    "internalType": "bytes",
                    "name": "input",
                    "type": "bytes"
                }
            ],
            "name": "setProcessResults",
            "outputs": [],
            "stateMutability": "nonpayable",
            "type": "function"
        },
        {
            "inputs": [
                {
                    "internalType": "bytes32",
                    "name": "processId",
                    "type": "bytes32"
                },
                {
                    "internalType": "enum IProcessRegistry.ProcessStatus",
                    "name": "newStatus",
                    "type": "uint8"
                }
            ],
            "name": "setProcessStatus",
            "outputs": [],
            "stateMutability": "nonpayable",
            "type": "function"
        },
        {
            "inputs": [],
            "name": "stVerifier",
            "outputs": [
                {
                    "internalType": "address",
                    "name": "",
                    "type": "address"
                }
            ],
            "stateMutability": "view",
            "type": "function"
        },
        {
            "inputs": [
                {
                    "internalType": "bytes32",
                    "name": "processId",
                    "type": "bytes32"
                },
                {
                    "internalType": "bytes",
                    "name": "proof",
                    "type": "bytes"
                },
                {
                    "internalType": "bytes",
                    "name": "input",
                    "type": "bytes"
                }
            ],
            "name": "submitStateTransition",
            "outputs": [],
            "stateMutability": "nonpayable",
            "type": "function"
        },
        {
            "inputs": [
                {
                    "internalType": "address",
                    "name": "newOwner",
                    "type": "address"
                }
            ],
            "name": "transferOwnership",
            "outputs": [],
            "stateMutability": "nonpayable",
            "type": "function"
        },
        {
            "inputs": [
                {
                    "internalType": "address",
                    "name": "newImplementation",
                    "type": "address"
                },
                {
                    "internalType": "bytes",
                    "name": "data",
                    "type": "bytes"
                }
            ],
            "name": "upgradeToAndCall",
            "outputs": [],
            "stateMutability": "payable",
            "type": "function"
        }
    ],
    "bytecode": "0x60a060405230608052348015601357600080fd5b5060805161340061003d60003960008181611fe60152818161200f015261215501526134006000f3fe6080604052600436106101815760003560e01c8063848df540116100d1578063ad3cb1cc1161008a578063d71d072e11610064578063d71d072e146104ec578063ec9c78041461050c578063f2fde38b14610521578063f9aa44991461054157600080fd5b8063ad3cb1cc14610469578063adc879e9146104a7578063c718c01f146104cc57600080fd5b8063848df5401461036d5780638da5cb5b1461039f578063992bc45b146103dc5780639c18deaf14610409578063a5b110de14610429578063a5f01e191461044957600080fd5b806352d1902d1161013e578063647c576c11610118578063647c576c146103035780636bae04ea14610323578063715018a61461034357806372c628ef1461035857600080fd5b806352d1902d1461028057806356a6f1e21461029557806362fa11fc146102b557600080fd5b806302cc919a146101865780630535fece146101b257806309706392146101e95780633365133c146102285780634c0acc56146102565780634f1ef2861461026b575b600080fd5b34801561019257600080fd5b5061019b600981565b60405160ff90911681526020015b60405180910390f35b3480156101be57600080fd5b506101d26101cd366004612715565b610556565b6040516101a99b9a99989796959493929190612855565b3480156101f557600080fd5b5060025461021090600160401b90046001600160a01b031681565b6040516001600160a01b0390911681526020016101a9565b34801561023457600080fd5b50610248610243366004612976565b610798565b6040519081526020016101a9565b34801561026257600080fd5b5061024861095a565b61027e610279366004612aa4565b6109d8565b005b34801561028c57600080fd5b506102486109f7565b3480156102a157600080fd5b5061027e6102b0366004612b4d565b610a14565b3480156102c157600080fd5b506102eb6102d0366004612b79565b6001602052600090815260409020546001600160401b031681565b6040516001600160401b0390911681526020016101a9565b34801561030f57600080fd5b5061027e61031e366004612b94565b610bcb565b34801561032f57600080fd5b5061027e61033e366004612be2565b610d48565b34801561034f57600080fd5b5061027e610fb3565b34801561036457600080fd5b5061019b600481565b34801561037957600080fd5b5060025461038a9063ffffffff1681565b60405163ffffffff90911681526020016101a9565b3480156103ab57600080fd5b507f9016d09d72d40fdae2fd8ceac6b6234c7706214fd39c1cd1e609a0528c199300546001600160a01b0316610210565b3480156103e857600080fd5b506103fc6103f7366004612715565b610fc7565b6040516101a99190612c64565b34801561041557600080fd5b50600354610210906001600160a01b031681565b34801561043557600080fd5b5061027e610444366004612d4f565b6112ca565b34801561045557600080fd5b50610248610464366004612715565b611578565b34801561047557600080fd5b5061049a604051806040016040528060058152602001640352e302e360dc1b81525081565b6040516101a99190612dcc565b3480156104b357600080fd5b5060025461038a90640100000000900463ffffffff1681565b3480156104d857600080fd5b5061027e6104e7366004612ddf565b61188d565b3480156104f857600080fd5b5061027e610507366004612d4f565b611a0a565b34801561051857600080fd5b50610248611bfa565b34801561052d57600080fd5b5061027e61053c366004612b79565b611c31565b34801561054d57600080fd5b50610248611c74565b6000602081815291815260409081902080548251808401909352600182015483526002820154938301939093526003810154600582015460068301546007840154600885015460098601805460ff8a169961010090046001600160a01b0316989791906105c290612e01565b80601f01602080910402602001604051908101604052809291908181526020018280546105ee90612e01565b801561063b5780601f106106105761010080835404028352916020019161063b565b820191906000526020600020905b81548152906001019060200180831161061e57829003601f168201915b5050604080516101008082018352600a88015460ff808216151584529181048216151560208401526201000081048216838501526301000000900481166060830152600b880154608080840191909152600c89015460a0840152600d89015460c0840152600e89015460e08401528351908101909352600f880180549798929792965092945091925083911660098111156106d8576106d861272e565b60098111156106e9576106e961272e565b8152602001600182015481526020016002820154815260200160038201805461071190612e01565b80601f016020809104026020016040519081016040528092919081815260200182805461073d90612e01565b801561078a5780601f1061075f5761010080835404028352916020019161078a565b820191906000526020600020905b81548152906001019060200180831161076d57829003601f168201915b50505050508152505090508b565b60025433600081815260016020526040812054909283916107d291640100000000900463ffffffff169084906001600160401b0316611cbe565b90506107e381838e8e8e8e8e611d4e565b600081815260208190526040902080548d90829060ff1916600183600481111561080f5761080f61272e565b0217905550600581018c9055600681018b90558054610100600160a81b0319166101006001600160a01b0385160217815585356001820155602086013560028201556003810185905560098101610867888a83612e83565b5089600a82016108778282612f79565b50899050600f8201610889828261308e565b50506002805463ffffffff169060006108a18361313b565b825463ffffffff9182166101009390930a9283029190920219909116179055506001600160a01b038316600090815260016020526040812080546001600160401b0316916108ee83613160565b91906101000a8154816001600160401b0302191690836001600160401b0316021790555050826001600160a01b0316827fada6f87a2a16a0c9c169ca36754c5f33f7c1a973b575d068f888a549ed4faefa60405160405180910390a3509b9a5050505050505050505050565b6000600260089054906101000a90046001600160a01b03166001600160a01b031663233ace116040518163ffffffff1660e01b8152600401602060405180830381865afa1580156109af573d6000803e3d6000fd5b505050506040513d601f19601f820116820180604052508101906109d39190613182565b905090565b6109e0611fdb565b6109e982612080565b6109f38282612088565b5050565b6000610a0161214a565b506000805160206133ab83398151915290565b81610a325760405163cbf4a64560e01b815260040160405180910390fd5b60048181811115610a4557610a4561272e565b60ff161115610a67576040516307a92f1960e51b815260040160405180910390fd5b6000828152602081905260409020805461010090046001600160a01b0316610aa257604051634d36eb6960e01b815260040160405180910390fd5b805461010090046001600160a01b03163314610ad0576040516282b42960e81b815260040160405180910390fd5b805460ff16610adf8184612193565b610afc576040516307a92f1960e51b815260040160405180910390fd5b81548390839060ff19166001836004811115610b1a57610b1a61272e565b02179055506001836004811115610b3357610b3361272e565b03610b8b576000826005015442610b4a919061319b565b6006840181905560405181815290915085907f0f759826327c668a220d576485ac38ddc4f83fbc414b984c00e79f669b649f469060200160405180910390a2505b837f2f25f350b681441b5bb45430fbe61e78d0170cff4ad02cb0aa48a6427909aa8c8285604051610bbd9291906131ae565b60405180910390a250505050565b7ff0c57e16840df040f15088dc2f81fe391c3923bec73e23a9662efc9c229c6a008054600160401b810460ff1615906001600160401b0316600081158015610c105750825b90506000826001600160401b03166001148015610c2c5750303b155b905081158015610c3a575080155b15610c585760405163f92ee8a960e01b815260040160405180910390fd5b845467ffffffffffffffff191660011785558315610c8257845460ff60401b1916600160401b1785555b610c8b336122b8565b610c936122c9565b60028054640100000000600160e01b03191664010000000063ffffffff8b160268010000000000000000600160e01b03191617600160401b6001600160a01b038a81169190910291909117909155600380546001600160a01b0319169188169190911790558315610d3e57845460ff60401b19168555604051600181527fc7f505b2f371ae2175ee4913f4499e1f2633a7b5936321eed1cdaeb6115181d29060200160405180910390a15b5050505050505050565b81610d665760405163cbf4a64560e01b815260040160405180910390fd5b6000828152602081905260409020805461010090046001600160a01b0316610da157604051634d36eb6960e01b815260040160405180910390fd5b805461010090046001600160a01b03163314610dcf576040516282b42960e81b815260040160405180910390fd5b610ddc60208301836131c9565b6009811115610ded57610ded61272e565b600f82015460ff166009811115610e0657610e0661272e565b14610e245760405163f37f7b5d60e01b815260040160405180910390fd5b601081015460208301351015610e4d57604051634f9233a560e01b815260040160405180910390fd5b6040820135610e6f57604051635e32eadd60e01b815260040160405180910390fd5b610e7c6060830183613048565b9050600003610e9e57604051630f8b932160e11b815260040160405180910390fd5b6000815460ff166004811115610eb657610eb661272e565b14158015610eda57506003815460ff166004811115610ed757610ed761272e565b14155b15610ef8576040516307a92f1960e51b815260040160405180910390fd5b4281600601548260050154610f0d91906131e6565b11610f2b5760405163e843c5eb60e01b815260040160405180910390fd5b6020820135601082015560408201356011820155610f4c6060830183613048565b6012830191610f5c919083612e83565b50827f35947a8913e2156f19b018078c9f0667e49cb3dc24af3434a4d0b16b82675b1b6040840135610f916060860186613048565b8660200135604051610fa69493929190613222565b60405180910390a2505050565b610fbb6122d1565b610fc5600061232c565b565b610fcf6125c3565b60008281526020819052604090819020815161018081019092528054829060ff1660048111156110015761100161272e565b60048111156110125761101261272e565b8152815461010090046001600160a01b031660208083019190915260408051808201825260018501548152600285015481840152818401526003840154606084015260048401805482518185028101850190935280835260809094019391929091908301828280156110a357602002820191906000526020600020905b81548152602001906001019080831161108f575b50505050508152602001600582015481526020016006820154815260200160078201548152602001600882015481526020016009820180546110e490612e01565b80601f016020809104026020016040519081016040528092919081815260200182805461111090612e01565b801561115d5780601f106111325761010080835404028352916020019161115d565b820191906000526020600020905b81548152906001019060200180831161114057829003601f168201915b5050509183525050604080516101008082018352600a85015460ff8082161515845291810482161515602084810191909152620100008204831684860152630100000090910482166060840152600b860154608080850191909152600c87015460a0850152600d87015460c0850152600e87015460e08501529085019290925282519182018352600f850180549390940193919283911660098111156112055761120561272e565b60098111156112165761121661272e565b8152602001600182015481526020016002820154815260200160038201805461123e90612e01565b80601f016020809104026020016040519081016040528092919081815260200182805461126a90612e01565b80156112b75780601f1061128c576101008083540402835291602001916112b7565b820191906000526020600020905b81548152906001019060200180831161129a57829003601f168201915b5050509190925250505090525092915050565b846112e85760405163cbf4a64560e01b815260040160405180910390fd5b6000858152602081905260409020805461010090046001600160a01b031661132357604051634d36eb6960e01b815260040160405180910390fd5b6001815460ff16600481111561133b5761133b61272e565b14611359576040516307a92f1960e51b815260040160405180910390fd5b428160060154826005015461136e91906131e6565b111561138d5760405163e843c5eb60e01b815260040160405180910390fd5b600354604051635c73957b60e11b81526001600160a01b039091169063b8e72af6906113c390889088908890889060040161324d565b60006040518083038186803b1580156113db57600080fd5b505afa1580156113ef573d6000803e3d6000fd5b50600092506114039150508385018561327f565b600383015481519192501461142b57604051630b6fac0360e41b815260040160405180910390fd5b60006114396001600961319b565b6001600160401b0381111561145057611450612a5e565b604051908082528060200260200182016040528015611479578160200160208202803683370190505b50905060015b60098110156114ce5782816009811061149a5761149a6132e8565b6020020151826114ab60018461319b565b815181106114bb576114bb6132e8565b602090810291909101015260010161147f565b50825460ff19166004908117845581516114ef9185019060208401906126b5565b50877f2f25f350b681441b5bb45430fbe61e78d0170cff4ad02cb0aa48a6427909aa8c600160046040516115249291906131ae565b60405180910390a2336001600160a01b0316887f5da8009aeb11de7ef64598b0de897a03d2f93efabda8507a70e29cca4530cf5d8360405161156691906132fe565b60405180910390a35050505050505050565b60008181526020819052604080822081516101808101909252805483929190829060ff1660048111156115ad576115ad61272e565b60048111156115be576115be61272e565b8152815461010090046001600160a01b0316602080830191909152604080518082018252600185015481526002850154818401528184015260038401546060840152600484018054825181850281018501909352808352608090940193919290919083018282801561164f57602002820191906000526020600020905b81548152602001906001019080831161163b575b505050505081526020016005820154815260200160068201548152602001600782015481526020016008820154815260200160098201805461169090612e01565b80601f01602080910402602001604051908101604052809291908181526020018280546116bc90612e01565b80156117095780601f106116de57610100808354040283529160200191611709565b820191906000526020600020905b8154815290600101906020018083116116ec57829003601f168201915b5050509183525050604080516101008082018352600a85015460ff8082161515845291810482161515602084810191909152620100008204831684860152630100000090910482166060840152600b860154608080850191909152600c87015460a0850152600d87015460c0850152600e87015460e08501529085019290925282519182018352600f850180549390940193919283911660098111156117b1576117b161272e565b60098111156117c2576117c261272e565b815260200160018201548152602001600282015481526020016003820180546117ea90612e01565b80601f016020809104026020016040519081016040528092919081815260200182805461181690612e01565b80156118635780601f1061183857610100808354040283529160200191611863565b820191906000526020600020905b81548152906001019060200180831161184657829003601f168201915b5050505050815250508152505090508060c001518160a0015161188691906131e6565b9392505050565b816118ab5760405163cbf4a64560e01b815260040160405180910390fd5b6000828152602081905260409020805461010090046001600160a01b03166118e657604051634d36eb6960e01b815260040160405180910390fd5b805461010090046001600160a01b03163314611914576040516282b42960e81b815260040160405180910390fd5b805460ff16600081600481111561192d5761192d61272e565b1415801561194d5750600381600481111561194a5761194a61272e565b14155b1561196b576040516307a92f1960e51b815260040160405180910390fd5b6005820154600683015484158061198b57504261198886846131e6565b11155b806119a8575061199b81836131e6565b6119a586846131e6565b11155b156119c657604051637616640160e01b815260040160405180910390fd5b6006840185905560405185815286907f0f759826327c668a220d576485ac38ddc4f83fbc414b984c00e79f669b649f469060200160405180910390a2505050505050565b84611a285760405163cbf4a64560e01b815260040160405180910390fd5b6000858152602081905260409020805461010090046001600160a01b0316611a6357604051634d36eb6960e01b815260040160405180910390fd5b6000815460ff166004811115611a7b57611a7b61272e565b14611a99576040516307a92f1960e51b815260040160405180910390fd5b4281600601548260050154611aae91906131e6565b11611acc5760405163e843c5eb60e01b815260040160405180910390fd5b600254604051635c73957b60e11b8152600160401b9091046001600160a01b03169063b8e72af690611b0890889088908890889060040161324d565b60006040518083038186803b158015611b2057600080fd5b505afa158015611b34573d6000803e3d6000fd5b5060009250611b4891505083850185613311565b6003830154815191925014611b7057604051630b6fac0360e41b815260040160405180910390fd5b602081015160038301556040810151600783018054600090611b939084906131e6565b90915550506060810151600883018054600090611bb19084906131e6565b9091555050602080820151604051908152339189917fdc9b2774f92abfeee93d8b2ef67d59cd90c2d6d740b01c24fd9ec109a71865fc910160405180910390a350505050505050565b6002543360008181526001602052604081205490926109d39264010000000090910463ffffffff16916001600160401b0316611cbe565b611c396122d1565b6001600160a01b038116611c6857604051631e4fbdf760e01b8152600060048201526024015b60405180910390fd5b611c718161232c565b50565b6003546040805163233ace1160e01b815290516000926001600160a01b03169163233ace119160048083019260209291908290030181865afa1580156109af573d6000803e3d6000fd5b6001600160f81b031960e09390931b92831660ff60f01b84161760ff60e81b84161760ff60e01b939093169290921760409190911b68010000000000000000600160e01b03161767ff0000000000000082161766ff00000000000082161765ff000000000082161764ff0000000082161763ff00000082161762ff000082161761ff0082161760ff919091161790565b6000878152602081905260409020546001600160a01b038088166101009092041603611d8d57604051635040c4d360e11b815260040160405180910390fd5b611d9d6060830160408401613354565b60ff16600003611dc05760405163ac38930b60e01b815260040160405180910390fd5b8160a0013582608001351015611de9576040516363f4b4b760e01b815260040160405180910390fd5b611df66020830183613371565b158015611e05575060c0820135155b15611e2357604051630ac929fb60e41b815260040160405180910390fd5b60008260c00135118015611e3e57508160e001358260c00135105b15611e5c5760405163a159c01160e01b815260040160405180910390fd5b6009611e6b60208301836131c9565b6009811115611e7c57611e7c61272e565b60ff161115611e9e5760405163f37f7b5d60e01b815260040160405180910390fd5b8060200135600003611ec357604051634f9233a560e01b815260040160405180910390fd5b6040810135611ee557604051635e32eadd60e01b815260040160405180910390fd5b611ef26060820182613048565b9050600003611f1457604051630f8b932160e11b815260040160405180910390fd5b60048581811115611f2757611f2761272e565b60ff161180611f6557506000856004811115611f4557611f4561272e565b14158015611f6557506003856004811115611f6257611f6261272e565b14155b15611f83576040516307a92f1960e51b815260040160405180910390fd5b426000859003611f91578094505b80851015611fb257604051632ca4094f60e21b815260040160405180910390fd5b80611fbd85876131e6565b11610d3e57604051637616640160e01b815260040160405180910390fd5b306001600160a01b037f000000000000000000000000000000000000000000000000000000000000000016148061206257507f00000000000000000000000000000000000000000000000000000000000000006001600160a01b03166120566000805160206133ab833981519152546001600160a01b031690565b6001600160a01b031614155b15610fc55760405163703e46dd60e11b815260040160405180910390fd5b611c716122d1565b816001600160a01b03166352d1902d6040518163ffffffff1660e01b8152600401602060405180830381865afa9250505080156120e2575060408051601f3d908101601f191682019092526120df91810190613182565b60015b61210a57604051634c9c8ce360e01b81526001600160a01b0383166004820152602401611c5f565b6000805160206133ab833981519152811461213b57604051632a87526960e21b815260048101829052602401611c5f565b612145838361239d565b505050565b306001600160a01b037f00000000000000000000000000000000000000000000000000000000000000001614610fc55760405163703e46dd60e11b815260040160405180910390fd5b60008260048111156121a7576121a761272e565b8260048111156121b9576121b961272e565b036121c6575060006122b2565b60028360048111156121da576121da61272e565b14806121f7575060048360048111156121f5576121f561272e565b145b80612213575060018360048111156122115761221161272e565b145b15612220575060006122b2565b60008360048111156122345761223461272e565b0361228e5760035b82600481111561224e5761224e61272e565b148061226b575060028260048111156122695761226961272e565b145b80612287575060018260048111156122855761228561272e565b145b90506122b2565b60038360048111156122a2576122a261272e565b036122ae57600061223c565b5060005b92915050565b6122c06123f3565b611c718161243c565b610fc56123f3565b336123037f9016d09d72d40fdae2fd8ceac6b6234c7706214fd39c1cd1e609a0528c199300546001600160a01b031690565b6001600160a01b031614610fc55760405163118cdaa760e01b8152336004820152602401611c5f565b7f9016d09d72d40fdae2fd8ceac6b6234c7706214fd39c1cd1e609a0528c19930080546001600160a01b031981166001600160a01b03848116918217845560405192169182907f8be0079c531659141344cd1fd0a4f28419497f9722a3daafe3b4186f6b6457e090600090a3505050565b6123a682612444565b6040516001600160a01b038316907fbc7cd75a20ee27fd9adebab32041f755214dbc6bffa90cc0225b39da2e5c2d3b90600090a28051156123eb5761214582826124a9565b6109f361251f565b7ff0c57e16840df040f15088dc2f81fe391c3923bec73e23a9662efc9c229c6a0054600160401b900460ff16610fc557604051631afcd79f60e31b815260040160405180910390fd5b611c396123f3565b806001600160a01b03163b60000361247a57604051634c9c8ce360e01b81526001600160a01b0382166004820152602401611c5f565b6000805160206133ab83398151915280546001600160a01b0319166001600160a01b0392909216919091179055565b6060600080846001600160a01b0316846040516124c6919061338e565b600060405180830381855af49150503d8060008114612501576040519150601f19603f3d011682016040523d82523d6000602084013e612506565b606091505b509150915061251685838361253e565b95945050505050565b3415610fc55760405163b398979f60e01b815260040160405180910390fd5b6060826125535761254e8261259a565b611886565b815115801561256a57506001600160a01b0384163b155b1561259357604051639996b31560e01b81526001600160a01b0385166004820152602401611c5f565b5092915050565b8051156125aa5780518082602001fd5b60405163d6bda27560e01b815260040160405180910390fd5b604080516101808101909152806000815260200160006001600160a01b03168152602001612604604051806040016040528060008152602001600081525090565b81526020016000815260200160608152602001600081526020016000815260200160008152602001600081526020016060815260200161268c604051806101000160405280600015158152602001600015158152602001600060ff168152602001600060ff168152602001600081526020016000815260200160008152602001600081525090565b815260408051608081018252600080825260208281018290529282015260608082015291015290565b8280548282559060005260206000209081019282156126f0579160200282015b828111156126f05782518255916020019190600101906126d5565b506126fc929150612700565b5090565b5b808211156126fc5760008155600101612701565b60006020828403121561272757600080fd5b5035919050565b634e487b7160e01b600052602160045260246000fd5b600581106127545761275461272e565b9052565b60005b8381101561277357818101518382015260200161275b565b50506000910152565b60008151808452612794816020860160208601612758565b601f01601f19169290920160200192915050565b80511515825260208101511515602083015260ff604082015116604083015260608101516127db606084018260ff169052565b506080810151608083015260a081015160a083015260c081015160c083015260e081015160e08301525050565b60008151600a811061281c5761281c61272e565b80845250602082015160208401526040820151604084015260608201516080606085015261284d608085018261277c565b949350505050565b61285f818d612744565b6001600160a01b038b166020820152612885604082018b80518252602090810151910152565b8860808201528760a08201528660c08201528560e08201528461010082015261026061012082015260006128bd61026083018661277c565b6128cb6101408401866127a8565b8281036102408401526128de8185612808565b9e9d5050505050505050505050505050565b8035600581106128ff57600080fd5b919050565b60006080828403121561291657600080fd5b50919050565b60008083601f84011261292e57600080fd5b5081356001600160401b0381111561294557600080fd5b60208301915083602082850101111561295d57600080fd5b9250929050565b60006040828403121561291657600080fd5b6000806000806000806000806000898b0361020081121561299657600080fd5b61299f8b6128f0565b995060208b0135985060408b01359750610100605f19820112156129c257600080fd5b5060608a0195506101608a01356001600160401b038111156129e357600080fd5b6129ef8c828d01612904565b9550506101808a01356001600160401b03811115612a0c57600080fd5b612a188c828d0161291c565b9095509350612a2d90508b6101a08c01612964565b989b979a5095989497939692955090936101e00135919050565b80356001600160a01b03811681146128ff57600080fd5b634e487b7160e01b600052604160045260246000fd5b604051601f8201601f191681016001600160401b0381118282101715612a9c57612a9c612a5e565b604052919050565b60008060408385031215612ab757600080fd5b612ac083612a47565b915060208301356001600160401b03811115612adb57600080fd5b8301601f81018513612aec57600080fd5b80356001600160401b03811115612b0557612b05612a5e565b612b18601f8201601f1916602001612a74565b818152866020838501011115612b2d57600080fd5b816020840160208301376000602083830101528093505050509250929050565b60008060408385031215612b6057600080fd5b82359150612b70602084016128f0565b90509250929050565b600060208284031215612b8b57600080fd5b61188682612a47565b600080600060608486031215612ba957600080fd5b833563ffffffff81168114612bbd57600080fd5b9250612bcb60208501612a47565b9150612bd960408501612a47565b90509250925092565b60008060408385031215612bf557600080fd5b8235915060208301356001600160401b03811115612c1257600080fd5b612c1e85828601612904565b9150509250929050565b600081518084526020840193506020830160005b82811015612c5a578151865260209586019590910190600101612c3c565b5093949350505050565b60208152612c76602082018351612744565b60006020830151612c9260408401826001600160a01b03169052565b506040830151805160608401526020810151608084015250606083015160a0830152608083015161028060c0840152612ccf6102a0840182612c28565b905060a084015160e084015260c084015161010084015260e0840151610120840152610100840151610140840152610120840151601f1984830301610160850152612d1a828261277c565b915050610140840151612d316101808501826127a8565b50610160840151838203601f19016102808501526125168282612808565b600080600080600060608688031215612d6757600080fd5b8535945060208601356001600160401b03811115612d8457600080fd5b612d908882890161291c565b90955093505060408601356001600160401b03811115612daf57600080fd5b612dbb8882890161291c565b969995985093965092949392505050565b602081526000611886602083018461277c565b60008060408385031215612df257600080fd5b50508035926020909101359150565b600181811c90821680612e1557607f821691505b60208210810361291657634e487b7160e01b600052602260045260246000fd5b601f82111561214557806000526020600020601f840160051c81016020851015612e5c5750805b601f840160051c820191505b81811015612e7c5760008155600101612e68565b5050505050565b6001600160401b03831115612e9a57612e9a612a5e565b612eae83612ea88354612e01565b83612e35565b6000601f841160018114612ee25760008515612eca5750838201355b600019600387901b1c1916600186901b178355612e7c565b600083815260209020601f19861690835b82811015612f135786850135825560209485019460019092019101612ef3565b5086821015612f305760001960f88860031b161c19848701351681555b505060018560011b0183555050505050565b8015158114611c7157600080fd5b600081356122b281612f42565b60ff81168114611c7157600080fd5b600081356122b281612f5d565b8135612f8481612f42565b815490151560ff1660ff1991909116178155612fbf612fa560208401612f50565b82805461ff00191691151560081b61ff0016919091179055565b612fe6612fce60408401612f6c565b825462ff0000191660109190911b62ff000016178255565b61300f612ff560608401612f6c565b825463ff000000191660189190911b63ff00000016178255565b6080820135600182015560a0820135600282015560c0820135600382015560e090910135600490910155565b600a8110611c7157600080fd5b6000808335601e1984360301811261305f57600080fd5b8301803591506001600160401b0382111561307957600080fd5b60200191503681900382131561295d57600080fd5b81356130998161303b565b600a81106130a9576130a961272e565b815460ff191660ff9190911617815560208201356001820155604082013560028201556060820135601e19368490030181126130e457600080fd5b820180356001600160401b038111156130fc57600080fd5b60208201915080360382131561311157600080fd5b61311f818360038601612e83565b50505050565b634e487b7160e01b600052601160045260246000fd5b600063ffffffff821663ffffffff810361315757613157613125565b60010192915050565b60006001600160401b0382166001600160401b03810361315757613157613125565b60006020828403121561319457600080fd5b5051919050565b818103818111156122b2576122b2613125565b604081016131bc8285612744565b6118866020830184612744565b6000602082840312156131db57600080fd5b81356118868161303b565b808201808211156122b2576122b2613125565b81835281816020850137506000828201602090810191909152601f909101601f19169091010190565b84815260606020820152600061323c6060830185876131f9565b905082604083015295945050505050565b6040815260006132616040830186886131f9565b82810360208401526132748185876131f9565b979650505050505050565b6000610120828403121561329257600080fd5b600083601f8401126132a2578081fd5b806101206132af81612a74565b92508291508401858111156132c357600080fd5b845b818110156132dd5780358452602093840193016132c5565b509095945050505050565b634e487b7160e01b600052603260045260246000fd5b6020815260006118866020830184612c28565b60006080828403121561332357600080fd5b600083601f840112613333578081fd5b8061333e6080612a74565b905080915060808401858111156132c357600080fd5b60006020828403121561336657600080fd5b813561188681612f5d565b60006020828403121561338357600080fd5b813561188681612f42565b600082516133a0818460208701612758565b919091019291505056fe360894a13ba1a3210667c828492db98dca3e2076cc3735a920a3ca505d382bbca2646970667358221220b7079d175232b98d312b115bcdbb93d9d0dde6de234469038bf5d09fdb46728764736f6c634300081c0033",
    "linkReferences": {},
    "deployedLinkReferences": {}
}