{
  "_format": "hh-sol-artifact-1",
  "contractName": "StateTransitionVerifierBaseGroth16",
  "sourceName": "src/verifiers/StateTransitionVerifierBaseGroth16.sol",
  "abi": [
    {
      "inputs": [],
      "name": "CommitmentInvalid",
      "type": "error"
    },
    {
      "inputs": [],
      "name": "ProofInvalid",
      "type": "error"
    },
    {
      "inputs": [],
      "name": "PublicInputNotInField",
      "type": "error"
    },
    {
      "inputs": [
        {
          "internalType": "uint256[8]",
          "name": "proof",
          "type": "uint256[8]"
        },
        {
          "internalType": "uint256[2]",
          "name": "commitments",
          "type": "uint256[2]"
        },
        {
          "internalType": "uint256[2]",
          "name": "commitmentPok",
          "type": "uint256[2]"
        }
      ],
      "name": "compressProof",
      "outputs": [
        {
          "internalType": "uint256[4]",
          "name": "compressed",
          "type": "uint256[4]"
        },
        {
          "internalType": "uint256[1]",
          "name": "compressedCommitments",
          "type": "uint256[1]"
        },
        {
          "internalType": "uint256",
          "name": "compressedCommitmentPok",
          "type": "uint256"
        }
      ],
      "stateMutability": "view",
      "type": "function"
    },
    {
      "inputs": [
        {
          "internalType": "uint256[4]",
          "name": "compressedProof",
          "type": "uint256[4]"
        },
        {
          "internalType": "uint256[1]",
          "name": "compressedCommitments",
          "type": "uint256[1]"
        },
        {
          "internalType": "uint256",
          "name": "compressedCommitmentPok",
          "type": "uint256"
        },
        {
          "internalType": "uint256[10]",
          "name": "input",
          "type": "uint256[10]"
        }
      ],
      "name": "verifyCompressedProof",
      "outputs": [],
      "stateMutability": "view",
      "type": "function"
    },
    {
      "inputs": [
        {
          "internalType": "uint256[8]",
          "name": "proof",
          "type": "uint256[8]"
        },
        {
          "internalType": "uint256[2]",
          "name": "commitments",
          "type": "uint256[2]"
        },
        {
          "internalType": "uint256[2]",
          "name": "commitmentPok",
          "type": "uint256[2]"
        },
        {
          "internalType": "uint256[10]",
          "name": "input",
          "type": "uint256[10]"
        }
      ],
      "name": "verifyProof",
      "outputs": [],
      "stateMutability": "view",
      "type": "function"
    }
  ],
  "bytecode": "0x6080604052348015600e575f5ffd5b50611d9c8061001c5f395ff3fe608060405234801561000f575f5ffd5b506004361061003f575f3560e01c8063b1c3a00e14610043578063dc37819a1461006e578063df078bef14610083575b5f5ffd5b610056610051366004611b24565b610096565b60405161006593929190611b6a565b60405180910390f35b61008161007c366004611bdc565b61011e565b005b610081610091366004611c31565b61068b565b61009e611a8a565b6100a6611aa8565b5f6100ba86358760015b6020020135610b38565b83526100d86060870135604088013560a089013560808a0135610c25565b602085015260408401526100f260c08701358760076100b0565b606084015261010485358660016100b0565b825261011384358560016100b0565b905093509350939050565b610126611aa8565b61012e611ac6565b610136611ae4565b610146865f5b6020020135610efe565b602084015282525f8061015887610efe565b60408051600580825260c08201909252929450909250606091906020820160a080368337019050509050602080820190604089018237608060c0890160208301375084516020808701516040515f516020611d475f395f51905f52936101c393909291869101611c93565b604051602081830303815290604052805190602001205f1c6101e59190611ce8565b865284518452602085810151858201527f2b71f483568229768a69da7e698972477f2e3542d4b495d0eb993e3847a566856040808701919091527f26bafb5a85d2dbd50000d08c33f1469c79b26a89826520f9ff975ad96b211ffb60608701527f2e7c08c0cbc9370df848e1bb9c4ef71c7658a55ae26b712c6f6196732f11469660808701527f0c8794566f2ee51e99fb8ce36cd1f37d8f1a14ddf2b2c3ee5754b08b623c05d560a087015260c0860185905260e086018490527f254db2e9700c2423d850234288cf96924440e71140f82503393a0b22e3b6ae656101008701527f28328f51a3fa4ddbbc83eb6b8f472e410e096b950f4833ca93ec3dbb42d15d606101208701527f2d701346b24558ab81687d7d34a24396676040c669328519fecd648bbf3abc8d6101408701527f06836192d1e46d45adc7ebbab6e238dc4f8efd52404bb8363c098a92e68188ec610160870152515f91816101808860085afa90511690508061036a576040516351d49ff760e11b815260040160405180910390fd5b505050505f5f610385895f6004811061013c5761013c611c7f565b90925090505f8080806103a060408e013560208f0135610f9d565b929650909450925090505f806103b78f600361013c565b915091505f5f6103c88e8e8e611171565b8b8d5260208d018b905260408d0189905260608d018a905260808d0187905260a08d0188905260c08d0186905260e08d018590527f1640030e1fa5aa0eedcce10297946856de426ea8fb18aad3e3b8d07df4b5e6f26101008e01527f1535472265363417848ec0efefb82d81e6f25d7218862a1a679dcfdf55c40f7f6101208e01527f2d0ec60e06a2e51cc2259493d46fb470af39a7e17ab9b2b98b528db4fd848b046101408e01527f17965ec004b8ec1b9b18d261fc673de88408f71fe079d7ee703c3d514f3c8a8b6101608e01527f04d6b7ad212268e819bb7bacd10c5944ad07bbb36e9dc3612d3f37f60ce0397a6101808e01527f1e4a8ef31f5c4db2eeed6c6546231667706ec6fd96227540c3a17c4cad510e8f6101a08e01527f0394475b99283702e6ccfaba92deb124a5c16662671d2b1f8f21ec595c046af66101c08e01527f3001f8d6f84ff942ff43daf811bbde4f601824e660ded326ffae517ef896ba4e6101e08e01527f25954d648f0d013f8e07766ae41411f3670872369105612c2edd8490861d5ed26102008e01527f11f0c42554cfddb592b8e19b5a9a6b2d80e4ac2c370f82dcae4535d53352c5a86102208e01526102408d018290526102608d018190527f20236b938a08f04c7665ad412cc08f040435f06e4303373fa562250a0221ee456102808e01527f0f541b7d2ab22298931832ad41c126b9a272494b81ef7d2f9d696e7a2cef58706102a08e01527f1c09a02f7e485d145fc533ce9fe9da3cabcf19fbd96d52d4f84b0f89cdc4fd516102c08e01527f1bf044c92252e420f3aef6da1aa03eeb895df2e28ae2023cf1e43aab2c153c8c6102e08e015290925090505f61063c611aa8565b6020816103008f60085afa915081158061065857508051600114155b1561067657604051631ff3747d60e21b815260040160405180910390fd5b50505050505050505050505050505050505050565b610693611aa8565b60408051600580825260c082019092526060916020820160a080368337019050509050602080820190604085018237608060c085016020830137506040515f516020611d475f395f51905f52906106f6908735906020808a013591869101611c93565b604051602081830303815290604052805190602001205f1c6107189190611ce8565b8252604080515f918782377f2b71f483568229768a69da7e698972477f2e3542d4b495d0eb993e3847a5668560408201527f26bafb5a85d2dbd50000d08c33f1469c79b26a89826520f9ff975ad96b211ffb60608201527f2e7c08c0cbc9370df848e1bb9c4ef71c7658a55ae26b712c6f6196732f11469660808201527f0c8794566f2ee51e99fb8ce36cd1f37d8f1a14ddf2b2c3ee5754b08b623c05d560a082015260408660c08301377f254db2e9700c2423d850234288cf96924440e71140f82503393a0b22e3b6ae656101008201527f28328f51a3fa4ddbbc83eb6b8f472e410e096b950f4833ca93ec3dbb42d15d606101208201527f2d701346b24558ab81687d7d34a24396676040c669328519fecd648bbf3abc8d6101408201527f06836192d1e46d45adc7ebbab6e238dc4f8efd52404bb8363c098a92e68188ec6101608201526020816101808360085afa90511690508061088d576040516351d49ff760e11b815260040160405180910390fd5b5f5f6108c286868a60028060200260405190810160405280929190826002602002808284375f92019190915250611171915050565b915091506040516101008a82377f1640030e1fa5aa0eedcce10297946856de426ea8fb18aad3e3b8d07df4b5e6f26101008201527f1535472265363417848ec0efefb82d81e6f25d7218862a1a679dcfdf55c40f7f6101208201527f2d0ec60e06a2e51cc2259493d46fb470af39a7e17ab9b2b98b528db4fd848b046101408201527f17965ec004b8ec1b9b18d261fc673de88408f71fe079d7ee703c3d514f3c8a8b6101608201527f04d6b7ad212268e819bb7bacd10c5944ad07bbb36e9dc3612d3f37f60ce0397a6101808201527f1e4a8ef31f5c4db2eeed6c6546231667706ec6fd96227540c3a17c4cad510e8f6101a08201527f0394475b99283702e6ccfaba92deb124a5c16662671d2b1f8f21ec595c046af66101c08201527f3001f8d6f84ff942ff43daf811bbde4f601824e660ded326ffae517ef896ba4e6101e08201527f25954d648f0d013f8e07766ae41411f3670872369105612c2edd8490861d5ed26102008201527f11f0c42554cfddb592b8e19b5a9a6b2d80e4ac2c370f82dcae4535d53352c5a861022082015282610240820152816102608201527f20236b938a08f04c7665ad412cc08f040435f06e4303373fa562250a0221ee456102808201527f0f541b7d2ab22298931832ad41c126b9a272494b81ef7d2f9d696e7a2cef58706102a08201527f1c09a02f7e485d145fc533ce9fe9da3cabcf19fbd96d52d4f84b0f89cdc4fd516102c08201527f1bf044c92252e420f3aef6da1aa03eeb895df2e28ae2023cf1e43aab2c153c8c6102e08201526020816103008360085afa905116925082610b2d57604051631ff3747d60e21b815260040160405180910390fd5b505050505050505050565b5f5f516020611d275f395f51905f5283101580610b6257505f516020611d275f395f51905f528210155b15610b8057604051631ff3747d60e21b815260040160405180910390fd5b82158015610b8c575081155b15610b9857505f610c1f565b5f610bd35f516020611d275f395f51905f5260035f516020611d275f395f51905f52875f516020611d275f395f51905f52898a0909086117d4565b9050808303610be8575050600182901b610c1f565b610bf181611836565b8303610c04575050600182811b17610c1f565b604051631ff3747d60e21b815260040160405180910390fd5b505b92915050565b5f5f5f516020611d275f395f51905f5286101580610c5057505f516020611d275f395f51905f528510155b80610c6857505f516020611d275f395f51905f528410155b80610c8057505f516020611d275f395f51905f528310155b15610c9e57604051631ff3747d60e21b815260040160405180910390fd5b828486881717175f03610cb557505f905080610ef5565b5f80805f516020611d275f395f51905f52610cde60035f516020611d275f395f51905f52611d07565b5f516020611d275f395f51905f528a8c090990505f5f516020611d275f395f51905f528a5f516020611d275f395f51905f528c8d090990505f5f516020611d275f395f51905f528a5f516020611d275f395f51905f528c8d090990505f516020611d275f395f51905f52805f516020611d275f395f51905f528c860984087f2b149d40ceb8aaae81be18991be06ac3b5b4c5e559dbefa33267e6dc24a138e5089450610dcc5f516020611d275f395f51905f52805f516020611d275f395f51905f528e870984087f2fcd3ac2a640a154eb23960892a85a68f031ca0c8344b23a577dcf1052b9e77508611836565b93505050505f5f610e195f516020611d275f395f51905f5280610df157610df1611cd4565b5f516020611d275f395f51905f528586095f516020611d275f395f51905f52878809086117d4565b9050610e645f516020611d275f395f51905f527f183227397098d014dc2822db40c0ac2ecbc0b548b438e5469e10460b6c3e7ea45f516020611d275f395f51905f528488080961184e565b15915050610e73838383611896565b90935091508683148015610e8657508186145b15610eae5780610e96575f610e99565b60025b60ff1660028a901b175f179450879350610ef1565b610eb783611836565b87148015610ecc5750610ec982611836565b86145b15610c045780610edc575f610edf565b60025b60ff1660028a901b1760011794508793505b5050505b94509492505050565b5f5f825f03610f1157505f928392509050565b600183811c9250808416145f516020611d275f395f51905f528310610f4957604051631ff3747d60e21b815260040160405180910390fd5b610f835f516020611d275f395f51905f5260035f516020611d275f395f51905f52865f516020611d275f395f51905f5288890909086117d4565b91508015610f9757610f9482611836565b91505b50915091565b5f80808085158015610fad575084155b15610fc257505f925082915081905080611168565b600286811c945085935060018088161490808816145f516020611d275f395f51905f528610158061100057505f516020611d275f395f51905f528510155b1561101e57604051631ff3747d60e21b815260040160405180910390fd5b5f5f516020611d275f395f51905f5261104560035f516020611d275f395f51905f52611d07565b5f516020611d275f395f51905f52888a090990505f5f516020611d275f395f51905f52885f516020611d275f395f51905f528a8b090990505f5f516020611d275f395f51905f52885f516020611d275f395f51905f528a8b090990505f516020611d275f395f51905f52805f516020611d275f395f51905f528a860984087f2b149d40ceb8aaae81be18991be06ac3b5b4c5e559dbefa33267e6dc24a138e50896506111335f516020611d275f395f51905f52805f516020611d275f395f51905f528c870984087f2fcd3ac2a640a154eb23960892a85a68f031ca0c8344b23a577dcf1052b9e77508611836565b9550611140878786611896565b909750955084156111625761115487611836565b965061115f86611836565b95505b50505050505b92959194509250565b5f5f5f60019050604051604081015f7f297ceb82bdfe8db334f6b543f9559ec25ca0f4d004994ad6dec0917c63f0d8aa83527f03e50ce2ab1556ffed2b8450ff49763ca548877bad5f8f56445f0d3be1b4bae86020840152865182526020870151602083015260408360808560065afa841693507f13a8982abb12cd59bc6264241cade3864edd5adbbf598c657610806ceaff573b82527f193f31ff52e1cdfa10fc7aaac2f40b1760c7057edab4aab79bcd20d8703b1c866020830152883590508060408301525f516020611d475f395f51905f5281108416935060408260608460075afa8416935060408360808560065afa841693507f08a881fffaa8323634fc86e3c0dba693e27fb8a2a819d44670ea721fc61396bf82527f1cafea2789eec4b42aab039bd039299d25249f07bb5e749c1f76cc180ce0a2e66020830152602089013590508060408301525f516020611d475f395f51905f5281108416935060408260608460075afa8416935060408360808560065afa841693507f159b86157f61e0c9360cf00ee256117ea6454973174d5a9204ab87e190a8453182527f2bf78f17af3642cc02387e12eb43fb6fe61c4d4fd265ea26e5f4c2c650f2aa226020830152604089013590508060408301525f516020611d475f395f51905f5281108416935060408260608460075afa8416935060408360808560065afa841693507f1d93cd620c0f05e1b8ad622666fd6b03a7c61b52cd1d13f522cea88aa9fcb6e582527f2eb3957fa77085bda6fd17d0c3d64dfedbb8aa8cc6b569defe59c0fa18499e656020830152606089013590508060408301525f516020611d475f395f51905f5281108416935060408260608460075afa8416935060408360808560065afa841693507f29a1fbbe6fcdd3163626722d04013639284b256888b91ab984d8424eebffccf582527f03982a556954f90fa1fa29c443aab9c371392d8606dc8e426ef74846f783bc0d6020830152608089013590508060408301525f516020611d475f395f51905f5281108416935060408260608460075afa8416935060408360808560065afa841693507f24cf8a1646e52613bc8b5823df74f95f62563836d673500b2675a9bc101d645c82527f281e4773ef450e3e7fc78b811ef425377757530d8bcac1288297b29e994bd0e8602083015260a089013590508060408301525f516020611d475f395f51905f5281108416935060408260608460075afa8416935060408360808560065afa841693507f0bd46762be872b588ae6273cce667445800e9b695e2ac2773743c4e5c5f9e48082527f25fb52129e50bb23eaccbfc6b94134fb7f49ae274f7b2610e38cefad1db1a269602083015260c089013590508060408301525f516020611d475f395f51905f5281108416935060408260608460075afa8416935060408360808560065afa841693507f2a29c157cb2c1dd9e42d82ae6a2be99baa7853ab63b5816743bcf2173b50698b82527eceeb858088daa1cd5866686880e3fc9b4023b51e282f991d9544422a9fa00d602083015260e089013590508060408301525f516020611d475f395f51905f5281108416935060408260608460075afa8416935060408360808560065afa841693507f2e46dec21f6fbf78c35c68c620e7a8f89a9121136e93b2c71c3b534585c1e90c82527f1383dae2a97927d456a1a86b962f707cc8e5b7b46086e76141eb3d692a79f969602083015261010089013590508060408301525f516020611d475f395f51905f5281108416935060408260608460075afa8416935060408360808560065afa841693507f2f71b71dbf209f5470a44bfc507edacdffcf87b36dd638afca87002118c8876282527f0f6fca30737c4bb639bd8830ddefc8357c187597b3d96de8c7634c11217a0655602083015261012089013590508060408301525f516020611d475f395f51905f5281108416935060408260608460075afa8416935060408360808560065afa7f0fb126a6fba958d6b39180b4d8eae22408207d5967042a99909060ba975edd0183527f07850edfddb48b7a9ff6c5dfb3ad8c95c49e160f6b265d985bb8e23d5db57e2a6020840152885160408085018290525f516020611d475f395f51905f5290911091909516169390508160608160075afa831692505060408160808360065afa815160209092015191945090925016806117cb5760405163a54f8e2760e01b815260040160405180910390fd5b50935093915050565b5f6117ff827f0c19139cb84c680a6e14116da060561765e05aa45a1c72a34f082305b61f3f526119c9565b9050815f516020611d275f395f51905f528283091461183157604051631ff3747d60e21b815260040160405180910390fd5b919050565b5f516020611d275f395f51905f529081900681030690565b5f5f61187a837f0c19139cb84c680a6e14116da060561765e05aa45a1c72a34f082305b61f3f526119c9565b9050825f516020611d275f395f51905f52828309149392505050565b5f80806118c55f516020611d275f395f51905f52808788095f516020611d275f395f51905f52898a09086117d4565b905083156118d9576118d681611836565b90505b6119225f516020611d275f395f51905f527f183227397098d014dc2822db40c0ac2ecbc0b548b438e5469e10460b6c3e7ea45f516020611d275f395f51905f52848a08096117d4565b92505f516020611d275f395f51905f5261194c5f516020611d275f395f51905f5260028609611a2c565b860991505f516020611d275f395f51905f526119775f516020611d275f395f51905f52848509611836565b5f516020611d275f395f51905f5285860908861415806119ab57505f516020611d275f395f51905f52808385096002098514155b156117cb57604051631ff3747d60e21b815260040160405180910390fd5b5f5f60405160208152602080820152602060408201528460608201528360808201525f516020611d275f395f51905f5260a082015260208160c08360055afa90519250905080610c1d57604051631ff3747d60e21b815260040160405180910390fd5b5f611a57827f30644e72e131a029b85045b68181585d97816a916871ca8d3c208c16d87cfd456119c9565b90505f516020611d275f395f51905f5281830960011461183157604051631ff3747d60e21b815260040160405180910390fd5b60405180608001604052806004906020820280368337509192915050565b60405180602001604052806001906020820280368337509192915050565b60405180604001604052806002906020820280368337509192915050565b6040518061030001604052806018906020820280368337509192915050565b806101008101831015610c1f575f5ffd5b8060408101831015610c1f575f5ffd5b5f5f5f6101808486031215611b37575f5ffd5b611b418585611b03565b9250611b51856101008601611b14565b9150611b61856101408601611b14565b90509250925092565b60c0810181855f5b6004811015611b91578151835260209283019290910190600101611b72565b50505060808201845f5b6001811015611bba578151835260209283019290910190600101611b9b565b5050508260a0830152949350505050565b806101408101831015610c1f575f5ffd5b5f5f5f5f6102008587031215611bf0575f5ffd5b6080850186811115611c00575f5ffd5b85945060a0860187811115611c13575f5ffd5b909350359150611c268660c08701611bcb565b905092959194509250565b5f5f5f5f6102c08587031215611c45575f5ffd5b611c4f8686611b03565b9350611c5f866101008701611b14565b9250611c6f866101408701611b14565b9150611c26866101808701611bcb565b634e487b7160e01b5f52603260045260245ffd5b8381528260208201525f604082018351602085015f5b82811015611cc7578151845260209384019390910190600101611ca9565b5091979650505050505050565b634e487b7160e01b5f52601260045260245ffd5b5f82611d0257634e487b7160e01b5f52601260045260245ffd5b500690565b81810381811115610c1f57634e487b7160e01b5f52601160045260245ffdfe30644e72e131a029b85045b68181585d97816a916871ca8d3c208c16d87cfd4730644e72e131a029b85045b68181585d2833e84879b9709143e1f593f0000001a2646970667358221220d3471f14eae39e7ed68815750cfb8f282df484e4c928ecb4f5f938406e1676ff64736f6c634300081c0033",
  "linkReferences": {},
  "deployedLinkReferences": {}
}