{
  "_format": "hh-sol-artifact-1",
  "contractName": "StateTransitionVerifierBaseGroth16",
  "sourceName": "src/verifiers/StateTransitionVerifierBaseGroth16.sol",
  "abi": [
    {
      "inputs": [],
      "name": "CommitmentInvalid",
      "type": "error"
    },
    {
      "inputs": [],
      "name": "ProofInvalid",
      "type": "error"
    },
    {
      "inputs": [],
      "name": "PublicInputNotInField",
      "type": "error"
    },
    {
      "inputs": [
        {
          "internalType": "uint256[8]",
          "name": "proof",
          "type": "uint256[8]"
        },
        {
          "internalType": "uint256[2]",
          "name": "commitments",
          "type": "uint256[2]"
        },
        {
          "internalType": "uint256[2]",
          "name": "commitmentPok",
          "type": "uint256[2]"
        }
      ],
      "name": "compressProof",
      "outputs": [
        {
          "internalType": "uint256[4]",
          "name": "compressed",
          "type": "uint256[4]"
        },
        {
          "internalType": "uint256[1]",
          "name": "compressedCommitments",
          "type": "uint256[1]"
        },
        {
          "internalType": "uint256",
          "name": "compressedCommitmentPok",
          "type": "uint256"
        }
      ],
      "stateMutability": "view",
      "type": "function"
    },
    {
      "inputs": [
        {
          "internalType": "uint256[4]",
          "name": "compressedProof",
          "type": "uint256[4]"
        },
        {
          "internalType": "uint256[1]",
          "name": "compressedCommitments",
          "type": "uint256[1]"
        },
        {
          "internalType": "uint256",
          "name": "compressedCommitmentPok",
          "type": "uint256"
        },
        {
          "internalType": "uint256[4]",
          "name": "input",
          "type": "uint256[4]"
        }
      ],
      "name": "verifyCompressedProof",
      "outputs": [],
      "stateMutability": "view",
      "type": "function"
    },
    {
      "inputs": [
        {
          "internalType": "uint256[8]",
          "name": "proof",
          "type": "uint256[8]"
        },
        {
          "internalType": "uint256[2]",
          "name": "commitments",
          "type": "uint256[2]"
        },
        {
          "internalType": "uint256[2]",
          "name": "commitmentPok",
          "type": "uint256[2]"
        },
        {
          "internalType": "uint256[4]",
          "name": "input",
          "type": "uint256[4]"
        }
      ],
      "name": "verifyProof",
      "outputs": [],
      "stateMutability": "view",
      "type": "function"
    }
  ],
  "bytecode": "0x6080604052348015600f57600080fd5b50611ae38061001f6000396000f3fe608060405234801561001057600080fd5b50600436106100415760003560e01c8063b1c3a00e14610046578063d148354c14610071578063e33974a814610086575b600080fd5b610059610054366004611858565b610099565b604051610068939291906118a1565b60405180910390f35b61008461007f366004611915565b610122565b005b610084610094366004611971565b6105c8565b6100a16117bc565b6100a96117da565b60006100be86358760015b6020020135610b34565b83526100dc6060870135604088013560a089013560808a0135610c29565b602085015260408401526100f660c08701358760076100b4565b606084015261010885358660016100b4565b825261011784358560016100b4565b905093509350939050565b61012a6117da565b6040805160018082528183019092526060916020808301908036833701905050905060208082019060408501823750604051600080516020611a8e83398151915290610182908735906020808a0135918691016119d1565b6040516020818303038152906040528051906020012060001c6101a59190611a2a565b8252604080516000918782377f3015a7844f93ffc868339ed133711db1e2f607bfaaf7c1d0ac69f46406de3ed960408201527f05420fddd408e12baebc9b71a2dc2bda13d46441141f986d8482a1ff778a2d1d60608201527f12949be1f4ecb86dcbaf648977452ac9ce9c0319dd6a5c3aadb7bc57c99d064a60808201527f23715dc774469021e45801227bcf7d0b979c32d4e023be3d6737d79a353508ca60a082015260408660c08301377f2941b46d10b2ceb33fec211da693cb4eee86d16bb092695eb313f85a8a1d4d596101008201527f1446b12ca9c28c64895ecd1c50a12c5f47251544e37ac0037c33c45a659b6e326101208201527f2f9f0251bc29a050c473fa576ecef0d072388d45883eb9d85edebd6def79c1d76101408201527f05eebf0cce919a2d90faa16fe4308f834bc4ba20af1088433050a6748ef5381d6101608201526020816101808360085afa90511690508061031b576040516351d49ff760e11b815260040160405180910390fd5b60008061035286868a6002806020026040519081016040528092919082600260200280828437600092019190915250610f20915050565b915091506040516101008a82377f14126a2627081476380525f8c47422f16da067ca72052ca6e6d090f5d4161bda6101008201527f0bad53b001700ab3d94f31adf720466bcf03b686e76a91a056d1990f261e6c696101208201527f0ea6d3a4517a1cf7847c09b300538f1a92d5489b73476847549ba85e27c582106101408201527f2c0364f790cfbf0af6119c3945eb8b1650559aabe96dec3c2725b89eb1df2a866101608201527f065500fe2e1b2043e4be23ddbb26c1f86016749045b7b3995762b6c0f20cb1896101808201527f154edc337988eacbc206168aa0dfb93c1e62bf66a4d8918d4fa09172f8ca8ce46101a08201527f0cf64179b832af7cded840b22edbdce7e74be8e19990ea07ac2747ad628e1e8c6101c08201527f0ebe51c4e4e5bff9914c8e9d97af4896adbaaa98f053940491b978e59e695bb26101e08201527f2d986de9b7a778b5ba9a4feb955d6f58d46d24ea0c01dd006f4cc0af0da7ccac6102008201527f29dbd0cfa1105f82fe4fe882c13d68b3e7b5ab0a996d06f456e5a8e879f2927361022082015282610240820152816102608201527f2a15c11f0ea27d2f5bdf3d100fe769cb01e325d038f06ece7bcdec7c7f296f1c6102808201527f16fd4771be9232658b0f51e6c975161a912cdf5b9c144f359b51bca90c0721506102a08201527f1b9eef24c8818a223c0662a68b479b0faf803e7371da862ce3b3225eb0b2381a6102c08201527f2ffe7b0551a62bc6d27a9c1268bbf1017edaf701c3782eea6b39c39c800f470f6102e08201526020816103008360085afa9051169250826105bd57604051631ff3747d60e21b815260040160405180910390fd5b505050505050505050565b6105d06117da565b6105d86117f8565b6105e0611816565b6105f18660005b6020020135611266565b6020840152825260008061060487611266565b6040805160018082528183019092529294509092506060919060208083019080368337019050509050602080820190604089018237508451602080870151604051600080516020611a8e83398151915293610664939092918691016119d1565b6040516020818303038152906040528051906020012060001c6106879190611a2a565b865284518452602085810151858201527f3015a7844f93ffc868339ed133711db1e2f607bfaaf7c1d0ac69f46406de3ed96040808701919091527f05420fddd408e12baebc9b71a2dc2bda13d46441141f986d8482a1ff778a2d1d60608701527f12949be1f4ecb86dcbaf648977452ac9ce9c0319dd6a5c3aadb7bc57c99d064a60808701527f23715dc774469021e45801227bcf7d0b979c32d4e023be3d6737d79a353508ca60a087015260c0860185905260e086018490527f2941b46d10b2ceb33fec211da693cb4eee86d16bb092695eb313f85a8a1d4d596101008701527f1446b12ca9c28c64895ecd1c50a12c5f47251544e37ac0037c33c45a659b6e326101208701527f2f9f0251bc29a050c473fa576ecef0d072388d45883eb9d85edebd6def79c1d76101408701527f05eebf0cce919a2d90faa16fe4308f834bc4ba20af1088433050a6748ef5381d61016087015251600091816101808860085afa90511690508061080d576040516351d49ff760e11b815260040160405180910390fd5b5050505060008061082a896000600481106105e7576105e76119bb565b9092509050600080808061084660408e013560208f013561130c565b9296509094509250905060008061085e8f60036105e7565b915091506000806108708e8e8e610f20565b8b8d5260208d018b905260408d0189905260608d018a905260808d0187905260a08d0188905260c08d0186905260e08d018590527f14126a2627081476380525f8c47422f16da067ca72052ca6e6d090f5d4161bda6101008e01527f0bad53b001700ab3d94f31adf720466bcf03b686e76a91a056d1990f261e6c696101208e01527f0ea6d3a4517a1cf7847c09b300538f1a92d5489b73476847549ba85e27c582106101408e01527f2c0364f790cfbf0af6119c3945eb8b1650559aabe96dec3c2725b89eb1df2a866101608e01527f065500fe2e1b2043e4be23ddbb26c1f86016749045b7b3995762b6c0f20cb1896101808e01527f154edc337988eacbc206168aa0dfb93c1e62bf66a4d8918d4fa09172f8ca8ce46101a08e01527f0cf64179b832af7cded840b22edbdce7e74be8e19990ea07ac2747ad628e1e8c6101c08e01527f0ebe51c4e4e5bff9914c8e9d97af4896adbaaa98f053940491b978e59e695bb26101e08e01527f2d986de9b7a778b5ba9a4feb955d6f58d46d24ea0c01dd006f4cc0af0da7ccac6102008e01527f29dbd0cfa1105f82fe4fe882c13d68b3e7b5ab0a996d06f456e5a8e879f292736102208e01526102408d018290526102608d018190527f2a15c11f0ea27d2f5bdf3d100fe769cb01e325d038f06ece7bcdec7c7f296f1c6102808e01527f16fd4771be9232658b0f51e6c975161a912cdf5b9c144f359b51bca90c0721506102a08e01527f1b9eef24c8818a223c0662a68b479b0faf803e7371da862ce3b3225eb0b2381a6102c08e01527f2ffe7b0551a62bc6d27a9c1268bbf1017edaf701c3782eea6b39c39c800f470f6102e08e015290925090506000610ae56117da565b6020816103008f60085afa9150811580610b0157508051600114155b15610b1f57604051631ff3747d60e21b815260040160405180910390fd5b50505050505050505050505050505050505050565b6000600080516020611a6e83398151915283101580610b615750600080516020611a6e8339815191528210155b15610b7f57604051631ff3747d60e21b815260040160405180910390fd5b82158015610b8b575081155b15610b9857506000610c23565b6000610bd7600080516020611a6e8339815191526003600080516020611a6e83398151915287600080516020611a6e833981519152898a0909086114f2565b9050808303610bec575050600182901b610c23565b610bf581611556565b8303610c08575050600182811b17610c23565b604051631ff3747d60e21b815260040160405180910390fd5b505b92915050565b600080600080516020611a6e83398151915286101580610c575750600080516020611a6e8339815191528510155b80610c705750600080516020611a6e8339815191528410155b80610c895750600080516020611a6e8339815191528310155b15610ca757604051631ff3747d60e21b815260040160405180910390fd5b82848688171717600003610cc057506000905080610f17565b60008080600080516020611a6e833981519152610cec6003600080516020611a6e833981519152611a4c565b600080516020611a6e8339815191528a8c090990506000600080516020611a6e8339815191528a600080516020611a6e8339815191528c8d090990506000600080516020611a6e8339815191528a600080516020611a6e8339815191528c8d09099050600080516020611a6e83398151915280600080516020611a6e8339815191528c860984087f2b149d40ceb8aaae81be18991be06ac3b5b4c5e559dbefa33267e6dc24a138e5089450610de5600080516020611a6e83398151915280600080516020611a6e8339815191528e870984087f2fcd3ac2a640a154eb23960892a85a68f031ca0c8344b23a577dcf1052b9e77508611556565b9350505050600080610e36600080516020611a6e83398151915280610e0c57610e0c611a14565b600080516020611a6e833981519152858609600080516020611a6e833981519152878809086114f2565b9050610e83600080516020611a6e8339815191527f183227397098d014dc2822db40c0ac2ecbc0b548b438e5469e10460b6c3e7ea4600080516020611a6e8339815191528488080961156f565b15915050610e928383836115b9565b90935091508683148015610ea557508186145b15610ecf5780610eb6576000610eb9565b60025b60ff1660028a901b176000179450879350610f13565b610ed883611556565b87148015610eed5750610eea82611556565b86145b15610c085780610efe576000610f01565b60025b60ff1660028a901b1760011794508793505b5050505b94509492505050565b6000806000600190506040516040810160007f220aa929812cd5153eb1e0eff6383d271e35fe0bdc1b05d3b3b56502a64861ad83527f1be69e3da6d0751ea666e831a266e5d80e44c3bb74ed0ac01f56803ee1e484886020840152865182526020870151602083015260408360808560065afa841693507f17ae48190efadf2d375c27f0e7596ae390bfdd952fde9496ce20927fa80f70a582527f03d7ee9bed605c7fc3a3aab4a6c01e1aa741f4f6d15cacc11593149e0f81eed6602083015288359050806040830152600080516020611a8e83398151915281108416935060408260608460075afa8416935060408360808560065afa841693507f1b00e3d4bc6143b9da3ef5178fe99bae576a1ae33df5b9a3aa00694eed3afb2082527f2a88546aa42a856c3b4b5676f2ec6fb2b674004df07de4917981340ecaf4665c602083015260208901359050806040830152600080516020611a8e83398151915281108416935060408260608460075afa8416935060408360808560065afa841693507f1bc913ffd4f05b49a32c1021bd0c97f0d31c1dd155b8df39bd8a65855278530e82527f227578cea63c2b28ec38734c95faa106d1c8bc7c3981f3f9f5e8b73a9494ef85602083015260408901359050806040830152600080516020611a8e83398151915281108416935060408260608460075afa8416935060408360808560065afa841693507f1d86268edadc5136f4024ccba4df39f1334bf926e6a1fabedca22f4e4e4396e282527f202d128bfa069837c8168e799c5185a4c8bb26486ffcf4283f91f1983d13ac46602083015260608901359050806040830152600080516020611a8e83398151915281108416935060408260608460075afa8416935060408360808560065afa7f2491a22385718e35e5fafe4833abe7d0dbc3ecf4111e559687528157c4bf674083527f2b5d1c3951f31e4892a6a4d4507a7e5e4e2187dbe8efb1dee40a36182e1544f6602084015288516040808501829052600080516020611a8e83398151915290911091909516169390508160608160075afa831692505060408160808360065afa8151602090920151919450909250168061125d5760405163a54f8e2760e01b815260040160405180910390fd5b50935093915050565b6000808260000361127c57506000928392509050565b600183811c925080841614600080516020611a6e83398151915283106112b557604051631ff3747d60e21b815260040160405180910390fd5b6112f2600080516020611a6e8339815191526003600080516020611a6e83398151915286600080516020611a6e83398151915288890909086114f2565b915080156113065761130382611556565b91505b50915091565b60008080808515801561131d575084155b15611333575060009250829150819050806114e9565b600286811c94508593506001808816149080881614600080516020611a6e833981519152861015806113735750600080516020611a6e8339815191528510155b1561139157604051631ff3747d60e21b815260040160405180910390fd5b6000600080516020611a6e8339815191526113bb6003600080516020611a6e833981519152611a4c565b600080516020611a6e833981519152888a090990506000600080516020611a6e83398151915288600080516020611a6e8339815191528a8b090990506000600080516020611a6e83398151915288600080516020611a6e8339815191528a8b09099050600080516020611a6e83398151915280600080516020611a6e8339815191528a860984087f2b149d40ceb8aaae81be18991be06ac3b5b4c5e559dbefa33267e6dc24a138e50896506114b4600080516020611a6e83398151915280600080516020611a6e8339815191528c870984087f2fcd3ac2a640a154eb23960892a85a68f031ca0c8344b23a577dcf1052b9e77508611556565b95506114c18787866115b9565b909750955084156114e3576114d587611556565b96506114e086611556565b95505b50505050505b92959194509250565b600061151e827f0c19139cb84c680a6e14116da060561765e05aa45a1c72a34f082305b61f3f526116f7565b905081600080516020611a6e8339815191528283091461155157604051631ff3747d60e21b815260040160405180910390fd5b919050565b600080516020611a6e8339815191529081900681030690565b60008061159c837f0c19139cb84c680a6e14116da060561765e05aa45a1c72a34f082305b61f3f526116f7565b905082600080516020611a6e833981519152828309149392505050565b600080806115eb600080516020611a6e83398151915280878809600080516020611a6e833981519152898a09086114f2565b905083156115ff576115fc81611556565b90505b61164a600080516020611a6e8339815191527f183227397098d014dc2822db40c0ac2ecbc0b548b438e5469e10460b6c3e7ea4600080516020611a6e833981519152848a08096114f2565b9250600080516020611a6e833981519152611676600080516020611a6e8339815191526002860961175c565b86099150600080516020611a6e8339815191526116a3600080516020611a6e833981519152848509611556565b600080516020611a6e83398151915285860908861415806116d95750600080516020611a6e833981519152808385096002098514155b1561125d57604051631ff3747d60e21b815260040160405180910390fd5b6000806040516020815260208082015260206040820152846060820152836080820152600080516020611a6e83398151915260a082015260208160c08360055afa90519250905080610c2157604051631ff3747d60e21b815260040160405180910390fd5b6000611788827f30644e72e131a029b85045b68181585d97816a916871ca8d3c208c16d87cfd456116f7565b9050600080516020611a6e83398151915281830960011461155157604051631ff3747d60e21b815260040160405180910390fd5b60405180608001604052806004906020820280368337509192915050565b60405180602001604052806001906020820280368337509192915050565b60405180604001604052806002906020820280368337509192915050565b6040518061030001604052806018906020820280368337509192915050565b806101008101831015610c2357600080fd5b8060408101831015610c2357600080fd5b6000806000610180848603121561186e57600080fd5b6118788585611835565b9250611888856101008601611847565b9150611898856101408601611847565b90509250925092565b60c08101818560005b60048110156118c95781518352602092830192909101906001016118aa565b505050608082018460005b60018110156118f35781518352602092830192909101906001016118d4565b5050508260a0830152949350505050565b8060808101831015610c2357600080fd5b600080600080610200858703121561192c57600080fd5b6119368686611835565b9350611946866101008701611847565b9250611956866101408701611847565b9150611966866101808701611904565b905092959194509250565b600080600080610140858703121561198857600080fd5b6119928686611904565b935060a08501868111156119a557600080fd5b6080860193503591506119668660c08701611904565b634e487b7160e01b600052603260045260246000fd5b83815282602082015260006040820183516020850160005b82811015611a075781518452602093840193909101906001016119e9565b5091979650505050505050565b634e487b7160e01b600052601260045260246000fd5b600082611a4757634e487b7160e01b600052601260045260246000fd5b500690565b81810381811115610c2357634e487b7160e01b600052601160045260246000fdfe30644e72e131a029b85045b68181585d97816a916871ca8d3c208c16d87cfd4730644e72e131a029b85045b68181585d2833e84879b9709143e1f593f0000001a26469706673582212206fe4594057dfb48311ed20bcd81e16f84a92450da815192e7a183cf30e68f52264736f6c634300081c0033",
  "linkReferences": {},
  "deployedLinkReferences": {}
}