{
  "_format": "hh-sol-artifact-1",
  "contractName": "StateTransitionVerifierBaseGroth16",
  "sourceName": "src/verifiers/StateTransitionVerifierBaseGroth16.sol",
  "abi": [
    {
      "inputs": [],
      "name": "CommitmentInvalid",
      "type": "error"
    },
    {
      "inputs": [],
      "name": "ProofInvalid",
      "type": "error"
    },
    {
      "inputs": [],
      "name": "PublicInputNotInField",
      "type": "error"
    },
    {
      "inputs": [
        {
          "internalType": "uint256[8]",
          "name": "proof",
          "type": "uint256[8]"
        },
        {
          "internalType": "uint256[2]",
          "name": "commitments",
          "type": "uint256[2]"
        },
        {
          "internalType": "uint256[2]",
          "name": "commitmentPok",
          "type": "uint256[2]"
        }
      ],
      "name": "compressProof",
      "outputs": [
        {
          "internalType": "uint256[4]",
          "name": "compressed",
          "type": "uint256[4]"
        },
        {
          "internalType": "uint256[1]",
          "name": "compressedCommitments",
          "type": "uint256[1]"
        },
        {
          "internalType": "uint256",
          "name": "compressedCommitmentPok",
          "type": "uint256"
        }
      ],
      "stateMutability": "view",
      "type": "function"
    },
    {
      "inputs": [
        {
          "internalType": "uint256[4]",
          "name": "compressedProof",
          "type": "uint256[4]"
        },
        {
          "internalType": "uint256[1]",
          "name": "compressedCommitments",
          "type": "uint256[1]"
        },
        {
          "internalType": "uint256",
          "name": "compressedCommitmentPok",
          "type": "uint256"
        },
        {
          "internalType": "uint256[4]",
          "name": "input",
          "type": "uint256[4]"
        }
      ],
      "name": "verifyCompressedProof",
      "outputs": [],
      "stateMutability": "view",
      "type": "function"
    },
    {
      "inputs": [
        {
          "internalType": "uint256[8]",
          "name": "proof",
          "type": "uint256[8]"
        },
        {
          "internalType": "uint256[2]",
          "name": "commitments",
          "type": "uint256[2]"
        },
        {
          "internalType": "uint256[2]",
          "name": "commitmentPok",
          "type": "uint256[2]"
        },
        {
          "internalType": "uint256[4]",
          "name": "input",
          "type": "uint256[4]"
        }
      ],
      "name": "verifyProof",
      "outputs": [],
      "stateMutability": "view",
      "type": "function"
    }
  ],
  "bytecode": "0x6080604052348015600f57600080fd5b50611ae38061001f6000396000f3fe608060405234801561001057600080fd5b50600436106100415760003560e01c8063b1c3a00e14610046578063d148354c14610071578063e33974a814610086575b600080fd5b610059610054366004611858565b610099565b604051610068939291906118a1565b60405180910390f35b61008461007f366004611915565b610122565b005b610084610094366004611971565b6105c8565b6100a16117bc565b6100a96117da565b60006100be86358760015b6020020135610b34565b83526100dc6060870135604088013560a089013560808a0135610c29565b602085015260408401526100f660c08701358760076100b4565b606084015261010885358660016100b4565b825261011784358560016100b4565b905093509350939050565b61012a6117da565b6040805160018082528183019092526060916020808301908036833701905050905060208082019060408501823750604051600080516020611a8e83398151915290610182908735906020808a0135918691016119d1565b6040516020818303038152906040528051906020012060001c6101a59190611a2a565b8252604080516000918782377f2a3e8437e0e4be1d4975bfba3bd9caa40aebdfcefc70b4fffed67b0f1e6ae4f860408201527f15f7a51d0fe471bb024385408d21788953374a0bdf7f0581379fb7e06e93979e60608201527f23e94e537689ab6316c3afcab5e5e10bd43de2c3bc9de66abc39a6553aace2ff60808201527f01e5b52b7632f5e7395aea166fd4f2c6d40b79ec44429c4272ff892839d8886260a082015260408660c08301377f2ec9dd6f2797d99e02c49d649e44da65491f6ed02bb40f9ce6c44c0fb1f01beb6101008201527f2d19679c4cbdb4801ba000e52662a17e59e14089f5cbe83845cfb2f6447213f86101208201527f1c1027a3e6a35996b594d04731b6781df80bc3a3077b863c86cc57ee21d6fb896101408201527f2e54aa0efe29009aa05331ef839d453476ab1feeaf97785771b2ec5c4c29fb7c6101608201526020816101808360085afa90511690508061031b576040516351d49ff760e11b815260040160405180910390fd5b60008061035286868a6002806020026040519081016040528092919082600260200280828437600092019190915250610f20915050565b915091506040516101008a82377f25be18c7e65db32e65026f7939c043a98795816f20cbd25527f3addd7e99a1e86101008201527f09a7a120b3fff2233fe488b5a74827a073df38f3a8afcd46b4e1cfb307d38b436101208201527f231f0eec110ba84e5b1cba365c8a8a4fa49aa6c653138510e31218db469f6a7a6101408201527f016112e5559fc0bc857158c89beec310e1e7ce440113469280b8e802ffccf6af6101608201527f098297c5bade7a1c3589318d19b922cf5c9694c65675fe7eca02dc71f44ce9e76101808201527f23fd514843f5f9e8374b74c5860e072f733b97259c5c5aac89b11542515406896101a08201527f30118b3b947f893b116da792eca016daab98441fd7fef5ad42e715b13ca4b63b6101c08201527f11388ccdd606010c1af80446738972000d44d49f63abcc6134a435ba2bf7ae186101e08201527f2d4ebb6ab35585fb02d92f4c0464cce8a3e5508ff69eccc8f8abdecfe58e9a6e6102008201527f1f23aae43ed7aa2286ced8ee37ffac47778a92f617d6e0f87f2a4f280553c01061022082015282610240820152816102608201527f0a14e4df12803a8926396b0317547adaacdf5873d24b73a66eb32cbf963003166102808201527f255d27b073e03510f0f60e2573f70c48b9145fc63a29a212cfdb2cd4b3907ecb6102a08201527f0f33052e900f7df201d8e453e5fea9617ecb28ab7e7cc0d1e775053304869ca76102c08201527f231a68c9b872133ddac249cff5dfd89c69fdfd8ebeb5d90d0ef418a491d0b0836102e08201526020816103008360085afa9051169250826105bd57604051631ff3747d60e21b815260040160405180910390fd5b505050505050505050565b6105d06117da565b6105d86117f8565b6105e0611816565b6105f18660005b6020020135611266565b6020840152825260008061060487611266565b6040805160018082528183019092529294509092506060919060208083019080368337019050509050602080820190604089018237508451602080870151604051600080516020611a8e83398151915293610664939092918691016119d1565b6040516020818303038152906040528051906020012060001c6106879190611a2a565b865284518452602085810151858201527f2a3e8437e0e4be1d4975bfba3bd9caa40aebdfcefc70b4fffed67b0f1e6ae4f86040808701919091527f15f7a51d0fe471bb024385408d21788953374a0bdf7f0581379fb7e06e93979e60608701527f23e94e537689ab6316c3afcab5e5e10bd43de2c3bc9de66abc39a6553aace2ff60808701527f01e5b52b7632f5e7395aea166fd4f2c6d40b79ec44429c4272ff892839d8886260a087015260c0860185905260e086018490527f2ec9dd6f2797d99e02c49d649e44da65491f6ed02bb40f9ce6c44c0fb1f01beb6101008701527f2d19679c4cbdb4801ba000e52662a17e59e14089f5cbe83845cfb2f6447213f86101208701527f1c1027a3e6a35996b594d04731b6781df80bc3a3077b863c86cc57ee21d6fb896101408701527f2e54aa0efe29009aa05331ef839d453476ab1feeaf97785771b2ec5c4c29fb7c61016087015251600091816101808860085afa90511690508061080d576040516351d49ff760e11b815260040160405180910390fd5b5050505060008061082a896000600481106105e7576105e76119bb565b9092509050600080808061084660408e013560208f013561130c565b9296509094509250905060008061085e8f60036105e7565b915091506000806108708e8e8e610f20565b8b8d5260208d018b905260408d0189905260608d018a905260808d0187905260a08d0188905260c08d0186905260e08d018590527f25be18c7e65db32e65026f7939c043a98795816f20cbd25527f3addd7e99a1e86101008e01527f09a7a120b3fff2233fe488b5a74827a073df38f3a8afcd46b4e1cfb307d38b436101208e01527f231f0eec110ba84e5b1cba365c8a8a4fa49aa6c653138510e31218db469f6a7a6101408e01527f016112e5559fc0bc857158c89beec310e1e7ce440113469280b8e802ffccf6af6101608e01527f098297c5bade7a1c3589318d19b922cf5c9694c65675fe7eca02dc71f44ce9e76101808e01527f23fd514843f5f9e8374b74c5860e072f733b97259c5c5aac89b11542515406896101a08e01527f30118b3b947f893b116da792eca016daab98441fd7fef5ad42e715b13ca4b63b6101c08e01527f11388ccdd606010c1af80446738972000d44d49f63abcc6134a435ba2bf7ae186101e08e01527f2d4ebb6ab35585fb02d92f4c0464cce8a3e5508ff69eccc8f8abdecfe58e9a6e6102008e01527f1f23aae43ed7aa2286ced8ee37ffac47778a92f617d6e0f87f2a4f280553c0106102208e01526102408d018290526102608d018190527f0a14e4df12803a8926396b0317547adaacdf5873d24b73a66eb32cbf963003166102808e01527f255d27b073e03510f0f60e2573f70c48b9145fc63a29a212cfdb2cd4b3907ecb6102a08e01527f0f33052e900f7df201d8e453e5fea9617ecb28ab7e7cc0d1e775053304869ca76102c08e01527f231a68c9b872133ddac249cff5dfd89c69fdfd8ebeb5d90d0ef418a491d0b0836102e08e015290925090506000610ae56117da565b6020816103008f60085afa9150811580610b0157508051600114155b15610b1f57604051631ff3747d60e21b815260040160405180910390fd5b50505050505050505050505050505050505050565b6000600080516020611a6e83398151915283101580610b615750600080516020611a6e8339815191528210155b15610b7f57604051631ff3747d60e21b815260040160405180910390fd5b82158015610b8b575081155b15610b9857506000610c23565b6000610bd7600080516020611a6e8339815191526003600080516020611a6e83398151915287600080516020611a6e833981519152898a0909086114f2565b9050808303610bec575050600182901b610c23565b610bf581611556565b8303610c08575050600182811b17610c23565b604051631ff3747d60e21b815260040160405180910390fd5b505b92915050565b600080600080516020611a6e83398151915286101580610c575750600080516020611a6e8339815191528510155b80610c705750600080516020611a6e8339815191528410155b80610c895750600080516020611a6e8339815191528310155b15610ca757604051631ff3747d60e21b815260040160405180910390fd5b82848688171717600003610cc057506000905080610f17565b60008080600080516020611a6e833981519152610cec6003600080516020611a6e833981519152611a4c565b600080516020611a6e8339815191528a8c090990506000600080516020611a6e8339815191528a600080516020611a6e8339815191528c8d090990506000600080516020611a6e8339815191528a600080516020611a6e8339815191528c8d09099050600080516020611a6e83398151915280600080516020611a6e8339815191528c860984087f2b149d40ceb8aaae81be18991be06ac3b5b4c5e559dbefa33267e6dc24a138e5089450610de5600080516020611a6e83398151915280600080516020611a6e8339815191528e870984087f2fcd3ac2a640a154eb23960892a85a68f031ca0c8344b23a577dcf1052b9e77508611556565b9350505050600080610e36600080516020611a6e83398151915280610e0c57610e0c611a14565b600080516020611a6e833981519152858609600080516020611a6e833981519152878809086114f2565b9050610e83600080516020611a6e8339815191527f183227397098d014dc2822db40c0ac2ecbc0b548b438e5469e10460b6c3e7ea4600080516020611a6e8339815191528488080961156f565b15915050610e928383836115b9565b90935091508683148015610ea557508186145b15610ecf5780610eb6576000610eb9565b60025b60ff1660028a901b176000179450879350610f13565b610ed883611556565b87148015610eed5750610eea82611556565b86145b15610c085780610efe576000610f01565b60025b60ff1660028a901b1760011794508793505b5050505b94509492505050565b6000806000600190506040516040810160007f0efcbb02dcb894206fb6f9103ed9eb765bdaee5091d7fd3df651676f4e51520583527f0ee9e4c575f31449b4dbb1b7116ee159229801425910b42211651b55ce8d8d0e6020840152865182526020870151602083015260408360808560065afa841693507f23c183e408c00783879ca992d7f41b2969ab368c2a827451b49f126eed65cae282527f176f35be8f39575b511f84fc344ab721377e790a84cc9d309d26234eeac91745602083015288359050806040830152600080516020611a8e83398151915281108416935060408260608460075afa8416935060408360808560065afa841693507f27a060d3b1af615d96861c9cae615ee47fee06f0a1632391be606aa479a0a2c682527f2fdcafa8209e607e31b1d9c082bf02560c335dd93b3109b8a2ab078bd3779b19602083015260208901359050806040830152600080516020611a8e83398151915281108416935060408260608460075afa8416935060408360808560065afa841693507f21e6dc028355026e9b1c6cfb132451514ad4eda3b0f0e24ec1d069e4f139630e82527f1017cead8d13eb9700d00ff0f06e751d298c3747e3642310380c4701334b5c1c602083015260408901359050806040830152600080516020611a8e83398151915281108416935060408260608460075afa8416935060408360808560065afa841693507f1a057e212dac69ecfe26d6615f1ebde2a04d2f7a90c8e22542a6a2720c5c8a5782527f10d0c42fb8d7193c97f0163eebdc12452dde449249ada7ae098717c3f7e0a7ea602083015260608901359050806040830152600080516020611a8e83398151915281108416935060408260608460075afa8416935060408360808560065afa7f24d23b6e46eb4ef3216578a49bc1e24acfbd3e29113da0b840ae88e5796f468483527f300ab73744a9d3613b83347fac026b142fc19adac7e793e928c41621af9d0d6c602084015288516040808501829052600080516020611a8e83398151915290911091909516169390508160608160075afa831692505060408160808360065afa8151602090920151919450909250168061125d5760405163a54f8e2760e01b815260040160405180910390fd5b50935093915050565b6000808260000361127c57506000928392509050565b600183811c925080841614600080516020611a6e83398151915283106112b557604051631ff3747d60e21b815260040160405180910390fd5b6112f2600080516020611a6e8339815191526003600080516020611a6e83398151915286600080516020611a6e83398151915288890909086114f2565b915080156113065761130382611556565b91505b50915091565b60008080808515801561131d575084155b15611333575060009250829150819050806114e9565b600286811c94508593506001808816149080881614600080516020611a6e833981519152861015806113735750600080516020611a6e8339815191528510155b1561139157604051631ff3747d60e21b815260040160405180910390fd5b6000600080516020611a6e8339815191526113bb6003600080516020611a6e833981519152611a4c565b600080516020611a6e833981519152888a090990506000600080516020611a6e83398151915288600080516020611a6e8339815191528a8b090990506000600080516020611a6e83398151915288600080516020611a6e8339815191528a8b09099050600080516020611a6e83398151915280600080516020611a6e8339815191528a860984087f2b149d40ceb8aaae81be18991be06ac3b5b4c5e559dbefa33267e6dc24a138e50896506114b4600080516020611a6e83398151915280600080516020611a6e8339815191528c870984087f2fcd3ac2a640a154eb23960892a85a68f031ca0c8344b23a577dcf1052b9e77508611556565b95506114c18787866115b9565b909750955084156114e3576114d587611556565b96506114e086611556565b95505b50505050505b92959194509250565b600061151e827f0c19139cb84c680a6e14116da060561765e05aa45a1c72a34f082305b61f3f526116f7565b905081600080516020611a6e8339815191528283091461155157604051631ff3747d60e21b815260040160405180910390fd5b919050565b600080516020611a6e8339815191529081900681030690565b60008061159c837f0c19139cb84c680a6e14116da060561765e05aa45a1c72a34f082305b61f3f526116f7565b905082600080516020611a6e833981519152828309149392505050565b600080806115eb600080516020611a6e83398151915280878809600080516020611a6e833981519152898a09086114f2565b905083156115ff576115fc81611556565b90505b61164a600080516020611a6e8339815191527f183227397098d014dc2822db40c0ac2ecbc0b548b438e5469e10460b6c3e7ea4600080516020611a6e833981519152848a08096114f2565b9250600080516020611a6e833981519152611676600080516020611a6e8339815191526002860961175c565b86099150600080516020611a6e8339815191526116a3600080516020611a6e833981519152848509611556565b600080516020611a6e83398151915285860908861415806116d95750600080516020611a6e833981519152808385096002098514155b1561125d57604051631ff3747d60e21b815260040160405180910390fd5b6000806040516020815260208082015260206040820152846060820152836080820152600080516020611a6e83398151915260a082015260208160c08360055afa90519250905080610c2157604051631ff3747d60e21b815260040160405180910390fd5b6000611788827f30644e72e131a029b85045b68181585d97816a916871ca8d3c208c16d87cfd456116f7565b9050600080516020611a6e83398151915281830960011461155157604051631ff3747d60e21b815260040160405180910390fd5b60405180608001604052806004906020820280368337509192915050565b60405180602001604052806001906020820280368337509192915050565b60405180604001604052806002906020820280368337509192915050565b6040518061030001604052806018906020820280368337509192915050565b806101008101831015610c2357600080fd5b8060408101831015610c2357600080fd5b6000806000610180848603121561186e57600080fd5b6118788585611835565b9250611888856101008601611847565b9150611898856101408601611847565b90509250925092565b60c08101818560005b60048110156118c95781518352602092830192909101906001016118aa565b505050608082018460005b60018110156118f35781518352602092830192909101906001016118d4565b5050508260a0830152949350505050565b8060808101831015610c2357600080fd5b600080600080610200858703121561192c57600080fd5b6119368686611835565b9350611946866101008701611847565b9250611956866101408701611847565b9150611966866101808701611904565b905092959194509250565b600080600080610140858703121561198857600080fd5b6119928686611904565b935060a08501868111156119a557600080fd5b6080860193503591506119668660c08701611904565b634e487b7160e01b600052603260045260246000fd5b83815282602082015260006040820183516020850160005b82811015611a075781518452602093840193909101906001016119e9565b5091979650505050505050565b634e487b7160e01b600052601260045260246000fd5b600082611a4757634e487b7160e01b600052601260045260246000fd5b500690565b81810381811115610c2357634e487b7160e01b600052601160045260246000fdfe30644e72e131a029b85045b68181585d97816a916871ca8d3c208c16d87cfd4730644e72e131a029b85045b68181585d2833e84879b9709143e1f593f0000001a26469706673582212203ff0d06914304bbd15a13a53efc0032401bafacb447337c452913a6ffb73782e64736f6c634300081c0033",
  "linkReferences": {},
  "deployedLinkReferences": {}
}