{
  "_format": "hh-sol-artifact-1",
  "contractName": "Verifier",
  "sourceName": "src/verifiers/statetransition_vkey.sol",
  "abi": [
    {
      "inputs": [],
      "name": "CommitmentInvalid",
      "type": "error"
    },
    {
      "inputs": [],
      "name": "ProofInvalid",
      "type": "error"
    },
    {
      "inputs": [],
      "name": "PublicInputNotInField",
      "type": "error"
    },
    {
      "inputs": [
        {
          "internalType": "uint256[8]",
          "name": "proof",
          "type": "uint256[8]"
        },
        {
          "internalType": "uint256[2]",
          "name": "commitments",
          "type": "uint256[2]"
        },
        {
          "internalType": "uint256[2]",
          "name": "commitmentPok",
          "type": "uint256[2]"
        }
      ],
      "name": "compressProof",
      "outputs": [
        {
          "internalType": "uint256[4]",
          "name": "compressed",
          "type": "uint256[4]"
        },
        {
          "internalType": "uint256[1]",
          "name": "compressedCommitments",
          "type": "uint256[1]"
        },
        {
          "internalType": "uint256",
          "name": "compressedCommitmentPok",
          "type": "uint256"
        }
      ],
      "stateMutability": "view",
      "type": "function"
    },
    {
      "inputs": [
        {
          "internalType": "uint256[4]",
          "name": "compressedProof",
          "type": "uint256[4]"
        },
        {
          "internalType": "uint256[1]",
          "name": "compressedCommitments",
          "type": "uint256[1]"
        },
        {
          "internalType": "uint256",
          "name": "compressedCommitmentPok",
          "type": "uint256"
        },
        {
          "internalType": "uint256[8]",
          "name": "input",
          "type": "uint256[8]"
        }
      ],
      "name": "verifyCompressedProof",
      "outputs": [],
      "stateMutability": "view",
      "type": "function"
    },
    {
      "inputs": [
        {
          "internalType": "uint256[8]",
          "name": "proof",
          "type": "uint256[8]"
        },
        {
          "internalType": "uint256[2]",
          "name": "commitments",
          "type": "uint256[2]"
        },
        {
          "internalType": "uint256[2]",
          "name": "commitmentPok",
          "type": "uint256[2]"
        },
        {
          "internalType": "uint256[8]",
          "name": "input",
          "type": "uint256[8]"
        }
      ],
      "name": "verifyProof",
      "outputs": [],
      "stateMutability": "view",
      "type": "function"
    }
  ],
  "bytecode": "0x60808060405234601557611ae4908161001a8239f35b5f80fdfe60806040526004361015610011575f80fd5b5f3560e01c80639ed57f3214610b24578063b1c3a00e14610a135763e2dd9f471461003a575f80fd5b34610a0f576101c0366003190112610a0f5736608411610a0f573660a411610a0f57366101c411610a0f57604051602061007481836113a6565b80368337604080519061008781836113a6565b803683376103009381519261009c86856113a6565b853685376100ab6084356116eb565b8683015281526100bc60a4356116eb565b905f516020611a8f5f395f51905f5285516100d787826113a6565b6001815288610104818301601f198a01368237378451906101168a61010881890151938b51948593840196876113dc565b03601f1981018352826113a6565b5190200684528251865286830151878701527f23bc8cb504097d202ea09bd2aea624a719cc6e79fe90af6bc3fd4c0a1e9ab097858701527f0b02b98059c257fd1326f4c5b365493f9b775c20384134478e71ada4de007f6660608701527f23d9577dd9f5f4343bf1da54ce8d420b3f5c1f9d95af443d20302af62cd6c6ec60808701527f260164cea76f55be101d7b3f7cb403b8aa6fc20d6d7506d4990165ee76b96df060a087015260c086015260e08501527f0e93ef81472c729d657f37d2622ee71507c4f1fcc8b6e601c72c81df5a51d8616101008501527f1391a145991e05ce2e6ce102bc38b7b74f37911fdf8127325c0be3c82182f2af6101208501527f19ef0345ed7a9ea008dd3618bc94cd101058a697d0d546839429fde4dbb95cf56101408501527f07ca05fa460e47b2fba64bd20ba39af9d41994b9e8246b973e32221c9843c397610160850152825185816101808760085afa90511615610a005784906102866004356116eb565b610297602495929535604435611756565b92919093896102a76064356116eb565b9890977f087b036a7f03189723cb43a31657b173919f7bca7ced1b8d3b099a07fa99753783519b8c937f2ca6f83f92103ef3be5753400762b410492bbf32c73d47a769b67a858fb71e1685527f1c1f91365773138d69a9a9676e18f718b309070646ebc822cb086e81641839fe828601528051868601520151606084019081527f0765f71ed717e7c84a3ecc1779dd49751ad519b175bc4b6b2b905c6f825d3844858560808160065afa957f1ed5bd276b3b65f6c9e33552e2292b540aa2abdd123c3105ec40b33822ccfce4818701527f1abe536aad1fb09c88ac395c5c7f63c02d0522633cee4572d010e0bb36c249e58352600160c4356080880198818a525f516020611a8f5f395f51905f5284808b016060828d0160075afa92101616828860808160065afa16167f041b6b341c076caed6070df003012290f33e79bb2bc9640254c56993eb9867d1828801527f1e479315c30f1f95363dd1c23bdc3e5782c01cfb3224fc188c540e0378959733845260e435908189525f516020611a8f5f395f51905f5283808a016060828c0160075afa92101616818760808160065afa167f25dd26450fe3d09967cbfa355902cc3f52a221ea271b4e750410a5c839192c63828801527f2241acf0fd1ddae41332af2d70506d1d32bca5c9e3dc7fe66134b3f32cb495dd845261010435908189525f516020611a8f5f395f51905f5283808a016060828c0160075afa92101616818760808160065afa167f1116f93d35b6aa4d4792e8610cc13e7a73d1bb8dcdef2fb06e21ed260cadcc5f828801527f10e21474a1b55ff643a2d70bed556b06913a730071453fb6fdb1fdef4bfdee3f845261012435908189525f516020611a8f5f395f51905f5283808a016060828c0160075afa92101616818760808160065afa167f2baeaa61d471c2efe1d424a318d8436e6b5f68b7c2604021f7ef2ad371e5d302828801527f1c76a41e28f484297f7f54fede7f63b160b410a0e5916350814c15e3f312d0e4845261014435908189525f516020611a8f5f395f51905f5283808a016060828c0160075afa92101616818760808160065afa167f25722c1f753e11b11dde6d0a490ddd861462705e43790f416479f17596ba7781828801527f047a9a5103655c5e34eb224ccbdb30726a2d039720a06bf7f0ac747e53928d50845261016435908189525f516020611a8f5f395f51905f5283808a016060828c0160075afa92101616818760808160065afa167f1dd21c8fcd708b68c8a5133a22f3114f433cf29387dab359e15d566901061efc828801527f2e4f767ab8aac95b402eeda7bb5765ad3c9da740a751e06e766da4a605b03685845261018435908189525f516020611a8f5f395f51905f5283808a016060828c0160075afa92101616818760808160065afa167f0912a7ff0651bf2d909142d578ccc33658ec17ae0d79591365775d96624733e1828801527f2fd6c51d28ac58048562463c92c252573077b99ae1596e7f2ebf08967a40cbbd84526101a435908189525f516020611a8f5f395f51905f5283808a016060828c0160075afa92101616818760808160065afa1695015252518092525f516020611a8f5f395f51905f528c8b606082808301920160075afa921016168a8960808160065afa16988c895199015199156109f1578b528b8b0152888a01526060890152608088015260a087015260c086015260e08501527f133a51dc7be45819ad2923bddc35f3a2cd3395b96f9757fbb5ef2650ca89de9a6101008501527f0c3ebde9200619ea42dfbde8c913350fb13fdda8cf8661fa8adf21d0af37d1eb6101208501527f0b3f50033b1192ce517458a61be1f9260ec95afe217a40b5255faddc9a2d4d1c6101408501527f22cce4c296240cbc6fe0ad489785cac469f006d9a0ecee54ceec3a4f14ababe76101608501527f1e94c07cb6c18a449303600aaae159a571d5622abe719675ae3155f0887eafdc6101808501527f16608401fe677162d0f8d4652f1c8d145921cca6d7c223e24ea3f7a962133bc46101a08501527f1af5cede47639ab4070a00d25717a6273cfe55b8b83acf5128fa488b3d61df766101c08501527f12d429ffdcd3d15faacf972a9c465dbbaddbca2ba99cc57e49904ad0f66a738f6101e08501527f1e39a1df85fcff7c76404ea857e874c8f97a8aaf62c023c021711862724a44f46102008501527f2f53ddaaf2aee22e360cd67c67b219ea13a6babef67913ae74b67b87400d5cf46102208501526102408401526102608301527f286a4baaa7c158e33391947f662299438d932546a192479f4f648b559a4a82b36102808301527f1b1195288a0b36ff9fb17d409bf69f5345c3a6bc1506480810adaf39e3bf47066102a08301527f2ad640cc38d797495b0fd71f40dfeac4a918eba43bfeee46c7aba78154fe50166102c08301527f2e69de7b0ce84c88de55dbb171348d4a1cb0d40e4c4eaddd17b44001a51f141b6102e0830152519283916109bd84846113a6565b8336843760085afa159081156109e4575b506109d557005b631ff3747d60e21b5f5260045ffd5b600191505114155f6109ce565b63a54f8e2760e01b5f5260045ffd5b6351d49ff760e11b5f5260045ffd5b5f80fd5b34610a0f57610180366003190112610a0f573661010411610a0f573661014411610a0f573661018411610a0f57604051610a4e6080826113a6565b6080368237604051906020610a6381846113a6565b80368437610a75602435600435611416565b8252610a8b60843560a4356044356064356114b7565b828401526040830152610aa260e43560c435611416565b6060830152610ab76101243561010435611416565b8352610ac96101643561014435611416565b9060405192835f905b60048210610b0e575050506080830193905f945b60018610610af95760c0858560a0820152f35b81806001928551815201930195019491610ae6565b8251815291830191600191909101908301610ad2565b34610a0f57610280366003190112610a0f573661010411610a0f573661014411610a0f573661018411610a0f573661028411610a0f576040516020610b6981836113a6565b803683376040915f516020611a8f5f395f51905f528351610b8a85826113a6565b60018152836101c4818301601f198801368237378451610bb981610108878201946101243561010435876113dc565b51902006815282518361010482377f23bc8cb504097d202ea09bd2aea624a719cc6e79fe90af6bc3fd4c0a1e9ab097848201527f0b02b98059c257fd1326f4c5b365493f9b775c20384134478e71ada4de007f6660608201527f23d9577dd9f5f4343bf1da54ce8d420b3f5c1f9d95af443d20302af62cd6c6ec60808201527f260164cea76f55be101d7b3f7cb403b8aa6fc20d6d7506d4990165ee76b96df060a08201528361014460c08301377f0e93ef81472c729d657f37d2622ee71507c4f1fcc8b6e601c72c81df5a51d8616101008201527f1391a145991e05ce2e6ce102bc38b7b74f37911fdf8127325c0be3c82182f2af6101208201527f19ef0345ed7a9ea008dd3618bc94cd101058a697d0d546839429fde4dbb95cf56101408201527f07ca05fa460e47b2fba64bd20ba39af9d41994b9e8246b973e32221c9843c39761016082015282816101808160085afa90511615610a0057825192610d2281856113a6565b61010483855b6101448310611396575050508051918183017f2ca6f83f92103ef3be5753400762b410492bbf32c73d47a769b67a858fb71e1684525f516020611a8f5f395f51905f528386808701987f1c1f91365773138d69a9a9676e18f718b309070646ebc822cb086e81641839fe8a528051855201519260608701938452818760808160065afa947f1ed5bd276b3b65f6c9e33552e2292b540aa2abdd123c3105ec40b33822ccfce482527f1abe536aad1fb09c88ac395c5c7f63c02d0522633cee4572d010e0bb36c249e585527f087b036a7f03189723cb43a31657b173919f7bca7ced1b8d3b099a07fa99753760016101843560808b0198818a5287878760608160075afa92101616858b60808160065afa16167f041b6b341c076caed6070df003012290f33e79bb2bc9640254c56993eb9867d184527f1e479315c30f1f95363dd1c23bdc3e5782c01cfb3224fc188c540e037895973387526101a4359081895286868660608160075afa92101616848a60808160065afa167f25dd26450fe3d09967cbfa355902cc3f52a221ea271b4e750410a5c839192c6384527f2241acf0fd1ddae41332af2d70506d1d32bca5c9e3dc7fe66134b3f32cb495dd87526101c4359081895286868660608160075afa92101616848a60808160065afa167f1116f93d35b6aa4d4792e8610cc13e7a73d1bb8dcdef2fb06e21ed260cadcc5f84527f10e21474a1b55ff643a2d70bed556b06913a730071453fb6fdb1fdef4bfdee3f87526101e4359081895286868660608160075afa92101616848a60808160065afa167f2baeaa61d471c2efe1d424a318d8436e6b5f68b7c2604021f7ef2ad371e5d30284527f1c76a41e28f484297f7f54fede7f63b160b410a0e5916350814c15e3f312d0e48752610204359081895286868660608160075afa92101616848a60808160065afa167f25722c1f753e11b11dde6d0a490ddd861462705e43790f416479f17596ba778184527f047a9a5103655c5e34eb224ccbdb30726a2d039720a06bf7f0ac747e53928d508752610224359081895286868660608160075afa92101616848a60808160065afa167f1dd21c8fcd708b68c8a5133a22f3114f433cf29387dab359e15d566901061efc84527f2e4f767ab8aac95b402eeda7bb5765ad3c9da740a751e06e766da4a605b036858752610244359081895286868660608160075afa92101616848a60808160065afa167f0912a7ff0651bf2d909142d578ccc33658ec17ae0d79591365775d96624733e184527f2fd6c51d28ac58048562463c92c252573077b99ae1596e7f2ebf08967a40cbbd8752610264359081895286868660608160075afa92101616848a60808160065afa16957f0765f71ed717e7c84a3ecc1779dd49751ad519b175bc4b6b2b905c6f825d38448452525180955260608160075afa92101616818360808160065afa169151935191156109f1575192610100600485377f133a51dc7be45819ad2923bddc35f3a2cd3395b96f9757fbb5ef2650ca89de9a6101008501527f0c3ebde9200619ea42dfbde8c913350fb13fdda8cf8661fa8adf21d0af37d1eb6101208501527f0b3f50033b1192ce517458a61be1f9260ec95afe217a40b5255faddc9a2d4d1c6101408501527f22cce4c296240cbc6fe0ad489785cac469f006d9a0ecee54ceec3a4f14ababe76101608501527f1e94c07cb6c18a449303600aaae159a571d5622abe719675ae3155f0887eafdc6101808501527f16608401fe677162d0f8d4652f1c8d145921cca6d7c223e24ea3f7a962133bc46101a08501527f1af5cede47639ab4070a00d25717a6273cfe55b8b83acf5128fa488b3d61df766101c08501527f12d429ffdcd3d15faacf972a9c465dbbaddbca2ba99cc57e49904ad0f66a738f6101e08501527f1e39a1df85fcff7c76404ea857e874c8f97a8aaf62c023c021711862724a44f46102008501527f2f53ddaaf2aee22e360cd67c67b219ea13a6babef67913ae74b67b87400d5cf46102208501526102408401526102608301527f286a4baaa7c158e33391947f662299438d932546a192479f4f648b559a4a82b36102808301527f1b1195288a0b36ff9fb17d409bf69f5345c3a6bc1506480810adaf39e3bf47066102a08301527f2ad640cc38d797495b0fd71f40dfeac4a918eba43bfeee46c7aba78154fe50166102c08301527f2e69de7b0ce84c88de55dbb171348d4a1cb0d40e4c4eaddd17b44001a51f141b6102e0830152816103008160085afa905116156109d557005b8235815291810191859101610d28565b90601f8019910116810190811067ffffffffffffffff8211176113c857604052565b634e487b7160e01b5f52604160045260245ffd5b9091604092825260208201520160208251919201905f5b8181106114005750505090565b82518452602093840193909201916001016113f3565b905f516020611a6f5f395f51905f5282108015906114a0575b6109d557811580611498575b6114925761145f5f516020611a6f5f395f51905f526003818581818009090861188f565b81810361146e57505060011b90565b5f516020611a6f5f395f51905f52809106810306145f146109d557600190811b1790565b50505f90565b50801561143b565b505f516020611a6f5f395f51905f5281101561142f565b919093925f516020611a6f5f395f51905f5283108015906116d4575b80156116bd575b80156116a6575b6109d557808286851717171561169b579082916115fe5f516020611a6f5f395f51905f5280808080888180808f9d7f30644e72e131a029b85045b68181585d97816a916871ca8d3c208c16d87cfd448f839290839109099d8e0981848181800909087f2b149d40ceb8aaae81be18991be06ac3b5b4c5e559dbefa33267e6dc24a138e5089a09818c8181800909087f2fcd3ac2a640a154eb23960892a85a68f031ca0c8344b23a577dcf1052b9e7750806810306945f516020611a6f5f395f51905f527f183227397098d014dc2822db40c0ac2ecbc0b548b438e5469e10460b6c3e7ea4816115d881808b8009818780090861188f565b8408095f516020611a6f5f395f51905f526115f282611a06565b800914159586916118b2565b929080821480611692575b156116305750505050905f146116285760ff60025b169060021b179190565b60ff5f61161e565b5f516020611a6f5f395f51905f52809106810306149182611673575b5050156109d5576001911561166b5760ff60025b169060021b17179190565b60ff5f611660565b5f516020611a6f5f395f51905f52919250819006810306145f8061164c565b50838314611609565b50505090505f905f90565b505f516020611a6f5f395f51905f528110156114e1565b505f516020611a6f5f395f51905f528210156114da565b505f516020611a6f5f395f51905f528510156114d3565b801561174f578060011c915f516020611a6f5f395f51905f528310156109d55760018061172e5f516020611a6f5f395f51905f526003818881818009090861188f565b93161461173757565b905f516020611a6f5f395f51905f5280910681030690565b505f905f90565b801580611887575b61187b578060021c92825f516020611a6f5f395f51905f528510801590611864575b6109d55784815f516020611a6f5f395f51905f5280808080808080807f30644e72e131a029b85045b68181585d97816a916871ca8d3c208c16d87cfd448161182e9d8d0909998a0981898181800909087f2fcd3ac2a640a154eb23960892a85a68f031ca0c8344b23a577dcf1052b9e7750806810306936002808a16149509818a8181800909087f2b149d40ceb8aaae81be18991be06ac3b5b4c5e559dbefa33267e6dc24a138e5086118b2565b80929160018082961614611840575050565b5f516020611a6f5f395f51905f528093945080929550809106810306930681030690565b505f516020611a6f5f395f51905f52811015611780565b50505f905f905f905f90565b50811561175e565b9061189982611a06565b915f516020611a6f5f395f51905f52838009036109d557565b915f516020611a6f5f395f51905f527f183227397098d014dc2822db40c0ac2ecbc0b548b438e5469e10460b6c3e7ea48161190a939694966118fc82808a8009818a80090861188f565b906119fa575b86080961188f565b925f516020611a6f5f395f51905f52600285096040519060208252602080830152602060408301528060608301527f30644e72e131a029b85045b68181585d97816a916871ca8d3c208c16d87cfd4560808301525f516020611a6f5f395f51905f5260a083015260208260c08160055afa915191156109d5575f516020611a6f5f395f51905f528260019209036109d5575f516020611a6f5f395f51905f52908209925f516020611a6f5f395f51905f5280808087800906810306818780090814908115916119db575b506109d557565b90505f516020611a6f5f395f51905f528084860960020914155f6119d4565b81809106810306611902565b9060405191602083526020808401526020604084015260608301527f0c19139cb84c680a6e14116da060561765e05aa45a1c72a34f082305b61f3f5260808301525f516020611a6f5f395f51905f5260a083015260208260c08160055afa915191156109d55756fe30644e72e131a029b85045b68181585d97816a916871ca8d3c208c16d87cfd4730644e72e131a029b85045b68181585d2833e84879b9709143e1f593f0000001a2646970667358221220c25d24f90461147f3cfa7ee20519f6803b046e8651fff117fa50b3ec05a20ca264736f6c634300081c0033",
  "linkReferences": {},
  "deployedLinkReferences": {}
}