{
  "_format": "hh-sol-artifact-1",
  "contractName": "ResultsVerifierBaseGroth16",
  "sourceName": "src/verifiers/ResultsVerifierBaseGroth16.sol",
  "abi": [
    {
      "inputs": [],
      "name": "CommitmentInvalid",
      "type": "error"
    },
    {
      "inputs": [],
      "name": "ProofInvalid",
      "type": "error"
    },
    {
      "inputs": [],
      "name": "PublicInputNotInField",
      "type": "error"
    },
    {
      "inputs": [
        {
          "internalType": "uint256[8]",
          "name": "proof",
          "type": "uint256[8]"
        },
        {
          "internalType": "uint256[2]",
          "name": "commitments",
          "type": "uint256[2]"
        },
        {
          "internalType": "uint256[2]",
          "name": "commitmentPok",
          "type": "uint256[2]"
        }
      ],
      "name": "compressProof",
      "outputs": [
        {
          "internalType": "uint256[4]",
          "name": "compressed",
          "type": "uint256[4]"
        },
        {
          "internalType": "uint256[1]",
          "name": "compressedCommitments",
          "type": "uint256[1]"
        },
        {
          "internalType": "uint256",
          "name": "compressedCommitmentPok",
          "type": "uint256"
        }
      ],
      "stateMutability": "view",
      "type": "function"
    },
    {
      "inputs": [
        {
          "internalType": "uint256[4]",
          "name": "compressedProof",
          "type": "uint256[4]"
        },
        {
          "internalType": "uint256[1]",
          "name": "compressedCommitments",
          "type": "uint256[1]"
        },
        {
          "internalType": "uint256",
          "name": "compressedCommitmentPok",
          "type": "uint256"
        },
        {
          "internalType": "uint256[9]",
          "name": "input",
          "type": "uint256[9]"
        }
      ],
      "name": "verifyCompressedProof",
      "outputs": [],
      "stateMutability": "view",
      "type": "function"
    },
    {
      "inputs": [
        {
          "internalType": "uint256[8]",
          "name": "proof",
          "type": "uint256[8]"
        },
        {
          "internalType": "uint256[2]",
          "name": "commitments",
          "type": "uint256[2]"
        },
        {
          "internalType": "uint256[2]",
          "name": "commitmentPok",
          "type": "uint256[2]"
        },
        {
          "internalType": "uint256[9]",
          "name": "input",
          "type": "uint256[9]"
        }
      ],
      "name": "verifyProof",
      "outputs": [],
      "stateMutability": "view",
      "type": "function"
    }
  ],
  "bytecode": "0x6080604052348015600e575f5ffd5b50611ca58061001c5f395ff3fe608060405234801561000f575f5ffd5b506004361061003f575f3560e01c80635d26278e1461004357806360e5834614610058578063b1c3a00e1461006b575b5f5ffd5b610056610051366004611a1d565b610096565b005b610056610066366004611a93565b6105ca565b61007e610079366004611ae1565b610a3f565b60405161008d93929190611b27565b60405180910390f35b61009e611993565b6100a66119b1565b6100ae6119cf565b6100be865f5b6020020135610ac7565b602084015282525f806100d087610ac7565b85516020808801516040519496509294506060935f516020611c505f395f51905f529361010293929091869101611b9c565b604051602081830303815290604052805190602001205f1c6101249190611bf1565b865284518452602085810151858201527f211ff8deef47f7b18d590dd969d97f709265380a5136b34c64786345315dad396040808701919091527f01d7cd45b719f87eac10057f7379e440c0922a3412dcd32b0436473b89d7427b60608701527f255c8bc9e8345c3f8bcd6147c1388bb6501356fa2fe469a5007893932eab8e2f60808701527f22f94df65e194c5d6cf757479bf9687ac7fdb14032a33698b560c0f46069c54260a087015260c0860185905260e086018490527f1528fff24569cfc678cdd789ffd3343abc0851d686eb1cabcf3ba8cf49302d8e6101008701527f1b2b35e890c913bebb27da895d90dbaafa7616b5760ea1ce806986ea63100a9b6101208701527f162884dfbd7bde08ec1cf8d7d4e0da738cd41f9f6a620bb2bb3ada5df8afd9476101408701527f250522662efe74de1d604758bb845b99aa66ac6c9994d1504fcb9395948be240610160870152515f91816101808860085afa9051169050806102a9576040516351d49ff760e11b815260040160405180910390fd5b505050505f5f6102c4895f600481106100b4576100b4611b88565b90925090505f8080806102df60408e013560208f0135610b66565b929650909450925090505f806102f68f60036100b4565b915091505f5f6103078e8e8e610d3a565b8b8d5260208d018b905260408d0189905260608d018a905260808d0187905260a08d0188905260c08d0186905260e08d018590527f0eecb24262085e99b65419c1e4c888485cdb32473ee326239801cf4a8d1cf82c6101008e01527f2fa7d3d83dee8df972c3c21c69868c17a2cd314203c3db109385dd73693beab26101208e01527f1a4147ac39bd611466970f800e77797debe0990351ea3395a6d5eb28c30c912b6101408e01527f04982e9840950baf216ba05708d714af87f4aa9a5bf33126f7ba3570cab2222d6101608e01527f12a5c897f9f5dee909cde749656755075a9880041a10b8af5161697c7cf598076101808e01527f23e939072bce0953d0a50a897be1e341c9fc11cee4435aaafe5ad2571649e4446101a08e01527f0550475659d3772c0fd0b85a86c87a539f4c78a66bc3fd827be8f19078be2ea86101c08e01527f0b4a92742eda6296ba6cda1a3529374e1f41e358870521d88102c5b576d98b0c6101e08e01527f01bbc7c5f7c9c54bdefcefef695e2a8b4cb5bb44b5816421bb9947147b02f2ae6102008e01527f0d56275f7d98b9bb74077a740411de015a2d25da12818a30a8458860ec4c76c66102208e01526102408d018290526102608d018190527f050524ce5edabd2591ef58d16912159eab09717a4250ff2635e111165bd987da6102808e01527f186708bb623130cc1a0c236783120e1eb0d880ede43eaf0a60536af1f88ed7c66102a08e01527f2d31be59daae8edfb1f6eda8d869cfb619b6dfd22c5b0fcc238d955627bdc1016102c08e01527f11a1cfe83c57807915a9a0d0096f70404c9570295dbbf1aaef8a395b761ae53b6102e08e015290925090505f61057b611993565b6020816103008f60085afa915081158061059757508051600114155b156105b557604051631ff3747d60e21b815260040160405180910390fd5b50505050505050505050505050505050505050565b6105d2611993565b6040516060905f516020611c505f395f51905f52906105fd908735906020808a013591869101611b9c565b604051602081830303815290604052805190602001205f1c61061f9190611bf1565b8252604080515f918782377f211ff8deef47f7b18d590dd969d97f709265380a5136b34c64786345315dad3960408201527f01d7cd45b719f87eac10057f7379e440c0922a3412dcd32b0436473b89d7427b60608201527f255c8bc9e8345c3f8bcd6147c1388bb6501356fa2fe469a5007893932eab8e2f60808201527f22f94df65e194c5d6cf757479bf9687ac7fdb14032a33698b560c0f46069c54260a082015260408660c08301377f1528fff24569cfc678cdd789ffd3343abc0851d686eb1cabcf3ba8cf49302d8e6101008201527f1b2b35e890c913bebb27da895d90dbaafa7616b5760ea1ce806986ea63100a9b6101208201527f162884dfbd7bde08ec1cf8d7d4e0da738cd41f9f6a620bb2bb3ada5df8afd9476101408201527f250522662efe74de1d604758bb845b99aa66ac6c9994d1504fcb9395948be2406101608201526020816101808360085afa905116905080610794576040516351d49ff760e11b815260040160405180910390fd5b5f5f6107c986868a60028060200260405190810160405280929190826002602002808284375f92019190915250610d3a915050565b915091506040516101008a82377f0eecb24262085e99b65419c1e4c888485cdb32473ee326239801cf4a8d1cf82c6101008201527f2fa7d3d83dee8df972c3c21c69868c17a2cd314203c3db109385dd73693beab26101208201527f1a4147ac39bd611466970f800e77797debe0990351ea3395a6d5eb28c30c912b6101408201527f04982e9840950baf216ba05708d714af87f4aa9a5bf33126f7ba3570cab2222d6101608201527f12a5c897f9f5dee909cde749656755075a9880041a10b8af5161697c7cf598076101808201527f23e939072bce0953d0a50a897be1e341c9fc11cee4435aaafe5ad2571649e4446101a08201527f0550475659d3772c0fd0b85a86c87a539f4c78a66bc3fd827be8f19078be2ea86101c08201527f0b4a92742eda6296ba6cda1a3529374e1f41e358870521d88102c5b576d98b0c6101e08201527f01bbc7c5f7c9c54bdefcefef695e2a8b4cb5bb44b5816421bb9947147b02f2ae6102008201527f0d56275f7d98b9bb74077a740411de015a2d25da12818a30a8458860ec4c76c661022082015282610240820152816102608201527f050524ce5edabd2591ef58d16912159eab09717a4250ff2635e111165bd987da6102808201527f186708bb623130cc1a0c236783120e1eb0d880ede43eaf0a60536af1f88ed7c66102a08201527f2d31be59daae8edfb1f6eda8d869cfb619b6dfd22c5b0fcc238d955627bdc1016102c08201527f11a1cfe83c57807915a9a0d0096f70404c9570295dbbf1aaef8a395b761ae53b6102e08201526020816103008360085afa905116925082610a3457604051631ff3747d60e21b815260040160405180910390fd5b505050505050505050565b610a476119ee565b610a4f611993565b5f610a6386358760015b6020020135611317565b8352610a816060870135604088013560a089013560808a0135611404565b60208501526040840152610a9b60c0870135876007610a59565b6060840152610aad8535866001610a59565b8252610abc8435856001610a59565b905093509350939050565b5f5f825f03610ada57505f928392509050565b600183811c9250808416145f516020611c305f395f51905f528310610b1257604051631ff3747d60e21b815260040160405180910390fd5b610b4c5f516020611c305f395f51905f5260035f516020611c305f395f51905f52865f516020611c305f395f51905f5288890909086116dd565b91508015610b6057610b5d8261173f565b91505b50915091565b5f80808085158015610b76575084155b15610b8b57505f925082915081905080610d31565b600286811c945085935060018088161490808816145f516020611c305f395f51905f5286101580610bc957505f516020611c305f395f51905f528510155b15610be757604051631ff3747d60e21b815260040160405180910390fd5b5f5f516020611c305f395f51905f52610c0e60035f516020611c305f395f51905f52611c10565b5f516020611c305f395f51905f52888a090990505f5f516020611c305f395f51905f52885f516020611c305f395f51905f528a8b090990505f5f516020611c305f395f51905f52885f516020611c305f395f51905f528a8b090990505f516020611c305f395f51905f52805f516020611c305f395f51905f528a860984087f2b149d40ceb8aaae81be18991be06ac3b5b4c5e559dbefa33267e6dc24a138e5089650610cfc5f516020611c305f395f51905f52805f516020611c305f395f51905f528c870984087f2fcd3ac2a640a154eb23960892a85a68f031ca0c8344b23a577dcf1052b9e7750861173f565b9550610d09878786611757565b90975095508415610d2b57610d1d8761173f565b9650610d288661173f565b95505b50505050505b92959194509250565b5f5f5f60019050604051604081015f7f2ab09cb8fcafaef59e50b0487088a446dfda57456d3b134a3bb1df23ba44a12783527f268ca9d3a982ad31d5268ff85c2389c6e2f54be4e5e9b00f3a50d26c5e053d066020840152865182526020870151602083015260408360808560065afa841693507f0f726db784c78e7eda4ff06971518e8904c5340da6c9c77d160444396b1dd6e982527f127826b1655b7244f1d557c7c730bd35209f06199e7e4d2e06d201e881c23e856020830152883590508060408301525f516020611c505f395f51905f5281108416935060408260608460075afa8416935060408360808560065afa841693507f04b17dd1b884ae058be704ab843ba5db17a0c5fded35662968e873418aa7590182527f21d1e7b9d70f092be75cf4a6a27e419752068a521651b8d5878c3966b3ffdfe36020830152602089013590508060408301525f516020611c505f395f51905f5281108416935060408260608460075afa8416935060408360808560065afa841693507f0eeba1f9b315fc53ef73951702fd8a9328dbfe23439615bdee5e4c2d3afd5c8682527f248a679c8ec7dca891caaa80b5f41d4fb870cda19d966d834460379a089d89226020830152604089013590508060408301525f516020611c505f395f51905f5281108416935060408260608460075afa8416935060408360808560065afa841693507f1a1de355c62aae496d3fe952eae71d7128cd7ed9c05a0ca506be8aea4897363c82527f29bffdc8e90bdb5e9de4d51797adeddb5af00efadcc972d346321357221435646020830152606089013590508060408301525f516020611c505f395f51905f5281108416935060408260608460075afa8416935060408360808560065afa841693507f2db53fce60a452d7b4f81911b7020fa98976093efd43bfb632ef4bb00a21f86f82527f1d714d0dc7aaf7d4255e8d8416c8e27408cd59ebf86da5e5bc8d5d9a175d8e1f6020830152608089013590508060408301525f516020611c505f395f51905f5281108416935060408260608460075afa8416935060408360808560065afa841693507f127bcd3af7cc5896cd037055304b7bf57586e84ecc5980ae7d08cc6c475f0efa82527f26658108abe86c769c96f893ef434b35d46135414d716f6dee6cdeae5af23f93602083015260a089013590508060408301525f516020611c505f395f51905f5281108416935060408260608460075afa8416935060408360808560065afa841693507f0810138e75477bc1293dc9639554b49468043be373b9e55cbcc772794ffbd4cb82527f2dc12f0cdf894a5d58db4759ba23d19c93215813ff66e4f138c138403c0c376c602083015260c089013590508060408301525f516020611c505f395f51905f5281108416935060408260608460075afa8416935060408360808560065afa841693507f160535c9c9e1e940b0cebf35b59a26d3e050d092ba97b42badec196d88ba348882527f165d0287373b95a6480f7892bc8bcc085e336bd8af7475c9fdbc6ab535a83f73602083015260e089013590508060408301525f516020611c505f395f51905f5281108416935060408260608460075afa8416935060408360808560065afa841693507f04892e6e3f399ea317ab6bdf0de51e5f40e5de077448a1724b35ca570f00fd5882527f2bd3016fdfdca7a7be9035d82161411655ab2fe991ede89fdf5813635fe791bf602083015261010089013590508060408301525f516020611c505f395f51905f5281108416935060408260608460075afa8416935060408360808560065afa7f1b2351311fc2549a893f2c2fa3d5b49d8b4b12a93f798e9e59751f9450a3cb5883527f1f7b68348a2c73f6570b4fb594b75e42fd29fa4b723e93b2d166cbaf3f832d936020840152885160408085018290525f516020611c505f395f51905f5290911091909516169390508160608160075afa831692505060408160808360065afa8151602090920151919450909250168061130e5760405163a54f8e2760e01b815260040160405180910390fd5b50935093915050565b5f5f516020611c305f395f51905f528310158061134157505f516020611c305f395f51905f528210155b1561135f57604051631ff3747d60e21b815260040160405180910390fd5b8215801561136b575081155b1561137757505f6113fe565b5f6113b25f516020611c305f395f51905f5260035f516020611c305f395f51905f52875f516020611c305f395f51905f52898a0909086116dd565b90508083036113c7575050600182901b6113fe565b6113d08161173f565b83036113e3575050600182811b176113fe565b604051631ff3747d60e21b815260040160405180910390fd5b505b92915050565b5f5f5f516020611c305f395f51905f528610158061142f57505f516020611c305f395f51905f528510155b8061144757505f516020611c305f395f51905f528410155b8061145f57505f516020611c305f395f51905f528310155b1561147d57604051631ff3747d60e21b815260040160405180910390fd5b828486881717175f0361149457505f9050806116d4565b5f80805f516020611c305f395f51905f526114bd60035f516020611c305f395f51905f52611c10565b5f516020611c305f395f51905f528a8c090990505f5f516020611c305f395f51905f528a5f516020611c305f395f51905f528c8d090990505f5f516020611c305f395f51905f528a5f516020611c305f395f51905f528c8d090990505f516020611c305f395f51905f52805f516020611c305f395f51905f528c860984087f2b149d40ceb8aaae81be18991be06ac3b5b4c5e559dbefa33267e6dc24a138e50894506115ab5f516020611c305f395f51905f52805f516020611c305f395f51905f528e870984087f2fcd3ac2a640a154eb23960892a85a68f031ca0c8344b23a577dcf1052b9e7750861173f565b93505050505f5f6115f85f516020611c305f395f51905f52806115d0576115d0611bdd565b5f516020611c305f395f51905f528586095f516020611c305f395f51905f52878809086116dd565b90506116435f516020611c305f395f51905f527f183227397098d014dc2822db40c0ac2ecbc0b548b438e5469e10460b6c3e7ea45f516020611c305f395f51905f528488080961188a565b15915050611652838383611757565b9093509150868314801561166557508186145b1561168d5780611675575f611678565b60025b60ff1660028a901b175f1794508793506116d0565b6116968361173f565b871480156116ab57506116a88261173f565b86145b156113e357806116bb575f6116be565b60025b60ff1660028a901b1760011794508793505b5050505b94509492505050565b5f611708827f0c19139cb84c680a6e14116da060561765e05aa45a1c72a34f082305b61f3f526118d2565b9050815f516020611c305f395f51905f528283091461173a57604051631ff3747d60e21b815260040160405180910390fd5b919050565b5f516020611c305f395f51905f529081900681030690565b5f80806117865f516020611c305f395f51905f52808788095f516020611c305f395f51905f52898a09086116dd565b9050831561179a576117978161173f565b90505b6117e35f516020611c305f395f51905f527f183227397098d014dc2822db40c0ac2ecbc0b548b438e5469e10460b6c3e7ea45f516020611c305f395f51905f52848a08096116dd565b92505f516020611c305f395f51905f5261180d5f516020611c305f395f51905f5260028609611935565b860991505f516020611c305f395f51905f526118385f516020611c305f395f51905f5284850961173f565b5f516020611c305f395f51905f52858609088614158061186c57505f516020611c305f395f51905f52808385096002098514155b1561130e57604051631ff3747d60e21b815260040160405180910390fd5b5f5f6118b6837f0c19139cb84c680a6e14116da060561765e05aa45a1c72a34f082305b61f3f526118d2565b9050825f516020611c305f395f51905f52828309149392505050565b5f5f60405160208152602080820152602060408201528460608201528360808201525f516020611c305f395f51905f5260a082015260208160c08360055afa905192509050806113fc57604051631ff3747d60e21b815260040160405180910390fd5b5f611960827f30644e72e131a029b85045b68181585d97816a916871ca8d3c208c16d87cfd456118d2565b90505f516020611c305f395f51905f5281830960011461173a57604051631ff3747d60e21b815260040160405180910390fd5b60405180602001604052806001906020820280368337509192915050565b60405180604001604052806002906020820280368337509192915050565b6040518061030001604052806018906020820280368337509192915050565b60405180608001604052806004906020820280368337509192915050565b8061012081018310156113fe575f5ffd5b5f5f5f5f6101e08587031215611a31575f5ffd5b6080850186811115611a41575f5ffd5b85945060a0860187811115611a54575f5ffd5b909350359150611a678660c08701611a0c565b905092959194509250565b8061010081018310156113fe575f5ffd5b80604081018310156113fe575f5ffd5b5f5f5f5f6102a08587031215611aa7575f5ffd5b611ab18686611a72565b9350611ac1866101008701611a83565b9250611ad1866101408701611a83565b9150611a67866101808701611a0c565b5f5f5f6101808486031215611af4575f5ffd5b611afe8585611a72565b9250611b0e856101008601611a83565b9150611b1e856101408601611a83565b90509250925092565b60c0810181855f5b6004811015611b4e578151835260209283019290910190600101611b2f565b50505060808201845f5b6001811015611b77578151835260209283019290910190600101611b58565b5050508260a0830152949350505050565b634e487b7160e01b5f52603260045260245ffd5b8381528260208201525f604082018351602085015f5b82811015611bd0578151845260209384019390910190600101611bb2565b5091979650505050505050565b634e487b7160e01b5f52601260045260245ffd5b5f82611c0b57634e487b7160e01b5f52601260045260245ffd5b500690565b818103818111156113fe57634e487b7160e01b5f52601160045260245ffdfe30644e72e131a029b85045b68181585d97816a916871ca8d3c208c16d87cfd4730644e72e131a029b85045b68181585d2833e84879b9709143e1f593f0000001a264697066735822122071b9fec6cd5a8f1c8582ac177ef2e09fa69338b2d5343f65e8adb7bdd8cdd4a364736f6c634300081c0033",
  "linkReferences": {},
  "deployedLinkReferences": {}
}