{
  "_format": "hh-sol-artifact-1",
  "contractName": "ResultsVerifierBaseGroth16",
  "sourceName": "src/verifiers/ResultsVerifierBaseGroth16.sol",
  "abi": [
    {
      "inputs": [],
      "name": "ProofInvalid",
      "type": "error"
    },
    {
      "inputs": [],
      "name": "PublicInputNotInField",
      "type": "error"
    },
    {
      "inputs": [
        {
          "internalType": "uint256[8]",
          "name": "proof",
          "type": "uint256[8]"
        }
      ],
      "name": "compressProof",
      "outputs": [
        {
          "internalType": "uint256[4]",
          "name": "compressed",
          "type": "uint256[4]"
        }
      ],
      "stateMutability": "view",
      "type": "function"
    },
    {
      "inputs": [
        {
          "internalType": "uint256[4]",
          "name": "compressedProof",
          "type": "uint256[4]"
        },
        {
          "internalType": "uint256[9]",
          "name": "input",
          "type": "uint256[9]"
        }
      ],
      "name": "verifyCompressedProof",
      "outputs": [],
      "stateMutability": "view",
      "type": "function"
    },
    {
      "inputs": [
        {
          "internalType": "uint256[8]",
          "name": "proof",
          "type": "uint256[8]"
        },
        {
          "internalType": "uint256[9]",
          "name": "input",
          "type": "uint256[9]"
        }
      ],
      "name": "verifyProof",
      "outputs": [],
      "stateMutability": "view",
      "type": "function"
    }
  ],
  "bytecode": "0x6080604052348015600f57600080fd5b506117138061001f6000396000f3fe608060405234801561001057600080fd5b50600436106100415760003560e01c806344f63692146100465780635f89feef1461006f5780638a3ae43814610084575b600080fd5b61005961005436600461158c565b610097565b60405161006691906115b0565b60405180910390f35b61008261007d3660046115f3565b6100f4565b005b61008261009236600461162f565b610413565b61009f61151f565b6100b282358360015b6020020135610693565b81526100d06060830135604084013560a08501356080860135610788565b602083015260408201526100ea60c08301358360076100a8565b6060820152919050565b6100fc61153d565b60008061010f85825b6020020135610a7f565b9092509050600080808061012b60408a013560208b0135610b25565b929650909450925090506000806101438b6003610105565b915091506000806101538c610d0b565b8b8d5260208d018b905260408d0189905260608d018a905260808d0187905260a08d0188905260c08d0186905260e08d018590527f17bfdd2a6364ff04a59af33f04ff402c2c4e99f1c6da76674acba7205bba95c66101008e01527f21e314013bb634998dc653932743ac3cf66351578d633a77f24520c0f99df21a6101208e01527f2463c227922a19d5f821a4ee032c25354bb7f47149f9d6382881aa9ca8e900e46101408e01527f276d5c134876603e8c80f13fe8777baa0038eb1f6cd66d003659593abb9c5d7b6101608e01527f11b15c88a09736f9dbfebceb54ce6e522259d254ae837797e63376214e49d5c26101808e01527f223a86e7a80002c9231ec59dd930f3b387211104d92a1df8ab4c6432172f8d796101a08e01527f0621318822cbeed3abed6e78180d5e3af0e8e3f5b333b79daff0faf89ceb09ac6101c08e01527f3064489381aefb1058082a23478d65d9208166161a83f70f6eeb86c68b4402d76101e08e01527f012d3a83de30dcf02dfa6ef57a449a9b720b725c5a47c23da2a1cb46f215713a6102008e01527f22d8174ebd1c71652d0f6cc5112950b9f9d9e0673ec65496b5c52a860214eac96102208e01526102408d018290526102608d018190527f030be838c73893aee8f8f83d94026f6641a311f2b733201328ac236aea0076f46102808e01527f098d72d55eac00d1a605a875f64fbc0dedd55cafb1735357bdf9884ab6be080d6102a08e01527f275595c6cb636f21a942c4ef46ae2c7530c3fb6c2260b91e5e1c9eebc15062866102c08e01527f281e004a673559a87ab1a338050eda246c46819aa2bc27cdbb6c2ae9b29bd8546102e08e0152909250905060006103c861155c565b6020816103008f60085afa91508115806103e457508051600114155b1561040257604051631ff3747d60e21b815260040160405180910390fd5b505050505050505050505050505050565b60008061041f83610d0b565b9150915060006040516101008682377f17bfdd2a6364ff04a59af33f04ff402c2c4e99f1c6da76674acba7205bba95c66101008201527f21e314013bb634998dc653932743ac3cf66351578d633a77f24520c0f99df21a6101208201527f2463c227922a19d5f821a4ee032c25354bb7f47149f9d6382881aa9ca8e900e46101408201527f276d5c134876603e8c80f13fe8777baa0038eb1f6cd66d003659593abb9c5d7b6101608201527f11b15c88a09736f9dbfebceb54ce6e522259d254ae837797e63376214e49d5c26101808201527f223a86e7a80002c9231ec59dd930f3b387211104d92a1df8ab4c6432172f8d796101a08201527f0621318822cbeed3abed6e78180d5e3af0e8e3f5b333b79daff0faf89ceb09ac6101c08201527f3064489381aefb1058082a23478d65d9208166161a83f70f6eeb86c68b4402d76101e08201527f012d3a83de30dcf02dfa6ef57a449a9b720b725c5a47c23da2a1cb46f215713a6102008201527f22d8174ebd1c71652d0f6cc5112950b9f9d9e0673ec65496b5c52a860214eac961022082015283610240820152826102608201527f030be838c73893aee8f8f83d94026f6641a311f2b733201328ac236aea0076f46102808201527f098d72d55eac00d1a605a875f64fbc0dedd55cafb1735357bdf9884ab6be080d6102a08201527f275595c6cb636f21a942c4ef46ae2c7530c3fb6c2260b91e5e1c9eebc15062866102c08201527f281e004a673559a87ab1a338050eda246c46819aa2bc27cdbb6c2ae9b29bd8546102e08201526020816103008360085afa90511690508061068c57604051631ff3747d60e21b815260040160405180910390fd5b5050505050565b600060008051602061169e833981519152831015806106c0575060008051602061169e8339815191528210155b156106de57604051631ff3747d60e21b815260040160405180910390fd5b821580156106ea575081155b156106f757506000610782565b600061073660008051602061169e833981519152600360008051602061169e8339815191528760008051602061169e833981519152898a09090861124c565b905080830361074b575050600182901b610782565b610754816112b0565b8303610767575050600182811b17610782565b604051631ff3747d60e21b815260040160405180910390fd5b505b92915050565b60008060008051602061169e833981519152861015806107b6575060008051602061169e8339815191528510155b806107cf575060008051602061169e8339815191528410155b806107e8575060008051602061169e8339815191528310155b1561080657604051631ff3747d60e21b815260040160405180910390fd5b8284868817171760000361081f57506000905080610a76565b6000808060008051602061169e83398151915261084b600360008051602061169e83398151915261167c565b60008051602061169e8339815191528a8c09099050600060008051602061169e8339815191528a60008051602061169e8339815191528c8d09099050600060008051602061169e8339815191528a60008051602061169e8339815191528c8d0909905060008051602061169e8339815191528060008051602061169e8339815191528c860984087f2b149d40ceb8aaae81be18991be06ac3b5b4c5e559dbefa33267e6dc24a138e508945061094460008051602061169e8339815191528060008051602061169e8339815191528e870984087f2fcd3ac2a640a154eb23960892a85a68f031ca0c8344b23a577dcf1052b9e775086112b0565b935050505060008061099560008051602061169e8339815191528061096b5761096b611666565b60008051602061169e83398151915285860960008051602061169e8339815191528788090861124c565b90506109e260008051602061169e8339815191527f183227397098d014dc2822db40c0ac2ecbc0b548b438e5469e10460b6c3e7ea460008051602061169e833981519152848808096112c9565b159150506109f1838383611313565b90935091508683148015610a0457508186145b15610a2e5780610a15576000610a18565b60025b60ff1660028a901b176000179450879350610a72565b610a37836112b0565b87148015610a4c5750610a49826112b0565b86145b156107675780610a5d576000610a60565b60025b60ff1660028a901b1760011794508793505b5050505b94509492505050565b60008082600003610a9557506000928392509050565b600183811c92508084161460008051602061169e8339815191528310610ace57604051631ff3747d60e21b815260040160405180910390fd5b610b0b60008051602061169e833981519152600360008051602061169e8339815191528660008051602061169e833981519152888909090861124c565b91508015610b1f57610b1c826112b0565b91505b50915091565b600080808085158015610b36575084155b15610b4c57506000925082915081905080610d02565b600286811c9450859350600180881614908088161460008051602061169e83398151915286101580610b8c575060008051602061169e8339815191528510155b15610baa57604051631ff3747d60e21b815260040160405180910390fd5b600060008051602061169e833981519152610bd4600360008051602061169e83398151915261167c565b60008051602061169e833981519152888a09099050600060008051602061169e8339815191528860008051602061169e8339815191528a8b09099050600060008051602061169e8339815191528860008051602061169e8339815191528a8b0909905060008051602061169e8339815191528060008051602061169e8339815191528a860984087f2b149d40ceb8aaae81be18991be06ac3b5b4c5e559dbefa33267e6dc24a138e5089650610ccd60008051602061169e8339815191528060008051602061169e8339815191528c870984087f2fcd3ac2a640a154eb23960892a85a68f031ca0c8344b23a577dcf1052b9e775086112b0565b9550610cda878786611313565b90975095508415610cfc57610cee876112b0565b9650610cf9866112b0565b95505b50505050505b92959194509250565b6000806000600190506040516040810160007f2cb9af1e358e4712cef3938a128615118003117427df3f7a44a2e21f2492acba83527f25068a648e026d38cba294879a3b9bc67d43129c3d91b1aa1c3ad041f0676dc260208401527f27d31e9eb5330773ea7a0e996e2ee1eb34be1b1cb0e1791005c1f563725c144982527f0cafb7e68f62b0278d245ddf9c3802e36de21bf6b061cbdfd304d5c28212b8c06020830152863590508060408301526000805160206116be83398151915281108416935060408260608460075afa8416935060408360808560065afa841693507f1700281b07cfbac8a778004edcba14bccc7ba3524c16ff0c82e083b9cfdc607882527f1ed0b568e558102eb3bc3e15f262d98cdfa231012711d246e8de0252edd678036020830152602087013590508060408301526000805160206116be83398151915281108416935060408260608460075afa8416935060408360808560065afa841693507f07243555947608ba9febe210382e3bdae38032c8e5a137a0e700c18f7e037ebb82527f22b5c6b77d4b9e32ecf67bd5d2b6204032f9fc8d4864e4947b4c4cb891f109576020830152604087013590508060408301526000805160206116be83398151915281108416935060408260608460075afa8416935060408360808560065afa841693507f0ae4efe15c50211cb0274cf17072bc29567e5c5b719ddedbc05c69ab8e043fa082527f0f8b881af1ff8dd5ba7dfe5ed31204f4c4e054c45d522de04c79220756af3e2c6020830152606087013590508060408301526000805160206116be83398151915281108416935060408260608460075afa8416935060408360808560065afa841693507f305ba4ce65a769fa7d2018a9b79d4a3a35d8bf7cb05af85647095f62c6ba72e582527f1e25d012de9a5632b97a74175de025e51ea8747c78a6469723f7d80b6e0d1fc06020830152608087013590508060408301526000805160206116be83398151915281108416935060408260608460075afa8416935060408360808560065afa841693507f1bff514831c77e83d1169122ed9d7943acfe6ecd5c231389a3ecebe70976b93f82527f26eab1da2c04e39c25d1120db2d25c8910eba9f358edf8abf26343551bf26d5b602083015260a087013590508060408301526000805160206116be83398151915281108416935060408260608460075afa8416935060408360808560065afa841693507f193c405178487ac28b787d2b02a44732c5b433e50ff87e74b06956f7a3eeba1482527f0a220d6ad99126d41371acfc048503f32d0e95dfbfcd02d08441706ddbe27997602083015260c087013590508060408301526000805160206116be83398151915281108416935060408260608460075afa8416935060408360808560065afa841693507f1b3843fd7662409396f2a9db205378e2aa982be4d7ec981e693021b8bddc0bae82527f056cea3d42ddd2dded11a5abad17a8a620d11634d7e19639f64fce2e3225c858602083015260e087013590508060408301526000805160206116be83398151915281108416935060408260608460075afa8416935060408360808560065afa7f08196c1876626c27e766acd3160bd3d13152401400f5a9296d8cac358a76c96383527f0d28ef3ab63bbff371927a731e037621fa1163ec285c841fc61b416c31243700602084015261010088013560408085018290526000805160206116be83398151915290911091909516169390508160608160075afa831692505060408160808360065afa81516020909201519194509092501680610b1f5760405163a54f8e2760e01b815260040160405180910390fd5b6000611278827f0c19139cb84c680a6e14116da060561765e05aa45a1c72a34f082305b61f3f5261145a565b90508160008051602061169e833981519152828309146112ab57604051631ff3747d60e21b815260040160405180910390fd5b919050565b60008051602061169e8339815191529081900681030690565b6000806112f6837f0c19139cb84c680a6e14116da060561765e05aa45a1c72a34f082305b61f3f5261145a565b90508260008051602061169e833981519152828309149392505050565b6000808061134560008051602061169e8339815191528087880960008051602061169e833981519152898a090861124c565b9050831561135957611356816112b0565b90505b6113a460008051602061169e8339815191527f183227397098d014dc2822db40c0ac2ecbc0b548b438e5469e10460b6c3e7ea460008051602061169e833981519152848a080961124c565b925060008051602061169e8339815191526113d060008051602061169e833981519152600286096114bf565b8609915060008051602061169e8339815191526113fd60008051602061169e8339815191528485096112b0565b60008051602061169e8339815191528586090886141580611433575060008051602061169e833981519152808385096002098514155b1561145157604051631ff3747d60e21b815260040160405180910390fd5b50935093915050565b600080604051602081526020808201526020604082015284606082015283608082015260008051602061169e83398151915260a082015260208160c08360055afa9051925090508061078057604051631ff3747d60e21b815260040160405180910390fd5b60006114eb827f30644e72e131a029b85045b68181585d97816a916871ca8d3c208c16d87cfd4561145a565b905060008051602061169e8339815191528183096001146112ab57604051631ff3747d60e21b815260040160405180910390fd5b60405180608001604052806004906020820280368337509192915050565b6040518061030001604052806018906020820280368337509192915050565b60405180602001604052806001906020820280368337509192915050565b80610100810183101561078257600080fd5b6000610100828403121561159f57600080fd5b6115a9838361157a565b9392505050565b60808101818360005b60048110156115d85781518352602092830192909101906001016115b9565b50505092915050565b80610120810183101561078257600080fd5b6000806101a0838503121561160757600080fd5b608083018481111561161857600080fd5b83925061162585826115e1565b9150509250929050565b600080610220838503121561164357600080fd5b61164d848461157a565b915061165d8461010085016115e1565b90509250929050565b634e487b7160e01b600052601260045260246000fd5b8181038181111561078257634e487b7160e01b600052601160045260246000fdfe30644e72e131a029b85045b68181585d97816a916871ca8d3c208c16d87cfd4730644e72e131a029b85045b68181585d2833e84879b9709143e1f593f0000001a2646970667358221220dfab3ae7f6e4b61ef43edf266b2b6aef95cd65e2fcc7cd6180f4c530b82283d064736f6c634300081c0033",
  "linkReferences": {},
  "deployedLinkReferences": {}
}