{
  "_format": "hh-sol-artifact-1",
  "contractName": "StateRootLib",
  "sourceName": "src/libraries/StateRootLib.sol",
  "abi": [
    {
      "inputs": [],
      "name": "BallotModeGroupSizeExceedsNumFields",
      "type": "error"
    },
    {
      "inputs": [],
      "name": "BallotModeMaxValueSumTooLarge",
      "type": "error"
    },
    {
      "inputs": [],
      "name": "BallotModeMaxValueTooLarge",
      "type": "error"
    },
    {
      "inputs": [],
      "name": "BallotModeMinValueSumTooLarge",
      "type": "error"
    },
    {
      "inputs": [],
      "name": "BallotModeMinValueTooLarge",
      "type": "error"
    },
    {
      "inputs": [
        {
          "internalType": "bytes31",
          "name": "processId",
          "type": "bytes31"
        },
        {
          "internalType": "enum DAVINCITypes.CensusOrigin",
          "name": "censusOrigin",
          "type": "DAVINCITypes.CensusOrigin"
        },
        {
          "components": [
            {
              "internalType": "bool",
              "name": "uniqueValues",
              "type": "bool"
            },
            {
              "internalType": "uint8",
              "name": "numFields",
              "type": "uint8"
            },
            {
              "internalType": "uint8",
              "name": "groupSize",
              "type": "uint8"
            },
            {
              "internalType": "uint8",
              "name": "costExponent",
              "type": "uint8"
            },
            {
              "internalType": "uint256",
              "name": "maxValue",
              "type": "uint256"
            },
            {
              "internalType": "uint256",
              "name": "minValue",
              "type": "uint256"
            },
            {
              "internalType": "uint256",
              "name": "maxValueSum",
              "type": "uint256"
            },
            {
              "internalType": "uint256",
              "name": "minValueSum",
              "type": "uint256"
            }
          ],
          "internalType": "struct DAVINCITypes.BallotMode",
          "name": "ballotMode",
          "type": "tuple"
        },
        {
          "components": [
            {
              "internalType": "uint256",
              "name": "x",
              "type": "uint256"
            },
            {
              "internalType": "uint256",
              "name": "y",
              "type": "uint256"
            }
          ],
          "internalType": "struct DAVINCITypes.EncryptionKey",
          "name": "encryptionKey",
          "type": "tuple"
        }
      ],
      "name": "computeStateRoot",
      "outputs": [
        {
          "internalType": "uint256",
          "name": "",
          "type": "uint256"
        }
      ],
      "stateMutability": "pure",
      "type": "function"
    },
    {
      "inputs": [
        {
          "internalType": "uint256",
          "name": "expectedRoot",
          "type": "uint256"
        },
        {
          "internalType": "bytes31",
          "name": "processId",
          "type": "bytes31"
        },
        {
          "internalType": "enum DAVINCITypes.CensusOrigin",
          "name": "censusOrigin",
          "type": "DAVINCITypes.CensusOrigin"
        },
        {
          "components": [
            {
              "internalType": "bool",
              "name": "uniqueValues",
              "type": "bool"
            },
            {
              "internalType": "uint8",
              "name": "numFields",
              "type": "uint8"
            },
            {
              "internalType": "uint8",
              "name": "groupSize",
              "type": "uint8"
            },
            {
              "internalType": "uint8",
              "name": "costExponent",
              "type": "uint8"
            },
            {
              "internalType": "uint256",
              "name": "maxValue",
              "type": "uint256"
            },
            {
              "internalType": "uint256",
              "name": "minValue",
              "type": "uint256"
            },
            {
              "internalType": "uint256",
              "name": "maxValueSum",
              "type": "uint256"
            },
            {
              "internalType": "uint256",
              "name": "minValueSum",
              "type": "uint256"
            }
          ],
          "internalType": "struct DAVINCITypes.BallotMode",
          "name": "ballotMode",
          "type": "tuple"
        },
        {
          "components": [
            {
              "internalType": "uint256",
              "name": "x",
              "type": "uint256"
            },
            {
              "internalType": "uint256",
              "name": "y",
              "type": "uint256"
            }
          ],
          "internalType": "struct DAVINCITypes.EncryptionKey",
          "name": "encryptionKey",
          "type": "tuple"
        }
      ],
      "name": "verifyStateRoot",
      "outputs": [
        {
          "internalType": "bool",
          "name": "",
          "type": "bool"
        }
      ],
      "stateMutability": "pure",
      "type": "function"
    }
  ],
  "bytecode": "0x60808060405234601957610d3c908161001e823930815050f35b5f80fdfe60806040526004361015610011575f80fd5b5f3560e01c80632089f1761461073e57635d3f706a1461002f575f80fd5b6101a03660031901126104dd5760243560ff19811681036104dd5760443560058110156104dd576101003660631901126104dd576040366101631901126104dd5760a4359160ff8316908184036104dd5760843560ff8116928382036104dd57831061072f575060643580151581036104dd5715610728576001935b60c4359160ff831683036104dd5760e43565ffffffffffff8111610719576101043565ffffffffffff811161070a576101243590677fffffffffffffff82116106fb576101443592677fffffffffffffff84116106ec576101549673__$75f79a42d9bcbdbb69ad79ebd80f556f39$__9a602060405161012a81610c3e565b61016435815261018435828201528d60405180809d8194632b0aac7f60e11b835260048301610cac565b03915af49889156104e9575f996106b4575b506101bd979899602073__$fc5a2451f3e054f75c2faf9b3818033d8b$__986040519061019282610c6e565b5f825260081c8282015260016040820152604051809b81926320cf0a3760e01b835260048301610cd9565b03818b5af49889156104e9575f9961066b575b509061024599602097969594939261ff0062ff00006301fe00006040519a6101f78c610c6e565b60028c5260b81b9960791b9860491b9760191b9660111b169460101b169260081b16171717171717178282015260016040820152604051809581926320cf0a3760e01b835260048301610cd9565b0381845af49283156104e9575f93610634575b506020610295946040519061026c82610c6e565b600382528282015260016040820152604051809681926320cf0a3760e01b835260048301610cd9565b0381845af49384156104e9575f946105fe575b506102e794602091604051916102bd83610c6e565b60068352838301526001604083015260405180809881946320cf0a3760e01b835260048301610cd9565b03915af49384156104e9575f946105c9575b5092602061034f946040519061030e82610c3e565b81527f1f72c52b6e5dedca4f99ecfa24f2776732431e8d544e14c6f78f5042727c46578282015260405180968192632b0aac7f60e11b835260048301610cac565b0381885af49384156104e9575f94610593575b50610397916020916040519161037783610c3e565b82528282015260405180938192632b0aac7f60e11b835260048301610cac565b0381875af49081156104e9575f9161055f575b506103df92602091604051916103bf83610c3e565b82528282015260405180948192632b0aac7f60e11b835260048301610cac565b0381865af49182156104e9575f9261052a575b506020610447916040519061040682610c3e565b7f2b853c511fba705a6030f80ce83d6ee8cbf4a1273724368728c11682eae4c51a82528282015260405180938192632b0aac7f60e11b835260048301610cac565b0381865af49081156104e9575f916104f4575b5090610491926020926040519261047084610c3e565b8352838301526040518080958194632b0aac7f60e11b835260048301610cac565b03915af480156104e9575f906104b2575b6040516004359091148152602090f35b506020813d6020116104e1575b816104cc60209383610c8a565b810103126104dd57602090516104a2565b5f80fd5b3d91506104bf565b6040513d5f823e3d90fd5b9190506020823d602011610522575b8161051060209383610c8a565b810103126104dd57905161049161045a565b3d9150610503565b9091506020813d602011610557575b8161054660209383610c8a565b810103126104dd57519060206103f2565b3d9150610539565b90506020813d60201161058b575b8161057a60209383610c8a565b810103126104dd57516103df6103aa565b3d915061056d565b9093506020813d6020116105c1575b816105af60209383610c8a565b810103126104dd575192610397610362565b3d91506105a2565b93506020843d6020116105f6575b816105e460209383610c8a565b810103126104dd5792519260206102f9565b3d91506105d7565b9093506020813d60201161062c575b8161061a60209383610c8a565b810103126104dd5751926102e76102a8565b3d915061060d565b9392506020843d602011610663575b8161065060209383610c8a565b810103126104dd57925191926020610258565b3d9150610643565b9695949392919098506020873d6020116106ac575b8161068d60209383610c8a565b810103126104dd576102459960209751999192939495969750996101d0565b3d9150610680565b9798506020883d6020116106e4575b816106d060209383610c8a565b810103126104dd576101bd97519897610166565b3d91506106c3565b63dd6f54df60e01b5f5260045ffd5b63271fb80560e01b5f5260045ffd5b63871a7fa360e01b5f5260045ffd5b63481eb79f60e01b5f5260045ffd5b5f936100ab565b633cf60ff760e21b5f5260045ffd5b6101803660031901126104dd5760043560ff19811681036104dd5760243560058110156104dd576101003660431901126104dd576040366101431901126104dd576084359160ff8316908184036104dd5760643560ff8116928382036104dd57831061072f575060443580151581036104dd5715610c37576001935b60a4359160ff831683036104dd5760c43565ffffffffffff81116107195760e43565ffffffffffff811161070a576101043590677fffffffffffffff82116106fb576101243592677fffffffffffffff84116106ec576108629673__$75f79a42d9bcbdbb69ad79ebd80f556f39$__9a602060405161083881610c3e565b61014435815261016435828201528d60405180809d8194632b0aac7f60e11b835260048301610cac565b03915af49889156104e9575f99610bff575b506108a0979899602073__$fc5a2451f3e054f75c2faf9b3818033d8b$__986040519061019282610c6e565b03818b5af49889156104e9575f99610bb6575b50906108da99602097969594939261ff0062ff00006301fe00006040519a6101f78c610c6e565b0381845af49283156104e9575f93610b7f575b506020610901946040519061026c82610c6e565b0381845af49384156104e9575f94610b49575b5061092994602091604051916102bd83610c6e565b03915af49384156104e9575f94610b14575b50926020610950946040519061030e82610c3e565b0381885af49384156104e9575f94610ade575b50610978916020916040519161037783610c3e565b0381875af49081156104e9575f91610aaa575b506109a092602091604051916103bf83610c3e565b0381865af49182156104e9575f92610a75575b5060206109c7916040519061040682610c3e565b0381865af49081156104e9575f91610a3f575b50906109f0926020926040519261047084610c3e565b03915af480156104e9575f90610a0c575b604051908152602090f35b506020813d602011610a37575b81610a2660209383610c8a565b810103126104dd5760209051610a01565b3d9150610a19565b9190506020823d602011610a6d575b81610a5b60209383610c8a565b810103126104dd5790516109f06109da565b3d9150610a4e565b9091506020813d602011610aa2575b81610a9160209383610c8a565b810103126104dd57519060206109b3565b3d9150610a84565b90506020813d602011610ad6575b81610ac560209383610c8a565b810103126104dd57516109a061098b565b3d9150610ab8565b9093506020813d602011610b0c575b81610afa60209383610c8a565b810103126104dd575192610978610963565b3d9150610aed565b93506020843d602011610b41575b81610b2f60209383610c8a565b810103126104dd57925192602061093b565b3d9150610b22565b9093506020813d602011610b77575b81610b6560209383610c8a565b810103126104dd575192610929610914565b3d9150610b58565b9392506020843d602011610bae575b81610b9b60209383610c8a565b810103126104dd579251919260206108ed565b3d9150610b8e565b9695949392919098506020873d602011610bf7575b81610bd860209383610c8a565b810103126104dd576108da9960209751999192939495969750996108b3565b3d9150610bcb565b9798506020883d602011610c2f575b81610c1b60209383610c8a565b810103126104dd576108a097519897610874565b3d9150610c0e565b5f936107ba565b6040810190811067ffffffffffffffff821117610c5a57604052565b634e487b7160e01b5f52604160045260245ffd5b6060810190811067ffffffffffffffff821117610c5a57604052565b90601f8019910116810190811067ffffffffffffffff821117610c5a57604052565b919060408301925f905b60028210610cc357505050565b6020806001928551815201930191019091610cb6565b919060608301925f905b60038210610cf057505050565b6020806001928551815201930191019091610ce356fea2646970667358221220d6ecee539417ed0f2f40d21870f84a16406b32abce45399e0230eb50926dd04664736f6c634300081c0033",
  "linkReferences": {
    "poseidon-solidity/PoseidonT3.sol": {
      "PoseidonT3": [
        {
          "length": 20,
          "start": 294
        },
        {
          "length": 20,
          "start": 2100
        }
      ]
    },
    "poseidon-solidity/PoseidonT4.sol": {
      "PoseidonT4": [
        {
          "length": 20,
          "start": 399
        },
        {
          "length": 20,
          "start": 2205
        }
      ]
    }
  },
  "deployedLinkReferences": {
    "poseidon-solidity/PoseidonT3.sol": {
      "PoseidonT3": [
        {
          "length": 20,
          "start": 264
        },
        {
          "length": 20,
          "start": 2070
        }
      ]
    },
    "poseidon-solidity/PoseidonT4.sol": {
      "PoseidonT4": [
        {
          "length": 20,
          "start": 369
        },
        {
          "length": 20,
          "start": 2175
        }
      ]
    }
  }
}