{
  "_format": "hh-sol-artifact-1",
  "contractName": "StateRootLib",
  "sourceName": "src/libraries/StateRootLib.sol",
  "abi": [
    {
      "inputs": [],
      "name": "BallotModeGroupSizeExceedsNumFields",
      "type": "error"
    },
    {
      "inputs": [],
      "name": "BallotModeMaxValueSumTooLarge",
      "type": "error"
    },
    {
      "inputs": [],
      "name": "BallotModeMaxValueTooLarge",
      "type": "error"
    },
    {
      "inputs": [],
      "name": "BallotModeMinValueSumTooLarge",
      "type": "error"
    },
    {
      "inputs": [],
      "name": "BallotModeMinValueTooLarge",
      "type": "error"
    },
    {
      "inputs": [
        {
          "internalType": "bytes32",
          "name": "processId",
          "type": "bytes32"
        },
        {
          "internalType": "enum DAVINCITypes.CensusOrigin",
          "name": "censusOrigin",
          "type": "DAVINCITypes.CensusOrigin"
        },
        {
          "components": [
            {
              "internalType": "bool",
              "name": "costFromWeight",
              "type": "bool"
            },
            {
              "internalType": "bool",
              "name": "uniqueValues",
              "type": "bool"
            },
            {
              "internalType": "uint8",
              "name": "numFields",
              "type": "uint8"
            },
            {
              "internalType": "uint8",
              "name": "groupSize",
              "type": "uint8"
            },
            {
              "internalType": "uint8",
              "name": "costExponent",
              "type": "uint8"
            },
            {
              "internalType": "uint256",
              "name": "maxValue",
              "type": "uint256"
            },
            {
              "internalType": "uint256",
              "name": "minValue",
              "type": "uint256"
            },
            {
              "internalType": "uint256",
              "name": "maxValueSum",
              "type": "uint256"
            },
            {
              "internalType": "uint256",
              "name": "minValueSum",
              "type": "uint256"
            }
          ],
          "internalType": "struct DAVINCITypes.BallotMode",
          "name": "ballotMode",
          "type": "tuple"
        },
        {
          "components": [
            {
              "internalType": "uint256",
              "name": "x",
              "type": "uint256"
            },
            {
              "internalType": "uint256",
              "name": "y",
              "type": "uint256"
            }
          ],
          "internalType": "struct DAVINCITypes.EncryptionKey",
          "name": "encryptionKey",
          "type": "tuple"
        }
      ],
      "name": "computeStateRoot",
      "outputs": [
        {
          "internalType": "uint256",
          "name": "",
          "type": "uint256"
        }
      ],
      "stateMutability": "pure",
      "type": "function"
    },
    {
      "inputs": [
        {
          "internalType": "uint256",
          "name": "expectedRoot",
          "type": "uint256"
        },
        {
          "internalType": "bytes32",
          "name": "processId",
          "type": "bytes32"
        },
        {
          "internalType": "enum DAVINCITypes.CensusOrigin",
          "name": "censusOrigin",
          "type": "DAVINCITypes.CensusOrigin"
        },
        {
          "components": [
            {
              "internalType": "bool",
              "name": "costFromWeight",
              "type": "bool"
            },
            {
              "internalType": "bool",
              "name": "uniqueValues",
              "type": "bool"
            },
            {
              "internalType": "uint8",
              "name": "numFields",
              "type": "uint8"
            },
            {
              "internalType": "uint8",
              "name": "groupSize",
              "type": "uint8"
            },
            {
              "internalType": "uint8",
              "name": "costExponent",
              "type": "uint8"
            },
            {
              "internalType": "uint256",
              "name": "maxValue",
              "type": "uint256"
            },
            {
              "internalType": "uint256",
              "name": "minValue",
              "type": "uint256"
            },
            {
              "internalType": "uint256",
              "name": "maxValueSum",
              "type": "uint256"
            },
            {
              "internalType": "uint256",
              "name": "minValueSum",
              "type": "uint256"
            }
          ],
          "internalType": "struct DAVINCITypes.BallotMode",
          "name": "ballotMode",
          "type": "tuple"
        },
        {
          "components": [
            {
              "internalType": "uint256",
              "name": "x",
              "type": "uint256"
            },
            {
              "internalType": "uint256",
              "name": "y",
              "type": "uint256"
            }
          ],
          "internalType": "struct DAVINCITypes.EncryptionKey",
          "name": "encryptionKey",
          "type": "tuple"
        }
      ],
      "name": "verifyStateRoot",
      "outputs": [
        {
          "internalType": "bool",
          "name": "",
          "type": "bool"
        }
      ],
      "stateMutability": "pure",
      "type": "function"
    }
  ],
  "bytecode": "0x60808060405234601957610d90908161001e823930815050f35b5f80fdfe60806040526004361015610011575f80fd5b5f3560e01c80636b9d09c71461074e5763ec54ab431461002f575f80fd5b6101a03660031901126104e65760243560058110156104e6576101203660431901126104e6576040366101631901126104e65760a4359060ff82168083036104e65760843560ff8116918282036104e657821061073f575060643580151581036104e657156107395760015b60443580151581036104e657156107335760015b60c43560ff811681036104e65760e43565ffffffffffff8111610724576101043565ffffffffffff8111610715576101243591677fffffffffffffff8311610706576101443593677fffffffffffffff85116106f7576101579673__$75f79a42d9bcbdbb69ad79ebd80f556f39$__9a602060405161012d81610c92565b61016435815261018435828201528d60405180809d8194632b0aac7f60e11b835260048301610d00565b03915af49889156104f2575f996106bf575b506101bf97989973__$fc5a2451f3e054f75c2faf9b3818033d8b$__97602060405161019481610cc2565b5f81526004358282015260016040820152604051809c81926320cf0a3760e01b835260048301610d2d565b03818c5af4998a156104f2575f9a610674575b509260029694926102539b9261ff0062ff00006301fe00006303fc000060209d9b996040519d8e61020281610cc2565b5260b91b9b607a1b9a604a1b99601a1b9860121b169660111b169460101b169260081b1617171717171717178282015260016040820152604051809581926320cf0a3760e01b835260048301610d2d565b0381845af49283156104f2575f9361063d575b5060206102a3946040519061027a82610cc2565b600382528282015260016040820152604051809681926320cf0a3760e01b835260048301610d2d565b0381845af49384156104f2575f94610607575b506102f594602091604051916102cb83610cc2565b60068352838301526001604083015260405180809881946320cf0a3760e01b835260048301610d2d565b03915af49384156104f2575f946105d2575b5092602061035d946040519061031c82610c92565b81527f1f72c52b6e5dedca4f99ecfa24f2776732431e8d544e14c6f78f5042727c46578282015260405180968192632b0aac7f60e11b835260048301610d00565b0381885af49384156104f2575f9461059c575b506103a5916020916040519161038583610c92565b82528282015260405180938192632b0aac7f60e11b835260048301610d00565b0381875af49081156104f2575f91610568575b506103ed92602091604051916103cd83610c92565b82528282015260405180948192632b0aac7f60e11b835260048301610d00565b0381865af49182156104f2575f92610533575b506020610455916040519061041482610c92565b7f2b853c511fba705a6030f80ce83d6ee8cbf4a1273724368728c11682eae4c51a82528282015260405180938192632b0aac7f60e11b835260048301610d00565b0381865af49081156104f2575f916104fd575b509061049f926020926040519261047e84610c92565b8352838301526040518080958194632b0aac7f60e11b835260048301610d00565b03915af480156104f2575f906104bb575b604051908152602090f35b506020813d6020116104ea575b816104d560209383610cde565b810103126104e657602090516104b0565b5f80fd5b3d91506104c8565b6040513d5f823e3d90fd5b9190506020823d60201161052b575b8161051960209383610cde565b810103126104e657905161049f610468565b3d915061050c565b9091506020813d602011610560575b8161054f60209383610cde565b810103126104e65751906020610400565b3d9150610542565b90506020813d602011610594575b8161058360209383610cde565b810103126104e657516103ed6103b8565b3d9150610576565b9093506020813d6020116105ca575b816105b860209383610cde565b810103126104e65751926103a5610370565b3d91506105ab565b93506020843d6020116105ff575b816105ed60209383610cde565b810103126104e6579251926020610307565b3d91506105e0565b9093506020813d602011610635575b8161062360209383610cde565b810103126104e65751926102f56102b6565b3d9150610616565b9392506020843d60201161066c575b8161065960209383610cde565b810103126104e657925191926020610266565b3d915061064c565b9694929a919795939099506020873d6020116106b7575b8161069860209383610cde565b810103126104e6579551909990989496939592949193909160026101d2565b3d915061068b565b9798506020883d6020116106ef575b816106db60209383610cde565b810103126104e6576101bf97519897610169565b3d91506106ce565b63dd6f54df60e01b5f5260045ffd5b63271fb80560e01b5f5260045ffd5b63871a7fa360e01b5f5260045ffd5b63481eb79f60e01b5f5260045ffd5b5f6100af565b5f61009b565b633cf60ff760e21b5f5260045ffd5b6101c03660031901126104e65760443560058110156104e6576101203660631901126104e6576040366101831901126104e65760c4359060ff82168083036104e65760a43560ff8116918282036104e657821061073f575060843580151581036104e65715610c8c5760015b60643580151581036104e65715610c865760015b60e43560ff811681036104e6576101043565ffffffffffff8111610724576101243565ffffffffffff8111610715576101443591677fffffffffffffff8311610706576101643593677fffffffffffffff85116106f7576108779673__$75f79a42d9bcbdbb69ad79ebd80f556f39$__9a602060405161084d81610c92565b6101843581526101a435828201528d60405180809d8194632b0aac7f60e11b835260048301610d00565b03915af49889156104f2575f99610c4e575b506108df97989973__$fc5a2451f3e054f75c2faf9b3818033d8b$__9760206040516108b481610cc2565b5f81526024358282015260016040820152604051809c81926320cf0a3760e01b835260048301610d2d565b03818c5af4998a156104f2575f9a610c03575b509260029694926109229b9261ff0062ff00006301fe00006303fc000060209d9b996040519d8e61020281610cc2565b0381845af49283156104f2575f93610bcc575b506020610949946040519061027a82610cc2565b0381845af49384156104f2575f94610b96575b5061097194602091604051916102cb83610cc2565b03915af49384156104f2575f94610b61575b50926020610998946040519061031c82610c92565b0381885af49384156104f2575f94610b2b575b506109c0916020916040519161038583610c92565b0381875af49081156104f2575f91610af7575b506109e892602091604051916103cd83610c92565b0381865af49182156104f2575f92610ac2575b506020610a0f916040519061041482610c92565b0381865af49081156104f2575f91610a8c575b5090610a38926020926040519261047e84610c92565b03915af480156104f2575f90610a59575b6040516004359091148152602090f35b506020813d602011610a84575b81610a7360209383610cde565b810103126104e65760209051610a49565b3d9150610a66565b9190506020823d602011610aba575b81610aa860209383610cde565b810103126104e6579051610a38610a22565b3d9150610a9b565b9091506020813d602011610aef575b81610ade60209383610cde565b810103126104e657519060206109fb565b3d9150610ad1565b90506020813d602011610b23575b81610b1260209383610cde565b810103126104e657516109e86109d3565b3d9150610b05565b9093506020813d602011610b59575b81610b4760209383610cde565b810103126104e65751926109c06109ab565b3d9150610b3a565b93506020843d602011610b8e575b81610b7c60209383610cde565b810103126104e6579251926020610983565b3d9150610b6f565b9093506020813d602011610bc4575b81610bb260209383610cde565b810103126104e657519261097161095c565b3d9150610ba5565b9392506020843d602011610bfb575b81610be860209383610cde565b810103126104e657925191926020610935565b3d9150610bdb565b9694929a919795939099506020873d602011610c46575b81610c2760209383610cde565b810103126104e6579551909990989496939592949193909160026108f2565b3d9150610c1a565b9798506020883d602011610c7e575b81610c6a60209383610cde565b810103126104e6576108df97519897610889565b3d9150610c5d565b5f6107ce565b5f6107ba565b6040810190811067ffffffffffffffff821117610cae57604052565b634e487b7160e01b5f52604160045260245ffd5b6060810190811067ffffffffffffffff821117610cae57604052565b90601f8019910116810190811067ffffffffffffffff821117610cae57604052565b919060408301925f905b60028210610d1757505050565b6020806001928551815201930191019091610d0a565b919060608301925f905b60038210610d4457505050565b6020806001928551815201930191019091610d3756fea26469706673582212203b3ba716471d2c4f1767001a8f9ebef3c149bcb8b6c117396b0f221bee7e305f64736f6c634300081c0033",
  "linkReferences": {
    "poseidon-solidity/PoseidonT3.sol": {
      "PoseidonT3": [
        {
          "length": 20,
          "start": 297
        },
        {
          "length": 20,
          "start": 2121
        }
      ]
    },
    "poseidon-solidity/PoseidonT4.sol": {
      "PoseidonT4": [
        {
          "length": 20,
          "start": 400
        },
        {
          "length": 20,
          "start": 2224
        }
      ]
    }
  },
  "deployedLinkReferences": {
    "poseidon-solidity/PoseidonT3.sol": {
      "PoseidonT3": [
        {
          "length": 20,
          "start": 267
        },
        {
          "length": 20,
          "start": 2091
        }
      ]
    },
    "poseidon-solidity/PoseidonT4.sol": {
      "PoseidonT4": [
        {
          "length": 20,
          "start": 370
        },
        {
          "length": 20,
          "start": 2194
        }
      ]
    }
  }
}