{
  "_format": "hh-sol-artifact-1",
  "contractName": "ProcessIdLib",
  "sourceName": "src/libraries/ProcessIdLib.sol",
  "abi": [
    {
      "inputs": [
        {
          "internalType": "uint32",
          "name": "prefix",
          "type": "uint32"
        },
        {
          "internalType": "address",
          "name": "creatorAddr",
          "type": "address"
        },
        {
          "internalType": "uint64",
          "name": "nonce",
          "type": "uint64"
        }
      ],
      "name": "computeProcessId",
      "outputs": [
        {
          "internalType": "bytes32",
          "name": "processId",
          "type": "bytes32"
        }
      ],
      "stateMutability": "pure",
      "type": "function"
    },
    {
      "inputs": [
        {
          "internalType": "uint32",
          "name": "chainId",
          "type": "uint32"
        },
        {
          "internalType": "address",
          "name": "contractAddr",
          "type": "address"
        }
      ],
      "name": "getPrefix",
      "outputs": [
        {
          "internalType": "uint32",
          "name": "",
          "type": "uint32"
        }
      ],
      "stateMutability": "pure",
      "type": "function"
    },
    {
      "inputs": [
        {
          "internalType": "bytes32",
          "name": "processId",
          "type": "bytes32"
        },
        {
          "internalType": "uint32",
          "name": "expectedPrefix",
          "type": "uint32"
        }
      ],
      "name": "hasPrefix",
      "outputs": [
        {
          "internalType": "bool",
          "name": "",
          "type": "bool"
        }
      ],
      "stateMutability": "pure",
      "type": "function"
    }
  ],
  "bytecode": "0x608080604052346019576101c7908161001e823930815050f35b5f80fdfe6080806040526004361015610012575f80fd5b5f3560e01c908163a1e712a61461013657508063d08d66a2146100d25763d0b877c41461003d575f80fd5b60403660031901126100ce57610051610168565b61005961017b565b60405190602082019263ffffffff60e01b9060e01b1683526bffffffffffffffffffffffff199060601b16602482015260188152604081019080821067ffffffffffffffff8311176100ba5760209263ffffffff9183604052519020168152f35b634e487b7160e01b5f52604160045260245ffd5b5f80fd5b60603660031901126100ce576100e6610168565b6100ee61017b565b9060443567ffffffffffffffff81168091036100ce576020926bffffffff00000000000000006040519360401b16906bffffffffffffffffffffffff199060601b1617178152f35b60403660031901126100ce576024359063ffffffff82168092036100ce5760209163ffffffff60043560401c16148152f35b6004359063ffffffff821682036100ce57565b602435906001600160a01b03821682036100ce5756fea264697066735822122053feed9d35a3250a60d2b20a893c708e6e1e9ddf5106231bcbe90e5c6c8a654464736f6c634300081c0033",
  "linkReferences": {},
  "deployedLinkReferences": {}
}