{
  "_format": "hh-sol-artifact-1",
  "contractName": "ResultsVerifierGroth16",
  "sourceName": "src/ResultsVerifierGroth16.sol",
  "abi": [
    {
      "inputs": [],
      "name": "ProofInvalid",
      "type": "error"
    },
    {
      "inputs": [],
      "name": "PublicInputNotInField",
      "type": "error"
    },
    {
      "inputs": [
        {
          "internalType": "uint256[8]",
          "name": "proof",
          "type": "uint256[8]"
        }
      ],
      "name": "compressProof",
      "outputs": [
        {
          "internalType": "uint256[4]",
          "name": "compressed",
          "type": "uint256[4]"
        }
      ],
      "stateMutability": "view",
      "type": "function"
    },
    {
      "inputs": [],
      "name": "provingKeyHash",
      "outputs": [
        {
          "internalType": "bytes32",
          "name": "",
          "type": "bytes32"
        }
      ],
      "stateMutability": "pure",
      "type": "function"
    },
    {
      "inputs": [
        {
          "internalType": "uint256[4]",
          "name": "compressedProof",
          "type": "uint256[4]"
        },
        {
          "internalType": "uint256[9]",
          "name": "input",
          "type": "uint256[9]"
        }
      ],
      "name": "verifyCompressedProof",
      "outputs": [],
      "stateMutability": "view",
      "type": "function"
    },
    {
      "inputs": [
        {
          "internalType": "uint256[8]",
          "name": "proof",
          "type": "uint256[8]"
        },
        {
          "internalType": "uint256[9]",
          "name": "input",
          "type": "uint256[9]"
        }
      ],
      "name": "verifyProof",
      "outputs": [],
      "stateMutability": "view",
      "type": "function"
    },
    {
      "inputs": [
        {
          "internalType": "bytes",
          "name": "_proof",
          "type": "bytes"
        },
        {
          "internalType": "bytes",
          "name": "_input",
          "type": "bytes"
        }
      ],
      "name": "verifyProof",
      "outputs": [],
      "stateMutability": "view",
      "type": "function"
    }
  ],
  "bytecode": "0x6080604052348015600f57600080fd5b50611b268061001f6000396000f3fe608060405234801561001057600080fd5b50600436106100575760003560e01c8063233ace111461005c57806344f636921461008f5780635f89feef146100af5780638a3ae438146100c4578063b8e72af6146100d7575b600080fd5b6040517fa1892db4eae2d412dc90a7f2f11d7f6c62c51f7b8e052752fe942a901040d3d981526020015b60405180910390f35b6100a261009d366004611705565b6100ea565b6040516100869190611722565b6100c26100bd366004611765565b610147565b005b6100c26100d23660046117a1565b610466565b6100c26100e5366004611821565b6106e6565b6100f261163c565b61010582358360015b6020020135610764565b81526101236060830135604084013560a08501356080860135610859565b6020830152604082015261013d60c08301358360076100fb565b6060820152919050565b61014f61165a565b60008061016285825b6020020135610b50565b9092509050600080808061017e60408a013560208b0135610bf6565b929650909450925090506000806101968b6003610158565b915091506000806101a68c610ddc565b8b8d5260208d018b905260408d0189905260608d018a905260808d0187905260a08d0188905260c08d0186905260e08d018590527f17bfdd2a6364ff04a59af33f04ff402c2c4e99f1c6da76674acba7205bba95c66101008e01527f21e314013bb634998dc653932743ac3cf66351578d633a77f24520c0f99df21a6101208e01527f2463c227922a19d5f821a4ee032c25354bb7f47149f9d6382881aa9ca8e900e46101408e01527f276d5c134876603e8c80f13fe8777baa0038eb1f6cd66d003659593abb9c5d7b6101608e01527f11b15c88a09736f9dbfebceb54ce6e522259d254ae837797e63376214e49d5c26101808e01527f223a86e7a80002c9231ec59dd930f3b387211104d92a1df8ab4c6432172f8d796101a08e01527f0621318822cbeed3abed6e78180d5e3af0e8e3f5b333b79daff0faf89ceb09ac6101c08e01527f3064489381aefb1058082a23478d65d9208166161a83f70f6eeb86c68b4402d76101e08e01527f012d3a83de30dcf02dfa6ef57a449a9b720b725c5a47c23da2a1cb46f215713a6102008e01527f22d8174ebd1c71652d0f6cc5112950b9f9d9e0673ec65496b5c52a860214eac96102208e01526102408d018290526102608d018190527f030be838c73893aee8f8f83d94026f6641a311f2b733201328ac236aea0076f46102808e01527f098d72d55eac00d1a605a875f64fbc0dedd55cafb1735357bdf9884ab6be080d6102a08e01527f275595c6cb636f21a942c4ef46ae2c7530c3fb6c2260b91e5e1c9eebc15062866102c08e01527f281e004a673559a87ab1a338050eda246c46819aa2bc27cdbb6c2ae9b29bd8546102e08e01529092509050600061041b611679565b6020816103008f60085afa915081158061043757508051600114155b1561045557604051631ff3747d60e21b815260040160405180910390fd5b505050505050505050505050505050565b60008061047283610ddc565b9150915060006040516101008682377f17bfdd2a6364ff04a59af33f04ff402c2c4e99f1c6da76674acba7205bba95c66101008201527f21e314013bb634998dc653932743ac3cf66351578d633a77f24520c0f99df21a6101208201527f2463c227922a19d5f821a4ee032c25354bb7f47149f9d6382881aa9ca8e900e46101408201527f276d5c134876603e8c80f13fe8777baa0038eb1f6cd66d003659593abb9c5d7b6101608201527f11b15c88a09736f9dbfebceb54ce6e522259d254ae837797e63376214e49d5c26101808201527f223a86e7a80002c9231ec59dd930f3b387211104d92a1df8ab4c6432172f8d796101a08201527f0621318822cbeed3abed6e78180d5e3af0e8e3f5b333b79daff0faf89ceb09ac6101c08201527f3064489381aefb1058082a23478d65d9208166161a83f70f6eeb86c68b4402d76101e08201527f012d3a83de30dcf02dfa6ef57a449a9b720b725c5a47c23da2a1cb46f215713a6102008201527f22d8174ebd1c71652d0f6cc5112950b9f9d9e0673ec65496b5c52a860214eac961022082015283610240820152826102608201527f030be838c73893aee8f8f83d94026f6641a311f2b733201328ac236aea0076f46102808201527f098d72d55eac00d1a605a875f64fbc0dedd55cafb1735357bdf9884ab6be080d6102a08201527f275595c6cb636f21a942c4ef46ae2c7530c3fb6c2260b91e5e1c9eebc15062866102c08201527f281e004a673559a87ab1a338050eda246c46819aa2bc27cdbb6c2ae9b29bd8546102e08201526020816103008360085afa9051169050806106df57604051631ff3747d60e21b815260040160405180910390fd5b5050505050565b60006106f2858561131d565b50509050306001600160a01b0316638a3ae43882610710868661134e565b6040518363ffffffff1660e01b815260040161072d929190611892565b60006040518083038186803b15801561074557600080fd5b505afa158015610759573d6000803e3d6000fd5b505050505050505050565b6000600080516020611ab1833981519152831015806107915750600080516020611ab18339815191528210155b156107af57604051631ff3747d60e21b815260040160405180910390fd5b821580156107bb575081155b156107c857506000610853565b6000610807600080516020611ab18339815191526003600080516020611ab183398151915287600080516020611ab1833981519152898a090908611369565b905080830361081c575050600182901b610853565b610825816113cd565b8303610838575050600182811b17610853565b604051631ff3747d60e21b815260040160405180910390fd5b505b92915050565b600080600080516020611ab1833981519152861015806108875750600080516020611ab18339815191528510155b806108a05750600080516020611ab18339815191528410155b806108b95750600080516020611ab18339815191528310155b156108d757604051631ff3747d60e21b815260040160405180910390fd5b828486881717176000036108f057506000905080610b47565b60008080600080516020611ab183398151915261091c6003600080516020611ab1833981519152611906565b600080516020611ab18339815191528a8c090990506000600080516020611ab18339815191528a600080516020611ab18339815191528c8d090990506000600080516020611ab18339815191528a600080516020611ab18339815191528c8d09099050600080516020611ab183398151915280600080516020611ab18339815191528c860984087f2b149d40ceb8aaae81be18991be06ac3b5b4c5e559dbefa33267e6dc24a138e5089450610a15600080516020611ab183398151915280600080516020611ab18339815191528e870984087f2fcd3ac2a640a154eb23960892a85a68f031ca0c8344b23a577dcf1052b9e775086113cd565b9350505050600080610a66600080516020611ab183398151915280610a3c57610a3c6118f0565b600080516020611ab1833981519152858609600080516020611ab183398151915287880908611369565b9050610ab3600080516020611ab18339815191527f183227397098d014dc2822db40c0ac2ecbc0b548b438e5469e10460b6c3e7ea4600080516020611ab1833981519152848808096113e6565b15915050610ac2838383611430565b90935091508683148015610ad557508186145b15610aff5780610ae6576000610ae9565b60025b60ff1660028a901b176000179450879350610b43565b610b08836113cd565b87148015610b1d5750610b1a826113cd565b86145b156108385780610b2e576000610b31565b60025b60ff1660028a901b1760011794508793505b5050505b94509492505050565b60008082600003610b6657506000928392509050565b600183811c925080841614600080516020611ab18339815191528310610b9f57604051631ff3747d60e21b815260040160405180910390fd5b610bdc600080516020611ab18339815191526003600080516020611ab183398151915286600080516020611ab18339815191528889090908611369565b91508015610bf057610bed826113cd565b91505b50915091565b600080808085158015610c07575084155b15610c1d57506000925082915081905080610dd3565b600286811c94508593506001808816149080881614600080516020611ab183398151915286101580610c5d5750600080516020611ab18339815191528510155b15610c7b57604051631ff3747d60e21b815260040160405180910390fd5b6000600080516020611ab1833981519152610ca56003600080516020611ab1833981519152611906565b600080516020611ab1833981519152888a090990506000600080516020611ab183398151915288600080516020611ab18339815191528a8b090990506000600080516020611ab183398151915288600080516020611ab18339815191528a8b09099050600080516020611ab183398151915280600080516020611ab18339815191528a860984087f2b149d40ceb8aaae81be18991be06ac3b5b4c5e559dbefa33267e6dc24a138e5089650610d9e600080516020611ab183398151915280600080516020611ab18339815191528c870984087f2fcd3ac2a640a154eb23960892a85a68f031ca0c8344b23a577dcf1052b9e775086113cd565b9550610dab878786611430565b90975095508415610dcd57610dbf876113cd565b9650610dca866113cd565b95505b50505050505b92959194509250565b6000806000600190506040516040810160007f2cb9af1e358e4712cef3938a128615118003117427df3f7a44a2e21f2492acba83527f25068a648e026d38cba294879a3b9bc67d43129c3d91b1aa1c3ad041f0676dc260208401527f27d31e9eb5330773ea7a0e996e2ee1eb34be1b1cb0e1791005c1f563725c144982527f0cafb7e68f62b0278d245ddf9c3802e36de21bf6b061cbdfd304d5c28212b8c0602083015286359050806040830152600080516020611ad183398151915281108416935060408260608460075afa8416935060408360808560065afa841693507f1700281b07cfbac8a778004edcba14bccc7ba3524c16ff0c82e083b9cfdc607882527f1ed0b568e558102eb3bc3e15f262d98cdfa231012711d246e8de0252edd67803602083015260208701359050806040830152600080516020611ad183398151915281108416935060408260608460075afa8416935060408360808560065afa841693507f07243555947608ba9febe210382e3bdae38032c8e5a137a0e700c18f7e037ebb82527f22b5c6b77d4b9e32ecf67bd5d2b6204032f9fc8d4864e4947b4c4cb891f10957602083015260408701359050806040830152600080516020611ad183398151915281108416935060408260608460075afa8416935060408360808560065afa841693507f0ae4efe15c50211cb0274cf17072bc29567e5c5b719ddedbc05c69ab8e043fa082527f0f8b881af1ff8dd5ba7dfe5ed31204f4c4e054c45d522de04c79220756af3e2c602083015260608701359050806040830152600080516020611ad183398151915281108416935060408260608460075afa8416935060408360808560065afa841693507f305ba4ce65a769fa7d2018a9b79d4a3a35d8bf7cb05af85647095f62c6ba72e582527f1e25d012de9a5632b97a74175de025e51ea8747c78a6469723f7d80b6e0d1fc0602083015260808701359050806040830152600080516020611ad183398151915281108416935060408260608460075afa8416935060408360808560065afa841693507f1bff514831c77e83d1169122ed9d7943acfe6ecd5c231389a3ecebe70976b93f82527f26eab1da2c04e39c25d1120db2d25c8910eba9f358edf8abf26343551bf26d5b602083015260a08701359050806040830152600080516020611ad183398151915281108416935060408260608460075afa8416935060408360808560065afa841693507f193c405178487ac28b787d2b02a44732c5b433e50ff87e74b06956f7a3eeba1482527f0a220d6ad99126d41371acfc048503f32d0e95dfbfcd02d08441706ddbe27997602083015260c08701359050806040830152600080516020611ad183398151915281108416935060408260608460075afa8416935060408360808560065afa841693507f1b3843fd7662409396f2a9db205378e2aa982be4d7ec981e693021b8bddc0bae82527f056cea3d42ddd2dded11a5abad17a8a620d11634d7e19639f64fce2e3225c858602083015260e08701359050806040830152600080516020611ad183398151915281108416935060408260608460075afa8416935060408360808560065afa7f08196c1876626c27e766acd3160bd3d13152401400f5a9296d8cac358a76c96383527f0d28ef3ab63bbff371927a731e037621fa1163ec285c841fc61b416c3124370060208401526101008801356040808501829052600080516020611ad183398151915290911091909516169390508160608160075afa831692505060408160808360065afa81516020909201519194509092501680610bf05760405163a54f8e2760e01b815260040160405180910390fd5b611325611697565b61132d6116b6565b6113356116b6565b611341848601866119bc565b9250925092509250925092565b6113566116d4565b61136282840184611a47565b9392505050565b6000611395827f0c19139cb84c680a6e14116da060561765e05aa45a1c72a34f082305b61f3f52611577565b905081600080516020611ab1833981519152828309146113c857604051631ff3747d60e21b815260040160405180910390fd5b919050565b600080516020611ab18339815191529081900681030690565b600080611413837f0c19139cb84c680a6e14116da060561765e05aa45a1c72a34f082305b61f3f52611577565b905082600080516020611ab1833981519152828309149392505050565b60008080611462600080516020611ab183398151915280878809600080516020611ab1833981519152898a0908611369565b9050831561147657611473816113cd565b90505b6114c1600080516020611ab18339815191527f183227397098d014dc2822db40c0ac2ecbc0b548b438e5469e10460b6c3e7ea4600080516020611ab1833981519152848a0809611369565b9250600080516020611ab18339815191526114ed600080516020611ab1833981519152600286096115dc565b86099150600080516020611ab183398151915261151a600080516020611ab18339815191528485096113cd565b600080516020611ab183398151915285860908861415806115505750600080516020611ab1833981519152808385096002098514155b1561156e57604051631ff3747d60e21b815260040160405180910390fd5b50935093915050565b6000806040516020815260208082015260206040820152846060820152836080820152600080516020611ab183398151915260a082015260208160c08360055afa9051925090508061085157604051631ff3747d60e21b815260040160405180910390fd5b6000611608827f30644e72e131a029b85045b68181585d97816a916871ca8d3c208c16d87cfd45611577565b9050600080516020611ab18339815191528183096001146113c857604051631ff3747d60e21b815260040160405180910390fd5b60405180608001604052806004906020820280368337509192915050565b6040518061030001604052806018906020820280368337509192915050565b60405180602001604052806001906020820280368337509192915050565b6040518061010001604052806008906020820280368337509192915050565b60405180604001604052806002906020820280368337509192915050565b6040518061012001604052806009906020820280368337509192915050565b80610100810183101561085357600080fd5b6000610100828403121561171857600080fd5b61136283836116f3565b60808101818360005b600481101561174a57815183526020928301929091019060010161172b565b50505092915050565b80610120810183101561085357600080fd5b6000806101a0838503121561177957600080fd5b608083018481111561178a57600080fd5b8392506117978582611753565b9150509250929050565b60008061022083850312156117b557600080fd5b6117bf84846116f3565b91506117cf846101008501611753565b90509250929050565b60008083601f8401126117ea57600080fd5b50813567ffffffffffffffff81111561180257600080fd5b60208301915083602082850101111561181a57600080fd5b9250929050565b6000806000806040858703121561183757600080fd5b843567ffffffffffffffff81111561184e57600080fd5b61185a878288016117d8565b909550935050602085013567ffffffffffffffff81111561187a57600080fd5b611886878288016117d8565b95989497509550505050565b6102208101818460005b60088110156118bb57815183526020928301929091019060010161189c565b50505061010082018360005b60098110156118e65781518352602092830192909101906001016118c7565b5050509392505050565b634e487b7160e01b600052601260045260246000fd5b8181038181111561085357634e487b7160e01b600052601160045260246000fd5b604051601f8201601f1916810167ffffffffffffffff8111828210171561195e57634e487b7160e01b600052604160045260246000fd5b604052919050565b600082601f83011261197757600080fd5b60006119836040611927565b905080604084018581111561199757600080fd5b845b818110156119b1578035835260209283019201611999565b509195945050505050565b600080600061018084860312156119d257600080fd5b600085601f8601126119e2578081fd5b806101006119ef81611927565b9250829150860187811115611a0357600080fd5b865b81811015611a1d578035845260209384019301611a05565b50819550611a2b8882611966565b9450505050611a3e856101408601611966565b90509250925092565b60006101208284031215611a5a57600080fd5b600083601f840112611a6a578081fd5b80610120611a7781611927565b9250829150840185811115611a8b57600080fd5b845b81811015611aa5578035845260209384019301611a8d565b50909594505050505056fe30644e72e131a029b85045b68181585d97816a916871ca8d3c208c16d87cfd4730644e72e131a029b85045b68181585d2833e84879b9709143e1f593f0000001a2646970667358221220060b25e5f79106997bbed10a5214024af89f9c3b2bd41f2a30586b03773926a864736f6c634300081c0033",
  "linkReferences": {},
  "deployedLinkReferences": {}
}